{
  "abi": [
    {
      "inputs": [],
      "stateMutability": "nonpayable",
      "type": "constructor"
    },
    {
      "anonymous": false,
      "inputs": [
        {
          "indexed": false,
          "internalType": "address",
          "name": "previousAdmin",
          "type": "address"
        },
        {
          "indexed": false,
          "internalType": "address",
          "name": "newAdmin",
          "type": "address"
        }
      ],
      "name": "AdminChanged",
      "type": "event"
    },
    {
      "anonymous": false,
      "inputs": [
        {
          "indexed": true,
          "internalType": "address",
          "name": "owner",
          "type": "address"
        },
        {
          "indexed": true,
          "internalType": "address",
          "name": "approved",
          "type": "address"
        },
        {
          "indexed": true,
          "internalType": "uint256",
          "name": "tokenId",
          "type": "uint256"
        }
      ],
      "name": "Approval",
      "type": "event"
    },
    {
      "anonymous": false,
      "inputs": [
        {
          "indexed": true,
          "internalType": "address",
          "name": "owner",
          "type": "address"
        },
        {
          "indexed": true,
          "internalType": "address",
          "name": "operator",
          "type": "address"
        },
        {
          "indexed": false,
          "internalType": "bool",
          "name": "approved",
          "type": "bool"
        }
      ],
      "name": "ApprovalForAll",
      "type": "event"
    },
    {
      "anonymous": false,
      "inputs": [
        {
          "indexed": true,
          "internalType": "address",
          "name": "beacon",
          "type": "address"
        }
      ],
      "name": "BeaconUpgraded",
      "type": "event"
    },
    {
      "anonymous": false,
      "inputs": [
        {
          "indexed": false,
          "internalType": "uint8",
          "name": "version",
          "type": "uint8"
        }
      ],
      "name": "Initialized",
      "type": "event"
    },
    {
      "anonymous": false,
      "inputs": [
        {
          "indexed": true,
          "internalType": "address",
          "name": "previousOwner",
          "type": "address"
        },
        {
          "indexed": true,
          "internalType": "address",
          "name": "newOwner",
          "type": "address"
        }
      ],
      "name": "OwnershipTransferred",
      "type": "event"
    },
    {
      "anonymous": false,
      "inputs": [
        {
          "indexed": false,
          "internalType": "address",
          "name": "account",
          "type": "address"
        }
      ],
      "name": "Paused",
      "type": "event"
    },
    {
      "anonymous": false,
      "inputs": [
        {
          "indexed": true,
          "internalType": "address",
          "name": "from",
          "type": "address"
        },
        {
          "indexed": true,
          "internalType": "address",
          "name": "to",
          "type": "address"
        },
        {
          "indexed": true,
          "internalType": "uint256",
          "name": "tokenId",
          "type": "uint256"
        }
      ],
      "name": "Transfer",
      "type": "event"
    },
    {
      "anonymous": false,
      "inputs": [
        {
          "indexed": false,
          "internalType": "address",
          "name": "account",
          "type": "address"
        }
      ],
      "name": "Unpaused",
      "type": "event"
    },
    {
      "anonymous": false,
      "inputs": [
        {
          "indexed": true,
          "internalType": "address",
          "name": "implementation",
          "type": "address"
        }
      ],
      "name": "Upgraded",
      "type": "event"
    },
    {
      "inputs": [
        {
          "internalType": "address",
          "name": "to",
          "type": "address"
        },
        {
          "internalType": "uint256",
          "name": "tokenId",
          "type": "uint256"
        }
      ],
      "name": "approve",
      "outputs": [],
      "stateMutability": "nonpayable",
      "type": "function"
    },
    {
      "inputs": [
        {
          "internalType": "address",
          "name": "owner",
          "type": "address"
        }
      ],
      "name": "balanceOf",
      "outputs": [
        {
          "internalType": "uint256",
          "name": "",
          "type": "uint256"
        }
      ],
      "stateMutability": "view",
      "type": "function"
    },
    {
      "inputs": [
        {
          "internalType": "uint256",
          "name": "tokenId",
          "type": "uint256"
        }
      ],
      "name": "getApproved",
      "outputs": [
        {
          "internalType": "address",
          "name": "",
          "type": "address"
        }
      ],
      "stateMutability": "view",
      "type": "function"
    },
    {
      "inputs": [
        {
          "internalType": "address",
          "name": "nextOwner",
          "type": "address"
        },
        {
          "internalType": "string",
          "name": "name_",
          "type": "string"
        },
        {
          "internalType": "string",
          "name": "symbol_",
          "type": "string"
        }
      ],
      "name": "initialize",
      "outputs": [],
      "stateMutability": "nonpayable",
      "type": "function"
    },
    {
      "inputs": [
        {
          "internalType": "address",
          "name": "owner",
          "type": "address"
        },
        {
          "internalType": "address",
          "name": "operator",
          "type": "address"
        }
      ],
      "name": "isApprovedForAll",
      "outputs": [
        {
          "internalType": "bool",
          "name": "",
          "type": "bool"
        }
      ],
      "stateMutability": "view",
      "type": "function"
    },
    {
      "inputs": [
        {
          "internalType": "address",
          "name": "recipient",
          "type": "address"
        },
        {
          "internalType": "string",
          "name": "uri",
          "type": "string"
        }
      ],
      "name": "mint",
      "outputs": [
        {
          "internalType": "uint256",
          "name": "",
          "type": "uint256"
        }
      ],
      "stateMutability": "nonpayable",
      "type": "function"
    },
    {
      "inputs": [],
      "name": "name",
      "outputs": [
        {
          "internalType": "string",
          "name": "",
          "type": "string"
        }
      ],
      "stateMutability": "view",
      "type": "function"
    },
    {
      "inputs": [],
      "name": "owner",
      "outputs": [
        {
          "internalType": "address",
          "name": "",
          "type": "address"
        }
      ],
      "stateMutability": "view",
      "type": "function"
    },
    {
      "inputs": [
        {
          "internalType": "uint256",
          "name": "tokenId",
          "type": "uint256"
        }
      ],
      "name": "ownerOf",
      "outputs": [
        {
          "internalType": "address",
          "name": "",
          "type": "address"
        }
      ],
      "stateMutability": "view",
      "type": "function"
    },
    {
      "inputs": [],
      "name": "pause",
      "outputs": [],
      "stateMutability": "nonpayable",
      "type": "function"
    },
    {
      "inputs": [],
      "name": "paused",
      "outputs": [
        {
          "internalType": "bool",
          "name": "",
          "type": "bool"
        }
      ],
      "stateMutability": "view",
      "type": "function"
    },
    {
      "inputs": [],
      "name": "proxiableUUID",
      "outputs": [
        {
          "internalType": "bytes32",
          "name": "",
          "type": "bytes32"
        }
      ],
      "stateMutability": "view",
      "type": "function"
    },
    {
      "inputs": [],
      "name": "renounceOwnership",
      "outputs": [],
      "stateMutability": "nonpayable",
      "type": "function"
    },
    {
      "inputs": [
        {
          "internalType": "address",
          "name": "from",
          "type": "address"
        },
        {
          "internalType": "address",
          "name": "to",
          "type": "address"
        },
        {
          "internalType": "uint256",
          "name": "tokenId",
          "type": "uint256"
        }
      ],
      "name": "safeTransferFrom",
      "outputs": [],
      "stateMutability": "nonpayable",
      "type": "function"
    },
    {
      "inputs": [
        {
          "internalType": "address",
          "name": "from",
          "type": "address"
        },
        {
          "internalType": "address",
          "name": "to",
          "type": "address"
        },
        {
          "internalType": "uint256",
          "name": "tokenId",
          "type": "uint256"
        },
        {
          "internalType": "bytes",
          "name": "data",
          "type": "bytes"
        }
      ],
      "name": "safeTransferFrom",
      "outputs": [],
      "stateMutability": "nonpayable",
      "type": "function"
    },
    {
      "inputs": [
        {
          "internalType": "address",
          "name": "operator",
          "type": "address"
        },
        {
          "internalType": "bool",
          "name": "approved",
          "type": "bool"
        }
      ],
      "name": "setApprovalForAll",
      "outputs": [],
      "stateMutability": "nonpayable",
      "type": "function"
    },
    {
      "inputs": [
        {
          "internalType": "uint256",
          "name": "tokenId",
          "type": "uint256"
        },
        {
          "internalType": "string",
          "name": "uri",
          "type": "string"
        }
      ],
      "name": "setTokenURI",
      "outputs": [],
      "stateMutability": "nonpayable",
      "type": "function"
    },
    {
      "inputs": [
        {
          "internalType": "bytes4",
          "name": "interfaceId",
          "type": "bytes4"
        }
      ],
      "name": "supportsInterface",
      "outputs": [
        {
          "internalType": "bool",
          "name": "",
          "type": "bool"
        }
      ],
      "stateMutability": "view",
      "type": "function"
    },
    {
      "inputs": [],
      "name": "symbol",
      "outputs": [
        {
          "internalType": "string",
          "name": "",
          "type": "string"
        }
      ],
      "stateMutability": "view",
      "type": "function"
    },
    {
      "inputs": [
        {
          "internalType": "uint256",
          "name": "index",
          "type": "uint256"
        }
      ],
      "name": "tokenByIndex",
      "outputs": [
        {
          "internalType": "uint256",
          "name": "",
          "type": "uint256"
        }
      ],
      "stateMutability": "view",
      "type": "function"
    },
    {
      "inputs": [
        {
          "internalType": "address",
          "name": "owner",
          "type": "address"
        },
        {
          "internalType": "uint256",
          "name": "index",
          "type": "uint256"
        }
      ],
      "name": "tokenOfOwnerByIndex",
      "outputs": [
        {
          "internalType": "uint256",
          "name": "",
          "type": "uint256"
        }
      ],
      "stateMutability": "view",
      "type": "function"
    },
    {
      "inputs": [
        {
          "internalType": "uint256",
          "name": "tokenId",
          "type": "uint256"
        }
      ],
      "name": "tokenURI",
      "outputs": [
        {
          "internalType": "string",
          "name": "",
          "type": "string"
        }
      ],
      "stateMutability": "view",
      "type": "function"
    },
    {
      "inputs": [],
      "name": "totalSupply",
      "outputs": [
        {
          "internalType": "uint256",
          "name": "",
          "type": "uint256"
        }
      ],
      "stateMutability": "view",
      "type": "function"
    },
    {
      "inputs": [
        {
          "internalType": "address",
          "name": "from",
          "type": "address"
        },
        {
          "internalType": "address",
          "name": "to",
          "type": "address"
        },
        {
          "internalType": "uint256",
          "name": "tokenId",
          "type": "uint256"
        }
      ],
      "name": "transferFrom",
      "outputs": [],
      "stateMutability": "nonpayable",
      "type": "function"
    },
    {
      "inputs": [
        {
          "internalType": "address",
          "name": "newOwner",
          "type": "address"
        }
      ],
      "name": "transferOwnership",
      "outputs": [],
      "stateMutability": "nonpayable",
      "type": "function"
    },
    {
      "inputs": [],
      "name": "unpause",
      "outputs": [],
      "stateMutability": "nonpayable",
      "type": "function"
    },
    {
      "inputs": [
        {
          "internalType": "address",
          "name": "newImplementation",
          "type": "address"
        }
      ],
      "name": "upgradeTo",
      "outputs": [],
      "stateMutability": "nonpayable",
      "type": "function"
    },
    {
      "inputs": [
        {
          "internalType": "address",
          "name": "newImplementation",
          "type": "address"
        },
        {
          "internalType": "bytes",
          "name": "data",
          "type": "bytes"
        }
      ],
      "name": "upgradeToAndCall",
      "outputs": [],
      "stateMutability": "payable",
      "type": "function"
    }
  ],
  "bytecode": {
    "object": "0x60a06040523060601b6080523480156200001857600080fd5b506200002362000029565b620000eb565b600054610100900460ff1615620000965760405162461bcd60e51b815260206004820152602760248201527f496e697469616c697a61626c653a20636f6e747261637420697320696e697469604482015266616c697a696e6760c81b606482015260840160405180910390fd5b60005460ff9081161015620000e9576000805460ff191660ff9081179091556040519081527f7f26b83ff96e1f2b6a682f133852f6798a09c465da95921460cefb38474024989060200160405180910390a15b565b60805160601c61277262000126600039600081816108b9015281816108f9015281816109c601528181610a060152610b2c01526127726000f3fe6080604052600436106101b75760003560e01c80635c975abb116100ec57806395d89b411161008a578063c87b56dd11610064578063c87b56dd146104a0578063d0def521146104c0578063e985e9c5146104e0578063f2fde38b1461052957600080fd5b806395d89b411461044b578063a22cb46514610460578063b88d4fde1461048057600080fd5b8063715018a6116100c6578063715018a6146103e25780638456cb59146103f75780638da5cb5b1461040c578063906571471461042b57600080fd5b80635c975abb146103895780636352211e146103a257806370a08231146103c257600080fd5b80632f745c591161015957806342842e0e1161013357806342842e0e146103215780634f1ef286146103415780634f6ccce71461035457806352d1902d1461037457600080fd5b80632f745c59146102cc5780633659cfe6146102ec5780633f4ba83a1461030c57600080fd5b8063095ea7b311610195578063095ea7b31461024b578063162094c41461026d57806318160ddd1461028d57806323b872dd146102ac57600080fd5b806301ffc9a7146101bc57806306fdde03146101f1578063081812fc14610213575b600080fd5b3480156101c857600080fd5b506101dc6101d7366004612353565b610549565b60405190151581526020015b60405180910390f35b3480156101fd57600080fd5b50610206610574565b6040516101e8919061245c565b34801561021f57600080fd5b5061023361022e36600461238d565b610606565b6040516001600160a01b0390911681526020016101e8565b34801561025757600080fd5b5061026b610266366004612310565b61062d565b005b34801561027957600080fd5b5061026b6102883660046123a6565b610748565b34801561029957600080fd5b506099545b6040519081526020016101e8565b3480156102b857600080fd5b5061026b6102c736600461216e565b6107e7565b3480156102d857600080fd5b5061029e6102e7366004612310565b610818565b3480156102f857600080fd5b5061026b610307366004612120565b6108ae565b34801561031857600080fd5b5061026b61098e565b34801561032d57600080fd5b5061026b61033c36600461216e565b6109a0565b61026b61034f36600461224e565b6109bb565b34801561036057600080fd5b5061029e61036f36600461238d565b610a8c565b34801561038057600080fd5b5061029e610b1f565b34801561039557600080fd5b5061015f5460ff166101dc565b3480156103ae57600080fd5b506102336103bd36600461238d565b610bd2565b3480156103ce57600080fd5b5061029e6103dd366004612120565b610c32565b3480156103ee57600080fd5b5061026b610cb8565b34801561040357600080fd5b5061026b610cca565b34801561041857600080fd5b5061012d546001600160a01b0316610233565b34801561043757600080fd5b5061026b61044636600461229c565b610cda565b34801561045757600080fd5b50610206610e19565b34801561046c57600080fd5b5061026b61047b366004612212565b610e28565b34801561048c57600080fd5b5061026b61049b3660046121aa565b610e33565b3480156104ac57600080fd5b506102066104bb36600461238d565b610e65565b3480156104cc57600080fd5b5061029e6104db36600461224e565b610f08565b3480156104ec57600080fd5b506101dc6104fb36600461213b565b6001600160a01b039182166000908152606a6020908152604080832093909416825291909152205460ff1690565b34801561053557600080fd5b5061026b610544366004612120565b610fdb565b60006001600160e01b0319821663780e9d6360e01b148061056e575061056e82611051565b92915050565b6060606580546105839061264c565b80601f01602080910402602001604051908101604052809291908181526020018280546105af9061264c565b80156105fc5780601f106105d1576101008083540402835291602001916105fc565b820191906000526020600020905b8154815290600101906020018083116105df57829003601f168201915b5050505050905090565b6000610611826110a1565b506000908152606960205260409020546001600160a01b031690565b600061063882610bd2565b9050806001600160a01b0316836001600160a01b031614156106ab5760405162461bcd60e51b815260206004820152602160248201527f4552433732313a20617070726f76616c20746f2063757272656e74206f776e656044820152603960f91b60648201526084015b60405180910390fd5b336001600160a01b03821614806106c757506106c781336104fb565b6107395760405162461bcd60e51b815260206004820152603d60248201527f4552433732313a20617070726f76652063616c6c6572206973206e6f7420746f60448201527f6b656e206f776e6572206f7220617070726f76656420666f7220616c6c00000060648201526084016106a2565b6107438383611100565b505050565b61075061116e565b6000828152606760205260409020546001600160a01b03166107c75760405162461bcd60e51b815260206004820152602a60248201527f5f736574546f6b656e5552493a2055524920736574206f66206e6f6e657869736044820152693a32b73a103a37b5b2b760b11b60648201526084016106a2565b600082815261019260209081526040909120825161074392840190611fde565b6107f133826111c9565b61080d5760405162461bcd60e51b81526004016106a29061246f565b610743838383611248565b600061082383610c32565b82106108855760405162461bcd60e51b815260206004820152602b60248201527f455243373231456e756d657261626c653a206f776e657220696e646578206f7560448201526a74206f6620626f756e647360a81b60648201526084016106a2565b506001600160a01b03919091166000908152609760209081526040808320938352929052205490565b306001600160a01b037f00000000000000000000000000000000000000000000000000000000000000001614156108f75760405162461bcd60e51b81526004016106a29061250e565b7f00000000000000000000000000000000000000000000000000000000000000006001600160a01b03166109406000805160206126f6833981519152546001600160a01b031690565b6001600160a01b0316146109665760405162461bcd60e51b81526004016106a29061255a565b61096f816113fe565b6040805160008082526020820190925261098b91839190611406565b50565b61099661116e565b61099e611580565b565b61074383838360405180602001604052806000815250610e33565b306001600160a01b037f0000000000000000000000000000000000000000000000000000000000000000161415610a045760405162461bcd60e51b81526004016106a29061250e565b7f00000000000000000000000000000000000000000000000000000000000000006001600160a01b0316610a4d6000805160206126f6833981519152546001600160a01b031690565b6001600160a01b031614610a735760405162461bcd60e51b81526004016106a29061255a565b610a7c826113fe565b610a8882826001611406565b5050565b6000610a9760995490565b8210610afa5760405162461bcd60e51b815260206004820152602c60248201527f455243373231456e756d657261626c653a20676c6f62616c20696e646578206f60448201526b7574206f6620626f756e647360a01b60648201526084016106a2565b60998281548110610b0d57610b0d6126b3565b90600052602060002001549050919050565b6000306001600160a01b037f00000000000000000000000000000000000000000000000000000000000000001614610bbf5760405162461bcd60e51b815260206004820152603860248201527f555550535570677261646561626c653a206d757374206e6f742062652063616c60448201527f6c6564207468726f7567682064656c656761746563616c6c000000000000000060648201526084016106a2565b506000805160206126f683398151915290565b6000818152606760205260408120546001600160a01b03168061056e5760405162461bcd60e51b8152602060048201526018602482015277115490cdcc8c4e881a5b9d985b1a59081d1bdad95b88125160421b60448201526064016106a2565b60006001600160a01b038216610c9c5760405162461bcd60e51b815260206004820152602960248201527f4552433732313a2061646472657373207a65726f206973206e6f7420612076616044820152683634b21037bbb732b960b91b60648201526084016106a2565b506001600160a01b031660009081526068602052604090205490565b610cc061116e565b61099e60006115d3565b610cd261116e565b61099e611626565b600054610100900460ff1615808015610cfa5750600054600160ff909116105b80610d145750303b158015610d14575060005460ff166001145b610d775760405162461bcd60e51b815260206004820152602e60248201527f496e697469616c697a61626c653a20636f6e747261637420697320616c72656160448201526d191e481a5b9a5d1a585b1a5e995960921b60648201526084016106a2565b6000805460ff191660011790558015610d9a576000805461ff0019166101001790555b610da2611664565b610dac838361168b565b610db4611664565b610dbc6116bc565b610dc584610fdb565b610dcd611626565b8015610e13576000805461ff0019169055604051600181527f7f26b83ff96e1f2b6a682f133852f6798a09c465da95921460cefb38474024989060200160405180910390a15b50505050565b6060606680546105839061264c565b610a883383836116eb565b610e3d33836111c9565b610e595760405162461bcd60e51b81526004016106a29061246f565b610e13848484846117ba565b600081815261019260205260409020805460609190610e839061264c565b80601f0160208091040260200160405190810160405280929190818152602001828054610eaf9061264c565b8015610efc5780601f10610ed157610100808354040283529160200191610efc565b820191906000526020600020905b815481529060010190602001808311610edf57829003601f168201915b50505050509050919050565b6000610f1d61012d546001600160a01b031690565b6001600160a01b0316336001600160a01b03161480610f40575061015f5460ff16155b610f8c5760405162461bcd60e51b815260206004820152601a60248201527f6d696e743a20756e617574686f72697a656420746f206d696e7400000000000060448201526064016106a2565b610f9b61019180546001019055565b6000610fa76101915490565b9050610fb384826117ed565b6000818152610192602090815260409091208451610fd392860190611fde565b509392505050565b610fe361116e565b6001600160a01b0381166110485760405162461bcd60e51b815260206004820152602660248201527f4f776e61626c653a206e6577206f776e657220697320746865207a65726f206160448201526564647265737360d01b60648201526084016106a2565b61098b816115d3565b60006001600160e01b031982166380ac58cd60e01b148061108257506001600160e01b03198216635b5e139f60e01b145b8061056e57506301ffc9a760e01b6001600160e01b031983161461056e565b6000818152606760205260409020546001600160a01b031661098b5760405162461bcd60e51b8152602060048201526018602482015277115490cdcc8c4e881a5b9d985b1a59081d1bdad95b88125160421b60448201526064016106a2565b600081815260696020526040902080546001600160a01b0319166001600160a01b038416908117909155819061113582610bd2565b6001600160a01b03167f8c5be1e5ebec7d5bd14f71427d1e84f3dd0314c0f7b2291e5b200ac8c7c3b92560405160405180910390a45050565b61012d546001600160a01b0316331461099e5760405162461bcd60e51b815260206004820181905260248201527f4f776e61626c653a2063616c6c6572206973206e6f7420746865206f776e657260448201526064016106a2565b6000806111d583610bd2565b9050806001600160a01b0316846001600160a01b0316148061121c57506001600160a01b038082166000908152606a602090815260408083209388168352929052205460ff165b806112405750836001600160a01b031661123584610606565b6001600160a01b0316145b949350505050565b826001600160a01b031661125b82610bd2565b6001600160a01b0316146112bf5760405162461bcd60e51b815260206004820152602560248201527f4552433732313a207472616e736665722066726f6d20696e636f72726563742060448201526437bbb732b960d91b60648201526084016106a2565b6001600160a01b0382166113215760405162461bcd60e51b8152602060048201526024808201527f4552433732313a207472616e7366657220746f20746865207a65726f206164646044820152637265737360e01b60648201526084016106a2565b61132c83838361193b565b600081815260696020908152604080832080546001600160a01b03191690556001600160a01b03861683526068909152812080546001929061136f908490612609565b90915550506001600160a01b038216600090815260686020526040812080546001929061139d9084906125f1565b909155505060008181526067602052604080822080546001600160a01b0319166001600160a01b0386811691821790925591518493918716917fddf252ad1be2c89b69c2b068fc378daa952ba7f163c4a11628f55a4df523b3ef91a4505050565b61098b61116e565b7f4910fdfa16fed3260ed0e7147f7cc6da11a60208b5b9406d12a635614ffd91435460ff161561143957610743836119f3565b826001600160a01b03166352d1902d6040518163ffffffff1660e01b815260040160206040518083038186803b15801561147257600080fd5b505afa9250505080156114a2575060408051601f3d908101601f1916820190925261149f9181019061233a565b60015b6115055760405162461bcd60e51b815260206004820152602e60248201527f45524331393637557067726164653a206e657720696d706c656d656e7461746960448201526d6f6e206973206e6f74205555505360901b60648201526084016106a2565b6000805160206126f683398151915281146115745760405162461bcd60e51b815260206004820152602960248201527f45524331393637557067726164653a20756e737570706f727465642070726f786044820152681a58589b195555525160ba1b60648201526084016106a2565b50610743838383611a8f565b611588611ab4565b61015f805460ff191690557f5db9ee0a495bf2e6ff9c91a7834c1ba4fdd244a5e8aa4e537bd38aeae4b073aa335b6040516001600160a01b03909116815260200160405180910390a1565b61012d80546001600160a01b038381166001600160a01b0319831681179093556040519116919082907f8be0079c531659141344cd1fd0a4f28419497f9722a3daafe3b4186f6b6457e090600090a35050565b61162e611afe565b61015f805460ff191660011790557f62e78cea01bee320cd4e420270b5ea74000d11b0c9f74754ebdbfc544b05a2586115b63390565b600054610100900460ff1661099e5760405162461bcd60e51b81526004016106a2906125a6565b600054610100900460ff166116b25760405162461bcd60e51b81526004016106a2906125a6565b610a888282611b45565b600054610100900460ff166116e35760405162461bcd60e51b81526004016106a2906125a6565b61099e611b93565b816001600160a01b0316836001600160a01b0316141561174d5760405162461bcd60e51b815260206004820152601960248201527f4552433732313a20617070726f766520746f2063616c6c65720000000000000060448201526064016106a2565b6001600160a01b038381166000818152606a6020908152604080832094871680845294825291829020805460ff191686151590811790915591519182527f17307eab39ab6107e8899845ad3d59bd9653f200f220920489ca2b5937696c31910160405180910390a3505050565b6117c5848484611248565b6117d184848484611bc3565b610e135760405162461bcd60e51b81526004016106a2906124bc565b6001600160a01b0382166118435760405162461bcd60e51b815260206004820181905260248201527f4552433732313a206d696e7420746f20746865207a65726f206164647265737360448201526064016106a2565b6000818152606760205260409020546001600160a01b0316156118a85760405162461bcd60e51b815260206004820152601c60248201527f4552433732313a20746f6b656e20616c7265616479206d696e7465640000000060448201526064016106a2565b6118b46000838361193b565b6001600160a01b03821660009081526068602052604081208054600192906118dd9084906125f1565b909155505060008181526067602052604080822080546001600160a01b0319166001600160a01b03861690811790915590518392907fddf252ad1be2c89b69c2b068fc378daa952ba7f163c4a11628f55a4df523b3ef908290a45050565b6001600160a01b0383166119965761199181609980546000838152609a60205260408120829055600182018355919091527f72a152ddfb8e864297c917af52ea6c1c68aead0fee1a62673fcc7e0c94979d000155565b6119b9565b816001600160a01b0316836001600160a01b0316146119b9576119b98382611cd0565b6001600160a01b0382166119d05761074381611d6d565b826001600160a01b0316826001600160a01b031614610743576107438282611e1c565b6001600160a01b0381163b611a605760405162461bcd60e51b815260206004820152602d60248201527f455243313936373a206e657720696d706c656d656e746174696f6e206973206e60448201526c1bdd08184818dbdb9d1c9858dd609a1b60648201526084016106a2565b6000805160206126f683398151915280546001600160a01b0319166001600160a01b0392909216919091179055565b611a9883611e60565b600082511180611aa55750805b1561074357610e138383611ea0565b61015f5460ff1661099e5760405162461bcd60e51b815260206004820152601460248201527314185d5cd8589b194e881b9bdd081c185d5cd95960621b60448201526064016106a2565b61015f5460ff161561099e5760405162461bcd60e51b815260206004820152601060248201526f14185d5cd8589b194e881c185d5cd95960821b60448201526064016106a2565b600054610100900460ff16611b6c5760405162461bcd60e51b81526004016106a2906125a6565b8151611b7f906065906020850190611fde565b508051610743906066906020840190611fde565b600054610100900460ff16611bba5760405162461bcd60e51b81526004016106a2906125a6565b61099e336115d3565b60006001600160a01b0384163b15611cc557604051630a85bd0160e11b81526001600160a01b0385169063150b7a0290611c0790339089908890889060040161241f565b602060405180830381600087803b158015611c2157600080fd5b505af1925050508015611c51575060408051601f3d908101601f19168201909252611c4e91810190612370565b60015b611cab573d808015611c7f576040519150601f19603f3d011682016040523d82523d6000602084013e611c84565b606091505b508051611ca35760405162461bcd60e51b81526004016106a2906124bc565b805181602001fd5b6001600160e01b031916630a85bd0160e11b149050611240565b506001949350505050565b60006001611cdd84610c32565b611ce79190612609565b600083815260986020526040902054909150808214611d3a576001600160a01b03841660009081526097602090815260408083208584528252808320548484528184208190558352609890915290208190555b5060009182526098602090815260408084208490556001600160a01b039094168352609781528383209183525290812055565b609954600090611d7f90600190612609565b6000838152609a602052604081205460998054939450909284908110611da757611da76126b3565b906000526020600020015490508060998381548110611dc857611dc86126b3565b6000918252602080832090910192909255828152609a90915260408082208490558582528120556099805480611e0057611e0061269d565b6001900381819060005260206000200160009055905550505050565b6000611e2783610c32565b6001600160a01b039093166000908152609760209081526040808320868452825280832085905593825260989052919091209190915550565b611e69816119f3565b6040516001600160a01b038216907fbc7cd75a20ee27fd9adebab32041f755214dbc6bffa90cc0225b39da2e5c2d3b90600090a250565b60606001600160a01b0383163b611f085760405162461bcd60e51b815260206004820152602660248201527f416464726573733a2064656c65676174652063616c6c20746f206e6f6e2d636f6044820152651b9d1c9858dd60d21b60648201526084016106a2565b600080846001600160a01b031684604051611f239190612403565b600060405180830381855af49150503d8060008114611f5e576040519150601f19603f3d011682016040523d82523d6000602084013e611f63565b606091505b5091509150611f8b828260405180606001604052806027815260200161271660279139611f94565b95945050505050565b60608315611fa3575081611fad565b611fad8383611fb4565b9392505050565b815115611fc45781518083602001fd5b8060405162461bcd60e51b81526004016106a2919061245c565b828054611fea9061264c565b90600052602060002090601f01602090048101928261200c5760008555612052565b82601f1061202557805160ff1916838001178555612052565b82800160010185558215612052579182015b82811115612052578251825591602001919060010190612037565b5061205e929150612062565b5090565b5b8082111561205e5760008155600101612063565b80356001600160a01b038116811461208e57600080fd5b919050565b600082601f8301126120a457600080fd5b813567ffffffffffffffff808211156120bf576120bf6126c9565b604051601f8301601f19908116603f011681019082821181831017156120e7576120e76126c9565b8160405283815286602085880101111561210057600080fd5b836020870160208301376000602085830101528094505050505092915050565b60006020828403121561213257600080fd5b611fad82612077565b6000806040838503121561214e57600080fd5b61215783612077565b915061216560208401612077565b90509250929050565b60008060006060848603121561218357600080fd5b61218c84612077565b925061219a60208501612077565b9150604084013590509250925092565b600080600080608085870312156121c057600080fd5b6121c985612077565b93506121d760208601612077565b925060408501359150606085013567ffffffffffffffff8111156121fa57600080fd5b61220687828801612093565b91505092959194509250565b6000806040838503121561222557600080fd5b61222e83612077565b91506020830135801515811461224357600080fd5b809150509250929050565b6000806040838503121561226157600080fd5b61226a83612077565b9150602083013567ffffffffffffffff81111561228657600080fd5b61229285828601612093565b9150509250929050565b6000806000606084860312156122b157600080fd5b6122ba84612077565b9250602084013567ffffffffffffffff808211156122d757600080fd5b6122e387838801612093565b935060408601359150808211156122f957600080fd5b5061230686828701612093565b9150509250925092565b6000806040838503121561232357600080fd5b61232c83612077565b946020939093013593505050565b60006020828403121561234c57600080fd5b5051919050565b60006020828403121561236557600080fd5b8135611fad816126df565b60006020828403121561238257600080fd5b8151611fad816126df565b60006020828403121561239f57600080fd5b5035919050565b600080604083850312156123b957600080fd5b82359150602083013567ffffffffffffffff81111561228657600080fd5b600081518084526123ef816020860160208601612620565b601f01601f19169290920160200192915050565b60008251612415818460208701612620565b9190910192915050565b6001600160a01b0385811682528416602082015260408101839052608060608201819052600090612452908301846123d7565b9695505050505050565b602081526000611fad60208301846123d7565b6020808252602d908201527f4552433732313a2063616c6c6572206973206e6f7420746f6b656e206f776e6560408201526c1c881bdc88185c1c1c9bdd9959609a1b606082015260800190565b60208082526032908201527f4552433732313a207472616e7366657220746f206e6f6e20455243373231526560408201527131b2b4bb32b91034b6b83632b6b2b73a32b960711b606082015260800190565b6020808252602c908201527f46756e6374696f6e206d7573742062652063616c6c6564207468726f7567682060408201526b19195b1959d85d1958d85b1b60a21b606082015260800190565b6020808252602c908201527f46756e6374696f6e206d7573742062652063616c6c6564207468726f7567682060408201526b6163746976652070726f787960a01b606082015260800190565b6020808252602b908201527f496e697469616c697a61626c653a20636f6e7472616374206973206e6f74206960408201526a6e697469616c697a696e6760a81b606082015260800190565b6000821982111561260457612604612687565b500190565b60008282101561261b5761261b612687565b500390565b60005b8381101561263b578181015183820152602001612623565b83811115610e135750506000910152565b600181811c9082168061266057607f821691505b6020821081141561268157634e487b7160e01b600052602260045260246000fd5b50919050565b634e487b7160e01b600052601160045260246000fd5b634e487b7160e01b600052603160045260246000fd5b634e487b7160e01b600052603260045260246000fd5b634e487b7160e01b600052604160045260246000fd5b6001600160e01b03198116811461098b57600080fdfe360894a13ba1a3210667c828492db98dca3e2076cc3735a920a3ca505d382bbc416464726573733a206c6f772d6c6576656c2064656c65676174652063616c6c206661696c6564a26469706673582212207f83edd78d32eabefa786282478f98c49b392971009d59f5005e32cc4e13d2f764736f6c63430008070033",
    "linkReferences": {}
  },
  "methodIdentifiers": {
    "approve(address,uint256)": "095ea7b3",
    "balanceOf(address)": "70a08231",
    "getApproved(uint256)": "081812fc",
    "initialize(address,string,string)": "90657147",
    "isApprovedForAll(address,address)": "e985e9c5",
    "mint(address,string)": "d0def521",
    "name()": "06fdde03",
    "owner()": "8da5cb5b",
    "ownerOf(uint256)": "6352211e",
    "pause()": "8456cb59",
    "paused()": "5c975abb",
    "proxiableUUID()": "52d1902d",
    "renounceOwnership()": "715018a6",
    "safeTransferFrom(address,address,uint256)": "42842e0e",
    "safeTransferFrom(address,address,uint256,bytes)": "b88d4fde",
    "setApprovalForAll(address,bool)": "a22cb465",
    "setTokenURI(uint256,string)": "162094c4",
    "supportsInterface(bytes4)": "01ffc9a7",
    "symbol()": "95d89b41",
    "tokenByIndex(uint256)": "4f6ccce7",
    "tokenOfOwnerByIndex(address,uint256)": "2f745c59",
    "tokenURI(uint256)": "c87b56dd",
    "totalSupply()": "18160ddd",
    "transferFrom(address,address,uint256)": "23b872dd",
    "transferOwnership(address)": "f2fde38b",
    "unpause()": "3f4ba83a",
    "upgradeTo(address)": "3659cfe6",
    "upgradeToAndCall(address,bytes)": "4f1ef286"
  },
  "id": 47
}