{
  "abi": [
    {
      "inputs": [],
      "stateMutability": "nonpayable",
      "type": "constructor"
    },
    {
      "anonymous": false,
      "inputs": [
        {
          "indexed": false,
          "internalType": "address",
          "name": "previousAdmin",
          "type": "address"
        },
        {
          "indexed": false,
          "internalType": "address",
          "name": "newAdmin",
          "type": "address"
        }
      ],
      "name": "AdminChanged",
      "type": "event"
    },
    {
      "anonymous": false,
      "inputs": [
        {
          "indexed": true,
          "internalType": "uint256",
          "name": "tokenId",
          "type": "uint256"
        },
        {
          "indexed": true,
          "internalType": "address",
          "name": "admin",
          "type": "address"
        },
        {
          "indexed": false,
          "internalType": "bool",
          "name": "isAdded",
          "type": "bool"
        }
      ],
      "name": "AdminUpdate",
      "type": "event"
    },
    {
      "anonymous": false,
      "inputs": [
        {
          "indexed": true,
          "internalType": "address",
          "name": "owner",
          "type": "address"
        },
        {
          "indexed": true,
          "internalType": "address",
          "name": "approved",
          "type": "address"
        },
        {
          "indexed": true,
          "internalType": "uint256",
          "name": "tokenId",
          "type": "uint256"
        }
      ],
      "name": "Approval",
      "type": "event"
    },
    {
      "anonymous": false,
      "inputs": [
        {
          "indexed": true,
          "internalType": "address",
          "name": "owner",
          "type": "address"
        },
        {
          "indexed": true,
          "internalType": "address",
          "name": "operator",
          "type": "address"
        },
        {
          "indexed": false,
          "internalType": "bool",
          "name": "approved",
          "type": "bool"
        }
      ],
      "name": "ApprovalForAll",
      "type": "event"
    },
    {
      "anonymous": false,
      "inputs": [
        {
          "indexed": true,
          "internalType": "address",
          "name": "beacon",
          "type": "address"
        }
      ],
      "name": "BeaconUpgraded",
      "type": "event"
    },
    {
      "anonymous": false,
      "inputs": [
        {
          "indexed": false,
          "internalType": "uint8",
          "name": "version",
          "type": "uint8"
        }
      ],
      "name": "Initialized",
      "type": "event"
    },
    {
      "anonymous": false,
      "inputs": [
        {
          "indexed": true,
          "internalType": "uint256",
          "name": "tokenId",
          "type": "uint256"
        }
      ],
      "name": "MetadataUpdate",
      "type": "event"
    },
    {
      "anonymous": false,
      "inputs": [
        {
          "indexed": true,
          "internalType": "address",
          "name": "previousOwner",
          "type": "address"
        },
        {
          "indexed": true,
          "internalType": "address",
          "name": "newOwner",
          "type": "address"
        }
      ],
      "name": "OwnershipTransferred",
      "type": "event"
    },
    {
      "anonymous": false,
      "inputs": [
        {
          "indexed": false,
          "internalType": "address",
          "name": "account",
          "type": "address"
        }
      ],
      "name": "Paused",
      "type": "event"
    },
    {
      "anonymous": false,
      "inputs": [
        {
          "indexed": true,
          "internalType": "address",
          "name": "from",
          "type": "address"
        },
        {
          "indexed": true,
          "internalType": "address",
          "name": "to",
          "type": "address"
        },
        {
          "indexed": true,
          "internalType": "uint256",
          "name": "tokenId",
          "type": "uint256"
        }
      ],
      "name": "Transfer",
      "type": "event"
    },
    {
      "anonymous": false,
      "inputs": [
        {
          "indexed": false,
          "internalType": "address",
          "name": "account",
          "type": "address"
        }
      ],
      "name": "Unpaused",
      "type": "event"
    },
    {
      "anonymous": false,
      "inputs": [
        {
          "indexed": true,
          "internalType": "address",
          "name": "implementation",
          "type": "address"
        }
      ],
      "name": "Upgraded",
      "type": "event"
    },
    {
      "inputs": [
        {
          "internalType": "uint256",
          "name": "tokenId",
          "type": "uint256"
        },
        {
          "internalType": "address[]",
          "name": "admins",
          "type": "address[]"
        }
      ],
      "name": "addAdmins",
      "outputs": [],
      "stateMutability": "nonpayable",
      "type": "function"
    },
    {
      "inputs": [
        {
          "internalType": "address",
          "name": "to",
          "type": "address"
        },
        {
          "internalType": "uint256",
          "name": "tokenId",
          "type": "uint256"
        }
      ],
      "name": "approve",
      "outputs": [],
      "stateMutability": "nonpayable",
      "type": "function"
    },
    {
      "inputs": [
        {
          "internalType": "address",
          "name": "owner",
          "type": "address"
        }
      ],
      "name": "balanceOf",
      "outputs": [
        {
          "internalType": "uint256",
          "name": "",
          "type": "uint256"
        }
      ],
      "stateMutability": "view",
      "type": "function"
    },
    {
      "inputs": [
        {
          "internalType": "uint256",
          "name": "tokenId",
          "type": "uint256"
        }
      ],
      "name": "getApproved",
      "outputs": [
        {
          "internalType": "address",
          "name": "",
          "type": "address"
        }
      ],
      "stateMutability": "view",
      "type": "function"
    },
    {
      "inputs": [
        {
          "internalType": "address",
          "name": "nextOwner",
          "type": "address"
        },
        {
          "internalType": "string",
          "name": "name_",
          "type": "string"
        },
        {
          "internalType": "string",
          "name": "symbol_",
          "type": "string"
        }
      ],
      "name": "initialize",
      "outputs": [],
      "stateMutability": "nonpayable",
      "type": "function"
    },
    {
      "inputs": [
        {
          "internalType": "uint256",
          "name": "tokenId",
          "type": "uint256"
        },
        {
          "internalType": "address",
          "name": "admin",
          "type": "address"
        }
      ],
      "name": "isAdminActive",
      "outputs": [
        {
          "internalType": "bool",
          "name": "",
          "type": "bool"
        }
      ],
      "stateMutability": "view",
      "type": "function"
    },
    {
      "inputs": [
        {
          "internalType": "address",
          "name": "owner",
          "type": "address"
        },
        {
          "internalType": "address",
          "name": "operator",
          "type": "address"
        }
      ],
      "name": "isApprovedForAll",
      "outputs": [
        {
          "internalType": "bool",
          "name": "",
          "type": "bool"
        }
      ],
      "stateMutability": "view",
      "type": "function"
    },
    {
      "inputs": [
        {
          "internalType": "address",
          "name": "recipient",
          "type": "address"
        },
        {
          "internalType": "string",
          "name": "uri",
          "type": "string"
        }
      ],
      "name": "mint",
      "outputs": [
        {
          "internalType": "uint256",
          "name": "",
          "type": "uint256"
        }
      ],
      "stateMutability": "nonpayable",
      "type": "function"
    },
    {
      "inputs": [],
      "name": "name",
      "outputs": [
        {
          "internalType": "string",
          "name": "",
          "type": "string"
        }
      ],
      "stateMutability": "view",
      "type": "function"
    },
    {
      "inputs": [],
      "name": "owner",
      "outputs": [
        {
          "internalType": "address",
          "name": "",
          "type": "address"
        }
      ],
      "stateMutability": "view",
      "type": "function"
    },
    {
      "inputs": [
        {
          "internalType": "uint256",
          "name": "tokenId",
          "type": "uint256"
        }
      ],
      "name": "ownerOf",
      "outputs": [
        {
          "internalType": "address",
          "name": "",
          "type": "address"
        }
      ],
      "stateMutability": "view",
      "type": "function"
    },
    {
      "inputs": [],
      "name": "pause",
      "outputs": [],
      "stateMutability": "nonpayable",
      "type": "function"
    },
    {
      "inputs": [],
      "name": "paused",
      "outputs": [
        {
          "internalType": "bool",
          "name": "",
          "type": "bool"
        }
      ],
      "stateMutability": "view",
      "type": "function"
    },
    {
      "inputs": [],
      "name": "proxiableUUID",
      "outputs": [
        {
          "internalType": "bytes32",
          "name": "",
          "type": "bytes32"
        }
      ],
      "stateMutability": "view",
      "type": "function"
    },
    {
      "inputs": [
        {
          "internalType": "uint256",
          "name": "tokenId",
          "type": "uint256"
        },
        {
          "internalType": "address[]",
          "name": "admins",
          "type": "address[]"
        }
      ],
      "name": "removeAdmins",
      "outputs": [],
      "stateMutability": "nonpayable",
      "type": "function"
    },
    {
      "inputs": [],
      "name": "renounceOwnership",
      "outputs": [],
      "stateMutability": "nonpayable",
      "type": "function"
    },
    {
      "inputs": [
        {
          "internalType": "address",
          "name": "from",
          "type": "address"
        },
        {
          "internalType": "address",
          "name": "to",
          "type": "address"
        },
        {
          "internalType": "uint256",
          "name": "tokenId",
          "type": "uint256"
        }
      ],
      "name": "safeTransferFrom",
      "outputs": [],
      "stateMutability": "nonpayable",
      "type": "function"
    },
    {
      "inputs": [
        {
          "internalType": "address",
          "name": "from",
          "type": "address"
        },
        {
          "internalType": "address",
          "name": "to",
          "type": "address"
        },
        {
          "internalType": "uint256",
          "name": "tokenId",
          "type": "uint256"
        },
        {
          "internalType": "bytes",
          "name": "data",
          "type": "bytes"
        }
      ],
      "name": "safeTransferFrom",
      "outputs": [],
      "stateMutability": "nonpayable",
      "type": "function"
    },
    {
      "inputs": [
        {
          "internalType": "address",
          "name": "operator",
          "type": "address"
        },
        {
          "internalType": "bool",
          "name": "approved",
          "type": "bool"
        }
      ],
      "name": "setApprovalForAll",
      "outputs": [],
      "stateMutability": "nonpayable",
      "type": "function"
    },
    {
      "inputs": [
        {
          "internalType": "uint256",
          "name": "tokenId",
          "type": "uint256"
        },
        {
          "internalType": "string",
          "name": "uri",
          "type": "string"
        }
      ],
      "name": "setTokenURI",
      "outputs": [],
      "stateMutability": "nonpayable",
      "type": "function"
    },
    {
      "inputs": [
        {
          "internalType": "bytes4",
          "name": "interfaceId",
          "type": "bytes4"
        }
      ],
      "name": "supportsInterface",
      "outputs": [
        {
          "internalType": "bool",
          "name": "",
          "type": "bool"
        }
      ],
      "stateMutability": "view",
      "type": "function"
    },
    {
      "inputs": [],
      "name": "symbol",
      "outputs": [
        {
          "internalType": "string",
          "name": "",
          "type": "string"
        }
      ],
      "stateMutability": "view",
      "type": "function"
    },
    {
      "inputs": [
        {
          "internalType": "uint256",
          "name": "index",
          "type": "uint256"
        }
      ],
      "name": "tokenByIndex",
      "outputs": [
        {
          "internalType": "uint256",
          "name": "",
          "type": "uint256"
        }
      ],
      "stateMutability": "view",
      "type": "function"
    },
    {
      "inputs": [
        {
          "internalType": "address",
          "name": "owner",
          "type": "address"
        },
        {
          "internalType": "uint256",
          "name": "index",
          "type": "uint256"
        }
      ],
      "name": "tokenOfOwnerByIndex",
      "outputs": [
        {
          "internalType": "uint256",
          "name": "",
          "type": "uint256"
        }
      ],
      "stateMutability": "view",
      "type": "function"
    },
    {
      "inputs": [
        {
          "internalType": "uint256",
          "name": "tokenId",
          "type": "uint256"
        }
      ],
      "name": "tokenURI",
      "outputs": [
        {
          "internalType": "string",
          "name": "",
          "type": "string"
        }
      ],
      "stateMutability": "view",
      "type": "function"
    },
    {
      "inputs": [],
      "name": "totalSupply",
      "outputs": [
        {
          "internalType": "uint256",
          "name": "",
          "type": "uint256"
        }
      ],
      "stateMutability": "view",
      "type": "function"
    },
    {
      "inputs": [
        {
          "internalType": "address",
          "name": "from",
          "type": "address"
        },
        {
          "internalType": "address",
          "name": "to",
          "type": "address"
        },
        {
          "internalType": "uint256",
          "name": "tokenId",
          "type": "uint256"
        }
      ],
      "name": "transferFrom",
      "outputs": [],
      "stateMutability": "nonpayable",
      "type": "function"
    },
    {
      "inputs": [
        {
          "internalType": "address",
          "name": "newOwner",
          "type": "address"
        }
      ],
      "name": "transferOwnership",
      "outputs": [],
      "stateMutability": "nonpayable",
      "type": "function"
    },
    {
      "inputs": [],
      "name": "unpause",
      "outputs": [],
      "stateMutability": "nonpayable",
      "type": "function"
    },
    {
      "inputs": [
        {
          "internalType": "address",
          "name": "newImplementation",
          "type": "address"
        }
      ],
      "name": "upgradeTo",
      "outputs": [],
      "stateMutability": "nonpayable",
      "type": "function"
    },
    {
      "inputs": [
        {
          "internalType": "address",
          "name": "newImplementation",
          "type": "address"
        },
        {
          "internalType": "bytes",
          "name": "data",
          "type": "bytes"
        }
      ],
      "name": "upgradeToAndCall",
      "outputs": [],
      "stateMutability": "payable",
      "type": "function"
    }
  ],
  "bytecode": {
    "object": "0x60a0604052306080523480156200001557600080fd5b506200002062000026565b620000e8565b600054610100900460ff1615620000935760405162461bcd60e51b815260206004820152602760248201527f496e697469616c697a61626c653a20636f6e747261637420697320696e697469604482015266616c697a696e6760c81b606482015260840160405180910390fd5b60005460ff9081161015620000e6576000805460ff191660ff9081179091556040519081527f7f26b83ff96e1f2b6a682f133852f6798a09c465da95921460cefb38474024989060200160405180910390a15b565b608051612dd26200012060003960008181610987015281816109c701528181610c9601528181610cd60152610dfc0152612dd26000f3fe6080604052600436106101d85760003560e01c80635c975abb11610102578063a22cb46511610095578063d0def52111610064578063d0def52114610521578063e060fb7614610541578063e985e9c514610588578063f2fde38b146105d157600080fd5b8063a22cb465146104a1578063af48ade9146104c1578063b88d4fde146104e1578063c87b56dd1461050157600080fd5b80638456cb59116100d15780638456cb59146104385780638da5cb5b1461044d578063906571471461046c57806395d89b411461048c57600080fd5b80635c975abb146103ca5780636352211e146103e357806370a0823114610403578063715018a61461042357600080fd5b80632f745c591161017a57806342842e0e1161014957806342842e0e146103625780634f1ef286146103825780634f6ccce71461039557806352d1902d146103b557600080fd5b80632f745c59146102ed5780633659cfe61461030d5780633f4ba83a1461032d5780634132a52a1461034257600080fd5b8063095ea7b3116101b6578063095ea7b31461026c578063162094c41461028e57806318160ddd146102ae57806323b872dd146102cd57600080fd5b806301ffc9a7146101dd57806306fdde0314610212578063081812fc14610234575b600080fd5b3480156101e957600080fd5b506101fd6101f83660046124e8565b6105f1565b60405190151581526020015b60405180910390f35b34801561021e57600080fd5b5061022761061c565b6040516102099190612555565b34801561024057600080fd5b5061025461024f366004612568565b6106ae565b6040516001600160a01b039091168152602001610209565b34801561027857600080fd5b5061028c61028736600461259d565b6106d5565b005b34801561029a57600080fd5b5061028c6102a936600461267e565b6107ef565b3480156102ba57600080fd5b506099545b604051908152602001610209565b3480156102d957600080fd5b5061028c6102e83660046126c5565b6108b6565b3480156102f957600080fd5b506102bf61030836600461259d565b6108e7565b34801561031957600080fd5b5061028c610328366004612701565b61097d565b34801561033957600080fd5b5061028c610a5c565b34801561034e57600080fd5b5061028c61035d36600461271c565b610a6e565b34801561036e57600080fd5b5061028c61037d3660046126c5565b610c71565b61028c6103903660046127d5565b610c8c565b3480156103a157600080fd5b506102bf6103b0366004612568565b610d5c565b3480156103c157600080fd5b506102bf610def565b3480156103d657600080fd5b5061015f5460ff166101fd565b3480156103ef57600080fd5b506102546103fe366004612568565b610ea2565b34801561040f57600080fd5b506102bf61041e366004612701565b610f02565b34801561042f57600080fd5b5061028c610f88565b34801561044457600080fd5b5061028c610f9a565b34801561045957600080fd5b5061012d546001600160a01b0316610254565b34801561047857600080fd5b5061028c61048736600461280d565b610faa565b34801561049857600080fd5b506102276110e9565b3480156104ad57600080fd5b5061028c6104bc366004612881565b6110f8565b3480156104cd57600080fd5b5061028c6104dc36600461271c565b611103565b3480156104ed57600080fd5b5061028c6104fc3660046128bd565b611302565b34801561050d57600080fd5b5061022761051c366004612568565b611334565b34801561052d57600080fd5b506102bf61053c3660046127d5565b6113d7565b34801561054d57600080fd5b506101fd61055c366004612925565b6000918252610193602090815260408084206001600160a01b0393909316845291905290205460ff1690565b34801561059457600080fd5b506101fd6105a3366004612951565b6001600160a01b039182166000908152606a6020908152604080832093909416825291909152205460ff1690565b3480156105dd57600080fd5b5061028c6105ec366004612701565b6114f9565b60006001600160e01b0319821663780e9d6360e01b148061061657506106168261156f565b92915050565b60606065805461062b9061297b565b80601f01602080910402602001604051908101604052809291908181526020018280546106579061297b565b80156106a45780601f10610679576101008083540402835291602001916106a4565b820191906000526020600020905b81548152906001019060200180831161068757829003601f168201915b5050505050905090565b60006106b9826115bf565b506000908152606960205260409020546001600160a01b031690565b60006106e082610ea2565b9050806001600160a01b0316836001600160a01b0316036107525760405162461bcd60e51b815260206004820152602160248201527f4552433732313a20617070726f76616c20746f2063757272656e74206f776e656044820152603960f91b60648201526084015b60405180910390fd5b336001600160a01b038216148061076e575061076e81336105a3565b6107e05760405162461bcd60e51b815260206004820152603d60248201527f4552433732313a20617070726f76652063616c6c6572206973206e6f7420746f60448201527f6b656e206f776e6572206f7220617070726f76656420666f7220616c6c0000006064820152608401610749565b6107ea838361161e565b505050565b6107f761168c565b6000828152606760205260409020546001600160a01b031661086d5760405162461bcd60e51b815260206004820152602960248201527f736574546f6b656e5552493a2055524920736574206f66206e6f6e657869737460448201526832b73a103a37b5b2b760b91b6064820152608401610749565b6000828152610192602052604090206108868282612a03565b5060405182907ff8e1a15aba9398e019f0b49df1a4fde98ee17ae345cb5f6b5e2c27f5033e8ce790600090a25050565b6108c033826116e7565b6108dc5760405162461bcd60e51b815260040161074990612ac3565b6107ea838383611766565b60006108f283610f02565b82106109545760405162461bcd60e51b815260206004820152602b60248201527f455243373231456e756d657261626c653a206f776e657220696e646578206f7560448201526a74206f6620626f756e647360a81b6064820152608401610749565b506001600160a01b03919091166000908152609760209081526040808320938352929052205490565b6001600160a01b037f00000000000000000000000000000000000000000000000000000000000000001630036109c55760405162461bcd60e51b815260040161074990612b10565b7f00000000000000000000000000000000000000000000000000000000000000006001600160a01b0316610a0e600080516020612d56833981519152546001600160a01b031690565b6001600160a01b031614610a345760405162461bcd60e51b815260040161074990612b5c565b610a3d8161191c565b60408051600080825260208201909252610a5991839190611924565b50565b610a6461168c565b610a6c611a8f565b565b6000815111610abf5760405162461bcd60e51b815260206004820152601860248201527f61646441646d696e733a20696e76616c696420696e70757400000000000000006044820152606401610749565b6000828152606760205260409020546001600160a01b0316610b2d5760405162461bcd60e51b815260206004820152602160248201527f61646441646d696e733a20746f6b656e496420646f6573206e6f7420657869736044820152601d60fa1b6064820152608401610749565b33610b3783610ea2565b6001600160a01b031614610b8d5760405162461bcd60e51b815260206004820152601760248201527f61646441646d696e733a20756e617574686f72697a65640000000000000000006044820152606401610749565b60005b81518110156107ea57600083815261019360205260408120835160019290859085908110610bc057610bc0612ba8565b60200260200101516001600160a01b03166001600160a01b0316815260200190815260200160002060006101000a81548160ff021916908315150217905550818181518110610c1157610c11612ba8565b60200260200101516001600160a01b0316837faa7637c88c63659176aa6f1b9bde1a03fd88751320e1d40898bdf1a8459071de6001604051610c57911515815260200190565b60405180910390a380610c6981612bd4565b915050610b90565b6107ea83838360405180602001604052806000815250611302565b6001600160a01b037f0000000000000000000000000000000000000000000000000000000000000000163003610cd45760405162461bcd60e51b815260040161074990612b10565b7f00000000000000000000000000000000000000000000000000000000000000006001600160a01b0316610d1d600080516020612d56833981519152546001600160a01b031690565b6001600160a01b031614610d435760405162461bcd60e51b815260040161074990612b5c565b610d4c8261191c565b610d5882826001611924565b5050565b6000610d6760995490565b8210610dca5760405162461bcd60e51b815260206004820152602c60248201527f455243373231456e756d657261626c653a20676c6f62616c20696e646578206f60448201526b7574206f6620626f756e647360a01b6064820152608401610749565b60998281548110610ddd57610ddd612ba8565b90600052602060002001549050919050565b6000306001600160a01b037f00000000000000000000000000000000000000000000000000000000000000001614610e8f5760405162461bcd60e51b815260206004820152603860248201527f555550535570677261646561626c653a206d757374206e6f742062652063616c60448201527f6c6564207468726f7567682064656c656761746563616c6c00000000000000006064820152608401610749565b50600080516020612d5683398151915290565b6000818152606760205260408120546001600160a01b0316806106165760405162461bcd60e51b8152602060048201526018602482015277115490cdcc8c4e881a5b9d985b1a59081d1bdad95b88125160421b6044820152606401610749565b60006001600160a01b038216610f6c5760405162461bcd60e51b815260206004820152602960248201527f4552433732313a2061646472657373207a65726f206973206e6f7420612076616044820152683634b21037bbb732b960b91b6064820152608401610749565b506001600160a01b031660009081526068602052604090205490565b610f9061168c565b610a6c6000611ae2565b610fa261168c565b610a6c611b35565b600054610100900460ff1615808015610fca5750600054600160ff909116105b80610fe45750303b158015610fe4575060005460ff166001145b6110475760405162461bcd60e51b815260206004820152602e60248201527f496e697469616c697a61626c653a20636f6e747261637420697320616c72656160448201526d191e481a5b9a5d1a585b1a5e995960921b6064820152608401610749565b6000805460ff19166001179055801561106a576000805461ff0019166101001790555b611072611b73565b61107c8383611b9a565b611084611b73565b61108c611bcb565b611095846114f9565b61109d611b35565b80156110e3576000805461ff0019169055604051600181527f7f26b83ff96e1f2b6a682f133852f6798a09c465da95921460cefb38474024989060200160405180910390a15b50505050565b60606066805461062b9061297b565b610d58338383611bfa565b60008151116111545760405162461bcd60e51b815260206004820152601b60248201527f72656d6f766541646d696e733a20696e76616c696420696e70757400000000006044820152606401610749565b6000828152606760205260409020546001600160a01b03166111c45760405162461bcd60e51b8152602060048201526024808201527f72656d6f766541646d696e733a20746f6b656e496420646f6573206e6f7420656044820152631e1a5cdd60e21b6064820152608401610749565b336111ce83610ea2565b6001600160a01b0316146112245760405162461bcd60e51b815260206004820152601a60248201527f72656d6f766541646d696e733a20756e617574686f72697a65640000000000006044820152606401610749565b60005b81518110156107ea576101936000848152602001908152602001600020600083838151811061125857611258612ba8565b60200260200101516001600160a01b03166001600160a01b0316815260200190815260200160002060006101000a81549060ff02191690558181815181106112a2576112a2612ba8565b60200260200101516001600160a01b0316837faa7637c88c63659176aa6f1b9bde1a03fd88751320e1d40898bdf1a8459071de60006040516112e8911515815260200190565b60405180910390a3806112fa81612bd4565b915050611227565b61130c33836116e7565b6113285760405162461bcd60e51b815260040161074990612ac3565b6110e384848484611cc8565b6000818152610192602052604090208054606091906113529061297b565b80601f016020809104026020016040519081016040528092919081815260200182805461137e9061297b565b80156113cb5780601f106113a0576101008083540402835291602001916113cb565b820191906000526020600020905b8154815290600101906020018083116113ae57829003601f168201915b50505050509050919050565b60006113ec61012d546001600160a01b031690565b6001600160a01b0316336001600160a01b0316148061140f575061015f5460ff16155b61145b5760405162461bcd60e51b815260206004820152601a60248201527f6d696e743a20756e617574686f72697a656420746f206d696e740000000000006044820152606401610749565b61146a61019180546001019055565b60006114766101915490565b90506001600160a01b0384166114ce5760405162461bcd60e51b815260206004820152601b60248201527f63616e6e6f74206d696e7420746f207a65726f206164647265737300000000006044820152606401610749565b6114d88482611cfb565b6000818152610192602052604090206114f18482612a03565b509392505050565b61150161168c565b6001600160a01b0381166115665760405162461bcd60e51b815260206004820152602660248201527f4f776e61626c653a206e6577206f776e657220697320746865207a65726f206160448201526564647265737360d01b6064820152608401610749565b610a5981611ae2565b60006001600160e01b031982166380ac58cd60e01b14806115a057506001600160e01b03198216635b5e139f60e01b145b8061061657506301ffc9a760e01b6001600160e01b0319831614610616565b6000818152606760205260409020546001600160a01b0316610a595760405162461bcd60e51b8152602060048201526018602482015277115490cdcc8c4e881a5b9d985b1a59081d1bdad95b88125160421b6044820152606401610749565b600081815260696020526040902080546001600160a01b0319166001600160a01b038416908117909155819061165382610ea2565b6001600160a01b03167f8c5be1e5ebec7d5bd14f71427d1e84f3dd0314c0f7b2291e5b200ac8c7c3b92560405160405180910390a45050565b61012d546001600160a01b03163314610a6c5760405162461bcd60e51b815260206004820181905260248201527f4f776e61626c653a2063616c6c6572206973206e6f7420746865206f776e65726044820152606401610749565b6000806116f383610ea2565b9050806001600160a01b0316846001600160a01b0316148061173a57506001600160a01b038082166000908152606a602090815260408083209388168352929052205460ff165b8061175e5750836001600160a01b0316611753846106ae565b6001600160a01b0316145b949350505050565b826001600160a01b031661177982610ea2565b6001600160a01b0316146117dd5760405162461bcd60e51b815260206004820152602560248201527f4552433732313a207472616e736665722066726f6d20696e636f72726563742060448201526437bbb732b960d91b6064820152608401610749565b6001600160a01b03821661183f5760405162461bcd60e51b8152602060048201526024808201527f4552433732313a207472616e7366657220746f20746865207a65726f206164646044820152637265737360e01b6064820152608401610749565b61184a838383611e49565b600081815260696020908152604080832080546001600160a01b03191690556001600160a01b03861683526068909152812080546001929061188d908490612bed565b90915550506001600160a01b03821660009081526068602052604081208054600192906118bb908490612c00565b909155505060008181526067602052604080822080546001600160a01b0319166001600160a01b0386811691821790925591518493918716917fddf252ad1be2c89b69c2b068fc378daa952ba7f163c4a11628f55a4df523b3ef91a4505050565b610a5961168c565b7f4910fdfa16fed3260ed0e7147f7cc6da11a60208b5b9406d12a635614ffd91435460ff1615611957576107ea83611f01565b826001600160a01b03166352d1902d6040518163ffffffff1660e01b8152600401602060405180830381865afa9250505080156119b1575060408051601f3d908101601f191682019092526119ae91810190612c13565b60015b611a145760405162461bcd60e51b815260206004820152602e60248201527f45524331393637557067726164653a206e657720696d706c656d656e7461746960448201526d6f6e206973206e6f74205555505360901b6064820152608401610749565b600080516020612d568339815191528114611a835760405162461bcd60e51b815260206004820152602960248201527f45524331393637557067726164653a20756e737570706f727465642070726f786044820152681a58589b195555525160ba1b6064820152608401610749565b506107ea838383611f9d565b611a97611fc2565b61015f805460ff191690557f5db9ee0a495bf2e6ff9c91a7834c1ba4fdd244a5e8aa4e537bd38aeae4b073aa335b6040516001600160a01b03909116815260200160405180910390a1565b61012d80546001600160a01b038381166001600160a01b0319831681179093556040519116919082907f8be0079c531659141344cd1fd0a4f28419497f9722a3daafe3b4186f6b6457e090600090a35050565b611b3d61200c565b61015f805460ff191660011790557f62e78cea01bee320cd4e420270b5ea74000d11b0c9f74754ebdbfc544b05a258611ac53390565b600054610100900460ff16610a6c5760405162461bcd60e51b815260040161074990612c2c565b600054610100900460ff16611bc15760405162461bcd60e51b815260040161074990612c2c565b610d588282612053565b600054610100900460ff16611bf25760405162461bcd60e51b815260040161074990612c2c565b610a6c612093565b816001600160a01b0316836001600160a01b031603611c5b5760405162461bcd60e51b815260206004820152601960248201527f4552433732313a20617070726f766520746f2063616c6c6572000000000000006044820152606401610749565b6001600160a01b038381166000818152606a6020908152604080832094871680845294825291829020805460ff191686151590811790915591519182527f17307eab39ab6107e8899845ad3d59bd9653f200f220920489ca2b5937696c31910160405180910390a3505050565b611cd3848484611766565b611cdf848484846120c3565b6110e35760405162461bcd60e51b815260040161074990612c77565b6001600160a01b038216611d515760405162461bcd60e51b815260206004820181905260248201527f4552433732313a206d696e7420746f20746865207a65726f20616464726573736044820152606401610749565b6000818152606760205260409020546001600160a01b031615611db65760405162461bcd60e51b815260206004820152601c60248201527f4552433732313a20746f6b656e20616c7265616479206d696e746564000000006044820152606401610749565b611dc260008383611e49565b6001600160a01b0382166000908152606860205260408120805460019290611deb908490612c00565b909155505060008181526067602052604080822080546001600160a01b0319166001600160a01b03861690811790915590518392907fddf252ad1be2c89b69c2b068fc378daa952ba7f163c4a11628f55a4df523b3ef908290a45050565b6001600160a01b038316611ea457611e9f81609980546000838152609a60205260408120829055600182018355919091527f72a152ddfb8e864297c917af52ea6c1c68aead0fee1a62673fcc7e0c94979d000155565b611ec7565b816001600160a01b0316836001600160a01b031614611ec757611ec783826121c4565b6001600160a01b038216611ede576107ea81612261565b826001600160a01b0316826001600160a01b0316146107ea576107ea8282612310565b6001600160a01b0381163b611f6e5760405162461bcd60e51b815260206004820152602d60248201527f455243313936373a206e657720696d706c656d656e746174696f6e206973206e60448201526c1bdd08184818dbdb9d1c9858dd609a1b6064820152608401610749565b600080516020612d5683398151915280546001600160a01b0319166001600160a01b0392909216919091179055565b611fa683612354565b600082511180611fb35750805b156107ea576110e38383612394565b61015f5460ff16610a6c5760405162461bcd60e51b815260206004820152601460248201527314185d5cd8589b194e881b9bdd081c185d5cd95960621b6044820152606401610749565b61015f5460ff1615610a6c5760405162461bcd60e51b815260206004820152601060248201526f14185d5cd8589b194e881c185d5cd95960821b6044820152606401610749565b600054610100900460ff1661207a5760405162461bcd60e51b815260040161074990612c2c565b60656120868382612a03565b5060666107ea8282612a03565b600054610100900460ff166120ba5760405162461bcd60e51b815260040161074990612c2c565b610a6c33611ae2565b60006001600160a01b0384163b156121b957604051630a85bd0160e11b81526001600160a01b0385169063150b7a0290612107903390899088908890600401612cc9565b6020604051808303816000875af1925050508015612142575060408051601f3d908101601f1916820190925261213f91810190612d06565b60015b61219f573d808015612170576040519150601f19603f3d011682016040523d82523d6000602084013e612175565b606091505b5080516000036121975760405162461bcd60e51b815260040161074990612c77565b805181602001fd5b6001600160e01b031916630a85bd0160e11b14905061175e565b506001949350505050565b600060016121d184610f02565b6121db9190612bed565b60008381526098602052604090205490915080821461222e576001600160a01b03841660009081526097602090815260408083208584528252808320548484528184208190558352609890915290208190555b5060009182526098602090815260408084208490556001600160a01b039094168352609781528383209183525290812055565b60995460009061227390600190612bed565b6000838152609a60205260408120546099805493945090928490811061229b5761229b612ba8565b9060005260206000200154905080609983815481106122bc576122bc612ba8565b6000918252602080832090910192909255828152609a909152604080822084905585825281205560998054806122f4576122f4612d23565b6001900381819060005260206000200160009055905550505050565b600061231b83610f02565b6001600160a01b039093166000908152609760209081526040808320868452825280832085905593825260989052919091209190915550565b61235d81611f01565b6040516001600160a01b038216907fbc7cd75a20ee27fd9adebab32041f755214dbc6bffa90cc0225b39da2e5c2d3b90600090a250565b60606001600160a01b0383163b6123fc5760405162461bcd60e51b815260206004820152602660248201527f416464726573733a2064656c65676174652063616c6c20746f206e6f6e2d636f6044820152651b9d1c9858dd60d21b6064820152608401610749565b600080846001600160a01b0316846040516124179190612d39565b600060405180830381855af49150503d8060008114612452576040519150601f19603f3d011682016040523d82523d6000602084013e612457565b606091505b509150915061247f8282604051806060016040528060278152602001612d7660279139612488565b95945050505050565b606083156124975750816124a1565b6124a183836124a8565b9392505050565b8151156124b85781518083602001fd5b8060405162461bcd60e51b81526004016107499190612555565b6001600160e01b031981168114610a5957600080fd5b6000602082840312156124fa57600080fd5b81356124a1816124d2565b60005b83811015612520578181015183820152602001612508565b50506000910152565b60008151808452612541816020860160208601612505565b601f01601f19169290920160200192915050565b6020815260006124a16020830184612529565b60006020828403121561257a57600080fd5b5035919050565b80356001600160a01b038116811461259857600080fd5b919050565b600080604083850312156125b057600080fd5b6125b983612581565b946020939093013593505050565b634e487b7160e01b600052604160045260246000fd5b604051601f8201601f1916810167ffffffffffffffff81118282101715612606576126066125c7565b604052919050565b600082601f83011261261f57600080fd5b813567ffffffffffffffff811115612639576126396125c7565b61264c601f8201601f19166020016125dd565b81815284602083860101111561266157600080fd5b816020850160208301376000918101602001919091529392505050565b6000806040838503121561269157600080fd5b82359150602083013567ffffffffffffffff8111156126af57600080fd5b6126bb8582860161260e565b9150509250929050565b6000806000606084860312156126da57600080fd5b6126e384612581565b92506126f160208501612581565b9150604084013590509250925092565b60006020828403121561271357600080fd5b6124a182612581565b6000806040838503121561272f57600080fd5b8235915060208084013567ffffffffffffffff8082111561274f57600080fd5b818601915086601f83011261276357600080fd5b813581811115612775576127756125c7565b8060051b91506127868483016125dd565b81815291830184019184810190898411156127a057600080fd5b938501935b838510156127c5576127b685612581565b825293850193908501906127a5565b8096505050505050509250929050565b600080604083850312156127e857600080fd5b6127f183612581565b9150602083013567ffffffffffffffff8111156126af57600080fd5b60008060006060848603121561282257600080fd5b61282b84612581565b9250602084013567ffffffffffffffff8082111561284857600080fd5b6128548783880161260e565b9350604086013591508082111561286a57600080fd5b506128778682870161260e565b9150509250925092565b6000806040838503121561289457600080fd5b61289d83612581565b9150602083013580151581146128b257600080fd5b809150509250929050565b600080600080608085870312156128d357600080fd5b6128dc85612581565b93506128ea60208601612581565b925060408501359150606085013567ffffffffffffffff81111561290d57600080fd5b6129198782880161260e565b91505092959194509250565b6000806040838503121561293857600080fd5b8235915061294860208401612581565b90509250929050565b6000806040838503121561296457600080fd5b61296d83612581565b915061294860208401612581565b600181811c9082168061298f57607f821691505b6020821081036129af57634e487b7160e01b600052602260045260246000fd5b50919050565b601f8211156107ea57600081815260208120601f850160051c810160208610156129dc5750805b601f850160051c820191505b818110156129fb578281556001016129e8565b505050505050565b815167ffffffffffffffff811115612a1d57612a1d6125c7565b612a3181612a2b845461297b565b846129b5565b602080601f831160018114612a665760008415612a4e5750858301515b600019600386901b1c1916600185901b1785556129fb565b600085815260208120601f198616915b82811015612a9557888601518255948401946001909101908401612a76565b5085821015612ab35787850151600019600388901b60f8161c191681555b5050505050600190811b01905550565b6020808252602d908201527f4552433732313a2063616c6c6572206973206e6f7420746f6b656e206f776e6560408201526c1c881bdc88185c1c1c9bdd9959609a1b606082015260800190565b6020808252602c908201527f46756e6374696f6e206d7573742062652063616c6c6564207468726f7567682060408201526b19195b1959d85d1958d85b1b60a21b606082015260800190565b6020808252602c908201527f46756e6374696f6e206d7573742062652063616c6c6564207468726f7567682060408201526b6163746976652070726f787960a01b606082015260800190565b634e487b7160e01b600052603260045260246000fd5b634e487b7160e01b600052601160045260246000fd5b600060018201612be657612be6612bbe565b5060010190565b8181038181111561061657610616612bbe565b8082018082111561061657610616612bbe565b600060208284031215612c2557600080fd5b5051919050565b6020808252602b908201527f496e697469616c697a61626c653a20636f6e7472616374206973206e6f74206960408201526a6e697469616c697a696e6760a81b606082015260800190565b60208082526032908201527f4552433732313a207472616e7366657220746f206e6f6e20455243373231526560408201527131b2b4bb32b91034b6b83632b6b2b73a32b960711b606082015260800190565b6001600160a01b0385811682528416602082015260408101839052608060608201819052600090612cfc90830184612529565b9695505050505050565b600060208284031215612d1857600080fd5b81516124a1816124d2565b634e487b7160e01b600052603160045260246000fd5b60008251612d4b818460208701612505565b919091019291505056fe360894a13ba1a3210667c828492db98dca3e2076cc3735a920a3ca505d382bbc416464726573733a206c6f772d6c6576656c2064656c65676174652063616c6c206661696c6564a2646970667358221220d7f61ad0d721172a6782aa974ee2ff785a9e21925de2c611107a5ec23e0ef0bc64736f6c63430008100033",
    "linkReferences": {}
  },
  "methodIdentifiers": {
    "addAdmins(uint256,address[])": "4132a52a",
    "approve(address,uint256)": "095ea7b3",
    "balanceOf(address)": "70a08231",
    "getApproved(uint256)": "081812fc",
    "initialize(address,string,string)": "90657147",
    "isAdminActive(uint256,address)": "e060fb76",
    "isApprovedForAll(address,address)": "e985e9c5",
    "mint(address,string)": "d0def521",
    "name()": "06fdde03",
    "owner()": "8da5cb5b",
    "ownerOf(uint256)": "6352211e",
    "pause()": "8456cb59",
    "paused()": "5c975abb",
    "proxiableUUID()": "52d1902d",
    "removeAdmins(uint256,address[])": "af48ade9",
    "renounceOwnership()": "715018a6",
    "safeTransferFrom(address,address,uint256)": "42842e0e",
    "safeTransferFrom(address,address,uint256,bytes)": "b88d4fde",
    "setApprovalForAll(address,bool)": "a22cb465",
    "setTokenURI(uint256,string)": "162094c4",
    "supportsInterface(bytes4)": "01ffc9a7",
    "symbol()": "95d89b41",
    "tokenByIndex(uint256)": "4f6ccce7",
    "tokenOfOwnerByIndex(address,uint256)": "2f745c59",
    "tokenURI(uint256)": "c87b56dd",
    "totalSupply()": "18160ddd",
    "transferFrom(address,address,uint256)": "23b872dd",
    "transferOwnership(address)": "f2fde38b",
    "unpause()": "3f4ba83a",
    "upgradeTo(address)": "3659cfe6",
    "upgradeToAndCall(address,bytes)": "4f1ef286"
  },
  "id": 48
}