{
  "abi": [
    {
      "inputs": [],
      "stateMutability": "nonpayable",
      "type": "constructor"
    },
    {
      "anonymous": false,
      "inputs": [
        {
          "indexed": false,
          "internalType": "address",
          "name": "previousAdmin",
          "type": "address"
        },
        {
          "indexed": false,
          "internalType": "address",
          "name": "newAdmin",
          "type": "address"
        }
      ],
      "name": "AdminChanged",
      "type": "event"
    },
    {
      "anonymous": false,
      "inputs": [
        {
          "indexed": true,
          "internalType": "address",
          "name": "owner",
          "type": "address"
        },
        {
          "indexed": true,
          "internalType": "address",
          "name": "approved",
          "type": "address"
        },
        {
          "indexed": true,
          "internalType": "uint256",
          "name": "tokenId",
          "type": "uint256"
        }
      ],
      "name": "Approval",
      "type": "event"
    },
    {
      "anonymous": false,
      "inputs": [
        {
          "indexed": true,
          "internalType": "address",
          "name": "owner",
          "type": "address"
        },
        {
          "indexed": true,
          "internalType": "address",
          "name": "operator",
          "type": "address"
        },
        {
          "indexed": false,
          "internalType": "bool",
          "name": "approved",
          "type": "bool"
        }
      ],
      "name": "ApprovalForAll",
      "type": "event"
    },
    {
      "anonymous": false,
      "inputs": [
        {
          "indexed": true,
          "internalType": "address",
          "name": "beacon",
          "type": "address"
        }
      ],
      "name": "BeaconUpgraded",
      "type": "event"
    },
    {
      "anonymous": false,
      "inputs": [
        {
          "indexed": false,
          "internalType": "uint8",
          "name": "version",
          "type": "uint8"
        }
      ],
      "name": "Initialized",
      "type": "event"
    },
    {
      "anonymous": false,
      "inputs": [
        {
          "indexed": true,
          "internalType": "address",
          "name": "previousOwner",
          "type": "address"
        },
        {
          "indexed": true,
          "internalType": "address",
          "name": "newOwner",
          "type": "address"
        }
      ],
      "name": "OwnershipTransferred",
      "type": "event"
    },
    {
      "anonymous": false,
      "inputs": [
        {
          "indexed": false,
          "internalType": "address",
          "name": "account",
          "type": "address"
        }
      ],
      "name": "Paused",
      "type": "event"
    },
    {
      "anonymous": false,
      "inputs": [
        {
          "indexed": true,
          "internalType": "address",
          "name": "from",
          "type": "address"
        },
        {
          "indexed": true,
          "internalType": "address",
          "name": "to",
          "type": "address"
        },
        {
          "indexed": true,
          "internalType": "uint256",
          "name": "tokenId",
          "type": "uint256"
        }
      ],
      "name": "Transfer",
      "type": "event"
    },
    {
      "anonymous": false,
      "inputs": [
        {
          "indexed": false,
          "internalType": "address",
          "name": "account",
          "type": "address"
        }
      ],
      "name": "Unpaused",
      "type": "event"
    },
    {
      "anonymous": false,
      "inputs": [
        {
          "indexed": true,
          "internalType": "address",
          "name": "implementation",
          "type": "address"
        }
      ],
      "name": "Upgraded",
      "type": "event"
    },
    {
      "inputs": [
        {
          "internalType": "address",
          "name": "to",
          "type": "address"
        },
        {
          "internalType": "uint256",
          "name": "tokenId",
          "type": "uint256"
        }
      ],
      "name": "approve",
      "outputs": [],
      "stateMutability": "nonpayable",
      "type": "function"
    },
    {
      "inputs": [
        {
          "internalType": "address",
          "name": "owner",
          "type": "address"
        }
      ],
      "name": "balanceOf",
      "outputs": [
        {
          "internalType": "uint256",
          "name": "",
          "type": "uint256"
        }
      ],
      "stateMutability": "view",
      "type": "function"
    },
    {
      "inputs": [
        {
          "internalType": "uint256",
          "name": "tokenId",
          "type": "uint256"
        }
      ],
      "name": "getApproved",
      "outputs": [
        {
          "internalType": "address",
          "name": "",
          "type": "address"
        }
      ],
      "stateMutability": "view",
      "type": "function"
    },
    {
      "inputs": [
        {
          "internalType": "address",
          "name": "nextOwner",
          "type": "address"
        },
        {
          "internalType": "string",
          "name": "name_",
          "type": "string"
        },
        {
          "internalType": "string",
          "name": "symbol_",
          "type": "string"
        }
      ],
      "name": "initialize",
      "outputs": [],
      "stateMutability": "nonpayable",
      "type": "function"
    },
    {
      "inputs": [
        {
          "internalType": "address",
          "name": "owner",
          "type": "address"
        },
        {
          "internalType": "address",
          "name": "operator",
          "type": "address"
        }
      ],
      "name": "isApprovedForAll",
      "outputs": [
        {
          "internalType": "bool",
          "name": "",
          "type": "bool"
        }
      ],
      "stateMutability": "view",
      "type": "function"
    },
    {
      "inputs": [
        {
          "internalType": "address",
          "name": "recipient",
          "type": "address"
        },
        {
          "internalType": "string",
          "name": "uri",
          "type": "string"
        }
      ],
      "name": "mint",
      "outputs": [
        {
          "internalType": "uint256",
          "name": "",
          "type": "uint256"
        }
      ],
      "stateMutability": "nonpayable",
      "type": "function"
    },
    {
      "inputs": [],
      "name": "name",
      "outputs": [
        {
          "internalType": "string",
          "name": "",
          "type": "string"
        }
      ],
      "stateMutability": "view",
      "type": "function"
    },
    {
      "inputs": [],
      "name": "owner",
      "outputs": [
        {
          "internalType": "address",
          "name": "",
          "type": "address"
        }
      ],
      "stateMutability": "view",
      "type": "function"
    },
    {
      "inputs": [
        {
          "internalType": "uint256",
          "name": "tokenId",
          "type": "uint256"
        }
      ],
      "name": "ownerOf",
      "outputs": [
        {
          "internalType": "address",
          "name": "",
          "type": "address"
        }
      ],
      "stateMutability": "view",
      "type": "function"
    },
    {
      "inputs": [],
      "name": "pause",
      "outputs": [],
      "stateMutability": "nonpayable",
      "type": "function"
    },
    {
      "inputs": [],
      "name": "paused",
      "outputs": [
        {
          "internalType": "bool",
          "name": "",
          "type": "bool"
        }
      ],
      "stateMutability": "view",
      "type": "function"
    },
    {
      "inputs": [],
      "name": "proxiableUUID",
      "outputs": [
        {
          "internalType": "bytes32",
          "name": "",
          "type": "bytes32"
        }
      ],
      "stateMutability": "view",
      "type": "function"
    },
    {
      "inputs": [],
      "name": "renounceOwnership",
      "outputs": [],
      "stateMutability": "nonpayable",
      "type": "function"
    },
    {
      "inputs": [
        {
          "internalType": "address",
          "name": "from",
          "type": "address"
        },
        {
          "internalType": "address",
          "name": "to",
          "type": "address"
        },
        {
          "internalType": "uint256",
          "name": "tokenId",
          "type": "uint256"
        }
      ],
      "name": "safeTransferFrom",
      "outputs": [],
      "stateMutability": "nonpayable",
      "type": "function"
    },
    {
      "inputs": [
        {
          "internalType": "address",
          "name": "from",
          "type": "address"
        },
        {
          "internalType": "address",
          "name": "to",
          "type": "address"
        },
        {
          "internalType": "uint256",
          "name": "tokenId",
          "type": "uint256"
        },
        {
          "internalType": "bytes",
          "name": "data",
          "type": "bytes"
        }
      ],
      "name": "safeTransferFrom",
      "outputs": [],
      "stateMutability": "nonpayable",
      "type": "function"
    },
    {
      "inputs": [
        {
          "internalType": "address",
          "name": "operator",
          "type": "address"
        },
        {
          "internalType": "bool",
          "name": "approved",
          "type": "bool"
        }
      ],
      "name": "setApprovalForAll",
      "outputs": [],
      "stateMutability": "nonpayable",
      "type": "function"
    },
    {
      "inputs": [
        {
          "internalType": "uint256",
          "name": "tokenId",
          "type": "uint256"
        },
        {
          "internalType": "string",
          "name": "uri",
          "type": "string"
        }
      ],
      "name": "setTokenURI",
      "outputs": [],
      "stateMutability": "nonpayable",
      "type": "function"
    },
    {
      "inputs": [
        {
          "internalType": "bytes4",
          "name": "interfaceId",
          "type": "bytes4"
        }
      ],
      "name": "supportsInterface",
      "outputs": [
        {
          "internalType": "bool",
          "name": "",
          "type": "bool"
        }
      ],
      "stateMutability": "view",
      "type": "function"
    },
    {
      "inputs": [],
      "name": "symbol",
      "outputs": [
        {
          "internalType": "string",
          "name": "",
          "type": "string"
        }
      ],
      "stateMutability": "view",
      "type": "function"
    },
    {
      "inputs": [
        {
          "internalType": "uint256",
          "name": "index",
          "type": "uint256"
        }
      ],
      "name": "tokenByIndex",
      "outputs": [
        {
          "internalType": "uint256",
          "name": "",
          "type": "uint256"
        }
      ],
      "stateMutability": "view",
      "type": "function"
    },
    {
      "inputs": [
        {
          "internalType": "address",
          "name": "owner",
          "type": "address"
        },
        {
          "internalType": "uint256",
          "name": "index",
          "type": "uint256"
        }
      ],
      "name": "tokenOfOwnerByIndex",
      "outputs": [
        {
          "internalType": "uint256",
          "name": "",
          "type": "uint256"
        }
      ],
      "stateMutability": "view",
      "type": "function"
    },
    {
      "inputs": [
        {
          "internalType": "uint256",
          "name": "tokenId",
          "type": "uint256"
        }
      ],
      "name": "tokenURI",
      "outputs": [
        {
          "internalType": "string",
          "name": "",
          "type": "string"
        }
      ],
      "stateMutability": "view",
      "type": "function"
    },
    {
      "inputs": [],
      "name": "totalSupply",
      "outputs": [
        {
          "internalType": "uint256",
          "name": "",
          "type": "uint256"
        }
      ],
      "stateMutability": "view",
      "type": "function"
    },
    {
      "inputs": [
        {
          "internalType": "address",
          "name": "from",
          "type": "address"
        },
        {
          "internalType": "address",
          "name": "to",
          "type": "address"
        },
        {
          "internalType": "uint256",
          "name": "tokenId",
          "type": "uint256"
        }
      ],
      "name": "transferFrom",
      "outputs": [],
      "stateMutability": "nonpayable",
      "type": "function"
    },
    {
      "inputs": [
        {
          "internalType": "address",
          "name": "newOwner",
          "type": "address"
        }
      ],
      "name": "transferOwnership",
      "outputs": [],
      "stateMutability": "nonpayable",
      "type": "function"
    },
    {
      "inputs": [],
      "name": "unpause",
      "outputs": [],
      "stateMutability": "nonpayable",
      "type": "function"
    },
    {
      "inputs": [
        {
          "internalType": "address",
          "name": "newImplementation",
          "type": "address"
        }
      ],
      "name": "upgradeTo",
      "outputs": [],
      "stateMutability": "nonpayable",
      "type": "function"
    },
    {
      "inputs": [
        {
          "internalType": "address",
          "name": "newImplementation",
          "type": "address"
        },
        {
          "internalType": "bytes",
          "name": "data",
          "type": "bytes"
        }
      ],
      "name": "upgradeToAndCall",
      "outputs": [],
      "stateMutability": "payable",
      "type": "function"
    }
  ],
  "bytecode": {
    "object": "0x60a0604052306080523480156200001557600080fd5b506200002062000026565b620000e8565b600054610100900460ff1615620000935760405162461bcd60e51b815260206004820152602760248201527f496e697469616c697a61626c653a20636f6e747261637420697320696e697469604482015266616c697a696e6760c81b606482015260840160405180910390fd5b60005460ff9081161015620000e6576000805460ff191660ff9081179091556040519081527f7f26b83ff96e1f2b6a682f133852f6798a09c465da95921460cefb38474024989060200160405180910390a15b565b60805161279a62000120600039600081816108b0015281816108f0015281816109bc015281816109fc0152610b22015261279a6000f3fe6080604052600436106101b75760003560e01c80635c975abb116100ec57806395d89b411161008a578063c87b56dd11610064578063c87b56dd146104a0578063d0def521146104c0578063e985e9c5146104e0578063f2fde38b1461052957600080fd5b806395d89b411461044b578063a22cb46514610460578063b88d4fde1461048057600080fd5b8063715018a6116100c6578063715018a6146103e25780638456cb59146103f75780638da5cb5b1461040c578063906571471461042b57600080fd5b80635c975abb146103895780636352211e146103a257806370a08231146103c257600080fd5b80632f745c591161015957806342842e0e1161013357806342842e0e146103215780634f1ef286146103415780634f6ccce71461035457806352d1902d1461037457600080fd5b80632f745c59146102cc5780633659cfe6146102ec5780633f4ba83a1461030c57600080fd5b8063095ea7b311610195578063095ea7b31461024b578063162094c41461026d57806318160ddd1461028d57806323b872dd146102ac57600080fd5b806301ffc9a7146101bc57806306fdde03146101f1578063081812fc14610213575b600080fd5b3480156101c857600080fd5b506101dc6101d7366004611fb9565b610549565b60405190151581526020015b60405180910390f35b3480156101fd57600080fd5b50610206610574565b6040516101e89190612026565b34801561021f57600080fd5b5061023361022e366004612039565b610606565b6040516001600160a01b0390911681526020016101e8565b34801561025757600080fd5b5061026b61026636600461206e565b61062d565b005b34801561027957600080fd5b5061026b61028836600461213b565b610747565b34801561029957600080fd5b506099545b6040519081526020016101e8565b3480156102b857600080fd5b5061026b6102c7366004612182565b6107df565b3480156102d857600080fd5b5061029e6102e736600461206e565b610810565b3480156102f857600080fd5b5061026b6103073660046121be565b6108a6565b34801561031857600080fd5b5061026b610985565b34801561032d57600080fd5b5061026b61033c366004612182565b610997565b61026b61034f3660046121d9565b6109b2565b34801561036057600080fd5b5061029e61036f366004612039565b610a82565b34801561038057600080fd5b5061029e610b15565b34801561039557600080fd5b5061015f5460ff166101dc565b3480156103ae57600080fd5b506102336103bd366004612039565b610bc8565b3480156103ce57600080fd5b5061029e6103dd3660046121be565b610c28565b3480156103ee57600080fd5b5061026b610cae565b34801561040357600080fd5b5061026b610cc0565b34801561041857600080fd5b5061012d546001600160a01b0316610233565b34801561043757600080fd5b5061026b610446366004612211565b610cd0565b34801561045757600080fd5b50610206610e0f565b34801561046c57600080fd5b5061026b61047b366004612285565b610e1e565b34801561048c57600080fd5b5061026b61049b3660046122c1565b610e29565b3480156104ac57600080fd5b506102066104bb366004612039565b610e5b565b3480156104cc57600080fd5b5061029e6104db3660046121d9565b610efe565b3480156104ec57600080fd5b506101dc6104fb366004612329565b6001600160a01b039182166000908152606a6020908152604080832093909416825291909152205460ff1690565b34801561053557600080fd5b5061026b6105443660046121be565b610fca565b60006001600160e01b0319821663780e9d6360e01b148061056e575061056e82611040565b92915050565b6060606580546105839061235c565b80601f01602080910402602001604051908101604052809291908181526020018280546105af9061235c565b80156105fc5780601f106105d1576101008083540402835291602001916105fc565b820191906000526020600020905b8154815290600101906020018083116105df57829003601f168201915b5050505050905090565b600061061182611090565b506000908152606960205260409020546001600160a01b031690565b600061063882610bc8565b9050806001600160a01b0316836001600160a01b0316036106aa5760405162461bcd60e51b815260206004820152602160248201527f4552433732313a20617070726f76616c20746f2063757272656e74206f776e656044820152603960f91b60648201526084015b60405180910390fd5b336001600160a01b03821614806106c657506106c681336104fb565b6107385760405162461bcd60e51b815260206004820152603d60248201527f4552433732313a20617070726f76652063616c6c6572206973206e6f7420746f60448201527f6b656e206f776e6572206f7220617070726f76656420666f7220616c6c00000060648201526084016106a1565b61074283836110ef565b505050565b61074f61115d565b6000828152606760205260409020546001600160a01b03166107c65760405162461bcd60e51b815260206004820152602a60248201527f5f736574546f6b656e5552493a2055524920736574206f66206e6f6e657869736044820152693a32b73a103a37b5b2b760b11b60648201526084016106a1565b60008281526101926020526040902061074282826123e4565b6107e933826111b8565b6108055760405162461bcd60e51b81526004016106a1906124a4565b610742838383611237565b600061081b83610c28565b821061087d5760405162461bcd60e51b815260206004820152602b60248201527f455243373231456e756d657261626c653a206f776e657220696e646578206f7560448201526a74206f6620626f756e647360a81b60648201526084016106a1565b506001600160a01b03919091166000908152609760209081526040808320938352929052205490565b6001600160a01b037f00000000000000000000000000000000000000000000000000000000000000001630036108ee5760405162461bcd60e51b81526004016106a1906124f1565b7f00000000000000000000000000000000000000000000000000000000000000006001600160a01b031661093760008051602061271e833981519152546001600160a01b031690565b6001600160a01b03161461095d5760405162461bcd60e51b81526004016106a19061253d565b610966816113ed565b60408051600080825260208201909252610982918391906113f5565b50565b61098d61115d565b610995611560565b565b61074283838360405180602001604052806000815250610e29565b6001600160a01b037f00000000000000000000000000000000000000000000000000000000000000001630036109fa5760405162461bcd60e51b81526004016106a1906124f1565b7f00000000000000000000000000000000000000000000000000000000000000006001600160a01b0316610a4360008051602061271e833981519152546001600160a01b031690565b6001600160a01b031614610a695760405162461bcd60e51b81526004016106a19061253d565b610a72826113ed565b610a7e828260016113f5565b5050565b6000610a8d60995490565b8210610af05760405162461bcd60e51b815260206004820152602c60248201527f455243373231456e756d657261626c653a20676c6f62616c20696e646578206f60448201526b7574206f6620626f756e647360a01b60648201526084016106a1565b60998281548110610b0357610b03612589565b90600052602060002001549050919050565b6000306001600160a01b037f00000000000000000000000000000000000000000000000000000000000000001614610bb55760405162461bcd60e51b815260206004820152603860248201527f555550535570677261646561626c653a206d757374206e6f742062652063616c60448201527f6c6564207468726f7567682064656c656761746563616c6c000000000000000060648201526084016106a1565b5060008051602061271e83398151915290565b6000818152606760205260408120546001600160a01b03168061056e5760405162461bcd60e51b8152602060048201526018602482015277115490cdcc8c4e881a5b9d985b1a59081d1bdad95b88125160421b60448201526064016106a1565b60006001600160a01b038216610c925760405162461bcd60e51b815260206004820152602960248201527f4552433732313a2061646472657373207a65726f206973206e6f7420612076616044820152683634b21037bbb732b960b91b60648201526084016106a1565b506001600160a01b031660009081526068602052604090205490565b610cb661115d565b61099560006115b3565b610cc861115d565b610995611606565b600054610100900460ff1615808015610cf05750600054600160ff909116105b80610d0a5750303b158015610d0a575060005460ff166001145b610d6d5760405162461bcd60e51b815260206004820152602e60248201527f496e697469616c697a61626c653a20636f6e747261637420697320616c72656160448201526d191e481a5b9a5d1a585b1a5e995960921b60648201526084016106a1565b6000805460ff191660011790558015610d90576000805461ff0019166101001790555b610d98611644565b610da2838361166b565b610daa611644565b610db261169c565b610dbb84610fca565b610dc3611606565b8015610e09576000805461ff0019169055604051600181527f7f26b83ff96e1f2b6a682f133852f6798a09c465da95921460cefb38474024989060200160405180910390a15b50505050565b6060606680546105839061235c565b610a7e3383836116cb565b610e3333836111b8565b610e4f5760405162461bcd60e51b81526004016106a1906124a4565b610e0984848484611799565b600081815261019260205260409020805460609190610e799061235c565b80601f0160208091040260200160405190810160405280929190818152602001828054610ea59061235c565b8015610ef25780601f10610ec757610100808354040283529160200191610ef2565b820191906000526020600020905b815481529060010190602001808311610ed557829003601f168201915b50505050509050919050565b6000610f1361012d546001600160a01b031690565b6001600160a01b0316336001600160a01b03161480610f36575061015f5460ff16155b610f825760405162461bcd60e51b815260206004820152601a60248201527f6d696e743a20756e617574686f72697a656420746f206d696e7400000000000060448201526064016106a1565b610f9161019180546001019055565b6000610f9d6101915490565b9050610fa984826117cc565b600081815261019260205260409020610fc284826123e4565b509392505050565b610fd261115d565b6001600160a01b0381166110375760405162461bcd60e51b815260206004820152602660248201527f4f776e61626c653a206e6577206f776e657220697320746865207a65726f206160448201526564647265737360d01b60648201526084016106a1565b610982816115b3565b60006001600160e01b031982166380ac58cd60e01b148061107157506001600160e01b03198216635b5e139f60e01b145b8061056e57506301ffc9a760e01b6001600160e01b031983161461056e565b6000818152606760205260409020546001600160a01b03166109825760405162461bcd60e51b8152602060048201526018602482015277115490cdcc8c4e881a5b9d985b1a59081d1bdad95b88125160421b60448201526064016106a1565b600081815260696020526040902080546001600160a01b0319166001600160a01b038416908117909155819061112482610bc8565b6001600160a01b03167f8c5be1e5ebec7d5bd14f71427d1e84f3dd0314c0f7b2291e5b200ac8c7c3b92560405160405180910390a45050565b61012d546001600160a01b031633146109955760405162461bcd60e51b815260206004820181905260248201527f4f776e61626c653a2063616c6c6572206973206e6f7420746865206f776e657260448201526064016106a1565b6000806111c483610bc8565b9050806001600160a01b0316846001600160a01b0316148061120b57506001600160a01b038082166000908152606a602090815260408083209388168352929052205460ff165b8061122f5750836001600160a01b031661122484610606565b6001600160a01b0316145b949350505050565b826001600160a01b031661124a82610bc8565b6001600160a01b0316146112ae5760405162461bcd60e51b815260206004820152602560248201527f4552433732313a207472616e736665722066726f6d20696e636f72726563742060448201526437bbb732b960d91b60648201526084016106a1565b6001600160a01b0382166113105760405162461bcd60e51b8152602060048201526024808201527f4552433732313a207472616e7366657220746f20746865207a65726f206164646044820152637265737360e01b60648201526084016106a1565b61131b83838361191a565b600081815260696020908152604080832080546001600160a01b03191690556001600160a01b03861683526068909152812080546001929061135e9084906125b5565b90915550506001600160a01b038216600090815260686020526040812080546001929061138c9084906125c8565b909155505060008181526067602052604080822080546001600160a01b0319166001600160a01b0386811691821790925591518493918716917fddf252ad1be2c89b69c2b068fc378daa952ba7f163c4a11628f55a4df523b3ef91a4505050565b61098261115d565b7f4910fdfa16fed3260ed0e7147f7cc6da11a60208b5b9406d12a635614ffd91435460ff161561142857610742836119d2565b826001600160a01b03166352d1902d6040518163ffffffff1660e01b8152600401602060405180830381865afa925050508015611482575060408051601f3d908101601f1916820190925261147f918101906125db565b60015b6114e55760405162461bcd60e51b815260206004820152602e60248201527f45524331393637557067726164653a206e657720696d706c656d656e7461746960448201526d6f6e206973206e6f74205555505360901b60648201526084016106a1565b60008051602061271e83398151915281146115545760405162461bcd60e51b815260206004820152602960248201527f45524331393637557067726164653a20756e737570706f727465642070726f786044820152681a58589b195555525160ba1b60648201526084016106a1565b50610742838383611a6e565b611568611a93565b61015f805460ff191690557f5db9ee0a495bf2e6ff9c91a7834c1ba4fdd244a5e8aa4e537bd38aeae4b073aa335b6040516001600160a01b03909116815260200160405180910390a1565b61012d80546001600160a01b038381166001600160a01b0319831681179093556040519116919082907f8be0079c531659141344cd1fd0a4f28419497f9722a3daafe3b4186f6b6457e090600090a35050565b61160e611add565b61015f805460ff191660011790557f62e78cea01bee320cd4e420270b5ea74000d11b0c9f74754ebdbfc544b05a2586115963390565b600054610100900460ff166109955760405162461bcd60e51b81526004016106a1906125f4565b600054610100900460ff166116925760405162461bcd60e51b81526004016106a1906125f4565b610a7e8282611b24565b600054610100900460ff166116c35760405162461bcd60e51b81526004016106a1906125f4565b610995611b64565b816001600160a01b0316836001600160a01b03160361172c5760405162461bcd60e51b815260206004820152601960248201527f4552433732313a20617070726f766520746f2063616c6c65720000000000000060448201526064016106a1565b6001600160a01b038381166000818152606a6020908152604080832094871680845294825291829020805460ff191686151590811790915591519182527f17307eab39ab6107e8899845ad3d59bd9653f200f220920489ca2b5937696c31910160405180910390a3505050565b6117a4848484611237565b6117b084848484611b94565b610e095760405162461bcd60e51b81526004016106a19061263f565b6001600160a01b0382166118225760405162461bcd60e51b815260206004820181905260248201527f4552433732313a206d696e7420746f20746865207a65726f206164647265737360448201526064016106a1565b6000818152606760205260409020546001600160a01b0316156118875760405162461bcd60e51b815260206004820152601c60248201527f4552433732313a20746f6b656e20616c7265616479206d696e7465640000000060448201526064016106a1565b6118936000838361191a565b6001600160a01b03821660009081526068602052604081208054600192906118bc9084906125c8565b909155505060008181526067602052604080822080546001600160a01b0319166001600160a01b03861690811790915590518392907fddf252ad1be2c89b69c2b068fc378daa952ba7f163c4a11628f55a4df523b3ef908290a45050565b6001600160a01b0383166119755761197081609980546000838152609a60205260408120829055600182018355919091527f72a152ddfb8e864297c917af52ea6c1c68aead0fee1a62673fcc7e0c94979d000155565b611998565b816001600160a01b0316836001600160a01b031614611998576119988382611c95565b6001600160a01b0382166119af5761074281611d32565b826001600160a01b0316826001600160a01b031614610742576107428282611de1565b6001600160a01b0381163b611a3f5760405162461bcd60e51b815260206004820152602d60248201527f455243313936373a206e657720696d706c656d656e746174696f6e206973206e60448201526c1bdd08184818dbdb9d1c9858dd609a1b60648201526084016106a1565b60008051602061271e83398151915280546001600160a01b0319166001600160a01b0392909216919091179055565b611a7783611e25565b600082511180611a845750805b1561074257610e098383611e65565b61015f5460ff166109955760405162461bcd60e51b815260206004820152601460248201527314185d5cd8589b194e881b9bdd081c185d5cd95960621b60448201526064016106a1565b61015f5460ff16156109955760405162461bcd60e51b815260206004820152601060248201526f14185d5cd8589b194e881c185d5cd95960821b60448201526064016106a1565b600054610100900460ff16611b4b5760405162461bcd60e51b81526004016106a1906125f4565b6065611b5783826123e4565b50606661074282826123e4565b600054610100900460ff16611b8b5760405162461bcd60e51b81526004016106a1906125f4565b610995336115b3565b60006001600160a01b0384163b15611c8a57604051630a85bd0160e11b81526001600160a01b0385169063150b7a0290611bd8903390899088908890600401612691565b6020604051808303816000875af1925050508015611c13575060408051601f3d908101601f19168201909252611c10918101906126ce565b60015b611c70573d808015611c41576040519150601f19603f3d011682016040523d82523d6000602084013e611c46565b606091505b508051600003611c685760405162461bcd60e51b81526004016106a19061263f565b805181602001fd5b6001600160e01b031916630a85bd0160e11b14905061122f565b506001949350505050565b60006001611ca284610c28565b611cac91906125b5565b600083815260986020526040902054909150808214611cff576001600160a01b03841660009081526097602090815260408083208584528252808320548484528184208190558352609890915290208190555b5060009182526098602090815260408084208490556001600160a01b039094168352609781528383209183525290812055565b609954600090611d44906001906125b5565b6000838152609a602052604081205460998054939450909284908110611d6c57611d6c612589565b906000526020600020015490508060998381548110611d8d57611d8d612589565b6000918252602080832090910192909255828152609a90915260408082208490558582528120556099805480611dc557611dc56126eb565b6001900381819060005260206000200160009055905550505050565b6000611dec83610c28565b6001600160a01b039093166000908152609760209081526040808320868452825280832085905593825260989052919091209190915550565b611e2e816119d2565b6040516001600160a01b038216907fbc7cd75a20ee27fd9adebab32041f755214dbc6bffa90cc0225b39da2e5c2d3b90600090a250565b60606001600160a01b0383163b611ecd5760405162461bcd60e51b815260206004820152602660248201527f416464726573733a2064656c65676174652063616c6c20746f206e6f6e2d636f6044820152651b9d1c9858dd60d21b60648201526084016106a1565b600080846001600160a01b031684604051611ee89190612701565b600060405180830381855af49150503d8060008114611f23576040519150601f19603f3d011682016040523d82523d6000602084013e611f28565b606091505b5091509150611f50828260405180606001604052806027815260200161273e60279139611f59565b95945050505050565b60608315611f68575081611f72565b611f728383611f79565b9392505050565b815115611f895781518083602001fd5b8060405162461bcd60e51b81526004016106a19190612026565b6001600160e01b03198116811461098257600080fd5b600060208284031215611fcb57600080fd5b8135611f7281611fa3565b60005b83811015611ff1578181015183820152602001611fd9565b50506000910152565b60008151808452612012816020860160208601611fd6565b601f01601f19169290920160200192915050565b602081526000611f726020830184611ffa565b60006020828403121561204b57600080fd5b5035919050565b80356001600160a01b038116811461206957600080fd5b919050565b6000806040838503121561208157600080fd5b61208a83612052565b946020939093013593505050565b634e487b7160e01b600052604160045260246000fd5b600082601f8301126120bf57600080fd5b813567ffffffffffffffff808211156120da576120da612098565b604051601f8301601f19908116603f0116810190828211818310171561210257612102612098565b8160405283815286602085880101111561211b57600080fd5b836020870160208301376000602085830101528094505050505092915050565b6000806040838503121561214e57600080fd5b82359150602083013567ffffffffffffffff81111561216c57600080fd5b612178858286016120ae565b9150509250929050565b60008060006060848603121561219757600080fd5b6121a084612052565b92506121ae60208501612052565b9150604084013590509250925092565b6000602082840312156121d057600080fd5b611f7282612052565b600080604083850312156121ec57600080fd5b6121f583612052565b9150602083013567ffffffffffffffff81111561216c57600080fd5b60008060006060848603121561222657600080fd5b61222f84612052565b9250602084013567ffffffffffffffff8082111561224c57600080fd5b612258878388016120ae565b9350604086013591508082111561226e57600080fd5b5061227b868287016120ae565b9150509250925092565b6000806040838503121561229857600080fd5b6122a183612052565b9150602083013580151581146122b657600080fd5b809150509250929050565b600080600080608085870312156122d757600080fd5b6122e085612052565b93506122ee60208601612052565b925060408501359150606085013567ffffffffffffffff81111561231157600080fd5b61231d878288016120ae565b91505092959194509250565b6000806040838503121561233c57600080fd5b61234583612052565b915061235360208401612052565b90509250929050565b600181811c9082168061237057607f821691505b60208210810361239057634e487b7160e01b600052602260045260246000fd5b50919050565b601f82111561074257600081815260208120601f850160051c810160208610156123bd5750805b601f850160051c820191505b818110156123dc578281556001016123c9565b505050505050565b815167ffffffffffffffff8111156123fe576123fe612098565b6124128161240c845461235c565b84612396565b602080601f831160018114612447576000841561242f5750858301515b600019600386901b1c1916600185901b1785556123dc565b600085815260208120601f198616915b8281101561247657888601518255948401946001909101908401612457565b50858210156124945787850151600019600388901b60f8161c191681555b5050505050600190811b01905550565b6020808252602d908201527f4552433732313a2063616c6c6572206973206e6f7420746f6b656e206f776e6560408201526c1c881bdc88185c1c1c9bdd9959609a1b606082015260800190565b6020808252602c908201527f46756e6374696f6e206d7573742062652063616c6c6564207468726f7567682060408201526b19195b1959d85d1958d85b1b60a21b606082015260800190565b6020808252602c908201527f46756e6374696f6e206d7573742062652063616c6c6564207468726f7567682060408201526b6163746976652070726f787960a01b606082015260800190565b634e487b7160e01b600052603260045260246000fd5b634e487b7160e01b600052601160045260246000fd5b8181038181111561056e5761056e61259f565b8082018082111561056e5761056e61259f565b6000602082840312156125ed57600080fd5b5051919050565b6020808252602b908201527f496e697469616c697a61626c653a20636f6e7472616374206973206e6f74206960408201526a6e697469616c697a696e6760a81b606082015260800190565b60208082526032908201527f4552433732313a207472616e7366657220746f206e6f6e20455243373231526560408201527131b2b4bb32b91034b6b83632b6b2b73a32b960711b606082015260800190565b6001600160a01b03858116825284166020820152604081018390526080606082018190526000906126c490830184611ffa565b9695505050505050565b6000602082840312156126e057600080fd5b8151611f7281611fa3565b634e487b7160e01b600052603160045260246000fd5b60008251612713818460208701611fd6565b919091019291505056fe360894a13ba1a3210667c828492db98dca3e2076cc3735a920a3ca505d382bbc416464726573733a206c6f772d6c6576656c2064656c65676174652063616c6c206661696c6564a2646970667358221220952162ad80a37be07f415bc888d5d39b0de9f88f8d814263f4a889d7900f9e5d64736f6c63430008100033",
    "linkReferences": {}
  },
  "methodIdentifiers": {
    "approve(address,uint256)": "095ea7b3",
    "balanceOf(address)": "70a08231",
    "getApproved(uint256)": "081812fc",
    "initialize(address,string,string)": "90657147",
    "isApprovedForAll(address,address)": "e985e9c5",
    "mint(address,string)": "d0def521",
    "name()": "06fdde03",
    "owner()": "8da5cb5b",
    "ownerOf(uint256)": "6352211e",
    "pause()": "8456cb59",
    "paused()": "5c975abb",
    "proxiableUUID()": "52d1902d",
    "renounceOwnership()": "715018a6",
    "safeTransferFrom(address,address,uint256)": "42842e0e",
    "safeTransferFrom(address,address,uint256,bytes)": "b88d4fde",
    "setApprovalForAll(address,bool)": "a22cb465",
    "setTokenURI(uint256,string)": "162094c4",
    "supportsInterface(bytes4)": "01ffc9a7",
    "symbol()": "95d89b41",
    "tokenByIndex(uint256)": "4f6ccce7",
    "tokenOfOwnerByIndex(address,uint256)": "2f745c59",
    "tokenURI(uint256)": "c87b56dd",
    "totalSupply()": "18160ddd",
    "transferFrom(address,address,uint256)": "23b872dd",
    "transferOwnership(address)": "f2fde38b",
    "unpause()": "3f4ba83a",
    "upgradeTo(address)": "3659cfe6",
    "upgradeToAndCall(address,bytes)": "4f1ef286"
  },
  "id": 45
}