{
  "abi": [
    {
      "inputs": [],
      "stateMutability": "nonpayable",
      "type": "constructor"
    },
    {
      "anonymous": false,
      "inputs": [
        {
          "indexed": false,
          "internalType": "address",
          "name": "previousAdmin",
          "type": "address"
        },
        {
          "indexed": false,
          "internalType": "address",
          "name": "newAdmin",
          "type": "address"
        }
      ],
      "name": "AdminChanged",
      "type": "event"
    },
    {
      "anonymous": false,
      "inputs": [
        {
          "indexed": true,
          "internalType": "uint256",
          "name": "tokenId",
          "type": "uint256"
        },
        {
          "indexed": true,
          "internalType": "address",
          "name": "admin",
          "type": "address"
        },
        {
          "indexed": false,
          "internalType": "bool",
          "name": "isAdded",
          "type": "bool"
        }
      ],
      "name": "AdminUpdate",
      "type": "event"
    },
    {
      "anonymous": false,
      "inputs": [
        {
          "indexed": true,
          "internalType": "address",
          "name": "owner",
          "type": "address"
        },
        {
          "indexed": true,
          "internalType": "address",
          "name": "approved",
          "type": "address"
        },
        {
          "indexed": true,
          "internalType": "uint256",
          "name": "tokenId",
          "type": "uint256"
        }
      ],
      "name": "Approval",
      "type": "event"
    },
    {
      "anonymous": false,
      "inputs": [
        {
          "indexed": true,
          "internalType": "address",
          "name": "owner",
          "type": "address"
        },
        {
          "indexed": true,
          "internalType": "address",
          "name": "operator",
          "type": "address"
        },
        {
          "indexed": false,
          "internalType": "bool",
          "name": "approved",
          "type": "bool"
        }
      ],
      "name": "ApprovalForAll",
      "type": "event"
    },
    {
      "anonymous": false,
      "inputs": [
        {
          "indexed": true,
          "internalType": "address",
          "name": "beacon",
          "type": "address"
        }
      ],
      "name": "BeaconUpgraded",
      "type": "event"
    },
    {
      "anonymous": false,
      "inputs": [
        {
          "indexed": false,
          "internalType": "uint8",
          "name": "version",
          "type": "uint8"
        }
      ],
      "name": "Initialized",
      "type": "event"
    },
    {
      "anonymous": false,
      "inputs": [
        {
          "indexed": true,
          "internalType": "uint256",
          "name": "tokenId",
          "type": "uint256"
        }
      ],
      "name": "MetadataUpdate",
      "type": "event"
    },
    {
      "anonymous": false,
      "inputs": [
        {
          "indexed": true,
          "internalType": "address",
          "name": "previousOwner",
          "type": "address"
        },
        {
          "indexed": true,
          "internalType": "address",
          "name": "newOwner",
          "type": "address"
        }
      ],
      "name": "OwnershipTransferred",
      "type": "event"
    },
    {
      "anonymous": false,
      "inputs": [
        {
          "indexed": false,
          "internalType": "address",
          "name": "account",
          "type": "address"
        }
      ],
      "name": "Paused",
      "type": "event"
    },
    {
      "anonymous": false,
      "inputs": [
        {
          "indexed": true,
          "internalType": "address",
          "name": "from",
          "type": "address"
        },
        {
          "indexed": true,
          "internalType": "address",
          "name": "to",
          "type": "address"
        },
        {
          "indexed": true,
          "internalType": "uint256",
          "name": "tokenId",
          "type": "uint256"
        }
      ],
      "name": "Transfer",
      "type": "event"
    },
    {
      "anonymous": false,
      "inputs": [
        {
          "indexed": false,
          "internalType": "address",
          "name": "account",
          "type": "address"
        }
      ],
      "name": "Unpaused",
      "type": "event"
    },
    {
      "anonymous": false,
      "inputs": [
        {
          "indexed": true,
          "internalType": "address",
          "name": "implementation",
          "type": "address"
        }
      ],
      "name": "Upgraded",
      "type": "event"
    },
    {
      "inputs": [
        {
          "internalType": "address",
          "name": "to",
          "type": "address"
        },
        {
          "internalType": "uint256",
          "name": "tokenId",
          "type": "uint256"
        }
      ],
      "name": "approve",
      "outputs": [],
      "stateMutability": "nonpayable",
      "type": "function"
    },
    {
      "inputs": [
        {
          "internalType": "address",
          "name": "owner",
          "type": "address"
        }
      ],
      "name": "balanceOf",
      "outputs": [
        {
          "internalType": "uint256",
          "name": "",
          "type": "uint256"
        }
      ],
      "stateMutability": "view",
      "type": "function"
    },
    {
      "inputs": [
        {
          "internalType": "uint256",
          "name": "tokenId",
          "type": "uint256"
        }
      ],
      "name": "getApproved",
      "outputs": [
        {
          "internalType": "address",
          "name": "",
          "type": "address"
        }
      ],
      "stateMutability": "view",
      "type": "function"
    },
    {
      "inputs": [
        {
          "internalType": "address",
          "name": "nextOwner",
          "type": "address"
        },
        {
          "internalType": "string",
          "name": "name_",
          "type": "string"
        },
        {
          "internalType": "string",
          "name": "symbol_",
          "type": "string"
        }
      ],
      "name": "initialize",
      "outputs": [],
      "stateMutability": "nonpayable",
      "type": "function"
    },
    {
      "inputs": [
        {
          "internalType": "uint256",
          "name": "tokenId",
          "type": "uint256"
        },
        {
          "internalType": "address",
          "name": "admin",
          "type": "address"
        }
      ],
      "name": "isAdminActive",
      "outputs": [
        {
          "internalType": "bool",
          "name": "",
          "type": "bool"
        }
      ],
      "stateMutability": "view",
      "type": "function"
    },
    {
      "inputs": [
        {
          "internalType": "address",
          "name": "owner",
          "type": "address"
        },
        {
          "internalType": "address",
          "name": "operator",
          "type": "address"
        }
      ],
      "name": "isApprovedForAll",
      "outputs": [
        {
          "internalType": "bool",
          "name": "",
          "type": "bool"
        }
      ],
      "stateMutability": "view",
      "type": "function"
    },
    {
      "inputs": [
        {
          "internalType": "address",
          "name": "recipient",
          "type": "address"
        },
        {
          "internalType": "string",
          "name": "uri",
          "type": "string"
        }
      ],
      "name": "mint",
      "outputs": [
        {
          "internalType": "uint256",
          "name": "",
          "type": "uint256"
        }
      ],
      "stateMutability": "nonpayable",
      "type": "function"
    },
    {
      "inputs": [],
      "name": "name",
      "outputs": [
        {
          "internalType": "string",
          "name": "",
          "type": "string"
        }
      ],
      "stateMutability": "view",
      "type": "function"
    },
    {
      "inputs": [],
      "name": "owner",
      "outputs": [
        {
          "internalType": "address",
          "name": "",
          "type": "address"
        }
      ],
      "stateMutability": "view",
      "type": "function"
    },
    {
      "inputs": [
        {
          "internalType": "uint256",
          "name": "tokenId",
          "type": "uint256"
        }
      ],
      "name": "ownerOf",
      "outputs": [
        {
          "internalType": "address",
          "name": "",
          "type": "address"
        }
      ],
      "stateMutability": "view",
      "type": "function"
    },
    {
      "inputs": [],
      "name": "pause",
      "outputs": [],
      "stateMutability": "nonpayable",
      "type": "function"
    },
    {
      "inputs": [],
      "name": "paused",
      "outputs": [
        {
          "internalType": "bool",
          "name": "",
          "type": "bool"
        }
      ],
      "stateMutability": "view",
      "type": "function"
    },
    {
      "inputs": [],
      "name": "proxiableUUID",
      "outputs": [
        {
          "internalType": "bytes32",
          "name": "",
          "type": "bytes32"
        }
      ],
      "stateMutability": "view",
      "type": "function"
    },
    {
      "inputs": [],
      "name": "renounceOwnership",
      "outputs": [],
      "stateMutability": "nonpayable",
      "type": "function"
    },
    {
      "inputs": [
        {
          "internalType": "address",
          "name": "from",
          "type": "address"
        },
        {
          "internalType": "address",
          "name": "to",
          "type": "address"
        },
        {
          "internalType": "uint256",
          "name": "tokenId",
          "type": "uint256"
        }
      ],
      "name": "safeTransferFrom",
      "outputs": [],
      "stateMutability": "nonpayable",
      "type": "function"
    },
    {
      "inputs": [
        {
          "internalType": "address",
          "name": "from",
          "type": "address"
        },
        {
          "internalType": "address",
          "name": "to",
          "type": "address"
        },
        {
          "internalType": "uint256",
          "name": "tokenId",
          "type": "uint256"
        },
        {
          "internalType": "bytes",
          "name": "data",
          "type": "bytes"
        }
      ],
      "name": "safeTransferFrom",
      "outputs": [],
      "stateMutability": "nonpayable",
      "type": "function"
    },
    {
      "inputs": [
        {
          "internalType": "uint256",
          "name": "tokenId",
          "type": "uint256"
        },
        {
          "internalType": "address",
          "name": "admin",
          "type": "address"
        },
        {
          "internalType": "bool",
          "name": "isActive",
          "type": "bool"
        }
      ],
      "name": "setAdmin",
      "outputs": [],
      "stateMutability": "nonpayable",
      "type": "function"
    },
    {
      "inputs": [
        {
          "internalType": "address",
          "name": "operator",
          "type": "address"
        },
        {
          "internalType": "bool",
          "name": "approved",
          "type": "bool"
        }
      ],
      "name": "setApprovalForAll",
      "outputs": [],
      "stateMutability": "nonpayable",
      "type": "function"
    },
    {
      "inputs": [
        {
          "internalType": "uint256",
          "name": "tokenId",
          "type": "uint256"
        },
        {
          "internalType": "address[]",
          "name": "admins",
          "type": "address[]"
        },
        {
          "internalType": "bool[]",
          "name": "isActive",
          "type": "bool[]"
        }
      ],
      "name": "setMultipleAdmins",
      "outputs": [],
      "stateMutability": "nonpayable",
      "type": "function"
    },
    {
      "inputs": [
        {
          "internalType": "uint256",
          "name": "tokenId",
          "type": "uint256"
        },
        {
          "internalType": "string",
          "name": "uri",
          "type": "string"
        }
      ],
      "name": "setTokenURI",
      "outputs": [],
      "stateMutability": "nonpayable",
      "type": "function"
    },
    {
      "inputs": [
        {
          "internalType": "bytes4",
          "name": "interfaceId",
          "type": "bytes4"
        }
      ],
      "name": "supportsInterface",
      "outputs": [
        {
          "internalType": "bool",
          "name": "",
          "type": "bool"
        }
      ],
      "stateMutability": "view",
      "type": "function"
    },
    {
      "inputs": [],
      "name": "symbol",
      "outputs": [
        {
          "internalType": "string",
          "name": "",
          "type": "string"
        }
      ],
      "stateMutability": "view",
      "type": "function"
    },
    {
      "inputs": [
        {
          "internalType": "uint256",
          "name": "index",
          "type": "uint256"
        }
      ],
      "name": "tokenByIndex",
      "outputs": [
        {
          "internalType": "uint256",
          "name": "",
          "type": "uint256"
        }
      ],
      "stateMutability": "view",
      "type": "function"
    },
    {
      "inputs": [
        {
          "internalType": "address",
          "name": "owner",
          "type": "address"
        },
        {
          "internalType": "uint256",
          "name": "index",
          "type": "uint256"
        }
      ],
      "name": "tokenOfOwnerByIndex",
      "outputs": [
        {
          "internalType": "uint256",
          "name": "",
          "type": "uint256"
        }
      ],
      "stateMutability": "view",
      "type": "function"
    },
    {
      "inputs": [
        {
          "internalType": "uint256",
          "name": "tokenId",
          "type": "uint256"
        }
      ],
      "name": "tokenURI",
      "outputs": [
        {
          "internalType": "string",
          "name": "",
          "type": "string"
        }
      ],
      "stateMutability": "view",
      "type": "function"
    },
    {
      "inputs": [],
      "name": "totalSupply",
      "outputs": [
        {
          "internalType": "uint256",
          "name": "",
          "type": "uint256"
        }
      ],
      "stateMutability": "view",
      "type": "function"
    },
    {
      "inputs": [
        {
          "internalType": "address",
          "name": "from",
          "type": "address"
        },
        {
          "internalType": "address",
          "name": "to",
          "type": "address"
        },
        {
          "internalType": "uint256",
          "name": "tokenId",
          "type": "uint256"
        }
      ],
      "name": "transferFrom",
      "outputs": [],
      "stateMutability": "nonpayable",
      "type": "function"
    },
    {
      "inputs": [
        {
          "internalType": "address",
          "name": "newOwner",
          "type": "address"
        }
      ],
      "name": "transferOwnership",
      "outputs": [],
      "stateMutability": "nonpayable",
      "type": "function"
    },
    {
      "inputs": [],
      "name": "unpause",
      "outputs": [],
      "stateMutability": "nonpayable",
      "type": "function"
    },
    {
      "inputs": [
        {
          "internalType": "address",
          "name": "newImplementation",
          "type": "address"
        }
      ],
      "name": "upgradeTo",
      "outputs": [],
      "stateMutability": "nonpayable",
      "type": "function"
    },
    {
      "inputs": [
        {
          "internalType": "address",
          "name": "newImplementation",
          "type": "address"
        },
        {
          "internalType": "bytes",
          "name": "data",
          "type": "bytes"
        }
      ],
      "name": "upgradeToAndCall",
      "outputs": [],
      "stateMutability": "payable",
      "type": "function"
    }
  ],
  "bytecode": {
    "object": "0x60a0604052306080523480156200001557600080fd5b506200002062000026565b620000e8565b600054610100900460ff1615620000935760405162461bcd60e51b815260206004820152602760248201527f496e697469616c697a61626c653a20636f6e747261637420697320696e697469604482015266616c697a696e6760c81b606482015260840160405180910390fd5b60005460ff9081161015620000e6576000805460ff191660ff9081179091556040519081527f7f26b83ff96e1f2b6a682f133852f6798a09c465da95921460cefb38474024989060200160405180910390a15b565b608051612e3e6200012060003960008181610987015281816109c701528181610a9301528181610ad30152610bf90152612e3e6000f3fe6080604052600436106101d85760003560e01c80636352211e11610102578063b88d4fde11610095578063e060fb7611610064578063e060fb7614610521578063e985e9c514610568578063f2fde38b146105b1578063f65066fe146105d157600080fd5b8063b88d4fde146104a1578063c47c946c146104c1578063c87b56dd146104e1578063d0def5211461050157600080fd5b80638da5cb5b116100d15780638da5cb5b1461042d578063906571471461044c57806395d89b411461046c578063a22cb4651461048157600080fd5b80636352211e146103c357806370a08231146103e3578063715018a6146104035780638456cb591461041857600080fd5b80632f745c591161017a5780634f1ef286116101495780634f1ef286146103625780634f6ccce71461037557806352d1902d146103955780635c975abb146103aa57600080fd5b80632f745c59146102ed5780633659cfe61461030d5780633f4ba83a1461032d57806342842e0e1461034257600080fd5b8063095ea7b3116101b6578063095ea7b31461026c578063162094c41461028e57806318160ddd146102ae57806323b872dd146102cd57600080fd5b806301ffc9a7146101dd57806306fdde0314610212578063081812fc14610234575b600080fd5b3480156101e957600080fd5b506101fd6101f836600461247c565b6105f1565b60405190151581526020015b60405180910390f35b34801561021e57600080fd5b5061022761061c565b60405161020991906124e9565b34801561024057600080fd5b5061025461024f3660046124fc565b6106ae565b6040516001600160a01b039091168152602001610209565b34801561027857600080fd5b5061028c610287366004612531565b6106d5565b005b34801561029a57600080fd5b5061028c6102a9366004612612565b6107ef565b3480156102ba57600080fd5b506099545b604051908152602001610209565b3480156102d957600080fd5b5061028c6102e8366004612659565b6108b6565b3480156102f957600080fd5b506102bf610308366004612531565b6108e7565b34801561031957600080fd5b5061028c610328366004612695565b61097d565b34801561033957600080fd5b5061028c610a5c565b34801561034e57600080fd5b5061028c61035d366004612659565b610a6e565b61028c6103703660046126b0565b610a89565b34801561038157600080fd5b506102bf6103903660046124fc565b610b59565b3480156103a157600080fd5b506102bf610bec565b3480156103b657600080fd5b5061015f5460ff166101fd565b3480156103cf57600080fd5b506102546103de3660046124fc565b610c9f565b3480156103ef57600080fd5b506102bf6103fe366004612695565b610cff565b34801561040f57600080fd5b5061028c610d85565b34801561042457600080fd5b5061028c610d97565b34801561043957600080fd5b5061012d546001600160a01b0316610254565b34801561045857600080fd5b5061028c6104673660046126e8565b610da7565b34801561047857600080fd5b50610227610ee6565b34801561048d57600080fd5b5061028c61049c36600461276c565b610ef5565b3480156104ad57600080fd5b5061028c6104bc36600461279f565b610f00565b3480156104cd57600080fd5b5061028c6104dc366004612807565b610f32565b3480156104ed57600080fd5b506102276104fc3660046124fc565b61105c565b34801561050d57600080fd5b506102bf61051c3660046126b0565b6110ff565b34801561052d57600080fd5b506101fd61053c366004612843565b6000918252610193602090815260408084206001600160a01b0393909316845291905290205460ff1690565b34801561057457600080fd5b506101fd610583366004612866565b6001600160a01b039182166000908152606a6020908152604080832093909416825291909152205460ff1690565b3480156105bd57600080fd5b5061028c6105cc366004612695565b611221565b3480156105dd57600080fd5b5061028c6105ec366004612926565b611297565b60006001600160e01b0319821663780e9d6360e01b148061061657506106168261150b565b92915050565b60606065805461062b906129e7565b80601f0160208091040260200160405190810160405280929190818152602001828054610657906129e7565b80156106a45780601f10610679576101008083540402835291602001916106a4565b820191906000526020600020905b81548152906001019060200180831161068757829003601f168201915b5050505050905090565b60006106b98261155b565b506000908152606960205260409020546001600160a01b031690565b60006106e082610c9f565b9050806001600160a01b0316836001600160a01b0316036107525760405162461bcd60e51b815260206004820152602160248201527f4552433732313a20617070726f76616c20746f2063757272656e74206f776e656044820152603960f91b60648201526084015b60405180910390fd5b336001600160a01b038216148061076e575061076e8133610583565b6107e05760405162461bcd60e51b815260206004820152603d60248201527f4552433732313a20617070726f76652063616c6c6572206973206e6f7420746f60448201527f6b656e206f776e6572206f7220617070726f76656420666f7220616c6c0000006064820152608401610749565b6107ea83836115ba565b505050565b6107f7611628565b6000828152606760205260409020546001600160a01b031661086d5760405162461bcd60e51b815260206004820152602960248201527f736574546f6b656e5552493a2055524920736574206f66206e6f6e657869737460448201526832b73a103a37b5b2b760b91b6064820152608401610749565b6000828152610192602052604090206108868282612a6f565b5060405182907ff8e1a15aba9398e019f0b49df1a4fde98ee17ae345cb5f6b5e2c27f5033e8ce790600090a25050565b6108c03382611683565b6108dc5760405162461bcd60e51b815260040161074990612b2f565b6107ea838383611702565b60006108f283610cff565b82106109545760405162461bcd60e51b815260206004820152602b60248201527f455243373231456e756d657261626c653a206f776e657220696e646578206f7560448201526a74206f6620626f756e647360a81b6064820152608401610749565b506001600160a01b03919091166000908152609760209081526040808320938352929052205490565b6001600160a01b037f00000000000000000000000000000000000000000000000000000000000000001630036109c55760405162461bcd60e51b815260040161074990612b7c565b7f00000000000000000000000000000000000000000000000000000000000000006001600160a01b0316610a0e600080516020612dc2833981519152546001600160a01b031690565b6001600160a01b031614610a345760405162461bcd60e51b815260040161074990612bc8565b610a3d816118b8565b60408051600080825260208201909252610a59918391906118c0565b50565b610a64611628565b610a6c611a2b565b565b6107ea83838360405180602001604052806000815250610f00565b6001600160a01b037f0000000000000000000000000000000000000000000000000000000000000000163003610ad15760405162461bcd60e51b815260040161074990612b7c565b7f00000000000000000000000000000000000000000000000000000000000000006001600160a01b0316610b1a600080516020612dc2833981519152546001600160a01b031690565b6001600160a01b031614610b405760405162461bcd60e51b815260040161074990612bc8565b610b49826118b8565b610b55828260016118c0565b5050565b6000610b6460995490565b8210610bc75760405162461bcd60e51b815260206004820152602c60248201527f455243373231456e756d657261626c653a20676c6f62616c20696e646578206f60448201526b7574206f6620626f756e647360a01b6064820152608401610749565b60998281548110610bda57610bda612c14565b90600052602060002001549050919050565b6000306001600160a01b037f00000000000000000000000000000000000000000000000000000000000000001614610c8c5760405162461bcd60e51b815260206004820152603860248201527f555550535570677261646561626c653a206d757374206e6f742062652063616c60448201527f6c6564207468726f7567682064656c656761746563616c6c00000000000000006064820152608401610749565b50600080516020612dc283398151915290565b6000818152606760205260408120546001600160a01b0316806106165760405162461bcd60e51b8152602060048201526018602482015277115490cdcc8c4e881a5b9d985b1a59081d1bdad95b88125160421b6044820152606401610749565b60006001600160a01b038216610d695760405162461bcd60e51b815260206004820152602960248201527f4552433732313a2061646472657373207a65726f206973206e6f7420612076616044820152683634b21037bbb732b960b91b6064820152608401610749565b506001600160a01b031660009081526068602052604090205490565b610d8d611628565b610a6c6000611a7e565b610d9f611628565b610a6c611ad1565b600054610100900460ff1615808015610dc75750600054600160ff909116105b80610de15750303b158015610de1575060005460ff166001145b610e445760405162461bcd60e51b815260206004820152602e60248201527f496e697469616c697a61626c653a20636f6e747261637420697320616c72656160448201526d191e481a5b9a5d1a585b1a5e995960921b6064820152608401610749565b6000805460ff191660011790558015610e67576000805461ff0019166101001790555b610e6f611b0f565b610e798383611b36565b610e81611b0f565b610e89611b67565b610e9284611221565b610e9a611ad1565b8015610ee0576000805461ff0019169055604051600181527f7f26b83ff96e1f2b6a682f133852f6798a09c465da95921460cefb38474024989060200160405180910390a15b50505050565b60606066805461062b906129e7565b610b55338383611b96565b610f0a3383611683565b610f265760405162461bcd60e51b815260040161074990612b2f565b610ee084848484611c5c565b6000838152606760205260409020546001600160a01b0316610f965760405162461bcd60e51b815260206004820181905260248201527f73657441646d696e3a20746f6b656e496420646f6573206e6f742065786973746044820152606401610749565b33610fa084610c9f565b6001600160a01b031614610fef5760405162461bcd60e51b81526020600482015260166024820152751cd95d10591b5a5b8e881d5b985d5d1a1bdc9a5e995960521b6044820152606401610749565b6000838152610193602090815260408083206001600160a01b03861680855290835292819020805460ff1916851515908117909155905190815285917faa7637c88c63659176aa6f1b9bde1a03fd88751320e1d40898bdf1a8459071de91015b60405180910390a3505050565b60008181526101926020526040902080546060919061107a906129e7565b80601f01602080910402602001604051908101604052809291908181526020018280546110a6906129e7565b80156110f35780601f106110c8576101008083540402835291602001916110f3565b820191906000526020600020905b8154815290600101906020018083116110d657829003601f168201915b50505050509050919050565b600061111461012d546001600160a01b031690565b6001600160a01b0316336001600160a01b03161480611137575061015f5460ff16155b6111835760405162461bcd60e51b815260206004820152601a60248201527f6d696e743a20756e617574686f72697a656420746f206d696e740000000000006044820152606401610749565b61119261019180546001019055565b600061119e6101915490565b90506001600160a01b0384166111f65760405162461bcd60e51b815260206004820152601b60248201527f63616e6e6f74206d696e7420746f207a65726f206164647265737300000000006044820152606401610749565b6112008482611c8f565b6000818152610192602052604090206112198482612a6f565b509392505050565b611229611628565b6001600160a01b03811661128e5760405162461bcd60e51b815260206004820152602660248201527f4f776e61626c653a206e6577206f776e657220697320746865207a65726f206160448201526564647265737360d01b6064820152608401610749565b610a5981611a7e565b6000838152606760205260409020546001600160a01b031661130d5760405162461bcd60e51b815260206004820152602960248201527f7365744d756c7469706c6541646d696e733a20746f6b656e496420646f6573206044820152681b9bdd08195e1a5cdd60ba1b6064820152608401610749565b3361131784610c9f565b6001600160a01b03161461136d5760405162461bcd60e51b815260206004820152601f60248201527f7365744d756c7469706c6541646d696e733a20756e617574686f72697a6564006044820152606401610749565b80518251146113f45760405162461bcd60e51b815260206004820152604760248201527f7365744d756c7469706c6541646d696e733a2061646d696e7320616e6420697360448201527f41637469766520617272617973206d7573742068617665207468652073616d65606482015266040d8cadccee8d60cb1b608482015260a401610749565b60005b8251811015610ee05781818151811061141257611412612c14565b60200260200101516101936000868152602001908152602001600020600085848151811061144257611442612c14565b60200260200101516001600160a01b03166001600160a01b0316815260200190815260200160002060006101000a81548160ff02191690831515021790555082818151811061149357611493612c14565b60200260200101516001600160a01b0316847faa7637c88c63659176aa6f1b9bde1a03fd88751320e1d40898bdf1a8459071de8484815181106114d8576114d8612c14565b60200260200101516040516114f1911515815260200190565b60405180910390a38061150381612c40565b9150506113f7565b60006001600160e01b031982166380ac58cd60e01b148061153c57506001600160e01b03198216635b5e139f60e01b145b8061061657506301ffc9a760e01b6001600160e01b0319831614610616565b6000818152606760205260409020546001600160a01b0316610a595760405162461bcd60e51b8152602060048201526018602482015277115490cdcc8c4e881a5b9d985b1a59081d1bdad95b88125160421b6044820152606401610749565b600081815260696020526040902080546001600160a01b0319166001600160a01b03841690811790915581906115ef82610c9f565b6001600160a01b03167f8c5be1e5ebec7d5bd14f71427d1e84f3dd0314c0f7b2291e5b200ac8c7c3b92560405160405180910390a45050565b61012d546001600160a01b03163314610a6c5760405162461bcd60e51b815260206004820181905260248201527f4f776e61626c653a2063616c6c6572206973206e6f7420746865206f776e65726044820152606401610749565b60008061168f83610c9f565b9050806001600160a01b0316846001600160a01b031614806116d657506001600160a01b038082166000908152606a602090815260408083209388168352929052205460ff165b806116fa5750836001600160a01b03166116ef846106ae565b6001600160a01b0316145b949350505050565b826001600160a01b031661171582610c9f565b6001600160a01b0316146117795760405162461bcd60e51b815260206004820152602560248201527f4552433732313a207472616e736665722066726f6d20696e636f72726563742060448201526437bbb732b960d91b6064820152608401610749565b6001600160a01b0382166117db5760405162461bcd60e51b8152602060048201526024808201527f4552433732313a207472616e7366657220746f20746865207a65726f206164646044820152637265737360e01b6064820152608401610749565b6117e6838383611ddd565b600081815260696020908152604080832080546001600160a01b03191690556001600160a01b038616835260689091528120805460019290611829908490612c59565b90915550506001600160a01b0382166000908152606860205260408120805460019290611857908490612c6c565b909155505060008181526067602052604080822080546001600160a01b0319166001600160a01b0386811691821790925591518493918716917fddf252ad1be2c89b69c2b068fc378daa952ba7f163c4a11628f55a4df523b3ef91a4505050565b610a59611628565b7f4910fdfa16fed3260ed0e7147f7cc6da11a60208b5b9406d12a635614ffd91435460ff16156118f3576107ea83611e95565b826001600160a01b03166352d1902d6040518163ffffffff1660e01b8152600401602060405180830381865afa92505050801561194d575060408051601f3d908101601f1916820190925261194a91810190612c7f565b60015b6119b05760405162461bcd60e51b815260206004820152602e60248201527f45524331393637557067726164653a206e657720696d706c656d656e7461746960448201526d6f6e206973206e6f74205555505360901b6064820152608401610749565b600080516020612dc28339815191528114611a1f5760405162461bcd60e51b815260206004820152602960248201527f45524331393637557067726164653a20756e737570706f727465642070726f786044820152681a58589b195555525160ba1b6064820152608401610749565b506107ea838383611f31565b611a33611f56565b61015f805460ff191690557f5db9ee0a495bf2e6ff9c91a7834c1ba4fdd244a5e8aa4e537bd38aeae4b073aa335b6040516001600160a01b03909116815260200160405180910390a1565b61012d80546001600160a01b038381166001600160a01b0319831681179093556040519116919082907f8be0079c531659141344cd1fd0a4f28419497f9722a3daafe3b4186f6b6457e090600090a35050565b611ad9611fa0565b61015f805460ff191660011790557f62e78cea01bee320cd4e420270b5ea74000d11b0c9f74754ebdbfc544b05a258611a613390565b600054610100900460ff16610a6c5760405162461bcd60e51b815260040161074990612c98565b600054610100900460ff16611b5d5760405162461bcd60e51b815260040161074990612c98565b610b558282611fe7565b600054610100900460ff16611b8e5760405162461bcd60e51b815260040161074990612c98565b610a6c612027565b816001600160a01b0316836001600160a01b031603611bf75760405162461bcd60e51b815260206004820152601960248201527f4552433732313a20617070726f766520746f2063616c6c6572000000000000006044820152606401610749565b6001600160a01b038381166000818152606a6020908152604080832094871680845294825291829020805460ff191686151590811790915591519182527f17307eab39ab6107e8899845ad3d59bd9653f200f220920489ca2b5937696c31910161104f565b611c67848484611702565b611c7384848484612057565b610ee05760405162461bcd60e51b815260040161074990612ce3565b6001600160a01b038216611ce55760405162461bcd60e51b815260206004820181905260248201527f4552433732313a206d696e7420746f20746865207a65726f20616464726573736044820152606401610749565b6000818152606760205260409020546001600160a01b031615611d4a5760405162461bcd60e51b815260206004820152601c60248201527f4552433732313a20746f6b656e20616c7265616479206d696e746564000000006044820152606401610749565b611d5660008383611ddd565b6001600160a01b0382166000908152606860205260408120805460019290611d7f908490612c6c565b909155505060008181526067602052604080822080546001600160a01b0319166001600160a01b03861690811790915590518392907fddf252ad1be2c89b69c2b068fc378daa952ba7f163c4a11628f55a4df523b3ef908290a45050565b6001600160a01b038316611e3857611e3381609980546000838152609a60205260408120829055600182018355919091527f72a152ddfb8e864297c917af52ea6c1c68aead0fee1a62673fcc7e0c94979d000155565b611e5b565b816001600160a01b0316836001600160a01b031614611e5b57611e5b8382612158565b6001600160a01b038216611e72576107ea816121f5565b826001600160a01b0316826001600160a01b0316146107ea576107ea82826122a4565b6001600160a01b0381163b611f025760405162461bcd60e51b815260206004820152602d60248201527f455243313936373a206e657720696d706c656d656e746174696f6e206973206e60448201526c1bdd08184818dbdb9d1c9858dd609a1b6064820152608401610749565b600080516020612dc283398151915280546001600160a01b0319166001600160a01b0392909216919091179055565b611f3a836122e8565b600082511180611f475750805b156107ea57610ee08383612328565b61015f5460ff16610a6c5760405162461bcd60e51b815260206004820152601460248201527314185d5cd8589b194e881b9bdd081c185d5cd95960621b6044820152606401610749565b61015f5460ff1615610a6c5760405162461bcd60e51b815260206004820152601060248201526f14185d5cd8589b194e881c185d5cd95960821b6044820152606401610749565b600054610100900460ff1661200e5760405162461bcd60e51b815260040161074990612c98565b606561201a8382612a6f565b5060666107ea8282612a6f565b600054610100900460ff1661204e5760405162461bcd60e51b815260040161074990612c98565b610a6c33611a7e565b60006001600160a01b0384163b1561214d57604051630a85bd0160e11b81526001600160a01b0385169063150b7a029061209b903390899088908890600401612d35565b6020604051808303816000875af19250505080156120d6575060408051601f3d908101601f191682019092526120d391810190612d72565b60015b612133573d808015612104576040519150601f19603f3d011682016040523d82523d6000602084013e612109565b606091505b50805160000361212b5760405162461bcd60e51b815260040161074990612ce3565b805181602001fd5b6001600160e01b031916630a85bd0160e11b1490506116fa565b506001949350505050565b6000600161216584610cff565b61216f9190612c59565b6000838152609860205260409020549091508082146121c2576001600160a01b03841660009081526097602090815260408083208584528252808320548484528184208190558352609890915290208190555b5060009182526098602090815260408084208490556001600160a01b039094168352609781528383209183525290812055565b60995460009061220790600190612c59565b6000838152609a60205260408120546099805493945090928490811061222f5761222f612c14565b90600052602060002001549050806099838154811061225057612250612c14565b6000918252602080832090910192909255828152609a9091526040808220849055858252812055609980548061228857612288612d8f565b6001900381819060005260206000200160009055905550505050565b60006122af83610cff565b6001600160a01b039093166000908152609760209081526040808320868452825280832085905593825260989052919091209190915550565b6122f181611e95565b6040516001600160a01b038216907fbc7cd75a20ee27fd9adebab32041f755214dbc6bffa90cc0225b39da2e5c2d3b90600090a250565b60606001600160a01b0383163b6123905760405162461bcd60e51b815260206004820152602660248201527f416464726573733a2064656c65676174652063616c6c20746f206e6f6e2d636f6044820152651b9d1c9858dd60d21b6064820152608401610749565b600080846001600160a01b0316846040516123ab9190612da5565b600060405180830381855af49150503d80600081146123e6576040519150601f19603f3d011682016040523d82523d6000602084013e6123eb565b606091505b50915091506124138282604051806060016040528060278152602001612de26027913961241c565b95945050505050565b6060831561242b575081612435565b612435838361243c565b9392505050565b81511561244c5781518083602001fd5b8060405162461bcd60e51b815260040161074991906124e9565b6001600160e01b031981168114610a5957600080fd5b60006020828403121561248e57600080fd5b813561243581612466565b60005b838110156124b457818101518382015260200161249c565b50506000910152565b600081518084526124d5816020860160208601612499565b601f01601f19169290920160200192915050565b60208152600061243560208301846124bd565b60006020828403121561250e57600080fd5b5035919050565b80356001600160a01b038116811461252c57600080fd5b919050565b6000806040838503121561254457600080fd5b61254d83612515565b946020939093013593505050565b634e487b7160e01b600052604160045260246000fd5b604051601f8201601f1916810167ffffffffffffffff8111828210171561259a5761259a61255b565b604052919050565b600082601f8301126125b357600080fd5b813567ffffffffffffffff8111156125cd576125cd61255b565b6125e0601f8201601f1916602001612571565b8181528460208386010111156125f557600080fd5b816020850160208301376000918101602001919091529392505050565b6000806040838503121561262557600080fd5b82359150602083013567ffffffffffffffff81111561264357600080fd5b61264f858286016125a2565b9150509250929050565b60008060006060848603121561266e57600080fd5b61267784612515565b925061268560208501612515565b9150604084013590509250925092565b6000602082840312156126a757600080fd5b61243582612515565b600080604083850312156126c357600080fd5b6126cc83612515565b9150602083013567ffffffffffffffff81111561264357600080fd5b6000806000606084860312156126fd57600080fd5b61270684612515565b9250602084013567ffffffffffffffff8082111561272357600080fd5b61272f878388016125a2565b9350604086013591508082111561274557600080fd5b50612752868287016125a2565b9150509250925092565b8035801515811461252c57600080fd5b6000806040838503121561277f57600080fd5b61278883612515565b91506127966020840161275c565b90509250929050565b600080600080608085870312156127b557600080fd5b6127be85612515565b93506127cc60208601612515565b925060408501359150606085013567ffffffffffffffff8111156127ef57600080fd5b6127fb878288016125a2565b91505092959194509250565b60008060006060848603121561281c57600080fd5b8335925061282c60208501612515565b915061283a6040850161275c565b90509250925092565b6000806040838503121561285657600080fd5b8235915061279660208401612515565b6000806040838503121561287957600080fd5b61288283612515565b915061279660208401612515565b600067ffffffffffffffff8211156128aa576128aa61255b565b5060051b60200190565b600082601f8301126128c557600080fd5b813560206128da6128d583612890565b612571565b82815260059290921b840181019181810190868411156128f957600080fd5b8286015b8481101561291b5761290e8161275c565b83529183019183016128fd565b509695505050505050565b60008060006060848603121561293b57600080fd5b8335925060208085013567ffffffffffffffff8082111561295b57600080fd5b818701915087601f83011261296f57600080fd5b813561297d6128d582612890565b81815260059190911b8301840190848101908a83111561299c57600080fd5b938501935b828510156129c1576129b285612515565b825293850193908501906129a1565b9650505060408701359250808311156129d957600080fd5b5050612752868287016128b4565b600181811c908216806129fb57607f821691505b602082108103612a1b57634e487b7160e01b600052602260045260246000fd5b50919050565b601f8211156107ea57600081815260208120601f850160051c81016020861015612a485750805b601f850160051c820191505b81811015612a6757828155600101612a54565b505050505050565b815167ffffffffffffffff811115612a8957612a8961255b565b612a9d81612a9784546129e7565b84612a21565b602080601f831160018114612ad25760008415612aba5750858301515b600019600386901b1c1916600185901b178555612a67565b600085815260208120601f198616915b82811015612b0157888601518255948401946001909101908401612ae2565b5085821015612b1f5787850151600019600388901b60f8161c191681555b5050505050600190811b01905550565b6020808252602d908201527f4552433732313a2063616c6c6572206973206e6f7420746f6b656e206f776e6560408201526c1c881bdc88185c1c1c9bdd9959609a1b606082015260800190565b6020808252602c908201527f46756e6374696f6e206d7573742062652063616c6c6564207468726f7567682060408201526b19195b1959d85d1958d85b1b60a21b606082015260800190565b6020808252602c908201527f46756e6374696f6e206d7573742062652063616c6c6564207468726f7567682060408201526b6163746976652070726f787960a01b606082015260800190565b634e487b7160e01b600052603260045260246000fd5b634e487b7160e01b600052601160045260246000fd5b600060018201612c5257612c52612c2a565b5060010190565b8181038181111561061657610616612c2a565b8082018082111561061657610616612c2a565b600060208284031215612c9157600080fd5b5051919050565b6020808252602b908201527f496e697469616c697a61626c653a20636f6e7472616374206973206e6f74206960408201526a6e697469616c697a696e6760a81b606082015260800190565b60208082526032908201527f4552433732313a207472616e7366657220746f206e6f6e20455243373231526560408201527131b2b4bb32b91034b6b83632b6b2b73a32b960711b606082015260800190565b6001600160a01b0385811682528416602082015260408101839052608060608201819052600090612d68908301846124bd565b9695505050505050565b600060208284031215612d8457600080fd5b815161243581612466565b634e487b7160e01b600052603160045260246000fd5b60008251612db7818460208701612499565b919091019291505056fe360894a13ba1a3210667c828492db98dca3e2076cc3735a920a3ca505d382bbc416464726573733a206c6f772d6c6576656c2064656c65676174652063616c6c206661696c6564a264697066735822122011d27000837bd86de7ce8819ed8cf5bfe9cceb0f831a204f779874a65100c95764736f6c63430008100033",
    "linkReferences": {}
  },
  "methodIdentifiers": {
    "approve(address,uint256)": "095ea7b3",
    "balanceOf(address)": "70a08231",
    "getApproved(uint256)": "081812fc",
    "initialize(address,string,string)": "90657147",
    "isAdminActive(uint256,address)": "e060fb76",
    "isApprovedForAll(address,address)": "e985e9c5",
    "mint(address,string)": "d0def521",
    "name()": "06fdde03",
    "owner()": "8da5cb5b",
    "ownerOf(uint256)": "6352211e",
    "pause()": "8456cb59",
    "paused()": "5c975abb",
    "proxiableUUID()": "52d1902d",
    "renounceOwnership()": "715018a6",
    "safeTransferFrom(address,address,uint256)": "42842e0e",
    "safeTransferFrom(address,address,uint256,bytes)": "b88d4fde",
    "setAdmin(uint256,address,bool)": "c47c946c",
    "setApprovalForAll(address,bool)": "a22cb465",
    "setMultipleAdmins(uint256,address[],bool[])": "f65066fe",
    "setTokenURI(uint256,string)": "162094c4",
    "supportsInterface(bytes4)": "01ffc9a7",
    "symbol()": "95d89b41",
    "tokenByIndex(uint256)": "4f6ccce7",
    "tokenOfOwnerByIndex(address,uint256)": "2f745c59",
    "tokenURI(uint256)": "c87b56dd",
    "totalSupply()": "18160ddd",
    "transferFrom(address,address,uint256)": "23b872dd",
    "transferOwnership(address)": "f2fde38b",
    "unpause()": "3f4ba83a",
    "upgradeTo(address)": "3659cfe6",
    "upgradeToAndCall(address,bytes)": "4f1ef286"
  },
  "id": 48
}