{
  "abi": [
    {
      "inputs": [],
      "stateMutability": "nonpayable",
      "type": "constructor"
    },
    {
      "anonymous": false,
      "inputs": [
        {
          "indexed": false,
          "internalType": "address",
          "name": "previousAdmin",
          "type": "address"
        },
        {
          "indexed": false,
          "internalType": "address",
          "name": "newAdmin",
          "type": "address"
        }
      ],
      "name": "AdminChanged",
      "type": "event"
    },
    {
      "anonymous": false,
      "inputs": [
        {
          "indexed": true,
          "internalType": "uint256",
          "name": "tokenId",
          "type": "uint256"
        },
        {
          "indexed": true,
          "internalType": "address",
          "name": "admin",
          "type": "address"
        },
        {
          "indexed": false,
          "internalType": "bool",
          "name": "isAdded",
          "type": "bool"
        }
      ],
      "name": "AdminUpdate",
      "type": "event"
    },
    {
      "anonymous": false,
      "inputs": [
        {
          "indexed": true,
          "internalType": "address",
          "name": "owner",
          "type": "address"
        },
        {
          "indexed": true,
          "internalType": "address",
          "name": "approved",
          "type": "address"
        },
        {
          "indexed": true,
          "internalType": "uint256",
          "name": "tokenId",
          "type": "uint256"
        }
      ],
      "name": "Approval",
      "type": "event"
    },
    {
      "anonymous": false,
      "inputs": [
        {
          "indexed": true,
          "internalType": "address",
          "name": "owner",
          "type": "address"
        },
        {
          "indexed": true,
          "internalType": "address",
          "name": "operator",
          "type": "address"
        },
        {
          "indexed": false,
          "internalType": "bool",
          "name": "approved",
          "type": "bool"
        }
      ],
      "name": "ApprovalForAll",
      "type": "event"
    },
    {
      "anonymous": false,
      "inputs": [
        {
          "indexed": true,
          "internalType": "address",
          "name": "beacon",
          "type": "address"
        }
      ],
      "name": "BeaconUpgraded",
      "type": "event"
    },
    {
      "anonymous": false,
      "inputs": [
        {
          "indexed": false,
          "internalType": "uint8",
          "name": "version",
          "type": "uint8"
        }
      ],
      "name": "Initialized",
      "type": "event"
    },
    {
      "anonymous": false,
      "inputs": [
        {
          "indexed": true,
          "internalType": "uint256",
          "name": "tokenId",
          "type": "uint256"
        }
      ],
      "name": "MetadataUpdate",
      "type": "event"
    },
    {
      "anonymous": false,
      "inputs": [
        {
          "indexed": true,
          "internalType": "address",
          "name": "previousOwner",
          "type": "address"
        },
        {
          "indexed": true,
          "internalType": "address",
          "name": "newOwner",
          "type": "address"
        }
      ],
      "name": "OwnershipTransferred",
      "type": "event"
    },
    {
      "anonymous": false,
      "inputs": [
        {
          "indexed": false,
          "internalType": "address",
          "name": "account",
          "type": "address"
        }
      ],
      "name": "Paused",
      "type": "event"
    },
    {
      "anonymous": false,
      "inputs": [
        {
          "indexed": true,
          "internalType": "address",
          "name": "from",
          "type": "address"
        },
        {
          "indexed": true,
          "internalType": "address",
          "name": "to",
          "type": "address"
        },
        {
          "indexed": true,
          "internalType": "uint256",
          "name": "tokenId",
          "type": "uint256"
        }
      ],
      "name": "Transfer",
      "type": "event"
    },
    {
      "anonymous": false,
      "inputs": [
        {
          "indexed": false,
          "internalType": "address",
          "name": "account",
          "type": "address"
        }
      ],
      "name": "Unpaused",
      "type": "event"
    },
    {
      "anonymous": false,
      "inputs": [
        {
          "indexed": true,
          "internalType": "address",
          "name": "implementation",
          "type": "address"
        }
      ],
      "name": "Upgraded",
      "type": "event"
    },
    {
      "inputs": [
        {
          "internalType": "address",
          "name": "to",
          "type": "address"
        },
        {
          "internalType": "uint256",
          "name": "tokenId",
          "type": "uint256"
        }
      ],
      "name": "approve",
      "outputs": [],
      "stateMutability": "nonpayable",
      "type": "function"
    },
    {
      "inputs": [
        {
          "internalType": "address",
          "name": "owner",
          "type": "address"
        }
      ],
      "name": "balanceOf",
      "outputs": [
        {
          "internalType": "uint256",
          "name": "",
          "type": "uint256"
        }
      ],
      "stateMutability": "view",
      "type": "function"
    },
    {
      "inputs": [
        {
          "internalType": "uint256",
          "name": "tokenId",
          "type": "uint256"
        }
      ],
      "name": "getApproved",
      "outputs": [
        {
          "internalType": "address",
          "name": "",
          "type": "address"
        }
      ],
      "stateMutability": "view",
      "type": "function"
    },
    {
      "inputs": [
        {
          "internalType": "address",
          "name": "nextOwner",
          "type": "address"
        },
        {
          "internalType": "string",
          "name": "name_",
          "type": "string"
        },
        {
          "internalType": "string",
          "name": "symbol_",
          "type": "string"
        }
      ],
      "name": "initialize",
      "outputs": [],
      "stateMutability": "nonpayable",
      "type": "function"
    },
    {
      "inputs": [
        {
          "internalType": "uint256",
          "name": "tokenId",
          "type": "uint256"
        },
        {
          "internalType": "address",
          "name": "admin",
          "type": "address"
        }
      ],
      "name": "isAdminActive",
      "outputs": [
        {
          "internalType": "bool",
          "name": "",
          "type": "bool"
        }
      ],
      "stateMutability": "view",
      "type": "function"
    },
    {
      "inputs": [
        {
          "internalType": "address",
          "name": "owner",
          "type": "address"
        },
        {
          "internalType": "address",
          "name": "operator",
          "type": "address"
        }
      ],
      "name": "isApprovedForAll",
      "outputs": [
        {
          "internalType": "bool",
          "name": "",
          "type": "bool"
        }
      ],
      "stateMutability": "view",
      "type": "function"
    },
    {
      "inputs": [
        {
          "internalType": "address",
          "name": "recipient",
          "type": "address"
        },
        {
          "internalType": "string",
          "name": "uri",
          "type": "string"
        }
      ],
      "name": "mint",
      "outputs": [
        {
          "internalType": "uint256",
          "name": "",
          "type": "uint256"
        }
      ],
      "stateMutability": "nonpayable",
      "type": "function"
    },
    {
      "inputs": [],
      "name": "name",
      "outputs": [
        {
          "internalType": "string",
          "name": "",
          "type": "string"
        }
      ],
      "stateMutability": "view",
      "type": "function"
    },
    {
      "inputs": [],
      "name": "owner",
      "outputs": [
        {
          "internalType": "address",
          "name": "",
          "type": "address"
        }
      ],
      "stateMutability": "view",
      "type": "function"
    },
    {
      "inputs": [
        {
          "internalType": "uint256",
          "name": "tokenId",
          "type": "uint256"
        }
      ],
      "name": "ownerOf",
      "outputs": [
        {
          "internalType": "address",
          "name": "",
          "type": "address"
        }
      ],
      "stateMutability": "view",
      "type": "function"
    },
    {
      "inputs": [],
      "name": "pause",
      "outputs": [],
      "stateMutability": "nonpayable",
      "type": "function"
    },
    {
      "inputs": [],
      "name": "paused",
      "outputs": [
        {
          "internalType": "bool",
          "name": "",
          "type": "bool"
        }
      ],
      "stateMutability": "view",
      "type": "function"
    },
    {
      "inputs": [],
      "name": "proxiableUUID",
      "outputs": [
        {
          "internalType": "bytes32",
          "name": "",
          "type": "bytes32"
        }
      ],
      "stateMutability": "view",
      "type": "function"
    },
    {
      "inputs": [],
      "name": "renounceOwnership",
      "outputs": [],
      "stateMutability": "nonpayable",
      "type": "function"
    },
    {
      "inputs": [
        {
          "internalType": "address",
          "name": "from",
          "type": "address"
        },
        {
          "internalType": "address",
          "name": "to",
          "type": "address"
        },
        {
          "internalType": "uint256",
          "name": "tokenId",
          "type": "uint256"
        }
      ],
      "name": "safeTransferFrom",
      "outputs": [],
      "stateMutability": "nonpayable",
      "type": "function"
    },
    {
      "inputs": [
        {
          "internalType": "address",
          "name": "from",
          "type": "address"
        },
        {
          "internalType": "address",
          "name": "to",
          "type": "address"
        },
        {
          "internalType": "uint256",
          "name": "tokenId",
          "type": "uint256"
        },
        {
          "internalType": "bytes",
          "name": "data",
          "type": "bytes"
        }
      ],
      "name": "safeTransferFrom",
      "outputs": [],
      "stateMutability": "nonpayable",
      "type": "function"
    },
    {
      "inputs": [
        {
          "internalType": "uint256",
          "name": "tokenId",
          "type": "uint256"
        },
        {
          "internalType": "address[]",
          "name": "admins",
          "type": "address[]"
        },
        {
          "internalType": "bool[]",
          "name": "isActive",
          "type": "bool[]"
        }
      ],
      "name": "setAdmins",
      "outputs": [],
      "stateMutability": "nonpayable",
      "type": "function"
    },
    {
      "inputs": [
        {
          "internalType": "address",
          "name": "operator",
          "type": "address"
        },
        {
          "internalType": "bool",
          "name": "approved",
          "type": "bool"
        }
      ],
      "name": "setApprovalForAll",
      "outputs": [],
      "stateMutability": "nonpayable",
      "type": "function"
    },
    {
      "inputs": [
        {
          "internalType": "uint256",
          "name": "tokenId",
          "type": "uint256"
        },
        {
          "internalType": "string",
          "name": "uri",
          "type": "string"
        }
      ],
      "name": "setTokenURI",
      "outputs": [],
      "stateMutability": "nonpayable",
      "type": "function"
    },
    {
      "inputs": [
        {
          "internalType": "bytes4",
          "name": "interfaceId",
          "type": "bytes4"
        }
      ],
      "name": "supportsInterface",
      "outputs": [
        {
          "internalType": "bool",
          "name": "",
          "type": "bool"
        }
      ],
      "stateMutability": "view",
      "type": "function"
    },
    {
      "inputs": [],
      "name": "symbol",
      "outputs": [
        {
          "internalType": "string",
          "name": "",
          "type": "string"
        }
      ],
      "stateMutability": "view",
      "type": "function"
    },
    {
      "inputs": [
        {
          "internalType": "uint256",
          "name": "index",
          "type": "uint256"
        }
      ],
      "name": "tokenByIndex",
      "outputs": [
        {
          "internalType": "uint256",
          "name": "",
          "type": "uint256"
        }
      ],
      "stateMutability": "view",
      "type": "function"
    },
    {
      "inputs": [
        {
          "internalType": "address",
          "name": "owner",
          "type": "address"
        },
        {
          "internalType": "uint256",
          "name": "index",
          "type": "uint256"
        }
      ],
      "name": "tokenOfOwnerByIndex",
      "outputs": [
        {
          "internalType": "uint256",
          "name": "",
          "type": "uint256"
        }
      ],
      "stateMutability": "view",
      "type": "function"
    },
    {
      "inputs": [
        {
          "internalType": "uint256",
          "name": "tokenId",
          "type": "uint256"
        }
      ],
      "name": "tokenURI",
      "outputs": [
        {
          "internalType": "string",
          "name": "",
          "type": "string"
        }
      ],
      "stateMutability": "view",
      "type": "function"
    },
    {
      "inputs": [],
      "name": "totalSupply",
      "outputs": [
        {
          "internalType": "uint256",
          "name": "",
          "type": "uint256"
        }
      ],
      "stateMutability": "view",
      "type": "function"
    },
    {
      "inputs": [
        {
          "internalType": "address",
          "name": "from",
          "type": "address"
        },
        {
          "internalType": "address",
          "name": "to",
          "type": "address"
        },
        {
          "internalType": "uint256",
          "name": "tokenId",
          "type": "uint256"
        }
      ],
      "name": "transferFrom",
      "outputs": [],
      "stateMutability": "nonpayable",
      "type": "function"
    },
    {
      "inputs": [
        {
          "internalType": "address",
          "name": "newOwner",
          "type": "address"
        }
      ],
      "name": "transferOwnership",
      "outputs": [],
      "stateMutability": "nonpayable",
      "type": "function"
    },
    {
      "inputs": [],
      "name": "unpause",
      "outputs": [],
      "stateMutability": "nonpayable",
      "type": "function"
    },
    {
      "inputs": [
        {
          "internalType": "address",
          "name": "newImplementation",
          "type": "address"
        }
      ],
      "name": "upgradeTo",
      "outputs": [],
      "stateMutability": "nonpayable",
      "type": "function"
    },
    {
      "inputs": [
        {
          "internalType": "address",
          "name": "newImplementation",
          "type": "address"
        },
        {
          "internalType": "bytes",
          "name": "data",
          "type": "bytes"
        }
      ],
      "name": "upgradeToAndCall",
      "outputs": [],
      "stateMutability": "payable",
      "type": "function"
    }
  ],
  "bytecode": {
    "object": "0x60a0604052306080523480156200001557600080fd5b506200002062000026565b620000e8565b600054610100900460ff1615620000935760405162461bcd60e51b815260206004820152602760248201527f496e697469616c697a61626c653a20636f6e747261637420697320696e697469604482015266616c697a696e6760c81b606482015260840160405180910390fd5b60005460ff9081161015620000e6576000805460ff191660ff9081179091556040519081527f7f26b83ff96e1f2b6a682f133852f6798a09c465da95921460cefb38474024989060200160405180910390a15b565b608051612cf96200012060003960008181610c1501528181610c5501528181610d2101528181610d610152610e870152612cf96000f3fe6080604052600436106101cd5760003560e01c80635c975abb116100f757806395d89b4111610095578063d0def52111610064578063d0def521146104f6578063e060fb7614610516578063e985e9c51461055d578063f2fde38b146105a657600080fd5b806395d89b4114610481578063a22cb46514610496578063b88d4fde146104b6578063c87b56dd146104d657600080fd5b8063715018a6116100d1578063715018a6146104185780638456cb591461042d5780638da5cb5b14610442578063906571471461046157600080fd5b80635c975abb146103bf5780636352211e146103d857806370a08231146103f857600080fd5b80632f745c591161016f57806342842e0e1161013e57806342842e0e146103575780634f1ef286146103775780634f6ccce71461038a57806352d1902d146103aa57600080fd5b80632f745c59146102e2578063322b2e26146103025780633659cfe6146103225780633f4ba83a1461034257600080fd5b8063095ea7b3116101ab578063095ea7b314610261578063162094c41461028357806318160ddd146102a357806323b872dd146102c257600080fd5b806301ffc9a7146101d257806306fdde0314610207578063081812fc14610229575b600080fd5b3480156101de57600080fd5b506101f26101ed366004612373565b6105c6565b60405190151581526020015b60405180910390f35b34801561021357600080fd5b5061021c6105f1565b6040516101fe91906123e0565b34801561023557600080fd5b506102496102443660046123f3565b610683565b6040516001600160a01b0390911681526020016101fe565b34801561026d57600080fd5b5061028161027c366004612428565b6106aa565b005b34801561028f57600080fd5b5061028161029e366004612509565b6107c4565b3480156102af57600080fd5b506099545b6040519081526020016101fe565b3480156102ce57600080fd5b506102816102dd366004612550565b61088b565b3480156102ee57600080fd5b506102b46102fd366004612428565b6108bc565b34801561030e57600080fd5b5061028161031d366004612632565b610952565b34801561032e57600080fd5b5061028161033d3660046126fd565b610c0b565b34801561034e57600080fd5b50610281610cea565b34801561036357600080fd5b50610281610372366004612550565b610cfc565b610281610385366004612718565b610d17565b34801561039657600080fd5b506102b46103a53660046123f3565b610de7565b3480156103b657600080fd5b506102b4610e7a565b3480156103cb57600080fd5b5061015f5460ff166101f2565b3480156103e457600080fd5b506102496103f33660046123f3565b610f2d565b34801561040457600080fd5b506102b46104133660046126fd565b610f8d565b34801561042457600080fd5b50610281611013565b34801561043957600080fd5b50610281611025565b34801561044e57600080fd5b5061012d546001600160a01b0316610249565b34801561046d57600080fd5b5061028161047c366004612750565b611035565b34801561048d57600080fd5b5061021c611173565b3480156104a257600080fd5b506102816104b13660046127ba565b611182565b3480156104c257600080fd5b506102816104d13660046127ed565b61118d565b3480156104e257600080fd5b5061021c6104f13660046123f3565b6111bf565b34801561050257600080fd5b506102b4610511366004612718565b611262565b34801561052257600080fd5b506101f2610531366004612855565b6000918252610193602090815260408084206001600160a01b0393909316845291905290205460ff1690565b34801561056957600080fd5b506101f2610578366004612878565b6001600160a01b039182166000908152606a6020908152604080832093909416825291909152205460ff1690565b3480156105b257600080fd5b506102816105c13660046126fd565b611384565b60006001600160e01b0319821663780e9d6360e01b14806105eb57506105eb826113fa565b92915050565b606060658054610600906128a2565b80601f016020809104026020016040519081016040528092919081815260200182805461062c906128a2565b80156106795780601f1061064e57610100808354040283529160200191610679565b820191906000526020600020905b81548152906001019060200180831161065c57829003601f168201915b5050505050905090565b600061068e8261144a565b506000908152606960205260409020546001600160a01b031690565b60006106b582610f2d565b9050806001600160a01b0316836001600160a01b0316036107275760405162461bcd60e51b815260206004820152602160248201527f4552433732313a20617070726f76616c20746f2063757272656e74206f776e656044820152603960f91b60648201526084015b60405180910390fd5b336001600160a01b038216148061074357506107438133610578565b6107b55760405162461bcd60e51b815260206004820152603d60248201527f4552433732313a20617070726f76652063616c6c6572206973206e6f7420746f60448201527f6b656e206f776e6572206f7220617070726f76656420666f7220616c6c000000606482015260840161071e565b6107bf83836114a9565b505050565b6107cc611517565b6000828152606760205260409020546001600160a01b03166108425760405162461bcd60e51b815260206004820152602960248201527f736574546f6b656e5552493a2055524920736574206f66206e6f6e657869737460448201526832b73a103a37b5b2b760b91b606482015260840161071e565b60008281526101926020526040902061085b828261292a565b5060405182907ff8e1a15aba9398e019f0b49df1a4fde98ee17ae345cb5f6b5e2c27f5033e8ce790600090a25050565b6108953382611572565b6108b15760405162461bcd60e51b815260040161071e906129ea565b6107bf8383836115f1565b60006108c783610f8d565b82106109295760405162461bcd60e51b815260206004820152602b60248201527f455243373231456e756d657261626c653a206f776e657220696e646578206f7560448201526a74206f6620626f756e647360a81b606482015260840161071e565b506001600160a01b03919091166000908152609760209081526040808320938352929052205490565b60008251118015610964575060008151115b6109b05760405162461bcd60e51b815260206004820152601860248201527f73657441646d696e733a20696e76616c696420696e7075740000000000000000604482015260640161071e565b8051825114610a205760405162461bcd60e51b815260206004820152603660248201527f73657441646d696e733a2061646d696e7320616e64206973416374697665206d6044820152750eae6e840c4ca40e8d0ca40e6c2daca40d8cadccee8d60531b606482015260840161071e565b6000838152606760205260409020546001600160a01b0316610a8e5760405162461bcd60e51b815260206004820152602160248201527f73657441646d696e733a20746f6b656e496420646f6573206e6f7420657869736044820152601d60fa1b606482015260840161071e565b33610a9884610f2d565b6001600160a01b031614610aee5760405162461bcd60e51b815260206004820152601760248201527f73657441646d696e733a20756e617574686f72697a6564000000000000000000604482015260640161071e565b60005b8251811015610c0557818181518110610b0c57610b0c612a37565b602002602001015161019360008681526020019081526020016000206000858481518110610b3c57610b3c612a37565b60200260200101516001600160a01b03166001600160a01b0316815260200190815260200160002060006101000a81548160ff021916908315150217905550828181518110610b8d57610b8d612a37565b60200260200101516001600160a01b0316847faa7637c88c63659176aa6f1b9bde1a03fd88751320e1d40898bdf1a8459071de848481518110610bd257610bd2612a37565b6020026020010151604051610beb911515815260200190565b60405180910390a380610bfd81612a63565b915050610af1565b50505050565b6001600160a01b037f0000000000000000000000000000000000000000000000000000000000000000163003610c535760405162461bcd60e51b815260040161071e90612a7c565b7f00000000000000000000000000000000000000000000000000000000000000006001600160a01b0316610c9c600080516020612c7d833981519152546001600160a01b031690565b6001600160a01b031614610cc25760405162461bcd60e51b815260040161071e90612ac8565b610ccb816117a7565b60408051600080825260208201909252610ce7918391906117af565b50565b610cf2611517565b610cfa61191a565b565b6107bf8383836040518060200160405280600081525061118d565b6001600160a01b037f0000000000000000000000000000000000000000000000000000000000000000163003610d5f5760405162461bcd60e51b815260040161071e90612a7c565b7f00000000000000000000000000000000000000000000000000000000000000006001600160a01b0316610da8600080516020612c7d833981519152546001600160a01b031690565b6001600160a01b031614610dce5760405162461bcd60e51b815260040161071e90612ac8565b610dd7826117a7565b610de3828260016117af565b5050565b6000610df260995490565b8210610e555760405162461bcd60e51b815260206004820152602c60248201527f455243373231456e756d657261626c653a20676c6f62616c20696e646578206f60448201526b7574206f6620626f756e647360a01b606482015260840161071e565b60998281548110610e6857610e68612a37565b90600052602060002001549050919050565b6000306001600160a01b037f00000000000000000000000000000000000000000000000000000000000000001614610f1a5760405162461bcd60e51b815260206004820152603860248201527f555550535570677261646561626c653a206d757374206e6f742062652063616c60448201527f6c6564207468726f7567682064656c656761746563616c6c0000000000000000606482015260840161071e565b50600080516020612c7d83398151915290565b6000818152606760205260408120546001600160a01b0316806105eb5760405162461bcd60e51b8152602060048201526018602482015277115490cdcc8c4e881a5b9d985b1a59081d1bdad95b88125160421b604482015260640161071e565b60006001600160a01b038216610ff75760405162461bcd60e51b815260206004820152602960248201527f4552433732313a2061646472657373207a65726f206973206e6f7420612076616044820152683634b21037bbb732b960b91b606482015260840161071e565b506001600160a01b031660009081526068602052604090205490565b61101b611517565b610cfa600061196d565b61102d611517565b610cfa6119c0565b600054610100900460ff16158080156110555750600054600160ff909116105b8061106f5750303b15801561106f575060005460ff166001145b6110d25760405162461bcd60e51b815260206004820152602e60248201527f496e697469616c697a61626c653a20636f6e747261637420697320616c72656160448201526d191e481a5b9a5d1a585b1a5e995960921b606482015260840161071e565b6000805460ff1916600117905580156110f5576000805461ff0019166101001790555b6110fd6119fe565b6111078383611a25565b61110f6119fe565b611117611a56565b61112084611384565b6111286119c0565b8015610c05576000805461ff0019169055604051600181527f7f26b83ff96e1f2b6a682f133852f6798a09c465da95921460cefb38474024989060200160405180910390a150505050565b606060668054610600906128a2565b610de3338383611a85565b6111973383611572565b6111b35760405162461bcd60e51b815260040161071e906129ea565b610c0584848484611b53565b6000818152610192602052604090208054606091906111dd906128a2565b80601f0160208091040260200160405190810160405280929190818152602001828054611209906128a2565b80156112565780601f1061122b57610100808354040283529160200191611256565b820191906000526020600020905b81548152906001019060200180831161123957829003601f168201915b50505050509050919050565b600061127761012d546001600160a01b031690565b6001600160a01b0316336001600160a01b0316148061129a575061015f5460ff16155b6112e65760405162461bcd60e51b815260206004820152601a60248201527f6d696e743a20756e617574686f72697a656420746f206d696e74000000000000604482015260640161071e565b6112f561019180546001019055565b60006113016101915490565b90506001600160a01b0384166113595760405162461bcd60e51b815260206004820152601b60248201527f63616e6e6f74206d696e7420746f207a65726f20616464726573730000000000604482015260640161071e565b6113638482611b86565b60008181526101926020526040902061137c848261292a565b509392505050565b61138c611517565b6001600160a01b0381166113f15760405162461bcd60e51b815260206004820152602660248201527f4f776e61626c653a206e6577206f776e657220697320746865207a65726f206160448201526564647265737360d01b606482015260840161071e565b610ce78161196d565b60006001600160e01b031982166380ac58cd60e01b148061142b57506001600160e01b03198216635b5e139f60e01b145b806105eb57506301ffc9a760e01b6001600160e01b03198316146105eb565b6000818152606760205260409020546001600160a01b0316610ce75760405162461bcd60e51b8152602060048201526018602482015277115490cdcc8c4e881a5b9d985b1a59081d1bdad95b88125160421b604482015260640161071e565b600081815260696020526040902080546001600160a01b0319166001600160a01b03841690811790915581906114de82610f2d565b6001600160a01b03167f8c5be1e5ebec7d5bd14f71427d1e84f3dd0314c0f7b2291e5b200ac8c7c3b92560405160405180910390a45050565b61012d546001600160a01b03163314610cfa5760405162461bcd60e51b815260206004820181905260248201527f4f776e61626c653a2063616c6c6572206973206e6f7420746865206f776e6572604482015260640161071e565b60008061157e83610f2d565b9050806001600160a01b0316846001600160a01b031614806115c557506001600160a01b038082166000908152606a602090815260408083209388168352929052205460ff165b806115e95750836001600160a01b03166115de84610683565b6001600160a01b0316145b949350505050565b826001600160a01b031661160482610f2d565b6001600160a01b0316146116685760405162461bcd60e51b815260206004820152602560248201527f4552433732313a207472616e736665722066726f6d20696e636f72726563742060448201526437bbb732b960d91b606482015260840161071e565b6001600160a01b0382166116ca5760405162461bcd60e51b8152602060048201526024808201527f4552433732313a207472616e7366657220746f20746865207a65726f206164646044820152637265737360e01b606482015260840161071e565b6116d5838383611cd4565b600081815260696020908152604080832080546001600160a01b03191690556001600160a01b038616835260689091528120805460019290611718908490612b14565b90915550506001600160a01b0382166000908152606860205260408120805460019290611746908490612b27565b909155505060008181526067602052604080822080546001600160a01b0319166001600160a01b0386811691821790925591518493918716917fddf252ad1be2c89b69c2b068fc378daa952ba7f163c4a11628f55a4df523b3ef91a4505050565b610ce7611517565b7f4910fdfa16fed3260ed0e7147f7cc6da11a60208b5b9406d12a635614ffd91435460ff16156117e2576107bf83611d8c565b826001600160a01b03166352d1902d6040518163ffffffff1660e01b8152600401602060405180830381865afa92505050801561183c575060408051601f3d908101601f1916820190925261183991810190612b3a565b60015b61189f5760405162461bcd60e51b815260206004820152602e60248201527f45524331393637557067726164653a206e657720696d706c656d656e7461746960448201526d6f6e206973206e6f74205555505360901b606482015260840161071e565b600080516020612c7d833981519152811461190e5760405162461bcd60e51b815260206004820152602960248201527f45524331393637557067726164653a20756e737570706f727465642070726f786044820152681a58589b195555525160ba1b606482015260840161071e565b506107bf838383611e28565b611922611e4d565b61015f805460ff191690557f5db9ee0a495bf2e6ff9c91a7834c1ba4fdd244a5e8aa4e537bd38aeae4b073aa335b6040516001600160a01b03909116815260200160405180910390a1565b61012d80546001600160a01b038381166001600160a01b0319831681179093556040519116919082907f8be0079c531659141344cd1fd0a4f28419497f9722a3daafe3b4186f6b6457e090600090a35050565b6119c8611e97565b61015f805460ff191660011790557f62e78cea01bee320cd4e420270b5ea74000d11b0c9f74754ebdbfc544b05a2586119503390565b600054610100900460ff16610cfa5760405162461bcd60e51b815260040161071e90612b53565b600054610100900460ff16611a4c5760405162461bcd60e51b815260040161071e90612b53565b610de38282611ede565b600054610100900460ff16611a7d5760405162461bcd60e51b815260040161071e90612b53565b610cfa611f1e565b816001600160a01b0316836001600160a01b031603611ae65760405162461bcd60e51b815260206004820152601960248201527f4552433732313a20617070726f766520746f2063616c6c657200000000000000604482015260640161071e565b6001600160a01b038381166000818152606a6020908152604080832094871680845294825291829020805460ff191686151590811790915591519182527f17307eab39ab6107e8899845ad3d59bd9653f200f220920489ca2b5937696c31910160405180910390a3505050565b611b5e8484846115f1565b611b6a84848484611f4e565b610c055760405162461bcd60e51b815260040161071e90612b9e565b6001600160a01b038216611bdc5760405162461bcd60e51b815260206004820181905260248201527f4552433732313a206d696e7420746f20746865207a65726f2061646472657373604482015260640161071e565b6000818152606760205260409020546001600160a01b031615611c415760405162461bcd60e51b815260206004820152601c60248201527f4552433732313a20746f6b656e20616c7265616479206d696e74656400000000604482015260640161071e565b611c4d60008383611cd4565b6001600160a01b0382166000908152606860205260408120805460019290611c76908490612b27565b909155505060008181526067602052604080822080546001600160a01b0319166001600160a01b03861690811790915590518392907fddf252ad1be2c89b69c2b068fc378daa952ba7f163c4a11628f55a4df523b3ef908290a45050565b6001600160a01b038316611d2f57611d2a81609980546000838152609a60205260408120829055600182018355919091527f72a152ddfb8e864297c917af52ea6c1c68aead0fee1a62673fcc7e0c94979d000155565b611d52565b816001600160a01b0316836001600160a01b031614611d5257611d52838261204f565b6001600160a01b038216611d69576107bf816120ec565b826001600160a01b0316826001600160a01b0316146107bf576107bf828261219b565b6001600160a01b0381163b611df95760405162461bcd60e51b815260206004820152602d60248201527f455243313936373a206e657720696d706c656d656e746174696f6e206973206e60448201526c1bdd08184818dbdb9d1c9858dd609a1b606482015260840161071e565b600080516020612c7d83398151915280546001600160a01b0319166001600160a01b0392909216919091179055565b611e31836121df565b600082511180611e3e5750805b156107bf57610c05838361221f565b61015f5460ff16610cfa5760405162461bcd60e51b815260206004820152601460248201527314185d5cd8589b194e881b9bdd081c185d5cd95960621b604482015260640161071e565b61015f5460ff1615610cfa5760405162461bcd60e51b815260206004820152601060248201526f14185d5cd8589b194e881c185d5cd95960821b604482015260640161071e565b600054610100900460ff16611f055760405162461bcd60e51b815260040161071e90612b53565b6065611f11838261292a565b5060666107bf828261292a565b600054610100900460ff16611f455760405162461bcd60e51b815260040161071e90612b53565b610cfa3361196d565b60006001600160a01b0384163b1561204457604051630a85bd0160e11b81526001600160a01b0385169063150b7a0290611f92903390899088908890600401612bf0565b6020604051808303816000875af1925050508015611fcd575060408051601f3d908101601f19168201909252611fca91810190612c2d565b60015b61202a573d808015611ffb576040519150601f19603f3d011682016040523d82523d6000602084013e612000565b606091505b5080516000036120225760405162461bcd60e51b815260040161071e90612b9e565b805181602001fd5b6001600160e01b031916630a85bd0160e11b1490506115e9565b506001949350505050565b6000600161205c84610f8d565b6120669190612b14565b6000838152609860205260409020549091508082146120b9576001600160a01b03841660009081526097602090815260408083208584528252808320548484528184208190558352609890915290208190555b5060009182526098602090815260408084208490556001600160a01b039094168352609781528383209183525290812055565b6099546000906120fe90600190612b14565b6000838152609a60205260408120546099805493945090928490811061212657612126612a37565b90600052602060002001549050806099838154811061214757612147612a37565b6000918252602080832090910192909255828152609a9091526040808220849055858252812055609980548061217f5761217f612c4a565b6001900381819060005260206000200160009055905550505050565b60006121a683610f8d565b6001600160a01b039093166000908152609760209081526040808320868452825280832085905593825260989052919091209190915550565b6121e881611d8c565b6040516001600160a01b038216907fbc7cd75a20ee27fd9adebab32041f755214dbc6bffa90cc0225b39da2e5c2d3b90600090a250565b60606001600160a01b0383163b6122875760405162461bcd60e51b815260206004820152602660248201527f416464726573733a2064656c65676174652063616c6c20746f206e6f6e2d636f6044820152651b9d1c9858dd60d21b606482015260840161071e565b600080846001600160a01b0316846040516122a29190612c60565b600060405180830381855af49150503d80600081146122dd576040519150601f19603f3d011682016040523d82523d6000602084013e6122e2565b606091505b509150915061230a8282604051806060016040528060278152602001612c9d60279139612313565b95945050505050565b6060831561232257508161232c565b61232c8383612333565b9392505050565b8151156123435781518083602001fd5b8060405162461bcd60e51b815260040161071e91906123e0565b6001600160e01b031981168114610ce757600080fd5b60006020828403121561238557600080fd5b813561232c8161235d565b60005b838110156123ab578181015183820152602001612393565b50506000910152565b600081518084526123cc816020860160208601612390565b601f01601f19169290920160200192915050565b60208152600061232c60208301846123b4565b60006020828403121561240557600080fd5b5035919050565b80356001600160a01b038116811461242357600080fd5b919050565b6000806040838503121561243b57600080fd5b6124448361240c565b946020939093013593505050565b634e487b7160e01b600052604160045260246000fd5b604051601f8201601f1916810167ffffffffffffffff8111828210171561249157612491612452565b604052919050565b600082601f8301126124aa57600080fd5b813567ffffffffffffffff8111156124c4576124c4612452565b6124d7601f8201601f1916602001612468565b8181528460208386010111156124ec57600080fd5b816020850160208301376000918101602001919091529392505050565b6000806040838503121561251c57600080fd5b82359150602083013567ffffffffffffffff81111561253a57600080fd5b61254685828601612499565b9150509250929050565b60008060006060848603121561256557600080fd5b61256e8461240c565b925061257c6020850161240c565b9150604084013590509250925092565b600067ffffffffffffffff8211156125a6576125a6612452565b5060051b60200190565b8035801515811461242357600080fd5b600082601f8301126125d157600080fd5b813560206125e66125e18361258c565b612468565b82815260059290921b8401810191818101908684111561260557600080fd5b8286015b848110156126275761261a816125b0565b8352918301918301612609565b509695505050505050565b60008060006060848603121561264757600080fd5b8335925060208085013567ffffffffffffffff8082111561266757600080fd5b818701915087601f83011261267b57600080fd5b81356126896125e18261258c565b81815260059190911b8301840190848101908a8311156126a857600080fd5b938501935b828510156126cd576126be8561240c565b825293850193908501906126ad565b9650505060408701359250808311156126e557600080fd5b50506126f3868287016125c0565b9150509250925092565b60006020828403121561270f57600080fd5b61232c8261240c565b6000806040838503121561272b57600080fd5b6127348361240c565b9150602083013567ffffffffffffffff81111561253a57600080fd5b60008060006060848603121561276557600080fd5b61276e8461240c565b9250602084013567ffffffffffffffff8082111561278b57600080fd5b61279787838801612499565b935060408601359150808211156127ad57600080fd5b506126f386828701612499565b600080604083850312156127cd57600080fd5b6127d68361240c565b91506127e4602084016125b0565b90509250929050565b6000806000806080858703121561280357600080fd5b61280c8561240c565b935061281a6020860161240c565b925060408501359150606085013567ffffffffffffffff81111561283d57600080fd5b61284987828801612499565b91505092959194509250565b6000806040838503121561286857600080fd5b823591506127e46020840161240c565b6000806040838503121561288b57600080fd5b6128948361240c565b91506127e46020840161240c565b600181811c908216806128b657607f821691505b6020821081036128d657634e487b7160e01b600052602260045260246000fd5b50919050565b601f8211156107bf57600081815260208120601f850160051c810160208610156129035750805b601f850160051c820191505b818110156129225782815560010161290f565b505050505050565b815167ffffffffffffffff81111561294457612944612452565b6129588161295284546128a2565b846128dc565b602080601f83116001811461298d57600084156129755750858301515b600019600386901b1c1916600185901b178555612922565b600085815260208120601f198616915b828110156129bc5788860151825594840194600190910190840161299d565b50858210156129da5787850151600019600388901b60f8161c191681555b5050505050600190811b01905550565b6020808252602d908201527f4552433732313a2063616c6c6572206973206e6f7420746f6b656e206f776e6560408201526c1c881bdc88185c1c1c9bdd9959609a1b606082015260800190565b634e487b7160e01b600052603260045260246000fd5b634e487b7160e01b600052601160045260246000fd5b600060018201612a7557612a75612a4d565b5060010190565b6020808252602c908201527f46756e6374696f6e206d7573742062652063616c6c6564207468726f7567682060408201526b19195b1959d85d1958d85b1b60a21b606082015260800190565b6020808252602c908201527f46756e6374696f6e206d7573742062652063616c6c6564207468726f7567682060408201526b6163746976652070726f787960a01b606082015260800190565b818103818111156105eb576105eb612a4d565b808201808211156105eb576105eb612a4d565b600060208284031215612b4c57600080fd5b5051919050565b6020808252602b908201527f496e697469616c697a61626c653a20636f6e7472616374206973206e6f74206960408201526a6e697469616c697a696e6760a81b606082015260800190565b60208082526032908201527f4552433732313a207472616e7366657220746f206e6f6e20455243373231526560408201527131b2b4bb32b91034b6b83632b6b2b73a32b960711b606082015260800190565b6001600160a01b0385811682528416602082015260408101839052608060608201819052600090612c23908301846123b4565b9695505050505050565b600060208284031215612c3f57600080fd5b815161232c8161235d565b634e487b7160e01b600052603160045260246000fd5b60008251612c72818460208701612390565b919091019291505056fe360894a13ba1a3210667c828492db98dca3e2076cc3735a920a3ca505d382bbc416464726573733a206c6f772d6c6576656c2064656c65676174652063616c6c206661696c6564a2646970667358221220d1ff20934b0635e0a1239832dc829892eb36f04480f3fe6f11c614dfd80d9b0664736f6c63430008100033",
    "linkReferences": {}
  },
  "methodIdentifiers": {
    "approve(address,uint256)": "095ea7b3",
    "balanceOf(address)": "70a08231",
    "getApproved(uint256)": "081812fc",
    "initialize(address,string,string)": "90657147",
    "isAdminActive(uint256,address)": "e060fb76",
    "isApprovedForAll(address,address)": "e985e9c5",
    "mint(address,string)": "d0def521",
    "name()": "06fdde03",
    "owner()": "8da5cb5b",
    "ownerOf(uint256)": "6352211e",
    "pause()": "8456cb59",
    "paused()": "5c975abb",
    "proxiableUUID()": "52d1902d",
    "renounceOwnership()": "715018a6",
    "safeTransferFrom(address,address,uint256)": "42842e0e",
    "safeTransferFrom(address,address,uint256,bytes)": "b88d4fde",
    "setAdmins(uint256,address[],bool[])": "322b2e26",
    "setApprovalForAll(address,bool)": "a22cb465",
    "setTokenURI(uint256,string)": "162094c4",
    "supportsInterface(bytes4)": "01ffc9a7",
    "symbol()": "95d89b41",
    "tokenByIndex(uint256)": "4f6ccce7",
    "tokenOfOwnerByIndex(address,uint256)": "2f745c59",
    "tokenURI(uint256)": "c87b56dd",
    "totalSupply()": "18160ddd",
    "transferFrom(address,address,uint256)": "23b872dd",
    "transferOwnership(address)": "f2fde38b",
    "unpause()": "3f4ba83a",
    "upgradeTo(address)": "3659cfe6",
    "upgradeToAndCall(address,bytes)": "4f1ef286"
  },
  "id": 48
}