{
  "abi": [
    {
      "inputs": [],
      "stateMutability": "nonpayable",
      "type": "constructor"
    },
    {
      "anonymous": false,
      "inputs": [
        {
          "indexed": false,
          "internalType": "address",
          "name": "previousAdmin",
          "type": "address"
        },
        {
          "indexed": false,
          "internalType": "address",
          "name": "newAdmin",
          "type": "address"
        }
      ],
      "name": "AdminChanged",
      "type": "event"
    },
    {
      "anonymous": false,
      "inputs": [
        {
          "indexed": true,
          "internalType": "uint256",
          "name": "tokenId",
          "type": "uint256"
        },
        {
          "indexed": true,
          "internalType": "address",
          "name": "admin",
          "type": "address"
        },
        {
          "indexed": false,
          "internalType": "bool",
          "name": "isAdded",
          "type": "bool"
        }
      ],
      "name": "AdminUpdate",
      "type": "event"
    },
    {
      "anonymous": false,
      "inputs": [
        {
          "indexed": true,
          "internalType": "address",
          "name": "owner",
          "type": "address"
        },
        {
          "indexed": true,
          "internalType": "address",
          "name": "approved",
          "type": "address"
        },
        {
          "indexed": true,
          "internalType": "uint256",
          "name": "tokenId",
          "type": "uint256"
        }
      ],
      "name": "Approval",
      "type": "event"
    },
    {
      "anonymous": false,
      "inputs": [
        {
          "indexed": true,
          "internalType": "address",
          "name": "owner",
          "type": "address"
        },
        {
          "indexed": true,
          "internalType": "address",
          "name": "operator",
          "type": "address"
        },
        {
          "indexed": false,
          "internalType": "bool",
          "name": "approved",
          "type": "bool"
        }
      ],
      "name": "ApprovalForAll",
      "type": "event"
    },
    {
      "anonymous": false,
      "inputs": [
        {
          "indexed": true,
          "internalType": "address",
          "name": "beacon",
          "type": "address"
        }
      ],
      "name": "BeaconUpgraded",
      "type": "event"
    },
    {
      "anonymous": false,
      "inputs": [
        {
          "indexed": false,
          "internalType": "uint8",
          "name": "version",
          "type": "uint8"
        }
      ],
      "name": "Initialized",
      "type": "event"
    },
    {
      "anonymous": false,
      "inputs": [
        {
          "indexed": true,
          "internalType": "uint256",
          "name": "tokenId",
          "type": "uint256"
        }
      ],
      "name": "MetadataUpdate",
      "type": "event"
    },
    {
      "anonymous": false,
      "inputs": [
        {
          "indexed": true,
          "internalType": "address",
          "name": "previousOwner",
          "type": "address"
        },
        {
          "indexed": true,
          "internalType": "address",
          "name": "newOwner",
          "type": "address"
        }
      ],
      "name": "OwnershipTransferred",
      "type": "event"
    },
    {
      "anonymous": false,
      "inputs": [
        {
          "indexed": false,
          "internalType": "address",
          "name": "account",
          "type": "address"
        }
      ],
      "name": "Paused",
      "type": "event"
    },
    {
      "anonymous": false,
      "inputs": [
        {
          "indexed": true,
          "internalType": "address",
          "name": "from",
          "type": "address"
        },
        {
          "indexed": true,
          "internalType": "address",
          "name": "to",
          "type": "address"
        },
        {
          "indexed": true,
          "internalType": "uint256",
          "name": "tokenId",
          "type": "uint256"
        }
      ],
      "name": "Transfer",
      "type": "event"
    },
    {
      "anonymous": false,
      "inputs": [
        {
          "indexed": false,
          "internalType": "address",
          "name": "account",
          "type": "address"
        }
      ],
      "name": "Unpaused",
      "type": "event"
    },
    {
      "anonymous": false,
      "inputs": [
        {
          "indexed": true,
          "internalType": "address",
          "name": "implementation",
          "type": "address"
        }
      ],
      "name": "Upgraded",
      "type": "event"
    },
    {
      "inputs": [
        {
          "internalType": "uint256",
          "name": "tokenId",
          "type": "uint256"
        },
        {
          "internalType": "address[]",
          "name": "admins",
          "type": "address[]"
        },
        {
          "internalType": "bool[]",
          "name": "isActive",
          "type": "bool[]"
        }
      ],
      "name": "addAdmins",
      "outputs": [],
      "stateMutability": "nonpayable",
      "type": "function"
    },
    {
      "inputs": [
        {
          "internalType": "address",
          "name": "to",
          "type": "address"
        },
        {
          "internalType": "uint256",
          "name": "tokenId",
          "type": "uint256"
        }
      ],
      "name": "approve",
      "outputs": [],
      "stateMutability": "nonpayable",
      "type": "function"
    },
    {
      "inputs": [
        {
          "internalType": "address",
          "name": "owner",
          "type": "address"
        }
      ],
      "name": "balanceOf",
      "outputs": [
        {
          "internalType": "uint256",
          "name": "",
          "type": "uint256"
        }
      ],
      "stateMutability": "view",
      "type": "function"
    },
    {
      "inputs": [
        {
          "internalType": "uint256",
          "name": "tokenId",
          "type": "uint256"
        }
      ],
      "name": "getApproved",
      "outputs": [
        {
          "internalType": "address",
          "name": "",
          "type": "address"
        }
      ],
      "stateMutability": "view",
      "type": "function"
    },
    {
      "inputs": [
        {
          "internalType": "address",
          "name": "nextOwner",
          "type": "address"
        },
        {
          "internalType": "string",
          "name": "name_",
          "type": "string"
        },
        {
          "internalType": "string",
          "name": "symbol_",
          "type": "string"
        }
      ],
      "name": "initialize",
      "outputs": [],
      "stateMutability": "nonpayable",
      "type": "function"
    },
    {
      "inputs": [
        {
          "internalType": "uint256",
          "name": "tokenId",
          "type": "uint256"
        },
        {
          "internalType": "address",
          "name": "admin",
          "type": "address"
        }
      ],
      "name": "isAdminActive",
      "outputs": [
        {
          "internalType": "bool",
          "name": "",
          "type": "bool"
        }
      ],
      "stateMutability": "view",
      "type": "function"
    },
    {
      "inputs": [
        {
          "internalType": "address",
          "name": "owner",
          "type": "address"
        },
        {
          "internalType": "address",
          "name": "operator",
          "type": "address"
        }
      ],
      "name": "isApprovedForAll",
      "outputs": [
        {
          "internalType": "bool",
          "name": "",
          "type": "bool"
        }
      ],
      "stateMutability": "view",
      "type": "function"
    },
    {
      "inputs": [
        {
          "internalType": "address",
          "name": "recipient",
          "type": "address"
        },
        {
          "internalType": "string",
          "name": "uri",
          "type": "string"
        }
      ],
      "name": "mint",
      "outputs": [
        {
          "internalType": "uint256",
          "name": "",
          "type": "uint256"
        }
      ],
      "stateMutability": "nonpayable",
      "type": "function"
    },
    {
      "inputs": [],
      "name": "name",
      "outputs": [
        {
          "internalType": "string",
          "name": "",
          "type": "string"
        }
      ],
      "stateMutability": "view",
      "type": "function"
    },
    {
      "inputs": [],
      "name": "owner",
      "outputs": [
        {
          "internalType": "address",
          "name": "",
          "type": "address"
        }
      ],
      "stateMutability": "view",
      "type": "function"
    },
    {
      "inputs": [
        {
          "internalType": "uint256",
          "name": "tokenId",
          "type": "uint256"
        }
      ],
      "name": "ownerOf",
      "outputs": [
        {
          "internalType": "address",
          "name": "",
          "type": "address"
        }
      ],
      "stateMutability": "view",
      "type": "function"
    },
    {
      "inputs": [],
      "name": "pause",
      "outputs": [],
      "stateMutability": "nonpayable",
      "type": "function"
    },
    {
      "inputs": [],
      "name": "paused",
      "outputs": [
        {
          "internalType": "bool",
          "name": "",
          "type": "bool"
        }
      ],
      "stateMutability": "view",
      "type": "function"
    },
    {
      "inputs": [],
      "name": "proxiableUUID",
      "outputs": [
        {
          "internalType": "bytes32",
          "name": "",
          "type": "bytes32"
        }
      ],
      "stateMutability": "view",
      "type": "function"
    },
    {
      "inputs": [
        {
          "internalType": "uint256",
          "name": "tokenId",
          "type": "uint256"
        },
        {
          "internalType": "address[]",
          "name": "admins",
          "type": "address[]"
        }
      ],
      "name": "removeAdmins",
      "outputs": [],
      "stateMutability": "nonpayable",
      "type": "function"
    },
    {
      "inputs": [],
      "name": "renounceOwnership",
      "outputs": [],
      "stateMutability": "nonpayable",
      "type": "function"
    },
    {
      "inputs": [
        {
          "internalType": "address",
          "name": "from",
          "type": "address"
        },
        {
          "internalType": "address",
          "name": "to",
          "type": "address"
        },
        {
          "internalType": "uint256",
          "name": "tokenId",
          "type": "uint256"
        }
      ],
      "name": "safeTransferFrom",
      "outputs": [],
      "stateMutability": "nonpayable",
      "type": "function"
    },
    {
      "inputs": [
        {
          "internalType": "address",
          "name": "from",
          "type": "address"
        },
        {
          "internalType": "address",
          "name": "to",
          "type": "address"
        },
        {
          "internalType": "uint256",
          "name": "tokenId",
          "type": "uint256"
        },
        {
          "internalType": "bytes",
          "name": "data",
          "type": "bytes"
        }
      ],
      "name": "safeTransferFrom",
      "outputs": [],
      "stateMutability": "nonpayable",
      "type": "function"
    },
    {
      "inputs": [
        {
          "internalType": "address",
          "name": "operator",
          "type": "address"
        },
        {
          "internalType": "bool",
          "name": "approved",
          "type": "bool"
        }
      ],
      "name": "setApprovalForAll",
      "outputs": [],
      "stateMutability": "nonpayable",
      "type": "function"
    },
    {
      "inputs": [
        {
          "internalType": "uint256",
          "name": "tokenId",
          "type": "uint256"
        },
        {
          "internalType": "string",
          "name": "uri",
          "type": "string"
        }
      ],
      "name": "setTokenURI",
      "outputs": [],
      "stateMutability": "nonpayable",
      "type": "function"
    },
    {
      "inputs": [
        {
          "internalType": "bytes4",
          "name": "interfaceId",
          "type": "bytes4"
        }
      ],
      "name": "supportsInterface",
      "outputs": [
        {
          "internalType": "bool",
          "name": "",
          "type": "bool"
        }
      ],
      "stateMutability": "view",
      "type": "function"
    },
    {
      "inputs": [],
      "name": "symbol",
      "outputs": [
        {
          "internalType": "string",
          "name": "",
          "type": "string"
        }
      ],
      "stateMutability": "view",
      "type": "function"
    },
    {
      "inputs": [
        {
          "internalType": "uint256",
          "name": "index",
          "type": "uint256"
        }
      ],
      "name": "tokenByIndex",
      "outputs": [
        {
          "internalType": "uint256",
          "name": "",
          "type": "uint256"
        }
      ],
      "stateMutability": "view",
      "type": "function"
    },
    {
      "inputs": [
        {
          "internalType": "address",
          "name": "owner",
          "type": "address"
        },
        {
          "internalType": "uint256",
          "name": "index",
          "type": "uint256"
        }
      ],
      "name": "tokenOfOwnerByIndex",
      "outputs": [
        {
          "internalType": "uint256",
          "name": "",
          "type": "uint256"
        }
      ],
      "stateMutability": "view",
      "type": "function"
    },
    {
      "inputs": [
        {
          "internalType": "uint256",
          "name": "tokenId",
          "type": "uint256"
        }
      ],
      "name": "tokenURI",
      "outputs": [
        {
          "internalType": "string",
          "name": "",
          "type": "string"
        }
      ],
      "stateMutability": "view",
      "type": "function"
    },
    {
      "inputs": [],
      "name": "totalSupply",
      "outputs": [
        {
          "internalType": "uint256",
          "name": "",
          "type": "uint256"
        }
      ],
      "stateMutability": "view",
      "type": "function"
    },
    {
      "inputs": [
        {
          "internalType": "address",
          "name": "from",
          "type": "address"
        },
        {
          "internalType": "address",
          "name": "to",
          "type": "address"
        },
        {
          "internalType": "uint256",
          "name": "tokenId",
          "type": "uint256"
        }
      ],
      "name": "transferFrom",
      "outputs": [],
      "stateMutability": "nonpayable",
      "type": "function"
    },
    {
      "inputs": [
        {
          "internalType": "address",
          "name": "newOwner",
          "type": "address"
        }
      ],
      "name": "transferOwnership",
      "outputs": [],
      "stateMutability": "nonpayable",
      "type": "function"
    },
    {
      "inputs": [],
      "name": "unpause",
      "outputs": [],
      "stateMutability": "nonpayable",
      "type": "function"
    },
    {
      "inputs": [
        {
          "internalType": "address",
          "name": "newImplementation",
          "type": "address"
        }
      ],
      "name": "upgradeTo",
      "outputs": [],
      "stateMutability": "nonpayable",
      "type": "function"
    },
    {
      "inputs": [
        {
          "internalType": "address",
          "name": "newImplementation",
          "type": "address"
        },
        {
          "internalType": "bytes",
          "name": "data",
          "type": "bytes"
        }
      ],
      "name": "upgradeToAndCall",
      "outputs": [],
      "stateMutability": "payable",
      "type": "function"
    }
  ],
  "bytecode": {
    "object": "0x60a0604052306080523480156200001557600080fd5b506200002062000026565b620000e8565b600054610100900460ff1615620000935760405162461bcd60e51b815260206004820152602760248201527f496e697469616c697a61626c653a20636f6e747261637420697320696e697469604482015266616c697a696e6760c81b606482015260840160405180910390fd5b60005460ff9081161015620000e6576000805460ff191660ff9081179091556040519081527f7f26b83ff96e1f2b6a682f133852f6798a09c465da95921460cefb38474024989060200160405180910390a15b565b608051612ec16200012060003960008181610987015281816109c701528181610cf501528181610d350152610e5b0152612ec16000f3fe6080604052600436106101d85760003560e01c80635c975abb11610102578063a22cb46511610095578063d0def52111610064578063d0def52114610521578063e060fb7614610541578063e985e9c514610588578063f2fde38b146105d157600080fd5b8063a22cb465146104a1578063af48ade9146104c1578063b88d4fde146104e1578063c87b56dd1461050157600080fd5b80638456cb59116100d15780638456cb59146104385780638da5cb5b1461044d578063906571471461046c57806395d89b411461048c57600080fd5b80635c975abb146103ca5780636352211e146103e357806370a0823114610403578063715018a61461042357600080fd5b80632f745c591161017a5780634a875f77116101495780634a875f77146103625780634f1ef286146103825780634f6ccce71461039557806352d1902d146103b557600080fd5b80632f745c59146102ed5780633659cfe61461030d5780633f4ba83a1461032d57806342842e0e1461034257600080fd5b8063095ea7b3116101b6578063095ea7b31461026c578063162094c41461028e57806318160ddd146102ae57806323b872dd146102cd57600080fd5b806301ffc9a7146101dd57806306fdde0314610212578063081812fc14610234575b600080fd5b3480156101e957600080fd5b506101fd6101f83660046124f5565b6105f1565b60405190151581526020015b60405180910390f35b34801561021e57600080fd5b5061022761061c565b6040516102099190612562565b34801561024057600080fd5b5061025461024f366004612575565b6106ae565b6040516001600160a01b039091168152602001610209565b34801561027857600080fd5b5061028c6102873660046125aa565b6106d5565b005b34801561029a57600080fd5b5061028c6102a936600461268b565b6107ef565b3480156102ba57600080fd5b506099545b604051908152602001610209565b3480156102d957600080fd5b5061028c6102e83660046126d2565b6108b6565b3480156102f957600080fd5b506102bf6103083660046125aa565b6108e7565b34801561031957600080fd5b5061028c61032836600461270e565b61097d565b34801561033957600080fd5b5061028c610a5c565b34801561034e57600080fd5b5061028c61035d3660046126d2565b610a6e565b34801561036e57600080fd5b5061028c61037d3660046127cf565b610a89565b61028c610390366004612899565b610ceb565b3480156103a157600080fd5b506102bf6103b0366004612575565b610dbb565b3480156103c157600080fd5b506102bf610e4e565b3480156103d657600080fd5b5061015f5460ff166101fd565b3480156103ef57600080fd5b506102546103fe366004612575565b610f01565b34801561040f57600080fd5b506102bf61041e36600461270e565b610f61565b34801561042f57600080fd5b5061028c610fe7565b34801561044457600080fd5b5061028c610ff9565b34801561045957600080fd5b5061012d546001600160a01b0316610254565b34801561047857600080fd5b5061028c6104873660046128d1565b611009565b34801561049857600080fd5b50610227611147565b3480156104ad57600080fd5b5061028c6104bc366004612945565b611156565b3480156104cd57600080fd5b5061028c6104dc366004612978565b611161565b3480156104ed57600080fd5b5061028c6104fc3660046129b5565b61130f565b34801561050d57600080fd5b5061022761051c366004612575565b611341565b34801561052d57600080fd5b506102bf61053c366004612899565b6113e4565b34801561054d57600080fd5b506101fd61055c366004612a1d565b6000918252610193602090815260408084206001600160a01b0393909316845291905290205460ff1690565b34801561059457600080fd5b506101fd6105a3366004612a40565b6001600160a01b039182166000908152606a6020908152604080832093909416825291909152205460ff1690565b3480156105dd57600080fd5b5061028c6105ec36600461270e565b611506565b60006001600160e01b0319821663780e9d6360e01b148061061657506106168261157c565b92915050565b60606065805461062b90612a6a565b80601f016020809104026020016040519081016040528092919081815260200182805461065790612a6a565b80156106a45780601f10610679576101008083540402835291602001916106a4565b820191906000526020600020905b81548152906001019060200180831161068757829003601f168201915b5050505050905090565b60006106b9826115cc565b506000908152606960205260409020546001600160a01b031690565b60006106e082610f01565b9050806001600160a01b0316836001600160a01b0316036107525760405162461bcd60e51b815260206004820152602160248201527f4552433732313a20617070726f76616c20746f2063757272656e74206f776e656044820152603960f91b60648201526084015b60405180910390fd5b336001600160a01b038216148061076e575061076e81336105a3565b6107e05760405162461bcd60e51b815260206004820152603d60248201527f4552433732313a20617070726f76652063616c6c6572206973206e6f7420746f60448201527f6b656e206f776e6572206f7220617070726f76656420666f7220616c6c0000006064820152608401610749565b6107ea838361162b565b505050565b6107f7611699565b6000828152606760205260409020546001600160a01b031661086d5760405162461bcd60e51b815260206004820152602960248201527f736574546f6b656e5552493a2055524920736574206f66206e6f6e657869737460448201526832b73a103a37b5b2b760b91b6064820152608401610749565b6000828152610192602052604090206108868282612af2565b5060405182907ff8e1a15aba9398e019f0b49df1a4fde98ee17ae345cb5f6b5e2c27f5033e8ce790600090a25050565b6108c033826116f4565b6108dc5760405162461bcd60e51b815260040161074990612bb2565b6107ea838383611773565b60006108f283610f61565b82106109545760405162461bcd60e51b815260206004820152602b60248201527f455243373231456e756d657261626c653a206f776e657220696e646578206f7560448201526a74206f6620626f756e647360a81b6064820152608401610749565b506001600160a01b03919091166000908152609760209081526040808320938352929052205490565b6001600160a01b037f00000000000000000000000000000000000000000000000000000000000000001630036109c55760405162461bcd60e51b815260040161074990612bff565b7f00000000000000000000000000000000000000000000000000000000000000006001600160a01b0316610a0e600080516020612e45833981519152546001600160a01b031690565b6001600160a01b031614610a345760405162461bcd60e51b815260040161074990612c4b565b610a3d81611929565b60408051600080825260208201909252610a5991839190611931565b50565b610a64611699565b610a6c611a9c565b565b6107ea8383836040518060200160405280600081525061130f565b6000838152606760205260409020546001600160a01b0316610af75760405162461bcd60e51b815260206004820152602160248201527f61646441646d696e733a20746f6b656e496420646f6573206e6f7420657869736044820152601d60fa1b6064820152608401610749565b33610b0184610f01565b6001600160a01b031614610b575760405162461bcd60e51b815260206004820152601760248201527f61646441646d696e733a20756e617574686f72697a65640000000000000000006044820152606401610749565b8051825114610bce5760405162461bcd60e51b815260206004820152603f60248201527f61646441646d696e733a2061646d696e7320616e64206973416374697665206160448201527f7272617973206d7573742068617665207468652073616d65206c656e677468006064820152608401610749565b60005b8251811015610ce557818181518110610bec57610bec612c97565b602002602001015161019360008681526020019081526020016000206000858481518110610c1c57610c1c612c97565b60200260200101516001600160a01b03166001600160a01b0316815260200190815260200160002060006101000a81548160ff021916908315150217905550828181518110610c6d57610c6d612c97565b60200260200101516001600160a01b0316847faa7637c88c63659176aa6f1b9bde1a03fd88751320e1d40898bdf1a8459071de848481518110610cb257610cb2612c97565b6020026020010151604051610ccb911515815260200190565b60405180910390a380610cdd81612cc3565b915050610bd1565b50505050565b6001600160a01b037f0000000000000000000000000000000000000000000000000000000000000000163003610d335760405162461bcd60e51b815260040161074990612bff565b7f00000000000000000000000000000000000000000000000000000000000000006001600160a01b0316610d7c600080516020612e45833981519152546001600160a01b031690565b6001600160a01b031614610da25760405162461bcd60e51b815260040161074990612c4b565b610dab82611929565b610db782826001611931565b5050565b6000610dc660995490565b8210610e295760405162461bcd60e51b815260206004820152602c60248201527f455243373231456e756d657261626c653a20676c6f62616c20696e646578206f60448201526b7574206f6620626f756e647360a01b6064820152608401610749565b60998281548110610e3c57610e3c612c97565b90600052602060002001549050919050565b6000306001600160a01b037f00000000000000000000000000000000000000000000000000000000000000001614610eee5760405162461bcd60e51b815260206004820152603860248201527f555550535570677261646561626c653a206d757374206e6f742062652063616c60448201527f6c6564207468726f7567682064656c656761746563616c6c00000000000000006064820152608401610749565b50600080516020612e4583398151915290565b6000818152606760205260408120546001600160a01b0316806106165760405162461bcd60e51b8152602060048201526018602482015277115490cdcc8c4e881a5b9d985b1a59081d1bdad95b88125160421b6044820152606401610749565b60006001600160a01b038216610fcb5760405162461bcd60e51b815260206004820152602960248201527f4552433732313a2061646472657373207a65726f206973206e6f7420612076616044820152683634b21037bbb732b960b91b6064820152608401610749565b506001600160a01b031660009081526068602052604090205490565b610fef611699565b610a6c6000611aef565b611001611699565b610a6c611b42565b600054610100900460ff16158080156110295750600054600160ff909116105b806110435750303b158015611043575060005460ff166001145b6110a65760405162461bcd60e51b815260206004820152602e60248201527f496e697469616c697a61626c653a20636f6e747261637420697320616c72656160448201526d191e481a5b9a5d1a585b1a5e995960921b6064820152608401610749565b6000805460ff1916600117905580156110c9576000805461ff0019166101001790555b6110d1611b80565b6110db8383611ba7565b6110e3611b80565b6110eb611bd8565b6110f484611506565b6110fc611b42565b8015610ce5576000805461ff0019169055604051600181527f7f26b83ff96e1f2b6a682f133852f6798a09c465da95921460cefb38474024989060200160405180910390a150505050565b60606066805461062b90612a6a565b610db7338383611c07565b6000828152606760205260409020546001600160a01b03166111d15760405162461bcd60e51b8152602060048201526024808201527f72656d6f766541646d696e733a20746f6b656e496420646f6573206e6f7420656044820152631e1a5cdd60e21b6064820152608401610749565b336111db83610f01565b6001600160a01b0316146112315760405162461bcd60e51b815260206004820152601a60248201527f72656d6f766541646d696e733a20756e617574686f72697a65640000000000006044820152606401610749565b60005b81518110156107ea576101936000848152602001908152602001600020600083838151811061126557611265612c97565b60200260200101516001600160a01b03166001600160a01b0316815260200190815260200160002060006101000a81549060ff02191690558181815181106112af576112af612c97565b60200260200101516001600160a01b0316837faa7637c88c63659176aa6f1b9bde1a03fd88751320e1d40898bdf1a8459071de60006040516112f5911515815260200190565b60405180910390a38061130781612cc3565b915050611234565b61131933836116f4565b6113355760405162461bcd60e51b815260040161074990612bb2565b610ce584848484611cd5565b60008181526101926020526040902080546060919061135f90612a6a565b80601f016020809104026020016040519081016040528092919081815260200182805461138b90612a6a565b80156113d85780601f106113ad576101008083540402835291602001916113d8565b820191906000526020600020905b8154815290600101906020018083116113bb57829003601f168201915b50505050509050919050565b60006113f961012d546001600160a01b031690565b6001600160a01b0316336001600160a01b0316148061141c575061015f5460ff16155b6114685760405162461bcd60e51b815260206004820152601a60248201527f6d696e743a20756e617574686f72697a656420746f206d696e740000000000006044820152606401610749565b61147761019180546001019055565b60006114836101915490565b90506001600160a01b0384166114db5760405162461bcd60e51b815260206004820152601b60248201527f63616e6e6f74206d696e7420746f207a65726f206164647265737300000000006044820152606401610749565b6114e58482611d08565b6000818152610192602052604090206114fe8482612af2565b509392505050565b61150e611699565b6001600160a01b0381166115735760405162461bcd60e51b815260206004820152602660248201527f4f776e61626c653a206e6577206f776e657220697320746865207a65726f206160448201526564647265737360d01b6064820152608401610749565b610a5981611aef565b60006001600160e01b031982166380ac58cd60e01b14806115ad57506001600160e01b03198216635b5e139f60e01b145b8061061657506301ffc9a760e01b6001600160e01b0319831614610616565b6000818152606760205260409020546001600160a01b0316610a595760405162461bcd60e51b8152602060048201526018602482015277115490cdcc8c4e881a5b9d985b1a59081d1bdad95b88125160421b6044820152606401610749565b600081815260696020526040902080546001600160a01b0319166001600160a01b038416908117909155819061166082610f01565b6001600160a01b03167f8c5be1e5ebec7d5bd14f71427d1e84f3dd0314c0f7b2291e5b200ac8c7c3b92560405160405180910390a45050565b61012d546001600160a01b03163314610a6c5760405162461bcd60e51b815260206004820181905260248201527f4f776e61626c653a2063616c6c6572206973206e6f7420746865206f776e65726044820152606401610749565b60008061170083610f01565b9050806001600160a01b0316846001600160a01b0316148061174757506001600160a01b038082166000908152606a602090815260408083209388168352929052205460ff165b8061176b5750836001600160a01b0316611760846106ae565b6001600160a01b0316145b949350505050565b826001600160a01b031661178682610f01565b6001600160a01b0316146117ea5760405162461bcd60e51b815260206004820152602560248201527f4552433732313a207472616e736665722066726f6d20696e636f72726563742060448201526437bbb732b960d91b6064820152608401610749565b6001600160a01b03821661184c5760405162461bcd60e51b8152602060048201526024808201527f4552433732313a207472616e7366657220746f20746865207a65726f206164646044820152637265737360e01b6064820152608401610749565b611857838383611e56565b600081815260696020908152604080832080546001600160a01b03191690556001600160a01b03861683526068909152812080546001929061189a908490612cdc565b90915550506001600160a01b03821660009081526068602052604081208054600192906118c8908490612cef565b909155505060008181526067602052604080822080546001600160a01b0319166001600160a01b0386811691821790925591518493918716917fddf252ad1be2c89b69c2b068fc378daa952ba7f163c4a11628f55a4df523b3ef91a4505050565b610a59611699565b7f4910fdfa16fed3260ed0e7147f7cc6da11a60208b5b9406d12a635614ffd91435460ff1615611964576107ea83611f0e565b826001600160a01b03166352d1902d6040518163ffffffff1660e01b8152600401602060405180830381865afa9250505080156119be575060408051601f3d908101601f191682019092526119bb91810190612d02565b60015b611a215760405162461bcd60e51b815260206004820152602e60248201527f45524331393637557067726164653a206e657720696d706c656d656e7461746960448201526d6f6e206973206e6f74205555505360901b6064820152608401610749565b600080516020612e458339815191528114611a905760405162461bcd60e51b815260206004820152602960248201527f45524331393637557067726164653a20756e737570706f727465642070726f786044820152681a58589b195555525160ba1b6064820152608401610749565b506107ea838383611faa565b611aa4611fcf565b61015f805460ff191690557f5db9ee0a495bf2e6ff9c91a7834c1ba4fdd244a5e8aa4e537bd38aeae4b073aa335b6040516001600160a01b03909116815260200160405180910390a1565b61012d80546001600160a01b038381166001600160a01b0319831681179093556040519116919082907f8be0079c531659141344cd1fd0a4f28419497f9722a3daafe3b4186f6b6457e090600090a35050565b611b4a612019565b61015f805460ff191660011790557f62e78cea01bee320cd4e420270b5ea74000d11b0c9f74754ebdbfc544b05a258611ad23390565b600054610100900460ff16610a6c5760405162461bcd60e51b815260040161074990612d1b565b600054610100900460ff16611bce5760405162461bcd60e51b815260040161074990612d1b565b610db78282612060565b600054610100900460ff16611bff5760405162461bcd60e51b815260040161074990612d1b565b610a6c6120a0565b816001600160a01b0316836001600160a01b031603611c685760405162461bcd60e51b815260206004820152601960248201527f4552433732313a20617070726f766520746f2063616c6c6572000000000000006044820152606401610749565b6001600160a01b038381166000818152606a6020908152604080832094871680845294825291829020805460ff191686151590811790915591519182527f17307eab39ab6107e8899845ad3d59bd9653f200f220920489ca2b5937696c31910160405180910390a3505050565b611ce0848484611773565b611cec848484846120d0565b610ce55760405162461bcd60e51b815260040161074990612d66565b6001600160a01b038216611d5e5760405162461bcd60e51b815260206004820181905260248201527f4552433732313a206d696e7420746f20746865207a65726f20616464726573736044820152606401610749565b6000818152606760205260409020546001600160a01b031615611dc35760405162461bcd60e51b815260206004820152601c60248201527f4552433732313a20746f6b656e20616c7265616479206d696e746564000000006044820152606401610749565b611dcf60008383611e56565b6001600160a01b0382166000908152606860205260408120805460019290611df8908490612cef565b909155505060008181526067602052604080822080546001600160a01b0319166001600160a01b03861690811790915590518392907fddf252ad1be2c89b69c2b068fc378daa952ba7f163c4a11628f55a4df523b3ef908290a45050565b6001600160a01b038316611eb157611eac81609980546000838152609a60205260408120829055600182018355919091527f72a152ddfb8e864297c917af52ea6c1c68aead0fee1a62673fcc7e0c94979d000155565b611ed4565b816001600160a01b0316836001600160a01b031614611ed457611ed483826121d1565b6001600160a01b038216611eeb576107ea8161226e565b826001600160a01b0316826001600160a01b0316146107ea576107ea828261231d565b6001600160a01b0381163b611f7b5760405162461bcd60e51b815260206004820152602d60248201527f455243313936373a206e657720696d706c656d656e746174696f6e206973206e60448201526c1bdd08184818dbdb9d1c9858dd609a1b6064820152608401610749565b600080516020612e4583398151915280546001600160a01b0319166001600160a01b0392909216919091179055565b611fb383612361565b600082511180611fc05750805b156107ea57610ce583836123a1565b61015f5460ff16610a6c5760405162461bcd60e51b815260206004820152601460248201527314185d5cd8589b194e881b9bdd081c185d5cd95960621b6044820152606401610749565b61015f5460ff1615610a6c5760405162461bcd60e51b815260206004820152601060248201526f14185d5cd8589b194e881c185d5cd95960821b6044820152606401610749565b600054610100900460ff166120875760405162461bcd60e51b815260040161074990612d1b565b60656120938382612af2565b5060666107ea8282612af2565b600054610100900460ff166120c75760405162461bcd60e51b815260040161074990612d1b565b610a6c33611aef565b60006001600160a01b0384163b156121c657604051630a85bd0160e11b81526001600160a01b0385169063150b7a0290612114903390899088908890600401612db8565b6020604051808303816000875af192505050801561214f575060408051601f3d908101601f1916820190925261214c91810190612df5565b60015b6121ac573d80801561217d576040519150601f19603f3d011682016040523d82523d6000602084013e612182565b606091505b5080516000036121a45760405162461bcd60e51b815260040161074990612d66565b805181602001fd5b6001600160e01b031916630a85bd0160e11b14905061176b565b506001949350505050565b600060016121de84610f61565b6121e89190612cdc565b60008381526098602052604090205490915080821461223b576001600160a01b03841660009081526097602090815260408083208584528252808320548484528184208190558352609890915290208190555b5060009182526098602090815260408084208490556001600160a01b039094168352609781528383209183525290812055565b60995460009061228090600190612cdc565b6000838152609a6020526040812054609980549394509092849081106122a8576122a8612c97565b9060005260206000200154905080609983815481106122c9576122c9612c97565b6000918252602080832090910192909255828152609a9091526040808220849055858252812055609980548061230157612301612e12565b6001900381819060005260206000200160009055905550505050565b600061232883610f61565b6001600160a01b039093166000908152609760209081526040808320868452825280832085905593825260989052919091209190915550565b61236a81611f0e565b6040516001600160a01b038216907fbc7cd75a20ee27fd9adebab32041f755214dbc6bffa90cc0225b39da2e5c2d3b90600090a250565b60606001600160a01b0383163b6124095760405162461bcd60e51b815260206004820152602660248201527f416464726573733a2064656c65676174652063616c6c20746f206e6f6e2d636f6044820152651b9d1c9858dd60d21b6064820152608401610749565b600080846001600160a01b0316846040516124249190612e28565b600060405180830381855af49150503d806000811461245f576040519150601f19603f3d011682016040523d82523d6000602084013e612464565b606091505b509150915061248c8282604051806060016040528060278152602001612e6560279139612495565b95945050505050565b606083156124a45750816124ae565b6124ae83836124b5565b9392505050565b8151156124c55781518083602001fd5b8060405162461bcd60e51b81526004016107499190612562565b6001600160e01b031981168114610a5957600080fd5b60006020828403121561250757600080fd5b81356124ae816124df565b60005b8381101561252d578181015183820152602001612515565b50506000910152565b6000815180845261254e816020860160208601612512565b601f01601f19169290920160200192915050565b6020815260006124ae6020830184612536565b60006020828403121561258757600080fd5b5035919050565b80356001600160a01b03811681146125a557600080fd5b919050565b600080604083850312156125bd57600080fd5b6125c68361258e565b946020939093013593505050565b634e487b7160e01b600052604160045260246000fd5b604051601f8201601f1916810167ffffffffffffffff81118282101715612613576126136125d4565b604052919050565b600082601f83011261262c57600080fd5b813567ffffffffffffffff811115612646576126466125d4565b612659601f8201601f19166020016125ea565b81815284602083860101111561266e57600080fd5b816020850160208301376000918101602001919091529392505050565b6000806040838503121561269e57600080fd5b82359150602083013567ffffffffffffffff8111156126bc57600080fd5b6126c88582860161261b565b9150509250929050565b6000806000606084860312156126e757600080fd5b6126f08461258e565b92506126fe6020850161258e565b9150604084013590509250925092565b60006020828403121561272057600080fd5b6124ae8261258e565b600067ffffffffffffffff821115612743576127436125d4565b5060051b60200190565b600082601f83011261275e57600080fd5b8135602061277361276e83612729565b6125ea565b82815260059290921b8401810191818101908684111561279257600080fd5b8286015b848110156127b4576127a78161258e565b8352918301918301612796565b509695505050505050565b803580151581146125a557600080fd5b6000806000606084860312156127e457600080fd5b8335925060208085013567ffffffffffffffff8082111561280457600080fd5b6128108883890161274d565b9450604087013591508082111561282657600080fd5b508501601f8101871361283857600080fd5b803561284661276e82612729565b81815260059190911b8201830190838101908983111561286557600080fd5b928401925b8284101561288a5761287b846127bf565b8252928401929084019061286a565b80955050505050509250925092565b600080604083850312156128ac57600080fd5b6128b58361258e565b9150602083013567ffffffffffffffff8111156126bc57600080fd5b6000806000606084860312156128e657600080fd5b6128ef8461258e565b9250602084013567ffffffffffffffff8082111561290c57600080fd5b6129188783880161261b565b9350604086013591508082111561292e57600080fd5b5061293b8682870161261b565b9150509250925092565b6000806040838503121561295857600080fd5b6129618361258e565b915061296f602084016127bf565b90509250929050565b6000806040838503121561298b57600080fd5b82359150602083013567ffffffffffffffff8111156129a957600080fd5b6126c88582860161274d565b600080600080608085870312156129cb57600080fd5b6129d48561258e565b93506129e26020860161258e565b925060408501359150606085013567ffffffffffffffff811115612a0557600080fd5b612a118782880161261b565b91505092959194509250565b60008060408385031215612a3057600080fd5b8235915061296f6020840161258e565b60008060408385031215612a5357600080fd5b612a5c8361258e565b915061296f6020840161258e565b600181811c90821680612a7e57607f821691505b602082108103612a9e57634e487b7160e01b600052602260045260246000fd5b50919050565b601f8211156107ea57600081815260208120601f850160051c81016020861015612acb5750805b601f850160051c820191505b81811015612aea57828155600101612ad7565b505050505050565b815167ffffffffffffffff811115612b0c57612b0c6125d4565b612b2081612b1a8454612a6a565b84612aa4565b602080601f831160018114612b555760008415612b3d5750858301515b600019600386901b1c1916600185901b178555612aea565b600085815260208120601f198616915b82811015612b8457888601518255948401946001909101908401612b65565b5085821015612ba25787850151600019600388901b60f8161c191681555b5050505050600190811b01905550565b6020808252602d908201527f4552433732313a2063616c6c6572206973206e6f7420746f6b656e206f776e6560408201526c1c881bdc88185c1c1c9bdd9959609a1b606082015260800190565b6020808252602c908201527f46756e6374696f6e206d7573742062652063616c6c6564207468726f7567682060408201526b19195b1959d85d1958d85b1b60a21b606082015260800190565b6020808252602c908201527f46756e6374696f6e206d7573742062652063616c6c6564207468726f7567682060408201526b6163746976652070726f787960a01b606082015260800190565b634e487b7160e01b600052603260045260246000fd5b634e487b7160e01b600052601160045260246000fd5b600060018201612cd557612cd5612cad565b5060010190565b8181038181111561061657610616612cad565b8082018082111561061657610616612cad565b600060208284031215612d1457600080fd5b5051919050565b6020808252602b908201527f496e697469616c697a61626c653a20636f6e7472616374206973206e6f74206960408201526a6e697469616c697a696e6760a81b606082015260800190565b60208082526032908201527f4552433732313a207472616e7366657220746f206e6f6e20455243373231526560408201527131b2b4bb32b91034b6b83632b6b2b73a32b960711b606082015260800190565b6001600160a01b0385811682528416602082015260408101839052608060608201819052600090612deb90830184612536565b9695505050505050565b600060208284031215612e0757600080fd5b81516124ae816124df565b634e487b7160e01b600052603160045260246000fd5b60008251612e3a818460208701612512565b919091019291505056fe360894a13ba1a3210667c828492db98dca3e2076cc3735a920a3ca505d382bbc416464726573733a206c6f772d6c6576656c2064656c65676174652063616c6c206661696c6564a2646970667358221220891c9876e70e72ae548ff1da316a370c235a71a22a78c654ff58b4bbaf5b57ab64736f6c63430008100033",
    "linkReferences": {}
  },
  "methodIdentifiers": {
    "addAdmins(uint256,address[],bool[])": "4a875f77",
    "approve(address,uint256)": "095ea7b3",
    "balanceOf(address)": "70a08231",
    "getApproved(uint256)": "081812fc",
    "initialize(address,string,string)": "90657147",
    "isAdminActive(uint256,address)": "e060fb76",
    "isApprovedForAll(address,address)": "e985e9c5",
    "mint(address,string)": "d0def521",
    "name()": "06fdde03",
    "owner()": "8da5cb5b",
    "ownerOf(uint256)": "6352211e",
    "pause()": "8456cb59",
    "paused()": "5c975abb",
    "proxiableUUID()": "52d1902d",
    "removeAdmins(uint256,address[])": "af48ade9",
    "renounceOwnership()": "715018a6",
    "safeTransferFrom(address,address,uint256)": "42842e0e",
    "safeTransferFrom(address,address,uint256,bytes)": "b88d4fde",
    "setApprovalForAll(address,bool)": "a22cb465",
    "setTokenURI(uint256,string)": "162094c4",
    "supportsInterface(bytes4)": "01ffc9a7",
    "symbol()": "95d89b41",
    "tokenByIndex(uint256)": "4f6ccce7",
    "tokenOfOwnerByIndex(address,uint256)": "2f745c59",
    "tokenURI(uint256)": "c87b56dd",
    "totalSupply()": "18160ddd",
    "transferFrom(address,address,uint256)": "23b872dd",
    "transferOwnership(address)": "f2fde38b",
    "unpause()": "3f4ba83a",
    "upgradeTo(address)": "3659cfe6",
    "upgradeToAndCall(address,bytes)": "4f1ef286"
  },
  "id": 48
}