{
  "abi": [
    {
      "inputs": [],
      "stateMutability": "nonpayable",
      "type": "constructor"
    },
    {
      "anonymous": false,
      "inputs": [
        {
          "indexed": false,
          "internalType": "address",
          "name": "previousAdmin",
          "type": "address"
        },
        {
          "indexed": false,
          "internalType": "address",
          "name": "newAdmin",
          "type": "address"
        }
      ],
      "name": "AdminChanged",
      "type": "event"
    },
    {
      "anonymous": false,
      "inputs": [
        {
          "indexed": true,
          "internalType": "uint256",
          "name": "tokenId",
          "type": "uint256"
        },
        {
          "indexed": true,
          "internalType": "address",
          "name": "admin",
          "type": "address"
        },
        {
          "indexed": false,
          "internalType": "bool",
          "name": "isAdded",
          "type": "bool"
        }
      ],
      "name": "AdminUpdate",
      "type": "event"
    },
    {
      "anonymous": false,
      "inputs": [
        {
          "indexed": true,
          "internalType": "address",
          "name": "owner",
          "type": "address"
        },
        {
          "indexed": true,
          "internalType": "address",
          "name": "approved",
          "type": "address"
        },
        {
          "indexed": true,
          "internalType": "uint256",
          "name": "tokenId",
          "type": "uint256"
        }
      ],
      "name": "Approval",
      "type": "event"
    },
    {
      "anonymous": false,
      "inputs": [
        {
          "indexed": true,
          "internalType": "address",
          "name": "owner",
          "type": "address"
        },
        {
          "indexed": true,
          "internalType": "address",
          "name": "operator",
          "type": "address"
        },
        {
          "indexed": false,
          "internalType": "bool",
          "name": "approved",
          "type": "bool"
        }
      ],
      "name": "ApprovalForAll",
      "type": "event"
    },
    {
      "anonymous": false,
      "inputs": [
        {
          "indexed": true,
          "internalType": "address",
          "name": "beacon",
          "type": "address"
        }
      ],
      "name": "BeaconUpgraded",
      "type": "event"
    },
    {
      "anonymous": false,
      "inputs": [
        {
          "indexed": false,
          "internalType": "uint8",
          "name": "version",
          "type": "uint8"
        }
      ],
      "name": "Initialized",
      "type": "event"
    },
    {
      "anonymous": false,
      "inputs": [
        {
          "indexed": true,
          "internalType": "uint256",
          "name": "tokenId",
          "type": "uint256"
        }
      ],
      "name": "MetadataUpdate",
      "type": "event"
    },
    {
      "anonymous": false,
      "inputs": [
        {
          "indexed": true,
          "internalType": "address",
          "name": "previousOwner",
          "type": "address"
        },
        {
          "indexed": true,
          "internalType": "address",
          "name": "newOwner",
          "type": "address"
        }
      ],
      "name": "OwnershipTransferred",
      "type": "event"
    },
    {
      "anonymous": false,
      "inputs": [
        {
          "indexed": false,
          "internalType": "address",
          "name": "account",
          "type": "address"
        }
      ],
      "name": "Paused",
      "type": "event"
    },
    {
      "anonymous": false,
      "inputs": [
        {
          "indexed": true,
          "internalType": "address",
          "name": "from",
          "type": "address"
        },
        {
          "indexed": true,
          "internalType": "address",
          "name": "to",
          "type": "address"
        },
        {
          "indexed": true,
          "internalType": "uint256",
          "name": "tokenId",
          "type": "uint256"
        }
      ],
      "name": "Transfer",
      "type": "event"
    },
    {
      "anonymous": false,
      "inputs": [
        {
          "indexed": false,
          "internalType": "address",
          "name": "account",
          "type": "address"
        }
      ],
      "name": "Unpaused",
      "type": "event"
    },
    {
      "anonymous": false,
      "inputs": [
        {
          "indexed": true,
          "internalType": "address",
          "name": "implementation",
          "type": "address"
        }
      ],
      "name": "Upgraded",
      "type": "event"
    },
    {
      "inputs": [
        {
          "internalType": "address",
          "name": "to",
          "type": "address"
        },
        {
          "internalType": "uint256",
          "name": "tokenId",
          "type": "uint256"
        }
      ],
      "name": "approve",
      "outputs": [],
      "stateMutability": "nonpayable",
      "type": "function"
    },
    {
      "inputs": [
        {
          "internalType": "address",
          "name": "owner",
          "type": "address"
        }
      ],
      "name": "balanceOf",
      "outputs": [
        {
          "internalType": "uint256",
          "name": "",
          "type": "uint256"
        }
      ],
      "stateMutability": "view",
      "type": "function"
    },
    {
      "inputs": [
        {
          "internalType": "uint256",
          "name": "tokenId",
          "type": "uint256"
        }
      ],
      "name": "getApproved",
      "outputs": [
        {
          "internalType": "address",
          "name": "",
          "type": "address"
        }
      ],
      "stateMutability": "view",
      "type": "function"
    },
    {
      "inputs": [
        {
          "internalType": "address",
          "name": "nextOwner",
          "type": "address"
        },
        {
          "internalType": "string",
          "name": "name_",
          "type": "string"
        },
        {
          "internalType": "string",
          "name": "symbol_",
          "type": "string"
        }
      ],
      "name": "initialize",
      "outputs": [],
      "stateMutability": "nonpayable",
      "type": "function"
    },
    {
      "inputs": [
        {
          "internalType": "uint256",
          "name": "tokenId",
          "type": "uint256"
        },
        {
          "internalType": "address",
          "name": "admin",
          "type": "address"
        }
      ],
      "name": "isAdminActive",
      "outputs": [
        {
          "internalType": "bool",
          "name": "",
          "type": "bool"
        }
      ],
      "stateMutability": "view",
      "type": "function"
    },
    {
      "inputs": [
        {
          "internalType": "address",
          "name": "owner",
          "type": "address"
        },
        {
          "internalType": "address",
          "name": "operator",
          "type": "address"
        }
      ],
      "name": "isApprovedForAll",
      "outputs": [
        {
          "internalType": "bool",
          "name": "",
          "type": "bool"
        }
      ],
      "stateMutability": "view",
      "type": "function"
    },
    {
      "inputs": [
        {
          "internalType": "address",
          "name": "recipient",
          "type": "address"
        },
        {
          "internalType": "string",
          "name": "uri",
          "type": "string"
        }
      ],
      "name": "mint",
      "outputs": [
        {
          "internalType": "uint256",
          "name": "",
          "type": "uint256"
        }
      ],
      "stateMutability": "nonpayable",
      "type": "function"
    },
    {
      "inputs": [],
      "name": "name",
      "outputs": [
        {
          "internalType": "string",
          "name": "",
          "type": "string"
        }
      ],
      "stateMutability": "view",
      "type": "function"
    },
    {
      "inputs": [],
      "name": "owner",
      "outputs": [
        {
          "internalType": "address",
          "name": "",
          "type": "address"
        }
      ],
      "stateMutability": "view",
      "type": "function"
    },
    {
      "inputs": [
        {
          "internalType": "uint256",
          "name": "tokenId",
          "type": "uint256"
        }
      ],
      "name": "ownerOf",
      "outputs": [
        {
          "internalType": "address",
          "name": "",
          "type": "address"
        }
      ],
      "stateMutability": "view",
      "type": "function"
    },
    {
      "inputs": [],
      "name": "pause",
      "outputs": [],
      "stateMutability": "nonpayable",
      "type": "function"
    },
    {
      "inputs": [],
      "name": "paused",
      "outputs": [
        {
          "internalType": "bool",
          "name": "",
          "type": "bool"
        }
      ],
      "stateMutability": "view",
      "type": "function"
    },
    {
      "inputs": [],
      "name": "proxiableUUID",
      "outputs": [
        {
          "internalType": "bytes32",
          "name": "",
          "type": "bytes32"
        }
      ],
      "stateMutability": "view",
      "type": "function"
    },
    {
      "inputs": [],
      "name": "renounceOwnership",
      "outputs": [],
      "stateMutability": "nonpayable",
      "type": "function"
    },
    {
      "inputs": [
        {
          "internalType": "address",
          "name": "from",
          "type": "address"
        },
        {
          "internalType": "address",
          "name": "to",
          "type": "address"
        },
        {
          "internalType": "uint256",
          "name": "tokenId",
          "type": "uint256"
        }
      ],
      "name": "safeTransferFrom",
      "outputs": [],
      "stateMutability": "nonpayable",
      "type": "function"
    },
    {
      "inputs": [
        {
          "internalType": "address",
          "name": "from",
          "type": "address"
        },
        {
          "internalType": "address",
          "name": "to",
          "type": "address"
        },
        {
          "internalType": "uint256",
          "name": "tokenId",
          "type": "uint256"
        },
        {
          "internalType": "bytes",
          "name": "data",
          "type": "bytes"
        }
      ],
      "name": "safeTransferFrom",
      "outputs": [],
      "stateMutability": "nonpayable",
      "type": "function"
    },
    {
      "inputs": [
        {
          "internalType": "uint256",
          "name": "tokenId",
          "type": "uint256"
        },
        {
          "internalType": "address",
          "name": "admin",
          "type": "address"
        },
        {
          "internalType": "bool",
          "name": "isActive",
          "type": "bool"
        }
      ],
      "name": "setAdmin",
      "outputs": [],
      "stateMutability": "nonpayable",
      "type": "function"
    },
    {
      "inputs": [
        {
          "internalType": "address",
          "name": "operator",
          "type": "address"
        },
        {
          "internalType": "bool",
          "name": "approved",
          "type": "bool"
        }
      ],
      "name": "setApprovalForAll",
      "outputs": [],
      "stateMutability": "nonpayable",
      "type": "function"
    },
    {
      "inputs": [
        {
          "internalType": "uint256",
          "name": "tokenId",
          "type": "uint256"
        },
        {
          "internalType": "string",
          "name": "uri",
          "type": "string"
        }
      ],
      "name": "setTokenURI",
      "outputs": [],
      "stateMutability": "nonpayable",
      "type": "function"
    },
    {
      "inputs": [
        {
          "internalType": "bytes4",
          "name": "interfaceId",
          "type": "bytes4"
        }
      ],
      "name": "supportsInterface",
      "outputs": [
        {
          "internalType": "bool",
          "name": "",
          "type": "bool"
        }
      ],
      "stateMutability": "view",
      "type": "function"
    },
    {
      "inputs": [],
      "name": "symbol",
      "outputs": [
        {
          "internalType": "string",
          "name": "",
          "type": "string"
        }
      ],
      "stateMutability": "view",
      "type": "function"
    },
    {
      "inputs": [
        {
          "internalType": "uint256",
          "name": "index",
          "type": "uint256"
        }
      ],
      "name": "tokenByIndex",
      "outputs": [
        {
          "internalType": "uint256",
          "name": "",
          "type": "uint256"
        }
      ],
      "stateMutability": "view",
      "type": "function"
    },
    {
      "inputs": [
        {
          "internalType": "address",
          "name": "owner",
          "type": "address"
        },
        {
          "internalType": "uint256",
          "name": "index",
          "type": "uint256"
        }
      ],
      "name": "tokenOfOwnerByIndex",
      "outputs": [
        {
          "internalType": "uint256",
          "name": "",
          "type": "uint256"
        }
      ],
      "stateMutability": "view",
      "type": "function"
    },
    {
      "inputs": [
        {
          "internalType": "uint256",
          "name": "tokenId",
          "type": "uint256"
        }
      ],
      "name": "tokenURI",
      "outputs": [
        {
          "internalType": "string",
          "name": "",
          "type": "string"
        }
      ],
      "stateMutability": "view",
      "type": "function"
    },
    {
      "inputs": [],
      "name": "totalSupply",
      "outputs": [
        {
          "internalType": "uint256",
          "name": "",
          "type": "uint256"
        }
      ],
      "stateMutability": "view",
      "type": "function"
    },
    {
      "inputs": [
        {
          "internalType": "address",
          "name": "from",
          "type": "address"
        },
        {
          "internalType": "address",
          "name": "to",
          "type": "address"
        },
        {
          "internalType": "uint256",
          "name": "tokenId",
          "type": "uint256"
        }
      ],
      "name": "transferFrom",
      "outputs": [],
      "stateMutability": "nonpayable",
      "type": "function"
    },
    {
      "inputs": [
        {
          "internalType": "address",
          "name": "newOwner",
          "type": "address"
        }
      ],
      "name": "transferOwnership",
      "outputs": [],
      "stateMutability": "nonpayable",
      "type": "function"
    },
    {
      "inputs": [],
      "name": "unpause",
      "outputs": [],
      "stateMutability": "nonpayable",
      "type": "function"
    },
    {
      "inputs": [
        {
          "internalType": "address",
          "name": "newImplementation",
          "type": "address"
        }
      ],
      "name": "upgradeTo",
      "outputs": [],
      "stateMutability": "nonpayable",
      "type": "function"
    },
    {
      "inputs": [
        {
          "internalType": "address",
          "name": "newImplementation",
          "type": "address"
        },
        {
          "internalType": "bytes",
          "name": "data",
          "type": "bytes"
        }
      ],
      "name": "upgradeToAndCall",
      "outputs": [],
      "stateMutability": "payable",
      "type": "function"
    }
  ],
  "bytecode": {
    "object": "0x60a0604052306080523480156200001557600080fd5b506200002062000026565b620000e8565b600054610100900460ff1615620000935760405162461bcd60e51b815260206004820152602760248201527f496e697469616c697a61626c653a20636f6e747261637420697320696e697469604482015266616c697a696e6760c81b606482015260840160405180910390fd5b60005460ff9081161015620000e6576000805460ff191660ff9081179091556040519081527f7f26b83ff96e1f2b6a682f133852f6798a09c465da95921460cefb38474024989060200160405180910390a15b565b608051612a1b620001206000396000818161095c0152818161099c01528181610a6801528181610aa80152610bce0152612a1b6000f3fe6080604052600436106101cd5760003560e01c80636352211e116100f7578063a22cb46511610095578063d0def52111610064578063d0def521146104f6578063e060fb7614610516578063e985e9c51461055d578063f2fde38b146105a657600080fd5b8063a22cb46514610476578063b88d4fde14610496578063c47c946c146104b6578063c87b56dd146104d657600080fd5b80638456cb59116100d15780638456cb591461040d5780638da5cb5b14610422578063906571471461044157806395d89b411461046157600080fd5b80636352211e146103b857806370a08231146103d8578063715018a6146103f857600080fd5b80632f745c591161016f5780634f1ef2861161013e5780634f1ef286146103575780634f6ccce71461036a57806352d1902d1461038a5780635c975abb1461039f57600080fd5b80632f745c59146102e25780633659cfe6146103025780633f4ba83a1461032257806342842e0e1461033757600080fd5b8063095ea7b3116101ab578063095ea7b314610261578063162094c41461028357806318160ddd146102a357806323b872dd146102c257600080fd5b806301ffc9a7146101d257806306fdde0314610207578063081812fc14610229575b600080fd5b3480156101de57600080fd5b506101f26101ed3660046121dd565b6105c6565b60405190151581526020015b60405180910390f35b34801561021357600080fd5b5061021c6105f1565b6040516101fe919061224a565b34801561023557600080fd5b5061024961024436600461225d565b610683565b6040516001600160a01b0390911681526020016101fe565b34801561026d57600080fd5b5061028161027c366004612292565b6106aa565b005b34801561028f57600080fd5b5061028161029e36600461235f565b6107c4565b3480156102af57600080fd5b506099545b6040519081526020016101fe565b3480156102ce57600080fd5b506102816102dd3660046123a6565b61088b565b3480156102ee57600080fd5b506102b46102fd366004612292565b6108bc565b34801561030e57600080fd5b5061028161031d3660046123e2565b610952565b34801561032e57600080fd5b50610281610a31565b34801561034357600080fd5b506102816103523660046123a6565b610a43565b6102816103653660046123fd565b610a5e565b34801561037657600080fd5b506102b461038536600461225d565b610b2e565b34801561039657600080fd5b506102b4610bc1565b3480156103ab57600080fd5b5061015f5460ff166101f2565b3480156103c457600080fd5b506102496103d336600461225d565b610c74565b3480156103e457600080fd5b506102b46103f33660046123e2565b610cd4565b34801561040457600080fd5b50610281610d5a565b34801561041957600080fd5b50610281610d6c565b34801561042e57600080fd5b5061012d546001600160a01b0316610249565b34801561044d57600080fd5b5061028161045c366004612435565b610d7c565b34801561046d57600080fd5b5061021c610ebb565b34801561048257600080fd5b506102816104913660046124b9565b610eca565b3480156104a257600080fd5b506102816104b13660046124ec565b610ed5565b3480156104c257600080fd5b506102816104d1366004612554565b610f07565b3480156104e257600080fd5b5061021c6104f136600461225d565b611031565b34801561050257600080fd5b506102b46105113660046123fd565b6110d4565b34801561052257600080fd5b506101f2610531366004612590565b6000918252610193602090815260408084206001600160a01b0393909316845291905290205460ff1690565b34801561056957600080fd5b506101f26105783660046125b3565b6001600160a01b039182166000908152606a6020908152604080832093909416825291909152205460ff1690565b3480156105b257600080fd5b506102816105c13660046123e2565b6111f6565b60006001600160e01b0319821663780e9d6360e01b14806105eb57506105eb8261126c565b92915050565b606060658054610600906125dd565b80601f016020809104026020016040519081016040528092919081815260200182805461062c906125dd565b80156106795780601f1061064e57610100808354040283529160200191610679565b820191906000526020600020905b81548152906001019060200180831161065c57829003601f168201915b5050505050905090565b600061068e826112bc565b506000908152606960205260409020546001600160a01b031690565b60006106b582610c74565b9050806001600160a01b0316836001600160a01b0316036107275760405162461bcd60e51b815260206004820152602160248201527f4552433732313a20617070726f76616c20746f2063757272656e74206f776e656044820152603960f91b60648201526084015b60405180910390fd5b336001600160a01b038216148061074357506107438133610578565b6107b55760405162461bcd60e51b815260206004820152603d60248201527f4552433732313a20617070726f76652063616c6c6572206973206e6f7420746f60448201527f6b656e206f776e6572206f7220617070726f76656420666f7220616c6c000000606482015260840161071e565b6107bf838361131b565b505050565b6107cc611389565b6000828152606760205260409020546001600160a01b03166108425760405162461bcd60e51b815260206004820152602960248201527f736574546f6b656e5552493a2055524920736574206f66206e6f6e657869737460448201526832b73a103a37b5b2b760b91b606482015260840161071e565b60008281526101926020526040902061085b8282612665565b5060405182907ff8e1a15aba9398e019f0b49df1a4fde98ee17ae345cb5f6b5e2c27f5033e8ce790600090a25050565b61089533826113e4565b6108b15760405162461bcd60e51b815260040161071e90612725565b6107bf838383611463565b60006108c783610cd4565b82106109295760405162461bcd60e51b815260206004820152602b60248201527f455243373231456e756d657261626c653a206f776e657220696e646578206f7560448201526a74206f6620626f756e647360a81b606482015260840161071e565b506001600160a01b03919091166000908152609760209081526040808320938352929052205490565b6001600160a01b037f000000000000000000000000000000000000000000000000000000000000000016300361099a5760405162461bcd60e51b815260040161071e90612772565b7f00000000000000000000000000000000000000000000000000000000000000006001600160a01b03166109e360008051602061299f833981519152546001600160a01b031690565b6001600160a01b031614610a095760405162461bcd60e51b815260040161071e906127be565b610a1281611619565b60408051600080825260208201909252610a2e91839190611621565b50565b610a39611389565b610a4161178c565b565b6107bf83838360405180602001604052806000815250610ed5565b6001600160a01b037f0000000000000000000000000000000000000000000000000000000000000000163003610aa65760405162461bcd60e51b815260040161071e90612772565b7f00000000000000000000000000000000000000000000000000000000000000006001600160a01b0316610aef60008051602061299f833981519152546001600160a01b031690565b6001600160a01b031614610b155760405162461bcd60e51b815260040161071e906127be565b610b1e82611619565b610b2a82826001611621565b5050565b6000610b3960995490565b8210610b9c5760405162461bcd60e51b815260206004820152602c60248201527f455243373231456e756d657261626c653a20676c6f62616c20696e646578206f60448201526b7574206f6620626f756e647360a01b606482015260840161071e565b60998281548110610baf57610baf61280a565b90600052602060002001549050919050565b6000306001600160a01b037f00000000000000000000000000000000000000000000000000000000000000001614610c615760405162461bcd60e51b815260206004820152603860248201527f555550535570677261646561626c653a206d757374206e6f742062652063616c60448201527f6c6564207468726f7567682064656c656761746563616c6c0000000000000000606482015260840161071e565b5060008051602061299f83398151915290565b6000818152606760205260408120546001600160a01b0316806105eb5760405162461bcd60e51b8152602060048201526018602482015277115490cdcc8c4e881a5b9d985b1a59081d1bdad95b88125160421b604482015260640161071e565b60006001600160a01b038216610d3e5760405162461bcd60e51b815260206004820152602960248201527f4552433732313a2061646472657373207a65726f206973206e6f7420612076616044820152683634b21037bbb732b960b91b606482015260840161071e565b506001600160a01b031660009081526068602052604090205490565b610d62611389565b610a4160006117df565b610d74611389565b610a41611832565b600054610100900460ff1615808015610d9c5750600054600160ff909116105b80610db65750303b158015610db6575060005460ff166001145b610e195760405162461bcd60e51b815260206004820152602e60248201527f496e697469616c697a61626c653a20636f6e747261637420697320616c72656160448201526d191e481a5b9a5d1a585b1a5e995960921b606482015260840161071e565b6000805460ff191660011790558015610e3c576000805461ff0019166101001790555b610e44611870565b610e4e8383611897565b610e56611870565b610e5e6118c8565b610e67846111f6565b610e6f611832565b8015610eb5576000805461ff0019169055604051600181527f7f26b83ff96e1f2b6a682f133852f6798a09c465da95921460cefb38474024989060200160405180910390a15b50505050565b606060668054610600906125dd565b610b2a3383836118f7565b610edf33836113e4565b610efb5760405162461bcd60e51b815260040161071e90612725565b610eb5848484846119bd565b6000838152606760205260409020546001600160a01b0316610f6b5760405162461bcd60e51b815260206004820181905260248201527f61646441646d696e3a20746f6b656e496420646f6573206e6f74206578697374604482015260640161071e565b33610f7584610c74565b6001600160a01b031614610fc45760405162461bcd60e51b815260206004820152601660248201527518591910591b5a5b8e881d5b985d5d1a1bdc9a5e995960521b604482015260640161071e565b6000838152610193602090815260408083206001600160a01b03861680855290835292819020805460ff1916851515908117909155905190815285917faa7637c88c63659176aa6f1b9bde1a03fd88751320e1d40898bdf1a8459071de91015b60405180910390a3505050565b60008181526101926020526040902080546060919061104f906125dd565b80601f016020809104026020016040519081016040528092919081815260200182805461107b906125dd565b80156110c85780601f1061109d576101008083540402835291602001916110c8565b820191906000526020600020905b8154815290600101906020018083116110ab57829003601f168201915b50505050509050919050565b60006110e961012d546001600160a01b031690565b6001600160a01b0316336001600160a01b0316148061110c575061015f5460ff16155b6111585760405162461bcd60e51b815260206004820152601a60248201527f6d696e743a20756e617574686f72697a656420746f206d696e74000000000000604482015260640161071e565b61116761019180546001019055565b60006111736101915490565b90506001600160a01b0384166111cb5760405162461bcd60e51b815260206004820152601b60248201527f63616e6e6f74206d696e7420746f207a65726f20616464726573730000000000604482015260640161071e565b6111d584826119f0565b6000818152610192602052604090206111ee8482612665565b509392505050565b6111fe611389565b6001600160a01b0381166112635760405162461bcd60e51b815260206004820152602660248201527f4f776e61626c653a206e6577206f776e657220697320746865207a65726f206160448201526564647265737360d01b606482015260840161071e565b610a2e816117df565b60006001600160e01b031982166380ac58cd60e01b148061129d57506001600160e01b03198216635b5e139f60e01b145b806105eb57506301ffc9a760e01b6001600160e01b03198316146105eb565b6000818152606760205260409020546001600160a01b0316610a2e5760405162461bcd60e51b8152602060048201526018602482015277115490cdcc8c4e881a5b9d985b1a59081d1bdad95b88125160421b604482015260640161071e565b600081815260696020526040902080546001600160a01b0319166001600160a01b038416908117909155819061135082610c74565b6001600160a01b03167f8c5be1e5ebec7d5bd14f71427d1e84f3dd0314c0f7b2291e5b200ac8c7c3b92560405160405180910390a45050565b61012d546001600160a01b03163314610a415760405162461bcd60e51b815260206004820181905260248201527f4f776e61626c653a2063616c6c6572206973206e6f7420746865206f776e6572604482015260640161071e565b6000806113f083610c74565b9050806001600160a01b0316846001600160a01b0316148061143757506001600160a01b038082166000908152606a602090815260408083209388168352929052205460ff165b8061145b5750836001600160a01b031661145084610683565b6001600160a01b0316145b949350505050565b826001600160a01b031661147682610c74565b6001600160a01b0316146114da5760405162461bcd60e51b815260206004820152602560248201527f4552433732313a207472616e736665722066726f6d20696e636f72726563742060448201526437bbb732b960d91b606482015260840161071e565b6001600160a01b03821661153c5760405162461bcd60e51b8152602060048201526024808201527f4552433732313a207472616e7366657220746f20746865207a65726f206164646044820152637265737360e01b606482015260840161071e565b611547838383611b3e565b600081815260696020908152604080832080546001600160a01b03191690556001600160a01b03861683526068909152812080546001929061158a908490612836565b90915550506001600160a01b03821660009081526068602052604081208054600192906115b8908490612849565b909155505060008181526067602052604080822080546001600160a01b0319166001600160a01b0386811691821790925591518493918716917fddf252ad1be2c89b69c2b068fc378daa952ba7f163c4a11628f55a4df523b3ef91a4505050565b610a2e611389565b7f4910fdfa16fed3260ed0e7147f7cc6da11a60208b5b9406d12a635614ffd91435460ff1615611654576107bf83611bf6565b826001600160a01b03166352d1902d6040518163ffffffff1660e01b8152600401602060405180830381865afa9250505080156116ae575060408051601f3d908101601f191682019092526116ab9181019061285c565b60015b6117115760405162461bcd60e51b815260206004820152602e60248201527f45524331393637557067726164653a206e657720696d706c656d656e7461746960448201526d6f6e206973206e6f74205555505360901b606482015260840161071e565b60008051602061299f83398151915281146117805760405162461bcd60e51b815260206004820152602960248201527f45524331393637557067726164653a20756e737570706f727465642070726f786044820152681a58589b195555525160ba1b606482015260840161071e565b506107bf838383611c92565b611794611cb7565b61015f805460ff191690557f5db9ee0a495bf2e6ff9c91a7834c1ba4fdd244a5e8aa4e537bd38aeae4b073aa335b6040516001600160a01b03909116815260200160405180910390a1565b61012d80546001600160a01b038381166001600160a01b0319831681179093556040519116919082907f8be0079c531659141344cd1fd0a4f28419497f9722a3daafe3b4186f6b6457e090600090a35050565b61183a611d01565b61015f805460ff191660011790557f62e78cea01bee320cd4e420270b5ea74000d11b0c9f74754ebdbfc544b05a2586117c23390565b600054610100900460ff16610a415760405162461bcd60e51b815260040161071e90612875565b600054610100900460ff166118be5760405162461bcd60e51b815260040161071e90612875565b610b2a8282611d48565b600054610100900460ff166118ef5760405162461bcd60e51b815260040161071e90612875565b610a41611d88565b816001600160a01b0316836001600160a01b0316036119585760405162461bcd60e51b815260206004820152601960248201527f4552433732313a20617070726f766520746f2063616c6c657200000000000000604482015260640161071e565b6001600160a01b038381166000818152606a6020908152604080832094871680845294825291829020805460ff191686151590811790915591519182527f17307eab39ab6107e8899845ad3d59bd9653f200f220920489ca2b5937696c319101611024565b6119c8848484611463565b6119d484848484611db8565b610eb55760405162461bcd60e51b815260040161071e906128c0565b6001600160a01b038216611a465760405162461bcd60e51b815260206004820181905260248201527f4552433732313a206d696e7420746f20746865207a65726f2061646472657373604482015260640161071e565b6000818152606760205260409020546001600160a01b031615611aab5760405162461bcd60e51b815260206004820152601c60248201527f4552433732313a20746f6b656e20616c7265616479206d696e74656400000000604482015260640161071e565b611ab760008383611b3e565b6001600160a01b0382166000908152606860205260408120805460019290611ae0908490612849565b909155505060008181526067602052604080822080546001600160a01b0319166001600160a01b03861690811790915590518392907fddf252ad1be2c89b69c2b068fc378daa952ba7f163c4a11628f55a4df523b3ef908290a45050565b6001600160a01b038316611b9957611b9481609980546000838152609a60205260408120829055600182018355919091527f72a152ddfb8e864297c917af52ea6c1c68aead0fee1a62673fcc7e0c94979d000155565b611bbc565b816001600160a01b0316836001600160a01b031614611bbc57611bbc8382611eb9565b6001600160a01b038216611bd3576107bf81611f56565b826001600160a01b0316826001600160a01b0316146107bf576107bf8282612005565b6001600160a01b0381163b611c635760405162461bcd60e51b815260206004820152602d60248201527f455243313936373a206e657720696d706c656d656e746174696f6e206973206e60448201526c1bdd08184818dbdb9d1c9858dd609a1b606482015260840161071e565b60008051602061299f83398151915280546001600160a01b0319166001600160a01b0392909216919091179055565b611c9b83612049565b600082511180611ca85750805b156107bf57610eb58383612089565b61015f5460ff16610a415760405162461bcd60e51b815260206004820152601460248201527314185d5cd8589b194e881b9bdd081c185d5cd95960621b604482015260640161071e565b61015f5460ff1615610a415760405162461bcd60e51b815260206004820152601060248201526f14185d5cd8589b194e881c185d5cd95960821b604482015260640161071e565b600054610100900460ff16611d6f5760405162461bcd60e51b815260040161071e90612875565b6065611d7b8382612665565b5060666107bf8282612665565b600054610100900460ff16611daf5760405162461bcd60e51b815260040161071e90612875565b610a41336117df565b60006001600160a01b0384163b15611eae57604051630a85bd0160e11b81526001600160a01b0385169063150b7a0290611dfc903390899088908890600401612912565b6020604051808303816000875af1925050508015611e37575060408051601f3d908101601f19168201909252611e349181019061294f565b60015b611e94573d808015611e65576040519150601f19603f3d011682016040523d82523d6000602084013e611e6a565b606091505b508051600003611e8c5760405162461bcd60e51b815260040161071e906128c0565b805181602001fd5b6001600160e01b031916630a85bd0160e11b14905061145b565b506001949350505050565b60006001611ec684610cd4565b611ed09190612836565b600083815260986020526040902054909150808214611f23576001600160a01b03841660009081526097602090815260408083208584528252808320548484528184208190558352609890915290208190555b5060009182526098602090815260408084208490556001600160a01b039094168352609781528383209183525290812055565b609954600090611f6890600190612836565b6000838152609a602052604081205460998054939450909284908110611f9057611f9061280a565b906000526020600020015490508060998381548110611fb157611fb161280a565b6000918252602080832090910192909255828152609a90915260408082208490558582528120556099805480611fe957611fe961296c565b6001900381819060005260206000200160009055905550505050565b600061201083610cd4565b6001600160a01b039093166000908152609760209081526040808320868452825280832085905593825260989052919091209190915550565b61205281611bf6565b6040516001600160a01b038216907fbc7cd75a20ee27fd9adebab32041f755214dbc6bffa90cc0225b39da2e5c2d3b90600090a250565b60606001600160a01b0383163b6120f15760405162461bcd60e51b815260206004820152602660248201527f416464726573733a2064656c65676174652063616c6c20746f206e6f6e2d636f6044820152651b9d1c9858dd60d21b606482015260840161071e565b600080846001600160a01b03168460405161210c9190612982565b600060405180830381855af49150503d8060008114612147576040519150601f19603f3d011682016040523d82523d6000602084013e61214c565b606091505b509150915061217482826040518060600160405280602781526020016129bf6027913961217d565b95945050505050565b6060831561218c575081612196565b612196838361219d565b9392505050565b8151156121ad5781518083602001fd5b8060405162461bcd60e51b815260040161071e919061224a565b6001600160e01b031981168114610a2e57600080fd5b6000602082840312156121ef57600080fd5b8135612196816121c7565b60005b838110156122155781810151838201526020016121fd565b50506000910152565b600081518084526122368160208601602086016121fa565b601f01601f19169290920160200192915050565b602081526000612196602083018461221e565b60006020828403121561226f57600080fd5b5035919050565b80356001600160a01b038116811461228d57600080fd5b919050565b600080604083850312156122a557600080fd5b6122ae83612276565b946020939093013593505050565b634e487b7160e01b600052604160045260246000fd5b600082601f8301126122e357600080fd5b813567ffffffffffffffff808211156122fe576122fe6122bc565b604051601f8301601f19908116603f01168101908282118183101715612326576123266122bc565b8160405283815286602085880101111561233f57600080fd5b836020870160208301376000602085830101528094505050505092915050565b6000806040838503121561237257600080fd5b82359150602083013567ffffffffffffffff81111561239057600080fd5b61239c858286016122d2565b9150509250929050565b6000806000606084860312156123bb57600080fd5b6123c484612276565b92506123d260208501612276565b9150604084013590509250925092565b6000602082840312156123f457600080fd5b61219682612276565b6000806040838503121561241057600080fd5b61241983612276565b9150602083013567ffffffffffffffff81111561239057600080fd5b60008060006060848603121561244a57600080fd5b61245384612276565b9250602084013567ffffffffffffffff8082111561247057600080fd5b61247c878388016122d2565b9350604086013591508082111561249257600080fd5b5061249f868287016122d2565b9150509250925092565b8035801515811461228d57600080fd5b600080604083850312156124cc57600080fd5b6124d583612276565b91506124e3602084016124a9565b90509250929050565b6000806000806080858703121561250257600080fd5b61250b85612276565b935061251960208601612276565b925060408501359150606085013567ffffffffffffffff81111561253c57600080fd5b612548878288016122d2565b91505092959194509250565b60008060006060848603121561256957600080fd5b8335925061257960208501612276565b9150612587604085016124a9565b90509250925092565b600080604083850312156125a357600080fd5b823591506124e360208401612276565b600080604083850312156125c657600080fd5b6125cf83612276565b91506124e360208401612276565b600181811c908216806125f157607f821691505b60208210810361261157634e487b7160e01b600052602260045260246000fd5b50919050565b601f8211156107bf57600081815260208120601f850160051c8101602086101561263e5750805b601f850160051c820191505b8181101561265d5782815560010161264a565b505050505050565b815167ffffffffffffffff81111561267f5761267f6122bc565b6126938161268d84546125dd565b84612617565b602080601f8311600181146126c857600084156126b05750858301515b600019600386901b1c1916600185901b17855561265d565b600085815260208120601f198616915b828110156126f7578886015182559484019460019091019084016126d8565b50858210156127155787850151600019600388901b60f8161c191681555b5050505050600190811b01905550565b6020808252602d908201527f4552433732313a2063616c6c6572206973206e6f7420746f6b656e206f776e6560408201526c1c881bdc88185c1c1c9bdd9959609a1b606082015260800190565b6020808252602c908201527f46756e6374696f6e206d7573742062652063616c6c6564207468726f7567682060408201526b19195b1959d85d1958d85b1b60a21b606082015260800190565b6020808252602c908201527f46756e6374696f6e206d7573742062652063616c6c6564207468726f7567682060408201526b6163746976652070726f787960a01b606082015260800190565b634e487b7160e01b600052603260045260246000fd5b634e487b7160e01b600052601160045260246000fd5b818103818111156105eb576105eb612820565b808201808211156105eb576105eb612820565b60006020828403121561286e57600080fd5b5051919050565b6020808252602b908201527f496e697469616c697a61626c653a20636f6e7472616374206973206e6f74206960408201526a6e697469616c697a696e6760a81b606082015260800190565b60208082526032908201527f4552433732313a207472616e7366657220746f206e6f6e20455243373231526560408201527131b2b4bb32b91034b6b83632b6b2b73a32b960711b606082015260800190565b6001600160a01b03858116825284166020820152604081018390526080606082018190526000906129459083018461221e565b9695505050505050565b60006020828403121561296157600080fd5b8151612196816121c7565b634e487b7160e01b600052603160045260246000fd5b600082516129948184602087016121fa565b919091019291505056fe360894a13ba1a3210667c828492db98dca3e2076cc3735a920a3ca505d382bbc416464726573733a206c6f772d6c6576656c2064656c65676174652063616c6c206661696c6564a26469706673582212201035292279b596eb09c43ed513a09c81e92dfa88692c0fb9dc2357ac0988274e64736f6c63430008100033",
    "linkReferences": {}
  },
  "methodIdentifiers": {
    "approve(address,uint256)": "095ea7b3",
    "balanceOf(address)": "70a08231",
    "getApproved(uint256)": "081812fc",
    "initialize(address,string,string)": "90657147",
    "isAdminActive(uint256,address)": "e060fb76",
    "isApprovedForAll(address,address)": "e985e9c5",
    "mint(address,string)": "d0def521",
    "name()": "06fdde03",
    "owner()": "8da5cb5b",
    "ownerOf(uint256)": "6352211e",
    "pause()": "8456cb59",
    "paused()": "5c975abb",
    "proxiableUUID()": "52d1902d",
    "renounceOwnership()": "715018a6",
    "safeTransferFrom(address,address,uint256)": "42842e0e",
    "safeTransferFrom(address,address,uint256,bytes)": "b88d4fde",
    "setAdmin(uint256,address,bool)": "c47c946c",
    "setApprovalForAll(address,bool)": "a22cb465",
    "setTokenURI(uint256,string)": "162094c4",
    "supportsInterface(bytes4)": "01ffc9a7",
    "symbol()": "95d89b41",
    "tokenByIndex(uint256)": "4f6ccce7",
    "tokenOfOwnerByIndex(address,uint256)": "2f745c59",
    "tokenURI(uint256)": "c87b56dd",
    "totalSupply()": "18160ddd",
    "transferFrom(address,address,uint256)": "23b872dd",
    "transferOwnership(address)": "f2fde38b",
    "unpause()": "3f4ba83a",
    "upgradeTo(address)": "3659cfe6",
    "upgradeToAndCall(address,bytes)": "4f1ef286"
  },
  "id": 48
}