{
  "abi": [
    {
      "inputs": [],
      "stateMutability": "nonpayable",
      "type": "constructor"
    },
    {
      "anonymous": false,
      "inputs": [
        {
          "indexed": false,
          "internalType": "address",
          "name": "previousAdmin",
          "type": "address"
        },
        {
          "indexed": false,
          "internalType": "address",
          "name": "newAdmin",
          "type": "address"
        }
      ],
      "name": "AdminChanged",
      "type": "event"
    },
    {
      "anonymous": false,
      "inputs": [
        {
          "indexed": true,
          "internalType": "uint256",
          "name": "tokenId",
          "type": "uint256"
        },
        {
          "indexed": true,
          "internalType": "address",
          "name": "from",
          "type": "address"
        }
      ],
      "name": "BadgeReinstated",
      "type": "event"
    },
    {
      "anonymous": false,
      "inputs": [
        {
          "indexed": true,
          "internalType": "uint256",
          "name": "tokenId",
          "type": "uint256"
        },
        {
          "indexed": true,
          "internalType": "address",
          "name": "from",
          "type": "address"
        },
        {
          "indexed": true,
          "internalType": "uint8",
          "name": "reason",
          "type": "uint8"
        }
      ],
      "name": "BadgeRevoked",
      "type": "event"
    },
    {
      "anonymous": false,
      "inputs": [
        {
          "indexed": true,
          "internalType": "address",
          "name": "beacon",
          "type": "address"
        }
      ],
      "name": "BeaconUpgraded",
      "type": "event"
    },
    {
      "anonymous": false,
      "inputs": [
        {
          "indexed": false,
          "internalType": "uint8",
          "name": "version",
          "type": "uint8"
        }
      ],
      "name": "Initialized",
      "type": "event"
    },
    {
      "anonymous": false,
      "inputs": [
        {
          "indexed": true,
          "internalType": "address",
          "name": "previousOwner",
          "type": "address"
        },
        {
          "indexed": true,
          "internalType": "address",
          "name": "newOwner",
          "type": "address"
        }
      ],
      "name": "OwnershipTransferred",
      "type": "event"
    },
    {
      "anonymous": false,
      "inputs": [
        {
          "indexed": false,
          "internalType": "string[]",
          "name": "specUris",
          "type": "string[]"
        },
        {
          "indexed": false,
          "internalType": "address",
          "name": "sender",
          "type": "address"
        }
      ],
      "name": "RefreshMetadata",
      "type": "event"
    },
    {
      "anonymous": false,
      "inputs": [
        {
          "indexed": true,
          "internalType": "address",
          "name": "to",
          "type": "address"
        },
        {
          "indexed": false,
          "internalType": "string",
          "name": "specUri",
          "type": "string"
        },
        {
          "indexed": true,
          "internalType": "uint256",
          "name": "raftTokenId",
          "type": "uint256"
        },
        {
          "indexed": true,
          "internalType": "address",
          "name": "raftAddress",
          "type": "address"
        }
      ],
      "name": "SpecCreated",
      "type": "event"
    },
    {
      "anonymous": false,
      "inputs": [
        {
          "indexed": true,
          "internalType": "address",
          "name": "from",
          "type": "address"
        },
        {
          "indexed": true,
          "internalType": "address",
          "name": "to",
          "type": "address"
        },
        {
          "indexed": true,
          "internalType": "uint256",
          "name": "tokenId",
          "type": "uint256"
        }
      ],
      "name": "Transfer",
      "type": "event"
    },
    {
      "anonymous": false,
      "inputs": [
        {
          "indexed": true,
          "internalType": "address",
          "name": "implementation",
          "type": "address"
        }
      ],
      "name": "Upgraded",
      "type": "event"
    },
    {
      "inputs": [
        {
          "internalType": "address",
          "name": "_owner",
          "type": "address"
        }
      ],
      "name": "balanceOf",
      "outputs": [
        {
          "internalType": "uint256",
          "name": "",
          "type": "uint256"
        }
      ],
      "stateMutability": "view",
      "type": "function"
    },
    {
      "inputs": [
        {
          "internalType": "string",
          "name": "_specUri",
          "type": "string"
        },
        {
          "internalType": "uint256",
          "name": "_raftTokenId",
          "type": "uint256"
        }
      ],
      "name": "createSpec",
      "outputs": [],
      "stateMutability": "nonpayable",
      "type": "function"
    },
    {
      "inputs": [
        {
          "internalType": "address",
          "name": "_from",
          "type": "address"
        },
        {
          "internalType": "address",
          "name": "_to",
          "type": "address"
        },
        {
          "internalType": "string",
          "name": "_uri",
          "type": "string"
        }
      ],
      "name": "getAgreementHash",
      "outputs": [
        {
          "internalType": "bytes32",
          "name": "",
          "type": "bytes32"
        }
      ],
      "stateMutability": "view",
      "type": "function"
    },
    {
      "inputs": [
        {
          "internalType": "address",
          "name": "_to",
          "type": "address"
        },
        {
          "internalType": "string",
          "name": "_uri",
          "type": "string"
        }
      ],
      "name": "getBadgeIdHash",
      "outputs": [
        {
          "internalType": "bytes32",
          "name": "",
          "type": "bytes32"
        }
      ],
      "stateMutability": "view",
      "type": "function"
    },
    {
      "inputs": [],
      "name": "getDataHolderAddress",
      "outputs": [
        {
          "internalType": "address",
          "name": "",
          "type": "address"
        }
      ],
      "stateMutability": "view",
      "type": "function"
    },
    {
      "inputs": [
        {
          "internalType": "address",
          "name": "_issuer",
          "type": "address"
        },
        {
          "internalType": "string",
          "name": "_uri",
          "type": "string"
        },
        {
          "internalType": "bytes32",
          "name": "_root",
          "type": "bytes32"
        }
      ],
      "name": "getMerkleAgreementHash",
      "outputs": [
        {
          "internalType": "bytes32",
          "name": "",
          "type": "bytes32"
        }
      ],
      "stateMutability": "view",
      "type": "function"
    },
    {
      "inputs": [
        {
          "internalType": "uint256",
          "name": "_tokenId",
          "type": "uint256"
        }
      ],
      "name": "getVoucherHash",
      "outputs": [
        {
          "internalType": "uint256",
          "name": "",
          "type": "uint256"
        }
      ],
      "stateMutability": "view",
      "type": "function"
    },
    {
      "inputs": [
        {
          "internalType": "address",
          "name": "_to",
          "type": "address"
        },
        {
          "internalType": "string",
          "name": "_uri",
          "type": "string"
        },
        {
          "internalType": "bytes",
          "name": "_signature",
          "type": "bytes"
        }
      ],
      "name": "give",
      "outputs": [
        {
          "internalType": "uint256",
          "name": "",
          "type": "uint256"
        }
      ],
      "stateMutability": "nonpayable",
      "type": "function"
    },
    {
      "inputs": [
        {
          "internalType": "string",
          "name": "_name",
          "type": "string"
        },
        {
          "internalType": "string",
          "name": "_symbol",
          "type": "string"
        },
        {
          "internalType": "string",
          "name": "_version",
          "type": "string"
        },
        {
          "internalType": "address",
          "name": "_nextOwner",
          "type": "address"
        },
        {
          "internalType": "address",
          "name": "_specDataHolderAddress",
          "type": "address"
        }
      ],
      "name": "initialize",
      "outputs": [],
      "stateMutability": "nonpayable",
      "type": "function"
    },
    {
      "inputs": [
        {
          "internalType": "uint256",
          "name": "_badgeId",
          "type": "uint256"
        }
      ],
      "name": "isBadgeValid",
      "outputs": [
        {
          "internalType": "bool",
          "name": "",
          "type": "bool"
        }
      ],
      "stateMutability": "view",
      "type": "function"
    },
    {
      "inputs": [
        {
          "internalType": "address",
          "name": "_from",
          "type": "address"
        },
        {
          "internalType": "string",
          "name": "_uri",
          "type": "string"
        },
        {
          "internalType": "bytes",
          "name": "_signature",
          "type": "bytes"
        },
        {
          "internalType": "bytes32",
          "name": "root",
          "type": "bytes32"
        },
        {
          "internalType": "bytes32[]",
          "name": "proof",
          "type": "bytes32[]"
        }
      ],
      "name": "merkleTake",
      "outputs": [
        {
          "internalType": "uint256",
          "name": "",
          "type": "uint256"
        }
      ],
      "stateMutability": "nonpayable",
      "type": "function"
    },
    {
      "inputs": [],
      "name": "name",
      "outputs": [
        {
          "internalType": "string",
          "name": "",
          "type": "string"
        }
      ],
      "stateMutability": "view",
      "type": "function"
    },
    {
      "inputs": [],
      "name": "owner",
      "outputs": [
        {
          "internalType": "address",
          "name": "",
          "type": "address"
        }
      ],
      "stateMutability": "view",
      "type": "function"
    },
    {
      "inputs": [
        {
          "internalType": "uint256",
          "name": "_tokenId",
          "type": "uint256"
        }
      ],
      "name": "ownerOf",
      "outputs": [
        {
          "internalType": "address",
          "name": "",
          "type": "address"
        }
      ],
      "stateMutability": "view",
      "type": "function"
    },
    {
      "inputs": [],
      "name": "proxiableUUID",
      "outputs": [
        {
          "internalType": "bytes32",
          "name": "",
          "type": "bytes32"
        }
      ],
      "stateMutability": "view",
      "type": "function"
    },
    {
      "inputs": [
        {
          "internalType": "string[]",
          "name": "_specUris",
          "type": "string[]"
        }
      ],
      "name": "refreshMetadata",
      "outputs": [],
      "stateMutability": "nonpayable",
      "type": "function"
    },
    {
      "inputs": [
        {
          "internalType": "uint256",
          "name": "_raftTokenId",
          "type": "uint256"
        },
        {
          "internalType": "uint256",
          "name": "_badgeId",
          "type": "uint256"
        }
      ],
      "name": "reinstateBadge",
      "outputs": [],
      "stateMutability": "nonpayable",
      "type": "function"
    },
    {
      "inputs": [],
      "name": "renounceOwnership",
      "outputs": [],
      "stateMutability": "nonpayable",
      "type": "function"
    },
    {
      "inputs": [
        {
          "internalType": "uint256",
          "name": "_raftTokenId",
          "type": "uint256"
        },
        {
          "internalType": "uint256",
          "name": "_badgeId",
          "type": "uint256"
        },
        {
          "internalType": "uint8",
          "name": "_reason",
          "type": "uint8"
        }
      ],
      "name": "revokeBadge",
      "outputs": [],
      "stateMutability": "nonpayable",
      "type": "function"
    },
    {
      "inputs": [
        {
          "internalType": "address",
          "name": "_to",
          "type": "address"
        },
        {
          "internalType": "address",
          "name": "_from",
          "type": "address"
        },
        {
          "internalType": "string",
          "name": "_uri",
          "type": "string"
        },
        {
          "internalType": "bytes",
          "name": "_signature",
          "type": "bytes"
        },
        {
          "internalType": "bytes32",
          "name": "_root",
          "type": "bytes32"
        },
        {
          "internalType": "bytes32[]",
          "name": "_proof",
          "type": "bytes32[]"
        }
      ],
      "name": "safeCheckMerkleAgreement",
      "outputs": [
        {
          "internalType": "uint256",
          "name": "",
          "type": "uint256"
        }
      ],
      "stateMutability": "view",
      "type": "function"
    },
    {
      "inputs": [
        {
          "internalType": "address",
          "name": "_dataHolder",
          "type": "address"
        }
      ],
      "name": "setDataHolder",
      "outputs": [],
      "stateMutability": "nonpayable",
      "type": "function"
    },
    {
      "inputs": [
        {
          "internalType": "bytes4",
          "name": "_interfaceId",
          "type": "bytes4"
        }
      ],
      "name": "supportsInterface",
      "outputs": [
        {
          "internalType": "bool",
          "name": "",
          "type": "bool"
        }
      ],
      "stateMutability": "view",
      "type": "function"
    },
    {
      "inputs": [],
      "name": "symbol",
      "outputs": [
        {
          "internalType": "string",
          "name": "",
          "type": "string"
        }
      ],
      "stateMutability": "view",
      "type": "function"
    },
    {
      "inputs": [
        {
          "internalType": "address",
          "name": "_from",
          "type": "address"
        },
        {
          "internalType": "string",
          "name": "_uri",
          "type": "string"
        },
        {
          "internalType": "bytes",
          "name": "_signature",
          "type": "bytes"
        }
      ],
      "name": "take",
      "outputs": [
        {
          "internalType": "uint256",
          "name": "",
          "type": "uint256"
        }
      ],
      "stateMutability": "nonpayable",
      "type": "function"
    },
    {
      "inputs": [
        {
          "internalType": "uint256",
          "name": "_tokenId",
          "type": "uint256"
        }
      ],
      "name": "tokenURI",
      "outputs": [
        {
          "internalType": "string",
          "name": "",
          "type": "string"
        }
      ],
      "stateMutability": "view",
      "type": "function"
    },
    {
      "inputs": [
        {
          "internalType": "address",
          "name": "newOwner",
          "type": "address"
        }
      ],
      "name": "transferOwnership",
      "outputs": [],
      "stateMutability": "nonpayable",
      "type": "function"
    },
    {
      "inputs": [
        {
          "internalType": "uint256",
          "name": "_tokenId",
          "type": "uint256"
        }
      ],
      "name": "unequip",
      "outputs": [],
      "stateMutability": "nonpayable",
      "type": "function"
    },
    {
      "inputs": [
        {
          "internalType": "address",
          "name": "newImplementation",
          "type": "address"
        }
      ],
      "name": "upgradeTo",
      "outputs": [],
      "stateMutability": "nonpayable",
      "type": "function"
    },
    {
      "inputs": [
        {
          "internalType": "address",
          "name": "newImplementation",
          "type": "address"
        },
        {
          "internalType": "bytes",
          "name": "data",
          "type": "bytes"
        }
      ],
      "name": "upgradeToAndCall",
      "outputs": [],
      "stateMutability": "payable",
      "type": "function"
    }
  ],
  "bytecode": {
    "object": "0x60a0604052306080523480156200001557600080fd5b506200002062000026565b620000e8565b600054610100900460ff1615620000935760405162461bcd60e51b815260206004820152602760248201527f496e697469616c697a61626c653a20636f6e747261637420697320696e697469604482015266616c697a696e6760c81b606482015260840160405180910390fd5b60005460ff9081161015620000e6576000805460ff191660ff9081179091556040519081527f7f26b83ff96e1f2b6a682f133852f6798a09c465da95921460cefb38474024989060200160405180910390a15b565b60805161390662000120600039600081816108ac015281816108ec01528181610eaa01528181610eea0152610f7d01526139066000f3fe6080604052600436106101c25760003560e01c80637c402f8d116100f7578063bdbdbcbf11610095578063d6d0faee11610064578063d6d0faee14610503578063e499250614610523578063ec64948e14610543578063f2fde38b1461056357600080fd5b8063bdbdbcbf14610483578063c0184112146104a3578063c87b56dd146104c3578063d179e3d0146104e357600080fd5b806395d89b41116100d157806395d89b411461040e578063a394780314610423578063a8cf868314610443578063bd6645e41461046357600080fd5b80637c402f8d146103b057806380956c7e146103d05780638da5cb5b146103f057600080fd5b80634a086b53116101645780636352211e1161013e5780636352211e14610324578063635ad9931461035c57806370a082311461037b578063715018a61461039b57600080fd5b80634a086b53146102dc5780634f1ef286146102fc57806352d1902d1461030f57600080fd5b806322e7d2ee116101a057806322e7d2ee1461023e5780633659cfe61461026c5780633b363a091461028e578063445a62b9146102bc57600080fd5b806301ffc9a7146101c757806306fdde03146101fc5780630f4d9b011461021e575b600080fd5b3480156101d357600080fd5b506101e76101e2366004612c5e565b610583565b60405190151581526020015b60405180910390f35b34801561020857600080fd5b506102116105d5565b6040516101f39190612cd8565b34801561022a57600080fd5b506101e7610239366004612ceb565b610668565b34801561024a57600080fd5b5061025e610259366004612d9e565b6106cf565b6040519081526020016101f3565b34801561027857600080fd5b5061028c610287366004612e68565b6108a2565b005b34801561029a57600080fd5b5061025e6102a9366004612ceb565b6000908152610136602052604090205490565b3480156102c857600080fd5b5061028c6102d7366004612f42565b610981565b3480156102e857600080fd5b5061025e6102f7366004612f86565b610c5d565b61028c61030a36600461303b565b610ea0565b34801561031b57600080fd5b5061025e610f70565b34801561033057600080fd5b5061034461033f366004612ceb565b611023565b6040516001600160a01b0390911681526020016101f3565b34801561036857600080fd5b50610135546001600160a01b0316610344565b34801561038757600080fd5b5061025e610396366004612e68565b611078565b3480156103a757600080fd5b5061028c611103565b3480156103bc57600080fd5b5061028c6103cb36600461309e565b611117565b3480156103dc57600080fd5b5061028c6103eb3660046130dd565b611301565b3480156103fc57600080fd5b5060c9546001600160a01b0316610344565b34801561041a57600080fd5b506102116114e4565b34801561042f57600080fd5b5061025e61043e3660046130ff565b6114f4565b34801561044f57600080fd5b5061025e61045e366004613181565b611731565b34801561046f57600080fd5b5061025e61047e3660046131c6565b611764565b34801561048f57600080fd5b5061028c61049e366004613221565b6117fc565b3480156104af57600080fd5b5061028c6104be366004612e68565b6118a0565b3480156104cf57600080fd5b506102116104de366004612ceb565b6118cb565b3480156104ef57600080fd5b5061028c6104fe366004612ceb565b6119d2565b34801561050f57600080fd5b5061028c61051e3660046132e3565b611aae565b34801561052f57600080fd5b5061025e61053e366004613392565b611c1f565b34801561054f57600080fd5b5061025e61055e3660046130ff565b611c8d565b34801561056f57600080fd5b5061028c61057e366004612e68565b611e78565b60006001600160e01b03198216635b5e139f60e01b14806105b457506001600160e01b031982166346bdd63960e11b145b806105cf57506301ffc9a760e01b6001600160e01b03198316145b92915050565b606061013080546105e5906133f6565b80601f0160208091040260200160405190810160405280929190818152602001828054610611906133f6565b801561065e5780601f106106335761010080835404028352916020019161065e565b820191906000526020600020905b81548152906001019060200180831161064157829003601f168201915b5050505050905090565b6000818152610132602052604081205482906001600160a01b03166106a85760405162461bcd60e51b815260040161069f9061342a565b60405180910390fd5b600883901c60009081526101376020526040902054600160ff85161b161591505b50919050565b6000806106de8a8a8a88611764565b90506107218a8289898080601f016020809104026020016040519081016040528093929190818152602001838380828437600092019190915250611eee92505050565b6107815760405162461bcd60e51b815260206004820152602b60248201527f73616665436865636b4d65726b6c6541677265656d656e743a20696e76616c6960448201526a64207369676e617475726560a81b606482015260840161069f565b6040516bffffffffffffffffffffffff1960608d901b1660208201526000906034016040516020818303038152906040528051906020012090506107fb8585808060200260200160405190810160405280939291908181526020018383602002808284376000920191909152508a92508591506120329050565b6108565760405162461bcd60e51b815260206004820152602660248201527f73616665436865636b4d65726b6c6541677265656d656e743a20696e76616c6960448201526532103632b0b360d11b606482015260840161069f565b604080516001600160a01b03808e1660208301528e169181019190915260009060600160408051808303601f1901815291905280516020909101209d9c50505050505050505050505050565b6001600160a01b037f00000000000000000000000000000000000000000000000000000000000000001630036108ea5760405162461bcd60e51b815260040161069f9061345f565b7f00000000000000000000000000000000000000000000000000000000000000006001600160a01b031661093360008051602061388a833981519152546001600160a01b031690565b6001600160a01b0316146109595760405162461bcd60e51b815260040161069f906134ab565b61096281612048565b6040805160008082526020820190925261097e91839190612050565b50565b806040518060400160405280600a8152602001696372656174655370656360b01b8152506000816040516020016109b891906134f7565b60408051808303601f19018152908290526101355463b2a0cb6b60e01b83526004830186905290925033916001600160a01b039091169063b2a0cb6b90602401602060405180830381865afa158015610a15573d6000803e3d6000fd5b505050506040513d601f19601f82011682018060405250810190610a399190613529565b6001600160a01b0316148190610a625760405162461bcd60e51b815260040161069f9190612cd8565b5061013554604051637e07102760e11b81526001600160a01b039091169063fc0e204e90610a94908890600401612cd8565b602060405180830381865afa158015610ab1573d6000803e3d6000fd5b505050506040513d601f19601f82011682018060405250810190610ad59190613546565b15610b2e5760405162461bcd60e51b815260206004820152602360248201527f637265617465537065633a207370656320616c726561647920726567697374656044820152621c995960ea1b606482015260840161069f565b6101355460405163addd190760e01b81526001600160a01b039091169063addd190790610b619088908890600401613568565b600060405180830381600087803b158015610b7b57600080fd5b505af1158015610b8f573d6000803e3d6000fd5b5050505061013560009054906101000a90046001600160a01b03166001600160a01b03166334f876626040518163ffffffff1660e01b8152600401602060405180830381865afa158015610be7573d6000803e3d6000fd5b505050506040513d601f19601f82011682018060405250810190610c0b9190613529565b6001600160a01b031684336001600160a01b03167f68c7f8503283c455a4445b54a7d5c40656c8cae5cca0583c6d4be8369847870088604051610c4e9190612cd8565b60405180910390a45050505050565b60006001600160a01b0389163303610cb75760405162461bcd60e51b815260206004820152601b60248201527f74616b653a2063616e6e6f742074616b652066726f6d2073656c660000000000604482015260640161069f565b6000610cca338b8b8b8b8b8b8b8b6106cf565b61013554604051633664a8e960e01b81529192506000916001600160a01b0390911690633664a8e990610d03908d908d9060040161358a565b602060405180830381865afa158015610d20573d6000803e3d6000fd5b505050506040513d601f19601f82011682018060405250810190610d4491906135b9565b6101355460405163b2a0cb6b60e01b8152600481018390529192506000916001600160a01b039091169063b2a0cb6b90602401602060405180830381865afa158015610d94573d6000803e3d6000fd5b505050506040513d601f19601f82011682018060405250810190610db89190613529565b90508b6001600160a01b0316816001600160a01b031614610e175760405162461bcd60e51b81526020600482015260196024820152783a30b5b29d103ab730baba3437b934bd32b21034b9b9bab2b960391b604482015260640161069f565b6000610e5b338d8d8080601f0160208091040260200160405190810160405280939291908181526020018383808284376000920191909152508892506121bb915050565b600885901c600090815261012f602052604090208054600160ff88161b17905590506000818152610136602052604090209390935550909a9950505050505050505050565b6001600160a01b037f0000000000000000000000000000000000000000000000000000000000000000163003610ee85760405162461bcd60e51b815260040161069f9061345f565b7f00000000000000000000000000000000000000000000000000000000000000006001600160a01b0316610f3160008051602061388a833981519152546001600160a01b031690565b6001600160a01b031614610f575760405162461bcd60e51b815260040161069f906134ab565b610f6082612048565b610f6c82826001612050565b5050565b6000306001600160a01b037f000000000000000000000000000000000000000000000000000000000000000016146110105760405162461bcd60e51b815260206004820152603860248201527f555550535570677261646561626c653a206d757374206e6f742062652063616c60448201527f6c6564207468726f7567682064656c656761746563616c6c0000000000000000606482015260840161069f565b5060008051602061388a83398151915290565b6000818152610132602052604081205482906001600160a01b031661105a5760405162461bcd60e51b815260040161069f9061342a565b5050600090815261013260205260409020546001600160a01b031690565b60006001600160a01b0382166110e65760405162461bcd60e51b815260206004820152602d60248201527f62616c616e63654f663a2061646472657373207a65726f206973206e6f74206160448201526c2076616c6964206f776e65725f60981b606482015260840161069f565b506001600160a01b03166000908152610134602052604090205490565b61110b61238e565b61111560006123e8565b565b6000828152610132602052604090205482906001600160a01b031661114e5760405162461bcd60e51b815260040161069f9061342a565b836040518060400160405280600b81526020016a7265766f6b65426164676560a81b81525060008160405160200161118691906134f7565b60408051808303601f19018152908290526101355463b2a0cb6b60e01b83526004830186905290925033916001600160a01b039091169063b2a0cb6b90602401602060405180830381865afa1580156111e3573d6000803e3d6000fd5b505050506040513d601f19601f820116820180604052508101906112079190613529565b6001600160a01b03161481906112305760405162461bcd60e51b815260040161069f9190612cd8565b50600886901c60009081526101376020526040902054600160ff88161b16156112a65760405162461bcd60e51b815260206004820152602260248201527f7265766f6b6542616467653a20626164676520616c7265616479207265766f6b604482015261195960f21b606482015260840161069f565b600886901c6000908152610137602052604090208054600160ff89161b17905560405160ff861690339088907ffa784c48260e8db512de5f055a2f29eced211a7b3bd6338058b095ada7354cee90600090a450505050505050565b6000818152610132602052604090205481906001600160a01b03166113385760405162461bcd60e51b815260040161069f9061342a565b826040518060400160405280600e81526020016d7265696e7374617465426164676560901b81525060008160405160200161137391906134f7565b60408051808303601f19018152908290526101355463b2a0cb6b60e01b83526004830186905290925033916001600160a01b039091169063b2a0cb6b90602401602060405180830381865afa1580156113d0573d6000803e3d6000fd5b505050506040513d601f19601f820116820180604052508101906113f49190613529565b6001600160a01b031614819061141d5760405162461bcd60e51b815260040161069f9190612cd8565b50600885901c60009081526101376020526040902054600160ff87161b166114915760405162461bcd60e51b815260206004820152602160248201527f7265696e737461746542616467653a206261646765206e6f74207265766f6b656044820152601960fa1b606482015260840161069f565b600885901c600090815261013760205260408082208054600160ff8a161b1916905551339187917f7f8cf9ecf2a5225948f8a1601709cedc8471c52ee75a8174c9845c29c99ed9a29190a3505050505050565b606061013180546105e5906133f6565b60006001600160a01b038616330361154e5760405162461bcd60e51b815260206004820152601b60248201527f74616b653a2063616e6e6f742074616b652066726f6d2073656c660000000000604482015260640161069f565b600061155e33888888888861243a565b61013554604051633664a8e960e01b81529192506000916001600160a01b0390911690633664a8e990611597908a908a9060040161358a565b602060405180830381865afa1580156115b4573d6000803e3d6000fd5b505050506040513d601f19601f820116820180604052508101906115d891906135b9565b6101355460405163b2a0cb6b60e01b8152600481018390529192506000916001600160a01b039091169063b2a0cb6b90602401602060405180830381865afa158015611628573d6000803e3d6000fd5b505050506040513d601f19601f8201168201806040525081019061164c9190613529565b9050886001600160a01b0316816001600160a01b0316146116ab5760405162461bcd60e51b81526020600482015260196024820152783a30b5b29d103ab730baba3437b934bd32b21034b9b9bab2b960391b604482015260640161069f565b60006116ef338a8a8080601f0160208091040260200160405190810160405280939291908181526020018383808284376000920191909152508892506121bb915050565b600885901c600090815261012f602052604090208054600160ff88161b1790559050600081815261013660205260409020939093555090979650505050505050565b600082826040516020016117469291906135d2565b60405160208183030381529060405280519060200120905092915050565b6000807f6d0d990916a9f9c9e0896e59ce7f5ddddff333d0c8772438ce004fa7719b164b8686866040516117999291906135fe565b6040519081900381206117d193929187906020019384526001600160a01b039290921660208401526040830152606082015260800190565b6040516020818303038152906040528051906020012090506117f28161255e565b9695505050505050565b61180461238e565b60008151116118645760405162461bcd60e51b815260206004820152602660248201527f726566726573684d657461646174613a206e6f207370656320757269732070726044820152651bdd9a59195960d21b606482015260840161069f565b7f2231d988b1a75dccab13dee3564b71a551900e822e94177a96f19561890c0fd5813360405161189592919061360e565b60405180910390a150565b6118a861238e565b61013580546001600160a01b0319166001600160a01b0392909216919091179055565b600081815261013260205260409020546060906001600160a01b03166119335760405162461bcd60e51b815260206004820152601d60248201527f746f6b656e5552493a20746f6b656e20646f65736e2774206578697374000000604482015260640161069f565b600082815261013360205260409020805461194d906133f6565b80601f0160208091040260200160405190810160405280929190818152602001828054611979906133f6565b80156119c65780601f1061199b576101008083540402835291602001916119c6565b820191906000526020600020905b8154815290600101906020018083116119a957829003601f168201915b50505050509050919050565b6000818152610132602052604090205481906001600160a01b0316611a095760405162461bcd60e51b815260040161069f9061342a565b600082815261013260205260409020546001600160a01b03163314611a705760405162461bcd60e51b815260206004820152601d60248201527f756e65717569703a2073656e646572206d757374206265206f776e6572000000604482015260640161069f565b60008281526101366020908152604080832054600881901c845261012f9092529091208054600160ff84161b19169055611aa983612571565b505050565b600054610100900460ff1615808015611ace5750600054600160ff909116105b80611ae85750303b158015611ae8575060005460ff166001145b611b4b5760405162461bcd60e51b815260206004820152602e60248201527f496e697469616c697a61626c653a20636f6e747261637420697320616c72656160448201526d191e481a5b9a5d1a585b1a5e995960921b606482015260840161069f565b6000805460ff191660011790558015611b6e576000805461ff0019166101001790555b610130611b7b87826136c9565b50610131611b8986826136c9565b5061013580546001600160a01b0319166001600160a01b038416179055611bae61262b565b611bb6612652565b611bc08685612681565b611bc861262b565b611bd183611e78565b8015611c17576000805461ff0019169055604051600181527f7f26b83ff96e1f2b6a682f133852f6798a09c465da95921460cefb38474024989060200160405180910390a15b505050505050565b6000807fe76a195fbe43f0eaa611595069f780493db2202a1cc4b2d7d44b47069812998a86868686604051611c559291906135fe565b6040519081900381206117d1949392916020019384526001600160a01b03928316602085015291166040830152606082015260800190565b60006001600160a01b0386163303611ce75760405162461bcd60e51b815260206004820152601960248201527f676976653a2063616e6e6f74206769766520746f2073656c6600000000000000604482015260640161069f565b6000611cf733888888888861243a565b61013554604051633664a8e960e01b81529192506000916001600160a01b0390911690633664a8e990611d30908a908a9060040161358a565b602060405180830381865afa158015611d4d573d6000803e3d6000fd5b505050506040513d601f19601f82011682018060405250810190611d7191906135b9565b6101355460405163b2a0cb6b60e01b8152600481018390529192506000916001600160a01b039091169063b2a0cb6b90602401602060405180830381865afa158015611dc1573d6000803e3d6000fd5b505050506040513d601f19601f82011682018060405250810190611de59190613529565b90506001600160a01b0381163314611e345760405162461bcd60e51b815260206004820152601260248201527119da5d994e881d5b985d5d1a1bdc9a5e995960721b604482015260640161069f565b60006116ef8a8a8a8080601f0160208091040260200160405190810160405280939291908181526020018383808284376000920191909152508892506121bb915050565b611e8061238e565b6001600160a01b038116611ee55760405162461bcd60e51b815260206004820152602660248201527f4f776e61626c653a206e6577206f776e657220697320746865207a65726f206160448201526564647265737360d01b606482015260840161069f565b61097e816123e8565b6000806000611efd85856126b2565b90925090506000816004811115611f1657611f16613788565b148015611f345750856001600160a01b0316826001600160a01b0316145b15611f445760019250505061202b565b600080876001600160a01b0316631626ba7e60e01b8888604051602401611f6c92919061379e565b60408051601f198184030181529181526020820180516001600160e01b03166001600160e01b0319909416939093179092529051611faa91906137b7565b600060405180830381855afa9150503d8060008114611fe5576040519150601f19603f3d011682016040523d82523d6000602084013e611fea565b606091505b5091509150818015611ffd575080516020145b801561202457508051630b135d3f60e11b9061202290830160209081019084016135b9565b145b9450505050505b9392505050565b60008261203f8584612720565b14949350505050565b61097e61238e565b7f4910fdfa16fed3260ed0e7147f7cc6da11a60208b5b9406d12a635614ffd91435460ff161561208357611aa98361276d565b826001600160a01b03166352d1902d6040518163ffffffff1660e01b8152600401602060405180830381865afa9250505080156120dd575060408051601f3d908101601f191682019092526120da918101906135b9565b60015b6121405760405162461bcd60e51b815260206004820152602e60248201527f45524331393637557067726164653a206e657720696d706c656d656e7461746960448201526d6f6e206973206e6f74205555505360901b606482015260840161069f565b60008051602061388a83398151915281146121af5760405162461bcd60e51b815260206004820152602960248201527f45524331393637557067726164653a20756e737570706f727465642070726f786044820152681a58589b195555525160ba1b606482015260840161069f565b50611aa9838383612809565b6000806121c88585611731565b905080600084900361221c5760405162461bcd60e51b815260206004820152601c60248201527f6d696e743a2073706563206973206e6f74207265676973746572656400000000604482015260640161069f565b600081815261013260205260409020546001600160a01b0316156122795760405162461bcd60e51b81526020600482015260146024820152736d696e743a20746f6b656e49442065786973747360601b604482015260640161069f565b6001600160a01b0386166000908152610134602052604081208054600192906122a39084906137e9565b909155505060008181526101326020908152604080832080546001600160a01b0319166001600160a01b038b1617905561013390915290206122e586826136c9565b5060405181906001600160a01b038816906000907fddf252ad1be2c89b69c2b068fc378daa952ba7f163c4a11628f55a4df523b3ef908290a46101355460405163fb74926160e01b815260048101839052602481018690526001600160a01b039091169063fb74926190604401600060405180830381600087803b15801561236c57600080fd5b505af1158015612380573d6000803e3d6000fd5b509298975050505050505050565b60c9546001600160a01b031633146111155760405162461bcd60e51b815260206004820181905260248201527f4f776e61626c653a2063616c6c6572206973206e6f7420746865206f776e6572604482015260640161069f565b60c980546001600160a01b038381166001600160a01b0319831681179093556040519116919082907f8be0079c531659141344cd1fd0a4f28419497f9722a3daafe3b4186f6b6457e090600090a35050565b60008061244988888888611c1f565b905061248c878286868080601f016020809104026020016040519081016040528093929190818152602001838380828437600092019190915250611eee92505050565b6124e65760405162461bcd60e51b815260206004820152602560248201527f73616665436865636b41677265656d656e743a20696e76616c6964207369676e604482015264617475726560d81b606482015260840161069f565b600881901c600090815261012f60205260409020548190600160ff83161b16156125525760405162461bcd60e51b815260206004820181905260248201527f73616665436865636b41677265656d656e743a20616c72656164792075736564604482015260640161069f565b98975050505050505050565b60006105cf61256b612834565b836128b4565b600081815261013260209081526040808320546001600160a01b03168084526101349092528220805491926001926125aa9084906137fc565b909155505060008281526101326020908152604080832080546001600160a01b031916905561013390915281206125e091612c10565b60008281526101366020526040808220829055518391906001600160a01b038416907fddf252ad1be2c89b69c2b068fc378daa952ba7f163c4a11628f55a4df523b3ef908390a45050565b600054610100900460ff166111155760405162461bcd60e51b815260040161069f9061380f565b600054610100900460ff166126795760405162461bcd60e51b815260040161069f9061380f565b6111156128db565b600054610100900460ff166126a85760405162461bcd60e51b815260040161069f9061380f565b610f6c828261290b565b60008082516041036126e85760208301516040840151606085015160001a6126dc8782858561294c565b94509450505050612719565b82516040036127115760208301516040840151612706868383612a39565b935093505050612719565b506000905060025b9250929050565b600081815b845181101561276557612751828683815181106127445761274461385a565b6020026020010151612a72565b91508061275d81613870565b915050612725565b509392505050565b6001600160a01b0381163b6127da5760405162461bcd60e51b815260206004820152602d60248201527f455243313936373a206e657720696d706c656d656e746174696f6e206973206e60448201526c1bdd08184818dbdb9d1c9858dd609a1b606482015260840161069f565b60008051602061388a83398151915280546001600160a01b0319166001600160a01b0392909216919091179055565b61281283612a9e565b60008251118061281f5750805b15611aa95761282e8383612ade565b50505050565b60006128af7f8b73c3c69bb8fe3d512ecc4cf759cc79239f7b179b0ffacaa9a75d522b39400f61286360fb5490565b60fc546040805160208101859052908101839052606081018290524660808201523060a082015260009060c0016040516020818303038152906040528051906020012090509392505050565b905090565b60405161190160f01b60208201526022810183905260428101829052600090606201611746565b600054610100900460ff166129025760405162461bcd60e51b815260040161069f9061380f565b611115336123e8565b600054610100900460ff166129325760405162461bcd60e51b815260040161069f9061380f565b81516020928301208151919092012060fb9190915560fc55565b6000807f7fffffffffffffffffffffffffffffff5d576e7357a4501ddfe92f46681b20a08311156129835750600090506003612a30565b8460ff16601b1415801561299b57508460ff16601c14155b156129ac5750600090506004612a30565b6040805160008082526020820180845289905260ff881692820192909252606081018690526080810185905260019060a0016020604051602081039080840390855afa158015612a00573d6000803e3d6000fd5b5050604051601f1901519150506001600160a01b038116612a2957600060019250925050612a30565b9150600090505b94509492505050565b6000806001600160ff1b03831681612a5660ff86901c601b6137e9565b9050612a648782888561294c565b935093505050935093915050565b6000818310612a8e57600082815260208490526040902061202b565b5060009182526020526040902090565b612aa78161276d565b6040516001600160a01b038216907fbc7cd75a20ee27fd9adebab32041f755214dbc6bffa90cc0225b39da2e5c2d3b90600090a250565b60606001600160a01b0383163b612b465760405162461bcd60e51b815260206004820152602660248201527f416464726573733a2064656c65676174652063616c6c20746f206e6f6e2d636f6044820152651b9d1c9858dd60d21b606482015260840161069f565b600080846001600160a01b031684604051612b6191906137b7565b600060405180830381855af49150503d8060008114612b9c576040519150601f19603f3d011682016040523d82523d6000602084013e612ba1565b606091505b5091509150612bc982826040518060600160405280602781526020016138aa60279139612bd2565b95945050505050565b60608315612be157508161202b565b61202b8383815115612bf65781518083602001fd5b8060405162461bcd60e51b815260040161069f9190612cd8565b508054612c1c906133f6565b6000825580601f10612c2c575050565b601f01602090049060005260206000209081019061097e91905b80821115612c5a5760008155600101612c46565b5090565b600060208284031215612c7057600080fd5b81356001600160e01b03198116811461202b57600080fd5b60005b83811015612ca3578181015183820152602001612c8b565b50506000910152565b60008151808452612cc4816020860160208601612c88565b601f01601f19169290920160200192915050565b60208152600061202b6020830184612cac565b600060208284031215612cfd57600080fd5b5035919050565b6001600160a01b038116811461097e57600080fd5b60008083601f840112612d2b57600080fd5b5081356001600160401b03811115612d4257600080fd5b60208301915083602082850101111561271957600080fd5b60008083601f840112612d6c57600080fd5b5081356001600160401b03811115612d8357600080fd5b6020830191508360208260051b850101111561271957600080fd5b600080600080600080600080600060c08a8c031215612dbc57600080fd5b8935612dc781612d04565b985060208a0135612dd781612d04565b975060408a01356001600160401b0380821115612df357600080fd5b612dff8d838e01612d19565b909950975060608c0135915080821115612e1857600080fd5b612e248d838e01612d19565b909750955060808c0135945060a08c0135915080821115612e4457600080fd5b50612e518c828d01612d5a565b915080935050809150509295985092959850929598565b600060208284031215612e7a57600080fd5b813561202b81612d04565b634e487b7160e01b600052604160045260246000fd5b604051601f8201601f191681016001600160401b0381118282101715612ec357612ec3612e85565b604052919050565b60006001600160401b03831115612ee457612ee4612e85565b612ef7601f8401601f1916602001612e9b565b9050828152838383011115612f0b57600080fd5b828260208301376000602084830101529392505050565b600082601f830112612f3357600080fd5b61202b83833560208501612ecb565b60008060408385031215612f5557600080fd5b82356001600160401b03811115612f6b57600080fd5b612f7785828601612f22565b95602094909401359450505050565b60008060008060008060008060a0898b031215612fa257600080fd5b8835612fad81612d04565b975060208901356001600160401b0380821115612fc957600080fd5b612fd58c838d01612d19565b909950975060408b0135915080821115612fee57600080fd5b612ffa8c838d01612d19565b909750955060608b0135945060808b013591508082111561301a57600080fd5b506130278b828c01612d5a565b999c989b5096995094979396929594505050565b6000806040838503121561304e57600080fd5b823561305981612d04565b915060208301356001600160401b0381111561307457600080fd5b8301601f8101851361308557600080fd5b61309485823560208401612ecb565b9150509250929050565b6000806000606084860312156130b357600080fd5b8335925060208401359150604084013560ff811681146130d257600080fd5b809150509250925092565b600080604083850312156130f057600080fd5b50508035926020909101359150565b60008060008060006060868803121561311757600080fd5b853561312281612d04565b945060208601356001600160401b038082111561313e57600080fd5b61314a89838a01612d19565b9096509450604088013591508082111561316357600080fd5b5061317088828901612d19565b969995985093965092949392505050565b6000806040838503121561319457600080fd5b823561319f81612d04565b915060208301356001600160401b038111156131ba57600080fd5b61309485828601612f22565b600080600080606085870312156131dc57600080fd5b84356131e781612d04565b935060208501356001600160401b0381111561320257600080fd5b61320e87828801612d19565b9598909750949560400135949350505050565b6000602080838503121561323457600080fd5b82356001600160401b038082111561324b57600080fd5b818501915085601f83011261325f57600080fd5b81358181111561327157613271612e85565b8060051b613280858201612e9b565b918252838101850191858101908984111561329a57600080fd5b86860192505b838310156132d6578235858111156132b85760008081fd5b6132c68b89838a0101612f22565b83525091860191908601906132a0565b9998505050505050505050565b600080600080600060a086880312156132fb57600080fd5b85356001600160401b038082111561331257600080fd5b61331e89838a01612f22565b9650602088013591508082111561333457600080fd5b61334089838a01612f22565b9550604088013591508082111561335657600080fd5b5061336388828901612f22565b935050606086013561337481612d04565b9150608086013561338481612d04565b809150509295509295909350565b600080600080606085870312156133a857600080fd5b84356133b381612d04565b935060208501356133c381612d04565b925060408501356001600160401b038111156133de57600080fd5b6133ea87828801612d19565b95989497509550505050565b600181811c9082168061340a57607f821691505b6020821081036106c957634e487b7160e01b600052602260045260246000fd5b6020808252818101527f746f6b656e4578697374733a20746f6b656e20646f65736e2774206578697374604082015260600190565b6020808252602c908201527f46756e6374696f6e206d7573742062652063616c6c6564207468726f7567682060408201526b19195b1959d85d1958d85b1b60a21b606082015260800190565b6020808252602c908201527f46756e6374696f6e206d7573742062652063616c6c6564207468726f7567682060408201526b6163746976652070726f787960a01b606082015260800190565b60008251613509818460208701612c88565b6d0e881d5b985d5d1a1bdc9a5e995960921b920191825250600e01919050565b60006020828403121561353b57600080fd5b815161202b81612d04565b60006020828403121561355857600080fd5b8151801515811461202b57600080fd5b60408152600061357b6040830185612cac565b90508260208301529392505050565b60208152816020820152818360408301376000818301604090810191909152601f909201601f19160101919050565b6000602082840312156135cb57600080fd5b5051919050565b6001600160a01b03831681526040602082018190526000906135f690830184612cac565b949350505050565b8183823760009101908152919050565b6000604082016040835280855180835260608501915060608160051b8601019250602080880160005b8381101561366557605f19888703018552613653868351612cac565b95509382019390820190600101613637565b50506001600160a01b03969096169490950193909352949350505050565b601f821115611aa957600081815260208120601f850160051c810160208610156136aa5750805b601f850160051c820191505b81811015611c17578281556001016136b6565b81516001600160401b038111156136e2576136e2612e85565b6136f6816136f084546133f6565b84613683565b602080601f83116001811461372b57600084156137135750858301515b600019600386901b1c1916600185901b178555611c17565b600085815260208120601f198616915b8281101561375a5788860151825594840194600190910190840161373b565b50858210156137785787850151600019600388901b60f8161c191681555b5050505050600190811b01905550565b634e487b7160e01b600052602160045260246000fd5b8281526040602082015260006135f66040830184612cac565b600082516137c9818460208701612c88565b9190910192915050565b634e487b7160e01b600052601160045260246000fd5b808201808211156105cf576105cf6137d3565b818103818111156105cf576105cf6137d3565b6020808252602b908201527f496e697469616c697a61626c653a20636f6e7472616374206973206e6f74206960408201526a6e697469616c697a696e6760a81b606082015260800190565b634e487b7160e01b600052603260045260246000fd5b600060018201613882576138826137d3565b506001019056fe360894a13ba1a3210667c828492db98dca3e2076cc3735a920a3ca505d382bbc416464726573733a206c6f772d6c6576656c2064656c65676174652063616c6c206661696c6564a2646970667358221220fc08d50471a6fbb3788388397bf712dbaba0de73fb990af3384ca275018e358f64736f6c63430008100033",
    "linkReferences": {}
  },
  "methodIdentifiers": {
    "balanceOf(address)": "70a08231",
    "createSpec(string,uint256)": "445a62b9",
    "getAgreementHash(address,address,string)": "e4992506",
    "getBadgeIdHash(address,string)": "a8cf8683",
    "getDataHolderAddress()": "635ad993",
    "getMerkleAgreementHash(address,string,bytes32)": "bd6645e4",
    "getVoucherHash(uint256)": "3b363a09",
    "give(address,string,bytes)": "ec64948e",
    "initialize(string,string,string,address,address)": "d6d0faee",
    "isBadgeValid(uint256)": "0f4d9b01",
    "merkleTake(address,string,bytes,bytes32,bytes32[])": "4a086b53",
    "name()": "06fdde03",
    "owner()": "8da5cb5b",
    "ownerOf(uint256)": "6352211e",
    "proxiableUUID()": "52d1902d",
    "refreshMetadata(string[])": "bdbdbcbf",
    "reinstateBadge(uint256,uint256)": "80956c7e",
    "renounceOwnership()": "715018a6",
    "revokeBadge(uint256,uint256,uint8)": "7c402f8d",
    "safeCheckMerkleAgreement(address,address,string,bytes,bytes32,bytes32[])": "22e7d2ee",
    "setDataHolder(address)": "c0184112",
    "supportsInterface(bytes4)": "01ffc9a7",
    "symbol()": "95d89b41",
    "take(address,string,bytes)": "a3947803",
    "tokenURI(uint256)": "c87b56dd",
    "transferOwnership(address)": "f2fde38b",
    "unequip(uint256)": "d179e3d0",
    "upgradeTo(address)": "3659cfe6",
    "upgradeToAndCall(address,bytes)": "4f1ef286"
  },
  "id": 46
}