{
  "abi": [
    {
      "inputs": [
        {
          "internalType": "string",
          "name": "name",
          "type": "string"
        },
        {
          "internalType": "string",
          "name": "symbol",
          "type": "string"
        },
        {
          "internalType": "string",
          "name": "version",
          "type": "string"
        }
      ],
      "stateMutability": "nonpayable",
      "type": "constructor"
    },
    {
      "anonymous": false,
      "inputs": [
        {
          "indexed": true,
          "internalType": "address",
          "name": "",
          "type": "address"
        },
        {
          "indexed": false,
          "internalType": "uint256",
          "name": "tokenId",
          "type": "uint256"
        }
      ],
      "name": "BadgeMinted",
      "type": "event"
    },
    {
      "anonymous": false,
      "inputs": [
        {
          "indexed": true,
          "internalType": "address",
          "name": "",
          "type": "address"
        },
        {
          "indexed": false,
          "internalType": "string",
          "name": "specUri",
          "type": "string"
        }
      ],
      "name": "SpecCreated",
      "type": "event"
    },
    {
      "anonymous": false,
      "inputs": [
        {
          "indexed": true,
          "internalType": "address",
          "name": "from",
          "type": "address"
        },
        {
          "indexed": true,
          "internalType": "address",
          "name": "to",
          "type": "address"
        },
        {
          "indexed": true,
          "internalType": "uint256",
          "name": "tokenId",
          "type": "uint256"
        }
      ],
      "name": "Transfer",
      "type": "event"
    },
    {
      "inputs": [
        {
          "internalType": "address",
          "name": "owner",
          "type": "address"
        }
      ],
      "name": "balanceOf",
      "outputs": [
        {
          "internalType": "uint256",
          "name": "",
          "type": "uint256"
        }
      ],
      "stateMutability": "view",
      "type": "function"
    },
    {
      "inputs": [
        {
          "internalType": "string",
          "name": "specUri",
          "type": "string"
        }
      ],
      "name": "checkIfSpecExists",
      "outputs": [
        {
          "internalType": "bool",
          "name": "",
          "type": "bool"
        }
      ],
      "stateMutability": "view",
      "type": "function"
    },
    {
      "inputs": [
        {
          "internalType": "string",
          "name": "specUri",
          "type": "string"
        },
        {
          "internalType": "uint256",
          "name": "raftTokenId",
          "type": "uint256"
        }
      ],
      "name": "createSpecAsRaftOwner",
      "outputs": [],
      "stateMutability": "nonpayable",
      "type": "function"
    },
    {
      "inputs": [
        {
          "internalType": "address",
          "name": "from",
          "type": "address"
        },
        {
          "internalType": "address",
          "name": "to",
          "type": "address"
        },
        {
          "internalType": "string",
          "name": "tokenURI",
          "type": "string"
        }
      ],
      "name": "getHash",
      "outputs": [
        {
          "internalType": "bytes32",
          "name": "",
          "type": "bytes32"
        }
      ],
      "stateMutability": "view",
      "type": "function"
    },
    {
      "inputs": [
        {
          "internalType": "bytes32",
          "name": "hash",
          "type": "bytes32"
        }
      ],
      "name": "getTokenIdFromHash",
      "outputs": [
        {
          "internalType": "uint256",
          "name": "",
          "type": "uint256"
        }
      ],
      "stateMutability": "pure",
      "type": "function"
    },
    {
      "inputs": [
        {
          "internalType": "address",
          "name": "to",
          "type": "address"
        },
        {
          "internalType": "string",
          "name": "uri",
          "type": "string"
        },
        {
          "internalType": "bytes",
          "name": "signature",
          "type": "bytes"
        }
      ],
      "name": "give",
      "outputs": [
        {
          "internalType": "uint256",
          "name": "",
          "type": "uint256"
        }
      ],
      "stateMutability": "nonpayable",
      "type": "function"
    },
    {
      "inputs": [
        {
          "internalType": "address",
          "name": "from",
          "type": "address"
        },
        {
          "internalType": "string",
          "name": "specUri",
          "type": "string"
        },
        {
          "internalType": "bytes",
          "name": "signature",
          "type": "bytes"
        }
      ],
      "name": "mintAuthorizedBadge",
      "outputs": [
        {
          "internalType": "uint256",
          "name": "",
          "type": "uint256"
        }
      ],
      "stateMutability": "nonpayable",
      "type": "function"
    },
    {
      "inputs": [],
      "name": "name",
      "outputs": [
        {
          "internalType": "string",
          "name": "",
          "type": "string"
        }
      ],
      "stateMutability": "view",
      "type": "function"
    },
    {
      "inputs": [
        {
          "internalType": "uint256",
          "name": "tokenId",
          "type": "uint256"
        }
      ],
      "name": "ownerOf",
      "outputs": [
        {
          "internalType": "address",
          "name": "",
          "type": "address"
        }
      ],
      "stateMutability": "view",
      "type": "function"
    },
    {
      "inputs": [
        {
          "internalType": "bytes4",
          "name": "interfaceId",
          "type": "bytes4"
        }
      ],
      "name": "supportsInterface",
      "outputs": [
        {
          "internalType": "bool",
          "name": "",
          "type": "bool"
        }
      ],
      "stateMutability": "view",
      "type": "function"
    },
    {
      "inputs": [],
      "name": "symbol",
      "outputs": [
        {
          "internalType": "string",
          "name": "",
          "type": "string"
        }
      ],
      "stateMutability": "view",
      "type": "function"
    },
    {
      "inputs": [
        {
          "internalType": "address",
          "name": "from",
          "type": "address"
        },
        {
          "internalType": "string",
          "name": "uri",
          "type": "string"
        },
        {
          "internalType": "bytes",
          "name": "signature",
          "type": "bytes"
        }
      ],
      "name": "take",
      "outputs": [
        {
          "internalType": "uint256",
          "name": "",
          "type": "uint256"
        }
      ],
      "stateMutability": "nonpayable",
      "type": "function"
    },
    {
      "inputs": [
        {
          "internalType": "uint256",
          "name": "tokenId",
          "type": "uint256"
        }
      ],
      "name": "tokenURI",
      "outputs": [
        {
          "internalType": "string",
          "name": "",
          "type": "string"
        }
      ],
      "stateMutability": "view",
      "type": "function"
    },
    {
      "inputs": [
        {
          "internalType": "uint256",
          "name": "tokenId",
          "type": "uint256"
        }
      ],
      "name": "unequip",
      "outputs": [],
      "stateMutability": "nonpayable",
      "type": "function"
    }
  ],
  "bytecode": {
    "object": "0x6101406040523480156200001257600080fd5b5060405162001c4e38038062001c4e8339810160408190526200003591620001be565b825160208085019190912082518383012060e08290526101008190524660a0818152604080517f8b73c3c69bb8fe3d512ecc4cf759cc79239f7b179b0ffacaa9a75d522b39400f818801819052818301969096526060810194909452608080850193909352308483018190528151808603909301835260c094850190915281519190950120905291909152610120528282826001620000d58482620002de565b506002620000e48382620002de565b50505050505050620003aa565b634e487b7160e01b600052604160045260246000fd5b600082601f8301126200011957600080fd5b81516001600160401b0380821115620001365762000136620000f1565b604051601f8301601f19908116603f01168101908282118183101715620001615762000161620000f1565b816040528381526020925086838588010111156200017e57600080fd5b600091505b83821015620001a2578582018301518183018401529082019062000183565b83821115620001b45760008385830101525b9695505050505050565b600080600060608486031215620001d457600080fd5b83516001600160401b0380821115620001ec57600080fd5b620001fa8783880162000107565b945060208601519150808211156200021157600080fd5b6200021f8783880162000107565b935060408601519150808211156200023657600080fd5b50620002458682870162000107565b9150509250925092565b600181811c908216806200026457607f821691505b6020821081036200028557634e487b7160e01b600052602260045260246000fd5b50919050565b601f821115620002d957600081815260208120601f850160051c81016020861015620002b45750805b601f850160051c820191505b81811015620002d557828155600101620002c0565b5050505b505050565b81516001600160401b03811115620002fa57620002fa620000f1565b62000312816200030b84546200024f565b846200028b565b602080601f8311600181146200034a5760008415620003315750858301515b600019600386901b1c1916600185901b178555620002d5565b600085815260208120601f198616915b828110156200037b578886015182559484019460019091019084016200035a565b50858210156200039a5787850151600019600388901b60f8161c191681555b5050505050600190811b01905550565b60805160a05160c05160e0516101005161012051611854620003fa6000396000611062015260006110b10152600061108c01526000610fe50152600061100f0152600061103901526118546000f3fe608060405234801561001057600080fd5b50600436106100ea5760003560e01c8063a39478031161008c578063d179e3d011610066578063d179e3d0146101e1578063e8e168ec146101f4578063ea924dec14610207578063ec64948e1461021857600080fd5b8063a3947803146101a8578063c5cf33c2146101bb578063c87b56dd146101ce57600080fd5b80636352211e116100c85780636352211e1461014157806370a082311461016c578063781334c51461018d57806395d89b41146101a057600080fd5b806301ffc9a7146100ef57806306fdde03146101175780634249d86e1461012c575b600080fd5b6101026100fd366004611289565b61022b565b60405190151581526020015b60405180910390f35b61011f61027d565b60405161010e9190611302565b61013f61013a36600461132b565b61030f565b005b61015461014f3660046113e0565b6103f8565b6040516001600160a01b03909116815260200161010e565b61017f61017a366004611415565b61045d565b60405190815260200161010e565b61017f61019b366004611472565b6104e6565b61011f6106eb565b61017f6101b6366004611472565b6106fa565b61017f6101c93660046114f3565b6107d2565b61011f6101dc3660046113e0565b6107e9565b61013f6101ef3660046113e0565b6108ee565b610102610202366004611554565b610983565b61017f6102153660046113e0565b90565b61017f610226366004611472565b6109b0565b60006001600160e01b03198216635b5e139f60e01b148061025c57506001600160e01b031982166346bdd63960e11b145b8061027757506301ffc9a760e01b6001600160e01b03198316145b92915050565b60606001805461028c90611596565b80601f01602080910402602001604051908101604052809291908181526020018280546102b890611596565b80156103055780601f106102da57610100808354040283529160200191610305565b820191906000526020600020905b8154815290600101906020018083116102e857829003601f168201915b5050505050905090565b60078260405161031f91906115d0565b9081526020016040518091039020546000146103995760405162461bcd60e51b815260206004820152602e60248201527f637265617465537065634173526166744f776e65723a207370656320616c726560448201526d18591e481c9959da5cdd195c995960921b60648201526084015b60405180910390fd5b806007836040516103aa91906115d0565b9081526040519081900360200181209190915533907ffcc0ccb17efd65852f1f8dc8f08a43d55b87b08db6b050c6d18ff61e4c6daf99906103ec908590611302565b60405180910390a25050565b6000818152600360205260408120546001600160a01b0316806102775760405162461bcd60e51b815260206004820152601c60248201527f6f776e65724f663a20746f6b656e20646f65736e2774206578697374000000006044820152606401610390565b60006001600160a01b0382166104ca5760405162461bcd60e51b815260206004820152602c60248201527f62616c616e63654f663a2061646472657373207a65726f206973206e6f74206160448201526b103b30b634b21037bbb732b960a11b6064820152608401610390565b506001600160a01b031660009081526005602052604090205490565b600080600786866040516104fb9291906115ec565b9081526020016040518091039020549050806000036105705760405162461bcd60e51b815260206004820152602b60248201527f6d696e74417574686f72697a656442616467653a2073706563206973206e6f7460448201526a081c9959da5cdd195c995960aa1b6064820152608401610390565b600080306001600160a01b03168989898989604051602401610596959493929190611625565b60408051601f198184030181529181526020820180516001600160e01b031663a394780360e01b179052516105cb91906115d0565b600060405180830381855af49150503d8060008114610606576040519150601f19603f3d011682016040523d82523d6000602084013e61060b565b606091505b50915091508161066f5760405162461bcd60e51b815260206004820152602960248201527f6d696e74417574686f72697a656442616467653a206261646765206d696e74696044820152681b99c819985a5b195960ba1b6064820152608401610390565b600081806020019051810190610685919061165d565b60008181526008602052604090819020869055519091506001600160a01b038b16907fc5e5b314108c1f776c2302351b8278910ddb812b122b2717b1bc973146145e9a906106d69084815260200190565b60405180910390a29998505050505050505050565b60606002805461028c90611596565b60006001600160a01b03861633036107545760405162461bcd60e51b815260206004820152601b60248201527f74616b653a2063616e6e6f742074616b652066726f6d2073656c6600000000006044820152606401610390565b6000610764338888888888610a5d565b90506107a7338288888080601f016020809104026020016040519081016040528093929190818152602001838380828437600092019190915250610b9192505050565b50600881901c60009081526020819052604090208054600160ff84161b1790555b9695505050505050565b60006107e085858585610c99565b95945050505050565b6000818152600360205260409020546060906001600160a01b03166108505760405162461bcd60e51b815260206004820152601d60248201527f746f6b656e5552493a20746f6b656e20646f65736e27742065786973740000006044820152606401610390565b6000828152600460205260409020805461086990611596565b80601f016020809104026020016040519081016040528092919081815260200182805461089590611596565b80156108e25780601f106108b7576101008083540402835291602001916108e2565b820191906000526020600020905b8154815290600101906020018083116108c557829003601f168201915b50505050509050919050565b6108f7816103f8565b6001600160a01b0316336001600160a01b0316146109575760405162461bcd60e51b815260206004820152601d60248201527f756e65717569703a2073656e646572206d757374206265206f776e65720000006044820152606401610390565b600881901c60009081526020819052604090208054600160ff84161b1916905561098081610d28565b50565b6000600783836040516109979291906115ec565b9081526040519081900360200190205415159392505050565b60006001600160a01b0386163303610a0a5760405162461bcd60e51b815260206004820152601b60248201527f676976653a2063616e6e6f7420676976652066726f6d2073656c6600000000006044820152606401610390565b6000610a1a338888888888610a5d565b90506107a7878288888080601f016020809104026020016040519081016040528093929190818152602001838380828437600092019190915250610b9192505050565b600080610a6c88888888610c99565b905060008160001c9050610ab7888387878080601f016020809104026020016040519081016040528093929190818152602001838380828437600092019190915250610dd192505050565b610b125760405162461bcd60e51b815260206004820152602660248201527f5f73616665436865636b41677265656d656e743a20696e76616c6964207369676044820152656e617475726560d01b6064820152608401610390565b600881901c600090815260208190526040902054600160ff83161b1615610b855760405162461bcd60e51b815260206004820152602160248201527f5f73616665436865636b41677265656d656e743a20616c7265616479207573656044820152601960fa1b6064820152608401610390565b98975050505050505050565b6000828152600360205260408120546001600160a01b031615610bed5760405162461bcd60e51b81526020600482015260146024820152736d696e743a20746f6b656e49442065786973747360601b6044820152606401610390565b6001600160a01b0384166000908152600560205260408120805460019290610c1690849061168c565b9091555050600083815260036020908152604080832080546001600160a01b0319166001600160a01b03891617905560049091529020610c5683826116f3565b5060405183906001600160a01b038616906000907fddf252ad1be2c89b69c2b068fc378daa952ba7f163c4a11628f55a4df523b3ef908290a450815b9392505050565b6000807fe76a195fbe43f0eaa611595069f780493db2202a1cc4b2d7d44b47069812998a86868686604051610ccf9291906115ec565b604051908190038120610d07949392916020019384526001600160a01b03928316602085015291166040830152606082015260800190565b6040516020818303038152906040528051906020012090506107c881610f1c565b6000610d33826103f8565b6001600160a01b03811660009081526005602052604081208054929350600192909190610d619084906117b3565b9091555050600082815260036020908152604080832080546001600160a01b031916905560049091528120610d9591611225565b60405182906000906001600160a01b038416907fddf252ad1be2c89b69c2b068fc378daa952ba7f163c4a11628f55a4df523b3ef908390a45050565b6000806000610de08585610f6a565b90925090506000816004811115610df957610df96117ca565b148015610e175750856001600160a01b0316826001600160a01b0316145b15610e2757600192505050610c92565b600080876001600160a01b0316631626ba7e60e01b8888604051602401610e4f9291906117e0565b60408051601f198184030181529181526020820180516001600160e01b03166001600160e01b0319909416939093179092529051610e8d91906115d0565b600060405180830381855afa9150503d8060008114610ec8576040519150601f19603f3d011682016040523d82523d6000602084013e610ecd565b606091505b5091509150818015610ee0575080516020145b8015610b8557508051630b135d3f60e11b90610f059083016020908101908401611801565b6001600160e01b0319161498975050505050505050565b6000610277610f29610fd8565b8360405161190160f01b6020820152602281018390526042810182905260009060620160405160208183030381529060405280519060200120905092915050565b6000808251604103610fa05760208301516040840151606085015160001a610f94878285856110ff565b94509450505050610fd1565b8251604003610fc95760208301516040840151610fbe8683836111ec565b935093505050610fd1565b506000905060025b9250929050565b6000306001600160a01b037f00000000000000000000000000000000000000000000000000000000000000001614801561103157507f000000000000000000000000000000000000000000000000000000000000000046145b1561105b57507f000000000000000000000000000000000000000000000000000000000000000090565b50604080517f00000000000000000000000000000000000000000000000000000000000000006020808301919091527f0000000000000000000000000000000000000000000000000000000000000000828401527f000000000000000000000000000000000000000000000000000000000000000060608301524660808301523060a0808401919091528351808403909101815260c0909201909252805191012090565b6000807f7fffffffffffffffffffffffffffffff5d576e7357a4501ddfe92f46681b20a083111561113657506000905060036111e3565b8460ff16601b1415801561114e57508460ff16601c14155b1561115f57506000905060046111e3565b6040805160008082526020820180845289905260ff881692820192909252606081018690526080810185905260019060a0016020604051602081039080840390855afa1580156111b3573d6000803e3d6000fd5b5050604051601f1901519150506001600160a01b0381166111dc576000600192509250506111e3565b9150600090505b94509492505050565b6000806001600160ff1b0383168161120960ff86901c601b61168c565b9050611217878288856110ff565b935093505050935093915050565b50805461123190611596565b6000825580601f10611241575050565b601f01602090049060005260206000209081019061098091905b8082111561126f576000815560010161125b565b5090565b6001600160e01b03198116811461098057600080fd5b60006020828403121561129b57600080fd5b8135610c9281611273565b60005b838110156112c15781810151838201526020016112a9565b838111156112d0576000848401525b50505050565b600081518084526112ee8160208601602086016112a6565b601f01601f19169290920160200192915050565b602081526000610c9260208301846112d6565b634e487b7160e01b600052604160045260246000fd5b6000806040838503121561133e57600080fd5b823567ffffffffffffffff8082111561135657600080fd5b818501915085601f83011261136a57600080fd5b81358181111561137c5761137c611315565b604051601f8201601f19908116603f011681019083821181831017156113a4576113a4611315565b816040528281528860208487010111156113bd57600080fd5b826020860160208301376000602093820184015298969091013596505050505050565b6000602082840312156113f257600080fd5b5035919050565b80356001600160a01b038116811461141057600080fd5b919050565b60006020828403121561142757600080fd5b610c92826113f9565b60008083601f84011261144257600080fd5b50813567ffffffffffffffff81111561145a57600080fd5b602083019150836020828501011115610fd157600080fd5b60008060008060006060868803121561148a57600080fd5b611493866113f9565b9450602086013567ffffffffffffffff808211156114b057600080fd5b6114bc89838a01611430565b909650945060408801359150808211156114d557600080fd5b506114e288828901611430565b969995985093965092949392505050565b6000806000806060858703121561150957600080fd5b611512856113f9565b9350611520602086016113f9565b9250604085013567ffffffffffffffff81111561153c57600080fd5b61154887828801611430565b95989497509550505050565b6000806020838503121561156757600080fd5b823567ffffffffffffffff81111561157e57600080fd5b61158a85828601611430565b90969095509350505050565b600181811c908216806115aa57607f821691505b6020821081036115ca57634e487b7160e01b600052602260045260246000fd5b50919050565b600082516115e28184602087016112a6565b9190910192915050565b8183823760009101908152919050565b81835281816020850137506000828201602090810191909152601f909101601f19169091010190565b6001600160a01b038616815260606020820181905260009061164a90830186886115fc565b8281036040840152610b858185876115fc565b60006020828403121561166f57600080fd5b5051919050565b634e487b7160e01b600052601160045260246000fd5b6000821982111561169f5761169f611676565b500190565b601f8211156116ee57600081815260208120601f850160051c810160208610156116cb5750805b601f850160051c820191505b818110156116ea578281556001016116d7565b5050505b505050565b815167ffffffffffffffff81111561170d5761170d611315565b6117218161171b8454611596565b846116a4565b602080601f831160018114611756576000841561173e5750858301515b600019600386901b1c1916600185901b1785556116ea565b600085815260208120601f198616915b8281101561178557888601518255948401946001909101908401611766565b50858210156117a35787850151600019600388901b60f8161c191681555b5050505050600190811b01905550565b6000828210156117c5576117c5611676565b500390565b634e487b7160e01b600052602160045260246000fd5b8281526040602082015260006117f960408301846112d6565b949350505050565b60006020828403121561181357600080fd5b8151610c928161127356fea2646970667358221220f28750c9a1239a64c4d582d21369751f4f98b4da63672288036ad9432d4dff4064736f6c634300080f0033",
    "linkReferences": {}
  },
  "methodIdentifiers": {
    "balanceOf(address)": "70a08231",
    "checkIfSpecExists(string)": "e8e168ec",
    "createSpecAsRaftOwner(string,uint256)": "4249d86e",
    "getHash(address,address,string)": "c5cf33c2",
    "getTokenIdFromHash(bytes32)": "ea924dec",
    "give(address,string,bytes)": "ec64948e",
    "mintAuthorizedBadge(address,string,bytes)": "781334c5",
    "name()": "06fdde03",
    "ownerOf(uint256)": "6352211e",
    "supportsInterface(bytes4)": "01ffc9a7",
    "symbol()": "95d89b41",
    "take(address,string,bytes)": "a3947803",
    "tokenURI(uint256)": "c87b56dd",
    "unequip(uint256)": "d179e3d0"
  },
  "id": 23
}