{
  "abi": [
    {
      "inputs": [],
      "stateMutability": "nonpayable",
      "type": "constructor"
    },
    {
      "anonymous": false,
      "inputs": [
        {
          "indexed": false,
          "internalType": "address",
          "name": "previousAdmin",
          "type": "address"
        },
        {
          "indexed": false,
          "internalType": "address",
          "name": "newAdmin",
          "type": "address"
        }
      ],
      "name": "AdminChanged",
      "type": "event"
    },
    {
      "anonymous": false,
      "inputs": [
        {
          "indexed": true,
          "internalType": "uint256",
          "name": "tokenId",
          "type": "uint256"
        },
        {
          "indexed": true,
          "internalType": "address",
          "name": "from",
          "type": "address"
        }
      ],
      "name": "BadgeReinstated",
      "type": "event"
    },
    {
      "anonymous": false,
      "inputs": [
        {
          "indexed": true,
          "internalType": "uint256",
          "name": "tokenId",
          "type": "uint256"
        },
        {
          "indexed": true,
          "internalType": "address",
          "name": "from",
          "type": "address"
        },
        {
          "indexed": true,
          "internalType": "uint8",
          "name": "reason",
          "type": "uint8"
        }
      ],
      "name": "BadgeRevoked",
      "type": "event"
    },
    {
      "anonymous": false,
      "inputs": [
        {
          "indexed": true,
          "internalType": "address",
          "name": "beacon",
          "type": "address"
        }
      ],
      "name": "BeaconUpgraded",
      "type": "event"
    },
    {
      "anonymous": false,
      "inputs": [
        {
          "indexed": false,
          "internalType": "uint8",
          "name": "version",
          "type": "uint8"
        }
      ],
      "name": "Initialized",
      "type": "event"
    },
    {
      "anonymous": false,
      "inputs": [
        {
          "indexed": true,
          "internalType": "uint256",
          "name": "tokenId",
          "type": "uint256"
        },
        {
          "indexed": false,
          "internalType": "string",
          "name": "newTokenURI",
          "type": "string"
        },
        {
          "indexed": false,
          "internalType": "address",
          "name": "updater",
          "type": "address"
        }
      ],
      "name": "MetadataUpdate",
      "type": "event"
    },
    {
      "anonymous": false,
      "inputs": [
        {
          "indexed": true,
          "internalType": "address",
          "name": "previousOwner",
          "type": "address"
        },
        {
          "indexed": true,
          "internalType": "address",
          "name": "newOwner",
          "type": "address"
        }
      ],
      "name": "OwnershipTransferred",
      "type": "event"
    },
    {
      "anonymous": false,
      "inputs": [
        {
          "indexed": false,
          "internalType": "string[]",
          "name": "specUris",
          "type": "string[]"
        },
        {
          "indexed": false,
          "internalType": "address",
          "name": "sender",
          "type": "address"
        }
      ],
      "name": "RefreshMetadata",
      "type": "event"
    },
    {
      "anonymous": false,
      "inputs": [
        {
          "indexed": true,
          "internalType": "address",
          "name": "to",
          "type": "address"
        },
        {
          "indexed": false,
          "internalType": "string",
          "name": "specUri",
          "type": "string"
        },
        {
          "indexed": true,
          "internalType": "uint256",
          "name": "raftTokenId",
          "type": "uint256"
        },
        {
          "indexed": true,
          "internalType": "address",
          "name": "raftAddress",
          "type": "address"
        }
      ],
      "name": "SpecCreated",
      "type": "event"
    },
    {
      "anonymous": false,
      "inputs": [
        {
          "indexed": true,
          "internalType": "address",
          "name": "from",
          "type": "address"
        },
        {
          "indexed": true,
          "internalType": "address",
          "name": "to",
          "type": "address"
        },
        {
          "indexed": true,
          "internalType": "uint256",
          "name": "tokenId",
          "type": "uint256"
        }
      ],
      "name": "Transfer",
      "type": "event"
    },
    {
      "anonymous": false,
      "inputs": [
        {
          "indexed": true,
          "internalType": "address",
          "name": "implementation",
          "type": "address"
        }
      ],
      "name": "Upgraded",
      "type": "event"
    },
    {
      "inputs": [
        {
          "internalType": "address[]",
          "name": "_recipients",
          "type": "address[]"
        },
        {
          "internalType": "string",
          "name": "_uri",
          "type": "string"
        }
      ],
      "name": "airdrop",
      "outputs": [],
      "stateMutability": "nonpayable",
      "type": "function"
    },
    {
      "inputs": [
        {
          "internalType": "address",
          "name": "_owner",
          "type": "address"
        }
      ],
      "name": "balanceOf",
      "outputs": [
        {
          "internalType": "uint256",
          "name": "",
          "type": "uint256"
        }
      ],
      "stateMutability": "view",
      "type": "function"
    },
    {
      "inputs": [
        {
          "internalType": "string",
          "name": "_specUri",
          "type": "string"
        },
        {
          "internalType": "uint256",
          "name": "_raftTokenId",
          "type": "uint256"
        }
      ],
      "name": "createSpec",
      "outputs": [],
      "stateMutability": "nonpayable",
      "type": "function"
    },
    {
      "inputs": [
        {
          "internalType": "address",
          "name": "_active",
          "type": "address"
        },
        {
          "internalType": "address",
          "name": "_passive",
          "type": "address"
        },
        {
          "internalType": "string",
          "name": "_uri",
          "type": "string"
        }
      ],
      "name": "getAgreementHash",
      "outputs": [
        {
          "internalType": "bytes32",
          "name": "",
          "type": "bytes32"
        }
      ],
      "stateMutability": "view",
      "type": "function"
    },
    {
      "inputs": [
        {
          "internalType": "address",
          "name": "_to",
          "type": "address"
        },
        {
          "internalType": "string",
          "name": "_uri",
          "type": "string"
        }
      ],
      "name": "getBadgeIdHash",
      "outputs": [
        {
          "internalType": "bytes32",
          "name": "",
          "type": "bytes32"
        }
      ],
      "stateMutability": "view",
      "type": "function"
    },
    {
      "inputs": [],
      "name": "getDataHolderAddress",
      "outputs": [
        {
          "internalType": "address",
          "name": "",
          "type": "address"
        }
      ],
      "stateMutability": "view",
      "type": "function"
    },
    {
      "inputs": [
        {
          "internalType": "address",
          "name": "_issuer",
          "type": "address"
        },
        {
          "internalType": "string",
          "name": "_uri",
          "type": "string"
        },
        {
          "internalType": "bytes32",
          "name": "_root",
          "type": "bytes32"
        }
      ],
      "name": "getMerkleAgreementHash",
      "outputs": [
        {
          "internalType": "bytes32",
          "name": "",
          "type": "bytes32"
        }
      ],
      "stateMutability": "view",
      "type": "function"
    },
    {
      "inputs": [
        {
          "internalType": "address",
          "name": "_requester",
          "type": "address"
        },
        {
          "internalType": "string",
          "name": "_uri",
          "type": "string"
        }
      ],
      "name": "getRequestHash",
      "outputs": [
        {
          "internalType": "bytes32",
          "name": "",
          "type": "bytes32"
        }
      ],
      "stateMutability": "view",
      "type": "function"
    },
    {
      "inputs": [
        {
          "internalType": "address",
          "name": "_to",
          "type": "address"
        },
        {
          "internalType": "string",
          "name": "_uri",
          "type": "string"
        },
        {
          "internalType": "bytes",
          "name": "_signature",
          "type": "bytes"
        }
      ],
      "name": "give",
      "outputs": [
        {
          "internalType": "uint256",
          "name": "",
          "type": "uint256"
        }
      ],
      "stateMutability": "nonpayable",
      "type": "function"
    },
    {
      "inputs": [
        {
          "internalType": "address",
          "name": "_to",
          "type": "address"
        },
        {
          "internalType": "string",
          "name": "_uri",
          "type": "string"
        },
        {
          "internalType": "bytes",
          "name": "_signature",
          "type": "bytes"
        }
      ],
      "name": "giveRequestedBadge",
      "outputs": [
        {
          "internalType": "uint256",
          "name": "",
          "type": "uint256"
        }
      ],
      "stateMutability": "nonpayable",
      "type": "function"
    },
    {
      "inputs": [
        {
          "internalType": "address[]",
          "name": "_recipients",
          "type": "address[]"
        },
        {
          "internalType": "string",
          "name": "_uri",
          "type": "string"
        },
        {
          "internalType": "bytes[]",
          "name": "_signatures",
          "type": "bytes[]"
        }
      ],
      "name": "giveRequestedBadgeToMany",
      "outputs": [],
      "stateMutability": "nonpayable",
      "type": "function"
    },
    {
      "inputs": [
        {
          "internalType": "address[]",
          "name": "_recipients",
          "type": "address[]"
        },
        {
          "internalType": "string",
          "name": "_uri",
          "type": "string"
        },
        {
          "internalType": "bytes[]",
          "name": "_signatures",
          "type": "bytes[]"
        }
      ],
      "name": "giveToMany",
      "outputs": [],
      "stateMutability": "nonpayable",
      "type": "function"
    },
    {
      "inputs": [
        {
          "internalType": "string",
          "name": "_name",
          "type": "string"
        },
        {
          "internalType": "string",
          "name": "_symbol",
          "type": "string"
        },
        {
          "internalType": "string",
          "name": "_version",
          "type": "string"
        },
        {
          "internalType": "address",
          "name": "_nextOwner",
          "type": "address"
        },
        {
          "internalType": "address",
          "name": "_specDataHolderAddress",
          "type": "address"
        }
      ],
      "name": "initialize",
      "outputs": [],
      "stateMutability": "nonpayable",
      "type": "function"
    },
    {
      "inputs": [
        {
          "internalType": "uint256",
          "name": "_badgeId",
          "type": "uint256"
        }
      ],
      "name": "isBadgeValid",
      "outputs": [
        {
          "internalType": "bool",
          "name": "",
          "type": "bool"
        }
      ],
      "stateMutability": "view",
      "type": "function"
    },
    {
      "inputs": [
        {
          "internalType": "address",
          "name": "_issuer",
          "type": "address"
        },
        {
          "internalType": "address",
          "name": "_recipient",
          "type": "address"
        },
        {
          "internalType": "string",
          "name": "_uri",
          "type": "string"
        },
        {
          "internalType": "bytes",
          "name": "_issuerSignature",
          "type": "bytes"
        },
        {
          "internalType": "bytes",
          "name": "_recipientSignature",
          "type": "bytes"
        },
        {
          "internalType": "bytes32",
          "name": "root",
          "type": "bytes32"
        },
        {
          "internalType": "bytes32[]",
          "name": "proof",
          "type": "bytes32[]"
        }
      ],
      "name": "merkleMintWithConsent",
      "outputs": [
        {
          "internalType": "uint256",
          "name": "",
          "type": "uint256"
        }
      ],
      "stateMutability": "nonpayable",
      "type": "function"
    },
    {
      "inputs": [
        {
          "internalType": "address",
          "name": "_from",
          "type": "address"
        },
        {
          "internalType": "string",
          "name": "_uri",
          "type": "string"
        },
        {
          "internalType": "bytes",
          "name": "_signature",
          "type": "bytes"
        },
        {
          "internalType": "bytes32",
          "name": "root",
          "type": "bytes32"
        },
        {
          "internalType": "bytes32[]",
          "name": "proof",
          "type": "bytes32[]"
        }
      ],
      "name": "merkleTake",
      "outputs": [
        {
          "internalType": "uint256",
          "name": "",
          "type": "uint256"
        }
      ],
      "stateMutability": "nonpayable",
      "type": "function"
    },
    {
      "inputs": [
        {
          "internalType": "address",
          "name": "_issuer",
          "type": "address"
        },
        {
          "internalType": "address",
          "name": "_recipient",
          "type": "address"
        },
        {
          "internalType": "string",
          "name": "_uri",
          "type": "string"
        },
        {
          "internalType": "bytes",
          "name": "_issuerSignature",
          "type": "bytes"
        },
        {
          "internalType": "bytes",
          "name": "_recipientSignature",
          "type": "bytes"
        }
      ],
      "name": "mintWithConsent",
      "outputs": [
        {
          "internalType": "uint256",
          "name": "",
          "type": "uint256"
        }
      ],
      "stateMutability": "nonpayable",
      "type": "function"
    },
    {
      "inputs": [],
      "name": "name",
      "outputs": [
        {
          "internalType": "string",
          "name": "",
          "type": "string"
        }
      ],
      "stateMutability": "view",
      "type": "function"
    },
    {
      "inputs": [],
      "name": "owner",
      "outputs": [
        {
          "internalType": "address",
          "name": "",
          "type": "address"
        }
      ],
      "stateMutability": "view",
      "type": "function"
    },
    {
      "inputs": [
        {
          "internalType": "uint256",
          "name": "_tokenId",
          "type": "uint256"
        }
      ],
      "name": "ownerOf",
      "outputs": [
        {
          "internalType": "address",
          "name": "",
          "type": "address"
        }
      ],
      "stateMutability": "view",
      "type": "function"
    },
    {
      "inputs": [],
      "name": "proxiableUUID",
      "outputs": [
        {
          "internalType": "bytes32",
          "name": "",
          "type": "bytes32"
        }
      ],
      "stateMutability": "view",
      "type": "function"
    },
    {
      "inputs": [
        {
          "internalType": "string[]",
          "name": "_specUris",
          "type": "string[]"
        }
      ],
      "name": "refreshMetadata",
      "outputs": [],
      "stateMutability": "nonpayable",
      "type": "function"
    },
    {
      "inputs": [
        {
          "internalType": "uint256",
          "name": "_raftTokenId",
          "type": "uint256"
        },
        {
          "internalType": "uint256",
          "name": "_badgeId",
          "type": "uint256"
        }
      ],
      "name": "reinstateBadge",
      "outputs": [],
      "stateMutability": "nonpayable",
      "type": "function"
    },
    {
      "inputs": [],
      "name": "renounceOwnership",
      "outputs": [],
      "stateMutability": "nonpayable",
      "type": "function"
    },
    {
      "inputs": [
        {
          "internalType": "uint256",
          "name": "_raftTokenId",
          "type": "uint256"
        },
        {
          "internalType": "uint256",
          "name": "_badgeId",
          "type": "uint256"
        },
        {
          "internalType": "uint8",
          "name": "_reason",
          "type": "uint8"
        }
      ],
      "name": "revokeBadge",
      "outputs": [],
      "stateMutability": "nonpayable",
      "type": "function"
    },
    {
      "inputs": [
        {
          "internalType": "address",
          "name": "_dataHolder",
          "type": "address"
        }
      ],
      "name": "setDataHolder",
      "outputs": [],
      "stateMutability": "nonpayable",
      "type": "function"
    },
    {
      "inputs": [
        {
          "internalType": "bytes4",
          "name": "_interfaceId",
          "type": "bytes4"
        }
      ],
      "name": "supportsInterface",
      "outputs": [
        {
          "internalType": "bool",
          "name": "",
          "type": "bool"
        }
      ],
      "stateMutability": "view",
      "type": "function"
    },
    {
      "inputs": [],
      "name": "symbol",
      "outputs": [
        {
          "internalType": "string",
          "name": "",
          "type": "string"
        }
      ],
      "stateMutability": "view",
      "type": "function"
    },
    {
      "inputs": [
        {
          "internalType": "address",
          "name": "_from",
          "type": "address"
        },
        {
          "internalType": "string",
          "name": "_uri",
          "type": "string"
        },
        {
          "internalType": "bytes",
          "name": "_signature",
          "type": "bytes"
        }
      ],
      "name": "take",
      "outputs": [
        {
          "internalType": "uint256",
          "name": "",
          "type": "uint256"
        }
      ],
      "stateMutability": "nonpayable",
      "type": "function"
    },
    {
      "inputs": [
        {
          "internalType": "uint256",
          "name": "_tokenId",
          "type": "uint256"
        }
      ],
      "name": "tokenURI",
      "outputs": [
        {
          "internalType": "string",
          "name": "",
          "type": "string"
        }
      ],
      "stateMutability": "view",
      "type": "function"
    },
    {
      "inputs": [
        {
          "internalType": "address",
          "name": "newOwner",
          "type": "address"
        }
      ],
      "name": "transferOwnership",
      "outputs": [],
      "stateMutability": "nonpayable",
      "type": "function"
    },
    {
      "inputs": [
        {
          "internalType": "uint256",
          "name": "_tokenId",
          "type": "uint256"
        }
      ],
      "name": "unequip",
      "outputs": [],
      "stateMutability": "nonpayable",
      "type": "function"
    },
    {
      "inputs": [
        {
          "internalType": "uint256",
          "name": "_tokenId",
          "type": "uint256"
        },
        {
          "internalType": "string",
          "name": "_oldTokenURI",
          "type": "string"
        },
        {
          "internalType": "string",
          "name": "_newTokenURI",
          "type": "string"
        }
      ],
      "name": "updateTokenURI",
      "outputs": [],
      "stateMutability": "nonpayable",
      "type": "function"
    },
    {
      "inputs": [
        {
          "internalType": "address",
          "name": "newImplementation",
          "type": "address"
        }
      ],
      "name": "upgradeTo",
      "outputs": [],
      "stateMutability": "nonpayable",
      "type": "function"
    },
    {
      "inputs": [
        {
          "internalType": "address",
          "name": "newImplementation",
          "type": "address"
        },
        {
          "internalType": "bytes",
          "name": "data",
          "type": "bytes"
        }
      ],
      "name": "upgradeToAndCall",
      "outputs": [],
      "stateMutability": "payable",
      "type": "function"
    }
  ],
  "bytecode": {
    "object": "0x60a0604052306080523480156200001557600080fd5b506200002062000026565b620000e8565b600054610100900460ff1615620000935760405162461bcd60e51b815260206004820152602760248201527f496e697469616c697a61626c653a20636f6e747261637420697320696e697469604482015266616c697a696e6760c81b606482015260840160405180910390fd5b60005460ff9081161015620000e6576000805460ff191660ff9081179091556040519081527f7f26b83ff96e1f2b6a682f133852f6798a09c465da95921460cefb38474024989060200160405180910390a15b565b60805161483f6200012060003960008181610ae801528181610b28015281816113a9015281816113e9015261147c015261483f6000f3fe6080604052600436106102045760003560e01c806380956c7e11610118578063bdbdbcbf116100a0578063d179e3d01161006f578063d179e3d0146105d7578063d6d0faee146105f7578063e499250614610617578063ec64948e14610637578063f2fde38b1461065757600080fd5b8063bdbdbcbf14610557578063c018411214610577578063c7a35fed14610597578063c87b56dd146105b757600080fd5b8063a32c9c7a116100e7578063a32c9c7a146104b7578063a3947803146104d7578063a8cf8683146104f7578063bc4b544714610517578063bd6645e41461053757600080fd5b806380956c7e146104445780638339a133146104645780638da5cb5b1461048457806395d89b41146104a257600080fd5b80634a086b531161019b5780636352211e1161016a5780636352211e14610398578063635ad993146103d057806370a08231146103ef578063715018a61461040f5780637c402f8d1461042457600080fd5b80634a086b53146103305780634a50b376146103505780634f1ef2861461037057806352d1902d1461038357600080fd5b80631766c038116101d75780631766c038146102a25780633659cfe6146102d057806339ae37c0146102f0578063445a62b91461031057600080fd5b806301ffc9a71461020957806306fdde031461023e57806307049fb5146102605780630f4d9b0114610282575b600080fd5b34801561021557600080fd5b506102296102243660046138a1565b610677565b60405190151581526020015b60405180910390f35b34801561024a57600080fd5b506102536106c9565b604051610235919061391b565b34801561026c57600080fd5b5061028061027b36600461396f565b61075c565b005b34801561028e57600080fd5b5061022961029d3660046139e8565b61092d565b3480156102ae57600080fd5b506102c26102bd366004613a26565b61098b565b604051908152602001610235565b3480156102dc57600080fd5b506102806102eb366004613a65565b610ade565b3480156102fc57600080fd5b5061028061030b366004613ac6565b610bbd565b34801561031c57600080fd5b5061028061032b366004613b31565b610d43565b34801561033c57600080fd5b506102c261034b366004613b7c565b611001565b34801561035c57600080fd5b5061028061036b366004613c77565b611167565b61028061037e366004613d6a565b61139f565b34801561038f57600080fd5b506102c261146f565b3480156103a457600080fd5b506103b86103b33660046139e8565b611522565b6040516001600160a01b039091168152602001610235565b3480156103dc57600080fd5b50610135546001600160a01b03166103b8565b3480156103fb57600080fd5b506102c261040a366004613a65565b611577565b34801561041b57600080fd5b506102806115ff565b34801561043057600080fd5b5061028061043f366004613e11565b611613565b34801561045057600080fd5b5061028061045f366004613e50565b6117d7565b34801561047057600080fd5b506102c261047f366004613e72565b611991565b34801561049057600080fd5b5060c9546001600160a01b03166103b8565b3480156104ae57600080fd5b50610253611a1e565b3480156104c357600080fd5b506102806104d2366004613ec6565b611a2e565b3480156104e357600080fd5b506102c26104f2366004613a26565b611c4a565b34801561050357600080fd5b506102c2610512366004613e72565b611d94565b34801561052357600080fd5b506102c2610532366004613f5f565b611dca565b34801561054357600080fd5b506102c2610552366004614009565b612083565b34801561056357600080fd5b50610280610572366004614064565b6120fd565b34801561058357600080fd5b50610280610592366004613a65565b6121a0565b3480156105a357600080fd5b506102c26105b23660046140a5565b6121cb565b3480156105c357600080fd5b506102536105d23660046139e8565b61240f565b3480156105e357600080fd5b506102806105f23660046139e8565b612516565b34801561060357600080fd5b5061028061061236600461419a565b6125bd565b34801561062357600080fd5b506102c2610632366004614259565b61279c565b34801561064357600080fd5b506102c2610652366004613a26565b61280c565b34801561066357600080fd5b50610280610672366004613a65565b612949565b60006001600160e01b03198216635b5e139f60e01b14806106a857506001600160e01b031982166346bdd63960e11b145b806106c357506301ffc9a760e01b6001600160e01b03198316145b92915050565b606061013080546106d9906142b1565b80601f0160208091040260200160405190810160405280929190818152602001828054610705906142b1565b80156107525780601f1061072757610100808354040283529160200191610752565b820191906000526020600020905b81548152906001019060200180831161073557829003601f168201915b5050505050905090565b6000858152610132602052604090205485906001600160a01b031661079c5760405162461bcd60e51b8152600401610793906142e5565b60405180910390fd5b61013554604051633664a8e960e01b81526000916001600160a01b031690633664a8e9906107d09089908990600401614343565b602060405180830381865afa1580156107ed573d6000803e3d6000fd5b505050506040513d601f19601f820116820180604052508101906108119190614357565b6101355460405163e3ee9c4d60e01b8152600481018390523360248201529192506001600160a01b03169063e3ee9c4d90604401602060405180830381865afa158015610862573d6000803e3d6000fd5b505050506040513d601f19601f820116820180604052508101906108869190614370565b6108cd5760405162461bcd60e51b815260206004820152601860248201527719da5d99551bd3585b9e4e881d5b985d5d1a1bdc9a5e995960421b6044820152606401610793565b6000878152610133602052604090206108e78486836143d8565b50867ff18086b56a38cf9120433bfea3587a4ea12e2af9df52215f3a85149422f33d8385853360405161091c93929190614498565b60405180910390a250505050505050565b6000818152610132602052604081205482906001600160a01b03166109645760405162461bcd60e51b8152600401610793906142e5565b600883901c60009081526101376020526040902054600160ff85161b161591505b50919050565b61013554604051633664a8e960e01b815260009182916001600160a01b0390911690633664a8e9906109c39089908990600401614343565b602060405180830381865afa1580156109e0573d6000803e3d6000fd5b505050506040513d601f19601f82011682018060405250810190610a049190614357565b6101355460405163e3ee9c4d60e01b8152600481018390523360248201529192506001600160a01b03169063e3ee9c4d90604401602060405180830381865afa158015610a55573d6000803e3d6000fd5b505050506040513d601f19601f82011682018060405250810190610a799190614370565b610ac55760405162461bcd60e51b815260206004820181905260248201527f6769766552657175657374656442616467653a20756e617574686f72697a65646044820152606401610793565b610ad38787878787866129bf565b979650505050505050565b6001600160a01b037f0000000000000000000000000000000000000000000000000000000000000000163003610b265760405162461bcd60e51b8152600401610793906144c4565b7f00000000000000000000000000000000000000000000000000000000000000006001600160a01b0316610b6f6000805160206147c3833981519152546001600160a01b031690565b6001600160a01b031614610b955760405162461bcd60e51b815260040161079390614510565b610b9e81612a72565b60408051600080825260208201909252610bba91839190612a7a565b50565b61013554604051633664a8e960e01b81526000916001600160a01b031690633664a8e990610bf19086908690600401614343565b602060405180830381865afa158015610c0e573d6000803e3d6000fd5b505050506040513d601f19601f82011682018060405250810190610c329190614357565b6101355460405163e3ee9c4d60e01b8152600481018390523360248201529192506001600160a01b03169063e3ee9c4d90604401602060405180830381865afa158015610c83573d6000803e3d6000fd5b505050506040513d601f19601f82011682018060405250810190610ca79190614370565b610ceb5760405162461bcd60e51b8152602060048201526015602482015274185a5c991c9bdc0e881d5b985d5d1a1bdc9a5e9959605a1b6044820152606401610793565b60005b84811015610d3b57610d28868683818110610d0b57610d0b61455c565b9050602002016020810190610d209190613a65565b858585612bea565b5080610d3381614588565b915050610cee565b505050505050565b6101355460405163e3ee9c4d60e01b8152600481018390523360248201526001600160a01b039091169063e3ee9c4d90604401602060405180830381865afa158015610d93573d6000803e3d6000fd5b505050506040513d601f19601f82011682018060405250810190610db79190614370565b610e035760405162461bcd60e51b815260206004820152601860248201527f637265617465537065633a20756e617574686f72697a656400000000000000006044820152606401610793565b61013554604051637e07102760e11b81526001600160a01b039091169063fc0e204e90610e369086908690600401614343565b602060405180830381865afa158015610e53573d6000803e3d6000fd5b505050506040513d601f19601f82011682018060405250810190610e779190614370565b15610ed05760405162461bcd60e51b815260206004820152602360248201527f637265617465537065633a207370656320616c726561647920726567697374656044820152621c995960ea1b6064820152608401610793565b6101355460405163addd190760e01b81526001600160a01b039091169063addd190790610f05908690869086906004016145a1565b600060405180830381600087803b158015610f1f57600080fd5b505af1158015610f33573d6000803e3d6000fd5b5050505061013560009054906101000a90046001600160a01b03166001600160a01b03166334f876626040518163ffffffff1660e01b8152600401602060405180830381865afa158015610f8b573d6000803e3d6000fd5b505050506040513d601f19601f82011682018060405250810190610faf91906145c5565b6001600160a01b031681336001600160a01b03167f68c7f8503283c455a4445b54a7d5c40656c8cae5cca0583c6d4be836984787008686604051610ff4929190614343565b60405180910390a4505050565b600061101489338a8a8a8a8a8a8a612d69565b61013554604051633664a8e960e01b81526000916001600160a01b031690633664a8e990611048908c908c90600401614343565b602060405180830381865afa158015611065573d6000803e3d6000fd5b505050506040513d601f19601f820116820180604052508101906110899190614357565b6101355460405163e3ee9c4d60e01b8152600481018390526001600160a01b038d8116602483015292935091169063e3ee9c4d90604401602060405180830381865afa1580156110dd573d6000803e3d6000fd5b505050506040513d601f19601f820116820180604052508101906111019190614370565b61114d5760405162461bcd60e51b815260206004820152601860248201527f6d65726b6c6554616b653a20756e617574686f72697a656400000000000000006044820152606401610793565b611159338a8a84612bea565b9a9950505050505050505050565b845181146111e95760405162461bcd60e51b815260206004820152604360248201527f676976655265717565737465644261646765546f4d616e793a2072656369706960448201527f656e747320616e64207369676e617475726573206c656e677468206d69736d616064820152620e8c6d60eb1b608482015260a401610793565b61013554604051633664a8e960e01b81526000916001600160a01b031690633664a8e99061121d9088908890600401614343565b602060405180830381865afa15801561123a573d6000803e3d6000fd5b505050506040513d601f19601f8201168201806040525081019061125e9190614357565b6101355460405163e3ee9c4d60e01b8152600481018390523360248201529192506001600160a01b03169063e3ee9c4d90604401602060405180830381865afa1580156112af573d6000803e3d6000fd5b505050506040513d601f19601f820116820180604052508101906112d39190614370565b61132e5760405162461bcd60e51b815260206004820152602660248201527f676976655265717565737465644261646765546f4d616e793a20756e617574686044820152651bdc9a5e995960d21b6064820152608401610793565b60005b86518110156113965761138387828151811061134f5761134f61455c565b6020026020010151878787878681811061136b5761136b61455c565b905060200281019061137d91906145e2565b876129bf565b508061138e81614588565b915050611331565b50505050505050565b6001600160a01b037f00000000000000000000000000000000000000000000000000000000000000001630036113e75760405162461bcd60e51b8152600401610793906144c4565b7f00000000000000000000000000000000000000000000000000000000000000006001600160a01b03166114306000805160206147c3833981519152546001600160a01b031690565b6001600160a01b0316146114565760405162461bcd60e51b815260040161079390614510565b61145f82612a72565b61146b82826001612a7a565b5050565b6000306001600160a01b037f0000000000000000000000000000000000000000000000000000000000000000161461150f5760405162461bcd60e51b815260206004820152603860248201527f555550535570677261646561626c653a206d757374206e6f742062652063616c60448201527f6c6564207468726f7567682064656c656761746563616c6c00000000000000006064820152608401610793565b506000805160206147c383398151915290565b6000818152610132602052604081205482906001600160a01b03166115595760405162461bcd60e51b8152600401610793906142e5565b5050600090815261013260205260409020546001600160a01b031690565b60006001600160a01b0382166115e25760405162461bcd60e51b815260206004820152602a60248201527f62616c616e63654f663a2061646472657373283029206973206e6f742061207660448201526930b634b21037bbb732b960b11b6064820152608401610793565b506001600160a01b03166000908152610134602052604090205490565b611607612ef6565b6116116000612f50565b565b6000828152610132602052604090205482906001600160a01b031661164a5760405162461bcd60e51b8152600401610793906142e5565b6101355460405163e3ee9c4d60e01b8152600481018690523360248201526001600160a01b039091169063e3ee9c4d90604401602060405180830381865afa15801561169a573d6000803e3d6000fd5b505050506040513d601f19601f820116820180604052508101906116be9190614370565b61170a5760405162461bcd60e51b815260206004820152601960248201527f7265766f6b6542616467653a20756e617574686f72697a6564000000000000006044820152606401610793565b600883901c60009081526101376020526040902054600160ff85161b161561177f5760405162461bcd60e51b815260206004820152602260248201527f7265766f6b6542616467653a20626164676520616c7265616479207265766f6b604482015261195960f21b6064820152608401610793565b600883901c6000908152610137602052604090208054600160ff86161b17905560405160ff831690339085907ffa784c48260e8db512de5f055a2f29eced211a7b3bd6338058b095ada7354cee90600090a450505050565b6000818152610132602052604090205481906001600160a01b031661180e5760405162461bcd60e51b8152600401610793906142e5565b6101355460405163e3ee9c4d60e01b8152600481018590523360248201526001600160a01b039091169063e3ee9c4d90604401602060405180830381865afa15801561185e573d6000803e3d6000fd5b505050506040513d601f19601f820116820180604052508101906118829190614370565b6118ce5760405162461bcd60e51b815260206004820152601c60248201527f7265696e737461746542616467653a20756e617574686f72697a6564000000006044820152606401610793565b600882901c60009081526101376020526040902054600160ff84161b166119415760405162461bcd60e51b815260206004820152602160248201527f7265696e737461746542616467653a206261646765206e6f74207265766f6b656044820152601960fa1b6064820152608401610793565b600882901c600090815261013760205260408082208054600160ff87161b1916905551339184917f7f8cf9ecf2a5225948f8a1601709cedc8471c52ee75a8174c9845c29c99ed9a29190a3505050565b6000611a147fa1cd8d39eb877323a4bcf08188675058ee9a4534d4c79021300b3722aeda505d8585856040516119c8929190614628565b6040519081900381206119f99392916020019283526001600160a01b03919091166020830152604082015260600190565b60405160208183030381529060405280519060200120612fa2565b90505b9392505050565b606061013180546106d9906142b1565b848114611a9b5760405162461bcd60e51b815260206004820152603560248201527f67697665546f4d616e793a20726563697069656e747320616e64207369676e616044820152740e8eae4cae640d8cadccee8d040dad2e6dac2e8c6d605b1b6064820152608401610793565b61013554604051633664a8e960e01b81526000916001600160a01b031690633664a8e990611acf9088908890600401614343565b602060405180830381865afa158015611aec573d6000803e3d6000fd5b505050506040513d601f19601f82011682018060405250810190611b109190614357565b6101355460405163e3ee9c4d60e01b8152600481018390523360248201529192506001600160a01b03169063e3ee9c4d90604401602060405180830381865afa158015611b61573d6000803e3d6000fd5b505050506040513d601f19601f82011682018060405250810190611b859190614370565b611bcc5760405162461bcd60e51b815260206004820152601860248201527719da5d99551bd3585b9e4e881d5b985d5d1a1bdc9a5e995960421b6044820152606401610793565b60005b86811015611c4057611c2d888883818110611bec57611bec61455c565b9050602002016020810190611c019190613a65565b8787878786818110611c1557611c1561455c565b9050602002810190611c2791906145e2565b87612ff0565b5080611c3881614588565b915050611bcf565b5050505050505050565b6000611c5a338787878787612ffc565b61013554604051633664a8e960e01b81526000916001600160a01b031690633664a8e990611c8e9089908990600401614343565b602060405180830381865afa158015611cab573d6000803e3d6000fd5b505050506040513d601f19601f82011682018060405250810190611ccf9190614357565b6101355460405163e3ee9c4d60e01b8152600481018390526001600160a01b038a8116602483015292935091169063e3ee9c4d90604401602060405180830381865afa158015611d23573d6000803e3d6000fd5b505050506040513d601f19601f82011682018060405250810190611d479190614370565b611d885760405162461bcd60e51b81526020600482015260126024820152711d185ad94e881d5b985d5d1a1bdc9a5e995960721b6044820152606401610793565b610ad333878784612bea565b6000838383604051602001611dab93929190614638565b6040516020818303038152906040528051906020012090509392505050565b61013554604051633664a8e960e01b815260009182916001600160a01b0390911690633664a8e990611e02908b908b90600401614343565b602060405180830381865afa158015611e1f573d6000803e3d6000fd5b505050506040513d601f19601f82011682018060405250810190611e439190614357565b6101355460405163e3ee9c4d60e01b8152600481018390526001600160a01b038d8116602483015292935091169063e3ee9c4d90604401602060405180830381865afa158015611e97573d6000803e3d6000fd5b505050506040513d601f19601f82011682018060405250810190611ebb9190614370565b611f075760405162461bcd60e51b815260206004820152601d60248201527f6d696e7457697468436f6e73656e743a20756e617574686f72697a65640000006044820152606401610793565b6000611f158a8c8b8b61279c565b9050611f588b8289898080601f0160208091040260200160405190810160405280939291908181526020018383808284376000920191909152506130a292505050565b611fb65760405162461bcd60e51b815260206004820152602960248201527f6d696e7457697468436f6e73656e743a20696e76616c696420697373756572206044820152687369676e617475726560b81b6064820152608401610793565b6000611fc38b8b8b611991565b90506120068b8288888080601f0160208091040260200160405190810160405280939291908181526020018383808284376000920191909152506130a292505050565b6120675760405162461bcd60e51b815260206004820152602c60248201527f6d696e7457697468436f6e73656e743a20696e76616c6964207265636970696560448201526b6e74207369676e617475726560a01b6064820152608401610793565b6120738b8b8b86612bea565b9c9b505050505050505050505050565b60006120f27f6d0d990916a9f9c9e0896e59ce7f5ddddff333d0c8772438ce004fa7719b164b8686866040516120ba929190614628565b6040519081900381206119f993929187906020019384526001600160a01b039290921660208401526040830152606082015260800190565b90505b949350505050565b612105612ef6565b806121615760405162461bcd60e51b815260206004820152602660248201527f726566726573684d657461646174613a206e6f207370656320757269732070726044820152651bdd9a59195960d21b6064820152608401610793565b7f2231d988b1a75dccab13dee3564b71a551900e822e94177a96f19561890c0fd58282336040516121949392919061465d565b60405180910390a15050565b6121a8612ef6565b61013580546001600160a01b0319166001600160a01b0392909216919091179055565b61013554604051633664a8e960e01b815260009182916001600160a01b0390911690633664a8e990612203908e908e90600401614343565b602060405180830381865afa158015612220573d6000803e3d6000fd5b505050506040513d601f19601f820116820180604052508101906122449190614357565b905061013560009054906101000a90046001600160a01b03166001600160a01b031663e3ee9c4d828f6040518363ffffffff1660e01b815260040161229c9291909182526001600160a01b0316602082015260400190565b602060405180830381865afa1580156122b9573d6000803e3d6000fd5b505050506040513d601f19601f820116820180604052508101906122dd9190614370565b6123295760405162461bcd60e51b815260206004820152601d60248201527f6d696e7457697468436f6e73656e743a20756e617574686f72697a65640000006044820152606401610793565b61233a8d8d8d8d8d8d8b8b8b612d69565b60006123478d8d8d611991565b905061238a8d828a8a8080601f0160208091040260200160405190810160405280939291908181526020018383808284376000920191909152506130a292505050565b6123f15760405162461bcd60e51b815260206004820152603260248201527f6d65726b6c654d696e7457697468436f6e73656e743a20696e76616c696420726044820152716563697069656e74207369676e617475726560701b6064820152608401610793565b6123fd8d8d8d85612bea565b9e9d5050505050505050505050505050565b600081815261013260205260409020546060906001600160a01b03166124775760405162461bcd60e51b815260206004820152601d60248201527f746f6b656e5552493a20746f6b656e20646f65736e27742065786973740000006044820152606401610793565b6000828152610133602052604090208054612491906142b1565b80601f01602080910402602001604051908101604052809291908181526020018280546124bd906142b1565b801561250a5780601f106124df5761010080835404028352916020019161250a565b820191906000526020600020905b8154815290600101906020018083116124ed57829003601f168201915b50505050509050919050565b6000818152610132602052604090205481906001600160a01b031661254d5760405162461bcd60e51b8152600401610793906142e5565b600082815261013260205260409020546001600160a01b031633146125b45760405162461bcd60e51b815260206004820152601d60248201527f756e65717569703a2073656e646572206d757374206265206f776e65720000006044820152606401610793565b61146b826131e4565b600054610100900460ff16158080156125dd5750600054600160ff909116105b806125f75750303b1580156125f7575060005460ff166001145b61265a5760405162461bcd60e51b815260206004820152602e60248201527f496e697469616c697a61626c653a20636f6e747261637420697320616c72656160448201526d191e481a5b9a5d1a585b1a5e995960921b6064820152608401610793565b6000805460ff19166001179055801561267d576000805461ff0019166101001790555b61013061268b898b836143d8565b5061013161269a8789836143d8565b5061013580546001600160a01b0319166001600160a01b0384161790556126bf61328f565b6126c76132b6565b61273a89898080601f01602080910402602001604051908101604052809392919081815260200183838082843760009201919091525050604080516020601f8b0181900481028201810190925289815292508991508890819084018382808284376000920191909152506132e592505050565b61274261328f565b61274b83612949565b8015612791576000805461ff0019169055604051600181527f7f26b83ff96e1f2b6a682f133852f6798a09c465da95921460cefb38474024989060200160405180910390a15b505050505050505050565b60006120f27fe76a195fbe43f0eaa611595069f780493db2202a1cc4b2d7d44b47069812998a868686866040516127d4929190614628565b6040519081900381206119f9949392916020019384526001600160a01b03928316602085015291166040830152606082015260800190565b61013554604051633664a8e960e01b815260009182916001600160a01b0390911690633664a8e9906128449089908990600401614343565b602060405180830381865afa158015612861573d6000803e3d6000fd5b505050506040513d601f19601f820116820180604052508101906128859190614357565b6101355460405163e3ee9c4d60e01b8152600481018390523360248201529192506001600160a01b03169063e3ee9c4d90604401602060405180830381865afa1580156128d6573d6000803e3d6000fd5b505050506040513d601f19601f820116820180604052508101906128fa9190614370565b61293b5760405162461bcd60e51b815260206004820152601260248201527119da5d994e881d5b985d5d1a1bdc9a5e995960721b6044820152606401610793565b610ad3878787878786612ff0565b612951612ef6565b6001600160a01b0381166129b65760405162461bcd60e51b815260206004820152602660248201527f4f776e61626c653a206e6577206f776e657220697320746865207a65726f206160448201526564647265737360d01b6064820152608401610793565b610bba81612f50565b6000612a0c876129d0898989611991565b86868080601f0160208091040260200160405190810160405280939291908181526020018383808284376000920191909152506130a292505050565b612a665760405162461bcd60e51b815260206004820152602560248201527f6769766552657175657374656442616467653a20696e76616c6964207369676e604482015264617475726560d81b6064820152608401610793565b610ad387878785612bea565b610bba612ef6565b7f4910fdfa16fed3260ed0e7147f7cc6da11a60208b5b9406d12a635614ffd91435460ff1615612ab257612aad83613316565b505050565b826001600160a01b03166352d1902d6040518163ffffffff1660e01b8152600401602060405180830381865afa925050508015612b0c575060408051601f3d908101601f19168201909252612b0991810190614357565b60015b612b6f5760405162461bcd60e51b815260206004820152602e60248201527f45524331393637557067726164653a206e657720696d706c656d656e7461746960448201526d6f6e206973206e6f74205555505360901b6064820152608401610793565b6000805160206147c38339815191528114612bde5760405162461bcd60e51b815260206004820152602960248201527f45524331393637557067726164653a20756e737570706f727465642070726f786044820152681a58589b195555525160ba1b6064820152608401610793565b50612aad8383836133b2565b600080612bf8868686611d94565b600081815261013260205260409020549091506001600160a01b031615612c585760405162461bcd60e51b81526020600482015260146024820152736d696e743a20746f6b656e49442065786973747360601b6044820152606401610793565b6001600160a01b038616600090815261013460205260408120805491612c7d83614588565b909155505060008181526101326020908152604080832080546001600160a01b0319166001600160a01b038b161790556101339091529020612cc08587836143d8565b5060405181906001600160a01b038816906000907fddf252ad1be2c89b69c2b068fc378daa952ba7f163c4a11628f55a4df523b3ef908290a46101355460405163fb74926160e01b815260048101839052602481018590526001600160a01b039091169063fb74926190604401600060405180830381600087803b158015612d4757600080fd5b505af1158015612d5b573d6000803e3d6000fd5b509298975050505050505050565b612db589612d798b8a8a88612083565b87878080601f0160208091040260200160405190810160405280939291908181526020018383808284376000920191909152506130a292505050565b612e155760405162461bcd60e51b815260206004820152602b60248201527f73616665436865636b4d65726b6c6541677265656d656e743a20696e76616c6960448201526a64207369676e617475726560a81b6064820152608401610793565b6040516bffffffffffffffffffffffff1960608a901b166020820152600090603401604051602081830303815290604052805190602001209050612e8f8383808060200260200160405190810160405280939291908181526020018383602002808284376000920191909152508892508591506133dd9050565b612eea5760405162461bcd60e51b815260206004820152602660248201527f73616665436865636b4d65726b6c6541677265656d656e743a20696e76616c6960448201526532103632b0b360d11b6064820152608401610793565b50505050505050505050565b60c9546001600160a01b031633146116115760405162461bcd60e51b815260206004820181905260248201527f4f776e61626c653a2063616c6c6572206973206e6f7420746865206f776e65726044820152606401610793565b60c980546001600160a01b038381166001600160a01b0319831681179093556040519116919082907f8be0079c531659141344cd1fd0a4f28419497f9722a3daafe3b4186f6b6457e090600090a35050565b60006106c3612faf6133f3565b8360405161190160f01b6020820152602281018390526042810182905260009060620160405160208183030381529060405280519060200120905092915050565b6000612a663388888888885b6130488561300c8888888861279c565b84848080601f0160208091040260200160405190810160405280939291908181526020018383808284376000920191909152506130a292505050565b610d3b5760405162461bcd60e51b815260206004820152602560248201527f73616665436865636b41677265656d656e743a20696e76616c6964207369676e604482015264617475726560d81b6064820152608401610793565b60008060006130b1858561342f565b909250905060008160048111156130ca576130ca614706565b1480156130e85750856001600160a01b0316826001600160a01b0316145b156130f857600192505050611a17565b600080876001600160a01b0316631626ba7e60e01b888860405160240161312092919061471c565b60408051601f198184030181529181526020820180516001600160e01b03166001600160e01b031990941693909317909252905161315e9190614735565b600060405180830381855afa9150503d8060008114613199576040519150601f19603f3d011682016040523d82523d6000602084013e61319e565b606091505b50915091508180156131b1575080516020145b80156131d857508051630b135d3f60e11b906131d69083016020908101908401614357565b145b98975050505050505050565b600081815261013260209081526040808320546001600160a01b031680845261013490925282208054919260019261321d908490614751565b909155505060008281526101326020908152604080832080546001600160a01b0319169055610133909152812061325391613853565b60405182906000906001600160a01b038416907fddf252ad1be2c89b69c2b068fc378daa952ba7f163c4a11628f55a4df523b3ef908390a45050565b600054610100900460ff166116115760405162461bcd60e51b815260040161079390614764565b600054610100900460ff166132dd5760405162461bcd60e51b815260040161079390614764565b61161161349d565b600054610100900460ff1661330c5760405162461bcd60e51b815260040161079390614764565b61146b82826134cd565b6001600160a01b0381163b6133835760405162461bcd60e51b815260206004820152602d60248201527f455243313936373a206e657720696d706c656d656e746174696f6e206973206e60448201526c1bdd08184818dbdb9d1c9858dd609a1b6064820152608401610793565b6000805160206147c383398151915280546001600160a01b0319166001600160a01b0392909216919091179055565b6133bb8361350e565b6000825111806133c85750805b15612aad576133d7838361354e565b50505050565b6000826133ea8584613642565b14949350505050565b600061342a7f8b73c3c69bb8fe3d512ecc4cf759cc79239f7b179b0ffacaa9a75d522b39400f61342260fb5490565b60fc5461368f565b905090565b60008082516041036134655760208301516040840151606085015160001a613459878285856136be565b94509450505050613496565b825160400361348e57602083015160408401516134838683836137ab565b935093505050613496565b506000905060025b9250929050565b600054610100900460ff166134c45760405162461bcd60e51b815260040161079390614764565b61161133612f50565b600054610100900460ff166134f45760405162461bcd60e51b815260040161079390614764565b81516020928301208151919092012060fb9190915560fc55565b61351781613316565b6040516001600160a01b038216907fbc7cd75a20ee27fd9adebab32041f755214dbc6bffa90cc0225b39da2e5c2d3b90600090a250565b60606001600160a01b0383163b6135b65760405162461bcd60e51b815260206004820152602660248201527f416464726573733a2064656c65676174652063616c6c20746f206e6f6e2d636f6044820152651b9d1c9858dd60d21b6064820152608401610793565b600080846001600160a01b0316846040516135d19190614735565b600060405180830381855af49150503d806000811461360c576040519150601f19603f3d011682016040523d82523d6000602084013e613611565b606091505b509150915061363982826040518060600160405280602781526020016147e3602791396137e4565b95945050505050565b600081815b845181101561368757613673828683815181106136665761366661455c565b60200260200101516137fd565b91508061367f81614588565b915050613647565b509392505050565b6040805160208101859052908101839052606081018290524660808201523060a082015260009060c001611dab565b6000807f7fffffffffffffffffffffffffffffff5d576e7357a4501ddfe92f46681b20a08311156136f557506000905060036137a2565b8460ff16601b1415801561370d57508460ff16601c14155b1561371e57506000905060046137a2565b6040805160008082526020820180845289905260ff881692820192909252606081018690526080810185905260019060a0016020604051602081039080840390855afa158015613772573d6000803e3d6000fd5b5050604051601f1901519150506001600160a01b03811661379b576000600192509250506137a2565b9150600090505b94509492505050565b6000806001600160ff1b038316816137c860ff86901c601b6147af565b90506137d6878288856136be565b935093505050935093915050565b606083156137f3575081611a17565b611a178383613829565b6000818310613819576000828152602084905260409020611a17565b5060009182526020526040902090565b8151156138395781518083602001fd5b8060405162461bcd60e51b8152600401610793919061391b565b50805461385f906142b1565b6000825580601f1061386f575050565b601f016020900490600052602060002090810190610bba91905b8082111561389d5760008155600101613889565b5090565b6000602082840312156138b357600080fd5b81356001600160e01b031981168114611a1757600080fd5b60005b838110156138e65781810151838201526020016138ce565b50506000910152565b600081518084526139078160208601602086016138cb565b601f01601f19169290920160200192915050565b602081526000611a1760208301846138ef565b60008083601f84011261394057600080fd5b5081356001600160401b0381111561395757600080fd5b60208301915083602082850101111561349657600080fd5b60008060008060006060868803121561398757600080fd5b8535945060208601356001600160401b03808211156139a557600080fd5b6139b189838a0161392e565b909650945060408801359150808211156139ca57600080fd5b506139d78882890161392e565b969995985093965092949392505050565b6000602082840312156139fa57600080fd5b5035919050565b6001600160a01b0381168114610bba57600080fd5b8035613a2181613a01565b919050565b600080600080600060608688031215613a3e57600080fd5b8535613a4981613a01565b945060208601356001600160401b03808211156139a557600080fd5b600060208284031215613a7757600080fd5b8135611a1781613a01565b60008083601f840112613a9457600080fd5b5081356001600160401b03811115613aab57600080fd5b6020830191508360208260051b850101111561349657600080fd5b60008060008060408587031215613adc57600080fd5b84356001600160401b0380821115613af357600080fd5b613aff88838901613a82565b90965094506020870135915080821115613b1857600080fd5b50613b258782880161392e565b95989497509550505050565b600080600060408486031215613b4657600080fd5b83356001600160401b03811115613b5c57600080fd5b613b688682870161392e565b909790965060209590950135949350505050565b60008060008060008060008060a0898b031215613b9857600080fd5b8835613ba381613a01565b975060208901356001600160401b0380821115613bbf57600080fd5b613bcb8c838d0161392e565b909950975060408b0135915080821115613be457600080fd5b613bf08c838d0161392e565b909750955060608b0135945060808b0135915080821115613c1057600080fd5b50613c1d8b828c01613a82565b999c989b5096995094979396929594505050565b634e487b7160e01b600052604160045260246000fd5b604051601f8201601f191681016001600160401b0381118282101715613c6f57613c6f613c31565b604052919050565b600080600080600060608688031215613c8f57600080fd5b85356001600160401b0380821115613ca657600080fd5b818801915088601f830112613cba57600080fd5b8135602082821115613cce57613cce613c31565b8160051b613cdd828201613c47565b928352848101820192828101908d851115613cf757600080fd5b958301955b84871015613d215786359250613d1183613a01565b8282529583019590830190613cfc565b9a50505089013592505080821115613d3857600080fd5b613d4489838a0161392e565b90965094506040880135915080821115613d5d57600080fd5b506139d788828901613a82565b60008060408385031215613d7d57600080fd5b8235613d8881613a01565b91506020838101356001600160401b0380821115613da557600080fd5b818601915086601f830112613db957600080fd5b813581811115613dcb57613dcb613c31565b613ddd601f8201601f19168501613c47565b91508082528784828501011115613df357600080fd5b80848401858401376000848284010152508093505050509250929050565b600080600060608486031215613e2657600080fd5b8335925060208401359150604084013560ff81168114613e4557600080fd5b809150509250925092565b60008060408385031215613e6357600080fd5b50508035926020909101359150565b600080600060408486031215613e8757600080fd5b8335613e9281613a01565b925060208401356001600160401b03811115613ead57600080fd5b613eb98682870161392e565b9497909650939450505050565b60008060008060008060608789031215613edf57600080fd5b86356001600160401b0380821115613ef657600080fd5b613f028a838b01613a82565b90985096506020890135915080821115613f1b57600080fd5b613f278a838b0161392e565b90965094506040890135915080821115613f4057600080fd5b50613f4d89828a01613a82565b979a9699509497509295939492505050565b60008060008060008060008060a0898b031215613f7b57600080fd5b8835613f8681613a01565b97506020890135613f9681613a01565b965060408901356001600160401b0380821115613fb257600080fd5b613fbe8c838d0161392e565b909850965060608b0135915080821115613fd757600080fd5b613fe38c838d0161392e565b909650945060808b0135915080821115613ffc57600080fd5b50613c1d8b828c0161392e565b6000806000806060858703121561401f57600080fd5b843561402a81613a01565b935060208501356001600160401b0381111561404557600080fd5b6140518782880161392e565b9598909750949560400135949350505050565b6000806020838503121561407757600080fd5b82356001600160401b0381111561408d57600080fd5b61409985828601613a82565b90969095509350505050565b600080600080600080600080600080600060e08c8e0312156140c657600080fd5b6140cf8c613a16565b9a506140dd60208d01613a16565b99506001600160401b038060408e013511156140f857600080fd5b6141088e60408f01358f0161392e565b909a50985060608d013581101561411e57600080fd5b61412e8e60608f01358f0161392e565b909850965060808d013581101561414457600080fd5b6141548e60808f01358f0161392e565b909650945060a08d0135935060c08d013581101561417157600080fd5b506141828d60c08e01358e01613a82565b81935080925050509295989b509295989b9093969950565b60008060008060008060008060a0898b0312156141b657600080fd5b88356001600160401b03808211156141cd57600080fd5b6141d98c838d0161392e565b909a50985060208b01359150808211156141f257600080fd5b6141fe8c838d0161392e565b909850965060408b013591508082111561421757600080fd5b506142248b828c0161392e565b909550935050606089013561423881613a01565b9150608089013561424881613a01565b809150509295985092959890939650565b6000806000806060858703121561426f57600080fd5b843561427a81613a01565b9350602085013561428a81613a01565b925060408501356001600160401b038111156142a557600080fd5b613b258782880161392e565b600181811c908216806142c557607f821691505b60208210810361098557634e487b7160e01b600052602260045260246000fd5b6020808252818101527f746f6b656e4578697374733a20746f6b656e20646f65736e2774206578697374604082015260600190565b81835281816020850137506000828201602090810191909152601f909101601f19169091010190565b602081526000611a1460208301848661431a565b60006020828403121561436957600080fd5b5051919050565b60006020828403121561438257600080fd5b81518015158114611a1757600080fd5b601f821115612aad57600081815260208120601f850160051c810160208610156143b95750805b601f850160051c820191505b81811015610d3b578281556001016143c5565b6001600160401b038311156143ef576143ef613c31565b614403836143fd83546142b1565b83614392565b6000601f841160018114614437576000851561441f5750838201355b600019600387901b1c1916600186901b178355614491565b600083815260209020601f19861690835b828110156144685786850135825560209485019460019092019101614448565b50868210156144855760001960f88860031b161c19848701351681555b505060018560011b0183555b5050505050565b6040815260006144ac60408301858761431a565b905060018060a01b0383166020830152949350505050565b6020808252602c908201527f46756e6374696f6e206d7573742062652063616c6c6564207468726f7567682060408201526b19195b1959d85d1958d85b1b60a21b606082015260800190565b6020808252602c908201527f46756e6374696f6e206d7573742062652063616c6c6564207468726f7567682060408201526b6163746976652070726f787960a01b606082015260800190565b634e487b7160e01b600052603260045260246000fd5b634e487b7160e01b600052601160045260246000fd5b60006001820161459a5761459a614572565b5060010190565b6040815260006145b560408301858761431a565b9050826020830152949350505050565b6000602082840312156145d757600080fd5b8151611a1781613a01565b6000808335601e198436030181126145f957600080fd5b8301803591506001600160401b0382111561461357600080fd5b60200191503681900382131561349657600080fd5b8183823760009101908152919050565b6001600160a01b03841681526040602082018190526000906120f2908301848661431a565b6040808252810183905260006060600585901b8301810190830186835b878110156146ed57858403605f190183528135368a9003601e190181126146a057600080fd5b890160208181019135906001600160401b038211156146be57600080fd5b8136038313156146cd57600080fd5b6146d887838561431a565b9650948501949390930192505060010161467a565b5050506001600160a01b038416602084015290506120f5565b634e487b7160e01b600052602160045260246000fd5b828152604060208201526000611a1460408301846138ef565b600082516147478184602087016138cb565b9190910192915050565b818103818111156106c3576106c3614572565b6020808252602b908201527f496e697469616c697a61626c653a20636f6e7472616374206973206e6f74206960408201526a6e697469616c697a696e6760a81b606082015260800190565b808201808211156106c3576106c361457256fe360894a13ba1a3210667c828492db98dca3e2076cc3735a920a3ca505d382bbc416464726573733a206c6f772d6c6576656c2064656c65676174652063616c6c206661696c6564a264697066735822122085c8bff07371dabc710493619c9d9f65dc66a7739958f9548b1a23ece142548564736f6c63430008100033",
    "linkReferences": {}
  },
  "methodIdentifiers": {
    "airdrop(address[],string)": "39ae37c0",
    "balanceOf(address)": "70a08231",
    "createSpec(string,uint256)": "445a62b9",
    "getAgreementHash(address,address,string)": "e4992506",
    "getBadgeIdHash(address,string)": "a8cf8683",
    "getDataHolderAddress()": "635ad993",
    "getMerkleAgreementHash(address,string,bytes32)": "bd6645e4",
    "getRequestHash(address,string)": "8339a133",
    "give(address,string,bytes)": "ec64948e",
    "giveRequestedBadge(address,string,bytes)": "1766c038",
    "giveRequestedBadgeToMany(address[],string,bytes[])": "4a50b376",
    "giveToMany(address[],string,bytes[])": "a32c9c7a",
    "initialize(string,string,string,address,address)": "d6d0faee",
    "isBadgeValid(uint256)": "0f4d9b01",
    "merkleMintWithConsent(address,address,string,bytes,bytes,bytes32,bytes32[])": "c7a35fed",
    "merkleTake(address,string,bytes,bytes32,bytes32[])": "4a086b53",
    "mintWithConsent(address,address,string,bytes,bytes)": "bc4b5447",
    "name()": "06fdde03",
    "owner()": "8da5cb5b",
    "ownerOf(uint256)": "6352211e",
    "proxiableUUID()": "52d1902d",
    "refreshMetadata(string[])": "bdbdbcbf",
    "reinstateBadge(uint256,uint256)": "80956c7e",
    "renounceOwnership()": "715018a6",
    "revokeBadge(uint256,uint256,uint8)": "7c402f8d",
    "setDataHolder(address)": "c0184112",
    "supportsInterface(bytes4)": "01ffc9a7",
    "symbol()": "95d89b41",
    "take(address,string,bytes)": "a3947803",
    "tokenURI(uint256)": "c87b56dd",
    "transferOwnership(address)": "f2fde38b",
    "unequip(uint256)": "d179e3d0",
    "updateTokenURI(uint256,string,string)": "07049fb5",
    "upgradeTo(address)": "3659cfe6",
    "upgradeToAndCall(address,bytes)": "4f1ef286"
  },
  "id": 44
}