{
  "abi": [
    {
      "inputs": [
        {
          "internalType": "string",
          "name": "name",
          "type": "string"
        },
        {
          "internalType": "string",
          "name": "symbol",
          "type": "string"
        },
        {
          "internalType": "string",
          "name": "version",
          "type": "string"
        }
      ],
      "stateMutability": "nonpayable",
      "type": "constructor"
    },
    {
      "anonymous": false,
      "inputs": [
        {
          "indexed": true,
          "internalType": "address",
          "name": "to",
          "type": "address"
        },
        {
          "indexed": true,
          "internalType": "uint256",
          "name": "tokenId",
          "type": "uint256"
        }
      ],
      "name": "Attest",
      "type": "event"
    },
    {
      "anonymous": false,
      "inputs": [
        {
          "indexed": true,
          "internalType": "address",
          "name": "to",
          "type": "address"
        },
        {
          "indexed": true,
          "internalType": "uint256",
          "name": "tokenId",
          "type": "uint256"
        }
      ],
      "name": "Revoke",
      "type": "event"
    },
    {
      "inputs": [
        {
          "internalType": "address",
          "name": "owner",
          "type": "address"
        }
      ],
      "name": "balanceOf",
      "outputs": [
        {
          "internalType": "uint256",
          "name": "",
          "type": "uint256"
        }
      ],
      "stateMutability": "view",
      "type": "function"
    },
    {
      "inputs": [
        {
          "internalType": "uint256",
          "name": "tokenId",
          "type": "uint256"
        }
      ],
      "name": "burn",
      "outputs": [],
      "stateMutability": "nonpayable",
      "type": "function"
    },
    {
      "inputs": [
        {
          "internalType": "address",
          "name": "chainedAddress",
          "type": "address"
        }
      ],
      "name": "genDataHash",
      "outputs": [
        {
          "internalType": "bytes32",
          "name": "",
          "type": "bytes32"
        }
      ],
      "stateMutability": "view",
      "type": "function"
    },
    {
      "inputs": [
        {
          "internalType": "address",
          "name": "claimantAddress",
          "type": "address"
        },
        {
          "internalType": "uint8",
          "name": "v",
          "type": "uint8"
        },
        {
          "internalType": "bytes32",
          "name": "r",
          "type": "bytes32"
        },
        {
          "internalType": "bytes32",
          "name": "s",
          "type": "bytes32"
        }
      ],
      "name": "isValidIssuerSig",
      "outputs": [
        {
          "internalType": "bool",
          "name": "",
          "type": "bool"
        }
      ],
      "stateMutability": "view",
      "type": "function"
    },
    {
      "inputs": [
        {
          "internalType": "address",
          "name": "from",
          "type": "address"
        },
        {
          "internalType": "string",
          "name": "uri",
          "type": "string"
        },
        {
          "internalType": "bytes",
          "name": "signature",
          "type": "bytes"
        }
      ],
      "name": "mintWithPermission",
      "outputs": [
        {
          "internalType": "uint256",
          "name": "",
          "type": "uint256"
        }
      ],
      "stateMutability": "nonpayable",
      "type": "function"
    },
    {
      "inputs": [],
      "name": "name",
      "outputs": [
        {
          "internalType": "string",
          "name": "",
          "type": "string"
        }
      ],
      "stateMutability": "view",
      "type": "function"
    },
    {
      "inputs": [
        {
          "internalType": "uint256",
          "name": "tokenId",
          "type": "uint256"
        }
      ],
      "name": "ownerOf",
      "outputs": [
        {
          "internalType": "address",
          "name": "",
          "type": "address"
        }
      ],
      "stateMutability": "view",
      "type": "function"
    },
    {
      "inputs": [
        {
          "internalType": "bytes4",
          "name": "interfaceId",
          "type": "bytes4"
        }
      ],
      "name": "supportsInterface",
      "outputs": [
        {
          "internalType": "bool",
          "name": "",
          "type": "bool"
        }
      ],
      "stateMutability": "view",
      "type": "function"
    },
    {
      "inputs": [],
      "name": "symbol",
      "outputs": [
        {
          "internalType": "string",
          "name": "",
          "type": "string"
        }
      ],
      "stateMutability": "view",
      "type": "function"
    },
    {
      "inputs": [
        {
          "internalType": "uint256",
          "name": "tokenId",
          "type": "uint256"
        }
      ],
      "name": "tokenURI",
      "outputs": [
        {
          "internalType": "string",
          "name": "",
          "type": "string"
        }
      ],
      "stateMutability": "view",
      "type": "function"
    }
  ],
  "bytecode": {
    "object": "0x6101606040527ffc6026bf66390baae72e8ab6c753a0ec890e29f92406ca081d4051a8659e34cd610140523480156200003757600080fd5b5060405162001885380380620018858339810160408190526200005a91620001ec565b8282828281818460006200006f83826200030c565b5060016200007e82826200030c565b5050825160208085019190912083518483012060e08290526101008190524660a0818152604080517f8b73c3c69bb8fe3d512ecc4cf759cc79239f7b179b0ffacaa9a75d522b39400f81880181905281830187905260608201869052608082019490945230818401528151808203909301835260c0019052805194019390932091935091906080523060c0526101205250620003d898505050505050505050565b634e487b7160e01b600052604160045260246000fd5b600082601f8301126200014757600080fd5b81516001600160401b03808211156200016457620001646200011f565b604051601f8301601f19908116603f011681019082821181831017156200018f576200018f6200011f565b81604052838152602092508683858801011115620001ac57600080fd5b600091505b83821015620001d05785820183015181830184015290820190620001b1565b83821115620001e25760008385830101525b9695505050505050565b6000806000606084860312156200020257600080fd5b83516001600160401b03808211156200021a57600080fd5b620002288783880162000135565b945060208601519150808211156200023f57600080fd5b6200024d8783880162000135565b935060408601519150808211156200026457600080fd5b50620002738682870162000135565b9150509250925092565b600181811c908216806200029257607f821691505b602082108103620002b357634e487b7160e01b600052602260045260246000fd5b50919050565b601f8211156200030757600081815260208120601f850160051c81016020861015620002e25750805b601f850160051c820191505b818110156200030357828155600101620002ee565b5050505b505050565b81516001600160401b038111156200032857620003286200011f565b62000340816200033984546200027d565b84620002b9565b602080601f8311600181146200037857600084156200035f5750858301515b600019600386901b1c1916600185901b17855562000303565b600085815260208120601f198616915b82811015620003a95788860151825594840194600190910190840162000388565b5085821015620003c85787850151600019600388901b60f8161c191681555b5050505050600190811b01905550565b60805160a05160c05160e0516101005161012051610140516114526200043360003960006106b001526000610ee501526000610f3401526000610f0f01526000610e6801526000610e9201526000610ebc01526114526000f3fe608060405234801561001057600080fd5b506004361061009e5760003560e01c80638fac1c1c116100665780638fac1c1c1461014157806395d89b4114610154578063a51bbab91461015c578063c87b56dd1461016f578063fbe4b62c1461018257600080fd5b806301ffc9a7146100a357806306fdde03146100cb57806342966c68146100e05780636352211e146100f557806370a0823114610120575b600080fd5b6100b66100b136600461101f565b610195565b60405190151581526020015b60405180910390f35b6100d36101c0565b6040516100c29190611098565b6100f36100ee3660046110ab565b610252565b005b6101086101033660046110ab565b6102cc565b6040516001600160a01b0390911681526020016100c2565b61013361012e3660046110e0565b610331565b6040519081526020016100c2565b61013361014f36600461113d565b6103ba565b6100d3610560565b6100b661016a3660046111be565b61056f565b6100d361017d3660046110ab565b6105a6565b6101336101903660046110e0565b6106ab565b60006001600160e01b031982166323eb070760e21b14806101ba57506101ba8261071b565b92915050565b6060600080546101cf90611208565b80601f01602080910402602001604051908101604052809291908181526020018280546101fb90611208565b80156102485780601f1061021d57610100808354040283529160200191610248565b820191906000526020600020905b81548152906001019060200180831161022b57829003601f168201915b5050505050905090565b61025b816102cc565b6001600160a01b0316336001600160a01b0316146102c05760405162461bcd60e51b815260206004820152601a60248201527f6275726e3a2073656e646572206d757374206265206f776e657200000000000060448201526064015b60405180910390fd5b6102c98161076b565b50565b6000818152600260205260408120546001600160a01b0316806101ba5760405162461bcd60e51b815260206004820152601c60248201527f6f776e65724f663a20746f6b656e20646f65736e27742065786973740000000060448201526064016102b7565b60006001600160a01b03821661039e5760405162461bcd60e51b815260206004820152602c60248201527f62616c616e63654f663a2061646472657373207a65726f206973206e6f74206160448201526b103b30b634b21037bbb732b960a11b60648201526084016102b7565b506001600160a01b031660009081526004602052604090205490565b6000806103c987338888610812565b905060008160001c9050610414888387878080601f01602080910402602001604051908101604052809392919081815260200183838082843760009201919091525061088592505050565b61046e5760405162461bcd60e51b815260206004820152602560248201527f6d696e74576974685065726d697373696f6e3a20696e76616c6964207369676e604482015264617475726560d81b60648201526084016102b7565b600881901c600090815260066020526040902054600160ff83161b16156104d75760405162461bcd60e51b815260206004820181905260248201527f6d696e74576974685065726d697373696f6e3a20616c7265616479207573656460448201526064016102b7565b60006104e260055490565b905061052533828a8a8080601f0160208091040260200160405190810160405280939291908181526020018383808284376000920191909152506109d092505050565b50610534600580546001019055565b600882901c60009081526006602052604090208054600160ff85161b1790555b98975050505050505050565b6060600180546101cf90611208565b60008061057b866106ab565b9050600061058b82878787610ad4565b6001600160a01b039081169088161492505050949350505050565b6000818152600260205260409020546060906001600160a01b031661060d5760405162461bcd60e51b815260206004820152601d60248201527f746f6b656e5552493a20746f6b656e20646f65736e277420657869737400000060448201526064016102b7565b6000828152600360205260409020805461062690611208565b80601f016020809104026020016040519081016040528092919081815260200182805461065290611208565b801561069f5780601f106106745761010080835404028352916020019161069f565b820191906000526020600020905b81548152906001019060200180831161068257829003601f168201915b50505050509050919050565b6000807f0000000000000000000000000000000000000000000000000000000000000000836040516020016106f39291909182526001600160a01b0316602082015260400190565b60405160208183030381529060405280519060200120905061071481610afc565b9392505050565b60006001600160e01b03198216635b5e139f60e01b148061074c57506001600160e01b03198216635164cf4760e01b145b806101ba57506301ffc9a760e01b6001600160e01b03198316146101ba565b6000610776826102cc565b6001600160a01b038116600090815260046020526040812080549293506001929091906107a4908490611258565b9091555050600082815260026020908152604080832080546001600160a01b0319169055600390915281206107d891610fbb565b60405182906001600160a01b038316907fec9ab91322523c899ede7830ec9bfc992b5981cdcc27b91162fb23de5791117b90600090a35050565b6000807ffc6026bf66390baae72e8ab6c753a0ec890e29f92406ca081d4051a8659e34cd8660405160200161085a9291909182526001600160a01b0316602082015260400190565b60405160208183030381529060405280519060200120905061087b81610afc565b9695505050505050565b60008060006108948585610b4a565b909250905060008160048111156108ad576108ad61126f565b1480156108cb5750856001600160a01b0316826001600160a01b0316145b156108db57600192505050610714565b600080876001600160a01b0316631626ba7e60e01b8888604051602401610903929190611285565b60408051601f198184030181529181526020820180516001600160e01b03166001600160e01b031990941693909317909252905161094191906112a6565b600060405180830381855afa9150503d806000811461097c576040519150601f19603f3d011682016040523d82523d6000602084013e610981565b606091505b5091509150818015610994575080516020145b801561055457508051630b135d3f60e11b906109b990830160209081019084016112c2565b6001600160e01b0319161498975050505050505050565b6000828152600260205260408120546001600160a01b031615610a2c5760405162461bcd60e51b81526020600482015260146024820152736d696e743a20746f6b656e49442065786973747360601b60448201526064016102b7565b6001600160a01b0384166000908152600460205260408120805460019290610a559084906112df565b9091555050600083815260026020908152604080832080546001600160a01b0319166001600160a01b03891617905560039091529020610a95838261135c565b5060405183906001600160a01b038616907fe9274a84b19e9428826de6bae8c48329354f8f0e73f771b97cae2d9dccd45a2790600090a3509092915050565b6000806000610ae587878787610bb8565b91509150610af281610ca5565b5095945050505050565b60006101ba610b09610e5b565b8360405161190160f01b6020820152602281018390526042810182905260009060620160405160208183030381529060405280519060200120905092915050565b6000808251604103610b805760208301516040840151606085015160001a610b7487828585610bb8565b94509450505050610bb1565b8251604003610ba95760208301516040840151610b9e868383610f82565b935093505050610bb1565b506000905060025b9250929050565b6000807f7fffffffffffffffffffffffffffffff5d576e7357a4501ddfe92f46681b20a0831115610bef5750600090506003610c9c565b8460ff16601b14158015610c0757508460ff16601c14155b15610c185750600090506004610c9c565b6040805160008082526020820180845289905260ff881692820192909252606081018690526080810185905260019060a0016020604051602081039080840390855afa158015610c6c573d6000803e3d6000fd5b5050604051601f1901519150506001600160a01b038116610c9557600060019250925050610c9c565b9150600090505b94509492505050565b6000816004811115610cb957610cb961126f565b03610cc15750565b6001816004811115610cd557610cd561126f565b03610d225760405162461bcd60e51b815260206004820152601860248201527f45434453413a20696e76616c6964207369676e6174757265000000000000000060448201526064016102b7565b6002816004811115610d3657610d3661126f565b03610d835760405162461bcd60e51b815260206004820152601f60248201527f45434453413a20696e76616c6964207369676e6174757265206c656e6774680060448201526064016102b7565b6003816004811115610d9757610d9761126f565b03610def5760405162461bcd60e51b815260206004820152602260248201527f45434453413a20696e76616c6964207369676e6174757265202773272076616c604482015261756560f01b60648201526084016102b7565b6004816004811115610e0357610e0361126f565b036102c95760405162461bcd60e51b815260206004820152602260248201527f45434453413a20696e76616c6964207369676e6174757265202776272076616c604482015261756560f01b60648201526084016102b7565b6000306001600160a01b037f000000000000000000000000000000000000000000000000000000000000000016148015610eb457507f000000000000000000000000000000000000000000000000000000000000000046145b15610ede57507f000000000000000000000000000000000000000000000000000000000000000090565b50604080517f00000000000000000000000000000000000000000000000000000000000000006020808301919091527f0000000000000000000000000000000000000000000000000000000000000000828401527f000000000000000000000000000000000000000000000000000000000000000060608301524660808301523060a0808401919091528351808403909101815260c0909201909252805191012090565b6000806001600160ff1b03831681610f9f60ff86901c601b6112df565b9050610fad87828885610bb8565b935093505050935093915050565b508054610fc790611208565b6000825580601f10610fd7575050565b601f0160209004906000526020600020908101906102c991905b808211156110055760008155600101610ff1565b5090565b6001600160e01b0319811681146102c957600080fd5b60006020828403121561103157600080fd5b813561071481611009565b60005b8381101561105757818101518382015260200161103f565b83811115611066576000848401525b50505050565b6000815180845261108481602086016020860161103c565b601f01601f19169290920160200192915050565b602081526000610714602083018461106c565b6000602082840312156110bd57600080fd5b5035919050565b80356001600160a01b03811681146110db57600080fd5b919050565b6000602082840312156110f257600080fd5b610714826110c4565b60008083601f84011261110d57600080fd5b50813567ffffffffffffffff81111561112557600080fd5b602083019150836020828501011115610bb157600080fd5b60008060008060006060868803121561115557600080fd5b61115e866110c4565b9450602086013567ffffffffffffffff8082111561117b57600080fd5b61118789838a016110fb565b909650945060408801359150808211156111a057600080fd5b506111ad888289016110fb565b969995985093965092949392505050565b600080600080608085870312156111d457600080fd5b6111dd856110c4565b9350602085013560ff811681146111f357600080fd5b93969395505050506040820135916060013590565b600181811c9082168061121c57607f821691505b60208210810361123c57634e487b7160e01b600052602260045260246000fd5b50919050565b634e487b7160e01b600052601160045260246000fd5b60008282101561126a5761126a611242565b500390565b634e487b7160e01b600052602160045260246000fd5b82815260406020820152600061129e604083018461106c565b949350505050565b600082516112b881846020870161103c565b9190910192915050565b6000602082840312156112d457600080fd5b815161071481611009565b600082198211156112f2576112f2611242565b500190565b634e487b7160e01b600052604160045260246000fd5b601f82111561135757600081815260208120601f850160051c810160208610156113345750805b601f850160051c820191505b8181101561135357828155600101611340565b5050505b505050565b815167ffffffffffffffff811115611376576113766112f7565b61138a816113848454611208565b8461130d565b602080601f8311600181146113bf57600084156113a75750858301515b600019600386901b1c1916600185901b178555611353565b600085815260208120601f198616915b828110156113ee578886015182559484019460019091019084016113cf565b508582101561140c5787850151600019600388901b60f8161c191681555b5050505050600190811b0190555056fea26469706673582212201ca5f4528d875df7dd69ca04d254dc2e3b8d2445c17c2f7a4a174a0ea38030f464736f6c634300080f0033",
    "linkReferences": {}
  },
  "methodIdentifiers": {
    "balanceOf(address)": "70a08231",
    "burn(uint256)": "42966c68",
    "genDataHash(address)": "fbe4b62c",
    "isValidIssuerSig(address,uint8,bytes32,bytes32)": "a51bbab9",
    "mintWithPermission(address,string,bytes)": "8fac1c1c",
    "name()": "06fdde03",
    "ownerOf(uint256)": "6352211e",
    "supportsInterface(bytes4)": "01ffc9a7",
    "symbol()": "95d89b41",
    "tokenURI(uint256)": "c87b56dd"
  },
  "id": 20
}