{
  "abi": [
    {
      "inputs": [],
      "stateMutability": "nonpayable",
      "type": "constructor"
    },
    {
      "anonymous": false,
      "inputs": [
        {
          "indexed": false,
          "internalType": "address",
          "name": "previousAdmin",
          "type": "address"
        },
        {
          "indexed": false,
          "internalType": "address",
          "name": "newAdmin",
          "type": "address"
        }
      ],
      "name": "AdminChanged",
      "type": "event"
    },
    {
      "anonymous": false,
      "inputs": [
        {
          "indexed": true,
          "internalType": "uint256",
          "name": "tokenId",
          "type": "uint256"
        },
        {
          "indexed": true,
          "internalType": "address",
          "name": "from",
          "type": "address"
        }
      ],
      "name": "BadgeReinstated",
      "type": "event"
    },
    {
      "anonymous": false,
      "inputs": [
        {
          "indexed": true,
          "internalType": "uint256",
          "name": "tokenId",
          "type": "uint256"
        },
        {
          "indexed": true,
          "internalType": "address",
          "name": "from",
          "type": "address"
        },
        {
          "indexed": true,
          "internalType": "uint8",
          "name": "reason",
          "type": "uint8"
        }
      ],
      "name": "BadgeRevoked",
      "type": "event"
    },
    {
      "anonymous": false,
      "inputs": [
        {
          "indexed": true,
          "internalType": "address",
          "name": "beacon",
          "type": "address"
        }
      ],
      "name": "BeaconUpgraded",
      "type": "event"
    },
    {
      "anonymous": false,
      "inputs": [
        {
          "indexed": false,
          "internalType": "uint8",
          "name": "version",
          "type": "uint8"
        }
      ],
      "name": "Initialized",
      "type": "event"
    },
    {
      "anonymous": false,
      "inputs": [
        {
          "indexed": true,
          "internalType": "uint256",
          "name": "tokenId",
          "type": "uint256"
        },
        {
          "indexed": false,
          "internalType": "string",
          "name": "newTokenURI",
          "type": "string"
        },
        {
          "indexed": false,
          "internalType": "address",
          "name": "updater",
          "type": "address"
        }
      ],
      "name": "MetadataUpdate",
      "type": "event"
    },
    {
      "anonymous": false,
      "inputs": [
        {
          "indexed": true,
          "internalType": "address",
          "name": "previousOwner",
          "type": "address"
        },
        {
          "indexed": true,
          "internalType": "address",
          "name": "newOwner",
          "type": "address"
        }
      ],
      "name": "OwnershipTransferred",
      "type": "event"
    },
    {
      "anonymous": false,
      "inputs": [
        {
          "indexed": false,
          "internalType": "string[]",
          "name": "specUris",
          "type": "string[]"
        },
        {
          "indexed": false,
          "internalType": "address",
          "name": "sender",
          "type": "address"
        }
      ],
      "name": "RefreshMetadata",
      "type": "event"
    },
    {
      "anonymous": false,
      "inputs": [
        {
          "indexed": true,
          "internalType": "address",
          "name": "to",
          "type": "address"
        },
        {
          "indexed": false,
          "internalType": "string",
          "name": "specUri",
          "type": "string"
        },
        {
          "indexed": true,
          "internalType": "uint256",
          "name": "raftTokenId",
          "type": "uint256"
        },
        {
          "indexed": true,
          "internalType": "address",
          "name": "raftAddress",
          "type": "address"
        }
      ],
      "name": "SpecCreated",
      "type": "event"
    },
    {
      "anonymous": false,
      "inputs": [
        {
          "indexed": true,
          "internalType": "address",
          "name": "from",
          "type": "address"
        },
        {
          "indexed": true,
          "internalType": "address",
          "name": "to",
          "type": "address"
        },
        {
          "indexed": true,
          "internalType": "uint256",
          "name": "tokenId",
          "type": "uint256"
        }
      ],
      "name": "Transfer",
      "type": "event"
    },
    {
      "anonymous": false,
      "inputs": [
        {
          "indexed": true,
          "internalType": "address",
          "name": "implementation",
          "type": "address"
        }
      ],
      "name": "Upgraded",
      "type": "event"
    },
    {
      "inputs": [
        {
          "internalType": "address[]",
          "name": "_recipients",
          "type": "address[]"
        },
        {
          "internalType": "string",
          "name": "_uri",
          "type": "string"
        }
      ],
      "name": "airdrop",
      "outputs": [],
      "stateMutability": "nonpayable",
      "type": "function"
    },
    {
      "inputs": [
        {
          "internalType": "address",
          "name": "_owner",
          "type": "address"
        }
      ],
      "name": "balanceOf",
      "outputs": [
        {
          "internalType": "uint256",
          "name": "",
          "type": "uint256"
        }
      ],
      "stateMutability": "view",
      "type": "function"
    },
    {
      "inputs": [
        {
          "internalType": "string",
          "name": "_specUri",
          "type": "string"
        },
        {
          "internalType": "uint256",
          "name": "_raftTokenId",
          "type": "uint256"
        }
      ],
      "name": "createSpec",
      "outputs": [],
      "stateMutability": "nonpayable",
      "type": "function"
    },
    {
      "inputs": [
        {
          "internalType": "address",
          "name": "_active",
          "type": "address"
        },
        {
          "internalType": "address",
          "name": "_passive",
          "type": "address"
        },
        {
          "internalType": "string",
          "name": "_uri",
          "type": "string"
        }
      ],
      "name": "getAgreementHash",
      "outputs": [
        {
          "internalType": "bytes32",
          "name": "",
          "type": "bytes32"
        }
      ],
      "stateMutability": "view",
      "type": "function"
    },
    {
      "inputs": [
        {
          "internalType": "address",
          "name": "_to",
          "type": "address"
        },
        {
          "internalType": "string",
          "name": "_uri",
          "type": "string"
        }
      ],
      "name": "getBadgeIdHash",
      "outputs": [
        {
          "internalType": "bytes32",
          "name": "",
          "type": "bytes32"
        }
      ],
      "stateMutability": "view",
      "type": "function"
    },
    {
      "inputs": [],
      "name": "getDataHolderAddress",
      "outputs": [
        {
          "internalType": "address",
          "name": "",
          "type": "address"
        }
      ],
      "stateMutability": "view",
      "type": "function"
    },
    {
      "inputs": [
        {
          "internalType": "address",
          "name": "_issuer",
          "type": "address"
        },
        {
          "internalType": "string",
          "name": "_uri",
          "type": "string"
        },
        {
          "internalType": "bytes32",
          "name": "_root",
          "type": "bytes32"
        }
      ],
      "name": "getMerkleAgreementHash",
      "outputs": [
        {
          "internalType": "bytes32",
          "name": "",
          "type": "bytes32"
        }
      ],
      "stateMutability": "view",
      "type": "function"
    },
    {
      "inputs": [
        {
          "internalType": "address",
          "name": "_requester",
          "type": "address"
        },
        {
          "internalType": "string",
          "name": "_uri",
          "type": "string"
        }
      ],
      "name": "getRequestHash",
      "outputs": [
        {
          "internalType": "bytes32",
          "name": "",
          "type": "bytes32"
        }
      ],
      "stateMutability": "view",
      "type": "function"
    },
    {
      "inputs": [
        {
          "internalType": "address",
          "name": "_to",
          "type": "address"
        },
        {
          "internalType": "string",
          "name": "_uri",
          "type": "string"
        },
        {
          "internalType": "bytes",
          "name": "_signature",
          "type": "bytes"
        }
      ],
      "name": "give",
      "outputs": [
        {
          "internalType": "uint256",
          "name": "",
          "type": "uint256"
        }
      ],
      "stateMutability": "nonpayable",
      "type": "function"
    },
    {
      "inputs": [
        {
          "internalType": "address",
          "name": "_to",
          "type": "address"
        },
        {
          "internalType": "string",
          "name": "_uri",
          "type": "string"
        },
        {
          "internalType": "bytes",
          "name": "_signature",
          "type": "bytes"
        }
      ],
      "name": "giveRequestedBadge",
      "outputs": [
        {
          "internalType": "uint256",
          "name": "",
          "type": "uint256"
        }
      ],
      "stateMutability": "nonpayable",
      "type": "function"
    },
    {
      "inputs": [
        {
          "internalType": "address[]",
          "name": "_recipients",
          "type": "address[]"
        },
        {
          "internalType": "string",
          "name": "_uri",
          "type": "string"
        },
        {
          "internalType": "bytes[]",
          "name": "_signatures",
          "type": "bytes[]"
        }
      ],
      "name": "giveRequestedBadgeToMany",
      "outputs": [],
      "stateMutability": "nonpayable",
      "type": "function"
    },
    {
      "inputs": [
        {
          "internalType": "address[]",
          "name": "_recipients",
          "type": "address[]"
        },
        {
          "internalType": "string",
          "name": "_uri",
          "type": "string"
        },
        {
          "internalType": "bytes[]",
          "name": "_signatures",
          "type": "bytes[]"
        }
      ],
      "name": "giveToMany",
      "outputs": [],
      "stateMutability": "nonpayable",
      "type": "function"
    },
    {
      "inputs": [
        {
          "internalType": "string",
          "name": "_name",
          "type": "string"
        },
        {
          "internalType": "string",
          "name": "_symbol",
          "type": "string"
        },
        {
          "internalType": "string",
          "name": "_version",
          "type": "string"
        },
        {
          "internalType": "address",
          "name": "_nextOwner",
          "type": "address"
        },
        {
          "internalType": "address",
          "name": "_specDataHolderAddress",
          "type": "address"
        }
      ],
      "name": "initialize",
      "outputs": [],
      "stateMutability": "nonpayable",
      "type": "function"
    },
    {
      "inputs": [
        {
          "internalType": "uint256",
          "name": "_badgeId",
          "type": "uint256"
        }
      ],
      "name": "isBadgeValid",
      "outputs": [
        {
          "internalType": "bool",
          "name": "",
          "type": "bool"
        }
      ],
      "stateMutability": "view",
      "type": "function"
    },
    {
      "inputs": [
        {
          "internalType": "address",
          "name": "_issuer",
          "type": "address"
        },
        {
          "internalType": "address",
          "name": "_recipient",
          "type": "address"
        },
        {
          "internalType": "string",
          "name": "_uri",
          "type": "string"
        },
        {
          "internalType": "bytes",
          "name": "_issuerSignature",
          "type": "bytes"
        },
        {
          "internalType": "bytes",
          "name": "_recipientSignature",
          "type": "bytes"
        },
        {
          "internalType": "bytes32",
          "name": "root",
          "type": "bytes32"
        },
        {
          "internalType": "bytes32[]",
          "name": "proof",
          "type": "bytes32[]"
        }
      ],
      "name": "merkleMintWithConsent",
      "outputs": [
        {
          "internalType": "uint256",
          "name": "",
          "type": "uint256"
        }
      ],
      "stateMutability": "nonpayable",
      "type": "function"
    },
    {
      "inputs": [
        {
          "internalType": "address",
          "name": "_from",
          "type": "address"
        },
        {
          "internalType": "string",
          "name": "_uri",
          "type": "string"
        },
        {
          "internalType": "bytes",
          "name": "_signature",
          "type": "bytes"
        },
        {
          "internalType": "bytes32",
          "name": "root",
          "type": "bytes32"
        },
        {
          "internalType": "bytes32[]",
          "name": "proof",
          "type": "bytes32[]"
        }
      ],
      "name": "merkleTake",
      "outputs": [
        {
          "internalType": "uint256",
          "name": "",
          "type": "uint256"
        }
      ],
      "stateMutability": "nonpayable",
      "type": "function"
    },
    {
      "inputs": [
        {
          "internalType": "address",
          "name": "_issuer",
          "type": "address"
        },
        {
          "internalType": "address",
          "name": "_recipient",
          "type": "address"
        },
        {
          "internalType": "string",
          "name": "_uri",
          "type": "string"
        },
        {
          "internalType": "bytes",
          "name": "_issuerSignature",
          "type": "bytes"
        },
        {
          "internalType": "bytes",
          "name": "_recipientSignature",
          "type": "bytes"
        }
      ],
      "name": "mintWithConsent",
      "outputs": [
        {
          "internalType": "uint256",
          "name": "",
          "type": "uint256"
        }
      ],
      "stateMutability": "nonpayable",
      "type": "function"
    },
    {
      "inputs": [],
      "name": "name",
      "outputs": [
        {
          "internalType": "string",
          "name": "",
          "type": "string"
        }
      ],
      "stateMutability": "view",
      "type": "function"
    },
    {
      "inputs": [],
      "name": "owner",
      "outputs": [
        {
          "internalType": "address",
          "name": "",
          "type": "address"
        }
      ],
      "stateMutability": "view",
      "type": "function"
    },
    {
      "inputs": [
        {
          "internalType": "uint256",
          "name": "_tokenId",
          "type": "uint256"
        }
      ],
      "name": "ownerOf",
      "outputs": [
        {
          "internalType": "address",
          "name": "",
          "type": "address"
        }
      ],
      "stateMutability": "view",
      "type": "function"
    },
    {
      "inputs": [],
      "name": "proxiableUUID",
      "outputs": [
        {
          "internalType": "bytes32",
          "name": "",
          "type": "bytes32"
        }
      ],
      "stateMutability": "view",
      "type": "function"
    },
    {
      "inputs": [
        {
          "internalType": "string[]",
          "name": "_specUris",
          "type": "string[]"
        }
      ],
      "name": "refreshMetadata",
      "outputs": [],
      "stateMutability": "nonpayable",
      "type": "function"
    },
    {
      "inputs": [
        {
          "internalType": "uint256",
          "name": "_raftTokenId",
          "type": "uint256"
        },
        {
          "internalType": "uint256",
          "name": "_badgeId",
          "type": "uint256"
        }
      ],
      "name": "reinstateBadge",
      "outputs": [],
      "stateMutability": "nonpayable",
      "type": "function"
    },
    {
      "inputs": [],
      "name": "renounceOwnership",
      "outputs": [],
      "stateMutability": "nonpayable",
      "type": "function"
    },
    {
      "inputs": [
        {
          "internalType": "uint256",
          "name": "_raftTokenId",
          "type": "uint256"
        },
        {
          "internalType": "uint256",
          "name": "_badgeId",
          "type": "uint256"
        },
        {
          "internalType": "uint8",
          "name": "_reason",
          "type": "uint8"
        }
      ],
      "name": "revokeBadge",
      "outputs": [],
      "stateMutability": "nonpayable",
      "type": "function"
    },
    {
      "inputs": [
        {
          "internalType": "address",
          "name": "_dataHolder",
          "type": "address"
        }
      ],
      "name": "setDataHolder",
      "outputs": [],
      "stateMutability": "nonpayable",
      "type": "function"
    },
    {
      "inputs": [
        {
          "internalType": "bytes4",
          "name": "_interfaceId",
          "type": "bytes4"
        }
      ],
      "name": "supportsInterface",
      "outputs": [
        {
          "internalType": "bool",
          "name": "",
          "type": "bool"
        }
      ],
      "stateMutability": "view",
      "type": "function"
    },
    {
      "inputs": [],
      "name": "symbol",
      "outputs": [
        {
          "internalType": "string",
          "name": "",
          "type": "string"
        }
      ],
      "stateMutability": "view",
      "type": "function"
    },
    {
      "inputs": [
        {
          "internalType": "address",
          "name": "_from",
          "type": "address"
        },
        {
          "internalType": "string",
          "name": "_uri",
          "type": "string"
        },
        {
          "internalType": "bytes",
          "name": "_signature",
          "type": "bytes"
        }
      ],
      "name": "take",
      "outputs": [
        {
          "internalType": "uint256",
          "name": "",
          "type": "uint256"
        }
      ],
      "stateMutability": "nonpayable",
      "type": "function"
    },
    {
      "inputs": [
        {
          "internalType": "uint256",
          "name": "_tokenId",
          "type": "uint256"
        }
      ],
      "name": "tokenURI",
      "outputs": [
        {
          "internalType": "string",
          "name": "",
          "type": "string"
        }
      ],
      "stateMutability": "view",
      "type": "function"
    },
    {
      "inputs": [
        {
          "internalType": "address",
          "name": "newOwner",
          "type": "address"
        }
      ],
      "name": "transferOwnership",
      "outputs": [],
      "stateMutability": "nonpayable",
      "type": "function"
    },
    {
      "inputs": [
        {
          "internalType": "uint256",
          "name": "_tokenId",
          "type": "uint256"
        }
      ],
      "name": "unequip",
      "outputs": [],
      "stateMutability": "nonpayable",
      "type": "function"
    },
    {
      "inputs": [
        {
          "internalType": "uint256",
          "name": "_tokenId",
          "type": "uint256"
        },
        {
          "internalType": "string",
          "name": "_oldTokenURI",
          "type": "string"
        },
        {
          "internalType": "string",
          "name": "_newTokenURI",
          "type": "string"
        }
      ],
      "name": "updateTokenURI",
      "outputs": [],
      "stateMutability": "nonpayable",
      "type": "function"
    },
    {
      "inputs": [
        {
          "internalType": "address",
          "name": "newImplementation",
          "type": "address"
        }
      ],
      "name": "upgradeTo",
      "outputs": [],
      "stateMutability": "nonpayable",
      "type": "function"
    },
    {
      "inputs": [
        {
          "internalType": "address",
          "name": "newImplementation",
          "type": "address"
        },
        {
          "internalType": "bytes",
          "name": "data",
          "type": "bytes"
        }
      ],
      "name": "upgradeToAndCall",
      "outputs": [],
      "stateMutability": "payable",
      "type": "function"
    }
  ],
  "bytecode": {
    "object": "0x60a0604052306080523480156200001557600080fd5b506200002062000026565b620000e8565b600054610100900460ff1615620000935760405162461bcd60e51b815260206004820152602760248201527f496e697469616c697a61626c653a20636f6e747261637420697320696e697469604482015266616c697a696e6760c81b606482015260840160405180910390fd5b60005460ff9081161015620000e6576000805460ff191660ff9081179091556040519081527f7f26b83ff96e1f2b6a682f133852f6798a09c465da95921460cefb38474024989060200160405180910390a15b565b6080516148766200012060003960008181610b1a01528181610b5a015281816113db0152818161141b01526114ae01526148766000f3fe6080604052600436106102045760003560e01c806380956c7e11610118578063bdbdbcbf116100a0578063d179e3d01161006f578063d179e3d0146105d7578063d6d0faee146105f7578063e499250614610617578063ec64948e14610637578063f2fde38b1461065757600080fd5b8063bdbdbcbf14610557578063c018411214610577578063c7a35fed14610597578063c87b56dd146105b757600080fd5b8063a32c9c7a116100e7578063a32c9c7a146104b7578063a3947803146104d7578063a8cf8683146104f7578063bc4b544714610517578063bd6645e41461053757600080fd5b806380956c7e146104445780638339a133146104645780638da5cb5b1461048457806395d89b41146104a257600080fd5b80634a086b531161019b5780636352211e1161016a5780636352211e14610398578063635ad993146103d057806370a08231146103ef578063715018a61461040f5780637c402f8d1461042457600080fd5b80634a086b53146103305780634a50b376146103505780634f1ef2861461037057806352d1902d1461038357600080fd5b80631766c038116101d75780631766c038146102a25780633659cfe6146102d057806339ae37c0146102f0578063445a62b91461031057600080fd5b806301ffc9a71461020957806306fdde031461023e57806307049fb5146102605780630f4d9b0114610282575b600080fd5b34801561021557600080fd5b506102296102243660046138d8565b610677565b60405190151581526020015b60405180910390f35b34801561024a57600080fd5b506102536106c9565b6040516102359190613952565b34801561026c57600080fd5b5061028061027b3660046139a6565b61075c565b005b34801561028e57600080fd5b5061022961029d366004613a1f565b61095f565b3480156102ae57600080fd5b506102c26102bd366004613a5d565b6109bd565b604051908152602001610235565b3480156102dc57600080fd5b506102806102eb366004613a9c565b610b10565b3480156102fc57600080fd5b5061028061030b366004613afd565b610bef565b34801561031c57600080fd5b5061028061032b366004613b68565b610d75565b34801561033c57600080fd5b506102c261034b366004613bb3565b611033565b34801561035c57600080fd5b5061028061036b366004613cae565b611199565b61028061037e366004613da1565b6113d1565b34801561038f57600080fd5b506102c26114a1565b3480156103a457600080fd5b506103b86103b3366004613a1f565b611554565b6040516001600160a01b039091168152602001610235565b3480156103dc57600080fd5b50610135546001600160a01b03166103b8565b3480156103fb57600080fd5b506102c261040a366004613a9c565b6115a9565b34801561041b57600080fd5b50610280611631565b34801561043057600080fd5b5061028061043f366004613e48565b611645565b34801561045057600080fd5b5061028061045f366004613e87565b611809565b34801561047057600080fd5b506102c261047f366004613ea9565b6119c3565b34801561049057600080fd5b5060c9546001600160a01b03166103b8565b3480156104ae57600080fd5b50610253611a50565b3480156104c357600080fd5b506102806104d2366004613efd565b611a60565b3480156104e357600080fd5b506102c26104f2366004613a5d565b611c81565b34801561050357600080fd5b506102c2610512366004613ea9565b611dcb565b34801561052357600080fd5b506102c2610532366004613f96565b611e01565b34801561054357600080fd5b506102c2610552366004614040565b6120ba565b34801561056357600080fd5b5061028061057236600461409b565b612134565b34801561058357600080fd5b50610280610592366004613a9c565b6121d7565b3480156105a357600080fd5b506102c26105b23660046140dc565b612202565b3480156105c357600080fd5b506102536105d2366004613a1f565b612446565b3480156105e357600080fd5b506102806105f2366004613a1f565b61254d565b34801561060357600080fd5b506102806106123660046141d1565b6125f4565b34801561062357600080fd5b506102c2610632366004614290565b6127d3565b34801561064357600080fd5b506102c2610652366004613a5d565b612843565b34801561066357600080fd5b50610280610672366004613a9c565b612980565b60006001600160e01b03198216635b5e139f60e01b14806106a857506001600160e01b031982166346bdd63960e11b145b806106c357506301ffc9a760e01b6001600160e01b03198316145b92915050565b606061013080546106d9906142e8565b80601f0160208091040260200160405190810160405280929190818152602001828054610705906142e8565b80156107525780601f1061072757610100808354040283529160200191610752565b820191906000526020600020905b81548152906001019060200180831161073557829003601f168201915b5050505050905090565b6000858152610132602052604090205485906001600160a01b031661079c5760405162461bcd60e51b81526004016107939061431c565b60405180910390fd5b61013554604051633664a8e960e01b81526000916001600160a01b031690633664a8e9906107d0908990899060040161437a565b602060405180830381865afa1580156107ed573d6000803e3d6000fd5b505050506040513d601f19601f82011682018060405250810190610811919061438e565b6101355460405163e3ee9c4d60e01b8152600481018390523360248201529192506000916001600160a01b039091169063e3ee9c4d90604401602060405180830381865afa158015610867573d6000803e3d6000fd5b505050506040513d601f19601f8201168201806040525081019061088b91906143a7565b806108af5750336108a460c9546001600160a01b031690565b6001600160a01b0316145b9050806108fe5760405162461bcd60e51b815260206004820152601c60248201527f757064617465546f6b656e5552493a20756e617574686f72697a6564000000006044820152606401610793565b60008881526101336020526040902061091885878361440f565b50877ff18086b56a38cf9120433bfea3587a4ea12e2af9df52215f3a85149422f33d8386863360405161094d939291906144cf565b60405180910390a25050505050505050565b6000818152610132602052604081205482906001600160a01b03166109965760405162461bcd60e51b81526004016107939061431c565b600883901c60009081526101376020526040902054600160ff85161b161591505b50919050565b61013554604051633664a8e960e01b815260009182916001600160a01b0390911690633664a8e9906109f5908990899060040161437a565b602060405180830381865afa158015610a12573d6000803e3d6000fd5b505050506040513d601f19601f82011682018060405250810190610a36919061438e565b6101355460405163e3ee9c4d60e01b8152600481018390523360248201529192506001600160a01b03169063e3ee9c4d90604401602060405180830381865afa158015610a87573d6000803e3d6000fd5b505050506040513d601f19601f82011682018060405250810190610aab91906143a7565b610af75760405162461bcd60e51b815260206004820181905260248201527f6769766552657175657374656442616467653a20756e617574686f72697a65646044820152606401610793565b610b058787878787866129f6565b979650505050505050565b6001600160a01b037f0000000000000000000000000000000000000000000000000000000000000000163003610b585760405162461bcd60e51b8152600401610793906144fb565b7f00000000000000000000000000000000000000000000000000000000000000006001600160a01b0316610ba16000805160206147fa833981519152546001600160a01b031690565b6001600160a01b031614610bc75760405162461bcd60e51b815260040161079390614547565b610bd081612aa9565b60408051600080825260208201909252610bec91839190612ab1565b50565b61013554604051633664a8e960e01b81526000916001600160a01b031690633664a8e990610c23908690869060040161437a565b602060405180830381865afa158015610c40573d6000803e3d6000fd5b505050506040513d601f19601f82011682018060405250810190610c64919061438e565b6101355460405163e3ee9c4d60e01b8152600481018390523360248201529192506001600160a01b03169063e3ee9c4d90604401602060405180830381865afa158015610cb5573d6000803e3d6000fd5b505050506040513d601f19601f82011682018060405250810190610cd991906143a7565b610d1d5760405162461bcd60e51b8152602060048201526015602482015274185a5c991c9bdc0e881d5b985d5d1a1bdc9a5e9959605a1b6044820152606401610793565b60005b84811015610d6d57610d5a868683818110610d3d57610d3d614593565b9050602002016020810190610d529190613a9c565b858585612c21565b5080610d65816145bf565b915050610d20565b505050505050565b6101355460405163e3ee9c4d60e01b8152600481018390523360248201526001600160a01b039091169063e3ee9c4d90604401602060405180830381865afa158015610dc5573d6000803e3d6000fd5b505050506040513d601f19601f82011682018060405250810190610de991906143a7565b610e355760405162461bcd60e51b815260206004820152601860248201527f637265617465537065633a20756e617574686f72697a656400000000000000006044820152606401610793565b61013554604051637e07102760e11b81526001600160a01b039091169063fc0e204e90610e68908690869060040161437a565b602060405180830381865afa158015610e85573d6000803e3d6000fd5b505050506040513d601f19601f82011682018060405250810190610ea991906143a7565b15610f025760405162461bcd60e51b815260206004820152602360248201527f637265617465537065633a207370656320616c726561647920726567697374656044820152621c995960ea1b6064820152608401610793565b6101355460405163addd190760e01b81526001600160a01b039091169063addd190790610f37908690869086906004016145d8565b600060405180830381600087803b158015610f5157600080fd5b505af1158015610f65573d6000803e3d6000fd5b5050505061013560009054906101000a90046001600160a01b03166001600160a01b03166334f876626040518163ffffffff1660e01b8152600401602060405180830381865afa158015610fbd573d6000803e3d6000fd5b505050506040513d601f19601f82011682018060405250810190610fe191906145fc565b6001600160a01b031681336001600160a01b03167f68c7f8503283c455a4445b54a7d5c40656c8cae5cca0583c6d4be83698478700868660405161102692919061437a565b60405180910390a4505050565b600061104689338a8a8a8a8a8a8a612da0565b61013554604051633664a8e960e01b81526000916001600160a01b031690633664a8e99061107a908c908c9060040161437a565b602060405180830381865afa158015611097573d6000803e3d6000fd5b505050506040513d601f19601f820116820180604052508101906110bb919061438e565b6101355460405163e3ee9c4d60e01b8152600481018390526001600160a01b038d8116602483015292935091169063e3ee9c4d90604401602060405180830381865afa15801561110f573d6000803e3d6000fd5b505050506040513d601f19601f8201168201806040525081019061113391906143a7565b61117f5760405162461bcd60e51b815260206004820152601860248201527f6d65726b6c6554616b653a20756e617574686f72697a656400000000000000006044820152606401610793565b61118b338a8a84612c21565b9a9950505050505050505050565b8451811461121b5760405162461bcd60e51b815260206004820152604360248201527f676976655265717565737465644261646765546f4d616e793a2072656369706960448201527f656e747320616e64207369676e617475726573206c656e677468206d69736d616064820152620e8c6d60eb1b608482015260a401610793565b61013554604051633664a8e960e01b81526000916001600160a01b031690633664a8e99061124f908890889060040161437a565b602060405180830381865afa15801561126c573d6000803e3d6000fd5b505050506040513d601f19601f82011682018060405250810190611290919061438e565b6101355460405163e3ee9c4d60e01b8152600481018390523360248201529192506001600160a01b03169063e3ee9c4d90604401602060405180830381865afa1580156112e1573d6000803e3d6000fd5b505050506040513d601f19601f8201168201806040525081019061130591906143a7565b6113605760405162461bcd60e51b815260206004820152602660248201527f676976655265717565737465644261646765546f4d616e793a20756e617574686044820152651bdc9a5e995960d21b6064820152608401610793565b60005b86518110156113c8576113b587828151811061138157611381614593565b6020026020010151878787878681811061139d5761139d614593565b90506020028101906113af9190614619565b876129f6565b50806113c0816145bf565b915050611363565b50505050505050565b6001600160a01b037f00000000000000000000000000000000000000000000000000000000000000001630036114195760405162461bcd60e51b8152600401610793906144fb565b7f00000000000000000000000000000000000000000000000000000000000000006001600160a01b03166114626000805160206147fa833981519152546001600160a01b031690565b6001600160a01b0316146114885760405162461bcd60e51b815260040161079390614547565b61149182612aa9565b61149d82826001612ab1565b5050565b6000306001600160a01b037f000000000000000000000000000000000000000000000000000000000000000016146115415760405162461bcd60e51b815260206004820152603860248201527f555550535570677261646561626c653a206d757374206e6f742062652063616c60448201527f6c6564207468726f7567682064656c656761746563616c6c00000000000000006064820152608401610793565b506000805160206147fa83398151915290565b6000818152610132602052604081205482906001600160a01b031661158b5760405162461bcd60e51b81526004016107939061431c565b5050600090815261013260205260409020546001600160a01b031690565b60006001600160a01b0382166116145760405162461bcd60e51b815260206004820152602a60248201527f62616c616e63654f663a2061646472657373283029206973206e6f742061207660448201526930b634b21037bbb732b960b11b6064820152608401610793565b506001600160a01b03166000908152610134602052604090205490565b611639612f2d565b6116436000612f87565b565b6000828152610132602052604090205482906001600160a01b031661167c5760405162461bcd60e51b81526004016107939061431c565b6101355460405163e3ee9c4d60e01b8152600481018690523360248201526001600160a01b039091169063e3ee9c4d90604401602060405180830381865afa1580156116cc573d6000803e3d6000fd5b505050506040513d601f19601f820116820180604052508101906116f091906143a7565b61173c5760405162461bcd60e51b815260206004820152601960248201527f7265766f6b6542616467653a20756e617574686f72697a6564000000000000006044820152606401610793565b600883901c60009081526101376020526040902054600160ff85161b16156117b15760405162461bcd60e51b815260206004820152602260248201527f7265766f6b6542616467653a20626164676520616c7265616479207265766f6b604482015261195960f21b6064820152608401610793565b600883901c6000908152610137602052604090208054600160ff86161b17905560405160ff831690339085907ffa784c48260e8db512de5f055a2f29eced211a7b3bd6338058b095ada7354cee90600090a450505050565b6000818152610132602052604090205481906001600160a01b03166118405760405162461bcd60e51b81526004016107939061431c565b6101355460405163e3ee9c4d60e01b8152600481018590523360248201526001600160a01b039091169063e3ee9c4d90604401602060405180830381865afa158015611890573d6000803e3d6000fd5b505050506040513d601f19601f820116820180604052508101906118b491906143a7565b6119005760405162461bcd60e51b815260206004820152601c60248201527f7265696e737461746542616467653a20756e617574686f72697a6564000000006044820152606401610793565b600882901c60009081526101376020526040902054600160ff84161b166119735760405162461bcd60e51b815260206004820152602160248201527f7265696e737461746542616467653a206261646765206e6f74207265766f6b656044820152601960fa1b6064820152608401610793565b600882901c600090815261013760205260408082208054600160ff87161b1916905551339184917f7f8cf9ecf2a5225948f8a1601709cedc8471c52ee75a8174c9845c29c99ed9a29190a3505050565b6000611a467fa1cd8d39eb877323a4bcf08188675058ee9a4534d4c79021300b3722aeda505d8585856040516119fa92919061465f565b604051908190038120611a2b9392916020019283526001600160a01b03919091166020830152604082015260600190565b60405160208183030381529060405280519060200120612fd9565b90505b9392505050565b606061013180546106d9906142e8565b848114611acd5760405162461bcd60e51b815260206004820152603560248201527f67697665546f4d616e793a20726563697069656e747320616e64207369676e616044820152740e8eae4cae640d8cadccee8d040dad2e6dac2e8c6d605b1b6064820152608401610793565b61013554604051633664a8e960e01b81526000916001600160a01b031690633664a8e990611b01908890889060040161437a565b602060405180830381865afa158015611b1e573d6000803e3d6000fd5b505050506040513d601f19601f82011682018060405250810190611b42919061438e565b6101355460405163e3ee9c4d60e01b8152600481018390523360248201529192506001600160a01b03169063e3ee9c4d90604401602060405180830381865afa158015611b93573d6000803e3d6000fd5b505050506040513d601f19601f82011682018060405250810190611bb791906143a7565b611c035760405162461bcd60e51b815260206004820152601860248201527f67697665546f4d616e793a20756e617574686f72697a656400000000000000006044820152606401610793565b60005b86811015611c7757611c64888883818110611c2357611c23614593565b9050602002016020810190611c389190613a9c565b8787878786818110611c4c57611c4c614593565b9050602002810190611c5e9190614619565b87613027565b5080611c6f816145bf565b915050611c06565b5050505050505050565b6000611c91338787878787613033565b61013554604051633664a8e960e01b81526000916001600160a01b031690633664a8e990611cc5908990899060040161437a565b602060405180830381865afa158015611ce2573d6000803e3d6000fd5b505050506040513d601f19601f82011682018060405250810190611d06919061438e565b6101355460405163e3ee9c4d60e01b8152600481018390526001600160a01b038a8116602483015292935091169063e3ee9c4d90604401602060405180830381865afa158015611d5a573d6000803e3d6000fd5b505050506040513d601f19601f82011682018060405250810190611d7e91906143a7565b611dbf5760405162461bcd60e51b81526020600482015260126024820152711d185ad94e881d5b985d5d1a1bdc9a5e995960721b6044820152606401610793565b610b0533878784612c21565b6000838383604051602001611de29392919061466f565b6040516020818303038152906040528051906020012090509392505050565b61013554604051633664a8e960e01b815260009182916001600160a01b0390911690633664a8e990611e39908b908b9060040161437a565b602060405180830381865afa158015611e56573d6000803e3d6000fd5b505050506040513d601f19601f82011682018060405250810190611e7a919061438e565b6101355460405163e3ee9c4d60e01b8152600481018390526001600160a01b038d8116602483015292935091169063e3ee9c4d90604401602060405180830381865afa158015611ece573d6000803e3d6000fd5b505050506040513d601f19601f82011682018060405250810190611ef291906143a7565b611f3e5760405162461bcd60e51b815260206004820152601d60248201527f6d696e7457697468436f6e73656e743a20756e617574686f72697a65640000006044820152606401610793565b6000611f4c8a8c8b8b6127d3565b9050611f8f8b8289898080601f0160208091040260200160405190810160405280939291908181526020018383808284376000920191909152506130d992505050565b611fed5760405162461bcd60e51b815260206004820152602960248201527f6d696e7457697468436f6e73656e743a20696e76616c696420697373756572206044820152687369676e617475726560b81b6064820152608401610793565b6000611ffa8b8b8b6119c3565b905061203d8b8288888080601f0160208091040260200160405190810160405280939291908181526020018383808284376000920191909152506130d992505050565b61209e5760405162461bcd60e51b815260206004820152602c60248201527f6d696e7457697468436f6e73656e743a20696e76616c6964207265636970696560448201526b6e74207369676e617475726560a01b6064820152608401610793565b6120aa8b8b8b86612c21565b9c9b505050505050505050505050565b60006121297f6d0d990916a9f9c9e0896e59ce7f5ddddff333d0c8772438ce004fa7719b164b8686866040516120f192919061465f565b604051908190038120611a2b93929187906020019384526001600160a01b039290921660208401526040830152606082015260800190565b90505b949350505050565b61213c612f2d565b806121985760405162461bcd60e51b815260206004820152602660248201527f726566726573684d657461646174613a206e6f207370656320757269732070726044820152651bdd9a59195960d21b6064820152608401610793565b7f2231d988b1a75dccab13dee3564b71a551900e822e94177a96f19561890c0fd58282336040516121cb93929190614694565b60405180910390a15050565b6121df612f2d565b61013580546001600160a01b0319166001600160a01b0392909216919091179055565b61013554604051633664a8e960e01b815260009182916001600160a01b0390911690633664a8e99061223a908e908e9060040161437a565b602060405180830381865afa158015612257573d6000803e3d6000fd5b505050506040513d601f19601f8201168201806040525081019061227b919061438e565b905061013560009054906101000a90046001600160a01b03166001600160a01b031663e3ee9c4d828f6040518363ffffffff1660e01b81526004016122d39291909182526001600160a01b0316602082015260400190565b602060405180830381865afa1580156122f0573d6000803e3d6000fd5b505050506040513d601f19601f8201168201806040525081019061231491906143a7565b6123605760405162461bcd60e51b815260206004820152601d60248201527f6d696e7457697468436f6e73656e743a20756e617574686f72697a65640000006044820152606401610793565b6123718d8d8d8d8d8d8b8b8b612da0565b600061237e8d8d8d6119c3565b90506123c18d828a8a8080601f0160208091040260200160405190810160405280939291908181526020018383808284376000920191909152506130d992505050565b6124285760405162461bcd60e51b815260206004820152603260248201527f6d65726b6c654d696e7457697468436f6e73656e743a20696e76616c696420726044820152716563697069656e74207369676e617475726560701b6064820152608401610793565b6124348d8d8d85612c21565b9e9d5050505050505050505050505050565b600081815261013260205260409020546060906001600160a01b03166124ae5760405162461bcd60e51b815260206004820152601d60248201527f746f6b656e5552493a20746f6b656e20646f65736e27742065786973740000006044820152606401610793565b60008281526101336020526040902080546124c8906142e8565b80601f01602080910402602001604051908101604052809291908181526020018280546124f4906142e8565b80156125415780601f1061251657610100808354040283529160200191612541565b820191906000526020600020905b81548152906001019060200180831161252457829003601f168201915b50505050509050919050565b6000818152610132602052604090205481906001600160a01b03166125845760405162461bcd60e51b81526004016107939061431c565b600082815261013260205260409020546001600160a01b031633146125eb5760405162461bcd60e51b815260206004820152601d60248201527f756e65717569703a2073656e646572206d757374206265206f776e65720000006044820152606401610793565b61149d8261321b565b600054610100900460ff16158080156126145750600054600160ff909116105b8061262e5750303b15801561262e575060005460ff166001145b6126915760405162461bcd60e51b815260206004820152602e60248201527f496e697469616c697a61626c653a20636f6e747261637420697320616c72656160448201526d191e481a5b9a5d1a585b1a5e995960921b6064820152608401610793565b6000805460ff1916600117905580156126b4576000805461ff0019166101001790555b6101306126c2898b8361440f565b506101316126d187898361440f565b5061013580546001600160a01b0319166001600160a01b0384161790556126f66132c6565b6126fe6132ed565b61277189898080601f01602080910402602001604051908101604052809392919081815260200183838082843760009201919091525050604080516020601f8b01819004810282018101909252898152925089915088908190840183828082843760009201919091525061331c92505050565b6127796132c6565b61278283612980565b80156127c8576000805461ff0019169055604051600181527f7f26b83ff96e1f2b6a682f133852f6798a09c465da95921460cefb38474024989060200160405180910390a15b505050505050505050565b60006121297fe76a195fbe43f0eaa611595069f780493db2202a1cc4b2d7d44b47069812998a8686868660405161280b92919061465f565b604051908190038120611a2b949392916020019384526001600160a01b03928316602085015291166040830152606082015260800190565b61013554604051633664a8e960e01b815260009182916001600160a01b0390911690633664a8e99061287b908990899060040161437a565b602060405180830381865afa158015612898573d6000803e3d6000fd5b505050506040513d601f19601f820116820180604052508101906128bc919061438e565b6101355460405163e3ee9c4d60e01b8152600481018390523360248201529192506001600160a01b03169063e3ee9c4d90604401602060405180830381865afa15801561290d573d6000803e3d6000fd5b505050506040513d601f19601f8201168201806040525081019061293191906143a7565b6129725760405162461bcd60e51b815260206004820152601260248201527119da5d994e881d5b985d5d1a1bdc9a5e995960721b6044820152606401610793565b610b05878787878786613027565b612988612f2d565b6001600160a01b0381166129ed5760405162461bcd60e51b815260206004820152602660248201527f4f776e61626c653a206e6577206f776e657220697320746865207a65726f206160448201526564647265737360d01b6064820152608401610793565b610bec81612f87565b6000612a4387612a078989896119c3565b86868080601f0160208091040260200160405190810160405280939291908181526020018383808284376000920191909152506130d992505050565b612a9d5760405162461bcd60e51b815260206004820152602560248201527f6769766552657175657374656442616467653a20696e76616c6964207369676e604482015264617475726560d81b6064820152608401610793565b610b0587878785612c21565b610bec612f2d565b7f4910fdfa16fed3260ed0e7147f7cc6da11a60208b5b9406d12a635614ffd91435460ff1615612ae957612ae48361334d565b505050565b826001600160a01b03166352d1902d6040518163ffffffff1660e01b8152600401602060405180830381865afa925050508015612b43575060408051601f3d908101601f19168201909252612b409181019061438e565b60015b612ba65760405162461bcd60e51b815260206004820152602e60248201527f45524331393637557067726164653a206e657720696d706c656d656e7461746960448201526d6f6e206973206e6f74205555505360901b6064820152608401610793565b6000805160206147fa8339815191528114612c155760405162461bcd60e51b815260206004820152602960248201527f45524331393637557067726164653a20756e737570706f727465642070726f786044820152681a58589b195555525160ba1b6064820152608401610793565b50612ae48383836133e9565b600080612c2f868686611dcb565b600081815261013260205260409020549091506001600160a01b031615612c8f5760405162461bcd60e51b81526020600482015260146024820152736d696e743a20746f6b656e49442065786973747360601b6044820152606401610793565b6001600160a01b038616600090815261013460205260408120805491612cb4836145bf565b909155505060008181526101326020908152604080832080546001600160a01b0319166001600160a01b038b161790556101339091529020612cf785878361440f565b5060405181906001600160a01b038816906000907fddf252ad1be2c89b69c2b068fc378daa952ba7f163c4a11628f55a4df523b3ef908290a46101355460405163fb74926160e01b815260048101839052602481018590526001600160a01b039091169063fb74926190604401600060405180830381600087803b158015612d7e57600080fd5b505af1158015612d92573d6000803e3d6000fd5b509298975050505050505050565b612dec89612db08b8a8a886120ba565b87878080601f0160208091040260200160405190810160405280939291908181526020018383808284376000920191909152506130d992505050565b612e4c5760405162461bcd60e51b815260206004820152602b60248201527f73616665436865636b4d65726b6c6541677265656d656e743a20696e76616c6960448201526a64207369676e617475726560a81b6064820152608401610793565b6040516bffffffffffffffffffffffff1960608a901b166020820152600090603401604051602081830303815290604052805190602001209050612ec68383808060200260200160405190810160405280939291908181526020018383602002808284376000920191909152508892508591506134149050565b612f215760405162461bcd60e51b815260206004820152602660248201527f73616665436865636b4d65726b6c6541677265656d656e743a20696e76616c6960448201526532103632b0b360d11b6064820152608401610793565b50505050505050505050565b60c9546001600160a01b031633146116435760405162461bcd60e51b815260206004820181905260248201527f4f776e61626c653a2063616c6c6572206973206e6f7420746865206f776e65726044820152606401610793565b60c980546001600160a01b038381166001600160a01b0319831681179093556040519116919082907f8be0079c531659141344cd1fd0a4f28419497f9722a3daafe3b4186f6b6457e090600090a35050565b60006106c3612fe661342a565b8360405161190160f01b6020820152602281018390526042810182905260009060620160405160208183030381529060405280519060200120905092915050565b6000612a9d3388888888885b61307f85613043888888886127d3565b84848080601f0160208091040260200160405190810160405280939291908181526020018383808284376000920191909152506130d992505050565b610d6d5760405162461bcd60e51b815260206004820152602560248201527f73616665436865636b41677265656d656e743a20696e76616c6964207369676e604482015264617475726560d81b6064820152608401610793565b60008060006130e88585613466565b909250905060008160048111156131015761310161473d565b14801561311f5750856001600160a01b0316826001600160a01b0316145b1561312f57600192505050611a49565b600080876001600160a01b0316631626ba7e60e01b8888604051602401613157929190614753565b60408051601f198184030181529181526020820180516001600160e01b03166001600160e01b0319909416939093179092529051613195919061476c565b600060405180830381855afa9150503d80600081146131d0576040519150601f19603f3d011682016040523d82523d6000602084013e6131d5565b606091505b50915091508180156131e8575080516020145b801561320f57508051630b135d3f60e11b9061320d908301602090810190840161438e565b145b98975050505050505050565b600081815261013260209081526040808320546001600160a01b0316808452610134909252822080549192600192613254908490614788565b909155505060008281526101326020908152604080832080546001600160a01b0319169055610133909152812061328a9161388a565b60405182906000906001600160a01b038416907fddf252ad1be2c89b69c2b068fc378daa952ba7f163c4a11628f55a4df523b3ef908390a45050565b600054610100900460ff166116435760405162461bcd60e51b81526004016107939061479b565b600054610100900460ff166133145760405162461bcd60e51b81526004016107939061479b565b6116436134d4565b600054610100900460ff166133435760405162461bcd60e51b81526004016107939061479b565b61149d8282613504565b6001600160a01b0381163b6133ba5760405162461bcd60e51b815260206004820152602d60248201527f455243313936373a206e657720696d706c656d656e746174696f6e206973206e60448201526c1bdd08184818dbdb9d1c9858dd609a1b6064820152608401610793565b6000805160206147fa83398151915280546001600160a01b0319166001600160a01b0392909216919091179055565b6133f283613545565b6000825111806133ff5750805b15612ae45761340e8383613585565b50505050565b6000826134218584613679565b14949350505050565b60006134617f8b73c3c69bb8fe3d512ecc4cf759cc79239f7b179b0ffacaa9a75d522b39400f61345960fb5490565b60fc546136c6565b905090565b600080825160410361349c5760208301516040840151606085015160001a613490878285856136f5565b945094505050506134cd565b82516040036134c557602083015160408401516134ba8683836137e2565b9350935050506134cd565b506000905060025b9250929050565b600054610100900460ff166134fb5760405162461bcd60e51b81526004016107939061479b565b61164333612f87565b600054610100900460ff1661352b5760405162461bcd60e51b81526004016107939061479b565b81516020928301208151919092012060fb9190915560fc55565b61354e8161334d565b6040516001600160a01b038216907fbc7cd75a20ee27fd9adebab32041f755214dbc6bffa90cc0225b39da2e5c2d3b90600090a250565b60606001600160a01b0383163b6135ed5760405162461bcd60e51b815260206004820152602660248201527f416464726573733a2064656c65676174652063616c6c20746f206e6f6e2d636f6044820152651b9d1c9858dd60d21b6064820152608401610793565b600080846001600160a01b031684604051613608919061476c565b600060405180830381855af49150503d8060008114613643576040519150601f19603f3d011682016040523d82523d6000602084013e613648565b606091505b5091509150613670828260405180606001604052806027815260200161481a6027913961381b565b95945050505050565b600081815b84518110156136be576136aa8286838151811061369d5761369d614593565b6020026020010151613834565b9150806136b6816145bf565b91505061367e565b509392505050565b6040805160208101859052908101839052606081018290524660808201523060a082015260009060c001611de2565b6000807f7fffffffffffffffffffffffffffffff5d576e7357a4501ddfe92f46681b20a083111561372c57506000905060036137d9565b8460ff16601b1415801561374457508460ff16601c14155b1561375557506000905060046137d9565b6040805160008082526020820180845289905260ff881692820192909252606081018690526080810185905260019060a0016020604051602081039080840390855afa1580156137a9573d6000803e3d6000fd5b5050604051601f1901519150506001600160a01b0381166137d2576000600192509250506137d9565b9150600090505b94509492505050565b6000806001600160ff1b038316816137ff60ff86901c601b6147e6565b905061380d878288856136f5565b935093505050935093915050565b6060831561382a575081611a49565b611a498383613860565b6000818310613850576000828152602084905260409020611a49565b5060009182526020526040902090565b8151156138705781518083602001fd5b8060405162461bcd60e51b81526004016107939190613952565b508054613896906142e8565b6000825580601f106138a6575050565b601f016020900490600052602060002090810190610bec91905b808211156138d457600081556001016138c0565b5090565b6000602082840312156138ea57600080fd5b81356001600160e01b031981168114611a4957600080fd5b60005b8381101561391d578181015183820152602001613905565b50506000910152565b6000815180845261393e816020860160208601613902565b601f01601f19169290920160200192915050565b602081526000611a496020830184613926565b60008083601f84011261397757600080fd5b5081356001600160401b0381111561398e57600080fd5b6020830191508360208285010111156134cd57600080fd5b6000806000806000606086880312156139be57600080fd5b8535945060208601356001600160401b03808211156139dc57600080fd5b6139e889838a01613965565b90965094506040880135915080821115613a0157600080fd5b50613a0e88828901613965565b969995985093965092949392505050565b600060208284031215613a3157600080fd5b5035919050565b6001600160a01b0381168114610bec57600080fd5b8035613a5881613a38565b919050565b600080600080600060608688031215613a7557600080fd5b8535613a8081613a38565b945060208601356001600160401b03808211156139dc57600080fd5b600060208284031215613aae57600080fd5b8135611a4981613a38565b60008083601f840112613acb57600080fd5b5081356001600160401b03811115613ae257600080fd5b6020830191508360208260051b85010111156134cd57600080fd5b60008060008060408587031215613b1357600080fd5b84356001600160401b0380821115613b2a57600080fd5b613b3688838901613ab9565b90965094506020870135915080821115613b4f57600080fd5b50613b5c87828801613965565b95989497509550505050565b600080600060408486031215613b7d57600080fd5b83356001600160401b03811115613b9357600080fd5b613b9f86828701613965565b909790965060209590950135949350505050565b60008060008060008060008060a0898b031215613bcf57600080fd5b8835613bda81613a38565b975060208901356001600160401b0380821115613bf657600080fd5b613c028c838d01613965565b909950975060408b0135915080821115613c1b57600080fd5b613c278c838d01613965565b909750955060608b0135945060808b0135915080821115613c4757600080fd5b50613c548b828c01613ab9565b999c989b5096995094979396929594505050565b634e487b7160e01b600052604160045260246000fd5b604051601f8201601f191681016001600160401b0381118282101715613ca657613ca6613c68565b604052919050565b600080600080600060608688031215613cc657600080fd5b85356001600160401b0380821115613cdd57600080fd5b818801915088601f830112613cf157600080fd5b8135602082821115613d0557613d05613c68565b8160051b613d14828201613c7e565b928352848101820192828101908d851115613d2e57600080fd5b958301955b84871015613d585786359250613d4883613a38565b8282529583019590830190613d33565b9a50505089013592505080821115613d6f57600080fd5b613d7b89838a01613965565b90965094506040880135915080821115613d9457600080fd5b50613a0e88828901613ab9565b60008060408385031215613db457600080fd5b8235613dbf81613a38565b91506020838101356001600160401b0380821115613ddc57600080fd5b818601915086601f830112613df057600080fd5b813581811115613e0257613e02613c68565b613e14601f8201601f19168501613c7e565b91508082528784828501011115613e2a57600080fd5b80848401858401376000848284010152508093505050509250929050565b600080600060608486031215613e5d57600080fd5b8335925060208401359150604084013560ff81168114613e7c57600080fd5b809150509250925092565b60008060408385031215613e9a57600080fd5b50508035926020909101359150565b600080600060408486031215613ebe57600080fd5b8335613ec981613a38565b925060208401356001600160401b03811115613ee457600080fd5b613ef086828701613965565b9497909650939450505050565b60008060008060008060608789031215613f1657600080fd5b86356001600160401b0380821115613f2d57600080fd5b613f398a838b01613ab9565b90985096506020890135915080821115613f5257600080fd5b613f5e8a838b01613965565b90965094506040890135915080821115613f7757600080fd5b50613f8489828a01613ab9565b979a9699509497509295939492505050565b60008060008060008060008060a0898b031215613fb257600080fd5b8835613fbd81613a38565b97506020890135613fcd81613a38565b965060408901356001600160401b0380821115613fe957600080fd5b613ff58c838d01613965565b909850965060608b013591508082111561400e57600080fd5b61401a8c838d01613965565b909650945060808b013591508082111561403357600080fd5b50613c548b828c01613965565b6000806000806060858703121561405657600080fd5b843561406181613a38565b935060208501356001600160401b0381111561407c57600080fd5b61408887828801613965565b9598909750949560400135949350505050565b600080602083850312156140ae57600080fd5b82356001600160401b038111156140c457600080fd5b6140d085828601613ab9565b90969095509350505050565b600080600080600080600080600080600060e08c8e0312156140fd57600080fd5b6141068c613a4d565b9a5061411460208d01613a4d565b99506001600160401b038060408e0135111561412f57600080fd5b61413f8e60408f01358f01613965565b909a50985060608d013581101561415557600080fd5b6141658e60608f01358f01613965565b909850965060808d013581101561417b57600080fd5b61418b8e60808f01358f01613965565b909650945060a08d0135935060c08d01358110156141a857600080fd5b506141b98d60c08e01358e01613ab9565b81935080925050509295989b509295989b9093969950565b60008060008060008060008060a0898b0312156141ed57600080fd5b88356001600160401b038082111561420457600080fd5b6142108c838d01613965565b909a50985060208b013591508082111561422957600080fd5b6142358c838d01613965565b909850965060408b013591508082111561424e57600080fd5b5061425b8b828c01613965565b909550935050606089013561426f81613a38565b9150608089013561427f81613a38565b809150509295985092959890939650565b600080600080606085870312156142a657600080fd5b84356142b181613a38565b935060208501356142c181613a38565b925060408501356001600160401b038111156142dc57600080fd5b613b5c87828801613965565b600181811c908216806142fc57607f821691505b6020821081036109b757634e487b7160e01b600052602260045260246000fd5b6020808252818101527f746f6b656e4578697374733a20746f6b656e20646f65736e2774206578697374604082015260600190565b81835281816020850137506000828201602090810191909152601f909101601f19169091010190565b602081526000611a46602083018486614351565b6000602082840312156143a057600080fd5b5051919050565b6000602082840312156143b957600080fd5b81518015158114611a4957600080fd5b601f821115612ae457600081815260208120601f850160051c810160208610156143f05750805b601f850160051c820191505b81811015610d6d578281556001016143fc565b6001600160401b0383111561442657614426613c68565b61443a8361443483546142e8565b836143c9565b6000601f84116001811461446e57600085156144565750838201355b600019600387901b1c1916600186901b1783556144c8565b600083815260209020601f19861690835b8281101561449f578685013582556020948501946001909201910161447f565b50868210156144bc5760001960f88860031b161c19848701351681555b505060018560011b0183555b5050505050565b6040815260006144e3604083018587614351565b905060018060a01b0383166020830152949350505050565b6020808252602c908201527f46756e6374696f6e206d7573742062652063616c6c6564207468726f7567682060408201526b19195b1959d85d1958d85b1b60a21b606082015260800190565b6020808252602c908201527f46756e6374696f6e206d7573742062652063616c6c6564207468726f7567682060408201526b6163746976652070726f787960a01b606082015260800190565b634e487b7160e01b600052603260045260246000fd5b634e487b7160e01b600052601160045260246000fd5b6000600182016145d1576145d16145a9565b5060010190565b6040815260006145ec604083018587614351565b9050826020830152949350505050565b60006020828403121561460e57600080fd5b8151611a4981613a38565b6000808335601e1984360301811261463057600080fd5b8301803591506001600160401b0382111561464a57600080fd5b6020019150368190038213156134cd57600080fd5b8183823760009101908152919050565b6001600160a01b03841681526040602082018190526000906121299083018486614351565b6040808252810183905260006060600585901b8301810190830186835b8781101561472457858403605f190183528135368a9003601e190181126146d757600080fd5b890160208181019135906001600160401b038211156146f557600080fd5b81360383131561470457600080fd5b61470f878385614351565b965094850194939093019250506001016146b1565b5050506001600160a01b0384166020840152905061212c565b634e487b7160e01b600052602160045260246000fd5b828152604060208201526000611a466040830184613926565b6000825161477e818460208701613902565b9190910192915050565b818103818111156106c3576106c36145a9565b6020808252602b908201527f496e697469616c697a61626c653a20636f6e7472616374206973206e6f74206960408201526a6e697469616c697a696e6760a81b606082015260800190565b808201808211156106c3576106c36145a956fe360894a13ba1a3210667c828492db98dca3e2076cc3735a920a3ca505d382bbc416464726573733a206c6f772d6c6576656c2064656c65676174652063616c6c206661696c6564a26469706673582212203fd44c6447e73854e3fe686160b02460af6b4bf20272e42b19c93fab0ab0b80c64736f6c63430008100033",
    "linkReferences": {}
  },
  "methodIdentifiers": {
    "airdrop(address[],string)": "39ae37c0",
    "balanceOf(address)": "70a08231",
    "createSpec(string,uint256)": "445a62b9",
    "getAgreementHash(address,address,string)": "e4992506",
    "getBadgeIdHash(address,string)": "a8cf8683",
    "getDataHolderAddress()": "635ad993",
    "getMerkleAgreementHash(address,string,bytes32)": "bd6645e4",
    "getRequestHash(address,string)": "8339a133",
    "give(address,string,bytes)": "ec64948e",
    "giveRequestedBadge(address,string,bytes)": "1766c038",
    "giveRequestedBadgeToMany(address[],string,bytes[])": "4a50b376",
    "giveToMany(address[],string,bytes[])": "a32c9c7a",
    "initialize(string,string,string,address,address)": "d6d0faee",
    "isBadgeValid(uint256)": "0f4d9b01",
    "merkleMintWithConsent(address,address,string,bytes,bytes,bytes32,bytes32[])": "c7a35fed",
    "merkleTake(address,string,bytes,bytes32,bytes32[])": "4a086b53",
    "mintWithConsent(address,address,string,bytes,bytes)": "bc4b5447",
    "name()": "06fdde03",
    "owner()": "8da5cb5b",
    "ownerOf(uint256)": "6352211e",
    "proxiableUUID()": "52d1902d",
    "refreshMetadata(string[])": "bdbdbcbf",
    "reinstateBadge(uint256,uint256)": "80956c7e",
    "renounceOwnership()": "715018a6",
    "revokeBadge(uint256,uint256,uint8)": "7c402f8d",
    "setDataHolder(address)": "c0184112",
    "supportsInterface(bytes4)": "01ffc9a7",
    "symbol()": "95d89b41",
    "take(address,string,bytes)": "a3947803",
    "tokenURI(uint256)": "c87b56dd",
    "transferOwnership(address)": "f2fde38b",
    "unequip(uint256)": "d179e3d0",
    "updateTokenURI(uint256,string,string)": "07049fb5",
    "upgradeTo(address)": "3659cfe6",
    "upgradeToAndCall(address,bytes)": "4f1ef286"
  },
  "id": 44
}