{
  "abi": [
    {
      "inputs": [
        {
          "internalType": "string",
          "name": "name",
          "type": "string"
        },
        {
          "internalType": "string",
          "name": "symbol",
          "type": "string"
        },
        {
          "internalType": "string",
          "name": "version",
          "type": "string"
        }
      ],
      "stateMutability": "nonpayable",
      "type": "constructor"
    },
    {
      "anonymous": false,
      "inputs": [
        {
          "indexed": true,
          "internalType": "address",
          "name": "from",
          "type": "address"
        },
        {
          "indexed": true,
          "internalType": "address",
          "name": "to",
          "type": "address"
        },
        {
          "indexed": true,
          "internalType": "uint256",
          "name": "tokenId",
          "type": "uint256"
        }
      ],
      "name": "Transfer",
      "type": "event"
    },
    {
      "inputs": [
        {
          "internalType": "address",
          "name": "owner",
          "type": "address"
        }
      ],
      "name": "balanceOf",
      "outputs": [
        {
          "internalType": "uint256",
          "name": "",
          "type": "uint256"
        }
      ],
      "stateMutability": "view",
      "type": "function"
    },
    {
      "inputs": [
        {
          "internalType": "address",
          "name": "from",
          "type": "address"
        },
        {
          "internalType": "address",
          "name": "to",
          "type": "address"
        },
        {
          "internalType": "string",
          "name": "tokenURI",
          "type": "string"
        }
      ],
      "name": "getHash",
      "outputs": [
        {
          "internalType": "bytes32",
          "name": "",
          "type": "bytes32"
        }
      ],
      "stateMutability": "view",
      "type": "function"
    },
    {
      "inputs": [
        {
          "internalType": "bytes32",
          "name": "hash",
          "type": "bytes32"
        }
      ],
      "name": "getTokenIdFromHash",
      "outputs": [
        {
          "internalType": "uint256",
          "name": "",
          "type": "uint256"
        }
      ],
      "stateMutability": "pure",
      "type": "function"
    },
    {
      "inputs": [
        {
          "internalType": "address",
          "name": "to",
          "type": "address"
        },
        {
          "internalType": "string",
          "name": "uri",
          "type": "string"
        },
        {
          "internalType": "bytes",
          "name": "signature",
          "type": "bytes"
        }
      ],
      "name": "give",
      "outputs": [
        {
          "internalType": "uint256",
          "name": "",
          "type": "uint256"
        }
      ],
      "stateMutability": "nonpayable",
      "type": "function"
    },
    {
      "inputs": [
        {
          "internalType": "address",
          "name": "to",
          "type": "address"
        },
        {
          "internalType": "uint256",
          "name": "tokenId",
          "type": "uint256"
        },
        {
          "internalType": "string",
          "name": "uri",
          "type": "string"
        }
      ],
      "name": "mint",
      "outputs": [
        {
          "internalType": "uint256",
          "name": "",
          "type": "uint256"
        }
      ],
      "stateMutability": "nonpayable",
      "type": "function"
    },
    {
      "inputs": [],
      "name": "name",
      "outputs": [
        {
          "internalType": "string",
          "name": "",
          "type": "string"
        }
      ],
      "stateMutability": "view",
      "type": "function"
    },
    {
      "inputs": [
        {
          "internalType": "uint256",
          "name": "tokenId",
          "type": "uint256"
        }
      ],
      "name": "ownerOf",
      "outputs": [
        {
          "internalType": "address",
          "name": "",
          "type": "address"
        }
      ],
      "stateMutability": "view",
      "type": "function"
    },
    {
      "inputs": [
        {
          "internalType": "bytes4",
          "name": "interfaceId",
          "type": "bytes4"
        }
      ],
      "name": "supportsInterface",
      "outputs": [
        {
          "internalType": "bool",
          "name": "",
          "type": "bool"
        }
      ],
      "stateMutability": "view",
      "type": "function"
    },
    {
      "inputs": [],
      "name": "symbol",
      "outputs": [
        {
          "internalType": "string",
          "name": "",
          "type": "string"
        }
      ],
      "stateMutability": "view",
      "type": "function"
    },
    {
      "inputs": [
        {
          "internalType": "address",
          "name": "from",
          "type": "address"
        },
        {
          "internalType": "string",
          "name": "uri",
          "type": "string"
        },
        {
          "internalType": "bytes",
          "name": "signature",
          "type": "bytes"
        }
      ],
      "name": "take",
      "outputs": [
        {
          "internalType": "uint256",
          "name": "",
          "type": "uint256"
        }
      ],
      "stateMutability": "nonpayable",
      "type": "function"
    },
    {
      "inputs": [
        {
          "internalType": "uint256",
          "name": "tokenId",
          "type": "uint256"
        }
      ],
      "name": "tokenURI",
      "outputs": [
        {
          "internalType": "string",
          "name": "",
          "type": "string"
        }
      ],
      "stateMutability": "view",
      "type": "function"
    },
    {
      "inputs": [
        {
          "internalType": "uint256",
          "name": "tokenId",
          "type": "uint256"
        }
      ],
      "name": "unequip",
      "outputs": [],
      "stateMutability": "nonpayable",
      "type": "function"
    }
  ],
  "bytecode": {
    "object": "0x6101406040523480156200001257600080fd5b5060405162001843380380620018438339810160408190526200003591620001be565b825160208085019190912082518383012060e08290526101008190524660a0818152604080517f8b73c3c69bb8fe3d512ecc4cf759cc79239f7b179b0ffacaa9a75d522b39400f818801819052818301969096526060810194909452608080850193909352308483018190528151808603909301835260c094850190915281519190950120905291909152610120528282826001620000d58482620002de565b506002620000e48382620002de565b50505050505050620003aa565b634e487b7160e01b600052604160045260246000fd5b600082601f8301126200011957600080fd5b81516001600160401b0380821115620001365762000136620000f1565b604051601f8301601f19908116603f01168101908282118183101715620001615762000161620000f1565b816040528381526020925086838588010111156200017e57600080fd5b600091505b83821015620001a2578582018301518183018401529082019062000183565b83821115620001b45760008385830101525b9695505050505050565b600080600060608486031215620001d457600080fd5b83516001600160401b0380821115620001ec57600080fd5b620001fa8783880162000107565b945060208601519150808211156200021157600080fd5b6200021f8783880162000107565b935060408601519150808211156200023657600080fd5b50620002458682870162000107565b9150509250925092565b600181811c908216806200026457607f821691505b6020821081036200028557634e487b7160e01b600052602260045260246000fd5b50919050565b601f821115620002d957600081815260208120601f850160051c81016020861015620002b45750805b601f850160051c820191505b81811015620002d557828155600101620002c0565b5050505b505050565b81516001600160401b03811115620002fa57620002fa620000f1565b62000312816200030b84546200024f565b846200028b565b602080601f8311600181146200034a5760008415620003315750858301515b600019600386901b1c1916600185901b178555620002d5565b600085815260208120601f198616915b828110156200037b578886015182559484019460019091019084016200035a565b50858210156200039a5787850151600019600388901b60f8161c191681555b5050505050600190811b01905550565b60805160a05160c05160e0516101005161012051611449620003fa6000396000610d0501526000610d5401526000610d2f01526000610c8801526000610cb201526000610cdc01526114496000f3fe608060405234801561001057600080fd5b50600436106100b45760003560e01c8063c5cf33c211610071578063c5cf33c21461015d578063c87b56dd14610170578063d179e3d014610183578063d3fc986414610198578063ea924dec146101ab578063ec64948e146101bc57600080fd5b806301ffc9a7146100b957806306fdde03146100e15780636352211e146100f657806370a082311461012157806395d89b4114610142578063a39478031461014a575b600080fd5b6100cc6100c7366004610f2c565b6101cf565b60405190151581526020015b60405180910390f35b6100e9610221565b6040516100d89190610fa5565b610109610104366004610fb8565b6102b3565b6040516001600160a01b0390911681526020016100d8565b61013461012f366004610fed565b61031d565b6040519081526020016100d8565b6100e96103a6565b61013461015836600461104a565b6103b5565b61013461016b3660046110cb565b61048d565b6100e961017e366004610fb8565b6104a4565b610196610191366004610fb8565b6105a9565b005b6101346101a6366004611142565b61063e565b6101346101b9366004610fb8565b90565b6101346101ca36600461104a565b610655565b60006001600160e01b03198216635b5e139f60e01b148061020057506001600160e01b031982166346bdd63960e11b145b8061021b57506301ffc9a760e01b6001600160e01b03198316145b92915050565b6060600180546102309061120d565b80601f016020809104026020016040519081016040528092919081815260200182805461025c9061120d565b80156102a95780601f1061027e576101008083540402835291602001916102a9565b820191906000526020600020905b81548152906001019060200180831161028c57829003601f168201915b5050505050905090565b6000818152600360205260408120546001600160a01b03168061021b5760405162461bcd60e51b815260206004820152601c60248201527f6f776e65724f663a20746f6b656e20646f65736e27742065786973740000000060448201526064015b60405180910390fd5b60006001600160a01b03821661038a5760405162461bcd60e51b815260206004820152602c60248201527f62616c616e63654f663a2061646472657373207a65726f206973206e6f74206160448201526b103b30b634b21037bbb732b960a11b6064820152608401610314565b506001600160a01b031660009081526005602052604090205490565b6060600280546102309061120d565b60006001600160a01b038616330361040f5760405162461bcd60e51b815260206004820152601b60248201527f74616b653a2063616e6e6f742074616b652066726f6d2073656c6600000000006044820152606401610314565b600061041f338888888888610702565b9050610462338288888080601f01602080910402602001604051908101604052809392919081815260200183838082843760009201919091525061083692505050565b50600881901c60009081526020819052604090208054600160ff84161b1790555b9695505050505050565b600061049b8585858561093c565b95945050505050565b6000818152600360205260409020546060906001600160a01b031661050b5760405162461bcd60e51b815260206004820152601d60248201527f746f6b656e5552493a20746f6b656e20646f65736e27742065786973740000006044820152606401610314565b600082815260046020526040902080546105249061120d565b80601f01602080910402602001604051908101604052809291908181526020018280546105509061120d565b801561059d5780601f106105725761010080835404028352916020019161059d565b820191906000526020600020905b81548152906001019060200180831161058057829003601f168201915b50505050509050919050565b6105b2816102b3565b6001600160a01b0316336001600160a01b0316146106125760405162461bcd60e51b815260206004820152601d60248201527f756e65717569703a2073656e646572206d757374206265206f776e65720000006044820152606401610314565b600881901c60009081526020819052604090208054600160ff84161b1916905561063b816109cb565b50565b600061064b848484610836565b90505b9392505050565b60006001600160a01b03861633036106af5760405162461bcd60e51b815260206004820152601b60248201527f676976653a2063616e6e6f7420676976652066726f6d2073656c6600000000006044820152606401610314565b60006106bf338888888888610702565b9050610462878288888080601f01602080910402602001604051908101604052809392919081815260200183838082843760009201919091525061083692505050565b6000806107118888888861093c565b905060008160001c905061075c888387878080601f016020809104026020016040519081016040528093929190818152602001838380828437600092019190915250610a7492505050565b6107b75760405162461bcd60e51b815260206004820152602660248201527f5f73616665436865636b41677265656d656e743a20696e76616c6964207369676044820152656e617475726560d01b6064820152608401610314565b600881901c600090815260208190526040902054600160ff83161b161561082a5760405162461bcd60e51b815260206004820152602160248201527f5f73616665436865636b41677265656d656e743a20616c7265616479207573656044820152601960fa1b6064820152608401610314565b98975050505050505050565b6000828152600360205260408120546001600160a01b0316156108925760405162461bcd60e51b81526020600482015260146024820152736d696e743a20746f6b656e49442065786973747360601b6044820152606401610314565b6001600160a01b03841660009081526005602052604081208054600192906108bb90849061125d565b9091555050600083815260036020908152604080832080546001600160a01b0319166001600160a01b038916179055600490915290206108fb83826112c4565b5060405183906001600160a01b038616906000907fddf252ad1be2c89b69c2b068fc378daa952ba7f163c4a11628f55a4df523b3ef908290a4509092915050565b6000807fe76a195fbe43f0eaa611595069f780493db2202a1cc4b2d7d44b47069812998a86868686604051610972929190611384565b6040519081900381206109aa949392916020019384526001600160a01b03928316602085015291166040830152606082015260800190565b60405160208183030381529060405280519060200120905061048381610bbf565b60006109d6826102b3565b6001600160a01b03811660009081526005602052604081208054929350600192909190610a04908490611394565b9091555050600082815260036020908152604080832080546001600160a01b031916905560049091528120610a3891610ec8565b60405182906000906001600160a01b038416907fddf252ad1be2c89b69c2b068fc378daa952ba7f163c4a11628f55a4df523b3ef908390a45050565b6000806000610a838585610c0d565b90925090506000816004811115610a9c57610a9c6113ab565b148015610aba5750856001600160a01b0316826001600160a01b0316145b15610aca5760019250505061064e565b600080876001600160a01b0316631626ba7e60e01b8888604051602401610af29291906113c1565b60408051601f198184030181529181526020820180516001600160e01b03166001600160e01b0319909416939093179092529051610b3091906113da565b600060405180830381855afa9150503d8060008114610b6b576040519150601f19603f3d011682016040523d82523d6000602084013e610b70565b606091505b5091509150818015610b83575080516020145b801561082a57508051630b135d3f60e11b90610ba890830160209081019084016113f6565b6001600160e01b0319161498975050505050505050565b600061021b610bcc610c7b565b8360405161190160f01b6020820152602281018390526042810182905260009060620160405160208183030381529060405280519060200120905092915050565b6000808251604103610c435760208301516040840151606085015160001a610c3787828585610da2565b94509450505050610c74565b8251604003610c6c5760208301516040840151610c61868383610e8f565b935093505050610c74565b506000905060025b9250929050565b6000306001600160a01b037f000000000000000000000000000000000000000000000000000000000000000016148015610cd457507f000000000000000000000000000000000000000000000000000000000000000046145b15610cfe57507f000000000000000000000000000000000000000000000000000000000000000090565b50604080517f00000000000000000000000000000000000000000000000000000000000000006020808301919091527f0000000000000000000000000000000000000000000000000000000000000000828401527f000000000000000000000000000000000000000000000000000000000000000060608301524660808301523060a0808401919091528351808403909101815260c0909201909252805191012090565b6000807f7fffffffffffffffffffffffffffffff5d576e7357a4501ddfe92f46681b20a0831115610dd95750600090506003610e86565b8460ff16601b14158015610df157508460ff16601c14155b15610e025750600090506004610e86565b6040805160008082526020820180845289905260ff881692820192909252606081018690526080810185905260019060a0016020604051602081039080840390855afa158015610e56573d6000803e3d6000fd5b5050604051601f1901519150506001600160a01b038116610e7f57600060019250925050610e86565b9150600090505b94509492505050565b6000806001600160ff1b03831681610eac60ff86901c601b61125d565b9050610eba87828885610da2565b935093505050935093915050565b508054610ed49061120d565b6000825580601f10610ee4575050565b601f01602090049060005260206000209081019061063b91905b80821115610f125760008155600101610efe565b5090565b6001600160e01b03198116811461063b57600080fd5b600060208284031215610f3e57600080fd5b813561064e81610f16565b60005b83811015610f64578181015183820152602001610f4c565b83811115610f73576000848401525b50505050565b60008151808452610f91816020860160208601610f49565b601f01601f19169290920160200192915050565b60208152600061064e6020830184610f79565b600060208284031215610fca57600080fd5b5035919050565b80356001600160a01b0381168114610fe857600080fd5b919050565b600060208284031215610fff57600080fd5b61064e82610fd1565b60008083601f84011261101a57600080fd5b50813567ffffffffffffffff81111561103257600080fd5b602083019150836020828501011115610c7457600080fd5b60008060008060006060868803121561106257600080fd5b61106b86610fd1565b9450602086013567ffffffffffffffff8082111561108857600080fd5b61109489838a01611008565b909650945060408801359150808211156110ad57600080fd5b506110ba88828901611008565b969995985093965092949392505050565b600080600080606085870312156110e157600080fd5b6110ea85610fd1565b93506110f860208601610fd1565b9250604085013567ffffffffffffffff81111561111457600080fd5b61112087828801611008565b95989497509550505050565b634e487b7160e01b600052604160045260246000fd5b60008060006060848603121561115757600080fd5b61116084610fd1565b925060208401359150604084013567ffffffffffffffff8082111561118457600080fd5b818601915086601f83011261119857600080fd5b8135818111156111aa576111aa61112c565b604051601f8201601f19908116603f011681019083821181831017156111d2576111d261112c565b816040528281528960208487010111156111eb57600080fd5b8260208601602083013760006020848301015280955050505050509250925092565b600181811c9082168061122157607f821691505b60208210810361124157634e487b7160e01b600052602260045260246000fd5b50919050565b634e487b7160e01b600052601160045260246000fd5b6000821982111561127057611270611247565b500190565b601f8211156112bf57600081815260208120601f850160051c8101602086101561129c5750805b601f850160051c820191505b818110156112bb578281556001016112a8565b5050505b505050565b815167ffffffffffffffff8111156112de576112de61112c565b6112f2816112ec845461120d565b84611275565b602080601f831160018114611327576000841561130f5750858301515b600019600386901b1c1916600185901b1785556112bb565b600085815260208120601f198616915b8281101561135657888601518255948401946001909101908401611337565b50858210156113745787850151600019600388901b60f8161c191681555b5050505050600190811b01905550565b8183823760009101908152919050565b6000828210156113a6576113a6611247565b500390565b634e487b7160e01b600052602160045260246000fd5b82815260406020820152600061064b6040830184610f79565b600082516113ec818460208701610f49565b9190910192915050565b60006020828403121561140857600080fd5b815161064e81610f1656fea26469706673582212207a0b3d40dd63f0157b6091ff0a67128cb1454559867727e2804cba33ec83581b64736f6c634300080f0033",
    "linkReferences": {}
  },
  "methodIdentifiers": {
    "balanceOf(address)": "70a08231",
    "getHash(address,address,string)": "c5cf33c2",
    "getTokenIdFromHash(bytes32)": "ea924dec",
    "give(address,string,bytes)": "ec64948e",
    "mint(address,uint256,string)": "d3fc9864",
    "name()": "06fdde03",
    "ownerOf(uint256)": "6352211e",
    "supportsInterface(bytes4)": "01ffc9a7",
    "symbol()": "95d89b41",
    "take(address,string,bytes)": "a3947803",
    "tokenURI(uint256)": "c87b56dd",
    "unequip(uint256)": "d179e3d0"
  },
  "id": 23
}