{
  "abi": [
    {
      "inputs": [
        {
          "internalType": "string",
          "name": "name",
          "type": "string"
        },
        {
          "internalType": "string",
          "name": "symbol",
          "type": "string"
        },
        {
          "internalType": "address",
          "name": "nextOwner",
          "type": "address"
        }
      ],
      "stateMutability": "nonpayable",
      "type": "constructor"
    },
    {
      "anonymous": false,
      "inputs": [
        {
          "indexed": true,
          "internalType": "address",
          "name": "_to",
          "type": "address"
        },
        {
          "indexed": true,
          "internalType": "uint256",
          "name": "_tokenId",
          "type": "uint256"
        }
      ],
      "name": "Attest",
      "type": "event"
    },
    {
      "anonymous": false,
      "inputs": [
        {
          "indexed": true,
          "internalType": "address",
          "name": "previousOwner",
          "type": "address"
        },
        {
          "indexed": true,
          "internalType": "address",
          "name": "newOwner",
          "type": "address"
        }
      ],
      "name": "OwnershipTransferred",
      "type": "event"
    },
    {
      "anonymous": false,
      "inputs": [
        {
          "indexed": true,
          "internalType": "address",
          "name": "_to",
          "type": "address"
        },
        {
          "indexed": true,
          "internalType": "uint256",
          "name": "_tokenId",
          "type": "uint256"
        }
      ],
      "name": "Revoke",
      "type": "event"
    },
    {
      "inputs": [
        {
          "internalType": "address",
          "name": "to",
          "type": "address"
        }
      ],
      "name": "mint",
      "outputs": [
        {
          "internalType": "uint256",
          "name": "",
          "type": "uint256"
        }
      ],
      "stateMutability": "nonpayable",
      "type": "function"
    },
    {
      "inputs": [],
      "name": "name",
      "outputs": [
        {
          "internalType": "string",
          "name": "",
          "type": "string"
        }
      ],
      "stateMutability": "view",
      "type": "function"
    },
    {
      "inputs": [],
      "name": "owner",
      "outputs": [
        {
          "internalType": "address",
          "name": "",
          "type": "address"
        }
      ],
      "stateMutability": "view",
      "type": "function"
    },
    {
      "inputs": [
        {
          "internalType": "uint256",
          "name": "tokenId",
          "type": "uint256"
        }
      ],
      "name": "ownerOf",
      "outputs": [
        {
          "internalType": "address",
          "name": "",
          "type": "address"
        }
      ],
      "stateMutability": "view",
      "type": "function"
    },
    {
      "inputs": [],
      "name": "renounceOwnership",
      "outputs": [],
      "stateMutability": "nonpayable",
      "type": "function"
    },
    {
      "inputs": [
        {
          "internalType": "bytes4",
          "name": "interfaceId",
          "type": "bytes4"
        }
      ],
      "name": "supportsInterface",
      "outputs": [
        {
          "internalType": "bool",
          "name": "",
          "type": "bool"
        }
      ],
      "stateMutability": "view",
      "type": "function"
    },
    {
      "inputs": [],
      "name": "symbol",
      "outputs": [
        {
          "internalType": "string",
          "name": "",
          "type": "string"
        }
      ],
      "stateMutability": "view",
      "type": "function"
    },
    {
      "inputs": [
        {
          "internalType": "uint256",
          "name": "tokenId",
          "type": "uint256"
        }
      ],
      "name": "tokenURI",
      "outputs": [
        {
          "internalType": "string",
          "name": "",
          "type": "string"
        }
      ],
      "stateMutability": "view",
      "type": "function"
    },
    {
      "inputs": [
        {
          "internalType": "address",
          "name": "newOwner",
          "type": "address"
        }
      ],
      "name": "transferOwnership",
      "outputs": [],
      "stateMutability": "nonpayable",
      "type": "function"
    }
  ],
  "bytecode": {
    "object": "0x60806040523480156200001157600080fd5b5060405162000c8b38038062000c8b833981016040819052620000349162000332565b8251839083906200004d906000906020850190620001bf565b50805162000063906001906020840190620001bf565b505050620000806200007a6200009460201b60201c565b62000098565b6200008b81620000ea565b505050620003fc565b3390565b600480546001600160a01b038381166001600160a01b0319831681179093556040519116919082907f8be0079c531659141344cd1fd0a4f28419497f9722a3daafe3b4186f6b6457e090600090a35050565b6004546001600160a01b031633146200014a5760405162461bcd60e51b815260206004820181905260248201527f4f776e61626c653a2063616c6c6572206973206e6f7420746865206f776e657260448201526064015b60405180910390fd5b6001600160a01b038116620001b15760405162461bcd60e51b815260206004820152602660248201527f4f776e61626c653a206e6577206f776e657220697320746865207a65726f206160448201526564647265737360d01b606482015260840162000141565b620001bc8162000098565b50565b828054620001cd90620003bf565b90600052602060002090601f016020900481019282620001f157600085556200023c565b82601f106200020c57805160ff19168380011785556200023c565b828001600101855582156200023c579182015b828111156200023c5782518255916020019190600101906200021f565b506200024a9291506200024e565b5090565b5b808211156200024a57600081556001016200024f565b634e487b7160e01b600052604160045260246000fd5b600082601f8301126200028d57600080fd5b81516001600160401b0380821115620002aa57620002aa62000265565b604051601f8301601f19908116603f01168101908282118183101715620002d557620002d562000265565b81604052838152602092508683858801011115620002f257600080fd5b600091505b83821015620003165785820183015181830184015290820190620002f7565b83821115620003285760008385830101525b9695505050505050565b6000806000606084860312156200034857600080fd5b83516001600160401b03808211156200036057600080fd5b6200036e878388016200027b565b945060208601519150808211156200038557600080fd5b5062000394868287016200027b565b604086015190935090506001600160a01b0381168114620003b457600080fd5b809150509250925092565b600181811c90821680620003d457607f821691505b60208210811415620003f657634e487b7160e01b600052602260045260246000fd5b50919050565b61087f806200040c6000396000f3fe608060405234801561001057600080fd5b50600436106100935760003560e01c8063715018a611610066578063715018a6146101215780638da5cb5b1461012b57806395d89b411461013c578063c87b56dd14610144578063f2fde38b1461015757600080fd5b806301ffc9a71461009857806306fdde03146100c05780636352211e146100d55780636a62784214610100575b600080fd5b6100ab6100a63660046106ce565b61016a565b60405190151581526020015b60405180910390f35b6100c86101bc565b6040516100b791906106ff565b6100e86100e3366004610754565b61024e565b6040516001600160a01b0390911681526020016100b7565b61011361010e36600461076d565b6102b8565b6040519081526020016100b7565b610129610324565b005b6004546001600160a01b03166100e8565b6100c861035a565b6100c8610152366004610754565b610369565b61012961016536600461076d565b61046e565b60006001600160e01b03198216635b5e139f60e01b148061019b57506001600160e01b031982166331a9108f60e11b145b806101b657506301ffc9a760e01b6001600160e01b03198316145b92915050565b6060600080546101cb90610796565b80601f01602080910402602001604051908101604052809291908181526020018280546101f790610796565b80156102445780601f1061021957610100808354040283529160200191610244565b820191906000526020600020905b81548152906001019060200180831161022757829003601f168201915b5050505050905090565b6000818152600260205260408120546001600160a01b0316806101b65760405162461bcd60e51b815260206004820152601c60248201527f6f776e65724f663a20746f6b656e20646f65736e27742065786973740000000060448201526064015b60405180910390fd5b6004546000906001600160a01b031633146102e55760405162461bcd60e51b81526004016102af906107d1565b60006102f060055490565b9050610315838260405180608001604052806043815260200161080760439139610509565b506101b6600580546001019055565b6004546001600160a01b0316331461034e5760405162461bcd60e51b81526004016102af906107d1565b61035860006105e3565b565b6060600180546101cb90610796565b6000818152600260205260409020546060906001600160a01b03166103d05760405162461bcd60e51b815260206004820152601d60248201527f746f6b656e5552493a20746f6b656e20646f65736e277420657869737400000060448201526064016102af565b600082815260036020526040902080546103e990610796565b80601f016020809104026020016040519081016040528092919081815260200182805461041590610796565b80156104625780601f1061043757610100808354040283529160200191610462565b820191906000526020600020905b81548152906001019060200180831161044557829003601f168201915b50505050509050919050565b6004546001600160a01b031633146104985760405162461bcd60e51b81526004016102af906107d1565b6001600160a01b0381166104fd5760405162461bcd60e51b815260206004820152602660248201527f4f776e61626c653a206e6577206f776e657220697320746865207a65726f206160448201526564647265737360d01b60648201526084016102af565b610506816105e3565b50565b6000828152600260205260408120546001600160a01b0316156105655760405162461bcd60e51b81526020600482015260146024820152736d696e743a20746f6b656e49442065786973747360601b60448201526064016102af565b600083815260026020908152604080832080546001600160a01b0319166001600160a01b0389161790556003825290912083516105a492850190610635565b5060405183906001600160a01b038616907fe9274a84b19e9428826de6bae8c48329354f8f0e73f771b97cae2d9dccd45a2790600090a3509092915050565b600480546001600160a01b038381166001600160a01b0319831681179093556040519116919082907f8be0079c531659141344cd1fd0a4f28419497f9722a3daafe3b4186f6b6457e090600090a35050565b82805461064190610796565b90600052602060002090601f01602090048101928261066357600085556106a9565b82601f1061067c57805160ff19168380011785556106a9565b828001600101855582156106a9579182015b828111156106a957825182559160200191906001019061068e565b506106b59291506106b9565b5090565b5b808211156106b557600081556001016106ba565b6000602082840312156106e057600080fd5b81356001600160e01b0319811681146106f857600080fd5b9392505050565b600060208083528351808285015260005b8181101561072c57858101830151858201604001528201610710565b8181111561073e576000604083870101525b50601f01601f1916929092016040019392505050565b60006020828403121561076657600080fd5b5035919050565b60006020828403121561077f57600080fd5b81356001600160a01b03811681146106f857600080fd5b600181811c908216806107aa57607f821691505b602082108114156107cb57634e487b7160e01b600052602260045260246000fd5b50919050565b6020808252818101527f4f776e61626c653a2063616c6c6572206973206e6f7420746865206f776e657260408201526060019056fe68747470733a2f2f697066732e696f2f697066732f516d646f5561597a4b434d556d6548343733616d594a4e7946724c31613667746363513572597371716548427343a2646970667358221220b6c9547a1c305c237e739aad51b25b7311767c9aa9b94188c36df73b6c1bcc2264736f6c634300080a0033",
    "linkReferences": {}
  },
  "methodIdentifiers": {
    "mint(address)": "6a627842",
    "name()": "06fdde03",
    "owner()": "8da5cb5b",
    "ownerOf(uint256)": "6352211e",
    "renounceOwnership()": "715018a6",
    "supportsInterface(bytes4)": "01ffc9a7",
    "symbol()": "95d89b41",
    "tokenURI(uint256)": "c87b56dd",
    "transferOwnership(address)": "f2fde38b"
  },
  "id": 19
}