{
  "abi": [
    {
      "inputs": [],
      "stateMutability": "nonpayable",
      "type": "constructor"
    },
    {
      "anonymous": false,
      "inputs": [
        {
          "indexed": false,
          "internalType": "address",
          "name": "previousAdmin",
          "type": "address"
        },
        {
          "indexed": false,
          "internalType": "address",
          "name": "newAdmin",
          "type": "address"
        }
      ],
      "name": "AdminChanged",
      "type": "event"
    },
    {
      "anonymous": false,
      "inputs": [
        {
          "indexed": true,
          "internalType": "uint256",
          "name": "tokenId",
          "type": "uint256"
        },
        {
          "indexed": true,
          "internalType": "address",
          "name": "from",
          "type": "address"
        }
      ],
      "name": "BadgeReinstated",
      "type": "event"
    },
    {
      "anonymous": false,
      "inputs": [
        {
          "indexed": true,
          "internalType": "uint256",
          "name": "tokenId",
          "type": "uint256"
        },
        {
          "indexed": true,
          "internalType": "address",
          "name": "from",
          "type": "address"
        },
        {
          "indexed": true,
          "internalType": "uint8",
          "name": "reason",
          "type": "uint8"
        }
      ],
      "name": "BadgeRevoked",
      "type": "event"
    },
    {
      "anonymous": false,
      "inputs": [
        {
          "indexed": true,
          "internalType": "address",
          "name": "beacon",
          "type": "address"
        }
      ],
      "name": "BeaconUpgraded",
      "type": "event"
    },
    {
      "anonymous": false,
      "inputs": [
        {
          "indexed": false,
          "internalType": "uint8",
          "name": "version",
          "type": "uint8"
        }
      ],
      "name": "Initialized",
      "type": "event"
    },
    {
      "anonymous": false,
      "inputs": [
        {
          "indexed": true,
          "internalType": "address",
          "name": "previousOwner",
          "type": "address"
        },
        {
          "indexed": true,
          "internalType": "address",
          "name": "newOwner",
          "type": "address"
        }
      ],
      "name": "OwnershipTransferred",
      "type": "event"
    },
    {
      "anonymous": false,
      "inputs": [
        {
          "indexed": false,
          "internalType": "string[]",
          "name": "specUris",
          "type": "string[]"
        },
        {
          "indexed": false,
          "internalType": "address",
          "name": "sender",
          "type": "address"
        }
      ],
      "name": "RefreshMetadata",
      "type": "event"
    },
    {
      "anonymous": false,
      "inputs": [
        {
          "indexed": true,
          "internalType": "address",
          "name": "to",
          "type": "address"
        },
        {
          "indexed": false,
          "internalType": "string",
          "name": "specUri",
          "type": "string"
        },
        {
          "indexed": true,
          "internalType": "uint256",
          "name": "raftTokenId",
          "type": "uint256"
        },
        {
          "indexed": true,
          "internalType": "address",
          "name": "raftAddress",
          "type": "address"
        }
      ],
      "name": "SpecCreated",
      "type": "event"
    },
    {
      "anonymous": false,
      "inputs": [
        {
          "indexed": true,
          "internalType": "address",
          "name": "from",
          "type": "address"
        },
        {
          "indexed": true,
          "internalType": "address",
          "name": "to",
          "type": "address"
        },
        {
          "indexed": true,
          "internalType": "uint256",
          "name": "tokenId",
          "type": "uint256"
        }
      ],
      "name": "Transfer",
      "type": "event"
    },
    {
      "anonymous": false,
      "inputs": [
        {
          "indexed": true,
          "internalType": "address",
          "name": "implementation",
          "type": "address"
        }
      ],
      "name": "Upgraded",
      "type": "event"
    },
    {
      "inputs": [
        {
          "internalType": "address[]",
          "name": "_recipients",
          "type": "address[]"
        },
        {
          "internalType": "string",
          "name": "_uri",
          "type": "string"
        }
      ],
      "name": "airdrop",
      "outputs": [],
      "stateMutability": "nonpayable",
      "type": "function"
    },
    {
      "inputs": [
        {
          "internalType": "address",
          "name": "_recipient",
          "type": "address"
        },
        {
          "internalType": "string",
          "name": "_uri",
          "type": "string"
        },
        {
          "internalType": "bytes",
          "name": "_issuerSignature",
          "type": "bytes"
        },
        {
          "internalType": "bytes",
          "name": "_recipientSignature",
          "type": "bytes"
        }
      ],
      "name": "airdropWithConsent",
      "outputs": [],
      "stateMutability": "nonpayable",
      "type": "function"
    },
    {
      "inputs": [
        {
          "internalType": "address",
          "name": "_owner",
          "type": "address"
        }
      ],
      "name": "balanceOf",
      "outputs": [
        {
          "internalType": "uint256",
          "name": "",
          "type": "uint256"
        }
      ],
      "stateMutability": "view",
      "type": "function"
    },
    {
      "inputs": [
        {
          "internalType": "string",
          "name": "_specUri",
          "type": "string"
        },
        {
          "internalType": "uint256",
          "name": "_raftTokenId",
          "type": "uint256"
        }
      ],
      "name": "createSpec",
      "outputs": [],
      "stateMutability": "nonpayable",
      "type": "function"
    },
    {
      "inputs": [
        {
          "internalType": "address",
          "name": "_from",
          "type": "address"
        },
        {
          "internalType": "address",
          "name": "_to",
          "type": "address"
        },
        {
          "internalType": "string",
          "name": "_uri",
          "type": "string"
        }
      ],
      "name": "getAgreementHash",
      "outputs": [
        {
          "internalType": "bytes32",
          "name": "",
          "type": "bytes32"
        }
      ],
      "stateMutability": "view",
      "type": "function"
    },
    {
      "inputs": [
        {
          "internalType": "address",
          "name": "issuer",
          "type": "address"
        },
        {
          "internalType": "address",
          "name": "recipient",
          "type": "address"
        },
        {
          "internalType": "string",
          "name": "uri",
          "type": "string"
        }
      ],
      "name": "getAirdropAgreementHash",
      "outputs": [
        {
          "internalType": "bytes32",
          "name": "",
          "type": "bytes32"
        }
      ],
      "stateMutability": "view",
      "type": "function"
    },
    {
      "inputs": [
        {
          "internalType": "address",
          "name": "_to",
          "type": "address"
        },
        {
          "internalType": "string",
          "name": "_uri",
          "type": "string"
        }
      ],
      "name": "getBadgeIdHash",
      "outputs": [
        {
          "internalType": "bytes32",
          "name": "",
          "type": "bytes32"
        }
      ],
      "stateMutability": "view",
      "type": "function"
    },
    {
      "inputs": [],
      "name": "getDataHolderAddress",
      "outputs": [
        {
          "internalType": "address",
          "name": "",
          "type": "address"
        }
      ],
      "stateMutability": "view",
      "type": "function"
    },
    {
      "inputs": [
        {
          "internalType": "address",
          "name": "_issuer",
          "type": "address"
        },
        {
          "internalType": "string",
          "name": "_uri",
          "type": "string"
        },
        {
          "internalType": "bytes32",
          "name": "_root",
          "type": "bytes32"
        }
      ],
      "name": "getMerkleAgreementHash",
      "outputs": [
        {
          "internalType": "bytes32",
          "name": "",
          "type": "bytes32"
        }
      ],
      "stateMutability": "view",
      "type": "function"
    },
    {
      "inputs": [
        {
          "internalType": "address",
          "name": "_requester",
          "type": "address"
        },
        {
          "internalType": "string",
          "name": "_uri",
          "type": "string"
        }
      ],
      "name": "getRequestHash",
      "outputs": [
        {
          "internalType": "bytes32",
          "name": "",
          "type": "bytes32"
        }
      ],
      "stateMutability": "view",
      "type": "function"
    },
    {
      "inputs": [
        {
          "internalType": "address",
          "name": "_to",
          "type": "address"
        },
        {
          "internalType": "string",
          "name": "_uri",
          "type": "string"
        },
        {
          "internalType": "bytes",
          "name": "_signature",
          "type": "bytes"
        }
      ],
      "name": "give",
      "outputs": [
        {
          "internalType": "uint256",
          "name": "",
          "type": "uint256"
        }
      ],
      "stateMutability": "nonpayable",
      "type": "function"
    },
    {
      "inputs": [
        {
          "internalType": "address",
          "name": "_to",
          "type": "address"
        },
        {
          "internalType": "string",
          "name": "_uri",
          "type": "string"
        },
        {
          "internalType": "bytes",
          "name": "_signature",
          "type": "bytes"
        }
      ],
      "name": "giveRequestedBadge",
      "outputs": [
        {
          "internalType": "uint256",
          "name": "",
          "type": "uint256"
        }
      ],
      "stateMutability": "nonpayable",
      "type": "function"
    },
    {
      "inputs": [
        {
          "internalType": "address[]",
          "name": "_recipients",
          "type": "address[]"
        },
        {
          "internalType": "string",
          "name": "_uri",
          "type": "string"
        },
        {
          "internalType": "bytes[]",
          "name": "_signatures",
          "type": "bytes[]"
        }
      ],
      "name": "giveRequestedBadgeToMany",
      "outputs": [],
      "stateMutability": "nonpayable",
      "type": "function"
    },
    {
      "inputs": [
        {
          "internalType": "address[]",
          "name": "_recipients",
          "type": "address[]"
        },
        {
          "internalType": "string",
          "name": "_uri",
          "type": "string"
        },
        {
          "internalType": "bytes[]",
          "name": "_signatures",
          "type": "bytes[]"
        }
      ],
      "name": "giveToMany",
      "outputs": [],
      "stateMutability": "nonpayable",
      "type": "function"
    },
    {
      "inputs": [
        {
          "internalType": "string",
          "name": "_name",
          "type": "string"
        },
        {
          "internalType": "string",
          "name": "_symbol",
          "type": "string"
        },
        {
          "internalType": "string",
          "name": "_version",
          "type": "string"
        },
        {
          "internalType": "address",
          "name": "_nextOwner",
          "type": "address"
        },
        {
          "internalType": "address",
          "name": "_specDataHolderAddress",
          "type": "address"
        }
      ],
      "name": "initialize",
      "outputs": [],
      "stateMutability": "nonpayable",
      "type": "function"
    },
    {
      "inputs": [
        {
          "internalType": "uint256",
          "name": "_badgeId",
          "type": "uint256"
        }
      ],
      "name": "isBadgeValid",
      "outputs": [
        {
          "internalType": "bool",
          "name": "",
          "type": "bool"
        }
      ],
      "stateMutability": "view",
      "type": "function"
    },
    {
      "inputs": [
        {
          "internalType": "address",
          "name": "_from",
          "type": "address"
        },
        {
          "internalType": "string",
          "name": "_uri",
          "type": "string"
        },
        {
          "internalType": "bytes",
          "name": "_signature",
          "type": "bytes"
        },
        {
          "internalType": "bytes32",
          "name": "root",
          "type": "bytes32"
        },
        {
          "internalType": "bytes32[]",
          "name": "proof",
          "type": "bytes32[]"
        }
      ],
      "name": "merkleTake",
      "outputs": [
        {
          "internalType": "uint256",
          "name": "",
          "type": "uint256"
        }
      ],
      "stateMutability": "nonpayable",
      "type": "function"
    },
    {
      "inputs": [],
      "name": "name",
      "outputs": [
        {
          "internalType": "string",
          "name": "",
          "type": "string"
        }
      ],
      "stateMutability": "view",
      "type": "function"
    },
    {
      "inputs": [],
      "name": "owner",
      "outputs": [
        {
          "internalType": "address",
          "name": "",
          "type": "address"
        }
      ],
      "stateMutability": "view",
      "type": "function"
    },
    {
      "inputs": [
        {
          "internalType": "uint256",
          "name": "_tokenId",
          "type": "uint256"
        }
      ],
      "name": "ownerOf",
      "outputs": [
        {
          "internalType": "address",
          "name": "",
          "type": "address"
        }
      ],
      "stateMutability": "view",
      "type": "function"
    },
    {
      "inputs": [],
      "name": "proxiableUUID",
      "outputs": [
        {
          "internalType": "bytes32",
          "name": "",
          "type": "bytes32"
        }
      ],
      "stateMutability": "view",
      "type": "function"
    },
    {
      "inputs": [
        {
          "internalType": "string[]",
          "name": "_specUris",
          "type": "string[]"
        }
      ],
      "name": "refreshMetadata",
      "outputs": [],
      "stateMutability": "nonpayable",
      "type": "function"
    },
    {
      "inputs": [
        {
          "internalType": "uint256",
          "name": "_raftTokenId",
          "type": "uint256"
        },
        {
          "internalType": "uint256",
          "name": "_badgeId",
          "type": "uint256"
        }
      ],
      "name": "reinstateBadge",
      "outputs": [],
      "stateMutability": "nonpayable",
      "type": "function"
    },
    {
      "inputs": [],
      "name": "renounceOwnership",
      "outputs": [],
      "stateMutability": "nonpayable",
      "type": "function"
    },
    {
      "inputs": [
        {
          "internalType": "uint256",
          "name": "_raftTokenId",
          "type": "uint256"
        },
        {
          "internalType": "uint256",
          "name": "_badgeId",
          "type": "uint256"
        },
        {
          "internalType": "uint8",
          "name": "_reason",
          "type": "uint8"
        }
      ],
      "name": "revokeBadge",
      "outputs": [],
      "stateMutability": "nonpayable",
      "type": "function"
    },
    {
      "inputs": [
        {
          "internalType": "address",
          "name": "_dataHolder",
          "type": "address"
        }
      ],
      "name": "setDataHolder",
      "outputs": [],
      "stateMutability": "nonpayable",
      "type": "function"
    },
    {
      "inputs": [
        {
          "internalType": "bytes4",
          "name": "_interfaceId",
          "type": "bytes4"
        }
      ],
      "name": "supportsInterface",
      "outputs": [
        {
          "internalType": "bool",
          "name": "",
          "type": "bool"
        }
      ],
      "stateMutability": "view",
      "type": "function"
    },
    {
      "inputs": [],
      "name": "symbol",
      "outputs": [
        {
          "internalType": "string",
          "name": "",
          "type": "string"
        }
      ],
      "stateMutability": "view",
      "type": "function"
    },
    {
      "inputs": [
        {
          "internalType": "address",
          "name": "_from",
          "type": "address"
        },
        {
          "internalType": "string",
          "name": "_uri",
          "type": "string"
        },
        {
          "internalType": "bytes",
          "name": "_signature",
          "type": "bytes"
        }
      ],
      "name": "take",
      "outputs": [
        {
          "internalType": "uint256",
          "name": "",
          "type": "uint256"
        }
      ],
      "stateMutability": "nonpayable",
      "type": "function"
    },
    {
      "inputs": [
        {
          "internalType": "uint256",
          "name": "_tokenId",
          "type": "uint256"
        }
      ],
      "name": "tokenURI",
      "outputs": [
        {
          "internalType": "string",
          "name": "",
          "type": "string"
        }
      ],
      "stateMutability": "view",
      "type": "function"
    },
    {
      "inputs": [
        {
          "internalType": "address",
          "name": "newOwner",
          "type": "address"
        }
      ],
      "name": "transferOwnership",
      "outputs": [],
      "stateMutability": "nonpayable",
      "type": "function"
    },
    {
      "inputs": [
        {
          "internalType": "uint256",
          "name": "_tokenId",
          "type": "uint256"
        }
      ],
      "name": "unequip",
      "outputs": [],
      "stateMutability": "nonpayable",
      "type": "function"
    },
    {
      "inputs": [
        {
          "internalType": "address",
          "name": "newImplementation",
          "type": "address"
        }
      ],
      "name": "upgradeTo",
      "outputs": [],
      "stateMutability": "nonpayable",
      "type": "function"
    },
    {
      "inputs": [
        {
          "internalType": "address",
          "name": "newImplementation",
          "type": "address"
        },
        {
          "internalType": "bytes",
          "name": "data",
          "type": "bytes"
        }
      ],
      "name": "upgradeToAndCall",
      "outputs": [],
      "stateMutability": "payable",
      "type": "function"
    }
  ],
  "bytecode": {
    "object": "0x60a0604052306080523480156200001557600080fd5b506200002062000026565b620000e8565b600054610100900460ff1615620000935760405162461bcd60e51b815260206004820152602760248201527f496e697469616c697a61626c653a20636f6e747261637420697320696e697469604482015266616c697a696e6760c81b606482015260840160405180910390fd5b60005460ff9081161015620000e6576000805460ff191660ff9081179091556040519081527f7f26b83ff96e1f2b6a682f133852f6798a09c465da95921460cefb38474024989060200160405180910390a15b565b6080516143c76200012060003960008181610b7301528181610bb30152818161143401528181611474015261150701526143c76000f3fe6080604052600436106101f95760003560e01c80637c402f8d1161010d578063bd6645e4116100a0578063d179e3d01161006f578063d179e3d0146105ac578063d6d0faee146105cc578063e4992506146105ec578063ec64948e1461060c578063f2fde38b1461062c57600080fd5b8063bd6645e41461052c578063bdbdbcbf1461054c578063c01841121461056c578063c87b56dd1461058c57600080fd5b806395d89b41116100dc57806395d89b41146104b7578063a32c9c7a146104cc578063a3947803146104ec578063a8cf86831461050c57600080fd5b80637c402f8d1461043957806380956c7e146104595780638339a133146104795780638da5cb5b1461049957600080fd5b8063445a62b91161019057806352d1902d1161015f57806352d1902d146103985780636352211e146103ad578063635ad993146103e557806370a0823114610404578063715018a61461042457600080fd5b8063445a62b9146103255780634a086b53146103455780634a50b376146103655780634f1ef2861461038557600080fd5b8063271fab42116101cc578063271fab42146102a357806330c5098d146102c35780633659cfe6146102e557806339ae37c01461030557600080fd5b806301ffc9a7146101fe57806306fdde03146102335780630f4d9b01146102555780631766c03814610275575b600080fd5b34801561020a57600080fd5b5061021e610219366004613506565b61064c565b60405190151581526020015b60405180910390f35b34801561023f57600080fd5b5061024861069e565b60405161022a9190613580565b34801561026157600080fd5b5061021e610270366004613593565b610731565b34801561028157600080fd5b50610295610290366004613602565b610798565b60405190815260200161022a565b3480156102af57600080fd5b506102956102be366004613721565b6108eb565b3480156102cf57600080fd5b506102e36102de366004613796565b610973565b005b3480156102f157600080fd5b506102e3610300366004613842565b610b69565b34801561031157600080fd5b506102e36103203660046138a3565b610c48565b34801561033157600080fd5b506102e361034036600461390e565b610dce565b34801561035157600080fd5b50610295610360366004613959565b61108c565b34801561037157600080fd5b506102e3610380366004613a0e565b6111f2565b6102e3610393366004613b01565b61142a565b3480156103a457600080fd5b506102956114fa565b3480156103b957600080fd5b506103cd6103c8366004613593565b6115ad565b6040516001600160a01b03909116815260200161022a565b3480156103f157600080fd5b50610135546001600160a01b03166103cd565b34801561041057600080fd5b5061029561041f366004613842565b611602565b34801561043057600080fd5b506102e361168a565b34801561044557600080fd5b506102e3610454366004613b64565b61169e565b34801561046557600080fd5b506102e3610474366004613ba3565b611862565b34801561048557600080fd5b50610295610494366004613bc5565b611a1c565b3480156104a557600080fd5b5060c9546001600160a01b03166103cd565b3480156104c357600080fd5b50610248611a84565b3480156104d857600080fd5b506102e36104e7366004613c19565b611a94565b3480156104f857600080fd5b50610295610507366004613602565b611cb5565b34801561051857600080fd5b50610295610527366004613bc5565b611dff565b34801561053857600080fd5b50610295610547366004613cb2565b611e35565b34801561055857600080fd5b506102e3610567366004613d0d565b611eaf565b34801561057857600080fd5b506102e3610587366004613842565b611f52565b34801561059857600080fd5b506102486105a7366004613593565b611f7d565b3480156105b857600080fd5b506102e36105c7366004613593565b612084565b3480156105d857600080fd5b506102e36105e7366004613d4e565b61212b565b3480156105f857600080fd5b50610295610607366004613e0d565b612309565b34801561061857600080fd5b50610295610627366004613602565b612379565b34801561063857600080fd5b506102e3610647366004613842565b6124b6565b60006001600160e01b03198216635b5e139f60e01b148061067d57506001600160e01b031982166346bdd63960e11b145b8061069857506301ffc9a760e01b6001600160e01b03198316145b92915050565b606061013080546106ae90613e65565b80601f01602080910402602001604051908101604052809291908181526020018280546106da90613e65565b80156107275780601f106106fc57610100808354040283529160200191610727565b820191906000526020600020905b81548152906001019060200180831161070a57829003601f168201915b5050505050905090565b6000818152610132602052604081205482906001600160a01b03166107715760405162461bcd60e51b815260040161076890613e99565b60405180910390fd5b600883901c60009081526101376020526040902054600160ff85161b161591505b50919050565b61013554604051633664a8e960e01b815260009182916001600160a01b0390911690633664a8e9906107d09089908990600401613ef7565b602060405180830381865afa1580156107ed573d6000803e3d6000fd5b505050506040513d601f19601f820116820180604052508101906108119190613f0b565b6101355460405163e3ee9c4d60e01b8152600481018390523360248201529192506001600160a01b03169063e3ee9c4d90604401602060405180830381865afa158015610862573d6000803e3d6000fd5b505050506040513d601f19601f820116820180604052508101906108869190613f24565b6108d25760405162461bcd60e51b815260206004820181905260248201527f6769766552657175657374656442616467653a20756e617574686f72697a65646044820152606401610768565b6108e087878787878661252c565b979650505050505050565b60006109697f41c7d0ec1251a733641afa3f4349a62163c52091dfe38e620f8bb284647ad4508585858051906020012060405160200161094e94939291909384526001600160a01b03928316602085015291166040830152606082015260800190565b604051602081830303815290604052805190602001206125df565b90505b9392505050565b61013554604051633664a8e960e01b81526000916001600160a01b031690633664a8e9906109a7908a908a90600401613ef7565b602060405180830381865afa1580156109c4573d6000803e3d6000fd5b505050506040513d601f19601f820116820180604052508101906109e89190613f0b565b6101355460405163e3ee9c4d60e01b8152600481018390523360248201529192506001600160a01b03169063e3ee9c4d90604401602060405180830381865afa158015610a39573d6000803e3d6000fd5b505050506040513d601f19601f82011682018060405250810190610a5d9190613f24565b610aa95760405162461bcd60e51b815260206004820181905260248201527f61697264726f7057697468436f6e73656e743a20756e617574686f72697a65646044820152606401610768565b610b52338989898080601f01602080910402602001604051908101604052809392919081815260200183838082843760009201919091525050604080516020601f8d018190048102820181019092528b815292508b91508a908190840183828082843760009201919091525050604080516020601f8c018190048102820181019092528a815292508a915089908190840183828082843760009201919091525061262d92505050565b610b5e88888884612725565b505050505050505050565b6001600160a01b037f0000000000000000000000000000000000000000000000000000000000000000163003610bb15760405162461bcd60e51b815260040161076890613f46565b7f00000000000000000000000000000000000000000000000000000000000000006001600160a01b0316610bfa60008051602061434b833981519152546001600160a01b031690565b6001600160a01b031614610c205760405162461bcd60e51b815260040161076890613f92565b610c29816128a4565b60408051600080825260208201909252610c45918391906128ac565b50565b61013554604051633664a8e960e01b81526000916001600160a01b031690633664a8e990610c7c9086908690600401613ef7565b602060405180830381865afa158015610c99573d6000803e3d6000fd5b505050506040513d601f19601f82011682018060405250810190610cbd9190613f0b565b6101355460405163e3ee9c4d60e01b8152600481018390523360248201529192506001600160a01b03169063e3ee9c4d90604401602060405180830381865afa158015610d0e573d6000803e3d6000fd5b505050506040513d601f19601f82011682018060405250810190610d329190613f24565b610d765760405162461bcd60e51b8152602060048201526015602482015274185a5c991c9bdc0e881d5b985d5d1a1bdc9a5e9959605a1b6044820152606401610768565b60005b84811015610dc657610db3868683818110610d9657610d96613fde565b9050602002016020810190610dab9190613842565b858585612725565b5080610dbe8161400a565b915050610d79565b505050505050565b6101355460405163e3ee9c4d60e01b8152600481018390523360248201526001600160a01b039091169063e3ee9c4d90604401602060405180830381865afa158015610e1e573d6000803e3d6000fd5b505050506040513d601f19601f82011682018060405250810190610e429190613f24565b610e8e5760405162461bcd60e51b815260206004820152601860248201527f637265617465537065633a20756e617574686f72697a656400000000000000006044820152606401610768565b61013554604051637e07102760e11b81526001600160a01b039091169063fc0e204e90610ec19086908690600401613ef7565b602060405180830381865afa158015610ede573d6000803e3d6000fd5b505050506040513d601f19601f82011682018060405250810190610f029190613f24565b15610f5b5760405162461bcd60e51b815260206004820152602360248201527f637265617465537065633a207370656320616c726561647920726567697374656044820152621c995960ea1b6064820152608401610768565b6101355460405163addd190760e01b81526001600160a01b039091169063addd190790610f9090869086908690600401614023565b600060405180830381600087803b158015610faa57600080fd5b505af1158015610fbe573d6000803e3d6000fd5b5050505061013560009054906101000a90046001600160a01b03166001600160a01b03166334f876626040518163ffffffff1660e01b8152600401602060405180830381865afa158015611016573d6000803e3d6000fd5b505050506040513d601f19601f8201168201806040525081019061103a9190614047565b6001600160a01b031681336001600160a01b03167f68c7f8503283c455a4445b54a7d5c40656c8cae5cca0583c6d4be83698478700868660405161107f929190613ef7565b60405180910390a4505050565b600061109f89338a8a8a8a8a8a8a612a1c565b61013554604051633664a8e960e01b81526000916001600160a01b031690633664a8e9906110d3908c908c90600401613ef7565b602060405180830381865afa1580156110f0573d6000803e3d6000fd5b505050506040513d601f19601f820116820180604052508101906111149190613f0b565b6101355460405163e3ee9c4d60e01b8152600481018390526001600160a01b038d8116602483015292935091169063e3ee9c4d90604401602060405180830381865afa158015611168573d6000803e3d6000fd5b505050506040513d601f19601f8201168201806040525081019061118c9190613f24565b6111d85760405162461bcd60e51b815260206004820152601860248201527f6d65726b6c6554616b653a20756e617574686f72697a656400000000000000006044820152606401610768565b6111e4338a8a84612725565b9a9950505050505050505050565b845181146112745760405162461bcd60e51b815260206004820152604360248201527f676976655265717565737465644261646765546f4d616e793a2072656369706960448201527f656e747320616e64207369676e617475726573206c656e677468206d69736d616064820152620e8c6d60eb1b608482015260a401610768565b61013554604051633664a8e960e01b81526000916001600160a01b031690633664a8e9906112a89088908890600401613ef7565b602060405180830381865afa1580156112c5573d6000803e3d6000fd5b505050506040513d601f19601f820116820180604052508101906112e99190613f0b565b6101355460405163e3ee9c4d60e01b8152600481018390523360248201529192506001600160a01b03169063e3ee9c4d90604401602060405180830381865afa15801561133a573d6000803e3d6000fd5b505050506040513d601f19601f8201168201806040525081019061135e9190613f24565b6113b95760405162461bcd60e51b815260206004820152602660248201527f676976655265717565737465644261646765546f4d616e793a20756e617574686044820152651bdc9a5e995960d21b6064820152608401610768565b60005b86518110156114215761140e8782815181106113da576113da613fde565b602002602001015187878787868181106113f6576113f6613fde565b90506020028101906114089190614064565b8761252c565b50806114198161400a565b9150506113bc565b50505050505050565b6001600160a01b037f00000000000000000000000000000000000000000000000000000000000000001630036114725760405162461bcd60e51b815260040161076890613f46565b7f00000000000000000000000000000000000000000000000000000000000000006001600160a01b03166114bb60008051602061434b833981519152546001600160a01b031690565b6001600160a01b0316146114e15760405162461bcd60e51b815260040161076890613f92565b6114ea826128a4565b6114f6828260016128ac565b5050565b6000306001600160a01b037f0000000000000000000000000000000000000000000000000000000000000000161461159a5760405162461bcd60e51b815260206004820152603860248201527f555550535570677261646561626c653a206d757374206e6f742062652063616c60448201527f6c6564207468726f7567682064656c656761746563616c6c00000000000000006064820152608401610768565b5060008051602061434b83398151915290565b6000818152610132602052604081205482906001600160a01b03166115e45760405162461bcd60e51b815260040161076890613e99565b5050600090815261013260205260409020546001600160a01b031690565b60006001600160a01b03821661166d5760405162461bcd60e51b815260206004820152602a60248201527f62616c616e63654f663a2061646472657373283029206973206e6f742061207660448201526930b634b21037bbb732b960b11b6064820152608401610768565b506001600160a01b03166000908152610134602052604090205490565b611692612ba9565b61169c6000612c03565b565b6000828152610132602052604090205482906001600160a01b03166116d55760405162461bcd60e51b815260040161076890613e99565b6101355460405163e3ee9c4d60e01b8152600481018690523360248201526001600160a01b039091169063e3ee9c4d90604401602060405180830381865afa158015611725573d6000803e3d6000fd5b505050506040513d601f19601f820116820180604052508101906117499190613f24565b6117955760405162461bcd60e51b815260206004820152601960248201527f7265766f6b6542616467653a20756e617574686f72697a6564000000000000006044820152606401610768565b600883901c60009081526101376020526040902054600160ff85161b161561180a5760405162461bcd60e51b815260206004820152602260248201527f7265766f6b6542616467653a20626164676520616c7265616479207265766f6b604482015261195960f21b6064820152608401610768565b600883901c6000908152610137602052604090208054600160ff86161b17905560405160ff831690339085907ffa784c48260e8db512de5f055a2f29eced211a7b3bd6338058b095ada7354cee90600090a450505050565b6000818152610132602052604090205481906001600160a01b03166118995760405162461bcd60e51b815260040161076890613e99565b6101355460405163e3ee9c4d60e01b8152600481018590523360248201526001600160a01b039091169063e3ee9c4d90604401602060405180830381865afa1580156118e9573d6000803e3d6000fd5b505050506040513d601f19601f8201168201806040525081019061190d9190613f24565b6119595760405162461bcd60e51b815260206004820152601c60248201527f7265696e737461746542616467653a20756e617574686f72697a6564000000006044820152606401610768565b600882901c60009081526101376020526040902054600160ff84161b166119cc5760405162461bcd60e51b815260206004820152602160248201527f7265696e737461746542616467653a206261646765206e6f74207265766f6b656044820152601960fa1b6064820152608401610768565b600882901c600090815261013760205260408082208054600160ff87161b1916905551339184917f7f8cf9ecf2a5225948f8a1601709cedc8471c52ee75a8174c9845c29c99ed9a29190a3505050565b60006109697fa1cd8d39eb877323a4bcf08188675058ee9a4534d4c79021300b3722aeda505d858585604051611a539291906140aa565b60405190819003812061094e9392916020019283526001600160a01b03919091166020830152604082015260600190565b606061013180546106ae90613e65565b848114611b015760405162461bcd60e51b815260206004820152603560248201527f67697665546f4d616e793a20726563697069656e747320616e64207369676e616044820152740e8eae4cae640d8cadccee8d040dad2e6dac2e8c6d605b1b6064820152608401610768565b61013554604051633664a8e960e01b81526000916001600160a01b031690633664a8e990611b359088908890600401613ef7565b602060405180830381865afa158015611b52573d6000803e3d6000fd5b505050506040513d601f19601f82011682018060405250810190611b769190613f0b565b6101355460405163e3ee9c4d60e01b8152600481018390523360248201529192506001600160a01b03169063e3ee9c4d90604401602060405180830381865afa158015611bc7573d6000803e3d6000fd5b505050506040513d601f19601f82011682018060405250810190611beb9190613f24565b611c375760405162461bcd60e51b815260206004820152601860248201527f67697665546f4d616e793a20756e617574686f72697a656400000000000000006044820152606401610768565b60005b86811015611cab57611c98888883818110611c5757611c57613fde565b9050602002016020810190611c6c9190613842565b8787878786818110611c8057611c80613fde565b9050602002810190611c929190614064565b87612c55565b5080611ca38161400a565b915050611c3a565b5050505050505050565b6000611cc5338787878787612c61565b61013554604051633664a8e960e01b81526000916001600160a01b031690633664a8e990611cf99089908990600401613ef7565b602060405180830381865afa158015611d16573d6000803e3d6000fd5b505050506040513d601f19601f82011682018060405250810190611d3a9190613f0b565b6101355460405163e3ee9c4d60e01b8152600481018390526001600160a01b038a8116602483015292935091169063e3ee9c4d90604401602060405180830381865afa158015611d8e573d6000803e3d6000fd5b505050506040513d601f19601f82011682018060405250810190611db29190613f24565b611df35760405162461bcd60e51b81526020600482015260126024820152711d185ad94e881d5b985d5d1a1bdc9a5e995960721b6044820152606401610768565b6108e033878784612725565b6000838383604051602001611e16939291906140ba565b6040516020818303038152906040528051906020012090509392505050565b6000611ea47f6d0d990916a9f9c9e0896e59ce7f5ddddff333d0c8772438ce004fa7719b164b868686604051611e6c9291906140aa565b60405190819003812061094e93929187906020019384526001600160a01b039290921660208401526040830152606082015260800190565b90505b949350505050565b611eb7612ba9565b80611f135760405162461bcd60e51b815260206004820152602660248201527f726566726573684d657461646174613a206e6f207370656320757269732070726044820152651bdd9a59195960d21b6064820152608401610768565b7f2231d988b1a75dccab13dee3564b71a551900e822e94177a96f19561890c0fd5828233604051611f46939291906140df565b60405180910390a15050565b611f5a612ba9565b61013580546001600160a01b0319166001600160a01b0392909216919091179055565b600081815261013260205260409020546060906001600160a01b0316611fe55760405162461bcd60e51b815260206004820152601d60248201527f746f6b656e5552493a20746f6b656e20646f65736e27742065786973740000006044820152606401610768565b6000828152610133602052604090208054611fff90613e65565b80601f016020809104026020016040519081016040528092919081815260200182805461202b90613e65565b80156120785780601f1061204d57610100808354040283529160200191612078565b820191906000526020600020905b81548152906001019060200180831161205b57829003601f168201915b50505050509050919050565b6000818152610132602052604090205481906001600160a01b03166120bb5760405162461bcd60e51b815260040161076890613e99565b600082815261013260205260409020546001600160a01b031633146121225760405162461bcd60e51b815260206004820152601d60248201527f756e65717569703a2073656e646572206d757374206265206f776e65720000006044820152606401610768565b6114f682612d07565b600054610100900460ff161580801561214b5750600054600160ff909116105b806121655750303b158015612165575060005460ff166001145b6121c85760405162461bcd60e51b815260206004820152602e60248201527f496e697469616c697a61626c653a20636f6e747261637420697320616c72656160448201526d191e481a5b9a5d1a585b1a5e995960921b6064820152608401610768565b6000805460ff1916600117905580156121eb576000805461ff0019166101001790555b6101306121f9898b836141ce565b506101316122088789836141ce565b5061013580546001600160a01b0319166001600160a01b03841617905561222d612db2565b612235612dd9565b6122a889898080601f01602080910402602001604051908101604052809392919081815260200183838082843760009201919091525050604080516020601f8b018190048102820181019092528981529250899150889081908401838280828437600092019190915250612e0892505050565b6122b0612db2565b6122b9836124b6565b8015610b5e576000805461ff0019169055604051600181527f7f26b83ff96e1f2b6a682f133852f6798a09c465da95921460cefb38474024989060200160405180910390a1505050505050505050565b6000611ea47fe76a195fbe43f0eaa611595069f780493db2202a1cc4b2d7d44b47069812998a868686866040516123419291906140aa565b60405190819003812061094e949392916020019384526001600160a01b03928316602085015291166040830152606082015260800190565b61013554604051633664a8e960e01b815260009182916001600160a01b0390911690633664a8e9906123b19089908990600401613ef7565b602060405180830381865afa1580156123ce573d6000803e3d6000fd5b505050506040513d601f19601f820116820180604052508101906123f29190613f0b565b6101355460405163e3ee9c4d60e01b8152600481018390523360248201529192506001600160a01b03169063e3ee9c4d90604401602060405180830381865afa158015612443573d6000803e3d6000fd5b505050506040513d601f19601f820116820180604052508101906124679190613f24565b6124a85760405162461bcd60e51b815260206004820152601260248201527119da5d994e881d5b985d5d1a1bdc9a5e995960721b6044820152606401610768565b6108e0878787878786612c55565b6124be612ba9565b6001600160a01b0381166125235760405162461bcd60e51b815260206004820152602660248201527f4f776e61626c653a206e6577206f776e657220697320746865207a65726f206160448201526564647265737360d01b6064820152608401610768565b610c4581612c03565b60006125798761253d898989611a1c565b86868080601f016020809104026020016040519081016040528093929190818152602001838380828437600092019190915250612e3992505050565b6125d35760405162461bcd60e51b815260206004820152602560248201527f6769766552657175657374656442616467653a20696e76616c6964207369676e604482015264617475726560d81b6064820152608401610768565b6108e087878785612725565b60006106986125ec612f7b565b8360405161190160f01b6020820152602281018390526042810182905260009060620160405160208183030381529060405280519060200120905092915050565b600061263a8686866108eb565b9050612647868285612e39565b6126af5760405162461bcd60e51b815260206004820152603360248201527f73616665436865636b41697264726f7041677265656d656e743a20696e76616c604482015272696420697373756572207369676e617475726560681b6064820152608401610768565b6126ba858284612e39565b610dc65760405162461bcd60e51b815260206004820152603660248201527f73616665436865636b41697264726f7041677265656d656e743a20696e76616c604482015275696420726563697069656e74207369676e617475726560501b6064820152608401610768565b600080612733868686611dff565b600081815261013260205260409020549091506001600160a01b0316156127935760405162461bcd60e51b81526020600482015260146024820152736d696e743a20746f6b656e49442065786973747360601b6044820152606401610768565b6001600160a01b0386166000908152610134602052604081208054916127b88361400a565b909155505060008181526101326020908152604080832080546001600160a01b0319166001600160a01b038b1617905561013390915290206127fb8587836141ce565b5060405181906001600160a01b038816906000907fddf252ad1be2c89b69c2b068fc378daa952ba7f163c4a11628f55a4df523b3ef908290a46101355460405163fb74926160e01b815260048101839052602481018590526001600160a01b039091169063fb74926190604401600060405180830381600087803b15801561288257600080fd5b505af1158015612896573d6000803e3d6000fd5b509298975050505050505050565b610c45612ba9565b7f4910fdfa16fed3260ed0e7147f7cc6da11a60208b5b9406d12a635614ffd91435460ff16156128e4576128df83612fb7565b505050565b826001600160a01b03166352d1902d6040518163ffffffff1660e01b8152600401602060405180830381865afa92505050801561293e575060408051601f3d908101601f1916820190925261293b91810190613f0b565b60015b6129a15760405162461bcd60e51b815260206004820152602e60248201527f45524331393637557067726164653a206e657720696d706c656d656e7461746960448201526d6f6e206973206e6f74205555505360901b6064820152608401610768565b60008051602061434b8339815191528114612a105760405162461bcd60e51b815260206004820152602960248201527f45524331393637557067726164653a20756e737570706f727465642070726f786044820152681a58589b195555525160ba1b6064820152608401610768565b506128df838383613053565b612a6889612a2c8b8a8a88611e35565b87878080601f016020809104026020016040519081016040528093929190818152602001838380828437600092019190915250612e3992505050565b612ac85760405162461bcd60e51b815260206004820152602b60248201527f73616665436865636b4d65726b6c6541677265656d656e743a20696e76616c6960448201526a64207369676e617475726560a81b6064820152608401610768565b6040516bffffffffffffffffffffffff1960608a901b166020820152600090603401604051602081830303815290604052805190602001209050612b4283838080602002602001604051908101604052809392919081815260200183836020028082843760009201919091525088925085915061307e9050565b612b9d5760405162461bcd60e51b815260206004820152602660248201527f73616665436865636b4d65726b6c6541677265656d656e743a20696e76616c6960448201526532103632b0b360d11b6064820152608401610768565b50505050505050505050565b60c9546001600160a01b0316331461169c5760405162461bcd60e51b815260206004820181905260248201527f4f776e61626c653a2063616c6c6572206973206e6f7420746865206f776e65726044820152606401610768565b60c980546001600160a01b038381166001600160a01b0319831681179093556040519116919082907f8be0079c531659141344cd1fd0a4f28419497f9722a3daafe3b4186f6b6457e090600090a35050565b60006125d33388888888885b612cad85612c7188888888612309565b84848080601f016020809104026020016040519081016040528093929190818152602001838380828437600092019190915250612e3992505050565b610dc65760405162461bcd60e51b815260206004820152602560248201527f73616665436865636b41677265656d656e743a20696e76616c6964207369676e604482015264617475726560d81b6064820152608401610768565b600081815261013260209081526040808320546001600160a01b0316808452610134909252822080549192600192612d4090849061428e565b909155505060008281526101326020908152604080832080546001600160a01b03191690556101339091528120612d76916134b8565b60405182906000906001600160a01b038416907fddf252ad1be2c89b69c2b068fc378daa952ba7f163c4a11628f55a4df523b3ef908390a45050565b600054610100900460ff1661169c5760405162461bcd60e51b8152600401610768906142a1565b600054610100900460ff16612e005760405162461bcd60e51b8152600401610768906142a1565b61169c613094565b600054610100900460ff16612e2f5760405162461bcd60e51b8152600401610768906142a1565b6114f682826130c4565b6000806000612e488585613105565b90925090506000816004811115612e6157612e616142ec565b148015612e7f5750856001600160a01b0316826001600160a01b0316145b15612e8f5760019250505061096c565b600080876001600160a01b0316631626ba7e60e01b8888604051602401612eb7929190614302565b60408051601f198184030181529181526020820180516001600160e01b03166001600160e01b0319909416939093179092529051612ef5919061431b565b600060405180830381855afa9150503d8060008114612f30576040519150601f19603f3d011682016040523d82523d6000602084013e612f35565b606091505b5091509150818015612f48575080516020145b8015612f6f57508051630b135d3f60e11b90612f6d9083016020908101908401613f0b565b145b98975050505050505050565b6000612fb27f8b73c3c69bb8fe3d512ecc4cf759cc79239f7b179b0ffacaa9a75d522b39400f612faa60fb5490565b60fc54613173565b905090565b6001600160a01b0381163b6130245760405162461bcd60e51b815260206004820152602d60248201527f455243313936373a206e657720696d706c656d656e746174696f6e206973206e60448201526c1bdd08184818dbdb9d1c9858dd609a1b6064820152608401610768565b60008051602061434b83398151915280546001600160a01b0319166001600160a01b0392909216919091179055565b61305c836131a2565b6000825111806130695750805b156128df5761307883836131e2565b50505050565b60008261308b85846132d6565b14949350505050565b600054610100900460ff166130bb5760405162461bcd60e51b8152600401610768906142a1565b61169c33612c03565b600054610100900460ff166130eb5760405162461bcd60e51b8152600401610768906142a1565b81516020928301208151919092012060fb9190915560fc55565b600080825160410361313b5760208301516040840151606085015160001a61312f87828585613323565b9450945050505061316c565b82516040036131645760208301516040840151613159868383613410565b93509350505061316c565b506000905060025b9250929050565b6040805160208101859052908101839052606081018290524660808201523060a082015260009060c001611e16565b6131ab81612fb7565b6040516001600160a01b038216907fbc7cd75a20ee27fd9adebab32041f755214dbc6bffa90cc0225b39da2e5c2d3b90600090a250565b60606001600160a01b0383163b61324a5760405162461bcd60e51b815260206004820152602660248201527f416464726573733a2064656c65676174652063616c6c20746f206e6f6e2d636f6044820152651b9d1c9858dd60d21b6064820152608401610768565b600080846001600160a01b031684604051613265919061431b565b600060405180830381855af49150503d80600081146132a0576040519150601f19603f3d011682016040523d82523d6000602084013e6132a5565b606091505b50915091506132cd828260405180606001604052806027815260200161436b60279139613449565b95945050505050565b600081815b845181101561331b57613307828683815181106132fa576132fa613fde565b6020026020010151613462565b9150806133138161400a565b9150506132db565b509392505050565b6000807f7fffffffffffffffffffffffffffffff5d576e7357a4501ddfe92f46681b20a083111561335a5750600090506003613407565b8460ff16601b1415801561337257508460ff16601c14155b156133835750600090506004613407565b6040805160008082526020820180845289905260ff881692820192909252606081018690526080810185905260019060a0016020604051602081039080840390855afa1580156133d7573d6000803e3d6000fd5b5050604051601f1901519150506001600160a01b03811661340057600060019250925050613407565b9150600090505b94509492505050565b6000806001600160ff1b0383168161342d60ff86901c601b614337565b905061343b87828885613323565b935093505050935093915050565b6060831561345857508161096c565b61096c838361348e565b600081831061347e57600082815260208490526040902061096c565b5060009182526020526040902090565b81511561349e5781518083602001fd5b8060405162461bcd60e51b81526004016107689190613580565b5080546134c490613e65565b6000825580601f106134d4575050565b601f016020900490600052602060002090810190610c4591905b8082111561350257600081556001016134ee565b5090565b60006020828403121561351857600080fd5b81356001600160e01b03198116811461096c57600080fd5b60005b8381101561354b578181015183820152602001613533565b50506000910152565b6000815180845261356c816020860160208601613530565b601f01601f19169290920160200192915050565b60208152600061096c6020830184613554565b6000602082840312156135a557600080fd5b5035919050565b6001600160a01b0381168114610c4557600080fd5b60008083601f8401126135d357600080fd5b5081356001600160401b038111156135ea57600080fd5b60208301915083602082850101111561316c57600080fd5b60008060008060006060868803121561361a57600080fd5b8535613625816135ac565b945060208601356001600160401b038082111561364157600080fd5b61364d89838a016135c1565b9096509450604088013591508082111561366657600080fd5b50613673888289016135c1565b969995985093965092949392505050565b634e487b7160e01b600052604160045260246000fd5b604051601f8201601f191681016001600160401b03811182821017156136c2576136c2613684565b604052919050565b60006001600160401b038311156136e3576136e3613684565b6136f6601f8401601f191660200161369a565b905082815283838301111561370a57600080fd5b828260208301376000602084830101529392505050565b60008060006060848603121561373657600080fd5b8335613741816135ac565b92506020840135613751816135ac565b915060408401356001600160401b0381111561376c57600080fd5b8401601f8101861361377d57600080fd5b61378c868235602084016136ca565b9150509250925092565b60008060008060008060006080888a0312156137b157600080fd5b87356137bc816135ac565b965060208801356001600160401b03808211156137d857600080fd5b6137e48b838c016135c1565b909850965060408a01359150808211156137fd57600080fd5b6138098b838c016135c1565b909650945060608a013591508082111561382257600080fd5b5061382f8a828b016135c1565b989b979a50959850939692959293505050565b60006020828403121561385457600080fd5b813561096c816135ac565b60008083601f84011261387157600080fd5b5081356001600160401b0381111561388857600080fd5b6020830191508360208260051b850101111561316c57600080fd5b600080600080604085870312156138b957600080fd5b84356001600160401b03808211156138d057600080fd5b6138dc8883890161385f565b909650945060208701359150808211156138f557600080fd5b50613902878288016135c1565b95989497509550505050565b60008060006040848603121561392357600080fd5b83356001600160401b0381111561393957600080fd5b613945868287016135c1565b909790965060209590950135949350505050565b60008060008060008060008060a0898b03121561397557600080fd5b8835613980816135ac565b975060208901356001600160401b038082111561399c57600080fd5b6139a88c838d016135c1565b909950975060408b01359150808211156139c157600080fd5b6139cd8c838d016135c1565b909750955060608b0135945060808b01359150808211156139ed57600080fd5b506139fa8b828c0161385f565b999c989b5096995094979396929594505050565b600080600080600060608688031215613a2657600080fd5b85356001600160401b0380821115613a3d57600080fd5b818801915088601f830112613a5157600080fd5b8135602082821115613a6557613a65613684565b8160051b613a7482820161369a565b928352848101820192828101908d851115613a8e57600080fd5b958301955b84871015613ab85786359250613aa8836135ac565b8282529583019590830190613a93565b9a50505089013592505080821115613acf57600080fd5b613adb89838a016135c1565b90965094506040880135915080821115613af457600080fd5b506136738882890161385f565b60008060408385031215613b1457600080fd5b8235613b1f816135ac565b915060208301356001600160401b03811115613b3a57600080fd5b8301601f81018513613b4b57600080fd5b613b5a858235602084016136ca565b9150509250929050565b600080600060608486031215613b7957600080fd5b8335925060208401359150604084013560ff81168114613b9857600080fd5b809150509250925092565b60008060408385031215613bb657600080fd5b50508035926020909101359150565b600080600060408486031215613bda57600080fd5b8335613be5816135ac565b925060208401356001600160401b03811115613c0057600080fd5b613c0c868287016135c1565b9497909650939450505050565b60008060008060008060608789031215613c3257600080fd5b86356001600160401b0380821115613c4957600080fd5b613c558a838b0161385f565b90985096506020890135915080821115613c6e57600080fd5b613c7a8a838b016135c1565b90965094506040890135915080821115613c9357600080fd5b50613ca089828a0161385f565b979a9699509497509295939492505050565b60008060008060608587031215613cc857600080fd5b8435613cd3816135ac565b935060208501356001600160401b03811115613cee57600080fd5b613cfa878288016135c1565b9598909750949560400135949350505050565b60008060208385031215613d2057600080fd5b82356001600160401b03811115613d3657600080fd5b613d428582860161385f565b90969095509350505050565b60008060008060008060008060a0898b031215613d6a57600080fd5b88356001600160401b0380821115613d8157600080fd5b613d8d8c838d016135c1565b909a50985060208b0135915080821115613da657600080fd5b613db28c838d016135c1565b909850965060408b0135915080821115613dcb57600080fd5b50613dd88b828c016135c1565b9095509350506060890135613dec816135ac565b91506080890135613dfc816135ac565b809150509295985092959890939650565b60008060008060608587031215613e2357600080fd5b8435613e2e816135ac565b93506020850135613e3e816135ac565b925060408501356001600160401b03811115613e5957600080fd5b613902878288016135c1565b600181811c90821680613e7957607f821691505b60208210810361079257634e487b7160e01b600052602260045260246000fd5b6020808252818101527f746f6b656e4578697374733a20746f6b656e20646f65736e2774206578697374604082015260600190565b81835281816020850137506000828201602090810191909152601f909101601f19169091010190565b602081526000610969602083018486613ece565b600060208284031215613f1d57600080fd5b5051919050565b600060208284031215613f3657600080fd5b8151801515811461096c57600080fd5b6020808252602c908201527f46756e6374696f6e206d7573742062652063616c6c6564207468726f7567682060408201526b19195b1959d85d1958d85b1b60a21b606082015260800190565b6020808252602c908201527f46756e6374696f6e206d7573742062652063616c6c6564207468726f7567682060408201526b6163746976652070726f787960a01b606082015260800190565b634e487b7160e01b600052603260045260246000fd5b634e487b7160e01b600052601160045260246000fd5b60006001820161401c5761401c613ff4565b5060010190565b604081526000614037604083018587613ece565b9050826020830152949350505050565b60006020828403121561405957600080fd5b815161096c816135ac565b6000808335601e1984360301811261407b57600080fd5b8301803591506001600160401b0382111561409557600080fd5b60200191503681900382131561316c57600080fd5b8183823760009101908152919050565b6001600160a01b0384168152604060208201819052600090611ea49083018486613ece565b6040808252810183905260006060600585901b8301810190830186835b8781101561416f57858403605f190183528135368a9003601e1901811261412257600080fd5b890160208181019135906001600160401b0382111561414057600080fd5b81360383131561414f57600080fd5b61415a878385613ece565b965094850194939093019250506001016140fc565b5050506001600160a01b03841660208401529050611ea7565b601f8211156128df57600081815260208120601f850160051c810160208610156141af5750805b601f850160051c820191505b81811015610dc6578281556001016141bb565b6001600160401b038311156141e5576141e5613684565b6141f9836141f38354613e65565b83614188565b6000601f84116001811461422d57600085156142155750838201355b600019600387901b1c1916600186901b178355614287565b600083815260209020601f19861690835b8281101561425e578685013582556020948501946001909201910161423e565b508682101561427b5760001960f88860031b161c19848701351681555b505060018560011b0183555b5050505050565b8181038181111561069857610698613ff4565b6020808252602b908201527f496e697469616c697a61626c653a20636f6e7472616374206973206e6f74206960408201526a6e697469616c697a696e6760a81b606082015260800190565b634e487b7160e01b600052602160045260246000fd5b8281526040602082015260006109696040830184613554565b6000825161432d818460208701613530565b9190910192915050565b8082018082111561069857610698613ff456fe360894a13ba1a3210667c828492db98dca3e2076cc3735a920a3ca505d382bbc416464726573733a206c6f772d6c6576656c2064656c65676174652063616c6c206661696c6564a2646970667358221220b8363a74c0445e11f02ae3e215a23eb51498002a3fe45f4852fe64aac9946a1a64736f6c63430008100033",
    "linkReferences": {}
  },
  "methodIdentifiers": {
    "airdrop(address[],string)": "39ae37c0",
    "airdropWithConsent(address,string,bytes,bytes)": "30c5098d",
    "balanceOf(address)": "70a08231",
    "createSpec(string,uint256)": "445a62b9",
    "getAgreementHash(address,address,string)": "e4992506",
    "getAirdropAgreementHash(address,address,string)": "271fab42",
    "getBadgeIdHash(address,string)": "a8cf8683",
    "getDataHolderAddress()": "635ad993",
    "getMerkleAgreementHash(address,string,bytes32)": "bd6645e4",
    "getRequestHash(address,string)": "8339a133",
    "give(address,string,bytes)": "ec64948e",
    "giveRequestedBadge(address,string,bytes)": "1766c038",
    "giveRequestedBadgeToMany(address[],string,bytes[])": "4a50b376",
    "giveToMany(address[],string,bytes[])": "a32c9c7a",
    "initialize(string,string,string,address,address)": "d6d0faee",
    "isBadgeValid(uint256)": "0f4d9b01",
    "merkleTake(address,string,bytes,bytes32,bytes32[])": "4a086b53",
    "name()": "06fdde03",
    "owner()": "8da5cb5b",
    "ownerOf(uint256)": "6352211e",
    "proxiableUUID()": "52d1902d",
    "refreshMetadata(string[])": "bdbdbcbf",
    "reinstateBadge(uint256,uint256)": "80956c7e",
    "renounceOwnership()": "715018a6",
    "revokeBadge(uint256,uint256,uint8)": "7c402f8d",
    "setDataHolder(address)": "c0184112",
    "supportsInterface(bytes4)": "01ffc9a7",
    "symbol()": "95d89b41",
    "take(address,string,bytes)": "a3947803",
    "tokenURI(uint256)": "c87b56dd",
    "transferOwnership(address)": "f2fde38b",
    "unequip(uint256)": "d179e3d0",
    "upgradeTo(address)": "3659cfe6",
    "upgradeToAndCall(address,bytes)": "4f1ef286"
  },
  "id": 46
}