{
  "abi": [
    {
      "inputs": [],
      "stateMutability": "nonpayable",
      "type": "constructor"
    },
    {
      "anonymous": false,
      "inputs": [
        {
          "indexed": false,
          "internalType": "address",
          "name": "previousAdmin",
          "type": "address"
        },
        {
          "indexed": false,
          "internalType": "address",
          "name": "newAdmin",
          "type": "address"
        }
      ],
      "name": "AdminChanged",
      "type": "event"
    },
    {
      "anonymous": false,
      "inputs": [
        {
          "indexed": true,
          "internalType": "uint256",
          "name": "tokenId",
          "type": "uint256"
        },
        {
          "indexed": true,
          "internalType": "address",
          "name": "from",
          "type": "address"
        }
      ],
      "name": "BadgeReinstated",
      "type": "event"
    },
    {
      "anonymous": false,
      "inputs": [
        {
          "indexed": true,
          "internalType": "uint256",
          "name": "tokenId",
          "type": "uint256"
        },
        {
          "indexed": true,
          "internalType": "address",
          "name": "from",
          "type": "address"
        },
        {
          "indexed": true,
          "internalType": "uint8",
          "name": "reason",
          "type": "uint8"
        }
      ],
      "name": "BadgeRevoked",
      "type": "event"
    },
    {
      "anonymous": false,
      "inputs": [
        {
          "indexed": true,
          "internalType": "address",
          "name": "beacon",
          "type": "address"
        }
      ],
      "name": "BeaconUpgraded",
      "type": "event"
    },
    {
      "anonymous": false,
      "inputs": [
        {
          "indexed": false,
          "internalType": "uint8",
          "name": "version",
          "type": "uint8"
        }
      ],
      "name": "Initialized",
      "type": "event"
    },
    {
      "anonymous": false,
      "inputs": [
        {
          "indexed": true,
          "internalType": "address",
          "name": "previousOwner",
          "type": "address"
        },
        {
          "indexed": true,
          "internalType": "address",
          "name": "newOwner",
          "type": "address"
        }
      ],
      "name": "OwnershipTransferred",
      "type": "event"
    },
    {
      "anonymous": false,
      "inputs": [
        {
          "indexed": false,
          "internalType": "string[]",
          "name": "specUris",
          "type": "string[]"
        },
        {
          "indexed": false,
          "internalType": "address",
          "name": "sender",
          "type": "address"
        }
      ],
      "name": "RefreshMetadata",
      "type": "event"
    },
    {
      "anonymous": false,
      "inputs": [
        {
          "indexed": true,
          "internalType": "address",
          "name": "to",
          "type": "address"
        },
        {
          "indexed": false,
          "internalType": "string",
          "name": "specUri",
          "type": "string"
        },
        {
          "indexed": true,
          "internalType": "uint256",
          "name": "raftTokenId",
          "type": "uint256"
        },
        {
          "indexed": true,
          "internalType": "address",
          "name": "raftAddress",
          "type": "address"
        }
      ],
      "name": "SpecCreated",
      "type": "event"
    },
    {
      "anonymous": false,
      "inputs": [
        {
          "indexed": true,
          "internalType": "address",
          "name": "from",
          "type": "address"
        },
        {
          "indexed": true,
          "internalType": "address",
          "name": "to",
          "type": "address"
        },
        {
          "indexed": true,
          "internalType": "uint256",
          "name": "tokenId",
          "type": "uint256"
        }
      ],
      "name": "Transfer",
      "type": "event"
    },
    {
      "anonymous": false,
      "inputs": [
        {
          "indexed": true,
          "internalType": "address",
          "name": "implementation",
          "type": "address"
        }
      ],
      "name": "Upgraded",
      "type": "event"
    },
    {
      "inputs": [
        {
          "internalType": "address",
          "name": "_owner",
          "type": "address"
        }
      ],
      "name": "balanceOf",
      "outputs": [
        {
          "internalType": "uint256",
          "name": "",
          "type": "uint256"
        }
      ],
      "stateMutability": "view",
      "type": "function"
    },
    {
      "inputs": [
        {
          "internalType": "string",
          "name": "_specUri",
          "type": "string"
        },
        {
          "internalType": "uint256",
          "name": "_raftTokenId",
          "type": "uint256"
        }
      ],
      "name": "createSpec",
      "outputs": [],
      "stateMutability": "nonpayable",
      "type": "function"
    },
    {
      "inputs": [
        {
          "internalType": "address",
          "name": "_from",
          "type": "address"
        },
        {
          "internalType": "address",
          "name": "_to",
          "type": "address"
        },
        {
          "internalType": "string",
          "name": "_uri",
          "type": "string"
        }
      ],
      "name": "getAgreementHash",
      "outputs": [
        {
          "internalType": "bytes32",
          "name": "",
          "type": "bytes32"
        }
      ],
      "stateMutability": "view",
      "type": "function"
    },
    {
      "inputs": [
        {
          "internalType": "address",
          "name": "_to",
          "type": "address"
        },
        {
          "internalType": "string",
          "name": "_uri",
          "type": "string"
        }
      ],
      "name": "getBadgeIdHash",
      "outputs": [
        {
          "internalType": "bytes32",
          "name": "",
          "type": "bytes32"
        }
      ],
      "stateMutability": "view",
      "type": "function"
    },
    {
      "inputs": [],
      "name": "getDataHolderAddress",
      "outputs": [
        {
          "internalType": "address",
          "name": "",
          "type": "address"
        }
      ],
      "stateMutability": "view",
      "type": "function"
    },
    {
      "inputs": [
        {
          "internalType": "address",
          "name": "_issuer",
          "type": "address"
        },
        {
          "internalType": "string",
          "name": "_uri",
          "type": "string"
        },
        {
          "internalType": "bytes32",
          "name": "_root",
          "type": "bytes32"
        }
      ],
      "name": "getMerkleAgreementHash",
      "outputs": [
        {
          "internalType": "bytes32",
          "name": "",
          "type": "bytes32"
        }
      ],
      "stateMutability": "view",
      "type": "function"
    },
    {
      "inputs": [
        {
          "internalType": "address",
          "name": "_to",
          "type": "address"
        },
        {
          "internalType": "string",
          "name": "_uri",
          "type": "string"
        },
        {
          "internalType": "bytes",
          "name": "_signature",
          "type": "bytes"
        }
      ],
      "name": "give",
      "outputs": [
        {
          "internalType": "uint256",
          "name": "",
          "type": "uint256"
        }
      ],
      "stateMutability": "nonpayable",
      "type": "function"
    },
    {
      "inputs": [
        {
          "internalType": "string",
          "name": "_name",
          "type": "string"
        },
        {
          "internalType": "string",
          "name": "_symbol",
          "type": "string"
        },
        {
          "internalType": "string",
          "name": "_version",
          "type": "string"
        },
        {
          "internalType": "address",
          "name": "_nextOwner",
          "type": "address"
        },
        {
          "internalType": "address",
          "name": "_specDataHolderAddress",
          "type": "address"
        }
      ],
      "name": "initialize",
      "outputs": [],
      "stateMutability": "nonpayable",
      "type": "function"
    },
    {
      "inputs": [
        {
          "internalType": "uint256",
          "name": "_badgeId",
          "type": "uint256"
        }
      ],
      "name": "isBadgeValid",
      "outputs": [
        {
          "internalType": "bool",
          "name": "",
          "type": "bool"
        }
      ],
      "stateMutability": "view",
      "type": "function"
    },
    {
      "inputs": [
        {
          "internalType": "address",
          "name": "_from",
          "type": "address"
        },
        {
          "internalType": "string",
          "name": "_uri",
          "type": "string"
        },
        {
          "internalType": "bytes",
          "name": "_signature",
          "type": "bytes"
        },
        {
          "internalType": "bytes32",
          "name": "root",
          "type": "bytes32"
        },
        {
          "internalType": "bytes32[]",
          "name": "proof",
          "type": "bytes32[]"
        }
      ],
      "name": "merkleTake",
      "outputs": [
        {
          "internalType": "uint256",
          "name": "",
          "type": "uint256"
        }
      ],
      "stateMutability": "nonpayable",
      "type": "function"
    },
    {
      "inputs": [],
      "name": "name",
      "outputs": [
        {
          "internalType": "string",
          "name": "",
          "type": "string"
        }
      ],
      "stateMutability": "view",
      "type": "function"
    },
    {
      "inputs": [],
      "name": "owner",
      "outputs": [
        {
          "internalType": "address",
          "name": "",
          "type": "address"
        }
      ],
      "stateMutability": "view",
      "type": "function"
    },
    {
      "inputs": [
        {
          "internalType": "uint256",
          "name": "_tokenId",
          "type": "uint256"
        }
      ],
      "name": "ownerOf",
      "outputs": [
        {
          "internalType": "address",
          "name": "",
          "type": "address"
        }
      ],
      "stateMutability": "view",
      "type": "function"
    },
    {
      "inputs": [],
      "name": "proxiableUUID",
      "outputs": [
        {
          "internalType": "bytes32",
          "name": "",
          "type": "bytes32"
        }
      ],
      "stateMutability": "view",
      "type": "function"
    },
    {
      "inputs": [
        {
          "internalType": "string[]",
          "name": "_specUris",
          "type": "string[]"
        }
      ],
      "name": "refreshMetadata",
      "outputs": [],
      "stateMutability": "nonpayable",
      "type": "function"
    },
    {
      "inputs": [
        {
          "internalType": "uint256",
          "name": "_raftTokenId",
          "type": "uint256"
        },
        {
          "internalType": "uint256",
          "name": "_badgeId",
          "type": "uint256"
        }
      ],
      "name": "reinstateBadge",
      "outputs": [],
      "stateMutability": "nonpayable",
      "type": "function"
    },
    {
      "inputs": [],
      "name": "renounceOwnership",
      "outputs": [],
      "stateMutability": "nonpayable",
      "type": "function"
    },
    {
      "inputs": [
        {
          "internalType": "uint256",
          "name": "_raftTokenId",
          "type": "uint256"
        },
        {
          "internalType": "uint256",
          "name": "_badgeId",
          "type": "uint256"
        },
        {
          "internalType": "uint8",
          "name": "_reason",
          "type": "uint8"
        }
      ],
      "name": "revokeBadge",
      "outputs": [],
      "stateMutability": "nonpayable",
      "type": "function"
    },
    {
      "inputs": [
        {
          "internalType": "address",
          "name": "_from",
          "type": "address"
        },
        {
          "internalType": "address",
          "name": "_to",
          "type": "address"
        },
        {
          "internalType": "string",
          "name": "_uri",
          "type": "string"
        },
        {
          "internalType": "bytes",
          "name": "_signature",
          "type": "bytes"
        },
        {
          "internalType": "bytes32",
          "name": "_root",
          "type": "bytes32"
        },
        {
          "internalType": "bytes32[]",
          "name": "_proof",
          "type": "bytes32[]"
        }
      ],
      "name": "safeCheckMerkleAgreement",
      "outputs": [],
      "stateMutability": "view",
      "type": "function"
    },
    {
      "inputs": [
        {
          "internalType": "address",
          "name": "_dataHolder",
          "type": "address"
        }
      ],
      "name": "setDataHolder",
      "outputs": [],
      "stateMutability": "nonpayable",
      "type": "function"
    },
    {
      "inputs": [
        {
          "internalType": "bytes4",
          "name": "_interfaceId",
          "type": "bytes4"
        }
      ],
      "name": "supportsInterface",
      "outputs": [
        {
          "internalType": "bool",
          "name": "",
          "type": "bool"
        }
      ],
      "stateMutability": "view",
      "type": "function"
    },
    {
      "inputs": [],
      "name": "symbol",
      "outputs": [
        {
          "internalType": "string",
          "name": "",
          "type": "string"
        }
      ],
      "stateMutability": "view",
      "type": "function"
    },
    {
      "inputs": [
        {
          "internalType": "address",
          "name": "_from",
          "type": "address"
        },
        {
          "internalType": "string",
          "name": "_uri",
          "type": "string"
        },
        {
          "internalType": "bytes",
          "name": "_signature",
          "type": "bytes"
        }
      ],
      "name": "take",
      "outputs": [
        {
          "internalType": "uint256",
          "name": "",
          "type": "uint256"
        }
      ],
      "stateMutability": "nonpayable",
      "type": "function"
    },
    {
      "inputs": [
        {
          "internalType": "uint256",
          "name": "_tokenId",
          "type": "uint256"
        }
      ],
      "name": "tokenURI",
      "outputs": [
        {
          "internalType": "string",
          "name": "",
          "type": "string"
        }
      ],
      "stateMutability": "view",
      "type": "function"
    },
    {
      "inputs": [
        {
          "internalType": "address",
          "name": "newOwner",
          "type": "address"
        }
      ],
      "name": "transferOwnership",
      "outputs": [],
      "stateMutability": "nonpayable",
      "type": "function"
    },
    {
      "inputs": [
        {
          "internalType": "uint256",
          "name": "_tokenId",
          "type": "uint256"
        }
      ],
      "name": "unequip",
      "outputs": [],
      "stateMutability": "nonpayable",
      "type": "function"
    },
    {
      "inputs": [
        {
          "internalType": "address",
          "name": "newImplementation",
          "type": "address"
        }
      ],
      "name": "upgradeTo",
      "outputs": [],
      "stateMutability": "nonpayable",
      "type": "function"
    },
    {
      "inputs": [
        {
          "internalType": "address",
          "name": "newImplementation",
          "type": "address"
        },
        {
          "internalType": "bytes",
          "name": "data",
          "type": "bytes"
        }
      ],
      "name": "upgradeToAndCall",
      "outputs": [],
      "stateMutability": "payable",
      "type": "function"
    }
  ],
  "bytecode": {
    "object": "0x60a0604052306080523480156200001557600080fd5b506200002062000026565b620000e8565b600054610100900460ff1615620000935760405162461bcd60e51b815260206004820152602760248201527f496e697469616c697a61626c653a20636f6e747261637420697320696e697469604482015266616c697a696e6760c81b606482015260840160405180910390fd5b60005460ff9081161015620000e6576000805460ff191660ff9081179091556040519081527f7f26b83ff96e1f2b6a682f133852f6798a09c465da95921460cefb38474024989060200160405180910390a15b565b6080516135b1620001206000396000818161082d0152818161086d01528181610d6301528181610da30152610e3601526135b16000f3fe6080604052600436106101b75760003560e01c806380956c7e116100ec578063c01841121161008a578063d6d0faee11610064578063d6d0faee146104ca578063e4992506146104ea578063ec64948e1461050a578063f2fde38b1461052a57600080fd5b8063c01841121461046a578063c87b56dd1461048a578063d179e3d0146104aa57600080fd5b8063a3947803116100c6578063a3947803146103ea578063a8cf86831461040a578063bd6645e41461042a578063bdbdbcbf1461044a57600080fd5b806380956c7e146103975780638da5cb5b146103b757806395d89b41146103d557600080fd5b80634f1ef28611610159578063635ad99311610133578063635ad9931461032357806370a0823114610342578063715018a6146103625780637c402f8d1461037757600080fd5b80634f1ef286146102c357806352d1902d146102d65780636352211e146102eb57600080fd5b806322e7d2ee1161019557806322e7d2ee146102335780633659cfe614610255578063445a62b9146102755780634a086b531461029557600080fd5b806301ffc9a7146101bc57806306fdde03146101f15780630f4d9b0114610213575b600080fd5b3480156101c857600080fd5b506101dc6101d7366004612968565b61054a565b60405190151581526020015b60405180910390f35b3480156101fd57600080fd5b5061020661059c565b6040516101e891906129e2565b34801561021f57600080fd5b506101dc61022e3660046129f5565b61062f565b34801561023f57600080fd5b5061025361024e366004612aa8565b610696565b005b34801561026157600080fd5b50610253610270366004612b72565b610823565b34801561028157600080fd5b50610253610290366004612b8f565b610902565b3480156102a157600080fd5b506102b56102b0366004612bda565b610b99565b6040519081526020016101e8565b6102536102d1366004612ca5565b610d59565b3480156102e257600080fd5b506102b5610e29565b3480156102f757600080fd5b5061030b6103063660046129f5565b610edc565b6040516001600160a01b0390911681526020016101e8565b34801561032f57600080fd5b50610135546001600160a01b031661030b565b34801561034e57600080fd5b506102b561035d366004612b72565b610f31565b34801561036e57600080fd5b50610253610fbc565b34801561038357600080fd5b50610253610392366004612d68565b610fd0565b3480156103a357600080fd5b506102536103b2366004612da7565b61116d565b3480156103c357600080fd5b5060c9546001600160a01b031661030b565b3480156103e157600080fd5b50610206611300565b3480156103f657600080fd5b506102b5610405366004612dc9565b611310565b34801561041657600080fd5b506102b5610425366004612e4b565b6114ca565b34801561043657600080fd5b506102b5610445366004612e9f565b611501565b34801561045657600080fd5b50610253610465366004612efa565b611596565b34801561047657600080fd5b50610253610485366004612b72565b611639565b34801561049657600080fd5b506102066104a53660046129f5565b611664565b3480156104b657600080fd5b506102536104c53660046129f5565b61176b565b3480156104d657600080fd5b506102536104e5366004612f3b565b611812565b3480156104f657600080fd5b506102b5610505366004612ffa565b6119f1565b34801561051657600080fd5b506102b5610525366004612dc9565b611a61565b34801561053657600080fd5b50610253610545366004612b72565b611c08565b60006001600160e01b03198216635b5e139f60e01b148061057b57506001600160e01b031982166346bdd63960e11b145b8061059657506301ffc9a760e01b6001600160e01b03198316145b92915050565b606061013080546105ac9061305e565b80601f01602080910402602001604051908101604052809291908181526020018280546105d89061305e565b80156106255780601f106105fa57610100808354040283529160200191610625565b820191906000526020600020905b81548152906001019060200180831161060857829003601f168201915b5050505050905090565b6000818152610132602052604081205482906001600160a01b031661066f5760405162461bcd60e51b815260040161066690613092565b60405180910390fd5b600883901c60009081526101376020526040902054600160ff85161b161591505b50919050565b6106e2896106a68b8a8a88611501565b87878080601f016020809104026020016040519081016040528093929190818152602001838380828437600092019190915250611c7e92505050565b6107425760405162461bcd60e51b815260206004820152602b60248201527f73616665436865636b4d65726b6c6541677265656d656e743a20696e76616c6960448201526a64207369676e617475726560a81b6064820152608401610666565b6040516bffffffffffffffffffffffff1960608a901b1660208201526000906034016040516020818303038152906040528051906020012090506107bc838380806020026020016040519081016040528093929190818152602001838360200280828437600092019190915250889250859150611dc09050565b6108175760405162461bcd60e51b815260206004820152602660248201527f73616665436865636b4d65726b6c6541677265656d656e743a20696e76616c6960448201526532103632b0b360d11b6064820152608401610666565b50505050505050505050565b6001600160a01b037f000000000000000000000000000000000000000000000000000000000000000016300361086b5760405162461bcd60e51b8152600401610666906130c7565b7f00000000000000000000000000000000000000000000000000000000000000006001600160a01b03166108b4600080516020613535833981519152546001600160a01b031690565b6001600160a01b0316146108da5760405162461bcd60e51b815260040161066690613113565b6108e381611dd6565b604080516000808252602082019092526108ff91839190611dde565b50565b6101355460405163b2a0cb6b60e01b815260048101839052829133916001600160a01b039091169063b2a0cb6b90602401602060405180830381865afa158015610950573d6000803e3d6000fd5b505050506040513d601f19601f82011682018060405250810190610974919061315f565b6001600160a01b03161461099a5760405162461bcd60e51b81526004016106669061317c565b61013554604051637e07102760e11b81526001600160a01b039091169063fc0e204e906109cd90879087906004016131dc565b602060405180830381865afa1580156109ea573d6000803e3d6000fd5b505050506040513d601f19601f82011682018060405250810190610a0e91906131f0565b15610a675760405162461bcd60e51b815260206004820152602360248201527f637265617465537065633a207370656320616c726561647920726567697374656044820152621c995960ea1b6064820152608401610666565b6101355460405163addd190760e01b81526001600160a01b039091169063addd190790610a9c90879087908790600401613212565b600060405180830381600087803b158015610ab657600080fd5b505af1158015610aca573d6000803e3d6000fd5b5050505061013560009054906101000a90046001600160a01b03166001600160a01b03166334f876626040518163ffffffff1660e01b8152600401602060405180830381865afa158015610b22573d6000803e3d6000fd5b505050506040513d601f19601f82011682018060405250810190610b46919061315f565b6001600160a01b031682336001600160a01b03167f68c7f8503283c455a4445b54a7d5c40656c8cae5cca0583c6d4be836984787008787604051610b8b9291906131dc565b60405180910390a450505050565b60006001600160a01b0389163303610bf35760405162461bcd60e51b815260206004820152601b60248201527f74616b653a2063616e6e6f742074616b652066726f6d2073656c6600000000006044820152606401610666565b610c0489338a8a8a8a8a8a8a610696565b61013554604051633664a8e960e01b81526000916001600160a01b031690633664a8e990610c38908c908c906004016131dc565b602060405180830381865afa158015610c55573d6000803e3d6000fd5b505050506040513d601f19601f82011682018060405250810190610c799190613236565b6101355460405163b2a0cb6b60e01b8152600481018390529192506001600160a01b038c81169291169063b2a0cb6b90602401602060405180830381865afa158015610cc9573d6000803e3d6000fd5b505050506040513d601f19601f82011682018060405250810190610ced919061315f565b6001600160a01b031614610d3f5760405162461bcd60e51b81526020600482015260196024820152783a30b5b29d103ab730baba3437b934bd32b21034b9b9bab2b960391b6044820152606401610666565b610d4b338a8a84611f4e565b9a9950505050505050505050565b6001600160a01b037f0000000000000000000000000000000000000000000000000000000000000000163003610da15760405162461bcd60e51b8152600401610666906130c7565b7f00000000000000000000000000000000000000000000000000000000000000006001600160a01b0316610dea600080516020613535833981519152546001600160a01b031690565b6001600160a01b031614610e105760405162461bcd60e51b815260040161066690613113565b610e1982611dd6565b610e2582826001611dde565b5050565b6000306001600160a01b037f00000000000000000000000000000000000000000000000000000000000000001614610ec95760405162461bcd60e51b815260206004820152603860248201527f555550535570677261646561626c653a206d757374206e6f742062652063616c60448201527f6c6564207468726f7567682064656c656761746563616c6c00000000000000006064820152608401610666565b5060008051602061353583398151915290565b6000818152610132602052604081205482906001600160a01b0316610f135760405162461bcd60e51b815260040161066690613092565b5050600090815261013260205260409020546001600160a01b031690565b60006001600160a01b038216610f9f5760405162461bcd60e51b815260206004820152602d60248201527f62616c616e63654f663a2061646472657373207a65726f206973206e6f74206160448201526c2076616c6964206f776e65725f60981b6064820152608401610666565b506001600160a01b03166000908152610134602052604090205490565b610fc461211e565b610fce6000612178565b565b6000828152610132602052604090205482906001600160a01b03166110075760405162461bcd60e51b815260040161066690613092565b6101355460405163b2a0cb6b60e01b815260048101869052859133916001600160a01b039091169063b2a0cb6b90602401602060405180830381865afa158015611055573d6000803e3d6000fd5b505050506040513d601f19601f82011682018060405250810190611079919061315f565b6001600160a01b03161461109f5760405162461bcd60e51b81526004016106669061317c565b600884901c60009081526101376020526040902054600160ff86161b16156111145760405162461bcd60e51b815260206004820152602260248201527f7265766f6b6542616467653a20626164676520616c7265616479207265766f6b604482015261195960f21b6064820152608401610666565b600884901c6000908152610137602052604090208054600160ff87161b17905560405160ff841690339086907ffa784c48260e8db512de5f055a2f29eced211a7b3bd6338058b095ada7354cee90600090a45050505050565b6000818152610132602052604090205481906001600160a01b03166111a45760405162461bcd60e51b815260040161066690613092565b6101355460405163b2a0cb6b60e01b815260048101859052849133916001600160a01b039091169063b2a0cb6b90602401602060405180830381865afa1580156111f2573d6000803e3d6000fd5b505050506040513d601f19601f82011682018060405250810190611216919061315f565b6001600160a01b03161461123c5760405162461bcd60e51b81526004016106669061317c565b600883901c60009081526101376020526040902054600160ff85161b166112af5760405162461bcd60e51b815260206004820152602160248201527f7265696e737461746542616467653a206261646765206e6f74207265766f6b656044820152601960fa1b6064820152608401610666565b600883901c600090815261013760205260408082208054600160ff88161b1916905551339185917f7f8cf9ecf2a5225948f8a1601709cedc8471c52ee75a8174c9845c29c99ed9a29190a350505050565b606061013180546105ac9061305e565b60006001600160a01b038616330361136a5760405162461bcd60e51b815260206004820152601b60248201527f74616b653a2063616e6e6f742074616b652066726f6d2073656c6600000000006044820152606401610666565b6113783387878787876121ca565b61013554604051633664a8e960e01b81526000916001600160a01b031690633664a8e9906113ac90899089906004016131dc565b602060405180830381865afa1580156113c9573d6000803e3d6000fd5b505050506040513d601f19601f820116820180604052508101906113ed9190613236565b6101355460405163b2a0cb6b60e01b8152600481018390529192506001600160a01b038981169291169063b2a0cb6b90602401602060405180830381865afa15801561143d573d6000803e3d6000fd5b505050506040513d601f19601f82011682018060405250810190611461919061315f565b6001600160a01b0316146114b35760405162461bcd60e51b81526020600482015260196024820152783a30b5b29d103ab730baba3437b934bd32b21034b9b9bab2b960391b6044820152606401610666565b6114bf33878784611f4e565b979650505050505050565b60008383836040516020016114e19392919061324f565b6040516020818303038152906040528051906020012090505b9392505050565b600061158b7f6d0d990916a9f9c9e0896e59ce7f5ddddff333d0c8772438ce004fa7719b164b868686604051611538929190613274565b60405190819003812061157093929187906020019384526001600160a01b039290921660208401526040830152606082015260800190565b60405160208183030381529060405280519060200120612278565b90505b949350505050565b61159e61211e565b806115fa5760405162461bcd60e51b815260206004820152602660248201527f726566726573684d657461646174613a206e6f207370656320757269732070726044820152651bdd9a59195960d21b6064820152608401610666565b7f2231d988b1a75dccab13dee3564b71a551900e822e94177a96f19561890c0fd582823360405161162d93929190613284565b60405180910390a15050565b61164161211e565b61013580546001600160a01b0319166001600160a01b0392909216919091179055565b600081815261013260205260409020546060906001600160a01b03166116cc5760405162461bcd60e51b815260206004820152601d60248201527f746f6b656e5552493a20746f6b656e20646f65736e27742065786973740000006044820152606401610666565b60008281526101336020526040902080546116e69061305e565b80601f01602080910402602001604051908101604052809291908181526020018280546117129061305e565b801561175f5780601f106117345761010080835404028352916020019161175f565b820191906000526020600020905b81548152906001019060200180831161174257829003601f168201915b50505050509050919050565b6000818152610132602052604090205481906001600160a01b03166117a25760405162461bcd60e51b815260040161066690613092565b600082815261013260205260409020546001600160a01b031633146118095760405162461bcd60e51b815260206004820152601d60248201527f756e65717569703a2073656e646572206d757374206265206f776e65720000006044820152606401610666565b610e25826122c6565b600054610100900460ff16158080156118325750600054600160ff909116105b8061184c5750303b15801561184c575060005460ff166001145b6118af5760405162461bcd60e51b815260206004820152602e60248201527f496e697469616c697a61626c653a20636f6e747261637420697320616c72656160448201526d191e481a5b9a5d1a585b1a5e995960921b6064820152608401610666565b6000805460ff1916600117905580156118d2576000805461ff0019166101001790555b6101306118e0898b83613373565b506101316118ef878983613373565b5061013580546001600160a01b0319166001600160a01b038416179055611914612371565b61191c612398565b61198f89898080601f01602080910402602001604051908101604052809392919081815260200183838082843760009201919091525050604080516020601f8b0181900481028201810190925289815292508991508890819084018382808284376000920191909152506123c792505050565b611997612371565b6119a083611c08565b80156119e6576000805461ff0019169055604051600181527f7f26b83ff96e1f2b6a682f133852f6798a09c465da95921460cefb38474024989060200160405180910390a15b505050505050505050565b600061158b7fe76a195fbe43f0eaa611595069f780493db2202a1cc4b2d7d44b47069812998a86868686604051611a29929190613274565b604051908190038120611570949392916020019384526001600160a01b03928316602085015291166040830152606082015260800190565b60006001600160a01b0386163303611abb5760405162461bcd60e51b815260206004820152601960248201527f676976653a2063616e6e6f74206769766520746f2073656c66000000000000006044820152606401610666565b611ac93387878787876121ca565b61013554604051633664a8e960e01b81526000916001600160a01b031690633664a8e990611afd90899089906004016131dc565b602060405180830381865afa158015611b1a573d6000803e3d6000fd5b505050506040513d601f19601f82011682018060405250810190611b3e9190613236565b6101355460405163b2a0cb6b60e01b81526004810183905291925033916001600160a01b039091169063b2a0cb6b90602401602060405180830381865afa158015611b8d573d6000803e3d6000fd5b505050506040513d601f19601f82011682018060405250810190611bb1919061315f565b6001600160a01b031614611bfc5760405162461bcd60e51b815260206004820152601260248201527119da5d994e881d5b985d5d1a1bdc9a5e995960721b6044820152606401610666565b6114bf87878784611f4e565b611c1061211e565b6001600160a01b038116611c755760405162461bcd60e51b815260206004820152602660248201527f4f776e61626c653a206e6577206f776e657220697320746865207a65726f206160448201526564647265737360d01b6064820152608401610666565b6108ff81612178565b6000806000611c8d85856123f8565b90925090506000816004811115611ca657611ca6613433565b148015611cc45750856001600160a01b0316826001600160a01b0316145b15611cd4576001925050506114fa565b600080876001600160a01b0316631626ba7e60e01b8888604051602401611cfc929190613449565b60408051601f198184030181529181526020820180516001600160e01b03166001600160e01b0319909416939093179092529051611d3a9190613462565b600060405180830381855afa9150503d8060008114611d75576040519150601f19603f3d011682016040523d82523d6000602084013e611d7a565b606091505b5091509150818015611d8d575080516020145b8015611db457508051630b135d3f60e11b90611db29083016020908101908401613236565b145b98975050505050505050565b600082611dcd8584612466565b14949350505050565b6108ff61211e565b7f4910fdfa16fed3260ed0e7147f7cc6da11a60208b5b9406d12a635614ffd91435460ff1615611e1657611e11836124b3565b505050565b826001600160a01b03166352d1902d6040518163ffffffff1660e01b8152600401602060405180830381865afa925050508015611e70575060408051601f3d908101601f19168201909252611e6d91810190613236565b60015b611ed35760405162461bcd60e51b815260206004820152602e60248201527f45524331393637557067726164653a206e657720696d706c656d656e7461746960448201526d6f6e206973206e6f74205555505360901b6064820152608401610666565b6000805160206135358339815191528114611f425760405162461bcd60e51b815260206004820152602960248201527f45524331393637557067726164653a20756e737570706f727465642070726f786044820152681a58589b195555525160ba1b6064820152608401610666565b50611e1183838361254f565b600081600003611fa05760405162461bcd60e51b815260206004820152601c60248201527f6d696e743a2073706563206973206e6f742072656769737465726564000000006044820152606401610666565b6000611fad8686866114ca565b600081815261013260205260409020549091506001600160a01b03161561200d5760405162461bcd60e51b81526020600482015260146024820152736d696e743a20746f6b656e49442065786973747360601b6044820152606401610666565b6001600160a01b03861660009081526101346020526040812080549161203283613494565b909155505060008181526101326020908152604080832080546001600160a01b0319166001600160a01b038b161790556101339091529020612075858783613373565b5060405181906001600160a01b038816906000907fddf252ad1be2c89b69c2b068fc378daa952ba7f163c4a11628f55a4df523b3ef908290a46101355460405163fb74926160e01b815260048101839052602481018590526001600160a01b039091169063fb74926190604401600060405180830381600087803b1580156120fc57600080fd5b505af1158015612110573d6000803e3d6000fd5b509298975050505050505050565b60c9546001600160a01b03163314610fce5760405162461bcd60e51b815260206004820181905260248201527f4f776e61626c653a2063616c6c6572206973206e6f7420746865206f776e65726044820152606401610666565b60c980546001600160a01b038381166001600160a01b0319831681179093556040519116919082907f8be0079c531659141344cd1fd0a4f28419497f9722a3daafe3b4186f6b6457e090600090a35050565b612216856121da888888886119f1565b84848080601f016020809104026020016040519081016040528093929190818152602001838380828437600092019190915250611c7e92505050565b6122705760405162461bcd60e51b815260206004820152602560248201527f73616665436865636b41677265656d656e743a20696e76616c6964207369676e604482015264617475726560d81b6064820152608401610666565b505050505050565b600061059661228561257a565b8360405161190160f01b6020820152602281018390526042810182905260009060620160405160208183030381529060405280519060200120905092915050565b600081815261013260209081526040808320546001600160a01b03168084526101349092528220805491926001926122ff9084906134ad565b909155505060008281526101326020908152604080832080546001600160a01b031916905561013390915281206123359161291a565b60405182906000906001600160a01b038416907fddf252ad1be2c89b69c2b068fc378daa952ba7f163c4a11628f55a4df523b3ef908390a45050565b600054610100900460ff16610fce5760405162461bcd60e51b8152600401610666906134c0565b600054610100900460ff166123bf5760405162461bcd60e51b8152600401610666906134c0565b610fce6125b6565b600054610100900460ff166123ee5760405162461bcd60e51b8152600401610666906134c0565b610e2582826125e6565b600080825160410361242e5760208301516040840151606085015160001a61242287828585612627565b9450945050505061245f565b8251604003612457576020830151604084015161244c868383612714565b93509350505061245f565b506000905060025b9250929050565b600081815b84518110156124ab576124978286838151811061248a5761248a61350b565b602002602001015161274d565b9150806124a381613494565b91505061246b565b509392505050565b6001600160a01b0381163b6125205760405162461bcd60e51b815260206004820152602d60248201527f455243313936373a206e657720696d706c656d656e746174696f6e206973206e60448201526c1bdd08184818dbdb9d1c9858dd609a1b6064820152608401610666565b60008051602061353583398151915280546001600160a01b0319166001600160a01b0392909216919091179055565b61255883612779565b6000825111806125655750805b15611e115761257483836127b9565b50505050565b60006125b17f8b73c3c69bb8fe3d512ecc4cf759cc79239f7b179b0ffacaa9a75d522b39400f6125a960fb5490565b60fc546128ad565b905090565b600054610100900460ff166125dd5760405162461bcd60e51b8152600401610666906134c0565b610fce33612178565b600054610100900460ff1661260d5760405162461bcd60e51b8152600401610666906134c0565b81516020928301208151919092012060fb9190915560fc55565b6000807f7fffffffffffffffffffffffffffffff5d576e7357a4501ddfe92f46681b20a083111561265e575060009050600361270b565b8460ff16601b1415801561267657508460ff16601c14155b15612687575060009050600461270b565b6040805160008082526020820180845289905260ff881692820192909252606081018690526080810185905260019060a0016020604051602081039080840390855afa1580156126db573d6000803e3d6000fd5b5050604051601f1901519150506001600160a01b0381166127045760006001925092505061270b565b9150600090505b94509492505050565b6000806001600160ff1b0383168161273160ff86901c601b613521565b905061273f87828885612627565b935093505050935093915050565b60008183106127695760008281526020849052604090206114fa565b5060009182526020526040902090565b612782816124b3565b6040516001600160a01b038216907fbc7cd75a20ee27fd9adebab32041f755214dbc6bffa90cc0225b39da2e5c2d3b90600090a250565b60606001600160a01b0383163b6128215760405162461bcd60e51b815260206004820152602660248201527f416464726573733a2064656c65676174652063616c6c20746f206e6f6e2d636f6044820152651b9d1c9858dd60d21b6064820152608401610666565b600080846001600160a01b03168460405161283c9190613462565b600060405180830381855af49150503d8060008114612877576040519150601f19603f3d011682016040523d82523d6000602084013e61287c565b606091505b50915091506128a48282604051806060016040528060278152602001613555602791396128dc565b95945050505050565b6040805160208101859052908101839052606081018290524660808201523060a082015260009060c0016114e1565b606083156128eb5750816114fa565b6114fa83838151156129005781518083602001fd5b8060405162461bcd60e51b815260040161066691906129e2565b5080546129269061305e565b6000825580601f10612936575050565b601f0160209004906000526020600020908101906108ff91905b808211156129645760008155600101612950565b5090565b60006020828403121561297a57600080fd5b81356001600160e01b0319811681146114fa57600080fd5b60005b838110156129ad578181015183820152602001612995565b50506000910152565b600081518084526129ce816020860160208601612992565b601f01601f19169290920160200192915050565b6020815260006114fa60208301846129b6565b600060208284031215612a0757600080fd5b5035919050565b6001600160a01b03811681146108ff57600080fd5b60008083601f840112612a3557600080fd5b5081356001600160401b03811115612a4c57600080fd5b60208301915083602082850101111561245f57600080fd5b60008083601f840112612a7657600080fd5b5081356001600160401b03811115612a8d57600080fd5b6020830191508360208260051b850101111561245f57600080fd5b600080600080600080600080600060c08a8c031215612ac657600080fd5b8935612ad181612a0e565b985060208a0135612ae181612a0e565b975060408a01356001600160401b0380821115612afd57600080fd5b612b098d838e01612a23565b909950975060608c0135915080821115612b2257600080fd5b612b2e8d838e01612a23565b909750955060808c0135945060a08c0135915080821115612b4e57600080fd5b50612b5b8c828d01612a64565b915080935050809150509295985092959850929598565b600060208284031215612b8457600080fd5b81356114fa81612a0e565b600080600060408486031215612ba457600080fd5b83356001600160401b03811115612bba57600080fd5b612bc686828701612a23565b909790965060209590950135949350505050565b60008060008060008060008060a0898b031215612bf657600080fd5b8835612c0181612a0e565b975060208901356001600160401b0380821115612c1d57600080fd5b612c298c838d01612a23565b909950975060408b0135915080821115612c4257600080fd5b612c4e8c838d01612a23565b909750955060608b0135945060808b0135915080821115612c6e57600080fd5b50612c7b8b828c01612a64565b999c989b5096995094979396929594505050565b634e487b7160e01b600052604160045260246000fd5b60008060408385031215612cb857600080fd5b8235612cc381612a0e565b915060208301356001600160401b0380821115612cdf57600080fd5b818501915085601f830112612cf357600080fd5b813581811115612d0557612d05612c8f565b604051601f8201601f19908116603f01168101908382118183101715612d2d57612d2d612c8f565b81604052828152886020848701011115612d4657600080fd5b8260208601602083013760006020848301015280955050505050509250929050565b600080600060608486031215612d7d57600080fd5b8335925060208401359150604084013560ff81168114612d9c57600080fd5b809150509250925092565b60008060408385031215612dba57600080fd5b50508035926020909101359150565b600080600080600060608688031215612de157600080fd5b8535612dec81612a0e565b945060208601356001600160401b0380821115612e0857600080fd5b612e1489838a01612a23565b90965094506040880135915080821115612e2d57600080fd5b50612e3a88828901612a23565b969995985093965092949392505050565b600080600060408486031215612e6057600080fd5b8335612e6b81612a0e565b925060208401356001600160401b03811115612e8657600080fd5b612e9286828701612a23565b9497909650939450505050565b60008060008060608587031215612eb557600080fd5b8435612ec081612a0e565b935060208501356001600160401b03811115612edb57600080fd5b612ee787828801612a23565b9598909750949560400135949350505050565b60008060208385031215612f0d57600080fd5b82356001600160401b03811115612f2357600080fd5b612f2f85828601612a64565b90969095509350505050565b60008060008060008060008060a0898b031215612f5757600080fd5b88356001600160401b0380821115612f6e57600080fd5b612f7a8c838d01612a23565b909a50985060208b0135915080821115612f9357600080fd5b612f9f8c838d01612a23565b909850965060408b0135915080821115612fb857600080fd5b50612fc58b828c01612a23565b9095509350506060890135612fd981612a0e565b91506080890135612fe981612a0e565b809150509295985092959890939650565b6000806000806060858703121561301057600080fd5b843561301b81612a0e565b9350602085013561302b81612a0e565b925060408501356001600160401b0381111561304657600080fd5b61305287828801612a23565b95989497509550505050565b600181811c9082168061307257607f821691505b60208210810361069057634e487b7160e01b600052602260045260246000fd5b6020808252818101527f746f6b656e4578697374733a20746f6b656e20646f65736e2774206578697374604082015260600190565b6020808252602c908201527f46756e6374696f6e206d7573742062652063616c6c6564207468726f7567682060408201526b19195b1959d85d1958d85b1b60a21b606082015260800190565b6020808252602c908201527f46756e6374696f6e206d7573742062652063616c6c6564207468726f7567682060408201526b6163746976652070726f787960a01b606082015260800190565b60006020828403121561317157600080fd5b81516114fa81612a0e565b6020808252601f908201527f73656e6465724973526166744f776e65723a20756e617574686f72697a656400604082015260600190565b81835281816020850137506000828201602090810191909152601f909101601f19169091010190565b60208152600061158e6020830184866131b3565b60006020828403121561320257600080fd5b815180151581146114fa57600080fd5b6040815260006132266040830185876131b3565b9050826020830152949350505050565b60006020828403121561324857600080fd5b5051919050565b6001600160a01b038416815260406020820181905260009061158b90830184866131b3565b8183823760009101908152919050565b6040808252810183905260006060600585901b8301810190830186835b8781101561331457858403605f190183528135368a9003601e190181126132c757600080fd5b890160208181019135906001600160401b038211156132e557600080fd5b8136038313156132f457600080fd5b6132ff8783856131b3565b965094850194939093019250506001016132a1565b5050506001600160a01b0384166020840152905061158e565b601f821115611e1157600081815260208120601f850160051c810160208610156133545750805b601f850160051c820191505b8181101561227057828155600101613360565b6001600160401b0383111561338a5761338a612c8f565b61339e83613398835461305e565b8361332d565b6000601f8411600181146133d257600085156133ba5750838201355b600019600387901b1c1916600186901b17835561342c565b600083815260209020601f19861690835b8281101561340357868501358255602094850194600190920191016133e3565b50868210156134205760001960f88860031b161c19848701351681555b505060018560011b0183555b5050505050565b634e487b7160e01b600052602160045260246000fd5b82815260406020820152600061158e60408301846129b6565b60008251613474818460208701612992565b9190910192915050565b634e487b7160e01b600052601160045260246000fd5b6000600182016134a6576134a661347e565b5060010190565b818103818111156105965761059661347e565b6020808252602b908201527f496e697469616c697a61626c653a20636f6e7472616374206973206e6f74206960408201526a6e697469616c697a696e6760a81b606082015260800190565b634e487b7160e01b600052603260045260246000fd5b808201808211156105965761059661347e56fe360894a13ba1a3210667c828492db98dca3e2076cc3735a920a3ca505d382bbc416464726573733a206c6f772d6c6576656c2064656c65676174652063616c6c206661696c6564a2646970667358221220b6e9c9b3c725a7d6d1a9d1bc554656c25c872132858c6cd61b37d8cf790bec7864736f6c63430008100033",
    "linkReferences": {}
  },
  "methodIdentifiers": {
    "balanceOf(address)": "70a08231",
    "createSpec(string,uint256)": "445a62b9",
    "getAgreementHash(address,address,string)": "e4992506",
    "getBadgeIdHash(address,string)": "a8cf8683",
    "getDataHolderAddress()": "635ad993",
    "getMerkleAgreementHash(address,string,bytes32)": "bd6645e4",
    "give(address,string,bytes)": "ec64948e",
    "initialize(string,string,string,address,address)": "d6d0faee",
    "isBadgeValid(uint256)": "0f4d9b01",
    "merkleTake(address,string,bytes,bytes32,bytes32[])": "4a086b53",
    "name()": "06fdde03",
    "owner()": "8da5cb5b",
    "ownerOf(uint256)": "6352211e",
    "proxiableUUID()": "52d1902d",
    "refreshMetadata(string[])": "bdbdbcbf",
    "reinstateBadge(uint256,uint256)": "80956c7e",
    "renounceOwnership()": "715018a6",
    "revokeBadge(uint256,uint256,uint8)": "7c402f8d",
    "safeCheckMerkleAgreement(address,address,string,bytes,bytes32,bytes32[])": "22e7d2ee",
    "setDataHolder(address)": "c0184112",
    "supportsInterface(bytes4)": "01ffc9a7",
    "symbol()": "95d89b41",
    "take(address,string,bytes)": "a3947803",
    "tokenURI(uint256)": "c87b56dd",
    "transferOwnership(address)": "f2fde38b",
    "unequip(uint256)": "d179e3d0",
    "upgradeTo(address)": "3659cfe6",
    "upgradeToAndCall(address,bytes)": "4f1ef286"
  },
  "id": 46
}