{
  "abi": [
    {
      "inputs": [],
      "stateMutability": "nonpayable",
      "type": "constructor"
    },
    {
      "anonymous": false,
      "inputs": [
        {
          "indexed": false,
          "internalType": "address",
          "name": "previousAdmin",
          "type": "address"
        },
        {
          "indexed": false,
          "internalType": "address",
          "name": "newAdmin",
          "type": "address"
        }
      ],
      "name": "AdminChanged",
      "type": "event"
    },
    {
      "anonymous": false,
      "inputs": [
        {
          "indexed": true,
          "internalType": "uint256",
          "name": "tokenId",
          "type": "uint256"
        },
        {
          "indexed": true,
          "internalType": "address",
          "name": "from",
          "type": "address"
        }
      ],
      "name": "BadgeReinstated",
      "type": "event"
    },
    {
      "anonymous": false,
      "inputs": [
        {
          "indexed": true,
          "internalType": "uint256",
          "name": "tokenId",
          "type": "uint256"
        },
        {
          "indexed": true,
          "internalType": "address",
          "name": "from",
          "type": "address"
        },
        {
          "indexed": true,
          "internalType": "uint8",
          "name": "reason",
          "type": "uint8"
        }
      ],
      "name": "BadgeRevoked",
      "type": "event"
    },
    {
      "anonymous": false,
      "inputs": [
        {
          "indexed": true,
          "internalType": "address",
          "name": "beacon",
          "type": "address"
        }
      ],
      "name": "BeaconUpgraded",
      "type": "event"
    },
    {
      "anonymous": false,
      "inputs": [
        {
          "indexed": false,
          "internalType": "uint8",
          "name": "version",
          "type": "uint8"
        }
      ],
      "name": "Initialized",
      "type": "event"
    },
    {
      "anonymous": false,
      "inputs": [
        {
          "indexed": true,
          "internalType": "address",
          "name": "previousOwner",
          "type": "address"
        },
        {
          "indexed": true,
          "internalType": "address",
          "name": "newOwner",
          "type": "address"
        }
      ],
      "name": "OwnershipTransferred",
      "type": "event"
    },
    {
      "anonymous": false,
      "inputs": [
        {
          "indexed": false,
          "internalType": "string[]",
          "name": "specUris",
          "type": "string[]"
        },
        {
          "indexed": false,
          "internalType": "address",
          "name": "sender",
          "type": "address"
        }
      ],
      "name": "RefreshMetadata",
      "type": "event"
    },
    {
      "anonymous": false,
      "inputs": [
        {
          "indexed": true,
          "internalType": "address",
          "name": "to",
          "type": "address"
        },
        {
          "indexed": false,
          "internalType": "string",
          "name": "specUri",
          "type": "string"
        },
        {
          "indexed": true,
          "internalType": "uint256",
          "name": "raftTokenId",
          "type": "uint256"
        },
        {
          "indexed": true,
          "internalType": "address",
          "name": "raftAddress",
          "type": "address"
        }
      ],
      "name": "SpecCreated",
      "type": "event"
    },
    {
      "anonymous": false,
      "inputs": [
        {
          "indexed": true,
          "internalType": "address",
          "name": "from",
          "type": "address"
        },
        {
          "indexed": true,
          "internalType": "address",
          "name": "to",
          "type": "address"
        },
        {
          "indexed": true,
          "internalType": "uint256",
          "name": "tokenId",
          "type": "uint256"
        }
      ],
      "name": "Transfer",
      "type": "event"
    },
    {
      "anonymous": false,
      "inputs": [
        {
          "indexed": true,
          "internalType": "address",
          "name": "implementation",
          "type": "address"
        }
      ],
      "name": "Upgraded",
      "type": "event"
    },
    {
      "inputs": [
        {
          "internalType": "address",
          "name": "_owner",
          "type": "address"
        }
      ],
      "name": "balanceOf",
      "outputs": [
        {
          "internalType": "uint256",
          "name": "",
          "type": "uint256"
        }
      ],
      "stateMutability": "view",
      "type": "function"
    },
    {
      "inputs": [
        {
          "internalType": "string",
          "name": "_specUri",
          "type": "string"
        },
        {
          "internalType": "uint256",
          "name": "_raftTokenId",
          "type": "uint256"
        }
      ],
      "name": "createSpec",
      "outputs": [],
      "stateMutability": "nonpayable",
      "type": "function"
    },
    {
      "inputs": [
        {
          "internalType": "address",
          "name": "_from",
          "type": "address"
        },
        {
          "internalType": "address",
          "name": "_to",
          "type": "address"
        },
        {
          "internalType": "string",
          "name": "_uri",
          "type": "string"
        }
      ],
      "name": "getAgreementHash",
      "outputs": [
        {
          "internalType": "bytes32",
          "name": "",
          "type": "bytes32"
        }
      ],
      "stateMutability": "view",
      "type": "function"
    },
    {
      "inputs": [
        {
          "internalType": "address",
          "name": "_to",
          "type": "address"
        },
        {
          "internalType": "string",
          "name": "_uri",
          "type": "string"
        }
      ],
      "name": "getBadgeIdHash",
      "outputs": [
        {
          "internalType": "bytes32",
          "name": "",
          "type": "bytes32"
        }
      ],
      "stateMutability": "view",
      "type": "function"
    },
    {
      "inputs": [],
      "name": "getDataHolderAddress",
      "outputs": [
        {
          "internalType": "address",
          "name": "",
          "type": "address"
        }
      ],
      "stateMutability": "view",
      "type": "function"
    },
    {
      "inputs": [
        {
          "internalType": "uint256",
          "name": "_tokenId",
          "type": "uint256"
        }
      ],
      "name": "getVoucherHash",
      "outputs": [
        {
          "internalType": "uint256",
          "name": "",
          "type": "uint256"
        }
      ],
      "stateMutability": "view",
      "type": "function"
    },
    {
      "inputs": [
        {
          "internalType": "address",
          "name": "_to",
          "type": "address"
        },
        {
          "internalType": "string",
          "name": "_uri",
          "type": "string"
        },
        {
          "internalType": "bytes",
          "name": "_signature",
          "type": "bytes"
        }
      ],
      "name": "give",
      "outputs": [
        {
          "internalType": "uint256",
          "name": "",
          "type": "uint256"
        }
      ],
      "stateMutability": "nonpayable",
      "type": "function"
    },
    {
      "inputs": [
        {
          "internalType": "string",
          "name": "_name",
          "type": "string"
        },
        {
          "internalType": "string",
          "name": "_symbol",
          "type": "string"
        },
        {
          "internalType": "string",
          "name": "_version",
          "type": "string"
        },
        {
          "internalType": "address",
          "name": "_nextOwner",
          "type": "address"
        },
        {
          "internalType": "address",
          "name": "_specDataHolderAddress",
          "type": "address"
        }
      ],
      "name": "initialize",
      "outputs": [],
      "stateMutability": "nonpayable",
      "type": "function"
    },
    {
      "inputs": [
        {
          "internalType": "uint256",
          "name": "_badgeId",
          "type": "uint256"
        }
      ],
      "name": "isBadgeValid",
      "outputs": [
        {
          "internalType": "bool",
          "name": "",
          "type": "bool"
        }
      ],
      "stateMutability": "view",
      "type": "function"
    },
    {
      "inputs": [],
      "name": "name",
      "outputs": [
        {
          "internalType": "string",
          "name": "",
          "type": "string"
        }
      ],
      "stateMutability": "view",
      "type": "function"
    },
    {
      "inputs": [],
      "name": "owner",
      "outputs": [
        {
          "internalType": "address",
          "name": "",
          "type": "address"
        }
      ],
      "stateMutability": "view",
      "type": "function"
    },
    {
      "inputs": [
        {
          "internalType": "uint256",
          "name": "_tokenId",
          "type": "uint256"
        }
      ],
      "name": "ownerOf",
      "outputs": [
        {
          "internalType": "address",
          "name": "",
          "type": "address"
        }
      ],
      "stateMutability": "view",
      "type": "function"
    },
    {
      "inputs": [],
      "name": "proxiableUUID",
      "outputs": [
        {
          "internalType": "bytes32",
          "name": "",
          "type": "bytes32"
        }
      ],
      "stateMutability": "view",
      "type": "function"
    },
    {
      "inputs": [
        {
          "internalType": "string[]",
          "name": "_specUris",
          "type": "string[]"
        }
      ],
      "name": "refreshMetadata",
      "outputs": [],
      "stateMutability": "nonpayable",
      "type": "function"
    },
    {
      "inputs": [
        {
          "internalType": "uint256",
          "name": "_raftTokenId",
          "type": "uint256"
        },
        {
          "internalType": "uint256",
          "name": "_badgeId",
          "type": "uint256"
        }
      ],
      "name": "reinstateBadge",
      "outputs": [],
      "stateMutability": "nonpayable",
      "type": "function"
    },
    {
      "inputs": [],
      "name": "renounceOwnership",
      "outputs": [],
      "stateMutability": "nonpayable",
      "type": "function"
    },
    {
      "inputs": [
        {
          "internalType": "uint256",
          "name": "_raftTokenId",
          "type": "uint256"
        },
        {
          "internalType": "uint256",
          "name": "_badgeId",
          "type": "uint256"
        },
        {
          "internalType": "uint8",
          "name": "_reason",
          "type": "uint8"
        }
      ],
      "name": "revokeBadge",
      "outputs": [],
      "stateMutability": "nonpayable",
      "type": "function"
    },
    {
      "inputs": [
        {
          "internalType": "address",
          "name": "_dataHolder",
          "type": "address"
        }
      ],
      "name": "setDataHolder",
      "outputs": [],
      "stateMutability": "nonpayable",
      "type": "function"
    },
    {
      "inputs": [
        {
          "internalType": "bytes4",
          "name": "_interfaceId",
          "type": "bytes4"
        }
      ],
      "name": "supportsInterface",
      "outputs": [
        {
          "internalType": "bool",
          "name": "",
          "type": "bool"
        }
      ],
      "stateMutability": "view",
      "type": "function"
    },
    {
      "inputs": [],
      "name": "symbol",
      "outputs": [
        {
          "internalType": "string",
          "name": "",
          "type": "string"
        }
      ],
      "stateMutability": "view",
      "type": "function"
    },
    {
      "inputs": [
        {
          "internalType": "address",
          "name": "_from",
          "type": "address"
        },
        {
          "internalType": "string",
          "name": "_uri",
          "type": "string"
        },
        {
          "internalType": "bytes",
          "name": "_signature",
          "type": "bytes"
        }
      ],
      "name": "take",
      "outputs": [
        {
          "internalType": "uint256",
          "name": "",
          "type": "uint256"
        }
      ],
      "stateMutability": "nonpayable",
      "type": "function"
    },
    {
      "inputs": [
        {
          "internalType": "uint256",
          "name": "_tokenId",
          "type": "uint256"
        }
      ],
      "name": "tokenURI",
      "outputs": [
        {
          "internalType": "string",
          "name": "",
          "type": "string"
        }
      ],
      "stateMutability": "view",
      "type": "function"
    },
    {
      "inputs": [
        {
          "internalType": "address",
          "name": "newOwner",
          "type": "address"
        }
      ],
      "name": "transferOwnership",
      "outputs": [],
      "stateMutability": "nonpayable",
      "type": "function"
    },
    {
      "inputs": [
        {
          "internalType": "uint256",
          "name": "_tokenId",
          "type": "uint256"
        }
      ],
      "name": "unequip",
      "outputs": [],
      "stateMutability": "nonpayable",
      "type": "function"
    },
    {
      "inputs": [
        {
          "internalType": "address",
          "name": "newImplementation",
          "type": "address"
        }
      ],
      "name": "upgradeTo",
      "outputs": [],
      "stateMutability": "nonpayable",
      "type": "function"
    },
    {
      "inputs": [
        {
          "internalType": "address",
          "name": "newImplementation",
          "type": "address"
        },
        {
          "internalType": "bytes",
          "name": "data",
          "type": "bytes"
        }
      ],
      "name": "upgradeToAndCall",
      "outputs": [],
      "stateMutability": "payable",
      "type": "function"
    }
  ],
  "bytecode": {
    "object": "0x60a0604052306080523480156200001557600080fd5b506200002062000026565b620000e8565b600054610100900460ff1615620000935760405162461bcd60e51b815260206004820152602760248201527f496e697469616c697a61626c653a20636f6e747261637420697320696e697469604482015266616c697a696e6760c81b606482015260840160405180910390fd5b60005460ff9081161015620000e6576000805460ff191660ff9081179091556040519081527f7f26b83ff96e1f2b6a682f133852f6798a09c465da95921460cefb38474024989060200160405180910390a15b565b608051613122620001206000396000818161063801528181610678015281816109f301528181610a330152610ac601526131226000f3fe6080604052600436106101815760003560e01c806380956c7e116100d1578063c01841121161008a578063d6d0faee11610064578063d6d0faee14610462578063e499250614610482578063ec64948e146104a2578063f2fde38b146104c257600080fd5b8063c018411214610402578063c87b56dd14610422578063d179e3d01461044257600080fd5b806380956c7e1461034f5780638da5cb5b1461036f57806395d89b411461038d578063a3947803146103a2578063a8cf8683146103c2578063bdbdbcbf146103e257600080fd5b80634f1ef2861161013e578063635ad99311610118578063635ad993146102db57806370a08231146102fa578063715018a61461031a5780637c402f8d1461032f57600080fd5b80634f1ef2861461027b57806352d1902d1461028e5780636352211e146102a357600080fd5b806301ffc9a71461018657806306fdde03146101bb5780630f4d9b01146101dd5780633659cfe6146101fd5780633b363a091461021f578063445a62b91461025b575b600080fd5b34801561019257600080fd5b506101a66101a13660046126c9565b6104e2565b60405190151581526020015b60405180910390f35b3480156101c757600080fd5b506101d0610534565b6040516101b29190612743565b3480156101e957600080fd5b506101a66101f8366004612756565b6105c7565b34801561020957600080fd5b5061021d610218366004612784565b61062e565b005b34801561022b57600080fd5b5061024d61023a366004612756565b6000908152610136602052604090205490565b6040519081526020016101b2565b34801561026757600080fd5b5061021d610276366004612860565b61070d565b61021d6102893660046128a5565b6109e9565b34801561029a57600080fd5b5061024d610ab9565b3480156102af57600080fd5b506102c36102be366004612756565b610b6c565b6040516001600160a01b0390911681526020016101b2565b3480156102e757600080fd5b50610135546001600160a01b03166102c3565b34801561030657600080fd5b5061024d610315366004612784565b610bc1565b34801561032657600080fd5b5061021d610c4c565b34801561033b57600080fd5b5061021d61034a366004612909565b610c60565b34801561035b57600080fd5b5061021d61036a366004612948565b610e4a565b34801561037b57600080fd5b5060c9546001600160a01b03166102c3565b34801561039957600080fd5b506101d061102d565b3480156103ae57600080fd5b5061024d6103bd3660046129ac565b61103d565b3480156103ce57600080fd5b5061024d6103dd366004612a2f565b611270565b3480156103ee57600080fd5b5061021d6103fd366004612a75565b6112a3565b34801561040e57600080fd5b5061021d61041d366004612784565b611347565b34801561042e57600080fd5b506101d061043d366004612756565b611372565b34801561044e57600080fd5b5061021d61045d366004612756565b611479565b34801561046e57600080fd5b5061021d61047d366004612b2b565b611555565b34801561048e57600080fd5b5061024d61049d366004612bdb565b6116c6565b3480156104ae57600080fd5b5061024d6104bd3660046129ac565b61175f565b3480156104ce57600080fd5b5061021d6104dd366004612784565b61194a565b60006001600160e01b03198216635b5e139f60e01b148061051357506001600160e01b031982166346bdd63960e11b145b8061052e57506301ffc9a760e01b6001600160e01b03198316145b92915050565b6060610130805461054490612c40565b80601f016020809104026020016040519081016040528092919081815260200182805461057090612c40565b80156105bd5780601f10610592576101008083540402835291602001916105bd565b820191906000526020600020905b8154815290600101906020018083116105a057829003601f168201915b5050505050905090565b6000818152610132602052604081205482906001600160a01b03166106075760405162461bcd60e51b81526004016105fe90612c74565b60405180910390fd5b600883901c60009081526101376020526040902054600160ff85161b161591505b50919050565b6001600160a01b037f00000000000000000000000000000000000000000000000000000000000000001630036106765760405162461bcd60e51b81526004016105fe90612ca9565b7f00000000000000000000000000000000000000000000000000000000000000006001600160a01b03166106bf6000805160206130a6833981519152546001600160a01b031690565b6001600160a01b0316146106e55760405162461bcd60e51b81526004016105fe90612cf5565b6106ee816119c0565b6040805160008082526020820190925261070a918391906119c8565b50565b806040518060400160405280600a8152602001696372656174655370656360b01b8152506000816040516020016107449190612d41565b60408051808303601f19018152908290526101355463b2a0cb6b60e01b83526004830186905290925033916001600160a01b039091169063b2a0cb6b90602401602060405180830381865afa1580156107a1573d6000803e3d6000fd5b505050506040513d601f19601f820116820180604052508101906107c59190612d73565b6001600160a01b03161481906107ee5760405162461bcd60e51b81526004016105fe9190612743565b5061013554604051637e07102760e11b81526001600160a01b039091169063fc0e204e90610820908890600401612743565b602060405180830381865afa15801561083d573d6000803e3d6000fd5b505050506040513d601f19601f820116820180604052508101906108619190612d90565b156108ba5760405162461bcd60e51b815260206004820152602360248201527f637265617465537065633a207370656320616c726561647920726567697374656044820152621c995960ea1b60648201526084016105fe565b6101355460405163addd190760e01b81526001600160a01b039091169063addd1907906108ed9088908890600401612db2565b600060405180830381600087803b15801561090757600080fd5b505af115801561091b573d6000803e3d6000fd5b5050505061013560009054906101000a90046001600160a01b03166001600160a01b03166334f876626040518163ffffffff1660e01b8152600401602060405180830381865afa158015610973573d6000803e3d6000fd5b505050506040513d601f19601f820116820180604052508101906109979190612d73565b6001600160a01b031684336001600160a01b03167f68c7f8503283c455a4445b54a7d5c40656c8cae5cca0583c6d4be83698478700886040516109da9190612743565b60405180910390a45050505050565b6001600160a01b037f0000000000000000000000000000000000000000000000000000000000000000163003610a315760405162461bcd60e51b81526004016105fe90612ca9565b7f00000000000000000000000000000000000000000000000000000000000000006001600160a01b0316610a7a6000805160206130a6833981519152546001600160a01b031690565b6001600160a01b031614610aa05760405162461bcd60e51b81526004016105fe90612cf5565b610aa9826119c0565b610ab5828260016119c8565b5050565b6000306001600160a01b037f00000000000000000000000000000000000000000000000000000000000000001614610b595760405162461bcd60e51b815260206004820152603860248201527f555550535570677261646561626c653a206d757374206e6f742062652063616c60448201527f6c6564207468726f7567682064656c656761746563616c6c000000000000000060648201526084016105fe565b506000805160206130a683398151915290565b6000818152610132602052604081205482906001600160a01b0316610ba35760405162461bcd60e51b81526004016105fe90612c74565b5050600090815261013260205260409020546001600160a01b031690565b60006001600160a01b038216610c2f5760405162461bcd60e51b815260206004820152602d60248201527f62616c616e63654f663a2061646472657373207a65726f206973206e6f74206160448201526c2076616c6964206f776e65725f60981b60648201526084016105fe565b506001600160a01b03166000908152610134602052604090205490565b610c54611b33565b610c5e6000611b8d565b565b6000828152610132602052604090205482906001600160a01b0316610c975760405162461bcd60e51b81526004016105fe90612c74565b836040518060400160405280600b81526020016a7265766f6b65426164676560a81b815250600081604051602001610ccf9190612d41565b60408051808303601f19018152908290526101355463b2a0cb6b60e01b83526004830186905290925033916001600160a01b039091169063b2a0cb6b90602401602060405180830381865afa158015610d2c573d6000803e3d6000fd5b505050506040513d601f19601f82011682018060405250810190610d509190612d73565b6001600160a01b0316148190610d795760405162461bcd60e51b81526004016105fe9190612743565b50600886901c60009081526101376020526040902054600160ff88161b1615610def5760405162461bcd60e51b815260206004820152602260248201527f7265766f6b6542616467653a20626164676520616c7265616479207265766f6b604482015261195960f21b60648201526084016105fe565b600886901c6000908152610137602052604090208054600160ff89161b17905560405160ff861690339088907ffa784c48260e8db512de5f055a2f29eced211a7b3bd6338058b095ada7354cee90600090a450505050505050565b6000818152610132602052604090205481906001600160a01b0316610e815760405162461bcd60e51b81526004016105fe90612c74565b826040518060400160405280600e81526020016d7265696e7374617465426164676560901b815250600081604051602001610ebc9190612d41565b60408051808303601f19018152908290526101355463b2a0cb6b60e01b83526004830186905290925033916001600160a01b039091169063b2a0cb6b90602401602060405180830381865afa158015610f19573d6000803e3d6000fd5b505050506040513d601f19601f82011682018060405250810190610f3d9190612d73565b6001600160a01b0316148190610f665760405162461bcd60e51b81526004016105fe9190612743565b50600885901c60009081526101376020526040902054600160ff87161b16610fda5760405162461bcd60e51b815260206004820152602160248201527f7265696e737461746542616467653a206261646765206e6f74207265766f6b656044820152601960fa1b60648201526084016105fe565b600885901c600090815261013760205260408082208054600160ff8a161b1916905551339187917f7f8cf9ecf2a5225948f8a1601709cedc8471c52ee75a8174c9845c29c99ed9a29190a3505050505050565b6060610131805461054490612c40565b60006001600160a01b03861633036110975760405162461bcd60e51b815260206004820152601b60248201527f74616b653a2063616e6e6f742074616b652066726f6d2073656c66000000000060448201526064016105fe565b61013554604051633664a8e960e01b81526000916001600160a01b031690633664a8e9906110cb9089908990600401612dd4565b602060405180830381865afa1580156110e8573d6000803e3d6000fd5b505050506040513d601f19601f8201168201806040525081019061110c9190612e03565b6101355460405163b2a0cb6b60e01b8152600481018390529192506000916001600160a01b039091169063b2a0cb6b90602401602060405180830381865afa15801561115c573d6000803e3d6000fd5b505050506040513d601f19601f820116820180604052508101906111809190612d73565b9050876001600160a01b0316816001600160a01b0316146111d85760405162461bcd60e51b81526020600482015260126024820152711d185ad94e881d5b985d5d1a1bdc9a5e995960721b60448201526064016105fe565b60006111e9338a8a8a8a8a89611bdf565b9050600061122f338a8a8080601f016020809104026020016040519081016040528093929190818152602001838380828437600092019190915250899250611d6e915050565b600883901c600090815261012f602052604090208054600160ff86161b17905590506000818152610136602052604090209190915598975050505050505050565b60008282604051602001611285929190612e1c565b60405160208183030381529060405280519060200120905092915050565b6112ab611b33565b600081511161130b5760405162461bcd60e51b815260206004820152602660248201527f726566726573684d657461646174613a206e6f207370656320757269732070726044820152651bdd9a59195960d21b60648201526084016105fe565b7f2231d988b1a75dccab13dee3564b71a551900e822e94177a96f19561890c0fd5813360405161133c929190612e48565b60405180910390a150565b61134f611b33565b61013580546001600160a01b0319166001600160a01b0392909216919091179055565b600081815261013260205260409020546060906001600160a01b03166113da5760405162461bcd60e51b815260206004820152601d60248201527f746f6b656e5552493a20746f6b656e20646f65736e277420657869737400000060448201526064016105fe565b60008281526101336020526040902080546113f490612c40565b80601f016020809104026020016040519081016040528092919081815260200182805461142090612c40565b801561146d5780601f106114425761010080835404028352916020019161146d565b820191906000526020600020905b81548152906001019060200180831161145057829003601f168201915b50505050509050919050565b6000818152610132602052604090205481906001600160a01b03166114b05760405162461bcd60e51b81526004016105fe90612c74565b600082815261013260205260409020546001600160a01b031633146115175760405162461bcd60e51b815260206004820152601d60248201527f756e65717569703a2073656e646572206d757374206265206f776e657200000060448201526064016105fe565b60008281526101366020908152604080832054600881901c845261012f9092529091208054600160ff84161b1916905561155083611efb565b505050565b600054610100900460ff16158080156115755750600054600160ff909116105b8061158f5750303b15801561158f575060005460ff166001145b6115f25760405162461bcd60e51b815260206004820152602e60248201527f496e697469616c697a61626c653a20636f6e747261637420697320616c72656160448201526d191e481a5b9a5d1a585b1a5e995960921b60648201526084016105fe565b6000805460ff191660011790558015611615576000805461ff0019166101001790555b6101306116228782612f03565b506101316116308682612f03565b5061013580546001600160a01b0319166001600160a01b038416179055611655611fb5565b61165d611fdc565b611667868561200b565b61166f611fb5565b6116788361194a565b80156116be576000805461ff0019169055604051600181527f7f26b83ff96e1f2b6a682f133852f6798a09c465da95921460cefb38474024989060200160405180910390a15b505050505050565b6000807fe76a195fbe43f0eaa611595069f780493db2202a1cc4b2d7d44b47069812998a868686866040516116fc929190612fc3565b604051908190038120611734949392916020019384526001600160a01b03928316602085015291166040830152606082015260800190565b6040516020818303038152906040528051906020012090506117558161203c565b9695505050505050565b61013554604051633664a8e960e01b815260009182916001600160a01b0390911690633664a8e9906117979089908990600401612dd4565b602060405180830381865afa1580156117b4573d6000803e3d6000fd5b505050506040513d601f19601f820116820180604052508101906117d89190612e03565b6101355460405163b2a0cb6b60e01b8152600481018390529192506000916001600160a01b039091169063b2a0cb6b90602401602060405180830381865afa158015611828573d6000803e3d6000fd5b505050506040513d601f19601f8201168201806040525081019061184c9190612d73565b90506001600160a01b038116331461189b5760405162461bcd60e51b815260206004820152601260248201527119da5d994e881d5b985d5d1a1bdc9a5e995960721b60448201526064016105fe565b6001600160a01b03881633036118f35760405162461bcd60e51b815260206004820152601960248201527f676976653a2063616e6e6f74206769766520746f2073656c660000000000000060448201526064016105fe565b6000611904338a8a8a8a8a89611bdf565b9050600061122f8a8a8a8080601f016020809104026020016040519081016040528093929190818152602001838380828437600092019190915250899250611d6e915050565b611952611b33565b6001600160a01b0381166119b75760405162461bcd60e51b815260206004820152602660248201527f4f776e61626c653a206e6577206f776e657220697320746865207a65726f206160448201526564647265737360d01b60648201526084016105fe565b61070a81611b8d565b61070a611b33565b7f4910fdfa16fed3260ed0e7147f7cc6da11a60208b5b9406d12a635614ffd91435460ff16156119fb576115508361204f565b826001600160a01b03166352d1902d6040518163ffffffff1660e01b8152600401602060405180830381865afa925050508015611a55575060408051601f3d908101601f19168201909252611a5291810190612e03565b60015b611ab85760405162461bcd60e51b815260206004820152602e60248201527f45524331393637557067726164653a206e657720696d706c656d656e7461746960448201526d6f6e206973206e6f74205555505360901b60648201526084016105fe565b6000805160206130a68339815191528114611b275760405162461bcd60e51b815260206004820152602960248201527f45524331393637557067726164653a20756e737570706f727465642070726f786044820152681a58589b195555525160ba1b60648201526084016105fe565b506115508383836120eb565b60c9546001600160a01b03163314610c5e5760405162461bcd60e51b815260206004820181905260248201527f4f776e61626c653a2063616c6c6572206973206e6f7420746865206f776e657260448201526064016105fe565b60c980546001600160a01b038381166001600160a01b0319831681179093556040519116919082907f8be0079c531659141344cd1fd0a4f28419497f9722a3daafe3b4186f6b6457e090600090a35050565b600081600003611c445760405162461bcd60e51b815260206004820152602a60248201527f73616665436865636b41677265656d656e743a2073706563206973206e6f74206044820152691c9959da5cdd195c995960b21b60648201526084016105fe565b6000611c52898989896116c6565b905060008160001c9050611c9d898388888080601f01602080910402602001604051908101604052809392919081815260200183838082843760009201919091525061211692505050565b611cf75760405162461bcd60e51b815260206004820152602560248201527f73616665436865636b41677265656d656e743a20696e76616c6964207369676e604482015264617475726560d81b60648201526084016105fe565b600881901c600090815261012f6020526040902054600160ff83161b1615611d615760405162461bcd60e51b815260206004820181905260248201527f73616665436865636b41677265656d656e743a20616c7265616479207573656460448201526064016105fe565b9998505050505050505050565b600080611d7b8585611270565b905080611da081600090815261013260205260409020546001600160a01b0316151590565b15611de45760405162461bcd60e51b81526020600482015260146024820152736d696e743a20746f6b656e49442065786973747360601b60448201526064016105fe565b6001600160a01b038616600090815261013460205260408120805460019290611e0e908490612fe9565b909155505060008181526101326020908152604080832080546001600160a01b0319166001600160a01b038b161790556101339091529020611e508682612f03565b5060405181906001600160a01b038816906000907fddf252ad1be2c89b69c2b068fc378daa952ba7f163c4a11628f55a4df523b3ef908290a46101355460405163fb74926160e01b815260048101839052602481018690526001600160a01b039091169063fb74926190604401600060405180830381600087803b158015611ed757600080fd5b505af1158015611eeb573d6000803e3d6000fd5b50929450505050505b9392505050565b600081815261013260209081526040808320546001600160a01b0316808452610134909252822080549192600192611f34908490612ffc565b909155505060008281526101326020908152604080832080546001600160a01b03191690556101339091528120611f6a9161267b565b60008281526101366020526040808220829055518391906001600160a01b038416907fddf252ad1be2c89b69c2b068fc378daa952ba7f163c4a11628f55a4df523b3ef908390a45050565b600054610100900460ff16610c5e5760405162461bcd60e51b81526004016105fe9061300f565b600054610100900460ff166120035760405162461bcd60e51b81526004016105fe9061300f565b610c5e612258565b600054610100900460ff166120325760405162461bcd60e51b81526004016105fe9061300f565b610ab58282612288565b600061052e6120496122c9565b83612349565b6001600160a01b0381163b6120bc5760405162461bcd60e51b815260206004820152602d60248201527f455243313936373a206e657720696d706c656d656e746174696f6e206973206e60448201526c1bdd08184818dbdb9d1c9858dd609a1b60648201526084016105fe565b6000805160206130a683398151915280546001600160a01b0319166001600160a01b0392909216919091179055565b6120f483612370565b6000825111806121015750805b156115505761211083836123b0565b50505050565b600080600061212585856124a4565b9092509050600081600481111561213e5761213e61305a565b14801561215c5750856001600160a01b0316826001600160a01b0316145b1561216c57600192505050611ef4565b600080876001600160a01b0316631626ba7e60e01b8888604051602401612194929190613070565b60408051601f198184030181529181526020820180516001600160e01b03166001600160e01b03199094169390931790925290516121d29190613089565b600060405180830381855afa9150503d806000811461220d576040519150601f19603f3d011682016040523d82523d6000602084013e612212565b606091505b5091509150818015612225575080516020145b801561224c57508051630b135d3f60e11b9061224a9083016020908101908401612e03565b145b98975050505050505050565b600054610100900460ff1661227f5760405162461bcd60e51b81526004016105fe9061300f565b610c5e33611b8d565b600054610100900460ff166122af5760405162461bcd60e51b81526004016105fe9061300f565b81516020928301208151919092012060fb9190915560fc55565b60006123447f8b73c3c69bb8fe3d512ecc4cf759cc79239f7b179b0ffacaa9a75d522b39400f6122f860fb5490565b60fc546040805160208101859052908101839052606081018290524660808201523060a082015260009060c0016040516020818303038152906040528051906020012090509392505050565b905090565b60405161190160f01b60208201526022810183905260428101829052600090606201611285565b6123798161204f565b6040516001600160a01b038216907fbc7cd75a20ee27fd9adebab32041f755214dbc6bffa90cc0225b39da2e5c2d3b90600090a250565b60606001600160a01b0383163b6124185760405162461bcd60e51b815260206004820152602660248201527f416464726573733a2064656c65676174652063616c6c20746f206e6f6e2d636f6044820152651b9d1c9858dd60d21b60648201526084016105fe565b600080846001600160a01b0316846040516124339190613089565b600060405180830381855af49150503d806000811461246e576040519150601f19603f3d011682016040523d82523d6000602084013e612473565b606091505b509150915061249b82826040518060600160405280602781526020016130c660279139612512565b95945050505050565b60008082516041036124da5760208301516040840151606085015160001a6124ce8782858561252b565b9450945050505061250b565b825160400361250357602083015160408401516124f8868383612618565b93509350505061250b565b506000905060025b9250929050565b60608315612521575081611ef4565b611ef48383612651565b6000807f7fffffffffffffffffffffffffffffff5d576e7357a4501ddfe92f46681b20a0831115612562575060009050600361260f565b8460ff16601b1415801561257a57508460ff16601c14155b1561258b575060009050600461260f565b6040805160008082526020820180845289905260ff881692820192909252606081018690526080810185905260019060a0016020604051602081039080840390855afa1580156125df573d6000803e3d6000fd5b5050604051601f1901519150506001600160a01b0381166126085760006001925092505061260f565b9150600090505b94509492505050565b6000806001600160ff1b0383168161263560ff86901c601b612fe9565b90506126438782888561252b565b935093505050935093915050565b8151156126615781518083602001fd5b8060405162461bcd60e51b81526004016105fe9190612743565b50805461268790612c40565b6000825580601f10612697575050565b601f01602090049060005260206000209081019061070a91905b808211156126c557600081556001016126b1565b5090565b6000602082840312156126db57600080fd5b81356001600160e01b031981168114611ef457600080fd5b60005b8381101561270e5781810151838201526020016126f6565b50506000910152565b6000815180845261272f8160208601602086016126f3565b601f01601f19169290920160200192915050565b602081526000611ef46020830184612717565b60006020828403121561276857600080fd5b5035919050565b6001600160a01b038116811461070a57600080fd5b60006020828403121561279657600080fd5b8135611ef48161276f565b634e487b7160e01b600052604160045260246000fd5b604051601f8201601f1916810167ffffffffffffffff811182821017156127e0576127e06127a1565b604052919050565b600067ffffffffffffffff831115612802576128026127a1565b612815601f8401601f19166020016127b7565b905082815283838301111561282957600080fd5b828260208301376000602084830101529392505050565b600082601f83011261285157600080fd5b611ef4838335602085016127e8565b6000806040838503121561287357600080fd5b823567ffffffffffffffff81111561288a57600080fd5b61289685828601612840565b95602094909401359450505050565b600080604083850312156128b857600080fd5b82356128c38161276f565b9150602083013567ffffffffffffffff8111156128df57600080fd5b8301601f810185136128f057600080fd5b6128ff858235602084016127e8565b9150509250929050565b60008060006060848603121561291e57600080fd5b8335925060208401359150604084013560ff8116811461293d57600080fd5b809150509250925092565b6000806040838503121561295b57600080fd5b50508035926020909101359150565b60008083601f84011261297c57600080fd5b50813567ffffffffffffffff81111561299457600080fd5b60208301915083602082850101111561250b57600080fd5b6000806000806000606086880312156129c457600080fd5b85356129cf8161276f565b9450602086013567ffffffffffffffff808211156129ec57600080fd5b6129f889838a0161296a565b90965094506040880135915080821115612a1157600080fd5b50612a1e8882890161296a565b969995985093965092949392505050565b60008060408385031215612a4257600080fd5b8235612a4d8161276f565b9150602083013567ffffffffffffffff811115612a6957600080fd5b6128ff85828601612840565b60006020808385031215612a8857600080fd5b823567ffffffffffffffff80821115612aa057600080fd5b818501915085601f830112612ab457600080fd5b813581811115612ac657612ac66127a1565b8060051b612ad58582016127b7565b9182528381018501918581019089841115612aef57600080fd5b86860192505b83831015611d6157823585811115612b0d5760008081fd5b612b1b8b89838a0101612840565b8352509186019190860190612af5565b600080600080600060a08688031215612b4357600080fd5b853567ffffffffffffffff80821115612b5b57600080fd5b612b6789838a01612840565b96506020880135915080821115612b7d57600080fd5b612b8989838a01612840565b95506040880135915080821115612b9f57600080fd5b50612bac88828901612840565b9350506060860135612bbd8161276f565b91506080860135612bcd8161276f565b809150509295509295909350565b60008060008060608587031215612bf157600080fd5b8435612bfc8161276f565b93506020850135612c0c8161276f565b9250604085013567ffffffffffffffff811115612c2857600080fd5b612c348782880161296a565b95989497509550505050565b600181811c90821680612c5457607f821691505b60208210810361062857634e487b7160e01b600052602260045260246000fd5b6020808252818101527f746f6b656e4578697374733a20746f6b656e20646f65736e2774206578697374604082015260600190565b6020808252602c908201527f46756e6374696f6e206d7573742062652063616c6c6564207468726f7567682060408201526b19195b1959d85d1958d85b1b60a21b606082015260800190565b6020808252602c908201527f46756e6374696f6e206d7573742062652063616c6c6564207468726f7567682060408201526b6163746976652070726f787960a01b606082015260800190565b60008251612d538184602087016126f3565b6d0e881d5b985d5d1a1bdc9a5e995960921b920191825250600e01919050565b600060208284031215612d8557600080fd5b8151611ef48161276f565b600060208284031215612da257600080fd5b81518015158114611ef457600080fd5b604081526000612dc56040830185612717565b90508260208301529392505050565b60208152816020820152818360408301376000818301604090810191909152601f909201601f19160101919050565b600060208284031215612e1557600080fd5b5051919050565b6001600160a01b0383168152604060208201819052600090612e4090830184612717565b949350505050565b6000604082016040835280855180835260608501915060608160051b8601019250602080880160005b83811015612e9f57605f19888703018552612e8d868351612717565b95509382019390820190600101612e71565b50506001600160a01b03969096169490950193909352949350505050565b601f82111561155057600081815260208120601f850160051c81016020861015612ee45750805b601f850160051c820191505b818110156116be57828155600101612ef0565b815167ffffffffffffffff811115612f1d57612f1d6127a1565b612f3181612f2b8454612c40565b84612ebd565b602080601f831160018114612f665760008415612f4e5750858301515b600019600386901b1c1916600185901b1785556116be565b600085815260208120601f198616915b82811015612f9557888601518255948401946001909101908401612f76565b5085821015612fb35787850151600019600388901b60f8161c191681555b5050505050600190811b01905550565b8183823760009101908152919050565b634e487b7160e01b600052601160045260246000fd5b8082018082111561052e5761052e612fd3565b8181038181111561052e5761052e612fd3565b6020808252602b908201527f496e697469616c697a61626c653a20636f6e7472616374206973206e6f74206960408201526a6e697469616c697a696e6760a81b606082015260800190565b634e487b7160e01b600052602160045260246000fd5b828152604060208201526000612e406040830184612717565b6000825161309b8184602087016126f3565b919091019291505056fe360894a13ba1a3210667c828492db98dca3e2076cc3735a920a3ca505d382bbc416464726573733a206c6f772d6c6576656c2064656c65676174652063616c6c206661696c6564a26469706673582212202f245511b6b13b67a03dd9c8b3ba24cc822882d3fcfc4b9e93fa940fb056ca2064736f6c63430008100033",
    "linkReferences": {}
  },
  "methodIdentifiers": {
    "balanceOf(address)": "70a08231",
    "createSpec(string,uint256)": "445a62b9",
    "getAgreementHash(address,address,string)": "e4992506",
    "getBadgeIdHash(address,string)": "a8cf8683",
    "getDataHolderAddress()": "635ad993",
    "getVoucherHash(uint256)": "3b363a09",
    "give(address,string,bytes)": "ec64948e",
    "initialize(string,string,string,address,address)": "d6d0faee",
    "isBadgeValid(uint256)": "0f4d9b01",
    "name()": "06fdde03",
    "owner()": "8da5cb5b",
    "ownerOf(uint256)": "6352211e",
    "proxiableUUID()": "52d1902d",
    "refreshMetadata(string[])": "bdbdbcbf",
    "reinstateBadge(uint256,uint256)": "80956c7e",
    "renounceOwnership()": "715018a6",
    "revokeBadge(uint256,uint256,uint8)": "7c402f8d",
    "setDataHolder(address)": "c0184112",
    "supportsInterface(bytes4)": "01ffc9a7",
    "symbol()": "95d89b41",
    "take(address,string,bytes)": "a3947803",
    "tokenURI(uint256)": "c87b56dd",
    "transferOwnership(address)": "f2fde38b",
    "unequip(uint256)": "d179e3d0",
    "upgradeTo(address)": "3659cfe6",
    "upgradeToAndCall(address,bytes)": "4f1ef286"
  },
  "id": 43
}