{
  "abi": [
    {
      "inputs": [],
      "stateMutability": "nonpayable",
      "type": "constructor"
    },
    {
      "anonymous": false,
      "inputs": [
        {
          "indexed": false,
          "internalType": "address",
          "name": "previousAdmin",
          "type": "address"
        },
        {
          "indexed": false,
          "internalType": "address",
          "name": "newAdmin",
          "type": "address"
        }
      ],
      "name": "AdminChanged",
      "type": "event"
    },
    {
      "anonymous": false,
      "inputs": [
        {
          "indexed": true,
          "internalType": "uint256",
          "name": "tokenId",
          "type": "uint256"
        },
        {
          "indexed": true,
          "internalType": "address",
          "name": "from",
          "type": "address"
        }
      ],
      "name": "BadgeReinstated",
      "type": "event"
    },
    {
      "anonymous": false,
      "inputs": [
        {
          "indexed": true,
          "internalType": "uint256",
          "name": "tokenId",
          "type": "uint256"
        },
        {
          "indexed": true,
          "internalType": "address",
          "name": "from",
          "type": "address"
        },
        {
          "indexed": true,
          "internalType": "uint8",
          "name": "reason",
          "type": "uint8"
        }
      ],
      "name": "BadgeRevoked",
      "type": "event"
    },
    {
      "anonymous": false,
      "inputs": [
        {
          "indexed": true,
          "internalType": "address",
          "name": "beacon",
          "type": "address"
        }
      ],
      "name": "BeaconUpgraded",
      "type": "event"
    },
    {
      "anonymous": false,
      "inputs": [
        {
          "indexed": false,
          "internalType": "uint8",
          "name": "version",
          "type": "uint8"
        }
      ],
      "name": "Initialized",
      "type": "event"
    },
    {
      "anonymous": false,
      "inputs": [
        {
          "indexed": true,
          "internalType": "address",
          "name": "previousOwner",
          "type": "address"
        },
        {
          "indexed": true,
          "internalType": "address",
          "name": "newOwner",
          "type": "address"
        }
      ],
      "name": "OwnershipTransferred",
      "type": "event"
    },
    {
      "anonymous": false,
      "inputs": [
        {
          "indexed": true,
          "internalType": "address",
          "name": "to",
          "type": "address"
        },
        {
          "indexed": false,
          "internalType": "string",
          "name": "specUri",
          "type": "string"
        },
        {
          "indexed": true,
          "internalType": "uint256",
          "name": "raftTokenId",
          "type": "uint256"
        },
        {
          "indexed": true,
          "internalType": "address",
          "name": "raftAddress",
          "type": "address"
        }
      ],
      "name": "SpecCreated",
      "type": "event"
    },
    {
      "anonymous": false,
      "inputs": [
        {
          "indexed": true,
          "internalType": "address",
          "name": "from",
          "type": "address"
        },
        {
          "indexed": true,
          "internalType": "address",
          "name": "to",
          "type": "address"
        },
        {
          "indexed": true,
          "internalType": "uint256",
          "name": "tokenId",
          "type": "uint256"
        }
      ],
      "name": "Transfer",
      "type": "event"
    },
    {
      "anonymous": false,
      "inputs": [
        {
          "indexed": true,
          "internalType": "address",
          "name": "implementation",
          "type": "address"
        }
      ],
      "name": "Upgraded",
      "type": "event"
    },
    {
      "inputs": [
        {
          "internalType": "address",
          "name": "_owner",
          "type": "address"
        }
      ],
      "name": "balanceOf",
      "outputs": [
        {
          "internalType": "uint256",
          "name": "",
          "type": "uint256"
        }
      ],
      "stateMutability": "view",
      "type": "function"
    },
    {
      "inputs": [
        {
          "internalType": "string",
          "name": "_specUri",
          "type": "string"
        },
        {
          "internalType": "uint256",
          "name": "_raftTokenId",
          "type": "uint256"
        }
      ],
      "name": "createSpec",
      "outputs": [],
      "stateMutability": "nonpayable",
      "type": "function"
    },
    {
      "inputs": [
        {
          "internalType": "address",
          "name": "_from",
          "type": "address"
        },
        {
          "internalType": "address",
          "name": "_to",
          "type": "address"
        },
        {
          "internalType": "string",
          "name": "_uri",
          "type": "string"
        }
      ],
      "name": "getAgreementHash",
      "outputs": [
        {
          "internalType": "bytes32",
          "name": "",
          "type": "bytes32"
        }
      ],
      "stateMutability": "view",
      "type": "function"
    },
    {
      "inputs": [
        {
          "internalType": "address",
          "name": "_to",
          "type": "address"
        },
        {
          "internalType": "string",
          "name": "_uri",
          "type": "string"
        }
      ],
      "name": "getBadgeIdHash",
      "outputs": [
        {
          "internalType": "bytes32",
          "name": "",
          "type": "bytes32"
        }
      ],
      "stateMutability": "view",
      "type": "function"
    },
    {
      "inputs": [],
      "name": "getDataHolderAddress",
      "outputs": [
        {
          "internalType": "address",
          "name": "",
          "type": "address"
        }
      ],
      "stateMutability": "view",
      "type": "function"
    },
    {
      "inputs": [
        {
          "internalType": "uint256",
          "name": "_tokenId",
          "type": "uint256"
        }
      ],
      "name": "getVoucherHash",
      "outputs": [
        {
          "internalType": "uint256",
          "name": "",
          "type": "uint256"
        }
      ],
      "stateMutability": "view",
      "type": "function"
    },
    {
      "inputs": [
        {
          "internalType": "address",
          "name": "_to",
          "type": "address"
        },
        {
          "internalType": "string",
          "name": "_uri",
          "type": "string"
        },
        {
          "internalType": "bytes",
          "name": "_signature",
          "type": "bytes"
        }
      ],
      "name": "give",
      "outputs": [
        {
          "internalType": "uint256",
          "name": "",
          "type": "uint256"
        }
      ],
      "stateMutability": "nonpayable",
      "type": "function"
    },
    {
      "inputs": [
        {
          "internalType": "string",
          "name": "_name",
          "type": "string"
        },
        {
          "internalType": "string",
          "name": "_symbol",
          "type": "string"
        },
        {
          "internalType": "string",
          "name": "_version",
          "type": "string"
        },
        {
          "internalType": "address",
          "name": "_nextOwner",
          "type": "address"
        },
        {
          "internalType": "address",
          "name": "_specDataHolderAddress",
          "type": "address"
        }
      ],
      "name": "initialize",
      "outputs": [],
      "stateMutability": "nonpayable",
      "type": "function"
    },
    {
      "inputs": [
        {
          "internalType": "uint256",
          "name": "_badgeId",
          "type": "uint256"
        }
      ],
      "name": "isBadgeValid",
      "outputs": [
        {
          "internalType": "bool",
          "name": "",
          "type": "bool"
        }
      ],
      "stateMutability": "view",
      "type": "function"
    },
    {
      "inputs": [],
      "name": "name",
      "outputs": [
        {
          "internalType": "string",
          "name": "",
          "type": "string"
        }
      ],
      "stateMutability": "view",
      "type": "function"
    },
    {
      "inputs": [
        {
          "internalType": "address",
          "name": "_from",
          "type": "address"
        },
        {
          "internalType": "string",
          "name": "_uri",
          "type": "string"
        },
        {
          "internalType": "bytes",
          "name": "_signature",
          "type": "bytes"
        },
        {
          "components": [
            {
              "internalType": "bytes32",
              "name": "merkleRoot",
              "type": "bytes32"
            },
            {
              "internalType": "bytes32[]",
              "name": "merkleProof",
              "type": "bytes32[]"
            },
            {
              "internalType": "enum Badges.MintType",
              "name": "mintType",
              "type": "uint8"
            }
          ],
          "internalType": "struct Badges.MintConfig",
          "name": "_mintConfig",
          "type": "tuple"
        }
      ],
      "name": "newTake",
      "outputs": [
        {
          "internalType": "uint256",
          "name": "",
          "type": "uint256"
        }
      ],
      "stateMutability": "nonpayable",
      "type": "function"
    },
    {
      "inputs": [],
      "name": "owner",
      "outputs": [
        {
          "internalType": "address",
          "name": "",
          "type": "address"
        }
      ],
      "stateMutability": "view",
      "type": "function"
    },
    {
      "inputs": [
        {
          "internalType": "uint256",
          "name": "_tokenId",
          "type": "uint256"
        }
      ],
      "name": "ownerOf",
      "outputs": [
        {
          "internalType": "address",
          "name": "",
          "type": "address"
        }
      ],
      "stateMutability": "view",
      "type": "function"
    },
    {
      "inputs": [],
      "name": "proxiableUUID",
      "outputs": [
        {
          "internalType": "bytes32",
          "name": "",
          "type": "bytes32"
        }
      ],
      "stateMutability": "view",
      "type": "function"
    },
    {
      "inputs": [
        {
          "internalType": "uint256",
          "name": "_raftTokenId",
          "type": "uint256"
        },
        {
          "internalType": "uint256",
          "name": "_badgeId",
          "type": "uint256"
        }
      ],
      "name": "reinstateBadge",
      "outputs": [],
      "stateMutability": "nonpayable",
      "type": "function"
    },
    {
      "inputs": [],
      "name": "renounceOwnership",
      "outputs": [],
      "stateMutability": "nonpayable",
      "type": "function"
    },
    {
      "inputs": [
        {
          "internalType": "uint256",
          "name": "_raftTokenId",
          "type": "uint256"
        },
        {
          "internalType": "uint256",
          "name": "_badgeId",
          "type": "uint256"
        },
        {
          "internalType": "uint8",
          "name": "_reason",
          "type": "uint8"
        }
      ],
      "name": "revokeBadge",
      "outputs": [],
      "stateMutability": "nonpayable",
      "type": "function"
    },
    {
      "inputs": [
        {
          "internalType": "address",
          "name": "_dataHolder",
          "type": "address"
        }
      ],
      "name": "setDataHolder",
      "outputs": [],
      "stateMutability": "nonpayable",
      "type": "function"
    },
    {
      "inputs": [
        {
          "internalType": "bytes4",
          "name": "_interfaceId",
          "type": "bytes4"
        }
      ],
      "name": "supportsInterface",
      "outputs": [
        {
          "internalType": "bool",
          "name": "",
          "type": "bool"
        }
      ],
      "stateMutability": "view",
      "type": "function"
    },
    {
      "inputs": [],
      "name": "symbol",
      "outputs": [
        {
          "internalType": "string",
          "name": "",
          "type": "string"
        }
      ],
      "stateMutability": "view",
      "type": "function"
    },
    {
      "inputs": [
        {
          "internalType": "address",
          "name": "_from",
          "type": "address"
        },
        {
          "internalType": "string",
          "name": "_uri",
          "type": "string"
        },
        {
          "internalType": "bytes",
          "name": "_signature",
          "type": "bytes"
        }
      ],
      "name": "take",
      "outputs": [
        {
          "internalType": "uint256",
          "name": "",
          "type": "uint256"
        }
      ],
      "stateMutability": "nonpayable",
      "type": "function"
    },
    {
      "inputs": [
        {
          "internalType": "uint256",
          "name": "_tokenId",
          "type": "uint256"
        }
      ],
      "name": "tokenURI",
      "outputs": [
        {
          "internalType": "string",
          "name": "",
          "type": "string"
        }
      ],
      "stateMutability": "view",
      "type": "function"
    },
    {
      "inputs": [
        {
          "internalType": "address",
          "name": "newOwner",
          "type": "address"
        }
      ],
      "name": "transferOwnership",
      "outputs": [],
      "stateMutability": "nonpayable",
      "type": "function"
    },
    {
      "inputs": [
        {
          "internalType": "uint256",
          "name": "_tokenId",
          "type": "uint256"
        }
      ],
      "name": "unequip",
      "outputs": [],
      "stateMutability": "nonpayable",
      "type": "function"
    },
    {
      "inputs": [
        {
          "internalType": "address",
          "name": "newImplementation",
          "type": "address"
        }
      ],
      "name": "upgradeTo",
      "outputs": [],
      "stateMutability": "nonpayable",
      "type": "function"
    },
    {
      "inputs": [
        {
          "internalType": "address",
          "name": "newImplementation",
          "type": "address"
        },
        {
          "internalType": "bytes",
          "name": "data",
          "type": "bytes"
        }
      ],
      "name": "upgradeToAndCall",
      "outputs": [],
      "stateMutability": "payable",
      "type": "function"
    }
  ],
  "bytecode": {
    "object": "0x60a0604052306080523480156200001557600080fd5b506200002062000026565b620000e8565b600054610100900460ff1615620000935760405162461bcd60e51b815260206004820152602760248201527f496e697469616c697a61626c653a20636f6e747261637420697320696e697469604482015266616c697a696e6760c81b606482015260840160405180910390fd5b60005460ff9081161015620000e6576000805460ff191660ff9081179091556040519081527f7f26b83ff96e1f2b6a682f133852f6798a09c465da95921460cefb38474024989060200160405180910390a15b565b6080516131ec620001206000396000818161063801528181610678015281816109f301528181610a330152610ac601526131ec6000f3fe6080604052600436106101815760003560e01c806380956c7e116100d1578063c87b56dd1161008a578063d6d0faee11610064578063d6d0faee14610462578063e499250614610482578063ec64948e146104a2578063f2fde38b146104c257600080fd5b8063c87b56dd14610402578063cd9d8e5014610422578063d179e3d01461044257600080fd5b806380956c7e1461034f5780638da5cb5b1461036f57806395d89b411461038d578063a3947803146103a2578063a8cf8683146103c2578063c0184112146103e257600080fd5b80634f1ef2861161013e578063635ad99311610118578063635ad993146102db57806370a08231146102fa578063715018a61461031a5780637c402f8d1461032f57600080fd5b80634f1ef2861461027b57806352d1902d1461028e5780636352211e146102a357600080fd5b806301ffc9a71461018657806306fdde03146101bb5780630f4d9b01146101dd5780633659cfe6146101fd5780633b363a091461021f578063445a62b91461025b575b600080fd5b34801561019257600080fd5b506101a66101a13660046126d3565b6104e2565b60405190151581526020015b60405180910390f35b3480156101c757600080fd5b506101d0610534565b6040516101b2919061274d565b3480156101e957600080fd5b506101a66101f8366004612760565b6105c7565b34801561020957600080fd5b5061021d61021836600461278e565b61062e565b005b34801561022b57600080fd5b5061024d61023a366004612760565b6000908152610136602052604090205490565b6040519081526020016101b2565b34801561026757600080fd5b5061021d610276366004612890565b61070d565b61021d6102893660046128d4565b6109e9565b34801561029a57600080fd5b5061024d610ab9565b3480156102af57600080fd5b506102c36102be366004612760565b610b6c565b6040516001600160a01b0390911681526020016101b2565b3480156102e757600080fd5b50610135546001600160a01b03166102c3565b34801561030657600080fd5b5061024d61031536600461278e565b610bc1565b34801561032657600080fd5b5061021d610c4c565b34801561033b57600080fd5b5061021d61034a366004612937565b610c60565b34801561035b57600080fd5b5061021d61036a366004612976565b610e4a565b34801561037b57600080fd5b5060c9546001600160a01b03166102c3565b34801561039957600080fd5b506101d061102d565b3480156103ae57600080fd5b5061024d6103bd3660046129d9565b61103d565b3480156103ce57600080fd5b5061024d6103dd366004612a5b565b61112a565b3480156103ee57600080fd5b5061021d6103fd36600461278e565b61115d565b34801561040e57600080fd5b506101d061041d366004612760565b611188565b34801561042e57600080fd5b5061024d61043d366004612aa0565b61128f565b34801561044e57600080fd5b5061021d61045d366004612760565b611386565b34801561046e57600080fd5b5061021d61047d366004612b4b565b611462565b34801561048e57600080fd5b5061024d61049d366004612bfa565b6115d3565b3480156104ae57600080fd5b5061024d6104bd3660046129d9565b61166c565b3480156104ce57600080fd5b5061021d6104dd36600461278e565b61171a565b60006001600160e01b03198216635b5e139f60e01b148061051357506001600160e01b031982166346bdd63960e11b145b8061052e57506301ffc9a760e01b6001600160e01b03198316145b92915050565b6060610130805461054490612c5e565b80601f016020809104026020016040519081016040528092919081815260200182805461057090612c5e565b80156105bd5780601f10610592576101008083540402835291602001916105bd565b820191906000526020600020905b8154815290600101906020018083116105a057829003601f168201915b5050505050905090565b6000818152610132602052604081205482906001600160a01b03166106075760405162461bcd60e51b81526004016105fe90612c92565b60405180910390fd5b600883901c60009081526101376020526040902054600160ff85161b161591505b50919050565b6001600160a01b037f00000000000000000000000000000000000000000000000000000000000000001630036106765760405162461bcd60e51b81526004016105fe90612cc7565b7f00000000000000000000000000000000000000000000000000000000000000006001600160a01b03166106bf600080516020613170833981519152546001600160a01b031690565b6001600160a01b0316146106e55760405162461bcd60e51b81526004016105fe90612d13565b6106ee81611790565b6040805160008082526020820190925261070a91839190611798565b50565b806040518060400160405280600a8152602001696372656174655370656360b01b8152506000816040516020016107449190612d5f565b60408051808303601f19018152908290526101355463b2a0cb6b60e01b83526004830186905290925033916001600160a01b039091169063b2a0cb6b90602401602060405180830381865afa1580156107a1573d6000803e3d6000fd5b505050506040513d601f19601f820116820180604052508101906107c59190612d91565b6001600160a01b03161481906107ee5760405162461bcd60e51b81526004016105fe919061274d565b5061013554604051637e07102760e11b81526001600160a01b039091169063fc0e204e9061082090889060040161274d565b602060405180830381865afa15801561083d573d6000803e3d6000fd5b505050506040513d601f19601f820116820180604052508101906108619190612dae565b156108ba5760405162461bcd60e51b815260206004820152602360248201527f637265617465537065633a207370656320616c726561647920726567697374656044820152621c995960ea1b60648201526084016105fe565b6101355460405163addd190760e01b81526001600160a01b039091169063addd1907906108ed9088908890600401612dd0565b600060405180830381600087803b15801561090757600080fd5b505af115801561091b573d6000803e3d6000fd5b5050505061013560009054906101000a90046001600160a01b03166001600160a01b03166334f876626040518163ffffffff1660e01b8152600401602060405180830381865afa158015610973573d6000803e3d6000fd5b505050506040513d601f19601f820116820180604052508101906109979190612d91565b6001600160a01b031684336001600160a01b03167f68c7f8503283c455a4445b54a7d5c40656c8cae5cca0583c6d4be83698478700886040516109da919061274d565b60405180910390a45050505050565b6001600160a01b037f0000000000000000000000000000000000000000000000000000000000000000163003610a315760405162461bcd60e51b81526004016105fe90612cc7565b7f00000000000000000000000000000000000000000000000000000000000000006001600160a01b0316610a7a600080516020613170833981519152546001600160a01b031690565b6001600160a01b031614610aa05760405162461bcd60e51b81526004016105fe90612d13565b610aa982611790565b610ab582826001611798565b5050565b6000306001600160a01b037f00000000000000000000000000000000000000000000000000000000000000001614610b595760405162461bcd60e51b815260206004820152603860248201527f555550535570677261646561626c653a206d757374206e6f742062652063616c60448201527f6c6564207468726f7567682064656c656761746563616c6c000000000000000060648201526084016105fe565b5060008051602061317083398151915290565b6000818152610132602052604081205482906001600160a01b0316610ba35760405162461bcd60e51b81526004016105fe90612c92565b5050600090815261013260205260409020546001600160a01b031690565b60006001600160a01b038216610c2f5760405162461bcd60e51b815260206004820152602d60248201527f62616c616e63654f663a2061646472657373207a65726f206973206e6f74206160448201526c2076616c6964206f776e65725f60981b60648201526084016105fe565b506001600160a01b03166000908152610134602052604090205490565b610c54611903565b610c5e600061195d565b565b6000828152610132602052604090205482906001600160a01b0316610c975760405162461bcd60e51b81526004016105fe90612c92565b836040518060400160405280600b81526020016a7265766f6b65426164676560a81b815250600081604051602001610ccf9190612d5f565b60408051808303601f19018152908290526101355463b2a0cb6b60e01b83526004830186905290925033916001600160a01b039091169063b2a0cb6b90602401602060405180830381865afa158015610d2c573d6000803e3d6000fd5b505050506040513d601f19601f82011682018060405250810190610d509190612d91565b6001600160a01b0316148190610d795760405162461bcd60e51b81526004016105fe919061274d565b50600886901c60009081526101376020526040902054600160ff88161b1615610def5760405162461bcd60e51b815260206004820152602260248201527f7265766f6b6542616467653a20626164676520616c7265616479207265766f6b604482015261195960f21b60648201526084016105fe565b600886901c6000908152610137602052604090208054600160ff89161b17905560405160ff861690339088907ffa784c48260e8db512de5f055a2f29eced211a7b3bd6338058b095ada7354cee90600090a450505050505050565b6000818152610132602052604090205481906001600160a01b0316610e815760405162461bcd60e51b81526004016105fe90612c92565b826040518060400160405280600e81526020016d7265696e7374617465426164676560901b815250600081604051602001610ebc9190612d5f565b60408051808303601f19018152908290526101355463b2a0cb6b60e01b83526004830186905290925033916001600160a01b039091169063b2a0cb6b90602401602060405180830381865afa158015610f19573d6000803e3d6000fd5b505050506040513d601f19601f82011682018060405250810190610f3d9190612d91565b6001600160a01b0316148190610f665760405162461bcd60e51b81526004016105fe919061274d565b50600885901c60009081526101376020526040902054600160ff87161b16610fda5760405162461bcd60e51b815260206004820152602160248201527f7265696e737461746542616467653a206261646765206e6f74207265766f6b656044820152601960fa1b60648201526084016105fe565b600885901c600090815261013760205260408082208054600160ff8a161b1916905551339187917f7f8cf9ecf2a5225948f8a1601709cedc8471c52ee75a8174c9845c29c99ed9a29190a3505050505050565b6060610131805461054490612c5e565b60006001600160a01b03861633036110975760405162461bcd60e51b815260206004820152601b60248201527f74616b653a2063616e6e6f742074616b652066726f6d2073656c66000000000060448201526064016105fe565b60006110a73388888888886119af565b905060006110eb3388888080601f016020809104026020016040519081016040528093929190818152602001838380828437600092019190915250611a9b92505050565b600883901c600090815261012f602052604090208054600160ff86161b1790559050600081815261013660205260409020919091559695505050505050565b6000828260405160200161113f929190612df2565b60405160208183030381529060405280519060200120905092915050565b611165611903565b61013580546001600160a01b0319166001600160a01b0392909216919091179055565b600081815261013260205260409020546060906001600160a01b03166111f05760405162461bcd60e51b815260206004820152601d60248201527f746f6b656e5552493a20746f6b656e20646f65736e277420657869737400000060448201526064016105fe565b600082815261013360205260409020805461120a90612c5e565b80601f016020809104026020016040519081016040528092919081815260200182805461123690612c5e565b80156112835780601f1061125857610100808354040283529160200191611283565b820191906000526020600020905b81548152906001019060200180831161126657829003601f168201915b50505050509050919050565b60006001600160a01b03871633036112e95760405162461bcd60e51b815260206004820152601b60248201527f74616b653a2063616e6e6f742074616b652066726f6d2073656c66000000000060448201526064016105fe565b60006113023389898989896112fd8a612e32565b611ce6565b905060006113463389898080601f016020809104026020016040519081016040528093929190818152602001838380828437600092019190915250611a9b92505050565b600883901c600090815261012f602052604090208054600160ff86161b179055905060008181526101366020526040902091909155979650505050505050565b6000818152610132602052604090205481906001600160a01b03166113bd5760405162461bcd60e51b81526004016105fe90612c92565b600082815261013260205260409020546001600160a01b031633146114245760405162461bcd60e51b815260206004820152601d60248201527f756e65717569703a2073656e646572206d757374206265206f776e657200000060448201526064016105fe565b60008281526101366020908152604080832054600881901c845261012f9092529091208054600160ff84161b1916905561145d83611e74565b505050565b600054610100900460ff16158080156114825750600054600160ff909116105b8061149c5750303b15801561149c575060005460ff166001145b6114ff5760405162461bcd60e51b815260206004820152602e60248201527f496e697469616c697a61626c653a20636f6e747261637420697320616c72656160448201526d191e481a5b9a5d1a585b1a5e995960921b60648201526084016105fe565b6000805460ff191660011790558015611522576000805461ff0019166101001790555b61013061152f8782612f41565b5061013161153d8682612f41565b5061013580546001600160a01b0319166001600160a01b038416179055611562611f2e565b61156a611f55565b6115748685611f84565b61157c611f2e565b6115858361171a565b80156115cb576000805461ff0019169055604051600181527f7f26b83ff96e1f2b6a682f133852f6798a09c465da95921460cefb38474024989060200160405180910390a15b505050505050565b6000807fe76a195fbe43f0eaa611595069f780493db2202a1cc4b2d7d44b47069812998a86868686604051611609929190613000565b604051908190038120611641949392916020019384526001600160a01b03928316602085015291166040830152606082015260800190565b60405160208183030381529060405280519060200120905061166281611fb5565b9695505050505050565b60006001600160a01b03861633036116c65760405162461bcd60e51b815260206004820152601b60248201527f676976653a2063616e6e6f7420676976652066726f6d2073656c66000000000060448201526064016105fe565b60006116d63388888888886119af565b905060006110eb8888888080601f016020809104026020016040519081016040528093929190818152602001838380828437600092019190915250611a9b92505050565b611722611903565b6001600160a01b0381166117875760405162461bcd60e51b815260206004820152602660248201527f4f776e61626c653a206e6577206f776e657220697320746865207a65726f206160448201526564647265737360d01b60648201526084016105fe565b61070a8161195d565b61070a611903565b7f4910fdfa16fed3260ed0e7147f7cc6da11a60208b5b9406d12a635614ffd91435460ff16156117cb5761145d83611fc8565b826001600160a01b03166352d1902d6040518163ffffffff1660e01b8152600401602060405180830381865afa925050508015611825575060408051601f3d908101601f1916820190925261182291810190613010565b60015b6118885760405162461bcd60e51b815260206004820152602e60248201527f45524331393637557067726164653a206e657720696d706c656d656e7461746960448201526d6f6e206973206e6f74205555505360901b60648201526084016105fe565b60008051602061317083398151915281146118f75760405162461bcd60e51b815260206004820152602960248201527f45524331393637557067726164653a20756e737570706f727465642070726f786044820152681a58589b195555525160ba1b60648201526084016105fe565b5061145d838383612064565b60c9546001600160a01b03163314610c5e5760405162461bcd60e51b815260206004820181905260248201527f4f776e61626c653a2063616c6c6572206973206e6f7420746865206f776e657260448201526064016105fe565b60c980546001600160a01b038381166001600160a01b0319831681179093556040519116919082907f8be0079c531659141344cd1fd0a4f28419497f9722a3daafe3b4186f6b6457e090600090a35050565b6000806119be888888886115d3565b905060008160001c9050611a09888387878080601f01602080910402602001604051908101604052809392919081815260200183838082843760009201919091525061208f92505050565b611a255760405162461bcd60e51b81526004016105fe90613029565b600881901c600090815261012f6020526040902054600160ff83161b1615611a8f5760405162461bcd60e51b815260206004820181905260248201527f73616665436865636b41677265656d656e743a20616c7265616479207573656460448201526064016105fe565b98975050505050505050565b61013554604051633664a8e960e01b815260009182916001600160a01b0390911690633664a8e990611ad190869060040161274d565b602060405180830381865afa158015611aee573d6000803e3d6000fd5b505050506040513d601f19601f82011682018060405250810190611b129190613010565b90506000611b20858561112a565b9050806000839003611b745760405162461bcd60e51b815260206004820152601c60248201527f6d696e743a2073706563206973206e6f7420726567697374657265640000000060448201526064016105fe565b600081815261013260205260409020546001600160a01b031615611bd15760405162461bcd60e51b81526020600482015260146024820152736d696e743a20746f6b656e49442065786973747360601b60448201526064016105fe565b6001600160a01b038616600090815261013460205260408120805460019290611bfb908490613084565b909155505060008181526101326020908152604080832080546001600160a01b0319166001600160a01b038b161790556101339091529020611c3d8682612f41565b5060405181906001600160a01b038816906000907fddf252ad1be2c89b69c2b068fc378daa952ba7f163c4a11628f55a4df523b3ef908290a46101355460405163fb74926160e01b815260048101839052602481018590526001600160a01b039091169063fb74926190604401600060405180830381600087803b158015611cc457600080fd5b505af1158015611cd8573d6000803e3d6000fd5b509298975050505050505050565b600080611cf5898989896115d3565b905080600184604001516001811115611d1057611d10613097565b03611da0576040516bffffffffffffffffffffffff1960608c901b166020820152600090603401604051602081830303815290604052805190602001209050611d6285602001518660000151836121d3565b611d9e5760405162461bcd60e51b815260206004820152600d60248201526c34b73b30b634b210383937b7b360991b60448201526064016105fe565b505b611de1898388888080601f01602080910402602001604051908101604052809392919081815260200183838082843760009201919091525061208f92505050565b611dfd5760405162461bcd60e51b81526004016105fe90613029565b600881901c600090815261012f6020526040902054600160ff83161b1615611e675760405162461bcd60e51b815260206004820181905260248201527f73616665436865636b41677265656d656e743a20616c7265616479207573656460448201526064016105fe565b9998505050505050505050565b600081815261013260209081526040808320546001600160a01b0316808452610134909252822080549192600192611ead9084906130ad565b909155505060008281526101326020908152604080832080546001600160a01b03191690556101339091528120611ee391612685565b60008281526101366020526040808220829055518391906001600160a01b038416907fddf252ad1be2c89b69c2b068fc378daa952ba7f163c4a11628f55a4df523b3ef908390a45050565b600054610100900460ff16610c5e5760405162461bcd60e51b81526004016105fe906130c0565b600054610100900460ff16611f7c5760405162461bcd60e51b81526004016105fe906130c0565b610c5e6121e9565b600054610100900460ff16611fab5760405162461bcd60e51b81526004016105fe906130c0565b610ab58282612219565b600061052e611fc261225a565b836122da565b6001600160a01b0381163b6120355760405162461bcd60e51b815260206004820152602d60248201527f455243313936373a206e657720696d706c656d656e746174696f6e206973206e60448201526c1bdd08184818dbdb9d1c9858dd609a1b60648201526084016105fe565b60008051602061317083398151915280546001600160a01b0319166001600160a01b0392909216919091179055565b61206d83612301565b60008251118061207a5750805b1561145d576120898383612341565b50505050565b600080600061209e8585612435565b909250905060008160048111156120b7576120b7613097565b1480156120d55750856001600160a01b0316826001600160a01b0316145b156120e5576001925050506121cc565b600080876001600160a01b0316631626ba7e60e01b888860405160240161210d92919061310b565b60408051601f198184030181529181526020820180516001600160e01b03166001600160e01b031990941693909317909252905161214b9190613124565b600060405180830381855afa9150503d8060008114612186576040519150601f19603f3d011682016040523d82523d6000602084013e61218b565b606091505b509150915081801561219e575080516020145b80156121c557508051630b135d3f60e11b906121c39083016020908101908401613010565b145b9450505050505b9392505050565b6000826121e085846124a3565b14949350505050565b600054610100900460ff166122105760405162461bcd60e51b81526004016105fe906130c0565b610c5e3361195d565b600054610100900460ff166122405760405162461bcd60e51b81526004016105fe906130c0565b81516020928301208151919092012060fb9190915560fc55565b60006122d57f8b73c3c69bb8fe3d512ecc4cf759cc79239f7b179b0ffacaa9a75d522b39400f61228960fb5490565b60fc546040805160208101859052908101839052606081018290524660808201523060a082015260009060c0016040516020818303038152906040528051906020012090509392505050565b905090565b60405161190160f01b6020820152602281018390526042810182905260009060620161113f565b61230a81611fc8565b6040516001600160a01b038216907fbc7cd75a20ee27fd9adebab32041f755214dbc6bffa90cc0225b39da2e5c2d3b90600090a250565b60606001600160a01b0383163b6123a95760405162461bcd60e51b815260206004820152602660248201527f416464726573733a2064656c65676174652063616c6c20746f206e6f6e2d636f6044820152651b9d1c9858dd60d21b60648201526084016105fe565b600080846001600160a01b0316846040516123c49190613124565b600060405180830381855af49150503d80600081146123ff576040519150601f19603f3d011682016040523d82523d6000602084013e612404565b606091505b509150915061242c8282604051806060016040528060278152602001613190602791396124f0565b95945050505050565b600080825160410361246b5760208301516040840151606085015160001a61245f87828585612509565b9450945050505061249c565b825160400361249457602083015160408401516124898683836125f6565b93509350505061249c565b506000905060025b9250929050565b600081815b84518110156124e8576124d4828683815181106124c7576124c7613140565b602002602001015161262f565b9150806124e081613156565b9150506124a8565b509392505050565b606083156124ff5750816121cc565b6121cc838361265b565b6000807f7fffffffffffffffffffffffffffffff5d576e7357a4501ddfe92f46681b20a083111561254057506000905060036125ed565b8460ff16601b1415801561255857508460ff16601c14155b1561256957506000905060046125ed565b6040805160008082526020820180845289905260ff881692820192909252606081018690526080810185905260019060a0016020604051602081039080840390855afa1580156125bd573d6000803e3d6000fd5b5050604051601f1901519150506001600160a01b0381166125e6576000600192509250506125ed565b9150600090505b94509492505050565b6000806001600160ff1b0383168161261360ff86901c601b613084565b905061262187828885612509565b935093505050935093915050565b600081831061264b5760008281526020849052604090206121cc565b5060009182526020526040902090565b81511561266b5781518083602001fd5b8060405162461bcd60e51b81526004016105fe919061274d565b50805461269190612c5e565b6000825580601f106126a1575050565b601f01602090049060005260206000209081019061070a91905b808211156126cf57600081556001016126bb565b5090565b6000602082840312156126e557600080fd5b81356001600160e01b0319811681146121cc57600080fd5b60005b83811015612718578181015183820152602001612700565b50506000910152565b600081518084526127398160208601602086016126fd565b601f01601f19169290920160200192915050565b6020815260006121cc6020830184612721565b60006020828403121561277257600080fd5b5035919050565b6001600160a01b038116811461070a57600080fd5b6000602082840312156127a057600080fd5b81356121cc81612779565b634e487b7160e01b600052604160045260246000fd5b604051606081016001600160401b03811182821017156127e3576127e36127ab565b60405290565b604051601f8201601f191681016001600160401b0381118282101715612811576128116127ab565b604052919050565b60006001600160401b03831115612832576128326127ab565b612845601f8401601f19166020016127e9565b905082815283838301111561285957600080fd5b828260208301376000602084830101529392505050565b600082601f83011261288157600080fd5b6121cc83833560208501612819565b600080604083850312156128a357600080fd5b82356001600160401b038111156128b957600080fd5b6128c585828601612870565b95602094909401359450505050565b600080604083850312156128e757600080fd5b82356128f281612779565b915060208301356001600160401b0381111561290d57600080fd5b8301601f8101851361291e57600080fd5b61292d85823560208401612819565b9150509250929050565b60008060006060848603121561294c57600080fd5b8335925060208401359150604084013560ff8116811461296b57600080fd5b809150509250925092565b6000806040838503121561298957600080fd5b50508035926020909101359150565b60008083601f8401126129aa57600080fd5b5081356001600160401b038111156129c157600080fd5b60208301915083602082850101111561249c57600080fd5b6000806000806000606086880312156129f157600080fd5b85356129fc81612779565b945060208601356001600160401b0380821115612a1857600080fd5b612a2489838a01612998565b90965094506040880135915080821115612a3d57600080fd5b50612a4a88828901612998565b969995985093965092949392505050565b60008060408385031215612a6e57600080fd5b8235612a7981612779565b915060208301356001600160401b03811115612a9457600080fd5b61292d85828601612870565b60008060008060008060808789031215612ab957600080fd5b8635612ac481612779565b955060208701356001600160401b0380821115612ae057600080fd5b612aec8a838b01612998565b90975095506040890135915080821115612b0557600080fd5b612b118a838b01612998565b90955093506060890135915080821115612b2a57600080fd5b5087016060818a031215612b3d57600080fd5b809150509295509295509295565b600080600080600060a08688031215612b6357600080fd5b85356001600160401b0380821115612b7a57600080fd5b612b8689838a01612870565b96506020880135915080821115612b9c57600080fd5b612ba889838a01612870565b95506040880135915080821115612bbe57600080fd5b50612bcb88828901612870565b9350506060860135612bdc81612779565b91506080860135612bec81612779565b809150509295509295909350565b60008060008060608587031215612c1057600080fd5b8435612c1b81612779565b93506020850135612c2b81612779565b925060408501356001600160401b03811115612c4657600080fd5b612c5287828801612998565b95989497509550505050565b600181811c90821680612c7257607f821691505b60208210810361062857634e487b7160e01b600052602260045260246000fd5b6020808252818101527f746f6b656e4578697374733a20746f6b656e20646f65736e2774206578697374604082015260600190565b6020808252602c908201527f46756e6374696f6e206d7573742062652063616c6c6564207468726f7567682060408201526b19195b1959d85d1958d85b1b60a21b606082015260800190565b6020808252602c908201527f46756e6374696f6e206d7573742062652063616c6c6564207468726f7567682060408201526b6163746976652070726f787960a01b606082015260800190565b60008251612d718184602087016126fd565b6d0e881d5b985d5d1a1bdc9a5e995960921b920191825250600e01919050565b600060208284031215612da357600080fd5b81516121cc81612779565b600060208284031215612dc057600080fd5b815180151581146121cc57600080fd5b604081526000612de36040830185612721565b90508260208301529392505050565b6001600160a01b0383168152604060208201819052600090612e1690830184612721565b949350505050565b803560028110612e2d57600080fd5b919050565b600060608236031215612e4457600080fd5b612e4c6127c1565b823581526020808401356001600160401b0380821115612e6b57600080fd5b9085019036601f830112612e7e57600080fd5b813581811115612e9057612e906127ab565b8060051b9150612ea18483016127e9565b8181529183018401918481019036841115612ebb57600080fd5b938501935b83851015612ed957843582529385019390850190612ec0565b8086880152505050505050612ef060408401612e1e565b604082015292915050565b601f82111561145d57600081815260208120601f850160051c81016020861015612f225750805b601f850160051c820191505b818110156115cb57828155600101612f2e565b81516001600160401b03811115612f5a57612f5a6127ab565b612f6e81612f688454612c5e565b84612efb565b602080601f831160018114612fa35760008415612f8b5750858301515b600019600386901b1c1916600185901b1785556115cb565b600085815260208120601f198616915b82811015612fd257888601518255948401946001909101908401612fb3565b5085821015612ff05787850151600019600388901b60f8161c191681555b5050505050600190811b01905550565b8183823760009101908152919050565b60006020828403121561302257600080fd5b5051919050565b60208082526025908201527f73616665436865636b41677265656d656e743a20696e76616c6964207369676e604082015264617475726560d81b606082015260800190565b634e487b7160e01b600052601160045260246000fd5b8082018082111561052e5761052e61306e565b634e487b7160e01b600052602160045260246000fd5b8181038181111561052e5761052e61306e565b6020808252602b908201527f496e697469616c697a61626c653a20636f6e7472616374206973206e6f74206960408201526a6e697469616c697a696e6760a81b606082015260800190565b828152604060208201526000612e166040830184612721565b600082516131368184602087016126fd565b9190910192915050565b634e487b7160e01b600052603260045260246000fd5b6000600182016131685761316861306e565b506001019056fe360894a13ba1a3210667c828492db98dca3e2076cc3735a920a3ca505d382bbc416464726573733a206c6f772d6c6576656c2064656c65676174652063616c6c206661696c6564a2646970667358221220e1de269f67a52b1dbe53d0399b20793814652402c5db1a0d9ff2519e91d959e064736f6c63430008100033",
    "linkReferences": {}
  },
  "methodIdentifiers": {
    "balanceOf(address)": "70a08231",
    "createSpec(string,uint256)": "445a62b9",
    "getAgreementHash(address,address,string)": "e4992506",
    "getBadgeIdHash(address,string)": "a8cf8683",
    "getDataHolderAddress()": "635ad993",
    "getVoucherHash(uint256)": "3b363a09",
    "give(address,string,bytes)": "ec64948e",
    "initialize(string,string,string,address,address)": "d6d0faee",
    "isBadgeValid(uint256)": "0f4d9b01",
    "name()": "06fdde03",
    "newTake(address,string,bytes,(bytes32,bytes32[],uint8))": "cd9d8e50",
    "owner()": "8da5cb5b",
    "ownerOf(uint256)": "6352211e",
    "proxiableUUID()": "52d1902d",
    "reinstateBadge(uint256,uint256)": "80956c7e",
    "renounceOwnership()": "715018a6",
    "revokeBadge(uint256,uint256,uint8)": "7c402f8d",
    "setDataHolder(address)": "c0184112",
    "supportsInterface(bytes4)": "01ffc9a7",
    "symbol()": "95d89b41",
    "take(address,string,bytes)": "a3947803",
    "tokenURI(uint256)": "c87b56dd",
    "transferOwnership(address)": "f2fde38b",
    "unequip(uint256)": "d179e3d0",
    "upgradeTo(address)": "3659cfe6",
    "upgradeToAndCall(address,bytes)": "4f1ef286"
  },
  "id": 44
}