{
  "abi": [
    {
      "inputs": [
        {
          "internalType": "string",
          "name": "name",
          "type": "string"
        },
        {
          "internalType": "string",
          "name": "symbol",
          "type": "string"
        },
        {
          "internalType": "string",
          "name": "version",
          "type": "string"
        }
      ],
      "stateMutability": "nonpayable",
      "type": "constructor"
    },
    {
      "anonymous": false,
      "inputs": [
        {
          "indexed": true,
          "internalType": "address",
          "name": "to",
          "type": "address"
        },
        {
          "indexed": true,
          "internalType": "uint256",
          "name": "tokenId",
          "type": "uint256"
        }
      ],
      "name": "Attest",
      "type": "event"
    },
    {
      "anonymous": false,
      "inputs": [
        {
          "indexed": true,
          "internalType": "address",
          "name": "to",
          "type": "address"
        },
        {
          "indexed": true,
          "internalType": "uint256",
          "name": "tokenId",
          "type": "uint256"
        }
      ],
      "name": "Revoke",
      "type": "event"
    },
    {
      "inputs": [
        {
          "internalType": "address",
          "name": "owner",
          "type": "address"
        }
      ],
      "name": "balanceOf",
      "outputs": [
        {
          "internalType": "uint256",
          "name": "",
          "type": "uint256"
        }
      ],
      "stateMutability": "view",
      "type": "function"
    },
    {
      "inputs": [
        {
          "internalType": "uint256",
          "name": "tokenId",
          "type": "uint256"
        }
      ],
      "name": "burn",
      "outputs": [],
      "stateMutability": "nonpayable",
      "type": "function"
    },
    {
      "inputs": [
        {
          "internalType": "address",
          "name": "fromAddress",
          "type": "address"
        }
      ],
      "name": "genDataHash",
      "outputs": [
        {
          "internalType": "bytes32",
          "name": "",
          "type": "bytes32"
        }
      ],
      "stateMutability": "view",
      "type": "function"
    },
    {
      "inputs": [
        {
          "internalType": "address",
          "name": "from",
          "type": "address"
        },
        {
          "internalType": "address",
          "name": "to",
          "type": "address"
        },
        {
          "internalType": "string",
          "name": "tokenURI",
          "type": "string"
        }
      ],
      "name": "getHash",
      "outputs": [
        {
          "internalType": "bytes32",
          "name": "",
          "type": "bytes32"
        }
      ],
      "stateMutability": "view",
      "type": "function"
    },
    {
      "inputs": [
        {
          "internalType": "address",
          "name": "claimantAddress",
          "type": "address"
        },
        {
          "internalType": "uint8",
          "name": "v",
          "type": "uint8"
        },
        {
          "internalType": "bytes32",
          "name": "r",
          "type": "bytes32"
        },
        {
          "internalType": "bytes32",
          "name": "s",
          "type": "bytes32"
        }
      ],
      "name": "isValidIssuerSig",
      "outputs": [
        {
          "internalType": "bool",
          "name": "",
          "type": "bool"
        }
      ],
      "stateMutability": "view",
      "type": "function"
    },
    {
      "inputs": [
        {
          "internalType": "address",
          "name": "from",
          "type": "address"
        },
        {
          "internalType": "string",
          "name": "uri",
          "type": "string"
        },
        {
          "internalType": "bytes",
          "name": "signature",
          "type": "bytes"
        }
      ],
      "name": "mintWithPermission",
      "outputs": [
        {
          "internalType": "uint256",
          "name": "",
          "type": "uint256"
        }
      ],
      "stateMutability": "nonpayable",
      "type": "function"
    },
    {
      "inputs": [],
      "name": "name",
      "outputs": [
        {
          "internalType": "string",
          "name": "",
          "type": "string"
        }
      ],
      "stateMutability": "view",
      "type": "function"
    },
    {
      "inputs": [
        {
          "internalType": "uint256",
          "name": "tokenId",
          "type": "uint256"
        }
      ],
      "name": "ownerOf",
      "outputs": [
        {
          "internalType": "address",
          "name": "",
          "type": "address"
        }
      ],
      "stateMutability": "view",
      "type": "function"
    },
    {
      "inputs": [
        {
          "internalType": "bytes4",
          "name": "interfaceId",
          "type": "bytes4"
        }
      ],
      "name": "supportsInterface",
      "outputs": [
        {
          "internalType": "bool",
          "name": "",
          "type": "bool"
        }
      ],
      "stateMutability": "view",
      "type": "function"
    },
    {
      "inputs": [],
      "name": "symbol",
      "outputs": [
        {
          "internalType": "string",
          "name": "",
          "type": "string"
        }
      ],
      "stateMutability": "view",
      "type": "function"
    },
    {
      "inputs": [
        {
          "internalType": "uint256",
          "name": "tokenId",
          "type": "uint256"
        }
      ],
      "name": "tokenURI",
      "outputs": [
        {
          "internalType": "string",
          "name": "",
          "type": "string"
        }
      ],
      "stateMutability": "view",
      "type": "function"
    }
  ],
  "bytecode": {
    "object": "0x6101606040527f6ede264c71eebd1a11274cecd52a24ede37fc61b737bd8cd45073a0651cb5395610140523480156200003757600080fd5b5060405162001962380380620019628339810160408190526200005a91620001ec565b8282828281818460006200006f83826200030c565b5060016200007e82826200030c565b5050825160208085019190912083518483012060e08290526101008190524660a0818152604080517f8b73c3c69bb8fe3d512ecc4cf759cc79239f7b179b0ffacaa9a75d522b39400f81880181905281830187905260608201869052608082019490945230818401528151808203909301835260c0019052805194019390932091935091906080523060c0526101205250620003d898505050505050505050565b634e487b7160e01b600052604160045260246000fd5b600082601f8301126200014757600080fd5b81516001600160401b03808211156200016457620001646200011f565b604051601f8301601f19908116603f011681019082821181831017156200018f576200018f6200011f565b81604052838152602092508683858801011115620001ac57600080fd5b600091505b83821015620001d05785820183015181830184015290820190620001b1565b83821115620001e25760008385830101525b9695505050505050565b6000806000606084860312156200020257600080fd5b83516001600160401b03808211156200021a57600080fd5b620002288783880162000135565b945060208601519150808211156200023f57600080fd5b6200024d8783880162000135565b935060408601519150808211156200026457600080fd5b50620002738682870162000135565b9150509250925092565b600181811c908216806200029257607f821691505b602082108103620002b357634e487b7160e01b600052602260045260246000fd5b50919050565b601f8211156200030757600081815260208120601f850160051c81016020861015620002e25750805b601f850160051c820191505b818110156200030357828155600101620002ee565b5050505b505050565b81516001600160401b038111156200032857620003286200011f565b62000340816200033984546200027d565b84620002b9565b602080601f8311600181146200037857600084156200035f5750858301515b600019600386901b1c1916600185901b17855562000303565b600085815260208120601f198616915b82811015620003a95788860151825594840194600190910190840162000388565b5085821015620003c85787850151600019600388901b60f8161c191681555b5050505050600190811b01905550565b60805160a05160c05160e05161010051610120516101405161152f6200043360003960006106e501526000610f0e01526000610f5d01526000610f3801526000610e9101526000610ebb01526000610ee5015261152f6000f3fe608060405234801561001057600080fd5b50600436106100a95760003560e01c80638fac1c1c116100715780638fac1c1c1461014c57806395d89b411461015f578063a51bbab914610167578063c5cf33c21461017a578063c87b56dd1461018d578063fbe4b62c146101a057600080fd5b806301ffc9a7146100ae57806306fdde03146100d657806342966c68146100eb5780636352211e1461010057806370a082311461012b575b600080fd5b6100c16100bc366004611048565b6101b3565b60405190151581526020015b60405180910390f35b6100de6101de565b6040516100cd91906110c1565b6100fe6100f93660046110d4565b610270565b005b61011361010e3660046110d4565b6102ea565b6040516001600160a01b0390911681526020016100cd565b61013e610139366004611109565b61034f565b6040519081526020016100cd565b61013e61015a366004611166565b6103d8565b6100de61057e565b6100c16101753660046111e7565b61058d565b61013e610188366004611231565b6105c4565b6100de61019b3660046110d4565b6105db565b61013e6101ae366004611109565b6106e0565b60006001600160e01b031982166323eb070760e21b14806101d857506101d882610750565b92915050565b6060600080546101ed90611292565b80601f016020809104026020016040519081016040528092919081815260200182805461021990611292565b80156102665780601f1061023b57610100808354040283529160200191610266565b820191906000526020600020905b81548152906001019060200180831161024957829003601f168201915b5050505050905090565b610279816102ea565b6001600160a01b0316336001600160a01b0316146102de5760405162461bcd60e51b815260206004820152601a60248201527f6275726e3a2073656e646572206d757374206265206f776e657200000000000060448201526064015b60405180910390fd5b6102e7816107a0565b50565b6000818152600260205260408120546001600160a01b0316806101d85760405162461bcd60e51b815260206004820152601c60248201527f6f776e65724f663a20746f6b656e20646f65736e27742065786973740000000060448201526064016102d5565b60006001600160a01b0382166103bc5760405162461bcd60e51b815260206004820152602c60248201527f62616c616e63654f663a2061646472657373207a65726f206973206e6f74206160448201526b103b30b634b21037bbb732b960a11b60648201526084016102d5565b506001600160a01b031660009081526004602052604090205490565b6000806103e787338888610847565b905060008160001c9050610432888387878080601f0160208091040260200160405190810160405280939291908181526020018383808284376000920191909152506108ae92505050565b61048c5760405162461bcd60e51b815260206004820152602560248201527f6d696e74576974685065726d697373696f6e3a20696e76616c6964207369676e604482015264617475726560d81b60648201526084016102d5565b600881901c600090815260066020526040902054600160ff83161b16156104f55760405162461bcd60e51b815260206004820181905260248201527f6d696e74576974685065726d697373696f6e3a20616c7265616479207573656460448201526064016102d5565b600061050060055490565b905061054333828a8a8080601f0160208091040260200160405190810160405280939291908181526020018383808284376000920191909152506109f992505050565b50610552600580546001019055565b600882901c60009081526006602052604090208054600160ff85161b1790555b98975050505050505050565b6060600180546101ed90611292565b600080610599866106e0565b905060006105a982878787610afd565b6001600160a01b039081169088161492505050949350505050565b60006105d285858585610847565b95945050505050565b6000818152600260205260409020546060906001600160a01b03166106425760405162461bcd60e51b815260206004820152601d60248201527f746f6b656e5552493a20746f6b656e20646f65736e277420657869737400000060448201526064016102d5565b6000828152600360205260409020805461065b90611292565b80601f016020809104026020016040519081016040528092919081815260200182805461068790611292565b80156106d45780601f106106a9576101008083540402835291602001916106d4565b820191906000526020600020905b8154815290600101906020018083116106b757829003601f168201915b50505050509050919050565b6000807f0000000000000000000000000000000000000000000000000000000000000000836040516020016107289291909182526001600160a01b0316602082015260400190565b60405160208183030381529060405280519060200120905061074981610b25565b9392505050565b60006001600160e01b03198216635b5e139f60e01b148061078157506001600160e01b03198216635164cf4760e01b145b806101d857506301ffc9a760e01b6001600160e01b03198316146101d8565b60006107ab826102ea565b6001600160a01b038116600090815260046020526040812080549293506001929091906107d99084906112e2565b9091555050600082815260026020908152604080832080546001600160a01b03191690556003909152812061080d91610fe4565b60405182906001600160a01b038316907fec9ab91322523c899ede7830ec9bfc992b5981cdcc27b91162fb23de5791117b90600090a35050565b6000807fd8eb14f4ea0b23f6cb3c182d47430e98ed3da686abfd02df5efd1e126b7840e6868686866040516020016108839594939291906112f9565b6040516020818303038152906040528051906020012090506108a481610b25565b9695505050505050565b60008060006108bd8585610b73565b909250905060008160048111156108d6576108d661134c565b1480156108f45750856001600160a01b0316826001600160a01b0316145b1561090457600192505050610749565b600080876001600160a01b0316631626ba7e60e01b888860405160240161092c929190611362565b60408051601f198184030181529181526020820180516001600160e01b03166001600160e01b031990941693909317909252905161096a9190611383565b600060405180830381855afa9150503d80600081146109a5576040519150601f19603f3d011682016040523d82523d6000602084013e6109aa565b606091505b50915091508180156109bd575080516020145b801561057257508051630b135d3f60e11b906109e2908301602090810190840161139f565b6001600160e01b0319161498975050505050505050565b6000828152600260205260408120546001600160a01b031615610a555760405162461bcd60e51b81526020600482015260146024820152736d696e743a20746f6b656e49442065786973747360601b60448201526064016102d5565b6001600160a01b0384166000908152600460205260408120805460019290610a7e9084906113bc565b9091555050600083815260026020908152604080832080546001600160a01b0319166001600160a01b03891617905560039091529020610abe8382611439565b5060405183906001600160a01b038616907fe9274a84b19e9428826de6bae8c48329354f8f0e73f771b97cae2d9dccd45a2790600090a3509092915050565b6000806000610b0e87878787610be1565b91509150610b1b81610cce565b5095945050505050565b60006101d8610b32610e84565b8360405161190160f01b6020820152602281018390526042810182905260009060620160405160208183030381529060405280519060200120905092915050565b6000808251604103610ba95760208301516040840151606085015160001a610b9d87828585610be1565b94509450505050610bda565b8251604003610bd25760208301516040840151610bc7868383610fab565b935093505050610bda565b506000905060025b9250929050565b6000807f7fffffffffffffffffffffffffffffff5d576e7357a4501ddfe92f46681b20a0831115610c185750600090506003610cc5565b8460ff16601b14158015610c3057508460ff16601c14155b15610c415750600090506004610cc5565b6040805160008082526020820180845289905260ff881692820192909252606081018690526080810185905260019060a0016020604051602081039080840390855afa158015610c95573d6000803e3d6000fd5b5050604051601f1901519150506001600160a01b038116610cbe57600060019250925050610cc5565b9150600090505b94509492505050565b6000816004811115610ce257610ce261134c565b03610cea5750565b6001816004811115610cfe57610cfe61134c565b03610d4b5760405162461bcd60e51b815260206004820152601860248201527f45434453413a20696e76616c6964207369676e6174757265000000000000000060448201526064016102d5565b6002816004811115610d5f57610d5f61134c565b03610dac5760405162461bcd60e51b815260206004820152601f60248201527f45434453413a20696e76616c6964207369676e6174757265206c656e6774680060448201526064016102d5565b6003816004811115610dc057610dc061134c565b03610e185760405162461bcd60e51b815260206004820152602260248201527f45434453413a20696e76616c6964207369676e6174757265202773272076616c604482015261756560f01b60648201526084016102d5565b6004816004811115610e2c57610e2c61134c565b036102e75760405162461bcd60e51b815260206004820152602260248201527f45434453413a20696e76616c6964207369676e6174757265202776272076616c604482015261756560f01b60648201526084016102d5565b6000306001600160a01b037f000000000000000000000000000000000000000000000000000000000000000016148015610edd57507f000000000000000000000000000000000000000000000000000000000000000046145b15610f0757507f000000000000000000000000000000000000000000000000000000000000000090565b50604080517f00000000000000000000000000000000000000000000000000000000000000006020808301919091527f0000000000000000000000000000000000000000000000000000000000000000828401527f000000000000000000000000000000000000000000000000000000000000000060608301524660808301523060a0808401919091528351808403909101815260c0909201909252805191012090565b6000806001600160ff1b03831681610fc860ff86901c601b6113bc565b9050610fd687828885610be1565b935093505050935093915050565b508054610ff090611292565b6000825580601f10611000575050565b601f0160209004906000526020600020908101906102e791905b8082111561102e576000815560010161101a565b5090565b6001600160e01b0319811681146102e757600080fd5b60006020828403121561105a57600080fd5b813561074981611032565b60005b83811015611080578181015183820152602001611068565b8381111561108f576000848401525b50505050565b600081518084526110ad816020860160208601611065565b601f01601f19169290920160200192915050565b6020815260006107496020830184611095565b6000602082840312156110e657600080fd5b5035919050565b80356001600160a01b038116811461110457600080fd5b919050565b60006020828403121561111b57600080fd5b610749826110ed565b60008083601f84011261113657600080fd5b50813567ffffffffffffffff81111561114e57600080fd5b602083019150836020828501011115610bda57600080fd5b60008060008060006060868803121561117e57600080fd5b611187866110ed565b9450602086013567ffffffffffffffff808211156111a457600080fd5b6111b089838a01611124565b909650945060408801359150808211156111c957600080fd5b506111d688828901611124565b969995985093965092949392505050565b600080600080608085870312156111fd57600080fd5b611206856110ed565b9350602085013560ff8116811461121c57600080fd5b93969395505050506040820135916060013590565b6000806000806060858703121561124757600080fd5b611250856110ed565b935061125e602086016110ed565b9250604085013567ffffffffffffffff81111561127a57600080fd5b61128687828801611124565b95989497509550505050565b600181811c908216806112a657607f821691505b6020821081036112c657634e487b7160e01b600052602260045260246000fd5b50919050565b634e487b7160e01b600052601160045260246000fd5b6000828210156112f4576112f46112cc565b500390565b8581526001600160a01b0385811660208301528416604082015260806060820181905281018290526000828460a0840137600060a0848401015260a0601f19601f85011683010190509695505050505050565b634e487b7160e01b600052602160045260246000fd5b82815260406020820152600061137b6040830184611095565b949350505050565b60008251611395818460208701611065565b9190910192915050565b6000602082840312156113b157600080fd5b815161074981611032565b600082198211156113cf576113cf6112cc565b500190565b634e487b7160e01b600052604160045260246000fd5b601f82111561143457600081815260208120601f850160051c810160208610156114115750805b601f850160051c820191505b818110156114305782815560010161141d565b5050505b505050565b815167ffffffffffffffff811115611453576114536113d4565b611467816114618454611292565b846113ea565b602080601f83116001811461149c57600084156114845750858301515b600019600386901b1c1916600185901b178555611430565b600085815260208120601f198616915b828110156114cb578886015182559484019460019091019084016114ac565b50858210156114e95787850151600019600388901b60f8161c191681555b5050505050600190811b0190555056fea2646970667358221220f852b4819dca4d3e4d868d4e3840194e90c544b12a0e0e35cc8025f0731ee88364736f6c634300080f0033",
    "linkReferences": {}
  },
  "methodIdentifiers": {
    "balanceOf(address)": "70a08231",
    "burn(uint256)": "42966c68",
    "genDataHash(address)": "fbe4b62c",
    "getHash(address,address,string)": "c5cf33c2",
    "isValidIssuerSig(address,uint8,bytes32,bytes32)": "a51bbab9",
    "mintWithPermission(address,string,bytes)": "8fac1c1c",
    "name()": "06fdde03",
    "ownerOf(uint256)": "6352211e",
    "supportsInterface(bytes4)": "01ffc9a7",
    "symbol()": "95d89b41",
    "tokenURI(uint256)": "c87b56dd"
  },
  "id": 20
}