{
  "abi": [
    {
      "inputs": [
        {
          "internalType": "string",
          "name": "name",
          "type": "string"
        },
        {
          "internalType": "string",
          "name": "symbol",
          "type": "string"
        },
        {
          "internalType": "string",
          "name": "version",
          "type": "string"
        },
        {
          "internalType": "address",
          "name": "raftAddress",
          "type": "address"
        },
        {
          "internalType": "address",
          "name": "nextOwner",
          "type": "address"
        }
      ],
      "stateMutability": "nonpayable",
      "type": "constructor"
    },
    {
      "anonymous": false,
      "inputs": [
        {
          "indexed": true,
          "internalType": "address",
          "name": "from",
          "type": "address"
        },
        {
          "indexed": true,
          "internalType": "address",
          "name": "to",
          "type": "address"
        },
        {
          "indexed": false,
          "internalType": "string",
          "name": "specUri",
          "type": "string"
        },
        {
          "indexed": false,
          "internalType": "uint256",
          "name": "tokenId",
          "type": "uint256"
        }
      ],
      "name": "BadgeMinted",
      "type": "event"
    },
    {
      "anonymous": false,
      "inputs": [
        {
          "indexed": true,
          "internalType": "address",
          "name": "previousOwner",
          "type": "address"
        },
        {
          "indexed": true,
          "internalType": "address",
          "name": "newOwner",
          "type": "address"
        }
      ],
      "name": "OwnershipTransferred",
      "type": "event"
    },
    {
      "anonymous": false,
      "inputs": [
        {
          "indexed": true,
          "internalType": "address",
          "name": "to",
          "type": "address"
        },
        {
          "indexed": false,
          "internalType": "string",
          "name": "specUri",
          "type": "string"
        },
        {
          "indexed": true,
          "internalType": "uint256",
          "name": "raftTokenId",
          "type": "uint256"
        },
        {
          "indexed": true,
          "internalType": "address",
          "name": "raftAddress",
          "type": "address"
        }
      ],
      "name": "SpecCreated",
      "type": "event"
    },
    {
      "anonymous": false,
      "inputs": [
        {
          "indexed": true,
          "internalType": "address",
          "name": "from",
          "type": "address"
        },
        {
          "indexed": true,
          "internalType": "address",
          "name": "to",
          "type": "address"
        },
        {
          "indexed": true,
          "internalType": "uint256",
          "name": "tokenId",
          "type": "uint256"
        }
      ],
      "name": "Transfer",
      "type": "event"
    },
    {
      "inputs": [
        {
          "internalType": "address",
          "name": "owner",
          "type": "address"
        }
      ],
      "name": "balanceOf",
      "outputs": [
        {
          "internalType": "uint256",
          "name": "",
          "type": "uint256"
        }
      ],
      "stateMutability": "view",
      "type": "function"
    },
    {
      "inputs": [
        {
          "internalType": "string",
          "name": "specUri",
          "type": "string"
        },
        {
          "internalType": "uint256",
          "name": "raftTokenId",
          "type": "uint256"
        }
      ],
      "name": "createSpecAsRaftOwner",
      "outputs": [],
      "stateMutability": "nonpayable",
      "type": "function"
    },
    {
      "inputs": [
        {
          "internalType": "address",
          "name": "from",
          "type": "address"
        },
        {
          "internalType": "address",
          "name": "to",
          "type": "address"
        },
        {
          "internalType": "string",
          "name": "tokenURI",
          "type": "string"
        }
      ],
      "name": "getHash",
      "outputs": [
        {
          "internalType": "bytes32",
          "name": "",
          "type": "bytes32"
        }
      ],
      "stateMutability": "view",
      "type": "function"
    },
    {
      "inputs": [],
      "name": "getRaftAddress",
      "outputs": [
        {
          "internalType": "address",
          "name": "",
          "type": "address"
        }
      ],
      "stateMutability": "view",
      "type": "function"
    },
    {
      "inputs": [
        {
          "internalType": "string",
          "name": "specUri",
          "type": "string"
        }
      ],
      "name": "getRaftTokenIdOf",
      "outputs": [
        {
          "internalType": "uint256",
          "name": "",
          "type": "uint256"
        }
      ],
      "stateMutability": "view",
      "type": "function"
    },
    {
      "inputs": [
        {
          "internalType": "address",
          "name": "to",
          "type": "address"
        },
        {
          "internalType": "string",
          "name": "uri",
          "type": "string"
        },
        {
          "internalType": "bytes",
          "name": "signature",
          "type": "bytes"
        }
      ],
      "name": "give",
      "outputs": [
        {
          "internalType": "uint256",
          "name": "",
          "type": "uint256"
        }
      ],
      "stateMutability": "nonpayable",
      "type": "function"
    },
    {
      "inputs": [
        {
          "internalType": "address",
          "name": "from",
          "type": "address"
        },
        {
          "internalType": "string",
          "name": "specUri",
          "type": "string"
        },
        {
          "internalType": "bytes",
          "name": "signature",
          "type": "bytes"
        }
      ],
      "name": "mintAuthorizedBadge",
      "outputs": [
        {
          "internalType": "uint256",
          "name": "",
          "type": "uint256"
        }
      ],
      "stateMutability": "nonpayable",
      "type": "function"
    },
    {
      "inputs": [],
      "name": "name",
      "outputs": [
        {
          "internalType": "string",
          "name": "",
          "type": "string"
        }
      ],
      "stateMutability": "view",
      "type": "function"
    },
    {
      "inputs": [],
      "name": "owner",
      "outputs": [
        {
          "internalType": "address",
          "name": "",
          "type": "address"
        }
      ],
      "stateMutability": "view",
      "type": "function"
    },
    {
      "inputs": [
        {
          "internalType": "uint256",
          "name": "tokenId",
          "type": "uint256"
        }
      ],
      "name": "ownerOf",
      "outputs": [
        {
          "internalType": "address",
          "name": "",
          "type": "address"
        }
      ],
      "stateMutability": "view",
      "type": "function"
    },
    {
      "inputs": [],
      "name": "renounceOwnership",
      "outputs": [],
      "stateMutability": "nonpayable",
      "type": "function"
    },
    {
      "inputs": [
        {
          "internalType": "address",
          "name": "newRaftAddress",
          "type": "address"
        }
      ],
      "name": "setRaftAddress",
      "outputs": [],
      "stateMutability": "nonpayable",
      "type": "function"
    },
    {
      "inputs": [
        {
          "internalType": "bytes4",
          "name": "interfaceId",
          "type": "bytes4"
        }
      ],
      "name": "supportsInterface",
      "outputs": [
        {
          "internalType": "bool",
          "name": "",
          "type": "bool"
        }
      ],
      "stateMutability": "view",
      "type": "function"
    },
    {
      "inputs": [],
      "name": "symbol",
      "outputs": [
        {
          "internalType": "string",
          "name": "",
          "type": "string"
        }
      ],
      "stateMutability": "view",
      "type": "function"
    },
    {
      "inputs": [
        {
          "internalType": "address",
          "name": "from",
          "type": "address"
        },
        {
          "internalType": "string",
          "name": "uri",
          "type": "string"
        },
        {
          "internalType": "bytes",
          "name": "signature",
          "type": "bytes"
        }
      ],
      "name": "take",
      "outputs": [
        {
          "internalType": "uint256",
          "name": "",
          "type": "uint256"
        }
      ],
      "stateMutability": "nonpayable",
      "type": "function"
    },
    {
      "inputs": [
        {
          "internalType": "uint256",
          "name": "tokenId",
          "type": "uint256"
        }
      ],
      "name": "tokenURI",
      "outputs": [
        {
          "internalType": "string",
          "name": "",
          "type": "string"
        }
      ],
      "stateMutability": "view",
      "type": "function"
    },
    {
      "inputs": [
        {
          "internalType": "address",
          "name": "newOwner",
          "type": "address"
        }
      ],
      "name": "transferOwnership",
      "outputs": [],
      "stateMutability": "nonpayable",
      "type": "function"
    },
    {
      "inputs": [
        {
          "internalType": "uint256",
          "name": "tokenId",
          "type": "uint256"
        }
      ],
      "name": "unequip",
      "outputs": [],
      "stateMutability": "nonpayable",
      "type": "function"
    }
  ],
  "bytecode": {
    "object": "0x6101406040523480156200001257600080fd5b50604051620020c3380380620020c3833981016040819052620000359162000354565b845160208087019190912084518583012060e08290526101008190524660a0818152604080517f8b73c3c69bb8fe3d512ecc4cf759cc79239f7b179b0ffacaa9a75d522b39400f818801819052818301969096526060810194909452608080850193909352308483018190528151808603909301835260c094850190915281519190950120905291909152610120528484846001620000d584826200049a565b506002620000e483826200049a565b5050505062000102620000fc6200013360201b60201c565b62000137565b600a80546001600160a01b0319166001600160a01b038416179055620001288162000189565b505050505062000566565b3390565b600780546001600160a01b038381166001600160a01b0319831681179093556040519116919082907f8be0079c531659141344cd1fd0a4f28419497f9722a3daafe3b4186f6b6457e090600090a35050565b620001936200020c565b6001600160a01b038116620001fe5760405162461bcd60e51b815260206004820152602660248201527f4f776e61626c653a206e6577206f776e657220697320746865207a65726f206160448201526564647265737360d01b60648201526084015b60405180910390fd5b620002098162000137565b50565b6007546001600160a01b03163314620002685760405162461bcd60e51b815260206004820181905260248201527f4f776e61626c653a2063616c6c6572206973206e6f7420746865206f776e65726044820152606401620001f5565b565b634e487b7160e01b600052604160045260246000fd5b600082601f8301126200029257600080fd5b81516001600160401b0380821115620002af57620002af6200026a565b604051601f8301601f19908116603f01168101908282118183101715620002da57620002da6200026a565b81604052838152602092508683858801011115620002f757600080fd5b600091505b838210156200031b5785820183015181830184015290820190620002fc565b838211156200032d5760008385830101525b9695505050505050565b80516001600160a01b03811681146200034f57600080fd5b919050565b600080600080600060a086880312156200036d57600080fd5b85516001600160401b03808211156200038557600080fd5b6200039389838a0162000280565b96506020880151915080821115620003aa57600080fd5b620003b889838a0162000280565b95506040880151915080821115620003cf57600080fd5b50620003de8882890162000280565b935050620003ef6060870162000337565b9150620003ff6080870162000337565b90509295509295909350565b600181811c908216806200042057607f821691505b6020821081036200044157634e487b7160e01b600052602260045260246000fd5b50919050565b601f8211156200049557600081815260208120601f850160051c81016020861015620004705750805b601f850160051c820191505b8181101562000491578281556001016200047c565b5050505b505050565b81516001600160401b03811115620004b657620004b66200026a565b620004ce81620004c784546200040b565b8462000447565b602080601f831160018114620005065760008415620004ed5750858301515b600019600386901b1c1916600185901b17855562000491565b600085815260208120601f198616915b82811015620005375788860151825594840194600190910190840162000516565b5085821015620005565787850151600019600388901b60f8161c191681555b5050505050600190811b01905550565b60805160a05160c05160e0516101005161012051611b0d620005b660003960006112ff0152600061134e0152600061132901526000611282015260006112ac015260006112d60152611b0d6000f3fe608060405234801561001057600080fd5b50600436106101165760003560e01c80638da5cb5b116100a2578063c87b56dd11610071578063c87b56dd14610233578063d179e3d014610246578063d5be4eb014610259578063ec64948e1461026c578063f2fde38b1461027f57600080fd5b80638da5cb5b146101f457806395d89b4114610205578063a39478031461020d578063c5cf33c21461022057600080fd5b806353b52a6e116100e957806353b52a6e146101925780636352211e146101b357806370a08231146101c6578063715018a6146101d9578063781334c5146101e157600080fd5b806301ffc9a71461011b57806306fdde031461014357806334f87662146101585780634249d86e1461017d575b600080fd5b61012e610129366004611510565b610292565b60405190151581526020015b60405180910390f35b61014b6102e4565b60405161013a9190611596565b600a546001600160a01b03165b6040516001600160a01b03909116815260200161013a565b61019061018b3660046115bf565b610376565b005b6101a56101a03660046116b6565b61053d565b60405190815260200161013a565b6101656101c13660046116f8565b610568565b6101a56101d4366004611726565b6105cd565b610190610656565b6101a56101ef366004611743565b61066a565b6007546001600160a01b0316610165565b61014b610873565b6101a561021b366004611743565b610882565b6101a561022e3660046117c6565b61095a565b61014b6102413660046116f8565b610971565b6101906102543660046116f8565b610a76565b610190610267366004611726565b610b0b565b6101a561027a366004611743565b610b35565b61019061028d366004611726565b610be2565b60006001600160e01b03198216635b5e139f60e01b14806102c357506001600160e01b031982166346bdd63960e11b145b806102de57506301ffc9a760e01b6001600160e01b03198316145b92915050565b6060600180546102f39061182b565b80601f016020809104026020016040519081016040528092919081815260200182805461031f9061182b565b801561036c5780601f106103415761010080835404028352916020019161036c565b820191906000526020600020905b81548152906001019060200180831161034f57829003601f168201915b5050505050905090565b600a546040516331a9108f60e11b81526004810183905233916001600160a01b031690636352211e90602401602060405180830381865afa1580156103bf573d6000803e3d6000fd5b505050506040513d601f19601f820116820180604052508101906103e39190611865565b6001600160a01b03161461044a5760405162461bcd60e51b815260206004820152602360248201527f637265617465537065634173526166744f776e65723a20756e617574686f72696044820152621e995960ea1b60648201526084015b60405180910390fd5b60088260405161045a9190611882565b9081526020016040518091039020546000146104cf5760405162461bcd60e51b815260206004820152602e60248201527f637265617465537065634173526166744f776e65723a207370656320616c726560448201526d18591e481c9959da5cdd195c995960921b6064820152608401610441565b806008836040516104e09190611882565b90815260405190819003602001812091909155600a546001600160a01b031690829033907f68c7f8503283c455a4445b54a7d5c40656c8cae5cca0583c6d4be8369847870090610531908790611596565b60405180910390a45050565b60006008838360405161055192919061189e565b908152602001604051809103902054905092915050565b6000818152600360205260408120546001600160a01b0316806102de5760405162461bcd60e51b815260206004820152601c60248201527f6f776e65724f663a20746f6b656e20646f65736e2774206578697374000000006044820152606401610441565b60006001600160a01b03821661063a5760405162461bcd60e51b815260206004820152602c60248201527f62616c616e63654f663a2061646472657373207a65726f206973206e6f74206160448201526b103b30b634b21037bbb732b960a11b6064820152608401610441565b506001600160a01b031660009081526005602052604090205490565b61065e610c58565b6106686000610cb2565b565b6000806008868660405161067f92919061189e565b9081526020016040518091039020549050806000036106f45760405162461bcd60e51b815260206004820152602b60248201527f6d696e74417574686f72697a656442616467653a2073706563206973206e6f7460448201526a081c9959da5cdd195c995960aa1b6064820152608401610441565b600080306001600160a01b0316898989898960405160240161071a9594939291906118d7565b60408051601f198184030181529181526020820180516001600160e01b031663a394780360e01b1790525161074f9190611882565b600060405180830381855af49150503d806000811461078a576040519150601f19603f3d011682016040523d82523d6000602084013e61078f565b606091505b5091509150816107f35760405162461bcd60e51b815260206004820152602960248201527f6d696e74417574686f72697a656442616467653a206261646765206d696e74696044820152681b99c819985a5b195960ba1b6064820152608401610441565b600081806020019051810190610809919061190f565b600081815260096020526040908190208690555190915033906001600160a01b038c16907fb4d7f6bb726f82ba773af41aacdb5aa34ed8d23e400efe579253bf92ebd42b319061085e908d908d908790611928565b60405180910390a39998505050505050505050565b6060600280546102f39061182b565b60006001600160a01b03861633036108dc5760405162461bcd60e51b815260206004820152601b60248201527f74616b653a2063616e6e6f742074616b652066726f6d2073656c6600000000006044820152606401610441565b60006108ec338888888888610d04565b905061092f338288888080601f016020809104026020016040519081016040528093929190818152602001838380828437600092019190915250610e3892505050565b50600881901c60009081526020819052604090208054600160ff84161b1790555b9695505050505050565b600061096885858585610f40565b95945050505050565b6000818152600360205260409020546060906001600160a01b03166109d85760405162461bcd60e51b815260206004820152601d60248201527f746f6b656e5552493a20746f6b656e20646f65736e27742065786973740000006044820152606401610441565b600082815260046020526040902080546109f19061182b565b80601f0160208091040260200160405190810160405280929190818152602001828054610a1d9061182b565b8015610a6a5780601f10610a3f57610100808354040283529160200191610a6a565b820191906000526020600020905b815481529060010190602001808311610a4d57829003601f168201915b50505050509050919050565b610a7f81610568565b6001600160a01b0316336001600160a01b031614610adf5760405162461bcd60e51b815260206004820152601d60248201527f756e65717569703a2073656e646572206d757374206265206f776e65720000006044820152606401610441565b600881901c60009081526020819052604090208054600160ff84161b19169055610b0881610fcf565b50565b610b13610c58565b600a80546001600160a01b0319166001600160a01b0392909216919091179055565b60006001600160a01b0386163303610b8f5760405162461bcd60e51b815260206004820152601b60248201527f676976653a2063616e6e6f7420676976652066726f6d2073656c6600000000006044820152606401610441565b6000610b9f338888888888610d04565b905061092f878288888080601f016020809104026020016040519081016040528093929190818152602001838380828437600092019190915250610e3892505050565b610bea610c58565b6001600160a01b038116610c4f5760405162461bcd60e51b815260206004820152602660248201527f4f776e61626c653a206e6577206f776e657220697320746865207a65726f206160448201526564647265737360d01b6064820152608401610441565b610b0881610cb2565b6007546001600160a01b031633146106685760405162461bcd60e51b815260206004820181905260248201527f4f776e61626c653a2063616c6c6572206973206e6f7420746865206f776e65726044820152606401610441565b600780546001600160a01b038381166001600160a01b0319831681179093556040519116919082907f8be0079c531659141344cd1fd0a4f28419497f9722a3daafe3b4186f6b6457e090600090a35050565b600080610d1388888888610f40565b905060008160001c9050610d5e888387878080601f01602080910402602001604051908101604052809392919081815260200183838082843760009201919091525061107892505050565b610db95760405162461bcd60e51b815260206004820152602660248201527f5f73616665436865636b41677265656d656e743a20696e76616c6964207369676044820152656e617475726560d01b6064820152608401610441565b600881901c600090815260208190526040902054600160ff83161b1615610e2c5760405162461bcd60e51b815260206004820152602160248201527f5f73616665436865636b41677265656d656e743a20616c7265616479207573656044820152601960fa1b6064820152608401610441565b98975050505050505050565b6000828152600360205260408120546001600160a01b031615610e945760405162461bcd60e51b81526020600482015260146024820152736d696e743a20746f6b656e49442065786973747360601b6044820152606401610441565b6001600160a01b0384166000908152600560205260408120805460019290610ebd908490611962565b9091555050600083815260036020908152604080832080546001600160a01b0319166001600160a01b03891617905560049091529020610efd83826119c9565b5060405183906001600160a01b038616906000907fddf252ad1be2c89b69c2b068fc378daa952ba7f163c4a11628f55a4df523b3ef908290a450815b9392505050565b6000807fe76a195fbe43f0eaa611595069f780493db2202a1cc4b2d7d44b47069812998a86868686604051610f7692919061189e565b604051908190038120610fae949392916020019384526001600160a01b03928316602085015291166040830152606082015260800190565b604051602081830303815290604052805190602001209050610950816111b9565b6000610fda82610568565b6001600160a01b03811660009081526005602052604081208054929350600192909190611008908490611a89565b9091555050600082815260036020908152604080832080546001600160a01b03191690556004909152812061103c916114c2565b60405182906000906001600160a01b038416907fddf252ad1be2c89b69c2b068fc378daa952ba7f163c4a11628f55a4df523b3ef908390a45050565b60008060006110878585611207565b909250905060008160048111156110a0576110a0611aa0565b1480156110be5750856001600160a01b0316826001600160a01b0316145b156110ce57600192505050610f39565b600080876001600160a01b0316631626ba7e60e01b88886040516024016110f6929190611ab6565b60408051601f198184030181529181526020820180516001600160e01b03166001600160e01b03199094169390931790925290516111349190611882565b600060405180830381855afa9150503d806000811461116f576040519150601f19603f3d011682016040523d82523d6000602084013e611174565b606091505b5091509150818015611187575080516020145b8015610e2c57508051630b135d3f60e11b906111ac908301602090810190840161190f565b1498975050505050505050565b60006102de6111c6611275565b8360405161190160f01b6020820152602281018390526042810182905260009060620160405160208183030381529060405280519060200120905092915050565b600080825160410361123d5760208301516040840151606085015160001a6112318782858561139c565b9450945050505061126e565b8251604003611266576020830151604084015161125b868383611489565b93509350505061126e565b506000905060025b9250929050565b6000306001600160a01b037f0000000000000000000000000000000000000000000000000000000000000000161480156112ce57507f000000000000000000000000000000000000000000000000000000000000000046145b156112f857507f000000000000000000000000000000000000000000000000000000000000000090565b50604080517f00000000000000000000000000000000000000000000000000000000000000006020808301919091527f0000000000000000000000000000000000000000000000000000000000000000828401527f000000000000000000000000000000000000000000000000000000000000000060608301524660808301523060a0808401919091528351808403909101815260c0909201909252805191012090565b6000807f7fffffffffffffffffffffffffffffff5d576e7357a4501ddfe92f46681b20a08311156113d35750600090506003611480565b8460ff16601b141580156113eb57508460ff16601c14155b156113fc5750600090506004611480565b6040805160008082526020820180845289905260ff881692820192909252606081018690526080810185905260019060a0016020604051602081039080840390855afa158015611450573d6000803e3d6000fd5b5050604051601f1901519150506001600160a01b03811661147957600060019250925050611480565b9150600090505b94509492505050565b6000806001600160ff1b038316816114a660ff86901c601b611962565b90506114b48782888561139c565b935093505050935093915050565b5080546114ce9061182b565b6000825580601f106114de575050565b601f016020900490600052602060002090810190610b0891905b8082111561150c57600081556001016114f8565b5090565b60006020828403121561152257600080fd5b81356001600160e01b031981168114610f3957600080fd5b60005b8381101561155557818101518382015260200161153d565b83811115611564576000848401525b50505050565b6000815180845261158281602086016020860161153a565b601f01601f19169290920160200192915050565b602081526000610f39602083018461156a565b634e487b7160e01b600052604160045260246000fd5b600080604083850312156115d257600080fd5b823567ffffffffffffffff808211156115ea57600080fd5b818501915085601f8301126115fe57600080fd5b813581811115611610576116106115a9565b604051601f8201601f19908116603f01168101908382118183101715611638576116386115a9565b8160405282815288602084870101111561165157600080fd5b826020860160208301376000602093820184015298969091013596505050505050565b60008083601f84011261168657600080fd5b50813567ffffffffffffffff81111561169e57600080fd5b60208301915083602082850101111561126e57600080fd5b600080602083850312156116c957600080fd5b823567ffffffffffffffff8111156116e057600080fd5b6116ec85828601611674565b90969095509350505050565b60006020828403121561170a57600080fd5b5035919050565b6001600160a01b0381168114610b0857600080fd5b60006020828403121561173857600080fd5b8135610f3981611711565b60008060008060006060868803121561175b57600080fd5b853561176681611711565b9450602086013567ffffffffffffffff8082111561178357600080fd5b61178f89838a01611674565b909650945060408801359150808211156117a857600080fd5b506117b588828901611674565b969995985093965092949392505050565b600080600080606085870312156117dc57600080fd5b84356117e781611711565b935060208501356117f781611711565b9250604085013567ffffffffffffffff81111561181357600080fd5b61181f87828801611674565b95989497509550505050565b600181811c9082168061183f57607f821691505b60208210810361185f57634e487b7160e01b600052602260045260246000fd5b50919050565b60006020828403121561187757600080fd5b8151610f3981611711565b6000825161189481846020870161153a565b9190910192915050565b8183823760009101908152919050565b81835281816020850137506000828201602090810191909152601f909101601f19169091010190565b6001600160a01b03861681526060602082018190526000906118fc90830186886118ae565b8281036040840152610e2c8185876118ae565b60006020828403121561192157600080fd5b5051919050565b60408152600061193c6040830185876118ae565b9050826020830152949350505050565b634e487b7160e01b600052601160045260246000fd5b600082198211156119755761197561194c565b500190565b601f8211156119c457600081815260208120601f850160051c810160208610156119a15750805b601f850160051c820191505b818110156119c0578281556001016119ad565b5050505b505050565b815167ffffffffffffffff8111156119e3576119e36115a9565b6119f7816119f1845461182b565b8461197a565b602080601f831160018114611a2c5760008415611a145750858301515b600019600386901b1c1916600185901b1785556119c0565b600085815260208120601f198616915b82811015611a5b57888601518255948401946001909101908401611a3c565b5085821015611a795787850151600019600388901b60f8161c191681555b5050505050600190811b01905550565b600082821015611a9b57611a9b61194c565b500390565b634e487b7160e01b600052602160045260246000fd5b828152604060208201526000611acf604083018461156a565b94935050505056fea26469706673582212207b1147754124b778121cf77cfb055a0e90cc305bf1c171844e57a9c500e9635f64736f6c634300080f0033",
    "linkReferences": {}
  },
  "methodIdentifiers": {
    "balanceOf(address)": "70a08231",
    "createSpecAsRaftOwner(string,uint256)": "4249d86e",
    "getHash(address,address,string)": "c5cf33c2",
    "getRaftAddress()": "34f87662",
    "getRaftTokenIdOf(string)": "53b52a6e",
    "give(address,string,bytes)": "ec64948e",
    "mintAuthorizedBadge(address,string,bytes)": "781334c5",
    "name()": "06fdde03",
    "owner()": "8da5cb5b",
    "ownerOf(uint256)": "6352211e",
    "renounceOwnership()": "715018a6",
    "setRaftAddress(address)": "d5be4eb0",
    "supportsInterface(bytes4)": "01ffc9a7",
    "symbol()": "95d89b41",
    "take(address,string,bytes)": "a3947803",
    "tokenURI(uint256)": "c87b56dd",
    "transferOwnership(address)": "f2fde38b",
    "unequip(uint256)": "d179e3d0"
  },
  "id": 23
}