{
  "abi": [
    {
      "anonymous": false,
      "inputs": [
        {
          "indexed": false,
          "internalType": "address",
          "name": "previousAdmin",
          "type": "address"
        },
        {
          "indexed": false,
          "internalType": "address",
          "name": "newAdmin",
          "type": "address"
        }
      ],
      "name": "AdminChanged",
      "type": "event"
    },
    {
      "anonymous": false,
      "inputs": [
        {
          "indexed": true,
          "internalType": "address",
          "name": "beacon",
          "type": "address"
        }
      ],
      "name": "BeaconUpgraded",
      "type": "event"
    },
    {
      "anonymous": false,
      "inputs": [
        {
          "indexed": false,
          "internalType": "uint8",
          "name": "version",
          "type": "uint8"
        }
      ],
      "name": "Initialized",
      "type": "event"
    },
    {
      "anonymous": false,
      "inputs": [
        {
          "indexed": true,
          "internalType": "address",
          "name": "previousOwner",
          "type": "address"
        },
        {
          "indexed": true,
          "internalType": "address",
          "name": "newOwner",
          "type": "address"
        }
      ],
      "name": "OwnershipTransferred",
      "type": "event"
    },
    {
      "anonymous": false,
      "inputs": [
        {
          "indexed": true,
          "internalType": "address",
          "name": "to",
          "type": "address"
        },
        {
          "indexed": false,
          "internalType": "string",
          "name": "specUri",
          "type": "string"
        },
        {
          "indexed": true,
          "internalType": "uint256",
          "name": "raftTokenId",
          "type": "uint256"
        },
        {
          "indexed": true,
          "internalType": "address",
          "name": "raftAddress",
          "type": "address"
        }
      ],
      "name": "SpecCreated",
      "type": "event"
    },
    {
      "anonymous": false,
      "inputs": [
        {
          "indexed": true,
          "internalType": "address",
          "name": "from",
          "type": "address"
        },
        {
          "indexed": true,
          "internalType": "address",
          "name": "to",
          "type": "address"
        },
        {
          "indexed": true,
          "internalType": "uint256",
          "name": "tokenId",
          "type": "uint256"
        }
      ],
      "name": "Transfer",
      "type": "event"
    },
    {
      "anonymous": false,
      "inputs": [
        {
          "indexed": true,
          "internalType": "address",
          "name": "implementation",
          "type": "address"
        }
      ],
      "name": "Upgraded",
      "type": "event"
    },
    {
      "inputs": [
        {
          "internalType": "address",
          "name": "owner_",
          "type": "address"
        }
      ],
      "name": "balanceOf",
      "outputs": [
        {
          "internalType": "uint256",
          "name": "",
          "type": "uint256"
        }
      ],
      "stateMutability": "view",
      "type": "function"
    },
    {
      "inputs": [
        {
          "internalType": "string",
          "name": "specUri",
          "type": "string"
        },
        {
          "internalType": "uint256",
          "name": "raftTokenId",
          "type": "uint256"
        }
      ],
      "name": "createSpec",
      "outputs": [],
      "stateMutability": "nonpayable",
      "type": "function"
    },
    {
      "inputs": [],
      "name": "getDataHolderAddress",
      "outputs": [
        {
          "internalType": "address",
          "name": "",
          "type": "address"
        }
      ],
      "stateMutability": "view",
      "type": "function"
    },
    {
      "inputs": [
        {
          "internalType": "address",
          "name": "from",
          "type": "address"
        },
        {
          "internalType": "address",
          "name": "to",
          "type": "address"
        },
        {
          "internalType": "string",
          "name": "tokenURI_",
          "type": "string"
        }
      ],
      "name": "getHash",
      "outputs": [
        {
          "internalType": "bytes32",
          "name": "",
          "type": "bytes32"
        }
      ],
      "stateMutability": "view",
      "type": "function"
    },
    {
      "inputs": [
        {
          "internalType": "address",
          "name": "to",
          "type": "address"
        },
        {
          "internalType": "string",
          "name": "uri",
          "type": "string"
        },
        {
          "internalType": "bytes",
          "name": "signature",
          "type": "bytes"
        }
      ],
      "name": "give",
      "outputs": [
        {
          "internalType": "uint256",
          "name": "",
          "type": "uint256"
        }
      ],
      "stateMutability": "nonpayable",
      "type": "function"
    },
    {
      "inputs": [
        {
          "internalType": "string",
          "name": "name_",
          "type": "string"
        },
        {
          "internalType": "string",
          "name": "symbol_",
          "type": "string"
        },
        {
          "internalType": "string",
          "name": "version_",
          "type": "string"
        },
        {
          "internalType": "address",
          "name": "nextOwner",
          "type": "address"
        },
        {
          "internalType": "address",
          "name": "specDataHolderAddress",
          "type": "address"
        }
      ],
      "name": "initialize",
      "outputs": [],
      "stateMutability": "nonpayable",
      "type": "function"
    },
    {
      "inputs": [],
      "name": "name",
      "outputs": [
        {
          "internalType": "string",
          "name": "",
          "type": "string"
        }
      ],
      "stateMutability": "view",
      "type": "function"
    },
    {
      "inputs": [],
      "name": "owner",
      "outputs": [
        {
          "internalType": "address",
          "name": "",
          "type": "address"
        }
      ],
      "stateMutability": "view",
      "type": "function"
    },
    {
      "inputs": [
        {
          "internalType": "uint256",
          "name": "tokenId_",
          "type": "uint256"
        }
      ],
      "name": "ownerOf",
      "outputs": [
        {
          "internalType": "address",
          "name": "",
          "type": "address"
        }
      ],
      "stateMutability": "view",
      "type": "function"
    },
    {
      "inputs": [],
      "name": "proxiableUUID",
      "outputs": [
        {
          "internalType": "bytes32",
          "name": "",
          "type": "bytes32"
        }
      ],
      "stateMutability": "view",
      "type": "function"
    },
    {
      "inputs": [],
      "name": "renounceOwnership",
      "outputs": [],
      "stateMutability": "nonpayable",
      "type": "function"
    },
    {
      "inputs": [
        {
          "internalType": "address",
          "name": "_dataHolder",
          "type": "address"
        }
      ],
      "name": "setDataHolder",
      "outputs": [],
      "stateMutability": "nonpayable",
      "type": "function"
    },
    {
      "inputs": [
        {
          "internalType": "bytes4",
          "name": "interfaceId",
          "type": "bytes4"
        }
      ],
      "name": "supportsInterface",
      "outputs": [
        {
          "internalType": "bool",
          "name": "",
          "type": "bool"
        }
      ],
      "stateMutability": "view",
      "type": "function"
    },
    {
      "inputs": [],
      "name": "symbol",
      "outputs": [
        {
          "internalType": "string",
          "name": "",
          "type": "string"
        }
      ],
      "stateMutability": "view",
      "type": "function"
    },
    {
      "inputs": [
        {
          "internalType": "address",
          "name": "from",
          "type": "address"
        },
        {
          "internalType": "string",
          "name": "uri",
          "type": "string"
        },
        {
          "internalType": "bytes",
          "name": "signature",
          "type": "bytes"
        }
      ],
      "name": "take",
      "outputs": [
        {
          "internalType": "uint256",
          "name": "",
          "type": "uint256"
        }
      ],
      "stateMutability": "nonpayable",
      "type": "function"
    },
    {
      "inputs": [
        {
          "internalType": "uint256",
          "name": "tokenId",
          "type": "uint256"
        }
      ],
      "name": "tokenURI",
      "outputs": [
        {
          "internalType": "string",
          "name": "",
          "type": "string"
        }
      ],
      "stateMutability": "view",
      "type": "function"
    },
    {
      "inputs": [
        {
          "internalType": "address",
          "name": "newOwner",
          "type": "address"
        }
      ],
      "name": "transferOwnership",
      "outputs": [],
      "stateMutability": "nonpayable",
      "type": "function"
    },
    {
      "inputs": [
        {
          "internalType": "uint256",
          "name": "tokenId",
          "type": "uint256"
        }
      ],
      "name": "unequip",
      "outputs": [],
      "stateMutability": "nonpayable",
      "type": "function"
    },
    {
      "inputs": [
        {
          "internalType": "address",
          "name": "newImplementation",
          "type": "address"
        }
      ],
      "name": "upgradeTo",
      "outputs": [],
      "stateMutability": "nonpayable",
      "type": "function"
    },
    {
      "inputs": [
        {
          "internalType": "address",
          "name": "newImplementation",
          "type": "address"
        },
        {
          "internalType": "bytes",
          "name": "data",
          "type": "bytes"
        }
      ],
      "name": "upgradeToAndCall",
      "outputs": [],
      "stateMutability": "payable",
      "type": "function"
    }
  ],
  "bytecode": {
    "object": "0x60a06040523060601b60805234801561001757600080fd5b5060805160601c6125d4610052600039600081816104a2015281816104eb01528181610890015281816108d0015261096301526125d46000f3fe60806040526004361061011f5760003560e01c80638da5cb5b116100a0578063c87b56dd11610064578063c87b56dd14610312578063d179e3d014610332578063d6d0faee14610352578063ec64948e14610372578063f2fde38b1461039257600080fd5b80638da5cb5b1461027f57806395d89b411461029d578063a3947803146102b2578063c0184112146102d2578063c5cf33c2146102f257600080fd5b806352d1902d116100e757806352d1902d146101d05780636352211e146101f3578063635ad9931461022b57806370a082311461024a578063715018a61461026a57600080fd5b806301ffc9a71461012457806306fdde03146101595780633659cfe61461017b578063445a62b91461019d5780634f1ef286146101bd575b600080fd5b34801561013057600080fd5b5061014461013f3660046121a1565b6103b2565b60405190151581526020015b60405180910390f35b34801561016557600080fd5b5061016e610404565b6040516101509190612352565b34801561018757600080fd5b5061019b610196366004611fe0565b610497565b005b3480156101a957600080fd5b5061019b6101b836600461227b565b610580565b61019b6101cb36600461207f565b610885565b3480156101dc57600080fd5b506101e5610956565b604051908152602001610150565b3480156101ff57600080fd5b5061021361020e3660046122c0565b610a09565b6040516001600160a01b039091168152602001610150565b34801561023757600080fd5b50610135546001600160a01b0316610213565b34801561025657600080fd5b506101e5610265366004611fe0565b610a6f565b34801561027657600080fd5b5061019b610afa565b34801561028b57600080fd5b5060c9546001600160a01b0316610213565b3480156102a957600080fd5b5061016e610b0e565b3480156102be57600080fd5b506101e56102cd3660046120e3565b610b1e565b3480156102de57600080fd5b5061019b6102ed366004611fe0565b610bf8565b3480156102fe57600080fd5b506101e561030d36600461201a565b610c23565b34801561031e57600080fd5b5061016e61032d3660046122c0565b610c3a565b34801561033e57600080fd5b5061019b61034d3660046122c0565b610d41565b34801561035e57600080fd5b5061019b61036d3660046121cb565b610dd4565b34801561037e57600080fd5b506101e561038d3660046120e3565b610f53565b34801561039e57600080fd5b5061019b6103ad366004611fe0565b611001565b60006001600160e01b03198216635b5e139f60e01b14806103e357506001600160e01b031982166346bdd63960e11b145b806103fe57506301ffc9a760e01b6001600160e01b03198316145b92915050565b60606101308054610414906124c5565b80601f0160208091040260200160405190810160405280929190818152602001828054610440906124c5565b801561048d5780601f106104625761010080835404028352916020019161048d565b820191906000526020600020905b81548152906001019060200180831161047057829003601f168201915b5050505050905090565b306001600160a01b037f00000000000000000000000000000000000000000000000000000000000000001614156104e95760405162461bcd60e51b81526004016104e090612387565b60405180910390fd5b7f00000000000000000000000000000000000000000000000000000000000000006001600160a01b0316610532600080516020612558833981519152546001600160a01b031690565b6001600160a01b0316146105585760405162461bcd60e51b81526004016104e0906123d3565b61056181611077565b6040805160008082526020820190925261057d9183919061107f565b50565b6101355460405163b2a0cb6b60e01b8152600481018390526000916001600160a01b03169063b2a0cb6b9060240160206040518083038186803b1580156105c657600080fd5b505afa1580156105da573d6000803e3d6000fd5b505050506040513d601f19601f820116820180604052508101906105fe9190611ffd565b90506001600160a01b03811633146106645760405162461bcd60e51b815260206004820152602360248201527f637265617465537065634173526166744f776e65723a20756e617574686f72696044820152621e995960ea1b60648201526084016104e0565b61013554604051631722f77360e31b81526001600160a01b039091169063b917bb9890610695908690600401612352565b60206040518083038186803b1580156106ad57600080fd5b505afa1580156106c1573d6000803e3d6000fd5b505050506040513d601f19601f820116820180604052508101906106e59190612166565b156107495760405162461bcd60e51b815260206004820152602e60248201527f637265617465537065634173526166744f776e65723a207370656320616c726560448201526d18591e481c9959da5cdd195c995960921b60648201526084016104e0565b6101355460405163addd190760e01b81526001600160a01b039091169063addd19079061077c9086908690600401612365565b600060405180830381600087803b15801561079657600080fd5b505af11580156107aa573d6000803e3d6000fd5b5050505061013560009054906101000a90046001600160a01b03166001600160a01b03166334f876626040518163ffffffff1660e01b815260040160206040518083038186803b1580156107fd57600080fd5b505afa158015610811573d6000803e3d6000fd5b505050506040513d601f19601f820116820180604052508101906108359190611ffd565b6001600160a01b031682336001600160a01b03167f68c7f8503283c455a4445b54a7d5c40656c8cae5cca0583c6d4be83698478700866040516108789190612352565b60405180910390a4505050565b306001600160a01b037f00000000000000000000000000000000000000000000000000000000000000001614156108ce5760405162461bcd60e51b81526004016104e090612387565b7f00000000000000000000000000000000000000000000000000000000000000006001600160a01b0316610917600080516020612558833981519152546001600160a01b031690565b6001600160a01b03161461093d5760405162461bcd60e51b81526004016104e0906123d3565b61094682611077565b6109528282600161107f565b5050565b6000306001600160a01b037f000000000000000000000000000000000000000000000000000000000000000016146109f65760405162461bcd60e51b815260206004820152603860248201527f555550535570677261646561626c653a206d757374206e6f742062652063616c60448201527f6c6564207468726f7567682064656c656761746563616c6c000000000000000060648201526084016104e0565b5060008051602061255883398151915290565b600081815261013260205260408120546001600160a01b0316806103fe5760405162461bcd60e51b815260206004820152601c60248201527f6f776e65724f663a20746f6b656e20646f65736e27742065786973740000000060448201526064016104e0565b60006001600160a01b038216610add5760405162461bcd60e51b815260206004820152602d60248201527f62616c616e63654f663a2061646472657373207a65726f206973206e6f74206160448201526c2076616c6964206f776e65725f60981b60648201526084016104e0565b506001600160a01b03166000908152610134602052604090205490565b610b026111fe565b610b0c6000611258565b565b60606101318054610414906124c5565b6000336001600160a01b0387161415610b795760405162461bcd60e51b815260206004820152601b60248201527f74616b653a2063616e6e6f742074616b652066726f6d2073656c66000000000060448201526064016104e0565b6000610b893388888888886112aa565b9050610bcc338288888080601f0160208091040260200160405190810160405280939291908181526020018383808284376000920191909152506113df92505050565b50600881901c600090815261012f602052604090208054600160ff84161b1790555b9695505050505050565b610c006111fe565b61013580546001600160a01b0319166001600160a01b0392909216919091179055565b6000610c318585858561162c565b95945050505050565b600081815261013260205260409020546060906001600160a01b0316610ca25760405162461bcd60e51b815260206004820152601d60248201527f746f6b656e5552493a20746f6b656e20646f65736e277420657869737400000060448201526064016104e0565b6000828152610133602052604090208054610cbc906124c5565b80601f0160208091040260200160405190810160405280929190818152602001828054610ce8906124c5565b8015610d355780601f10610d0a57610100808354040283529160200191610d35565b820191906000526020600020905b815481529060010190602001808311610d1857829003601f168201915b50505050509050919050565b610d4a81610a09565b6001600160a01b0316336001600160a01b031614610daa5760405162461bcd60e51b815260206004820152601d60248201527f756e65717569703a2073656e646572206d757374206265206f776e657200000060448201526064016104e0565b600881901c600090815261012f602052604090208054600160ff84161b1916905561057d816116bb565b600054610100900460ff1615808015610df45750600054600160ff909116105b80610e0e5750303b158015610e0e575060005460ff166001145b610e715760405162461bcd60e51b815260206004820152602e60248201527f496e697469616c697a61626c653a20636f6e747261637420697320616c72656160448201526d191e481a5b9a5d1a585b1a5e995960921b60648201526084016104e0565b6000805460ff191660011790558015610e94576000805461ff0019166101001790555b8551610ea890610130906020890190611e39565b508451610ebd90610131906020880190611e39565b50610ec6611767565b610ece61178e565b610ed886856117bd565b610ee0611767565b610ee983611001565b61013580546001600160a01b0319166001600160a01b0384161790558015610f4b576000805461ff0019169055604051600181527f7f26b83ff96e1f2b6a682f133852f6798a09c465da95921460cefb38474024989060200160405180910390a15b505050505050565b6000336001600160a01b0387161415610fae5760405162461bcd60e51b815260206004820152601b60248201527f676976653a2063616e6e6f7420676976652066726f6d2073656c66000000000060448201526064016104e0565b6000610fbe3388888888886112aa565b9050610bcc878288888080601f0160208091040260200160405190810160405280939291908181526020018383808284376000920191909152506113df92505050565b6110096111fe565b6001600160a01b03811661106e5760405162461bcd60e51b815260206004820152602660248201527f4f776e61626c653a206e6577206f776e657220697320746865207a65726f206160448201526564647265737360d01b60648201526084016104e0565b61057d81611258565b61057d6111fe565b7f4910fdfa16fed3260ed0e7147f7cc6da11a60208b5b9406d12a635614ffd91435460ff16156110b7576110b2836117ee565b505050565b826001600160a01b03166352d1902d6040518163ffffffff1660e01b815260040160206040518083038186803b1580156110f057600080fd5b505afa925050508015611120575060408051601f3d908101601f1916820190925261111d91810190612188565b60015b6111835760405162461bcd60e51b815260206004820152602e60248201527f45524331393637557067726164653a206e657720696d706c656d656e7461746960448201526d6f6e206973206e6f74205555505360901b60648201526084016104e0565b60008051602061255883398151915281146111f25760405162461bcd60e51b815260206004820152602960248201527f45524331393637557067726164653a20756e737570706f727465642070726f786044820152681a58589b195555525160ba1b60648201526084016104e0565b506110b283838361188a565b60c9546001600160a01b03163314610b0c5760405162461bcd60e51b815260206004820181905260248201527f4f776e61626c653a2063616c6c6572206973206e6f7420746865206f776e657260448201526064016104e0565b60c980546001600160a01b038381166001600160a01b0319831681179093556040519116919082907f8be0079c531659141344cd1fd0a4f28419497f9722a3daafe3b4186f6b6457e090600090a35050565b6000806112b98888888861162c565b905060008160001c9050611304888387878080601f0160208091040260200160405190810160405280939291908181526020018383808284376000920191909152506118b592505050565b61135f5760405162461bcd60e51b815260206004820152602660248201527f5f73616665436865636b41677265656d656e743a20696e76616c6964207369676044820152656e617475726560d01b60648201526084016104e0565b600881901c600090815261012f6020526040902054600160ff83161b16156113d35760405162461bcd60e51b815260206004820152602160248201527f5f73616665436865636b41677265656d656e743a20616c7265616479207573656044820152601960fa1b60648201526084016104e0565b98975050505050505050565b61013554604051633664a8e960e01b815260009182916001600160a01b0390911690633664a8e990611415908690600401612352565b60206040518083038186803b15801561142d57600080fd5b505afa158015611441573d6000803e3d6000fd5b505050506040513d601f19601f820116820180604052508101906114659190612188565b9050806114b45760405162461bcd60e51b815260206004820152601d60248201527f5f6d696e743a2073706563206973206e6f74207265676973746572656400000060448201526064016104e0565b600084815261013260205260409020546001600160a01b0316156115115760405162461bcd60e51b81526020600482015260146024820152736d696e743a20746f6b656e49442065786973747360601b60448201526064016104e0565b6001600160a01b03851660009081526101346020526040812080546001929061153b90849061246a565b909155505060008481526101326020908152604080832080546001600160a01b0319166001600160a01b038a161790556101338252909120845161158192860190611e39565b5060405184906001600160a01b038716906000907fddf252ad1be2c89b69c2b068fc378daa952ba7f163c4a11628f55a4df523b3ef908290a46101355460405163fb74926160e01b815260048101869052602481018390526001600160a01b039091169063fb74926190604401600060405180830381600087803b15801561160857600080fd5b505af115801561161c573d6000803e3d6000fd5b50505050839150505b9392505050565b6000807fe76a195fbe43f0eaa611595069f780493db2202a1cc4b2d7d44b47069812998a86868686604051611662929190612305565b60405190819003812061169a949392916020019384526001600160a01b03928316602085015291166040830152606082015260800190565b604051602081830303815290604052805190602001209050610bee816119f6565b60006116c682610a09565b6001600160a01b03811660009081526101346020526040812080549293506001929091906116f5908490612482565b909155505060008281526101326020908152604080832080546001600160a01b0319169055610133909152812061172b91611ebd565b60405182906000906001600160a01b038416907fddf252ad1be2c89b69c2b068fc378daa952ba7f163c4a11628f55a4df523b3ef908390a45050565b600054610100900460ff16610b0c5760405162461bcd60e51b81526004016104e09061241f565b600054610100900460ff166117b55760405162461bcd60e51b81526004016104e09061241f565b610b0c611a44565b600054610100900460ff166117e45760405162461bcd60e51b81526004016104e09061241f565b6109528282611a74565b6001600160a01b0381163b61185b5760405162461bcd60e51b815260206004820152602d60248201527f455243313936373a206e657720696d706c656d656e746174696f6e206973206e60448201526c1bdd08184818dbdb9d1c9858dd609a1b60648201526084016104e0565b60008051602061255883398151915280546001600160a01b0319166001600160a01b0392909216919091179055565b61189383611ab5565b6000825111806118a05750805b156110b2576118af8383611af5565b50505050565b60008060006118c48585611be0565b909250905060008160048111156118dd576118dd612516565b1480156118fb5750856001600160a01b0316826001600160a01b0316145b1561190b57600192505050611625565b600080876001600160a01b0316631626ba7e60e01b8888604051602401611933929190612331565b60408051601f198184030181529181526020820180516001600160e01b03166001600160e01b03199094169390931790925290516119719190612315565b600060405180830381855afa9150503d80600081146119ac576040519150601f19603f3d011682016040523d82523d6000602084013e6119b1565b606091505b50915091508180156119c4575080516020145b80156113d357508051630b135d3f60e11b906119e99083016020908101908401612188565b1498975050505050505050565b60006103fe611a03611c50565b8360405161190160f01b6020820152602281018390526042810182905260009060620160405160208183030381529060405280519060200120905092915050565b600054610100900460ff16611a6b5760405162461bcd60e51b81526004016104e09061241f565b610b0c33611258565b600054610100900460ff16611a9b5760405162461bcd60e51b81526004016104e09061241f565b81516020928301208151919092012060fb9190915560fc55565b611abe816117ee565b6040516001600160a01b038216907fbc7cd75a20ee27fd9adebab32041f755214dbc6bffa90cc0225b39da2e5c2d3b90600090a250565b60606001600160a01b0383163b611b5d5760405162461bcd60e51b815260206004820152602660248201527f416464726573733a2064656c65676174652063616c6c20746f206e6f6e2d636f6044820152651b9d1c9858dd60d21b60648201526084016104e0565b600080846001600160a01b031684604051611b789190612315565b600060405180830381855af49150503d8060008114611bb3576040519150601f19603f3d011682016040523d82523d6000602084013e611bb8565b606091505b5091509150610c31828260405180606001604052806027815260200161257860279139611cd0565b600080825160411415611c175760208301516040840151606085015160001a611c0b87828585611ce9565b94509450505050611c49565b825160401415611c415760208301516040840151611c36868383611dd6565b935093505050611c49565b506000905060025b9250929050565b6000611ccb7f8b73c3c69bb8fe3d512ecc4cf759cc79239f7b179b0ffacaa9a75d522b39400f611c7f60fb5490565b60fc546040805160208101859052908101839052606081018290524660808201523060a082015260009060c0016040516020818303038152906040528051906020012090509392505050565b905090565b60608315611cdf575081611625565b6116258383611e0f565b6000807f7fffffffffffffffffffffffffffffff5d576e7357a4501ddfe92f46681b20a0831115611d205750600090506003611dcd565b8460ff16601b14158015611d3857508460ff16601c14155b15611d495750600090506004611dcd565b6040805160008082526020820180845289905260ff881692820192909252606081018690526080810185905260019060a0016020604051602081039080840390855afa158015611d9d573d6000803e3d6000fd5b5050604051601f1901519150506001600160a01b038116611dc657600060019250925050611dcd565b9150600090505b94509492505050565b6000806001600160ff1b03831681611df360ff86901c601b61246a565b9050611e0187828885611ce9565b935093505050935093915050565b815115611e1f5781518083602001fd5b8060405162461bcd60e51b81526004016104e09190612352565b828054611e45906124c5565b90600052602060002090601f016020900481019282611e675760008555611ead565b82601f10611e8057805160ff1916838001178555611ead565b82800160010185558215611ead579182015b82811115611ead578251825591602001919060010190611e92565b50611eb9929150611ef3565b5090565b508054611ec9906124c5565b6000825580601f10611ed9575050565b601f01602090049060005260206000209081019061057d91905b5b80821115611eb95760008155600101611ef4565b600067ffffffffffffffff80841115611f2357611f2361252c565b604051601f8501601f19908116603f01168101908282118183101715611f4b57611f4b61252c565b81604052809350858152868686011115611f6457600080fd5b858560208301376000602087830101525050509392505050565b60008083601f840112611f9057600080fd5b50813567ffffffffffffffff811115611fa857600080fd5b602083019150836020828501011115611c4957600080fd5b600082601f830112611fd157600080fd5b61162583833560208501611f08565b600060208284031215611ff257600080fd5b813561162581612542565b60006020828403121561200f57600080fd5b815161162581612542565b6000806000806060858703121561203057600080fd5b843561203b81612542565b9350602085013561204b81612542565b9250604085013567ffffffffffffffff81111561206757600080fd5b61207387828801611f7e565b95989497509550505050565b6000806040838503121561209257600080fd5b823561209d81612542565b9150602083013567ffffffffffffffff8111156120b957600080fd5b8301601f810185136120ca57600080fd5b6120d985823560208401611f08565b9150509250929050565b6000806000806000606086880312156120fb57600080fd5b853561210681612542565b9450602086013567ffffffffffffffff8082111561212357600080fd5b61212f89838a01611f7e565b9096509450604088013591508082111561214857600080fd5b5061215588828901611f7e565b969995985093965092949392505050565b60006020828403121561217857600080fd5b8151801515811461162557600080fd5b60006020828403121561219a57600080fd5b5051919050565b6000602082840312156121b357600080fd5b81356001600160e01b03198116811461162557600080fd5b600080600080600060a086880312156121e357600080fd5b853567ffffffffffffffff808211156121fb57600080fd5b61220789838a01611fc0565b9650602088013591508082111561221d57600080fd5b61222989838a01611fc0565b9550604088013591508082111561223f57600080fd5b5061224c88828901611fc0565b935050606086013561225d81612542565b9150608086013561226d81612542565b809150509295509295909350565b6000806040838503121561228e57600080fd5b823567ffffffffffffffff8111156122a557600080fd5b6122b185828601611fc0565b95602094909401359450505050565b6000602082840312156122d257600080fd5b5035919050565b600081518084526122f1816020860160208601612499565b601f01601f19169290920160200192915050565b8183823760009101908152919050565b60008251612327818460208701612499565b9190910192915050565b82815260406020820152600061234a60408301846122d9565b949350505050565b60208152600061162560208301846122d9565b60408152600061237860408301856122d9565b90508260208301529392505050565b6020808252602c908201527f46756e6374696f6e206d7573742062652063616c6c6564207468726f7567682060408201526b19195b1959d85d1958d85b1b60a21b606082015260800190565b6020808252602c908201527f46756e6374696f6e206d7573742062652063616c6c6564207468726f7567682060408201526b6163746976652070726f787960a01b606082015260800190565b6020808252602b908201527f496e697469616c697a61626c653a20636f6e7472616374206973206e6f74206960408201526a6e697469616c697a696e6760a81b606082015260800190565b6000821982111561247d5761247d612500565b500190565b60008282101561249457612494612500565b500390565b60005b838110156124b457818101518382015260200161249c565b838111156118af5750506000910152565b600181811c908216806124d957607f821691505b602082108114156124fa57634e487b7160e01b600052602260045260246000fd5b50919050565b634e487b7160e01b600052601160045260246000fd5b634e487b7160e01b600052602160045260246000fd5b634e487b7160e01b600052604160045260246000fd5b6001600160a01b038116811461057d57600080fdfe360894a13ba1a3210667c828492db98dca3e2076cc3735a920a3ca505d382bbc416464726573733a206c6f772d6c6576656c2064656c65676174652063616c6c206661696c6564a26469706673582212202e75b38a713e4dbbbebbe6ae88137d119cfa41076b28f7779f2bf44f4bf9f00c64736f6c63430008070033",
    "linkReferences": {}
  },
  "methodIdentifiers": {
    "balanceOf(address)": "70a08231",
    "createSpec(string,uint256)": "445a62b9",
    "getDataHolderAddress()": "635ad993",
    "getHash(address,address,string)": "c5cf33c2",
    "give(address,string,bytes)": "ec64948e",
    "initialize(string,string,string,address,address)": "d6d0faee",
    "name()": "06fdde03",
    "owner()": "8da5cb5b",
    "ownerOf(uint256)": "6352211e",
    "proxiableUUID()": "52d1902d",
    "renounceOwnership()": "715018a6",
    "setDataHolder(address)": "c0184112",
    "supportsInterface(bytes4)": "01ffc9a7",
    "symbol()": "95d89b41",
    "take(address,string,bytes)": "a3947803",
    "tokenURI(uint256)": "c87b56dd",
    "transferOwnership(address)": "f2fde38b",
    "unequip(uint256)": "d179e3d0",
    "upgradeTo(address)": "3659cfe6",
    "upgradeToAndCall(address,bytes)": "4f1ef286"
  },
  "id": 34
}