{
  "abi": [
    {
      "inputs": [],
      "stateMutability": "nonpayable",
      "type": "constructor"
    },
    {
      "anonymous": false,
      "inputs": [
        {
          "indexed": false,
          "internalType": "address",
          "name": "previousAdmin",
          "type": "address"
        },
        {
          "indexed": false,
          "internalType": "address",
          "name": "newAdmin",
          "type": "address"
        }
      ],
      "name": "AdminChanged",
      "type": "event"
    },
    {
      "anonymous": false,
      "inputs": [
        {
          "indexed": true,
          "internalType": "address",
          "name": "owner",
          "type": "address"
        },
        {
          "indexed": true,
          "internalType": "address",
          "name": "approved",
          "type": "address"
        },
        {
          "indexed": true,
          "internalType": "uint256",
          "name": "tokenId",
          "type": "uint256"
        }
      ],
      "name": "Approval",
      "type": "event"
    },
    {
      "anonymous": false,
      "inputs": [
        {
          "indexed": true,
          "internalType": "address",
          "name": "owner",
          "type": "address"
        },
        {
          "indexed": true,
          "internalType": "address",
          "name": "operator",
          "type": "address"
        },
        {
          "indexed": false,
          "internalType": "bool",
          "name": "approved",
          "type": "bool"
        }
      ],
      "name": "ApprovalForAll",
      "type": "event"
    },
    {
      "anonymous": false,
      "inputs": [
        {
          "indexed": true,
          "internalType": "uint256",
          "name": "tokenId",
          "type": "uint256"
        },
        {
          "indexed": true,
          "internalType": "address",
          "name": "from",
          "type": "address"
        }
      ],
      "name": "BadgeReinstated",
      "type": "event"
    },
    {
      "anonymous": false,
      "inputs": [
        {
          "indexed": true,
          "internalType": "uint256",
          "name": "tokenId",
          "type": "uint256"
        },
        {
          "indexed": true,
          "internalType": "address",
          "name": "from",
          "type": "address"
        },
        {
          "indexed": true,
          "internalType": "uint8",
          "name": "reason",
          "type": "uint8"
        }
      ],
      "name": "BadgeRevoked",
      "type": "event"
    },
    {
      "anonymous": false,
      "inputs": [
        {
          "indexed": true,
          "internalType": "address",
          "name": "beacon",
          "type": "address"
        }
      ],
      "name": "BeaconUpgraded",
      "type": "event"
    },
    {
      "anonymous": false,
      "inputs": [
        {
          "indexed": false,
          "internalType": "uint8",
          "name": "version",
          "type": "uint8"
        }
      ],
      "name": "Initialized",
      "type": "event"
    },
    {
      "anonymous": false,
      "inputs": [
        {
          "indexed": false,
          "internalType": "uint256",
          "name": "tokenId",
          "type": "uint256"
        }
      ],
      "name": "Locked",
      "type": "event"
    },
    {
      "anonymous": false,
      "inputs": [
        {
          "indexed": true,
          "internalType": "address",
          "name": "previousOwner",
          "type": "address"
        },
        {
          "indexed": true,
          "internalType": "address",
          "name": "newOwner",
          "type": "address"
        }
      ],
      "name": "OwnershipTransferred",
      "type": "event"
    },
    {
      "anonymous": false,
      "inputs": [
        {
          "indexed": false,
          "internalType": "string[]",
          "name": "specUris",
          "type": "string[]"
        },
        {
          "indexed": false,
          "internalType": "address",
          "name": "sender",
          "type": "address"
        }
      ],
      "name": "RefreshMetadata",
      "type": "event"
    },
    {
      "anonymous": false,
      "inputs": [
        {
          "indexed": true,
          "internalType": "address",
          "name": "to",
          "type": "address"
        },
        {
          "indexed": false,
          "internalType": "string",
          "name": "specUri",
          "type": "string"
        },
        {
          "indexed": true,
          "internalType": "uint256",
          "name": "raftTokenId",
          "type": "uint256"
        },
        {
          "indexed": true,
          "internalType": "address",
          "name": "raftAddress",
          "type": "address"
        }
      ],
      "name": "SpecCreated",
      "type": "event"
    },
    {
      "anonymous": false,
      "inputs": [
        {
          "indexed": true,
          "internalType": "address",
          "name": "from",
          "type": "address"
        },
        {
          "indexed": true,
          "internalType": "address",
          "name": "to",
          "type": "address"
        },
        {
          "indexed": true,
          "internalType": "uint256",
          "name": "tokenId",
          "type": "uint256"
        }
      ],
      "name": "Transfer",
      "type": "event"
    },
    {
      "anonymous": false,
      "inputs": [
        {
          "indexed": false,
          "internalType": "uint256",
          "name": "tokenId",
          "type": "uint256"
        }
      ],
      "name": "Unlocked",
      "type": "event"
    },
    {
      "anonymous": false,
      "inputs": [
        {
          "indexed": true,
          "internalType": "address",
          "name": "implementation",
          "type": "address"
        }
      ],
      "name": "Upgraded",
      "type": "event"
    },
    {
      "inputs": [
        {
          "internalType": "address",
          "name": "to",
          "type": "address"
        },
        {
          "internalType": "uint256",
          "name": "tokenId",
          "type": "uint256"
        }
      ],
      "name": "approve",
      "outputs": [],
      "stateMutability": "nonpayable",
      "type": "function"
    },
    {
      "inputs": [
        {
          "internalType": "address",
          "name": "_owner",
          "type": "address"
        }
      ],
      "name": "balanceOf",
      "outputs": [
        {
          "internalType": "uint256",
          "name": "",
          "type": "uint256"
        }
      ],
      "stateMutability": "view",
      "type": "function"
    },
    {
      "inputs": [
        {
          "internalType": "string",
          "name": "_specUri",
          "type": "string"
        },
        {
          "internalType": "uint256",
          "name": "_raftTokenId",
          "type": "uint256"
        }
      ],
      "name": "createSpec",
      "outputs": [],
      "stateMutability": "nonpayable",
      "type": "function"
    },
    {
      "inputs": [
        {
          "internalType": "address",
          "name": "_from",
          "type": "address"
        },
        {
          "internalType": "address",
          "name": "_to",
          "type": "address"
        },
        {
          "internalType": "string",
          "name": "_uri",
          "type": "string"
        }
      ],
      "name": "getAgreementHash",
      "outputs": [
        {
          "internalType": "bytes32",
          "name": "",
          "type": "bytes32"
        }
      ],
      "stateMutability": "view",
      "type": "function"
    },
    {
      "inputs": [
        {
          "internalType": "uint256",
          "name": "tokenId",
          "type": "uint256"
        }
      ],
      "name": "getApproved",
      "outputs": [
        {
          "internalType": "address",
          "name": "",
          "type": "address"
        }
      ],
      "stateMutability": "view",
      "type": "function"
    },
    {
      "inputs": [
        {
          "internalType": "address",
          "name": "_to",
          "type": "address"
        },
        {
          "internalType": "string",
          "name": "_uri",
          "type": "string"
        }
      ],
      "name": "getBadgeIdHash",
      "outputs": [
        {
          "internalType": "bytes32",
          "name": "",
          "type": "bytes32"
        }
      ],
      "stateMutability": "view",
      "type": "function"
    },
    {
      "inputs": [],
      "name": "getDataHolderAddress",
      "outputs": [
        {
          "internalType": "address",
          "name": "",
          "type": "address"
        }
      ],
      "stateMutability": "view",
      "type": "function"
    },
    {
      "inputs": [
        {
          "internalType": "uint256",
          "name": "_tokenId",
          "type": "uint256"
        }
      ],
      "name": "getVoucherHash",
      "outputs": [
        {
          "internalType": "uint256",
          "name": "",
          "type": "uint256"
        }
      ],
      "stateMutability": "view",
      "type": "function"
    },
    {
      "inputs": [
        {
          "internalType": "address",
          "name": "_to",
          "type": "address"
        },
        {
          "internalType": "string",
          "name": "_uri",
          "type": "string"
        },
        {
          "internalType": "bytes",
          "name": "_signature",
          "type": "bytes"
        }
      ],
      "name": "give",
      "outputs": [
        {
          "internalType": "uint256",
          "name": "",
          "type": "uint256"
        }
      ],
      "stateMutability": "nonpayable",
      "type": "function"
    },
    {
      "inputs": [
        {
          "internalType": "string",
          "name": "_name",
          "type": "string"
        },
        {
          "internalType": "string",
          "name": "_symbol",
          "type": "string"
        },
        {
          "internalType": "string",
          "name": "_version",
          "type": "string"
        },
        {
          "internalType": "address",
          "name": "_nextOwner",
          "type": "address"
        },
        {
          "internalType": "address",
          "name": "_specDataHolderAddress",
          "type": "address"
        }
      ],
      "name": "initialize",
      "outputs": [],
      "stateMutability": "nonpayable",
      "type": "function"
    },
    {
      "inputs": [
        {
          "internalType": "address",
          "name": "owner",
          "type": "address"
        },
        {
          "internalType": "address",
          "name": "operator",
          "type": "address"
        }
      ],
      "name": "isApprovedForAll",
      "outputs": [
        {
          "internalType": "bool",
          "name": "",
          "type": "bool"
        }
      ],
      "stateMutability": "view",
      "type": "function"
    },
    {
      "inputs": [
        {
          "internalType": "uint256",
          "name": "_badgeId",
          "type": "uint256"
        }
      ],
      "name": "isBadgeValid",
      "outputs": [
        {
          "internalType": "bool",
          "name": "",
          "type": "bool"
        }
      ],
      "stateMutability": "view",
      "type": "function"
    },
    {
      "inputs": [
        {
          "internalType": "uint256",
          "name": "_tokenId",
          "type": "uint256"
        }
      ],
      "name": "locked",
      "outputs": [
        {
          "internalType": "bool",
          "name": "",
          "type": "bool"
        }
      ],
      "stateMutability": "view",
      "type": "function"
    },
    {
      "inputs": [],
      "name": "name",
      "outputs": [
        {
          "internalType": "string",
          "name": "",
          "type": "string"
        }
      ],
      "stateMutability": "view",
      "type": "function"
    },
    {
      "inputs": [],
      "name": "owner",
      "outputs": [
        {
          "internalType": "address",
          "name": "",
          "type": "address"
        }
      ],
      "stateMutability": "view",
      "type": "function"
    },
    {
      "inputs": [
        {
          "internalType": "uint256",
          "name": "_tokenId",
          "type": "uint256"
        }
      ],
      "name": "ownerOf",
      "outputs": [
        {
          "internalType": "address",
          "name": "",
          "type": "address"
        }
      ],
      "stateMutability": "view",
      "type": "function"
    },
    {
      "inputs": [],
      "name": "proxiableUUID",
      "outputs": [
        {
          "internalType": "bytes32",
          "name": "",
          "type": "bytes32"
        }
      ],
      "stateMutability": "view",
      "type": "function"
    },
    {
      "inputs": [
        {
          "internalType": "string[]",
          "name": "_specUris",
          "type": "string[]"
        }
      ],
      "name": "refreshMetadata",
      "outputs": [],
      "stateMutability": "nonpayable",
      "type": "function"
    },
    {
      "inputs": [
        {
          "internalType": "uint256",
          "name": "_raftTokenId",
          "type": "uint256"
        },
        {
          "internalType": "uint256",
          "name": "_badgeId",
          "type": "uint256"
        }
      ],
      "name": "reinstateBadge",
      "outputs": [],
      "stateMutability": "nonpayable",
      "type": "function"
    },
    {
      "inputs": [],
      "name": "renounceOwnership",
      "outputs": [],
      "stateMutability": "nonpayable",
      "type": "function"
    },
    {
      "inputs": [
        {
          "internalType": "uint256",
          "name": "_raftTokenId",
          "type": "uint256"
        },
        {
          "internalType": "uint256",
          "name": "_badgeId",
          "type": "uint256"
        },
        {
          "internalType": "uint8",
          "name": "_reason",
          "type": "uint8"
        }
      ],
      "name": "revokeBadge",
      "outputs": [],
      "stateMutability": "nonpayable",
      "type": "function"
    },
    {
      "inputs": [
        {
          "internalType": "address",
          "name": "from",
          "type": "address"
        },
        {
          "internalType": "address",
          "name": "to",
          "type": "address"
        },
        {
          "internalType": "uint256",
          "name": "tokenId",
          "type": "uint256"
        }
      ],
      "name": "safeTransferFrom",
      "outputs": [],
      "stateMutability": "nonpayable",
      "type": "function"
    },
    {
      "inputs": [
        {
          "internalType": "address",
          "name": "from",
          "type": "address"
        },
        {
          "internalType": "address",
          "name": "to",
          "type": "address"
        },
        {
          "internalType": "uint256",
          "name": "tokenId",
          "type": "uint256"
        },
        {
          "internalType": "bytes",
          "name": "data",
          "type": "bytes"
        }
      ],
      "name": "safeTransferFrom",
      "outputs": [],
      "stateMutability": "nonpayable",
      "type": "function"
    },
    {
      "inputs": [
        {
          "internalType": "address",
          "name": "operator",
          "type": "address"
        },
        {
          "internalType": "bool",
          "name": "approved",
          "type": "bool"
        }
      ],
      "name": "setApprovalForAll",
      "outputs": [],
      "stateMutability": "nonpayable",
      "type": "function"
    },
    {
      "inputs": [
        {
          "internalType": "address",
          "name": "_dataHolder",
          "type": "address"
        }
      ],
      "name": "setDataHolder",
      "outputs": [],
      "stateMutability": "nonpayable",
      "type": "function"
    },
    {
      "inputs": [
        {
          "internalType": "bytes4",
          "name": "_interfaceId",
          "type": "bytes4"
        }
      ],
      "name": "supportsInterface",
      "outputs": [
        {
          "internalType": "bool",
          "name": "",
          "type": "bool"
        }
      ],
      "stateMutability": "view",
      "type": "function"
    },
    {
      "inputs": [],
      "name": "symbol",
      "outputs": [
        {
          "internalType": "string",
          "name": "",
          "type": "string"
        }
      ],
      "stateMutability": "view",
      "type": "function"
    },
    {
      "inputs": [
        {
          "internalType": "address",
          "name": "_from",
          "type": "address"
        },
        {
          "internalType": "string",
          "name": "_uri",
          "type": "string"
        },
        {
          "internalType": "bytes",
          "name": "_signature",
          "type": "bytes"
        }
      ],
      "name": "take",
      "outputs": [
        {
          "internalType": "uint256",
          "name": "",
          "type": "uint256"
        }
      ],
      "stateMutability": "nonpayable",
      "type": "function"
    },
    {
      "inputs": [
        {
          "internalType": "uint256",
          "name": "_tokenId",
          "type": "uint256"
        }
      ],
      "name": "tokenURI",
      "outputs": [
        {
          "internalType": "string",
          "name": "",
          "type": "string"
        }
      ],
      "stateMutability": "view",
      "type": "function"
    },
    {
      "inputs": [
        {
          "internalType": "address",
          "name": "from",
          "type": "address"
        },
        {
          "internalType": "address",
          "name": "to",
          "type": "address"
        },
        {
          "internalType": "uint256",
          "name": "tokenId",
          "type": "uint256"
        }
      ],
      "name": "transferFrom",
      "outputs": [],
      "stateMutability": "nonpayable",
      "type": "function"
    },
    {
      "inputs": [
        {
          "internalType": "address",
          "name": "newOwner",
          "type": "address"
        }
      ],
      "name": "transferOwnership",
      "outputs": [],
      "stateMutability": "nonpayable",
      "type": "function"
    },
    {
      "inputs": [
        {
          "internalType": "uint256",
          "name": "_tokenId",
          "type": "uint256"
        }
      ],
      "name": "unequip",
      "outputs": [],
      "stateMutability": "nonpayable",
      "type": "function"
    },
    {
      "inputs": [
        {
          "internalType": "address",
          "name": "newImplementation",
          "type": "address"
        }
      ],
      "name": "upgradeTo",
      "outputs": [],
      "stateMutability": "nonpayable",
      "type": "function"
    },
    {
      "inputs": [
        {
          "internalType": "address",
          "name": "newImplementation",
          "type": "address"
        },
        {
          "internalType": "bytes",
          "name": "data",
          "type": "bytes"
        }
      ],
      "name": "upgradeToAndCall",
      "outputs": [],
      "stateMutability": "payable",
      "type": "function"
    }
  ],
  "bytecode": {
    "object": "0x60a0604052306080523480156200001557600080fd5b506200002062000026565b620000e8565b600054610100900460ff1615620000935760405162461bcd60e51b815260206004820152602760248201527f496e697469616c697a61626c653a20636f6e747261637420697320696e697469604482015266616c697a696e6760c81b606482015260840160405180910390fd5b60005460ff9081161015620000e6576000805460ff191660ff9081179091556040519081527f7f26b83ff96e1f2b6a682f133852f6798a09c465da95921460cefb38474024989060200160405180910390a15b565b608051613212620001206000396000818161078d015281816107cd01528181610b4801528181610b880152610c1b01526132126000f3fe6080604052600436106101f95760003560e01c806380956c7e1161010d578063bdbdbcbf116100a0578063d6d0faee1161006f578063d6d0faee14610581578063e4992506146105a1578063e985e9c5146105c1578063ec64948e146105dc578063f2fde38b146105fc57600080fd5b8063bdbdbcbf14610501578063c018411214610521578063c87b56dd14610541578063d179e3d01461056157600080fd5b8063a3947803116100dc578063a394780314610486578063a8cf8683146104a6578063b45a3c0e146104c6578063b88d4fde146104e657600080fd5b806380956c7e146104185780638da5cb5b1461043857806395d89b4114610456578063a22cb4651461046b57600080fd5b806342842e0e116101905780636352211e1161015f5780636352211e14610384578063635ad993146103a457806370a08231146103c3578063715018a6146103e35780637c402f8d146103f857600080fd5b806342842e0e146102c5578063445a62b91461033c5780634f1ef2861461035c57806352d1902d1461036f57600080fd5b80630f4d9b01116101cc5780630f4d9b01146102a557806323b872dd146102c55780633659cfe6146102e05780633b363a091461030057600080fd5b806301ffc9a7146101fe57806306fdde0314610233578063081812fc14610255578063095ea7b314610288575b600080fd5b34801561020a57600080fd5b5061021e61021936600461269c565b61061c565b60405190151581526020015b60405180910390f35b34801561023f57600080fd5b50610248610689565b60405161022a9190612716565b34801561026157600080fd5b506102706101f9366004612729565b6040516001600160a01b03909116815260200161022a565b34801561029457600080fd5b506102a36101f9366004612757565b005b3480156102b157600080fd5b5061021e6102c0366004612729565b61071c565b3480156102d157600080fd5b506102a36101f9366004612783565b3480156102ec57600080fd5b506102a36102fb3660046127c4565b610783565b34801561030c57600080fd5b5061032e61031b366004612729565b6000908152610136602052604090205490565b60405190815260200161022a565b34801561034857600080fd5b506102a36103573660046128a0565b610862565b6102a361036a3660046128e5565b610b3e565b34801561037b57600080fd5b5061032e610c0e565b34801561039057600080fd5b5061027061039f366004612729565b610cc1565b3480156103b057600080fd5b50610135546001600160a01b0316610270565b3480156103cf57600080fd5b5061032e6103de3660046127c4565b610d16565b3480156103ef57600080fd5b506102a3610da1565b34801561040457600080fd5b506102a3610413366004612949565b610db5565b34801561042457600080fd5b506102a3610433366004612988565b610f9f565b34801561044457600080fd5b5060c9546001600160a01b0316610270565b34801561046257600080fd5b50610248611182565b34801561047757600080fd5b506102a36101f93660046129b8565b34801561049257600080fd5b5061032e6104a1366004612a33565b611192565b3480156104b257600080fd5b5061032e6104c1366004612ab6565b61127f565b3480156104d257600080fd5b5061021e6104e1366004612729565b6112b2565b3480156104f257600080fd5b506102a36101f9366004612afc565b34801561050d57600080fd5b506102a361051c366004612b5e565b6112f2565b34801561052d57600080fd5b506102a361053c3660046127c4565b611396565b34801561054d57600080fd5b5061024861055c366004612729565b6113c1565b34801561056d57600080fd5b506102a361057c366004612729565b6114c8565b34801561058d57600080fd5b506102a361059c366004612c21565b6115a4565b3480156105ad57600080fd5b5061032e6105bc366004612cd1565b611715565b3480156105cd57600080fd5b5061021e6101f9366004612d36565b3480156105e857600080fd5b5061032e6105f7366004612a33565b6117ae565b34801561060857600080fd5b506102a36106173660046127c4565b61185c565b60006001600160e01b03198216635b5e139f60e01b148061064d57506001600160e01b031982166346bdd63960e11b145b8061066857506001600160e01b03198216635a2d1e0760e11b145b8061068357506301ffc9a760e01b6001600160e01b03198316145b92915050565b6060610130805461069990612d64565b80601f01602080910402602001604051908101604052809291908181526020018280546106c590612d64565b80156107125780601f106106e757610100808354040283529160200191610712565b820191906000526020600020905b8154815290600101906020018083116106f557829003601f168201915b5050505050905090565b6000818152610132602052604081205482906001600160a01b031661075c5760405162461bcd60e51b815260040161075390612d98565b60405180910390fd5b600883901c60009081526101376020526040902054600160ff85161b161591505b50919050565b6001600160a01b037f00000000000000000000000000000000000000000000000000000000000000001630036107cb5760405162461bcd60e51b815260040161075390612dcd565b7f00000000000000000000000000000000000000000000000000000000000000006001600160a01b0316610814600080516020613196833981519152546001600160a01b031690565b6001600160a01b03161461083a5760405162461bcd60e51b815260040161075390612e19565b610843816118d2565b6040805160008082526020820190925261085f918391906118da565b50565b806040518060400160405280600a8152602001696372656174655370656360b01b8152506000816040516020016108999190612e65565b60408051808303601f19018152908290526101355463b2a0cb6b60e01b83526004830186905290925033916001600160a01b039091169063b2a0cb6b90602401602060405180830381865afa1580156108f6573d6000803e3d6000fd5b505050506040513d601f19601f8201168201806040525081019061091a9190612e97565b6001600160a01b03161481906109435760405162461bcd60e51b81526004016107539190612716565b5061013554604051637e07102760e11b81526001600160a01b039091169063fc0e204e90610975908890600401612716565b602060405180830381865afa158015610992573d6000803e3d6000fd5b505050506040513d601f19601f820116820180604052508101906109b69190612eb4565b15610a0f5760405162461bcd60e51b815260206004820152602360248201527f637265617465537065633a207370656320616c726561647920726567697374656044820152621c995960ea1b6064820152608401610753565b6101355460405163addd190760e01b81526001600160a01b039091169063addd190790610a429088908890600401612ed1565b600060405180830381600087803b158015610a5c57600080fd5b505af1158015610a70573d6000803e3d6000fd5b5050505061013560009054906101000a90046001600160a01b03166001600160a01b03166334f876626040518163ffffffff1660e01b8152600401602060405180830381865afa158015610ac8573d6000803e3d6000fd5b505050506040513d601f19601f82011682018060405250810190610aec9190612e97565b6001600160a01b031684336001600160a01b03167f68c7f8503283c455a4445b54a7d5c40656c8cae5cca0583c6d4be8369847870088604051610b2f9190612716565b60405180910390a45050505050565b6001600160a01b037f0000000000000000000000000000000000000000000000000000000000000000163003610b865760405162461bcd60e51b815260040161075390612dcd565b7f00000000000000000000000000000000000000000000000000000000000000006001600160a01b0316610bcf600080516020613196833981519152546001600160a01b031690565b6001600160a01b031614610bf55760405162461bcd60e51b815260040161075390612e19565b610bfe826118d2565b610c0a828260016118da565b5050565b6000306001600160a01b037f00000000000000000000000000000000000000000000000000000000000000001614610cae5760405162461bcd60e51b815260206004820152603860248201527f555550535570677261646561626c653a206d757374206e6f742062652063616c60448201527f6c6564207468726f7567682064656c656761746563616c6c00000000000000006064820152608401610753565b5060008051602061319683398151915290565b6000818152610132602052604081205482906001600160a01b0316610cf85760405162461bcd60e51b815260040161075390612d98565b5050600090815261013260205260409020546001600160a01b031690565b60006001600160a01b038216610d845760405162461bcd60e51b815260206004820152602d60248201527f62616c616e63654f663a2061646472657373207a65726f206973206e6f74206160448201526c2076616c6964206f776e65725f60981b6064820152608401610753565b506001600160a01b03166000908152610134602052604090205490565b610da9611a45565b610db36000611a9f565b565b6000828152610132602052604090205482906001600160a01b0316610dec5760405162461bcd60e51b815260040161075390612d98565b836040518060400160405280600b81526020016a7265766f6b65426164676560a81b815250600081604051602001610e249190612e65565b60408051808303601f19018152908290526101355463b2a0cb6b60e01b83526004830186905290925033916001600160a01b039091169063b2a0cb6b90602401602060405180830381865afa158015610e81573d6000803e3d6000fd5b505050506040513d601f19601f82011682018060405250810190610ea59190612e97565b6001600160a01b0316148190610ece5760405162461bcd60e51b81526004016107539190612716565b50600886901c60009081526101376020526040902054600160ff88161b1615610f445760405162461bcd60e51b815260206004820152602260248201527f7265766f6b6542616467653a20626164676520616c7265616479207265766f6b604482015261195960f21b6064820152608401610753565b600886901c6000908152610137602052604090208054600160ff89161b17905560405160ff861690339088907ffa784c48260e8db512de5f055a2f29eced211a7b3bd6338058b095ada7354cee90600090a450505050505050565b6000818152610132602052604090205481906001600160a01b0316610fd65760405162461bcd60e51b815260040161075390612d98565b826040518060400160405280600e81526020016d7265696e7374617465426164676560901b8152506000816040516020016110119190612e65565b60408051808303601f19018152908290526101355463b2a0cb6b60e01b83526004830186905290925033916001600160a01b039091169063b2a0cb6b90602401602060405180830381865afa15801561106e573d6000803e3d6000fd5b505050506040513d601f19601f820116820180604052508101906110929190612e97565b6001600160a01b03161481906110bb5760405162461bcd60e51b81526004016107539190612716565b50600885901c60009081526101376020526040902054600160ff87161b1661112f5760405162461bcd60e51b815260206004820152602160248201527f7265696e737461746542616467653a206261646765206e6f74207265766f6b656044820152601960fa1b6064820152608401610753565b600885901c600090815261013760205260408082208054600160ff8a161b1916905551339187917f7f8cf9ecf2a5225948f8a1601709cedc8471c52ee75a8174c9845c29c99ed9a29190a3505050505050565b6060610131805461069990612d64565b60006001600160a01b03861633036111ec5760405162461bcd60e51b815260206004820152601b60248201527f74616b653a2063616e6e6f742074616b652066726f6d2073656c6600000000006044820152606401610753565b60006111fc338888888888611af1565b905060006112403388888080601f016020809104026020016040519081016040528093929190818152602001838380828437600092019190915250611c1b92505050565b600883901c600090815261012f602052604090208054600160ff86161b1790559050600081815261013660205260409020919091559695505050505050565b60008282604051602001611294929190612ef3565b60405160208183030381529060405280519060200120905092915050565b6000818152610132602052604081205482906001600160a01b03166112e95760405162461bcd60e51b815260040161075390612d98565b50600192915050565b6112fa611a45565b600081511161135a5760405162461bcd60e51b815260206004820152602660248201527f726566726573684d657461646174613a206e6f207370656320757269732070726044820152651bdd9a59195960d21b6064820152608401610753565b7f2231d988b1a75dccab13dee3564b71a551900e822e94177a96f19561890c0fd5813360405161138b929190612f1f565b60405180910390a150565b61139e611a45565b61013580546001600160a01b0319166001600160a01b0392909216919091179055565b600081815261013260205260409020546060906001600160a01b03166114295760405162461bcd60e51b815260206004820152601d60248201527f746f6b656e5552493a20746f6b656e20646f65736e27742065786973740000006044820152606401610753565b600082815261013360205260409020805461144390612d64565b80601f016020809104026020016040519081016040528092919081815260200182805461146f90612d64565b80156114bc5780601f10611491576101008083540402835291602001916114bc565b820191906000526020600020905b81548152906001019060200180831161149f57829003601f168201915b50505050509050919050565b6000818152610132602052604090205481906001600160a01b03166114ff5760405162461bcd60e51b815260040161075390612d98565b600082815261013260205260409020546001600160a01b031633146115665760405162461bcd60e51b815260206004820152601d60248201527f756e65717569703a2073656e646572206d757374206265206f776e65720000006044820152606401610753565b60008281526101366020908152604080832054600881901c845261012f9092529091208054600160ff84161b1916905561159f83611e99565b505050565b600054610100900460ff16158080156115c45750600054600160ff909116105b806115de5750303b1580156115de575060005460ff166001145b6116415760405162461bcd60e51b815260206004820152602e60248201527f496e697469616c697a61626c653a20636f6e747261637420697320616c72656160448201526d191e481a5b9a5d1a585b1a5e995960921b6064820152608401610753565b6000805460ff191660011790558015611664576000805461ff0019166101001790555b6101306116718782612fda565b5061013161167f8682612fda565b5061013580546001600160a01b0319166001600160a01b0384161790556116a4611f86565b6116ac611fad565b6116b68685611fdc565b6116be611f86565b6116c78361185c565b801561170d576000805461ff0019169055604051600181527f7f26b83ff96e1f2b6a682f133852f6798a09c465da95921460cefb38474024989060200160405180910390a15b505050505050565b6000807fe76a195fbe43f0eaa611595069f780493db2202a1cc4b2d7d44b47069812998a8686868660405161174b92919061309a565b604051908190038120611783949392916020019384526001600160a01b03928316602085015291166040830152606082015260800190565b6040516020818303038152906040528051906020012090506117a48161200d565b9695505050505050565b60006001600160a01b03861633036118085760405162461bcd60e51b815260206004820152601b60248201527f676976653a2063616e6e6f7420676976652066726f6d2073656c6600000000006044820152606401610753565b6000611818338888888888611af1565b905060006112408888888080601f016020809104026020016040519081016040528093929190818152602001838380828437600092019190915250611c1b92505050565b611864611a45565b6001600160a01b0381166118c95760405162461bcd60e51b815260206004820152602660248201527f4f776e61626c653a206e6577206f776e657220697320746865207a65726f206160448201526564647265737360d01b6064820152608401610753565b61085f81611a9f565b61085f611a45565b7f4910fdfa16fed3260ed0e7147f7cc6da11a60208b5b9406d12a635614ffd91435460ff161561190d5761159f83612020565b826001600160a01b03166352d1902d6040518163ffffffff1660e01b8152600401602060405180830381865afa925050508015611967575060408051601f3d908101601f19168201909252611964918101906130aa565b60015b6119ca5760405162461bcd60e51b815260206004820152602e60248201527f45524331393637557067726164653a206e657720696d706c656d656e7461746960448201526d6f6e206973206e6f74205555505360901b6064820152608401610753565b6000805160206131968339815191528114611a395760405162461bcd60e51b815260206004820152602960248201527f45524331393637557067726164653a20756e737570706f727465642070726f786044820152681a58589b195555525160ba1b6064820152608401610753565b5061159f8383836120bc565b60c9546001600160a01b03163314610db35760405162461bcd60e51b815260206004820181905260248201527f4f776e61626c653a2063616c6c6572206973206e6f7420746865206f776e65726044820152606401610753565b60c980546001600160a01b038381166001600160a01b0319831681179093556040519116919082907f8be0079c531659141344cd1fd0a4f28419497f9722a3daafe3b4186f6b6457e090600090a35050565b600080611b0088888888611715565b905060008160001c9050611b4b888387878080601f0160208091040260200160405190810160405280939291908181526020018383808284376000920191909152506120e792505050565b611ba55760405162461bcd60e51b815260206004820152602560248201527f73616665436865636b41677265656d656e743a20696e76616c6964207369676e604482015264617475726560d81b6064820152608401610753565b600881901c600090815261012f6020526040902054600160ff83161b1615611c0f5760405162461bcd60e51b815260206004820181905260248201527f73616665436865636b41677265656d656e743a20616c726561647920757365646044820152606401610753565b98975050505050505050565b61013554604051633664a8e960e01b815260009182916001600160a01b0390911690633664a8e990611c51908690600401612716565b602060405180830381865afa158015611c6e573d6000803e3d6000fd5b505050506040513d601f19601f82011682018060405250810190611c9291906130aa565b90506000611ca0858561127f565b9050806000839003611cf45760405162461bcd60e51b815260206004820152601c60248201527f6d696e743a2073706563206973206e6f742072656769737465726564000000006044820152606401610753565b600081815261013260205260409020546001600160a01b031615611d515760405162461bcd60e51b81526020600482015260146024820152736d696e743a20746f6b656e49442065786973747360601b6044820152606401610753565b6001600160a01b038616600090815261013460205260408120805460019290611d7b9084906130d9565b909155505060008181526101326020908152604080832080546001600160a01b0319166001600160a01b038b161790556101339091529020611dbd8682612fda565b5060405181906001600160a01b038816906000907fddf252ad1be2c89b69c2b068fc378daa952ba7f163c4a11628f55a4df523b3ef908290a46040518181527f032bc66be43dbccb7487781d168eb7bda224628a3b2c3388bdf69b532a3a16119060200160405180910390a16101355460405163fb74926160e01b815260048101839052602481018590526001600160a01b039091169063fb74926190604401600060405180830381600087803b158015611e7757600080fd5b505af1158015611e8b573d6000803e3d6000fd5b509298975050505050505050565b600081815261013260209081526040808320546001600160a01b0316808452610134909252822080549192600192611ed29084906130ec565b909155505060008281526101326020908152604080832080546001600160a01b03191690556101339091528120611f089161264e565b60008281526101366020526040808220829055518391906001600160a01b038416907fddf252ad1be2c89b69c2b068fc378daa952ba7f163c4a11628f55a4df523b3ef908390a46040518281527ff27b6ce5b2f5e68ddb2fd95a8a909d4ecf1daaac270935fff052feacb24f18429060200160405180910390a15050565b600054610100900460ff16610db35760405162461bcd60e51b8152600401610753906130ff565b600054610100900460ff16611fd45760405162461bcd60e51b8152600401610753906130ff565b610db361222b565b600054610100900460ff166120035760405162461bcd60e51b8152600401610753906130ff565b610c0a828261225b565b600061068361201a61229c565b8361231c565b6001600160a01b0381163b61208d5760405162461bcd60e51b815260206004820152602d60248201527f455243313936373a206e657720696d706c656d656e746174696f6e206973206e60448201526c1bdd08184818dbdb9d1c9858dd609a1b6064820152608401610753565b60008051602061319683398151915280546001600160a01b0319166001600160a01b0392909216919091179055565b6120c583612343565b6000825111806120d25750805b1561159f576120e18383612383565b50505050565b60008060006120f68585612477565b9092509050600081600481111561210f5761210f61314a565b14801561212d5750856001600160a01b0316826001600160a01b0316145b1561213d57600192505050612224565b600080876001600160a01b0316631626ba7e60e01b8888604051602401612165929190613160565b60408051601f198184030181529181526020820180516001600160e01b03166001600160e01b03199094169390931790925290516121a39190613179565b600060405180830381855afa9150503d80600081146121de576040519150601f19603f3d011682016040523d82523d6000602084013e6121e3565b606091505b50915091508180156121f6575080516020145b801561221d57508051630b135d3f60e11b9061221b90830160209081019084016130aa565b145b9450505050505b9392505050565b600054610100900460ff166122525760405162461bcd60e51b8152600401610753906130ff565b610db333611a9f565b600054610100900460ff166122825760405162461bcd60e51b8152600401610753906130ff565b81516020928301208151919092012060fb9190915560fc55565b60006123177f8b73c3c69bb8fe3d512ecc4cf759cc79239f7b179b0ffacaa9a75d522b39400f6122cb60fb5490565b60fc546040805160208101859052908101839052606081018290524660808201523060a082015260009060c0016040516020818303038152906040528051906020012090509392505050565b905090565b60405161190160f01b60208201526022810183905260428101829052600090606201611294565b61234c81612020565b6040516001600160a01b038216907fbc7cd75a20ee27fd9adebab32041f755214dbc6bffa90cc0225b39da2e5c2d3b90600090a250565b60606001600160a01b0383163b6123eb5760405162461bcd60e51b815260206004820152602660248201527f416464726573733a2064656c65676174652063616c6c20746f206e6f6e2d636f6044820152651b9d1c9858dd60d21b6064820152608401610753565b600080846001600160a01b0316846040516124069190613179565b600060405180830381855af49150503d8060008114612441576040519150601f19603f3d011682016040523d82523d6000602084013e612446565b606091505b509150915061246e82826040518060600160405280602781526020016131b6602791396124e5565b95945050505050565b60008082516041036124ad5760208301516040840151606085015160001a6124a1878285856124fe565b945094505050506124de565b82516040036124d657602083015160408401516124cb8683836125eb565b9350935050506124de565b506000905060025b9250929050565b606083156124f4575081612224565b6122248383612624565b6000807f7fffffffffffffffffffffffffffffff5d576e7357a4501ddfe92f46681b20a083111561253557506000905060036125e2565b8460ff16601b1415801561254d57508460ff16601c14155b1561255e57506000905060046125e2565b6040805160008082526020820180845289905260ff881692820192909252606081018690526080810185905260019060a0016020604051602081039080840390855afa1580156125b2573d6000803e3d6000fd5b5050604051601f1901519150506001600160a01b0381166125db576000600192509250506125e2565b9150600090505b94509492505050565b6000806001600160ff1b0383168161260860ff86901c601b6130d9565b9050612616878288856124fe565b935093505050935093915050565b8151156126345781518083602001fd5b8060405162461bcd60e51b81526004016107539190612716565b50805461265a90612d64565b6000825580601f1061266a575050565b601f01602090049060005260206000209081019061085f91905b808211156126985760008155600101612684565b5090565b6000602082840312156126ae57600080fd5b81356001600160e01b03198116811461222457600080fd5b60005b838110156126e15781810151838201526020016126c9565b50506000910152565b600081518084526127028160208601602086016126c6565b601f01601f19169290920160200192915050565b60208152600061222460208301846126ea565b60006020828403121561273b57600080fd5b5035919050565b6001600160a01b038116811461085f57600080fd5b6000806040838503121561276a57600080fd5b823561277581612742565b946020939093013593505050565b60008060006060848603121561279857600080fd5b83356127a381612742565b925060208401356127b381612742565b929592945050506040919091013590565b6000602082840312156127d657600080fd5b813561222481612742565b634e487b7160e01b600052604160045260246000fd5b604051601f8201601f1916810167ffffffffffffffff81118282101715612820576128206127e1565b604052919050565b600067ffffffffffffffff831115612842576128426127e1565b612855601f8401601f19166020016127f7565b905082815283838301111561286957600080fd5b828260208301376000602084830101529392505050565b600082601f83011261289157600080fd5b61222483833560208501612828565b600080604083850312156128b357600080fd5b823567ffffffffffffffff8111156128ca57600080fd5b6128d685828601612880565b95602094909401359450505050565b600080604083850312156128f857600080fd5b823561290381612742565b9150602083013567ffffffffffffffff81111561291f57600080fd5b8301601f8101851361293057600080fd5b61293f85823560208401612828565b9150509250929050565b60008060006060848603121561295e57600080fd5b8335925060208401359150604084013560ff8116811461297d57600080fd5b809150509250925092565b6000806040838503121561299b57600080fd5b50508035926020909101359150565b801515811461085f57600080fd5b600080604083850312156129cb57600080fd5b82356129d681612742565b915060208301356129e6816129aa565b809150509250929050565b60008083601f840112612a0357600080fd5b50813567ffffffffffffffff811115612a1b57600080fd5b6020830191508360208285010111156124de57600080fd5b600080600080600060608688031215612a4b57600080fd5b8535612a5681612742565b9450602086013567ffffffffffffffff80821115612a7357600080fd5b612a7f89838a016129f1565b90965094506040880135915080821115612a9857600080fd5b50612aa5888289016129f1565b969995985093965092949392505050565b60008060408385031215612ac957600080fd5b8235612ad481612742565b9150602083013567ffffffffffffffff811115612af057600080fd5b61293f85828601612880565b600080600080600060808688031215612b1457600080fd5b8535612b1f81612742565b94506020860135612b2f81612742565b935060408601359250606086013567ffffffffffffffff811115612b5257600080fd5b612aa5888289016129f1565b60006020808385031215612b7157600080fd5b823567ffffffffffffffff80821115612b8957600080fd5b818501915085601f830112612b9d57600080fd5b813581811115612baf57612baf6127e1565b8060051b612bbe8582016127f7565b9182528381018501918581019089841115612bd857600080fd5b86860192505b83831015612c1457823585811115612bf65760008081fd5b612c048b89838a0101612880565b8352509186019190860190612bde565b9998505050505050505050565b600080600080600060a08688031215612c3957600080fd5b853567ffffffffffffffff80821115612c5157600080fd5b612c5d89838a01612880565b96506020880135915080821115612c7357600080fd5b612c7f89838a01612880565b95506040880135915080821115612c9557600080fd5b50612ca288828901612880565b9350506060860135612cb381612742565b91506080860135612cc381612742565b809150509295509295909350565b60008060008060608587031215612ce757600080fd5b8435612cf281612742565b93506020850135612d0281612742565b9250604085013567ffffffffffffffff811115612d1e57600080fd5b612d2a878288016129f1565b95989497509550505050565b60008060408385031215612d4957600080fd5b8235612d5481612742565b915060208301356129e681612742565b600181811c90821680612d7857607f821691505b60208210810361077d57634e487b7160e01b600052602260045260246000fd5b6020808252818101527f746f6b656e4578697374733a20746f6b656e20646f65736e2774206578697374604082015260600190565b6020808252602c908201527f46756e6374696f6e206d7573742062652063616c6c6564207468726f7567682060408201526b19195b1959d85d1958d85b1b60a21b606082015260800190565b6020808252602c908201527f46756e6374696f6e206d7573742062652063616c6c6564207468726f7567682060408201526b6163746976652070726f787960a01b606082015260800190565b60008251612e778184602087016126c6565b6d0e881d5b985d5d1a1bdc9a5e995960921b920191825250600e01919050565b600060208284031215612ea957600080fd5b815161222481612742565b600060208284031215612ec657600080fd5b8151612224816129aa565b604081526000612ee460408301856126ea565b90508260208301529392505050565b6001600160a01b0383168152604060208201819052600090612f17908301846126ea565b949350505050565b6000604082016040835280855180835260608501915060608160051b8601019250602080880160005b83811015612f7657605f19888703018552612f648683516126ea565b95509382019390820190600101612f48565b50506001600160a01b03969096169490950193909352949350505050565b601f82111561159f57600081815260208120601f850160051c81016020861015612fbb5750805b601f850160051c820191505b8181101561170d57828155600101612fc7565b815167ffffffffffffffff811115612ff457612ff46127e1565b613008816130028454612d64565b84612f94565b602080601f83116001811461303d57600084156130255750858301515b600019600386901b1c1916600185901b17855561170d565b600085815260208120601f198616915b8281101561306c5788860151825594840194600190910190840161304d565b508582101561308a5787850151600019600388901b60f8161c191681555b5050505050600190811b01905550565b8183823760009101908152919050565b6000602082840312156130bc57600080fd5b5051919050565b634e487b7160e01b600052601160045260246000fd5b80820180821115610683576106836130c3565b81810381811115610683576106836130c3565b6020808252602b908201527f496e697469616c697a61626c653a20636f6e7472616374206973206e6f74206960408201526a6e697469616c697a696e6760a81b606082015260800190565b634e487b7160e01b600052602160045260246000fd5b828152604060208201526000612f1760408301846126ea565b6000825161318b8184602087016126c6565b919091019291505056fe360894a13ba1a3210667c828492db98dca3e2076cc3735a920a3ca505d382bbc416464726573733a206c6f772d6c6576656c2064656c65676174652063616c6c206661696c6564a2646970667358221220211f5650c3df5c159edd905e563f53a0378741e6eb90837dacaa3dceade30aaa64736f6c63430008100033",
    "linkReferences": {}
  },
  "methodIdentifiers": {
    "approve(address,uint256)": "095ea7b3",
    "balanceOf(address)": "70a08231",
    "createSpec(string,uint256)": "445a62b9",
    "getAgreementHash(address,address,string)": "e4992506",
    "getApproved(uint256)": "081812fc",
    "getBadgeIdHash(address,string)": "a8cf8683",
    "getDataHolderAddress()": "635ad993",
    "getVoucherHash(uint256)": "3b363a09",
    "give(address,string,bytes)": "ec64948e",
    "initialize(string,string,string,address,address)": "d6d0faee",
    "isApprovedForAll(address,address)": "e985e9c5",
    "isBadgeValid(uint256)": "0f4d9b01",
    "locked(uint256)": "b45a3c0e",
    "name()": "06fdde03",
    "owner()": "8da5cb5b",
    "ownerOf(uint256)": "6352211e",
    "proxiableUUID()": "52d1902d",
    "refreshMetadata(string[])": "bdbdbcbf",
    "reinstateBadge(uint256,uint256)": "80956c7e",
    "renounceOwnership()": "715018a6",
    "revokeBadge(uint256,uint256,uint8)": "7c402f8d",
    "safeTransferFrom(address,address,uint256)": "42842e0e",
    "safeTransferFrom(address,address,uint256,bytes)": "b88d4fde",
    "setApprovalForAll(address,bool)": "a22cb465",
    "setDataHolder(address)": "c0184112",
    "supportsInterface(bytes4)": "01ffc9a7",
    "symbol()": "95d89b41",
    "take(address,string,bytes)": "a3947803",
    "tokenURI(uint256)": "c87b56dd",
    "transferFrom(address,address,uint256)": "23b872dd",
    "transferOwnership(address)": "f2fde38b",
    "unequip(uint256)": "d179e3d0",
    "upgradeTo(address)": "3659cfe6",
    "upgradeToAndCall(address,bytes)": "4f1ef286"
  },
  "id": 43
}