{
  "abi": [
    {
      "inputs": [],
      "stateMutability": "nonpayable",
      "type": "constructor"
    },
    {
      "anonymous": false,
      "inputs": [
        {
          "indexed": false,
          "internalType": "address",
          "name": "previousAdmin",
          "type": "address"
        },
        {
          "indexed": false,
          "internalType": "address",
          "name": "newAdmin",
          "type": "address"
        }
      ],
      "name": "AdminChanged",
      "type": "event"
    },
    {
      "anonymous": false,
      "inputs": [
        {
          "indexed": true,
          "internalType": "uint256",
          "name": "tokenId",
          "type": "uint256"
        },
        {
          "indexed": true,
          "internalType": "address",
          "name": "from",
          "type": "address"
        }
      ],
      "name": "BadgeReinstated",
      "type": "event"
    },
    {
      "anonymous": false,
      "inputs": [
        {
          "indexed": true,
          "internalType": "uint256",
          "name": "tokenId",
          "type": "uint256"
        },
        {
          "indexed": true,
          "internalType": "address",
          "name": "from",
          "type": "address"
        },
        {
          "indexed": true,
          "internalType": "uint8",
          "name": "reason",
          "type": "uint8"
        }
      ],
      "name": "BadgeRevoked",
      "type": "event"
    },
    {
      "anonymous": false,
      "inputs": [
        {
          "indexed": true,
          "internalType": "address",
          "name": "beacon",
          "type": "address"
        }
      ],
      "name": "BeaconUpgraded",
      "type": "event"
    },
    {
      "anonymous": false,
      "inputs": [
        {
          "indexed": false,
          "internalType": "uint8",
          "name": "version",
          "type": "uint8"
        }
      ],
      "name": "Initialized",
      "type": "event"
    },
    {
      "anonymous": false,
      "inputs": [
        {
          "indexed": true,
          "internalType": "address",
          "name": "previousOwner",
          "type": "address"
        },
        {
          "indexed": true,
          "internalType": "address",
          "name": "newOwner",
          "type": "address"
        }
      ],
      "name": "OwnershipTransferred",
      "type": "event"
    },
    {
      "anonymous": false,
      "inputs": [
        {
          "indexed": true,
          "internalType": "address",
          "name": "to",
          "type": "address"
        },
        {
          "indexed": false,
          "internalType": "string",
          "name": "specUri",
          "type": "string"
        },
        {
          "indexed": true,
          "internalType": "uint256",
          "name": "raftTokenId",
          "type": "uint256"
        },
        {
          "indexed": true,
          "internalType": "address",
          "name": "raftAddress",
          "type": "address"
        }
      ],
      "name": "SpecCreated",
      "type": "event"
    },
    {
      "anonymous": false,
      "inputs": [
        {
          "indexed": true,
          "internalType": "address",
          "name": "from",
          "type": "address"
        },
        {
          "indexed": true,
          "internalType": "address",
          "name": "to",
          "type": "address"
        },
        {
          "indexed": true,
          "internalType": "uint256",
          "name": "tokenId",
          "type": "uint256"
        }
      ],
      "name": "Transfer",
      "type": "event"
    },
    {
      "anonymous": false,
      "inputs": [
        {
          "indexed": true,
          "internalType": "address",
          "name": "implementation",
          "type": "address"
        }
      ],
      "name": "Upgraded",
      "type": "event"
    },
    {
      "inputs": [
        {
          "internalType": "address",
          "name": "_owner",
          "type": "address"
        }
      ],
      "name": "balanceOf",
      "outputs": [
        {
          "internalType": "uint256",
          "name": "",
          "type": "uint256"
        }
      ],
      "stateMutability": "view",
      "type": "function"
    },
    {
      "inputs": [
        {
          "internalType": "string",
          "name": "_specUri",
          "type": "string"
        },
        {
          "internalType": "uint256",
          "name": "_raftTokenId",
          "type": "uint256"
        }
      ],
      "name": "createSpec",
      "outputs": [],
      "stateMutability": "nonpayable",
      "type": "function"
    },
    {
      "inputs": [
        {
          "internalType": "address",
          "name": "_from",
          "type": "address"
        },
        {
          "internalType": "address",
          "name": "_to",
          "type": "address"
        },
        {
          "internalType": "string",
          "name": "_uri",
          "type": "string"
        }
      ],
      "name": "getAgreementHash",
      "outputs": [
        {
          "internalType": "bytes32",
          "name": "",
          "type": "bytes32"
        }
      ],
      "stateMutability": "view",
      "type": "function"
    },
    {
      "inputs": [
        {
          "internalType": "address",
          "name": "_to",
          "type": "address"
        },
        {
          "internalType": "string",
          "name": "_uri",
          "type": "string"
        }
      ],
      "name": "getBadgeIdHash",
      "outputs": [
        {
          "internalType": "bytes32",
          "name": "",
          "type": "bytes32"
        }
      ],
      "stateMutability": "view",
      "type": "function"
    },
    {
      "inputs": [],
      "name": "getDataHolderAddress",
      "outputs": [
        {
          "internalType": "address",
          "name": "",
          "type": "address"
        }
      ],
      "stateMutability": "view",
      "type": "function"
    },
    {
      "inputs": [
        {
          "internalType": "uint256",
          "name": "_tokenId",
          "type": "uint256"
        }
      ],
      "name": "getVoucherHash",
      "outputs": [
        {
          "internalType": "uint256",
          "name": "",
          "type": "uint256"
        }
      ],
      "stateMutability": "view",
      "type": "function"
    },
    {
      "inputs": [
        {
          "internalType": "address",
          "name": "_to",
          "type": "address"
        },
        {
          "internalType": "string",
          "name": "_uri",
          "type": "string"
        },
        {
          "internalType": "bytes",
          "name": "_signature",
          "type": "bytes"
        }
      ],
      "name": "give",
      "outputs": [
        {
          "internalType": "uint256",
          "name": "",
          "type": "uint256"
        }
      ],
      "stateMutability": "nonpayable",
      "type": "function"
    },
    {
      "inputs": [
        {
          "internalType": "string",
          "name": "_name",
          "type": "string"
        },
        {
          "internalType": "string",
          "name": "_symbol",
          "type": "string"
        },
        {
          "internalType": "string",
          "name": "_version",
          "type": "string"
        },
        {
          "internalType": "address",
          "name": "_nextOwner",
          "type": "address"
        },
        {
          "internalType": "address",
          "name": "_specDataHolderAddress",
          "type": "address"
        }
      ],
      "name": "initialize",
      "outputs": [],
      "stateMutability": "nonpayable",
      "type": "function"
    },
    {
      "inputs": [
        {
          "internalType": "uint256",
          "name": "_badgeId",
          "type": "uint256"
        }
      ],
      "name": "isBadgeValid",
      "outputs": [
        {
          "internalType": "bool",
          "name": "",
          "type": "bool"
        }
      ],
      "stateMutability": "view",
      "type": "function"
    },
    {
      "inputs": [
        {
          "internalType": "address",
          "name": "_issuer",
          "type": "address"
        },
        {
          "internalType": "bytes32",
          "name": "_merkleRoot",
          "type": "bytes32"
        },
        {
          "internalType": "bytes32[]",
          "name": "_merkleProof",
          "type": "bytes32[]"
        },
        {
          "internalType": "string",
          "name": "_uri",
          "type": "string"
        },
        {
          "internalType": "bytes",
          "name": "_signature",
          "type": "bytes"
        }
      ],
      "name": "mintWithMerklePermission",
      "outputs": [
        {
          "internalType": "uint256",
          "name": "",
          "type": "uint256"
        }
      ],
      "stateMutability": "nonpayable",
      "type": "function"
    },
    {
      "inputs": [],
      "name": "name",
      "outputs": [
        {
          "internalType": "string",
          "name": "",
          "type": "string"
        }
      ],
      "stateMutability": "view",
      "type": "function"
    },
    {
      "inputs": [],
      "name": "owner",
      "outputs": [
        {
          "internalType": "address",
          "name": "",
          "type": "address"
        }
      ],
      "stateMutability": "view",
      "type": "function"
    },
    {
      "inputs": [
        {
          "internalType": "uint256",
          "name": "_tokenId",
          "type": "uint256"
        }
      ],
      "name": "ownerOf",
      "outputs": [
        {
          "internalType": "address",
          "name": "",
          "type": "address"
        }
      ],
      "stateMutability": "view",
      "type": "function"
    },
    {
      "inputs": [],
      "name": "proxiableUUID",
      "outputs": [
        {
          "internalType": "bytes32",
          "name": "",
          "type": "bytes32"
        }
      ],
      "stateMutability": "view",
      "type": "function"
    },
    {
      "inputs": [
        {
          "internalType": "uint256",
          "name": "_raftTokenId",
          "type": "uint256"
        },
        {
          "internalType": "uint256",
          "name": "_badgeId",
          "type": "uint256"
        }
      ],
      "name": "reinstateBadge",
      "outputs": [],
      "stateMutability": "nonpayable",
      "type": "function"
    },
    {
      "inputs": [],
      "name": "renounceOwnership",
      "outputs": [],
      "stateMutability": "nonpayable",
      "type": "function"
    },
    {
      "inputs": [
        {
          "internalType": "uint256",
          "name": "_raftTokenId",
          "type": "uint256"
        },
        {
          "internalType": "uint256",
          "name": "_badgeId",
          "type": "uint256"
        },
        {
          "internalType": "uint8",
          "name": "_reason",
          "type": "uint8"
        }
      ],
      "name": "revokeBadge",
      "outputs": [],
      "stateMutability": "nonpayable",
      "type": "function"
    },
    {
      "inputs": [
        {
          "internalType": "address",
          "name": "_dataHolder",
          "type": "address"
        }
      ],
      "name": "setDataHolder",
      "outputs": [],
      "stateMutability": "nonpayable",
      "type": "function"
    },
    {
      "inputs": [
        {
          "internalType": "bytes4",
          "name": "_interfaceId",
          "type": "bytes4"
        }
      ],
      "name": "supportsInterface",
      "outputs": [
        {
          "internalType": "bool",
          "name": "",
          "type": "bool"
        }
      ],
      "stateMutability": "view",
      "type": "function"
    },
    {
      "inputs": [],
      "name": "symbol",
      "outputs": [
        {
          "internalType": "string",
          "name": "",
          "type": "string"
        }
      ],
      "stateMutability": "view",
      "type": "function"
    },
    {
      "inputs": [
        {
          "internalType": "address",
          "name": "_from",
          "type": "address"
        },
        {
          "internalType": "string",
          "name": "_uri",
          "type": "string"
        },
        {
          "internalType": "bytes",
          "name": "_signature",
          "type": "bytes"
        }
      ],
      "name": "take",
      "outputs": [
        {
          "internalType": "uint256",
          "name": "",
          "type": "uint256"
        }
      ],
      "stateMutability": "nonpayable",
      "type": "function"
    },
    {
      "inputs": [
        {
          "internalType": "uint256",
          "name": "_tokenId",
          "type": "uint256"
        }
      ],
      "name": "tokenURI",
      "outputs": [
        {
          "internalType": "string",
          "name": "",
          "type": "string"
        }
      ],
      "stateMutability": "view",
      "type": "function"
    },
    {
      "inputs": [
        {
          "internalType": "address",
          "name": "newOwner",
          "type": "address"
        }
      ],
      "name": "transferOwnership",
      "outputs": [],
      "stateMutability": "nonpayable",
      "type": "function"
    },
    {
      "inputs": [
        {
          "internalType": "uint256",
          "name": "_tokenId",
          "type": "uint256"
        }
      ],
      "name": "unequip",
      "outputs": [],
      "stateMutability": "nonpayable",
      "type": "function"
    },
    {
      "inputs": [
        {
          "internalType": "address",
          "name": "newImplementation",
          "type": "address"
        }
      ],
      "name": "upgradeTo",
      "outputs": [],
      "stateMutability": "nonpayable",
      "type": "function"
    },
    {
      "inputs": [
        {
          "internalType": "address",
          "name": "newImplementation",
          "type": "address"
        },
        {
          "internalType": "bytes",
          "name": "data",
          "type": "bytes"
        }
      ],
      "name": "upgradeToAndCall",
      "outputs": [],
      "stateMutability": "payable",
      "type": "function"
    }
  ],
  "bytecode": {
    "object": "0x60a0604052306080523480156200001557600080fd5b506200002062000026565b620000e8565b600054610100900460ff1615620000935760405162461bcd60e51b815260206004820152602760248201527f496e697469616c697a61626c653a20636f6e747261637420697320696e697469604482015266616c697a696e6760c81b606482015260840160405180910390fd5b60005460ff9081161015620000e6576000805460ff191660ff9081179091556040519081527f7f26b83ff96e1f2b6a682f133852f6798a09c465da95921460cefb38474024989060200160405180910390a15b565b60805161319562000120600039600081816107510152818161079101528181610b0c01528181610b4c0152610bdf01526131956000f3fe6080604052600436106101815760003560e01c80637c402f8d116100d1578063c01841121161008a578063d6d0faee11610064578063d6d0faee14610462578063e499250614610482578063ec64948e146104a2578063f2fde38b146104c257600080fd5b8063c018411214610402578063c87b56dd14610422578063d179e3d01461044257600080fd5b80637c402f8d1461034f57806380956c7e1461036f5780638da5cb5b1461038f57806395d89b41146103ad578063a3947803146103c2578063a8cf8683146103e257600080fd5b8063445a62b91161013e5780636352211e116101185780636352211e146102c3578063635ad993146102fb57806370a082311461031a578063715018a61461033a57600080fd5b8063445a62b91461027b5780634f1ef2861461029b57806352d1902d146102ae57600080fd5b806301ffc9a71461018657806306fdde03146101bb5780630f4d9b01146101dd5780631e84ae1f146101fd5780633659cfe61461022b5780633b363a091461024d575b600080fd5b34801561019257600080fd5b506101a66101a1366004612793565b6104e2565b60405190151581526020015b60405180910390f35b3480156101c757600080fd5b506101d0610534565b6040516101b2919061280d565b3480156101e957600080fd5b506101a66101f8366004612820565b6105c7565b34801561020957600080fd5b5061021d610218366004612890565b61062e565b6040519081526020016101b2565b34801561023757600080fd5b5061024b610246366004612977565b610747565b005b34801561025957600080fd5b5061021d610268366004612820565b6000908152610136602052604090205490565b34801561028757600080fd5b5061024b610296366004612a40565b610826565b61024b6102a9366004612a85565b610b02565b3480156102ba57600080fd5b5061021d610bd2565b3480156102cf57600080fd5b506102e36102de366004612820565b610c85565b6040516001600160a01b0390911681526020016101b2565b34801561030757600080fd5b50610135546001600160a01b03166102e3565b34801561032657600080fd5b5061021d610335366004612977565b610cda565b34801561034657600080fd5b5061024b610d65565b34801561035b57600080fd5b5061024b61036a366004612ae9565b610d79565b34801561037b57600080fd5b5061024b61038a366004612b28565b610f63565b34801561039b57600080fd5b5060c9546001600160a01b03166102e3565b3480156103b957600080fd5b506101d0611146565b3480156103ce57600080fd5b5061021d6103dd366004612b4a565b611156565b3480156103ee57600080fd5b5061021d6103fd366004612bcd565b611243565b34801561040e57600080fd5b5061024b61041d366004612977565b611276565b34801561042e57600080fd5b506101d061043d366004612820565b6112a1565b34801561044e57600080fd5b5061024b61045d366004612820565b6113a8565b34801561046e57600080fd5b5061024b61047d366004612c13565b611484565b34801561048e57600080fd5b5061021d61049d366004612cc3565b6115f5565b3480156104ae57600080fd5b5061021d6104bd366004612b4a565b61168e565b3480156104ce57600080fd5b5061024b6104dd366004612977565b61173c565b60006001600160e01b03198216635b5e139f60e01b148061051357506001600160e01b031982166346bdd63960e11b145b8061052e57506301ffc9a760e01b6001600160e01b03198316145b92915050565b6060610130805461054490612d28565b80601f016020809104026020016040519081016040528092919081815260200182805461057090612d28565b80156105bd5780601f10610592576101008083540402835291602001916105bd565b820191906000526020600020905b8154815290600101906020018083116105a057829003601f168201915b5050505050905090565b6000818152610132602052604081205482906001600160a01b03166106075760405162461bcd60e51b81526004016105fe90612d5c565b60405180910390fd5b600883901c60009081526101376020526040902054600160ff85161b161591505b50919050565b60006001600160a01b03891633036106ae5760405162461bcd60e51b815260206004820152603960248201527f6d696e74576974684d65726b6c655065726d697373696f6e3a2063616e6e6f7460448201527f206d696e7420696620796f75726520746865206973737565720000000000000060648201526084016105fe565b60006106c1338b888888888f8f8f6117b2565b905060006107053388888080601f0160208091040260200160405190810160405280939291908181526020018383808284376000920191909152506119a692505050565b600883901c600090815261012f602052604090208054600160ff86161b1790559050600081815261013660205260409020919091559998505050505050505050565b6001600160a01b037f000000000000000000000000000000000000000000000000000000000000000016300361078f5760405162461bcd60e51b81526004016105fe90612d91565b7f00000000000000000000000000000000000000000000000000000000000000006001600160a01b03166107d8600080516020613119833981519152546001600160a01b031690565b6001600160a01b0316146107fe5760405162461bcd60e51b81526004016105fe90612ddd565b61080781611bf1565b6040805160008082526020820190925261082391839190611bf9565b50565b806040518060400160405280600a8152602001696372656174655370656360b01b81525060008160405160200161085d9190612e29565b60408051808303601f19018152908290526101355463b2a0cb6b60e01b83526004830186905290925033916001600160a01b039091169063b2a0cb6b90602401602060405180830381865afa1580156108ba573d6000803e3d6000fd5b505050506040513d601f19601f820116820180604052508101906108de9190612e5b565b6001600160a01b03161481906109075760405162461bcd60e51b81526004016105fe919061280d565b5061013554604051637e07102760e11b81526001600160a01b039091169063fc0e204e9061093990889060040161280d565b602060405180830381865afa158015610956573d6000803e3d6000fd5b505050506040513d601f19601f8201168201806040525081019061097a9190612e78565b156109d35760405162461bcd60e51b815260206004820152602360248201527f637265617465537065633a207370656320616c726561647920726567697374656044820152621c995960ea1b60648201526084016105fe565b6101355460405163addd190760e01b81526001600160a01b039091169063addd190790610a069088908890600401612e9a565b600060405180830381600087803b158015610a2057600080fd5b505af1158015610a34573d6000803e3d6000fd5b5050505061013560009054906101000a90046001600160a01b03166001600160a01b03166334f876626040518163ffffffff1660e01b8152600401602060405180830381865afa158015610a8c573d6000803e3d6000fd5b505050506040513d601f19601f82011682018060405250810190610ab09190612e5b565b6001600160a01b031684336001600160a01b03167f68c7f8503283c455a4445b54a7d5c40656c8cae5cca0583c6d4be8369847870088604051610af3919061280d565b60405180910390a45050505050565b6001600160a01b037f0000000000000000000000000000000000000000000000000000000000000000163003610b4a5760405162461bcd60e51b81526004016105fe90612d91565b7f00000000000000000000000000000000000000000000000000000000000000006001600160a01b0316610b93600080516020613119833981519152546001600160a01b031690565b6001600160a01b031614610bb95760405162461bcd60e51b81526004016105fe90612ddd565b610bc282611bf1565b610bce82826001611bf9565b5050565b6000306001600160a01b037f00000000000000000000000000000000000000000000000000000000000000001614610c725760405162461bcd60e51b815260206004820152603860248201527f555550535570677261646561626c653a206d757374206e6f742062652063616c60448201527f6c6564207468726f7567682064656c656761746563616c6c000000000000000060648201526084016105fe565b5060008051602061311983398151915290565b6000818152610132602052604081205482906001600160a01b0316610cbc5760405162461bcd60e51b81526004016105fe90612d5c565b5050600090815261013260205260409020546001600160a01b031690565b60006001600160a01b038216610d485760405162461bcd60e51b815260206004820152602d60248201527f62616c616e63654f663a2061646472657373207a65726f206973206e6f74206160448201526c2076616c6964206f776e65725f60981b60648201526084016105fe565b506001600160a01b03166000908152610134602052604090205490565b610d6d611d64565b610d776000611dbe565b565b6000828152610132602052604090205482906001600160a01b0316610db05760405162461bcd60e51b81526004016105fe90612d5c565b836040518060400160405280600b81526020016a7265766f6b65426164676560a81b815250600081604051602001610de89190612e29565b60408051808303601f19018152908290526101355463b2a0cb6b60e01b83526004830186905290925033916001600160a01b039091169063b2a0cb6b90602401602060405180830381865afa158015610e45573d6000803e3d6000fd5b505050506040513d601f19601f82011682018060405250810190610e699190612e5b565b6001600160a01b0316148190610e925760405162461bcd60e51b81526004016105fe919061280d565b50600886901c60009081526101376020526040902054600160ff88161b1615610f085760405162461bcd60e51b815260206004820152602260248201527f7265766f6b6542616467653a20626164676520616c7265616479207265766f6b604482015261195960f21b60648201526084016105fe565b600886901c6000908152610137602052604090208054600160ff89161b17905560405160ff861690339088907ffa784c48260e8db512de5f055a2f29eced211a7b3bd6338058b095ada7354cee90600090a450505050505050565b6000818152610132602052604090205481906001600160a01b0316610f9a5760405162461bcd60e51b81526004016105fe90612d5c565b826040518060400160405280600e81526020016d7265696e7374617465426164676560901b815250600081604051602001610fd59190612e29565b60408051808303601f19018152908290526101355463b2a0cb6b60e01b83526004830186905290925033916001600160a01b039091169063b2a0cb6b90602401602060405180830381865afa158015611032573d6000803e3d6000fd5b505050506040513d601f19601f820116820180604052508101906110569190612e5b565b6001600160a01b031614819061107f5760405162461bcd60e51b81526004016105fe919061280d565b50600885901c60009081526101376020526040902054600160ff87161b166110f35760405162461bcd60e51b815260206004820152602160248201527f7265696e737461746542616467653a206261646765206e6f74207265766f6b656044820152601960fa1b60648201526084016105fe565b600885901c600090815261013760205260408082208054600160ff8a161b1916905551339187917f7f8cf9ecf2a5225948f8a1601709cedc8471c52ee75a8174c9845c29c99ed9a29190a3505050505050565b6060610131805461054490612d28565b60006001600160a01b03861633036111b05760405162461bcd60e51b815260206004820152601b60248201527f74616b653a2063616e6e6f742074616b652066726f6d2073656c66000000000060448201526064016105fe565b60006111c0338888888888611e10565b905060006112043388888080601f0160208091040260200160405190810160405280939291908181526020018383808284376000920191909152506119a692505050565b600883901c600090815261012f602052604090208054600160ff86161b1790559050600081815261013660205260409020919091559695505050505050565b60008282604051602001611258929190612ebc565b60405160208183030381529060405280519060200120905092915050565b61127e611d64565b61013580546001600160a01b0319166001600160a01b0392909216919091179055565b600081815261013260205260409020546060906001600160a01b03166113095760405162461bcd60e51b815260206004820152601d60248201527f746f6b656e5552493a20746f6b656e20646f65736e277420657869737400000060448201526064016105fe565b600082815261013360205260409020805461132390612d28565b80601f016020809104026020016040519081016040528092919081815260200182805461134f90612d28565b801561139c5780601f106113715761010080835404028352916020019161139c565b820191906000526020600020905b81548152906001019060200180831161137f57829003601f168201915b50505050509050919050565b6000818152610132602052604090205481906001600160a01b03166113df5760405162461bcd60e51b81526004016105fe90612d5c565b600082815261013260205260409020546001600160a01b031633146114465760405162461bcd60e51b815260206004820152601d60248201527f756e65717569703a2073656e646572206d757374206265206f776e657200000060448201526064016105fe565b60008281526101366020908152604080832054600881901c845261012f9092529091208054600160ff84161b1916905561147f83611f3a565b505050565b600054610100900460ff16158080156114a45750600054600160ff909116105b806114be5750303b1580156114be575060005460ff166001145b6115215760405162461bcd60e51b815260206004820152602e60248201527f496e697469616c697a61626c653a20636f6e747261637420697320616c72656160448201526d191e481a5b9a5d1a585b1a5e995960921b60648201526084016105fe565b6000805460ff191660011790558015611544576000805461ff0019166101001790555b6101306115518782612f2e565b5061013161155f8682612f2e565b5061013580546001600160a01b0319166001600160a01b038416179055611584611ff4565b61158c61201b565b611596868561204a565b61159e611ff4565b6115a78361173c565b80156115ed576000805461ff0019169055604051600181527f7f26b83ff96e1f2b6a682f133852f6798a09c465da95921460cefb38474024989060200160405180910390a15b505050505050565b6000807fe76a195fbe43f0eaa611595069f780493db2202a1cc4b2d7d44b47069812998a8686868660405161162b929190612fee565b604051908190038120611663949392916020019384526001600160a01b03928316602085015291166040830152606082015260800190565b6040516020818303038152906040528051906020012090506116848161207b565b9695505050505050565b60006001600160a01b03861633036116e85760405162461bcd60e51b815260206004820152601b60248201527f676976653a2063616e6e6f7420676976652066726f6d2073656c66000000000060448201526064016105fe565b60006116f8338888888888611e10565b905060006112048888888080601f0160208091040260200160405190810160405280939291908181526020018383808284376000920191909152506119a692505050565b611744611d64565b6001600160a01b0381166117a95760405162461bcd60e51b815260206004820152602660248201527f4f776e61626c653a206e6577206f776e657220697320746865207a65726f206160448201526564647265737360d01b60648201526084016105fe565b61082381611dbe565b6000806117c18b8b8b8b6115f5565b6040516bffffffffffffffffffffffff1960608e901b16602082015290915081906000906034016040516020818303038152906040528051906020012090506118408686808060200260200160405190810160405280939291908181526020018383602002808284376000920191909152508b925085915061208e9050565b61187c5760405162461bcd60e51b815260206004820152600d60248201526c34b73b30b634b210383937b7b360991b60448201526064016105fe565b6118bd8c848b8b8080601f0160208091040260200160405190810160405280939291908181526020018383808284376000920191909152506120a692505050565b61191d5760405162461bcd60e51b815260206004820152602b60248201527f73616665436865636b41677265656d656e744d65726b6c653a20696e76616c6960448201526a64207369676e617475726560a81b60648201526084016105fe565b600882901c600090815261012f6020526040902054600160ff84161b16156119965760405162461bcd60e51b815260206004820152602660248201527f73616665436865636b41677265656d656e744d65726b6c653a20616c726561646044820152651e481d5cd95960d21b60648201526084016105fe565b509b9a5050505050505050505050565b61013554604051633664a8e960e01b815260009182916001600160a01b0390911690633664a8e9906119dc90869060040161280d565b602060405180830381865afa1580156119f9573d6000803e3d6000fd5b505050506040513d601f19601f82011682018060405250810190611a1d9190612ffe565b90506000611a2b8585611243565b9050806000839003611a7f5760405162461bcd60e51b815260206004820152601c60248201527f6d696e743a2073706563206973206e6f7420726567697374657265640000000060448201526064016105fe565b600081815261013260205260409020546001600160a01b031615611adc5760405162461bcd60e51b81526020600482015260146024820152736d696e743a20746f6b656e49442065786973747360601b60448201526064016105fe565b6001600160a01b038616600090815261013460205260408120805460019290611b0690849061302d565b909155505060008181526101326020908152604080832080546001600160a01b0319166001600160a01b038b161790556101339091529020611b488682612f2e565b5060405181906001600160a01b038816906000907fddf252ad1be2c89b69c2b068fc378daa952ba7f163c4a11628f55a4df523b3ef908290a46101355460405163fb74926160e01b815260048101839052602481018590526001600160a01b039091169063fb74926190604401600060405180830381600087803b158015611bcf57600080fd5b505af1158015611be3573d6000803e3d6000fd5b509298975050505050505050565b610823611d64565b7f4910fdfa16fed3260ed0e7147f7cc6da11a60208b5b9406d12a635614ffd91435460ff1615611c2c5761147f836121e7565b826001600160a01b03166352d1902d6040518163ffffffff1660e01b8152600401602060405180830381865afa925050508015611c86575060408051601f3d908101601f19168201909252611c8391810190612ffe565b60015b611ce95760405162461bcd60e51b815260206004820152602e60248201527f45524331393637557067726164653a206e657720696d706c656d656e7461746960448201526d6f6e206973206e6f74205555505360901b60648201526084016105fe565b6000805160206131198339815191528114611d585760405162461bcd60e51b815260206004820152602960248201527f45524331393637557067726164653a20756e737570706f727465642070726f786044820152681a58589b195555525160ba1b60648201526084016105fe565b5061147f838383612283565b60c9546001600160a01b03163314610d775760405162461bcd60e51b815260206004820181905260248201527f4f776e61626c653a2063616c6c6572206973206e6f7420746865206f776e657260448201526064016105fe565b60c980546001600160a01b038381166001600160a01b0319831681179093556040519116919082907f8be0079c531659141344cd1fd0a4f28419497f9722a3daafe3b4186f6b6457e090600090a35050565b600080611e1f888888886115f5565b905060008160001c9050611e6a888387878080601f0160208091040260200160405190810160405280939291908181526020018383808284376000920191909152506120a692505050565b611ec45760405162461bcd60e51b815260206004820152602560248201527f73616665436865636b41677265656d656e743a20696e76616c6964207369676e604482015264617475726560d81b60648201526084016105fe565b600881901c600090815261012f6020526040902054600160ff83161b1615611f2e5760405162461bcd60e51b815260206004820181905260248201527f73616665436865636b41677265656d656e743a20616c7265616479207573656460448201526064016105fe565b98975050505050505050565b600081815261013260209081526040808320546001600160a01b0316808452610134909252822080549192600192611f73908490613040565b909155505060008281526101326020908152604080832080546001600160a01b03191690556101339091528120611fa991612745565b60008281526101366020526040808220829055518391906001600160a01b038416907fddf252ad1be2c89b69c2b068fc378daa952ba7f163c4a11628f55a4df523b3ef908390a45050565b600054610100900460ff16610d775760405162461bcd60e51b81526004016105fe90613053565b600054610100900460ff166120425760405162461bcd60e51b81526004016105fe90613053565b610d776122ae565b600054610100900460ff166120715760405162461bcd60e51b81526004016105fe90613053565b610bce82826122de565b600061052e61208861231f565b8361239f565b60008261209b85846123c6565b1490505b9392505050565b60008060006120b58585612413565b909250905060008160048111156120ce576120ce61309e565b1480156120ec5750856001600160a01b0316826001600160a01b0316145b156120fc5760019250505061209f565b600080876001600160a01b0316631626ba7e60e01b88886040516024016121249291906130b4565b60408051601f198184030181529181526020820180516001600160e01b03166001600160e01b031990941693909317909252905161216291906130cd565b600060405180830381855afa9150503d806000811461219d576040519150601f19603f3d011682016040523d82523d6000602084013e6121a2565b606091505b50915091508180156121b5575080516020145b8015611f2e57508051630b135d3f60e11b906121da9083016020908101908401612ffe565b1498975050505050505050565b6001600160a01b0381163b6122545760405162461bcd60e51b815260206004820152602d60248201527f455243313936373a206e657720696d706c656d656e746174696f6e206973206e60448201526c1bdd08184818dbdb9d1c9858dd609a1b60648201526084016105fe565b60008051602061311983398151915280546001600160a01b0319166001600160a01b0392909216919091179055565b61228c83612481565b6000825111806122995750805b1561147f576122a883836124c1565b50505050565b600054610100900460ff166122d55760405162461bcd60e51b81526004016105fe90613053565b610d7733611dbe565b600054610100900460ff166123055760405162461bcd60e51b81526004016105fe90613053565b81516020928301208151919092012060fb9190915560fc55565b600061239a7f8b73c3c69bb8fe3d512ecc4cf759cc79239f7b179b0ffacaa9a75d522b39400f61234e60fb5490565b60fc546040805160208101859052908101839052606081018290524660808201523060a082015260009060c0016040516020818303038152906040528051906020012090509392505050565b905090565b60405161190160f01b60208201526022810183905260428101829052600090606201611258565b600081815b845181101561240b576123f7828683815181106123ea576123ea6130e9565b60200260200101516125b5565b915080612403816130ff565b9150506123cb565b509392505050565b60008082516041036124495760208301516040840151606085015160001a61243d878285856125e1565b9450945050505061247a565b825160400361247257602083015160408401516124678683836126ce565b93509350505061247a565b506000905060025b9250929050565b61248a816121e7565b6040516001600160a01b038216907fbc7cd75a20ee27fd9adebab32041f755214dbc6bffa90cc0225b39da2e5c2d3b90600090a250565b60606001600160a01b0383163b6125295760405162461bcd60e51b815260206004820152602660248201527f416464726573733a2064656c65676174652063616c6c20746f206e6f6e2d636f6044820152651b9d1c9858dd60d21b60648201526084016105fe565b600080846001600160a01b03168460405161254491906130cd565b600060405180830381855af49150503d806000811461257f576040519150601f19603f3d011682016040523d82523d6000602084013e612584565b606091505b50915091506125ac828260405180606001604052806027815260200161313960279139612707565b95945050505050565b60008183106125d157600082815260208490526040902061209f565b5060009182526020526040902090565b6000807f7fffffffffffffffffffffffffffffff5d576e7357a4501ddfe92f46681b20a083111561261857506000905060036126c5565b8460ff16601b1415801561263057508460ff16601c14155b1561264157506000905060046126c5565b6040805160008082526020820180845289905260ff881692820192909252606081018690526080810185905260019060a0016020604051602081039080840390855afa158015612695573d6000803e3d6000fd5b5050604051601f1901519150506001600160a01b0381166126be576000600192509250506126c5565b9150600090505b94509492505050565b6000806001600160ff1b038316816126eb60ff86901c601b61302d565b90506126f9878288856125e1565b935093505050935093915050565b6060831561271657508161209f565b61209f838381511561272b5781518083602001fd5b8060405162461bcd60e51b81526004016105fe919061280d565b50805461275190612d28565b6000825580601f10612761575050565b601f01602090049060005260206000209081019061082391905b8082111561278f576000815560010161277b565b5090565b6000602082840312156127a557600080fd5b81356001600160e01b03198116811461209f57600080fd5b60005b838110156127d85781810151838201526020016127c0565b50506000910152565b600081518084526127f98160208601602086016127bd565b601f01601f19169290920160200192915050565b60208152600061209f60208301846127e1565b60006020828403121561283257600080fd5b5035919050565b6001600160a01b038116811461082357600080fd5b60008083601f84011261286057600080fd5b50813567ffffffffffffffff81111561287857600080fd5b60208301915083602082850101111561247a57600080fd5b60008060008060008060008060a0898b0312156128ac57600080fd5b88356128b781612839565b975060208901359650604089013567ffffffffffffffff808211156128db57600080fd5b818b0191508b601f8301126128ef57600080fd5b8135818111156128fe57600080fd5b8c60208260051b850101111561291357600080fd5b6020830198508097505060608b013591508082111561293157600080fd5b61293d8c838d0161284e565b909650945060808b013591508082111561295657600080fd5b506129638b828c0161284e565b999c989b5096995094979396929594505050565b60006020828403121561298957600080fd5b813561209f81612839565b634e487b7160e01b600052604160045260246000fd5b600067ffffffffffffffff808411156129c5576129c5612994565b604051601f8501601f19908116603f011681019082821181831017156129ed576129ed612994565b81604052809350858152868686011115612a0657600080fd5b858560208301376000602087830101525050509392505050565b600082601f830112612a3157600080fd5b61209f838335602085016129aa565b60008060408385031215612a5357600080fd5b823567ffffffffffffffff811115612a6a57600080fd5b612a7685828601612a20565b95602094909401359450505050565b60008060408385031215612a9857600080fd5b8235612aa381612839565b9150602083013567ffffffffffffffff811115612abf57600080fd5b8301601f81018513612ad057600080fd5b612adf858235602084016129aa565b9150509250929050565b600080600060608486031215612afe57600080fd5b8335925060208401359150604084013560ff81168114612b1d57600080fd5b809150509250925092565b60008060408385031215612b3b57600080fd5b50508035926020909101359150565b600080600080600060608688031215612b6257600080fd5b8535612b6d81612839565b9450602086013567ffffffffffffffff80821115612b8a57600080fd5b612b9689838a0161284e565b90965094506040880135915080821115612baf57600080fd5b50612bbc8882890161284e565b969995985093965092949392505050565b60008060408385031215612be057600080fd5b8235612beb81612839565b9150602083013567ffffffffffffffff811115612c0757600080fd5b612adf85828601612a20565b600080600080600060a08688031215612c2b57600080fd5b853567ffffffffffffffff80821115612c4357600080fd5b612c4f89838a01612a20565b96506020880135915080821115612c6557600080fd5b612c7189838a01612a20565b95506040880135915080821115612c8757600080fd5b50612c9488828901612a20565b9350506060860135612ca581612839565b91506080860135612cb581612839565b809150509295509295909350565b60008060008060608587031215612cd957600080fd5b8435612ce481612839565b93506020850135612cf481612839565b9250604085013567ffffffffffffffff811115612d1057600080fd5b612d1c8782880161284e565b95989497509550505050565b600181811c90821680612d3c57607f821691505b60208210810361062857634e487b7160e01b600052602260045260246000fd5b6020808252818101527f746f6b656e4578697374733a20746f6b656e20646f65736e2774206578697374604082015260600190565b6020808252602c908201527f46756e6374696f6e206d7573742062652063616c6c6564207468726f7567682060408201526b19195b1959d85d1958d85b1b60a21b606082015260800190565b6020808252602c908201527f46756e6374696f6e206d7573742062652063616c6c6564207468726f7567682060408201526b6163746976652070726f787960a01b606082015260800190565b60008251612e3b8184602087016127bd565b6d0e881d5b985d5d1a1bdc9a5e995960921b920191825250600e01919050565b600060208284031215612e6d57600080fd5b815161209f81612839565b600060208284031215612e8a57600080fd5b8151801515811461209f57600080fd5b604081526000612ead60408301856127e1565b90508260208301529392505050565b6001600160a01b0383168152604060208201819052600090612ee0908301846127e1565b949350505050565b601f82111561147f57600081815260208120601f850160051c81016020861015612f0f5750805b601f850160051c820191505b818110156115ed57828155600101612f1b565b815167ffffffffffffffff811115612f4857612f48612994565b612f5c81612f568454612d28565b84612ee8565b602080601f831160018114612f915760008415612f795750858301515b600019600386901b1c1916600185901b1785556115ed565b600085815260208120601f198616915b82811015612fc057888601518255948401946001909101908401612fa1565b5085821015612fde5787850151600019600388901b60f8161c191681555b5050505050600190811b01905550565b8183823760009101908152919050565b60006020828403121561301057600080fd5b5051919050565b634e487b7160e01b600052601160045260246000fd5b8082018082111561052e5761052e613017565b8181038181111561052e5761052e613017565b6020808252602b908201527f496e697469616c697a61626c653a20636f6e7472616374206973206e6f74206960408201526a6e697469616c697a696e6760a81b606082015260800190565b634e487b7160e01b600052602160045260246000fd5b828152604060208201526000612ee060408301846127e1565b600082516130df8184602087016127bd565b9190910192915050565b634e487b7160e01b600052603260045260246000fd5b60006001820161311157613111613017565b506001019056fe360894a13ba1a3210667c828492db98dca3e2076cc3735a920a3ca505d382bbc416464726573733a206c6f772d6c6576656c2064656c65676174652063616c6c206661696c6564a2646970667358221220b3bc84129ecc9c5e2c05f191c546ef328f322c0ca989fe87d573f1f61eded20764736f6c63430008100033",
    "linkReferences": {}
  },
  "methodIdentifiers": {
    "balanceOf(address)": "70a08231",
    "createSpec(string,uint256)": "445a62b9",
    "getAgreementHash(address,address,string)": "e4992506",
    "getBadgeIdHash(address,string)": "a8cf8683",
    "getDataHolderAddress()": "635ad993",
    "getVoucherHash(uint256)": "3b363a09",
    "give(address,string,bytes)": "ec64948e",
    "initialize(string,string,string,address,address)": "d6d0faee",
    "isBadgeValid(uint256)": "0f4d9b01",
    "mintWithMerklePermission(address,bytes32,bytes32[],string,bytes)": "1e84ae1f",
    "name()": "06fdde03",
    "owner()": "8da5cb5b",
    "ownerOf(uint256)": "6352211e",
    "proxiableUUID()": "52d1902d",
    "reinstateBadge(uint256,uint256)": "80956c7e",
    "renounceOwnership()": "715018a6",
    "revokeBadge(uint256,uint256,uint8)": "7c402f8d",
    "setDataHolder(address)": "c0184112",
    "supportsInterface(bytes4)": "01ffc9a7",
    "symbol()": "95d89b41",
    "take(address,string,bytes)": "a3947803",
    "tokenURI(uint256)": "c87b56dd",
    "transferOwnership(address)": "f2fde38b",
    "unequip(uint256)": "d179e3d0",
    "upgradeTo(address)": "3659cfe6",
    "upgradeToAndCall(address,bytes)": "4f1ef286"
  },
  "id": 44
}