{
  "abi": [
    {
      "inputs": [
        {
          "internalType": "string",
          "name": "name",
          "type": "string"
        },
        {
          "internalType": "string",
          "name": "symbol",
          "type": "string"
        },
        {
          "internalType": "string",
          "name": "version",
          "type": "string"
        }
      ],
      "stateMutability": "nonpayable",
      "type": "constructor"
    },
    {
      "anonymous": false,
      "inputs": [
        {
          "indexed": true,
          "internalType": "address",
          "name": "from",
          "type": "address"
        },
        {
          "indexed": true,
          "internalType": "address",
          "name": "to",
          "type": "address"
        },
        {
          "indexed": true,
          "internalType": "uint256",
          "name": "tokenId",
          "type": "uint256"
        }
      ],
      "name": "Transfer",
      "type": "event"
    },
    {
      "inputs": [
        {
          "internalType": "address",
          "name": "owner",
          "type": "address"
        }
      ],
      "name": "balanceOf",
      "outputs": [
        {
          "internalType": "uint256",
          "name": "",
          "type": "uint256"
        }
      ],
      "stateMutability": "view",
      "type": "function"
    },
    {
      "inputs": [
        {
          "internalType": "address",
          "name": "from",
          "type": "address"
        },
        {
          "internalType": "address",
          "name": "to",
          "type": "address"
        },
        {
          "internalType": "string",
          "name": "tokenURI",
          "type": "string"
        }
      ],
      "name": "getHash",
      "outputs": [
        {
          "internalType": "bytes32",
          "name": "",
          "type": "bytes32"
        }
      ],
      "stateMutability": "view",
      "type": "function"
    },
    {
      "inputs": [
        {
          "internalType": "bytes32",
          "name": "hash",
          "type": "bytes32"
        }
      ],
      "name": "getTokenIdFromHash",
      "outputs": [
        {
          "internalType": "uint256",
          "name": "",
          "type": "uint256"
        }
      ],
      "stateMutability": "pure",
      "type": "function"
    },
    {
      "inputs": [
        {
          "internalType": "address",
          "name": "to",
          "type": "address"
        },
        {
          "internalType": "string",
          "name": "uri",
          "type": "string"
        },
        {
          "internalType": "bytes",
          "name": "signature",
          "type": "bytes"
        }
      ],
      "name": "give",
      "outputs": [
        {
          "internalType": "uint256",
          "name": "",
          "type": "uint256"
        }
      ],
      "stateMutability": "nonpayable",
      "type": "function"
    },
    {
      "inputs": [],
      "name": "name",
      "outputs": [
        {
          "internalType": "string",
          "name": "",
          "type": "string"
        }
      ],
      "stateMutability": "view",
      "type": "function"
    },
    {
      "inputs": [
        {
          "internalType": "uint256",
          "name": "tokenId",
          "type": "uint256"
        }
      ],
      "name": "ownerOf",
      "outputs": [
        {
          "internalType": "address",
          "name": "",
          "type": "address"
        }
      ],
      "stateMutability": "view",
      "type": "function"
    },
    {
      "inputs": [
        {
          "internalType": "bytes4",
          "name": "interfaceId",
          "type": "bytes4"
        }
      ],
      "name": "supportsInterface",
      "outputs": [
        {
          "internalType": "bool",
          "name": "",
          "type": "bool"
        }
      ],
      "stateMutability": "view",
      "type": "function"
    },
    {
      "inputs": [],
      "name": "symbol",
      "outputs": [
        {
          "internalType": "string",
          "name": "",
          "type": "string"
        }
      ],
      "stateMutability": "view",
      "type": "function"
    },
    {
      "inputs": [
        {
          "internalType": "address",
          "name": "from",
          "type": "address"
        },
        {
          "internalType": "string",
          "name": "uri",
          "type": "string"
        },
        {
          "internalType": "bytes",
          "name": "signature",
          "type": "bytes"
        }
      ],
      "name": "take",
      "outputs": [
        {
          "internalType": "uint256",
          "name": "",
          "type": "uint256"
        }
      ],
      "stateMutability": "nonpayable",
      "type": "function"
    },
    {
      "inputs": [
        {
          "internalType": "uint256",
          "name": "tokenId",
          "type": "uint256"
        }
      ],
      "name": "tokenURI",
      "outputs": [
        {
          "internalType": "string",
          "name": "",
          "type": "string"
        }
      ],
      "stateMutability": "view",
      "type": "function"
    },
    {
      "inputs": [
        {
          "internalType": "uint256",
          "name": "tokenId",
          "type": "uint256"
        }
      ],
      "name": "unequip",
      "outputs": [],
      "stateMutability": "nonpayable",
      "type": "function"
    }
  ],
  "bytecode": {
    "object": "0x6101406040523480156200001257600080fd5b506040516200174d3803806200174d8339810160408190526200003591620001be565b825160208085019190912082518383012060e08290526101008190524660a0818152604080517f8b73c3c69bb8fe3d512ecc4cf759cc79239f7b179b0ffacaa9a75d522b39400f818801819052818301969096526060810194909452608080850193909352308483018190528151808603909301835260c094850190915281519190950120905291909152610120528282826001620000d58482620002de565b506002620000e48382620002de565b50505050505050620003aa565b634e487b7160e01b600052604160045260246000fd5b600082601f8301126200011957600080fd5b81516001600160401b0380821115620001365762000136620000f1565b604051601f8301601f19908116603f01168101908282118183101715620001615762000161620000f1565b816040528381526020925086838588010111156200017e57600080fd5b600091505b83821015620001a2578582018301518183018401529082019062000183565b83821115620001b45760008385830101525b9695505050505050565b600080600060608486031215620001d457600080fd5b83516001600160401b0380821115620001ec57600080fd5b620001fa8783880162000107565b945060208601519150808211156200021157600080fd5b6200021f8783880162000107565b935060408601519150808211156200023657600080fd5b50620002458682870162000107565b9150509250925092565b600181811c908216806200026457607f821691505b6020821081036200028557634e487b7160e01b600052602260045260246000fd5b50919050565b601f821115620002d957600081815260208120601f850160051c81016020861015620002b45750805b601f850160051c820191505b81811015620002d557828155600101620002c0565b5050505b505050565b81516001600160401b03811115620002fa57620002fa620000f1565b62000312816200030b84546200024f565b846200028b565b602080601f8311600181146200034a5760008415620003315750858301515b600019600386901b1c1916600185901b178555620002d5565b600085815260208120601f198616915b828110156200037b578886015182559484019460019091019084016200035a565b50858210156200039a5787850151600019600388901b60f8161c191681555b5050505050600190811b01905550565b60805160a05160c05160e0516101005161012051611353620003fa6000396000610cd201526000610d2101526000610cfc01526000610c5501526000610c7f01526000610ca901526113536000f3fe608060405234801561001057600080fd5b50600436106100a95760003560e01c8063a394780311610071578063a39478031461013f578063c5cf33c214610152578063c87b56dd14610165578063d179e3d014610178578063ea924dec1461018d578063ec64948e1461019e57600080fd5b806301ffc9a7146100ae57806306fdde03146100d65780636352211e146100eb57806370a082311461011657806395d89b4114610137575b600080fd5b6100c16100bc366004610ef9565b6101b1565b60405190151581526020015b60405180910390f35b6100de610203565b6040516100cd9190610f72565b6100fe6100f9366004610f85565b610295565b6040516001600160a01b0390911681526020016100cd565b610129610124366004610fba565b6102ff565b6040519081526020016100cd565b6100de610388565b61012961014d366004611017565b610397565b610129610160366004611098565b61046f565b6100de610173366004610f85565b610486565b61018b610186366004610f85565b61058b565b005b61012961019b366004610f85565b90565b6101296101ac366004611017565b610620565b60006001600160e01b03198216635b5e139f60e01b14806101e257506001600160e01b031982166346bdd63960e11b145b806101fd57506301ffc9a760e01b6001600160e01b03198316145b92915050565b606060018054610212906110f9565b80601f016020809104026020016040519081016040528092919081815260200182805461023e906110f9565b801561028b5780601f106102605761010080835404028352916020019161028b565b820191906000526020600020905b81548152906001019060200180831161026e57829003601f168201915b5050505050905090565b6000818152600360205260408120546001600160a01b0316806101fd5760405162461bcd60e51b815260206004820152601c60248201527f6f776e65724f663a20746f6b656e20646f65736e27742065786973740000000060448201526064015b60405180910390fd5b60006001600160a01b03821661036c5760405162461bcd60e51b815260206004820152602c60248201527f62616c616e63654f663a2061646472657373207a65726f206973206e6f74206160448201526b103b30b634b21037bbb732b960a11b60648201526084016102f6565b506001600160a01b031660009081526005602052604090205490565b606060028054610212906110f9565b60006001600160a01b03861633036103f15760405162461bcd60e51b815260206004820152601b60248201527f74616b653a2063616e6e6f742074616b652066726f6d2073656c66000000000060448201526064016102f6565b60006104013388888888886106cd565b9050610444338288888080601f01602080910402602001604051908101604052809392919081815260200183838082843760009201919091525061080192505050565b50600881901c60009081526020819052604090208054600160ff84161b1790555b9695505050505050565b600061047d85858585610909565b95945050505050565b6000818152600360205260409020546060906001600160a01b03166104ed5760405162461bcd60e51b815260206004820152601d60248201527f746f6b656e5552493a20746f6b656e20646f65736e277420657869737400000060448201526064016102f6565b60008281526004602052604090208054610506906110f9565b80601f0160208091040260200160405190810160405280929190818152602001828054610532906110f9565b801561057f5780601f106105545761010080835404028352916020019161057f565b820191906000526020600020905b81548152906001019060200180831161056257829003601f168201915b50505050509050919050565b61059481610295565b6001600160a01b0316336001600160a01b0316146105f45760405162461bcd60e51b815260206004820152601d60248201527f756e65717569703a2073656e646572206d757374206265206f776e657200000060448201526064016102f6565b600881901c60009081526020819052604090208054600160ff84161b1916905561061d81610998565b50565b60006001600160a01b038616330361067a5760405162461bcd60e51b815260206004820152601b60248201527f676976653a2063616e6e6f7420676976652066726f6d2073656c66000000000060448201526064016102f6565b600061068a3388888888886106cd565b9050610444878288888080601f01602080910402602001604051908101604052809392919081815260200183838082843760009201919091525061080192505050565b6000806106dc88888888610909565b905060008160001c9050610727888387878080601f016020809104026020016040519081016040528093929190818152602001838380828437600092019190915250610a4192505050565b6107825760405162461bcd60e51b815260206004820152602660248201527f5f73616665436865636b41677265656d656e743a20696e76616c6964207369676044820152656e617475726560d01b60648201526084016102f6565b600881901c600090815260208190526040902054600160ff83161b16156107f55760405162461bcd60e51b815260206004820152602160248201527f5f73616665436865636b41677265656d656e743a20616c7265616479207573656044820152601960fa1b60648201526084016102f6565b98975050505050505050565b6000828152600360205260408120546001600160a01b03161561085d5760405162461bcd60e51b81526020600482015260146024820152736d696e743a20746f6b656e49442065786973747360601b60448201526064016102f6565b6001600160a01b0384166000908152600560205260408120805460019290610886908490611149565b9091555050600083815260036020908152604080832080546001600160a01b0319166001600160a01b038916179055600490915290206108c683826111c6565b5060405183906001600160a01b038616906000907fddf252ad1be2c89b69c2b068fc378daa952ba7f163c4a11628f55a4df523b3ef908290a450815b9392505050565b6000807fe76a195fbe43f0eaa611595069f780493db2202a1cc4b2d7d44b47069812998a8686868660405161093f929190611286565b604051908190038120610977949392916020019384526001600160a01b03928316602085015291166040830152606082015260800190565b60405160208183030381529060405280519060200120905061046581610b8c565b60006109a382610295565b6001600160a01b038116600090815260056020526040812080549293506001929091906109d1908490611296565b9091555050600082815260036020908152604080832080546001600160a01b031916905560049091528120610a0591610e95565b60405182906000906001600160a01b038416907fddf252ad1be2c89b69c2b068fc378daa952ba7f163c4a11628f55a4df523b3ef908390a45050565b6000806000610a508585610bda565b90925090506000816004811115610a6957610a696112ad565b148015610a875750856001600160a01b0316826001600160a01b0316145b15610a9757600192505050610902565b600080876001600160a01b0316631626ba7e60e01b8888604051602401610abf9291906112c3565b60408051601f198184030181529181526020820180516001600160e01b03166001600160e01b0319909416939093179092529051610afd91906112e4565b600060405180830381855afa9150503d8060008114610b38576040519150601f19603f3d011682016040523d82523d6000602084013e610b3d565b606091505b5091509150818015610b50575080516020145b80156107f557508051630b135d3f60e11b90610b759083016020908101908401611300565b6001600160e01b0319161498975050505050505050565b60006101fd610b99610c48565b8360405161190160f01b6020820152602281018390526042810182905260009060620160405160208183030381529060405280519060200120905092915050565b6000808251604103610c105760208301516040840151606085015160001a610c0487828585610d6f565b94509450505050610c41565b8251604003610c395760208301516040840151610c2e868383610e5c565b935093505050610c41565b506000905060025b9250929050565b6000306001600160a01b037f000000000000000000000000000000000000000000000000000000000000000016148015610ca157507f000000000000000000000000000000000000000000000000000000000000000046145b15610ccb57507f000000000000000000000000000000000000000000000000000000000000000090565b50604080517f00000000000000000000000000000000000000000000000000000000000000006020808301919091527f0000000000000000000000000000000000000000000000000000000000000000828401527f000000000000000000000000000000000000000000000000000000000000000060608301524660808301523060a0808401919091528351808403909101815260c0909201909252805191012090565b6000807f7fffffffffffffffffffffffffffffff5d576e7357a4501ddfe92f46681b20a0831115610da65750600090506003610e53565b8460ff16601b14158015610dbe57508460ff16601c14155b15610dcf5750600090506004610e53565b6040805160008082526020820180845289905260ff881692820192909252606081018690526080810185905260019060a0016020604051602081039080840390855afa158015610e23573d6000803e3d6000fd5b5050604051601f1901519150506001600160a01b038116610e4c57600060019250925050610e53565b9150600090505b94509492505050565b6000806001600160ff1b03831681610e7960ff86901c601b611149565b9050610e8787828885610d6f565b935093505050935093915050565b508054610ea1906110f9565b6000825580601f10610eb1575050565b601f01602090049060005260206000209081019061061d91905b80821115610edf5760008155600101610ecb565b5090565b6001600160e01b03198116811461061d57600080fd5b600060208284031215610f0b57600080fd5b813561090281610ee3565b60005b83811015610f31578181015183820152602001610f19565b83811115610f40576000848401525b50505050565b60008151808452610f5e816020860160208601610f16565b601f01601f19169290920160200192915050565b6020815260006109026020830184610f46565b600060208284031215610f9757600080fd5b5035919050565b80356001600160a01b0381168114610fb557600080fd5b919050565b600060208284031215610fcc57600080fd5b61090282610f9e565b60008083601f840112610fe757600080fd5b50813567ffffffffffffffff811115610fff57600080fd5b602083019150836020828501011115610c4157600080fd5b60008060008060006060868803121561102f57600080fd5b61103886610f9e565b9450602086013567ffffffffffffffff8082111561105557600080fd5b61106189838a01610fd5565b9096509450604088013591508082111561107a57600080fd5b5061108788828901610fd5565b969995985093965092949392505050565b600080600080606085870312156110ae57600080fd5b6110b785610f9e565b93506110c560208601610f9e565b9250604085013567ffffffffffffffff8111156110e157600080fd5b6110ed87828801610fd5565b95989497509550505050565b600181811c9082168061110d57607f821691505b60208210810361112d57634e487b7160e01b600052602260045260246000fd5b50919050565b634e487b7160e01b600052601160045260246000fd5b6000821982111561115c5761115c611133565b500190565b634e487b7160e01b600052604160045260246000fd5b601f8211156111c157600081815260208120601f850160051c8101602086101561119e5750805b601f850160051c820191505b818110156111bd578281556001016111aa565b5050505b505050565b815167ffffffffffffffff8111156111e0576111e0611161565b6111f4816111ee84546110f9565b84611177565b602080601f83116001811461122957600084156112115750858301515b600019600386901b1c1916600185901b1785556111bd565b600085815260208120601f198616915b8281101561125857888601518255948401946001909101908401611239565b50858210156112765787850151600019600388901b60f8161c191681555b5050505050600190811b01905550565b8183823760009101908152919050565b6000828210156112a8576112a8611133565b500390565b634e487b7160e01b600052602160045260246000fd5b8281526040602082015260006112dc6040830184610f46565b949350505050565b600082516112f6818460208701610f16565b9190910192915050565b60006020828403121561131257600080fd5b815161090281610ee356fea2646970667358221220ee1ee517cf9adf4e23955809597bb4ce734ed6979d1dbab6fdc93444946a53b164736f6c634300080f0033",
    "linkReferences": {}
  },
  "methodIdentifiers": {
    "balanceOf(address)": "70a08231",
    "getHash(address,address,string)": "c5cf33c2",
    "getTokenIdFromHash(bytes32)": "ea924dec",
    "give(address,string,bytes)": "ec64948e",
    "name()": "06fdde03",
    "ownerOf(uint256)": "6352211e",
    "supportsInterface(bytes4)": "01ffc9a7",
    "symbol()": "95d89b41",
    "take(address,string,bytes)": "a3947803",
    "tokenURI(uint256)": "c87b56dd",
    "unequip(uint256)": "d179e3d0"
  },
  "id": 23
}