{
  "abi": [
    {
      "inputs": [],
      "stateMutability": "nonpayable",
      "type": "constructor"
    },
    {
      "anonymous": false,
      "inputs": [
        {
          "indexed": false,
          "internalType": "address",
          "name": "previousAdmin",
          "type": "address"
        },
        {
          "indexed": false,
          "internalType": "address",
          "name": "newAdmin",
          "type": "address"
        }
      ],
      "name": "AdminChanged",
      "type": "event"
    },
    {
      "anonymous": false,
      "inputs": [
        {
          "indexed": true,
          "internalType": "uint256",
          "name": "tokenId",
          "type": "uint256"
        },
        {
          "indexed": true,
          "internalType": "address",
          "name": "reinstatedFrom",
          "type": "address"
        }
      ],
      "name": "BadgeReinstated",
      "type": "event"
    },
    {
      "anonymous": false,
      "inputs": [
        {
          "indexed": true,
          "internalType": "uint256",
          "name": "tokenId",
          "type": "uint256"
        },
        {
          "indexed": true,
          "internalType": "address",
          "name": "revokedFrom",
          "type": "address"
        },
        {
          "indexed": true,
          "internalType": "enum Badges.RevocationReason",
          "name": "reason",
          "type": "uint8"
        }
      ],
      "name": "BadgeRevoked",
      "type": "event"
    },
    {
      "anonymous": false,
      "inputs": [
        {
          "indexed": true,
          "internalType": "address",
          "name": "beacon",
          "type": "address"
        }
      ],
      "name": "BeaconUpgraded",
      "type": "event"
    },
    {
      "anonymous": false,
      "inputs": [
        {
          "indexed": false,
          "internalType": "uint8",
          "name": "version",
          "type": "uint8"
        }
      ],
      "name": "Initialized",
      "type": "event"
    },
    {
      "anonymous": false,
      "inputs": [
        {
          "indexed": true,
          "internalType": "address",
          "name": "previousOwner",
          "type": "address"
        },
        {
          "indexed": true,
          "internalType": "address",
          "name": "newOwner",
          "type": "address"
        }
      ],
      "name": "OwnershipTransferred",
      "type": "event"
    },
    {
      "anonymous": false,
      "inputs": [
        {
          "indexed": true,
          "internalType": "address",
          "name": "to",
          "type": "address"
        },
        {
          "indexed": false,
          "internalType": "string",
          "name": "specUri",
          "type": "string"
        },
        {
          "indexed": true,
          "internalType": "uint256",
          "name": "raftTokenId",
          "type": "uint256"
        },
        {
          "indexed": true,
          "internalType": "address",
          "name": "raftAddress",
          "type": "address"
        }
      ],
      "name": "SpecCreated",
      "type": "event"
    },
    {
      "anonymous": false,
      "inputs": [
        {
          "indexed": true,
          "internalType": "address",
          "name": "from",
          "type": "address"
        },
        {
          "indexed": true,
          "internalType": "address",
          "name": "to",
          "type": "address"
        },
        {
          "indexed": true,
          "internalType": "uint256",
          "name": "tokenId",
          "type": "uint256"
        }
      ],
      "name": "Transfer",
      "type": "event"
    },
    {
      "anonymous": false,
      "inputs": [
        {
          "indexed": true,
          "internalType": "address",
          "name": "implementation",
          "type": "address"
        }
      ],
      "name": "Upgraded",
      "type": "event"
    },
    {
      "inputs": [
        {
          "internalType": "address",
          "name": "_owner",
          "type": "address"
        }
      ],
      "name": "balanceOf",
      "outputs": [
        {
          "internalType": "uint256",
          "name": "",
          "type": "uint256"
        }
      ],
      "stateMutability": "view",
      "type": "function"
    },
    {
      "inputs": [
        {
          "internalType": "string",
          "name": "_specUri",
          "type": "string"
        },
        {
          "internalType": "uint256",
          "name": "_raftTokenId",
          "type": "uint256"
        }
      ],
      "name": "createSpec",
      "outputs": [],
      "stateMutability": "nonpayable",
      "type": "function"
    },
    {
      "inputs": [
        {
          "internalType": "address",
          "name": "_from",
          "type": "address"
        },
        {
          "internalType": "address",
          "name": "_to",
          "type": "address"
        },
        {
          "internalType": "string",
          "name": "_uri",
          "type": "string"
        }
      ],
      "name": "getAgreementHash",
      "outputs": [
        {
          "internalType": "bytes32",
          "name": "",
          "type": "bytes32"
        }
      ],
      "stateMutability": "view",
      "type": "function"
    },
    {
      "inputs": [
        {
          "internalType": "address",
          "name": "_to",
          "type": "address"
        },
        {
          "internalType": "string",
          "name": "_uri",
          "type": "string"
        }
      ],
      "name": "getBadgeIdHash",
      "outputs": [
        {
          "internalType": "bytes32",
          "name": "",
          "type": "bytes32"
        }
      ],
      "stateMutability": "view",
      "type": "function"
    },
    {
      "inputs": [],
      "name": "getDataHolderAddress",
      "outputs": [
        {
          "internalType": "address",
          "name": "",
          "type": "address"
        }
      ],
      "stateMutability": "view",
      "type": "function"
    },
    {
      "inputs": [
        {
          "internalType": "uint256",
          "name": "_tokenId",
          "type": "uint256"
        }
      ],
      "name": "getVoucherHash",
      "outputs": [
        {
          "internalType": "uint256",
          "name": "",
          "type": "uint256"
        }
      ],
      "stateMutability": "view",
      "type": "function"
    },
    {
      "inputs": [
        {
          "internalType": "address",
          "name": "_to",
          "type": "address"
        },
        {
          "internalType": "string",
          "name": "_uri",
          "type": "string"
        },
        {
          "internalType": "bytes",
          "name": "_signature",
          "type": "bytes"
        }
      ],
      "name": "give",
      "outputs": [
        {
          "internalType": "uint256",
          "name": "",
          "type": "uint256"
        }
      ],
      "stateMutability": "nonpayable",
      "type": "function"
    },
    {
      "inputs": [
        {
          "internalType": "string",
          "name": "_name",
          "type": "string"
        },
        {
          "internalType": "string",
          "name": "_symbol",
          "type": "string"
        },
        {
          "internalType": "string",
          "name": "_version",
          "type": "string"
        },
        {
          "internalType": "address",
          "name": "_nextOwner",
          "type": "address"
        },
        {
          "internalType": "address",
          "name": "_specDataHolderAddress",
          "type": "address"
        }
      ],
      "name": "initialize",
      "outputs": [],
      "stateMutability": "nonpayable",
      "type": "function"
    },
    {
      "inputs": [
        {
          "internalType": "uint256",
          "name": "_badgeId",
          "type": "uint256"
        }
      ],
      "name": "isBadgeValid",
      "outputs": [
        {
          "internalType": "bool",
          "name": "",
          "type": "bool"
        }
      ],
      "stateMutability": "view",
      "type": "function"
    },
    {
      "inputs": [],
      "name": "name",
      "outputs": [
        {
          "internalType": "string",
          "name": "",
          "type": "string"
        }
      ],
      "stateMutability": "view",
      "type": "function"
    },
    {
      "inputs": [],
      "name": "owner",
      "outputs": [
        {
          "internalType": "address",
          "name": "",
          "type": "address"
        }
      ],
      "stateMutability": "view",
      "type": "function"
    },
    {
      "inputs": [
        {
          "internalType": "uint256",
          "name": "_tokenId",
          "type": "uint256"
        }
      ],
      "name": "ownerOf",
      "outputs": [
        {
          "internalType": "address",
          "name": "",
          "type": "address"
        }
      ],
      "stateMutability": "view",
      "type": "function"
    },
    {
      "inputs": [],
      "name": "proxiableUUID",
      "outputs": [
        {
          "internalType": "bytes32",
          "name": "",
          "type": "bytes32"
        }
      ],
      "stateMutability": "view",
      "type": "function"
    },
    {
      "inputs": [
        {
          "internalType": "uint256",
          "name": "_raftTokenId",
          "type": "uint256"
        },
        {
          "internalType": "uint256",
          "name": "_badgeId",
          "type": "uint256"
        }
      ],
      "name": "reinstateBadge",
      "outputs": [],
      "stateMutability": "nonpayable",
      "type": "function"
    },
    {
      "inputs": [],
      "name": "renounceOwnership",
      "outputs": [],
      "stateMutability": "nonpayable",
      "type": "function"
    },
    {
      "inputs": [
        {
          "internalType": "uint256",
          "name": "_raftTokenId",
          "type": "uint256"
        },
        {
          "internalType": "uint256",
          "name": "_badgeId",
          "type": "uint256"
        },
        {
          "internalType": "enum Badges.RevocationReason",
          "name": "_reason",
          "type": "uint8"
        }
      ],
      "name": "revokeBadge",
      "outputs": [],
      "stateMutability": "nonpayable",
      "type": "function"
    },
    {
      "inputs": [
        {
          "internalType": "address",
          "name": "_dataHolder",
          "type": "address"
        }
      ],
      "name": "setDataHolder",
      "outputs": [],
      "stateMutability": "nonpayable",
      "type": "function"
    },
    {
      "inputs": [
        {
          "internalType": "bytes4",
          "name": "_interfaceId",
          "type": "bytes4"
        }
      ],
      "name": "supportsInterface",
      "outputs": [
        {
          "internalType": "bool",
          "name": "",
          "type": "bool"
        }
      ],
      "stateMutability": "view",
      "type": "function"
    },
    {
      "inputs": [],
      "name": "symbol",
      "outputs": [
        {
          "internalType": "string",
          "name": "",
          "type": "string"
        }
      ],
      "stateMutability": "view",
      "type": "function"
    },
    {
      "inputs": [
        {
          "internalType": "address",
          "name": "_from",
          "type": "address"
        },
        {
          "internalType": "string",
          "name": "_uri",
          "type": "string"
        },
        {
          "internalType": "bytes",
          "name": "_signature",
          "type": "bytes"
        }
      ],
      "name": "take",
      "outputs": [
        {
          "internalType": "uint256",
          "name": "",
          "type": "uint256"
        }
      ],
      "stateMutability": "nonpayable",
      "type": "function"
    },
    {
      "inputs": [
        {
          "internalType": "uint256",
          "name": "_tokenId",
          "type": "uint256"
        }
      ],
      "name": "tokenURI",
      "outputs": [
        {
          "internalType": "string",
          "name": "",
          "type": "string"
        }
      ],
      "stateMutability": "view",
      "type": "function"
    },
    {
      "inputs": [
        {
          "internalType": "address",
          "name": "newOwner",
          "type": "address"
        }
      ],
      "name": "transferOwnership",
      "outputs": [],
      "stateMutability": "nonpayable",
      "type": "function"
    },
    {
      "inputs": [
        {
          "internalType": "uint256",
          "name": "_tokenId",
          "type": "uint256"
        }
      ],
      "name": "unequip",
      "outputs": [],
      "stateMutability": "nonpayable",
      "type": "function"
    },
    {
      "inputs": [
        {
          "internalType": "address",
          "name": "newImplementation",
          "type": "address"
        }
      ],
      "name": "upgradeTo",
      "outputs": [],
      "stateMutability": "nonpayable",
      "type": "function"
    },
    {
      "inputs": [
        {
          "internalType": "address",
          "name": "newImplementation",
          "type": "address"
        },
        {
          "internalType": "bytes",
          "name": "data",
          "type": "bytes"
        }
      ],
      "name": "upgradeToAndCall",
      "outputs": [],
      "stateMutability": "payable",
      "type": "function"
    }
  ],
  "bytecode": {
    "object": "0x60a0604052306080523480156200001557600080fd5b506200002062000026565b620000e8565b600054610100900460ff1615620000935760405162461bcd60e51b815260206004820152602760248201527f496e697469616c697a61626c653a20636f6e747261637420697320696e697469604482015266616c697a696e6760c81b606482015260840160405180910390fd5b60005460ff9081161015620000e6576000805460ff191660ff9081179091556040519081527f7f26b83ff96e1f2b6a682f133852f6798a09c465da95921460cefb38474024989060200160405180910390a15b565b608051612bd162000120600039600081816105fd0152818161063d015281816109b8015281816109f80152610a8b0152612bd16000f3fe6080604052600436106101665760003560e01c80637c402f8d116100d1578063c01841121161008a578063d6d0faee11610064578063d6d0faee14610427578063e499250614610447578063ec64948e14610467578063f2fde38b1461048757600080fd5b8063c0184112146103c7578063c87b56dd146103e7578063d179e3d01461040757600080fd5b80637c402f8d1461031457806380956c7e146103345780638da5cb5b1461035457806395d89b4114610372578063a394780314610387578063a8cf8683146103a757600080fd5b80634f1ef286116101235780634f1ef2861461026057806352d1902d146102735780636352211e14610288578063635ad993146102c057806370a08231146102df578063715018a6146102ff57600080fd5b806301ffc9a71461016b57806306fdde03146101a05780630f4d9b01146101c25780633659cfe6146101e25780633b363a0914610204578063445a62b914610240575b600080fd5b34801561017757600080fd5b5061018b6101863660046122e7565b6104a7565b60405190151581526020015b60405180910390f35b3480156101ac57600080fd5b506101b56104f9565b6040516101979190612361565b3480156101ce57600080fd5b5061018b6101dd366004612374565b61058c565b3480156101ee57600080fd5b506102026101fd3660046123a2565b6105f3565b005b34801561021057600080fd5b5061023261021f366004612374565b6000908152610136602052604090205490565b604051908152602001610197565b34801561024c57600080fd5b5061020261025b36600461246b565b6106d2565b61020261026e3660046124b0565b6109ae565b34801561027f57600080fd5b50610232610a7e565b34801561029457600080fd5b506102a86102a3366004612374565b610b31565b6040516001600160a01b039091168152602001610197565b3480156102cc57600080fd5b50610135546001600160a01b03166102a8565b3480156102eb57600080fd5b506102326102fa3660046123a2565b610b86565b34801561030b57600080fd5b50610202610c11565b34801561032057600080fd5b5061020261032f366004612514565b610c25565b34801561034057600080fd5b5061020261034f366004612551565b610da7565b34801561036057600080fd5b5060c9546001600160a01b03166102a8565b34801561037e57600080fd5b506101b5610f17565b34801561039357600080fd5b506102326103a23660046125b5565b610f27565b3480156103b357600080fd5b506102326103c2366004612638565b611014565b3480156103d357600080fd5b506102026103e23660046123a2565b611047565b3480156103f357600080fd5b506101b5610402366004612374565b611072565b34801561041357600080fd5b50610202610422366004612374565b611179565b34801561043357600080fd5b5061020261044236600461267e565b611255565b34801561045357600080fd5b5061023261046236600461272e565b6113c6565b34801561047357600080fd5b506102326104823660046125b5565b61145f565b34801561049357600080fd5b506102026104a23660046123a2565b61150d565b60006001600160e01b03198216635b5e139f60e01b14806104d857506001600160e01b031982166346bdd63960e11b145b806104f357506301ffc9a760e01b6001600160e01b03198316145b92915050565b6060610130805461050990612793565b80601f016020809104026020016040519081016040528092919081815260200182805461053590612793565b80156105825780601f1061055757610100808354040283529160200191610582565b820191906000526020600020905b81548152906001019060200180831161056557829003601f168201915b5050505050905090565b6000818152610132602052604081205482906001600160a01b03166105cc5760405162461bcd60e51b81526004016105c3906127c7565b60405180910390fd5b600883901c60009081526101376020526040902054600160ff85161b161591505b50919050565b6001600160a01b037f000000000000000000000000000000000000000000000000000000000000000016300361063b5760405162461bcd60e51b81526004016105c3906127fc565b7f00000000000000000000000000000000000000000000000000000000000000006001600160a01b0316610684600080516020612b55833981519152546001600160a01b031690565b6001600160a01b0316146106aa5760405162461bcd60e51b81526004016105c390612848565b6106b381611583565b604080516000808252602082019092526106cf9183919061158b565b50565b806040518060400160405280600a8152602001696372656174655370656360b01b8152506000816040516020016107099190612894565b60408051808303601f19018152908290526101355463b2a0cb6b60e01b83526004830186905290925033916001600160a01b039091169063b2a0cb6b90602401602060405180830381865afa158015610766573d6000803e3d6000fd5b505050506040513d601f19601f8201168201806040525081019061078a91906128c6565b6001600160a01b03161481906107b35760405162461bcd60e51b81526004016105c39190612361565b5061013554604051637e07102760e11b81526001600160a01b039091169063fc0e204e906107e5908890600401612361565b602060405180830381865afa158015610802573d6000803e3d6000fd5b505050506040513d601f19601f8201168201806040525081019061082691906128e3565b1561087f5760405162461bcd60e51b815260206004820152602360248201527f637265617465537065633a207370656320616c726561647920726567697374656044820152621c995960ea1b60648201526084016105c3565b6101355460405163addd190760e01b81526001600160a01b039091169063addd1907906108b29088908890600401612905565b600060405180830381600087803b1580156108cc57600080fd5b505af11580156108e0573d6000803e3d6000fd5b5050505061013560009054906101000a90046001600160a01b03166001600160a01b03166334f876626040518163ffffffff1660e01b8152600401602060405180830381865afa158015610938573d6000803e3d6000fd5b505050506040513d601f19601f8201168201806040525081019061095c91906128c6565b6001600160a01b031684336001600160a01b03167f68c7f8503283c455a4445b54a7d5c40656c8cae5cca0583c6d4be836984787008860405161099f9190612361565b60405180910390a45050505050565b6001600160a01b037f00000000000000000000000000000000000000000000000000000000000000001630036109f65760405162461bcd60e51b81526004016105c3906127fc565b7f00000000000000000000000000000000000000000000000000000000000000006001600160a01b0316610a3f600080516020612b55833981519152546001600160a01b031690565b6001600160a01b031614610a655760405162461bcd60e51b81526004016105c390612848565b610a6e82611583565b610a7a8282600161158b565b5050565b6000306001600160a01b037f00000000000000000000000000000000000000000000000000000000000000001614610b1e5760405162461bcd60e51b815260206004820152603860248201527f555550535570677261646561626c653a206d757374206e6f742062652063616c60448201527f6c6564207468726f7567682064656c656761746563616c6c000000000000000060648201526084016105c3565b50600080516020612b5583398151915290565b6000818152610132602052604081205482906001600160a01b0316610b685760405162461bcd60e51b81526004016105c3906127c7565b5050600090815261013260205260409020546001600160a01b031690565b60006001600160a01b038216610bf45760405162461bcd60e51b815260206004820152602d60248201527f62616c616e63654f663a2061646472657373207a65726f206973206e6f74206160448201526c2076616c6964206f776e65725f60981b60648201526084016105c3565b506001600160a01b03166000908152610134602052604090205490565b610c196116f6565b610c236000611750565b565b6000828152610132602052604090205482906001600160a01b0316610c5c5760405162461bcd60e51b81526004016105c3906127c7565b836040518060400160405280600b81526020016a7265766f6b65426164676560a81b815250600081604051602001610c949190612894565b60408051808303601f19018152908290526101355463b2a0cb6b60e01b83526004830186905290925033916001600160a01b039091169063b2a0cb6b90602401602060405180830381865afa158015610cf1573d6000803e3d6000fd5b505050506040513d601f19601f82011682018060405250810190610d1591906128c6565b6001600160a01b0316148190610d3e5760405162461bcd60e51b81526004016105c39190612361565b50600886901c6000908152610137602052604090208054600160ff89161b179055846003811115610d7157610d71612927565b604051339088907ffa784c48260e8db512de5f055a2f29eced211a7b3bd6338058b095ada7354cee90600090a450505050505050565b6000818152610132602052604090205481906001600160a01b0316610dde5760405162461bcd60e51b81526004016105c3906127c7565b826040518060400160405280600e81526020016d7265696e7374617465426164676560901b815250600081604051602001610e199190612894565b60408051808303601f19018152908290526101355463b2a0cb6b60e01b83526004830186905290925033916001600160a01b039091169063b2a0cb6b90602401602060405180830381865afa158015610e76573d6000803e3d6000fd5b505050506040513d601f19601f82011682018060405250810190610e9a91906128c6565b6001600160a01b0316148190610ec35760405162461bcd60e51b81526004016105c39190612361565b50600885901c600090815261013760205260408082208054600160ff8a161b1916905551339187917f7f8cf9ecf2a5225948f8a1601709cedc8471c52ee75a8174c9845c29c99ed9a29190a3505050505050565b6060610131805461050990612793565b60006001600160a01b0386163303610f815760405162461bcd60e51b815260206004820152601b60248201527f74616b653a2063616e6e6f742074616b652066726f6d2073656c66000000000060448201526064016105c3565b6000610f913388888888886117a2565b90506000610fd53388888080601f0160208091040260200160405190810160405280939291908181526020018383808284376000920191909152506118cc92505050565b600883901c600090815261012f602052604090208054600160ff86161b1790559050600081815261013660205260409020919091559695505050505050565b6000828260405160200161102992919061293d565b60405160208183030381529060405280519060200120905092915050565b61104f6116f6565b61013580546001600160a01b0319166001600160a01b0392909216919091179055565b600081815261013260205260409020546060906001600160a01b03166110da5760405162461bcd60e51b815260206004820152601d60248201527f746f6b656e5552493a20746f6b656e20646f65736e277420657869737400000060448201526064016105c3565b60008281526101336020526040902080546110f490612793565b80601f016020809104026020016040519081016040528092919081815260200182805461112090612793565b801561116d5780601f106111425761010080835404028352916020019161116d565b820191906000526020600020905b81548152906001019060200180831161115057829003601f168201915b50505050509050919050565b6000818152610132602052604090205481906001600160a01b03166111b05760405162461bcd60e51b81526004016105c3906127c7565b600082815261013260205260409020546001600160a01b031633146112175760405162461bcd60e51b815260206004820152601d60248201527f756e65717569703a2073656e646572206d757374206265206f776e657200000060448201526064016105c3565b60008281526101366020908152604080832054600881901c845261012f9092529091208054600160ff84161b1916905561125083611b17565b505050565b600054610100900460ff16158080156112755750600054600160ff909116105b8061128f5750303b15801561128f575060005460ff166001145b6112f25760405162461bcd60e51b815260206004820152602e60248201527f496e697469616c697a61626c653a20636f6e747261637420697320616c72656160448201526d191e481a5b9a5d1a585b1a5e995960921b60648201526084016105c3565b6000805460ff191660011790558015611315576000805461ff0019166101001790555b61013061132287826129af565b5061013161133086826129af565b5061013580546001600160a01b0319166001600160a01b038416179055611355611bd1565b61135d611bf8565b6113678685611c27565b61136f611bd1565b6113788361150d565b80156113be576000805461ff0019169055604051600181527f7f26b83ff96e1f2b6a682f133852f6798a09c465da95921460cefb38474024989060200160405180910390a15b505050505050565b6000807fe76a195fbe43f0eaa611595069f780493db2202a1cc4b2d7d44b47069812998a868686866040516113fc929190612a6f565b604051908190038120611434949392916020019384526001600160a01b03928316602085015291166040830152606082015260800190565b60405160208183030381529060405280519060200120905061145581611c58565b9695505050505050565b60006001600160a01b03861633036114b95760405162461bcd60e51b815260206004820152601b60248201527f676976653a2063616e6e6f7420676976652066726f6d2073656c66000000000060448201526064016105c3565b60006114c93388888888886117a2565b90506000610fd58888888080601f0160208091040260200160405190810160405280939291908181526020018383808284376000920191909152506118cc92505050565b6115156116f6565b6001600160a01b03811661157a5760405162461bcd60e51b815260206004820152602660248201527f4f776e61626c653a206e6577206f776e657220697320746865207a65726f206160448201526564647265737360d01b60648201526084016105c3565b6106cf81611750565b6106cf6116f6565b7f4910fdfa16fed3260ed0e7147f7cc6da11a60208b5b9406d12a635614ffd91435460ff16156115be5761125083611c6b565b826001600160a01b03166352d1902d6040518163ffffffff1660e01b8152600401602060405180830381865afa925050508015611618575060408051601f3d908101601f1916820190925261161591810190612a7f565b60015b61167b5760405162461bcd60e51b815260206004820152602e60248201527f45524331393637557067726164653a206e657720696d706c656d656e7461746960448201526d6f6e206973206e6f74205555505360901b60648201526084016105c3565b600080516020612b5583398151915281146116ea5760405162461bcd60e51b815260206004820152602960248201527f45524331393637557067726164653a20756e737570706f727465642070726f786044820152681a58589b195555525160ba1b60648201526084016105c3565b50611250838383611d07565b60c9546001600160a01b03163314610c235760405162461bcd60e51b815260206004820181905260248201527f4f776e61626c653a2063616c6c6572206973206e6f7420746865206f776e657260448201526064016105c3565b60c980546001600160a01b038381166001600160a01b0319831681179093556040519116919082907f8be0079c531659141344cd1fd0a4f28419497f9722a3daafe3b4186f6b6457e090600090a35050565b6000806117b1888888886113c6565b905060008160001c90506117fc888387878080601f016020809104026020016040519081016040528093929190818152602001838380828437600092019190915250611d3292505050565b6118565760405162461bcd60e51b815260206004820152602560248201527f73616665436865636b41677265656d656e743a20696e76616c6964207369676e604482015264617475726560d81b60648201526084016105c3565b600881901c600090815261012f6020526040902054600160ff83161b16156118c05760405162461bcd60e51b815260206004820181905260248201527f73616665436865636b41677265656d656e743a20616c7265616479207573656460448201526064016105c3565b98975050505050505050565b61013554604051633664a8e960e01b815260009182916001600160a01b0390911690633664a8e990611902908690600401612361565b602060405180830381865afa15801561191f573d6000803e3d6000fd5b505050506040513d601f19601f820116820180604052508101906119439190612a7f565b905060006119518585611014565b90508060008390036119a55760405162461bcd60e51b815260206004820152601c60248201527f6d696e743a2073706563206973206e6f7420726567697374657265640000000060448201526064016105c3565b600081815261013260205260409020546001600160a01b031615611a025760405162461bcd60e51b81526020600482015260146024820152736d696e743a20746f6b656e49442065786973747360601b60448201526064016105c3565b6001600160a01b038616600090815261013460205260408120805460019290611a2c908490612aae565b909155505060008181526101326020908152604080832080546001600160a01b0319166001600160a01b038b161790556101339091529020611a6e86826129af565b5060405181906001600160a01b038816906000907fddf252ad1be2c89b69c2b068fc378daa952ba7f163c4a11628f55a4df523b3ef908290a46101355460405163fb74926160e01b815260048101839052602481018590526001600160a01b039091169063fb74926190604401600060405180830381600087803b158015611af557600080fd5b505af1158015611b09573d6000803e3d6000fd5b509298975050505050505050565b600081815261013260209081526040808320546001600160a01b0316808452610134909252822080549192600192611b50908490612ac1565b909155505060008281526101326020908152604080832080546001600160a01b03191690556101339091528120611b8691612299565b60008281526101366020526040808220829055518391906001600160a01b038416907fddf252ad1be2c89b69c2b068fc378daa952ba7f163c4a11628f55a4df523b3ef908390a45050565b600054610100900460ff16610c235760405162461bcd60e51b81526004016105c390612ad4565b600054610100900460ff16611c1f5760405162461bcd60e51b81526004016105c390612ad4565b610c23611e76565b600054610100900460ff16611c4e5760405162461bcd60e51b81526004016105c390612ad4565b610a7a8282611ea6565b60006104f3611c65611ee7565b83611f67565b6001600160a01b0381163b611cd85760405162461bcd60e51b815260206004820152602d60248201527f455243313936373a206e657720696d706c656d656e746174696f6e206973206e60448201526c1bdd08184818dbdb9d1c9858dd609a1b60648201526084016105c3565b600080516020612b5583398151915280546001600160a01b0319166001600160a01b0392909216919091179055565b611d1083611f8e565b600082511180611d1d5750805b1561125057611d2c8383611fce565b50505050565b6000806000611d4185856120c2565b90925090506000816004811115611d5a57611d5a612927565b148015611d785750856001600160a01b0316826001600160a01b0316145b15611d8857600192505050611e6f565b600080876001600160a01b0316631626ba7e60e01b8888604051602401611db0929190612b1f565b60408051601f198184030181529181526020820180516001600160e01b03166001600160e01b0319909416939093179092529051611dee9190612b38565b600060405180830381855afa9150503d8060008114611e29576040519150601f19603f3d011682016040523d82523d6000602084013e611e2e565b606091505b5091509150818015611e41575080516020145b8015611e6857508051630b135d3f60e11b90611e669083016020908101908401612a7f565b145b9450505050505b9392505050565b600054610100900460ff16611e9d5760405162461bcd60e51b81526004016105c390612ad4565b610c2333611750565b600054610100900460ff16611ecd5760405162461bcd60e51b81526004016105c390612ad4565b81516020928301208151919092012060fb9190915560fc55565b6000611f627f8b73c3c69bb8fe3d512ecc4cf759cc79239f7b179b0ffacaa9a75d522b39400f611f1660fb5490565b60fc546040805160208101859052908101839052606081018290524660808201523060a082015260009060c0016040516020818303038152906040528051906020012090509392505050565b905090565b60405161190160f01b60208201526022810183905260428101829052600090606201611029565b611f9781611c6b565b6040516001600160a01b038216907fbc7cd75a20ee27fd9adebab32041f755214dbc6bffa90cc0225b39da2e5c2d3b90600090a250565b60606001600160a01b0383163b6120365760405162461bcd60e51b815260206004820152602660248201527f416464726573733a2064656c65676174652063616c6c20746f206e6f6e2d636f6044820152651b9d1c9858dd60d21b60648201526084016105c3565b600080846001600160a01b0316846040516120519190612b38565b600060405180830381855af49150503d806000811461208c576040519150601f19603f3d011682016040523d82523d6000602084013e612091565b606091505b50915091506120b98282604051806060016040528060278152602001612b7560279139612130565b95945050505050565b60008082516041036120f85760208301516040840151606085015160001a6120ec87828585612149565b94509450505050612129565b82516040036121215760208301516040840151612116868383612236565b935093505050612129565b506000905060025b9250929050565b6060831561213f575081611e6f565b611e6f838361226f565b6000807f7fffffffffffffffffffffffffffffff5d576e7357a4501ddfe92f46681b20a0831115612180575060009050600361222d565b8460ff16601b1415801561219857508460ff16601c14155b156121a9575060009050600461222d565b6040805160008082526020820180845289905260ff881692820192909252606081018690526080810185905260019060a0016020604051602081039080840390855afa1580156121fd573d6000803e3d6000fd5b5050604051601f1901519150506001600160a01b0381166122265760006001925092505061222d565b9150600090505b94509492505050565b6000806001600160ff1b0383168161225360ff86901c601b612aae565b905061226187828885612149565b935093505050935093915050565b81511561227f5781518083602001fd5b8060405162461bcd60e51b81526004016105c39190612361565b5080546122a590612793565b6000825580601f106122b5575050565b601f0160209004906000526020600020908101906106cf91905b808211156122e357600081556001016122cf565b5090565b6000602082840312156122f957600080fd5b81356001600160e01b031981168114611e6f57600080fd5b60005b8381101561232c578181015183820152602001612314565b50506000910152565b6000815180845261234d816020860160208601612311565b601f01601f19169290920160200192915050565b602081526000611e6f6020830184612335565b60006020828403121561238657600080fd5b5035919050565b6001600160a01b03811681146106cf57600080fd5b6000602082840312156123b457600080fd5b8135611e6f8161238d565b634e487b7160e01b600052604160045260246000fd5b600067ffffffffffffffff808411156123f0576123f06123bf565b604051601f8501601f19908116603f01168101908282118183101715612418576124186123bf565b8160405280935085815286868601111561243157600080fd5b858560208301376000602087830101525050509392505050565b600082601f83011261245c57600080fd5b611e6f838335602085016123d5565b6000806040838503121561247e57600080fd5b823567ffffffffffffffff81111561249557600080fd5b6124a18582860161244b565b95602094909401359450505050565b600080604083850312156124c357600080fd5b82356124ce8161238d565b9150602083013567ffffffffffffffff8111156124ea57600080fd5b8301601f810185136124fb57600080fd5b61250a858235602084016123d5565b9150509250929050565b60008060006060848603121561252957600080fd5b833592506020840135915060408401356004811061254657600080fd5b809150509250925092565b6000806040838503121561256457600080fd5b50508035926020909101359150565b60008083601f84011261258557600080fd5b50813567ffffffffffffffff81111561259d57600080fd5b60208301915083602082850101111561212957600080fd5b6000806000806000606086880312156125cd57600080fd5b85356125d88161238d565b9450602086013567ffffffffffffffff808211156125f557600080fd5b61260189838a01612573565b9096509450604088013591508082111561261a57600080fd5b5061262788828901612573565b969995985093965092949392505050565b6000806040838503121561264b57600080fd5b82356126568161238d565b9150602083013567ffffffffffffffff81111561267257600080fd5b61250a8582860161244b565b600080600080600060a0868803121561269657600080fd5b853567ffffffffffffffff808211156126ae57600080fd5b6126ba89838a0161244b565b965060208801359150808211156126d057600080fd5b6126dc89838a0161244b565b955060408801359150808211156126f257600080fd5b506126ff8882890161244b565b93505060608601356127108161238d565b915060808601356127208161238d565b809150509295509295909350565b6000806000806060858703121561274457600080fd5b843561274f8161238d565b9350602085013561275f8161238d565b9250604085013567ffffffffffffffff81111561277b57600080fd5b61278787828801612573565b95989497509550505050565b600181811c908216806127a757607f821691505b6020821081036105ed57634e487b7160e01b600052602260045260246000fd5b6020808252818101527f746f6b656e4578697374733a20746f6b656e20646f65736e2774206578697374604082015260600190565b6020808252602c908201527f46756e6374696f6e206d7573742062652063616c6c6564207468726f7567682060408201526b19195b1959d85d1958d85b1b60a21b606082015260800190565b6020808252602c908201527f46756e6374696f6e206d7573742062652063616c6c6564207468726f7567682060408201526b6163746976652070726f787960a01b606082015260800190565b600082516128a6818460208701612311565b6d0e881d5b985d5d1a1bdc9a5e995960921b920191825250600e01919050565b6000602082840312156128d857600080fd5b8151611e6f8161238d565b6000602082840312156128f557600080fd5b81518015158114611e6f57600080fd5b6040815260006129186040830185612335565b90508260208301529392505050565b634e487b7160e01b600052602160045260246000fd5b6001600160a01b038316815260406020820181905260009061296190830184612335565b949350505050565b601f82111561125057600081815260208120601f850160051c810160208610156129905750805b601f850160051c820191505b818110156113be5782815560010161299c565b815167ffffffffffffffff8111156129c9576129c96123bf565b6129dd816129d78454612793565b84612969565b602080601f831160018114612a1257600084156129fa5750858301515b600019600386901b1c1916600185901b1785556113be565b600085815260208120601f198616915b82811015612a4157888601518255948401946001909101908401612a22565b5085821015612a5f5787850151600019600388901b60f8161c191681555b5050505050600190811b01905550565b8183823760009101908152919050565b600060208284031215612a9157600080fd5b5051919050565b634e487b7160e01b600052601160045260246000fd5b808201808211156104f3576104f3612a98565b818103818111156104f3576104f3612a98565b6020808252602b908201527f496e697469616c697a61626c653a20636f6e7472616374206973206e6f74206960408201526a6e697469616c697a696e6760a81b606082015260800190565b8281526040602082015260006129616040830184612335565b60008251612b4a818460208701612311565b919091019291505056fe360894a13ba1a3210667c828492db98dca3e2076cc3735a920a3ca505d382bbc416464726573733a206c6f772d6c6576656c2064656c65676174652063616c6c206661696c6564a2646970667358221220d59aee3c44c652d97de7db01a44244eaaaa6d8adc8826eb9aa8f555920b8a84564736f6c63430008100033",
    "linkReferences": {}
  },
  "methodIdentifiers": {
    "balanceOf(address)": "70a08231",
    "createSpec(string,uint256)": "445a62b9",
    "getAgreementHash(address,address,string)": "e4992506",
    "getBadgeIdHash(address,string)": "a8cf8683",
    "getDataHolderAddress()": "635ad993",
    "getVoucherHash(uint256)": "3b363a09",
    "give(address,string,bytes)": "ec64948e",
    "initialize(string,string,string,address,address)": "d6d0faee",
    "isBadgeValid(uint256)": "0f4d9b01",
    "name()": "06fdde03",
    "owner()": "8da5cb5b",
    "ownerOf(uint256)": "6352211e",
    "proxiableUUID()": "52d1902d",
    "reinstateBadge(uint256,uint256)": "80956c7e",
    "renounceOwnership()": "715018a6",
    "revokeBadge(uint256,uint256,uint8)": "7c402f8d",
    "setDataHolder(address)": "c0184112",
    "supportsInterface(bytes4)": "01ffc9a7",
    "symbol()": "95d89b41",
    "take(address,string,bytes)": "a3947803",
    "tokenURI(uint256)": "c87b56dd",
    "transferOwnership(address)": "f2fde38b",
    "unequip(uint256)": "d179e3d0",
    "upgradeTo(address)": "3659cfe6",
    "upgradeToAndCall(address,bytes)": "4f1ef286"
  },
  "id": 43
}