{
  "abi": [
    {
      "inputs": [],
      "stateMutability": "nonpayable",
      "type": "constructor"
    },
    {
      "anonymous": false,
      "inputs": [
        {
          "indexed": false,
          "internalType": "address",
          "name": "previousAdmin",
          "type": "address"
        },
        {
          "indexed": false,
          "internalType": "address",
          "name": "newAdmin",
          "type": "address"
        }
      ],
      "name": "AdminChanged",
      "type": "event"
    },
    {
      "anonymous": false,
      "inputs": [
        {
          "indexed": true,
          "internalType": "uint256",
          "name": "tokenId",
          "type": "uint256"
        },
        {
          "indexed": true,
          "internalType": "address",
          "name": "from",
          "type": "address"
        }
      ],
      "name": "BadgeReinstated",
      "type": "event"
    },
    {
      "anonymous": false,
      "inputs": [
        {
          "indexed": true,
          "internalType": "uint256",
          "name": "tokenId",
          "type": "uint256"
        },
        {
          "indexed": true,
          "internalType": "address",
          "name": "from",
          "type": "address"
        },
        {
          "indexed": true,
          "internalType": "uint8",
          "name": "reason",
          "type": "uint8"
        }
      ],
      "name": "BadgeRevoked",
      "type": "event"
    },
    {
      "anonymous": false,
      "inputs": [
        {
          "indexed": true,
          "internalType": "address",
          "name": "beacon",
          "type": "address"
        }
      ],
      "name": "BeaconUpgraded",
      "type": "event"
    },
    {
      "anonymous": false,
      "inputs": [
        {
          "indexed": false,
          "internalType": "uint8",
          "name": "version",
          "type": "uint8"
        }
      ],
      "name": "Initialized",
      "type": "event"
    },
    {
      "anonymous": false,
      "inputs": [
        {
          "indexed": true,
          "internalType": "address",
          "name": "previousOwner",
          "type": "address"
        },
        {
          "indexed": true,
          "internalType": "address",
          "name": "newOwner",
          "type": "address"
        }
      ],
      "name": "OwnershipTransferred",
      "type": "event"
    },
    {
      "anonymous": false,
      "inputs": [
        {
          "indexed": false,
          "internalType": "string[]",
          "name": "specUris",
          "type": "string[]"
        },
        {
          "indexed": false,
          "internalType": "address",
          "name": "sender",
          "type": "address"
        }
      ],
      "name": "RefreshMetadata",
      "type": "event"
    },
    {
      "anonymous": false,
      "inputs": [
        {
          "indexed": true,
          "internalType": "address",
          "name": "to",
          "type": "address"
        },
        {
          "indexed": false,
          "internalType": "string",
          "name": "specUri",
          "type": "string"
        },
        {
          "indexed": true,
          "internalType": "uint256",
          "name": "raftTokenId",
          "type": "uint256"
        },
        {
          "indexed": true,
          "internalType": "address",
          "name": "raftAddress",
          "type": "address"
        }
      ],
      "name": "SpecCreated",
      "type": "event"
    },
    {
      "anonymous": false,
      "inputs": [
        {
          "indexed": true,
          "internalType": "address",
          "name": "from",
          "type": "address"
        },
        {
          "indexed": true,
          "internalType": "address",
          "name": "to",
          "type": "address"
        },
        {
          "indexed": true,
          "internalType": "uint256",
          "name": "tokenId",
          "type": "uint256"
        }
      ],
      "name": "Transfer",
      "type": "event"
    },
    {
      "anonymous": false,
      "inputs": [
        {
          "indexed": true,
          "internalType": "address",
          "name": "implementation",
          "type": "address"
        }
      ],
      "name": "Upgraded",
      "type": "event"
    },
    {
      "inputs": [
        {
          "internalType": "address",
          "name": "_owner",
          "type": "address"
        }
      ],
      "name": "balanceOf",
      "outputs": [
        {
          "internalType": "uint256",
          "name": "",
          "type": "uint256"
        }
      ],
      "stateMutability": "view",
      "type": "function"
    },
    {
      "inputs": [
        {
          "internalType": "string",
          "name": "_specUri",
          "type": "string"
        },
        {
          "internalType": "uint256",
          "name": "_raftTokenId",
          "type": "uint256"
        }
      ],
      "name": "createSpec",
      "outputs": [],
      "stateMutability": "nonpayable",
      "type": "function"
    },
    {
      "inputs": [
        {
          "internalType": "address",
          "name": "_from",
          "type": "address"
        },
        {
          "internalType": "address",
          "name": "_to",
          "type": "address"
        },
        {
          "internalType": "string",
          "name": "_uri",
          "type": "string"
        }
      ],
      "name": "getAgreementHash",
      "outputs": [
        {
          "internalType": "bytes32",
          "name": "",
          "type": "bytes32"
        }
      ],
      "stateMutability": "view",
      "type": "function"
    },
    {
      "inputs": [
        {
          "internalType": "address",
          "name": "_to",
          "type": "address"
        },
        {
          "internalType": "string",
          "name": "_uri",
          "type": "string"
        }
      ],
      "name": "getBadgeIdHash",
      "outputs": [
        {
          "internalType": "bytes32",
          "name": "",
          "type": "bytes32"
        }
      ],
      "stateMutability": "view",
      "type": "function"
    },
    {
      "inputs": [],
      "name": "getDataHolderAddress",
      "outputs": [
        {
          "internalType": "address",
          "name": "",
          "type": "address"
        }
      ],
      "stateMutability": "view",
      "type": "function"
    },
    {
      "inputs": [
        {
          "internalType": "address",
          "name": "_issuer",
          "type": "address"
        },
        {
          "internalType": "string",
          "name": "_uri",
          "type": "string"
        },
        {
          "internalType": "bytes32",
          "name": "_root",
          "type": "bytes32"
        }
      ],
      "name": "getMerkleAgreementHash",
      "outputs": [
        {
          "internalType": "bytes32",
          "name": "",
          "type": "bytes32"
        }
      ],
      "stateMutability": "view",
      "type": "function"
    },
    {
      "inputs": [
        {
          "internalType": "address",
          "name": "_to",
          "type": "address"
        },
        {
          "internalType": "string",
          "name": "_uri",
          "type": "string"
        },
        {
          "internalType": "bytes",
          "name": "_signature",
          "type": "bytes"
        }
      ],
      "name": "give",
      "outputs": [
        {
          "internalType": "uint256",
          "name": "",
          "type": "uint256"
        }
      ],
      "stateMutability": "nonpayable",
      "type": "function"
    },
    {
      "inputs": [
        {
          "internalType": "string",
          "name": "_name",
          "type": "string"
        },
        {
          "internalType": "string",
          "name": "_symbol",
          "type": "string"
        },
        {
          "internalType": "string",
          "name": "_version",
          "type": "string"
        },
        {
          "internalType": "address",
          "name": "_nextOwner",
          "type": "address"
        },
        {
          "internalType": "address",
          "name": "_specDataHolderAddress",
          "type": "address"
        }
      ],
      "name": "initialize",
      "outputs": [],
      "stateMutability": "nonpayable",
      "type": "function"
    },
    {
      "inputs": [
        {
          "internalType": "uint256",
          "name": "_badgeId",
          "type": "uint256"
        }
      ],
      "name": "isBadgeValid",
      "outputs": [
        {
          "internalType": "bool",
          "name": "",
          "type": "bool"
        }
      ],
      "stateMutability": "view",
      "type": "function"
    },
    {
      "inputs": [
        {
          "internalType": "address",
          "name": "_from",
          "type": "address"
        },
        {
          "internalType": "string",
          "name": "_uri",
          "type": "string"
        },
        {
          "internalType": "bytes",
          "name": "_signature",
          "type": "bytes"
        },
        {
          "internalType": "bytes32",
          "name": "root",
          "type": "bytes32"
        },
        {
          "internalType": "bytes32[]",
          "name": "proof",
          "type": "bytes32[]"
        }
      ],
      "name": "merkleTake",
      "outputs": [
        {
          "internalType": "uint256",
          "name": "",
          "type": "uint256"
        }
      ],
      "stateMutability": "nonpayable",
      "type": "function"
    },
    {
      "inputs": [
        {
          "internalType": "address[]",
          "name": "_recipients",
          "type": "address[]"
        },
        {
          "internalType": "string",
          "name": "_uri",
          "type": "string"
        },
        {
          "internalType": "bytes[]",
          "name": "_signature",
          "type": "bytes[]"
        }
      ],
      "name": "multiGive",
      "outputs": [],
      "stateMutability": "nonpayable",
      "type": "function"
    },
    {
      "inputs": [],
      "name": "name",
      "outputs": [
        {
          "internalType": "string",
          "name": "",
          "type": "string"
        }
      ],
      "stateMutability": "view",
      "type": "function"
    },
    {
      "inputs": [],
      "name": "owner",
      "outputs": [
        {
          "internalType": "address",
          "name": "",
          "type": "address"
        }
      ],
      "stateMutability": "view",
      "type": "function"
    },
    {
      "inputs": [
        {
          "internalType": "uint256",
          "name": "_tokenId",
          "type": "uint256"
        }
      ],
      "name": "ownerOf",
      "outputs": [
        {
          "internalType": "address",
          "name": "",
          "type": "address"
        }
      ],
      "stateMutability": "view",
      "type": "function"
    },
    {
      "inputs": [],
      "name": "proxiableUUID",
      "outputs": [
        {
          "internalType": "bytes32",
          "name": "",
          "type": "bytes32"
        }
      ],
      "stateMutability": "view",
      "type": "function"
    },
    {
      "inputs": [
        {
          "internalType": "string[]",
          "name": "_specUris",
          "type": "string[]"
        }
      ],
      "name": "refreshMetadata",
      "outputs": [],
      "stateMutability": "nonpayable",
      "type": "function"
    },
    {
      "inputs": [
        {
          "internalType": "uint256",
          "name": "_raftTokenId",
          "type": "uint256"
        },
        {
          "internalType": "uint256",
          "name": "_badgeId",
          "type": "uint256"
        }
      ],
      "name": "reinstateBadge",
      "outputs": [],
      "stateMutability": "nonpayable",
      "type": "function"
    },
    {
      "inputs": [],
      "name": "renounceOwnership",
      "outputs": [],
      "stateMutability": "nonpayable",
      "type": "function"
    },
    {
      "inputs": [
        {
          "internalType": "uint256",
          "name": "_raftTokenId",
          "type": "uint256"
        },
        {
          "internalType": "uint256",
          "name": "_badgeId",
          "type": "uint256"
        },
        {
          "internalType": "uint8",
          "name": "_reason",
          "type": "uint8"
        }
      ],
      "name": "revokeBadge",
      "outputs": [],
      "stateMutability": "nonpayable",
      "type": "function"
    },
    {
      "inputs": [
        {
          "internalType": "address",
          "name": "_dataHolder",
          "type": "address"
        }
      ],
      "name": "setDataHolder",
      "outputs": [],
      "stateMutability": "nonpayable",
      "type": "function"
    },
    {
      "inputs": [
        {
          "internalType": "bytes4",
          "name": "_interfaceId",
          "type": "bytes4"
        }
      ],
      "name": "supportsInterface",
      "outputs": [
        {
          "internalType": "bool",
          "name": "",
          "type": "bool"
        }
      ],
      "stateMutability": "view",
      "type": "function"
    },
    {
      "inputs": [],
      "name": "symbol",
      "outputs": [
        {
          "internalType": "string",
          "name": "",
          "type": "string"
        }
      ],
      "stateMutability": "view",
      "type": "function"
    },
    {
      "inputs": [
        {
          "internalType": "address",
          "name": "_from",
          "type": "address"
        },
        {
          "internalType": "string",
          "name": "_uri",
          "type": "string"
        },
        {
          "internalType": "bytes",
          "name": "_signature",
          "type": "bytes"
        }
      ],
      "name": "take",
      "outputs": [
        {
          "internalType": "uint256",
          "name": "",
          "type": "uint256"
        }
      ],
      "stateMutability": "nonpayable",
      "type": "function"
    },
    {
      "inputs": [
        {
          "internalType": "uint256",
          "name": "_tokenId",
          "type": "uint256"
        }
      ],
      "name": "tokenURI",
      "outputs": [
        {
          "internalType": "string",
          "name": "",
          "type": "string"
        }
      ],
      "stateMutability": "view",
      "type": "function"
    },
    {
      "inputs": [
        {
          "internalType": "address",
          "name": "newOwner",
          "type": "address"
        }
      ],
      "name": "transferOwnership",
      "outputs": [],
      "stateMutability": "nonpayable",
      "type": "function"
    },
    {
      "inputs": [
        {
          "internalType": "uint256",
          "name": "_tokenId",
          "type": "uint256"
        }
      ],
      "name": "unequip",
      "outputs": [],
      "stateMutability": "nonpayable",
      "type": "function"
    },
    {
      "inputs": [
        {
          "internalType": "address",
          "name": "newImplementation",
          "type": "address"
        }
      ],
      "name": "upgradeTo",
      "outputs": [],
      "stateMutability": "nonpayable",
      "type": "function"
    },
    {
      "inputs": [
        {
          "internalType": "address",
          "name": "newImplementation",
          "type": "address"
        },
        {
          "internalType": "bytes",
          "name": "data",
          "type": "bytes"
        }
      ],
      "name": "upgradeToAndCall",
      "outputs": [],
      "stateMutability": "payable",
      "type": "function"
    }
  ],
  "bytecode": {
    "object": "0x60a0604052306080523480156200001557600080fd5b506200002062000026565b620000e8565b600054610100900460ff1615620000935760405162461bcd60e51b815260206004820152602760248201527f496e697469616c697a61626c653a20636f6e747261637420697320696e697469604482015266616c697a696e6760c81b606482015260840160405180910390fd5b60005460ff9081161015620000e6576000805460ff191660ff9081179091556040519081527f7f26b83ff96e1f2b6a682f133852f6798a09c465da95921460cefb38474024989060200160405180910390a15b565b60805161382462000120600039600081816108fd0152818161093d01528181610e3301528181610e730152610f0601526138246000f3fe6080604052600436106101b75760003560e01c806380956c7e116100ec578063c01841121161008a578063d6d0faee11610064578063d6d0faee146104ca578063e4992506146104ea578063ec64948e1461050a578063f2fde38b1461052a57600080fd5b8063c01841121461046a578063c87b56dd1461048a578063d179e3d0146104aa57600080fd5b8063a3947803116100c6578063a3947803146103ea578063a8cf86831461040a578063bd6645e41461042a578063bdbdbcbf1461044a57600080fd5b806380956c7e146103975780638da5cb5b146103b757806395d89b41146103d557600080fd5b80634f1ef28611610159578063635ad99311610133578063635ad9931461032357806370a0823114610342578063715018a6146103625780637c402f8d1461037757600080fd5b80634f1ef286146102c357806352d1902d146102d65780636352211e146102eb57600080fd5b80632c2d6385116101955780632c2d6385146102335780633659cfe614610255578063445a62b9146102755780634a086b531461029557600080fd5b806301ffc9a7146101bc57806306fdde03146101f15780630f4d9b0114610213575b600080fd5b3480156101c857600080fd5b506101dc6101d7366004612bc6565b61054a565b60405190151581526020015b60405180910390f35b3480156101fd57600080fd5b5061020661059c565b6040516101e89190612c40565b34801561021f57600080fd5b506101dc61022e366004612c53565b61062f565b34801561023f57600080fd5b5061025361024e366004612cf1565b610696565b005b34801561026157600080fd5b50610253610270366004612d9f565b6108f3565b34801561028157600080fd5b50610253610290366004612dbc565b6109d2565b3480156102a157600080fd5b506102b56102b0366004612e07565b610c69565b6040519081526020016101e8565b6102536102d1366004612ed2565b610e29565b3480156102e257600080fd5b506102b5610ef9565b3480156102f757600080fd5b5061030b610306366004612c53565b610fac565b6040516001600160a01b0390911681526020016101e8565b34801561032f57600080fd5b50610135546001600160a01b031661030b565b34801561034e57600080fd5b506102b561035d366004612d9f565b611001565b34801561036e57600080fd5b5061025361108c565b34801561038357600080fd5b50610253610392366004612f95565b6110a0565b3480156103a357600080fd5b506102536103b2366004612fd4565b61123d565b3480156103c357600080fd5b5060c9546001600160a01b031661030b565b3480156103e157600080fd5b506102066113d0565b3480156103f657600080fd5b506102b5610405366004612ff6565b6113e0565b34801561041657600080fd5b506102b5610425366004613078565b61159a565b34801561043657600080fd5b506102b56104453660046130cc565b6115d1565b34801561045657600080fd5b50610253610465366004613127565b611666565b34801561047657600080fd5b50610253610485366004612d9f565b611709565b34801561049657600080fd5b506102066104a5366004612c53565b611734565b3480156104b657600080fd5b506102536104c5366004612c53565b61183b565b3480156104d657600080fd5b506102536104e5366004613168565b6118e2565b3480156104f657600080fd5b506102b5610505366004613227565b611ac1565b34801561051657600080fd5b506102b5610525366004612ff6565b611b31565b34801561053657600080fd5b50610253610545366004612d9f565b611cd4565b60006001600160e01b03198216635b5e139f60e01b148061057b57506001600160e01b031982166346bdd63960e11b145b8061059657506301ffc9a760e01b6001600160e01b03198316145b92915050565b606061013080546105ac9061328b565b80601f01602080910402602001604051908101604052809291908181526020018280546105d89061328b565b80156106255780601f106105fa57610100808354040283529160200191610625565b820191906000526020600020905b81548152906001019060200180831161060857829003601f168201915b5050505050905090565b6000818152610132602052604081205482906001600160a01b031661066f5760405162461bcd60e51b8152600401610666906132bf565b60405180910390fd5b600883901c60009081526101376020526040902054600160ff85161b161591505b50919050565b61013554604051633664a8e960e01b81526000916001600160a01b031690633664a8e9906106ca908890889060040161331d565b602060405180830381865afa1580156106e7573d6000803e3d6000fd5b505050506040513d601f19601f8201168201806040525081019061070b9190613331565b6101355460405163b2a0cb6b60e01b81526004810183905291925033916001600160a01b039091169063b2a0cb6b90602401602060405180830381865afa15801561075a573d6000803e3d6000fd5b505050506040513d601f19601f8201168201806040525081019061077e919061334a565b6001600160a01b0316146107c95760405162461bcd60e51b815260206004820152601260248201527119da5d994e881d5b985d5d1a1bdc9a5e995960721b6044820152606401610666565b60005b868110156108e9578787828181106107e6576107e6613367565b90506020020160208101906107fb9190612d9f565b6001600160a01b0316330361084e5760405162461bcd60e51b815260206004820152601960248201527833b4bb329d1031b0b73737ba1033b4bb32903a379039b2b63360391b6044820152606401610666565b6108a43389898481811061086457610864613367565b90506020020160208101906108799190612d9f565b888888888781811061088d5761088d613367565b905060200281019061089f919061337d565b611d4a565b6108d68888838181106108b9576108b9613367565b90506020020160208101906108ce9190612d9f565b878785611df8565b50806108e1816133d9565b9150506107cc565b5050505050505050565b6001600160a01b037f000000000000000000000000000000000000000000000000000000000000000016300361093b5760405162461bcd60e51b8152600401610666906133f2565b7f00000000000000000000000000000000000000000000000000000000000000006001600160a01b03166109846000805160206137a8833981519152546001600160a01b031690565b6001600160a01b0316146109aa5760405162461bcd60e51b81526004016106669061343e565b6109b381611fc8565b604080516000808252602082019092526109cf91839190611fd0565b50565b6101355460405163b2a0cb6b60e01b815260048101839052829133916001600160a01b039091169063b2a0cb6b90602401602060405180830381865afa158015610a20573d6000803e3d6000fd5b505050506040513d601f19601f82011682018060405250810190610a44919061334a565b6001600160a01b031614610a6a5760405162461bcd60e51b81526004016106669061348a565b61013554604051637e07102760e11b81526001600160a01b039091169063fc0e204e90610a9d908790879060040161331d565b602060405180830381865afa158015610aba573d6000803e3d6000fd5b505050506040513d601f19601f82011682018060405250810190610ade91906134c1565b15610b375760405162461bcd60e51b815260206004820152602360248201527f637265617465537065633a207370656320616c726561647920726567697374656044820152621c995960ea1b6064820152608401610666565b6101355460405163addd190760e01b81526001600160a01b039091169063addd190790610b6c908790879087906004016134e3565b600060405180830381600087803b158015610b8657600080fd5b505af1158015610b9a573d6000803e3d6000fd5b5050505061013560009054906101000a90046001600160a01b03166001600160a01b03166334f876626040518163ffffffff1660e01b8152600401602060405180830381865afa158015610bf2573d6000803e3d6000fd5b505050506040513d601f19601f82011682018060405250810190610c16919061334a565b6001600160a01b031682336001600160a01b03167f68c7f8503283c455a4445b54a7d5c40656c8cae5cca0583c6d4be836984787008787604051610c5b92919061331d565b60405180910390a450505050565b60006001600160a01b0389163303610cc35760405162461bcd60e51b815260206004820152601b60248201527f74616b653a2063616e6e6f742074616b652066726f6d2073656c6600000000006044820152606401610666565b610cd489338a8a8a8a8a8a8a612140565b61013554604051633664a8e960e01b81526000916001600160a01b031690633664a8e990610d08908c908c9060040161331d565b602060405180830381865afa158015610d25573d6000803e3d6000fd5b505050506040513d601f19601f82011682018060405250810190610d499190613331565b6101355460405163b2a0cb6b60e01b8152600481018390529192506001600160a01b038c81169291169063b2a0cb6b90602401602060405180830381865afa158015610d99573d6000803e3d6000fd5b505050506040513d601f19601f82011682018060405250810190610dbd919061334a565b6001600160a01b031614610e0f5760405162461bcd60e51b81526020600482015260196024820152783a30b5b29d103ab730baba3437b934bd32b21034b9b9bab2b960391b6044820152606401610666565b610e1b338a8a84611df8565b9a9950505050505050505050565b6001600160a01b037f0000000000000000000000000000000000000000000000000000000000000000163003610e715760405162461bcd60e51b8152600401610666906133f2565b7f00000000000000000000000000000000000000000000000000000000000000006001600160a01b0316610eba6000805160206137a8833981519152546001600160a01b031690565b6001600160a01b031614610ee05760405162461bcd60e51b81526004016106669061343e565b610ee982611fc8565b610ef582826001611fd0565b5050565b6000306001600160a01b037f00000000000000000000000000000000000000000000000000000000000000001614610f995760405162461bcd60e51b815260206004820152603860248201527f555550535570677261646561626c653a206d757374206e6f742062652063616c60448201527f6c6564207468726f7567682064656c656761746563616c6c00000000000000006064820152608401610666565b506000805160206137a883398151915290565b6000818152610132602052604081205482906001600160a01b0316610fe35760405162461bcd60e51b8152600401610666906132bf565b5050600090815261013260205260409020546001600160a01b031690565b60006001600160a01b03821661106f5760405162461bcd60e51b815260206004820152602d60248201527f62616c616e63654f663a2061646472657373207a65726f206973206e6f74206160448201526c2076616c6964206f776e65725f60981b6064820152608401610666565b506001600160a01b03166000908152610134602052604090205490565b6110946122cd565b61109e6000612327565b565b6000828152610132602052604090205482906001600160a01b03166110d75760405162461bcd60e51b8152600401610666906132bf565b6101355460405163b2a0cb6b60e01b815260048101869052859133916001600160a01b039091169063b2a0cb6b90602401602060405180830381865afa158015611125573d6000803e3d6000fd5b505050506040513d601f19601f82011682018060405250810190611149919061334a565b6001600160a01b03161461116f5760405162461bcd60e51b81526004016106669061348a565b600884901c60009081526101376020526040902054600160ff86161b16156111e45760405162461bcd60e51b815260206004820152602260248201527f7265766f6b6542616467653a20626164676520616c7265616479207265766f6b604482015261195960f21b6064820152608401610666565b600884901c6000908152610137602052604090208054600160ff87161b17905560405160ff841690339086907ffa784c48260e8db512de5f055a2f29eced211a7b3bd6338058b095ada7354cee90600090a45050505050565b6000818152610132602052604090205481906001600160a01b03166112745760405162461bcd60e51b8152600401610666906132bf565b6101355460405163b2a0cb6b60e01b815260048101859052849133916001600160a01b039091169063b2a0cb6b90602401602060405180830381865afa1580156112c2573d6000803e3d6000fd5b505050506040513d601f19601f820116820180604052508101906112e6919061334a565b6001600160a01b03161461130c5760405162461bcd60e51b81526004016106669061348a565b600883901c60009081526101376020526040902054600160ff85161b1661137f5760405162461bcd60e51b815260206004820152602160248201527f7265696e737461746542616467653a206261646765206e6f74207265766f6b656044820152601960fa1b6064820152608401610666565b600883901c600090815261013760205260408082208054600160ff88161b1916905551339185917f7f8cf9ecf2a5225948f8a1601709cedc8471c52ee75a8174c9845c29c99ed9a29190a350505050565b606061013180546105ac9061328b565b60006001600160a01b038616330361143a5760405162461bcd60e51b815260206004820152601b60248201527f74616b653a2063616e6e6f742074616b652066726f6d2073656c6600000000006044820152606401610666565b611448338787878787611d4a565b61013554604051633664a8e960e01b81526000916001600160a01b031690633664a8e99061147c908990899060040161331d565b602060405180830381865afa158015611499573d6000803e3d6000fd5b505050506040513d601f19601f820116820180604052508101906114bd9190613331565b6101355460405163b2a0cb6b60e01b8152600481018390529192506001600160a01b038981169291169063b2a0cb6b90602401602060405180830381865afa15801561150d573d6000803e3d6000fd5b505050506040513d601f19601f82011682018060405250810190611531919061334a565b6001600160a01b0316146115835760405162461bcd60e51b81526020600482015260196024820152783a30b5b29d103ab730baba3437b934bd32b21034b9b9bab2b960391b6044820152606401610666565b61158f33878784611df8565b979650505050505050565b60008383836040516020016115b193929190613507565b6040516020818303038152906040528051906020012090505b9392505050565b600061165b7f6d0d990916a9f9c9e0896e59ce7f5ddddff333d0c8772438ce004fa7719b164b86868660405161160892919061352c565b60405190819003812061164093929187906020019384526001600160a01b039290921660208401526040830152606082015260800190565b60405160208183030381529060405280519060200120612379565b90505b949350505050565b61166e6122cd565b806116ca5760405162461bcd60e51b815260206004820152602660248201527f726566726573684d657461646174613a206e6f207370656320757269732070726044820152651bdd9a59195960d21b6064820152608401610666565b7f2231d988b1a75dccab13dee3564b71a551900e822e94177a96f19561890c0fd58282336040516116fd9392919061353c565b60405180910390a15050565b6117116122cd565b61013580546001600160a01b0319166001600160a01b0392909216919091179055565b600081815261013260205260409020546060906001600160a01b031661179c5760405162461bcd60e51b815260206004820152601d60248201527f746f6b656e5552493a20746f6b656e20646f65736e27742065786973740000006044820152606401610666565b60008281526101336020526040902080546117b69061328b565b80601f01602080910402602001604051908101604052809291908181526020018280546117e29061328b565b801561182f5780601f106118045761010080835404028352916020019161182f565b820191906000526020600020905b81548152906001019060200180831161181257829003601f168201915b50505050509050919050565b6000818152610132602052604090205481906001600160a01b03166118725760405162461bcd60e51b8152600401610666906132bf565b600082815261013260205260409020546001600160a01b031633146118d95760405162461bcd60e51b815260206004820152601d60248201527f756e65717569703a2073656e646572206d757374206265206f776e65720000006044820152606401610666565b610ef5826123c7565b600054610100900460ff16158080156119025750600054600160ff909116105b8061191c5750303b15801561191c575060005460ff166001145b61197f5760405162461bcd60e51b815260206004820152602e60248201527f496e697469616c697a61626c653a20636f6e747261637420697320616c72656160448201526d191e481a5b9a5d1a585b1a5e995960921b6064820152608401610666565b6000805460ff1916600117905580156119a2576000805461ff0019166101001790555b6101306119b0898b8361362b565b506101316119bf87898361362b565b5061013580546001600160a01b0319166001600160a01b0384161790556119e4612472565b6119ec612499565b611a5f89898080601f01602080910402602001604051908101604052809392919081815260200183838082843760009201919091525050604080516020601f8b0181900481028201810190925289815292508991508890819084018382808284376000920191909152506124c892505050565b611a67612472565b611a7083611cd4565b8015611ab6576000805461ff0019169055604051600181527f7f26b83ff96e1f2b6a682f133852f6798a09c465da95921460cefb38474024989060200160405180910390a15b505050505050505050565b600061165b7fe76a195fbe43f0eaa611595069f780493db2202a1cc4b2d7d44b47069812998a86868686604051611af992919061352c565b604051908190038120611640949392916020019384526001600160a01b03928316602085015291166040830152606082015260800190565b60006001600160a01b0386163303611b875760405162461bcd60e51b815260206004820152601960248201527833b4bb329d1031b0b73737ba1033b4bb32903a379039b2b63360391b6044820152606401610666565b611b95338787878787611d4a565b61013554604051633664a8e960e01b81526000916001600160a01b031690633664a8e990611bc9908990899060040161331d565b602060405180830381865afa158015611be6573d6000803e3d6000fd5b505050506040513d601f19601f82011682018060405250810190611c0a9190613331565b6101355460405163b2a0cb6b60e01b81526004810183905291925033916001600160a01b039091169063b2a0cb6b90602401602060405180830381865afa158015611c59573d6000803e3d6000fd5b505050506040513d601f19601f82011682018060405250810190611c7d919061334a565b6001600160a01b031614611cc85760405162461bcd60e51b815260206004820152601260248201527119da5d994e881d5b985d5d1a1bdc9a5e995960721b6044820152606401610666565b61158f87878784611df8565b611cdc6122cd565b6001600160a01b038116611d415760405162461bcd60e51b815260206004820152602660248201527f4f776e61626c653a206e6577206f776e657220697320746865207a65726f206160448201526564647265737360d01b6064820152608401610666565b6109cf81612327565b611d9685611d5a88888888611ac1565b84848080601f0160208091040260200160405190810160405280939291908181526020018383808284376000920191909152506124f992505050565b611df05760405162461bcd60e51b815260206004820152602560248201527f73616665436865636b41677265656d656e743a20696e76616c6964207369676e604482015264617475726560d81b6064820152608401610666565b505050505050565b600081600003611e4a5760405162461bcd60e51b815260206004820152601c60248201527f6d696e743a2073706563206973206e6f742072656769737465726564000000006044820152606401610666565b6000611e5786868661159a565b600081815261013260205260409020549091506001600160a01b031615611eb75760405162461bcd60e51b81526020600482015260146024820152736d696e743a20746f6b656e49442065786973747360601b6044820152606401610666565b6001600160a01b038616600090815261013460205260408120805491611edc836133d9565b909155505060008181526101326020908152604080832080546001600160a01b0319166001600160a01b038b161790556101339091529020611f1f85878361362b565b5060405181906001600160a01b038816906000907fddf252ad1be2c89b69c2b068fc378daa952ba7f163c4a11628f55a4df523b3ef908290a46101355460405163fb74926160e01b815260048101839052602481018590526001600160a01b039091169063fb74926190604401600060405180830381600087803b158015611fa657600080fd5b505af1158015611fba573d6000803e3d6000fd5b509298975050505050505050565b6109cf6122cd565b7f4910fdfa16fed3260ed0e7147f7cc6da11a60208b5b9406d12a635614ffd91435460ff1615612008576120038361263b565b505050565b826001600160a01b03166352d1902d6040518163ffffffff1660e01b8152600401602060405180830381865afa925050508015612062575060408051601f3d908101601f1916820190925261205f91810190613331565b60015b6120c55760405162461bcd60e51b815260206004820152602e60248201527f45524331393637557067726164653a206e657720696d706c656d656e7461746960448201526d6f6e206973206e6f74205555505360901b6064820152608401610666565b6000805160206137a883398151915281146121345760405162461bcd60e51b815260206004820152602960248201527f45524331393637557067726164653a20756e737570706f727465642070726f786044820152681a58589b195555525160ba1b6064820152608401610666565b506120038383836126d7565b61218c896121508b8a8a886115d1565b87878080601f0160208091040260200160405190810160405280939291908181526020018383808284376000920191909152506124f992505050565b6121ec5760405162461bcd60e51b815260206004820152602b60248201527f73616665436865636b4d65726b6c6541677265656d656e743a20696e76616c6960448201526a64207369676e617475726560a81b6064820152608401610666565b6040516bffffffffffffffffffffffff1960608a901b1660208201526000906034016040516020818303038152906040528051906020012090506122668383808060200260200160405190810160405280939291908181526020018383602002808284376000920191909152508892508591506127029050565b6122c15760405162461bcd60e51b815260206004820152602660248201527f73616665436865636b4d65726b6c6541677265656d656e743a20696e76616c6960448201526532103632b0b360d11b6064820152608401610666565b50505050505050505050565b60c9546001600160a01b0316331461109e5760405162461bcd60e51b815260206004820181905260248201527f4f776e61626c653a2063616c6c6572206973206e6f7420746865206f776e65726044820152606401610666565b60c980546001600160a01b038381166001600160a01b0319831681179093556040519116919082907f8be0079c531659141344cd1fd0a4f28419497f9722a3daafe3b4186f6b6457e090600090a35050565b6000610596612386612718565b8360405161190160f01b6020820152602281018390526042810182905260009060620160405160208183030381529060405280519060200120905092915050565b600081815261013260209081526040808320546001600160a01b03168084526101349092528220805491926001926124009084906136eb565b909155505060008281526101326020908152604080832080546001600160a01b0319169055610133909152812061243691612b78565b60405182906000906001600160a01b038416907fddf252ad1be2c89b69c2b068fc378daa952ba7f163c4a11628f55a4df523b3ef908390a45050565b600054610100900460ff1661109e5760405162461bcd60e51b8152600401610666906136fe565b600054610100900460ff166124c05760405162461bcd60e51b8152600401610666906136fe565b61109e612754565b600054610100900460ff166124ef5760405162461bcd60e51b8152600401610666906136fe565b610ef58282612784565b600080600061250885856127c5565b9092509050600081600481111561252157612521613749565b14801561253f5750856001600160a01b0316826001600160a01b0316145b1561254f576001925050506115ca565b600080876001600160a01b0316631626ba7e60e01b888860405160240161257792919061375f565b60408051601f198184030181529181526020820180516001600160e01b03166001600160e01b03199094169390931790925290516125b59190613778565b600060405180830381855afa9150503d80600081146125f0576040519150601f19603f3d011682016040523d82523d6000602084013e6125f5565b606091505b5091509150818015612608575080516020145b801561262f57508051630b135d3f60e11b9061262d9083016020908101908401613331565b145b98975050505050505050565b6001600160a01b0381163b6126a85760405162461bcd60e51b815260206004820152602d60248201527f455243313936373a206e657720696d706c656d656e746174696f6e206973206e60448201526c1bdd08184818dbdb9d1c9858dd609a1b6064820152608401610666565b6000805160206137a883398151915280546001600160a01b0319166001600160a01b0392909216919091179055565b6126e083612833565b6000825111806126ed5750805b15612003576126fc8383612873565b50505050565b60008261270f8584612967565b14949350505050565b600061274f7f8b73c3c69bb8fe3d512ecc4cf759cc79239f7b179b0ffacaa9a75d522b39400f61274760fb5490565b60fc546129b4565b905090565b600054610100900460ff1661277b5760405162461bcd60e51b8152600401610666906136fe565b61109e33612327565b600054610100900460ff166127ab5760405162461bcd60e51b8152600401610666906136fe565b81516020928301208151919092012060fb9190915560fc55565b60008082516041036127fb5760208301516040840151606085015160001a6127ef878285856129e3565b9450945050505061282c565b82516040036128245760208301516040840151612819868383612ad0565b93509350505061282c565b506000905060025b9250929050565b61283c8161263b565b6040516001600160a01b038216907fbc7cd75a20ee27fd9adebab32041f755214dbc6bffa90cc0225b39da2e5c2d3b90600090a250565b60606001600160a01b0383163b6128db5760405162461bcd60e51b815260206004820152602660248201527f416464726573733a2064656c65676174652063616c6c20746f206e6f6e2d636f6044820152651b9d1c9858dd60d21b6064820152608401610666565b600080846001600160a01b0316846040516128f69190613778565b600060405180830381855af49150503d8060008114612931576040519150601f19603f3d011682016040523d82523d6000602084013e612936565b606091505b509150915061295e82826040518060600160405280602781526020016137c860279139612b09565b95945050505050565b600081815b84518110156129ac576129988286838151811061298b5761298b613367565b6020026020010151612b22565b9150806129a4816133d9565b91505061296c565b509392505050565b6040805160208101859052908101839052606081018290524660808201523060a082015260009060c0016115b1565b6000807f7fffffffffffffffffffffffffffffff5d576e7357a4501ddfe92f46681b20a0831115612a1a5750600090506003612ac7565b8460ff16601b14158015612a3257508460ff16601c14155b15612a435750600090506004612ac7565b6040805160008082526020820180845289905260ff881692820192909252606081018690526080810185905260019060a0016020604051602081039080840390855afa158015612a97573d6000803e3d6000fd5b5050604051601f1901519150506001600160a01b038116612ac057600060019250925050612ac7565b9150600090505b94509492505050565b6000806001600160ff1b03831681612aed60ff86901c601b613794565b9050612afb878288856129e3565b935093505050935093915050565b60608315612b185750816115ca565b6115ca8383612b4e565b6000818310612b3e5760008281526020849052604090206115ca565b5060009182526020526040902090565b815115612b5e5781518083602001fd5b8060405162461bcd60e51b81526004016106669190612c40565b508054612b849061328b565b6000825580601f10612b94575050565b601f0160209004906000526020600020908101906109cf91905b80821115612bc25760008155600101612bae565b5090565b600060208284031215612bd857600080fd5b81356001600160e01b0319811681146115ca57600080fd5b60005b83811015612c0b578181015183820152602001612bf3565b50506000910152565b60008151808452612c2c816020860160208601612bf0565b601f01601f19169290920160200192915050565b6020815260006115ca6020830184612c14565b600060208284031215612c6557600080fd5b5035919050565b60008083601f840112612c7e57600080fd5b5081356001600160401b03811115612c9557600080fd5b6020830191508360208260051b850101111561282c57600080fd5b60008083601f840112612cc257600080fd5b5081356001600160401b03811115612cd957600080fd5b60208301915083602082850101111561282c57600080fd5b60008060008060008060608789031215612d0a57600080fd5b86356001600160401b0380821115612d2157600080fd5b612d2d8a838b01612c6c565b90985096506020890135915080821115612d4657600080fd5b612d528a838b01612cb0565b90965094506040890135915080821115612d6b57600080fd5b50612d7889828a01612c6c565b979a9699509497509295939492505050565b6001600160a01b03811681146109cf57600080fd5b600060208284031215612db157600080fd5b81356115ca81612d8a565b600080600060408486031215612dd157600080fd5b83356001600160401b03811115612de757600080fd5b612df386828701612cb0565b909790965060209590950135949350505050565b60008060008060008060008060a0898b031215612e2357600080fd5b8835612e2e81612d8a565b975060208901356001600160401b0380821115612e4a57600080fd5b612e568c838d01612cb0565b909950975060408b0135915080821115612e6f57600080fd5b612e7b8c838d01612cb0565b909750955060608b0135945060808b0135915080821115612e9b57600080fd5b50612ea88b828c01612c6c565b999c989b5096995094979396929594505050565b634e487b7160e01b600052604160045260246000fd5b60008060408385031215612ee557600080fd5b8235612ef081612d8a565b915060208301356001600160401b0380821115612f0c57600080fd5b818501915085601f830112612f2057600080fd5b813581811115612f3257612f32612ebc565b604051601f8201601f19908116603f01168101908382118183101715612f5a57612f5a612ebc565b81604052828152886020848701011115612f7357600080fd5b8260208601602083013760006020848301015280955050505050509250929050565b600080600060608486031215612faa57600080fd5b8335925060208401359150604084013560ff81168114612fc957600080fd5b809150509250925092565b60008060408385031215612fe757600080fd5b50508035926020909101359150565b60008060008060006060868803121561300e57600080fd5b853561301981612d8a565b945060208601356001600160401b038082111561303557600080fd5b61304189838a01612cb0565b9096509450604088013591508082111561305a57600080fd5b5061306788828901612cb0565b969995985093965092949392505050565b60008060006040848603121561308d57600080fd5b833561309881612d8a565b925060208401356001600160401b038111156130b357600080fd5b6130bf86828701612cb0565b9497909650939450505050565b600080600080606085870312156130e257600080fd5b84356130ed81612d8a565b935060208501356001600160401b0381111561310857600080fd5b61311487828801612cb0565b9598909750949560400135949350505050565b6000806020838503121561313a57600080fd5b82356001600160401b0381111561315057600080fd5b61315c85828601612c6c565b90969095509350505050565b60008060008060008060008060a0898b03121561318457600080fd5b88356001600160401b038082111561319b57600080fd5b6131a78c838d01612cb0565b909a50985060208b01359150808211156131c057600080fd5b6131cc8c838d01612cb0565b909850965060408b01359150808211156131e557600080fd5b506131f28b828c01612cb0565b909550935050606089013561320681612d8a565b9150608089013561321681612d8a565b809150509295985092959890939650565b6000806000806060858703121561323d57600080fd5b843561324881612d8a565b9350602085013561325881612d8a565b925060408501356001600160401b0381111561327357600080fd5b61327f87828801612cb0565b95989497509550505050565b600181811c9082168061329f57607f821691505b60208210810361069057634e487b7160e01b600052602260045260246000fd5b6020808252818101527f746f6b656e4578697374733a20746f6b656e20646f65736e2774206578697374604082015260600190565b81835281816020850137506000828201602090810191909152601f909101601f19169091010190565b60208152600061165e6020830184866132f4565b60006020828403121561334357600080fd5b5051919050565b60006020828403121561335c57600080fd5b81516115ca81612d8a565b634e487b7160e01b600052603260045260246000fd5b6000808335601e1984360301811261339457600080fd5b8301803591506001600160401b038211156133ae57600080fd5b60200191503681900382131561282c57600080fd5b634e487b7160e01b600052601160045260246000fd5b6000600182016133eb576133eb6133c3565b5060010190565b6020808252602c908201527f46756e6374696f6e206d7573742062652063616c6c6564207468726f7567682060408201526b19195b1959d85d1958d85b1b60a21b606082015260800190565b6020808252602c908201527f46756e6374696f6e206d7573742062652063616c6c6564207468726f7567682060408201526b6163746976652070726f787960a01b606082015260800190565b6020808252601f908201527f73656e6465724973526166744f776e65723a20756e617574686f72697a656400604082015260600190565b6000602082840312156134d357600080fd5b815180151581146115ca57600080fd5b6040815260006134f76040830185876132f4565b9050826020830152949350505050565b6001600160a01b038416815260406020820181905260009061165b90830184866132f4565b8183823760009101908152919050565b6040808252810183905260006060600585901b8301810190830186835b878110156135cc57858403605f190183528135368a9003601e1901811261357f57600080fd5b890160208181019135906001600160401b0382111561359d57600080fd5b8136038313156135ac57600080fd5b6135b78783856132f4565b96509485019493909301925050600101613559565b5050506001600160a01b0384166020840152905061165e565b601f82111561200357600081815260208120601f850160051c8101602086101561360c5750805b601f850160051c820191505b81811015611df057828155600101613618565b6001600160401b0383111561364257613642612ebc565b61365683613650835461328b565b836135e5565b6000601f84116001811461368a57600085156136725750838201355b600019600387901b1c1916600186901b1783556136e4565b600083815260209020601f19861690835b828110156136bb578685013582556020948501946001909201910161369b565b50868210156136d85760001960f88860031b161c19848701351681555b505060018560011b0183555b5050505050565b81810381811115610596576105966133c3565b6020808252602b908201527f496e697469616c697a61626c653a20636f6e7472616374206973206e6f74206960408201526a6e697469616c697a696e6760a81b606082015260800190565b634e487b7160e01b600052602160045260246000fd5b82815260406020820152600061165e6040830184612c14565b6000825161378a818460208701612bf0565b9190910192915050565b80820180821115610596576105966133c356fe360894a13ba1a3210667c828492db98dca3e2076cc3735a920a3ca505d382bbc416464726573733a206c6f772d6c6576656c2064656c65676174652063616c6c206661696c6564a264697066735822122076c86bf1ac9d27f7c0239f1263eb2d1c179985f2b8237807bfdb247aeccd084164736f6c63430008100033",
    "linkReferences": {}
  },
  "methodIdentifiers": {
    "balanceOf(address)": "70a08231",
    "createSpec(string,uint256)": "445a62b9",
    "getAgreementHash(address,address,string)": "e4992506",
    "getBadgeIdHash(address,string)": "a8cf8683",
    "getDataHolderAddress()": "635ad993",
    "getMerkleAgreementHash(address,string,bytes32)": "bd6645e4",
    "give(address,string,bytes)": "ec64948e",
    "initialize(string,string,string,address,address)": "d6d0faee",
    "isBadgeValid(uint256)": "0f4d9b01",
    "merkleTake(address,string,bytes,bytes32,bytes32[])": "4a086b53",
    "multiGive(address[],string,bytes[])": "2c2d6385",
    "name()": "06fdde03",
    "owner()": "8da5cb5b",
    "ownerOf(uint256)": "6352211e",
    "proxiableUUID()": "52d1902d",
    "refreshMetadata(string[])": "bdbdbcbf",
    "reinstateBadge(uint256,uint256)": "80956c7e",
    "renounceOwnership()": "715018a6",
    "revokeBadge(uint256,uint256,uint8)": "7c402f8d",
    "setDataHolder(address)": "c0184112",
    "supportsInterface(bytes4)": "01ffc9a7",
    "symbol()": "95d89b41",
    "take(address,string,bytes)": "a3947803",
    "tokenURI(uint256)": "c87b56dd",
    "transferOwnership(address)": "f2fde38b",
    "unequip(uint256)": "d179e3d0",
    "upgradeTo(address)": "3659cfe6",
    "upgradeToAndCall(address,bytes)": "4f1ef286"
  },
  "id": 46
}