{
  "abi": [
    {
      "inputs": [],
      "stateMutability": "nonpayable",
      "type": "constructor"
    },
    {
      "anonymous": false,
      "inputs": [
        {
          "indexed": false,
          "internalType": "address",
          "name": "previousAdmin",
          "type": "address"
        },
        {
          "indexed": false,
          "internalType": "address",
          "name": "newAdmin",
          "type": "address"
        }
      ],
      "name": "AdminChanged",
      "type": "event"
    },
    {
      "anonymous": false,
      "inputs": [
        {
          "indexed": true,
          "internalType": "uint256",
          "name": "tokenId",
          "type": "uint256"
        },
        {
          "indexed": true,
          "internalType": "address",
          "name": "from",
          "type": "address"
        }
      ],
      "name": "BadgeReinstated",
      "type": "event"
    },
    {
      "anonymous": false,
      "inputs": [
        {
          "indexed": true,
          "internalType": "uint256",
          "name": "tokenId",
          "type": "uint256"
        },
        {
          "indexed": true,
          "internalType": "address",
          "name": "from",
          "type": "address"
        },
        {
          "indexed": true,
          "internalType": "uint8",
          "name": "reason",
          "type": "uint8"
        }
      ],
      "name": "BadgeRevoked",
      "type": "event"
    },
    {
      "anonymous": false,
      "inputs": [
        {
          "indexed": true,
          "internalType": "address",
          "name": "beacon",
          "type": "address"
        }
      ],
      "name": "BeaconUpgraded",
      "type": "event"
    },
    {
      "anonymous": false,
      "inputs": [
        {
          "indexed": false,
          "internalType": "uint8",
          "name": "version",
          "type": "uint8"
        }
      ],
      "name": "Initialized",
      "type": "event"
    },
    {
      "anonymous": false,
      "inputs": [
        {
          "indexed": true,
          "internalType": "address",
          "name": "previousOwner",
          "type": "address"
        },
        {
          "indexed": true,
          "internalType": "address",
          "name": "newOwner",
          "type": "address"
        }
      ],
      "name": "OwnershipTransferred",
      "type": "event"
    },
    {
      "anonymous": false,
      "inputs": [
        {
          "indexed": false,
          "internalType": "string[]",
          "name": "specUris",
          "type": "string[]"
        },
        {
          "indexed": false,
          "internalType": "address",
          "name": "sender",
          "type": "address"
        }
      ],
      "name": "RefreshMetadata",
      "type": "event"
    },
    {
      "anonymous": false,
      "inputs": [
        {
          "indexed": true,
          "internalType": "address",
          "name": "to",
          "type": "address"
        },
        {
          "indexed": false,
          "internalType": "string",
          "name": "specUri",
          "type": "string"
        },
        {
          "indexed": true,
          "internalType": "uint256",
          "name": "raftTokenId",
          "type": "uint256"
        },
        {
          "indexed": true,
          "internalType": "address",
          "name": "raftAddress",
          "type": "address"
        }
      ],
      "name": "SpecCreated",
      "type": "event"
    },
    {
      "anonymous": false,
      "inputs": [
        {
          "indexed": true,
          "internalType": "address",
          "name": "from",
          "type": "address"
        },
        {
          "indexed": true,
          "internalType": "address",
          "name": "to",
          "type": "address"
        },
        {
          "indexed": true,
          "internalType": "uint256",
          "name": "tokenId",
          "type": "uint256"
        }
      ],
      "name": "Transfer",
      "type": "event"
    },
    {
      "anonymous": false,
      "inputs": [
        {
          "indexed": true,
          "internalType": "address",
          "name": "implementation",
          "type": "address"
        }
      ],
      "name": "Upgraded",
      "type": "event"
    },
    {
      "inputs": [
        {
          "internalType": "address",
          "name": "_owner",
          "type": "address"
        }
      ],
      "name": "balanceOf",
      "outputs": [
        {
          "internalType": "uint256",
          "name": "",
          "type": "uint256"
        }
      ],
      "stateMutability": "view",
      "type": "function"
    },
    {
      "inputs": [
        {
          "internalType": "string",
          "name": "_specUri",
          "type": "string"
        },
        {
          "internalType": "uint256",
          "name": "_raftTokenId",
          "type": "uint256"
        }
      ],
      "name": "createSpec",
      "outputs": [],
      "stateMutability": "nonpayable",
      "type": "function"
    },
    {
      "inputs": [
        {
          "internalType": "address",
          "name": "_from",
          "type": "address"
        },
        {
          "internalType": "address",
          "name": "_to",
          "type": "address"
        },
        {
          "internalType": "string",
          "name": "_uri",
          "type": "string"
        }
      ],
      "name": "getAgreementHash",
      "outputs": [
        {
          "internalType": "bytes32",
          "name": "",
          "type": "bytes32"
        }
      ],
      "stateMutability": "view",
      "type": "function"
    },
    {
      "inputs": [
        {
          "internalType": "address",
          "name": "_to",
          "type": "address"
        },
        {
          "internalType": "string",
          "name": "_uri",
          "type": "string"
        }
      ],
      "name": "getBadgeIdHash",
      "outputs": [
        {
          "internalType": "bytes32",
          "name": "",
          "type": "bytes32"
        }
      ],
      "stateMutability": "view",
      "type": "function"
    },
    {
      "inputs": [],
      "name": "getDataHolderAddress",
      "outputs": [
        {
          "internalType": "address",
          "name": "",
          "type": "address"
        }
      ],
      "stateMutability": "view",
      "type": "function"
    },
    {
      "inputs": [
        {
          "internalType": "address",
          "name": "_issuer",
          "type": "address"
        },
        {
          "internalType": "string",
          "name": "_uri",
          "type": "string"
        },
        {
          "internalType": "bytes32",
          "name": "_root",
          "type": "bytes32"
        }
      ],
      "name": "getMerkleAgreementHash",
      "outputs": [
        {
          "internalType": "bytes32",
          "name": "",
          "type": "bytes32"
        }
      ],
      "stateMutability": "view",
      "type": "function"
    },
    {
      "inputs": [
        {
          "internalType": "address",
          "name": "_to",
          "type": "address"
        },
        {
          "internalType": "string",
          "name": "_uri",
          "type": "string"
        },
        {
          "internalType": "bytes",
          "name": "_signature",
          "type": "bytes"
        }
      ],
      "name": "give",
      "outputs": [
        {
          "internalType": "uint256",
          "name": "",
          "type": "uint256"
        }
      ],
      "stateMutability": "nonpayable",
      "type": "function"
    },
    {
      "inputs": [
        {
          "internalType": "string",
          "name": "_name",
          "type": "string"
        },
        {
          "internalType": "string",
          "name": "_symbol",
          "type": "string"
        },
        {
          "internalType": "string",
          "name": "_version",
          "type": "string"
        },
        {
          "internalType": "address",
          "name": "_nextOwner",
          "type": "address"
        },
        {
          "internalType": "address",
          "name": "_specDataHolderAddress",
          "type": "address"
        }
      ],
      "name": "initialize",
      "outputs": [],
      "stateMutability": "nonpayable",
      "type": "function"
    },
    {
      "inputs": [
        {
          "internalType": "uint256",
          "name": "_badgeId",
          "type": "uint256"
        }
      ],
      "name": "isBadgeValid",
      "outputs": [
        {
          "internalType": "bool",
          "name": "",
          "type": "bool"
        }
      ],
      "stateMutability": "view",
      "type": "function"
    },
    {
      "inputs": [
        {
          "internalType": "address",
          "name": "_from",
          "type": "address"
        },
        {
          "internalType": "string",
          "name": "_uri",
          "type": "string"
        },
        {
          "internalType": "bytes",
          "name": "_signature",
          "type": "bytes"
        },
        {
          "internalType": "bytes32",
          "name": "root",
          "type": "bytes32"
        },
        {
          "internalType": "bytes32[]",
          "name": "proof",
          "type": "bytes32[]"
        }
      ],
      "name": "merkleTake",
      "outputs": [
        {
          "internalType": "uint256",
          "name": "",
          "type": "uint256"
        }
      ],
      "stateMutability": "nonpayable",
      "type": "function"
    },
    {
      "inputs": [],
      "name": "name",
      "outputs": [
        {
          "internalType": "string",
          "name": "",
          "type": "string"
        }
      ],
      "stateMutability": "view",
      "type": "function"
    },
    {
      "inputs": [],
      "name": "owner",
      "outputs": [
        {
          "internalType": "address",
          "name": "",
          "type": "address"
        }
      ],
      "stateMutability": "view",
      "type": "function"
    },
    {
      "inputs": [
        {
          "internalType": "uint256",
          "name": "_tokenId",
          "type": "uint256"
        }
      ],
      "name": "ownerOf",
      "outputs": [
        {
          "internalType": "address",
          "name": "",
          "type": "address"
        }
      ],
      "stateMutability": "view",
      "type": "function"
    },
    {
      "inputs": [],
      "name": "proxiableUUID",
      "outputs": [
        {
          "internalType": "bytes32",
          "name": "",
          "type": "bytes32"
        }
      ],
      "stateMutability": "view",
      "type": "function"
    },
    {
      "inputs": [
        {
          "internalType": "string[]",
          "name": "_specUris",
          "type": "string[]"
        }
      ],
      "name": "refreshMetadata",
      "outputs": [],
      "stateMutability": "nonpayable",
      "type": "function"
    },
    {
      "inputs": [
        {
          "internalType": "uint256",
          "name": "_raftTokenId",
          "type": "uint256"
        },
        {
          "internalType": "uint256",
          "name": "_badgeId",
          "type": "uint256"
        }
      ],
      "name": "reinstateBadge",
      "outputs": [],
      "stateMutability": "nonpayable",
      "type": "function"
    },
    {
      "inputs": [],
      "name": "renounceOwnership",
      "outputs": [],
      "stateMutability": "nonpayable",
      "type": "function"
    },
    {
      "inputs": [
        {
          "internalType": "uint256",
          "name": "_raftTokenId",
          "type": "uint256"
        },
        {
          "internalType": "uint256",
          "name": "_badgeId",
          "type": "uint256"
        },
        {
          "internalType": "uint8",
          "name": "_reason",
          "type": "uint8"
        }
      ],
      "name": "revokeBadge",
      "outputs": [],
      "stateMutability": "nonpayable",
      "type": "function"
    },
    {
      "inputs": [
        {
          "internalType": "address",
          "name": "_dataHolder",
          "type": "address"
        }
      ],
      "name": "setDataHolder",
      "outputs": [],
      "stateMutability": "nonpayable",
      "type": "function"
    },
    {
      "inputs": [
        {
          "internalType": "bytes4",
          "name": "_interfaceId",
          "type": "bytes4"
        }
      ],
      "name": "supportsInterface",
      "outputs": [
        {
          "internalType": "bool",
          "name": "",
          "type": "bool"
        }
      ],
      "stateMutability": "view",
      "type": "function"
    },
    {
      "inputs": [],
      "name": "symbol",
      "outputs": [
        {
          "internalType": "string",
          "name": "",
          "type": "string"
        }
      ],
      "stateMutability": "view",
      "type": "function"
    },
    {
      "inputs": [
        {
          "internalType": "address",
          "name": "_from",
          "type": "address"
        },
        {
          "internalType": "string",
          "name": "_uri",
          "type": "string"
        },
        {
          "internalType": "bytes",
          "name": "_signature",
          "type": "bytes"
        }
      ],
      "name": "take",
      "outputs": [
        {
          "internalType": "uint256",
          "name": "",
          "type": "uint256"
        }
      ],
      "stateMutability": "nonpayable",
      "type": "function"
    },
    {
      "inputs": [
        {
          "internalType": "uint256",
          "name": "_tokenId",
          "type": "uint256"
        }
      ],
      "name": "tokenURI",
      "outputs": [
        {
          "internalType": "string",
          "name": "",
          "type": "string"
        }
      ],
      "stateMutability": "view",
      "type": "function"
    },
    {
      "inputs": [
        {
          "internalType": "address",
          "name": "newOwner",
          "type": "address"
        }
      ],
      "name": "transferOwnership",
      "outputs": [],
      "stateMutability": "nonpayable",
      "type": "function"
    },
    {
      "inputs": [
        {
          "internalType": "uint256",
          "name": "_tokenId",
          "type": "uint256"
        }
      ],
      "name": "unequip",
      "outputs": [],
      "stateMutability": "nonpayable",
      "type": "function"
    },
    {
      "inputs": [
        {
          "internalType": "address",
          "name": "newImplementation",
          "type": "address"
        }
      ],
      "name": "upgradeTo",
      "outputs": [],
      "stateMutability": "nonpayable",
      "type": "function"
    },
    {
      "inputs": [
        {
          "internalType": "address",
          "name": "newImplementation",
          "type": "address"
        },
        {
          "internalType": "bytes",
          "name": "data",
          "type": "bytes"
        }
      ],
      "name": "upgradeToAndCall",
      "outputs": [],
      "stateMutability": "payable",
      "type": "function"
    }
  ],
  "bytecode": {
    "object": "0x60a0604052306080523480156200001557600080fd5b506200002062000026565b620000e8565b600054610100900460ff1615620000935760405162461bcd60e51b815260206004820152602760248201527f496e697469616c697a61626c653a20636f6e747261637420697320696e697469604482015266616c697a696e6760c81b606482015260840160405180910390fd5b60005460ff9081161015620000e6576000805460ff191660ff9081179091556040519081527f7f26b83ff96e1f2b6a682f133852f6798a09c465da95921460cefb38474024989060200160405180910390a15b565b6080516134b16200012060003960008181610665015281816106a501528181610b9b01528181610bdb0152610c6e01526134b16000f3fe60806040526004361061019c5760003560e01c806380956c7e116100ec578063c01841121161008a578063d6d0faee11610064578063d6d0faee1461048f578063e4992506146104af578063ec64948e146104cf578063f2fde38b146104ef57600080fd5b8063c01841121461042f578063c87b56dd1461044f578063d179e3d01461046f57600080fd5b8063a3947803116100c6578063a3947803146103af578063a8cf8683146103cf578063bd6645e4146103ef578063bdbdbcbf1461040f57600080fd5b806380956c7e1461035c5780638da5cb5b1461037c57806395d89b411461039a57600080fd5b80634f1ef28611610159578063635ad99311610133578063635ad993146102e857806370a0823114610307578063715018a6146103275780637c402f8d1461033c57600080fd5b80634f1ef2861461028857806352d1902d1461029b5780636352211e146102b057600080fd5b806301ffc9a7146101a157806306fdde03146101d65780630f4d9b01146101f85780633659cfe614610218578063445a62b91461023a5780634a086b531461025a575b600080fd5b3480156101ad57600080fd5b506101c16101bc366004612932565b61050f565b60405190151581526020015b60405180910390f35b3480156101e257600080fd5b506101eb610561565b6040516101cd91906129ac565b34801561020457600080fd5b506101c16102133660046129bf565b6105f4565b34801561022457600080fd5b506102386102333660046129ed565b61065b565b005b34801561024657600080fd5b50610238610255366004612a4b565b61073a565b34801561026657600080fd5b5061027a610275366004612ada565b6109d1565b6040519081526020016101cd565b610238610296366004612ba5565b610b91565b3480156102a757600080fd5b5061027a610c61565b3480156102bc57600080fd5b506102d06102cb3660046129bf565b610d14565b6040516001600160a01b0390911681526020016101cd565b3480156102f457600080fd5b50610135546001600160a01b03166102d0565b34801561031357600080fd5b5061027a6103223660046129ed565b610d69565b34801561033357600080fd5b50610238610df4565b34801561034857600080fd5b50610238610357366004612c68565b610e08565b34801561036857600080fd5b50610238610377366004612ca7565b610fa5565b34801561038857600080fd5b5060c9546001600160a01b03166102d0565b3480156103a657600080fd5b506101eb611138565b3480156103bb57600080fd5b5061027a6103ca366004612cc9565b611148565b3480156103db57600080fd5b5061027a6103ea366004612d4b565b611302565b3480156103fb57600080fd5b5061027a61040a366004612d9f565b611339565b34801561041b57600080fd5b5061023861042a366004612dfa565b6113ce565b34801561043b57600080fd5b5061023861044a3660046129ed565b611471565b34801561045b57600080fd5b506101eb61046a3660046129bf565b61149c565b34801561047b57600080fd5b5061023861048a3660046129bf565b6115a3565b34801561049b57600080fd5b506102386104aa366004612e3b565b61164a565b3480156104bb57600080fd5b5061027a6104ca366004612efa565b611829565b3480156104db57600080fd5b5061027a6104ea366004612cc9565b611899565b3480156104fb57600080fd5b5061023861050a3660046129ed565b611a40565b60006001600160e01b03198216635b5e139f60e01b148061054057506001600160e01b031982166346bdd63960e11b145b8061055b57506301ffc9a760e01b6001600160e01b03198316145b92915050565b6060610130805461057190612f5e565b80601f016020809104026020016040519081016040528092919081815260200182805461059d90612f5e565b80156105ea5780601f106105bf576101008083540402835291602001916105ea565b820191906000526020600020905b8154815290600101906020018083116105cd57829003601f168201915b5050505050905090565b6000818152610132602052604081205482906001600160a01b03166106345760405162461bcd60e51b815260040161062b90612f92565b60405180910390fd5b600883901c60009081526101376020526040902054600160ff85161b161591505b50919050565b6001600160a01b037f00000000000000000000000000000000000000000000000000000000000000001630036106a35760405162461bcd60e51b815260040161062b90612fc7565b7f00000000000000000000000000000000000000000000000000000000000000006001600160a01b03166106ec600080516020613435833981519152546001600160a01b031690565b6001600160a01b0316146107125760405162461bcd60e51b815260040161062b90613013565b61071b81611ab6565b6040805160008082526020820190925261073791839190611abe565b50565b6101355460405163b2a0cb6b60e01b815260048101839052829133916001600160a01b039091169063b2a0cb6b90602401602060405180830381865afa158015610788573d6000803e3d6000fd5b505050506040513d601f19601f820116820180604052508101906107ac919061305f565b6001600160a01b0316146107d25760405162461bcd60e51b815260040161062b9061307c565b61013554604051637e07102760e11b81526001600160a01b039091169063fc0e204e9061080590879087906004016130dc565b602060405180830381865afa158015610822573d6000803e3d6000fd5b505050506040513d601f19601f8201168201806040525081019061084691906130f0565b1561089f5760405162461bcd60e51b815260206004820152602360248201527f637265617465537065633a207370656320616c726561647920726567697374656044820152621c995960ea1b606482015260840161062b565b6101355460405163addd190760e01b81526001600160a01b039091169063addd1907906108d490879087908790600401613112565b600060405180830381600087803b1580156108ee57600080fd5b505af1158015610902573d6000803e3d6000fd5b5050505061013560009054906101000a90046001600160a01b03166001600160a01b03166334f876626040518163ffffffff1660e01b8152600401602060405180830381865afa15801561095a573d6000803e3d6000fd5b505050506040513d601f19601f8201168201806040525081019061097e919061305f565b6001600160a01b031682336001600160a01b03167f68c7f8503283c455a4445b54a7d5c40656c8cae5cca0583c6d4be8369847870087876040516109c39291906130dc565b60405180910390a450505050565b60006001600160a01b0389163303610a2b5760405162461bcd60e51b815260206004820152601b60248201527f74616b653a2063616e6e6f742074616b652066726f6d2073656c660000000000604482015260640161062b565b610a3c89338a8a8a8a8a8a8a611c2e565b61013554604051633664a8e960e01b81526000916001600160a01b031690633664a8e990610a70908c908c906004016130dc565b602060405180830381865afa158015610a8d573d6000803e3d6000fd5b505050506040513d601f19601f82011682018060405250810190610ab19190613136565b6101355460405163b2a0cb6b60e01b8152600481018390529192506001600160a01b038c81169291169063b2a0cb6b90602401602060405180830381865afa158015610b01573d6000803e3d6000fd5b505050506040513d601f19601f82011682018060405250810190610b25919061305f565b6001600160a01b031614610b775760405162461bcd60e51b81526020600482015260196024820152783a30b5b29d103ab730baba3437b934bd32b21034b9b9bab2b960391b604482015260640161062b565b610b83338a8a84611dbb565b9a9950505050505050505050565b6001600160a01b037f0000000000000000000000000000000000000000000000000000000000000000163003610bd95760405162461bcd60e51b815260040161062b90612fc7565b7f00000000000000000000000000000000000000000000000000000000000000006001600160a01b0316610c22600080516020613435833981519152546001600160a01b031690565b6001600160a01b031614610c485760405162461bcd60e51b815260040161062b90613013565b610c5182611ab6565b610c5d82826001611abe565b5050565b6000306001600160a01b037f00000000000000000000000000000000000000000000000000000000000000001614610d015760405162461bcd60e51b815260206004820152603860248201527f555550535570677261646561626c653a206d757374206e6f742062652063616c60448201527f6c6564207468726f7567682064656c656761746563616c6c0000000000000000606482015260840161062b565b5060008051602061343583398151915290565b6000818152610132602052604081205482906001600160a01b0316610d4b5760405162461bcd60e51b815260040161062b90612f92565b5050600090815261013260205260409020546001600160a01b031690565b60006001600160a01b038216610dd75760405162461bcd60e51b815260206004820152602d60248201527f62616c616e63654f663a2061646472657373207a65726f206973206e6f74206160448201526c2076616c6964206f776e65725f60981b606482015260840161062b565b506001600160a01b03166000908152610134602052604090205490565b610dfc611f8b565b610e066000611fe5565b565b6000828152610132602052604090205482906001600160a01b0316610e3f5760405162461bcd60e51b815260040161062b90612f92565b6101355460405163b2a0cb6b60e01b815260048101869052859133916001600160a01b039091169063b2a0cb6b90602401602060405180830381865afa158015610e8d573d6000803e3d6000fd5b505050506040513d601f19601f82011682018060405250810190610eb1919061305f565b6001600160a01b031614610ed75760405162461bcd60e51b815260040161062b9061307c565b600884901c60009081526101376020526040902054600160ff86161b1615610f4c5760405162461bcd60e51b815260206004820152602260248201527f7265766f6b6542616467653a20626164676520616c7265616479207265766f6b604482015261195960f21b606482015260840161062b565b600884901c6000908152610137602052604090208054600160ff87161b17905560405160ff841690339086907ffa784c48260e8db512de5f055a2f29eced211a7b3bd6338058b095ada7354cee90600090a45050505050565b6000818152610132602052604090205481906001600160a01b0316610fdc5760405162461bcd60e51b815260040161062b90612f92565b6101355460405163b2a0cb6b60e01b815260048101859052849133916001600160a01b039091169063b2a0cb6b90602401602060405180830381865afa15801561102a573d6000803e3d6000fd5b505050506040513d601f19601f8201168201806040525081019061104e919061305f565b6001600160a01b0316146110745760405162461bcd60e51b815260040161062b9061307c565b600883901c60009081526101376020526040902054600160ff85161b166110e75760405162461bcd60e51b815260206004820152602160248201527f7265696e737461746542616467653a206261646765206e6f74207265766f6b656044820152601960fa1b606482015260840161062b565b600883901c600090815261013760205260408082208054600160ff88161b1916905551339185917f7f8cf9ecf2a5225948f8a1601709cedc8471c52ee75a8174c9845c29c99ed9a29190a350505050565b6060610131805461057190612f5e565b60006001600160a01b03861633036111a25760405162461bcd60e51b815260206004820152601b60248201527f74616b653a2063616e6e6f742074616b652066726f6d2073656c660000000000604482015260640161062b565b6111b0338787878787612037565b61013554604051633664a8e960e01b81526000916001600160a01b031690633664a8e9906111e490899089906004016130dc565b602060405180830381865afa158015611201573d6000803e3d6000fd5b505050506040513d601f19601f820116820180604052508101906112259190613136565b6101355460405163b2a0cb6b60e01b8152600481018390529192506001600160a01b038981169291169063b2a0cb6b90602401602060405180830381865afa158015611275573d6000803e3d6000fd5b505050506040513d601f19601f82011682018060405250810190611299919061305f565b6001600160a01b0316146112eb5760405162461bcd60e51b81526020600482015260196024820152783a30b5b29d103ab730baba3437b934bd32b21034b9b9bab2b960391b604482015260640161062b565b6112f733878784611dbb565b979650505050505050565b60008383836040516020016113199392919061314f565b6040516020818303038152906040528051906020012090505b9392505050565b60006113c37f6d0d990916a9f9c9e0896e59ce7f5ddddff333d0c8772438ce004fa7719b164b868686604051611370929190613174565b6040519081900381206113a893929187906020019384526001600160a01b039290921660208401526040830152606082015260800190565b604051602081830303815290604052805190602001206120e5565b90505b949350505050565b6113d6611f8b565b806114325760405162461bcd60e51b815260206004820152602660248201527f726566726573684d657461646174613a206e6f207370656320757269732070726044820152651bdd9a59195960d21b606482015260840161062b565b7f2231d988b1a75dccab13dee3564b71a551900e822e94177a96f19561890c0fd582823360405161146593929190613184565b60405180910390a15050565b611479611f8b565b61013580546001600160a01b0319166001600160a01b0392909216919091179055565b600081815261013260205260409020546060906001600160a01b03166115045760405162461bcd60e51b815260206004820152601d60248201527f746f6b656e5552493a20746f6b656e20646f65736e2774206578697374000000604482015260640161062b565b600082815261013360205260409020805461151e90612f5e565b80601f016020809104026020016040519081016040528092919081815260200182805461154a90612f5e565b80156115975780601f1061156c57610100808354040283529160200191611597565b820191906000526020600020905b81548152906001019060200180831161157a57829003601f168201915b50505050509050919050565b6000818152610132602052604090205481906001600160a01b03166115da5760405162461bcd60e51b815260040161062b90612f92565b600082815261013260205260409020546001600160a01b031633146116415760405162461bcd60e51b815260206004820152601d60248201527f756e65717569703a2073656e646572206d757374206265206f776e6572000000604482015260640161062b565b610c5d82612133565b600054610100900460ff161580801561166a5750600054600160ff909116105b806116845750303b158015611684575060005460ff166001145b6116e75760405162461bcd60e51b815260206004820152602e60248201527f496e697469616c697a61626c653a20636f6e747261637420697320616c72656160448201526d191e481a5b9a5d1a585b1a5e995960921b606482015260840161062b565b6000805460ff19166001179055801561170a576000805461ff0019166101001790555b610130611718898b83613273565b50610131611727878983613273565b5061013580546001600160a01b0319166001600160a01b03841617905561174c6121de565b611754612205565b6117c789898080601f01602080910402602001604051908101604052809392919081815260200183838082843760009201919091525050604080516020601f8b01819004810282018101909252898152925089915088908190840183828082843760009201919091525061223492505050565b6117cf6121de565b6117d883611a40565b801561181e576000805461ff0019169055604051600181527f7f26b83ff96e1f2b6a682f133852f6798a09c465da95921460cefb38474024989060200160405180910390a15b505050505050505050565b60006113c37fe76a195fbe43f0eaa611595069f780493db2202a1cc4b2d7d44b47069812998a86868686604051611861929190613174565b6040519081900381206113a8949392916020019384526001600160a01b03928316602085015291166040830152606082015260800190565b60006001600160a01b03861633036118f35760405162461bcd60e51b815260206004820152601960248201527f676976653a2063616e6e6f74206769766520746f2073656c6600000000000000604482015260640161062b565b611901338787878787612037565b61013554604051633664a8e960e01b81526000916001600160a01b031690633664a8e99061193590899089906004016130dc565b602060405180830381865afa158015611952573d6000803e3d6000fd5b505050506040513d601f19601f820116820180604052508101906119769190613136565b6101355460405163b2a0cb6b60e01b81526004810183905291925033916001600160a01b039091169063b2a0cb6b90602401602060405180830381865afa1580156119c5573d6000803e3d6000fd5b505050506040513d601f19601f820116820180604052508101906119e9919061305f565b6001600160a01b031614611a345760405162461bcd60e51b815260206004820152601260248201527119da5d994e881d5b985d5d1a1bdc9a5e995960721b604482015260640161062b565b6112f787878784611dbb565b611a48611f8b565b6001600160a01b038116611aad5760405162461bcd60e51b815260206004820152602660248201527f4f776e61626c653a206e6577206f776e657220697320746865207a65726f206160448201526564647265737360d01b606482015260840161062b565b61073781611fe5565b610737611f8b565b7f4910fdfa16fed3260ed0e7147f7cc6da11a60208b5b9406d12a635614ffd91435460ff1615611af657611af183612265565b505050565b826001600160a01b03166352d1902d6040518163ffffffff1660e01b8152600401602060405180830381865afa925050508015611b50575060408051601f3d908101601f19168201909252611b4d91810190613136565b60015b611bb35760405162461bcd60e51b815260206004820152602e60248201527f45524331393637557067726164653a206e657720696d706c656d656e7461746960448201526d6f6e206973206e6f74205555505360901b606482015260840161062b565b6000805160206134358339815191528114611c225760405162461bcd60e51b815260206004820152602960248201527f45524331393637557067726164653a20756e737570706f727465642070726f786044820152681a58589b195555525160ba1b606482015260840161062b565b50611af1838383612301565b611c7a89611c3e8b8a8a88611339565b87878080601f01602080910402602001604051908101604052809392919081815260200183838082843760009201919091525061232c92505050565b611cda5760405162461bcd60e51b815260206004820152602b60248201527f73616665436865636b4d65726b6c6541677265656d656e743a20696e76616c6960448201526a64207369676e617475726560a81b606482015260840161062b565b6040516bffffffffffffffffffffffff1960608a901b166020820152600090603401604051602081830303815290604052805190602001209050611d5483838080602002602001604051908101604052809392919081815260200183836020028082843760009201919091525088925085915061246e9050565b611daf5760405162461bcd60e51b815260206004820152602660248201527f73616665436865636b4d65726b6c6541677265656d656e743a20696e76616c6960448201526532103632b0b360d11b606482015260840161062b565b50505050505050505050565b600081600003611e0d5760405162461bcd60e51b815260206004820152601c60248201527f6d696e743a2073706563206973206e6f74207265676973746572656400000000604482015260640161062b565b6000611e1a868686611302565b600081815261013260205260409020549091506001600160a01b031615611e7a5760405162461bcd60e51b81526020600482015260146024820152736d696e743a20746f6b656e49442065786973747360601b604482015260640161062b565b6001600160a01b038616600090815261013460205260408120805491611e9f83613349565b909155505060008181526101326020908152604080832080546001600160a01b0319166001600160a01b038b161790556101339091529020611ee2858783613273565b5060405181906001600160a01b038816906000907fddf252ad1be2c89b69c2b068fc378daa952ba7f163c4a11628f55a4df523b3ef908290a46101355460405163fb74926160e01b815260048101839052602481018590526001600160a01b039091169063fb74926190604401600060405180830381600087803b158015611f6957600080fd5b505af1158015611f7d573d6000803e3d6000fd5b509298975050505050505050565b60c9546001600160a01b03163314610e065760405162461bcd60e51b815260206004820181905260248201527f4f776e61626c653a2063616c6c6572206973206e6f7420746865206f776e6572604482015260640161062b565b60c980546001600160a01b038381166001600160a01b0319831681179093556040519116919082907f8be0079c531659141344cd1fd0a4f28419497f9722a3daafe3b4186f6b6457e090600090a35050565b6120838561204788888888611829565b84848080601f01602080910402602001604051908101604052809392919081815260200183838082843760009201919091525061232c92505050565b6120dd5760405162461bcd60e51b815260206004820152602560248201527f73616665436865636b41677265656d656e743a20696e76616c6964207369676e604482015264617475726560d81b606482015260840161062b565b505050505050565b600061055b6120f2612484565b8360405161190160f01b6020820152602281018390526042810182905260009060620160405160208183030381529060405280519060200120905092915050565b600081815261013260209081526040808320546001600160a01b031680845261013490925282208054919260019261216c908490613362565b909155505060008281526101326020908152604080832080546001600160a01b031916905561013390915281206121a2916128e4565b60405182906000906001600160a01b038416907fddf252ad1be2c89b69c2b068fc378daa952ba7f163c4a11628f55a4df523b3ef908390a45050565b600054610100900460ff16610e065760405162461bcd60e51b815260040161062b90613375565b600054610100900460ff1661222c5760405162461bcd60e51b815260040161062b90613375565b610e066124c0565b600054610100900460ff1661225b5760405162461bcd60e51b815260040161062b90613375565b610c5d82826124f0565b6001600160a01b0381163b6122d25760405162461bcd60e51b815260206004820152602d60248201527f455243313936373a206e657720696d706c656d656e746174696f6e206973206e60448201526c1bdd08184818dbdb9d1c9858dd609a1b606482015260840161062b565b60008051602061343583398151915280546001600160a01b0319166001600160a01b0392909216919091179055565b61230a83612531565b6000825111806123175750805b15611af1576123268383612571565b50505050565b600080600061233b8585612665565b90925090506000816004811115612354576123546133c0565b1480156123725750856001600160a01b0316826001600160a01b0316145b1561238257600192505050611332565b600080876001600160a01b0316631626ba7e60e01b88886040516024016123aa9291906133d6565b60408051601f198184030181529181526020820180516001600160e01b03166001600160e01b03199094169390931790925290516123e891906133ef565b600060405180830381855afa9150503d8060008114612423576040519150601f19603f3d011682016040523d82523d6000602084013e612428565b606091505b509150915081801561243b575080516020145b801561246257508051630b135d3f60e11b906124609083016020908101908401613136565b145b98975050505050505050565b60008261247b85846126d3565b14949350505050565b60006124bb7f8b73c3c69bb8fe3d512ecc4cf759cc79239f7b179b0ffacaa9a75d522b39400f6124b360fb5490565b60fc54612720565b905090565b600054610100900460ff166124e75760405162461bcd60e51b815260040161062b90613375565b610e0633611fe5565b600054610100900460ff166125175760405162461bcd60e51b815260040161062b90613375565b81516020928301208151919092012060fb9190915560fc55565b61253a81612265565b6040516001600160a01b038216907fbc7cd75a20ee27fd9adebab32041f755214dbc6bffa90cc0225b39da2e5c2d3b90600090a250565b60606001600160a01b0383163b6125d95760405162461bcd60e51b815260206004820152602660248201527f416464726573733a2064656c65676174652063616c6c20746f206e6f6e2d636f6044820152651b9d1c9858dd60d21b606482015260840161062b565b600080846001600160a01b0316846040516125f491906133ef565b600060405180830381855af49150503d806000811461262f576040519150601f19603f3d011682016040523d82523d6000602084013e612634565b606091505b509150915061265c82826040518060600160405280602781526020016134556027913961274f565b95945050505050565b600080825160410361269b5760208301516040840151606085015160001a61268f87828585612768565b945094505050506126cc565b82516040036126c457602083015160408401516126b9868383612855565b9350935050506126cc565b506000905060025b9250929050565b600081815b845181101561271857612704828683815181106126f7576126f761340b565b602002602001015161288e565b91508061271081613349565b9150506126d8565b509392505050565b6040805160208101859052908101839052606081018290524660808201523060a082015260009060c001611319565b6060831561275e575081611332565b61133283836128ba565b6000807f7fffffffffffffffffffffffffffffff5d576e7357a4501ddfe92f46681b20a083111561279f575060009050600361284c565b8460ff16601b141580156127b757508460ff16601c14155b156127c8575060009050600461284c565b6040805160008082526020820180845289905260ff881692820192909252606081018690526080810185905260019060a0016020604051602081039080840390855afa15801561281c573d6000803e3d6000fd5b5050604051601f1901519150506001600160a01b0381166128455760006001925092505061284c565b9150600090505b94509492505050565b6000806001600160ff1b0383168161287260ff86901c601b613421565b905061288087828885612768565b935093505050935093915050565b60008183106128aa576000828152602084905260409020611332565b5060009182526020526040902090565b8151156128ca5781518083602001fd5b8060405162461bcd60e51b815260040161062b91906129ac565b5080546128f090612f5e565b6000825580601f10612900575050565b601f01602090049060005260206000209081019061073791905b8082111561292e576000815560010161291a565b5090565b60006020828403121561294457600080fd5b81356001600160e01b03198116811461133257600080fd5b60005b8381101561297757818101518382015260200161295f565b50506000910152565b6000815180845261299881602086016020860161295c565b601f01601f19169290920160200192915050565b6020815260006113326020830184612980565b6000602082840312156129d157600080fd5b5035919050565b6001600160a01b038116811461073757600080fd5b6000602082840312156129ff57600080fd5b8135611332816129d8565b60008083601f840112612a1c57600080fd5b5081356001600160401b03811115612a3357600080fd5b6020830191508360208285010111156126cc57600080fd5b600080600060408486031215612a6057600080fd5b83356001600160401b03811115612a7657600080fd5b612a8286828701612a0a565b909790965060209590950135949350505050565b60008083601f840112612aa857600080fd5b5081356001600160401b03811115612abf57600080fd5b6020830191508360208260051b85010111156126cc57600080fd5b60008060008060008060008060a0898b031215612af657600080fd5b8835612b01816129d8565b975060208901356001600160401b0380821115612b1d57600080fd5b612b298c838d01612a0a565b909950975060408b0135915080821115612b4257600080fd5b612b4e8c838d01612a0a565b909750955060608b0135945060808b0135915080821115612b6e57600080fd5b50612b7b8b828c01612a96565b999c989b5096995094979396929594505050565b634e487b7160e01b600052604160045260246000fd5b60008060408385031215612bb857600080fd5b8235612bc3816129d8565b915060208301356001600160401b0380821115612bdf57600080fd5b818501915085601f830112612bf357600080fd5b813581811115612c0557612c05612b8f565b604051601f8201601f19908116603f01168101908382118183101715612c2d57612c2d612b8f565b81604052828152886020848701011115612c4657600080fd5b8260208601602083013760006020848301015280955050505050509250929050565b600080600060608486031215612c7d57600080fd5b8335925060208401359150604084013560ff81168114612c9c57600080fd5b809150509250925092565b60008060408385031215612cba57600080fd5b50508035926020909101359150565b600080600080600060608688031215612ce157600080fd5b8535612cec816129d8565b945060208601356001600160401b0380821115612d0857600080fd5b612d1489838a01612a0a565b90965094506040880135915080821115612d2d57600080fd5b50612d3a88828901612a0a565b969995985093965092949392505050565b600080600060408486031215612d6057600080fd5b8335612d6b816129d8565b925060208401356001600160401b03811115612d8657600080fd5b612d9286828701612a0a565b9497909650939450505050565b60008060008060608587031215612db557600080fd5b8435612dc0816129d8565b935060208501356001600160401b03811115612ddb57600080fd5b612de787828801612a0a565b9598909750949560400135949350505050565b60008060208385031215612e0d57600080fd5b82356001600160401b03811115612e2357600080fd5b612e2f85828601612a96565b90969095509350505050565b60008060008060008060008060a0898b031215612e5757600080fd5b88356001600160401b0380821115612e6e57600080fd5b612e7a8c838d01612a0a565b909a50985060208b0135915080821115612e9357600080fd5b612e9f8c838d01612a0a565b909850965060408b0135915080821115612eb857600080fd5b50612ec58b828c01612a0a565b9095509350506060890135612ed9816129d8565b91506080890135612ee9816129d8565b809150509295985092959890939650565b60008060008060608587031215612f1057600080fd5b8435612f1b816129d8565b93506020850135612f2b816129d8565b925060408501356001600160401b03811115612f4657600080fd5b612f5287828801612a0a565b95989497509550505050565b600181811c90821680612f7257607f821691505b60208210810361065557634e487b7160e01b600052602260045260246000fd5b6020808252818101527f746f6b656e4578697374733a20746f6b656e20646f65736e2774206578697374604082015260600190565b6020808252602c908201527f46756e6374696f6e206d7573742062652063616c6c6564207468726f7567682060408201526b19195b1959d85d1958d85b1b60a21b606082015260800190565b6020808252602c908201527f46756e6374696f6e206d7573742062652063616c6c6564207468726f7567682060408201526b6163746976652070726f787960a01b606082015260800190565b60006020828403121561307157600080fd5b8151611332816129d8565b6020808252601f908201527f73656e6465724973526166744f776e65723a20756e617574686f72697a656400604082015260600190565b81835281816020850137506000828201602090810191909152601f909101601f19169091010190565b6020815260006113c66020830184866130b3565b60006020828403121561310257600080fd5b8151801515811461133257600080fd5b6040815260006131266040830185876130b3565b9050826020830152949350505050565b60006020828403121561314857600080fd5b5051919050565b6001600160a01b03841681526040602082018190526000906113c390830184866130b3565b8183823760009101908152919050565b6040808252810183905260006060600585901b8301810190830186835b8781101561321457858403605f190183528135368a9003601e190181126131c757600080fd5b890160208181019135906001600160401b038211156131e557600080fd5b8136038313156131f457600080fd5b6131ff8783856130b3565b965094850194939093019250506001016131a1565b5050506001600160a01b038416602084015290506113c6565b601f821115611af157600081815260208120601f850160051c810160208610156132545750805b601f850160051c820191505b818110156120dd57828155600101613260565b6001600160401b0383111561328a5761328a612b8f565b61329e836132988354612f5e565b8361322d565b6000601f8411600181146132d257600085156132ba5750838201355b600019600387901b1c1916600186901b17835561332c565b600083815260209020601f19861690835b8281101561330357868501358255602094850194600190920191016132e3565b50868210156133205760001960f88860031b161c19848701351681555b505060018560011b0183555b5050505050565b634e487b7160e01b600052601160045260246000fd5b60006001820161335b5761335b613333565b5060010190565b8181038181111561055b5761055b613333565b6020808252602b908201527f496e697469616c697a61626c653a20636f6e7472616374206973206e6f74206960408201526a6e697469616c697a696e6760a81b606082015260800190565b634e487b7160e01b600052602160045260246000fd5b8281526040602082015260006113c66040830184612980565b6000825161340181846020870161295c565b9190910192915050565b634e487b7160e01b600052603260045260246000fd5b8082018082111561055b5761055b61333356fe360894a13ba1a3210667c828492db98dca3e2076cc3735a920a3ca505d382bbc416464726573733a206c6f772d6c6576656c2064656c65676174652063616c6c206661696c6564a264697066735822122069bd29fb85af7af8279192b01bea4a4568884259732d9ace4c882430813083c364736f6c63430008100033",
    "linkReferences": {}
  },
  "methodIdentifiers": {
    "balanceOf(address)": "70a08231",
    "createSpec(string,uint256)": "445a62b9",
    "getAgreementHash(address,address,string)": "e4992506",
    "getBadgeIdHash(address,string)": "a8cf8683",
    "getDataHolderAddress()": "635ad993",
    "getMerkleAgreementHash(address,string,bytes32)": "bd6645e4",
    "give(address,string,bytes)": "ec64948e",
    "initialize(string,string,string,address,address)": "d6d0faee",
    "isBadgeValid(uint256)": "0f4d9b01",
    "merkleTake(address,string,bytes,bytes32,bytes32[])": "4a086b53",
    "name()": "06fdde03",
    "owner()": "8da5cb5b",
    "ownerOf(uint256)": "6352211e",
    "proxiableUUID()": "52d1902d",
    "refreshMetadata(string[])": "bdbdbcbf",
    "reinstateBadge(uint256,uint256)": "80956c7e",
    "renounceOwnership()": "715018a6",
    "revokeBadge(uint256,uint256,uint8)": "7c402f8d",
    "setDataHolder(address)": "c0184112",
    "supportsInterface(bytes4)": "01ffc9a7",
    "symbol()": "95d89b41",
    "take(address,string,bytes)": "a3947803",
    "tokenURI(uint256)": "c87b56dd",
    "transferOwnership(address)": "f2fde38b",
    "unequip(uint256)": "d179e3d0",
    "upgradeTo(address)": "3659cfe6",
    "upgradeToAndCall(address,bytes)": "4f1ef286"
  },
  "id": 46
}