{
  "abi": [
    {
      "inputs": [],
      "stateMutability": "nonpayable",
      "type": "constructor"
    },
    {
      "anonymous": false,
      "inputs": [
        {
          "indexed": false,
          "internalType": "address",
          "name": "previousAdmin",
          "type": "address"
        },
        {
          "indexed": false,
          "internalType": "address",
          "name": "newAdmin",
          "type": "address"
        }
      ],
      "name": "AdminChanged",
      "type": "event"
    },
    {
      "anonymous": false,
      "inputs": [
        {
          "indexed": true,
          "internalType": "uint256",
          "name": "tokenId",
          "type": "uint256"
        },
        {
          "indexed": true,
          "internalType": "address",
          "name": "from",
          "type": "address"
        }
      ],
      "name": "BadgeReinstated",
      "type": "event"
    },
    {
      "anonymous": false,
      "inputs": [
        {
          "indexed": true,
          "internalType": "uint256",
          "name": "tokenId",
          "type": "uint256"
        },
        {
          "indexed": true,
          "internalType": "address",
          "name": "from",
          "type": "address"
        },
        {
          "indexed": true,
          "internalType": "uint8",
          "name": "reason",
          "type": "uint8"
        }
      ],
      "name": "BadgeRevoked",
      "type": "event"
    },
    {
      "anonymous": false,
      "inputs": [
        {
          "indexed": true,
          "internalType": "address",
          "name": "beacon",
          "type": "address"
        }
      ],
      "name": "BeaconUpgraded",
      "type": "event"
    },
    {
      "anonymous": false,
      "inputs": [
        {
          "indexed": false,
          "internalType": "uint8",
          "name": "version",
          "type": "uint8"
        }
      ],
      "name": "Initialized",
      "type": "event"
    },
    {
      "anonymous": false,
      "inputs": [
        {
          "indexed": true,
          "internalType": "address",
          "name": "previousOwner",
          "type": "address"
        },
        {
          "indexed": true,
          "internalType": "address",
          "name": "newOwner",
          "type": "address"
        }
      ],
      "name": "OwnershipTransferred",
      "type": "event"
    },
    {
      "anonymous": false,
      "inputs": [
        {
          "indexed": false,
          "internalType": "string[]",
          "name": "specUris",
          "type": "string[]"
        },
        {
          "indexed": false,
          "internalType": "address",
          "name": "sender",
          "type": "address"
        }
      ],
      "name": "RefreshMetadata",
      "type": "event"
    },
    {
      "anonymous": false,
      "inputs": [
        {
          "indexed": true,
          "internalType": "address",
          "name": "to",
          "type": "address"
        },
        {
          "indexed": false,
          "internalType": "string",
          "name": "specUri",
          "type": "string"
        },
        {
          "indexed": true,
          "internalType": "uint256",
          "name": "raftTokenId",
          "type": "uint256"
        },
        {
          "indexed": true,
          "internalType": "address",
          "name": "raftAddress",
          "type": "address"
        }
      ],
      "name": "SpecCreated",
      "type": "event"
    },
    {
      "anonymous": false,
      "inputs": [
        {
          "indexed": true,
          "internalType": "address",
          "name": "from",
          "type": "address"
        },
        {
          "indexed": true,
          "internalType": "address",
          "name": "to",
          "type": "address"
        },
        {
          "indexed": true,
          "internalType": "uint256",
          "name": "tokenId",
          "type": "uint256"
        }
      ],
      "name": "Transfer",
      "type": "event"
    },
    {
      "anonymous": false,
      "inputs": [
        {
          "indexed": true,
          "internalType": "address",
          "name": "implementation",
          "type": "address"
        }
      ],
      "name": "Upgraded",
      "type": "event"
    },
    {
      "inputs": [
        {
          "internalType": "address",
          "name": "_owner",
          "type": "address"
        }
      ],
      "name": "balanceOf",
      "outputs": [
        {
          "internalType": "uint256",
          "name": "",
          "type": "uint256"
        }
      ],
      "stateMutability": "view",
      "type": "function"
    },
    {
      "inputs": [
        {
          "internalType": "string",
          "name": "_specUri",
          "type": "string"
        },
        {
          "internalType": "uint256",
          "name": "_raftTokenId",
          "type": "uint256"
        }
      ],
      "name": "createSpec",
      "outputs": [],
      "stateMutability": "nonpayable",
      "type": "function"
    },
    {
      "inputs": [
        {
          "internalType": "address",
          "name": "_from",
          "type": "address"
        },
        {
          "internalType": "address",
          "name": "_to",
          "type": "address"
        },
        {
          "internalType": "string",
          "name": "_uri",
          "type": "string"
        }
      ],
      "name": "getAgreementHash",
      "outputs": [
        {
          "internalType": "bytes32",
          "name": "",
          "type": "bytes32"
        }
      ],
      "stateMutability": "view",
      "type": "function"
    },
    {
      "inputs": [
        {
          "internalType": "address",
          "name": "_to",
          "type": "address"
        },
        {
          "internalType": "string",
          "name": "_uri",
          "type": "string"
        }
      ],
      "name": "getBadgeIdHash",
      "outputs": [
        {
          "internalType": "bytes32",
          "name": "",
          "type": "bytes32"
        }
      ],
      "stateMutability": "view",
      "type": "function"
    },
    {
      "inputs": [],
      "name": "getDataHolderAddress",
      "outputs": [
        {
          "internalType": "address",
          "name": "",
          "type": "address"
        }
      ],
      "stateMutability": "view",
      "type": "function"
    },
    {
      "inputs": [
        {
          "internalType": "address",
          "name": "_issuer",
          "type": "address"
        },
        {
          "internalType": "string",
          "name": "_uri",
          "type": "string"
        },
        {
          "internalType": "bytes32",
          "name": "_root",
          "type": "bytes32"
        }
      ],
      "name": "getMerkleAgreementHash",
      "outputs": [
        {
          "internalType": "bytes32",
          "name": "",
          "type": "bytes32"
        }
      ],
      "stateMutability": "view",
      "type": "function"
    },
    {
      "inputs": [
        {
          "internalType": "address",
          "name": "_requester",
          "type": "address"
        },
        {
          "internalType": "string",
          "name": "_uri",
          "type": "string"
        }
      ],
      "name": "getRequestHash",
      "outputs": [
        {
          "internalType": "bytes32",
          "name": "",
          "type": "bytes32"
        }
      ],
      "stateMutability": "view",
      "type": "function"
    },
    {
      "inputs": [
        {
          "internalType": "address",
          "name": "_to",
          "type": "address"
        },
        {
          "internalType": "string",
          "name": "_uri",
          "type": "string"
        },
        {
          "internalType": "bytes",
          "name": "_signature",
          "type": "bytes"
        }
      ],
      "name": "give",
      "outputs": [
        {
          "internalType": "uint256",
          "name": "",
          "type": "uint256"
        }
      ],
      "stateMutability": "nonpayable",
      "type": "function"
    },
    {
      "inputs": [
        {
          "internalType": "address",
          "name": "_to",
          "type": "address"
        },
        {
          "internalType": "string",
          "name": "_uri",
          "type": "string"
        },
        {
          "internalType": "bytes",
          "name": "_signature",
          "type": "bytes"
        }
      ],
      "name": "giveRequestedBadge",
      "outputs": [
        {
          "internalType": "uint256",
          "name": "",
          "type": "uint256"
        }
      ],
      "stateMutability": "nonpayable",
      "type": "function"
    },
    {
      "inputs": [
        {
          "internalType": "address[]",
          "name": "_recipients",
          "type": "address[]"
        },
        {
          "internalType": "string",
          "name": "_uri",
          "type": "string"
        },
        {
          "internalType": "bytes[]",
          "name": "_signatures",
          "type": "bytes[]"
        }
      ],
      "name": "giveToMany",
      "outputs": [],
      "stateMutability": "nonpayable",
      "type": "function"
    },
    {
      "inputs": [
        {
          "internalType": "string",
          "name": "_name",
          "type": "string"
        },
        {
          "internalType": "string",
          "name": "_symbol",
          "type": "string"
        },
        {
          "internalType": "string",
          "name": "_version",
          "type": "string"
        },
        {
          "internalType": "address",
          "name": "_nextOwner",
          "type": "address"
        },
        {
          "internalType": "address",
          "name": "_specDataHolderAddress",
          "type": "address"
        }
      ],
      "name": "initialize",
      "outputs": [],
      "stateMutability": "nonpayable",
      "type": "function"
    },
    {
      "inputs": [
        {
          "internalType": "uint256",
          "name": "_badgeId",
          "type": "uint256"
        }
      ],
      "name": "isBadgeValid",
      "outputs": [
        {
          "internalType": "bool",
          "name": "",
          "type": "bool"
        }
      ],
      "stateMutability": "view",
      "type": "function"
    },
    {
      "inputs": [
        {
          "internalType": "address",
          "name": "_from",
          "type": "address"
        },
        {
          "internalType": "string",
          "name": "_uri",
          "type": "string"
        },
        {
          "internalType": "bytes",
          "name": "_signature",
          "type": "bytes"
        },
        {
          "internalType": "bytes32",
          "name": "root",
          "type": "bytes32"
        },
        {
          "internalType": "bytes32[]",
          "name": "proof",
          "type": "bytes32[]"
        }
      ],
      "name": "merkleTake",
      "outputs": [
        {
          "internalType": "uint256",
          "name": "",
          "type": "uint256"
        }
      ],
      "stateMutability": "nonpayable",
      "type": "function"
    },
    {
      "inputs": [],
      "name": "name",
      "outputs": [
        {
          "internalType": "string",
          "name": "",
          "type": "string"
        }
      ],
      "stateMutability": "view",
      "type": "function"
    },
    {
      "inputs": [],
      "name": "owner",
      "outputs": [
        {
          "internalType": "address",
          "name": "",
          "type": "address"
        }
      ],
      "stateMutability": "view",
      "type": "function"
    },
    {
      "inputs": [
        {
          "internalType": "uint256",
          "name": "_tokenId",
          "type": "uint256"
        }
      ],
      "name": "ownerOf",
      "outputs": [
        {
          "internalType": "address",
          "name": "",
          "type": "address"
        }
      ],
      "stateMutability": "view",
      "type": "function"
    },
    {
      "inputs": [],
      "name": "proxiableUUID",
      "outputs": [
        {
          "internalType": "bytes32",
          "name": "",
          "type": "bytes32"
        }
      ],
      "stateMutability": "view",
      "type": "function"
    },
    {
      "inputs": [
        {
          "internalType": "string[]",
          "name": "_specUris",
          "type": "string[]"
        }
      ],
      "name": "refreshMetadata",
      "outputs": [],
      "stateMutability": "nonpayable",
      "type": "function"
    },
    {
      "inputs": [
        {
          "internalType": "uint256",
          "name": "_raftTokenId",
          "type": "uint256"
        },
        {
          "internalType": "uint256",
          "name": "_badgeId",
          "type": "uint256"
        }
      ],
      "name": "reinstateBadge",
      "outputs": [],
      "stateMutability": "nonpayable",
      "type": "function"
    },
    {
      "inputs": [],
      "name": "renounceOwnership",
      "outputs": [],
      "stateMutability": "nonpayable",
      "type": "function"
    },
    {
      "inputs": [
        {
          "internalType": "uint256",
          "name": "_raftTokenId",
          "type": "uint256"
        },
        {
          "internalType": "uint256",
          "name": "_badgeId",
          "type": "uint256"
        },
        {
          "internalType": "uint8",
          "name": "_reason",
          "type": "uint8"
        }
      ],
      "name": "revokeBadge",
      "outputs": [],
      "stateMutability": "nonpayable",
      "type": "function"
    },
    {
      "inputs": [
        {
          "internalType": "address",
          "name": "_dataHolder",
          "type": "address"
        }
      ],
      "name": "setDataHolder",
      "outputs": [],
      "stateMutability": "nonpayable",
      "type": "function"
    },
    {
      "inputs": [
        {
          "internalType": "bytes4",
          "name": "_interfaceId",
          "type": "bytes4"
        }
      ],
      "name": "supportsInterface",
      "outputs": [
        {
          "internalType": "bool",
          "name": "",
          "type": "bool"
        }
      ],
      "stateMutability": "view",
      "type": "function"
    },
    {
      "inputs": [],
      "name": "symbol",
      "outputs": [
        {
          "internalType": "string",
          "name": "",
          "type": "string"
        }
      ],
      "stateMutability": "view",
      "type": "function"
    },
    {
      "inputs": [
        {
          "internalType": "address",
          "name": "_from",
          "type": "address"
        },
        {
          "internalType": "string",
          "name": "_uri",
          "type": "string"
        },
        {
          "internalType": "bytes",
          "name": "_signature",
          "type": "bytes"
        }
      ],
      "name": "take",
      "outputs": [
        {
          "internalType": "uint256",
          "name": "",
          "type": "uint256"
        }
      ],
      "stateMutability": "nonpayable",
      "type": "function"
    },
    {
      "inputs": [
        {
          "internalType": "uint256",
          "name": "_tokenId",
          "type": "uint256"
        }
      ],
      "name": "tokenURI",
      "outputs": [
        {
          "internalType": "string",
          "name": "",
          "type": "string"
        }
      ],
      "stateMutability": "view",
      "type": "function"
    },
    {
      "inputs": [
        {
          "internalType": "address",
          "name": "newOwner",
          "type": "address"
        }
      ],
      "name": "transferOwnership",
      "outputs": [],
      "stateMutability": "nonpayable",
      "type": "function"
    },
    {
      "inputs": [
        {
          "internalType": "uint256",
          "name": "_tokenId",
          "type": "uint256"
        }
      ],
      "name": "unequip",
      "outputs": [],
      "stateMutability": "nonpayable",
      "type": "function"
    },
    {
      "inputs": [
        {
          "internalType": "address",
          "name": "newImplementation",
          "type": "address"
        }
      ],
      "name": "upgradeTo",
      "outputs": [],
      "stateMutability": "nonpayable",
      "type": "function"
    },
    {
      "inputs": [
        {
          "internalType": "address",
          "name": "newImplementation",
          "type": "address"
        },
        {
          "internalType": "bytes",
          "name": "data",
          "type": "bytes"
        }
      ],
      "name": "upgradeToAndCall",
      "outputs": [],
      "stateMutability": "payable",
      "type": "function"
    }
  ],
  "bytecode": {
    "object": "0x60a0604052306080523480156200001557600080fd5b506200002062000026565b620000e8565b600054610100900460ff1615620000935760405162461bcd60e51b815260206004820152602760248201527f496e697469616c697a61626c653a20636f6e747261637420697320696e697469604482015266616c697a696e6760c81b606482015260840160405180910390fd5b60005460ff9081161015620000e6576000805460ff191660ff9081179091556040519081527f7f26b83ff96e1f2b6a682f133852f6798a09c465da95921460cefb38474024989060200160405180910390a15b565b60805161399b62000120600039600081816108ed0152818161092d01528181610df201528181610e320152610ec5015261399b6000f3fe6080604052600436106101cd5760003560e01c80638339a133116100f7578063bdbdbcbf11610095578063d6d0faee11610064578063d6d0faee14610520578063e499250614610540578063ec64948e14610560578063f2fde38b1461058057600080fd5b8063bdbdbcbf146104a0578063c0184112146104c0578063c87b56dd146104e0578063d179e3d01461050057600080fd5b8063a32c9c7a116100d1578063a32c9c7a14610420578063a394780314610440578063a8cf868314610460578063bd6645e41461048057600080fd5b80638339a133146103cd5780638da5cb5b146103ed57806395d89b411461040b57600080fd5b80634f1ef2861161016f57806370a082311161013e57806370a0823114610358578063715018a6146103785780637c402f8d1461038d57806380956c7e146103ad57600080fd5b80634f1ef286146102d957806352d1902d146102ec5780636352211e14610301578063635ad9931461033957600080fd5b80631766c038116101ab5780631766c038146102495780633659cfe614610277578063445a62b9146102995780634a086b53146102b957600080fd5b806301ffc9a7146101d257806306fdde03146102075780630f4d9b0114610229575b600080fd5b3480156101de57600080fd5b506101f26101ed366004612d74565b6105a0565b60405190151581526020015b60405180910390f35b34801561021357600080fd5b5061021c6105f2565b6040516101fe9190612dee565b34801561023557600080fd5b506101f2610244366004612e01565b610685565b34801561025557600080fd5b50610269610264366004612e70565b6106ec565b6040519081526020016101fe565b34801561028357600080fd5b50610297610292366004612ef2565b6108e3565b005b3480156102a557600080fd5b506102976102b4366004612f0f565b6109c2565b3480156102c557600080fd5b506102696102d4366004612f9e565b610c80565b6102976102e7366004613069565b610de8565b3480156102f857600080fd5b50610269610eb8565b34801561030d57600080fd5b5061032161031c366004612e01565b610f6b565b6040516001600160a01b0390911681526020016101fe565b34801561034557600080fd5b50610135546001600160a01b0316610321565b34801561036457600080fd5b50610269610373366004612ef2565b610fc0565b34801561038457600080fd5b50610297611048565b34801561039957600080fd5b506102976103a836600461312c565b61105c565b3480156103b957600080fd5b506102976103c836600461316b565b611220565b3480156103d957600080fd5b506102696103e836600461318d565b6113da565b3480156103f957600080fd5b5060c9546001600160a01b0316610321565b34801561041757600080fd5b5061021c611467565b34801561042c57600080fd5b5061029761043b3660046131e1565b611477565b34801561044c57600080fd5b5061026961045b366004612e70565b6116a0565b34801561046c57600080fd5b5061026961047b36600461318d565b6117f7565b34801561048c57600080fd5b5061026961049b36600461327a565b61182d565b3480156104ac57600080fd5b506102976104bb3660046132d5565b6118a7565b3480156104cc57600080fd5b506102976104db366004612ef2565b61194a565b3480156104ec57600080fd5b5061021c6104fb366004612e01565b611975565b34801561050c57600080fd5b5061029761051b366004612e01565b611a7c565b34801561052c57600080fd5b5061029761053b366004613316565b611b23565b34801561054c57600080fd5b5061026961055b3660046133d5565b611d02565b34801561056c57600080fd5b5061026961057b366004612e70565b611d72565b34801561058c57600080fd5b5061029761059b366004612ef2565b611eb7565b60006001600160e01b03198216635b5e139f60e01b14806105d157506001600160e01b031982166346bdd63960e11b145b806105ec57506301ffc9a760e01b6001600160e01b03198316145b92915050565b6060610130805461060290613439565b80601f016020809104026020016040519081016040528092919081815260200182805461062e90613439565b801561067b5780601f106106505761010080835404028352916020019161067b565b820191906000526020600020905b81548152906001019060200180831161065e57829003601f168201915b5050505050905090565b6000818152610132602052604081205482906001600160a01b03166106c55760405162461bcd60e51b81526004016106bc9061346d565b60405180910390fd5b600883901c60009081526101376020526040902054600160ff85161b161591505b50919050565b61013554604051633664a8e960e01b815260009182916001600160a01b0390911690633664a8e99061072490899089906004016134cb565b602060405180830381865afa158015610741573d6000803e3d6000fd5b505050506040513d601f19601f8201168201806040525081019061076591906134df565b90506107b2876107768989896113da565b86868080601f016020809104026020016040519081016040528093929190818152602001838380828437600092019190915250611f2d92505050565b61080c5760405162461bcd60e51b815260206004820152602560248201527f6769766552657175657374656442616467653a20696e76616c6964207369676e604482015264617475726560d81b60648201526084016106bc565b6101355460405163e3ee9c4d60e01b8152600481018390523360248201526001600160a01b039091169063e3ee9c4d90604401602060405180830381865afa15801561085c573d6000803e3d6000fd5b505050506040513d601f19601f8201168201806040525081019061088091906134f8565b6108cc5760405162461bcd60e51b815260206004820181905260248201527f6769766552657175657374656442616467653a20756e617574686f72697a656460448201526064016106bc565b6108d88787878461206f565b979650505050505050565b6001600160a01b037f000000000000000000000000000000000000000000000000000000000000000016300361092b5760405162461bcd60e51b81526004016106bc9061351a565b7f00000000000000000000000000000000000000000000000000000000000000006001600160a01b031661097460008051602061391f833981519152546001600160a01b031690565b6001600160a01b03161461099a5760405162461bcd60e51b81526004016106bc90613566565b6109a3816121ee565b604080516000808252602082019092526109bf918391906121f6565b50565b6101355460405163e3ee9c4d60e01b8152600481018390523360248201526001600160a01b039091169063e3ee9c4d90604401602060405180830381865afa158015610a12573d6000803e3d6000fd5b505050506040513d601f19601f82011682018060405250810190610a3691906134f8565b610a825760405162461bcd60e51b815260206004820152601860248201527f637265617465537065633a20756e617574686f72697a6564000000000000000060448201526064016106bc565b61013554604051637e07102760e11b81526001600160a01b039091169063fc0e204e90610ab590869086906004016134cb565b602060405180830381865afa158015610ad2573d6000803e3d6000fd5b505050506040513d601f19601f82011682018060405250810190610af691906134f8565b15610b4f5760405162461bcd60e51b815260206004820152602360248201527f637265617465537065633a207370656320616c726561647920726567697374656044820152621c995960ea1b60648201526084016106bc565b6101355460405163addd190760e01b81526001600160a01b039091169063addd190790610b84908690869086906004016135b2565b600060405180830381600087803b158015610b9e57600080fd5b505af1158015610bb2573d6000803e3d6000fd5b5050505061013560009054906101000a90046001600160a01b03166001600160a01b03166334f876626040518163ffffffff1660e01b8152600401602060405180830381865afa158015610c0a573d6000803e3d6000fd5b505050506040513d601f19601f82011682018060405250810190610c2e91906135d6565b6001600160a01b031681336001600160a01b03167f68c7f8503283c455a4445b54a7d5c40656c8cae5cca0583c6d4be836984787008686604051610c739291906134cb565b60405180910390a4505050565b6000610c9389338a8a8a8a8a8a8a612366565b61013554604051633664a8e960e01b81526000916001600160a01b031690633664a8e990610cc7908c908c906004016134cb565b602060405180830381865afa158015610ce4573d6000803e3d6000fd5b505050506040513d601f19601f82011682018060405250810190610d0891906134df565b6101355460405163b2a0cb6b60e01b8152600481018390529192506001600160a01b038c81169291169063b2a0cb6b90602401602060405180830381865afa158015610d58573d6000803e3d6000fd5b505050506040513d601f19601f82011682018060405250810190610d7c91906135d6565b6001600160a01b031614610dce5760405162461bcd60e51b81526020600482015260196024820152783a30b5b29d103ab730baba3437b934bd32b21034b9b9bab2b960391b60448201526064016106bc565b610dda338a8a8461206f565b9a9950505050505050505050565b6001600160a01b037f0000000000000000000000000000000000000000000000000000000000000000163003610e305760405162461bcd60e51b81526004016106bc9061351a565b7f00000000000000000000000000000000000000000000000000000000000000006001600160a01b0316610e7960008051602061391f833981519152546001600160a01b031690565b6001600160a01b031614610e9f5760405162461bcd60e51b81526004016106bc90613566565b610ea8826121ee565b610eb4828260016121f6565b5050565b6000306001600160a01b037f00000000000000000000000000000000000000000000000000000000000000001614610f585760405162461bcd60e51b815260206004820152603860248201527f555550535570677261646561626c653a206d757374206e6f742062652063616c60448201527f6c6564207468726f7567682064656c656761746563616c6c000000000000000060648201526084016106bc565b5060008051602061391f83398151915290565b6000818152610132602052604081205482906001600160a01b0316610fa25760405162461bcd60e51b81526004016106bc9061346d565b5050600090815261013260205260409020546001600160a01b031690565b60006001600160a01b03821661102b5760405162461bcd60e51b815260206004820152602a60248201527f62616c616e63654f663a2061646472657373283029206973206e6f742061207660448201526930b634b21037bbb732b960b11b60648201526084016106bc565b506001600160a01b03166000908152610134602052604090205490565b6110506124f3565b61105a600061254d565b565b6000828152610132602052604090205482906001600160a01b03166110935760405162461bcd60e51b81526004016106bc9061346d565b6101355460405163e3ee9c4d60e01b8152600481018690523360248201526001600160a01b039091169063e3ee9c4d90604401602060405180830381865afa1580156110e3573d6000803e3d6000fd5b505050506040513d601f19601f8201168201806040525081019061110791906134f8565b6111535760405162461bcd60e51b815260206004820152601960248201527f7265766f6b6542616467653a20756e617574686f72697a65640000000000000060448201526064016106bc565b600883901c60009081526101376020526040902054600160ff85161b16156111c85760405162461bcd60e51b815260206004820152602260248201527f7265766f6b6542616467653a20626164676520616c7265616479207265766f6b604482015261195960f21b60648201526084016106bc565b600883901c6000908152610137602052604090208054600160ff86161b17905560405160ff831690339085907ffa784c48260e8db512de5f055a2f29eced211a7b3bd6338058b095ada7354cee90600090a450505050565b6000818152610132602052604090205481906001600160a01b03166112575760405162461bcd60e51b81526004016106bc9061346d565b6101355460405163e3ee9c4d60e01b8152600481018590523360248201526001600160a01b039091169063e3ee9c4d90604401602060405180830381865afa1580156112a7573d6000803e3d6000fd5b505050506040513d601f19601f820116820180604052508101906112cb91906134f8565b6113175760405162461bcd60e51b815260206004820152601c60248201527f7265696e737461746542616467653a20756e617574686f72697a65640000000060448201526064016106bc565b600882901c60009081526101376020526040902054600160ff84161b1661138a5760405162461bcd60e51b815260206004820152602160248201527f7265696e737461746542616467653a206261646765206e6f74207265766f6b656044820152601960fa1b60648201526084016106bc565b600882901c600090815261013760205260408082208054600160ff87161b1916905551339184917f7f8cf9ecf2a5225948f8a1601709cedc8471c52ee75a8174c9845c29c99ed9a29190a3505050565b600061145d7fa1cd8d39eb877323a4bcf08188675058ee9a4534d4c79021300b3722aeda505d8585856040516114119291906135f3565b6040519081900381206114429392916020019283526001600160a01b03919091166020830152604082015260600190565b6040516020818303038152906040528051906020012061259f565b90505b9392505050565b6060610131805461060290613439565b8481146114e45760405162461bcd60e51b815260206004820152603560248201527f67697665546f4d616e793a20726563697069656e747320616e64207369676e616044820152740e8eae4cae640d8cadccee8d040dad2e6dac2e8c6d605b1b60648201526084016106bc565b61013554604051633664a8e960e01b81526000916001600160a01b031690633664a8e99061151890889088906004016134cb565b602060405180830381865afa158015611535573d6000803e3d6000fd5b505050506040513d601f19601f8201168201806040525081019061155991906134df565b6101355460405163b2a0cb6b60e01b81526004810183905291925033916001600160a01b039091169063b2a0cb6b90602401602060405180830381865afa1580156115a8573d6000803e3d6000fd5b505050506040513d601f19601f820116820180604052508101906115cc91906135d6565b6001600160a01b0316146116225760405162461bcd60e51b815260206004820152601860248201527f67697665546f4d616e793a20756e617574686f72697a6564000000000000000060448201526064016106bc565b60005b868110156116965761168388888381811061164257611642613603565b90506020020160208101906116579190612ef2565b878787878681811061166b5761166b613603565b905060200281019061167d9190613619565b876125ed565b508061168e81613675565b915050611625565b5050505050505050565b60006116b0338787878787612609565b61013554604051633664a8e960e01b81526000916001600160a01b031690633664a8e9906116e490899089906004016134cb565b602060405180830381865afa158015611701573d6000803e3d6000fd5b505050506040513d601f19601f8201168201806040525081019061172591906134df565b6101355460405163b2a0cb6b60e01b8152600481018390529192506001600160a01b038981169291169063b2a0cb6b90602401602060405180830381865afa158015611775573d6000803e3d6000fd5b505050506040513d601f19601f8201168201806040525081019061179991906135d6565b6001600160a01b0316146117eb5760405162461bcd60e51b81526020600482015260196024820152783a30b5b29d103ab730baba3437b934bd32b21034b9b9bab2b960391b60448201526064016106bc565b6108d83387878461206f565b600083838360405160200161180e9392919061368e565b6040516020818303038152906040528051906020012090509392505050565b600061189c7f6d0d990916a9f9c9e0896e59ce7f5ddddff333d0c8772438ce004fa7719b164b8686866040516118649291906135f3565b60405190819003812061144293929187906020019384526001600160a01b039290921660208401526040830152606082015260800190565b90505b949350505050565b6118af6124f3565b8061190b5760405162461bcd60e51b815260206004820152602660248201527f726566726573684d657461646174613a206e6f207370656320757269732070726044820152651bdd9a59195960d21b60648201526084016106bc565b7f2231d988b1a75dccab13dee3564b71a551900e822e94177a96f19561890c0fd582823360405161193e939291906136b3565b60405180910390a15050565b6119526124f3565b61013580546001600160a01b0319166001600160a01b0392909216919091179055565b600081815261013260205260409020546060906001600160a01b03166119dd5760405162461bcd60e51b815260206004820152601d60248201527f746f6b656e5552493a20746f6b656e20646f65736e277420657869737400000060448201526064016106bc565b60008281526101336020526040902080546119f790613439565b80601f0160208091040260200160405190810160405280929190818152602001828054611a2390613439565b8015611a705780601f10611a4557610100808354040283529160200191611a70565b820191906000526020600020905b815481529060010190602001808311611a5357829003601f168201915b50505050509050919050565b6000818152610132602052604090205481906001600160a01b0316611ab35760405162461bcd60e51b81526004016106bc9061346d565b600082815261013260205260409020546001600160a01b03163314611b1a5760405162461bcd60e51b815260206004820152601d60248201527f756e65717569703a2073656e646572206d757374206265206f776e657200000060448201526064016106bc565b610eb4826126b7565b600054610100900460ff1615808015611b435750600054600160ff909116105b80611b5d5750303b158015611b5d575060005460ff166001145b611bc05760405162461bcd60e51b815260206004820152602e60248201527f496e697469616c697a61626c653a20636f6e747261637420697320616c72656160448201526d191e481a5b9a5d1a585b1a5e995960921b60648201526084016106bc565b6000805460ff191660011790558015611be3576000805461ff0019166101001790555b610130611bf1898b836137a2565b50610131611c008789836137a2565b5061013580546001600160a01b0319166001600160a01b038416179055611c25612762565b611c2d612789565b611ca089898080601f01602080910402602001604051908101604052809392919081815260200183838082843760009201919091525050604080516020601f8b0181900481028201810190925289815292508991508890819084018382808284376000920191909152506127b892505050565b611ca8612762565b611cb183611eb7565b8015611cf7576000805461ff0019169055604051600181527f7f26b83ff96e1f2b6a682f133852f6798a09c465da95921460cefb38474024989060200160405180910390a15b505050505050505050565b600061189c7fe76a195fbe43f0eaa611595069f780493db2202a1cc4b2d7d44b47069812998a86868686604051611d3a9291906135f3565b604051908190038120611442949392916020019384526001600160a01b03928316602085015291166040830152606082015260800190565b61013554604051633664a8e960e01b815260009182916001600160a01b0390911690633664a8e990611daa90899089906004016134cb565b602060405180830381865afa158015611dc7573d6000803e3d6000fd5b505050506040513d601f19601f82011682018060405250810190611deb91906134df565b6101355460405163b2a0cb6b60e01b81526004810183905291925033916001600160a01b039091169063b2a0cb6b90602401602060405180830381865afa158015611e3a573d6000803e3d6000fd5b505050506040513d601f19601f82011682018060405250810190611e5e91906135d6565b6001600160a01b031614611ea95760405162461bcd60e51b815260206004820152601260248201527119da5d994e881d5b985d5d1a1bdc9a5e995960721b60448201526064016106bc565b6108d88787878787866125ed565b611ebf6124f3565b6001600160a01b038116611f245760405162461bcd60e51b815260206004820152602660248201527f4f776e61626c653a206e6577206f776e657220697320746865207a65726f206160448201526564647265737360d01b60648201526084016106bc565b6109bf8161254d565b6000806000611f3c85856127e9565b90925090506000816004811115611f5557611f55613862565b148015611f735750856001600160a01b0316826001600160a01b0316145b15611f8357600192505050611460565b600080876001600160a01b0316631626ba7e60e01b8888604051602401611fab929190613878565b60408051601f198184030181529181526020820180516001600160e01b03166001600160e01b0319909416939093179092529051611fe99190613891565b600060405180830381855afa9150503d8060008114612024576040519150601f19603f3d011682016040523d82523d6000602084013e612029565b606091505b509150915081801561203c575080516020145b801561206357508051630b135d3f60e11b9061206190830160209081019084016134df565b145b98975050505050505050565b60008061207d8686866117f7565b600081815261013260205260409020549091506001600160a01b0316156120dd5760405162461bcd60e51b81526020600482015260146024820152736d696e743a20746f6b656e49442065786973747360601b60448201526064016106bc565b6001600160a01b03861660009081526101346020526040812080549161210283613675565b909155505060008181526101326020908152604080832080546001600160a01b0319166001600160a01b038b1617905561013390915290206121458587836137a2565b5060405181906001600160a01b038816906000907fddf252ad1be2c89b69c2b068fc378daa952ba7f163c4a11628f55a4df523b3ef908290a46101355460405163fb74926160e01b815260048101839052602481018590526001600160a01b039091169063fb74926190604401600060405180830381600087803b1580156121cc57600080fd5b505af11580156121e0573d6000803e3d6000fd5b509298975050505050505050565b6109bf6124f3565b7f4910fdfa16fed3260ed0e7147f7cc6da11a60208b5b9406d12a635614ffd91435460ff161561222e5761222983612857565b505050565b826001600160a01b03166352d1902d6040518163ffffffff1660e01b8152600401602060405180830381865afa925050508015612288575060408051601f3d908101601f19168201909252612285918101906134df565b60015b6122eb5760405162461bcd60e51b815260206004820152602e60248201527f45524331393637557067726164653a206e657720696d706c656d656e7461746960448201526d6f6e206973206e6f74205555505360901b60648201526084016106bc565b60008051602061391f833981519152811461235a5760405162461bcd60e51b815260206004820152602960248201527f45524331393637557067726164653a20756e737570706f727465642070726f786044820152681a58589b195555525160ba1b60648201526084016106bc565b506122298383836128f3565b6123b2896123768b8a8a8861182d565b87878080601f016020809104026020016040519081016040528093929190818152602001838380828437600092019190915250611f2d92505050565b6124125760405162461bcd60e51b815260206004820152602b60248201527f73616665436865636b4d65726b6c6541677265656d656e743a20696e76616c6960448201526a64207369676e617475726560a81b60648201526084016106bc565b6040516bffffffffffffffffffffffff1960608a901b16602082015260009060340160405160208183030381529060405280519060200120905061248c83838080602002602001604051908101604052809392919081815260200183836020028082843760009201919091525088925085915061291e9050565b6124e75760405162461bcd60e51b815260206004820152602660248201527f73616665436865636b4d65726b6c6541677265656d656e743a20696e76616c6960448201526532103632b0b360d11b60648201526084016106bc565b50505050505050505050565b60c9546001600160a01b0316331461105a5760405162461bcd60e51b815260206004820181905260248201527f4f776e61626c653a2063616c6c6572206973206e6f7420746865206f776e657260448201526064016106bc565b60c980546001600160a01b038381166001600160a01b0319831681179093556040519116919082907f8be0079c531659141344cd1fd0a4f28419497f9722a3daafe3b4186f6b6457e090600090a35050565b60006105ec6125ac612934565b8360405161190160f01b6020820152602281018390526042810182905260009060620160405160208183030381529060405280519060200120905092915050565b60006125fd338888888888612609565b6108d88787878561206f565b6126558561261988888888611d02565b84848080601f016020809104026020016040519081016040528093929190818152602001838380828437600092019190915250611f2d92505050565b6126af5760405162461bcd60e51b815260206004820152602560248201527f73616665436865636b41677265656d656e743a20696e76616c6964207369676e604482015264617475726560d81b60648201526084016106bc565b505050505050565b600081815261013260209081526040808320546001600160a01b03168084526101349092528220805491926001926126f09084906138ad565b909155505060008281526101326020908152604080832080546001600160a01b0319169055610133909152812061272691612d26565b60405182906000906001600160a01b038416907fddf252ad1be2c89b69c2b068fc378daa952ba7f163c4a11628f55a4df523b3ef908390a45050565b600054610100900460ff1661105a5760405162461bcd60e51b81526004016106bc906138c0565b600054610100900460ff166127b05760405162461bcd60e51b81526004016106bc906138c0565b61105a612970565b600054610100900460ff166127df5760405162461bcd60e51b81526004016106bc906138c0565b610eb482826129a0565b600080825160410361281f5760208301516040840151606085015160001a612813878285856129e1565b94509450505050612850565b8251604003612848576020830151604084015161283d868383612ace565b935093505050612850565b506000905060025b9250929050565b6001600160a01b0381163b6128c45760405162461bcd60e51b815260206004820152602d60248201527f455243313936373a206e657720696d706c656d656e746174696f6e206973206e60448201526c1bdd08184818dbdb9d1c9858dd609a1b60648201526084016106bc565b60008051602061391f83398151915280546001600160a01b0319166001600160a01b0392909216919091179055565b6128fc83612b07565b6000825111806129095750805b15612229576129188383612b47565b50505050565b60008261292b8584612c3b565b14949350505050565b600061296b7f8b73c3c69bb8fe3d512ecc4cf759cc79239f7b179b0ffacaa9a75d522b39400f61296360fb5490565b60fc54612c88565b905090565b600054610100900460ff166129975760405162461bcd60e51b81526004016106bc906138c0565b61105a3361254d565b600054610100900460ff166129c75760405162461bcd60e51b81526004016106bc906138c0565b81516020928301208151919092012060fb9190915560fc55565b6000807f7fffffffffffffffffffffffffffffff5d576e7357a4501ddfe92f46681b20a0831115612a185750600090506003612ac5565b8460ff16601b14158015612a3057508460ff16601c14155b15612a415750600090506004612ac5565b6040805160008082526020820180845289905260ff881692820192909252606081018690526080810185905260019060a0016020604051602081039080840390855afa158015612a95573d6000803e3d6000fd5b5050604051601f1901519150506001600160a01b038116612abe57600060019250925050612ac5565b9150600090505b94509492505050565b6000806001600160ff1b03831681612aeb60ff86901c601b61390b565b9050612af9878288856129e1565b935093505050935093915050565b612b1081612857565b6040516001600160a01b038216907fbc7cd75a20ee27fd9adebab32041f755214dbc6bffa90cc0225b39da2e5c2d3b90600090a250565b60606001600160a01b0383163b612baf5760405162461bcd60e51b815260206004820152602660248201527f416464726573733a2064656c65676174652063616c6c20746f206e6f6e2d636f6044820152651b9d1c9858dd60d21b60648201526084016106bc565b600080846001600160a01b031684604051612bca9190613891565b600060405180830381855af49150503d8060008114612c05576040519150601f19603f3d011682016040523d82523d6000602084013e612c0a565b606091505b5091509150612c32828260405180606001604052806027815260200161393f60279139612cb7565b95945050505050565b600081815b8451811015612c8057612c6c82868381518110612c5f57612c5f613603565b6020026020010151612cd0565b915080612c7881613675565b915050612c40565b509392505050565b6040805160208101859052908101839052606081018290524660808201523060a082015260009060c00161180e565b60608315612cc6575081611460565b6114608383612cfc565b6000818310612cec576000828152602084905260409020611460565b5060009182526020526040902090565b815115612d0c5781518083602001fd5b8060405162461bcd60e51b81526004016106bc9190612dee565b508054612d3290613439565b6000825580601f10612d42575050565b601f0160209004906000526020600020908101906109bf91905b80821115612d705760008155600101612d5c565b5090565b600060208284031215612d8657600080fd5b81356001600160e01b03198116811461146057600080fd5b60005b83811015612db9578181015183820152602001612da1565b50506000910152565b60008151808452612dda816020860160208601612d9e565b601f01601f19169290920160200192915050565b6020815260006114606020830184612dc2565b600060208284031215612e1357600080fd5b5035919050565b6001600160a01b03811681146109bf57600080fd5b60008083601f840112612e4157600080fd5b5081356001600160401b03811115612e5857600080fd5b60208301915083602082850101111561285057600080fd5b600080600080600060608688031215612e8857600080fd5b8535612e9381612e1a565b945060208601356001600160401b0380821115612eaf57600080fd5b612ebb89838a01612e2f565b90965094506040880135915080821115612ed457600080fd5b50612ee188828901612e2f565b969995985093965092949392505050565b600060208284031215612f0457600080fd5b813561146081612e1a565b600080600060408486031215612f2457600080fd5b83356001600160401b03811115612f3a57600080fd5b612f4686828701612e2f565b909790965060209590950135949350505050565b60008083601f840112612f6c57600080fd5b5081356001600160401b03811115612f8357600080fd5b6020830191508360208260051b850101111561285057600080fd5b60008060008060008060008060a0898b031215612fba57600080fd5b8835612fc581612e1a565b975060208901356001600160401b0380821115612fe157600080fd5b612fed8c838d01612e2f565b909950975060408b013591508082111561300657600080fd5b6130128c838d01612e2f565b909750955060608b0135945060808b013591508082111561303257600080fd5b5061303f8b828c01612f5a565b999c989b5096995094979396929594505050565b634e487b7160e01b600052604160045260246000fd5b6000806040838503121561307c57600080fd5b823561308781612e1a565b915060208301356001600160401b03808211156130a357600080fd5b818501915085601f8301126130b757600080fd5b8135818111156130c9576130c9613053565b604051601f8201601f19908116603f011681019083821181831017156130f1576130f1613053565b8160405282815288602084870101111561310a57600080fd5b8260208601602083013760006020848301015280955050505050509250929050565b60008060006060848603121561314157600080fd5b8335925060208401359150604084013560ff8116811461316057600080fd5b809150509250925092565b6000806040838503121561317e57600080fd5b50508035926020909101359150565b6000806000604084860312156131a257600080fd5b83356131ad81612e1a565b925060208401356001600160401b038111156131c857600080fd5b6131d486828701612e2f565b9497909650939450505050565b600080600080600080606087890312156131fa57600080fd5b86356001600160401b038082111561321157600080fd5b61321d8a838b01612f5a565b9098509650602089013591508082111561323657600080fd5b6132428a838b01612e2f565b9096509450604089013591508082111561325b57600080fd5b5061326889828a01612f5a565b979a9699509497509295939492505050565b6000806000806060858703121561329057600080fd5b843561329b81612e1a565b935060208501356001600160401b038111156132b657600080fd5b6132c287828801612e2f565b9598909750949560400135949350505050565b600080602083850312156132e857600080fd5b82356001600160401b038111156132fe57600080fd5b61330a85828601612f5a565b90969095509350505050565b60008060008060008060008060a0898b03121561333257600080fd5b88356001600160401b038082111561334957600080fd5b6133558c838d01612e2f565b909a50985060208b013591508082111561336e57600080fd5b61337a8c838d01612e2f565b909850965060408b013591508082111561339357600080fd5b506133a08b828c01612e2f565b90955093505060608901356133b481612e1a565b915060808901356133c481612e1a565b809150509295985092959890939650565b600080600080606085870312156133eb57600080fd5b84356133f681612e1a565b9350602085013561340681612e1a565b925060408501356001600160401b0381111561342157600080fd5b61342d87828801612e2f565b95989497509550505050565b600181811c9082168061344d57607f821691505b6020821081036106e657634e487b7160e01b600052602260045260246000fd5b6020808252818101527f746f6b656e4578697374733a20746f6b656e20646f65736e2774206578697374604082015260600190565b81835281816020850137506000828201602090810191909152601f909101601f19169091010190565b60208152600061145d6020830184866134a2565b6000602082840312156134f157600080fd5b5051919050565b60006020828403121561350a57600080fd5b8151801515811461146057600080fd5b6020808252602c908201527f46756e6374696f6e206d7573742062652063616c6c6564207468726f7567682060408201526b19195b1959d85d1958d85b1b60a21b606082015260800190565b6020808252602c908201527f46756e6374696f6e206d7573742062652063616c6c6564207468726f7567682060408201526b6163746976652070726f787960a01b606082015260800190565b6040815260006135c66040830185876134a2565b9050826020830152949350505050565b6000602082840312156135e857600080fd5b815161146081612e1a565b8183823760009101908152919050565b634e487b7160e01b600052603260045260246000fd5b6000808335601e1984360301811261363057600080fd5b8301803591506001600160401b0382111561364a57600080fd5b60200191503681900382131561285057600080fd5b634e487b7160e01b600052601160045260246000fd5b6000600182016136875761368761365f565b5060010190565b6001600160a01b038416815260406020820181905260009061189c90830184866134a2565b6040808252810183905260006060600585901b8301810190830186835b8781101561374357858403605f190183528135368a9003601e190181126136f657600080fd5b890160208181019135906001600160401b0382111561371457600080fd5b81360383131561372357600080fd5b61372e8783856134a2565b965094850194939093019250506001016136d0565b5050506001600160a01b0384166020840152905061189f565b601f82111561222957600081815260208120601f850160051c810160208610156137835750805b601f850160051c820191505b818110156126af5782815560010161378f565b6001600160401b038311156137b9576137b9613053565b6137cd836137c78354613439565b8361375c565b6000601f84116001811461380157600085156137e95750838201355b600019600387901b1c1916600186901b17835561385b565b600083815260209020601f19861690835b828110156138325786850135825560209485019460019092019101613812565b508682101561384f5760001960f88860031b161c19848701351681555b505060018560011b0183555b5050505050565b634e487b7160e01b600052602160045260246000fd5b82815260406020820152600061145d6040830184612dc2565b600082516138a3818460208701612d9e565b9190910192915050565b818103818111156105ec576105ec61365f565b6020808252602b908201527f496e697469616c697a61626c653a20636f6e7472616374206973206e6f74206960408201526a6e697469616c697a696e6760a81b606082015260800190565b808201808211156105ec576105ec61365f56fe360894a13ba1a3210667c828492db98dca3e2076cc3735a920a3ca505d382bbc416464726573733a206c6f772d6c6576656c2064656c65676174652063616c6c206661696c6564a26469706673582212204212b5f1bf378770eab4bdadc33554da7b7499b3454b4dfdb11546bbc14153a864736f6c63430008100033",
    "linkReferences": {}
  },
  "methodIdentifiers": {
    "balanceOf(address)": "70a08231",
    "createSpec(string,uint256)": "445a62b9",
    "getAgreementHash(address,address,string)": "e4992506",
    "getBadgeIdHash(address,string)": "a8cf8683",
    "getDataHolderAddress()": "635ad993",
    "getMerkleAgreementHash(address,string,bytes32)": "bd6645e4",
    "getRequestHash(address,string)": "8339a133",
    "give(address,string,bytes)": "ec64948e",
    "giveRequestedBadge(address,string,bytes)": "1766c038",
    "giveToMany(address[],string,bytes[])": "a32c9c7a",
    "initialize(string,string,string,address,address)": "d6d0faee",
    "isBadgeValid(uint256)": "0f4d9b01",
    "merkleTake(address,string,bytes,bytes32,bytes32[])": "4a086b53",
    "name()": "06fdde03",
    "owner()": "8da5cb5b",
    "ownerOf(uint256)": "6352211e",
    "proxiableUUID()": "52d1902d",
    "refreshMetadata(string[])": "bdbdbcbf",
    "reinstateBadge(uint256,uint256)": "80956c7e",
    "renounceOwnership()": "715018a6",
    "revokeBadge(uint256,uint256,uint8)": "7c402f8d",
    "setDataHolder(address)": "c0184112",
    "supportsInterface(bytes4)": "01ffc9a7",
    "symbol()": "95d89b41",
    "take(address,string,bytes)": "a3947803",
    "tokenURI(uint256)": "c87b56dd",
    "transferOwnership(address)": "f2fde38b",
    "unequip(uint256)": "d179e3d0",
    "upgradeTo(address)": "3659cfe6",
    "upgradeToAndCall(address,bytes)": "4f1ef286"
  },
  "id": 46
}