{
  "abi": [
    {
      "inputs": [],
      "stateMutability": "nonpayable",
      "type": "constructor"
    },
    {
      "anonymous": false,
      "inputs": [
        {
          "indexed": false,
          "internalType": "address",
          "name": "previousAdmin",
          "type": "address"
        },
        {
          "indexed": false,
          "internalType": "address",
          "name": "newAdmin",
          "type": "address"
        }
      ],
      "name": "AdminChanged",
      "type": "event"
    },
    {
      "anonymous": false,
      "inputs": [
        {
          "indexed": true,
          "internalType": "address",
          "name": "beacon",
          "type": "address"
        }
      ],
      "name": "BeaconUpgraded",
      "type": "event"
    },
    {
      "anonymous": false,
      "inputs": [
        {
          "indexed": false,
          "internalType": "uint8",
          "name": "version",
          "type": "uint8"
        }
      ],
      "name": "Initialized",
      "type": "event"
    },
    {
      "anonymous": false,
      "inputs": [
        {
          "indexed": true,
          "internalType": "address",
          "name": "previousOwner",
          "type": "address"
        },
        {
          "indexed": true,
          "internalType": "address",
          "name": "newOwner",
          "type": "address"
        }
      ],
      "name": "OwnershipTransferred",
      "type": "event"
    },
    {
      "anonymous": false,
      "inputs": [
        {
          "indexed": true,
          "internalType": "address",
          "name": "to",
          "type": "address"
        },
        {
          "indexed": false,
          "internalType": "string",
          "name": "specUri",
          "type": "string"
        },
        {
          "indexed": true,
          "internalType": "uint256",
          "name": "raftTokenId",
          "type": "uint256"
        },
        {
          "indexed": true,
          "internalType": "address",
          "name": "raftAddress",
          "type": "address"
        }
      ],
      "name": "SpecCreated",
      "type": "event"
    },
    {
      "anonymous": false,
      "inputs": [
        {
          "indexed": true,
          "internalType": "address",
          "name": "from",
          "type": "address"
        },
        {
          "indexed": true,
          "internalType": "address",
          "name": "to",
          "type": "address"
        },
        {
          "indexed": true,
          "internalType": "uint256",
          "name": "tokenId",
          "type": "uint256"
        }
      ],
      "name": "Transfer",
      "type": "event"
    },
    {
      "anonymous": false,
      "inputs": [
        {
          "indexed": true,
          "internalType": "address",
          "name": "implementation",
          "type": "address"
        }
      ],
      "name": "Upgraded",
      "type": "event"
    },
    {
      "inputs": [
        {
          "internalType": "address",
          "name": "_owner",
          "type": "address"
        }
      ],
      "name": "balanceOf",
      "outputs": [
        {
          "internalType": "uint256",
          "name": "",
          "type": "uint256"
        }
      ],
      "stateMutability": "view",
      "type": "function"
    },
    {
      "inputs": [
        {
          "internalType": "string",
          "name": "_specUri",
          "type": "string"
        },
        {
          "internalType": "uint256",
          "name": "_raftTokenId",
          "type": "uint256"
        }
      ],
      "name": "createSpec",
      "outputs": [],
      "stateMutability": "nonpayable",
      "type": "function"
    },
    {
      "inputs": [
        {
          "internalType": "address",
          "name": "_from",
          "type": "address"
        },
        {
          "internalType": "address",
          "name": "_to",
          "type": "address"
        },
        {
          "internalType": "string",
          "name": "_uri",
          "type": "string"
        }
      ],
      "name": "getAgreementHash",
      "outputs": [
        {
          "internalType": "bytes32",
          "name": "",
          "type": "bytes32"
        }
      ],
      "stateMutability": "view",
      "type": "function"
    },
    {
      "inputs": [
        {
          "internalType": "address",
          "name": "_to",
          "type": "address"
        },
        {
          "internalType": "string",
          "name": "_uri",
          "type": "string"
        }
      ],
      "name": "getBadgeIdHash",
      "outputs": [
        {
          "internalType": "bytes32",
          "name": "",
          "type": "bytes32"
        }
      ],
      "stateMutability": "view",
      "type": "function"
    },
    {
      "inputs": [],
      "name": "getDataHolderAddress",
      "outputs": [
        {
          "internalType": "address",
          "name": "",
          "type": "address"
        }
      ],
      "stateMutability": "view",
      "type": "function"
    },
    {
      "inputs": [
        {
          "internalType": "uint256",
          "name": "_tokenId",
          "type": "uint256"
        }
      ],
      "name": "getVoucherHash",
      "outputs": [
        {
          "internalType": "uint256",
          "name": "",
          "type": "uint256"
        }
      ],
      "stateMutability": "view",
      "type": "function"
    },
    {
      "inputs": [
        {
          "internalType": "address",
          "name": "_to",
          "type": "address"
        },
        {
          "internalType": "string",
          "name": "_uri",
          "type": "string"
        },
        {
          "internalType": "bytes",
          "name": "_signature",
          "type": "bytes"
        }
      ],
      "name": "give",
      "outputs": [
        {
          "internalType": "uint256",
          "name": "",
          "type": "uint256"
        }
      ],
      "stateMutability": "nonpayable",
      "type": "function"
    },
    {
      "inputs": [
        {
          "internalType": "string",
          "name": "_name",
          "type": "string"
        },
        {
          "internalType": "string",
          "name": "_symbol",
          "type": "string"
        },
        {
          "internalType": "string",
          "name": "_version",
          "type": "string"
        },
        {
          "internalType": "address",
          "name": "_nextOwner",
          "type": "address"
        },
        {
          "internalType": "address",
          "name": "_specDataHolderAddress",
          "type": "address"
        }
      ],
      "name": "initialize",
      "outputs": [],
      "stateMutability": "nonpayable",
      "type": "function"
    },
    {
      "inputs": [
        {
          "internalType": "address",
          "name": "_issuer",
          "type": "address"
        },
        {
          "internalType": "bytes32",
          "name": "_merkleRoot",
          "type": "bytes32"
        },
        {
          "internalType": "bytes32[]",
          "name": "_merkleProof",
          "type": "bytes32[]"
        },
        {
          "internalType": "string",
          "name": "_uri",
          "type": "string"
        },
        {
          "internalType": "bytes",
          "name": "_signature",
          "type": "bytes"
        }
      ],
      "name": "mintWithMerklePermission",
      "outputs": [
        {
          "internalType": "uint256",
          "name": "",
          "type": "uint256"
        }
      ],
      "stateMutability": "nonpayable",
      "type": "function"
    },
    {
      "inputs": [],
      "name": "name",
      "outputs": [
        {
          "internalType": "string",
          "name": "",
          "type": "string"
        }
      ],
      "stateMutability": "view",
      "type": "function"
    },
    {
      "inputs": [],
      "name": "owner",
      "outputs": [
        {
          "internalType": "address",
          "name": "",
          "type": "address"
        }
      ],
      "stateMutability": "view",
      "type": "function"
    },
    {
      "inputs": [
        {
          "internalType": "uint256",
          "name": "_tokenId",
          "type": "uint256"
        }
      ],
      "name": "ownerOf",
      "outputs": [
        {
          "internalType": "address",
          "name": "",
          "type": "address"
        }
      ],
      "stateMutability": "view",
      "type": "function"
    },
    {
      "inputs": [],
      "name": "proxiableUUID",
      "outputs": [
        {
          "internalType": "bytes32",
          "name": "",
          "type": "bytes32"
        }
      ],
      "stateMutability": "view",
      "type": "function"
    },
    {
      "inputs": [],
      "name": "renounceOwnership",
      "outputs": [],
      "stateMutability": "nonpayable",
      "type": "function"
    },
    {
      "inputs": [
        {
          "internalType": "address",
          "name": "_dataHolder",
          "type": "address"
        }
      ],
      "name": "setDataHolder",
      "outputs": [],
      "stateMutability": "nonpayable",
      "type": "function"
    },
    {
      "inputs": [
        {
          "internalType": "bytes4",
          "name": "_interfaceId",
          "type": "bytes4"
        }
      ],
      "name": "supportsInterface",
      "outputs": [
        {
          "internalType": "bool",
          "name": "",
          "type": "bool"
        }
      ],
      "stateMutability": "view",
      "type": "function"
    },
    {
      "inputs": [],
      "name": "symbol",
      "outputs": [
        {
          "internalType": "string",
          "name": "",
          "type": "string"
        }
      ],
      "stateMutability": "view",
      "type": "function"
    },
    {
      "inputs": [
        {
          "internalType": "address",
          "name": "_from",
          "type": "address"
        },
        {
          "internalType": "string",
          "name": "_uri",
          "type": "string"
        },
        {
          "internalType": "bytes",
          "name": "_signature",
          "type": "bytes"
        }
      ],
      "name": "take",
      "outputs": [
        {
          "internalType": "uint256",
          "name": "",
          "type": "uint256"
        }
      ],
      "stateMutability": "nonpayable",
      "type": "function"
    },
    {
      "inputs": [
        {
          "internalType": "uint256",
          "name": "_tokenId",
          "type": "uint256"
        }
      ],
      "name": "tokenURI",
      "outputs": [
        {
          "internalType": "string",
          "name": "",
          "type": "string"
        }
      ],
      "stateMutability": "view",
      "type": "function"
    },
    {
      "inputs": [
        {
          "internalType": "address",
          "name": "newOwner",
          "type": "address"
        }
      ],
      "name": "transferOwnership",
      "outputs": [],
      "stateMutability": "nonpayable",
      "type": "function"
    },
    {
      "inputs": [
        {
          "internalType": "uint256",
          "name": "_tokenId",
          "type": "uint256"
        }
      ],
      "name": "unequip",
      "outputs": [],
      "stateMutability": "nonpayable",
      "type": "function"
    },
    {
      "inputs": [
        {
          "internalType": "address",
          "name": "newImplementation",
          "type": "address"
        }
      ],
      "name": "upgradeTo",
      "outputs": [],
      "stateMutability": "nonpayable",
      "type": "function"
    },
    {
      "inputs": [
        {
          "internalType": "address",
          "name": "newImplementation",
          "type": "address"
        },
        {
          "internalType": "bytes",
          "name": "data",
          "type": "bytes"
        }
      ],
      "name": "upgradeToAndCall",
      "outputs": [],
      "stateMutability": "payable",
      "type": "function"
    }
  ],
  "bytecode": {
    "object": "0x60a0604052306080523480156200001557600080fd5b506200002062000026565b620000e8565b600054610100900460ff1615620000935760405162461bcd60e51b815260206004820152602760248201527f496e697469616c697a61626c653a20636f6e747261637420697320696e697469604482015266616c697a696e6760c81b606482015260840160405180910390fd5b60005460ff9081161015620000e6576000805460ff191660ff9081179091556040519081527f7f26b83ff96e1f2b6a682f133852f6798a09c465da95921460cefb38474024989060200160405180910390a15b565b608051612c12620001206000396000818161064e0152818161068e015281816109e801528181610a280152610abb0152612c126000f3fe6080604052600436106101405760003560e01c8063715018a6116100b6578063c87b56dd1161006f578063c87b56dd14610381578063d179e3d0146103a1578063d6d0faee146103c1578063e4992506146103e1578063ec64948e14610401578063f2fde38b1461042157600080fd5b8063715018a6146102d95780638da5cb5b146102ee57806395d89b411461030c578063a394780314610321578063a8cf868314610341578063c01841121461036157600080fd5b8063445a62b911610108578063445a62b91461021a5780634f1ef2861461023a57806352d1902d1461024d5780636352211e14610262578063635ad9931461029a57806370a08231146102b957600080fd5b806301ffc9a71461014557806306fdde031461017a5780631e84ae1f1461019c5780633659cfe6146101ca5780633b363a09146101ec575b600080fd5b34801561015157600080fd5b506101656101603660046122d2565b610441565b60405190151581526020015b60405180910390f35b34801561018657600080fd5b5061018f610493565b604051610171919061234c565b3480156101a857600080fd5b506101bc6101b73660046123b6565b610526565b604051908152602001610171565b3480156101d657600080fd5b506101ea6101e536600461249d565b610644565b005b3480156101f857600080fd5b506101bc6102073660046124ba565b6000908152610136602052604090205490565b34801561022657600080fd5b506101ea61023536600461257f565b610723565b6101ea6102483660046125c4565b6109de565b34801561025957600080fd5b506101bc610aae565b34801561026e57600080fd5b5061028261027d3660046124ba565b610b61565b6040516001600160a01b039091168152602001610171565b3480156102a657600080fd5b50610135546001600160a01b0316610282565b3480156102c557600080fd5b506101bc6102d436600461249d565b610bc7565b3480156102e557600080fd5b506101ea610c52565b3480156102fa57600080fd5b5060c9546001600160a01b0316610282565b34801561031857600080fd5b5061018f610c66565b34801561032d57600080fd5b506101bc61033c366004612628565b610c76565b34801561034d57600080fd5b506101bc61035c3660046126ab565b610d63565b34801561036d57600080fd5b506101ea61037c36600461249d565b610d96565b34801561038d57600080fd5b5061018f61039c3660046124ba565b610dc1565b3480156103ad57600080fd5b506101ea6103bc3660046124ba565b610ec8565b3480156103cd57600080fd5b506101ea6103dc3660046126f1565b610fcd565b3480156103ed57600080fd5b506101bc6103fc3660046127a1565b61113e565b34801561040d57600080fd5b506101bc61041c366004612628565b6111d7565b34801561042d57600080fd5b506101ea61043c36600461249d565b611285565b60006001600160e01b03198216635b5e139f60e01b148061047257506001600160e01b031982166346bdd63960e11b145b8061048d57506301ffc9a760e01b6001600160e01b03198316145b92915050565b606061013080546104a390612806565b80601f01602080910402602001604051908101604052809291908181526020018280546104cf90612806565b801561051c5780601f106104f15761010080835404028352916020019161051c565b820191906000526020600020905b8154815290600101906020018083116104ff57829003601f168201915b5050505050905090565b60006001600160a01b03891633036105ab5760405162461bcd60e51b815260206004820152603960248201527f6d696e74576974684d65726b6c655065726d697373696f6e3a2063616e6e6f7460448201527f206d696e7420696620796f75726520746865206973737565720000000000000060648201526084015b60405180910390fd5b60006105be338b888888888f8f8f6112fb565b905060006106023388888080601f0160208091040260200160405190810160405280939291908181526020018383808284376000920191909152506114e092505050565b600883901c600090815261012f602052604090208054600160ff86161b1790559050600081815261013660205260409020919091559998505050505050505050565b6001600160a01b037f000000000000000000000000000000000000000000000000000000000000000016300361068c5760405162461bcd60e51b81526004016105a290612840565b7f00000000000000000000000000000000000000000000000000000000000000006001600160a01b03166106d5600080516020612b96833981519152546001600160a01b031690565b6001600160a01b0316146106fb5760405162461bcd60e51b81526004016105a29061288c565b6107048161172b565b6040805160008082526020820190925261072091839190611733565b50565b6101355460405163b2a0cb6b60e01b81526004810183905233916001600160a01b03169063b2a0cb6b90602401602060405180830381865afa15801561076d573d6000803e3d6000fd5b505050506040513d601f19601f8201168201806040525081019061079191906128d8565b6001600160a01b0316146107e75760405162461bcd60e51b815260206004820152601860248201527f637265617465537065633a20756e617574686f72697a6564000000000000000060448201526064016105a2565b61013554604051637e07102760e11b81526001600160a01b039091169063fc0e204e9061081890859060040161234c565b602060405180830381865afa158015610835573d6000803e3d6000fd5b505050506040513d601f19601f8201168201806040525081019061085991906128f5565b156108b25760405162461bcd60e51b815260206004820152602360248201527f637265617465537065633a207370656320616c726561647920726567697374656044820152621c995960ea1b60648201526084016105a2565b6101355460405163addd190760e01b81526001600160a01b039091169063addd1907906108e59085908590600401612917565b600060405180830381600087803b1580156108ff57600080fd5b505af1158015610913573d6000803e3d6000fd5b5050505061013560009054906101000a90046001600160a01b03166001600160a01b03166334f876626040518163ffffffff1660e01b8152600401602060405180830381865afa15801561096b573d6000803e3d6000fd5b505050506040513d601f19601f8201168201806040525081019061098f91906128d8565b6001600160a01b031681336001600160a01b03167f68c7f8503283c455a4445b54a7d5c40656c8cae5cca0583c6d4be83698478700856040516109d2919061234c565b60405180910390a45050565b6001600160a01b037f0000000000000000000000000000000000000000000000000000000000000000163003610a265760405162461bcd60e51b81526004016105a290612840565b7f00000000000000000000000000000000000000000000000000000000000000006001600160a01b0316610a6f600080516020612b96833981519152546001600160a01b031690565b6001600160a01b031614610a955760405162461bcd60e51b81526004016105a29061288c565b610a9e8261172b565b610aaa82826001611733565b5050565b6000306001600160a01b037f00000000000000000000000000000000000000000000000000000000000000001614610b4e5760405162461bcd60e51b815260206004820152603860248201527f555550535570677261646561626c653a206d757374206e6f742062652063616c60448201527f6c6564207468726f7567682064656c656761746563616c6c000000000000000060648201526084016105a2565b50600080516020612b9683398151915290565b600081815261013260205260408120546001600160a01b03168061048d5760405162461bcd60e51b815260206004820152601c60248201527f6f776e65724f663a20746f6b656e20646f65736e27742065786973740000000060448201526064016105a2565b60006001600160a01b038216610c355760405162461bcd60e51b815260206004820152602d60248201527f62616c616e63654f663a2061646472657373207a65726f206973206e6f74206160448201526c2076616c6964206f776e65725f60981b60648201526084016105a2565b506001600160a01b03166000908152610134602052604090205490565b610c5a6118a3565b610c6460006118fd565b565b606061013180546104a390612806565b60006001600160a01b0386163303610cd05760405162461bcd60e51b815260206004820152601b60248201527f74616b653a2063616e6e6f742074616b652066726f6d2073656c66000000000060448201526064016105a2565b6000610ce033888888888861194f565b90506000610d243388888080601f0160208091040260200160405190810160405280939291908181526020018383808284376000920191909152506114e092505050565b600883901c600090815261012f602052604090208054600160ff86161b1790559050600081815261013660205260409020919091559695505050505050565b60008282604051602001610d78929190612939565b60405160208183030381529060405280519060200120905092915050565b610d9e6118a3565b61013580546001600160a01b0319166001600160a01b0392909216919091179055565b600081815261013260205260409020546060906001600160a01b0316610e295760405162461bcd60e51b815260206004820152601d60248201527f746f6b656e5552493a20746f6b656e20646f65736e277420657869737400000060448201526064016105a2565b6000828152610133602052604090208054610e4390612806565b80601f0160208091040260200160405190810160405280929190818152602001828054610e6f90612806565b8015610ebc5780601f10610e9157610100808354040283529160200191610ebc565b820191906000526020600020905b815481529060010190602001808311610e9f57829003601f168201915b50505050509050919050565b600081815261013260205260409020546001600160a01b0316610f2d5760405162461bcd60e51b815260206004820152601c60248201527f756e65717569703a20746f6b656e20646f65736e27742065786973740000000060448201526064016105a2565b600081815261013260205260409020546001600160a01b03163314610f945760405162461bcd60e51b815260206004820152601d60248201527f756e65717569703a2073656e646572206d757374206265206f776e657200000060448201526064016105a2565b60008181526101366020908152604080832054600881901c845261012f9092529091208054600160ff84161b19169055610aaa82611a79565b600054610100900460ff1615808015610fed5750600054600160ff909116105b806110075750303b158015611007575060005460ff166001145b61106a5760405162461bcd60e51b815260206004820152602e60248201527f496e697469616c697a61626c653a20636f6e747261637420697320616c72656160448201526d191e481a5b9a5d1a585b1a5e995960921b60648201526084016105a2565b6000805460ff19166001179055801561108d576000805461ff0019166101001790555b61013061109a87826129ab565b506101316110a886826129ab565b5061013580546001600160a01b0319166001600160a01b0384161790556110cd611b33565b6110d5611b5a565b6110df8685611b89565b6110e7611b33565b6110f083611285565b8015611136576000805461ff0019169055604051600181527f7f26b83ff96e1f2b6a682f133852f6798a09c465da95921460cefb38474024989060200160405180910390a15b505050505050565b6000807fe76a195fbe43f0eaa611595069f780493db2202a1cc4b2d7d44b47069812998a86868686604051611174929190612a6b565b6040519081900381206111ac949392916020019384526001600160a01b03928316602085015291166040830152606082015260800190565b6040516020818303038152906040528051906020012090506111cd81611bba565b9695505050505050565b60006001600160a01b03861633036112315760405162461bcd60e51b815260206004820152601b60248201527f676976653a2063616e6e6f7420676976652066726f6d2073656c66000000000060448201526064016105a2565b600061124133888888888861194f565b90506000610d248888888080601f0160208091040260200160405190810160405280939291908181526020018383808284376000920191909152506114e092505050565b61128d6118a3565b6001600160a01b0381166112f25760405162461bcd60e51b815260206004820152602660248201527f4f776e61626c653a206e6577206f776e657220697320746865207a65726f206160448201526564647265737360d01b60648201526084016105a2565b610720816118fd565b60008061130a8b8b8b8b61113e565b6040516bffffffffffffffffffffffff1960608e901b16602082015290915081906000906034016040516020818303038152906040528051906020012090506113898686808060200260200160405190810160405280939291908181526020018383602002808284376000920191909152508b9250859150611bcd9050565b6113c55760405162461bcd60e51b815260206004820152600d60248201526c34b73b30b634b210383937b7b360991b60448201526064016105a2565b6114068c848b8b8080601f016020809104026020016040519081016040528093929190818152602001838380828437600092019190915250611be592505050565b6114665760405162461bcd60e51b815260206004820152602b60248201527f73616665436865636b41677265656d656e744d65726b6c653a20696e76616c6960448201526a64207369676e617475726560a81b60648201526084016105a2565b600882901c600090815261012f6020526040902054600160ff84161b16156114d05760405162461bcd60e51b815260206004820181905260248201527f73616665436865636b41677265656d656e743a20616c7265616479207573656460448201526064016105a2565b509b9a5050505050505050505050565b61013554604051633664a8e960e01b815260009182916001600160a01b0390911690633664a8e99061151690869060040161234c565b602060405180830381865afa158015611533573d6000803e3d6000fd5b505050506040513d601f19601f820116820180604052508101906115579190612a7b565b905060006115658585610d63565b90508060008390036115b95760405162461bcd60e51b815260206004820152601c60248201527f6d696e743a2073706563206973206e6f7420726567697374657265640000000060448201526064016105a2565b600081815261013260205260409020546001600160a01b0316156116165760405162461bcd60e51b81526020600482015260146024820152736d696e743a20746f6b656e49442065786973747360601b60448201526064016105a2565b6001600160a01b038616600090815261013460205260408120805460019290611640908490612aaa565b909155505060008181526101326020908152604080832080546001600160a01b0319166001600160a01b038b16179055610133909152902061168286826129ab565b5060405181906001600160a01b038816906000907fddf252ad1be2c89b69c2b068fc378daa952ba7f163c4a11628f55a4df523b3ef908290a46101355460405163fb74926160e01b815260048101839052602481018590526001600160a01b039091169063fb74926190604401600060405180830381600087803b15801561170957600080fd5b505af115801561171d573d6000803e3d6000fd5b509298975050505050505050565b6107206118a3565b7f4910fdfa16fed3260ed0e7147f7cc6da11a60208b5b9406d12a635614ffd91435460ff161561176b5761176683611d26565b505050565b826001600160a01b03166352d1902d6040518163ffffffff1660e01b8152600401602060405180830381865afa9250505080156117c5575060408051601f3d908101601f191682019092526117c291810190612a7b565b60015b6118285760405162461bcd60e51b815260206004820152602e60248201527f45524331393637557067726164653a206e657720696d706c656d656e7461746960448201526d6f6e206973206e6f74205555505360901b60648201526084016105a2565b600080516020612b9683398151915281146118975760405162461bcd60e51b815260206004820152602960248201527f45524331393637557067726164653a20756e737570706f727465642070726f786044820152681a58589b195555525160ba1b60648201526084016105a2565b50611766838383611dc2565b60c9546001600160a01b03163314610c645760405162461bcd60e51b815260206004820181905260248201527f4f776e61626c653a2063616c6c6572206973206e6f7420746865206f776e657260448201526064016105a2565b60c980546001600160a01b038381166001600160a01b0319831681179093556040519116919082907f8be0079c531659141344cd1fd0a4f28419497f9722a3daafe3b4186f6b6457e090600090a35050565b60008061195e8888888861113e565b905060008160001c90506119a9888387878080601f016020809104026020016040519081016040528093929190818152602001838380828437600092019190915250611be592505050565b611a035760405162461bcd60e51b815260206004820152602560248201527f73616665436865636b41677265656d656e743a20696e76616c6964207369676e604482015264617475726560d81b60648201526084016105a2565b600881901c600090815261012f6020526040902054600160ff83161b1615611a6d5760405162461bcd60e51b815260206004820181905260248201527f73616665436865636b41677265656d656e743a20616c7265616479207573656460448201526064016105a2565b98975050505050505050565b600081815261013260209081526040808320546001600160a01b0316808452610134909252822080549192600192611ab2908490612abd565b909155505060008281526101326020908152604080832080546001600160a01b03191690556101339091528120611ae891612284565b60008281526101366020526040808220829055518391906001600160a01b038416907fddf252ad1be2c89b69c2b068fc378daa952ba7f163c4a11628f55a4df523b3ef908390a45050565b600054610100900460ff16610c645760405162461bcd60e51b81526004016105a290612ad0565b600054610100900460ff16611b815760405162461bcd60e51b81526004016105a290612ad0565b610c64611ded565b600054610100900460ff16611bb05760405162461bcd60e51b81526004016105a290612ad0565b610aaa8282611e1d565b600061048d611bc7611e5e565b83611ede565b600082611bda8584611f05565b1490505b9392505050565b6000806000611bf48585611f52565b90925090506000816004811115611c0d57611c0d612b1b565b148015611c2b5750856001600160a01b0316826001600160a01b0316145b15611c3b57600192505050611bde565b600080876001600160a01b0316631626ba7e60e01b8888604051602401611c63929190612b31565b60408051601f198184030181529181526020820180516001600160e01b03166001600160e01b0319909416939093179092529051611ca19190612b4a565b600060405180830381855afa9150503d8060008114611cdc576040519150601f19603f3d011682016040523d82523d6000602084013e611ce1565b606091505b5091509150818015611cf4575080516020145b8015611a6d57508051630b135d3f60e11b90611d199083016020908101908401612a7b565b1498975050505050505050565b6001600160a01b0381163b611d935760405162461bcd60e51b815260206004820152602d60248201527f455243313936373a206e657720696d706c656d656e746174696f6e206973206e60448201526c1bdd08184818dbdb9d1c9858dd609a1b60648201526084016105a2565b600080516020612b9683398151915280546001600160a01b0319166001600160a01b0392909216919091179055565b611dcb83611fc0565b600082511180611dd85750805b1561176657611de78383612000565b50505050565b600054610100900460ff16611e145760405162461bcd60e51b81526004016105a290612ad0565b610c64336118fd565b600054610100900460ff16611e445760405162461bcd60e51b81526004016105a290612ad0565b81516020928301208151919092012060fb9190915560fc55565b6000611ed97f8b73c3c69bb8fe3d512ecc4cf759cc79239f7b179b0ffacaa9a75d522b39400f611e8d60fb5490565b60fc546040805160208101859052908101839052606081018290524660808201523060a082015260009060c0016040516020818303038152906040528051906020012090509392505050565b905090565b60405161190160f01b60208201526022810183905260428101829052600090606201610d78565b600081815b8451811015611f4a57611f3682868381518110611f2957611f29612b66565b60200260200101516120f4565b915080611f4281612b7c565b915050611f0a565b509392505050565b6000808251604103611f885760208301516040840151606085015160001a611f7c87828585612120565b94509450505050611fb9565b8251604003611fb15760208301516040840151611fa686838361220d565b935093505050611fb9565b506000905060025b9250929050565b611fc981611d26565b6040516001600160a01b038216907fbc7cd75a20ee27fd9adebab32041f755214dbc6bffa90cc0225b39da2e5c2d3b90600090a250565b60606001600160a01b0383163b6120685760405162461bcd60e51b815260206004820152602660248201527f416464726573733a2064656c65676174652063616c6c20746f206e6f6e2d636f6044820152651b9d1c9858dd60d21b60648201526084016105a2565b600080846001600160a01b0316846040516120839190612b4a565b600060405180830381855af49150503d80600081146120be576040519150601f19603f3d011682016040523d82523d6000602084013e6120c3565b606091505b50915091506120eb8282604051806060016040528060278152602001612bb660279139612246565b95945050505050565b6000818310612110576000828152602084905260409020611bde565b5060009182526020526040902090565b6000807f7fffffffffffffffffffffffffffffff5d576e7357a4501ddfe92f46681b20a08311156121575750600090506003612204565b8460ff16601b1415801561216f57508460ff16601c14155b156121805750600090506004612204565b6040805160008082526020820180845289905260ff881692820192909252606081018690526080810185905260019060a0016020604051602081039080840390855afa1580156121d4573d6000803e3d6000fd5b5050604051601f1901519150506001600160a01b0381166121fd57600060019250925050612204565b9150600090505b94509492505050565b6000806001600160ff1b0383168161222a60ff86901c601b612aaa565b905061223887828885612120565b935093505050935093915050565b60608315612255575081611bde565b611bde838381511561226a5781518083602001fd5b8060405162461bcd60e51b81526004016105a2919061234c565b50805461229090612806565b6000825580601f106122a0575050565b601f01602090049060005260206000209081019061072091905b808211156122ce57600081556001016122ba565b5090565b6000602082840312156122e457600080fd5b81356001600160e01b031981168114611bde57600080fd5b60005b838110156123175781810151838201526020016122ff565b50506000910152565b600081518084526123388160208601602086016122fc565b601f01601f19169290920160200192915050565b602081526000611bde6020830184612320565b6001600160a01b038116811461072057600080fd5b60008083601f84011261238657600080fd5b50813567ffffffffffffffff81111561239e57600080fd5b602083019150836020828501011115611fb957600080fd5b60008060008060008060008060a0898b0312156123d257600080fd5b88356123dd8161235f565b975060208901359650604089013567ffffffffffffffff8082111561240157600080fd5b818b0191508b601f83011261241557600080fd5b81358181111561242457600080fd5b8c60208260051b850101111561243957600080fd5b6020830198508097505060608b013591508082111561245757600080fd5b6124638c838d01612374565b909650945060808b013591508082111561247c57600080fd5b506124898b828c01612374565b999c989b5096995094979396929594505050565b6000602082840312156124af57600080fd5b8135611bde8161235f565b6000602082840312156124cc57600080fd5b5035919050565b634e487b7160e01b600052604160045260246000fd5b600067ffffffffffffffff80841115612504576125046124d3565b604051601f8501601f19908116603f0116810190828211818310171561252c5761252c6124d3565b8160405280935085815286868601111561254557600080fd5b858560208301376000602087830101525050509392505050565b600082601f83011261257057600080fd5b611bde838335602085016124e9565b6000806040838503121561259257600080fd5b823567ffffffffffffffff8111156125a957600080fd5b6125b58582860161255f565b95602094909401359450505050565b600080604083850312156125d757600080fd5b82356125e28161235f565b9150602083013567ffffffffffffffff8111156125fe57600080fd5b8301601f8101851361260f57600080fd5b61261e858235602084016124e9565b9150509250929050565b60008060008060006060868803121561264057600080fd5b853561264b8161235f565b9450602086013567ffffffffffffffff8082111561266857600080fd5b61267489838a01612374565b9096509450604088013591508082111561268d57600080fd5b5061269a88828901612374565b969995985093965092949392505050565b600080604083850312156126be57600080fd5b82356126c98161235f565b9150602083013567ffffffffffffffff8111156126e557600080fd5b61261e8582860161255f565b600080600080600060a0868803121561270957600080fd5b853567ffffffffffffffff8082111561272157600080fd5b61272d89838a0161255f565b9650602088013591508082111561274357600080fd5b61274f89838a0161255f565b9550604088013591508082111561276557600080fd5b506127728882890161255f565b93505060608601356127838161235f565b915060808601356127938161235f565b809150509295509295909350565b600080600080606085870312156127b757600080fd5b84356127c28161235f565b935060208501356127d28161235f565b9250604085013567ffffffffffffffff8111156127ee57600080fd5b6127fa87828801612374565b95989497509550505050565b600181811c9082168061281a57607f821691505b60208210810361283a57634e487b7160e01b600052602260045260246000fd5b50919050565b6020808252602c908201527f46756e6374696f6e206d7573742062652063616c6c6564207468726f7567682060408201526b19195b1959d85d1958d85b1b60a21b606082015260800190565b6020808252602c908201527f46756e6374696f6e206d7573742062652063616c6c6564207468726f7567682060408201526b6163746976652070726f787960a01b606082015260800190565b6000602082840312156128ea57600080fd5b8151611bde8161235f565b60006020828403121561290757600080fd5b81518015158114611bde57600080fd5b60408152600061292a6040830185612320565b90508260208301529392505050565b6001600160a01b038316815260406020820181905260009061295d90830184612320565b949350505050565b601f82111561176657600081815260208120601f850160051c8101602086101561298c5750805b601f850160051c820191505b8181101561113657828155600101612998565b815167ffffffffffffffff8111156129c5576129c56124d3565b6129d9816129d38454612806565b84612965565b602080601f831160018114612a0e57600084156129f65750858301515b600019600386901b1c1916600185901b178555611136565b600085815260208120601f198616915b82811015612a3d57888601518255948401946001909101908401612a1e565b5085821015612a5b5787850151600019600388901b60f8161c191681555b5050505050600190811b01905550565b8183823760009101908152919050565b600060208284031215612a8d57600080fd5b5051919050565b634e487b7160e01b600052601160045260246000fd5b8082018082111561048d5761048d612a94565b8181038181111561048d5761048d612a94565b6020808252602b908201527f496e697469616c697a61626c653a20636f6e7472616374206973206e6f74206960408201526a6e697469616c697a696e6760a81b606082015260800190565b634e487b7160e01b600052602160045260246000fd5b82815260406020820152600061295d6040830184612320565b60008251612b5c8184602087016122fc565b9190910192915050565b634e487b7160e01b600052603260045260246000fd5b600060018201612b8e57612b8e612a94565b506001019056fe360894a13ba1a3210667c828492db98dca3e2076cc3735a920a3ca505d382bbc416464726573733a206c6f772d6c6576656c2064656c65676174652063616c6c206661696c6564a26469706673582212208841739790986ed2b8d5436bf7a37248903e99b07d9116bc60fb5929959acd0964736f6c63430008100033",
    "linkReferences": {}
  },
  "methodIdentifiers": {
    "balanceOf(address)": "70a08231",
    "createSpec(string,uint256)": "445a62b9",
    "getAgreementHash(address,address,string)": "e4992506",
    "getBadgeIdHash(address,string)": "a8cf8683",
    "getDataHolderAddress()": "635ad993",
    "getVoucherHash(uint256)": "3b363a09",
    "give(address,string,bytes)": "ec64948e",
    "initialize(string,string,string,address,address)": "d6d0faee",
    "mintWithMerklePermission(address,bytes32,bytes32[],string,bytes)": "1e84ae1f",
    "name()": "06fdde03",
    "owner()": "8da5cb5b",
    "ownerOf(uint256)": "6352211e",
    "proxiableUUID()": "52d1902d",
    "renounceOwnership()": "715018a6",
    "setDataHolder(address)": "c0184112",
    "supportsInterface(bytes4)": "01ffc9a7",
    "symbol()": "95d89b41",
    "take(address,string,bytes)": "a3947803",
    "tokenURI(uint256)": "c87b56dd",
    "transferOwnership(address)": "f2fde38b",
    "unequip(uint256)": "d179e3d0",
    "upgradeTo(address)": "3659cfe6",
    "upgradeToAndCall(address,bytes)": "4f1ef286"
  },
  "id": 44
}