{
  "abi": [
    {
      "inputs": [],
      "stateMutability": "nonpayable",
      "type": "constructor"
    },
    {
      "anonymous": false,
      "inputs": [
        {
          "indexed": false,
          "internalType": "address",
          "name": "previousAdmin",
          "type": "address"
        },
        {
          "indexed": false,
          "internalType": "address",
          "name": "newAdmin",
          "type": "address"
        }
      ],
      "name": "AdminChanged",
      "type": "event"
    },
    {
      "anonymous": false,
      "inputs": [
        {
          "indexed": true,
          "internalType": "uint256",
          "name": "tokenId",
          "type": "uint256"
        },
        {
          "indexed": true,
          "internalType": "address",
          "name": "from",
          "type": "address"
        }
      ],
      "name": "BadgeReinstated",
      "type": "event"
    },
    {
      "anonymous": false,
      "inputs": [
        {
          "indexed": true,
          "internalType": "uint256",
          "name": "tokenId",
          "type": "uint256"
        },
        {
          "indexed": true,
          "internalType": "address",
          "name": "from",
          "type": "address"
        },
        {
          "indexed": true,
          "internalType": "uint8",
          "name": "reason",
          "type": "uint8"
        }
      ],
      "name": "BadgeRevoked",
      "type": "event"
    },
    {
      "anonymous": false,
      "inputs": [
        {
          "indexed": true,
          "internalType": "address",
          "name": "beacon",
          "type": "address"
        }
      ],
      "name": "BeaconUpgraded",
      "type": "event"
    },
    {
      "anonymous": false,
      "inputs": [
        {
          "indexed": false,
          "internalType": "uint8",
          "name": "version",
          "type": "uint8"
        }
      ],
      "name": "Initialized",
      "type": "event"
    },
    {
      "anonymous": false,
      "inputs": [
        {
          "indexed": true,
          "internalType": "address",
          "name": "previousOwner",
          "type": "address"
        },
        {
          "indexed": true,
          "internalType": "address",
          "name": "newOwner",
          "type": "address"
        }
      ],
      "name": "OwnershipTransferred",
      "type": "event"
    },
    {
      "anonymous": false,
      "inputs": [
        {
          "indexed": false,
          "internalType": "string[]",
          "name": "specUris",
          "type": "string[]"
        },
        {
          "indexed": false,
          "internalType": "address",
          "name": "sender",
          "type": "address"
        }
      ],
      "name": "RefreshMetadata",
      "type": "event"
    },
    {
      "anonymous": false,
      "inputs": [
        {
          "indexed": true,
          "internalType": "address",
          "name": "to",
          "type": "address"
        },
        {
          "indexed": false,
          "internalType": "string",
          "name": "specUri",
          "type": "string"
        },
        {
          "indexed": true,
          "internalType": "uint256",
          "name": "raftTokenId",
          "type": "uint256"
        },
        {
          "indexed": true,
          "internalType": "address",
          "name": "raftAddress",
          "type": "address"
        }
      ],
      "name": "SpecCreated",
      "type": "event"
    },
    {
      "anonymous": false,
      "inputs": [
        {
          "indexed": true,
          "internalType": "address",
          "name": "from",
          "type": "address"
        },
        {
          "indexed": true,
          "internalType": "address",
          "name": "to",
          "type": "address"
        },
        {
          "indexed": true,
          "internalType": "uint256",
          "name": "tokenId",
          "type": "uint256"
        }
      ],
      "name": "Transfer",
      "type": "event"
    },
    {
      "anonymous": false,
      "inputs": [
        {
          "indexed": true,
          "internalType": "address",
          "name": "implementation",
          "type": "address"
        }
      ],
      "name": "Upgraded",
      "type": "event"
    },
    {
      "inputs": [
        {
          "internalType": "address",
          "name": "_owner",
          "type": "address"
        }
      ],
      "name": "balanceOf",
      "outputs": [
        {
          "internalType": "uint256",
          "name": "",
          "type": "uint256"
        }
      ],
      "stateMutability": "view",
      "type": "function"
    },
    {
      "inputs": [
        {
          "internalType": "string",
          "name": "_specUri",
          "type": "string"
        },
        {
          "internalType": "uint256",
          "name": "_raftTokenId",
          "type": "uint256"
        }
      ],
      "name": "createSpec",
      "outputs": [],
      "stateMutability": "nonpayable",
      "type": "function"
    },
    {
      "inputs": [
        {
          "internalType": "address",
          "name": "_from",
          "type": "address"
        },
        {
          "internalType": "address",
          "name": "_to",
          "type": "address"
        },
        {
          "internalType": "string",
          "name": "_uri",
          "type": "string"
        }
      ],
      "name": "getAgreementHash",
      "outputs": [
        {
          "internalType": "bytes32",
          "name": "",
          "type": "bytes32"
        }
      ],
      "stateMutability": "view",
      "type": "function"
    },
    {
      "inputs": [
        {
          "internalType": "address",
          "name": "_to",
          "type": "address"
        },
        {
          "internalType": "string",
          "name": "_uri",
          "type": "string"
        }
      ],
      "name": "getBadgeIdHash",
      "outputs": [
        {
          "internalType": "bytes32",
          "name": "",
          "type": "bytes32"
        }
      ],
      "stateMutability": "view",
      "type": "function"
    },
    {
      "inputs": [],
      "name": "getDataHolderAddress",
      "outputs": [
        {
          "internalType": "address",
          "name": "",
          "type": "address"
        }
      ],
      "stateMutability": "view",
      "type": "function"
    },
    {
      "inputs": [
        {
          "internalType": "uint256",
          "name": "_tokenId",
          "type": "uint256"
        }
      ],
      "name": "getVoucherHash",
      "outputs": [
        {
          "internalType": "uint256",
          "name": "",
          "type": "uint256"
        }
      ],
      "stateMutability": "view",
      "type": "function"
    },
    {
      "inputs": [
        {
          "internalType": "address",
          "name": "_to",
          "type": "address"
        },
        {
          "internalType": "string",
          "name": "_uri",
          "type": "string"
        },
        {
          "internalType": "bytes",
          "name": "_signature",
          "type": "bytes"
        }
      ],
      "name": "give",
      "outputs": [
        {
          "internalType": "uint256",
          "name": "",
          "type": "uint256"
        }
      ],
      "stateMutability": "nonpayable",
      "type": "function"
    },
    {
      "inputs": [
        {
          "internalType": "string",
          "name": "_name",
          "type": "string"
        },
        {
          "internalType": "string",
          "name": "_symbol",
          "type": "string"
        },
        {
          "internalType": "string",
          "name": "_version",
          "type": "string"
        },
        {
          "internalType": "address",
          "name": "_nextOwner",
          "type": "address"
        },
        {
          "internalType": "address",
          "name": "_specDataHolderAddress",
          "type": "address"
        }
      ],
      "name": "initialize",
      "outputs": [],
      "stateMutability": "nonpayable",
      "type": "function"
    },
    {
      "inputs": [
        {
          "internalType": "uint256",
          "name": "_badgeId",
          "type": "uint256"
        }
      ],
      "name": "isBadgeValid",
      "outputs": [
        {
          "internalType": "bool",
          "name": "",
          "type": "bool"
        }
      ],
      "stateMutability": "view",
      "type": "function"
    },
    {
      "inputs": [
        {
          "internalType": "address",
          "name": "_passive",
          "type": "address"
        },
        {
          "internalType": "string",
          "name": "_uri",
          "type": "string"
        },
        {
          "internalType": "bytes",
          "name": "_signature",
          "type": "bytes"
        },
        {
          "components": [
            {
              "internalType": "bytes32",
              "name": "merkleRoot",
              "type": "bytes32"
            },
            {
              "internalType": "bytes32[]",
              "name": "merkleProof",
              "type": "bytes32[]"
            },
            {
              "internalType": "enum Badges.MintType",
              "name": "mintType",
              "type": "uint8"
            }
          ],
          "internalType": "struct Badges.MintConfig",
          "name": "_mintConfig",
          "type": "tuple"
        }
      ],
      "name": "mintBadge",
      "outputs": [
        {
          "internalType": "uint256",
          "name": "",
          "type": "uint256"
        }
      ],
      "stateMutability": "nonpayable",
      "type": "function"
    },
    {
      "inputs": [],
      "name": "name",
      "outputs": [
        {
          "internalType": "string",
          "name": "",
          "type": "string"
        }
      ],
      "stateMutability": "view",
      "type": "function"
    },
    {
      "inputs": [],
      "name": "owner",
      "outputs": [
        {
          "internalType": "address",
          "name": "",
          "type": "address"
        }
      ],
      "stateMutability": "view",
      "type": "function"
    },
    {
      "inputs": [
        {
          "internalType": "uint256",
          "name": "_tokenId",
          "type": "uint256"
        }
      ],
      "name": "ownerOf",
      "outputs": [
        {
          "internalType": "address",
          "name": "",
          "type": "address"
        }
      ],
      "stateMutability": "view",
      "type": "function"
    },
    {
      "inputs": [],
      "name": "proxiableUUID",
      "outputs": [
        {
          "internalType": "bytes32",
          "name": "",
          "type": "bytes32"
        }
      ],
      "stateMutability": "view",
      "type": "function"
    },
    {
      "inputs": [
        {
          "internalType": "string[]",
          "name": "_specUris",
          "type": "string[]"
        }
      ],
      "name": "refreshMetadata",
      "outputs": [],
      "stateMutability": "nonpayable",
      "type": "function"
    },
    {
      "inputs": [
        {
          "internalType": "uint256",
          "name": "_raftTokenId",
          "type": "uint256"
        },
        {
          "internalType": "uint256",
          "name": "_badgeId",
          "type": "uint256"
        }
      ],
      "name": "reinstateBadge",
      "outputs": [],
      "stateMutability": "nonpayable",
      "type": "function"
    },
    {
      "inputs": [],
      "name": "renounceOwnership",
      "outputs": [],
      "stateMutability": "nonpayable",
      "type": "function"
    },
    {
      "inputs": [
        {
          "internalType": "uint256",
          "name": "_raftTokenId",
          "type": "uint256"
        },
        {
          "internalType": "uint256",
          "name": "_badgeId",
          "type": "uint256"
        },
        {
          "internalType": "uint8",
          "name": "_reason",
          "type": "uint8"
        }
      ],
      "name": "revokeBadge",
      "outputs": [],
      "stateMutability": "nonpayable",
      "type": "function"
    },
    {
      "inputs": [
        {
          "internalType": "address",
          "name": "_dataHolder",
          "type": "address"
        }
      ],
      "name": "setDataHolder",
      "outputs": [],
      "stateMutability": "nonpayable",
      "type": "function"
    },
    {
      "inputs": [
        {
          "internalType": "bytes4",
          "name": "_interfaceId",
          "type": "bytes4"
        }
      ],
      "name": "supportsInterface",
      "outputs": [
        {
          "internalType": "bool",
          "name": "",
          "type": "bool"
        }
      ],
      "stateMutability": "view",
      "type": "function"
    },
    {
      "inputs": [],
      "name": "symbol",
      "outputs": [
        {
          "internalType": "string",
          "name": "",
          "type": "string"
        }
      ],
      "stateMutability": "view",
      "type": "function"
    },
    {
      "inputs": [
        {
          "internalType": "address",
          "name": "_from",
          "type": "address"
        },
        {
          "internalType": "string",
          "name": "_uri",
          "type": "string"
        },
        {
          "internalType": "bytes",
          "name": "_signature",
          "type": "bytes"
        }
      ],
      "name": "take",
      "outputs": [
        {
          "internalType": "uint256",
          "name": "",
          "type": "uint256"
        }
      ],
      "stateMutability": "nonpayable",
      "type": "function"
    },
    {
      "inputs": [
        {
          "internalType": "uint256",
          "name": "_tokenId",
          "type": "uint256"
        }
      ],
      "name": "tokenURI",
      "outputs": [
        {
          "internalType": "string",
          "name": "",
          "type": "string"
        }
      ],
      "stateMutability": "view",
      "type": "function"
    },
    {
      "inputs": [
        {
          "internalType": "address",
          "name": "newOwner",
          "type": "address"
        }
      ],
      "name": "transferOwnership",
      "outputs": [],
      "stateMutability": "nonpayable",
      "type": "function"
    },
    {
      "inputs": [
        {
          "internalType": "uint256",
          "name": "_tokenId",
          "type": "uint256"
        }
      ],
      "name": "unequip",
      "outputs": [],
      "stateMutability": "nonpayable",
      "type": "function"
    },
    {
      "inputs": [
        {
          "internalType": "address",
          "name": "newImplementation",
          "type": "address"
        }
      ],
      "name": "upgradeTo",
      "outputs": [],
      "stateMutability": "nonpayable",
      "type": "function"
    },
    {
      "inputs": [
        {
          "internalType": "address",
          "name": "newImplementation",
          "type": "address"
        },
        {
          "internalType": "bytes",
          "name": "data",
          "type": "bytes"
        }
      ],
      "name": "upgradeToAndCall",
      "outputs": [],
      "stateMutability": "payable",
      "type": "function"
    }
  ],
  "bytecode": {
    "object": "0x60a0604052306080523480156200001557600080fd5b506200002062000026565b620000e8565b600054610100900460ff1615620000935760405162461bcd60e51b815260206004820152602760248201527f496e697469616c697a61626c653a20636f6e747261637420697320696e697469604482015266616c697a696e6760c81b606482015260840160405180910390fd5b60005460ff9081161015620000e6576000805460ff191660ff9081179091556040519081527f7f26b83ff96e1f2b6a682f133852f6798a09c465da95921460cefb38474024989060200160405180910390a15b565b6080516137e862000120600039600081816108ef0152818161092f01528181610caa01528181610cea0152610d7d01526137e86000f3fe60806040526004361061019c5760003560e01c80637c402f8d116100ec578063c01841121161008a578063d6d0faee11610064578063d6d0faee1461049d578063e4992506146104bd578063ec64948e146104dd578063f2fde38b146104fd57600080fd5b8063c01841121461043d578063c87b56dd1461045d578063d179e3d01461047d57600080fd5b806395d89b41116100c657806395d89b41146103c8578063a3947803146103dd578063a8cf8683146103fd578063bdbdbcbf1461041d57600080fd5b80637c402f8d1461036a57806380956c7e1461038a5780638da5cb5b146103aa57600080fd5b8063445a62b9116101595780636352211e116101335780636352211e146102de578063635ad9931461031657806370a0823114610335578063715018a61461035557600080fd5b8063445a62b9146102965780634f1ef286146102b657806352d1902d146102c957600080fd5b806301ffc9a7146101a157806306fdde03146101d65780630f4d9b01146101f85780632c9c45a1146102185780633659cfe6146102465780633b363a0914610268575b600080fd5b3480156101ad57600080fd5b506101c16101bc366004612b4c565b61051d565b60405190151581526020015b60405180910390f35b3480156101e257600080fd5b506101eb61056f565b6040516101cd9190612bc6565b34801561020457600080fd5b506101c1610213366004612bd9565b610602565b34801561022457600080fd5b50610238610233366004612c48565b610669565b6040519081526020016101cd565b34801561025257600080fd5b50610266610261366004612cf3565b6108e5565b005b34801561027457600080fd5b50610238610283366004612bd9565b6000908152610136602052604090205490565b3480156102a257600080fd5b506102666102b1366004612df5565b6109c4565b6102666102c4366004612e39565b610ca0565b3480156102d557600080fd5b50610238610d70565b3480156102ea57600080fd5b506102fe6102f9366004612bd9565b610e23565b6040516001600160a01b0390911681526020016101cd565b34801561032257600080fd5b50610135546001600160a01b03166102fe565b34801561034157600080fd5b50610238610350366004612cf3565b610e78565b34801561036157600080fd5b50610266610f03565b34801561037657600080fd5b50610266610385366004612e9c565b610f17565b34801561039657600080fd5b506102666103a5366004612edb565b611101565b3480156103b657600080fd5b5060c9546001600160a01b03166102fe565b3480156103d457600080fd5b506101eb6112e4565b3480156103e957600080fd5b506102386103f8366004612efd565b6112f4565b34801561040957600080fd5b50610238610418366004612f7f565b611531565b34801561042957600080fd5b50610266610438366004612fe7565b611564565b34801561044957600080fd5b50610266610458366004612cf3565b611608565b34801561046957600080fd5b506101eb610478366004612bd9565b611633565b34801561048957600080fd5b50610266610498366004612bd9565b61173a565b3480156104a957600080fd5b506102666104b836600461309c565b611816565b3480156104c957600080fd5b506102386104d836600461314b565b611987565b3480156104e957600080fd5b506102386104f8366004612efd565b611a20565b34801561050957600080fd5b50610266610518366004612cf3565b611c0b565b60006001600160e01b03198216635b5e139f60e01b148061054e57506001600160e01b031982166346bdd63960e11b145b8061056957506301ffc9a760e01b6001600160e01b03198316145b92915050565b6060610130805461057f906131af565b80601f01602080910402602001604051908101604052809291908181526020018280546105ab906131af565b80156105f85780601f106105cd576101008083540402835291602001916105f8565b820191906000526020600020905b8154815290600101906020018083116105db57829003601f168201915b5050505050905090565b6000818152610132602052604081205482906001600160a01b03166106425760405162461bcd60e51b8152600401610639906131e3565b60405180910390fd5b600883901c60009081526101376020526040902054600160ff85161b161591505b50919050565b60006001600160a01b03871633036106c35760405162461bcd60e51b815260206004820152601b60248201527f74616b653a2063616e6e6f742074616b652066726f6d2073656c6600000000006044820152606401610639565b60006106dc3389898989896106d78a61322c565b611c81565b9050600060026106f260608601604087016132f7565b6002811115610703576107036132e1565b1461070e5733610710565b885b61013554604051633664a8e960e01b81529192506000916001600160a01b0390911690633664a8e990610749908c908c90600401613312565b602060405180830381865afa158015610766573d6000803e3d6000fd5b505050506040513d601f19601f8201168201806040525081019061078a9190613341565b6101355460405163b2a0cb6b60e01b8152600481018390529192506000916001600160a01b039091169063b2a0cb6b90602401602060405180830381865afa1580156107da573d6000803e3d6000fd5b505050506040513d601f19601f820116820180604052508101906107fe919061335a565b90508a6001600160a01b0316816001600160a01b03161461085d5760405162461bcd60e51b81526020600482015260196024820152783a30b5b29d103ab730baba3437b934bd32b21034b9b9bab2b960391b6044820152606401610639565b60006108a1848c8c8080601f016020809104026020016040519081016040528093929190818152602001838380828437600092019190915250889250611e1b915050565b600886901c600090815261012f602052604090208054600160ff89161b17905590506000818152610136602052604090209490945550919998505050505050505050565b6001600160a01b037f000000000000000000000000000000000000000000000000000000000000000016300361092d5760405162461bcd60e51b815260040161063990613377565b7f00000000000000000000000000000000000000000000000000000000000000006001600160a01b031661097660008051602061376c833981519152546001600160a01b031690565b6001600160a01b03161461099c5760405162461bcd60e51b8152600401610639906133c3565b6109a581611ff0565b604080516000808252602082019092526109c191839190611ff8565b50565b806040518060400160405280600a8152602001696372656174655370656360b01b8152506000816040516020016109fb919061340f565b60408051808303601f19018152908290526101355463b2a0cb6b60e01b83526004830186905290925033916001600160a01b039091169063b2a0cb6b90602401602060405180830381865afa158015610a58573d6000803e3d6000fd5b505050506040513d601f19601f82011682018060405250810190610a7c919061335a565b6001600160a01b0316148190610aa55760405162461bcd60e51b81526004016106399190612bc6565b5061013554604051637e07102760e11b81526001600160a01b039091169063fc0e204e90610ad7908890600401612bc6565b602060405180830381865afa158015610af4573d6000803e3d6000fd5b505050506040513d601f19601f82011682018060405250810190610b189190613441565b15610b715760405162461bcd60e51b815260206004820152602360248201527f637265617465537065633a207370656320616c726561647920726567697374656044820152621c995960ea1b6064820152608401610639565b6101355460405163addd190760e01b81526001600160a01b039091169063addd190790610ba49088908890600401613463565b600060405180830381600087803b158015610bbe57600080fd5b505af1158015610bd2573d6000803e3d6000fd5b5050505061013560009054906101000a90046001600160a01b03166001600160a01b03166334f876626040518163ffffffff1660e01b8152600401602060405180830381865afa158015610c2a573d6000803e3d6000fd5b505050506040513d601f19601f82011682018060405250810190610c4e919061335a565b6001600160a01b031684336001600160a01b03167f68c7f8503283c455a4445b54a7d5c40656c8cae5cca0583c6d4be8369847870088604051610c919190612bc6565b60405180910390a45050505050565b6001600160a01b037f0000000000000000000000000000000000000000000000000000000000000000163003610ce85760405162461bcd60e51b815260040161063990613377565b7f00000000000000000000000000000000000000000000000000000000000000006001600160a01b0316610d3160008051602061376c833981519152546001600160a01b031690565b6001600160a01b031614610d575760405162461bcd60e51b8152600401610639906133c3565b610d6082611ff0565b610d6c82826001611ff8565b5050565b6000306001600160a01b037f00000000000000000000000000000000000000000000000000000000000000001614610e105760405162461bcd60e51b815260206004820152603860248201527f555550535570677261646561626c653a206d757374206e6f742062652063616c60448201527f6c6564207468726f7567682064656c656761746563616c6c00000000000000006064820152608401610639565b5060008051602061376c83398151915290565b6000818152610132602052604081205482906001600160a01b0316610e5a5760405162461bcd60e51b8152600401610639906131e3565b5050600090815261013260205260409020546001600160a01b031690565b60006001600160a01b038216610ee65760405162461bcd60e51b815260206004820152602d60248201527f62616c616e63654f663a2061646472657373207a65726f206973206e6f74206160448201526c2076616c6964206f776e65725f60981b6064820152608401610639565b506001600160a01b03166000908152610134602052604090205490565b610f0b612163565b610f1560006121bd565b565b6000828152610132602052604090205482906001600160a01b0316610f4e5760405162461bcd60e51b8152600401610639906131e3565b836040518060400160405280600b81526020016a7265766f6b65426164676560a81b815250600081604051602001610f86919061340f565b60408051808303601f19018152908290526101355463b2a0cb6b60e01b83526004830186905290925033916001600160a01b039091169063b2a0cb6b90602401602060405180830381865afa158015610fe3573d6000803e3d6000fd5b505050506040513d601f19601f82011682018060405250810190611007919061335a565b6001600160a01b03161481906110305760405162461bcd60e51b81526004016106399190612bc6565b50600886901c60009081526101376020526040902054600160ff88161b16156110a65760405162461bcd60e51b815260206004820152602260248201527f7265766f6b6542616467653a20626164676520616c7265616479207265766f6b604482015261195960f21b6064820152608401610639565b600886901c6000908152610137602052604090208054600160ff89161b17905560405160ff861690339088907ffa784c48260e8db512de5f055a2f29eced211a7b3bd6338058b095ada7354cee90600090a450505050505050565b6000818152610132602052604090205481906001600160a01b03166111385760405162461bcd60e51b8152600401610639906131e3565b826040518060400160405280600e81526020016d7265696e7374617465426164676560901b815250600081604051602001611173919061340f565b60408051808303601f19018152908290526101355463b2a0cb6b60e01b83526004830186905290925033916001600160a01b039091169063b2a0cb6b90602401602060405180830381865afa1580156111d0573d6000803e3d6000fd5b505050506040513d601f19601f820116820180604052508101906111f4919061335a565b6001600160a01b031614819061121d5760405162461bcd60e51b81526004016106399190612bc6565b50600885901c60009081526101376020526040902054600160ff87161b166112915760405162461bcd60e51b815260206004820152602160248201527f7265696e737461746542616467653a206261646765206e6f74207265766f6b656044820152601960fa1b6064820152608401610639565b600885901c600090815261013760205260408082208054600160ff8a161b1916905551339187917f7f8cf9ecf2a5225948f8a1601709cedc8471c52ee75a8174c9845c29c99ed9a29190a3505050505050565b6060610131805461057f906131af565b60006001600160a01b038616330361134e5760405162461bcd60e51b815260206004820152601b60248201527f74616b653a2063616e6e6f742074616b652066726f6d2073656c6600000000006044820152606401610639565b600061135e33888888888861220f565b61013554604051633664a8e960e01b81529192506000916001600160a01b0390911690633664a8e990611397908a908a90600401613312565b602060405180830381865afa1580156113b4573d6000803e3d6000fd5b505050506040513d601f19601f820116820180604052508101906113d89190613341565b6101355460405163b2a0cb6b60e01b8152600481018390529192506000916001600160a01b039091169063b2a0cb6b90602401602060405180830381865afa158015611428573d6000803e3d6000fd5b505050506040513d601f19601f8201168201806040525081019061144c919061335a565b9050886001600160a01b0316816001600160a01b0316146114ab5760405162461bcd60e51b81526020600482015260196024820152783a30b5b29d103ab730baba3437b934bd32b21034b9b9bab2b960391b6044820152606401610639565b60006114ef338a8a8080601f016020809104026020016040519081016040528093929190818152602001838380828437600092019190915250889250611e1b915050565b600885901c600090815261012f602052604090208054600160ff88161b1790559050600081815261013660205260409020939093555090979650505050505050565b60008282604051602001611546929190613485565b60405160208183030381529060405280519060200120905092915050565b61156c612163565b60008151116115cc5760405162461bcd60e51b815260206004820152602660248201527f726566726573684d657461646174613a206e6f207370656320757269732070726044820152651bdd9a59195960d21b6064820152608401610639565b7f2231d988b1a75dccab13dee3564b71a551900e822e94177a96f19561890c0fd581336040516115fd9291906134b1565b60405180910390a150565b611610612163565b61013580546001600160a01b0319166001600160a01b0392909216919091179055565b600081815261013260205260409020546060906001600160a01b031661169b5760405162461bcd60e51b815260206004820152601d60248201527f746f6b656e5552493a20746f6b656e20646f65736e27742065786973740000006044820152606401610639565b60008281526101336020526040902080546116b5906131af565b80601f01602080910402602001604051908101604052809291908181526020018280546116e1906131af565b801561172e5780601f106117035761010080835404028352916020019161172e565b820191906000526020600020905b81548152906001019060200180831161171157829003601f168201915b50505050509050919050565b6000818152610132602052604090205481906001600160a01b03166117715760405162461bcd60e51b8152600401610639906131e3565b600082815261013260205260409020546001600160a01b031633146117d85760405162461bcd60e51b815260206004820152601d60248201527f756e65717569703a2073656e646572206d757374206265206f776e65720000006044820152606401610639565b60008281526101366020908152604080832054600881901c845261012f9092529091208054600160ff84161b19169055611811836122f5565b505050565b600054610100900460ff16158080156118365750600054600160ff909116105b806118505750303b158015611850575060005460ff166001145b6118b35760405162461bcd60e51b815260206004820152602e60248201527f496e697469616c697a61626c653a20636f6e747261637420697320616c72656160448201526d191e481a5b9a5d1a585b1a5e995960921b6064820152608401610639565b6000805460ff1916600117905580156118d6576000805461ff0019166101001790555b6101306118e3878261356c565b506101316118f1868261356c565b5061013580546001600160a01b0319166001600160a01b0384161790556119166123af565b61191e6123d6565b6119288685612405565b6119306123af565b61193983611c0b565b801561197f576000805461ff0019169055604051600181527f7f26b83ff96e1f2b6a682f133852f6798a09c465da95921460cefb38474024989060200160405180910390a15b505050505050565b6000807fe76a195fbe43f0eaa611595069f780493db2202a1cc4b2d7d44b47069812998a868686866040516119bd92919061362b565b6040519081900381206119f5949392916020019384526001600160a01b03928316602085015291166040830152606082015260800190565b604051602081830303815290604052805190602001209050611a1681612436565b9695505050505050565b60006001600160a01b0386163303611a7a5760405162461bcd60e51b815260206004820152601960248201527f676976653a2063616e6e6f74206769766520746f2073656c66000000000000006044820152606401610639565b6000611a8a33888888888861220f565b61013554604051633664a8e960e01b81529192506000916001600160a01b0390911690633664a8e990611ac3908a908a90600401613312565b602060405180830381865afa158015611ae0573d6000803e3d6000fd5b505050506040513d601f19601f82011682018060405250810190611b049190613341565b6101355460405163b2a0cb6b60e01b8152600481018390529192506000916001600160a01b039091169063b2a0cb6b90602401602060405180830381865afa158015611b54573d6000803e3d6000fd5b505050506040513d601f19601f82011682018060405250810190611b78919061335a565b90506001600160a01b0381163314611bc75760405162461bcd60e51b815260206004820152601260248201527119da5d994e881d5b985d5d1a1bdc9a5e995960721b6044820152606401610639565b60006114ef8a8a8a8080601f016020809104026020016040519081016040528093929190818152602001838380828437600092019190915250889250611e1b915050565b611c13612163565b6001600160a01b038116611c785760405162461bcd60e51b815260206004820152602660248201527f4f776e61626c653a206e6577206f776e657220697320746865207a65726f206160448201526564647265737360d01b6064820152608401610639565b6109c1816121bd565b600080611c9089898989611987565b905080600184604001516002811115611cab57611cab6132e1565b03611d3b576040516bffffffffffffffffffffffff1960608c901b166020820152600090603401604051602081830303815290604052805190602001209050611cfd8560200151866000015183612449565b611d395760405162461bcd60e51b815260206004820152600d60248201526c34b73b30b634b210383937b7b360991b6044820152606401610639565b505b611d7c898388888080601f01602080910402602001604051908101604052809392919081815260200183838082843760009201919091525061245f92505050565b611d985760405162461bcd60e51b81526004016106399061363b565b600881901c600090815261012f6020526040902054600160ff83161b1615611e0e5760405162461bcd60e51b815260206004820152602360248201527f6e657753616665436865636b41677265656d656e743a20616c726561647920756044820152621cd95960ea1b6064820152608401610639565b9998505050505050505050565b600080611e288585611531565b9050806000849003611e7c5760405162461bcd60e51b815260206004820152601c60248201527f6d696e743a2073706563206973206e6f742072656769737465726564000000006044820152606401610639565b600081815261013260205260409020546001600160a01b031615611ed95760405162461bcd60e51b81526020600482015260146024820152736d696e743a20746f6b656e49442065786973747360601b6044820152606401610639565b6001600160a01b038616600090815261013460205260408120805460019290611f03908490613696565b909155505060008181526101326020908152604080832080546001600160a01b0319166001600160a01b038b161790556101339091529020611f45868261356c565b5060405181906001600160a01b038816906000907fddf252ad1be2c89b69c2b068fc378daa952ba7f163c4a11628f55a4df523b3ef908290a46101355460405163fb74926160e01b815260048101839052602481018690526001600160a01b039091169063fb74926190604401600060405180830381600087803b158015611fcc57600080fd5b505af1158015611fe0573d6000803e3d6000fd5b50929450505050505b9392505050565b6109c1612163565b7f4910fdfa16fed3260ed0e7147f7cc6da11a60208b5b9406d12a635614ffd91435460ff161561202b57611811836125a0565b826001600160a01b03166352d1902d6040518163ffffffff1660e01b8152600401602060405180830381865afa925050508015612085575060408051601f3d908101601f1916820190925261208291810190613341565b60015b6120e85760405162461bcd60e51b815260206004820152602e60248201527f45524331393637557067726164653a206e657720696d706c656d656e7461746960448201526d6f6e206973206e6f74205555505360901b6064820152608401610639565b60008051602061376c83398151915281146121575760405162461bcd60e51b815260206004820152602960248201527f45524331393637557067726164653a20756e737570706f727465642070726f786044820152681a58589b195555525160ba1b6064820152608401610639565b5061181183838361263c565b60c9546001600160a01b03163314610f155760405162461bcd60e51b815260206004820181905260248201527f4f776e61626c653a2063616c6c6572206973206e6f7420746865206f776e65726044820152606401610639565b60c980546001600160a01b038381166001600160a01b0319831681179093556040519116919082907f8be0079c531659141344cd1fd0a4f28419497f9722a3daafe3b4186f6b6457e090600090a35050565b60008061221e88888888611987565b9050612261878286868080601f01602080910402602001604051908101604052809392919081815260200183838082843760009201919091525061245f92505050565b61227d5760405162461bcd60e51b81526004016106399061363b565b600881901c600090815261012f60205260409020548190600160ff83161b16156122e95760405162461bcd60e51b815260206004820181905260248201527f73616665436865636b41677265656d656e743a20616c726561647920757365646044820152606401610639565b98975050505050505050565b600081815261013260209081526040808320546001600160a01b031680845261013490925282208054919260019261232e9084906136a9565b909155505060008281526101326020908152604080832080546001600160a01b0319169055610133909152812061236491612afe565b60008281526101366020526040808220829055518391906001600160a01b038416907fddf252ad1be2c89b69c2b068fc378daa952ba7f163c4a11628f55a4df523b3ef908390a45050565b600054610100900460ff16610f155760405162461bcd60e51b8152600401610639906136bc565b600054610100900460ff166123fd5760405162461bcd60e51b8152600401610639906136bc565b610f15612667565b600054610100900460ff1661242c5760405162461bcd60e51b8152600401610639906136bc565b610d6c8282612697565b60006105696124436126d8565b83612758565b600082612456858461277f565b14949350505050565b600080600061246e85856127cc565b90925090506000816004811115612487576124876132e1565b1480156124a55750856001600160a01b0316826001600160a01b0316145b156124b557600192505050611fe9565b600080876001600160a01b0316631626ba7e60e01b88886040516024016124dd929190613707565b60408051601f198184030181529181526020820180516001600160e01b03166001600160e01b031990941693909317909252905161251b9190613720565b600060405180830381855afa9150503d8060008114612556576040519150601f19603f3d011682016040523d82523d6000602084013e61255b565b606091505b509150915081801561256e575080516020145b80156122e957508051630b135d3f60e11b906125939083016020908101908401613341565b1498975050505050505050565b6001600160a01b0381163b61260d5760405162461bcd60e51b815260206004820152602d60248201527f455243313936373a206e657720696d706c656d656e746174696f6e206973206e60448201526c1bdd08184818dbdb9d1c9858dd609a1b6064820152608401610639565b60008051602061376c83398151915280546001600160a01b0319166001600160a01b0392909216919091179055565b6126458361283a565b6000825111806126525750805b1561181157612661838361287a565b50505050565b600054610100900460ff1661268e5760405162461bcd60e51b8152600401610639906136bc565b610f15336121bd565b600054610100900460ff166126be5760405162461bcd60e51b8152600401610639906136bc565b81516020928301208151919092012060fb9190915560fc55565b60006127537f8b73c3c69bb8fe3d512ecc4cf759cc79239f7b179b0ffacaa9a75d522b39400f61270760fb5490565b60fc546040805160208101859052908101839052606081018290524660808201523060a082015260009060c0016040516020818303038152906040528051906020012090509392505050565b905090565b60405161190160f01b60208201526022810183905260428101829052600090606201611546565b600081815b84518110156127c4576127b0828683815181106127a3576127a361373c565b602002602001015161296e565b9150806127bc81613752565b915050612784565b509392505050565b60008082516041036128025760208301516040840151606085015160001a6127f68782858561299a565b94509450505050612833565b825160400361282b5760208301516040840151612820868383612a87565b935093505050612833565b506000905060025b9250929050565b612843816125a0565b6040516001600160a01b038216907fbc7cd75a20ee27fd9adebab32041f755214dbc6bffa90cc0225b39da2e5c2d3b90600090a250565b60606001600160a01b0383163b6128e25760405162461bcd60e51b815260206004820152602660248201527f416464726573733a2064656c65676174652063616c6c20746f206e6f6e2d636f6044820152651b9d1c9858dd60d21b6064820152608401610639565b600080846001600160a01b0316846040516128fd9190613720565b600060405180830381855af49150503d8060008114612938576040519150601f19603f3d011682016040523d82523d6000602084013e61293d565b606091505b5091509150612965828260405180606001604052806027815260200161378c60279139612ac0565b95945050505050565b600081831061298a576000828152602084905260409020611fe9565b5060009182526020526040902090565b6000807f7fffffffffffffffffffffffffffffff5d576e7357a4501ddfe92f46681b20a08311156129d15750600090506003612a7e565b8460ff16601b141580156129e957508460ff16601c14155b156129fa5750600090506004612a7e565b6040805160008082526020820180845289905260ff881692820192909252606081018690526080810185905260019060a0016020604051602081039080840390855afa158015612a4e573d6000803e3d6000fd5b5050604051601f1901519150506001600160a01b038116612a7757600060019250925050612a7e565b9150600090505b94509492505050565b6000806001600160ff1b03831681612aa460ff86901c601b613696565b9050612ab28782888561299a565b935093505050935093915050565b60608315612acf575081611fe9565b611fe98383815115612ae45781518083602001fd5b8060405162461bcd60e51b81526004016106399190612bc6565b508054612b0a906131af565b6000825580601f10612b1a575050565b601f0160209004906000526020600020908101906109c191905b80821115612b485760008155600101612b34565b5090565b600060208284031215612b5e57600080fd5b81356001600160e01b031981168114611fe957600080fd5b60005b83811015612b91578181015183820152602001612b79565b50506000910152565b60008151808452612bb2816020860160208601612b76565b601f01601f19169290920160200192915050565b602081526000611fe96020830184612b9a565b600060208284031215612beb57600080fd5b5035919050565b6001600160a01b03811681146109c157600080fd5b60008083601f840112612c1957600080fd5b5081356001600160401b03811115612c3057600080fd5b60208301915083602082850101111561283357600080fd5b60008060008060008060808789031215612c6157600080fd5b8635612c6c81612bf2565b955060208701356001600160401b0380821115612c8857600080fd5b612c948a838b01612c07565b90975095506040890135915080821115612cad57600080fd5b612cb98a838b01612c07565b90955093506060890135915080821115612cd257600080fd5b5087016060818a031215612ce557600080fd5b809150509295509295509295565b600060208284031215612d0557600080fd5b8135611fe981612bf2565b634e487b7160e01b600052604160045260246000fd5b604051606081016001600160401b0381118282101715612d4857612d48612d10565b60405290565b604051601f8201601f191681016001600160401b0381118282101715612d7657612d76612d10565b604052919050565b60006001600160401b03831115612d9757612d97612d10565b612daa601f8401601f1916602001612d4e565b9050828152838383011115612dbe57600080fd5b828260208301376000602084830101529392505050565b600082601f830112612de657600080fd5b611fe983833560208501612d7e565b60008060408385031215612e0857600080fd5b82356001600160401b03811115612e1e57600080fd5b612e2a85828601612dd5565b95602094909401359450505050565b60008060408385031215612e4c57600080fd5b8235612e5781612bf2565b915060208301356001600160401b03811115612e7257600080fd5b8301601f81018513612e8357600080fd5b612e9285823560208401612d7e565b9150509250929050565b600080600060608486031215612eb157600080fd5b8335925060208401359150604084013560ff81168114612ed057600080fd5b809150509250925092565b60008060408385031215612eee57600080fd5b50508035926020909101359150565b600080600080600060608688031215612f1557600080fd5b8535612f2081612bf2565b945060208601356001600160401b0380821115612f3c57600080fd5b612f4889838a01612c07565b90965094506040880135915080821115612f6157600080fd5b50612f6e88828901612c07565b969995985093965092949392505050565b60008060408385031215612f9257600080fd5b8235612f9d81612bf2565b915060208301356001600160401b03811115612fb857600080fd5b612e9285828601612dd5565b60006001600160401b03821115612fdd57612fdd612d10565b5060051b60200190565b60006020808385031215612ffa57600080fd5b82356001600160401b038082111561301157600080fd5b818501915085601f83011261302557600080fd5b813561303861303382612fc4565b612d4e565b81815260059190911b8301840190848101908883111561305757600080fd5b8585015b8381101561308f578035858111156130735760008081fd5b6130818b89838a0101612dd5565b84525091860191860161305b565b5098975050505050505050565b600080600080600060a086880312156130b457600080fd5b85356001600160401b03808211156130cb57600080fd5b6130d789838a01612dd5565b965060208801359150808211156130ed57600080fd5b6130f989838a01612dd5565b9550604088013591508082111561310f57600080fd5b5061311c88828901612dd5565b935050606086013561312d81612bf2565b9150608086013561313d81612bf2565b809150509295509295909350565b6000806000806060858703121561316157600080fd5b843561316c81612bf2565b9350602085013561317c81612bf2565b925060408501356001600160401b0381111561319757600080fd5b6131a387828801612c07565b95989497509550505050565b600181811c908216806131c357607f821691505b60208210810361066357634e487b7160e01b600052602260045260246000fd5b6020808252818101527f746f6b656e4578697374733a20746f6b656e20646f65736e2774206578697374604082015260600190565b80356003811061322757600080fd5b919050565b60006060823603121561323e57600080fd5b613246612d26565b823581526020808401356001600160401b0381111561326457600080fd5b840136601f82011261327557600080fd5b803561328361303382612fc4565b81815260059190911b820183019083810190368311156132a257600080fd5b928401925b828410156132c0578335825292840192908401906132a7565b808587015250505050506132d660408401613218565b604082015292915050565b634e487b7160e01b600052602160045260246000fd5b60006020828403121561330957600080fd5b611fe982613218565b60208152816020820152818360408301376000818301604090810191909152601f909201601f19160101919050565b60006020828403121561335357600080fd5b5051919050565b60006020828403121561336c57600080fd5b8151611fe981612bf2565b6020808252602c908201527f46756e6374696f6e206d7573742062652063616c6c6564207468726f7567682060408201526b19195b1959d85d1958d85b1b60a21b606082015260800190565b6020808252602c908201527f46756e6374696f6e206d7573742062652063616c6c6564207468726f7567682060408201526b6163746976652070726f787960a01b606082015260800190565b60008251613421818460208701612b76565b6d0e881d5b985d5d1a1bdc9a5e995960921b920191825250600e01919050565b60006020828403121561345357600080fd5b81518015158114611fe957600080fd5b6040815260006134766040830185612b9a565b90508260208301529392505050565b6001600160a01b03831681526040602082018190526000906134a990830184612b9a565b949350505050565b6000604082016040835280855180835260608501915060608160051b8601019250602080880160005b8381101561350857605f198887030185526134f6868351612b9a565b955093820193908201906001016134da565b50506001600160a01b03969096169490950193909352949350505050565b601f82111561181157600081815260208120601f850160051c8101602086101561354d5750805b601f850160051c820191505b8181101561197f57828155600101613559565b81516001600160401b0381111561358557613585612d10565b6135998161359384546131af565b84613526565b602080601f8311600181146135ce57600084156135b65750858301515b600019600386901b1c1916600185901b17855561197f565b600085815260208120601f198616915b828110156135fd578886015182559484019460019091019084016135de565b508582101561361b5787850151600019600388901b60f8161c191681555b5050505050600190811b01905550565b8183823760009101908152919050565b60208082526025908201527f73616665436865636b41677265656d656e743a20696e76616c6964207369676e604082015264617475726560d81b606082015260800190565b634e487b7160e01b600052601160045260246000fd5b8082018082111561056957610569613680565b8181038181111561056957610569613680565b6020808252602b908201527f496e697469616c697a61626c653a20636f6e7472616374206973206e6f74206960408201526a6e697469616c697a696e6760a81b606082015260800190565b8281526040602082015260006134a96040830184612b9a565b60008251613732818460208701612b76565b9190910192915050565b634e487b7160e01b600052603260045260246000fd5b60006001820161376457613764613680565b506001019056fe360894a13ba1a3210667c828492db98dca3e2076cc3735a920a3ca505d382bbc416464726573733a206c6f772d6c6576656c2064656c65676174652063616c6c206661696c6564a26469706673582212206f45bb1122d9b32a621012b32a299d7799d352439b9b80736aab3db4d81c230064736f6c63430008100033",
    "linkReferences": {}
  },
  "methodIdentifiers": {
    "balanceOf(address)": "70a08231",
    "createSpec(string,uint256)": "445a62b9",
    "getAgreementHash(address,address,string)": "e4992506",
    "getBadgeIdHash(address,string)": "a8cf8683",
    "getDataHolderAddress()": "635ad993",
    "getVoucherHash(uint256)": "3b363a09",
    "give(address,string,bytes)": "ec64948e",
    "initialize(string,string,string,address,address)": "d6d0faee",
    "isBadgeValid(uint256)": "0f4d9b01",
    "mintBadge(address,string,bytes,(bytes32,bytes32[],uint8))": "2c9c45a1",
    "name()": "06fdde03",
    "owner()": "8da5cb5b",
    "ownerOf(uint256)": "6352211e",
    "proxiableUUID()": "52d1902d",
    "refreshMetadata(string[])": "bdbdbcbf",
    "reinstateBadge(uint256,uint256)": "80956c7e",
    "renounceOwnership()": "715018a6",
    "revokeBadge(uint256,uint256,uint8)": "7c402f8d",
    "setDataHolder(address)": "c0184112",
    "supportsInterface(bytes4)": "01ffc9a7",
    "symbol()": "95d89b41",
    "take(address,string,bytes)": "a3947803",
    "tokenURI(uint256)": "c87b56dd",
    "transferOwnership(address)": "f2fde38b",
    "unequip(uint256)": "d179e3d0",
    "upgradeTo(address)": "3659cfe6",
    "upgradeToAndCall(address,bytes)": "4f1ef286"
  },
  "id": 44
}