{
  "abi": [
    {
      "inputs": [],
      "stateMutability": "nonpayable",
      "type": "constructor"
    },
    {
      "anonymous": false,
      "inputs": [
        {
          "indexed": false,
          "internalType": "address",
          "name": "previousAdmin",
          "type": "address"
        },
        {
          "indexed": false,
          "internalType": "address",
          "name": "newAdmin",
          "type": "address"
        }
      ],
      "name": "AdminChanged",
      "type": "event"
    },
    {
      "anonymous": false,
      "inputs": [
        {
          "indexed": true,
          "internalType": "address",
          "name": "beacon",
          "type": "address"
        }
      ],
      "name": "BeaconUpgraded",
      "type": "event"
    },
    {
      "anonymous": false,
      "inputs": [
        {
          "indexed": false,
          "internalType": "uint8",
          "name": "version",
          "type": "uint8"
        }
      ],
      "name": "Initialized",
      "type": "event"
    },
    {
      "anonymous": false,
      "inputs": [
        {
          "indexed": true,
          "internalType": "address",
          "name": "previousOwner",
          "type": "address"
        },
        {
          "indexed": true,
          "internalType": "address",
          "name": "newOwner",
          "type": "address"
        }
      ],
      "name": "OwnershipTransferred",
      "type": "event"
    },
    {
      "anonymous": false,
      "inputs": [
        {
          "indexed": true,
          "internalType": "address",
          "name": "to",
          "type": "address"
        },
        {
          "indexed": false,
          "internalType": "string",
          "name": "specUri",
          "type": "string"
        },
        {
          "indexed": true,
          "internalType": "uint256",
          "name": "raftTokenId",
          "type": "uint256"
        },
        {
          "indexed": true,
          "internalType": "address",
          "name": "raftAddress",
          "type": "address"
        }
      ],
      "name": "SpecCreated",
      "type": "event"
    },
    {
      "anonymous": false,
      "inputs": [
        {
          "indexed": true,
          "internalType": "address",
          "name": "from",
          "type": "address"
        },
        {
          "indexed": true,
          "internalType": "address",
          "name": "to",
          "type": "address"
        },
        {
          "indexed": true,
          "internalType": "uint256",
          "name": "tokenId",
          "type": "uint256"
        }
      ],
      "name": "Transfer",
      "type": "event"
    },
    {
      "anonymous": false,
      "inputs": [
        {
          "indexed": true,
          "internalType": "address",
          "name": "implementation",
          "type": "address"
        }
      ],
      "name": "Upgraded",
      "type": "event"
    },
    {
      "inputs": [
        {
          "internalType": "address",
          "name": "_owner",
          "type": "address"
        }
      ],
      "name": "balanceOf",
      "outputs": [
        {
          "internalType": "uint256",
          "name": "",
          "type": "uint256"
        }
      ],
      "stateMutability": "view",
      "type": "function"
    },
    {
      "inputs": [
        {
          "internalType": "string",
          "name": "_specUri",
          "type": "string"
        },
        {
          "internalType": "uint256",
          "name": "_raftTokenId",
          "type": "uint256"
        }
      ],
      "name": "createSpec",
      "outputs": [],
      "stateMutability": "nonpayable",
      "type": "function"
    },
    {
      "inputs": [
        {
          "internalType": "uint256",
          "name": "",
          "type": "uint256"
        }
      ],
      "name": "deactivatedBadges",
      "outputs": [
        {
          "internalType": "bool",
          "name": "",
          "type": "bool"
        }
      ],
      "stateMutability": "view",
      "type": "function"
    },
    {
      "inputs": [
        {
          "internalType": "address",
          "name": "_from",
          "type": "address"
        },
        {
          "internalType": "address",
          "name": "_to",
          "type": "address"
        },
        {
          "internalType": "string",
          "name": "_uri",
          "type": "string"
        }
      ],
      "name": "getAgreementHash",
      "outputs": [
        {
          "internalType": "bytes32",
          "name": "",
          "type": "bytes32"
        }
      ],
      "stateMutability": "view",
      "type": "function"
    },
    {
      "inputs": [
        {
          "internalType": "address",
          "name": "_to",
          "type": "address"
        },
        {
          "internalType": "string",
          "name": "_uri",
          "type": "string"
        }
      ],
      "name": "getBadgeIdHash",
      "outputs": [
        {
          "internalType": "bytes32",
          "name": "",
          "type": "bytes32"
        }
      ],
      "stateMutability": "view",
      "type": "function"
    },
    {
      "inputs": [],
      "name": "getDataHolderAddress",
      "outputs": [
        {
          "internalType": "address",
          "name": "",
          "type": "address"
        }
      ],
      "stateMutability": "view",
      "type": "function"
    },
    {
      "inputs": [
        {
          "internalType": "uint256",
          "name": "_tokenId",
          "type": "uint256"
        }
      ],
      "name": "getVoucherHash",
      "outputs": [
        {
          "internalType": "uint256",
          "name": "",
          "type": "uint256"
        }
      ],
      "stateMutability": "view",
      "type": "function"
    },
    {
      "inputs": [
        {
          "internalType": "address",
          "name": "_to",
          "type": "address"
        },
        {
          "internalType": "string",
          "name": "_uri",
          "type": "string"
        },
        {
          "internalType": "bytes",
          "name": "_signature",
          "type": "bytes"
        }
      ],
      "name": "give",
      "outputs": [
        {
          "internalType": "uint256",
          "name": "",
          "type": "uint256"
        }
      ],
      "stateMutability": "nonpayable",
      "type": "function"
    },
    {
      "inputs": [
        {
          "internalType": "string",
          "name": "_name",
          "type": "string"
        },
        {
          "internalType": "string",
          "name": "_symbol",
          "type": "string"
        },
        {
          "internalType": "string",
          "name": "_version",
          "type": "string"
        },
        {
          "internalType": "address",
          "name": "_nextOwner",
          "type": "address"
        },
        {
          "internalType": "address",
          "name": "_specDataHolderAddress",
          "type": "address"
        }
      ],
      "name": "initialize",
      "outputs": [],
      "stateMutability": "nonpayable",
      "type": "function"
    },
    {
      "inputs": [
        {
          "internalType": "uint256",
          "name": "_badgeId",
          "type": "uint256"
        },
        {
          "internalType": "uint256",
          "name": "timestamp",
          "type": "uint256"
        }
      ],
      "name": "isBadgeValid",
      "outputs": [
        {
          "internalType": "bool",
          "name": "",
          "type": "bool"
        }
      ],
      "stateMutability": "view",
      "type": "function"
    },
    {
      "inputs": [],
      "name": "name",
      "outputs": [
        {
          "internalType": "string",
          "name": "",
          "type": "string"
        }
      ],
      "stateMutability": "view",
      "type": "function"
    },
    {
      "inputs": [],
      "name": "owner",
      "outputs": [
        {
          "internalType": "address",
          "name": "",
          "type": "address"
        }
      ],
      "stateMutability": "view",
      "type": "function"
    },
    {
      "inputs": [
        {
          "internalType": "uint256",
          "name": "_tokenId",
          "type": "uint256"
        }
      ],
      "name": "ownerOf",
      "outputs": [
        {
          "internalType": "address",
          "name": "",
          "type": "address"
        }
      ],
      "stateMutability": "view",
      "type": "function"
    },
    {
      "inputs": [],
      "name": "proxiableUUID",
      "outputs": [
        {
          "internalType": "bytes32",
          "name": "",
          "type": "bytes32"
        }
      ],
      "stateMutability": "view",
      "type": "function"
    },
    {
      "inputs": [
        {
          "internalType": "uint256",
          "name": "_raftTokenId",
          "type": "uint256"
        },
        {
          "internalType": "uint256",
          "name": "_badgeId",
          "type": "uint256"
        }
      ],
      "name": "reinstateBadge",
      "outputs": [],
      "stateMutability": "nonpayable",
      "type": "function"
    },
    {
      "inputs": [],
      "name": "renounceOwnership",
      "outputs": [],
      "stateMutability": "nonpayable",
      "type": "function"
    },
    {
      "inputs": [
        {
          "internalType": "uint256",
          "name": "_raftTokenId",
          "type": "uint256"
        },
        {
          "internalType": "uint256",
          "name": "_badgeId",
          "type": "uint256"
        }
      ],
      "name": "revokeBadge",
      "outputs": [],
      "stateMutability": "nonpayable",
      "type": "function"
    },
    {
      "inputs": [
        {
          "internalType": "address",
          "name": "_dataHolder",
          "type": "address"
        }
      ],
      "name": "setDataHolder",
      "outputs": [],
      "stateMutability": "nonpayable",
      "type": "function"
    },
    {
      "inputs": [
        {
          "internalType": "bytes4",
          "name": "_interfaceId",
          "type": "bytes4"
        }
      ],
      "name": "supportsInterface",
      "outputs": [
        {
          "internalType": "bool",
          "name": "",
          "type": "bool"
        }
      ],
      "stateMutability": "view",
      "type": "function"
    },
    {
      "inputs": [],
      "name": "symbol",
      "outputs": [
        {
          "internalType": "string",
          "name": "",
          "type": "string"
        }
      ],
      "stateMutability": "view",
      "type": "function"
    },
    {
      "inputs": [
        {
          "internalType": "address",
          "name": "_from",
          "type": "address"
        },
        {
          "internalType": "string",
          "name": "_uri",
          "type": "string"
        },
        {
          "internalType": "bytes",
          "name": "_signature",
          "type": "bytes"
        }
      ],
      "name": "take",
      "outputs": [
        {
          "internalType": "uint256",
          "name": "",
          "type": "uint256"
        }
      ],
      "stateMutability": "nonpayable",
      "type": "function"
    },
    {
      "inputs": [
        {
          "internalType": "uint256",
          "name": "_tokenId",
          "type": "uint256"
        }
      ],
      "name": "tokenURI",
      "outputs": [
        {
          "internalType": "string",
          "name": "",
          "type": "string"
        }
      ],
      "stateMutability": "view",
      "type": "function"
    },
    {
      "inputs": [
        {
          "internalType": "address",
          "name": "newOwner",
          "type": "address"
        }
      ],
      "name": "transferOwnership",
      "outputs": [],
      "stateMutability": "nonpayable",
      "type": "function"
    },
    {
      "inputs": [
        {
          "internalType": "uint256",
          "name": "_tokenId",
          "type": "uint256"
        }
      ],
      "name": "unequip",
      "outputs": [],
      "stateMutability": "nonpayable",
      "type": "function"
    },
    {
      "inputs": [
        {
          "internalType": "address",
          "name": "newImplementation",
          "type": "address"
        }
      ],
      "name": "upgradeTo",
      "outputs": [],
      "stateMutability": "nonpayable",
      "type": "function"
    },
    {
      "inputs": [
        {
          "internalType": "address",
          "name": "newImplementation",
          "type": "address"
        },
        {
          "internalType": "bytes",
          "name": "data",
          "type": "bytes"
        }
      ],
      "name": "upgradeToAndCall",
      "outputs": [],
      "stateMutability": "payable",
      "type": "function"
    }
  ],
  "bytecode": {
    "object": "0x60a0604052306080523480156200001557600080fd5b506200002062000026565b620000e8565b600054610100900460ff1615620000935760405162461bcd60e51b815260206004820152602760248201527f496e697469616c697a61626c653a20636f6e747261637420697320696e697469604482015266616c697a696e6760c81b606482015260840160405180910390fd5b60005460ff9081161015620000e6576000805460ff191660ff9081179091556040519081527f7f26b83ff96e1f2b6a682f133852f6798a09c465da95921460cefb38474024989060200160405180910390a15b565b608051612a6f62000120600039600081816105e20152818161062b01528181610985015281816109c50152610a580152612a6f6000f3fe6080604052600436106101815760003560e01c80638da5cb5b116100d1578063c87b56dd1161008a578063e499250611610064578063e499250614610473578063e684893914610493578063ec64948e146104b3578063f2fde38b146104d357600080fd5b8063c87b56dd14610413578063d179e3d014610433578063d6d0faee1461045357600080fd5b80638da5cb5b1461034f57806395d89b411461036d578063a394780314610382578063a8cf8683146103a2578063afa38e51146103c2578063c0184112146103f357600080fd5b806352d1902d1161013e578063635ad99311610118578063635ad993146102db57806370a08231146102fa578063715018a61461031a57806380956c7e1461032f57600080fd5b806352d1902d1461026e5780635329ae0c146102835780636352211e146102a357600080fd5b806301ffc9a71461018657806306fdde03146101bb5780633659cfe6146101dd5780633b363a09146101ff578063445a62b91461023b5780634f1ef2861461025b575b600080fd5b34801561019257600080fd5b506101a66101a1366004612223565b6104f3565b60405190151581526020015b60405180910390f35b3480156101c757600080fd5b506101d0610545565b6040516101b2919061229d565b3480156101e957600080fd5b506101fd6101f83660046122c5565b6105d8565b005b34801561020b57600080fd5b5061022d61021a3660046122e2565b6000908152610136602052604090205490565b6040519081526020016101b2565b34801561024757600080fd5b506101fd6102563660046123a7565b6106c0565b6101fd6102693660046123ec565b61097b565b34801561027a57600080fd5b5061022d610a4b565b34801561028f57600080fd5b506101fd61029e366004612450565b610afe565b3480156102af57600080fd5b506102c36102be3660046122e2565b610bdf565b6040516001600160a01b0390911681526020016101b2565b3480156102e757600080fd5b50610135546001600160a01b03166102c3565b34801561030657600080fd5b5061022d6103153660046122c5565b610c45565b34801561032657600080fd5b506101fd610cd0565b34801561033b57600080fd5b506101fd61034a366004612450565b610ce4565b34801561035b57600080fd5b5060c9546001600160a01b03166102c3565b34801561037957600080fd5b506101d0610dc2565b34801561038e57600080fd5b5061022d61039d3660046124b4565b610dd2565b3480156103ae57600080fd5b5061022d6103bd366004612537565b610ebf565b3480156103ce57600080fd5b506101a66103dd3660046122e2565b6101376020526000908152604090205460ff1681565b3480156103ff57600080fd5b506101fd61040e3660046122c5565b610ef2565b34801561041f57600080fd5b506101d061042e3660046122e2565b610f1d565b34801561043f57600080fd5b506101fd61044e3660046122e2565b611024565b34801561045f57600080fd5b506101fd61046e36600461257d565b611129565b34801561047f57600080fd5b5061022d61048e36600461262d565b61129a565b34801561049f57600080fd5b506101a66104ae366004612450565b611333565b3480156104bf57600080fd5b5061022d6104ce3660046124b4565b61139f565b3480156104df57600080fd5b506101fd6104ee3660046122c5565b61144d565b60006001600160e01b03198216635b5e139f60e01b148061052457506001600160e01b031982166346bdd63960e11b145b8061053f57506301ffc9a760e01b6001600160e01b03198316145b92915050565b6060610130805461055590612692565b80601f016020809104026020016040519081016040528092919081815260200182805461058190612692565b80156105ce5780601f106105a3576101008083540402835291602001916105ce565b820191906000526020600020905b8154815290600101906020018083116105b157829003601f168201915b5050505050905090565b6001600160a01b037f00000000000000000000000000000000000000000000000000000000000000001630036106295760405162461bcd60e51b8152600401610620906126cc565b60405180910390fd5b7f00000000000000000000000000000000000000000000000000000000000000006001600160a01b03166106726000805160206129f3833981519152546001600160a01b031690565b6001600160a01b0316146106985760405162461bcd60e51b815260040161062090612718565b6106a1816114c3565b604080516000808252602082019092526106bd918391906114cb565b50565b6101355460405163b2a0cb6b60e01b81526004810183905233916001600160a01b03169063b2a0cb6b90602401602060405180830381865afa15801561070a573d6000803e3d6000fd5b505050506040513d601f19601f8201168201806040525081019061072e9190612764565b6001600160a01b0316146107845760405162461bcd60e51b815260206004820152601860248201527f637265617465537065633a20756e617574686f72697a656400000000000000006044820152606401610620565b61013554604051637e07102760e11b81526001600160a01b039091169063fc0e204e906107b590859060040161229d565b602060405180830381865afa1580156107d2573d6000803e3d6000fd5b505050506040513d601f19601f820116820180604052508101906107f69190612781565b1561084f5760405162461bcd60e51b815260206004820152602360248201527f637265617465537065633a207370656320616c726561647920726567697374656044820152621c995960ea1b6064820152608401610620565b6101355460405163addd190760e01b81526001600160a01b039091169063addd19079061088290859085906004016127a3565b600060405180830381600087803b15801561089c57600080fd5b505af11580156108b0573d6000803e3d6000fd5b5050505061013560009054906101000a90046001600160a01b03166001600160a01b03166334f876626040518163ffffffff1660e01b8152600401602060405180830381865afa158015610908573d6000803e3d6000fd5b505050506040513d601f19601f8201168201806040525081019061092c9190612764565b6001600160a01b031681336001600160a01b03167f68c7f8503283c455a4445b54a7d5c40656c8cae5cca0583c6d4be836984787008560405161096f919061229d565b60405180910390a45050565b6001600160a01b037f00000000000000000000000000000000000000000000000000000000000000001630036109c35760405162461bcd60e51b8152600401610620906126cc565b7f00000000000000000000000000000000000000000000000000000000000000006001600160a01b0316610a0c6000805160206129f3833981519152546001600160a01b031690565b6001600160a01b031614610a325760405162461bcd60e51b815260040161062090612718565b610a3b826114c3565b610a47828260016114cb565b5050565b6000306001600160a01b037f00000000000000000000000000000000000000000000000000000000000000001614610aeb5760405162461bcd60e51b815260206004820152603860248201527f555550535570677261646561626c653a206d757374206e6f742062652063616c60448201527f6c6564207468726f7567682064656c656761746563616c6c00000000000000006064820152608401610620565b506000805160206129f383398151915290565b6101355460405163b2a0cb6b60e01b81526004810184905233916001600160a01b03169063b2a0cb6b90602401602060405180830381865afa158015610b48573d6000803e3d6000fd5b505050506040513d601f19601f82011682018060405250810190610b6c9190612764565b6001600160a01b031614610bc25760405162461bcd60e51b815260206004820152601960248201527f7265766f6b6542616467653a20756e617574686f72697a6564000000000000006044820152606401610620565b600090815261013760205260409020805460ff1916600117905550565b600081815261013260205260408120546001600160a01b03168061053f5760405162461bcd60e51b815260206004820152601c60248201527f6f776e65724f663a20746f6b656e20646f65736e2774206578697374000000006044820152606401610620565b60006001600160a01b038216610cb35760405162461bcd60e51b815260206004820152602d60248201527f62616c616e63654f663a2061646472657373207a65726f206973206e6f74206160448201526c2076616c6964206f776e65725f60981b6064820152608401610620565b506001600160a01b03166000908152610134602052604090205490565b610cd861163b565b610ce26000611695565b565b6101355460405163b2a0cb6b60e01b81526004810184905233916001600160a01b03169063b2a0cb6b90602401602060405180830381865afa158015610d2e573d6000803e3d6000fd5b505050506040513d601f19601f82011682018060405250810190610d529190612764565b6001600160a01b031614610da85760405162461bcd60e51b815260206004820152601c60248201527f7265696e737461746542616467653a20756e617574686f72697a6564000000006044820152606401610620565b600090815261013760205260409020805460ff1916905550565b6060610131805461055590612692565b60006001600160a01b0386163303610e2c5760405162461bcd60e51b815260206004820152601b60248201527f74616b653a2063616e6e6f742074616b652066726f6d2073656c6600000000006044820152606401610620565b6000610e3c3388888888886116e7565b90506000610e803388888080601f01602080910402602001604051908101604052809392919081815260200183838082843760009201919091525061181192505050565b600883901c600090815261012f602052604090208054600160ff86161b1790559050600081815261013660205260409020919091559695505050505050565b60008282604051602001610ed49291906127c5565b60405160208183030381529060405280519060200120905092915050565b610efa61163b565b61013580546001600160a01b0319166001600160a01b0392909216919091179055565b600081815261013260205260409020546060906001600160a01b0316610f855760405162461bcd60e51b815260206004820152601d60248201527f746f6b656e5552493a20746f6b656e20646f65736e27742065786973740000006044820152606401610620565b6000828152610133602052604090208054610f9f90612692565b80601f0160208091040260200160405190810160405280929190818152602001828054610fcb90612692565b80156110185780601f10610fed57610100808354040283529160200191611018565b820191906000526020600020905b815481529060010190602001808311610ffb57829003601f168201915b50505050509050919050565b600081815261013260205260409020546001600160a01b03166110895760405162461bcd60e51b815260206004820152601c60248201527f756e65717569703a20746f6b656e20646f65736e2774206578697374000000006044820152606401610620565b600081815261013260205260409020546001600160a01b031633146110f05760405162461bcd60e51b815260206004820152601d60248201527f756e65717569703a2073656e646572206d757374206265206f776e65720000006044820152606401610620565b60008181526101366020908152604080832054600881901c845261012f9092529091208054600160ff84161b19169055610a4782611a5c565b600054610100900460ff16158080156111495750600054600160ff909116105b806111635750303b158015611163575060005460ff166001145b6111c65760405162461bcd60e51b815260206004820152602e60248201527f496e697469616c697a61626c653a20636f6e747261637420697320616c72656160448201526d191e481a5b9a5d1a585b1a5e995960921b6064820152608401610620565b6000805460ff1916600117905580156111e9576000805461ff0019166101001790555b6101306111f68782612837565b506101316112048682612837565b5061013580546001600160a01b0319166001600160a01b038416179055611229611b16565b611231611b3d565b61123b8685611b6c565b611243611b16565b61124c8361144d565b8015611292576000805461ff0019169055604051600181527f7f26b83ff96e1f2b6a682f133852f6798a09c465da95921460cefb38474024989060200160405180910390a15b505050505050565b6000807fe76a195fbe43f0eaa611595069f780493db2202a1cc4b2d7d44b47069812998a868686866040516112d09291906128f7565b604051908190038120611308949392916020019384526001600160a01b03928316602085015291166040830152606082015260800190565b60405160208183030381529060405280519060200120905061132981611b9d565b9695505050505050565b60008281526101376020908152604080832054815160ff90911615158184015281518082038401815290820190915280519101207fc5d2460186f7233c927e7db2dcc703c0e500b653ca82273b7bfad8045d85a470144283108180156113965750805b95945050505050565b60006001600160a01b03861633036113f95760405162461bcd60e51b815260206004820152601b60248201527f676976653a2063616e6e6f7420676976652066726f6d2073656c6600000000006044820152606401610620565b60006114093388888888886116e7565b90506000610e808888888080601f01602080910402602001604051908101604052809392919081815260200183838082843760009201919091525061181192505050565b61145561163b565b6001600160a01b0381166114ba5760405162461bcd60e51b815260206004820152602660248201527f4f776e61626c653a206e6577206f776e657220697320746865207a65726f206160448201526564647265737360d01b6064820152608401610620565b6106bd81611695565b6106bd61163b565b7f4910fdfa16fed3260ed0e7147f7cc6da11a60208b5b9406d12a635614ffd91435460ff1615611503576114fe83611bb0565b505050565b826001600160a01b03166352d1902d6040518163ffffffff1660e01b8152600401602060405180830381865afa92505050801561155d575060408051601f3d908101601f1916820190925261155a91810190612907565b60015b6115c05760405162461bcd60e51b815260206004820152602e60248201527f45524331393637557067726164653a206e657720696d706c656d656e7461746960448201526d6f6e206973206e6f74205555505360901b6064820152608401610620565b6000805160206129f3833981519152811461162f5760405162461bcd60e51b815260206004820152602960248201527f45524331393637557067726164653a20756e737570706f727465642070726f786044820152681a58589b195555525160ba1b6064820152608401610620565b506114fe838383611c4c565b60c9546001600160a01b03163314610ce25760405162461bcd60e51b815260206004820181905260248201527f4f776e61626c653a2063616c6c6572206973206e6f7420746865206f776e65726044820152606401610620565b60c980546001600160a01b038381166001600160a01b0319831681179093556040519116919082907f8be0079c531659141344cd1fd0a4f28419497f9722a3daafe3b4186f6b6457e090600090a35050565b6000806116f68888888861129a565b905060008160001c9050611741888387878080601f016020809104026020016040519081016040528093929190818152602001838380828437600092019190915250611c7792505050565b61179b5760405162461bcd60e51b815260206004820152602560248201527f73616665436865636b41677265656d656e743a20696e76616c6964207369676e604482015264617475726560d81b6064820152608401610620565b600881901c600090815261012f6020526040902054600160ff83161b16156118055760405162461bcd60e51b815260206004820181905260248201527f73616665436865636b41677265656d656e743a20616c726561647920757365646044820152606401610620565b98975050505050505050565b61013554604051633664a8e960e01b815260009182916001600160a01b0390911690633664a8e99061184790869060040161229d565b602060405180830381865afa158015611864573d6000803e3d6000fd5b505050506040513d601f19601f820116820180604052508101906118889190612907565b905060006118968585610ebf565b90508060008390036118ea5760405162461bcd60e51b815260206004820152601c60248201527f6d696e743a2073706563206973206e6f742072656769737465726564000000006044820152606401610620565b600081815261013260205260409020546001600160a01b0316156119475760405162461bcd60e51b81526020600482015260146024820152736d696e743a20746f6b656e49442065786973747360601b6044820152606401610620565b6001600160a01b038616600090815261013460205260408120805460019290611971908490612936565b909155505060008181526101326020908152604080832080546001600160a01b0319166001600160a01b038b1617905561013390915290206119b38682612837565b5060405181906001600160a01b038816906000907fddf252ad1be2c89b69c2b068fc378daa952ba7f163c4a11628f55a4df523b3ef908290a46101355460405163fb74926160e01b815260048101839052602481018590526001600160a01b039091169063fb74926190604401600060405180830381600087803b158015611a3a57600080fd5b505af1158015611a4e573d6000803e3d6000fd5b509298975050505050505050565b600081815261013260209081526040808320546001600160a01b0316808452610134909252822080549192600192611a95908490612949565b909155505060008281526101326020908152604080832080546001600160a01b03191690556101339091528120611acb916121d5565b60008281526101366020526040808220829055518391906001600160a01b038416907fddf252ad1be2c89b69c2b068fc378daa952ba7f163c4a11628f55a4df523b3ef908390a45050565b600054610100900460ff16610ce25760405162461bcd60e51b81526004016106209061295c565b600054610100900460ff16611b645760405162461bcd60e51b81526004016106209061295c565b610ce2611dbb565b600054610100900460ff16611b935760405162461bcd60e51b81526004016106209061295c565b610a478282611deb565b600061053f611baa611e2c565b83611eac565b6001600160a01b0381163b611c1d5760405162461bcd60e51b815260206004820152602d60248201527f455243313936373a206e657720696d706c656d656e746174696f6e206973206e60448201526c1bdd08184818dbdb9d1c9858dd609a1b6064820152608401610620565b6000805160206129f383398151915280546001600160a01b0319166001600160a01b0392909216919091179055565b611c5583611ed3565b600082511180611c625750805b156114fe57611c718383611f13565b50505050565b6000806000611c868585611ffe565b90925090506000816004811115611c9f57611c9f6129a7565b148015611cbd5750856001600160a01b0316826001600160a01b0316145b15611ccd57600192505050611db4565b600080876001600160a01b0316631626ba7e60e01b8888604051602401611cf59291906129bd565b60408051601f198184030181529181526020820180516001600160e01b03166001600160e01b0319909416939093179092529051611d3391906129d6565b600060405180830381855afa9150503d8060008114611d6e576040519150601f19603f3d011682016040523d82523d6000602084013e611d73565b606091505b5091509150818015611d86575080516020145b8015611dad57508051630b135d3f60e11b90611dab9083016020908101908401612907565b145b9450505050505b9392505050565b600054610100900460ff16611de25760405162461bcd60e51b81526004016106209061295c565b610ce233611695565b600054610100900460ff16611e125760405162461bcd60e51b81526004016106209061295c565b81516020928301208151919092012060fb9190915560fc55565b6000611ea77f8b73c3c69bb8fe3d512ecc4cf759cc79239f7b179b0ffacaa9a75d522b39400f611e5b60fb5490565b60fc546040805160208101859052908101839052606081018290524660808201523060a082015260009060c0016040516020818303038152906040528051906020012090509392505050565b905090565b60405161190160f01b60208201526022810183905260428101829052600090606201610ed4565b611edc81611bb0565b6040516001600160a01b038216907fbc7cd75a20ee27fd9adebab32041f755214dbc6bffa90cc0225b39da2e5c2d3b90600090a250565b60606001600160a01b0383163b611f7b5760405162461bcd60e51b815260206004820152602660248201527f416464726573733a2064656c65676174652063616c6c20746f206e6f6e2d636f6044820152651b9d1c9858dd60d21b6064820152608401610620565b600080846001600160a01b031684604051611f9691906129d6565b600060405180830381855af49150503d8060008114611fd1576040519150601f19603f3d011682016040523d82523d6000602084013e611fd6565b606091505b50915091506113968282604051806060016040528060278152602001612a136027913961206c565b60008082516041036120345760208301516040840151606085015160001a61202887828585612085565b94509450505050612065565b825160400361205d5760208301516040840151612052868383612172565b935093505050612065565b506000905060025b9250929050565b6060831561207b575081611db4565b611db483836121ab565b6000807f7fffffffffffffffffffffffffffffff5d576e7357a4501ddfe92f46681b20a08311156120bc5750600090506003612169565b8460ff16601b141580156120d457508460ff16601c14155b156120e55750600090506004612169565b6040805160008082526020820180845289905260ff881692820192909252606081018690526080810185905260019060a0016020604051602081039080840390855afa158015612139573d6000803e3d6000fd5b5050604051601f1901519150506001600160a01b03811661216257600060019250925050612169565b9150600090505b94509492505050565b6000806001600160ff1b0383168161218f60ff86901c601b612936565b905061219d87828885612085565b935093505050935093915050565b8151156121bb5781518083602001fd5b8060405162461bcd60e51b8152600401610620919061229d565b5080546121e190612692565b6000825580601f106121f1575050565b601f0160209004906000526020600020908101906106bd91905b8082111561221f576000815560010161220b565b5090565b60006020828403121561223557600080fd5b81356001600160e01b031981168114611db457600080fd5b60005b83811015612268578181015183820152602001612250565b50506000910152565b6000815180845261228981602086016020860161224d565b601f01601f19169290920160200192915050565b602081526000611db46020830184612271565b6001600160a01b03811681146106bd57600080fd5b6000602082840312156122d757600080fd5b8135611db4816122b0565b6000602082840312156122f457600080fd5b5035919050565b634e487b7160e01b600052604160045260246000fd5b600067ffffffffffffffff8084111561232c5761232c6122fb565b604051601f8501601f19908116603f01168101908282118183101715612354576123546122fb565b8160405280935085815286868601111561236d57600080fd5b858560208301376000602087830101525050509392505050565b600082601f83011261239857600080fd5b611db483833560208501612311565b600080604083850312156123ba57600080fd5b823567ffffffffffffffff8111156123d157600080fd5b6123dd85828601612387565b95602094909401359450505050565b600080604083850312156123ff57600080fd5b823561240a816122b0565b9150602083013567ffffffffffffffff81111561242657600080fd5b8301601f8101851361243757600080fd5b61244685823560208401612311565b9150509250929050565b6000806040838503121561246357600080fd5b50508035926020909101359150565b60008083601f84011261248457600080fd5b50813567ffffffffffffffff81111561249c57600080fd5b60208301915083602082850101111561206557600080fd5b6000806000806000606086880312156124cc57600080fd5b85356124d7816122b0565b9450602086013567ffffffffffffffff808211156124f457600080fd5b61250089838a01612472565b9096509450604088013591508082111561251957600080fd5b5061252688828901612472565b969995985093965092949392505050565b6000806040838503121561254a57600080fd5b8235612555816122b0565b9150602083013567ffffffffffffffff81111561257157600080fd5b61244685828601612387565b600080600080600060a0868803121561259557600080fd5b853567ffffffffffffffff808211156125ad57600080fd5b6125b989838a01612387565b965060208801359150808211156125cf57600080fd5b6125db89838a01612387565b955060408801359150808211156125f157600080fd5b506125fe88828901612387565b935050606086013561260f816122b0565b9150608086013561261f816122b0565b809150509295509295909350565b6000806000806060858703121561264357600080fd5b843561264e816122b0565b9350602085013561265e816122b0565b9250604085013567ffffffffffffffff81111561267a57600080fd5b61268687828801612472565b95989497509550505050565b600181811c908216806126a657607f821691505b6020821081036126c657634e487b7160e01b600052602260045260246000fd5b50919050565b6020808252602c908201527f46756e6374696f6e206d7573742062652063616c6c6564207468726f7567682060408201526b19195b1959d85d1958d85b1b60a21b606082015260800190565b6020808252602c908201527f46756e6374696f6e206d7573742062652063616c6c6564207468726f7567682060408201526b6163746976652070726f787960a01b606082015260800190565b60006020828403121561277657600080fd5b8151611db4816122b0565b60006020828403121561279357600080fd5b81518015158114611db457600080fd5b6040815260006127b66040830185612271565b90508260208301529392505050565b6001600160a01b03831681526040602082018190526000906127e990830184612271565b949350505050565b601f8211156114fe57600081815260208120601f850160051c810160208610156128185750805b601f850160051c820191505b8181101561129257828155600101612824565b815167ffffffffffffffff811115612851576128516122fb565b6128658161285f8454612692565b846127f1565b602080601f83116001811461289a57600084156128825750858301515b600019600386901b1c1916600185901b178555611292565b600085815260208120601f198616915b828110156128c9578886015182559484019460019091019084016128aa565b50858210156128e75787850151600019600388901b60f8161c191681555b5050505050600190811b01905550565b8183823760009101908152919050565b60006020828403121561291957600080fd5b5051919050565b634e487b7160e01b600052601160045260246000fd5b8082018082111561053f5761053f612920565b8181038181111561053f5761053f612920565b6020808252602b908201527f496e697469616c697a61626c653a20636f6e7472616374206973206e6f74206960408201526a6e697469616c697a696e6760a81b606082015260800190565b634e487b7160e01b600052602160045260246000fd5b8281526040602082015260006127e96040830184612271565b600082516129e881846020870161224d565b919091019291505056fe360894a13ba1a3210667c828492db98dca3e2076cc3735a920a3ca505d382bbc416464726573733a206c6f772d6c6576656c2064656c65676174652063616c6c206661696c6564a264697066735822122066e417cdad2b9947b921fe95baf3651a9d3266d8c29cb975447406a21fe1d8c064736f6c63430008100033",
    "linkReferences": {}
  },
  "methodIdentifiers": {
    "balanceOf(address)": "70a08231",
    "createSpec(string,uint256)": "445a62b9",
    "deactivatedBadges(uint256)": "afa38e51",
    "getAgreementHash(address,address,string)": "e4992506",
    "getBadgeIdHash(address,string)": "a8cf8683",
    "getDataHolderAddress()": "635ad993",
    "getVoucherHash(uint256)": "3b363a09",
    "give(address,string,bytes)": "ec64948e",
    "initialize(string,string,string,address,address)": "d6d0faee",
    "isBadgeValid(uint256,uint256)": "e6848939",
    "name()": "06fdde03",
    "owner()": "8da5cb5b",
    "ownerOf(uint256)": "6352211e",
    "proxiableUUID()": "52d1902d",
    "reinstateBadge(uint256,uint256)": "80956c7e",
    "renounceOwnership()": "715018a6",
    "revokeBadge(uint256,uint256)": "5329ae0c",
    "setDataHolder(address)": "c0184112",
    "supportsInterface(bytes4)": "01ffc9a7",
    "symbol()": "95d89b41",
    "take(address,string,bytes)": "a3947803",
    "tokenURI(uint256)": "c87b56dd",
    "transferOwnership(address)": "f2fde38b",
    "unequip(uint256)": "d179e3d0",
    "upgradeTo(address)": "3659cfe6",
    "upgradeToAndCall(address,bytes)": "4f1ef286"
  },
  "id": 43
}