{
  "abi": [
    {
      "inputs": [],
      "stateMutability": "nonpayable",
      "type": "constructor"
    },
    {
      "anonymous": false,
      "inputs": [
        {
          "indexed": false,
          "internalType": "address",
          "name": "previousAdmin",
          "type": "address"
        },
        {
          "indexed": false,
          "internalType": "address",
          "name": "newAdmin",
          "type": "address"
        }
      ],
      "name": "AdminChanged",
      "type": "event"
    },
    {
      "anonymous": false,
      "inputs": [
        {
          "indexed": true,
          "internalType": "uint256",
          "name": "tokenId",
          "type": "uint256"
        },
        {
          "indexed": true,
          "internalType": "address",
          "name": "from",
          "type": "address"
        }
      ],
      "name": "BadgeReinstated",
      "type": "event"
    },
    {
      "anonymous": false,
      "inputs": [
        {
          "indexed": true,
          "internalType": "uint256",
          "name": "tokenId",
          "type": "uint256"
        },
        {
          "indexed": true,
          "internalType": "address",
          "name": "from",
          "type": "address"
        },
        {
          "indexed": true,
          "internalType": "uint8",
          "name": "reason",
          "type": "uint8"
        }
      ],
      "name": "BadgeRevoked",
      "type": "event"
    },
    {
      "anonymous": false,
      "inputs": [
        {
          "indexed": true,
          "internalType": "address",
          "name": "beacon",
          "type": "address"
        }
      ],
      "name": "BeaconUpgraded",
      "type": "event"
    },
    {
      "anonymous": false,
      "inputs": [
        {
          "indexed": false,
          "internalType": "uint8",
          "name": "version",
          "type": "uint8"
        }
      ],
      "name": "Initialized",
      "type": "event"
    },
    {
      "anonymous": false,
      "inputs": [
        {
          "indexed": true,
          "internalType": "address",
          "name": "previousOwner",
          "type": "address"
        },
        {
          "indexed": true,
          "internalType": "address",
          "name": "newOwner",
          "type": "address"
        }
      ],
      "name": "OwnershipTransferred",
      "type": "event"
    },
    {
      "anonymous": false,
      "inputs": [
        {
          "indexed": false,
          "internalType": "string[]",
          "name": "specUris",
          "type": "string[]"
        },
        {
          "indexed": false,
          "internalType": "address",
          "name": "sender",
          "type": "address"
        }
      ],
      "name": "RefreshMetadata",
      "type": "event"
    },
    {
      "anonymous": false,
      "inputs": [
        {
          "indexed": true,
          "internalType": "address",
          "name": "to",
          "type": "address"
        },
        {
          "indexed": false,
          "internalType": "string",
          "name": "specUri",
          "type": "string"
        },
        {
          "indexed": true,
          "internalType": "uint256",
          "name": "raftTokenId",
          "type": "uint256"
        },
        {
          "indexed": true,
          "internalType": "address",
          "name": "raftAddress",
          "type": "address"
        }
      ],
      "name": "SpecCreated",
      "type": "event"
    },
    {
      "anonymous": false,
      "inputs": [
        {
          "indexed": true,
          "internalType": "address",
          "name": "from",
          "type": "address"
        },
        {
          "indexed": true,
          "internalType": "address",
          "name": "to",
          "type": "address"
        },
        {
          "indexed": true,
          "internalType": "uint256",
          "name": "tokenId",
          "type": "uint256"
        }
      ],
      "name": "Transfer",
      "type": "event"
    },
    {
      "anonymous": false,
      "inputs": [
        {
          "indexed": true,
          "internalType": "address",
          "name": "implementation",
          "type": "address"
        }
      ],
      "name": "Upgraded",
      "type": "event"
    },
    {
      "inputs": [
        {
          "internalType": "address[]",
          "name": "_recipients",
          "type": "address[]"
        },
        {
          "internalType": "string",
          "name": "_uri",
          "type": "string"
        }
      ],
      "name": "airdrop",
      "outputs": [],
      "stateMutability": "nonpayable",
      "type": "function"
    },
    {
      "inputs": [
        {
          "internalType": "address",
          "name": "_owner",
          "type": "address"
        }
      ],
      "name": "balanceOf",
      "outputs": [
        {
          "internalType": "uint256",
          "name": "",
          "type": "uint256"
        }
      ],
      "stateMutability": "view",
      "type": "function"
    },
    {
      "inputs": [
        {
          "internalType": "string",
          "name": "_specUri",
          "type": "string"
        },
        {
          "internalType": "uint256",
          "name": "_raftTokenId",
          "type": "uint256"
        }
      ],
      "name": "createSpec",
      "outputs": [],
      "stateMutability": "nonpayable",
      "type": "function"
    },
    {
      "inputs": [
        {
          "internalType": "address",
          "name": "_active",
          "type": "address"
        },
        {
          "internalType": "address",
          "name": "_passive",
          "type": "address"
        },
        {
          "internalType": "string",
          "name": "_uri",
          "type": "string"
        }
      ],
      "name": "getAgreementHash",
      "outputs": [
        {
          "internalType": "bytes32",
          "name": "",
          "type": "bytes32"
        }
      ],
      "stateMutability": "view",
      "type": "function"
    },
    {
      "inputs": [
        {
          "internalType": "address",
          "name": "_to",
          "type": "address"
        },
        {
          "internalType": "string",
          "name": "_uri",
          "type": "string"
        }
      ],
      "name": "getBadgeIdHash",
      "outputs": [
        {
          "internalType": "bytes32",
          "name": "",
          "type": "bytes32"
        }
      ],
      "stateMutability": "view",
      "type": "function"
    },
    {
      "inputs": [],
      "name": "getDataHolderAddress",
      "outputs": [
        {
          "internalType": "address",
          "name": "",
          "type": "address"
        }
      ],
      "stateMutability": "view",
      "type": "function"
    },
    {
      "inputs": [
        {
          "internalType": "address",
          "name": "_issuer",
          "type": "address"
        },
        {
          "internalType": "string",
          "name": "_uri",
          "type": "string"
        },
        {
          "internalType": "bytes32",
          "name": "_root",
          "type": "bytes32"
        }
      ],
      "name": "getMerkleAgreementHash",
      "outputs": [
        {
          "internalType": "bytes32",
          "name": "",
          "type": "bytes32"
        }
      ],
      "stateMutability": "view",
      "type": "function"
    },
    {
      "inputs": [
        {
          "internalType": "address",
          "name": "_requester",
          "type": "address"
        },
        {
          "internalType": "string",
          "name": "_uri",
          "type": "string"
        }
      ],
      "name": "getRequestHash",
      "outputs": [
        {
          "internalType": "bytes32",
          "name": "",
          "type": "bytes32"
        }
      ],
      "stateMutability": "view",
      "type": "function"
    },
    {
      "inputs": [
        {
          "internalType": "address",
          "name": "_to",
          "type": "address"
        },
        {
          "internalType": "string",
          "name": "_uri",
          "type": "string"
        },
        {
          "internalType": "bytes",
          "name": "_signature",
          "type": "bytes"
        }
      ],
      "name": "give",
      "outputs": [
        {
          "internalType": "uint256",
          "name": "",
          "type": "uint256"
        }
      ],
      "stateMutability": "nonpayable",
      "type": "function"
    },
    {
      "inputs": [
        {
          "internalType": "address",
          "name": "_to",
          "type": "address"
        },
        {
          "internalType": "string",
          "name": "_uri",
          "type": "string"
        },
        {
          "internalType": "bytes",
          "name": "_signature",
          "type": "bytes"
        }
      ],
      "name": "giveRequestedBadge",
      "outputs": [
        {
          "internalType": "uint256",
          "name": "",
          "type": "uint256"
        }
      ],
      "stateMutability": "nonpayable",
      "type": "function"
    },
    {
      "inputs": [
        {
          "internalType": "address[]",
          "name": "_recipients",
          "type": "address[]"
        },
        {
          "internalType": "string",
          "name": "_uri",
          "type": "string"
        },
        {
          "internalType": "bytes[]",
          "name": "_signatures",
          "type": "bytes[]"
        }
      ],
      "name": "giveRequestedBadgeToMany",
      "outputs": [],
      "stateMutability": "nonpayable",
      "type": "function"
    },
    {
      "inputs": [
        {
          "internalType": "address[]",
          "name": "_recipients",
          "type": "address[]"
        },
        {
          "internalType": "string",
          "name": "_uri",
          "type": "string"
        },
        {
          "internalType": "bytes[]",
          "name": "_signatures",
          "type": "bytes[]"
        }
      ],
      "name": "giveToMany",
      "outputs": [],
      "stateMutability": "nonpayable",
      "type": "function"
    },
    {
      "inputs": [
        {
          "internalType": "string",
          "name": "_name",
          "type": "string"
        },
        {
          "internalType": "string",
          "name": "_symbol",
          "type": "string"
        },
        {
          "internalType": "string",
          "name": "_version",
          "type": "string"
        },
        {
          "internalType": "address",
          "name": "_nextOwner",
          "type": "address"
        },
        {
          "internalType": "address",
          "name": "_specDataHolderAddress",
          "type": "address"
        }
      ],
      "name": "initialize",
      "outputs": [],
      "stateMutability": "nonpayable",
      "type": "function"
    },
    {
      "inputs": [
        {
          "internalType": "uint256",
          "name": "_badgeId",
          "type": "uint256"
        }
      ],
      "name": "isBadgeValid",
      "outputs": [
        {
          "internalType": "bool",
          "name": "",
          "type": "bool"
        }
      ],
      "stateMutability": "view",
      "type": "function"
    },
    {
      "inputs": [
        {
          "internalType": "address",
          "name": "_issuer",
          "type": "address"
        },
        {
          "internalType": "address",
          "name": "_recipient",
          "type": "address"
        },
        {
          "internalType": "string",
          "name": "_uri",
          "type": "string"
        },
        {
          "internalType": "bytes",
          "name": "_issuerSignature",
          "type": "bytes"
        },
        {
          "internalType": "bytes",
          "name": "_recipientSignature",
          "type": "bytes"
        },
        {
          "internalType": "bytes32",
          "name": "root",
          "type": "bytes32"
        },
        {
          "internalType": "bytes32[]",
          "name": "proof",
          "type": "bytes32[]"
        }
      ],
      "name": "merkleMintWithConsent",
      "outputs": [
        {
          "internalType": "uint256",
          "name": "",
          "type": "uint256"
        }
      ],
      "stateMutability": "nonpayable",
      "type": "function"
    },
    {
      "inputs": [
        {
          "internalType": "address",
          "name": "_from",
          "type": "address"
        },
        {
          "internalType": "string",
          "name": "_uri",
          "type": "string"
        },
        {
          "internalType": "bytes",
          "name": "_signature",
          "type": "bytes"
        },
        {
          "internalType": "bytes32",
          "name": "root",
          "type": "bytes32"
        },
        {
          "internalType": "bytes32[]",
          "name": "proof",
          "type": "bytes32[]"
        }
      ],
      "name": "merkleTake",
      "outputs": [
        {
          "internalType": "uint256",
          "name": "",
          "type": "uint256"
        }
      ],
      "stateMutability": "nonpayable",
      "type": "function"
    },
    {
      "inputs": [
        {
          "internalType": "address",
          "name": "_issuer",
          "type": "address"
        },
        {
          "internalType": "address",
          "name": "_recipient",
          "type": "address"
        },
        {
          "internalType": "string",
          "name": "_uri",
          "type": "string"
        },
        {
          "internalType": "bytes",
          "name": "_issuerSignature",
          "type": "bytes"
        },
        {
          "internalType": "bytes",
          "name": "_recipientSignature",
          "type": "bytes"
        }
      ],
      "name": "mintWithConsent",
      "outputs": [
        {
          "internalType": "uint256",
          "name": "",
          "type": "uint256"
        }
      ],
      "stateMutability": "nonpayable",
      "type": "function"
    },
    {
      "inputs": [],
      "name": "name",
      "outputs": [
        {
          "internalType": "string",
          "name": "",
          "type": "string"
        }
      ],
      "stateMutability": "view",
      "type": "function"
    },
    {
      "inputs": [],
      "name": "owner",
      "outputs": [
        {
          "internalType": "address",
          "name": "",
          "type": "address"
        }
      ],
      "stateMutability": "view",
      "type": "function"
    },
    {
      "inputs": [
        {
          "internalType": "uint256",
          "name": "_tokenId",
          "type": "uint256"
        }
      ],
      "name": "ownerOf",
      "outputs": [
        {
          "internalType": "address",
          "name": "",
          "type": "address"
        }
      ],
      "stateMutability": "view",
      "type": "function"
    },
    {
      "inputs": [],
      "name": "proxiableUUID",
      "outputs": [
        {
          "internalType": "bytes32",
          "name": "",
          "type": "bytes32"
        }
      ],
      "stateMutability": "view",
      "type": "function"
    },
    {
      "inputs": [
        {
          "internalType": "string[]",
          "name": "_specUris",
          "type": "string[]"
        }
      ],
      "name": "refreshMetadata",
      "outputs": [],
      "stateMutability": "nonpayable",
      "type": "function"
    },
    {
      "inputs": [
        {
          "internalType": "uint256",
          "name": "_raftTokenId",
          "type": "uint256"
        },
        {
          "internalType": "uint256",
          "name": "_badgeId",
          "type": "uint256"
        }
      ],
      "name": "reinstateBadge",
      "outputs": [],
      "stateMutability": "nonpayable",
      "type": "function"
    },
    {
      "inputs": [],
      "name": "renounceOwnership",
      "outputs": [],
      "stateMutability": "nonpayable",
      "type": "function"
    },
    {
      "inputs": [
        {
          "internalType": "uint256",
          "name": "_raftTokenId",
          "type": "uint256"
        },
        {
          "internalType": "uint256",
          "name": "_badgeId",
          "type": "uint256"
        },
        {
          "internalType": "uint8",
          "name": "_reason",
          "type": "uint8"
        }
      ],
      "name": "revokeBadge",
      "outputs": [],
      "stateMutability": "nonpayable",
      "type": "function"
    },
    {
      "inputs": [
        {
          "internalType": "address",
          "name": "_dataHolder",
          "type": "address"
        }
      ],
      "name": "setDataHolder",
      "outputs": [],
      "stateMutability": "nonpayable",
      "type": "function"
    },
    {
      "inputs": [
        {
          "internalType": "bytes4",
          "name": "_interfaceId",
          "type": "bytes4"
        }
      ],
      "name": "supportsInterface",
      "outputs": [
        {
          "internalType": "bool",
          "name": "",
          "type": "bool"
        }
      ],
      "stateMutability": "view",
      "type": "function"
    },
    {
      "inputs": [],
      "name": "symbol",
      "outputs": [
        {
          "internalType": "string",
          "name": "",
          "type": "string"
        }
      ],
      "stateMutability": "view",
      "type": "function"
    },
    {
      "inputs": [
        {
          "internalType": "address",
          "name": "_from",
          "type": "address"
        },
        {
          "internalType": "string",
          "name": "_uri",
          "type": "string"
        },
        {
          "internalType": "bytes",
          "name": "_signature",
          "type": "bytes"
        }
      ],
      "name": "take",
      "outputs": [
        {
          "internalType": "uint256",
          "name": "",
          "type": "uint256"
        }
      ],
      "stateMutability": "nonpayable",
      "type": "function"
    },
    {
      "inputs": [
        {
          "internalType": "uint256",
          "name": "_tokenId",
          "type": "uint256"
        }
      ],
      "name": "tokenURI",
      "outputs": [
        {
          "internalType": "string",
          "name": "",
          "type": "string"
        }
      ],
      "stateMutability": "view",
      "type": "function"
    },
    {
      "inputs": [
        {
          "internalType": "address",
          "name": "newOwner",
          "type": "address"
        }
      ],
      "name": "transferOwnership",
      "outputs": [],
      "stateMutability": "nonpayable",
      "type": "function"
    },
    {
      "inputs": [
        {
          "internalType": "uint256",
          "name": "_tokenId",
          "type": "uint256"
        }
      ],
      "name": "unequip",
      "outputs": [],
      "stateMutability": "nonpayable",
      "type": "function"
    },
    {
      "inputs": [
        {
          "internalType": "address",
          "name": "newImplementation",
          "type": "address"
        }
      ],
      "name": "upgradeTo",
      "outputs": [],
      "stateMutability": "nonpayable",
      "type": "function"
    },
    {
      "inputs": [
        {
          "internalType": "address",
          "name": "newImplementation",
          "type": "address"
        },
        {
          "internalType": "bytes",
          "name": "data",
          "type": "bytes"
        }
      ],
      "name": "upgradeToAndCall",
      "outputs": [],
      "stateMutability": "payable",
      "type": "function"
    }
  ],
  "bytecode": {
    "object": "0x60a0604052306080523480156200001557600080fd5b506200002062000026565b620000e8565b600054610100900460ff1615620000935760405162461bcd60e51b815260206004820152602760248201527f496e697469616c697a61626c653a20636f6e747261637420697320696e697469604482015266616c697a696e6760c81b606482015260840160405180910390fd5b60005460ff9081161015620000e6576000805460ff191660ff9081179091556040519081527f7f26b83ff96e1f2b6a682f133852f6798a09c465da95921460cefb38474024989060200160405180910390a15b565b6080516145ef62000120600039600081816108f501528181610935015281816111b6015281816111f6015261128901526145ef6000f3fe6080604052600436106101f95760003560e01c80638339a1331161010d578063bdbdbcbf116100a0578063d179e3d01161006f578063d179e3d0146105ac578063d6d0faee146105cc578063e4992506146105ec578063ec64948e1461060c578063f2fde38b1461062c57600080fd5b8063bdbdbcbf1461052c578063c01841121461054c578063c7a35fed1461056c578063c87b56dd1461058c57600080fd5b8063a3947803116100dc578063a3947803146104ac578063a8cf8683146104cc578063bc4b5447146104ec578063bd6645e41461050c57600080fd5b80638339a133146104395780638da5cb5b1461045957806395d89b4114610477578063a32c9c7a1461048c57600080fd5b80634a50b37611610190578063635ad9931161015f578063635ad993146103a557806370a08231146103c4578063715018a6146103e45780637c402f8d146103f957806380956c7e1461041957600080fd5b80634a50b376146103255780634f1ef2861461034557806352d1902d146103585780636352211e1461036d57600080fd5b80633659cfe6116101cc5780633659cfe6146102a357806339ae37c0146102c5578063445a62b9146102e55780634a086b531461030557600080fd5b806301ffc9a7146101fe57806306fdde03146102335780630f4d9b01146102555780631766c03814610275575b600080fd5b34801561020a57600080fd5b5061021e6102193660046136b3565b61064c565b60405190151581526020015b60405180910390f35b34801561023f57600080fd5b5061024861069e565b60405161022a919061372d565b34801561026157600080fd5b5061021e610270366004613740565b610731565b34801561028157600080fd5b506102956102903660046137bf565b610798565b60405190815260200161022a565b3480156102af57600080fd5b506102c36102be366004613841565b6108eb565b005b3480156102d157600080fd5b506102c36102e03660046138a2565b6109ca565b3480156102f157600080fd5b506102c361030036600461390d565b610b50565b34801561031157600080fd5b50610295610320366004613958565b610e0e565b34801561033157600080fd5b506102c3610340366004613a53565b610f74565b6102c3610353366004613b46565b6111ac565b34801561036457600080fd5b5061029561127c565b34801561037957600080fd5b5061038d610388366004613740565b61132f565b6040516001600160a01b03909116815260200161022a565b3480156103b157600080fd5b50610135546001600160a01b031661038d565b3480156103d057600080fd5b506102956103df366004613841565b611384565b3480156103f057600080fd5b506102c361140c565b34801561040557600080fd5b506102c3610414366004613bed565b611420565b34801561042557600080fd5b506102c3610434366004613c2c565b6115e4565b34801561044557600080fd5b50610295610454366004613c4e565b61179e565b34801561046557600080fd5b5060c9546001600160a01b031661038d565b34801561048357600080fd5b5061024861182b565b34801561049857600080fd5b506102c36104a7366004613ca2565b61183b565b3480156104b857600080fd5b506102956104c73660046137bf565b611a5c565b3480156104d857600080fd5b506102956104e7366004613c4e565b611ba6565b3480156104f857600080fd5b50610295610507366004613d3b565b611bdc565b34801561051857600080fd5b50610295610527366004613de5565b611e95565b34801561053857600080fd5b506102c3610547366004613e40565b611f0f565b34801561055857600080fd5b506102c3610567366004613841565b611fb2565b34801561057857600080fd5b50610295610587366004613e81565b611fdd565b34801561059857600080fd5b506102486105a7366004613740565b612221565b3480156105b857600080fd5b506102c36105c7366004613740565b612328565b3480156105d857600080fd5b506102c36105e7366004613f76565b6123cf565b3480156105f857600080fd5b50610295610607366004614035565b6125ae565b34801561061857600080fd5b506102956106273660046137bf565b61261e565b34801561063857600080fd5b506102c3610647366004613841565b61275b565b60006001600160e01b03198216635b5e139f60e01b148061067d57506001600160e01b031982166346bdd63960e11b145b8061069857506301ffc9a760e01b6001600160e01b03198316145b92915050565b606061013080546106ae9061408d565b80601f01602080910402602001604051908101604052809291908181526020018280546106da9061408d565b80156107275780601f106106fc57610100808354040283529160200191610727565b820191906000526020600020905b81548152906001019060200180831161070a57829003601f168201915b5050505050905090565b6000818152610132602052604081205482906001600160a01b03166107715760405162461bcd60e51b8152600401610768906140c1565b60405180910390fd5b600883901c60009081526101376020526040902054600160ff85161b161591505b50919050565b61013554604051633664a8e960e01b815260009182916001600160a01b0390911690633664a8e9906107d0908990899060040161411f565b602060405180830381865afa1580156107ed573d6000803e3d6000fd5b505050506040513d601f19601f820116820180604052508101906108119190614133565b6101355460405163e3ee9c4d60e01b8152600481018390523360248201529192506001600160a01b03169063e3ee9c4d90604401602060405180830381865afa158015610862573d6000803e3d6000fd5b505050506040513d601f19601f82011682018060405250810190610886919061414c565b6108d25760405162461bcd60e51b815260206004820181905260248201527f6769766552657175657374656442616467653a20756e617574686f72697a65646044820152606401610768565b6108e08787878787866127d1565b979650505050505050565b6001600160a01b037f00000000000000000000000000000000000000000000000000000000000000001630036109335760405162461bcd60e51b81526004016107689061416e565b7f00000000000000000000000000000000000000000000000000000000000000006001600160a01b031661097c600080516020614573833981519152546001600160a01b031690565b6001600160a01b0316146109a25760405162461bcd60e51b8152600401610768906141ba565b6109ab81612884565b604080516000808252602082019092526109c79183919061288c565b50565b61013554604051633664a8e960e01b81526000916001600160a01b031690633664a8e9906109fe908690869060040161411f565b602060405180830381865afa158015610a1b573d6000803e3d6000fd5b505050506040513d601f19601f82011682018060405250810190610a3f9190614133565b6101355460405163e3ee9c4d60e01b8152600481018390523360248201529192506001600160a01b03169063e3ee9c4d90604401602060405180830381865afa158015610a90573d6000803e3d6000fd5b505050506040513d601f19601f82011682018060405250810190610ab4919061414c565b610af85760405162461bcd60e51b8152602060048201526015602482015274185a5c991c9bdc0e881d5b985d5d1a1bdc9a5e9959605a1b6044820152606401610768565b60005b84811015610b4857610b35868683818110610b1857610b18614206565b9050602002016020810190610b2d9190613841565b8585856129fc565b5080610b4081614232565b915050610afb565b505050505050565b6101355460405163e3ee9c4d60e01b8152600481018390523360248201526001600160a01b039091169063e3ee9c4d90604401602060405180830381865afa158015610ba0573d6000803e3d6000fd5b505050506040513d601f19601f82011682018060405250810190610bc4919061414c565b610c105760405162461bcd60e51b815260206004820152601860248201527f637265617465537065633a20756e617574686f72697a656400000000000000006044820152606401610768565b61013554604051637e07102760e11b81526001600160a01b039091169063fc0e204e90610c43908690869060040161411f565b602060405180830381865afa158015610c60573d6000803e3d6000fd5b505050506040513d601f19601f82011682018060405250810190610c84919061414c565b15610cdd5760405162461bcd60e51b815260206004820152602360248201527f637265617465537065633a207370656320616c726561647920726567697374656044820152621c995960ea1b6064820152608401610768565b6101355460405163addd190760e01b81526001600160a01b039091169063addd190790610d129086908690869060040161424b565b600060405180830381600087803b158015610d2c57600080fd5b505af1158015610d40573d6000803e3d6000fd5b5050505061013560009054906101000a90046001600160a01b03166001600160a01b03166334f876626040518163ffffffff1660e01b8152600401602060405180830381865afa158015610d98573d6000803e3d6000fd5b505050506040513d601f19601f82011682018060405250810190610dbc919061426f565b6001600160a01b031681336001600160a01b03167f68c7f8503283c455a4445b54a7d5c40656c8cae5cca0583c6d4be836984787008686604051610e0192919061411f565b60405180910390a4505050565b6000610e2189338a8a8a8a8a8a8a612b7b565b61013554604051633664a8e960e01b81526000916001600160a01b031690633664a8e990610e55908c908c9060040161411f565b602060405180830381865afa158015610e72573d6000803e3d6000fd5b505050506040513d601f19601f82011682018060405250810190610e969190614133565b6101355460405163e3ee9c4d60e01b8152600481018390526001600160a01b038d8116602483015292935091169063e3ee9c4d90604401602060405180830381865afa158015610eea573d6000803e3d6000fd5b505050506040513d601f19601f82011682018060405250810190610f0e919061414c565b610f5a5760405162461bcd60e51b815260206004820152601860248201527f6d65726b6c6554616b653a20756e617574686f72697a656400000000000000006044820152606401610768565b610f66338a8a846129fc565b9a9950505050505050505050565b84518114610ff65760405162461bcd60e51b815260206004820152604360248201527f676976655265717565737465644261646765546f4d616e793a2072656369706960448201527f656e747320616e64207369676e617475726573206c656e677468206d69736d616064820152620e8c6d60eb1b608482015260a401610768565b61013554604051633664a8e960e01b81526000916001600160a01b031690633664a8e99061102a908890889060040161411f565b602060405180830381865afa158015611047573d6000803e3d6000fd5b505050506040513d601f19601f8201168201806040525081019061106b9190614133565b6101355460405163e3ee9c4d60e01b8152600481018390523360248201529192506001600160a01b03169063e3ee9c4d90604401602060405180830381865afa1580156110bc573d6000803e3d6000fd5b505050506040513d601f19601f820116820180604052508101906110e0919061414c565b61113b5760405162461bcd60e51b815260206004820152602660248201527f676976655265717565737465644261646765546f4d616e793a20756e617574686044820152651bdc9a5e995960d21b6064820152608401610768565b60005b86518110156111a35761119087828151811061115c5761115c614206565b6020026020010151878787878681811061117857611178614206565b905060200281019061118a919061428c565b876127d1565b508061119b81614232565b91505061113e565b50505050505050565b6001600160a01b037f00000000000000000000000000000000000000000000000000000000000000001630036111f45760405162461bcd60e51b81526004016107689061416e565b7f00000000000000000000000000000000000000000000000000000000000000006001600160a01b031661123d600080516020614573833981519152546001600160a01b031690565b6001600160a01b0316146112635760405162461bcd60e51b8152600401610768906141ba565b61126c82612884565b6112788282600161288c565b5050565b6000306001600160a01b037f0000000000000000000000000000000000000000000000000000000000000000161461131c5760405162461bcd60e51b815260206004820152603860248201527f555550535570677261646561626c653a206d757374206e6f742062652063616c60448201527f6c6564207468726f7567682064656c656761746563616c6c00000000000000006064820152608401610768565b5060008051602061457383398151915290565b6000818152610132602052604081205482906001600160a01b03166113665760405162461bcd60e51b8152600401610768906140c1565b5050600090815261013260205260409020546001600160a01b031690565b60006001600160a01b0382166113ef5760405162461bcd60e51b815260206004820152602a60248201527f62616c616e63654f663a2061646472657373283029206973206e6f742061207660448201526930b634b21037bbb732b960b11b6064820152608401610768565b506001600160a01b03166000908152610134602052604090205490565b611414612d08565b61141e6000612d62565b565b6000828152610132602052604090205482906001600160a01b03166114575760405162461bcd60e51b8152600401610768906140c1565b6101355460405163e3ee9c4d60e01b8152600481018690523360248201526001600160a01b039091169063e3ee9c4d90604401602060405180830381865afa1580156114a7573d6000803e3d6000fd5b505050506040513d601f19601f820116820180604052508101906114cb919061414c565b6115175760405162461bcd60e51b815260206004820152601960248201527f7265766f6b6542616467653a20756e617574686f72697a6564000000000000006044820152606401610768565b600883901c60009081526101376020526040902054600160ff85161b161561158c5760405162461bcd60e51b815260206004820152602260248201527f7265766f6b6542616467653a20626164676520616c7265616479207265766f6b604482015261195960f21b6064820152608401610768565b600883901c6000908152610137602052604090208054600160ff86161b17905560405160ff831690339085907ffa784c48260e8db512de5f055a2f29eced211a7b3bd6338058b095ada7354cee90600090a450505050565b6000818152610132602052604090205481906001600160a01b031661161b5760405162461bcd60e51b8152600401610768906140c1565b6101355460405163e3ee9c4d60e01b8152600481018590523360248201526001600160a01b039091169063e3ee9c4d90604401602060405180830381865afa15801561166b573d6000803e3d6000fd5b505050506040513d601f19601f8201168201806040525081019061168f919061414c565b6116db5760405162461bcd60e51b815260206004820152601c60248201527f7265696e737461746542616467653a20756e617574686f72697a6564000000006044820152606401610768565b600882901c60009081526101376020526040902054600160ff84161b1661174e5760405162461bcd60e51b815260206004820152602160248201527f7265696e737461746542616467653a206261646765206e6f74207265766f6b656044820152601960fa1b6064820152608401610768565b600882901c600090815261013760205260408082208054600160ff87161b1916905551339184917f7f8cf9ecf2a5225948f8a1601709cedc8471c52ee75a8174c9845c29c99ed9a29190a3505050565b60006118217fa1cd8d39eb877323a4bcf08188675058ee9a4534d4c79021300b3722aeda505d8585856040516117d59291906142d2565b6040519081900381206118069392916020019283526001600160a01b03919091166020830152604082015260600190565b60405160208183030381529060405280519060200120612db4565b90505b9392505050565b606061013180546106ae9061408d565b8481146118a85760405162461bcd60e51b815260206004820152603560248201527f67697665546f4d616e793a20726563697069656e747320616e64207369676e616044820152740e8eae4cae640d8cadccee8d040dad2e6dac2e8c6d605b1b6064820152608401610768565b61013554604051633664a8e960e01b81526000916001600160a01b031690633664a8e9906118dc908890889060040161411f565b602060405180830381865afa1580156118f9573d6000803e3d6000fd5b505050506040513d601f19601f8201168201806040525081019061191d9190614133565b6101355460405163e3ee9c4d60e01b8152600481018390523360248201529192506001600160a01b03169063e3ee9c4d90604401602060405180830381865afa15801561196e573d6000803e3d6000fd5b505050506040513d601f19601f82011682018060405250810190611992919061414c565b6119de5760405162461bcd60e51b815260206004820152601860248201527f67697665546f4d616e793a20756e617574686f72697a656400000000000000006044820152606401610768565b60005b86811015611a5257611a3f8888838181106119fe576119fe614206565b9050602002016020810190611a139190613841565b8787878786818110611a2757611a27614206565b9050602002810190611a39919061428c565b87612e02565b5080611a4a81614232565b9150506119e1565b5050505050505050565b6000611a6c338787878787612e0e565b61013554604051633664a8e960e01b81526000916001600160a01b031690633664a8e990611aa0908990899060040161411f565b602060405180830381865afa158015611abd573d6000803e3d6000fd5b505050506040513d601f19601f82011682018060405250810190611ae19190614133565b6101355460405163e3ee9c4d60e01b8152600481018390526001600160a01b038a8116602483015292935091169063e3ee9c4d90604401602060405180830381865afa158015611b35573d6000803e3d6000fd5b505050506040513d601f19601f82011682018060405250810190611b59919061414c565b611b9a5760405162461bcd60e51b81526020600482015260126024820152711d185ad94e881d5b985d5d1a1bdc9a5e995960721b6044820152606401610768565b6108e0338787846129fc565b6000838383604051602001611bbd939291906142e2565b6040516020818303038152906040528051906020012090509392505050565b61013554604051633664a8e960e01b815260009182916001600160a01b0390911690633664a8e990611c14908b908b9060040161411f565b602060405180830381865afa158015611c31573d6000803e3d6000fd5b505050506040513d601f19601f82011682018060405250810190611c559190614133565b6101355460405163e3ee9c4d60e01b8152600481018390526001600160a01b038d8116602483015292935091169063e3ee9c4d90604401602060405180830381865afa158015611ca9573d6000803e3d6000fd5b505050506040513d601f19601f82011682018060405250810190611ccd919061414c565b611d195760405162461bcd60e51b815260206004820152601d60248201527f6d696e7457697468436f6e73656e743a20756e617574686f72697a65640000006044820152606401610768565b6000611d278a8c8b8b6125ae565b9050611d6a8b8289898080601f016020809104026020016040519081016040528093929190818152602001838380828437600092019190915250612eb492505050565b611dc85760405162461bcd60e51b815260206004820152602960248201527f6d696e7457697468436f6e73656e743a20696e76616c696420697373756572206044820152687369676e617475726560b81b6064820152608401610768565b6000611dd58b8b8b61179e565b9050611e188b8288888080601f016020809104026020016040519081016040528093929190818152602001838380828437600092019190915250612eb492505050565b611e795760405162461bcd60e51b815260206004820152602c60248201527f6d696e7457697468436f6e73656e743a20696e76616c6964207265636970696560448201526b6e74207369676e617475726560a01b6064820152608401610768565b611e858b8b8b866129fc565b9c9b505050505050505050505050565b6000611f047f6d0d990916a9f9c9e0896e59ce7f5ddddff333d0c8772438ce004fa7719b164b868686604051611ecc9291906142d2565b60405190819003812061180693929187906020019384526001600160a01b039290921660208401526040830152606082015260800190565b90505b949350505050565b611f17612d08565b80611f735760405162461bcd60e51b815260206004820152602660248201527f726566726573684d657461646174613a206e6f207370656320757269732070726044820152651bdd9a59195960d21b6064820152608401610768565b7f2231d988b1a75dccab13dee3564b71a551900e822e94177a96f19561890c0fd5828233604051611fa693929190614307565b60405180910390a15050565b611fba612d08565b61013580546001600160a01b0319166001600160a01b0392909216919091179055565b61013554604051633664a8e960e01b815260009182916001600160a01b0390911690633664a8e990612015908e908e9060040161411f565b602060405180830381865afa158015612032573d6000803e3d6000fd5b505050506040513d601f19601f820116820180604052508101906120569190614133565b905061013560009054906101000a90046001600160a01b03166001600160a01b031663e3ee9c4d828f6040518363ffffffff1660e01b81526004016120ae9291909182526001600160a01b0316602082015260400190565b602060405180830381865afa1580156120cb573d6000803e3d6000fd5b505050506040513d601f19601f820116820180604052508101906120ef919061414c565b61213b5760405162461bcd60e51b815260206004820152601d60248201527f6d696e7457697468436f6e73656e743a20756e617574686f72697a65640000006044820152606401610768565b61214c8d8d8d8d8d8d8b8b8b612b7b565b60006121598d8d8d61179e565b905061219c8d828a8a8080601f016020809104026020016040519081016040528093929190818152602001838380828437600092019190915250612eb492505050565b6122035760405162461bcd60e51b815260206004820152603260248201527f6d65726b6c654d696e7457697468436f6e73656e743a20696e76616c696420726044820152716563697069656e74207369676e617475726560701b6064820152608401610768565b61220f8d8d8d856129fc565b9e9d5050505050505050505050505050565b600081815261013260205260409020546060906001600160a01b03166122895760405162461bcd60e51b815260206004820152601d60248201527f746f6b656e5552493a20746f6b656e20646f65736e27742065786973740000006044820152606401610768565b60008281526101336020526040902080546122a39061408d565b80601f01602080910402602001604051908101604052809291908181526020018280546122cf9061408d565b801561231c5780601f106122f15761010080835404028352916020019161231c565b820191906000526020600020905b8154815290600101906020018083116122ff57829003601f168201915b50505050509050919050565b6000818152610132602052604090205481906001600160a01b031661235f5760405162461bcd60e51b8152600401610768906140c1565b600082815261013260205260409020546001600160a01b031633146123c65760405162461bcd60e51b815260206004820152601d60248201527f756e65717569703a2073656e646572206d757374206265206f776e65720000006044820152606401610768565b61127882612ff6565b600054610100900460ff16158080156123ef5750600054600160ff909116105b806124095750303b158015612409575060005460ff166001145b61246c5760405162461bcd60e51b815260206004820152602e60248201527f496e697469616c697a61626c653a20636f6e747261637420697320616c72656160448201526d191e481a5b9a5d1a585b1a5e995960921b6064820152608401610768565b6000805460ff19166001179055801561248f576000805461ff0019166101001790555b61013061249d898b836143f6565b506101316124ac8789836143f6565b5061013580546001600160a01b0319166001600160a01b0384161790556124d16130a1565b6124d96130c8565b61254c89898080601f01602080910402602001604051908101604052809392919081815260200183838082843760009201919091525050604080516020601f8b0181900481028201810190925289815292508991508890819084018382808284376000920191909152506130f792505050565b6125546130a1565b61255d8361275b565b80156125a3576000805461ff0019169055604051600181527f7f26b83ff96e1f2b6a682f133852f6798a09c465da95921460cefb38474024989060200160405180910390a15b505050505050505050565b6000611f047fe76a195fbe43f0eaa611595069f780493db2202a1cc4b2d7d44b47069812998a868686866040516125e69291906142d2565b604051908190038120611806949392916020019384526001600160a01b03928316602085015291166040830152606082015260800190565b61013554604051633664a8e960e01b815260009182916001600160a01b0390911690633664a8e990612656908990899060040161411f565b602060405180830381865afa158015612673573d6000803e3d6000fd5b505050506040513d601f19601f820116820180604052508101906126979190614133565b6101355460405163e3ee9c4d60e01b8152600481018390523360248201529192506001600160a01b03169063e3ee9c4d90604401602060405180830381865afa1580156126e8573d6000803e3d6000fd5b505050506040513d601f19601f8201168201806040525081019061270c919061414c565b61274d5760405162461bcd60e51b815260206004820152601260248201527119da5d994e881d5b985d5d1a1bdc9a5e995960721b6044820152606401610768565b6108e0878787878786612e02565b612763612d08565b6001600160a01b0381166127c85760405162461bcd60e51b815260206004820152602660248201527f4f776e61626c653a206e6577206f776e657220697320746865207a65726f206160448201526564647265737360d01b6064820152608401610768565b6109c781612d62565b600061281e876127e289898961179e565b86868080601f016020809104026020016040519081016040528093929190818152602001838380828437600092019190915250612eb492505050565b6128785760405162461bcd60e51b815260206004820152602560248201527f6769766552657175657374656442616467653a20696e76616c6964207369676e604482015264617475726560d81b6064820152608401610768565b6108e0878787856129fc565b6109c7612d08565b7f4910fdfa16fed3260ed0e7147f7cc6da11a60208b5b9406d12a635614ffd91435460ff16156128c4576128bf83613128565b505050565b826001600160a01b03166352d1902d6040518163ffffffff1660e01b8152600401602060405180830381865afa92505050801561291e575060408051601f3d908101601f1916820190925261291b91810190614133565b60015b6129815760405162461bcd60e51b815260206004820152602e60248201527f45524331393637557067726164653a206e657720696d706c656d656e7461746960448201526d6f6e206973206e6f74205555505360901b6064820152608401610768565b60008051602061457383398151915281146129f05760405162461bcd60e51b815260206004820152602960248201527f45524331393637557067726164653a20756e737570706f727465642070726f786044820152681a58589b195555525160ba1b6064820152608401610768565b506128bf8383836131c4565b600080612a0a868686611ba6565b600081815261013260205260409020549091506001600160a01b031615612a6a5760405162461bcd60e51b81526020600482015260146024820152736d696e743a20746f6b656e49442065786973747360601b6044820152606401610768565b6001600160a01b038616600090815261013460205260408120805491612a8f83614232565b909155505060008181526101326020908152604080832080546001600160a01b0319166001600160a01b038b161790556101339091529020612ad28587836143f6565b5060405181906001600160a01b038816906000907fddf252ad1be2c89b69c2b068fc378daa952ba7f163c4a11628f55a4df523b3ef908290a46101355460405163fb74926160e01b815260048101839052602481018590526001600160a01b039091169063fb74926190604401600060405180830381600087803b158015612b5957600080fd5b505af1158015612b6d573d6000803e3d6000fd5b509298975050505050505050565b612bc789612b8b8b8a8a88611e95565b87878080601f016020809104026020016040519081016040528093929190818152602001838380828437600092019190915250612eb492505050565b612c275760405162461bcd60e51b815260206004820152602b60248201527f73616665436865636b4d65726b6c6541677265656d656e743a20696e76616c6960448201526a64207369676e617475726560a81b6064820152608401610768565b6040516bffffffffffffffffffffffff1960608a901b166020820152600090603401604051602081830303815290604052805190602001209050612ca18383808060200260200160405190810160405280939291908181526020018383602002808284376000920191909152508892508591506131ef9050565b612cfc5760405162461bcd60e51b815260206004820152602660248201527f73616665436865636b4d65726b6c6541677265656d656e743a20696e76616c6960448201526532103632b0b360d11b6064820152608401610768565b50505050505050505050565b60c9546001600160a01b0316331461141e5760405162461bcd60e51b815260206004820181905260248201527f4f776e61626c653a2063616c6c6572206973206e6f7420746865206f776e65726044820152606401610768565b60c980546001600160a01b038381166001600160a01b0319831681179093556040519116919082907f8be0079c531659141344cd1fd0a4f28419497f9722a3daafe3b4186f6b6457e090600090a35050565b6000610698612dc1613205565b8360405161190160f01b6020820152602281018390526042810182905260009060620160405160208183030381529060405280519060200120905092915050565b60006128783388888888885b612e5a85612e1e888888886125ae565b84848080601f016020809104026020016040519081016040528093929190818152602001838380828437600092019190915250612eb492505050565b610b485760405162461bcd60e51b815260206004820152602560248201527f73616665436865636b41677265656d656e743a20696e76616c6964207369676e604482015264617475726560d81b6064820152608401610768565b6000806000612ec38585613241565b90925090506000816004811115612edc57612edc6144b6565b148015612efa5750856001600160a01b0316826001600160a01b0316145b15612f0a57600192505050611824565b600080876001600160a01b0316631626ba7e60e01b8888604051602401612f329291906144cc565b60408051601f198184030181529181526020820180516001600160e01b03166001600160e01b0319909416939093179092529051612f7091906144e5565b600060405180830381855afa9150503d8060008114612fab576040519150601f19603f3d011682016040523d82523d6000602084013e612fb0565b606091505b5091509150818015612fc3575080516020145b8015612fea57508051630b135d3f60e11b90612fe89083016020908101908401614133565b145b98975050505050505050565b600081815261013260209081526040808320546001600160a01b031680845261013490925282208054919260019261302f908490614501565b909155505060008281526101326020908152604080832080546001600160a01b0319169055610133909152812061306591613665565b60405182906000906001600160a01b038416907fddf252ad1be2c89b69c2b068fc378daa952ba7f163c4a11628f55a4df523b3ef908390a45050565b600054610100900460ff1661141e5760405162461bcd60e51b815260040161076890614514565b600054610100900460ff166130ef5760405162461bcd60e51b815260040161076890614514565b61141e6132af565b600054610100900460ff1661311e5760405162461bcd60e51b815260040161076890614514565b61127882826132df565b6001600160a01b0381163b6131955760405162461bcd60e51b815260206004820152602d60248201527f455243313936373a206e657720696d706c656d656e746174696f6e206973206e60448201526c1bdd08184818dbdb9d1c9858dd609a1b6064820152608401610768565b60008051602061457383398151915280546001600160a01b0319166001600160a01b0392909216919091179055565b6131cd83613320565b6000825111806131da5750805b156128bf576131e98383613360565b50505050565b6000826131fc8584613454565b14949350505050565b600061323c7f8b73c3c69bb8fe3d512ecc4cf759cc79239f7b179b0ffacaa9a75d522b39400f61323460fb5490565b60fc546134a1565b905090565b60008082516041036132775760208301516040840151606085015160001a61326b878285856134d0565b945094505050506132a8565b82516040036132a057602083015160408401516132958683836135bd565b9350935050506132a8565b506000905060025b9250929050565b600054610100900460ff166132d65760405162461bcd60e51b815260040161076890614514565b61141e33612d62565b600054610100900460ff166133065760405162461bcd60e51b815260040161076890614514565b81516020928301208151919092012060fb9190915560fc55565b61332981613128565b6040516001600160a01b038216907fbc7cd75a20ee27fd9adebab32041f755214dbc6bffa90cc0225b39da2e5c2d3b90600090a250565b60606001600160a01b0383163b6133c85760405162461bcd60e51b815260206004820152602660248201527f416464726573733a2064656c65676174652063616c6c20746f206e6f6e2d636f6044820152651b9d1c9858dd60d21b6064820152608401610768565b600080846001600160a01b0316846040516133e391906144e5565b600060405180830381855af49150503d806000811461341e576040519150601f19603f3d011682016040523d82523d6000602084013e613423565b606091505b509150915061344b8282604051806060016040528060278152602001614593602791396135f6565b95945050505050565b600081815b8451811015613499576134858286838151811061347857613478614206565b602002602001015161360f565b91508061349181614232565b915050613459565b509392505050565b6040805160208101859052908101839052606081018290524660808201523060a082015260009060c001611bbd565b6000807f7fffffffffffffffffffffffffffffff5d576e7357a4501ddfe92f46681b20a083111561350757506000905060036135b4565b8460ff16601b1415801561351f57508460ff16601c14155b1561353057506000905060046135b4565b6040805160008082526020820180845289905260ff881692820192909252606081018690526080810185905260019060a0016020604051602081039080840390855afa158015613584573d6000803e3d6000fd5b5050604051601f1901519150506001600160a01b0381166135ad576000600192509250506135b4565b9150600090505b94509492505050565b6000806001600160ff1b038316816135da60ff86901c601b61455f565b90506135e8878288856134d0565b935093505050935093915050565b60608315613605575081611824565b611824838361363b565b600081831061362b576000828152602084905260409020611824565b5060009182526020526040902090565b81511561364b5781518083602001fd5b8060405162461bcd60e51b8152600401610768919061372d565b5080546136719061408d565b6000825580601f10613681575050565b601f0160209004906000526020600020908101906109c791905b808211156136af576000815560010161369b565b5090565b6000602082840312156136c557600080fd5b81356001600160e01b03198116811461182457600080fd5b60005b838110156136f85781810151838201526020016136e0565b50506000910152565b600081518084526137198160208601602086016136dd565b601f01601f19169290920160200192915050565b6020815260006118246020830184613701565b60006020828403121561375257600080fd5b5035919050565b6001600160a01b03811681146109c757600080fd5b803561377981613759565b919050565b60008083601f84011261379057600080fd5b5081356001600160401b038111156137a757600080fd5b6020830191508360208285010111156132a857600080fd5b6000806000806000606086880312156137d757600080fd5b85356137e281613759565b945060208601356001600160401b03808211156137fe57600080fd5b61380a89838a0161377e565b9096509450604088013591508082111561382357600080fd5b506138308882890161377e565b969995985093965092949392505050565b60006020828403121561385357600080fd5b813561182481613759565b60008083601f84011261387057600080fd5b5081356001600160401b0381111561388757600080fd5b6020830191508360208260051b85010111156132a857600080fd5b600080600080604085870312156138b857600080fd5b84356001600160401b03808211156138cf57600080fd5b6138db8883890161385e565b909650945060208701359150808211156138f457600080fd5b506139018782880161377e565b95989497509550505050565b60008060006040848603121561392257600080fd5b83356001600160401b0381111561393857600080fd5b6139448682870161377e565b909790965060209590950135949350505050565b60008060008060008060008060a0898b03121561397457600080fd5b883561397f81613759565b975060208901356001600160401b038082111561399b57600080fd5b6139a78c838d0161377e565b909950975060408b01359150808211156139c057600080fd5b6139cc8c838d0161377e565b909750955060608b0135945060808b01359150808211156139ec57600080fd5b506139f98b828c0161385e565b999c989b5096995094979396929594505050565b634e487b7160e01b600052604160045260246000fd5b604051601f8201601f191681016001600160401b0381118282101715613a4b57613a4b613a0d565b604052919050565b600080600080600060608688031215613a6b57600080fd5b85356001600160401b0380821115613a8257600080fd5b818801915088601f830112613a9657600080fd5b8135602082821115613aaa57613aaa613a0d565b8160051b613ab9828201613a23565b928352848101820192828101908d851115613ad357600080fd5b958301955b84871015613afd5786359250613aed83613759565b8282529583019590830190613ad8565b9a50505089013592505080821115613b1457600080fd5b613b2089838a0161377e565b90965094506040880135915080821115613b3957600080fd5b506138308882890161385e565b60008060408385031215613b5957600080fd5b8235613b6481613759565b91506020838101356001600160401b0380821115613b8157600080fd5b818601915086601f830112613b9557600080fd5b813581811115613ba757613ba7613a0d565b613bb9601f8201601f19168501613a23565b91508082528784828501011115613bcf57600080fd5b80848401858401376000848284010152508093505050509250929050565b600080600060608486031215613c0257600080fd5b8335925060208401359150604084013560ff81168114613c2157600080fd5b809150509250925092565b60008060408385031215613c3f57600080fd5b50508035926020909101359150565b600080600060408486031215613c6357600080fd5b8335613c6e81613759565b925060208401356001600160401b03811115613c8957600080fd5b613c958682870161377e565b9497909650939450505050565b60008060008060008060608789031215613cbb57600080fd5b86356001600160401b0380821115613cd257600080fd5b613cde8a838b0161385e565b90985096506020890135915080821115613cf757600080fd5b613d038a838b0161377e565b90965094506040890135915080821115613d1c57600080fd5b50613d2989828a0161385e565b979a9699509497509295939492505050565b60008060008060008060008060a0898b031215613d5757600080fd5b8835613d6281613759565b97506020890135613d7281613759565b965060408901356001600160401b0380821115613d8e57600080fd5b613d9a8c838d0161377e565b909850965060608b0135915080821115613db357600080fd5b613dbf8c838d0161377e565b909650945060808b0135915080821115613dd857600080fd5b506139f98b828c0161377e565b60008060008060608587031215613dfb57600080fd5b8435613e0681613759565b935060208501356001600160401b03811115613e2157600080fd5b613e2d8782880161377e565b9598909750949560400135949350505050565b60008060208385031215613e5357600080fd5b82356001600160401b03811115613e6957600080fd5b613e758582860161385e565b90969095509350505050565b600080600080600080600080600080600060e08c8e031215613ea257600080fd5b613eab8c61376e565b9a50613eb960208d0161376e565b99506001600160401b038060408e01351115613ed457600080fd5b613ee48e60408f01358f0161377e565b909a50985060608d0135811015613efa57600080fd5b613f0a8e60608f01358f0161377e565b909850965060808d0135811015613f2057600080fd5b613f308e60808f01358f0161377e565b909650945060a08d0135935060c08d0135811015613f4d57600080fd5b50613f5e8d60c08e01358e0161385e565b81935080925050509295989b509295989b9093969950565b60008060008060008060008060a0898b031215613f9257600080fd5b88356001600160401b0380821115613fa957600080fd5b613fb58c838d0161377e565b909a50985060208b0135915080821115613fce57600080fd5b613fda8c838d0161377e565b909850965060408b0135915080821115613ff357600080fd5b506140008b828c0161377e565b909550935050606089013561401481613759565b9150608089013561402481613759565b809150509295985092959890939650565b6000806000806060858703121561404b57600080fd5b843561405681613759565b9350602085013561406681613759565b925060408501356001600160401b0381111561408157600080fd5b6139018782880161377e565b600181811c908216806140a157607f821691505b60208210810361079257634e487b7160e01b600052602260045260246000fd5b6020808252818101527f746f6b656e4578697374733a20746f6b656e20646f65736e2774206578697374604082015260600190565b81835281816020850137506000828201602090810191909152601f909101601f19169091010190565b6020815260006118216020830184866140f6565b60006020828403121561414557600080fd5b5051919050565b60006020828403121561415e57600080fd5b8151801515811461182457600080fd5b6020808252602c908201527f46756e6374696f6e206d7573742062652063616c6c6564207468726f7567682060408201526b19195b1959d85d1958d85b1b60a21b606082015260800190565b6020808252602c908201527f46756e6374696f6e206d7573742062652063616c6c6564207468726f7567682060408201526b6163746976652070726f787960a01b606082015260800190565b634e487b7160e01b600052603260045260246000fd5b634e487b7160e01b600052601160045260246000fd5b6000600182016142445761424461421c565b5060010190565b60408152600061425f6040830185876140f6565b9050826020830152949350505050565b60006020828403121561428157600080fd5b815161182481613759565b6000808335601e198436030181126142a357600080fd5b8301803591506001600160401b038211156142bd57600080fd5b6020019150368190038213156132a857600080fd5b8183823760009101908152919050565b6001600160a01b0384168152604060208201819052600090611f0490830184866140f6565b6040808252810183905260006060600585901b8301810190830186835b8781101561439757858403605f190183528135368a9003601e1901811261434a57600080fd5b890160208181019135906001600160401b0382111561436857600080fd5b81360383131561437757600080fd5b6143828783856140f6565b96509485019493909301925050600101614324565b5050506001600160a01b03841660208401529050611f07565b601f8211156128bf57600081815260208120601f850160051c810160208610156143d75750805b601f850160051c820191505b81811015610b48578281556001016143e3565b6001600160401b0383111561440d5761440d613a0d565b6144218361441b835461408d565b836143b0565b6000601f841160018114614455576000851561443d5750838201355b600019600387901b1c1916600186901b1783556144af565b600083815260209020601f19861690835b828110156144865786850135825560209485019460019092019101614466565b50868210156144a35760001960f88860031b161c19848701351681555b505060018560011b0183555b5050505050565b634e487b7160e01b600052602160045260246000fd5b8281526040602082015260006118216040830184613701565b600082516144f78184602087016136dd565b9190910192915050565b818103818111156106985761069861421c565b6020808252602b908201527f496e697469616c697a61626c653a20636f6e7472616374206973206e6f74206960408201526a6e697469616c697a696e6760a81b606082015260800190565b808201808211156106985761069861421c56fe360894a13ba1a3210667c828492db98dca3e2076cc3735a920a3ca505d382bbc416464726573733a206c6f772d6c6576656c2064656c65676174652063616c6c206661696c6564a26469706673582212209c1f8ef73ff063b39cf74fdb25a0ee00c81d91b8597cc2d692c1ab5c29c3606564736f6c63430008100033",
    "linkReferences": {}
  },
  "methodIdentifiers": {
    "airdrop(address[],string)": "39ae37c0",
    "balanceOf(address)": "70a08231",
    "createSpec(string,uint256)": "445a62b9",
    "getAgreementHash(address,address,string)": "e4992506",
    "getBadgeIdHash(address,string)": "a8cf8683",
    "getDataHolderAddress()": "635ad993",
    "getMerkleAgreementHash(address,string,bytes32)": "bd6645e4",
    "getRequestHash(address,string)": "8339a133",
    "give(address,string,bytes)": "ec64948e",
    "giveRequestedBadge(address,string,bytes)": "1766c038",
    "giveRequestedBadgeToMany(address[],string,bytes[])": "4a50b376",
    "giveToMany(address[],string,bytes[])": "a32c9c7a",
    "initialize(string,string,string,address,address)": "d6d0faee",
    "isBadgeValid(uint256)": "0f4d9b01",
    "merkleMintWithConsent(address,address,string,bytes,bytes,bytes32,bytes32[])": "c7a35fed",
    "merkleTake(address,string,bytes,bytes32,bytes32[])": "4a086b53",
    "mintWithConsent(address,address,string,bytes,bytes)": "bc4b5447",
    "name()": "06fdde03",
    "owner()": "8da5cb5b",
    "ownerOf(uint256)": "6352211e",
    "proxiableUUID()": "52d1902d",
    "refreshMetadata(string[])": "bdbdbcbf",
    "reinstateBadge(uint256,uint256)": "80956c7e",
    "renounceOwnership()": "715018a6",
    "revokeBadge(uint256,uint256,uint8)": "7c402f8d",
    "setDataHolder(address)": "c0184112",
    "supportsInterface(bytes4)": "01ffc9a7",
    "symbol()": "95d89b41",
    "take(address,string,bytes)": "a3947803",
    "tokenURI(uint256)": "c87b56dd",
    "transferOwnership(address)": "f2fde38b",
    "unequip(uint256)": "d179e3d0",
    "upgradeTo(address)": "3659cfe6",
    "upgradeToAndCall(address,bytes)": "4f1ef286"
  },
  "id": 44
}