{
  "abi": [
    {
      "inputs": [],
      "stateMutability": "nonpayable",
      "type": "constructor"
    },
    {
      "anonymous": false,
      "inputs": [
        {
          "indexed": false,
          "internalType": "address",
          "name": "previousAdmin",
          "type": "address"
        },
        {
          "indexed": false,
          "internalType": "address",
          "name": "newAdmin",
          "type": "address"
        }
      ],
      "name": "AdminChanged",
      "type": "event"
    },
    {
      "anonymous": false,
      "inputs": [
        {
          "indexed": true,
          "internalType": "address",
          "name": "owner",
          "type": "address"
        },
        {
          "indexed": true,
          "internalType": "address",
          "name": "approved",
          "type": "address"
        },
        {
          "indexed": true,
          "internalType": "uint256",
          "name": "tokenId",
          "type": "uint256"
        }
      ],
      "name": "Approval",
      "type": "event"
    },
    {
      "anonymous": false,
      "inputs": [
        {
          "indexed": true,
          "internalType": "address",
          "name": "owner",
          "type": "address"
        },
        {
          "indexed": true,
          "internalType": "address",
          "name": "operator",
          "type": "address"
        },
        {
          "indexed": false,
          "internalType": "bool",
          "name": "approved",
          "type": "bool"
        }
      ],
      "name": "ApprovalForAll",
      "type": "event"
    },
    {
      "anonymous": false,
      "inputs": [
        {
          "indexed": true,
          "internalType": "address",
          "name": "beacon",
          "type": "address"
        }
      ],
      "name": "BeaconUpgraded",
      "type": "event"
    },
    {
      "anonymous": false,
      "inputs": [
        {
          "indexed": false,
          "internalType": "uint8",
          "name": "version",
          "type": "uint8"
        }
      ],
      "name": "Initialized",
      "type": "event"
    },
    {
      "anonymous": false,
      "inputs": [
        {
          "indexed": true,
          "internalType": "address",
          "name": "previousOwner",
          "type": "address"
        },
        {
          "indexed": true,
          "internalType": "address",
          "name": "newOwner",
          "type": "address"
        }
      ],
      "name": "OwnershipTransferred",
      "type": "event"
    },
    {
      "anonymous": false,
      "inputs": [
        {
          "indexed": true,
          "internalType": "address",
          "name": "to",
          "type": "address"
        },
        {
          "indexed": false,
          "internalType": "string",
          "name": "specUri",
          "type": "string"
        },
        {
          "indexed": true,
          "internalType": "uint256",
          "name": "raftTokenId",
          "type": "uint256"
        },
        {
          "indexed": true,
          "internalType": "address",
          "name": "raftAddress",
          "type": "address"
        }
      ],
      "name": "SpecCreated",
      "type": "event"
    },
    {
      "anonymous": false,
      "inputs": [
        {
          "indexed": true,
          "internalType": "address",
          "name": "from",
          "type": "address"
        },
        {
          "indexed": true,
          "internalType": "address",
          "name": "to",
          "type": "address"
        },
        {
          "indexed": true,
          "internalType": "uint256",
          "name": "tokenId",
          "type": "uint256"
        }
      ],
      "name": "Transfer",
      "type": "event"
    },
    {
      "anonymous": false,
      "inputs": [
        {
          "indexed": true,
          "internalType": "address",
          "name": "implementation",
          "type": "address"
        }
      ],
      "name": "Upgraded",
      "type": "event"
    },
    {
      "inputs": [
        {
          "internalType": "address",
          "name": "to",
          "type": "address"
        },
        {
          "internalType": "uint256",
          "name": "tokenId",
          "type": "uint256"
        }
      ],
      "name": "approve",
      "outputs": [],
      "stateMutability": "nonpayable",
      "type": "function"
    },
    {
      "inputs": [
        {
          "internalType": "address",
          "name": "_owner",
          "type": "address"
        }
      ],
      "name": "balanceOf",
      "outputs": [
        {
          "internalType": "uint256",
          "name": "",
          "type": "uint256"
        }
      ],
      "stateMutability": "view",
      "type": "function"
    },
    {
      "inputs": [
        {
          "internalType": "string",
          "name": "_specUri",
          "type": "string"
        },
        {
          "internalType": "uint256",
          "name": "_raftTokenId",
          "type": "uint256"
        }
      ],
      "name": "createSpecAsRaftHolder",
      "outputs": [],
      "stateMutability": "nonpayable",
      "type": "function"
    },
    {
      "inputs": [
        {
          "internalType": "uint256",
          "name": "tokenId",
          "type": "uint256"
        }
      ],
      "name": "getApproved",
      "outputs": [
        {
          "internalType": "address",
          "name": "",
          "type": "address"
        }
      ],
      "stateMutability": "view",
      "type": "function"
    },
    {
      "inputs": [],
      "name": "getDataHolderAddress",
      "outputs": [
        {
          "internalType": "address",
          "name": "",
          "type": "address"
        }
      ],
      "stateMutability": "view",
      "type": "function"
    },
    {
      "inputs": [
        {
          "internalType": "address",
          "name": "_from",
          "type": "address"
        },
        {
          "internalType": "address",
          "name": "_to",
          "type": "address"
        },
        {
          "internalType": "string",
          "name": "_uri",
          "type": "string"
        }
      ],
      "name": "getHash",
      "outputs": [
        {
          "internalType": "bytes32",
          "name": "",
          "type": "bytes32"
        }
      ],
      "stateMutability": "view",
      "type": "function"
    },
    {
      "inputs": [
        {
          "internalType": "address",
          "name": "_to",
          "type": "address"
        },
        {
          "internalType": "string",
          "name": "_uri",
          "type": "string"
        },
        {
          "internalType": "bytes",
          "name": "_signature",
          "type": "bytes"
        }
      ],
      "name": "give",
      "outputs": [
        {
          "internalType": "uint256",
          "name": "",
          "type": "uint256"
        }
      ],
      "stateMutability": "nonpayable",
      "type": "function"
    },
    {
      "inputs": [
        {
          "internalType": "string",
          "name": "_name",
          "type": "string"
        },
        {
          "internalType": "string",
          "name": "_symbol",
          "type": "string"
        },
        {
          "internalType": "string",
          "name": "_version",
          "type": "string"
        },
        {
          "internalType": "address",
          "name": "_nextOwner",
          "type": "address"
        },
        {
          "internalType": "address",
          "name": "_specDataHolderAddress",
          "type": "address"
        }
      ],
      "name": "initialize",
      "outputs": [],
      "stateMutability": "nonpayable",
      "type": "function"
    },
    {
      "inputs": [
        {
          "internalType": "address",
          "name": "owner",
          "type": "address"
        },
        {
          "internalType": "address",
          "name": "operator",
          "type": "address"
        }
      ],
      "name": "isApprovedForAll",
      "outputs": [
        {
          "internalType": "bool",
          "name": "",
          "type": "bool"
        }
      ],
      "stateMutability": "view",
      "type": "function"
    },
    {
      "inputs": [],
      "name": "name",
      "outputs": [
        {
          "internalType": "string",
          "name": "",
          "type": "string"
        }
      ],
      "stateMutability": "view",
      "type": "function"
    },
    {
      "inputs": [],
      "name": "owner",
      "outputs": [
        {
          "internalType": "address",
          "name": "",
          "type": "address"
        }
      ],
      "stateMutability": "view",
      "type": "function"
    },
    {
      "inputs": [
        {
          "internalType": "uint256",
          "name": "_tokenId",
          "type": "uint256"
        }
      ],
      "name": "ownerOf",
      "outputs": [
        {
          "internalType": "address",
          "name": "",
          "type": "address"
        }
      ],
      "stateMutability": "view",
      "type": "function"
    },
    {
      "inputs": [],
      "name": "proxiableUUID",
      "outputs": [
        {
          "internalType": "bytes32",
          "name": "",
          "type": "bytes32"
        }
      ],
      "stateMutability": "view",
      "type": "function"
    },
    {
      "inputs": [],
      "name": "renounceOwnership",
      "outputs": [],
      "stateMutability": "nonpayable",
      "type": "function"
    },
    {
      "inputs": [
        {
          "internalType": "address",
          "name": "from",
          "type": "address"
        },
        {
          "internalType": "address",
          "name": "to",
          "type": "address"
        },
        {
          "internalType": "uint256",
          "name": "tokenId",
          "type": "uint256"
        }
      ],
      "name": "safeTransferFrom",
      "outputs": [],
      "stateMutability": "nonpayable",
      "type": "function"
    },
    {
      "inputs": [
        {
          "internalType": "address",
          "name": "from",
          "type": "address"
        },
        {
          "internalType": "address",
          "name": "to",
          "type": "address"
        },
        {
          "internalType": "uint256",
          "name": "tokenId",
          "type": "uint256"
        },
        {
          "internalType": "bytes",
          "name": "data",
          "type": "bytes"
        }
      ],
      "name": "safeTransferFrom",
      "outputs": [],
      "stateMutability": "nonpayable",
      "type": "function"
    },
    {
      "inputs": [
        {
          "internalType": "address",
          "name": "operator",
          "type": "address"
        },
        {
          "internalType": "bool",
          "name": "approved",
          "type": "bool"
        }
      ],
      "name": "setApprovalForAll",
      "outputs": [],
      "stateMutability": "nonpayable",
      "type": "function"
    },
    {
      "inputs": [
        {
          "internalType": "uint256",
          "name": "raftTokenId",
          "type": "uint256"
        },
        {
          "internalType": "uint256",
          "name": "permissionInt",
          "type": "uint256"
        }
      ],
      "name": "setBadgeSpecCreationPermissions",
      "outputs": [],
      "stateMutability": "nonpayable",
      "type": "function"
    },
    {
      "inputs": [
        {
          "internalType": "address",
          "name": "_dataHolder",
          "type": "address"
        }
      ],
      "name": "setDataHolder",
      "outputs": [],
      "stateMutability": "nonpayable",
      "type": "function"
    },
    {
      "inputs": [
        {
          "internalType": "bytes4",
          "name": "_interfaceId",
          "type": "bytes4"
        }
      ],
      "name": "supportsInterface",
      "outputs": [
        {
          "internalType": "bool",
          "name": "",
          "type": "bool"
        }
      ],
      "stateMutability": "view",
      "type": "function"
    },
    {
      "inputs": [],
      "name": "symbol",
      "outputs": [
        {
          "internalType": "string",
          "name": "",
          "type": "string"
        }
      ],
      "stateMutability": "view",
      "type": "function"
    },
    {
      "inputs": [
        {
          "internalType": "address",
          "name": "_from",
          "type": "address"
        },
        {
          "internalType": "string",
          "name": "_uri",
          "type": "string"
        },
        {
          "internalType": "bytes",
          "name": "_signature",
          "type": "bytes"
        }
      ],
      "name": "take",
      "outputs": [
        {
          "internalType": "uint256",
          "name": "",
          "type": "uint256"
        }
      ],
      "stateMutability": "nonpayable",
      "type": "function"
    },
    {
      "inputs": [
        {
          "internalType": "uint256",
          "name": "index",
          "type": "uint256"
        }
      ],
      "name": "tokenByIndex",
      "outputs": [
        {
          "internalType": "uint256",
          "name": "",
          "type": "uint256"
        }
      ],
      "stateMutability": "view",
      "type": "function"
    },
    {
      "inputs": [
        {
          "internalType": "address",
          "name": "owner",
          "type": "address"
        },
        {
          "internalType": "uint256",
          "name": "index",
          "type": "uint256"
        }
      ],
      "name": "tokenOfOwnerByIndex",
      "outputs": [
        {
          "internalType": "uint256",
          "name": "",
          "type": "uint256"
        }
      ],
      "stateMutability": "view",
      "type": "function"
    },
    {
      "inputs": [
        {
          "internalType": "uint256",
          "name": "_tokenId",
          "type": "uint256"
        }
      ],
      "name": "tokenURI",
      "outputs": [
        {
          "internalType": "string",
          "name": "",
          "type": "string"
        }
      ],
      "stateMutability": "view",
      "type": "function"
    },
    {
      "inputs": [],
      "name": "totalSupply",
      "outputs": [
        {
          "internalType": "uint256",
          "name": "",
          "type": "uint256"
        }
      ],
      "stateMutability": "view",
      "type": "function"
    },
    {
      "inputs": [
        {
          "internalType": "address",
          "name": "from",
          "type": "address"
        },
        {
          "internalType": "address",
          "name": "to",
          "type": "address"
        },
        {
          "internalType": "uint256",
          "name": "tokenId",
          "type": "uint256"
        }
      ],
      "name": "transferFrom",
      "outputs": [],
      "stateMutability": "nonpayable",
      "type": "function"
    },
    {
      "inputs": [
        {
          "internalType": "address",
          "name": "newOwner",
          "type": "address"
        }
      ],
      "name": "transferOwnership",
      "outputs": [],
      "stateMutability": "nonpayable",
      "type": "function"
    },
    {
      "inputs": [
        {
          "internalType": "uint256",
          "name": "_tokenId",
          "type": "uint256"
        }
      ],
      "name": "unequip",
      "outputs": [],
      "stateMutability": "nonpayable",
      "type": "function"
    },
    {
      "inputs": [
        {
          "internalType": "address",
          "name": "newImplementation",
          "type": "address"
        }
      ],
      "name": "upgradeTo",
      "outputs": [],
      "stateMutability": "nonpayable",
      "type": "function"
    },
    {
      "inputs": [
        {
          "internalType": "address",
          "name": "newImplementation",
          "type": "address"
        },
        {
          "internalType": "bytes",
          "name": "data",
          "type": "bytes"
        }
      ],
      "name": "upgradeToAndCall",
      "outputs": [],
      "stateMutability": "payable",
      "type": "function"
    }
  ],
  "bytecode": {
    "object": "0x60a0604052306080523480156200001557600080fd5b506200002062000026565b620000e8565b600054610100900460ff1615620000935760405162461bcd60e51b815260206004820152602760248201527f496e697469616c697a61626c653a20636f6e747261637420697320696e697469604482015266616c697a696e6760c81b606482015260840160405180910390fd5b60005460ff9081161015620000e6576000805460ff191660ff9081179091556040519081527f7f26b83ff96e1f2b6a682f133852f6798a09c465da95921460cefb38474024989060200160405180910390a15b565b60805161366d6200012060003960008181610b9d01528181610bdd01528181610c9701528181610cd70152610dff015261366d6000f3fe6080604052600436106101d85760003560e01c806370a0823111610102578063c5cf33c211610095578063e985e9c511610064578063e985e9c51461053d578063ec64948e14610587578063f2fde38b146105a7578063fea7759a146105c757600080fd5b8063c5cf33c2146104bd578063c87b56dd146104dd578063d179e3d0146104fd578063d6d0faee1461051d57600080fd5b8063a22cb465116100d1578063a22cb4651461043d578063a39478031461045d578063b88d4fde1461047d578063c01841121461049d57600080fd5b806370a08231146103d5578063715018a6146103f55780638da5cb5b1461040a57806395d89b411461042857600080fd5b80632f745c591161017a5780634f6ccce7116101495780634f6ccce71461036157806352d1902d146103815780636352211e14610396578063635ad993146103b657600080fd5b80632f745c59146102ee5780633659cfe61461030e57806342842e0e1461032e5780634f1ef2861461034e57600080fd5b8063081812fc116101b6578063081812fc14610256578063095ea7b31461028e57806318160ddd146102ae57806323b872dd146102ce57600080fd5b806301ffc9a7146101dd57806302ae93421461021257806306fdde0314610234575b600080fd5b3480156101e957600080fd5b506101fd6101f8366004612c59565b6105f5565b60405190151581526020015b60405180910390f35b34801561021e57600080fd5b5061023261022d366004612d19565b61063b565b005b34801561024057600080fd5b506102496108fb565b6040516102099190612dae565b34801561026257600080fd5b50610276610271366004612dc1565b61098e565b6040516001600160a01b039091168152602001610209565b34801561029a57600080fd5b506102326102a9366004612def565b6109b6565b3480156102ba57600080fd5b50610163545b604051908152602001610209565b3480156102da57600080fd5b506102326102e9366004612e1b565b610acb565b3480156102fa57600080fd5b506102c0610309366004612def565b610afc565b34801561031a57600080fd5b50610232610329366004612e5c565b610b93565b34801561033a57600080fd5b50610232610349366004612e1b565b610c72565b61023261035c366004612e79565b610c8d565b34801561036d57600080fd5b506102c061037c366004612dc1565b610d5d565b34801561038d57600080fd5b506102c0610df2565b3480156103a257600080fd5b506102766103b1366004612dc1565b610ea5565b3480156103c257600080fd5b50610199546001600160a01b0316610276565b3480156103e157600080fd5b506102c06103f0366004612e5c565b610f0b565b34801561040157600080fd5b50610232610f96565b34801561041657600080fd5b5060c9546001600160a01b0316610276565b34801561043457600080fd5b50610249610faa565b34801561044957600080fd5b50610232610458366004612ed7565b610fba565b34801561046957600080fd5b506102c0610478366004612f52565b610fc5565b34801561048957600080fd5b50610232610498366004612fd5565b61109e565b3480156104a957600080fd5b506102326104b8366004612e5c565b6110d6565b3480156104c957600080fd5b506102c06104d8366004613041565b611101565b3480156104e957600080fd5b506102496104f8366004612dc1565b61119c565b34801561050957600080fd5b50610232610518366004612dc1565b6112a3565b34801561052957600080fd5b506102326105383660046130a6565b611399565b34801561054957600080fd5b506101fd610558366004613156565b6001600160a01b0391821660009081526101346020908152604080832093909416825291909152205460ff1690565b34801561059357600080fd5b506102c06105a2366004612f52565b611512565b3480156105b357600080fd5b506102326105c2366004612e5c565b6115bf565b3480156105d357600080fd5b506102326105e2366004613184565b600091825261019a602052604090912055565b60006001600160e01b03198216635b5e139f60e01b148061062657506001600160e01b031982166346bdd63960e11b145b80610635575061063582611635565b92915050565b6101995460405163b2a0cb6b60e01b81526004810183905233916001600160a01b03169063b2a0cb6b90602401602060405180830381865afa158015610685573d6000803e3d6000fd5b505050506040513d601f19601f820116820180604052508101906106a991906131a6565b6001600160a01b0316146107045760405162461bcd60e51b815260206004820152601860248201527f637265617465537065633a20756e617574686f72697a6564000000000000000060448201526064015b60405180910390fd5b61019954604051637e07102760e11b81526001600160a01b039091169063fc0e204e90610735908590600401612dae565b602060405180830381865afa158015610752573d6000803e3d6000fd5b505050506040513d601f19601f8201168201806040525081019061077691906131c3565b156107cf5760405162461bcd60e51b815260206004820152602360248201527f637265617465537065633a207370656320616c726561647920726567697374656044820152621c995960ea1b60648201526084016106fb565b6101995460405163addd190760e01b81526001600160a01b039091169063addd19079061080290859085906004016131e0565b600060405180830381600087803b15801561081c57600080fd5b505af1158015610830573d6000803e3d6000fd5b5050505061019960009054906101000a90046001600160a01b03166001600160a01b03166334f876626040518163ffffffff1660e01b8152600401602060405180830381865afa158015610888573d6000803e3d6000fd5b505050506040513d601f19601f820116820180604052508101906108ac91906131a6565b6001600160a01b031681336001600160a01b03167f68c7f8503283c455a4445b54a7d5c40656c8cae5cca0583c6d4be83698478700856040516108ef9190612dae565b60405180910390a45050565b6060610194805461090b90613202565b80601f016020809104026020016040519081016040528092919081815260200182805461093790613202565b80156109845780601f1061095957610100808354040283529160200191610984565b820191906000526020600020905b81548152906001019060200180831161096757829003601f168201915b5050505050905090565b60006109998261165a565b50600090815261013360205260409020546001600160a01b031690565b60006109c1826116ba565b9050806001600160a01b0316836001600160a01b031603610a2e5760405162461bcd60e51b815260206004820152602160248201527f4552433732313a20617070726f76616c20746f2063757272656e74206f776e656044820152603960f91b60648201526084016106fb565b336001600160a01b0382161480610a4a5750610a4a8133610558565b610abc5760405162461bcd60e51b815260206004820152603d60248201527f4552433732313a20617070726f76652063616c6c6572206973206e6f7420746f60448201527f6b656e206f776e6572206f7220617070726f76656420666f7220616c6c00000060648201526084016106fb565b610ac6838361171b565b505050565b610ad5338261178a565b610af15760405162461bcd60e51b81526004016106fb9061323c565b610ac6838383611809565b6000610b07836119c3565b8210610b695760405162461bcd60e51b815260206004820152602b60248201527f455243373231456e756d657261626c653a206f776e657220696e646578206f7560448201526a74206f6620626f756e647360a81b60648201526084016106fb565b506001600160a01b0391909116600090815261016160209081526040808320938352929052205490565b6001600160a01b037f0000000000000000000000000000000000000000000000000000000000000000163003610bdb5760405162461bcd60e51b81526004016106fb90613289565b7f00000000000000000000000000000000000000000000000000000000000000006001600160a01b0316610c246000805160206135f1833981519152546001600160a01b031690565b6001600160a01b031614610c4a5760405162461bcd60e51b81526004016106fb906132d5565b610c5381611a4a565b60408051600080825260208201909252610c6f91839190611a52565b50565b610ac68383836040518060200160405280600081525061109e565b6001600160a01b037f0000000000000000000000000000000000000000000000000000000000000000163003610cd55760405162461bcd60e51b81526004016106fb90613289565b7f00000000000000000000000000000000000000000000000000000000000000006001600160a01b0316610d1e6000805160206135f1833981519152546001600160a01b031690565b6001600160a01b031614610d445760405162461bcd60e51b81526004016106fb906132d5565b610d4d82611a4a565b610d5982826001611a52565b5050565b6000610d696101635490565b8210610dcc5760405162461bcd60e51b815260206004820152602c60248201527f455243373231456e756d657261626c653a20676c6f62616c20696e646578206f60448201526b7574206f6620626f756e647360a01b60648201526084016106fb565b6101638281548110610de057610de0613321565b90600052602060002001549050919050565b6000306001600160a01b037f00000000000000000000000000000000000000000000000000000000000000001614610e925760405162461bcd60e51b815260206004820152603860248201527f555550535570677261646561626c653a206d757374206e6f742062652063616c60448201527f6c6564207468726f7567682064656c656761746563616c6c000000000000000060648201526084016106fb565b506000805160206135f183398151915290565b600081815261019660205260408120546001600160a01b0316806106355760405162461bcd60e51b815260206004820152601c60248201527f6f776e65724f663a20746f6b656e20646f65736e27742065786973740000000060448201526064016106fb565b60006001600160a01b038216610f795760405162461bcd60e51b815260206004820152602d60248201527f62616c616e63654f663a2061646472657373207a65726f206973206e6f74206160448201526c2076616c6964206f776e65725f60981b60648201526084016106fb565b506001600160a01b03166000908152610198602052604090205490565b610f9e611bbd565b610fa86000611c17565b565b6060610195805461090b90613202565b610d59338383611c69565b60006001600160a01b038616330361101f5760405162461bcd60e51b815260206004820152601b60248201527f74616b653a2063616e6e6f742074616b652066726f6d2073656c66000000000060448201526064016106fb565b600061102f338888888888611d38565b9050611072338288888080601f016020809104026020016040519081016040528093929190818152602001838380828437600092019190915250611e6292505050565b50600881901c6000908152610193602052604090208054600160ff84161b1790555b9695505050505050565b6110a8338361178a565b6110c45760405162461bcd60e51b81526004016106fb9061323c565b6110d08484848461209f565b50505050565b6110de611bbd565b61019980546001600160a01b0319166001600160a01b0392909216919091179055565b6000807fe76a195fbe43f0eaa611595069f780493db2202a1cc4b2d7d44b47069812998a86868686604051611137929190613337565b60405190819003812061116f949392916020019384526001600160a01b03928316602085015291166040830152606082015260800190565b604051602081830303815290604052805190602001209050611190816120d2565b9150505b949350505050565b600081815261019660205260409020546060906001600160a01b03166112045760405162461bcd60e51b815260206004820152601d60248201527f746f6b656e5552493a20746f6b656e20646f65736e277420657869737400000060448201526064016106fb565b600082815261019760205260409020805461121e90613202565b80601f016020809104026020016040519081016040528092919081815260200182805461124a90613202565b80156112975780601f1061126c57610100808354040283529160200191611297565b820191906000526020600020905b81548152906001019060200180831161127a57829003601f168201915b50505050509050919050565b600081815261019660205260409020546001600160a01b03166113085760405162461bcd60e51b815260206004820152601c60248201527f756e65717569703a20746f6b656e20646f65736e27742065786973740000000060448201526064016106fb565b600081815261019660205260409020546001600160a01b0316331461136f5760405162461bcd60e51b815260206004820152601d60248201527f756e65717569703a2073656e646572206d757374206265206f776e657200000060448201526064016106fb565b600881901c6000908152610193602052604090208054600160ff84161b19169055610c6f81612120565b600054610100900460ff16158080156113b95750600054600160ff909116105b806113d35750303b1580156113d3575060005460ff166001145b6114365760405162461bcd60e51b815260206004820152602e60248201527f496e697469616c697a61626c653a20636f6e747261637420697320616c72656160448201526d191e481a5b9a5d1a585b1a5e995960921b60648201526084016106fb565b6000805460ff191660011790558015611459576000805461ff0019166101001790555b610194611466878261338d565b50610195611474868261338d565b5061019980546001600160a01b0319166001600160a01b0384161790556114996121cb565b6114a16121f2565b6114ab8685612221565b6114b36121cb565b6114bc836115bf565b6114c46121cb565b801561150a576000805461ff0019169055604051600181527f7f26b83ff96e1f2b6a682f133852f6798a09c465da95921460cefb38474024989060200160405180910390a15b505050505050565b60006001600160a01b038616330361156c5760405162461bcd60e51b815260206004820152601b60248201527f676976653a2063616e6e6f7420676976652066726f6d2073656c66000000000060448201526064016106fb565b600061157c338888888888611d38565b9050611072878288888080601f016020809104026020016040519081016040528093929190818152602001838380828437600092019190915250611e6292505050565b6115c7611bbd565b6001600160a01b03811661162c5760405162461bcd60e51b815260206004820152602660248201527f4f776e61626c653a206e6577206f776e657220697320746865207a65726f206160448201526564647265737360d01b60648201526084016106fb565b610c6f81611c17565b60006001600160e01b0319821663780e9d6360e01b1480610635575061063582612252565b600081815261013160205260409020546001600160a01b0316610c6f5760405162461bcd60e51b8152602060048201526018602482015277115490cdcc8c4e881a5b9d985b1a59081d1bdad95b88125160421b60448201526064016106fb565b600081815261013160205260408120546001600160a01b0316806106355760405162461bcd60e51b8152602060048201526018602482015277115490cdcc8c4e881a5b9d985b1a59081d1bdad95b88125160421b60448201526064016106fb565b60008181526101336020526040902080546001600160a01b0319166001600160a01b0384169081179091558190611751826116ba565b6001600160a01b03167f8c5be1e5ebec7d5bd14f71427d1e84f3dd0314c0f7b2291e5b200ac8c7c3b92560405160405180910390a45050565b600080611796836116ba565b9050806001600160a01b0316846001600160a01b031614806117de57506001600160a01b038082166000908152610134602090815260408083209388168352929052205460ff165b806111945750836001600160a01b03166117f78461098e565b6001600160a01b031614949350505050565b826001600160a01b031661181c826116ba565b6001600160a01b0316146118805760405162461bcd60e51b815260206004820152602560248201527f4552433732313a207472616e736665722066726f6d20696e636f72726563742060448201526437bbb732b960d91b60648201526084016106fb565b6001600160a01b0382166118e25760405162461bcd60e51b8152602060048201526024808201527f4552433732313a207472616e7366657220746f20746865207a65726f206164646044820152637265737360e01b60648201526084016106fb565b6118ed8383836122a2565b60008181526101336020908152604080832080546001600160a01b03191690556001600160a01b03861683526101329091528120805460019290611932908490613463565b90915550506001600160a01b038216600090815261013260205260408120805460019290611961908490613476565b90915550506000818152610131602052604080822080546001600160a01b0319166001600160a01b0386811691821790925591518493918716917fddf252ad1be2c89b69c2b068fc378daa952ba7f163c4a11628f55a4df523b3ef91a4505050565b60006001600160a01b038216611a2d5760405162461bcd60e51b815260206004820152602960248201527f4552433732313a2061646472657373207a65726f206973206e6f7420612076616044820152683634b21037bbb732b960b91b60648201526084016106fb565b506001600160a01b03166000908152610132602052604090205490565b610c6f611bbd565b7f4910fdfa16fed3260ed0e7147f7cc6da11a60208b5b9406d12a635614ffd91435460ff1615611a8557610ac68361235c565b826001600160a01b03166352d1902d6040518163ffffffff1660e01b8152600401602060405180830381865afa925050508015611adf575060408051601f3d908101601f19168201909252611adc91810190613489565b60015b611b425760405162461bcd60e51b815260206004820152602e60248201527f45524331393637557067726164653a206e657720696d706c656d656e7461746960448201526d6f6e206973206e6f74205555505360901b60648201526084016106fb565b6000805160206135f18339815191528114611bb15760405162461bcd60e51b815260206004820152602960248201527f45524331393637557067726164653a20756e737570706f727465642070726f786044820152681a58589b195555525160ba1b60648201526084016106fb565b50610ac68383836123f8565b60c9546001600160a01b03163314610fa85760405162461bcd60e51b815260206004820181905260248201527f4f776e61626c653a2063616c6c6572206973206e6f7420746865206f776e657260448201526064016106fb565b60c980546001600160a01b038381166001600160a01b0319831681179093556040519116919082907f8be0079c531659141344cd1fd0a4f28419497f9722a3daafe3b4186f6b6457e090600090a35050565b816001600160a01b0316836001600160a01b031603611cca5760405162461bcd60e51b815260206004820152601960248201527f4552433732313a20617070726f766520746f2063616c6c65720000000000000060448201526064016106fb565b6001600160a01b0383811660008181526101346020908152604080832094871680845294825291829020805460ff191686151590811790915591519182527f17307eab39ab6107e8899845ad3d59bd9653f200f220920489ca2b5937696c31910160405180910390a3505050565b600080611d4788888888611101565b905060008160001c9050611d92888387878080601f01602080910402602001604051908101604052809392919081815260200183838082843760009201919091525061241d92505050565b611dec5760405162461bcd60e51b815260206004820152602560248201527f73616665436865636b41677265656d656e743a20696e76616c6964207369676e604482015264617475726560d81b60648201526084016106fb565b600881901c60009081526101936020526040902054600160ff83161b1615611e565760405162461bcd60e51b815260206004820181905260248201527f73616665436865636b41677265656d656e743a20616c7265616479207573656460448201526064016106fb565b98975050505050505050565b61019954604051633664a8e960e01b815260009182916001600160a01b0390911690633664a8e990611e98908690600401612dae565b602060405180830381865afa158015611eb5573d6000803e3d6000fd5b505050506040513d601f19601f82011682018060405250810190611ed99190613489565b905080600003611f2b5760405162461bcd60e51b815260206004820152601c60248201527f6d696e743a2073706563206973206e6f7420726567697374657265640000000060448201526064016106fb565b600084815261019660205260409020546001600160a01b031615611f885760405162461bcd60e51b81526020600482015260146024820152736d696e743a20746f6b656e49442065786973747360601b60448201526064016106fb565b6001600160a01b038516600090815261019860205260408120805460019290611fb2908490613476565b909155505060008481526101966020908152604080832080546001600160a01b0319166001600160a01b038a161790556101979091529020611ff4848261338d565b5060405184906001600160a01b038716906000907fddf252ad1be2c89b69c2b068fc378daa952ba7f163c4a11628f55a4df523b3ef908290a46101995460405163fb74926160e01b815260048101869052602481018390526001600160a01b039091169063fb74926190604401600060405180830381600087803b15801561207b57600080fd5b505af115801561208f573d6000803e3d6000fd5b50505050839150505b9392505050565b6120aa848484611809565b6120b68484848461255e565b6110d05760405162461bcd60e51b81526004016106fb906134a2565b60006106356120df61265c565b8360405161190160f01b6020820152602281018390526042810182905260009060620160405160208183030381529060405280519060200120905092915050565b600081815261019660209081526040808320546001600160a01b0316808452610198909252822080549192600192612159908490613463565b909155505060008281526101966020908152604080832080546001600160a01b0319169055610197909152812061218f91612bf5565b60405182906000906001600160a01b038416907fddf252ad1be2c89b69c2b068fc378daa952ba7f163c4a11628f55a4df523b3ef908390a45050565b600054610100900460ff16610fa85760405162461bcd60e51b81526004016106fb906134f4565b600054610100900460ff166122195760405162461bcd60e51b81526004016106fb906134f4565b610fa86126dc565b600054610100900460ff166122485760405162461bcd60e51b81526004016106fb906134f4565b610d59828261270c565b60006001600160e01b031982166380ac58cd60e01b148061228357506001600160e01b03198216635b5e139f60e01b145b8061063557506301ffc9a760e01b6001600160e01b0319831614610635565b6001600160a01b0383166122ff576122fa816101638054600083815261016460205260408120829055600182018355919091527fb0f3e90519fd0de3100ca1a24094c0a25e5cbf467d74a2603172b5a5204555b30155565b612322565b816001600160a01b0316836001600160a01b03161461232257612322838261274d565b6001600160a01b03821661233957610ac6816127ef565b826001600160a01b0316826001600160a01b031614610ac657610ac682826128a4565b6001600160a01b0381163b6123c95760405162461bcd60e51b815260206004820152602d60248201527f455243313936373a206e657720696d706c656d656e746174696f6e206973206e60448201526c1bdd08184818dbdb9d1c9858dd609a1b60648201526084016106fb565b6000805160206135f183398151915280546001600160a01b0319166001600160a01b0392909216919091179055565b612401836128ea565b60008251118061240e5750805b15610ac6576110d0838361292a565b600080600061242c8585612a1e565b909250905060008160048111156124455761244561353f565b1480156124635750856001600160a01b0316826001600160a01b0316145b1561247357600192505050612098565b600080876001600160a01b0316631626ba7e60e01b888860405160240161249b929190613555565b60408051601f198184030181529181526020820180516001600160e01b03166001600160e01b03199094169390931790925290516124d9919061356e565b600060405180830381855afa9150503d8060008114612514576040519150601f19603f3d011682016040523d82523d6000602084013e612519565b606091505b509150915081801561252c575080516020145b8015611e5657508051630b135d3f60e11b906125519083016020908101908401613489565b1498975050505050505050565b60006001600160a01b0384163b1561265457604051630a85bd0160e11b81526001600160a01b0385169063150b7a02906125a290339089908890889060040161358a565b6020604051808303816000875af19250505080156125dd575060408051601f3d908101601f191682019092526125da918101906135bd565b60015b61263a573d80801561260b576040519150601f19603f3d011682016040523d82523d6000602084013e612610565b606091505b5080516000036126325760405162461bcd60e51b81526004016106fb906134a2565b805181602001fd5b6001600160e01b031916630a85bd0160e11b149050611194565b506001611194565b60006126d77f8b73c3c69bb8fe3d512ecc4cf759cc79239f7b179b0ffacaa9a75d522b39400f61268b60fb5490565b60fc546040805160208101859052908101839052606081018290524660808201523060a082015260009060c0016040516020818303038152906040528051906020012090509392505050565b905090565b600054610100900460ff166127035760405162461bcd60e51b81526004016106fb906134f4565b610fa833611c17565b600054610100900460ff166127335760405162461bcd60e51b81526004016106fb906134f4565b81516020928301208151919092012060fb9190915560fc55565b6000600161275a846119c3565b6127649190613463565b600083815261016260205260409020549091508082146127ba576001600160a01b038416600090815261016160209081526040808320858452825280832054848452818420819055835261016290915290208190555b506000918252610162602090815260408084208490556001600160a01b03909416835261016181528383209183525290812055565b6101635460009061280290600190613463565b60008381526101646020526040812054610163805493945090928490811061282c5761282c613321565b9060005260206000200154905080610163838154811061284e5761284e613321565b60009182526020808320909101929092558281526101649091526040808220849055858252812055610163805480612888576128886135da565b6001900381819060005260206000200160009055905550505050565b60006128af836119c3565b6001600160a01b0390931660009081526101616020908152604080832086845282528083208590559382526101629052919091209190915550565b6128f38161235c565b6040516001600160a01b038216907fbc7cd75a20ee27fd9adebab32041f755214dbc6bffa90cc0225b39da2e5c2d3b90600090a250565b60606001600160a01b0383163b6129925760405162461bcd60e51b815260206004820152602660248201527f416464726573733a2064656c65676174652063616c6c20746f206e6f6e2d636f6044820152651b9d1c9858dd60d21b60648201526084016106fb565b600080846001600160a01b0316846040516129ad919061356e565b600060405180830381855af49150503d80600081146129e8576040519150601f19603f3d011682016040523d82523d6000602084013e6129ed565b606091505b5091509150612a15828260405180606001604052806027815260200161361160279139612a8c565b95945050505050565b6000808251604103612a545760208301516040840151606085015160001a612a4887828585612aa5565b94509450505050612a85565b8251604003612a7d5760208301516040840151612a72868383612b92565b935093505050612a85565b506000905060025b9250929050565b60608315612a9b575081612098565b6120988383612bcb565b6000807f7fffffffffffffffffffffffffffffff5d576e7357a4501ddfe92f46681b20a0831115612adc5750600090506003612b89565b8460ff16601b14158015612af457508460ff16601c14155b15612b055750600090506004612b89565b6040805160008082526020820180845289905260ff881692820192909252606081018690526080810185905260019060a0016020604051602081039080840390855afa158015612b59573d6000803e3d6000fd5b5050604051601f1901519150506001600160a01b038116612b8257600060019250925050612b89565b9150600090505b94509492505050565b6000806001600160ff1b03831681612baf60ff86901c601b613476565b9050612bbd87828885612aa5565b935093505050935093915050565b815115612bdb5781518083602001fd5b8060405162461bcd60e51b81526004016106fb9190612dae565b508054612c0190613202565b6000825580601f10612c11575050565b601f016020900490600052602060002090810190610c6f91905b80821115612c3f5760008155600101612c2b565b5090565b6001600160e01b031981168114610c6f57600080fd5b600060208284031215612c6b57600080fd5b813561209881612c43565b634e487b7160e01b600052604160045260246000fd5b600082601f830112612c9d57600080fd5b813567ffffffffffffffff80821115612cb857612cb8612c76565b604051601f8301601f19908116603f01168101908282118183101715612ce057612ce0612c76565b81604052838152866020858801011115612cf957600080fd5b836020870160208301376000602085830101528094505050505092915050565b60008060408385031215612d2c57600080fd5b823567ffffffffffffffff811115612d4357600080fd5b612d4f85828601612c8c565b95602094909401359450505050565b60005b83811015612d79578181015183820152602001612d61565b50506000910152565b60008151808452612d9a816020860160208601612d5e565b601f01601f19169290920160200192915050565b6020815260006120986020830184612d82565b600060208284031215612dd357600080fd5b5035919050565b6001600160a01b0381168114610c6f57600080fd5b60008060408385031215612e0257600080fd5b8235612e0d81612dda565b946020939093013593505050565b600080600060608486031215612e3057600080fd5b8335612e3b81612dda565b92506020840135612e4b81612dda565b929592945050506040919091013590565b600060208284031215612e6e57600080fd5b813561209881612dda565b60008060408385031215612e8c57600080fd5b8235612e9781612dda565b9150602083013567ffffffffffffffff811115612eb357600080fd5b612ebf85828601612c8c565b9150509250929050565b8015158114610c6f57600080fd5b60008060408385031215612eea57600080fd5b8235612ef581612dda565b91506020830135612f0581612ec9565b809150509250929050565b60008083601f840112612f2257600080fd5b50813567ffffffffffffffff811115612f3a57600080fd5b602083019150836020828501011115612a8557600080fd5b600080600080600060608688031215612f6a57600080fd5b8535612f7581612dda565b9450602086013567ffffffffffffffff80821115612f9257600080fd5b612f9e89838a01612f10565b90965094506040880135915080821115612fb757600080fd5b50612fc488828901612f10565b969995985093965092949392505050565b60008060008060808587031215612feb57600080fd5b8435612ff681612dda565b9350602085013561300681612dda565b925060408501359150606085013567ffffffffffffffff81111561302957600080fd5b61303587828801612c8c565b91505092959194509250565b6000806000806060858703121561305757600080fd5b843561306281612dda565b9350602085013561307281612dda565b9250604085013567ffffffffffffffff81111561308e57600080fd5b61309a87828801612f10565b95989497509550505050565b600080600080600060a086880312156130be57600080fd5b853567ffffffffffffffff808211156130d657600080fd5b6130e289838a01612c8c565b965060208801359150808211156130f857600080fd5b61310489838a01612c8c565b9550604088013591508082111561311a57600080fd5b5061312788828901612c8c565b935050606086013561313881612dda565b9150608086013561314881612dda565b809150509295509295909350565b6000806040838503121561316957600080fd5b823561317481612dda565b91506020830135612f0581612dda565b6000806040838503121561319757600080fd5b50508035926020909101359150565b6000602082840312156131b857600080fd5b815161209881612dda565b6000602082840312156131d557600080fd5b815161209881612ec9565b6040815260006131f36040830185612d82565b90508260208301529392505050565b600181811c9082168061321657607f821691505b60208210810361323657634e487b7160e01b600052602260045260246000fd5b50919050565b6020808252602d908201527f4552433732313a2063616c6c6572206973206e6f7420746f6b656e206f776e6560408201526c1c881bdc88185c1c1c9bdd9959609a1b606082015260800190565b6020808252602c908201527f46756e6374696f6e206d7573742062652063616c6c6564207468726f7567682060408201526b19195b1959d85d1958d85b1b60a21b606082015260800190565b6020808252602c908201527f46756e6374696f6e206d7573742062652063616c6c6564207468726f7567682060408201526b6163746976652070726f787960a01b606082015260800190565b634e487b7160e01b600052603260045260246000fd5b8183823760009101908152919050565b601f821115610ac657600081815260208120601f850160051c8101602086101561336e5750805b601f850160051c820191505b8181101561150a5782815560010161337a565b815167ffffffffffffffff8111156133a7576133a7612c76565b6133bb816133b58454613202565b84613347565b602080601f8311600181146133f057600084156133d85750858301515b600019600386901b1c1916600185901b17855561150a565b600085815260208120601f198616915b8281101561341f57888601518255948401946001909101908401613400565b508582101561343d5787850151600019600388901b60f8161c191681555b5050505050600190811b01905550565b634e487b7160e01b600052601160045260246000fd5b818103818111156106355761063561344d565b808201808211156106355761063561344d565b60006020828403121561349b57600080fd5b5051919050565b60208082526032908201527f4552433732313a207472616e7366657220746f206e6f6e20455243373231526560408201527131b2b4bb32b91034b6b83632b6b2b73a32b960711b606082015260800190565b6020808252602b908201527f496e697469616c697a61626c653a20636f6e7472616374206973206e6f74206960408201526a6e697469616c697a696e6760a81b606082015260800190565b634e487b7160e01b600052602160045260246000fd5b8281526040602082015260006111946040830184612d82565b60008251613580818460208701612d5e565b9190910192915050565b6001600160a01b038581168252841660208201526040810183905260806060820181905260009061109490830184612d82565b6000602082840312156135cf57600080fd5b815161209881612c43565b634e487b7160e01b600052603160045260246000fdfe360894a13ba1a3210667c828492db98dca3e2076cc3735a920a3ca505d382bbc416464726573733a206c6f772d6c6576656c2064656c65676174652063616c6c206661696c6564a264697066735822122009c2f1000b666162a245c35d10fcd3b9b9be07c9ee882cbe98e953a65c48f43264736f6c63430008100033",
    "linkReferences": {}
  },
  "methodIdentifiers": {
    "approve(address,uint256)": "095ea7b3",
    "balanceOf(address)": "70a08231",
    "createSpecAsRaftHolder(string,uint256)": "02ae9342",
    "getApproved(uint256)": "081812fc",
    "getDataHolderAddress()": "635ad993",
    "getHash(address,address,string)": "c5cf33c2",
    "give(address,string,bytes)": "ec64948e",
    "initialize(string,string,string,address,address)": "d6d0faee",
    "isApprovedForAll(address,address)": "e985e9c5",
    "name()": "06fdde03",
    "owner()": "8da5cb5b",
    "ownerOf(uint256)": "6352211e",
    "proxiableUUID()": "52d1902d",
    "renounceOwnership()": "715018a6",
    "safeTransferFrom(address,address,uint256)": "42842e0e",
    "safeTransferFrom(address,address,uint256,bytes)": "b88d4fde",
    "setApprovalForAll(address,bool)": "a22cb465",
    "setBadgeSpecCreationPermissions(uint256,uint256)": "fea7759a",
    "setDataHolder(address)": "c0184112",
    "supportsInterface(bytes4)": "01ffc9a7",
    "symbol()": "95d89b41",
    "take(address,string,bytes)": "a3947803",
    "tokenByIndex(uint256)": "4f6ccce7",
    "tokenOfOwnerByIndex(address,uint256)": "2f745c59",
    "tokenURI(uint256)": "c87b56dd",
    "totalSupply()": "18160ddd",
    "transferFrom(address,address,uint256)": "23b872dd",
    "transferOwnership(address)": "f2fde38b",
    "unequip(uint256)": "d179e3d0",
    "upgradeTo(address)": "3659cfe6",
    "upgradeToAndCall(address,bytes)": "4f1ef286"
  },
  "id": 43
}