{
  "abi": [
    {
      "inputs": [],
      "stateMutability": "nonpayable",
      "type": "constructor"
    },
    {
      "anonymous": false,
      "inputs": [
        {
          "indexed": false,
          "internalType": "address",
          "name": "previousAdmin",
          "type": "address"
        },
        {
          "indexed": false,
          "internalType": "address",
          "name": "newAdmin",
          "type": "address"
        }
      ],
      "name": "AdminChanged",
      "type": "event"
    },
    {
      "anonymous": false,
      "inputs": [
        {
          "indexed": true,
          "internalType": "address",
          "name": "beacon",
          "type": "address"
        }
      ],
      "name": "BeaconUpgraded",
      "type": "event"
    },
    {
      "anonymous": false,
      "inputs": [
        {
          "indexed": false,
          "internalType": "uint8",
          "name": "version",
          "type": "uint8"
        }
      ],
      "name": "Initialized",
      "type": "event"
    },
    {
      "anonymous": false,
      "inputs": [
        {
          "indexed": true,
          "internalType": "address",
          "name": "previousOwner",
          "type": "address"
        },
        {
          "indexed": true,
          "internalType": "address",
          "name": "newOwner",
          "type": "address"
        }
      ],
      "name": "OwnershipTransferred",
      "type": "event"
    },
    {
      "anonymous": false,
      "inputs": [
        {
          "indexed": true,
          "internalType": "address",
          "name": "to",
          "type": "address"
        },
        {
          "indexed": false,
          "internalType": "string",
          "name": "specUri",
          "type": "string"
        },
        {
          "indexed": true,
          "internalType": "uint256",
          "name": "raftTokenId",
          "type": "uint256"
        },
        {
          "indexed": true,
          "internalType": "address",
          "name": "raftAddress",
          "type": "address"
        }
      ],
      "name": "SpecCreated",
      "type": "event"
    },
    {
      "anonymous": false,
      "inputs": [
        {
          "indexed": true,
          "internalType": "address",
          "name": "from",
          "type": "address"
        },
        {
          "indexed": true,
          "internalType": "address",
          "name": "to",
          "type": "address"
        },
        {
          "indexed": true,
          "internalType": "uint256",
          "name": "tokenId",
          "type": "uint256"
        }
      ],
      "name": "Transfer",
      "type": "event"
    },
    {
      "anonymous": false,
      "inputs": [
        {
          "indexed": true,
          "internalType": "address",
          "name": "implementation",
          "type": "address"
        }
      ],
      "name": "Upgraded",
      "type": "event"
    },
    {
      "inputs": [
        {
          "internalType": "address",
          "name": "_owner",
          "type": "address"
        }
      ],
      "name": "balanceOf",
      "outputs": [
        {
          "internalType": "uint256",
          "name": "",
          "type": "uint256"
        }
      ],
      "stateMutability": "view",
      "type": "function"
    },
    {
      "inputs": [
        {
          "internalType": "string",
          "name": "_specUri",
          "type": "string"
        },
        {
          "internalType": "uint256",
          "name": "_raftTokenId",
          "type": "uint256"
        }
      ],
      "name": "createSpec",
      "outputs": [],
      "stateMutability": "nonpayable",
      "type": "function"
    },
    {
      "inputs": [
        {
          "internalType": "address",
          "name": "_from",
          "type": "address"
        },
        {
          "internalType": "address",
          "name": "_to",
          "type": "address"
        },
        {
          "internalType": "string",
          "name": "_uri",
          "type": "string"
        }
      ],
      "name": "getAgreementHash",
      "outputs": [
        {
          "internalType": "bytes32",
          "name": "",
          "type": "bytes32"
        }
      ],
      "stateMutability": "view",
      "type": "function"
    },
    {
      "inputs": [
        {
          "internalType": "address",
          "name": "_to",
          "type": "address"
        },
        {
          "internalType": "string",
          "name": "_uri",
          "type": "string"
        }
      ],
      "name": "getBadgeIdHash",
      "outputs": [
        {
          "internalType": "bytes32",
          "name": "",
          "type": "bytes32"
        }
      ],
      "stateMutability": "view",
      "type": "function"
    },
    {
      "inputs": [],
      "name": "getDataHolderAddress",
      "outputs": [
        {
          "internalType": "address",
          "name": "",
          "type": "address"
        }
      ],
      "stateMutability": "view",
      "type": "function"
    },
    {
      "inputs": [
        {
          "internalType": "uint256",
          "name": "_tokenId",
          "type": "uint256"
        }
      ],
      "name": "getVoucherHash",
      "outputs": [
        {
          "internalType": "uint256",
          "name": "",
          "type": "uint256"
        }
      ],
      "stateMutability": "view",
      "type": "function"
    },
    {
      "inputs": [
        {
          "internalType": "address",
          "name": "_to",
          "type": "address"
        },
        {
          "internalType": "string",
          "name": "_uri",
          "type": "string"
        },
        {
          "internalType": "bytes",
          "name": "_signature",
          "type": "bytes"
        }
      ],
      "name": "give",
      "outputs": [
        {
          "internalType": "uint256",
          "name": "",
          "type": "uint256"
        }
      ],
      "stateMutability": "nonpayable",
      "type": "function"
    },
    {
      "inputs": [
        {
          "internalType": "string",
          "name": "_name",
          "type": "string"
        },
        {
          "internalType": "string",
          "name": "_symbol",
          "type": "string"
        },
        {
          "internalType": "string",
          "name": "_version",
          "type": "string"
        },
        {
          "internalType": "address",
          "name": "_nextOwner",
          "type": "address"
        },
        {
          "internalType": "address",
          "name": "_specDataHolderAddress",
          "type": "address"
        }
      ],
      "name": "initialize",
      "outputs": [],
      "stateMutability": "nonpayable",
      "type": "function"
    },
    {
      "inputs": [],
      "name": "name",
      "outputs": [
        {
          "internalType": "string",
          "name": "",
          "type": "string"
        }
      ],
      "stateMutability": "view",
      "type": "function"
    },
    {
      "inputs": [],
      "name": "owner",
      "outputs": [
        {
          "internalType": "address",
          "name": "",
          "type": "address"
        }
      ],
      "stateMutability": "view",
      "type": "function"
    },
    {
      "inputs": [
        {
          "internalType": "uint256",
          "name": "_tokenId",
          "type": "uint256"
        }
      ],
      "name": "ownerOf",
      "outputs": [
        {
          "internalType": "address",
          "name": "",
          "type": "address"
        }
      ],
      "stateMutability": "view",
      "type": "function"
    },
    {
      "inputs": [],
      "name": "proxiableUUID",
      "outputs": [
        {
          "internalType": "bytes32",
          "name": "",
          "type": "bytes32"
        }
      ],
      "stateMutability": "view",
      "type": "function"
    },
    {
      "inputs": [],
      "name": "renounceOwnership",
      "outputs": [],
      "stateMutability": "nonpayable",
      "type": "function"
    },
    {
      "inputs": [
        {
          "internalType": "address",
          "name": "_dataHolder",
          "type": "address"
        }
      ],
      "name": "setDataHolder",
      "outputs": [],
      "stateMutability": "nonpayable",
      "type": "function"
    },
    {
      "inputs": [
        {
          "internalType": "bytes4",
          "name": "_interfaceId",
          "type": "bytes4"
        }
      ],
      "name": "supportsInterface",
      "outputs": [
        {
          "internalType": "bool",
          "name": "",
          "type": "bool"
        }
      ],
      "stateMutability": "view",
      "type": "function"
    },
    {
      "inputs": [],
      "name": "symbol",
      "outputs": [
        {
          "internalType": "string",
          "name": "",
          "type": "string"
        }
      ],
      "stateMutability": "view",
      "type": "function"
    },
    {
      "inputs": [
        {
          "internalType": "address",
          "name": "_from",
          "type": "address"
        },
        {
          "internalType": "string",
          "name": "_uri",
          "type": "string"
        },
        {
          "internalType": "bytes",
          "name": "_signature",
          "type": "bytes"
        }
      ],
      "name": "take",
      "outputs": [
        {
          "internalType": "uint256",
          "name": "",
          "type": "uint256"
        }
      ],
      "stateMutability": "nonpayable",
      "type": "function"
    },
    {
      "inputs": [
        {
          "internalType": "uint256",
          "name": "_tokenId",
          "type": "uint256"
        }
      ],
      "name": "tokenURI",
      "outputs": [
        {
          "internalType": "string",
          "name": "",
          "type": "string"
        }
      ],
      "stateMutability": "view",
      "type": "function"
    },
    {
      "inputs": [
        {
          "internalType": "address",
          "name": "newOwner",
          "type": "address"
        }
      ],
      "name": "transferOwnership",
      "outputs": [],
      "stateMutability": "nonpayable",
      "type": "function"
    },
    {
      "inputs": [
        {
          "internalType": "uint256",
          "name": "_tokenId",
          "type": "uint256"
        }
      ],
      "name": "unequip",
      "outputs": [],
      "stateMutability": "nonpayable",
      "type": "function"
    },
    {
      "inputs": [
        {
          "internalType": "address",
          "name": "newImplementation",
          "type": "address"
        }
      ],
      "name": "upgradeTo",
      "outputs": [],
      "stateMutability": "nonpayable",
      "type": "function"
    },
    {
      "inputs": [
        {
          "internalType": "address",
          "name": "newImplementation",
          "type": "address"
        },
        {
          "internalType": "bytes",
          "name": "data",
          "type": "bytes"
        }
      ],
      "name": "upgradeToAndCall",
      "outputs": [],
      "stateMutability": "payable",
      "type": "function"
    }
  ],
  "bytecode": {
    "object": "0x60a0604052306080523480156200001557600080fd5b506200002062000026565b620000e8565b600054610100900460ff1615620000935760405162461bcd60e51b815260206004820152602760248201527f496e697469616c697a61626c653a20636f6e747261637420697320696e697469604482015266616c697a696e6760c81b606482015260840160405180910390fd5b60005460ff9081161015620000e6576000805460ff191660ff9081179091556040519081527f7f26b83ff96e1f2b6a682f133852f6798a09c465da95921460cefb38474024989060200160405180910390a15b565b60805161274e62000120600039600081816105050152818161054e015281816108a8015281816108e8015261097b015261274e6000f3fe6080604052600436106101355760003560e01c80638da5cb5b116100ab578063c87b56dd1161006f578063c87b56dd14610356578063d179e3d014610376578063d6d0faee14610396578063e4992506146103b6578063ec64948e146103d6578063f2fde38b146103f657600080fd5b80638da5cb5b146102c357806395d89b41146102e1578063a3947803146102f6578063a8cf868314610316578063c01841121461033657600080fd5b80634f1ef286116100fd5780634f1ef2861461020f57806352d1902d146102225780636352211e14610237578063635ad9931461026f57806370a082311461028e578063715018a6146102ae57600080fd5b806301ffc9a71461013a57806306fdde031461016f5780633659cfe6146101915780633b363a09146101b3578063445a62b9146101ef575b600080fd5b34801561014657600080fd5b5061015a610155366004611f24565b610416565b60405190151581526020015b60405180910390f35b34801561017b57600080fd5b50610184610468565b6040516101669190611f9e565b34801561019d57600080fd5b506101b16101ac366004611fc6565b6104fb565b005b3480156101bf57600080fd5b506101e16101ce366004611fe3565b6000908152610136602052604090205490565b604051908152602001610166565b3480156101fb57600080fd5b506101b161020a3660046120a8565b6105e3565b6101b161021d3660046120ed565b61089e565b34801561022e57600080fd5b506101e161096e565b34801561024357600080fd5b50610257610252366004611fe3565b610a21565b6040516001600160a01b039091168152602001610166565b34801561027b57600080fd5b50610135546001600160a01b0316610257565b34801561029a57600080fd5b506101e16102a9366004611fc6565b610a87565b3480156102ba57600080fd5b506101b1610b12565b3480156102cf57600080fd5b5060c9546001600160a01b0316610257565b3480156102ed57600080fd5b50610184610b26565b34801561030257600080fd5b506101e1610311366004612193565b610b36565b34801561032257600080fd5b506101e1610331366004612216565b610c23565b34801561034257600080fd5b506101b1610351366004611fc6565b610c56565b34801561036257600080fd5b50610184610371366004611fe3565b610c81565b34801561038257600080fd5b506101b1610391366004611fe3565b610d88565b3480156103a257600080fd5b506101b16103b136600461225c565b610e8d565b3480156103c257600080fd5b506101e16103d136600461230c565b610ffe565b3480156103e257600080fd5b506101e16103f1366004612193565b611097565b34801561040257600080fd5b506101b1610411366004611fc6565b611145565b60006001600160e01b03198216635b5e139f60e01b148061044757506001600160e01b031982166346bdd63960e11b145b8061046257506301ffc9a760e01b6001600160e01b03198316145b92915050565b6060610130805461047890612371565b80601f01602080910402602001604051908101604052809291908181526020018280546104a490612371565b80156104f15780601f106104c6576101008083540402835291602001916104f1565b820191906000526020600020905b8154815290600101906020018083116104d457829003601f168201915b5050505050905090565b6001600160a01b037f000000000000000000000000000000000000000000000000000000000000000016300361054c5760405162461bcd60e51b8152600401610543906123ab565b60405180910390fd5b7f00000000000000000000000000000000000000000000000000000000000000006001600160a01b03166105956000805160206126d2833981519152546001600160a01b031690565b6001600160a01b0316146105bb5760405162461bcd60e51b8152600401610543906123f7565b6105c4816111bb565b604080516000808252602082019092526105e0918391906111c3565b50565b6101355460405163b2a0cb6b60e01b81526004810183905233916001600160a01b03169063b2a0cb6b90602401602060405180830381865afa15801561062d573d6000803e3d6000fd5b505050506040513d601f19601f820116820180604052508101906106519190612443565b6001600160a01b0316146106a75760405162461bcd60e51b815260206004820152601860248201527f637265617465537065633a20756e617574686f72697a656400000000000000006044820152606401610543565b61013554604051637e07102760e11b81526001600160a01b039091169063fc0e204e906106d8908590600401611f9e565b602060405180830381865afa1580156106f5573d6000803e3d6000fd5b505050506040513d601f19601f820116820180604052508101906107199190612460565b156107725760405162461bcd60e51b815260206004820152602360248201527f637265617465537065633a207370656320616c726561647920726567697374656044820152621c995960ea1b6064820152608401610543565b6101355460405163addd190760e01b81526001600160a01b039091169063addd1907906107a59085908590600401612482565b600060405180830381600087803b1580156107bf57600080fd5b505af11580156107d3573d6000803e3d6000fd5b5050505061013560009054906101000a90046001600160a01b03166001600160a01b03166334f876626040518163ffffffff1660e01b8152600401602060405180830381865afa15801561082b573d6000803e3d6000fd5b505050506040513d601f19601f8201168201806040525081019061084f9190612443565b6001600160a01b031681336001600160a01b03167f68c7f8503283c455a4445b54a7d5c40656c8cae5cca0583c6d4be83698478700856040516108929190611f9e565b60405180910390a45050565b6001600160a01b037f00000000000000000000000000000000000000000000000000000000000000001630036108e65760405162461bcd60e51b8152600401610543906123ab565b7f00000000000000000000000000000000000000000000000000000000000000006001600160a01b031661092f6000805160206126d2833981519152546001600160a01b031690565b6001600160a01b0316146109555760405162461bcd60e51b8152600401610543906123f7565b61095e826111bb565b61096a828260016111c3565b5050565b6000306001600160a01b037f00000000000000000000000000000000000000000000000000000000000000001614610a0e5760405162461bcd60e51b815260206004820152603860248201527f555550535570677261646561626c653a206d757374206e6f742062652063616c60448201527f6c6564207468726f7567682064656c656761746563616c6c00000000000000006064820152608401610543565b506000805160206126d283398151915290565b600081815261013260205260408120546001600160a01b0316806104625760405162461bcd60e51b815260206004820152601c60248201527f6f776e65724f663a20746f6b656e20646f65736e2774206578697374000000006044820152606401610543565b60006001600160a01b038216610af55760405162461bcd60e51b815260206004820152602d60248201527f62616c616e63654f663a2061646472657373207a65726f206973206e6f74206160448201526c2076616c6964206f776e65725f60981b6064820152608401610543565b506001600160a01b03166000908152610134602052604090205490565b610b1a611333565b610b24600061138d565b565b6060610131805461047890612371565b60006001600160a01b0386163303610b905760405162461bcd60e51b815260206004820152601b60248201527f74616b653a2063616e6e6f742074616b652066726f6d2073656c6600000000006044820152606401610543565b6000610ba03388888888886113df565b90506000610be43388888080601f01602080910402602001604051908101604052809392919081815260200183838082843760009201919091525061150992505050565b600883901c600090815261012f602052604090208054600160ff86161b1790559050600081815261013660205260409020919091559695505050505050565b60008282604051602001610c389291906124a4565b60405160208183030381529060405280519060200120905092915050565b610c5e611333565b61013580546001600160a01b0319166001600160a01b0392909216919091179055565b600081815261013260205260409020546060906001600160a01b0316610ce95760405162461bcd60e51b815260206004820152601d60248201527f746f6b656e5552493a20746f6b656e20646f65736e27742065786973740000006044820152606401610543565b6000828152610133602052604090208054610d0390612371565b80601f0160208091040260200160405190810160405280929190818152602001828054610d2f90612371565b8015610d7c5780601f10610d5157610100808354040283529160200191610d7c565b820191906000526020600020905b815481529060010190602001808311610d5f57829003601f168201915b50505050509050919050565b600081815261013260205260409020546001600160a01b0316610ded5760405162461bcd60e51b815260206004820152601c60248201527f756e65717569703a20746f6b656e20646f65736e2774206578697374000000006044820152606401610543565b600081815261013260205260409020546001600160a01b03163314610e545760405162461bcd60e51b815260206004820152601d60248201527f756e65717569703a2073656e646572206d757374206265206f776e65720000006044820152606401610543565b60008181526101366020908152604080832054600881901c845261012f9092529091208054600160ff84161b1916905561096a82611754565b600054610100900460ff1615808015610ead5750600054600160ff909116105b80610ec75750303b158015610ec7575060005460ff166001145b610f2a5760405162461bcd60e51b815260206004820152602e60248201527f496e697469616c697a61626c653a20636f6e747261637420697320616c72656160448201526d191e481a5b9a5d1a585b1a5e995960921b6064820152608401610543565b6000805460ff191660011790558015610f4d576000805461ff0019166101001790555b610130610f5a8782612516565b50610131610f688682612516565b5061013580546001600160a01b0319166001600160a01b038416179055610f8d61180e565b610f95611835565b610f9f8685611864565b610fa761180e565b610fb083611145565b8015610ff6576000805461ff0019169055604051600181527f7f26b83ff96e1f2b6a682f133852f6798a09c465da95921460cefb38474024989060200160405180910390a15b505050505050565b6000807fe76a195fbe43f0eaa611595069f780493db2202a1cc4b2d7d44b47069812998a868686866040516110349291906125d6565b60405190819003812061106c949392916020019384526001600160a01b03928316602085015291166040830152606082015260800190565b60405160208183030381529060405280519060200120905061108d81611895565b9695505050505050565b60006001600160a01b03861633036110f15760405162461bcd60e51b815260206004820152601b60248201527f676976653a2063616e6e6f7420676976652066726f6d2073656c6600000000006044820152606401610543565b60006111013388888888886113df565b90506000610be48888888080601f01602080910402602001604051908101604052809392919081815260200183838082843760009201919091525061150992505050565b61114d611333565b6001600160a01b0381166111b25760405162461bcd60e51b815260206004820152602660248201527f4f776e61626c653a206e6577206f776e657220697320746865207a65726f206160448201526564647265737360d01b6064820152608401610543565b6105e08161138d565b6105e0611333565b7f4910fdfa16fed3260ed0e7147f7cc6da11a60208b5b9406d12a635614ffd91435460ff16156111fb576111f6836118a8565b505050565b826001600160a01b03166352d1902d6040518163ffffffff1660e01b8152600401602060405180830381865afa925050508015611255575060408051601f3d908101601f19168201909252611252918101906125e6565b60015b6112b85760405162461bcd60e51b815260206004820152602e60248201527f45524331393637557067726164653a206e657720696d706c656d656e7461746960448201526d6f6e206973206e6f74205555505360901b6064820152608401610543565b6000805160206126d283398151915281146113275760405162461bcd60e51b815260206004820152602960248201527f45524331393637557067726164653a20756e737570706f727465642070726f786044820152681a58589b195555525160ba1b6064820152608401610543565b506111f6838383611944565b60c9546001600160a01b03163314610b245760405162461bcd60e51b815260206004820181905260248201527f4f776e61626c653a2063616c6c6572206973206e6f7420746865206f776e65726044820152606401610543565b60c980546001600160a01b038381166001600160a01b0319831681179093556040519116919082907f8be0079c531659141344cd1fd0a4f28419497f9722a3daafe3b4186f6b6457e090600090a35050565b6000806113ee88888888610ffe565b905060008160001c9050611439888387878080601f01602080910402602001604051908101604052809392919081815260200183838082843760009201919091525061196f92505050565b6114935760405162461bcd60e51b815260206004820152602560248201527f73616665436865636b41677265656d656e743a20696e76616c6964207369676e604482015264617475726560d81b6064820152608401610543565b600881901c600090815261012f6020526040902054600160ff83161b16156114fd5760405162461bcd60e51b815260206004820181905260248201527f73616665436865636b41677265656d656e743a20616c726561647920757365646044820152606401610543565b98975050505050505050565b61013554604051633664a8e960e01b815260009182916001600160a01b0390911690633664a8e99061153f908690600401611f9e565b602060405180830381865afa15801561155c573d6000803e3d6000fd5b505050506040513d601f19601f8201168201806040525081019061158091906125e6565b9050600061158e8585610c23565b90508060008390036115e25760405162461bcd60e51b815260206004820152601c60248201527f6d696e743a2073706563206973206e6f742072656769737465726564000000006044820152606401610543565b600081815261013260205260409020546001600160a01b03161561163f5760405162461bcd60e51b81526020600482015260146024820152736d696e743a20746f6b656e49442065786973747360601b6044820152606401610543565b6001600160a01b038616600090815261013460205260408120805460019290611669908490612615565b909155505060008181526101326020908152604080832080546001600160a01b0319166001600160a01b038b1617905561013390915290206116ab8682612516565b5060405181906001600160a01b038816906000907fddf252ad1be2c89b69c2b068fc378daa952ba7f163c4a11628f55a4df523b3ef908290a46101355460405163fb74926160e01b815260048101839052602481018590526001600160a01b039091169063fb74926190604401600060405180830381600087803b15801561173257600080fd5b505af1158015611746573d6000803e3d6000fd5b509298975050505050505050565b600081815261013260209081526040808320546001600160a01b031680845261013490925282208054919260019261178d908490612628565b909155505060008281526101326020908152604080832080546001600160a01b031916905561013390915281206117c391611ed6565b60008281526101366020526040808220829055518391906001600160a01b038416907fddf252ad1be2c89b69c2b068fc378daa952ba7f163c4a11628f55a4df523b3ef908390a45050565b600054610100900460ff16610b245760405162461bcd60e51b81526004016105439061263b565b600054610100900460ff1661185c5760405162461bcd60e51b81526004016105439061263b565b610b24611ab3565b600054610100900460ff1661188b5760405162461bcd60e51b81526004016105439061263b565b61096a8282611ae3565b60006104626118a2611b24565b83611ba4565b6001600160a01b0381163b6119155760405162461bcd60e51b815260206004820152602d60248201527f455243313936373a206e657720696d706c656d656e746174696f6e206973206e60448201526c1bdd08184818dbdb9d1c9858dd609a1b6064820152608401610543565b6000805160206126d283398151915280546001600160a01b0319166001600160a01b0392909216919091179055565b61194d83611bcb565b60008251118061195a5750805b156111f6576119698383611c0b565b50505050565b600080600061197e8585611cff565b9092509050600081600481111561199757611997612686565b1480156119b55750856001600160a01b0316826001600160a01b0316145b156119c557600192505050611aac565b600080876001600160a01b0316631626ba7e60e01b88886040516024016119ed92919061269c565b60408051601f198184030181529181526020820180516001600160e01b03166001600160e01b0319909416939093179092529051611a2b91906126b5565b600060405180830381855afa9150503d8060008114611a66576040519150601f19603f3d011682016040523d82523d6000602084013e611a6b565b606091505b5091509150818015611a7e575080516020145b8015611aa557508051630b135d3f60e11b90611aa390830160209081019084016125e6565b145b9450505050505b9392505050565b600054610100900460ff16611ada5760405162461bcd60e51b81526004016105439061263b565b610b243361138d565b600054610100900460ff16611b0a5760405162461bcd60e51b81526004016105439061263b565b81516020928301208151919092012060fb9190915560fc55565b6000611b9f7f8b73c3c69bb8fe3d512ecc4cf759cc79239f7b179b0ffacaa9a75d522b39400f611b5360fb5490565b60fc546040805160208101859052908101839052606081018290524660808201523060a082015260009060c0016040516020818303038152906040528051906020012090509392505050565b905090565b60405161190160f01b60208201526022810183905260428101829052600090606201610c38565b611bd4816118a8565b6040516001600160a01b038216907fbc7cd75a20ee27fd9adebab32041f755214dbc6bffa90cc0225b39da2e5c2d3b90600090a250565b60606001600160a01b0383163b611c735760405162461bcd60e51b815260206004820152602660248201527f416464726573733a2064656c65676174652063616c6c20746f206e6f6e2d636f6044820152651b9d1c9858dd60d21b6064820152608401610543565b600080846001600160a01b031684604051611c8e91906126b5565b600060405180830381855af49150503d8060008114611cc9576040519150601f19603f3d011682016040523d82523d6000602084013e611cce565b606091505b5091509150611cf682826040518060600160405280602781526020016126f260279139611d6d565b95945050505050565b6000808251604103611d355760208301516040840151606085015160001a611d2987828585611d86565b94509450505050611d66565b8251604003611d5e5760208301516040840151611d53868383611e73565b935093505050611d66565b506000905060025b9250929050565b60608315611d7c575081611aac565b611aac8383611eac565b6000807f7fffffffffffffffffffffffffffffff5d576e7357a4501ddfe92f46681b20a0831115611dbd5750600090506003611e6a565b8460ff16601b14158015611dd557508460ff16601c14155b15611de65750600090506004611e6a565b6040805160008082526020820180845289905260ff881692820192909252606081018690526080810185905260019060a0016020604051602081039080840390855afa158015611e3a573d6000803e3d6000fd5b5050604051601f1901519150506001600160a01b038116611e6357600060019250925050611e6a565b9150600090505b94509492505050565b6000806001600160ff1b03831681611e9060ff86901c601b612615565b9050611e9e87828885611d86565b935093505050935093915050565b815115611ebc5781518083602001fd5b8060405162461bcd60e51b81526004016105439190611f9e565b508054611ee290612371565b6000825580601f10611ef2575050565b601f0160209004906000526020600020908101906105e091905b80821115611f205760008155600101611f0c565b5090565b600060208284031215611f3657600080fd5b81356001600160e01b031981168114611aac57600080fd5b60005b83811015611f69578181015183820152602001611f51565b50506000910152565b60008151808452611f8a816020860160208601611f4e565b601f01601f19169290920160200192915050565b602081526000611aac6020830184611f72565b6001600160a01b03811681146105e057600080fd5b600060208284031215611fd857600080fd5b8135611aac81611fb1565b600060208284031215611ff557600080fd5b5035919050565b634e487b7160e01b600052604160045260246000fd5b600067ffffffffffffffff8084111561202d5761202d611ffc565b604051601f8501601f19908116603f0116810190828211818310171561205557612055611ffc565b8160405280935085815286868601111561206e57600080fd5b858560208301376000602087830101525050509392505050565b600082601f83011261209957600080fd5b611aac83833560208501612012565b600080604083850312156120bb57600080fd5b823567ffffffffffffffff8111156120d257600080fd5b6120de85828601612088565b95602094909401359450505050565b6000806040838503121561210057600080fd5b823561210b81611fb1565b9150602083013567ffffffffffffffff81111561212757600080fd5b8301601f8101851361213857600080fd5b61214785823560208401612012565b9150509250929050565b60008083601f84011261216357600080fd5b50813567ffffffffffffffff81111561217b57600080fd5b602083019150836020828501011115611d6657600080fd5b6000806000806000606086880312156121ab57600080fd5b85356121b681611fb1565b9450602086013567ffffffffffffffff808211156121d357600080fd5b6121df89838a01612151565b909650945060408801359150808211156121f857600080fd5b5061220588828901612151565b969995985093965092949392505050565b6000806040838503121561222957600080fd5b823561223481611fb1565b9150602083013567ffffffffffffffff81111561225057600080fd5b61214785828601612088565b600080600080600060a0868803121561227457600080fd5b853567ffffffffffffffff8082111561228c57600080fd5b61229889838a01612088565b965060208801359150808211156122ae57600080fd5b6122ba89838a01612088565b955060408801359150808211156122d057600080fd5b506122dd88828901612088565b93505060608601356122ee81611fb1565b915060808601356122fe81611fb1565b809150509295509295909350565b6000806000806060858703121561232257600080fd5b843561232d81611fb1565b9350602085013561233d81611fb1565b9250604085013567ffffffffffffffff81111561235957600080fd5b61236587828801612151565b95989497509550505050565b600181811c9082168061238557607f821691505b6020821081036123a557634e487b7160e01b600052602260045260246000fd5b50919050565b6020808252602c908201527f46756e6374696f6e206d7573742062652063616c6c6564207468726f7567682060408201526b19195b1959d85d1958d85b1b60a21b606082015260800190565b6020808252602c908201527f46756e6374696f6e206d7573742062652063616c6c6564207468726f7567682060408201526b6163746976652070726f787960a01b606082015260800190565b60006020828403121561245557600080fd5b8151611aac81611fb1565b60006020828403121561247257600080fd5b81518015158114611aac57600080fd5b6040815260006124956040830185611f72565b90508260208301529392505050565b6001600160a01b03831681526040602082018190526000906124c890830184611f72565b949350505050565b601f8211156111f657600081815260208120601f850160051c810160208610156124f75750805b601f850160051c820191505b81811015610ff657828155600101612503565b815167ffffffffffffffff81111561253057612530611ffc565b6125448161253e8454612371565b846124d0565b602080601f83116001811461257957600084156125615750858301515b600019600386901b1c1916600185901b178555610ff6565b600085815260208120601f198616915b828110156125a857888601518255948401946001909101908401612589565b50858210156125c65787850151600019600388901b60f8161c191681555b5050505050600190811b01905550565b8183823760009101908152919050565b6000602082840312156125f857600080fd5b5051919050565b634e487b7160e01b600052601160045260246000fd5b80820180821115610462576104626125ff565b81810381811115610462576104626125ff565b6020808252602b908201527f496e697469616c697a61626c653a20636f6e7472616374206973206e6f74206960408201526a6e697469616c697a696e6760a81b606082015260800190565b634e487b7160e01b600052602160045260246000fd5b8281526040602082015260006124c86040830184611f72565b600082516126c7818460208701611f4e565b919091019291505056fe360894a13ba1a3210667c828492db98dca3e2076cc3735a920a3ca505d382bbc416464726573733a206c6f772d6c6576656c2064656c65676174652063616c6c206661696c6564a2646970667358221220b023835486f970454dc108f58bfd3a37cc9ac1df3d668ba202698142d00ea15b64736f6c63430008100033",
    "linkReferences": {}
  },
  "methodIdentifiers": {
    "balanceOf(address)": "70a08231",
    "createSpec(string,uint256)": "445a62b9",
    "getAgreementHash(address,address,string)": "e4992506",
    "getBadgeIdHash(address,string)": "a8cf8683",
    "getDataHolderAddress()": "635ad993",
    "getVoucherHash(uint256)": "3b363a09",
    "give(address,string,bytes)": "ec64948e",
    "initialize(string,string,string,address,address)": "d6d0faee",
    "name()": "06fdde03",
    "owner()": "8da5cb5b",
    "ownerOf(uint256)": "6352211e",
    "proxiableUUID()": "52d1902d",
    "renounceOwnership()": "715018a6",
    "setDataHolder(address)": "c0184112",
    "supportsInterface(bytes4)": "01ffc9a7",
    "symbol()": "95d89b41",
    "take(address,string,bytes)": "a3947803",
    "tokenURI(uint256)": "c87b56dd",
    "transferOwnership(address)": "f2fde38b",
    "unequip(uint256)": "d179e3d0",
    "upgradeTo(address)": "3659cfe6",
    "upgradeToAndCall(address,bytes)": "4f1ef286"
  },
  "id": 43
}