{
  "abi": [
    {
      "inputs": [],
      "stateMutability": "nonpayable",
      "type": "constructor"
    },
    {
      "anonymous": false,
      "inputs": [
        {
          "indexed": false,
          "internalType": "address",
          "name": "previousAdmin",
          "type": "address"
        },
        {
          "indexed": false,
          "internalType": "address",
          "name": "newAdmin",
          "type": "address"
        }
      ],
      "name": "AdminChanged",
      "type": "event"
    },
    {
      "anonymous": false,
      "inputs": [
        {
          "indexed": true,
          "internalType": "address",
          "name": "beacon",
          "type": "address"
        }
      ],
      "name": "BeaconUpgraded",
      "type": "event"
    },
    {
      "anonymous": false,
      "inputs": [
        {
          "indexed": false,
          "internalType": "uint8",
          "name": "version",
          "type": "uint8"
        }
      ],
      "name": "Initialized",
      "type": "event"
    },
    {
      "anonymous": false,
      "inputs": [
        {
          "indexed": true,
          "internalType": "address",
          "name": "previousOwner",
          "type": "address"
        },
        {
          "indexed": true,
          "internalType": "address",
          "name": "newOwner",
          "type": "address"
        }
      ],
      "name": "OwnershipTransferred",
      "type": "event"
    },
    {
      "anonymous": false,
      "inputs": [
        {
          "indexed": true,
          "internalType": "address",
          "name": "to",
          "type": "address"
        },
        {
          "indexed": false,
          "internalType": "string",
          "name": "specUri",
          "type": "string"
        },
        {
          "indexed": true,
          "internalType": "uint256",
          "name": "raftTokenId",
          "type": "uint256"
        },
        {
          "indexed": true,
          "internalType": "address",
          "name": "raftAddress",
          "type": "address"
        }
      ],
      "name": "SpecCreated",
      "type": "event"
    },
    {
      "anonymous": false,
      "inputs": [
        {
          "indexed": true,
          "internalType": "address",
          "name": "from",
          "type": "address"
        },
        {
          "indexed": true,
          "internalType": "address",
          "name": "to",
          "type": "address"
        },
        {
          "indexed": true,
          "internalType": "uint256",
          "name": "tokenId",
          "type": "uint256"
        }
      ],
      "name": "Transfer",
      "type": "event"
    },
    {
      "anonymous": false,
      "inputs": [
        {
          "indexed": true,
          "internalType": "address",
          "name": "implementation",
          "type": "address"
        }
      ],
      "name": "Upgraded",
      "type": "event"
    },
    {
      "inputs": [
        {
          "internalType": "uint256",
          "name": "",
          "type": "uint256"
        }
      ],
      "name": "badgeExpirationDates",
      "outputs": [
        {
          "internalType": "uint256",
          "name": "",
          "type": "uint256"
        }
      ],
      "stateMutability": "view",
      "type": "function"
    },
    {
      "inputs": [
        {
          "internalType": "address",
          "name": "_owner",
          "type": "address"
        }
      ],
      "name": "balanceOf",
      "outputs": [
        {
          "internalType": "uint256",
          "name": "",
          "type": "uint256"
        }
      ],
      "stateMutability": "view",
      "type": "function"
    },
    {
      "inputs": [
        {
          "internalType": "string",
          "name": "_specUri",
          "type": "string"
        },
        {
          "internalType": "uint256",
          "name": "_raftTokenId",
          "type": "uint256"
        }
      ],
      "name": "createSpec",
      "outputs": [],
      "stateMutability": "nonpayable",
      "type": "function"
    },
    {
      "inputs": [
        {
          "internalType": "address",
          "name": "_from",
          "type": "address"
        },
        {
          "internalType": "address",
          "name": "_to",
          "type": "address"
        },
        {
          "internalType": "string",
          "name": "_uri",
          "type": "string"
        }
      ],
      "name": "getAgreementHash",
      "outputs": [
        {
          "internalType": "bytes32",
          "name": "",
          "type": "bytes32"
        }
      ],
      "stateMutability": "view",
      "type": "function"
    },
    {
      "inputs": [
        {
          "internalType": "address",
          "name": "_to",
          "type": "address"
        },
        {
          "internalType": "string",
          "name": "_uri",
          "type": "string"
        }
      ],
      "name": "getBadgeIdHash",
      "outputs": [
        {
          "internalType": "bytes32",
          "name": "",
          "type": "bytes32"
        }
      ],
      "stateMutability": "view",
      "type": "function"
    },
    {
      "inputs": [],
      "name": "getDataHolderAddress",
      "outputs": [
        {
          "internalType": "address",
          "name": "",
          "type": "address"
        }
      ],
      "stateMutability": "view",
      "type": "function"
    },
    {
      "inputs": [
        {
          "internalType": "uint256",
          "name": "_tokenId",
          "type": "uint256"
        }
      ],
      "name": "getVoucherHash",
      "outputs": [
        {
          "internalType": "uint256",
          "name": "",
          "type": "uint256"
        }
      ],
      "stateMutability": "view",
      "type": "function"
    },
    {
      "inputs": [
        {
          "internalType": "address",
          "name": "_to",
          "type": "address"
        },
        {
          "internalType": "string",
          "name": "_uri",
          "type": "string"
        },
        {
          "internalType": "bytes",
          "name": "_signature",
          "type": "bytes"
        }
      ],
      "name": "give",
      "outputs": [
        {
          "internalType": "uint256",
          "name": "",
          "type": "uint256"
        }
      ],
      "stateMutability": "nonpayable",
      "type": "function"
    },
    {
      "inputs": [
        {
          "internalType": "string",
          "name": "_name",
          "type": "string"
        },
        {
          "internalType": "string",
          "name": "_symbol",
          "type": "string"
        },
        {
          "internalType": "string",
          "name": "_version",
          "type": "string"
        },
        {
          "internalType": "address",
          "name": "_nextOwner",
          "type": "address"
        },
        {
          "internalType": "address",
          "name": "_specDataHolderAddress",
          "type": "address"
        }
      ],
      "name": "initialize",
      "outputs": [],
      "stateMutability": "nonpayable",
      "type": "function"
    },
    {
      "inputs": [
        {
          "internalType": "uint256",
          "name": "_badgeId",
          "type": "uint256"
        },
        {
          "internalType": "uint256",
          "name": "timestamp",
          "type": "uint256"
        }
      ],
      "name": "isBadgeValid",
      "outputs": [
        {
          "internalType": "bool",
          "name": "",
          "type": "bool"
        }
      ],
      "stateMutability": "view",
      "type": "function"
    },
    {
      "inputs": [],
      "name": "name",
      "outputs": [
        {
          "internalType": "string",
          "name": "",
          "type": "string"
        }
      ],
      "stateMutability": "view",
      "type": "function"
    },
    {
      "inputs": [],
      "name": "owner",
      "outputs": [
        {
          "internalType": "address",
          "name": "",
          "type": "address"
        }
      ],
      "stateMutability": "view",
      "type": "function"
    },
    {
      "inputs": [
        {
          "internalType": "uint256",
          "name": "_tokenId",
          "type": "uint256"
        }
      ],
      "name": "ownerOf",
      "outputs": [
        {
          "internalType": "address",
          "name": "",
          "type": "address"
        }
      ],
      "stateMutability": "view",
      "type": "function"
    },
    {
      "inputs": [],
      "name": "proxiableUUID",
      "outputs": [
        {
          "internalType": "bytes32",
          "name": "",
          "type": "bytes32"
        }
      ],
      "stateMutability": "view",
      "type": "function"
    },
    {
      "inputs": [
        {
          "internalType": "uint256",
          "name": "_raftTokenId",
          "type": "uint256"
        },
        {
          "internalType": "uint256",
          "name": "_badgeId",
          "type": "uint256"
        }
      ],
      "name": "reinstateBadge",
      "outputs": [],
      "stateMutability": "nonpayable",
      "type": "function"
    },
    {
      "inputs": [],
      "name": "renounceOwnership",
      "outputs": [],
      "stateMutability": "nonpayable",
      "type": "function"
    },
    {
      "inputs": [
        {
          "internalType": "uint256",
          "name": "_raftTokenId",
          "type": "uint256"
        },
        {
          "internalType": "uint256",
          "name": "_badgeId",
          "type": "uint256"
        }
      ],
      "name": "revokeBadge",
      "outputs": [],
      "stateMutability": "nonpayable",
      "type": "function"
    },
    {
      "inputs": [
        {
          "internalType": "uint256",
          "name": "",
          "type": "uint256"
        }
      ],
      "name": "revokedBadges",
      "outputs": [
        {
          "internalType": "bool",
          "name": "",
          "type": "bool"
        }
      ],
      "stateMutability": "view",
      "type": "function"
    },
    {
      "inputs": [
        {
          "internalType": "address",
          "name": "_dataHolder",
          "type": "address"
        }
      ],
      "name": "setDataHolder",
      "outputs": [],
      "stateMutability": "nonpayable",
      "type": "function"
    },
    {
      "inputs": [
        {
          "internalType": "bytes4",
          "name": "_interfaceId",
          "type": "bytes4"
        }
      ],
      "name": "supportsInterface",
      "outputs": [
        {
          "internalType": "bool",
          "name": "",
          "type": "bool"
        }
      ],
      "stateMutability": "view",
      "type": "function"
    },
    {
      "inputs": [],
      "name": "symbol",
      "outputs": [
        {
          "internalType": "string",
          "name": "",
          "type": "string"
        }
      ],
      "stateMutability": "view",
      "type": "function"
    },
    {
      "inputs": [
        {
          "internalType": "address",
          "name": "_from",
          "type": "address"
        },
        {
          "internalType": "string",
          "name": "_uri",
          "type": "string"
        },
        {
          "internalType": "bytes",
          "name": "_signature",
          "type": "bytes"
        }
      ],
      "name": "take",
      "outputs": [
        {
          "internalType": "uint256",
          "name": "",
          "type": "uint256"
        }
      ],
      "stateMutability": "nonpayable",
      "type": "function"
    },
    {
      "inputs": [
        {
          "internalType": "uint256",
          "name": "_tokenId",
          "type": "uint256"
        }
      ],
      "name": "tokenURI",
      "outputs": [
        {
          "internalType": "string",
          "name": "",
          "type": "string"
        }
      ],
      "stateMutability": "view",
      "type": "function"
    },
    {
      "inputs": [
        {
          "internalType": "address",
          "name": "newOwner",
          "type": "address"
        }
      ],
      "name": "transferOwnership",
      "outputs": [],
      "stateMutability": "nonpayable",
      "type": "function"
    },
    {
      "inputs": [
        {
          "internalType": "uint256",
          "name": "_tokenId",
          "type": "uint256"
        }
      ],
      "name": "unequip",
      "outputs": [],
      "stateMutability": "nonpayable",
      "type": "function"
    },
    {
      "inputs": [
        {
          "internalType": "address",
          "name": "newImplementation",
          "type": "address"
        }
      ],
      "name": "upgradeTo",
      "outputs": [],
      "stateMutability": "nonpayable",
      "type": "function"
    },
    {
      "inputs": [
        {
          "internalType": "address",
          "name": "newImplementation",
          "type": "address"
        },
        {
          "internalType": "bytes",
          "name": "data",
          "type": "bytes"
        }
      ],
      "name": "upgradeToAndCall",
      "outputs": [],
      "stateMutability": "payable",
      "type": "function"
    }
  ],
  "bytecode": {
    "object": "0x60a0604052306080523480156200001557600080fd5b506200002062000026565b620000e8565b600054610100900460ff1615620000935760405162461bcd60e51b815260206004820152602760248201527f496e697469616c697a61626c653a20636f6e747261637420697320696e697469604482015266616c697a696e6760c81b606482015260840160405180910390fd5b60005460ff9081161015620000e6576000805460ff191660ff9081179091556040519081527f7f26b83ff96e1f2b6a682f133852f6798a09c465da95921460cefb38474024989060200160405180910390a15b565b608051612aa0620001206000396000818161062b01528181610674015281816109ce01528181610a0e0152610aa10152612aa06000f3fe60806040526004361061019c5760003560e01c80638da5cb5b116100ec578063c87b56dd1161008a578063e499250611610064578063e4992506146104bc578063e6848939146104dc578063ec64948e146104fc578063f2fde38b1461051c57600080fd5b8063c87b56dd1461045c578063d179e3d01461047c578063d6d0faee1461049c57600080fd5b8063a3947803116100c6578063a3947803146103ce578063a8cf8683146103ee578063abe3078b1461040e578063c01841121461043c57600080fd5b80638da5cb5b1461036a57806391cf236e1461038857806395d89b41146103b957600080fd5b806352d1902d11610159578063635ad99311610133578063635ad993146102f657806370a0823114610315578063715018a61461033557806380956c7e1461034a57600080fd5b806352d1902d146102895780635329ae0c1461029e5780636352211e146102be57600080fd5b806301ffc9a7146101a157806306fdde03146101d65780633659cfe6146101f85780633b363a091461021a578063445a62b9146102565780634f1ef28614610276575b600080fd5b3480156101ad57600080fd5b506101c16101bc366004612254565b61053c565b60405190151581526020015b60405180910390f35b3480156101e257600080fd5b506101eb61058e565b6040516101cd91906122ce565b34801561020457600080fd5b506102186102133660046122f6565b610621565b005b34801561022657600080fd5b50610248610235366004612313565b6000908152610136602052604090205490565b6040519081526020016101cd565b34801561026257600080fd5b506102186102713660046123d8565b610709565b61021861028436600461241d565b6109c4565b34801561029557600080fd5b50610248610a94565b3480156102aa57600080fd5b506102186102b9366004612481565b610b47565b3480156102ca57600080fd5b506102de6102d9366004612313565b610c28565b6040516001600160a01b0390911681526020016101cd565b34801561030257600080fd5b50610135546001600160a01b03166102de565b34801561032157600080fd5b506102486103303660046122f6565b610c8e565b34801561034157600080fd5b50610218610d19565b34801561035657600080fd5b50610218610365366004612481565b610d2d565b34801561037657600080fd5b5060c9546001600160a01b03166102de565b34801561039457600080fd5b506101c16103a3366004612313565b6101376020526000908152604090205460ff1681565b3480156103c557600080fd5b506101eb610e0b565b3480156103da57600080fd5b506102486103e93660046124e5565b610e1b565b3480156103fa57600080fd5b50610248610409366004612568565b610f08565b34801561041a57600080fd5b50610248610429366004612313565b6101386020526000908152604090205481565b34801561044857600080fd5b506102186104573660046122f6565b610f3b565b34801561046857600080fd5b506101eb610477366004612313565b610f66565b34801561048857600080fd5b50610218610497366004612313565b61106d565b3480156104a857600080fd5b506102186104b73660046125ae565b611172565b3480156104c857600080fd5b506102486104d736600461265e565b6112e3565b3480156104e857600080fd5b506101c16104f7366004612481565b61137c565b34801561050857600080fd5b506102486105173660046124e5565b6113d0565b34801561052857600080fd5b506102186105373660046122f6565b61147e565b60006001600160e01b03198216635b5e139f60e01b148061056d57506001600160e01b031982166346bdd63960e11b145b8061058857506301ffc9a760e01b6001600160e01b03198316145b92915050565b6060610130805461059e906126c3565b80601f01602080910402602001604051908101604052809291908181526020018280546105ca906126c3565b80156106175780601f106105ec57610100808354040283529160200191610617565b820191906000526020600020905b8154815290600101906020018083116105fa57829003601f168201915b5050505050905090565b6001600160a01b037f00000000000000000000000000000000000000000000000000000000000000001630036106725760405162461bcd60e51b8152600401610669906126fd565b60405180910390fd5b7f00000000000000000000000000000000000000000000000000000000000000006001600160a01b03166106bb600080516020612a24833981519152546001600160a01b031690565b6001600160a01b0316146106e15760405162461bcd60e51b815260040161066990612749565b6106ea816114f4565b60408051600080825260208201909252610706918391906114fc565b50565b6101355460405163b2a0cb6b60e01b81526004810183905233916001600160a01b03169063b2a0cb6b90602401602060405180830381865afa158015610753573d6000803e3d6000fd5b505050506040513d601f19601f820116820180604052508101906107779190612795565b6001600160a01b0316146107cd5760405162461bcd60e51b815260206004820152601860248201527f637265617465537065633a20756e617574686f72697a656400000000000000006044820152606401610669565b61013554604051637e07102760e11b81526001600160a01b039091169063fc0e204e906107fe9085906004016122ce565b602060405180830381865afa15801561081b573d6000803e3d6000fd5b505050506040513d601f19601f8201168201806040525081019061083f91906127b2565b156108985760405162461bcd60e51b815260206004820152602360248201527f637265617465537065633a207370656320616c726561647920726567697374656044820152621c995960ea1b6064820152608401610669565b6101355460405163addd190760e01b81526001600160a01b039091169063addd1907906108cb90859085906004016127d4565b600060405180830381600087803b1580156108e557600080fd5b505af11580156108f9573d6000803e3d6000fd5b5050505061013560009054906101000a90046001600160a01b03166001600160a01b03166334f876626040518163ffffffff1660e01b8152600401602060405180830381865afa158015610951573d6000803e3d6000fd5b505050506040513d601f19601f820116820180604052508101906109759190612795565b6001600160a01b031681336001600160a01b03167f68c7f8503283c455a4445b54a7d5c40656c8cae5cca0583c6d4be83698478700856040516109b891906122ce565b60405180910390a45050565b6001600160a01b037f0000000000000000000000000000000000000000000000000000000000000000163003610a0c5760405162461bcd60e51b8152600401610669906126fd565b7f00000000000000000000000000000000000000000000000000000000000000006001600160a01b0316610a55600080516020612a24833981519152546001600160a01b031690565b6001600160a01b031614610a7b5760405162461bcd60e51b815260040161066990612749565b610a84826114f4565b610a90828260016114fc565b5050565b6000306001600160a01b037f00000000000000000000000000000000000000000000000000000000000000001614610b345760405162461bcd60e51b815260206004820152603860248201527f555550535570677261646561626c653a206d757374206e6f742062652063616c60448201527f6c6564207468726f7567682064656c656761746563616c6c00000000000000006064820152608401610669565b50600080516020612a2483398151915290565b6101355460405163b2a0cb6b60e01b81526004810184905233916001600160a01b03169063b2a0cb6b90602401602060405180830381865afa158015610b91573d6000803e3d6000fd5b505050506040513d601f19601f82011682018060405250810190610bb59190612795565b6001600160a01b031614610c0b5760405162461bcd60e51b815260206004820152601960248201527f7265766f6b6542616467653a20756e617574686f72697a6564000000000000006044820152606401610669565b600090815261013760205260409020805460ff1916600117905550565b600081815261013260205260408120546001600160a01b0316806105885760405162461bcd60e51b815260206004820152601c60248201527f6f776e65724f663a20746f6b656e20646f65736e2774206578697374000000006044820152606401610669565b60006001600160a01b038216610cfc5760405162461bcd60e51b815260206004820152602d60248201527f62616c616e63654f663a2061646472657373207a65726f206973206e6f74206160448201526c2076616c6964206f776e65725f60981b6064820152608401610669565b506001600160a01b03166000908152610134602052604090205490565b610d2161166c565b610d2b60006116c6565b565b6101355460405163b2a0cb6b60e01b81526004810184905233916001600160a01b03169063b2a0cb6b90602401602060405180830381865afa158015610d77573d6000803e3d6000fd5b505050506040513d601f19601f82011682018060405250810190610d9b9190612795565b6001600160a01b031614610df15760405162461bcd60e51b815260206004820152601c60248201527f7265696e737461746542616467653a20756e617574686f72697a6564000000006044820152606401610669565b600090815261013760205260409020805460ff1916905550565b6060610131805461059e906126c3565b60006001600160a01b0386163303610e755760405162461bcd60e51b815260206004820152601b60248201527f74616b653a2063616e6e6f742074616b652066726f6d2073656c6600000000006044820152606401610669565b6000610e85338888888888611718565b90506000610ec93388888080601f01602080910402602001604051908101604052809392919081815260200183838082843760009201919091525061184292505050565b600883901c600090815261012f602052604090208054600160ff86161b1790559050600081815261013660205260409020919091559695505050505050565b60008282604051602001610f1d9291906127f6565b60405160208183030381529060405280519060200120905092915050565b610f4361166c565b61013580546001600160a01b0319166001600160a01b0392909216919091179055565b600081815261013260205260409020546060906001600160a01b0316610fce5760405162461bcd60e51b815260206004820152601d60248201527f746f6b656e5552493a20746f6b656e20646f65736e27742065786973740000006044820152606401610669565b6000828152610133602052604090208054610fe8906126c3565b80601f0160208091040260200160405190810160405280929190818152602001828054611014906126c3565b80156110615780601f1061103657610100808354040283529160200191611061565b820191906000526020600020905b81548152906001019060200180831161104457829003601f168201915b50505050509050919050565b600081815261013260205260409020546001600160a01b03166110d25760405162461bcd60e51b815260206004820152601c60248201527f756e65717569703a20746f6b656e20646f65736e2774206578697374000000006044820152606401610669565b600081815261013260205260409020546001600160a01b031633146111395760405162461bcd60e51b815260206004820152601d60248201527f756e65717569703a2073656e646572206d757374206265206f776e65720000006044820152606401610669565b60008181526101366020908152604080832054600881901c845261012f9092529091208054600160ff84161b19169055610a9082611a8d565b600054610100900460ff16158080156111925750600054600160ff909116105b806111ac5750303b1580156111ac575060005460ff166001145b61120f5760405162461bcd60e51b815260206004820152602e60248201527f496e697469616c697a61626c653a20636f6e747261637420697320616c72656160448201526d191e481a5b9a5d1a585b1a5e995960921b6064820152608401610669565b6000805460ff191660011790558015611232576000805461ff0019166101001790555b61013061123f8782612868565b5061013161124d8682612868565b5061013580546001600160a01b0319166001600160a01b038416179055611272611b47565b61127a611b6e565b6112848685611b9d565b61128c611b47565b6112958361147e565b80156112db576000805461ff0019169055604051600181527f7f26b83ff96e1f2b6a682f133852f6798a09c465da95921460cefb38474024989060200160405180910390a15b505050505050565b6000807fe76a195fbe43f0eaa611595069f780493db2202a1cc4b2d7d44b47069812998a86868686604051611319929190612928565b604051908190038120611351949392916020019384526001600160a01b03928316602085015291166040830152606082015260800190565b60405160208183030381529060405280519060200120905061137281611bce565b9695505050505050565b6000828152610137602090815260408083205461013890925282205460ff9091161590829015806113bb57506000858152610138602052604090205484105b90508180156113c75750805b95945050505050565b60006001600160a01b038616330361142a5760405162461bcd60e51b815260206004820152601b60248201527f676976653a2063616e6e6f7420676976652066726f6d2073656c6600000000006044820152606401610669565b600061143a338888888888611718565b90506000610ec98888888080601f01602080910402602001604051908101604052809392919081815260200183838082843760009201919091525061184292505050565b61148661166c565b6001600160a01b0381166114eb5760405162461bcd60e51b815260206004820152602660248201527f4f776e61626c653a206e6577206f776e657220697320746865207a65726f206160448201526564647265737360d01b6064820152608401610669565b610706816116c6565b61070661166c565b7f4910fdfa16fed3260ed0e7147f7cc6da11a60208b5b9406d12a635614ffd91435460ff16156115345761152f83611be1565b505050565b826001600160a01b03166352d1902d6040518163ffffffff1660e01b8152600401602060405180830381865afa92505050801561158e575060408051601f3d908101601f1916820190925261158b91810190612938565b60015b6115f15760405162461bcd60e51b815260206004820152602e60248201527f45524331393637557067726164653a206e657720696d706c656d656e7461746960448201526d6f6e206973206e6f74205555505360901b6064820152608401610669565b600080516020612a2483398151915281146116605760405162461bcd60e51b815260206004820152602960248201527f45524331393637557067726164653a20756e737570706f727465642070726f786044820152681a58589b195555525160ba1b6064820152608401610669565b5061152f838383611c7d565b60c9546001600160a01b03163314610d2b5760405162461bcd60e51b815260206004820181905260248201527f4f776e61626c653a2063616c6c6572206973206e6f7420746865206f776e65726044820152606401610669565b60c980546001600160a01b038381166001600160a01b0319831681179093556040519116919082907f8be0079c531659141344cd1fd0a4f28419497f9722a3daafe3b4186f6b6457e090600090a35050565b600080611727888888886112e3565b905060008160001c9050611772888387878080601f016020809104026020016040519081016040528093929190818152602001838380828437600092019190915250611ca892505050565b6117cc5760405162461bcd60e51b815260206004820152602560248201527f73616665436865636b41677265656d656e743a20696e76616c6964207369676e604482015264617475726560d81b6064820152608401610669565b600881901c600090815261012f6020526040902054600160ff83161b16156118365760405162461bcd60e51b815260206004820181905260248201527f73616665436865636b41677265656d656e743a20616c726561647920757365646044820152606401610669565b98975050505050505050565b61013554604051633664a8e960e01b815260009182916001600160a01b0390911690633664a8e9906118789086906004016122ce565b602060405180830381865afa158015611895573d6000803e3d6000fd5b505050506040513d601f19601f820116820180604052508101906118b99190612938565b905060006118c78585610f08565b905080600083900361191b5760405162461bcd60e51b815260206004820152601c60248201527f6d696e743a2073706563206973206e6f742072656769737465726564000000006044820152606401610669565b600081815261013260205260409020546001600160a01b0316156119785760405162461bcd60e51b81526020600482015260146024820152736d696e743a20746f6b656e49442065786973747360601b6044820152606401610669565b6001600160a01b0386166000908152610134602052604081208054600192906119a2908490612967565b909155505060008181526101326020908152604080832080546001600160a01b0319166001600160a01b038b1617905561013390915290206119e48682612868565b5060405181906001600160a01b038816906000907fddf252ad1be2c89b69c2b068fc378daa952ba7f163c4a11628f55a4df523b3ef908290a46101355460405163fb74926160e01b815260048101839052602481018590526001600160a01b039091169063fb74926190604401600060405180830381600087803b158015611a6b57600080fd5b505af1158015611a7f573d6000803e3d6000fd5b509298975050505050505050565b600081815261013260209081526040808320546001600160a01b0316808452610134909252822080549192600192611ac690849061297a565b909155505060008281526101326020908152604080832080546001600160a01b03191690556101339091528120611afc91612206565b60008281526101366020526040808220829055518391906001600160a01b038416907fddf252ad1be2c89b69c2b068fc378daa952ba7f163c4a11628f55a4df523b3ef908390a45050565b600054610100900460ff16610d2b5760405162461bcd60e51b81526004016106699061298d565b600054610100900460ff16611b955760405162461bcd60e51b81526004016106699061298d565b610d2b611dec565b600054610100900460ff16611bc45760405162461bcd60e51b81526004016106699061298d565b610a908282611e1c565b6000610588611bdb611e5d565b83611edd565b6001600160a01b0381163b611c4e5760405162461bcd60e51b815260206004820152602d60248201527f455243313936373a206e657720696d706c656d656e746174696f6e206973206e60448201526c1bdd08184818dbdb9d1c9858dd609a1b6064820152608401610669565b600080516020612a2483398151915280546001600160a01b0319166001600160a01b0392909216919091179055565b611c8683611f04565b600082511180611c935750805b1561152f57611ca28383611f44565b50505050565b6000806000611cb7858561202f565b90925090506000816004811115611cd057611cd06129d8565b148015611cee5750856001600160a01b0316826001600160a01b0316145b15611cfe57600192505050611de5565b600080876001600160a01b0316631626ba7e60e01b8888604051602401611d269291906129ee565b60408051601f198184030181529181526020820180516001600160e01b03166001600160e01b0319909416939093179092529051611d649190612a07565b600060405180830381855afa9150503d8060008114611d9f576040519150601f19603f3d011682016040523d82523d6000602084013e611da4565b606091505b5091509150818015611db7575080516020145b8015611dde57508051630b135d3f60e11b90611ddc9083016020908101908401612938565b145b9450505050505b9392505050565b600054610100900460ff16611e135760405162461bcd60e51b81526004016106699061298d565b610d2b336116c6565b600054610100900460ff16611e435760405162461bcd60e51b81526004016106699061298d565b81516020928301208151919092012060fb9190915560fc55565b6000611ed87f8b73c3c69bb8fe3d512ecc4cf759cc79239f7b179b0ffacaa9a75d522b39400f611e8c60fb5490565b60fc546040805160208101859052908101839052606081018290524660808201523060a082015260009060c0016040516020818303038152906040528051906020012090509392505050565b905090565b60405161190160f01b60208201526022810183905260428101829052600090606201610f1d565b611f0d81611be1565b6040516001600160a01b038216907fbc7cd75a20ee27fd9adebab32041f755214dbc6bffa90cc0225b39da2e5c2d3b90600090a250565b60606001600160a01b0383163b611fac5760405162461bcd60e51b815260206004820152602660248201527f416464726573733a2064656c65676174652063616c6c20746f206e6f6e2d636f6044820152651b9d1c9858dd60d21b6064820152608401610669565b600080846001600160a01b031684604051611fc79190612a07565b600060405180830381855af49150503d8060008114612002576040519150601f19603f3d011682016040523d82523d6000602084013e612007565b606091505b50915091506113c78282604051806060016040528060278152602001612a446027913961209d565b60008082516041036120655760208301516040840151606085015160001a612059878285856120b6565b94509450505050612096565b825160400361208e57602083015160408401516120838683836121a3565b935093505050612096565b506000905060025b9250929050565b606083156120ac575081611de5565b611de583836121dc565b6000807f7fffffffffffffffffffffffffffffff5d576e7357a4501ddfe92f46681b20a08311156120ed575060009050600361219a565b8460ff16601b1415801561210557508460ff16601c14155b15612116575060009050600461219a565b6040805160008082526020820180845289905260ff881692820192909252606081018690526080810185905260019060a0016020604051602081039080840390855afa15801561216a573d6000803e3d6000fd5b5050604051601f1901519150506001600160a01b0381166121935760006001925092505061219a565b9150600090505b94509492505050565b6000806001600160ff1b038316816121c060ff86901c601b612967565b90506121ce878288856120b6565b935093505050935093915050565b8151156121ec5781518083602001fd5b8060405162461bcd60e51b815260040161066991906122ce565b508054612212906126c3565b6000825580601f10612222575050565b601f01602090049060005260206000209081019061070691905b80821115612250576000815560010161223c565b5090565b60006020828403121561226657600080fd5b81356001600160e01b031981168114611de557600080fd5b60005b83811015612299578181015183820152602001612281565b50506000910152565b600081518084526122ba81602086016020860161227e565b601f01601f19169290920160200192915050565b602081526000611de560208301846122a2565b6001600160a01b038116811461070657600080fd5b60006020828403121561230857600080fd5b8135611de5816122e1565b60006020828403121561232557600080fd5b5035919050565b634e487b7160e01b600052604160045260246000fd5b600067ffffffffffffffff8084111561235d5761235d61232c565b604051601f8501601f19908116603f011681019082821181831017156123855761238561232c565b8160405280935085815286868601111561239e57600080fd5b858560208301376000602087830101525050509392505050565b600082601f8301126123c957600080fd5b611de583833560208501612342565b600080604083850312156123eb57600080fd5b823567ffffffffffffffff81111561240257600080fd5b61240e858286016123b8565b95602094909401359450505050565b6000806040838503121561243057600080fd5b823561243b816122e1565b9150602083013567ffffffffffffffff81111561245757600080fd5b8301601f8101851361246857600080fd5b61247785823560208401612342565b9150509250929050565b6000806040838503121561249457600080fd5b50508035926020909101359150565b60008083601f8401126124b557600080fd5b50813567ffffffffffffffff8111156124cd57600080fd5b60208301915083602082850101111561209657600080fd5b6000806000806000606086880312156124fd57600080fd5b8535612508816122e1565b9450602086013567ffffffffffffffff8082111561252557600080fd5b61253189838a016124a3565b9096509450604088013591508082111561254a57600080fd5b50612557888289016124a3565b969995985093965092949392505050565b6000806040838503121561257b57600080fd5b8235612586816122e1565b9150602083013567ffffffffffffffff8111156125a257600080fd5b612477858286016123b8565b600080600080600060a086880312156125c657600080fd5b853567ffffffffffffffff808211156125de57600080fd5b6125ea89838a016123b8565b9650602088013591508082111561260057600080fd5b61260c89838a016123b8565b9550604088013591508082111561262257600080fd5b5061262f888289016123b8565b9350506060860135612640816122e1565b91506080860135612650816122e1565b809150509295509295909350565b6000806000806060858703121561267457600080fd5b843561267f816122e1565b9350602085013561268f816122e1565b9250604085013567ffffffffffffffff8111156126ab57600080fd5b6126b7878288016124a3565b95989497509550505050565b600181811c908216806126d757607f821691505b6020821081036126f757634e487b7160e01b600052602260045260246000fd5b50919050565b6020808252602c908201527f46756e6374696f6e206d7573742062652063616c6c6564207468726f7567682060408201526b19195b1959d85d1958d85b1b60a21b606082015260800190565b6020808252602c908201527f46756e6374696f6e206d7573742062652063616c6c6564207468726f7567682060408201526b6163746976652070726f787960a01b606082015260800190565b6000602082840312156127a757600080fd5b8151611de5816122e1565b6000602082840312156127c457600080fd5b81518015158114611de557600080fd5b6040815260006127e760408301856122a2565b90508260208301529392505050565b6001600160a01b038316815260406020820181905260009061281a908301846122a2565b949350505050565b601f82111561152f57600081815260208120601f850160051c810160208610156128495750805b601f850160051c820191505b818110156112db57828155600101612855565b815167ffffffffffffffff8111156128825761288261232c565b6128968161289084546126c3565b84612822565b602080601f8311600181146128cb57600084156128b35750858301515b600019600386901b1c1916600185901b1785556112db565b600085815260208120601f198616915b828110156128fa578886015182559484019460019091019084016128db565b50858210156129185787850151600019600388901b60f8161c191681555b5050505050600190811b01905550565b8183823760009101908152919050565b60006020828403121561294a57600080fd5b5051919050565b634e487b7160e01b600052601160045260246000fd5b8082018082111561058857610588612951565b8181038181111561058857610588612951565b6020808252602b908201527f496e697469616c697a61626c653a20636f6e7472616374206973206e6f74206960408201526a6e697469616c697a696e6760a81b606082015260800190565b634e487b7160e01b600052602160045260246000fd5b82815260406020820152600061281a60408301846122a2565b60008251612a1981846020870161227e565b919091019291505056fe360894a13ba1a3210667c828492db98dca3e2076cc3735a920a3ca505d382bbc416464726573733a206c6f772d6c6576656c2064656c65676174652063616c6c206661696c6564a26469706673582212203aeba062db48436e2a1b192446d5ffe5305c510a777fda7322a519adf1e58bcb64736f6c63430008100033",
    "linkReferences": {}
  },
  "methodIdentifiers": {
    "badgeExpirationDates(uint256)": "abe3078b",
    "balanceOf(address)": "70a08231",
    "createSpec(string,uint256)": "445a62b9",
    "getAgreementHash(address,address,string)": "e4992506",
    "getBadgeIdHash(address,string)": "a8cf8683",
    "getDataHolderAddress()": "635ad993",
    "getVoucherHash(uint256)": "3b363a09",
    "give(address,string,bytes)": "ec64948e",
    "initialize(string,string,string,address,address)": "d6d0faee",
    "isBadgeValid(uint256,uint256)": "e6848939",
    "name()": "06fdde03",
    "owner()": "8da5cb5b",
    "ownerOf(uint256)": "6352211e",
    "proxiableUUID()": "52d1902d",
    "reinstateBadge(uint256,uint256)": "80956c7e",
    "renounceOwnership()": "715018a6",
    "revokeBadge(uint256,uint256)": "5329ae0c",
    "revokedBadges(uint256)": "91cf236e",
    "setDataHolder(address)": "c0184112",
    "supportsInterface(bytes4)": "01ffc9a7",
    "symbol()": "95d89b41",
    "take(address,string,bytes)": "a3947803",
    "tokenURI(uint256)": "c87b56dd",
    "transferOwnership(address)": "f2fde38b",
    "unequip(uint256)": "d179e3d0",
    "upgradeTo(address)": "3659cfe6",
    "upgradeToAndCall(address,bytes)": "4f1ef286"
  },
  "id": 43
}