{
  "abi": [
    {
      "inputs": [],
      "stateMutability": "nonpayable",
      "type": "constructor"
    },
    {
      "anonymous": false,
      "inputs": [
        {
          "indexed": false,
          "internalType": "address",
          "name": "previousAdmin",
          "type": "address"
        },
        {
          "indexed": false,
          "internalType": "address",
          "name": "newAdmin",
          "type": "address"
        }
      ],
      "name": "AdminChanged",
      "type": "event"
    },
    {
      "anonymous": false,
      "inputs": [
        {
          "indexed": true,
          "internalType": "address",
          "name": "beacon",
          "type": "address"
        }
      ],
      "name": "BeaconUpgraded",
      "type": "event"
    },
    {
      "anonymous": false,
      "inputs": [
        {
          "indexed": false,
          "internalType": "uint8",
          "name": "version",
          "type": "uint8"
        }
      ],
      "name": "Initialized",
      "type": "event"
    },
    {
      "anonymous": false,
      "inputs": [
        {
          "indexed": true,
          "internalType": "address",
          "name": "previousOwner",
          "type": "address"
        },
        {
          "indexed": true,
          "internalType": "address",
          "name": "newOwner",
          "type": "address"
        }
      ],
      "name": "OwnershipTransferred",
      "type": "event"
    },
    {
      "anonymous": false,
      "inputs": [
        {
          "indexed": true,
          "internalType": "address",
          "name": "to",
          "type": "address"
        },
        {
          "indexed": false,
          "internalType": "string",
          "name": "specUri",
          "type": "string"
        },
        {
          "indexed": true,
          "internalType": "uint256",
          "name": "raftTokenId",
          "type": "uint256"
        },
        {
          "indexed": true,
          "internalType": "address",
          "name": "raftAddress",
          "type": "address"
        }
      ],
      "name": "SpecCreated",
      "type": "event"
    },
    {
      "anonymous": false,
      "inputs": [
        {
          "indexed": true,
          "internalType": "address",
          "name": "from",
          "type": "address"
        },
        {
          "indexed": true,
          "internalType": "address",
          "name": "to",
          "type": "address"
        },
        {
          "indexed": true,
          "internalType": "uint256",
          "name": "tokenId",
          "type": "uint256"
        }
      ],
      "name": "Transfer",
      "type": "event"
    },
    {
      "anonymous": false,
      "inputs": [
        {
          "indexed": true,
          "internalType": "address",
          "name": "implementation",
          "type": "address"
        }
      ],
      "name": "Upgraded",
      "type": "event"
    },
    {
      "inputs": [
        {
          "internalType": "uint256",
          "name": "",
          "type": "uint256"
        }
      ],
      "name": "badgeExpirationDates",
      "outputs": [
        {
          "internalType": "uint256",
          "name": "",
          "type": "uint256"
        }
      ],
      "stateMutability": "view",
      "type": "function"
    },
    {
      "inputs": [
        {
          "internalType": "address",
          "name": "_owner",
          "type": "address"
        }
      ],
      "name": "balanceOf",
      "outputs": [
        {
          "internalType": "uint256",
          "name": "",
          "type": "uint256"
        }
      ],
      "stateMutability": "view",
      "type": "function"
    },
    {
      "inputs": [
        {
          "internalType": "string",
          "name": "_specUri",
          "type": "string"
        },
        {
          "internalType": "uint256",
          "name": "_raftTokenId",
          "type": "uint256"
        }
      ],
      "name": "createSpec",
      "outputs": [],
      "stateMutability": "nonpayable",
      "type": "function"
    },
    {
      "inputs": [
        {
          "internalType": "address",
          "name": "_from",
          "type": "address"
        },
        {
          "internalType": "address",
          "name": "_to",
          "type": "address"
        },
        {
          "internalType": "string",
          "name": "_uri",
          "type": "string"
        }
      ],
      "name": "getAgreementHash",
      "outputs": [
        {
          "internalType": "bytes32",
          "name": "",
          "type": "bytes32"
        }
      ],
      "stateMutability": "view",
      "type": "function"
    },
    {
      "inputs": [
        {
          "internalType": "address",
          "name": "_to",
          "type": "address"
        },
        {
          "internalType": "string",
          "name": "_uri",
          "type": "string"
        }
      ],
      "name": "getBadgeIdHash",
      "outputs": [
        {
          "internalType": "bytes32",
          "name": "",
          "type": "bytes32"
        }
      ],
      "stateMutability": "view",
      "type": "function"
    },
    {
      "inputs": [],
      "name": "getDataHolderAddress",
      "outputs": [
        {
          "internalType": "address",
          "name": "",
          "type": "address"
        }
      ],
      "stateMutability": "view",
      "type": "function"
    },
    {
      "inputs": [
        {
          "internalType": "address",
          "name": "_from",
          "type": "address"
        },
        {
          "internalType": "address",
          "name": "_to",
          "type": "address"
        },
        {
          "internalType": "string",
          "name": "_uri",
          "type": "string"
        },
        {
          "internalType": "string",
          "name": "_expirationType",
          "type": "string"
        },
        {
          "internalType": "uint256",
          "name": "_expirationValue",
          "type": "uint256"
        }
      ],
      "name": "getExpiringBadgeHash",
      "outputs": [
        {
          "internalType": "bytes32",
          "name": "",
          "type": "bytes32"
        }
      ],
      "stateMutability": "view",
      "type": "function"
    },
    {
      "inputs": [
        {
          "internalType": "uint256",
          "name": "_tokenId",
          "type": "uint256"
        }
      ],
      "name": "getVoucherHash",
      "outputs": [
        {
          "internalType": "uint256",
          "name": "",
          "type": "uint256"
        }
      ],
      "stateMutability": "view",
      "type": "function"
    },
    {
      "inputs": [
        {
          "internalType": "address",
          "name": "_to",
          "type": "address"
        },
        {
          "internalType": "string",
          "name": "_uri",
          "type": "string"
        },
        {
          "internalType": "bytes",
          "name": "_signature",
          "type": "bytes"
        }
      ],
      "name": "give",
      "outputs": [
        {
          "internalType": "uint256",
          "name": "",
          "type": "uint256"
        }
      ],
      "stateMutability": "nonpayable",
      "type": "function"
    },
    {
      "inputs": [
        {
          "internalType": "address",
          "name": "_to",
          "type": "address"
        },
        {
          "internalType": "string",
          "name": "_uri",
          "type": "string"
        },
        {
          "internalType": "bytes",
          "name": "_signature",
          "type": "bytes"
        },
        {
          "internalType": "string",
          "name": "_expirationType",
          "type": "string"
        },
        {
          "internalType": "uint256",
          "name": "_expirationValue",
          "type": "uint256"
        }
      ],
      "name": "giveExpiringBadge",
      "outputs": [
        {
          "internalType": "uint256",
          "name": "",
          "type": "uint256"
        }
      ],
      "stateMutability": "nonpayable",
      "type": "function"
    },
    {
      "inputs": [
        {
          "internalType": "string",
          "name": "_name",
          "type": "string"
        },
        {
          "internalType": "string",
          "name": "_symbol",
          "type": "string"
        },
        {
          "internalType": "string",
          "name": "_version",
          "type": "string"
        },
        {
          "internalType": "address",
          "name": "_nextOwner",
          "type": "address"
        },
        {
          "internalType": "address",
          "name": "_specDataHolderAddress",
          "type": "address"
        }
      ],
      "name": "initialize",
      "outputs": [],
      "stateMutability": "nonpayable",
      "type": "function"
    },
    {
      "inputs": [
        {
          "internalType": "uint256",
          "name": "_badgeId",
          "type": "uint256"
        },
        {
          "internalType": "uint256",
          "name": "timestamp",
          "type": "uint256"
        }
      ],
      "name": "isBadgeValid",
      "outputs": [
        {
          "internalType": "bool",
          "name": "",
          "type": "bool"
        }
      ],
      "stateMutability": "view",
      "type": "function"
    },
    {
      "inputs": [],
      "name": "name",
      "outputs": [
        {
          "internalType": "string",
          "name": "",
          "type": "string"
        }
      ],
      "stateMutability": "view",
      "type": "function"
    },
    {
      "inputs": [],
      "name": "owner",
      "outputs": [
        {
          "internalType": "address",
          "name": "",
          "type": "address"
        }
      ],
      "stateMutability": "view",
      "type": "function"
    },
    {
      "inputs": [
        {
          "internalType": "uint256",
          "name": "_tokenId",
          "type": "uint256"
        }
      ],
      "name": "ownerOf",
      "outputs": [
        {
          "internalType": "address",
          "name": "",
          "type": "address"
        }
      ],
      "stateMutability": "view",
      "type": "function"
    },
    {
      "inputs": [],
      "name": "proxiableUUID",
      "outputs": [
        {
          "internalType": "bytes32",
          "name": "",
          "type": "bytes32"
        }
      ],
      "stateMutability": "view",
      "type": "function"
    },
    {
      "inputs": [
        {
          "internalType": "uint256",
          "name": "_raftTokenId",
          "type": "uint256"
        },
        {
          "internalType": "uint256",
          "name": "_badgeId",
          "type": "uint256"
        }
      ],
      "name": "reinstateBadge",
      "outputs": [],
      "stateMutability": "nonpayable",
      "type": "function"
    },
    {
      "inputs": [],
      "name": "renounceOwnership",
      "outputs": [],
      "stateMutability": "nonpayable",
      "type": "function"
    },
    {
      "inputs": [
        {
          "internalType": "uint256",
          "name": "_raftTokenId",
          "type": "uint256"
        },
        {
          "internalType": "uint256",
          "name": "_badgeId",
          "type": "uint256"
        }
      ],
      "name": "revokeBadge",
      "outputs": [],
      "stateMutability": "nonpayable",
      "type": "function"
    },
    {
      "inputs": [
        {
          "internalType": "uint256",
          "name": "",
          "type": "uint256"
        }
      ],
      "name": "revokedBadges",
      "outputs": [
        {
          "internalType": "bool",
          "name": "",
          "type": "bool"
        }
      ],
      "stateMutability": "view",
      "type": "function"
    },
    {
      "inputs": [
        {
          "internalType": "address",
          "name": "_dataHolder",
          "type": "address"
        }
      ],
      "name": "setDataHolder",
      "outputs": [],
      "stateMutability": "nonpayable",
      "type": "function"
    },
    {
      "inputs": [
        {
          "internalType": "bytes4",
          "name": "_interfaceId",
          "type": "bytes4"
        }
      ],
      "name": "supportsInterface",
      "outputs": [
        {
          "internalType": "bool",
          "name": "",
          "type": "bool"
        }
      ],
      "stateMutability": "view",
      "type": "function"
    },
    {
      "inputs": [],
      "name": "symbol",
      "outputs": [
        {
          "internalType": "string",
          "name": "",
          "type": "string"
        }
      ],
      "stateMutability": "view",
      "type": "function"
    },
    {
      "inputs": [
        {
          "internalType": "address",
          "name": "_from",
          "type": "address"
        },
        {
          "internalType": "string",
          "name": "_uri",
          "type": "string"
        },
        {
          "internalType": "bytes",
          "name": "_signature",
          "type": "bytes"
        }
      ],
      "name": "take",
      "outputs": [
        {
          "internalType": "uint256",
          "name": "",
          "type": "uint256"
        }
      ],
      "stateMutability": "nonpayable",
      "type": "function"
    },
    {
      "inputs": [
        {
          "internalType": "address",
          "name": "_from",
          "type": "address"
        },
        {
          "internalType": "string",
          "name": "_uri",
          "type": "string"
        },
        {
          "internalType": "bytes",
          "name": "_signature",
          "type": "bytes"
        },
        {
          "internalType": "string",
          "name": "_expirationType",
          "type": "string"
        },
        {
          "internalType": "uint256",
          "name": "_expirationValue",
          "type": "uint256"
        }
      ],
      "name": "takeExpiringBadge",
      "outputs": [
        {
          "internalType": "uint256",
          "name": "",
          "type": "uint256"
        }
      ],
      "stateMutability": "nonpayable",
      "type": "function"
    },
    {
      "inputs": [
        {
          "internalType": "uint256",
          "name": "_tokenId",
          "type": "uint256"
        }
      ],
      "name": "tokenURI",
      "outputs": [
        {
          "internalType": "string",
          "name": "",
          "type": "string"
        }
      ],
      "stateMutability": "view",
      "type": "function"
    },
    {
      "inputs": [
        {
          "internalType": "address",
          "name": "newOwner",
          "type": "address"
        }
      ],
      "name": "transferOwnership",
      "outputs": [],
      "stateMutability": "nonpayable",
      "type": "function"
    },
    {
      "inputs": [
        {
          "internalType": "uint256",
          "name": "_tokenId",
          "type": "uint256"
        }
      ],
      "name": "unequip",
      "outputs": [],
      "stateMutability": "nonpayable",
      "type": "function"
    },
    {
      "inputs": [
        {
          "internalType": "uint256",
          "name": "_raftTokenId",
          "type": "uint256"
        },
        {
          "internalType": "uint256",
          "name": "_timestamp",
          "type": "uint256"
        },
        {
          "internalType": "uint256",
          "name": "_badgeId",
          "type": "uint256"
        }
      ],
      "name": "updateExpiration",
      "outputs": [],
      "stateMutability": "nonpayable",
      "type": "function"
    },
    {
      "inputs": [
        {
          "internalType": "address",
          "name": "newImplementation",
          "type": "address"
        }
      ],
      "name": "upgradeTo",
      "outputs": [],
      "stateMutability": "nonpayable",
      "type": "function"
    },
    {
      "inputs": [
        {
          "internalType": "address",
          "name": "newImplementation",
          "type": "address"
        },
        {
          "internalType": "bytes",
          "name": "data",
          "type": "bytes"
        }
      ],
      "name": "upgradeToAndCall",
      "outputs": [],
      "stateMutability": "payable",
      "type": "function"
    }
  ],
  "bytecode": {
    "object": "0x60a0604052306080523480156200001557600080fd5b506200002062000026565b620000e8565b600054610100900460ff1615620000935760405162461bcd60e51b815260206004820152602760248201527f496e697469616c697a61626c653a20636f6e747261637420697320696e697469604482015266616c697a696e6760c81b606482015260840160405180910390fd5b60005460ff9081161015620000e6576000805460ff191660ff9081179091556040519081527f7f26b83ff96e1f2b6a682f133852f6798a09c465da95921460cefb38474024989060200160405180910390a15b565b60805161326d62000120600039600081816106e70152818161073001528181610a8a01528181610aca0152610b5d015261326d6000f3fe6080604052600436106101d85760003560e01c806391cf236e11610102578063c87b56dd11610095578063e499250611610064578063e499250614610578578063e684893914610598578063ec64948e146105b8578063f2fde38b146105d857600080fd5b8063c87b56dd146104f8578063ccb1dfdd14610518578063d179e3d014610538578063d6d0faee1461055857600080fd5b8063a8cf8683116100d1578063a8cf86831461046a578063abe3078b1461048a578063be60c8f3146104b8578063c0184112146104d857600080fd5b806391cf236e146103e457806395d89b4114610415578063a0de8f841461042a578063a39478031461044a57600080fd5b80635329ae0c1161017a57806370a082311161014957806370a0823114610371578063715018a61461039157806380956c7e146103a65780638da5cb5b146103c657600080fd5b80635329ae0c146102da5780635560a5b3146102fa5780636352211e1461031a578063635ad9931461035257600080fd5b80633b363a09116101b65780633b363a0914610256578063445a62b9146102925780634f1ef286146102b257806352d1902d146102c557600080fd5b806301ffc9a7146101dd57806306fdde03146102125780633659cfe614610234575b600080fd5b3480156101e957600080fd5b506101fd6101f83660046128a3565b6105f8565b60405190151581526020015b60405180910390f35b34801561021e57600080fd5b5061022761064a565b604051610209919061291d565b34801561024057600080fd5b5061025461024f366004612945565b6106dd565b005b34801561026257600080fd5b50610284610271366004612962565b6000908152610136602052604090205490565b604051908152602001610209565b34801561029e57600080fd5b506102546102ad366004612a27565b6107c5565b6102546102c0366004612a6c565b610a80565b3480156102d157600080fd5b50610284610b50565b3480156102e657600080fd5b506102546102f5366004612ad0565b610c03565b34801561030657600080fd5b50610284610315366004612b34565b610ce4565b34801561032657600080fd5b5061033a610335366004612962565b610da1565b6040516001600160a01b039091168152602001610209565b34801561035e57600080fd5b50610135546001600160a01b031661033a565b34801561037d57600080fd5b5061028461038c366004612945565b610e07565b34801561039d57600080fd5b50610254610e92565b3480156103b257600080fd5b506102546103c1366004612ad0565b610ea6565b3480156103d257600080fd5b5060c9546001600160a01b031661033a565b3480156103f057600080fd5b506101fd6103ff366004612962565b6101376020526000908152604090205460ff1681565b34801561042157600080fd5b50610227610ff5565b34801561043657600080fd5b50610284610445366004612bd2565b611005565b34801561045657600080fd5b50610284610465366004612c86565b611109565b34801561047657600080fd5b50610284610485366004612d09565b6111f6565b34801561049657600080fd5b506102846104a5366004612962565b6101386020526000908152604090205481565b3480156104c457600080fd5b506102546104d3366004612d4f565b611229565b3480156104e457600080fd5b506102546104f3366004612945565b611373565b34801561050457600080fd5b50610227610513366004612962565b61139e565b34801561052457600080fd5b50610284610533366004612bd2565b6114a5565b34801561054457600080fd5b50610254610553366004612962565b611569565b34801561056457600080fd5b50610254610573366004612d7b565b61166e565b34801561058457600080fd5b50610284610593366004612e2b565b6117df565b3480156105a457600080fd5b506101fd6105b3366004612ad0565b611878565b3480156105c457600080fd5b506102846105d3366004612c86565b6118cc565b3480156105e457600080fd5b506102546105f3366004612945565b61197a565b60006001600160e01b03198216635b5e139f60e01b148061062957506001600160e01b031982166346bdd63960e11b145b8061064457506301ffc9a760e01b6001600160e01b03198316145b92915050565b6060610130805461065a90612e90565b80601f016020809104026020016040519081016040528092919081815260200182805461068690612e90565b80156106d35780601f106106a8576101008083540402835291602001916106d3565b820191906000526020600020905b8154815290600101906020018083116106b657829003601f168201915b5050505050905090565b6001600160a01b037f000000000000000000000000000000000000000000000000000000000000000016300361072e5760405162461bcd60e51b815260040161072590612eca565b60405180910390fd5b7f00000000000000000000000000000000000000000000000000000000000000006001600160a01b03166107776000805160206131f1833981519152546001600160a01b031690565b6001600160a01b03161461079d5760405162461bcd60e51b815260040161072590612f16565b6107a6816119f0565b604080516000808252602082019092526107c2918391906119f8565b50565b6101355460405163b2a0cb6b60e01b81526004810183905233916001600160a01b03169063b2a0cb6b90602401602060405180830381865afa15801561080f573d6000803e3d6000fd5b505050506040513d601f19601f820116820180604052508101906108339190612f62565b6001600160a01b0316146108895760405162461bcd60e51b815260206004820152601860248201527f637265617465537065633a20756e617574686f72697a656400000000000000006044820152606401610725565b61013554604051637e07102760e11b81526001600160a01b039091169063fc0e204e906108ba90859060040161291d565b602060405180830381865afa1580156108d7573d6000803e3d6000fd5b505050506040513d601f19601f820116820180604052508101906108fb9190612f7f565b156109545760405162461bcd60e51b815260206004820152602360248201527f637265617465537065633a207370656320616c726561647920726567697374656044820152621c995960ea1b6064820152608401610725565b6101355460405163addd190760e01b81526001600160a01b039091169063addd1907906109879085908590600401612fa1565b600060405180830381600087803b1580156109a157600080fd5b505af11580156109b5573d6000803e3d6000fd5b5050505061013560009054906101000a90046001600160a01b03166001600160a01b03166334f876626040518163ffffffff1660e01b8152600401602060405180830381865afa158015610a0d573d6000803e3d6000fd5b505050506040513d601f19601f82011682018060405250810190610a319190612f62565b6001600160a01b031681336001600160a01b03167f68c7f8503283c455a4445b54a7d5c40656c8cae5cca0583c6d4be8369847870085604051610a74919061291d565b60405180910390a45050565b6001600160a01b037f0000000000000000000000000000000000000000000000000000000000000000163003610ac85760405162461bcd60e51b815260040161072590612eca565b7f00000000000000000000000000000000000000000000000000000000000000006001600160a01b0316610b116000805160206131f1833981519152546001600160a01b031690565b6001600160a01b031614610b375760405162461bcd60e51b815260040161072590612f16565b610b40826119f0565b610b4c828260016119f8565b5050565b6000306001600160a01b037f00000000000000000000000000000000000000000000000000000000000000001614610bf05760405162461bcd60e51b815260206004820152603860248201527f555550535570677261646561626c653a206d757374206e6f742062652063616c60448201527f6c6564207468726f7567682064656c656761746563616c6c00000000000000006064820152608401610725565b506000805160206131f183398151915290565b6101355460405163b2a0cb6b60e01b81526004810184905233916001600160a01b03169063b2a0cb6b90602401602060405180830381865afa158015610c4d573d6000803e3d6000fd5b505050506040513d601f19601f82011682018060405250810190610c719190612f62565b6001600160a01b031614610cc75760405162461bcd60e51b815260206004820152601960248201527f7265766f6b6542616467653a20756e617574686f72697a6564000000000000006044820152606401610725565b600090815261013760205260409020805460ff1916600117905550565b6000807fedcf39fb0e04dd55fd92b71dcd8981b8bdb2c0f47b323ef117ee24ad996abac789898989604051610d1a929190612fc3565b60405180910390208888604051610d32929190612fc3565b6040805191829003822060208301969096526001600160a01b0394851690820152929091166060830152608082015260a081019190915260c0810184905260e001604051602081830303815290604052805190602001209050610d9481611b68565b9998505050505050505050565b600081815261013260205260408120546001600160a01b0316806106445760405162461bcd60e51b815260206004820152601c60248201527f6f776e65724f663a20746f6b656e20646f65736e2774206578697374000000006044820152606401610725565b60006001600160a01b038216610e755760405162461bcd60e51b815260206004820152602d60248201527f62616c616e63654f663a2061646472657373207a65726f206973206e6f74206160448201526c2076616c6964206f776e65725f60981b6064820152608401610725565b506001600160a01b03166000908152610134602052604090205490565b610e9a611b7b565b610ea46000611bd5565b565b600081815261013260205260409020546001600160a01b0316610f175760405162461bcd60e51b815260206004820152602360248201527f7265696e737461746542616467653a20746f6b656e20646f65736e27742065786044820152621a5cdd60ea1b6064820152608401610725565b6101355460405163b2a0cb6b60e01b81526004810184905233916001600160a01b03169063b2a0cb6b90602401602060405180830381865afa158015610f61573d6000803e3d6000fd5b505050506040513d601f19601f82011682018060405250810190610f859190612f62565b6001600160a01b031614610fdb5760405162461bcd60e51b815260206004820152601c60248201527f7265696e737461746542616467653a20756e617574686f72697a6564000000006044820152606401610725565b600090815261013760205260409020805460ff1916905550565b6060610131805461065a90612e90565b60006001600160a01b03891633036110705760405162461bcd60e51b815260206004820152602860248201527f676976654578706972696e6742616467653a2063616e6e6f74206769766520666044820152673937b69039b2b63360c11b6064820152608401610725565b6000611083338b8b8b8b8b8b8b8b611c27565b905060006110c78b8b8b8080601f01602080910402602001604051908101604052809392919081815260200183838082843760009201829052509250611d67915050565b600883901c600090815261012f602052604090208054600160ff86161b1790559050600081815261013660205260409020919091559998505050505050505050565b60006001600160a01b03861633036111635760405162461bcd60e51b815260206004820152601b60248201527f74616b653a2063616e6e6f742074616b652066726f6d2073656c6600000000006044820152606401610725565b6000611173338888888888611fce565b905060006111b73388888080601f01602080910402602001604051908101604052809392919081815260200183838082843760009201829052509250611d67915050565b600883901c600090815261012f602052604090208054600160ff86161b1790559050600081815261013660205260409020919091559695505050505050565b6000828260405160200161120b929190612fd3565b60405160208183030381529060405280519060200120905092915050565b600081815261013260205260409020546001600160a01b031661129c5760405162461bcd60e51b815260206004820152602560248201527f657874656e6445787069726174696f6e3a20746f6b656e20646f65736e277420604482015264195e1a5cdd60da1b6064820152608401610725565b6101355460405163b2a0cb6b60e01b81526004810185905233916001600160a01b03169063b2a0cb6b90602401602060405180830381865afa1580156112e6573d6000803e3d6000fd5b505050506040513d601f19601f8201168201806040525081019061130a9190612f62565b6001600160a01b0316146113605760405162461bcd60e51b815260206004820152601e60248201527f75706461746545787069726174696f6e3a20756e617574686f72697a656400006044820152606401610725565b6000908152610138602052604090205550565b61137b611b7b565b61013580546001600160a01b0319166001600160a01b0392909216919091179055565b600081815261013260205260409020546060906001600160a01b03166114065760405162461bcd60e51b815260206004820152601d60248201527f746f6b656e5552493a20746f6b656e20646f65736e27742065786973740000006044820152606401610725565b600082815261013360205260409020805461142090612e90565b80601f016020809104026020016040519081016040528092919081815260200182805461144c90612e90565b80156114995780601f1061146e57610100808354040283529160200191611499565b820191906000526020600020905b81548152906001019060200180831161147c57829003601f168201915b50505050509050919050565b60006001600160a01b03891633036115105760405162461bcd60e51b815260206004820152602860248201527f74616b654578706972696e6742616467653a2063616e6e6f742074616b6520666044820152673937b69039b2b63360c11b6064820152608401610725565b6000611523338b8b8b8b8b8b8b8b611c27565b905060006110c7338b8b8080601f016020809104026020016040519081016040528093929190818152602001838380828437600092019190915250899250611d67915050565b600081815261013260205260409020546001600160a01b03166115ce5760405162461bcd60e51b815260206004820152601c60248201527f756e65717569703a20746f6b656e20646f65736e2774206578697374000000006044820152606401610725565b600081815261013260205260409020546001600160a01b031633146116355760405162461bcd60e51b815260206004820152601d60248201527f756e65717569703a2073656e646572206d757374206265206f776e65720000006044820152606401610725565b60008181526101366020908152604080832054600881901c845261012f9092529091208054600160ff84161b19169055610b4c826120f2565b600054610100900460ff161580801561168e5750600054600160ff909116105b806116a85750303b1580156116a8575060005460ff166001145b61170b5760405162461bcd60e51b815260206004820152602e60248201527f496e697469616c697a61626c653a20636f6e747261637420697320616c72656160448201526d191e481a5b9a5d1a585b1a5e995960921b6064820152608401610725565b6000805460ff19166001179055801561172e576000805461ff0019166101001790555b61013061173b8782613045565b506101316117498682613045565b5061013580546001600160a01b0319166001600160a01b03841617905561176e6121ac565b6117766121d3565b6117808685612202565b6117886121ac565b6117918361197a565b80156117d7576000805461ff0019169055604051600181527f7f26b83ff96e1f2b6a682f133852f6798a09c465da95921460cefb38474024989060200160405180910390a15b505050505050565b6000807fe76a195fbe43f0eaa611595069f780493db2202a1cc4b2d7d44b47069812998a86868686604051611815929190612fc3565b60405190819003812061184d949392916020019384526001600160a01b03928316602085015291166040830152606082015260800190565b60405160208183030381529060405280519060200120905061186e81611b68565b9695505050505050565b6000828152610137602090815260408083205461013890925282205460ff9091161590829015806118b757506000858152610138602052604090205484105b90508180156118c35750805b95945050505050565b60006001600160a01b03861633036119265760405162461bcd60e51b815260206004820152601b60248201527f676976653a2063616e6e6f7420676976652066726f6d2073656c6600000000006044820152606401610725565b6000611936338888888888611fce565b905060006111b78888888080601f01602080910402602001604051908101604052809392919081815260200183838082843760009201829052509250611d67915050565b611982611b7b565b6001600160a01b0381166119e75760405162461bcd60e51b815260206004820152602660248201527f4f776e61626c653a206e6577206f776e657220697320746865207a65726f206160448201526564647265737360d01b6064820152608401610725565b6107c281611bd5565b6107c2611b7b565b7f4910fdfa16fed3260ed0e7147f7cc6da11a60208b5b9406d12a635614ffd91435460ff1615611a3057611a2b83612233565b505050565b826001600160a01b03166352d1902d6040518163ffffffff1660e01b8152600401602060405180830381865afa925050508015611a8a575060408051601f3d908101601f19168201909252611a8791810190613105565b60015b611aed5760405162461bcd60e51b815260206004820152602e60248201527f45524331393637557067726164653a206e657720696d706c656d656e7461746960448201526d6f6e206973206e6f74205555505360901b6064820152608401610725565b6000805160206131f18339815191528114611b5c5760405162461bcd60e51b815260206004820152602960248201527f45524331393637557067726164653a20756e737570706f727465642070726f786044820152681a58589b195555525160ba1b6064820152608401610725565b50611a2b8383836122cf565b6000610644611b756122fa565b8361237a565b60c9546001600160a01b03163314610ea45760405162461bcd60e51b815260206004820181905260248201527f4f776e61626c653a2063616c6c6572206973206e6f7420746865206f776e65726044820152606401610725565b60c980546001600160a01b038381166001600160a01b0319831681179093556040519116919082907f8be0079c531659141344cd1fd0a4f28419497f9722a3daafe3b4186f6b6457e090600090a35050565b600080611c398b8b8b8b898989610ce4565b905060008160001c9050611c848b838a8a8080601f0160208091040260200160405190810160405280939291908181526020018383808284376000920191909152506123a192505050565b611ce25760405162461bcd60e51b815260206004820152602960248201527f73616665436865636b4578706972696e6742616467653a20696e76616c6964206044820152687369676e617475726560b81b6064820152608401610725565b600881901c600090815261012f6020526040902054600160ff83161b1615611d585760405162461bcd60e51b8152602060048201526024808201527f73616665436865636b4578706972696e6742616467653a20616c7265616479206044820152631d5cd95960e21b6064820152608401610725565b9b9a5050505050505050505050565b61013554604051633664a8e960e01b815260009182916001600160a01b0390911690633664a8e990611d9d90879060040161291d565b602060405180830381865afa158015611dba573d6000803e3d6000fd5b505050506040513d601f19601f82011682018060405250810190611dde9190613105565b90506000611dec86866111f6565b9050806000839003611e405760405162461bcd60e51b815260206004820152601c60248201527f6d696e743a2073706563206973206e6f742072656769737465726564000000006044820152606401610725565b600081815261013260205260409020546001600160a01b031615611e9d5760405162461bcd60e51b81526020600482015260146024820152736d696e743a20746f6b656e49442065786973747360601b6044820152606401610725565b6001600160a01b038716600090815261013460205260408120805460019290611ec7908490613134565b909155505060008181526101326020908152604080832080546001600160a01b0319166001600160a01b038c161790556101339091529020611f098782613045565b508415611f23576000818152610138602052604090208590555b60405181906001600160a01b038916906000907fddf252ad1be2c89b69c2b068fc378daa952ba7f163c4a11628f55a4df523b3ef908290a46101355460405163fb74926160e01b815260048101839052602481018590526001600160a01b039091169063fb74926190604401600060405180830381600087803b158015611fa957600080fd5b505af1158015611fbd573d6000803e3d6000fd5b5092955050505050505b9392505050565b600080611fdd888888886117df565b9050612020878286868080601f0160208091040260200160405190810160405280939291908181526020018383808284376000920191909152506123a192505050565b61207a5760405162461bcd60e51b815260206004820152602560248201527f73616665436865636b41677265656d656e743a20696e76616c6964207369676e604482015264617475726560d81b6064820152608401610725565b600881901c600090815261012f60205260409020548190600160ff83161b16156120e65760405162461bcd60e51b815260206004820181905260248201527f73616665436865636b41677265656d656e743a20616c726561647920757365646044820152606401610725565b98975050505050505050565b600081815261013260209081526040808320546001600160a01b031680845261013490925282208054919260019261212b908490613147565b909155505060008281526101326020908152604080832080546001600160a01b0319169055610133909152812061216191612855565b60008281526101366020526040808220829055518391906001600160a01b038416907fddf252ad1be2c89b69c2b068fc378daa952ba7f163c4a11628f55a4df523b3ef908390a45050565b600054610100900460ff16610ea45760405162461bcd60e51b81526004016107259061315a565b600054610100900460ff166121fa5760405162461bcd60e51b81526004016107259061315a565b610ea46124e2565b600054610100900460ff166122295760405162461bcd60e51b81526004016107259061315a565b610b4c8282612512565b6001600160a01b0381163b6122a05760405162461bcd60e51b815260206004820152602d60248201527f455243313936373a206e657720696d706c656d656e746174696f6e206973206e60448201526c1bdd08184818dbdb9d1c9858dd609a1b6064820152608401610725565b6000805160206131f183398151915280546001600160a01b0319166001600160a01b0392909216919091179055565b6122d883612553565b6000825111806122e55750805b15611a2b576122f48383612593565b50505050565b60006123757f8b73c3c69bb8fe3d512ecc4cf759cc79239f7b179b0ffacaa9a75d522b39400f61232960fb5490565b60fc546040805160208101859052908101839052606081018290524660808201523060a082015260009060c0016040516020818303038152906040528051906020012090509392505050565b905090565b60405161190160f01b6020820152602281018390526042810182905260009060620161120b565b60008060006123b0858561267e565b909250905060008160048111156123c9576123c96131a5565b1480156123e75750856001600160a01b0316826001600160a01b0316145b156123f757600192505050611fc7565b600080876001600160a01b0316631626ba7e60e01b888860405160240161241f9291906131bb565b60408051601f198184030181529181526020820180516001600160e01b03166001600160e01b031990941693909317909252905161245d91906131d4565b600060405180830381855afa9150503d8060008114612498576040519150601f19603f3d011682016040523d82523d6000602084013e61249d565b606091505b50915091508180156124b0575080516020145b80156120e657508051630b135d3f60e11b906124d59083016020908101908401613105565b1498975050505050505050565b600054610100900460ff166125095760405162461bcd60e51b81526004016107259061315a565b610ea433611bd5565b600054610100900460ff166125395760405162461bcd60e51b81526004016107259061315a565b81516020928301208151919092012060fb9190915560fc55565b61255c81612233565b6040516001600160a01b038216907fbc7cd75a20ee27fd9adebab32041f755214dbc6bffa90cc0225b39da2e5c2d3b90600090a250565b60606001600160a01b0383163b6125fb5760405162461bcd60e51b815260206004820152602660248201527f416464726573733a2064656c65676174652063616c6c20746f206e6f6e2d636f6044820152651b9d1c9858dd60d21b6064820152608401610725565b600080846001600160a01b03168460405161261691906131d4565b600060405180830381855af49150503d8060008114612651576040519150601f19603f3d011682016040523d82523d6000602084013e612656565b606091505b50915091506118c38282604051806060016040528060278152602001613211602791396126ec565b60008082516041036126b45760208301516040840151606085015160001a6126a887828585612705565b945094505050506126e5565b82516040036126dd57602083015160408401516126d28683836127f2565b9350935050506126e5565b506000905060025b9250929050565b606083156126fb575081611fc7565b611fc7838361282b565b6000807f7fffffffffffffffffffffffffffffff5d576e7357a4501ddfe92f46681b20a083111561273c57506000905060036127e9565b8460ff16601b1415801561275457508460ff16601c14155b1561276557506000905060046127e9565b6040805160008082526020820180845289905260ff881692820192909252606081018690526080810185905260019060a0016020604051602081039080840390855afa1580156127b9573d6000803e3d6000fd5b5050604051601f1901519150506001600160a01b0381166127e2576000600192509250506127e9565b9150600090505b94509492505050565b6000806001600160ff1b0383168161280f60ff86901c601b613134565b905061281d87828885612705565b935093505050935093915050565b81511561283b5781518083602001fd5b8060405162461bcd60e51b8152600401610725919061291d565b50805461286190612e90565b6000825580601f10612871575050565b601f0160209004906000526020600020908101906107c291905b8082111561289f576000815560010161288b565b5090565b6000602082840312156128b557600080fd5b81356001600160e01b031981168114611fc757600080fd5b60005b838110156128e85781810151838201526020016128d0565b50506000910152565b600081518084526129098160208601602086016128cd565b601f01601f19169290920160200192915050565b602081526000611fc760208301846128f1565b6001600160a01b03811681146107c257600080fd5b60006020828403121561295757600080fd5b8135611fc781612930565b60006020828403121561297457600080fd5b5035919050565b634e487b7160e01b600052604160045260246000fd5b600067ffffffffffffffff808411156129ac576129ac61297b565b604051601f8501601f19908116603f011681019082821181831017156129d4576129d461297b565b816040528093508581528686860111156129ed57600080fd5b858560208301376000602087830101525050509392505050565b600082601f830112612a1857600080fd5b611fc783833560208501612991565b60008060408385031215612a3a57600080fd5b823567ffffffffffffffff811115612a5157600080fd5b612a5d85828601612a07565b95602094909401359450505050565b60008060408385031215612a7f57600080fd5b8235612a8a81612930565b9150602083013567ffffffffffffffff811115612aa657600080fd5b8301601f81018513612ab757600080fd5b612ac685823560208401612991565b9150509250929050565b60008060408385031215612ae357600080fd5b50508035926020909101359150565b60008083601f840112612b0457600080fd5b50813567ffffffffffffffff811115612b1c57600080fd5b6020830191508360208285010111156126e557600080fd5b600080600080600080600060a0888a031215612b4f57600080fd5b8735612b5a81612930565b96506020880135612b6a81612930565b9550604088013567ffffffffffffffff80821115612b8757600080fd5b612b938b838c01612af2565b909750955060608a0135915080821115612bac57600080fd5b50612bb98a828b01612af2565b989b979a50959894979596608090950135949350505050565b60008060008060008060008060a0898b031215612bee57600080fd5b8835612bf981612930565b9750602089013567ffffffffffffffff80821115612c1657600080fd5b612c228c838d01612af2565b909950975060408b0135915080821115612c3b57600080fd5b612c478c838d01612af2565b909750955060608b0135915080821115612c6057600080fd5b50612c6d8b828c01612af2565b999c989b50969995989497949560800135949350505050565b600080600080600060608688031215612c9e57600080fd5b8535612ca981612930565b9450602086013567ffffffffffffffff80821115612cc657600080fd5b612cd289838a01612af2565b90965094506040880135915080821115612ceb57600080fd5b50612cf888828901612af2565b969995985093965092949392505050565b60008060408385031215612d1c57600080fd5b8235612d2781612930565b9150602083013567ffffffffffffffff811115612d4357600080fd5b612ac685828601612a07565b600080600060608486031215612d6457600080fd5b505081359360208301359350604090920135919050565b600080600080600060a08688031215612d9357600080fd5b853567ffffffffffffffff80821115612dab57600080fd5b612db789838a01612a07565b96506020880135915080821115612dcd57600080fd5b612dd989838a01612a07565b95506040880135915080821115612def57600080fd5b50612dfc88828901612a07565b9350506060860135612e0d81612930565b91506080860135612e1d81612930565b809150509295509295909350565b60008060008060608587031215612e4157600080fd5b8435612e4c81612930565b93506020850135612e5c81612930565b9250604085013567ffffffffffffffff811115612e7857600080fd5b612e8487828801612af2565b95989497509550505050565b600181811c90821680612ea457607f821691505b602082108103612ec457634e487b7160e01b600052602260045260246000fd5b50919050565b6020808252602c908201527f46756e6374696f6e206d7573742062652063616c6c6564207468726f7567682060408201526b19195b1959d85d1958d85b1b60a21b606082015260800190565b6020808252602c908201527f46756e6374696f6e206d7573742062652063616c6c6564207468726f7567682060408201526b6163746976652070726f787960a01b606082015260800190565b600060208284031215612f7457600080fd5b8151611fc781612930565b600060208284031215612f9157600080fd5b81518015158114611fc757600080fd5b604081526000612fb460408301856128f1565b90508260208301529392505050565b8183823760009101908152919050565b6001600160a01b0383168152604060208201819052600090612ff7908301846128f1565b949350505050565b601f821115611a2b57600081815260208120601f850160051c810160208610156130265750805b601f850160051c820191505b818110156117d757828155600101613032565b815167ffffffffffffffff81111561305f5761305f61297b565b6130738161306d8454612e90565b84612fff565b602080601f8311600181146130a857600084156130905750858301515b600019600386901b1c1916600185901b1785556117d7565b600085815260208120601f198616915b828110156130d7578886015182559484019460019091019084016130b8565b50858210156130f55787850151600019600388901b60f8161c191681555b5050505050600190811b01905550565b60006020828403121561311757600080fd5b5051919050565b634e487b7160e01b600052601160045260246000fd5b808201808211156106445761064461311e565b818103818111156106445761064461311e565b6020808252602b908201527f496e697469616c697a61626c653a20636f6e7472616374206973206e6f74206960408201526a6e697469616c697a696e6760a81b606082015260800190565b634e487b7160e01b600052602160045260246000fd5b828152604060208201526000612ff760408301846128f1565b600082516131e68184602087016128cd565b919091019291505056fe360894a13ba1a3210667c828492db98dca3e2076cc3735a920a3ca505d382bbc416464726573733a206c6f772d6c6576656c2064656c65676174652063616c6c206661696c6564a2646970667358221220d08e2f795ddd7e584f60451c095426d71f343a882b19bb90c41a9f4f3746308e64736f6c63430008100033",
    "linkReferences": {}
  },
  "methodIdentifiers": {
    "badgeExpirationDates(uint256)": "abe3078b",
    "balanceOf(address)": "70a08231",
    "createSpec(string,uint256)": "445a62b9",
    "getAgreementHash(address,address,string)": "e4992506",
    "getBadgeIdHash(address,string)": "a8cf8683",
    "getDataHolderAddress()": "635ad993",
    "getExpiringBadgeHash(address,address,string,string,uint256)": "5560a5b3",
    "getVoucherHash(uint256)": "3b363a09",
    "give(address,string,bytes)": "ec64948e",
    "giveExpiringBadge(address,string,bytes,string,uint256)": "a0de8f84",
    "initialize(string,string,string,address,address)": "d6d0faee",
    "isBadgeValid(uint256,uint256)": "e6848939",
    "name()": "06fdde03",
    "owner()": "8da5cb5b",
    "ownerOf(uint256)": "6352211e",
    "proxiableUUID()": "52d1902d",
    "reinstateBadge(uint256,uint256)": "80956c7e",
    "renounceOwnership()": "715018a6",
    "revokeBadge(uint256,uint256)": "5329ae0c",
    "revokedBadges(uint256)": "91cf236e",
    "setDataHolder(address)": "c0184112",
    "supportsInterface(bytes4)": "01ffc9a7",
    "symbol()": "95d89b41",
    "take(address,string,bytes)": "a3947803",
    "takeExpiringBadge(address,string,bytes,string,uint256)": "ccb1dfdd",
    "tokenURI(uint256)": "c87b56dd",
    "transferOwnership(address)": "f2fde38b",
    "unequip(uint256)": "d179e3d0",
    "updateExpiration(uint256,uint256,uint256)": "be60c8f3",
    "upgradeTo(address)": "3659cfe6",
    "upgradeToAndCall(address,bytes)": "4f1ef286"
  },
  "id": 43
}