{
  "abi": [
    {
      "inputs": [],
      "stateMutability": "nonpayable",
      "type": "constructor"
    },
    {
      "anonymous": false,
      "inputs": [
        {
          "indexed": false,
          "internalType": "address",
          "name": "previousAdmin",
          "type": "address"
        },
        {
          "indexed": false,
          "internalType": "address",
          "name": "newAdmin",
          "type": "address"
        }
      ],
      "name": "AdminChanged",
      "type": "event"
    },
    {
      "anonymous": false,
      "inputs": [
        {
          "indexed": true,
          "internalType": "uint256",
          "name": "tokenId",
          "type": "uint256"
        },
        {
          "indexed": true,
          "internalType": "address",
          "name": "from",
          "type": "address"
        }
      ],
      "name": "BadgeReinstated",
      "type": "event"
    },
    {
      "anonymous": false,
      "inputs": [
        {
          "indexed": true,
          "internalType": "uint256",
          "name": "tokenId",
          "type": "uint256"
        },
        {
          "indexed": true,
          "internalType": "address",
          "name": "from",
          "type": "address"
        },
        {
          "indexed": true,
          "internalType": "uint8",
          "name": "reason",
          "type": "uint8"
        }
      ],
      "name": "BadgeRevoked",
      "type": "event"
    },
    {
      "anonymous": false,
      "inputs": [
        {
          "indexed": true,
          "internalType": "address",
          "name": "beacon",
          "type": "address"
        }
      ],
      "name": "BeaconUpgraded",
      "type": "event"
    },
    {
      "anonymous": false,
      "inputs": [
        {
          "indexed": false,
          "internalType": "uint8",
          "name": "version",
          "type": "uint8"
        }
      ],
      "name": "Initialized",
      "type": "event"
    },
    {
      "anonymous": false,
      "inputs": [
        {
          "indexed": true,
          "internalType": "address",
          "name": "previousOwner",
          "type": "address"
        },
        {
          "indexed": true,
          "internalType": "address",
          "name": "newOwner",
          "type": "address"
        }
      ],
      "name": "OwnershipTransferred",
      "type": "event"
    },
    {
      "anonymous": false,
      "inputs": [
        {
          "indexed": false,
          "internalType": "string[]",
          "name": "specUris",
          "type": "string[]"
        },
        {
          "indexed": false,
          "internalType": "address",
          "name": "sender",
          "type": "address"
        }
      ],
      "name": "RefreshMetadata",
      "type": "event"
    },
    {
      "anonymous": false,
      "inputs": [
        {
          "indexed": true,
          "internalType": "address",
          "name": "to",
          "type": "address"
        },
        {
          "indexed": false,
          "internalType": "string",
          "name": "specUri",
          "type": "string"
        },
        {
          "indexed": true,
          "internalType": "uint256",
          "name": "raftTokenId",
          "type": "uint256"
        },
        {
          "indexed": true,
          "internalType": "address",
          "name": "raftAddress",
          "type": "address"
        }
      ],
      "name": "SpecCreated",
      "type": "event"
    },
    {
      "anonymous": false,
      "inputs": [
        {
          "indexed": true,
          "internalType": "address",
          "name": "from",
          "type": "address"
        },
        {
          "indexed": true,
          "internalType": "address",
          "name": "to",
          "type": "address"
        },
        {
          "indexed": true,
          "internalType": "uint256",
          "name": "tokenId",
          "type": "uint256"
        }
      ],
      "name": "Transfer",
      "type": "event"
    },
    {
      "anonymous": false,
      "inputs": [
        {
          "indexed": true,
          "internalType": "address",
          "name": "implementation",
          "type": "address"
        }
      ],
      "name": "Upgraded",
      "type": "event"
    },
    {
      "inputs": [
        {
          "internalType": "address",
          "name": "_owner",
          "type": "address"
        }
      ],
      "name": "balanceOf",
      "outputs": [
        {
          "internalType": "uint256",
          "name": "",
          "type": "uint256"
        }
      ],
      "stateMutability": "view",
      "type": "function"
    },
    {
      "inputs": [
        {
          "internalType": "string",
          "name": "_specUri",
          "type": "string"
        },
        {
          "internalType": "uint256",
          "name": "_raftTokenId",
          "type": "uint256"
        }
      ],
      "name": "createSpec",
      "outputs": [],
      "stateMutability": "nonpayable",
      "type": "function"
    },
    {
      "inputs": [
        {
          "internalType": "address",
          "name": "_from",
          "type": "address"
        },
        {
          "internalType": "address",
          "name": "_to",
          "type": "address"
        },
        {
          "internalType": "string",
          "name": "_uri",
          "type": "string"
        }
      ],
      "name": "getAgreementHash",
      "outputs": [
        {
          "internalType": "bytes32",
          "name": "",
          "type": "bytes32"
        }
      ],
      "stateMutability": "view",
      "type": "function"
    },
    {
      "inputs": [
        {
          "internalType": "address",
          "name": "_to",
          "type": "address"
        },
        {
          "internalType": "string",
          "name": "_uri",
          "type": "string"
        }
      ],
      "name": "getBadgeIdHash",
      "outputs": [
        {
          "internalType": "bytes32",
          "name": "",
          "type": "bytes32"
        }
      ],
      "stateMutability": "view",
      "type": "function"
    },
    {
      "inputs": [],
      "name": "getDataHolderAddress",
      "outputs": [
        {
          "internalType": "address",
          "name": "",
          "type": "address"
        }
      ],
      "stateMutability": "view",
      "type": "function"
    },
    {
      "inputs": [
        {
          "internalType": "uint256",
          "name": "_tokenId",
          "type": "uint256"
        }
      ],
      "name": "getVoucherHash",
      "outputs": [
        {
          "internalType": "uint256",
          "name": "",
          "type": "uint256"
        }
      ],
      "stateMutability": "view",
      "type": "function"
    },
    {
      "inputs": [
        {
          "internalType": "address",
          "name": "_to",
          "type": "address"
        },
        {
          "internalType": "string",
          "name": "_uri",
          "type": "string"
        },
        {
          "internalType": "bytes",
          "name": "_signature",
          "type": "bytes"
        }
      ],
      "name": "give",
      "outputs": [
        {
          "internalType": "uint256",
          "name": "",
          "type": "uint256"
        }
      ],
      "stateMutability": "nonpayable",
      "type": "function"
    },
    {
      "inputs": [
        {
          "internalType": "string",
          "name": "_name",
          "type": "string"
        },
        {
          "internalType": "string",
          "name": "_symbol",
          "type": "string"
        },
        {
          "internalType": "string",
          "name": "_version",
          "type": "string"
        },
        {
          "internalType": "address",
          "name": "_nextOwner",
          "type": "address"
        },
        {
          "internalType": "address",
          "name": "_specDataHolderAddress",
          "type": "address"
        }
      ],
      "name": "initialize",
      "outputs": [],
      "stateMutability": "nonpayable",
      "type": "function"
    },
    {
      "inputs": [
        {
          "internalType": "uint256",
          "name": "_badgeId",
          "type": "uint256"
        }
      ],
      "name": "isBadgeValid",
      "outputs": [
        {
          "internalType": "bool",
          "name": "",
          "type": "bool"
        }
      ],
      "stateMutability": "view",
      "type": "function"
    },
    {
      "inputs": [],
      "name": "name",
      "outputs": [
        {
          "internalType": "string",
          "name": "",
          "type": "string"
        }
      ],
      "stateMutability": "view",
      "type": "function"
    },
    {
      "inputs": [],
      "name": "owner",
      "outputs": [
        {
          "internalType": "address",
          "name": "",
          "type": "address"
        }
      ],
      "stateMutability": "view",
      "type": "function"
    },
    {
      "inputs": [
        {
          "internalType": "uint256",
          "name": "_tokenId",
          "type": "uint256"
        }
      ],
      "name": "ownerOf",
      "outputs": [
        {
          "internalType": "address",
          "name": "",
          "type": "address"
        }
      ],
      "stateMutability": "view",
      "type": "function"
    },
    {
      "inputs": [],
      "name": "proxiableUUID",
      "outputs": [
        {
          "internalType": "bytes32",
          "name": "",
          "type": "bytes32"
        }
      ],
      "stateMutability": "view",
      "type": "function"
    },
    {
      "inputs": [
        {
          "internalType": "string[]",
          "name": "_specUris",
          "type": "string[]"
        }
      ],
      "name": "refreshMetadata",
      "outputs": [],
      "stateMutability": "nonpayable",
      "type": "function"
    },
    {
      "inputs": [
        {
          "internalType": "uint256",
          "name": "_raftTokenId",
          "type": "uint256"
        },
        {
          "internalType": "uint256",
          "name": "_badgeId",
          "type": "uint256"
        }
      ],
      "name": "reinstateBadge",
      "outputs": [],
      "stateMutability": "nonpayable",
      "type": "function"
    },
    {
      "inputs": [],
      "name": "renounceOwnership",
      "outputs": [],
      "stateMutability": "nonpayable",
      "type": "function"
    },
    {
      "inputs": [
        {
          "internalType": "uint256",
          "name": "_raftTokenId",
          "type": "uint256"
        },
        {
          "internalType": "uint256",
          "name": "_badgeId",
          "type": "uint256"
        },
        {
          "internalType": "uint8",
          "name": "_reason",
          "type": "uint8"
        }
      ],
      "name": "revokeBadge",
      "outputs": [],
      "stateMutability": "nonpayable",
      "type": "function"
    },
    {
      "inputs": [
        {
          "internalType": "address",
          "name": "_dataHolder",
          "type": "address"
        }
      ],
      "name": "setDataHolder",
      "outputs": [],
      "stateMutability": "nonpayable",
      "type": "function"
    },
    {
      "inputs": [
        {
          "internalType": "bytes4",
          "name": "_interfaceId",
          "type": "bytes4"
        }
      ],
      "name": "supportsInterface",
      "outputs": [
        {
          "internalType": "bool",
          "name": "",
          "type": "bool"
        }
      ],
      "stateMutability": "view",
      "type": "function"
    },
    {
      "inputs": [],
      "name": "symbol",
      "outputs": [
        {
          "internalType": "string",
          "name": "",
          "type": "string"
        }
      ],
      "stateMutability": "view",
      "type": "function"
    },
    {
      "inputs": [
        {
          "internalType": "address",
          "name": "_from",
          "type": "address"
        },
        {
          "internalType": "string",
          "name": "_uri",
          "type": "string"
        },
        {
          "internalType": "bytes",
          "name": "_signature",
          "type": "bytes"
        }
      ],
      "name": "take",
      "outputs": [
        {
          "internalType": "uint256",
          "name": "",
          "type": "uint256"
        }
      ],
      "stateMutability": "nonpayable",
      "type": "function"
    },
    {
      "inputs": [
        {
          "internalType": "uint256",
          "name": "_tokenId",
          "type": "uint256"
        }
      ],
      "name": "tokenURI",
      "outputs": [
        {
          "internalType": "string",
          "name": "",
          "type": "string"
        }
      ],
      "stateMutability": "view",
      "type": "function"
    },
    {
      "inputs": [
        {
          "internalType": "address",
          "name": "newOwner",
          "type": "address"
        }
      ],
      "name": "transferOwnership",
      "outputs": [],
      "stateMutability": "nonpayable",
      "type": "function"
    },
    {
      "inputs": [
        {
          "internalType": "uint256",
          "name": "_tokenId",
          "type": "uint256"
        }
      ],
      "name": "unequip",
      "outputs": [],
      "stateMutability": "nonpayable",
      "type": "function"
    },
    {
      "inputs": [
        {
          "internalType": "address",
          "name": "newImplementation",
          "type": "address"
        }
      ],
      "name": "upgradeTo",
      "outputs": [],
      "stateMutability": "nonpayable",
      "type": "function"
    },
    {
      "inputs": [
        {
          "internalType": "address",
          "name": "newImplementation",
          "type": "address"
        },
        {
          "internalType": "bytes",
          "name": "data",
          "type": "bytes"
        }
      ],
      "name": "upgradeToAndCall",
      "outputs": [],
      "stateMutability": "payable",
      "type": "function"
    }
  ],
  "bytecode": {
    "object": "0x60a0604052306080523480156200001557600080fd5b506200002062000026565b620000e8565b600054610100900460ff1615620000935760405162461bcd60e51b815260206004820152602760248201527f496e697469616c697a61626c653a20636f6e747261637420697320696e697469604482015266616c697a696e6760c81b606482015260840160405180910390fd5b60005460ff9081161015620000e6576000805460ff191660ff9081179091556040519081527f7f26b83ff96e1f2b6a682f133852f6798a09c465da95921460cefb38474024989060200160405180910390a15b565b608051612ed8620001206000396000818161063801528181610678015281816109f301528181610a330152610ac60152612ed86000f3fe6080604052600436106101815760003560e01c806380956c7e116100d1578063c01841121161008a578063d6d0faee11610064578063d6d0faee14610462578063e499250614610482578063ec64948e146104a2578063f2fde38b146104c257600080fd5b8063c018411214610402578063c87b56dd14610422578063d179e3d01461044257600080fd5b806380956c7e1461034f5780638da5cb5b1461036f57806395d89b411461038d578063a3947803146103a2578063a8cf8683146103c2578063bdbdbcbf146103e257600080fd5b80634f1ef2861161013e578063635ad99311610118578063635ad993146102db57806370a08231146102fa578063715018a61461031a5780637c402f8d1461032f57600080fd5b80634f1ef2861461027b57806352d1902d1461028e5780636352211e146102a357600080fd5b806301ffc9a71461018657806306fdde03146101bb5780630f4d9b01146101dd5780633659cfe6146101fd5780633b363a091461021f578063445a62b91461025b575b600080fd5b34801561019257600080fd5b506101a66101a13660046124a1565b6104e2565b60405190151581526020015b60405180910390f35b3480156101c757600080fd5b506101d0610534565b6040516101b2919061251b565b3480156101e957600080fd5b506101a66101f836600461252e565b6105c7565b34801561020957600080fd5b5061021d61021836600461255c565b61062e565b005b34801561022b57600080fd5b5061024d61023a36600461252e565b6000908152610136602052604090205490565b6040519081526020016101b2565b34801561026757600080fd5b5061021d610276366004612638565b61070d565b61021d61028936600461267d565b6109e9565b34801561029a57600080fd5b5061024d610ab9565b3480156102af57600080fd5b506102c36102be36600461252e565b610b6c565b6040516001600160a01b0390911681526020016101b2565b3480156102e757600080fd5b50610135546001600160a01b03166102c3565b34801561030657600080fd5b5061024d61031536600461255c565b610bc1565b34801561032657600080fd5b5061021d610c4c565b34801561033b57600080fd5b5061021d61034a3660046126e1565b610c60565b34801561035b57600080fd5b5061021d61036a366004612720565b610e4a565b34801561037b57600080fd5b5060c9546001600160a01b03166102c3565b34801561039957600080fd5b506101d061102d565b3480156103ae57600080fd5b5061024d6103bd366004612784565b61103d565b3480156103ce57600080fd5b5061024d6103dd366004612807565b61112a565b3480156103ee57600080fd5b5061021d6103fd36600461284d565b61115d565b34801561040e57600080fd5b5061021d61041d36600461255c565b611201565b34801561042e57600080fd5b506101d061043d36600461252e565b61122c565b34801561044e57600080fd5b5061021d61045d36600461252e565b611333565b34801561046e57600080fd5b5061021d61047d366004612910565b61140f565b34801561048e57600080fd5b5061024d61049d3660046129c0565b611580565b3480156104ae57600080fd5b5061024d6104bd366004612784565b611619565b3480156104ce57600080fd5b5061021d6104dd36600461255c565b6116c7565b60006001600160e01b03198216635b5e139f60e01b148061051357506001600160e01b031982166346bdd63960e11b145b8061052e57506301ffc9a760e01b6001600160e01b03198316145b92915050565b6060610130805461054490612a25565b80601f016020809104026020016040519081016040528092919081815260200182805461057090612a25565b80156105bd5780601f10610592576101008083540402835291602001916105bd565b820191906000526020600020905b8154815290600101906020018083116105a057829003601f168201915b5050505050905090565b6000818152610132602052604081205482906001600160a01b03166106075760405162461bcd60e51b81526004016105fe90612a59565b60405180910390fd5b600883901c60009081526101376020526040902054600160ff85161b161591505b50919050565b6001600160a01b037f00000000000000000000000000000000000000000000000000000000000000001630036106765760405162461bcd60e51b81526004016105fe90612a8e565b7f00000000000000000000000000000000000000000000000000000000000000006001600160a01b03166106bf600080516020612e5c833981519152546001600160a01b031690565b6001600160a01b0316146106e55760405162461bcd60e51b81526004016105fe90612ada565b6106ee8161173d565b6040805160008082526020820190925261070a91839190611745565b50565b806040518060400160405280600a8152602001696372656174655370656360b01b8152506000816040516020016107449190612b26565b60408051808303601f19018152908290526101355463b2a0cb6b60e01b83526004830186905290925033916001600160a01b039091169063b2a0cb6b90602401602060405180830381865afa1580156107a1573d6000803e3d6000fd5b505050506040513d601f19601f820116820180604052508101906107c59190612b58565b6001600160a01b03161481906107ee5760405162461bcd60e51b81526004016105fe919061251b565b5061013554604051637e07102760e11b81526001600160a01b039091169063fc0e204e9061082090889060040161251b565b602060405180830381865afa15801561083d573d6000803e3d6000fd5b505050506040513d601f19601f820116820180604052508101906108619190612b75565b156108ba5760405162461bcd60e51b815260206004820152602360248201527f637265617465537065633a207370656320616c726561647920726567697374656044820152621c995960ea1b60648201526084016105fe565b6101355460405163addd190760e01b81526001600160a01b039091169063addd1907906108ed9088908890600401612b97565b600060405180830381600087803b15801561090757600080fd5b505af115801561091b573d6000803e3d6000fd5b5050505061013560009054906101000a90046001600160a01b03166001600160a01b03166334f876626040518163ffffffff1660e01b8152600401602060405180830381865afa158015610973573d6000803e3d6000fd5b505050506040513d601f19601f820116820180604052508101906109979190612b58565b6001600160a01b031684336001600160a01b03167f68c7f8503283c455a4445b54a7d5c40656c8cae5cca0583c6d4be83698478700886040516109da919061251b565b60405180910390a45050505050565b6001600160a01b037f0000000000000000000000000000000000000000000000000000000000000000163003610a315760405162461bcd60e51b81526004016105fe90612a8e565b7f00000000000000000000000000000000000000000000000000000000000000006001600160a01b0316610a7a600080516020612e5c833981519152546001600160a01b031690565b6001600160a01b031614610aa05760405162461bcd60e51b81526004016105fe90612ada565b610aa98261173d565b610ab582826001611745565b5050565b6000306001600160a01b037f00000000000000000000000000000000000000000000000000000000000000001614610b595760405162461bcd60e51b815260206004820152603860248201527f555550535570677261646561626c653a206d757374206e6f742062652063616c60448201527f6c6564207468726f7567682064656c656761746563616c6c000000000000000060648201526084016105fe565b50600080516020612e5c83398151915290565b6000818152610132602052604081205482906001600160a01b0316610ba35760405162461bcd60e51b81526004016105fe90612a59565b5050600090815261013260205260409020546001600160a01b031690565b60006001600160a01b038216610c2f5760405162461bcd60e51b815260206004820152602d60248201527f62616c616e63654f663a2061646472657373207a65726f206973206e6f74206160448201526c2076616c6964206f776e65725f60981b60648201526084016105fe565b506001600160a01b03166000908152610134602052604090205490565b610c546118b0565b610c5e600061190a565b565b6000828152610132602052604090205482906001600160a01b0316610c975760405162461bcd60e51b81526004016105fe90612a59565b836040518060400160405280600b81526020016a7265766f6b65426164676560a81b815250600081604051602001610ccf9190612b26565b60408051808303601f19018152908290526101355463b2a0cb6b60e01b83526004830186905290925033916001600160a01b039091169063b2a0cb6b90602401602060405180830381865afa158015610d2c573d6000803e3d6000fd5b505050506040513d601f19601f82011682018060405250810190610d509190612b58565b6001600160a01b0316148190610d795760405162461bcd60e51b81526004016105fe919061251b565b50600886901c60009081526101376020526040902054600160ff88161b1615610def5760405162461bcd60e51b815260206004820152602260248201527f7265766f6b6542616467653a20626164676520616c7265616479207265766f6b604482015261195960f21b60648201526084016105fe565b600886901c6000908152610137602052604090208054600160ff89161b17905560405160ff861690339088907ffa784c48260e8db512de5f055a2f29eced211a7b3bd6338058b095ada7354cee90600090a450505050505050565b6000818152610132602052604090205481906001600160a01b0316610e815760405162461bcd60e51b81526004016105fe90612a59565b826040518060400160405280600e81526020016d7265696e7374617465426164676560901b815250600081604051602001610ebc9190612b26565b60408051808303601f19018152908290526101355463b2a0cb6b60e01b83526004830186905290925033916001600160a01b039091169063b2a0cb6b90602401602060405180830381865afa158015610f19573d6000803e3d6000fd5b505050506040513d601f19601f82011682018060405250810190610f3d9190612b58565b6001600160a01b0316148190610f665760405162461bcd60e51b81526004016105fe919061251b565b50600885901c60009081526101376020526040902054600160ff87161b16610fda5760405162461bcd60e51b815260206004820152602160248201527f7265696e737461746542616467653a206261646765206e6f74207265766f6b656044820152601960fa1b60648201526084016105fe565b600885901c600090815261013760205260408082208054600160ff8a161b1916905551339187917f7f8cf9ecf2a5225948f8a1601709cedc8471c52ee75a8174c9845c29c99ed9a29190a3505050505050565b6060610131805461054490612a25565b60006001600160a01b03861633036110975760405162461bcd60e51b815260206004820152601b60248201527f74616b653a2063616e6e6f742074616b652066726f6d2073656c66000000000060448201526064016105fe565b60006110a733888888888861195c565b905060006110eb3388888080601f016020809104026020016040519081016040528093929190818152602001838380828437600092019190915250611a8692505050565b600883901c600090815261012f602052604090208054600160ff86161b1790559050600081815261013660205260409020919091559695505050505050565b6000828260405160200161113f929190612bb9565b60405160208183030381529060405280519060200120905092915050565b6111656118b0565b60008151116111c55760405162461bcd60e51b815260206004820152602660248201527f726566726573684d657461646174613a206e6f207370656320757269732070726044820152651bdd9a59195960d21b60648201526084016105fe565b7f2231d988b1a75dccab13dee3564b71a551900e822e94177a96f19561890c0fd581336040516111f6929190612be5565b60405180910390a150565b6112096118b0565b61013580546001600160a01b0319166001600160a01b0392909216919091179055565b600081815261013260205260409020546060906001600160a01b03166112945760405162461bcd60e51b815260206004820152601d60248201527f746f6b656e5552493a20746f6b656e20646f65736e277420657869737400000060448201526064016105fe565b60008281526101336020526040902080546112ae90612a25565b80601f01602080910402602001604051908101604052809291908181526020018280546112da90612a25565b80156113275780601f106112fc57610100808354040283529160200191611327565b820191906000526020600020905b81548152906001019060200180831161130a57829003601f168201915b50505050509050919050565b6000818152610132602052604090205481906001600160a01b031661136a5760405162461bcd60e51b81526004016105fe90612a59565b600082815261013260205260409020546001600160a01b031633146113d15760405162461bcd60e51b815260206004820152601d60248201527f756e65717569703a2073656e646572206d757374206265206f776e657200000060448201526064016105fe565b60008281526101366020908152604080832054600881901c845261012f9092529091208054600160ff84161b1916905561140a83611cd1565b505050565b600054610100900460ff161580801561142f5750600054600160ff909116105b806114495750303b158015611449575060005460ff166001145b6114ac5760405162461bcd60e51b815260206004820152602e60248201527f496e697469616c697a61626c653a20636f6e747261637420697320616c72656160448201526d191e481a5b9a5d1a585b1a5e995960921b60648201526084016105fe565b6000805460ff1916600117905580156114cf576000805461ff0019166101001790555b6101306114dc8782612ca0565b506101316114ea8682612ca0565b5061013580546001600160a01b0319166001600160a01b03841617905561150f611d8b565b611517611db2565b6115218685611de1565b611529611d8b565b611532836116c7565b8015611578576000805461ff0019169055604051600181527f7f26b83ff96e1f2b6a682f133852f6798a09c465da95921460cefb38474024989060200160405180910390a15b505050505050565b6000807fe76a195fbe43f0eaa611595069f780493db2202a1cc4b2d7d44b47069812998a868686866040516115b6929190612d60565b6040519081900381206115ee949392916020019384526001600160a01b03928316602085015291166040830152606082015260800190565b60405160208183030381529060405280519060200120905061160f81611e12565b9695505050505050565b60006001600160a01b03861633036116735760405162461bcd60e51b815260206004820152601b60248201527f676976653a2063616e6e6f7420676976652066726f6d2073656c66000000000060448201526064016105fe565b600061168333888888888861195c565b905060006110eb8888888080601f016020809104026020016040519081016040528093929190818152602001838380828437600092019190915250611a8692505050565b6116cf6118b0565b6001600160a01b0381166117345760405162461bcd60e51b815260206004820152602660248201527f4f776e61626c653a206e6577206f776e657220697320746865207a65726f206160448201526564647265737360d01b60648201526084016105fe565b61070a8161190a565b61070a6118b0565b7f4910fdfa16fed3260ed0e7147f7cc6da11a60208b5b9406d12a635614ffd91435460ff16156117785761140a83611e25565b826001600160a01b03166352d1902d6040518163ffffffff1660e01b8152600401602060405180830381865afa9250505080156117d2575060408051601f3d908101601f191682019092526117cf91810190612d70565b60015b6118355760405162461bcd60e51b815260206004820152602e60248201527f45524331393637557067726164653a206e657720696d706c656d656e7461746960448201526d6f6e206973206e6f74205555505360901b60648201526084016105fe565b600080516020612e5c83398151915281146118a45760405162461bcd60e51b815260206004820152602960248201527f45524331393637557067726164653a20756e737570706f727465642070726f786044820152681a58589b195555525160ba1b60648201526084016105fe565b5061140a838383611ec1565b60c9546001600160a01b03163314610c5e5760405162461bcd60e51b815260206004820181905260248201527f4f776e61626c653a2063616c6c6572206973206e6f7420746865206f776e657260448201526064016105fe565b60c980546001600160a01b038381166001600160a01b0319831681179093556040519116919082907f8be0079c531659141344cd1fd0a4f28419497f9722a3daafe3b4186f6b6457e090600090a35050565b60008061196b88888888611580565b905060008160001c90506119b6888387878080601f016020809104026020016040519081016040528093929190818152602001838380828437600092019190915250611eec92505050565b611a105760405162461bcd60e51b815260206004820152602560248201527f73616665436865636b41677265656d656e743a20696e76616c6964207369676e604482015264617475726560d81b60648201526084016105fe565b600881901c600090815261012f6020526040902054600160ff83161b1615611a7a5760405162461bcd60e51b815260206004820181905260248201527f73616665436865636b41677265656d656e743a20616c7265616479207573656460448201526064016105fe565b98975050505050505050565b61013554604051633664a8e960e01b815260009182916001600160a01b0390911690633664a8e990611abc90869060040161251b565b602060405180830381865afa158015611ad9573d6000803e3d6000fd5b505050506040513d601f19601f82011682018060405250810190611afd9190612d70565b90506000611b0b858561112a565b9050806000839003611b5f5760405162461bcd60e51b815260206004820152601c60248201527f6d696e743a2073706563206973206e6f7420726567697374657265640000000060448201526064016105fe565b600081815261013260205260409020546001600160a01b031615611bbc5760405162461bcd60e51b81526020600482015260146024820152736d696e743a20746f6b656e49442065786973747360601b60448201526064016105fe565b6001600160a01b038616600090815261013460205260408120805460019290611be6908490612d9f565b909155505060008181526101326020908152604080832080546001600160a01b0319166001600160a01b038b161790556101339091529020611c288682612ca0565b5060405181906001600160a01b038816906000907fddf252ad1be2c89b69c2b068fc378daa952ba7f163c4a11628f55a4df523b3ef908290a46101355460405163fb74926160e01b815260048101839052602481018590526001600160a01b039091169063fb74926190604401600060405180830381600087803b158015611caf57600080fd5b505af1158015611cc3573d6000803e3d6000fd5b509298975050505050505050565b600081815261013260209081526040808320546001600160a01b0316808452610134909252822080549192600192611d0a908490612db2565b909155505060008281526101326020908152604080832080546001600160a01b03191690556101339091528120611d4091612453565b60008281526101366020526040808220829055518391906001600160a01b038416907fddf252ad1be2c89b69c2b068fc378daa952ba7f163c4a11628f55a4df523b3ef908390a45050565b600054610100900460ff16610c5e5760405162461bcd60e51b81526004016105fe90612dc5565b600054610100900460ff16611dd95760405162461bcd60e51b81526004016105fe90612dc5565b610c5e612030565b600054610100900460ff16611e085760405162461bcd60e51b81526004016105fe90612dc5565b610ab58282612060565b600061052e611e1f6120a1565b83612121565b6001600160a01b0381163b611e925760405162461bcd60e51b815260206004820152602d60248201527f455243313936373a206e657720696d706c656d656e746174696f6e206973206e60448201526c1bdd08184818dbdb9d1c9858dd609a1b60648201526084016105fe565b600080516020612e5c83398151915280546001600160a01b0319166001600160a01b0392909216919091179055565b611eca83612148565b600082511180611ed75750805b1561140a57611ee68383612188565b50505050565b6000806000611efb858561227c565b90925090506000816004811115611f1457611f14612e10565b148015611f325750856001600160a01b0316826001600160a01b0316145b15611f4257600192505050612029565b600080876001600160a01b0316631626ba7e60e01b8888604051602401611f6a929190612e26565b60408051601f198184030181529181526020820180516001600160e01b03166001600160e01b0319909416939093179092529051611fa89190612e3f565b600060405180830381855afa9150503d8060008114611fe3576040519150601f19603f3d011682016040523d82523d6000602084013e611fe8565b606091505b5091509150818015611ffb575080516020145b801561202257508051630b135d3f60e11b906120209083016020908101908401612d70565b145b9450505050505b9392505050565b600054610100900460ff166120575760405162461bcd60e51b81526004016105fe90612dc5565b610c5e3361190a565b600054610100900460ff166120875760405162461bcd60e51b81526004016105fe90612dc5565b81516020928301208151919092012060fb9190915560fc55565b600061211c7f8b73c3c69bb8fe3d512ecc4cf759cc79239f7b179b0ffacaa9a75d522b39400f6120d060fb5490565b60fc546040805160208101859052908101839052606081018290524660808201523060a082015260009060c0016040516020818303038152906040528051906020012090509392505050565b905090565b60405161190160f01b6020820152602281018390526042810182905260009060620161113f565b61215181611e25565b6040516001600160a01b038216907fbc7cd75a20ee27fd9adebab32041f755214dbc6bffa90cc0225b39da2e5c2d3b90600090a250565b60606001600160a01b0383163b6121f05760405162461bcd60e51b815260206004820152602660248201527f416464726573733a2064656c65676174652063616c6c20746f206e6f6e2d636f6044820152651b9d1c9858dd60d21b60648201526084016105fe565b600080846001600160a01b03168460405161220b9190612e3f565b600060405180830381855af49150503d8060008114612246576040519150601f19603f3d011682016040523d82523d6000602084013e61224b565b606091505b50915091506122738282604051806060016040528060278152602001612e7c602791396122ea565b95945050505050565b60008082516041036122b25760208301516040840151606085015160001a6122a687828585612303565b945094505050506122e3565b82516040036122db57602083015160408401516122d08683836123f0565b9350935050506122e3565b506000905060025b9250929050565b606083156122f9575081612029565b6120298383612429565b6000807f7fffffffffffffffffffffffffffffff5d576e7357a4501ddfe92f46681b20a083111561233a57506000905060036123e7565b8460ff16601b1415801561235257508460ff16601c14155b1561236357506000905060046123e7565b6040805160008082526020820180845289905260ff881692820192909252606081018690526080810185905260019060a0016020604051602081039080840390855afa1580156123b7573d6000803e3d6000fd5b5050604051601f1901519150506001600160a01b0381166123e0576000600192509250506123e7565b9150600090505b94509492505050565b6000806001600160ff1b0383168161240d60ff86901c601b612d9f565b905061241b87828885612303565b935093505050935093915050565b8151156124395781518083602001fd5b8060405162461bcd60e51b81526004016105fe919061251b565b50805461245f90612a25565b6000825580601f1061246f575050565b601f01602090049060005260206000209081019061070a91905b8082111561249d5760008155600101612489565b5090565b6000602082840312156124b357600080fd5b81356001600160e01b03198116811461202957600080fd5b60005b838110156124e65781810151838201526020016124ce565b50506000910152565b600081518084526125078160208601602086016124cb565b601f01601f19169290920160200192915050565b60208152600061202960208301846124ef565b60006020828403121561254057600080fd5b5035919050565b6001600160a01b038116811461070a57600080fd5b60006020828403121561256e57600080fd5b813561202981612547565b634e487b7160e01b600052604160045260246000fd5b604051601f8201601f1916810167ffffffffffffffff811182821017156125b8576125b8612579565b604052919050565b600067ffffffffffffffff8311156125da576125da612579565b6125ed601f8401601f191660200161258f565b905082815283838301111561260157600080fd5b828260208301376000602084830101529392505050565b600082601f83011261262957600080fd5b612029838335602085016125c0565b6000806040838503121561264b57600080fd5b823567ffffffffffffffff81111561266257600080fd5b61266e85828601612618565b95602094909401359450505050565b6000806040838503121561269057600080fd5b823561269b81612547565b9150602083013567ffffffffffffffff8111156126b757600080fd5b8301601f810185136126c857600080fd5b6126d7858235602084016125c0565b9150509250929050565b6000806000606084860312156126f657600080fd5b8335925060208401359150604084013560ff8116811461271557600080fd5b809150509250925092565b6000806040838503121561273357600080fd5b50508035926020909101359150565b60008083601f84011261275457600080fd5b50813567ffffffffffffffff81111561276c57600080fd5b6020830191508360208285010111156122e357600080fd5b60008060008060006060868803121561279c57600080fd5b85356127a781612547565b9450602086013567ffffffffffffffff808211156127c457600080fd5b6127d089838a01612742565b909650945060408801359150808211156127e957600080fd5b506127f688828901612742565b969995985093965092949392505050565b6000806040838503121561281a57600080fd5b823561282581612547565b9150602083013567ffffffffffffffff81111561284157600080fd5b6126d785828601612618565b6000602080838503121561286057600080fd5b823567ffffffffffffffff8082111561287857600080fd5b818501915085601f83011261288c57600080fd5b81358181111561289e5761289e612579565b8060051b6128ad85820161258f565b91825283810185019185810190898411156128c757600080fd5b86860192505b83831015612903578235858111156128e55760008081fd5b6128f38b89838a0101612618565b83525091860191908601906128cd565b9998505050505050505050565b600080600080600060a0868803121561292857600080fd5b853567ffffffffffffffff8082111561294057600080fd5b61294c89838a01612618565b9650602088013591508082111561296257600080fd5b61296e89838a01612618565b9550604088013591508082111561298457600080fd5b5061299188828901612618565b93505060608601356129a281612547565b915060808601356129b281612547565b809150509295509295909350565b600080600080606085870312156129d657600080fd5b84356129e181612547565b935060208501356129f181612547565b9250604085013567ffffffffffffffff811115612a0d57600080fd5b612a1987828801612742565b95989497509550505050565b600181811c90821680612a3957607f821691505b60208210810361062857634e487b7160e01b600052602260045260246000fd5b6020808252818101527f746f6b656e4578697374733a20746f6b656e20646f65736e2774206578697374604082015260600190565b6020808252602c908201527f46756e6374696f6e206d7573742062652063616c6c6564207468726f7567682060408201526b19195b1959d85d1958d85b1b60a21b606082015260800190565b6020808252602c908201527f46756e6374696f6e206d7573742062652063616c6c6564207468726f7567682060408201526b6163746976652070726f787960a01b606082015260800190565b60008251612b388184602087016124cb565b6d0e881d5b985d5d1a1bdc9a5e995960921b920191825250600e01919050565b600060208284031215612b6a57600080fd5b815161202981612547565b600060208284031215612b8757600080fd5b8151801515811461202957600080fd5b604081526000612baa60408301856124ef565b90508260208301529392505050565b6001600160a01b0383168152604060208201819052600090612bdd908301846124ef565b949350505050565b6000604082016040835280855180835260608501915060608160051b8601019250602080880160005b83811015612c3c57605f19888703018552612c2a8683516124ef565b95509382019390820190600101612c0e565b50506001600160a01b03969096169490950193909352949350505050565b601f82111561140a57600081815260208120601f850160051c81016020861015612c815750805b601f850160051c820191505b8181101561157857828155600101612c8d565b815167ffffffffffffffff811115612cba57612cba612579565b612cce81612cc88454612a25565b84612c5a565b602080601f831160018114612d035760008415612ceb5750858301515b600019600386901b1c1916600185901b178555611578565b600085815260208120601f198616915b82811015612d3257888601518255948401946001909101908401612d13565b5085821015612d505787850151600019600388901b60f8161c191681555b5050505050600190811b01905550565b8183823760009101908152919050565b600060208284031215612d8257600080fd5b5051919050565b634e487b7160e01b600052601160045260246000fd5b8082018082111561052e5761052e612d89565b8181038181111561052e5761052e612d89565b6020808252602b908201527f496e697469616c697a61626c653a20636f6e7472616374206973206e6f74206960408201526a6e697469616c697a696e6760a81b606082015260800190565b634e487b7160e01b600052602160045260246000fd5b828152604060208201526000612bdd60408301846124ef565b60008251612e518184602087016124cb565b919091019291505056fe360894a13ba1a3210667c828492db98dca3e2076cc3735a920a3ca505d382bbc416464726573733a206c6f772d6c6576656c2064656c65676174652063616c6c206661696c6564a26469706673582212202e1d18b35ff86adb6f9e7b5787d307793cf2a1caf44d5e41920de4d65635012464736f6c63430008100033",
    "linkReferences": {}
  },
  "methodIdentifiers": {
    "balanceOf(address)": "70a08231",
    "createSpec(string,uint256)": "445a62b9",
    "getAgreementHash(address,address,string)": "e4992506",
    "getBadgeIdHash(address,string)": "a8cf8683",
    "getDataHolderAddress()": "635ad993",
    "getVoucherHash(uint256)": "3b363a09",
    "give(address,string,bytes)": "ec64948e",
    "initialize(string,string,string,address,address)": "d6d0faee",
    "isBadgeValid(uint256)": "0f4d9b01",
    "name()": "06fdde03",
    "owner()": "8da5cb5b",
    "ownerOf(uint256)": "6352211e",
    "proxiableUUID()": "52d1902d",
    "refreshMetadata(string[])": "bdbdbcbf",
    "reinstateBadge(uint256,uint256)": "80956c7e",
    "renounceOwnership()": "715018a6",
    "revokeBadge(uint256,uint256,uint8)": "7c402f8d",
    "setDataHolder(address)": "c0184112",
    "supportsInterface(bytes4)": "01ffc9a7",
    "symbol()": "95d89b41",
    "take(address,string,bytes)": "a3947803",
    "tokenURI(uint256)": "c87b56dd",
    "transferOwnership(address)": "f2fde38b",
    "unequip(uint256)": "d179e3d0",
    "upgradeTo(address)": "3659cfe6",
    "upgradeToAndCall(address,bytes)": "4f1ef286"
  },
  "id": 43
}