{
  "abi": [
    {
      "inputs": [],
      "stateMutability": "nonpayable",
      "type": "constructor"
    },
    {
      "anonymous": false,
      "inputs": [
        {
          "indexed": false,
          "internalType": "address",
          "name": "previousAdmin",
          "type": "address"
        },
        {
          "indexed": false,
          "internalType": "address",
          "name": "newAdmin",
          "type": "address"
        }
      ],
      "name": "AdminChanged",
      "type": "event"
    },
    {
      "anonymous": false,
      "inputs": [
        {
          "indexed": true,
          "internalType": "uint256",
          "name": "tokenId",
          "type": "uint256"
        },
        {
          "indexed": true,
          "internalType": "address",
          "name": "from",
          "type": "address"
        }
      ],
      "name": "BadgeReinstated",
      "type": "event"
    },
    {
      "anonymous": false,
      "inputs": [
        {
          "indexed": true,
          "internalType": "uint256",
          "name": "tokenId",
          "type": "uint256"
        },
        {
          "indexed": true,
          "internalType": "address",
          "name": "from",
          "type": "address"
        },
        {
          "indexed": true,
          "internalType": "uint8",
          "name": "reason",
          "type": "uint8"
        }
      ],
      "name": "BadgeRevoked",
      "type": "event"
    },
    {
      "anonymous": false,
      "inputs": [
        {
          "indexed": true,
          "internalType": "address",
          "name": "beacon",
          "type": "address"
        }
      ],
      "name": "BeaconUpgraded",
      "type": "event"
    },
    {
      "anonymous": false,
      "inputs": [
        {
          "indexed": false,
          "internalType": "uint8",
          "name": "version",
          "type": "uint8"
        }
      ],
      "name": "Initialized",
      "type": "event"
    },
    {
      "anonymous": false,
      "inputs": [
        {
          "indexed": true,
          "internalType": "address",
          "name": "previousOwner",
          "type": "address"
        },
        {
          "indexed": true,
          "internalType": "address",
          "name": "newOwner",
          "type": "address"
        }
      ],
      "name": "OwnershipTransferred",
      "type": "event"
    },
    {
      "anonymous": false,
      "inputs": [
        {
          "indexed": false,
          "internalType": "string[]",
          "name": "specUris",
          "type": "string[]"
        },
        {
          "indexed": false,
          "internalType": "address",
          "name": "sender",
          "type": "address"
        }
      ],
      "name": "RefreshMetadata",
      "type": "event"
    },
    {
      "anonymous": false,
      "inputs": [
        {
          "indexed": true,
          "internalType": "address",
          "name": "to",
          "type": "address"
        },
        {
          "indexed": false,
          "internalType": "string",
          "name": "specUri",
          "type": "string"
        },
        {
          "indexed": true,
          "internalType": "uint256",
          "name": "raftTokenId",
          "type": "uint256"
        },
        {
          "indexed": true,
          "internalType": "address",
          "name": "raftAddress",
          "type": "address"
        }
      ],
      "name": "SpecCreated",
      "type": "event"
    },
    {
      "anonymous": false,
      "inputs": [
        {
          "indexed": true,
          "internalType": "address",
          "name": "from",
          "type": "address"
        },
        {
          "indexed": true,
          "internalType": "address",
          "name": "to",
          "type": "address"
        },
        {
          "indexed": true,
          "internalType": "uint256",
          "name": "tokenId",
          "type": "uint256"
        }
      ],
      "name": "Transfer",
      "type": "event"
    },
    {
      "anonymous": false,
      "inputs": [
        {
          "indexed": true,
          "internalType": "address",
          "name": "implementation",
          "type": "address"
        }
      ],
      "name": "Upgraded",
      "type": "event"
    },
    {
      "inputs": [
        {
          "internalType": "address[]",
          "name": "_recipients",
          "type": "address[]"
        },
        {
          "internalType": "string",
          "name": "_uri",
          "type": "string"
        }
      ],
      "name": "airdrop",
      "outputs": [],
      "stateMutability": "nonpayable",
      "type": "function"
    },
    {
      "inputs": [
        {
          "internalType": "address",
          "name": "_owner",
          "type": "address"
        }
      ],
      "name": "balanceOf",
      "outputs": [
        {
          "internalType": "uint256",
          "name": "",
          "type": "uint256"
        }
      ],
      "stateMutability": "view",
      "type": "function"
    },
    {
      "inputs": [
        {
          "internalType": "string",
          "name": "_specUri",
          "type": "string"
        },
        {
          "internalType": "uint256",
          "name": "_raftTokenId",
          "type": "uint256"
        }
      ],
      "name": "createSpec",
      "outputs": [],
      "stateMutability": "nonpayable",
      "type": "function"
    },
    {
      "inputs": [
        {
          "internalType": "address",
          "name": "_from",
          "type": "address"
        },
        {
          "internalType": "address",
          "name": "_to",
          "type": "address"
        },
        {
          "internalType": "string",
          "name": "_uri",
          "type": "string"
        }
      ],
      "name": "getAgreementHash",
      "outputs": [
        {
          "internalType": "bytes32",
          "name": "",
          "type": "bytes32"
        }
      ],
      "stateMutability": "view",
      "type": "function"
    },
    {
      "inputs": [
        {
          "internalType": "address",
          "name": "_to",
          "type": "address"
        },
        {
          "internalType": "string",
          "name": "_uri",
          "type": "string"
        }
      ],
      "name": "getBadgeIdHash",
      "outputs": [
        {
          "internalType": "bytes32",
          "name": "",
          "type": "bytes32"
        }
      ],
      "stateMutability": "view",
      "type": "function"
    },
    {
      "inputs": [],
      "name": "getDataHolderAddress",
      "outputs": [
        {
          "internalType": "address",
          "name": "",
          "type": "address"
        }
      ],
      "stateMutability": "view",
      "type": "function"
    },
    {
      "inputs": [
        {
          "internalType": "address",
          "name": "_issuer",
          "type": "address"
        },
        {
          "internalType": "string",
          "name": "_uri",
          "type": "string"
        },
        {
          "internalType": "bytes32",
          "name": "_root",
          "type": "bytes32"
        }
      ],
      "name": "getMerkleAgreementHash",
      "outputs": [
        {
          "internalType": "bytes32",
          "name": "",
          "type": "bytes32"
        }
      ],
      "stateMutability": "view",
      "type": "function"
    },
    {
      "inputs": [
        {
          "internalType": "address",
          "name": "_requester",
          "type": "address"
        },
        {
          "internalType": "string",
          "name": "_uri",
          "type": "string"
        }
      ],
      "name": "getRequestHash",
      "outputs": [
        {
          "internalType": "bytes32",
          "name": "",
          "type": "bytes32"
        }
      ],
      "stateMutability": "view",
      "type": "function"
    },
    {
      "inputs": [
        {
          "internalType": "address",
          "name": "_to",
          "type": "address"
        },
        {
          "internalType": "string",
          "name": "_uri",
          "type": "string"
        },
        {
          "internalType": "bytes",
          "name": "_signature",
          "type": "bytes"
        }
      ],
      "name": "give",
      "outputs": [
        {
          "internalType": "uint256",
          "name": "",
          "type": "uint256"
        }
      ],
      "stateMutability": "nonpayable",
      "type": "function"
    },
    {
      "inputs": [
        {
          "internalType": "address",
          "name": "_to",
          "type": "address"
        },
        {
          "internalType": "string",
          "name": "_uri",
          "type": "string"
        },
        {
          "internalType": "bytes",
          "name": "_signature",
          "type": "bytes"
        }
      ],
      "name": "giveRequestedBadge",
      "outputs": [
        {
          "internalType": "uint256",
          "name": "",
          "type": "uint256"
        }
      ],
      "stateMutability": "nonpayable",
      "type": "function"
    },
    {
      "inputs": [
        {
          "internalType": "address[]",
          "name": "_recipients",
          "type": "address[]"
        },
        {
          "internalType": "string",
          "name": "_uri",
          "type": "string"
        },
        {
          "internalType": "bytes[]",
          "name": "_signatures",
          "type": "bytes[]"
        }
      ],
      "name": "giveRequestedBadgeToMany",
      "outputs": [],
      "stateMutability": "nonpayable",
      "type": "function"
    },
    {
      "inputs": [
        {
          "internalType": "address[]",
          "name": "_recipients",
          "type": "address[]"
        },
        {
          "internalType": "string",
          "name": "_uri",
          "type": "string"
        },
        {
          "internalType": "bytes[]",
          "name": "_signatures",
          "type": "bytes[]"
        }
      ],
      "name": "giveToMany",
      "outputs": [],
      "stateMutability": "nonpayable",
      "type": "function"
    },
    {
      "inputs": [
        {
          "internalType": "string",
          "name": "_name",
          "type": "string"
        },
        {
          "internalType": "string",
          "name": "_symbol",
          "type": "string"
        },
        {
          "internalType": "string",
          "name": "_version",
          "type": "string"
        },
        {
          "internalType": "address",
          "name": "_nextOwner",
          "type": "address"
        },
        {
          "internalType": "address",
          "name": "_specDataHolderAddress",
          "type": "address"
        }
      ],
      "name": "initialize",
      "outputs": [],
      "stateMutability": "nonpayable",
      "type": "function"
    },
    {
      "inputs": [
        {
          "internalType": "uint256",
          "name": "_badgeId",
          "type": "uint256"
        }
      ],
      "name": "isBadgeValid",
      "outputs": [
        {
          "internalType": "bool",
          "name": "",
          "type": "bool"
        }
      ],
      "stateMutability": "view",
      "type": "function"
    },
    {
      "inputs": [
        {
          "internalType": "address",
          "name": "_from",
          "type": "address"
        },
        {
          "internalType": "string",
          "name": "_uri",
          "type": "string"
        },
        {
          "internalType": "bytes",
          "name": "_signature",
          "type": "bytes"
        },
        {
          "internalType": "bytes32",
          "name": "root",
          "type": "bytes32"
        },
        {
          "internalType": "bytes32[]",
          "name": "proof",
          "type": "bytes32[]"
        }
      ],
      "name": "merkleTake",
      "outputs": [
        {
          "internalType": "uint256",
          "name": "",
          "type": "uint256"
        }
      ],
      "stateMutability": "nonpayable",
      "type": "function"
    },
    {
      "inputs": [
        {
          "internalType": "address",
          "name": "_recipient",
          "type": "address"
        },
        {
          "internalType": "string",
          "name": "_uri",
          "type": "string"
        },
        {
          "internalType": "bytes",
          "name": "_issuerSignature",
          "type": "bytes"
        },
        {
          "internalType": "bytes",
          "name": "_recipientSignature",
          "type": "bytes"
        }
      ],
      "name": "mintWithConsent",
      "outputs": [],
      "stateMutability": "nonpayable",
      "type": "function"
    },
    {
      "inputs": [],
      "name": "name",
      "outputs": [
        {
          "internalType": "string",
          "name": "",
          "type": "string"
        }
      ],
      "stateMutability": "view",
      "type": "function"
    },
    {
      "inputs": [],
      "name": "owner",
      "outputs": [
        {
          "internalType": "address",
          "name": "",
          "type": "address"
        }
      ],
      "stateMutability": "view",
      "type": "function"
    },
    {
      "inputs": [
        {
          "internalType": "uint256",
          "name": "_tokenId",
          "type": "uint256"
        }
      ],
      "name": "ownerOf",
      "outputs": [
        {
          "internalType": "address",
          "name": "",
          "type": "address"
        }
      ],
      "stateMutability": "view",
      "type": "function"
    },
    {
      "inputs": [],
      "name": "proxiableUUID",
      "outputs": [
        {
          "internalType": "bytes32",
          "name": "",
          "type": "bytes32"
        }
      ],
      "stateMutability": "view",
      "type": "function"
    },
    {
      "inputs": [
        {
          "internalType": "string[]",
          "name": "_specUris",
          "type": "string[]"
        }
      ],
      "name": "refreshMetadata",
      "outputs": [],
      "stateMutability": "nonpayable",
      "type": "function"
    },
    {
      "inputs": [
        {
          "internalType": "uint256",
          "name": "_raftTokenId",
          "type": "uint256"
        },
        {
          "internalType": "uint256",
          "name": "_badgeId",
          "type": "uint256"
        }
      ],
      "name": "reinstateBadge",
      "outputs": [],
      "stateMutability": "nonpayable",
      "type": "function"
    },
    {
      "inputs": [],
      "name": "renounceOwnership",
      "outputs": [],
      "stateMutability": "nonpayable",
      "type": "function"
    },
    {
      "inputs": [
        {
          "internalType": "uint256",
          "name": "_raftTokenId",
          "type": "uint256"
        },
        {
          "internalType": "uint256",
          "name": "_badgeId",
          "type": "uint256"
        },
        {
          "internalType": "uint8",
          "name": "_reason",
          "type": "uint8"
        }
      ],
      "name": "revokeBadge",
      "outputs": [],
      "stateMutability": "nonpayable",
      "type": "function"
    },
    {
      "inputs": [
        {
          "internalType": "address",
          "name": "_dataHolder",
          "type": "address"
        }
      ],
      "name": "setDataHolder",
      "outputs": [],
      "stateMutability": "nonpayable",
      "type": "function"
    },
    {
      "inputs": [
        {
          "internalType": "bytes4",
          "name": "_interfaceId",
          "type": "bytes4"
        }
      ],
      "name": "supportsInterface",
      "outputs": [
        {
          "internalType": "bool",
          "name": "",
          "type": "bool"
        }
      ],
      "stateMutability": "view",
      "type": "function"
    },
    {
      "inputs": [],
      "name": "symbol",
      "outputs": [
        {
          "internalType": "string",
          "name": "",
          "type": "string"
        }
      ],
      "stateMutability": "view",
      "type": "function"
    },
    {
      "inputs": [
        {
          "internalType": "address",
          "name": "_from",
          "type": "address"
        },
        {
          "internalType": "string",
          "name": "_uri",
          "type": "string"
        },
        {
          "internalType": "bytes",
          "name": "_signature",
          "type": "bytes"
        }
      ],
      "name": "take",
      "outputs": [
        {
          "internalType": "uint256",
          "name": "",
          "type": "uint256"
        }
      ],
      "stateMutability": "nonpayable",
      "type": "function"
    },
    {
      "inputs": [
        {
          "internalType": "uint256",
          "name": "_tokenId",
          "type": "uint256"
        }
      ],
      "name": "tokenURI",
      "outputs": [
        {
          "internalType": "string",
          "name": "",
          "type": "string"
        }
      ],
      "stateMutability": "view",
      "type": "function"
    },
    {
      "inputs": [
        {
          "internalType": "address",
          "name": "newOwner",
          "type": "address"
        }
      ],
      "name": "transferOwnership",
      "outputs": [],
      "stateMutability": "nonpayable",
      "type": "function"
    },
    {
      "inputs": [
        {
          "internalType": "uint256",
          "name": "_tokenId",
          "type": "uint256"
        }
      ],
      "name": "unequip",
      "outputs": [],
      "stateMutability": "nonpayable",
      "type": "function"
    },
    {
      "inputs": [
        {
          "internalType": "address",
          "name": "newImplementation",
          "type": "address"
        }
      ],
      "name": "upgradeTo",
      "outputs": [],
      "stateMutability": "nonpayable",
      "type": "function"
    },
    {
      "inputs": [
        {
          "internalType": "address",
          "name": "newImplementation",
          "type": "address"
        },
        {
          "internalType": "bytes",
          "name": "data",
          "type": "bytes"
        }
      ],
      "name": "upgradeToAndCall",
      "outputs": [],
      "stateMutability": "payable",
      "type": "function"
    }
  ],
  "bytecode": {
    "object": "0x60a0604052306080523480156200001557600080fd5b506200002062000026565b620000e8565b600054610100900460ff1615620000935760405162461bcd60e51b815260206004820152602760248201527f496e697469616c697a61626c653a20636f6e747261637420697320696e697469604482015266616c697a696e6760c81b606482015260840160405180910390fd5b60005460ff9081161015620000e6576000805460ff191660ff9081179091556040519081527f7f26b83ff96e1f2b6a682f133852f6798a09c465da95921460cefb38474024989060200160405180910390a15b565b6080516141b46200012060003960008181610aba01528181610afa0152818161137b015281816113bb015261144e01526141b46000f3fe6080604052600436106101ee5760003560e01c80637c402f8d1161010d578063bd6645e4116100a0578063d179e3d01161006f578063d179e3d014610581578063d6d0faee146105a1578063e4992506146105c1578063ec64948e146105e1578063f2fde38b1461060157600080fd5b8063bd6645e414610501578063bdbdbcbf14610521578063c018411214610541578063c87b56dd1461056157600080fd5b806395d89b41116100dc57806395d89b411461048c578063a32c9c7a146104a1578063a3947803146104c1578063a8cf8683146104e157600080fd5b80637c402f8d1461040e57806380956c7e1461042e5780638339a1331461044e5780638da5cb5b1461046e57600080fd5b80634a086b53116101855780636352211e116101545780636352211e14610382578063635ad993146103ba57806370a08231146103d9578063715018a6146103f957600080fd5b80634a086b531461031a5780634a50b3761461033a5780634f1ef2861461035a57806352d1902d1461036d57600080fd5b806329fc4a1c116101c157806329fc4a1c146102985780633659cfe6146102ba57806339ae37c0146102da578063445a62b9146102fa57600080fd5b806301ffc9a7146101f357806306fdde03146102285780630f4d9b011461024a5780631766c0381461026a575b600080fd5b3480156101ff57600080fd5b5061021361020e36600461337b565b610621565b60405190151581526020015b60405180910390f35b34801561023457600080fd5b5061023d610673565b60405161021f91906133f5565b34801561025657600080fd5b50610213610265366004613408565b610706565b34801561027657600080fd5b5061028a610285366004613477565b61076d565b60405190815260200161021f565b3480156102a457600080fd5b506102b86102b33660046134f9565b6108c0565b005b3480156102c657600080fd5b506102b86102d53660046135a5565b610ab0565b3480156102e657600080fd5b506102b86102f5366004613606565b610b8f565b34801561030657600080fd5b506102b8610315366004613671565b610d15565b34801561032657600080fd5b5061028a6103353660046136bc565b610fd3565b34801561034657600080fd5b506102b86103553660046137b7565b611139565b6102b86103683660046138aa565b611371565b34801561037957600080fd5b5061028a611441565b34801561038e57600080fd5b506103a261039d366004613408565b6114f4565b6040516001600160a01b03909116815260200161021f565b3480156103c657600080fd5b50610135546001600160a01b03166103a2565b3480156103e557600080fd5b5061028a6103f43660046135a5565b611549565b34801561040557600080fd5b506102b86115d1565b34801561041a57600080fd5b506102b8610429366004613951565b6115e5565b34801561043a57600080fd5b506102b8610449366004613990565b6117a9565b34801561045a57600080fd5b5061028a6104693660046139b2565b611963565b34801561047a57600080fd5b5060c9546001600160a01b03166103a2565b34801561049857600080fd5b5061023d6119f0565b3480156104ad57600080fd5b506102b86104bc366004613a06565b611a00565b3480156104cd57600080fd5b5061028a6104dc366004613477565b611c21565b3480156104ed57600080fd5b5061028a6104fc3660046139b2565b611d6b565b34801561050d57600080fd5b5061028a61051c366004613a9f565b611da1565b34801561052d57600080fd5b506102b861053c366004613afa565b611e1b565b34801561054d57600080fd5b506102b861055c3660046135a5565b611ebe565b34801561056d57600080fd5b5061023d61057c366004613408565b611ee9565b34801561058d57600080fd5b506102b861059c366004613408565b611ff0565b3480156105ad57600080fd5b506102b86105bc366004613b3b565b612097565b3480156105cd57600080fd5b5061028a6105dc366004613bfa565b612276565b3480156105ed57600080fd5b5061028a6105fc366004613477565b6122e6565b34801561060d57600080fd5b506102b861061c3660046135a5565b612423565b60006001600160e01b03198216635b5e139f60e01b148061065257506001600160e01b031982166346bdd63960e11b145b8061066d57506301ffc9a760e01b6001600160e01b03198316145b92915050565b6060610130805461068390613c52565b80601f01602080910402602001604051908101604052809291908181526020018280546106af90613c52565b80156106fc5780601f106106d1576101008083540402835291602001916106fc565b820191906000526020600020905b8154815290600101906020018083116106df57829003601f168201915b5050505050905090565b6000818152610132602052604081205482906001600160a01b03166107465760405162461bcd60e51b815260040161073d90613c86565b60405180910390fd5b600883901c60009081526101376020526040902054600160ff85161b161591505b50919050565b61013554604051633664a8e960e01b815260009182916001600160a01b0390911690633664a8e9906107a59089908990600401613ce4565b602060405180830381865afa1580156107c2573d6000803e3d6000fd5b505050506040513d601f19601f820116820180604052508101906107e69190613cf8565b6101355460405163e3ee9c4d60e01b8152600481018390523360248201529192506001600160a01b03169063e3ee9c4d90604401602060405180830381865afa158015610837573d6000803e3d6000fd5b505050506040513d601f19601f8201168201806040525081019061085b9190613d11565b6108a75760405162461bcd60e51b815260206004820181905260248201527f6769766552657175657374656442616467653a20756e617574686f72697a6564604482015260640161073d565b6108b5878787878786612499565b979650505050505050565b61013554604051633664a8e960e01b81526000916001600160a01b031690633664a8e9906108f4908a908a90600401613ce4565b602060405180830381865afa158015610911573d6000803e3d6000fd5b505050506040513d601f19601f820116820180604052508101906109359190613cf8565b90506000610945338a8a8a612276565b9050610988338288888080601f01602080910402602001604051908101604052809392919081815260200183838082843760009201919091525061254c92505050565b6109e65760405162461bcd60e51b815260206004820152602960248201527f6d696e7457697468436f6e73656e743a20696e76616c696420697373756572206044820152687369676e617475726560b81b606482015260840161073d565b60006109f38a8a8a611963565b9050610a368a8287878080601f01602080910402602001604051908101604052809392919081815260200183838082843760009201919091525061254c92505050565b610a975760405162461bcd60e51b815260206004820152602c60248201527f6d696e7457697468436f6e73656e743a20696e76616c6964207265636970696560448201526b6e74207369676e617475726560a01b606482015260840161073d565b610aa38a8a8a8661268e565b5050505050505050505050565b6001600160a01b037f0000000000000000000000000000000000000000000000000000000000000000163003610af85760405162461bcd60e51b815260040161073d90613d33565b7f00000000000000000000000000000000000000000000000000000000000000006001600160a01b0316610b41600080516020614138833981519152546001600160a01b031690565b6001600160a01b031614610b675760405162461bcd60e51b815260040161073d90613d7f565b610b708161280d565b60408051600080825260208201909252610b8c91839190612815565b50565b61013554604051633664a8e960e01b81526000916001600160a01b031690633664a8e990610bc39086908690600401613ce4565b602060405180830381865afa158015610be0573d6000803e3d6000fd5b505050506040513d601f19601f82011682018060405250810190610c049190613cf8565b6101355460405163e3ee9c4d60e01b8152600481018390523360248201529192506001600160a01b03169063e3ee9c4d90604401602060405180830381865afa158015610c55573d6000803e3d6000fd5b505050506040513d601f19601f82011682018060405250810190610c799190613d11565b610cbd5760405162461bcd60e51b8152602060048201526015602482015274185a5c991c9bdc0e881d5b985d5d1a1bdc9a5e9959605a1b604482015260640161073d565b60005b84811015610d0d57610cfa868683818110610cdd57610cdd613dcb565b9050602002016020810190610cf291906135a5565b85858561268e565b5080610d0581613df7565b915050610cc0565b505050505050565b6101355460405163e3ee9c4d60e01b8152600481018390523360248201526001600160a01b039091169063e3ee9c4d90604401602060405180830381865afa158015610d65573d6000803e3d6000fd5b505050506040513d601f19601f82011682018060405250810190610d899190613d11565b610dd55760405162461bcd60e51b815260206004820152601860248201527f637265617465537065633a20756e617574686f72697a65640000000000000000604482015260640161073d565b61013554604051637e07102760e11b81526001600160a01b039091169063fc0e204e90610e089086908690600401613ce4565b602060405180830381865afa158015610e25573d6000803e3d6000fd5b505050506040513d601f19601f82011682018060405250810190610e499190613d11565b15610ea25760405162461bcd60e51b815260206004820152602360248201527f637265617465537065633a207370656320616c726561647920726567697374656044820152621c995960ea1b606482015260840161073d565b6101355460405163addd190760e01b81526001600160a01b039091169063addd190790610ed790869086908690600401613e10565b600060405180830381600087803b158015610ef157600080fd5b505af1158015610f05573d6000803e3d6000fd5b5050505061013560009054906101000a90046001600160a01b03166001600160a01b03166334f876626040518163ffffffff1660e01b8152600401602060405180830381865afa158015610f5d573d6000803e3d6000fd5b505050506040513d601f19601f82011682018060405250810190610f819190613e34565b6001600160a01b031681336001600160a01b03167f68c7f8503283c455a4445b54a7d5c40656c8cae5cca0583c6d4be836984787008686604051610fc6929190613ce4565b60405180910390a4505050565b6000610fe689338a8a8a8a8a8a8a612985565b61013554604051633664a8e960e01b81526000916001600160a01b031690633664a8e99061101a908c908c90600401613ce4565b602060405180830381865afa158015611037573d6000803e3d6000fd5b505050506040513d601f19601f8201168201806040525081019061105b9190613cf8565b6101355460405163e3ee9c4d60e01b8152600481018390526001600160a01b038d8116602483015292935091169063e3ee9c4d90604401602060405180830381865afa1580156110af573d6000803e3d6000fd5b505050506040513d601f19601f820116820180604052508101906110d39190613d11565b61111f5760405162461bcd60e51b815260206004820152601860248201527f6d65726b6c6554616b653a20756e617574686f72697a65640000000000000000604482015260640161073d565b61112b338a8a8461268e565b9a9950505050505050505050565b845181146111bb5760405162461bcd60e51b815260206004820152604360248201527f676976655265717565737465644261646765546f4d616e793a2072656369706960448201527f656e747320616e64207369676e617475726573206c656e677468206d69736d616064820152620e8c6d60eb1b608482015260a40161073d565b61013554604051633664a8e960e01b81526000916001600160a01b031690633664a8e9906111ef9088908890600401613ce4565b602060405180830381865afa15801561120c573d6000803e3d6000fd5b505050506040513d601f19601f820116820180604052508101906112309190613cf8565b6101355460405163e3ee9c4d60e01b8152600481018390523360248201529192506001600160a01b03169063e3ee9c4d90604401602060405180830381865afa158015611281573d6000803e3d6000fd5b505050506040513d601f19601f820116820180604052508101906112a59190613d11565b6113005760405162461bcd60e51b815260206004820152602660248201527f676976655265717565737465644261646765546f4d616e793a20756e617574686044820152651bdc9a5e995960d21b606482015260840161073d565b60005b86518110156113685761135587828151811061132157611321613dcb565b6020026020010151878787878681811061133d5761133d613dcb565b905060200281019061134f9190613e51565b87612499565b508061136081613df7565b915050611303565b50505050505050565b6001600160a01b037f00000000000000000000000000000000000000000000000000000000000000001630036113b95760405162461bcd60e51b815260040161073d90613d33565b7f00000000000000000000000000000000000000000000000000000000000000006001600160a01b0316611402600080516020614138833981519152546001600160a01b031690565b6001600160a01b0316146114285760405162461bcd60e51b815260040161073d90613d7f565b6114318261280d565b61143d82826001612815565b5050565b6000306001600160a01b037f000000000000000000000000000000000000000000000000000000000000000016146114e15760405162461bcd60e51b815260206004820152603860248201527f555550535570677261646561626c653a206d757374206e6f742062652063616c60448201527f6c6564207468726f7567682064656c656761746563616c6c0000000000000000606482015260840161073d565b5060008051602061413883398151915290565b6000818152610132602052604081205482906001600160a01b031661152b5760405162461bcd60e51b815260040161073d90613c86565b5050600090815261013260205260409020546001600160a01b031690565b60006001600160a01b0382166115b45760405162461bcd60e51b815260206004820152602a60248201527f62616c616e63654f663a2061646472657373283029206973206e6f742061207660448201526930b634b21037bbb732b960b11b606482015260840161073d565b506001600160a01b03166000908152610134602052604090205490565b6115d9612b12565b6115e36000612b6c565b565b6000828152610132602052604090205482906001600160a01b031661161c5760405162461bcd60e51b815260040161073d90613c86565b6101355460405163e3ee9c4d60e01b8152600481018690523360248201526001600160a01b039091169063e3ee9c4d90604401602060405180830381865afa15801561166c573d6000803e3d6000fd5b505050506040513d601f19601f820116820180604052508101906116909190613d11565b6116dc5760405162461bcd60e51b815260206004820152601960248201527f7265766f6b6542616467653a20756e617574686f72697a656400000000000000604482015260640161073d565b600883901c60009081526101376020526040902054600160ff85161b16156117515760405162461bcd60e51b815260206004820152602260248201527f7265766f6b6542616467653a20626164676520616c7265616479207265766f6b604482015261195960f21b606482015260840161073d565b600883901c6000908152610137602052604090208054600160ff86161b17905560405160ff831690339085907ffa784c48260e8db512de5f055a2f29eced211a7b3bd6338058b095ada7354cee90600090a450505050565b6000818152610132602052604090205481906001600160a01b03166117e05760405162461bcd60e51b815260040161073d90613c86565b6101355460405163e3ee9c4d60e01b8152600481018590523360248201526001600160a01b039091169063e3ee9c4d90604401602060405180830381865afa158015611830573d6000803e3d6000fd5b505050506040513d601f19601f820116820180604052508101906118549190613d11565b6118a05760405162461bcd60e51b815260206004820152601c60248201527f7265696e737461746542616467653a20756e617574686f72697a656400000000604482015260640161073d565b600882901c60009081526101376020526040902054600160ff84161b166119135760405162461bcd60e51b815260206004820152602160248201527f7265696e737461746542616467653a206261646765206e6f74207265766f6b656044820152601960fa1b606482015260840161073d565b600882901c600090815261013760205260408082208054600160ff87161b1916905551339184917f7f8cf9ecf2a5225948f8a1601709cedc8471c52ee75a8174c9845c29c99ed9a29190a3505050565b60006119e67fa1cd8d39eb877323a4bcf08188675058ee9a4534d4c79021300b3722aeda505d85858560405161199a929190613e97565b6040519081900381206119cb9392916020019283526001600160a01b03919091166020830152604082015260600190565b60405160208183030381529060405280519060200120612bbe565b90505b9392505050565b6060610131805461068390613c52565b848114611a6d5760405162461bcd60e51b815260206004820152603560248201527f67697665546f4d616e793a20726563697069656e747320616e64207369676e616044820152740e8eae4cae640d8cadccee8d040dad2e6dac2e8c6d605b1b606482015260840161073d565b61013554604051633664a8e960e01b81526000916001600160a01b031690633664a8e990611aa19088908890600401613ce4565b602060405180830381865afa158015611abe573d6000803e3d6000fd5b505050506040513d601f19601f82011682018060405250810190611ae29190613cf8565b6101355460405163e3ee9c4d60e01b8152600481018390523360248201529192506001600160a01b03169063e3ee9c4d90604401602060405180830381865afa158015611b33573d6000803e3d6000fd5b505050506040513d601f19601f82011682018060405250810190611b579190613d11565b611ba35760405162461bcd60e51b815260206004820152601860248201527f67697665546f4d616e793a20756e617574686f72697a65640000000000000000604482015260640161073d565b60005b86811015611c1757611c04888883818110611bc357611bc3613dcb565b9050602002016020810190611bd891906135a5565b8787878786818110611bec57611bec613dcb565b9050602002810190611bfe9190613e51565b87612c0c565b5080611c0f81613df7565b915050611ba6565b5050505050505050565b6000611c31338787878787612c18565b61013554604051633664a8e960e01b81526000916001600160a01b031690633664a8e990611c659089908990600401613ce4565b602060405180830381865afa158015611c82573d6000803e3d6000fd5b505050506040513d601f19601f82011682018060405250810190611ca69190613cf8565b6101355460405163e3ee9c4d60e01b8152600481018390526001600160a01b038a8116602483015292935091169063e3ee9c4d90604401602060405180830381865afa158015611cfa573d6000803e3d6000fd5b505050506040513d601f19601f82011682018060405250810190611d1e9190613d11565b611d5f5760405162461bcd60e51b81526020600482015260126024820152711d185ad94e881d5b985d5d1a1bdc9a5e995960721b604482015260640161073d565b6108b53387878461268e565b6000838383604051602001611d8293929190613ea7565b6040516020818303038152906040528051906020012090509392505050565b6000611e107f6d0d990916a9f9c9e0896e59ce7f5ddddff333d0c8772438ce004fa7719b164b868686604051611dd8929190613e97565b6040519081900381206119cb93929187906020019384526001600160a01b039290921660208401526040830152606082015260800190565b90505b949350505050565b611e23612b12565b80611e7f5760405162461bcd60e51b815260206004820152602660248201527f726566726573684d657461646174613a206e6f207370656320757269732070726044820152651bdd9a59195960d21b606482015260840161073d565b7f2231d988b1a75dccab13dee3564b71a551900e822e94177a96f19561890c0fd5828233604051611eb293929190613ecc565b60405180910390a15050565b611ec6612b12565b61013580546001600160a01b0319166001600160a01b0392909216919091179055565b600081815261013260205260409020546060906001600160a01b0316611f515760405162461bcd60e51b815260206004820152601d60248201527f746f6b656e5552493a20746f6b656e20646f65736e2774206578697374000000604482015260640161073d565b6000828152610133602052604090208054611f6b90613c52565b80601f0160208091040260200160405190810160405280929190818152602001828054611f9790613c52565b8015611fe45780601f10611fb957610100808354040283529160200191611fe4565b820191906000526020600020905b815481529060010190602001808311611fc757829003601f168201915b50505050509050919050565b6000818152610132602052604090205481906001600160a01b03166120275760405162461bcd60e51b815260040161073d90613c86565b600082815261013260205260409020546001600160a01b0316331461208e5760405162461bcd60e51b815260206004820152601d60248201527f756e65717569703a2073656e646572206d757374206265206f776e6572000000604482015260640161073d565b61143d82612cbe565b600054610100900460ff16158080156120b75750600054600160ff909116105b806120d15750303b1580156120d1575060005460ff166001145b6121345760405162461bcd60e51b815260206004820152602e60248201527f496e697469616c697a61626c653a20636f6e747261637420697320616c72656160448201526d191e481a5b9a5d1a585b1a5e995960921b606482015260840161073d565b6000805460ff191660011790558015612157576000805461ff0019166101001790555b610130612165898b83613fbb565b50610131612174878983613fbb565b5061013580546001600160a01b0319166001600160a01b038416179055612199612d69565b6121a1612d90565b61221489898080601f01602080910402602001604051908101604052809392919081815260200183838082843760009201919091525050604080516020601f8b018190048102820181019092528981529250899150889081908401838280828437600092019190915250612dbf92505050565b61221c612d69565b61222583612423565b801561226b576000805461ff0019169055604051600181527f7f26b83ff96e1f2b6a682f133852f6798a09c465da95921460cefb38474024989060200160405180910390a15b505050505050505050565b6000611e107fe76a195fbe43f0eaa611595069f780493db2202a1cc4b2d7d44b47069812998a868686866040516122ae929190613e97565b6040519081900381206119cb949392916020019384526001600160a01b03928316602085015291166040830152606082015260800190565b61013554604051633664a8e960e01b815260009182916001600160a01b0390911690633664a8e99061231e9089908990600401613ce4565b602060405180830381865afa15801561233b573d6000803e3d6000fd5b505050506040513d601f19601f8201168201806040525081019061235f9190613cf8565b6101355460405163e3ee9c4d60e01b8152600481018390523360248201529192506001600160a01b03169063e3ee9c4d90604401602060405180830381865afa1580156123b0573d6000803e3d6000fd5b505050506040513d601f19601f820116820180604052508101906123d49190613d11565b6124155760405162461bcd60e51b815260206004820152601260248201527119da5d994e881d5b985d5d1a1bdc9a5e995960721b604482015260640161073d565b6108b5878787878786612c0c565b61242b612b12565b6001600160a01b0381166124905760405162461bcd60e51b815260206004820152602660248201527f4f776e61626c653a206e6577206f776e657220697320746865207a65726f206160448201526564647265737360d01b606482015260840161073d565b610b8c81612b6c565b60006124e6876124aa898989611963565b86868080601f01602080910402602001604051908101604052809392919081815260200183838082843760009201919091525061254c92505050565b6125405760405162461bcd60e51b815260206004820152602560248201527f6769766552657175657374656442616467653a20696e76616c6964207369676e604482015264617475726560d81b606482015260840161073d565b6108b58787878561268e565b600080600061255b8585612df0565b909250905060008160048111156125745761257461407b565b1480156125925750856001600160a01b0316826001600160a01b0316145b156125a2576001925050506119e9565b600080876001600160a01b0316631626ba7e60e01b88886040516024016125ca929190614091565b60408051601f198184030181529181526020820180516001600160e01b03166001600160e01b031990941693909317909252905161260891906140aa565b600060405180830381855afa9150503d8060008114612643576040519150601f19603f3d011682016040523d82523d6000602084013e612648565b606091505b509150915081801561265b575080516020145b801561268257508051630b135d3f60e11b906126809083016020908101908401613cf8565b145b98975050505050505050565b60008061269c868686611d6b565b600081815261013260205260409020549091506001600160a01b0316156126fc5760405162461bcd60e51b81526020600482015260146024820152736d696e743a20746f6b656e49442065786973747360601b604482015260640161073d565b6001600160a01b03861660009081526101346020526040812080549161272183613df7565b909155505060008181526101326020908152604080832080546001600160a01b0319166001600160a01b038b161790556101339091529020612764858783613fbb565b5060405181906001600160a01b038816906000907fddf252ad1be2c89b69c2b068fc378daa952ba7f163c4a11628f55a4df523b3ef908290a46101355460405163fb74926160e01b815260048101839052602481018590526001600160a01b039091169063fb74926190604401600060405180830381600087803b1580156127eb57600080fd5b505af11580156127ff573d6000803e3d6000fd5b509298975050505050505050565b610b8c612b12565b7f4910fdfa16fed3260ed0e7147f7cc6da11a60208b5b9406d12a635614ffd91435460ff161561284d5761284883612e5e565b505050565b826001600160a01b03166352d1902d6040518163ffffffff1660e01b8152600401602060405180830381865afa9250505080156128a7575060408051601f3d908101601f191682019092526128a491810190613cf8565b60015b61290a5760405162461bcd60e51b815260206004820152602e60248201527f45524331393637557067726164653a206e657720696d706c656d656e7461746960448201526d6f6e206973206e6f74205555505360901b606482015260840161073d565b60008051602061413883398151915281146129795760405162461bcd60e51b815260206004820152602960248201527f45524331393637557067726164653a20756e737570706f727465642070726f786044820152681a58589b195555525160ba1b606482015260840161073d565b50612848838383612efa565b6129d1896129958b8a8a88611da1565b87878080601f01602080910402602001604051908101604052809392919081815260200183838082843760009201919091525061254c92505050565b612a315760405162461bcd60e51b815260206004820152602b60248201527f73616665436865636b4d65726b6c6541677265656d656e743a20696e76616c6960448201526a64207369676e617475726560a81b606482015260840161073d565b6040516bffffffffffffffffffffffff1960608a901b166020820152600090603401604051602081830303815290604052805190602001209050612aab838380806020026020016040519081016040528093929190818152602001838360200280828437600092019190915250889250859150612f259050565b612b065760405162461bcd60e51b815260206004820152602660248201527f73616665436865636b4d65726b6c6541677265656d656e743a20696e76616c6960448201526532103632b0b360d11b606482015260840161073d565b50505050505050505050565b60c9546001600160a01b031633146115e35760405162461bcd60e51b815260206004820181905260248201527f4f776e61626c653a2063616c6c6572206973206e6f7420746865206f776e6572604482015260640161073d565b60c980546001600160a01b038381166001600160a01b0319831681179093556040519116919082907f8be0079c531659141344cd1fd0a4f28419497f9722a3daafe3b4186f6b6457e090600090a35050565b600061066d612bcb612f3b565b8360405161190160f01b6020820152602281018390526042810182905260009060620160405160208183030381529060405280519060200120905092915050565b60006125403388888888885b612c6485612c2888888888612276565b84848080601f01602080910402602001604051908101604052809392919081815260200183838082843760009201919091525061254c92505050565b610d0d5760405162461bcd60e51b815260206004820152602560248201527f73616665436865636b41677265656d656e743a20696e76616c6964207369676e604482015264617475726560d81b606482015260840161073d565b600081815261013260209081526040808320546001600160a01b0316808452610134909252822080549192600192612cf79084906140c6565b909155505060008281526101326020908152604080832080546001600160a01b03191690556101339091528120612d2d9161332d565b60405182906000906001600160a01b038416907fddf252ad1be2c89b69c2b068fc378daa952ba7f163c4a11628f55a4df523b3ef908390a45050565b600054610100900460ff166115e35760405162461bcd60e51b815260040161073d906140d9565b600054610100900460ff16612db75760405162461bcd60e51b815260040161073d906140d9565b6115e3612f77565b600054610100900460ff16612de65760405162461bcd60e51b815260040161073d906140d9565b61143d8282612fa7565b6000808251604103612e265760208301516040840151606085015160001a612e1a87828585612fe8565b94509450505050612e57565b8251604003612e4f5760208301516040840151612e448683836130d5565b935093505050612e57565b506000905060025b9250929050565b6001600160a01b0381163b612ecb5760405162461bcd60e51b815260206004820152602d60248201527f455243313936373a206e657720696d706c656d656e746174696f6e206973206e60448201526c1bdd08184818dbdb9d1c9858dd609a1b606482015260840161073d565b60008051602061413883398151915280546001600160a01b0319166001600160a01b0392909216919091179055565b612f038361310e565b600082511180612f105750805b1561284857612f1f838361314e565b50505050565b600082612f328584613242565b14949350505050565b6000612f727f8b73c3c69bb8fe3d512ecc4cf759cc79239f7b179b0ffacaa9a75d522b39400f612f6a60fb5490565b60fc5461328f565b905090565b600054610100900460ff16612f9e5760405162461bcd60e51b815260040161073d906140d9565b6115e333612b6c565b600054610100900460ff16612fce5760405162461bcd60e51b815260040161073d906140d9565b81516020928301208151919092012060fb9190915560fc55565b6000807f7fffffffffffffffffffffffffffffff5d576e7357a4501ddfe92f46681b20a083111561301f57506000905060036130cc565b8460ff16601b1415801561303757508460ff16601c14155b1561304857506000905060046130cc565b6040805160008082526020820180845289905260ff881692820192909252606081018690526080810185905260019060a0016020604051602081039080840390855afa15801561309c573d6000803e3d6000fd5b5050604051601f1901519150506001600160a01b0381166130c5576000600192509250506130cc565b9150600090505b94509492505050565b6000806001600160ff1b038316816130f260ff86901c601b614124565b905061310087828885612fe8565b935093505050935093915050565b61311781612e5e565b6040516001600160a01b038216907fbc7cd75a20ee27fd9adebab32041f755214dbc6bffa90cc0225b39da2e5c2d3b90600090a250565b60606001600160a01b0383163b6131b65760405162461bcd60e51b815260206004820152602660248201527f416464726573733a2064656c65676174652063616c6c20746f206e6f6e2d636f6044820152651b9d1c9858dd60d21b606482015260840161073d565b600080846001600160a01b0316846040516131d191906140aa565b600060405180830381855af49150503d806000811461320c576040519150601f19603f3d011682016040523d82523d6000602084013e613211565b606091505b50915091506132398282604051806060016040528060278152602001614158602791396132be565b95945050505050565b600081815b8451811015613287576132738286838151811061326657613266613dcb565b60200260200101516132d7565b91508061327f81613df7565b915050613247565b509392505050565b6040805160208101859052908101839052606081018290524660808201523060a082015260009060c001611d82565b606083156132cd5750816119e9565b6119e98383613303565b60008183106132f35760008281526020849052604090206119e9565b5060009182526020526040902090565b8151156133135781518083602001fd5b8060405162461bcd60e51b815260040161073d91906133f5565b50805461333990613c52565b6000825580601f10613349575050565b601f016020900490600052602060002090810190610b8c91905b808211156133775760008155600101613363565b5090565b60006020828403121561338d57600080fd5b81356001600160e01b0319811681146119e957600080fd5b60005b838110156133c05781810151838201526020016133a8565b50506000910152565b600081518084526133e18160208601602086016133a5565b601f01601f19169290920160200192915050565b6020815260006119e960208301846133c9565b60006020828403121561341a57600080fd5b5035919050565b6001600160a01b0381168114610b8c57600080fd5b60008083601f84011261344857600080fd5b5081356001600160401b0381111561345f57600080fd5b602083019150836020828501011115612e5757600080fd5b60008060008060006060868803121561348f57600080fd5b853561349a81613421565b945060208601356001600160401b03808211156134b657600080fd5b6134c289838a01613436565b909650945060408801359150808211156134db57600080fd5b506134e888828901613436565b969995985093965092949392505050565b60008060008060008060006080888a03121561351457600080fd5b873561351f81613421565b965060208801356001600160401b038082111561353b57600080fd5b6135478b838c01613436565b909850965060408a013591508082111561356057600080fd5b61356c8b838c01613436565b909650945060608a013591508082111561358557600080fd5b506135928a828b01613436565b989b979a50959850939692959293505050565b6000602082840312156135b757600080fd5b81356119e981613421565b60008083601f8401126135d457600080fd5b5081356001600160401b038111156135eb57600080fd5b6020830191508360208260051b8501011115612e5757600080fd5b6000806000806040858703121561361c57600080fd5b84356001600160401b038082111561363357600080fd5b61363f888389016135c2565b9096509450602087013591508082111561365857600080fd5b5061366587828801613436565b95989497509550505050565b60008060006040848603121561368657600080fd5b83356001600160401b0381111561369c57600080fd5b6136a886828701613436565b909790965060209590950135949350505050565b60008060008060008060008060a0898b0312156136d857600080fd5b88356136e381613421565b975060208901356001600160401b03808211156136ff57600080fd5b61370b8c838d01613436565b909950975060408b013591508082111561372457600080fd5b6137308c838d01613436565b909750955060608b0135945060808b013591508082111561375057600080fd5b5061375d8b828c016135c2565b999c989b5096995094979396929594505050565b634e487b7160e01b600052604160045260246000fd5b604051601f8201601f191681016001600160401b03811182821017156137af576137af613771565b604052919050565b6000806000806000606086880312156137cf57600080fd5b85356001600160401b03808211156137e657600080fd5b818801915088601f8301126137fa57600080fd5b813560208282111561380e5761380e613771565b8160051b61381d828201613787565b928352848101820192828101908d85111561383757600080fd5b958301955b84871015613861578635925061385183613421565b828252958301959083019061383c565b9a5050508901359250508082111561387857600080fd5b61388489838a01613436565b9096509450604088013591508082111561389d57600080fd5b506134e8888289016135c2565b600080604083850312156138bd57600080fd5b82356138c881613421565b91506020838101356001600160401b03808211156138e557600080fd5b818601915086601f8301126138f957600080fd5b81358181111561390b5761390b613771565b61391d601f8201601f19168501613787565b9150808252878482850101111561393357600080fd5b80848401858401376000848284010152508093505050509250929050565b60008060006060848603121561396657600080fd5b8335925060208401359150604084013560ff8116811461398557600080fd5b809150509250925092565b600080604083850312156139a357600080fd5b50508035926020909101359150565b6000806000604084860312156139c757600080fd5b83356139d281613421565b925060208401356001600160401b038111156139ed57600080fd5b6139f986828701613436565b9497909650939450505050565b60008060008060008060608789031215613a1f57600080fd5b86356001600160401b0380821115613a3657600080fd5b613a428a838b016135c2565b90985096506020890135915080821115613a5b57600080fd5b613a678a838b01613436565b90965094506040890135915080821115613a8057600080fd5b50613a8d89828a016135c2565b979a9699509497509295939492505050565b60008060008060608587031215613ab557600080fd5b8435613ac081613421565b935060208501356001600160401b03811115613adb57600080fd5b613ae787828801613436565b9598909750949560400135949350505050565b60008060208385031215613b0d57600080fd5b82356001600160401b03811115613b2357600080fd5b613b2f858286016135c2565b90969095509350505050565b60008060008060008060008060a0898b031215613b5757600080fd5b88356001600160401b0380821115613b6e57600080fd5b613b7a8c838d01613436565b909a50985060208b0135915080821115613b9357600080fd5b613b9f8c838d01613436565b909850965060408b0135915080821115613bb857600080fd5b50613bc58b828c01613436565b9095509350506060890135613bd981613421565b91506080890135613be981613421565b809150509295985092959890939650565b60008060008060608587031215613c1057600080fd5b8435613c1b81613421565b93506020850135613c2b81613421565b925060408501356001600160401b03811115613c4657600080fd5b61366587828801613436565b600181811c90821680613c6657607f821691505b60208210810361076757634e487b7160e01b600052602260045260246000fd5b6020808252818101527f746f6b656e4578697374733a20746f6b656e20646f65736e2774206578697374604082015260600190565b81835281816020850137506000828201602090810191909152601f909101601f19169091010190565b6020815260006119e6602083018486613cbb565b600060208284031215613d0a57600080fd5b5051919050565b600060208284031215613d2357600080fd5b815180151581146119e957600080fd5b6020808252602c908201527f46756e6374696f6e206d7573742062652063616c6c6564207468726f7567682060408201526b19195b1959d85d1958d85b1b60a21b606082015260800190565b6020808252602c908201527f46756e6374696f6e206d7573742062652063616c6c6564207468726f7567682060408201526b6163746976652070726f787960a01b606082015260800190565b634e487b7160e01b600052603260045260246000fd5b634e487b7160e01b600052601160045260246000fd5b600060018201613e0957613e09613de1565b5060010190565b604081526000613e24604083018587613cbb565b9050826020830152949350505050565b600060208284031215613e4657600080fd5b81516119e981613421565b6000808335601e19843603018112613e6857600080fd5b8301803591506001600160401b03821115613e8257600080fd5b602001915036819003821315612e5757600080fd5b8183823760009101908152919050565b6001600160a01b0384168152604060208201819052600090611e109083018486613cbb565b6040808252810183905260006060600585901b8301810190830186835b87811015613f5c57858403605f190183528135368a9003601e19018112613f0f57600080fd5b890160208181019135906001600160401b03821115613f2d57600080fd5b813603831315613f3c57600080fd5b613f47878385613cbb565b96509485019493909301925050600101613ee9565b5050506001600160a01b03841660208401529050611e13565b601f82111561284857600081815260208120601f850160051c81016020861015613f9c5750805b601f850160051c820191505b81811015610d0d57828155600101613fa8565b6001600160401b03831115613fd257613fd2613771565b613fe683613fe08354613c52565b83613f75565b6000601f84116001811461401a57600085156140025750838201355b600019600387901b1c1916600186901b178355614074565b600083815260209020601f19861690835b8281101561404b578685013582556020948501946001909201910161402b565b50868210156140685760001960f88860031b161c19848701351681555b505060018560011b0183555b5050505050565b634e487b7160e01b600052602160045260246000fd5b8281526040602082015260006119e660408301846133c9565b600082516140bc8184602087016133a5565b9190910192915050565b8181038181111561066d5761066d613de1565b6020808252602b908201527f496e697469616c697a61626c653a20636f6e7472616374206973206e6f74206960408201526a6e697469616c697a696e6760a81b606082015260800190565b8082018082111561066d5761066d613de156fe360894a13ba1a3210667c828492db98dca3e2076cc3735a920a3ca505d382bbc416464726573733a206c6f772d6c6576656c2064656c65676174652063616c6c206661696c6564a2646970667358221220a16f3a13c4d9530f84a7687af0de5cf8c6e74afff48f7c4e5b103edebcb3609064736f6c63430008100033",
    "linkReferences": {}
  },
  "methodIdentifiers": {
    "airdrop(address[],string)": "39ae37c0",
    "balanceOf(address)": "70a08231",
    "createSpec(string,uint256)": "445a62b9",
    "getAgreementHash(address,address,string)": "e4992506",
    "getBadgeIdHash(address,string)": "a8cf8683",
    "getDataHolderAddress()": "635ad993",
    "getMerkleAgreementHash(address,string,bytes32)": "bd6645e4",
    "getRequestHash(address,string)": "8339a133",
    "give(address,string,bytes)": "ec64948e",
    "giveRequestedBadge(address,string,bytes)": "1766c038",
    "giveRequestedBadgeToMany(address[],string,bytes[])": "4a50b376",
    "giveToMany(address[],string,bytes[])": "a32c9c7a",
    "initialize(string,string,string,address,address)": "d6d0faee",
    "isBadgeValid(uint256)": "0f4d9b01",
    "merkleTake(address,string,bytes,bytes32,bytes32[])": "4a086b53",
    "mintWithConsent(address,string,bytes,bytes)": "29fc4a1c",
    "name()": "06fdde03",
    "owner()": "8da5cb5b",
    "ownerOf(uint256)": "6352211e",
    "proxiableUUID()": "52d1902d",
    "refreshMetadata(string[])": "bdbdbcbf",
    "reinstateBadge(uint256,uint256)": "80956c7e",
    "renounceOwnership()": "715018a6",
    "revokeBadge(uint256,uint256,uint8)": "7c402f8d",
    "setDataHolder(address)": "c0184112",
    "supportsInterface(bytes4)": "01ffc9a7",
    "symbol()": "95d89b41",
    "take(address,string,bytes)": "a3947803",
    "tokenURI(uint256)": "c87b56dd",
    "transferOwnership(address)": "f2fde38b",
    "unequip(uint256)": "d179e3d0",
    "upgradeTo(address)": "3659cfe6",
    "upgradeToAndCall(address,bytes)": "4f1ef286"
  },
  "id": 46
}