{
  "abi": [
    {
      "inputs": [
        {
          "internalType": "string",
          "name": "name",
          "type": "string"
        },
        {
          "internalType": "string",
          "name": "symbol",
          "type": "string"
        },
        {
          "internalType": "string",
          "name": "version",
          "type": "string"
        }
      ],
      "stateMutability": "nonpayable",
      "type": "constructor"
    },
    {
      "anonymous": false,
      "inputs": [
        {
          "indexed": true,
          "internalType": "address",
          "name": "to",
          "type": "address"
        },
        {
          "indexed": false,
          "internalType": "string",
          "name": "specUri",
          "type": "string"
        },
        {
          "indexed": false,
          "internalType": "uint256",
          "name": "tokenId",
          "type": "uint256"
        }
      ],
      "name": "BadgeMinted",
      "type": "event"
    },
    {
      "anonymous": false,
      "inputs": [
        {
          "indexed": true,
          "internalType": "address",
          "name": "previousOwner",
          "type": "address"
        },
        {
          "indexed": true,
          "internalType": "address",
          "name": "newOwner",
          "type": "address"
        }
      ],
      "name": "OwnershipTransferred",
      "type": "event"
    },
    {
      "anonymous": false,
      "inputs": [
        {
          "indexed": true,
          "internalType": "address",
          "name": "to",
          "type": "address"
        },
        {
          "indexed": false,
          "internalType": "string",
          "name": "specUri",
          "type": "string"
        },
        {
          "indexed": true,
          "internalType": "uint256",
          "name": "raftTokenId",
          "type": "uint256"
        },
        {
          "indexed": true,
          "internalType": "address",
          "name": "raftAddress",
          "type": "address"
        }
      ],
      "name": "SpecCreated",
      "type": "event"
    },
    {
      "anonymous": false,
      "inputs": [
        {
          "indexed": true,
          "internalType": "address",
          "name": "from",
          "type": "address"
        },
        {
          "indexed": true,
          "internalType": "address",
          "name": "to",
          "type": "address"
        },
        {
          "indexed": true,
          "internalType": "uint256",
          "name": "tokenId",
          "type": "uint256"
        }
      ],
      "name": "Transfer",
      "type": "event"
    },
    {
      "inputs": [
        {
          "internalType": "address",
          "name": "owner",
          "type": "address"
        }
      ],
      "name": "balanceOf",
      "outputs": [
        {
          "internalType": "uint256",
          "name": "",
          "type": "uint256"
        }
      ],
      "stateMutability": "view",
      "type": "function"
    },
    {
      "inputs": [
        {
          "internalType": "string",
          "name": "specUri",
          "type": "string"
        },
        {
          "internalType": "uint256",
          "name": "raftTokenId",
          "type": "uint256"
        }
      ],
      "name": "createSpecAsRaftOwner",
      "outputs": [],
      "stateMutability": "nonpayable",
      "type": "function"
    },
    {
      "inputs": [
        {
          "internalType": "address",
          "name": "from",
          "type": "address"
        },
        {
          "internalType": "address",
          "name": "to",
          "type": "address"
        },
        {
          "internalType": "string",
          "name": "tokenURI",
          "type": "string"
        }
      ],
      "name": "getHash",
      "outputs": [
        {
          "internalType": "bytes32",
          "name": "",
          "type": "bytes32"
        }
      ],
      "stateMutability": "view",
      "type": "function"
    },
    {
      "inputs": [],
      "name": "getRaftAddress",
      "outputs": [
        {
          "internalType": "address",
          "name": "",
          "type": "address"
        }
      ],
      "stateMutability": "view",
      "type": "function"
    },
    {
      "inputs": [
        {
          "internalType": "string",
          "name": "specUri",
          "type": "string"
        }
      ],
      "name": "getRaftTokenIdOf",
      "outputs": [
        {
          "internalType": "uint256",
          "name": "",
          "type": "uint256"
        }
      ],
      "stateMutability": "view",
      "type": "function"
    },
    {
      "inputs": [
        {
          "internalType": "address",
          "name": "to",
          "type": "address"
        },
        {
          "internalType": "string",
          "name": "uri",
          "type": "string"
        },
        {
          "internalType": "bytes",
          "name": "signature",
          "type": "bytes"
        }
      ],
      "name": "give",
      "outputs": [
        {
          "internalType": "uint256",
          "name": "",
          "type": "uint256"
        }
      ],
      "stateMutability": "nonpayable",
      "type": "function"
    },
    {
      "inputs": [],
      "name": "initialOwner",
      "outputs": [
        {
          "internalType": "address",
          "name": "",
          "type": "address"
        }
      ],
      "stateMutability": "view",
      "type": "function"
    },
    {
      "inputs": [],
      "name": "name",
      "outputs": [
        {
          "internalType": "string",
          "name": "",
          "type": "string"
        }
      ],
      "stateMutability": "view",
      "type": "function"
    },
    {
      "inputs": [],
      "name": "owner",
      "outputs": [
        {
          "internalType": "address",
          "name": "",
          "type": "address"
        }
      ],
      "stateMutability": "view",
      "type": "function"
    },
    {
      "inputs": [
        {
          "internalType": "uint256",
          "name": "tokenId",
          "type": "uint256"
        }
      ],
      "name": "ownerOf",
      "outputs": [
        {
          "internalType": "address",
          "name": "",
          "type": "address"
        }
      ],
      "stateMutability": "view",
      "type": "function"
    },
    {
      "inputs": [],
      "name": "raft",
      "outputs": [
        {
          "internalType": "contract RaftInterface",
          "name": "",
          "type": "address"
        }
      ],
      "stateMutability": "view",
      "type": "function"
    },
    {
      "inputs": [],
      "name": "renounceOwnership",
      "outputs": [],
      "stateMutability": "nonpayable",
      "type": "function"
    },
    {
      "inputs": [
        {
          "internalType": "address",
          "name": "_dataHolder",
          "type": "address"
        }
      ],
      "name": "setDataHolder",
      "outputs": [],
      "stateMutability": "nonpayable",
      "type": "function"
    },
    {
      "inputs": [
        {
          "internalType": "address",
          "name": "_raftAddress",
          "type": "address"
        }
      ],
      "name": "setRaft",
      "outputs": [],
      "stateMutability": "nonpayable",
      "type": "function"
    },
    {
      "inputs": [
        {
          "internalType": "address",
          "name": "_newRaftAddress",
          "type": "address"
        }
      ],
      "name": "setRaftAddress",
      "outputs": [],
      "stateMutability": "nonpayable",
      "type": "function"
    },
    {
      "inputs": [
        {
          "internalType": "bytes4",
          "name": "interfaceId",
          "type": "bytes4"
        }
      ],
      "name": "supportsInterface",
      "outputs": [
        {
          "internalType": "bool",
          "name": "",
          "type": "bool"
        }
      ],
      "stateMutability": "view",
      "type": "function"
    },
    {
      "inputs": [],
      "name": "symbol",
      "outputs": [
        {
          "internalType": "string",
          "name": "",
          "type": "string"
        }
      ],
      "stateMutability": "view",
      "type": "function"
    },
    {
      "inputs": [
        {
          "internalType": "address",
          "name": "from",
          "type": "address"
        },
        {
          "internalType": "string",
          "name": "uri",
          "type": "string"
        },
        {
          "internalType": "bytes",
          "name": "signature",
          "type": "bytes"
        }
      ],
      "name": "take",
      "outputs": [
        {
          "internalType": "uint256",
          "name": "",
          "type": "uint256"
        }
      ],
      "stateMutability": "nonpayable",
      "type": "function"
    },
    {
      "inputs": [
        {
          "internalType": "uint256",
          "name": "tokenId",
          "type": "uint256"
        }
      ],
      "name": "tokenURI",
      "outputs": [
        {
          "internalType": "string",
          "name": "",
          "type": "string"
        }
      ],
      "stateMutability": "view",
      "type": "function"
    },
    {
      "inputs": [
        {
          "internalType": "address",
          "name": "newOwner",
          "type": "address"
        }
      ],
      "name": "transferOwnership",
      "outputs": [],
      "stateMutability": "nonpayable",
      "type": "function"
    },
    {
      "inputs": [
        {
          "internalType": "uint256",
          "name": "tokenId",
          "type": "uint256"
        }
      ],
      "name": "unequip",
      "outputs": [],
      "stateMutability": "nonpayable",
      "type": "function"
    }
  ],
  "bytecode": {
    "object": "0x6101406040523480156200001257600080fd5b50604051620021a3380380620021a3833981016040819052620000359162000240565b825160208085019190912082518383012060e08290526101008190524660a0818152604080517f8b73c3c69bb8fe3d512ecc4cf759cc79239f7b179b0ffacaa9a75d522b39400f818801819052818301969096526060810194909452608080850193909352308483018190528151808603909301835260c094850190915281519190950120905291909152610120528282826001620000d5848262000360565b506002620000e4838262000360565b5050505062000102620000fc6200011d60201b60201c565b62000121565b5050600980546001600160a01b03191633179055506200042c565b3390565b600780546001600160a01b038381166001600160a01b0319831681179093556040519116919082907f8be0079c531659141344cd1fd0a4f28419497f9722a3daafe3b4186f6b6457e090600090a35050565b634e487b7160e01b600052604160045260246000fd5b600082601f8301126200019b57600080fd5b81516001600160401b0380821115620001b857620001b862000173565b604051601f8301601f19908116603f01168101908282118183101715620001e357620001e362000173565b816040528381526020925086838588010111156200020057600080fd5b600091505b8382101562000224578582018301518183018401529082019062000205565b83821115620002365760008385830101525b9695505050505050565b6000806000606084860312156200025657600080fd5b83516001600160401b03808211156200026e57600080fd5b6200027c8783880162000189565b945060208601519150808211156200029357600080fd5b620002a18783880162000189565b93506040860151915080821115620002b857600080fd5b50620002c78682870162000189565b9150509250925092565b600181811c90821680620002e657607f821691505b6020821081036200030757634e487b7160e01b600052602260045260246000fd5b50919050565b601f8211156200035b57600081815260208120601f850160051c81016020861015620003365750805b601f850160051c820191505b81811015620003575782815560010162000342565b5050505b505050565b81516001600160401b038111156200037c576200037c62000173565b62000394816200038d8454620002d1565b846200030d565b602080601f831160018114620003cc5760008415620003b35750858301515b600019600386901b1c1916600185901b17855562000357565b600085815260208120601f198616915b82811015620003fd57888601518255948401946001909101908401620003dc565b50858210156200041c5787850151600019600388901b60f8161c191681555b5050505050600190811b01905550565b60805160a05160c05160e0516101005161012051611d276200047c600039600061154a0152600061159901526000611574015260006114cd015260006114f7015260006115210152611d276000f3fe608060405234801561001057600080fd5b50600436106101375760003560e01c8063715018a6116100b8578063c5cf33c21161007c578063c5cf33c214610292578063c87b56dd146102a5578063d179e3d0146102b8578063d5be4eb0146102cb578063ec64948e146102de578063f2fde38b146102f157600080fd5b8063715018a61461024b5780638da5cb5b1461025357806395d89b4114610264578063a39478031461026c578063c01841121461027f57600080fd5b80634249d86e116100ff5780634249d86e146101bf57806344ee0605146101d457806353b52a6e146102045780636352211e1461022557806370a082311461023857600080fd5b806301ffc9a71461013c57806306fdde0314610164578063117d8ae01461017957806329ba7bb2146101a457806334f87662146101b7575b600080fd5b61014f61014a36600461175b565b610304565b60405190151581526020015b60405180910390f35b61016c610356565b60405161015b91906117e1565b600a5461018c906001600160a01b031681565b6040516001600160a01b03909116815260200161015b565b60095461018c906001600160a01b031681565b61018c6103e8565b6101d26101cd366004611897565b61045b565b005b6101d26101e23660046118f1565b600a80546001600160a01b0319166001600160a01b0392909216919091179055565b61021761021236600461190e565b610734565b60405190815260200161015b565b61018c61023336600461194b565b6107a6565b6102176102463660046118f1565b61080b565b6101d2610894565b6007546001600160a01b031661018c565b61016c6108a8565b61021761027a3660046119a6565b6108b7565b6101d261028d3660046118f1565b61098f565b6102176102a0366004611a29565b6109c8565b61016c6102b336600461194b565b6109df565b6101d26102c636600461194b565b610ae4565b6101d26102d93660046118f1565b610b79565b6102176102ec3660046119a6565b610bfa565b6101d26102ff3660046118f1565b610ca7565b60006001600160e01b03198216635b5e139f60e01b148061033557506001600160e01b031982166346bdd63960e11b145b8061035057506301ffc9a760e01b6001600160e01b03198316145b92915050565b60606001805461036590611a8e565b80601f016020809104026020016040519081016040528092919081815260200182805461039190611a8e565b80156103de5780601f106103b3576101008083540402835291602001916103de565b820191906000526020600020905b8154815290600101906020018083116103c157829003601f168201915b5050505050905090565b60085460408051631a7c3b3160e11b815290516000926001600160a01b0316916334f876629160048083019260209291908290030181865afa158015610432573d6000803e3d6000fd5b505050506040513d601f19601f820116820180604052508101906104569190611ac8565b905090565b600a546040516331a9108f60e11b8152600481018390526000916001600160a01b031690636352211e90602401602060405180830381865afa1580156104a5573d6000803e3d6000fd5b505050506040513d601f19601f820116820180604052508101906104c99190611ac8565b90506001600160a01b03811633146105345760405162461bcd60e51b815260206004820152602360248201527f637265617465537065634173526166744f776e65723a20756e617574686f72696044820152621e995960ea1b60648201526084015b60405180910390fd5b600854604051631722f77360e31b81526001600160a01b039091169063b917bb98906105649086906004016117e1565b602060405180830381865afa158015610581573d6000803e3d6000fd5b505050506040513d601f19601f820116820180604052508101906105a59190611ae5565b156106095760405162461bcd60e51b815260206004820152602e60248201527f637265617465537065634173526166744f776e65723a207370656320616c726560448201526d18591e481c9959da5cdd195c995960921b606482015260840161052b565b60085460405163addd190760e01b81526001600160a01b039091169063addd19079061063b9086908690600401611b07565b600060405180830381600087803b15801561065557600080fd5b505af1158015610669573d6000803e3d6000fd5b50505050600860009054906101000a90046001600160a01b03166001600160a01b03166334f876626040518163ffffffff1660e01b8152600401602060405180830381865afa1580156106c0573d6000803e3d6000fd5b505050506040513d601f19601f820116820180604052508101906106e49190611ac8565b6001600160a01b031682336001600160a01b03167f68c7f8503283c455a4445b54a7d5c40656c8cae5cca0583c6d4be836984787008660405161072791906117e1565b60405180910390a4505050565b600854604051633664a8e960e01b81526000916001600160a01b031690633664a8e9906107659085906004016117e1565b602060405180830381865afa158015610782573d6000803e3d6000fd5b505050506040513d601f19601f820116820180604052508101906103509190611b29565b6000818152600360205260408120546001600160a01b0316806103505760405162461bcd60e51b815260206004820152601c60248201527f6f776e65724f663a20746f6b656e20646f65736e277420657869737400000000604482015260640161052b565b60006001600160a01b0382166108785760405162461bcd60e51b815260206004820152602c60248201527f62616c616e63654f663a2061646472657373207a65726f206973206e6f74206160448201526b103b30b634b21037bbb732b960a11b606482015260840161052b565b506001600160a01b031660009081526005602052604090205490565b61089c610d1d565b6108a66000610d77565b565b60606002805461036590611a8e565b60006001600160a01b03861633036109115760405162461bcd60e51b815260206004820152601b60248201527f74616b653a2063616e6e6f742074616b652066726f6d2073656c660000000000604482015260640161052b565b6000610921338888888888610dc9565b9050610964338288888080601f016020809104026020016040519081016040528093929190818152602001838380828437600092019190915250610efd92505050565b50600881901c60009081526020819052604090208054600160ff84161b1790555b9695505050505050565b6009546001600160a01b031633146109a657600080fd5b600880546001600160a01b0319166001600160a01b0392909216919091179055565b60006109d685858585611085565b95945050505050565b6000818152600360205260409020546060906001600160a01b0316610a465760405162461bcd60e51b815260206004820152601d60248201527f746f6b656e5552493a20746f6b656e20646f65736e2774206578697374000000604482015260640161052b565b60008281526004602052604090208054610a5f90611a8e565b80601f0160208091040260200160405190810160405280929190818152602001828054610a8b90611a8e565b8015610ad85780601f10610aad57610100808354040283529160200191610ad8565b820191906000526020600020905b815481529060010190602001808311610abb57829003601f168201915b50505050509050919050565b610aed816107a6565b6001600160a01b0316336001600160a01b031614610b4d5760405162461bcd60e51b815260206004820152601d60248201527f756e65717569703a2073656e646572206d757374206265206f776e6572000000604482015260640161052b565b600881901c60009081526020819052604090208054600160ff84161b19169055610b7681611114565b50565b610b81610d1d565b6009546001600160a01b03163314610b9857600080fd5b600854604051630d5be4eb60e41b81526001600160a01b0383811660048301529091169063d5be4eb090602401600060405180830381600087803b158015610bdf57600080fd5b505af1158015610bf3573d6000803e3d6000fd5b5050505050565b60006001600160a01b0386163303610c545760405162461bcd60e51b815260206004820152601b60248201527f676976653a2063616e6e6f7420676976652066726f6d2073656c660000000000604482015260640161052b565b6000610c64338888888888610dc9565b9050610964878288888080601f016020809104026020016040519081016040528093929190818152602001838380828437600092019190915250610efd92505050565b610caf610d1d565b6001600160a01b038116610d145760405162461bcd60e51b815260206004820152602660248201527f4f776e61626c653a206e6577206f776e657220697320746865207a65726f206160448201526564647265737360d01b606482015260840161052b565b610b7681610d77565b6007546001600160a01b031633146108a65760405162461bcd60e51b815260206004820181905260248201527f4f776e61626c653a2063616c6c6572206973206e6f7420746865206f776e6572604482015260640161052b565b600780546001600160a01b038381166001600160a01b0319831681179093556040519116919082907f8be0079c531659141344cd1fd0a4f28419497f9722a3daafe3b4186f6b6457e090600090a35050565b600080610dd888888888611085565b905060008160001c9050610e23888387878080601f0160208091040260200160405190810160405280939291908181526020018383808284376000920191909152506111bd92505050565b610e7e5760405162461bcd60e51b815260206004820152602660248201527f5f73616665436865636b41677265656d656e743a20696e76616c6964207369676044820152656e617475726560d01b606482015260840161052b565b600881901c600090815260208190526040902054600160ff83161b1615610ef15760405162461bcd60e51b815260206004820152602160248201527f5f73616665436865636b41677265656d656e743a20616c7265616479207573656044820152601960fa1b606482015260840161052b565b98975050505050505050565b600854604051633664a8e960e01b815260009182916001600160a01b0390911690633664a8e990610f329086906004016117e1565b602060405180830381865afa158015610f4f573d6000803e3d6000fd5b505050506040513d601f19601f82011682018060405250810190610f739190611b29565b905080600003610fc55760405162461bcd60e51b815260206004820152601d60248201527f5f6d696e743a2073706563206973206e6f742072656769737465726564000000604482015260640161052b565b610fd08585856112fe565b5060085460405163fb74926160e01b815260048101869052602481018390526001600160a01b039091169063fb74926190604401600060405180830381600087803b15801561101e57600080fd5b505af1158015611032573d6000803e3d6000fd5b50505050336001600160a01b03167f8df8e47e98cb2a6b68ac30879a3419321c1311b9de81b66649a5d61e477bf6cf8486604051611071929190611b07565b60405180910390a2839150505b9392505050565b6000807fe76a195fbe43f0eaa611595069f780493db2202a1cc4b2d7d44b47069812998a868686866040516110bb929190611b42565b6040519081900381206110f3949392916020019384526001600160a01b03928316602085015291166040830152606082015260800190565b60405160208183030381529060405280519060200120905061098581611404565b600061111f826107a6565b6001600160a01b0381166000908152600560205260408120805492935060019290919061114d908490611b68565b9091555050600082815260036020908152604080832080546001600160a01b0319169055600490915281206111819161170d565b60405182906000906001600160a01b038416907fddf252ad1be2c89b69c2b068fc378daa952ba7f163c4a11628f55a4df523b3ef908390a45050565b60008060006111cc8585611452565b909250905060008160048111156111e5576111e5611b7f565b1480156112035750856001600160a01b0316826001600160a01b0316145b156112135760019250505061107e565b600080876001600160a01b0316631626ba7e60e01b888860405160240161123b929190611b95565b60408051601f198184030181529181526020820180516001600160e01b03166001600160e01b03199094169390931790925290516112799190611bae565b600060405180830381855afa9150503d80600081146112b4576040519150601f19603f3d011682016040523d82523d6000602084013e6112b9565b606091505b50915091508180156112cc575080516020145b8015610ef157508051630b135d3f60e11b906112f19083016020908101908401611b29565b1498975050505050505050565b6000828152600360205260408120546001600160a01b03161561135a5760405162461bcd60e51b81526020600482015260146024820152736d696e743a20746f6b656e49442065786973747360601b604482015260640161052b565b6001600160a01b0384166000908152600560205260408120805460019290611383908490611bca565b9091555050600083815260036020908152604080832080546001600160a01b0319166001600160a01b038916179055600490915290206113c38382611c31565b5060405183906001600160a01b038616906000907fddf252ad1be2c89b69c2b068fc378daa952ba7f163c4a11628f55a4df523b3ef908290a4509092915050565b60006103506114116114c0565b8360405161190160f01b6020820152602281018390526042810182905260009060620160405160208183030381529060405280519060200120905092915050565b60008082516041036114885760208301516040840151606085015160001a61147c878285856115e7565b945094505050506114b9565b82516040036114b157602083015160408401516114a68683836116d4565b9350935050506114b9565b506000905060025b9250929050565b6000306001600160a01b037f00000000000000000000000000000000000000000000000000000000000000001614801561151957507f000000000000000000000000000000000000000000000000000000000000000046145b1561154357507f000000000000000000000000000000000000000000000000000000000000000090565b50604080517f00000000000000000000000000000000000000000000000000000000000000006020808301919091527f0000000000000000000000000000000000000000000000000000000000000000828401527f000000000000000000000000000000000000000000000000000000000000000060608301524660808301523060a0808401919091528351808403909101815260c0909201909252805191012090565b6000807f7fffffffffffffffffffffffffffffff5d576e7357a4501ddfe92f46681b20a083111561161e57506000905060036116cb565b8460ff16601b1415801561163657508460ff16601c14155b1561164757506000905060046116cb565b6040805160008082526020820180845289905260ff881692820192909252606081018690526080810185905260019060a0016020604051602081039080840390855afa15801561169b573d6000803e3d6000fd5b5050604051601f1901519150506001600160a01b0381166116c4576000600192509250506116cb565b9150600090505b94509492505050565b6000806001600160ff1b038316816116f160ff86901c601b611bca565b90506116ff878288856115e7565b935093505050935093915050565b50805461171990611a8e565b6000825580601f10611729575050565b601f016020900490600052602060002090810190610b7691905b808211156117575760008155600101611743565b5090565b60006020828403121561176d57600080fd5b81356001600160e01b03198116811461107e57600080fd5b60005b838110156117a0578181015183820152602001611788565b838111156117af576000848401525b50505050565b600081518084526117cd816020860160208601611785565b601f01601f19169290920160200192915050565b60208152600061107e60208301846117b5565b634e487b7160e01b600052604160045260246000fd5b600082601f83011261181b57600080fd5b813567ffffffffffffffff80821115611836576118366117f4565b604051601f8301601f19908116603f0116810190828211818310171561185e5761185e6117f4565b8160405283815286602085880101111561187757600080fd5b836020870160208301376000602085830101528094505050505092915050565b600080604083850312156118aa57600080fd5b823567ffffffffffffffff8111156118c157600080fd5b6118cd8582860161180a565b95602094909401359450505050565b6001600160a01b0381168114610b7657600080fd5b60006020828403121561190357600080fd5b813561107e816118dc565b60006020828403121561192057600080fd5b813567ffffffffffffffff81111561193757600080fd5b6119438482850161180a565b949350505050565b60006020828403121561195d57600080fd5b5035919050565b60008083601f84011261197657600080fd5b50813567ffffffffffffffff81111561198e57600080fd5b6020830191508360208285010111156114b957600080fd5b6000806000806000606086880312156119be57600080fd5b85356119c9816118dc565b9450602086013567ffffffffffffffff808211156119e657600080fd5b6119f289838a01611964565b90965094506040880135915080821115611a0b57600080fd5b50611a1888828901611964565b969995985093965092949392505050565b60008060008060608587031215611a3f57600080fd5b8435611a4a816118dc565b93506020850135611a5a816118dc565b9250604085013567ffffffffffffffff811115611a7657600080fd5b611a8287828801611964565b95989497509550505050565b600181811c90821680611aa257607f821691505b602082108103611ac257634e487b7160e01b600052602260045260246000fd5b50919050565b600060208284031215611ada57600080fd5b815161107e816118dc565b600060208284031215611af757600080fd5b8151801515811461107e57600080fd5b604081526000611b1a60408301856117b5565b90508260208301529392505050565b600060208284031215611b3b57600080fd5b5051919050565b8183823760009101908152919050565b634e487b7160e01b600052601160045260246000fd5b600082821015611b7a57611b7a611b52565b500390565b634e487b7160e01b600052602160045260246000fd5b82815260406020820152600061194360408301846117b5565b60008251611bc0818460208701611785565b9190910192915050565b60008219821115611bdd57611bdd611b52565b500190565b601f821115611c2c57600081815260208120601f850160051c81016020861015611c095750805b601f850160051c820191505b81811015611c2857828155600101611c15565b5050505b505050565b815167ffffffffffffffff811115611c4b57611c4b6117f4565b611c5f81611c598454611a8e565b84611be2565b602080601f831160018114611c945760008415611c7c5750858301515b600019600386901b1c1916600185901b178555611c28565b600085815260208120601f198616915b82811015611cc357888601518255948401946001909101908401611ca4565b5085821015611ce15787850151600019600388901b60f8161c191681555b5050505050600190811b0190555056fea264697066735822122028da815e9517e4b7c480424d5e1bf905f4c941ae07e8512090e3436440a6649064736f6c634300080f0033",
    "linkReferences": {}
  },
  "methodIdentifiers": {
    "balanceOf(address)": "70a08231",
    "createSpecAsRaftOwner(string,uint256)": "4249d86e",
    "getHash(address,address,string)": "c5cf33c2",
    "getRaftAddress()": "34f87662",
    "getRaftTokenIdOf(string)": "53b52a6e",
    "give(address,string,bytes)": "ec64948e",
    "initialOwner()": "29ba7bb2",
    "name()": "06fdde03",
    "owner()": "8da5cb5b",
    "ownerOf(uint256)": "6352211e",
    "raft()": "117d8ae0",
    "renounceOwnership()": "715018a6",
    "setDataHolder(address)": "c0184112",
    "setRaft(address)": "44ee0605",
    "setRaftAddress(address)": "d5be4eb0",
    "supportsInterface(bytes4)": "01ffc9a7",
    "symbol()": "95d89b41",
    "take(address,string,bytes)": "a3947803",
    "tokenURI(uint256)": "c87b56dd",
    "transferOwnership(address)": "f2fde38b",
    "unequip(uint256)": "d179e3d0"
  },
  "id": 24
}