{
  "abi": [
    {
      "inputs": [
        {
          "internalType": "string",
          "name": "name",
          "type": "string"
        },
        {
          "internalType": "string",
          "name": "symbol",
          "type": "string"
        },
        {
          "internalType": "string",
          "name": "version",
          "type": "string"
        }
      ],
      "stateMutability": "nonpayable",
      "type": "constructor"
    },
    {
      "anonymous": false,
      "inputs": [
        {
          "indexed": true,
          "internalType": "address",
          "name": "to",
          "type": "address"
        },
        {
          "indexed": true,
          "internalType": "uint256",
          "name": "tokenId",
          "type": "uint256"
        }
      ],
      "name": "Attest",
      "type": "event"
    },
    {
      "anonymous": false,
      "inputs": [
        {
          "indexed": true,
          "internalType": "address",
          "name": "to",
          "type": "address"
        },
        {
          "indexed": true,
          "internalType": "uint256",
          "name": "tokenId",
          "type": "uint256"
        }
      ],
      "name": "Revoke",
      "type": "event"
    },
    {
      "inputs": [
        {
          "internalType": "address",
          "name": "owner",
          "type": "address"
        }
      ],
      "name": "balanceOf",
      "outputs": [
        {
          "internalType": "uint256",
          "name": "",
          "type": "uint256"
        }
      ],
      "stateMutability": "view",
      "type": "function"
    },
    {
      "inputs": [
        {
          "internalType": "uint256",
          "name": "tokenId",
          "type": "uint256"
        }
      ],
      "name": "burn",
      "outputs": [],
      "stateMutability": "nonpayable",
      "type": "function"
    },
    {
      "inputs": [
        {
          "internalType": "address",
          "name": "from",
          "type": "address"
        },
        {
          "internalType": "address",
          "name": "to",
          "type": "address"
        },
        {
          "internalType": "string",
          "name": "tokenURI",
          "type": "string"
        }
      ],
      "name": "getHash",
      "outputs": [
        {
          "internalType": "bytes32",
          "name": "",
          "type": "bytes32"
        }
      ],
      "stateMutability": "view",
      "type": "function"
    },
    {
      "inputs": [
        {
          "internalType": "address",
          "name": "from",
          "type": "address"
        },
        {
          "internalType": "string",
          "name": "uri",
          "type": "string"
        },
        {
          "internalType": "bytes",
          "name": "signature",
          "type": "bytes"
        }
      ],
      "name": "mintWithPermission",
      "outputs": [
        {
          "internalType": "uint256",
          "name": "",
          "type": "uint256"
        }
      ],
      "stateMutability": "nonpayable",
      "type": "function"
    },
    {
      "inputs": [],
      "name": "name",
      "outputs": [
        {
          "internalType": "string",
          "name": "",
          "type": "string"
        }
      ],
      "stateMutability": "view",
      "type": "function"
    },
    {
      "inputs": [
        {
          "internalType": "uint256",
          "name": "tokenId",
          "type": "uint256"
        }
      ],
      "name": "ownerOf",
      "outputs": [
        {
          "internalType": "address",
          "name": "",
          "type": "address"
        }
      ],
      "stateMutability": "view",
      "type": "function"
    },
    {
      "inputs": [
        {
          "internalType": "bytes4",
          "name": "interfaceId",
          "type": "bytes4"
        }
      ],
      "name": "supportsInterface",
      "outputs": [
        {
          "internalType": "bool",
          "name": "",
          "type": "bool"
        }
      ],
      "stateMutability": "view",
      "type": "function"
    },
    {
      "inputs": [],
      "name": "symbol",
      "outputs": [
        {
          "internalType": "string",
          "name": "",
          "type": "string"
        }
      ],
      "stateMutability": "view",
      "type": "function"
    },
    {
      "inputs": [
        {
          "internalType": "uint256",
          "name": "tokenId",
          "type": "uint256"
        }
      ],
      "name": "tokenURI",
      "outputs": [
        {
          "internalType": "string",
          "name": "",
          "type": "string"
        }
      ],
      "stateMutability": "view",
      "type": "function"
    }
  ],
  "bytecode": {
    "object": "0x6101406040523480156200001257600080fd5b5060405162001618380380620016188339810160408190526200003591620001c7565b8282828281818460006200004a8382620002e7565b506001620000598282620002e7565b5050825160208085019190912083518483012060e08290526101008190524660a0818152604080517f8b73c3c69bb8fe3d512ecc4cf759cc79239f7b179b0ffacaa9a75d522b39400f81880181905281830187905260608201869052608082019490945230818401528151808203909301835260c0019052805194019390932091935091906080523060c0526101205250620003b398505050505050505050565b634e487b7160e01b600052604160045260246000fd5b600082601f8301126200012257600080fd5b81516001600160401b03808211156200013f576200013f620000fa565b604051601f8301601f19908116603f011681019082821181831017156200016a576200016a620000fa565b816040528381526020925086838588010111156200018757600080fd5b600091505b83821015620001ab57858201830151818301840152908201906200018c565b83821115620001bd5760008385830101525b9695505050505050565b600080600060608486031215620001dd57600080fd5b83516001600160401b0380821115620001f557600080fd5b620002038783880162000110565b945060208601519150808211156200021a57600080fd5b620002288783880162000110565b935060408601519150808211156200023f57600080fd5b506200024e8682870162000110565b9150509250925092565b600181811c908216806200026d57607f821691505b6020821081036200028e57634e487b7160e01b600052602260045260246000fd5b50919050565b601f821115620002e257600081815260208120601f850160051c81016020861015620002bd5750805b601f850160051c820191505b81811015620002de57828155600101620002c9565b5050505b505050565b81516001600160401b03811115620003035762000303620000fa565b6200031b8162000314845462000258565b8462000294565b602080601f8311600181146200035357600084156200033a5750858301515b600019600386901b1c1916600185901b178555620002de565b600085815260208120601f198616915b82811015620003845788860151825594840194600190910190840162000363565b5085821015620003a35787850151600019600388901b60f8161c191681555b5050505050600190811b01905550565b60805160a05160c05160e0516101005161012051611215620004036000396000610b9401526000610be301526000610bbe01526000610b1701526000610b4101526000610b6b01526112156000f3fe608060405234801561001057600080fd5b50600436106100935760003560e01c806370a082311161006657806370a08231146101155780638fac1c1c1461013657806395d89b4114610149578063c5cf33c214610151578063c87b56dd1461016457600080fd5b806301ffc9a71461009857806306fdde03146100c057806342966c68146100d55780636352211e146100ea575b600080fd5b6100ab6100a6366004610dbb565b610177565b60405190151581526020015b60405180910390f35b6100c86101a2565b6040516100b79190610e34565b6100e86100e3366004610e47565b610234565b005b6100fd6100f8366004610e47565b6102ae565b6040516001600160a01b0390911681526020016100b7565b610128610123366004610e7c565b610313565b6040519081526020016100b7565b610128610144366004610ed9565b61039c565b6100c8610541565b61012861015f366004610f5a565b610550565b6100c8610172366004610e47565b610567565b60006001600160e01b031982166323eb070760e21b148061019c575061019c8261066c565b92915050565b6060600080546101b190610fbb565b80601f01602080910402602001604051908101604052809291908181526020018280546101dd90610fbb565b801561022a5780601f106101ff5761010080835404028352916020019161022a565b820191906000526020600020905b81548152906001019060200180831161020d57829003601f168201915b5050505050905090565b61023d816102ae565b6001600160a01b0316336001600160a01b0316146102a25760405162461bcd60e51b815260206004820152601a60248201527f6275726e3a2073656e646572206d757374206265206f776e657200000000000060448201526064015b60405180910390fd5b6102ab816106bc565b50565b6000818152600260205260408120546001600160a01b03168061019c5760405162461bcd60e51b815260206004820152601c60248201527f6f776e65724f663a20746f6b656e20646f65736e2774206578697374000000006044820152606401610299565b60006001600160a01b0382166103805760405162461bcd60e51b815260206004820152602c60248201527f62616c616e63654f663a2061646472657373207a65726f206973206e6f74206160448201526b103b30b634b21037bbb732b960a11b6064820152608401610299565b506001600160a01b031660009081526004602052604090205490565b6000806103ab87338888610763565b905060008160001c90506103f6888387878080601f0160208091040260200160405190810160405280939291908181526020018383808284376000920191909152506107fc92505050565b6104505760405162461bcd60e51b815260206004820152602560248201527f6d696e74576974685065726d697373696f6e3a20696e76616c6964207369676e604482015264617475726560d81b6064820152608401610299565b600881901c600090815260066020526040902054600160ff83161b16156104b95760405162461bcd60e51b815260206004820181905260248201527f6d696e74576974685065726d697373696f6e3a20616c726561647920757365646044820152606401610299565b60006104c460055490565b905061050733828a8a8080601f01602080910402602001604051908101604052809392919081815260200183838082843760009201919091525061094a92505050565b50610516600580546001019055565b600882901c60009081526006602052604090208054600160ff85161b17905598975050505050505050565b6060600180546101b190610fbb565b600061055e85858585610763565b95945050505050565b6000818152600260205260409020546060906001600160a01b03166105ce5760405162461bcd60e51b815260206004820152601d60248201527f746f6b656e5552493a20746f6b656e20646f65736e27742065786973740000006044820152606401610299565b600082815260036020526040902080546105e790610fbb565b80601f016020809104026020016040519081016040528092919081815260200182805461061390610fbb565b80156106605780601f1061063557610100808354040283529160200191610660565b820191906000526020600020905b81548152906001019060200180831161064357829003601f168201915b50505050509050919050565b60006001600160e01b03198216635b5e139f60e01b148061069d57506001600160e01b03198216635164cf4760e01b145b8061019c57506301ffc9a760e01b6001600160e01b031983161461019c565b60006106c7826102ae565b6001600160a01b038116600090815260046020526040812080549293506001929091906106f590849061100b565b9091555050600082815260026020908152604080832080546001600160a01b03191690556003909152812061072991610d57565b60405182906001600160a01b038316907fec9ab91322523c899ede7830ec9bfc992b5981cdcc27b91162fb23de5791117b90600090a35050565b6000807fd8eb14f4ea0b23f6cb3c182d47430e98ed3da686abfd02df5efd1e126b7840e686868686604051610799929190611022565b6040519081900381206107d1949392916020019384526001600160a01b03928316602085015291166040830152606082015260800190565b6040516020818303038152906040528051906020012090506107f281610a4e565b9695505050505050565b600080600061080b8585610a9c565b9092509050600081600481111561082457610824611032565b1480156108425750856001600160a01b0316826001600160a01b0316145b1561085257600192505050610943565b600080876001600160a01b0316631626ba7e60e01b888860405160240161087a929190611048565b60408051601f198184030181529181526020820180516001600160e01b03166001600160e01b03199094169390931790925290516108b89190611069565b600060405180830381855afa9150503d80600081146108f3576040519150601f19603f3d011682016040523d82523d6000602084013e6108f8565b606091505b509150915081801561090b575080516020145b801561093c57508051630b135d3f60e11b906109309083016020908101908401611085565b6001600160e01b031916145b9450505050505b9392505050565b6000828152600260205260408120546001600160a01b0316156109a65760405162461bcd60e51b81526020600482015260146024820152736d696e743a20746f6b656e49442065786973747360601b6044820152606401610299565b6001600160a01b03841660009081526004602052604081208054600192906109cf9084906110a2565b9091555050600083815260026020908152604080832080546001600160a01b0319166001600160a01b03891617905560039091529020610a0f838261111f565b5060405183906001600160a01b038616907fe9274a84b19e9428826de6bae8c48329354f8f0e73f771b97cae2d9dccd45a2790600090a3509092915050565b600061019c610a5b610b0a565b8360405161190160f01b6020820152602281018390526042810182905260009060620160405160208183030381529060405280519060200120905092915050565b6000808251604103610ad25760208301516040840151606085015160001a610ac687828585610c31565b94509450505050610b03565b8251604003610afb5760208301516040840151610af0868383610d1e565b935093505050610b03565b506000905060025b9250929050565b6000306001600160a01b037f000000000000000000000000000000000000000000000000000000000000000016148015610b6357507f000000000000000000000000000000000000000000000000000000000000000046145b15610b8d57507f000000000000000000000000000000000000000000000000000000000000000090565b50604080517f00000000000000000000000000000000000000000000000000000000000000006020808301919091527f0000000000000000000000000000000000000000000000000000000000000000828401527f000000000000000000000000000000000000000000000000000000000000000060608301524660808301523060a0808401919091528351808403909101815260c0909201909252805191012090565b6000807f7fffffffffffffffffffffffffffffff5d576e7357a4501ddfe92f46681b20a0831115610c685750600090506003610d15565b8460ff16601b14158015610c8057508460ff16601c14155b15610c915750600090506004610d15565b6040805160008082526020820180845289905260ff881692820192909252606081018690526080810185905260019060a0016020604051602081039080840390855afa158015610ce5573d6000803e3d6000fd5b5050604051601f1901519150506001600160a01b038116610d0e57600060019250925050610d15565b9150600090505b94509492505050565b6000806001600160ff1b03831681610d3b60ff86901c601b6110a2565b9050610d4987828885610c31565b935093505050935093915050565b508054610d6390610fbb565b6000825580601f10610d73575050565b601f0160209004906000526020600020908101906102ab91905b80821115610da15760008155600101610d8d565b5090565b6001600160e01b0319811681146102ab57600080fd5b600060208284031215610dcd57600080fd5b813561094381610da5565b60005b83811015610df3578181015183820152602001610ddb565b83811115610e02576000848401525b50505050565b60008151808452610e20816020860160208601610dd8565b601f01601f19169290920160200192915050565b6020815260006109436020830184610e08565b600060208284031215610e5957600080fd5b5035919050565b80356001600160a01b0381168114610e7757600080fd5b919050565b600060208284031215610e8e57600080fd5b61094382610e60565b60008083601f840112610ea957600080fd5b50813567ffffffffffffffff811115610ec157600080fd5b602083019150836020828501011115610b0357600080fd5b600080600080600060608688031215610ef157600080fd5b610efa86610e60565b9450602086013567ffffffffffffffff80821115610f1757600080fd5b610f2389838a01610e97565b90965094506040880135915080821115610f3c57600080fd5b50610f4988828901610e97565b969995985093965092949392505050565b60008060008060608587031215610f7057600080fd5b610f7985610e60565b9350610f8760208601610e60565b9250604085013567ffffffffffffffff811115610fa357600080fd5b610faf87828801610e97565b95989497509550505050565b600181811c90821680610fcf57607f821691505b602082108103610fef57634e487b7160e01b600052602260045260246000fd5b50919050565b634e487b7160e01b600052601160045260246000fd5b60008282101561101d5761101d610ff5565b500390565b8183823760009101908152919050565b634e487b7160e01b600052602160045260246000fd5b8281526040602082015260006110616040830184610e08565b949350505050565b6000825161107b818460208701610dd8565b9190910192915050565b60006020828403121561109757600080fd5b815161094381610da5565b600082198211156110b5576110b5610ff5565b500190565b634e487b7160e01b600052604160045260246000fd5b601f82111561111a57600081815260208120601f850160051c810160208610156110f75750805b601f850160051c820191505b8181101561111657828155600101611103565b5050505b505050565b815167ffffffffffffffff811115611139576111396110ba565b61114d816111478454610fbb565b846110d0565b602080601f831160018114611182576000841561116a5750858301515b600019600386901b1c1916600185901b178555611116565b600085815260208120601f198616915b828110156111b157888601518255948401946001909101908401611192565b50858210156111cf5787850151600019600388901b60f8161c191681555b5050505050600190811b0190555056fea2646970667358221220c037628e7845a0c66b409202446b0f8b8ab516d79bf9b1313f36c3242d1ad86864736f6c634300080f0033",
    "linkReferences": {}
  },
  "methodIdentifiers": {
    "balanceOf(address)": "70a08231",
    "burn(uint256)": "42966c68",
    "getHash(address,address,string)": "c5cf33c2",
    "mintWithPermission(address,string,bytes)": "8fac1c1c",
    "name()": "06fdde03",
    "ownerOf(uint256)": "6352211e",
    "supportsInterface(bytes4)": "01ffc9a7",
    "symbol()": "95d89b41",
    "tokenURI(uint256)": "c87b56dd"
  },
  "id": 20
}