{
  "abi": [
    {
      "inputs": [],
      "stateMutability": "nonpayable",
      "type": "constructor"
    },
    {
      "anonymous": false,
      "inputs": [
        {
          "indexed": false,
          "internalType": "address",
          "name": "previousAdmin",
          "type": "address"
        },
        {
          "indexed": false,
          "internalType": "address",
          "name": "newAdmin",
          "type": "address"
        }
      ],
      "name": "AdminChanged",
      "type": "event"
    },
    {
      "anonymous": false,
      "inputs": [
        {
          "indexed": true,
          "internalType": "uint256",
          "name": "tokenId",
          "type": "uint256"
        },
        {
          "indexed": true,
          "internalType": "address",
          "name": "reinstatedFrom",
          "type": "address"
        }
      ],
      "name": "BadgeReinstated",
      "type": "event"
    },
    {
      "anonymous": false,
      "inputs": [
        {
          "indexed": true,
          "internalType": "uint256",
          "name": "tokenId",
          "type": "uint256"
        },
        {
          "indexed": true,
          "internalType": "address",
          "name": "revokedFrom",
          "type": "address"
        }
      ],
      "name": "BadgeRevoked",
      "type": "event"
    },
    {
      "anonymous": false,
      "inputs": [
        {
          "indexed": true,
          "internalType": "address",
          "name": "beacon",
          "type": "address"
        }
      ],
      "name": "BeaconUpgraded",
      "type": "event"
    },
    {
      "anonymous": false,
      "inputs": [
        {
          "indexed": false,
          "internalType": "uint8",
          "name": "version",
          "type": "uint8"
        }
      ],
      "name": "Initialized",
      "type": "event"
    },
    {
      "anonymous": false,
      "inputs": [
        {
          "indexed": true,
          "internalType": "address",
          "name": "previousOwner",
          "type": "address"
        },
        {
          "indexed": true,
          "internalType": "address",
          "name": "newOwner",
          "type": "address"
        }
      ],
      "name": "OwnershipTransferred",
      "type": "event"
    },
    {
      "anonymous": false,
      "inputs": [
        {
          "indexed": true,
          "internalType": "address",
          "name": "to",
          "type": "address"
        },
        {
          "indexed": false,
          "internalType": "string",
          "name": "specUri",
          "type": "string"
        },
        {
          "indexed": true,
          "internalType": "uint256",
          "name": "raftTokenId",
          "type": "uint256"
        },
        {
          "indexed": true,
          "internalType": "address",
          "name": "raftAddress",
          "type": "address"
        }
      ],
      "name": "SpecCreated",
      "type": "event"
    },
    {
      "anonymous": false,
      "inputs": [
        {
          "indexed": true,
          "internalType": "address",
          "name": "from",
          "type": "address"
        },
        {
          "indexed": true,
          "internalType": "address",
          "name": "to",
          "type": "address"
        },
        {
          "indexed": true,
          "internalType": "uint256",
          "name": "tokenId",
          "type": "uint256"
        }
      ],
      "name": "Transfer",
      "type": "event"
    },
    {
      "anonymous": false,
      "inputs": [
        {
          "indexed": true,
          "internalType": "address",
          "name": "implementation",
          "type": "address"
        }
      ],
      "name": "Upgraded",
      "type": "event"
    },
    {
      "inputs": [
        {
          "internalType": "address",
          "name": "_owner",
          "type": "address"
        }
      ],
      "name": "balanceOf",
      "outputs": [
        {
          "internalType": "uint256",
          "name": "",
          "type": "uint256"
        }
      ],
      "stateMutability": "view",
      "type": "function"
    },
    {
      "inputs": [
        {
          "internalType": "string",
          "name": "_specUri",
          "type": "string"
        },
        {
          "internalType": "uint256",
          "name": "_raftTokenId",
          "type": "uint256"
        }
      ],
      "name": "createSpec",
      "outputs": [],
      "stateMutability": "nonpayable",
      "type": "function"
    },
    {
      "inputs": [
        {
          "internalType": "address",
          "name": "_from",
          "type": "address"
        },
        {
          "internalType": "address",
          "name": "_to",
          "type": "address"
        },
        {
          "internalType": "string",
          "name": "_uri",
          "type": "string"
        }
      ],
      "name": "getAgreementHash",
      "outputs": [
        {
          "internalType": "bytes32",
          "name": "",
          "type": "bytes32"
        }
      ],
      "stateMutability": "view",
      "type": "function"
    },
    {
      "inputs": [
        {
          "internalType": "address",
          "name": "_to",
          "type": "address"
        },
        {
          "internalType": "string",
          "name": "_uri",
          "type": "string"
        }
      ],
      "name": "getBadgeIdHash",
      "outputs": [
        {
          "internalType": "bytes32",
          "name": "",
          "type": "bytes32"
        }
      ],
      "stateMutability": "view",
      "type": "function"
    },
    {
      "inputs": [],
      "name": "getDataHolderAddress",
      "outputs": [
        {
          "internalType": "address",
          "name": "",
          "type": "address"
        }
      ],
      "stateMutability": "view",
      "type": "function"
    },
    {
      "inputs": [
        {
          "internalType": "uint256",
          "name": "_tokenId",
          "type": "uint256"
        }
      ],
      "name": "getVoucherHash",
      "outputs": [
        {
          "internalType": "uint256",
          "name": "",
          "type": "uint256"
        }
      ],
      "stateMutability": "view",
      "type": "function"
    },
    {
      "inputs": [
        {
          "internalType": "address",
          "name": "_to",
          "type": "address"
        },
        {
          "internalType": "string",
          "name": "_uri",
          "type": "string"
        },
        {
          "internalType": "bytes",
          "name": "_signature",
          "type": "bytes"
        }
      ],
      "name": "give",
      "outputs": [
        {
          "internalType": "uint256",
          "name": "",
          "type": "uint256"
        }
      ],
      "stateMutability": "nonpayable",
      "type": "function"
    },
    {
      "inputs": [
        {
          "internalType": "string",
          "name": "_name",
          "type": "string"
        },
        {
          "internalType": "string",
          "name": "_symbol",
          "type": "string"
        },
        {
          "internalType": "string",
          "name": "_version",
          "type": "string"
        },
        {
          "internalType": "address",
          "name": "_nextOwner",
          "type": "address"
        },
        {
          "internalType": "address",
          "name": "_specDataHolderAddress",
          "type": "address"
        }
      ],
      "name": "initialize",
      "outputs": [],
      "stateMutability": "nonpayable",
      "type": "function"
    },
    {
      "inputs": [
        {
          "internalType": "uint256",
          "name": "_badgeId",
          "type": "uint256"
        }
      ],
      "name": "isBadgeValid",
      "outputs": [
        {
          "internalType": "bool",
          "name": "",
          "type": "bool"
        }
      ],
      "stateMutability": "view",
      "type": "function"
    },
    {
      "inputs": [],
      "name": "name",
      "outputs": [
        {
          "internalType": "string",
          "name": "",
          "type": "string"
        }
      ],
      "stateMutability": "view",
      "type": "function"
    },
    {
      "inputs": [],
      "name": "owner",
      "outputs": [
        {
          "internalType": "address",
          "name": "",
          "type": "address"
        }
      ],
      "stateMutability": "view",
      "type": "function"
    },
    {
      "inputs": [
        {
          "internalType": "uint256",
          "name": "_tokenId",
          "type": "uint256"
        }
      ],
      "name": "ownerOf",
      "outputs": [
        {
          "internalType": "address",
          "name": "",
          "type": "address"
        }
      ],
      "stateMutability": "view",
      "type": "function"
    },
    {
      "inputs": [],
      "name": "proxiableUUID",
      "outputs": [
        {
          "internalType": "bytes32",
          "name": "",
          "type": "bytes32"
        }
      ],
      "stateMutability": "view",
      "type": "function"
    },
    {
      "inputs": [
        {
          "internalType": "uint256",
          "name": "_raftTokenId",
          "type": "uint256"
        },
        {
          "internalType": "uint256",
          "name": "_badgeId",
          "type": "uint256"
        }
      ],
      "name": "reinstateBadge",
      "outputs": [],
      "stateMutability": "nonpayable",
      "type": "function"
    },
    {
      "inputs": [],
      "name": "renounceOwnership",
      "outputs": [],
      "stateMutability": "nonpayable",
      "type": "function"
    },
    {
      "inputs": [
        {
          "internalType": "uint256",
          "name": "_raftTokenId",
          "type": "uint256"
        },
        {
          "internalType": "uint256",
          "name": "_badgeId",
          "type": "uint256"
        }
      ],
      "name": "revokeBadge",
      "outputs": [],
      "stateMutability": "nonpayable",
      "type": "function"
    },
    {
      "inputs": [
        {
          "internalType": "address",
          "name": "_dataHolder",
          "type": "address"
        }
      ],
      "name": "setDataHolder",
      "outputs": [],
      "stateMutability": "nonpayable",
      "type": "function"
    },
    {
      "inputs": [
        {
          "internalType": "bytes4",
          "name": "_interfaceId",
          "type": "bytes4"
        }
      ],
      "name": "supportsInterface",
      "outputs": [
        {
          "internalType": "bool",
          "name": "",
          "type": "bool"
        }
      ],
      "stateMutability": "view",
      "type": "function"
    },
    {
      "inputs": [],
      "name": "symbol",
      "outputs": [
        {
          "internalType": "string",
          "name": "",
          "type": "string"
        }
      ],
      "stateMutability": "view",
      "type": "function"
    },
    {
      "inputs": [
        {
          "internalType": "address",
          "name": "_from",
          "type": "address"
        },
        {
          "internalType": "string",
          "name": "_uri",
          "type": "string"
        },
        {
          "internalType": "bytes",
          "name": "_signature",
          "type": "bytes"
        }
      ],
      "name": "take",
      "outputs": [
        {
          "internalType": "uint256",
          "name": "",
          "type": "uint256"
        }
      ],
      "stateMutability": "nonpayable",
      "type": "function"
    },
    {
      "inputs": [
        {
          "internalType": "uint256",
          "name": "_tokenId",
          "type": "uint256"
        }
      ],
      "name": "tokenURI",
      "outputs": [
        {
          "internalType": "string",
          "name": "",
          "type": "string"
        }
      ],
      "stateMutability": "view",
      "type": "function"
    },
    {
      "inputs": [
        {
          "internalType": "address",
          "name": "newOwner",
          "type": "address"
        }
      ],
      "name": "transferOwnership",
      "outputs": [],
      "stateMutability": "nonpayable",
      "type": "function"
    },
    {
      "inputs": [
        {
          "internalType": "uint256",
          "name": "_tokenId",
          "type": "uint256"
        }
      ],
      "name": "unequip",
      "outputs": [],
      "stateMutability": "nonpayable",
      "type": "function"
    },
    {
      "inputs": [
        {
          "internalType": "address",
          "name": "newImplementation",
          "type": "address"
        }
      ],
      "name": "upgradeTo",
      "outputs": [],
      "stateMutability": "nonpayable",
      "type": "function"
    },
    {
      "inputs": [
        {
          "internalType": "address",
          "name": "newImplementation",
          "type": "address"
        },
        {
          "internalType": "bytes",
          "name": "data",
          "type": "bytes"
        }
      ],
      "name": "upgradeToAndCall",
      "outputs": [],
      "stateMutability": "payable",
      "type": "function"
    }
  ],
  "bytecode": {
    "object": "0x60a0604052306080523480156200001557600080fd5b506200002062000026565b620000e8565b600054610100900460ff1615620000935760405162461bcd60e51b815260206004820152602760248201527f496e697469616c697a61626c653a20636f6e747261637420697320696e697469604482015266616c697a696e6760c81b606482015260840160405180910390fd5b60005460ff9081161015620000e6576000805460ff191660ff9081179091556040519081527f7f26b83ff96e1f2b6a682f133852f6798a09c465da95921460cefb38474024989060200160405180910390a15b565b608051612b7e62000120600039600081816105fd0152818161063d015281816109b8015281816109f80152610a8b0152612b7e6000f3fe6080604052600436106101665760003560e01c8063715018a6116100d1578063c01841121161008a578063d6d0faee11610064578063d6d0faee14610427578063e499250614610447578063ec64948e14610467578063f2fde38b1461048757600080fd5b8063c0184112146103c7578063c87b56dd146103e7578063d179e3d01461040757600080fd5b8063715018a61461031f57806380956c7e146103345780638da5cb5b1461035457806395d89b4114610372578063a394780314610387578063a8cf8683146103a757600080fd5b80634f1ef286116101235780634f1ef2861461026057806352d1902d146102735780635329ae0c146102885780636352211e146102a8578063635ad993146102e057806370a08231146102ff57600080fd5b806301ffc9a71461016b57806306fdde03146101a05780630f4d9b01146101c25780633659cfe6146101e25780633b363a0914610204578063445a62b914610240575b600080fd5b34801561017757600080fd5b5061018b6101863660046122d1565b6104a7565b60405190151581526020015b60405180910390f35b3480156101ac57600080fd5b506101b56104f9565b604051610197919061234b565b3480156101ce57600080fd5b5061018b6101dd36600461235e565b61058c565b3480156101ee57600080fd5b506102026101fd36600461238c565b6105f3565b005b34801561021057600080fd5b5061023261021f36600461235e565b6000908152610136602052604090205490565b604051908152602001610197565b34801561024c57600080fd5b5061020261025b366004612455565b6106d2565b61020261026e36600461249a565b6109ae565b34801561027f57600080fd5b50610232610a7e565b34801561029457600080fd5b506102026102a33660046124fe565b610b31565b3480156102b457600080fd5b506102c86102c336600461235e565b610c9d565b6040516001600160a01b039091168152602001610197565b3480156102ec57600080fd5b50610135546001600160a01b03166102c8565b34801561030b57600080fd5b5061023261031a36600461238c565b610cf2565b34801561032b57600080fd5b50610202610d7d565b34801561034057600080fd5b5061020261034f3660046124fe565b610d91565b34801561036057600080fd5b5060c9546001600160a01b03166102c8565b34801561037e57600080fd5b506101b5610f01565b34801561039357600080fd5b506102326103a2366004612562565b610f11565b3480156103b357600080fd5b506102326103c23660046125e5565b610ffe565b3480156103d357600080fd5b506102026103e236600461238c565b611031565b3480156103f357600080fd5b506101b561040236600461235e565b61105c565b34801561041357600080fd5b5061020261042236600461235e565b611163565b34801561043357600080fd5b5061020261044236600461262b565b61123f565b34801561045357600080fd5b506102326104623660046126db565b6113b0565b34801561047357600080fd5b50610232610482366004612562565b611449565b34801561049357600080fd5b506102026104a236600461238c565b6114f7565b60006001600160e01b03198216635b5e139f60e01b14806104d857506001600160e01b031982166346bdd63960e11b145b806104f357506301ffc9a760e01b6001600160e01b03198316145b92915050565b6060610130805461050990612740565b80601f016020809104026020016040519081016040528092919081815260200182805461053590612740565b80156105825780601f1061055757610100808354040283529160200191610582565b820191906000526020600020905b81548152906001019060200180831161056557829003601f168201915b5050505050905090565b6000818152610132602052604081205482906001600160a01b03166105cc5760405162461bcd60e51b81526004016105c390612774565b60405180910390fd5b600883901c60009081526101376020526040902054600160ff85161b161591505b50919050565b6001600160a01b037f000000000000000000000000000000000000000000000000000000000000000016300361063b5760405162461bcd60e51b81526004016105c3906127a9565b7f00000000000000000000000000000000000000000000000000000000000000006001600160a01b0316610684600080516020612b02833981519152546001600160a01b031690565b6001600160a01b0316146106aa5760405162461bcd60e51b81526004016105c3906127f5565b6106b38161156d565b604080516000808252602082019092526106cf91839190611575565b50565b806040518060400160405280600a8152602001696372656174655370656360b01b8152506000816040516020016107099190612841565b60408051808303601f19018152908290526101355463b2a0cb6b60e01b83526004830186905290925033916001600160a01b039091169063b2a0cb6b90602401602060405180830381865afa158015610766573d6000803e3d6000fd5b505050506040513d601f19601f8201168201806040525081019061078a9190612873565b6001600160a01b03161481906107b35760405162461bcd60e51b81526004016105c3919061234b565b5061013554604051637e07102760e11b81526001600160a01b039091169063fc0e204e906107e590889060040161234b565b602060405180830381865afa158015610802573d6000803e3d6000fd5b505050506040513d601f19601f820116820180604052508101906108269190612890565b1561087f5760405162461bcd60e51b815260206004820152602360248201527f637265617465537065633a207370656320616c726561647920726567697374656044820152621c995960ea1b60648201526084016105c3565b6101355460405163addd190760e01b81526001600160a01b039091169063addd1907906108b290889088906004016128b2565b600060405180830381600087803b1580156108cc57600080fd5b505af11580156108e0573d6000803e3d6000fd5b5050505061013560009054906101000a90046001600160a01b03166001600160a01b03166334f876626040518163ffffffff1660e01b8152600401602060405180830381865afa158015610938573d6000803e3d6000fd5b505050506040513d601f19601f8201168201806040525081019061095c9190612873565b6001600160a01b031684336001600160a01b03167f68c7f8503283c455a4445b54a7d5c40656c8cae5cca0583c6d4be836984787008860405161099f919061234b565b60405180910390a45050505050565b6001600160a01b037f00000000000000000000000000000000000000000000000000000000000000001630036109f65760405162461bcd60e51b81526004016105c3906127a9565b7f00000000000000000000000000000000000000000000000000000000000000006001600160a01b0316610a3f600080516020612b02833981519152546001600160a01b031690565b6001600160a01b031614610a655760405162461bcd60e51b81526004016105c3906127f5565b610a6e8261156d565b610a7a82826001611575565b5050565b6000306001600160a01b037f00000000000000000000000000000000000000000000000000000000000000001614610b1e5760405162461bcd60e51b815260206004820152603860248201527f555550535570677261646561626c653a206d757374206e6f742062652063616c60448201527f6c6564207468726f7567682064656c656761746563616c6c000000000000000060648201526084016105c3565b50600080516020612b0283398151915290565b6000818152610132602052604090205481906001600160a01b0316610b685760405162461bcd60e51b81526004016105c390612774565b826040518060400160405280600b81526020016a7265766f6b65426164676560a81b815250600081604051602001610ba09190612841565b60408051808303601f19018152908290526101355463b2a0cb6b60e01b83526004830186905290925033916001600160a01b039091169063b2a0cb6b90602401602060405180830381865afa158015610bfd573d6000803e3d6000fd5b505050506040513d601f19601f82011682018060405250810190610c219190612873565b6001600160a01b0316148190610c4a5760405162461bcd60e51b81526004016105c3919061234b565b50600885901c600090815261013760205260408082208054600160ff8a161b17905551339187917f2605d5a2826281eb606461488eeee86e07056e06385b80d685c9d2dabe73d1dd9190a3505050505050565b6000818152610132602052604081205482906001600160a01b0316610cd45760405162461bcd60e51b81526004016105c390612774565b5050600090815261013260205260409020546001600160a01b031690565b60006001600160a01b038216610d605760405162461bcd60e51b815260206004820152602d60248201527f62616c616e63654f663a2061646472657373207a65726f206973206e6f74206160448201526c2076616c6964206f776e65725f60981b60648201526084016105c3565b506001600160a01b03166000908152610134602052604090205490565b610d856116e0565b610d8f600061173a565b565b6000818152610132602052604090205481906001600160a01b0316610dc85760405162461bcd60e51b81526004016105c390612774565b826040518060400160405280600e81526020016d7265696e7374617465426164676560901b815250600081604051602001610e039190612841565b60408051808303601f19018152908290526101355463b2a0cb6b60e01b83526004830186905290925033916001600160a01b039091169063b2a0cb6b90602401602060405180830381865afa158015610e60573d6000803e3d6000fd5b505050506040513d601f19601f82011682018060405250810190610e849190612873565b6001600160a01b0316148190610ead5760405162461bcd60e51b81526004016105c3919061234b565b50600885901c600090815261013760205260408082208054600160ff8a161b1916905551339187917f7f8cf9ecf2a5225948f8a1601709cedc8471c52ee75a8174c9845c29c99ed9a29190a3505050505050565b6060610131805461050990612740565b60006001600160a01b0386163303610f6b5760405162461bcd60e51b815260206004820152601b60248201527f74616b653a2063616e6e6f742074616b652066726f6d2073656c66000000000060448201526064016105c3565b6000610f7b33888888888861178c565b90506000610fbf3388888080601f0160208091040260200160405190810160405280939291908181526020018383808284376000920191909152506118b692505050565b600883901c600090815261012f602052604090208054600160ff86161b1790559050600081815261013660205260409020919091559695505050505050565b600082826040516020016110139291906128d4565b60405160208183030381529060405280519060200120905092915050565b6110396116e0565b61013580546001600160a01b0319166001600160a01b0392909216919091179055565b600081815261013260205260409020546060906001600160a01b03166110c45760405162461bcd60e51b815260206004820152601d60248201527f746f6b656e5552493a20746f6b656e20646f65736e277420657869737400000060448201526064016105c3565b60008281526101336020526040902080546110de90612740565b80601f016020809104026020016040519081016040528092919081815260200182805461110a90612740565b80156111575780601f1061112c57610100808354040283529160200191611157565b820191906000526020600020905b81548152906001019060200180831161113a57829003601f168201915b50505050509050919050565b6000818152610132602052604090205481906001600160a01b031661119a5760405162461bcd60e51b81526004016105c390612774565b600082815261013260205260409020546001600160a01b031633146112015760405162461bcd60e51b815260206004820152601d60248201527f756e65717569703a2073656e646572206d757374206265206f776e657200000060448201526064016105c3565b60008281526101366020908152604080832054600881901c845261012f9092529091208054600160ff84161b1916905561123a83611b01565b505050565b600054610100900460ff161580801561125f5750600054600160ff909116105b806112795750303b158015611279575060005460ff166001145b6112dc5760405162461bcd60e51b815260206004820152602e60248201527f496e697469616c697a61626c653a20636f6e747261637420697320616c72656160448201526d191e481a5b9a5d1a585b1a5e995960921b60648201526084016105c3565b6000805460ff1916600117905580156112ff576000805461ff0019166101001790555b61013061130c8782612946565b5061013161131a8682612946565b5061013580546001600160a01b0319166001600160a01b03841617905561133f611bbb565b611347611be2565b6113518685611c11565b611359611bbb565b611362836114f7565b80156113a8576000805461ff0019169055604051600181527f7f26b83ff96e1f2b6a682f133852f6798a09c465da95921460cefb38474024989060200160405180910390a15b505050505050565b6000807fe76a195fbe43f0eaa611595069f780493db2202a1cc4b2d7d44b47069812998a868686866040516113e6929190612a06565b60405190819003812061141e949392916020019384526001600160a01b03928316602085015291166040830152606082015260800190565b60405160208183030381529060405280519060200120905061143f81611c42565b9695505050505050565b60006001600160a01b03861633036114a35760405162461bcd60e51b815260206004820152601b60248201527f676976653a2063616e6e6f7420676976652066726f6d2073656c66000000000060448201526064016105c3565b60006114b333888888888861178c565b90506000610fbf8888888080601f0160208091040260200160405190810160405280939291908181526020018383808284376000920191909152506118b692505050565b6114ff6116e0565b6001600160a01b0381166115645760405162461bcd60e51b815260206004820152602660248201527f4f776e61626c653a206e6577206f776e657220697320746865207a65726f206160448201526564647265737360d01b60648201526084016105c3565b6106cf8161173a565b6106cf6116e0565b7f4910fdfa16fed3260ed0e7147f7cc6da11a60208b5b9406d12a635614ffd91435460ff16156115a85761123a83611c55565b826001600160a01b03166352d1902d6040518163ffffffff1660e01b8152600401602060405180830381865afa925050508015611602575060408051601f3d908101601f191682019092526115ff91810190612a16565b60015b6116655760405162461bcd60e51b815260206004820152602e60248201527f45524331393637557067726164653a206e657720696d706c656d656e7461746960448201526d6f6e206973206e6f74205555505360901b60648201526084016105c3565b600080516020612b0283398151915281146116d45760405162461bcd60e51b815260206004820152602960248201527f45524331393637557067726164653a20756e737570706f727465642070726f786044820152681a58589b195555525160ba1b60648201526084016105c3565b5061123a838383611cf1565b60c9546001600160a01b03163314610d8f5760405162461bcd60e51b815260206004820181905260248201527f4f776e61626c653a2063616c6c6572206973206e6f7420746865206f776e657260448201526064016105c3565b60c980546001600160a01b038381166001600160a01b0319831681179093556040519116919082907f8be0079c531659141344cd1fd0a4f28419497f9722a3daafe3b4186f6b6457e090600090a35050565b60008061179b888888886113b0565b905060008160001c90506117e6888387878080601f016020809104026020016040519081016040528093929190818152602001838380828437600092019190915250611d1c92505050565b6118405760405162461bcd60e51b815260206004820152602560248201527f73616665436865636b41677265656d656e743a20696e76616c6964207369676e604482015264617475726560d81b60648201526084016105c3565b600881901c600090815261012f6020526040902054600160ff83161b16156118aa5760405162461bcd60e51b815260206004820181905260248201527f73616665436865636b41677265656d656e743a20616c7265616479207573656460448201526064016105c3565b98975050505050505050565b61013554604051633664a8e960e01b815260009182916001600160a01b0390911690633664a8e9906118ec90869060040161234b565b602060405180830381865afa158015611909573d6000803e3d6000fd5b505050506040513d601f19601f8201168201806040525081019061192d9190612a16565b9050600061193b8585610ffe565b905080600083900361198f5760405162461bcd60e51b815260206004820152601c60248201527f6d696e743a2073706563206973206e6f7420726567697374657265640000000060448201526064016105c3565b600081815261013260205260409020546001600160a01b0316156119ec5760405162461bcd60e51b81526020600482015260146024820152736d696e743a20746f6b656e49442065786973747360601b60448201526064016105c3565b6001600160a01b038616600090815261013460205260408120805460019290611a16908490612a45565b909155505060008181526101326020908152604080832080546001600160a01b0319166001600160a01b038b161790556101339091529020611a588682612946565b5060405181906001600160a01b038816906000907fddf252ad1be2c89b69c2b068fc378daa952ba7f163c4a11628f55a4df523b3ef908290a46101355460405163fb74926160e01b815260048101839052602481018590526001600160a01b039091169063fb74926190604401600060405180830381600087803b158015611adf57600080fd5b505af1158015611af3573d6000803e3d6000fd5b509298975050505050505050565b600081815261013260209081526040808320546001600160a01b0316808452610134909252822080549192600192611b3a908490612a58565b909155505060008281526101326020908152604080832080546001600160a01b03191690556101339091528120611b7091612283565b60008281526101366020526040808220829055518391906001600160a01b038416907fddf252ad1be2c89b69c2b068fc378daa952ba7f163c4a11628f55a4df523b3ef908390a45050565b600054610100900460ff16610d8f5760405162461bcd60e51b81526004016105c390612a6b565b600054610100900460ff16611c095760405162461bcd60e51b81526004016105c390612a6b565b610d8f611e60565b600054610100900460ff16611c385760405162461bcd60e51b81526004016105c390612a6b565b610a7a8282611e90565b60006104f3611c4f611ed1565b83611f51565b6001600160a01b0381163b611cc25760405162461bcd60e51b815260206004820152602d60248201527f455243313936373a206e657720696d706c656d656e746174696f6e206973206e60448201526c1bdd08184818dbdb9d1c9858dd609a1b60648201526084016105c3565b600080516020612b0283398151915280546001600160a01b0319166001600160a01b0392909216919091179055565b611cfa83611f78565b600082511180611d075750805b1561123a57611d168383611fb8565b50505050565b6000806000611d2b85856120ac565b90925090506000816004811115611d4457611d44612ab6565b148015611d625750856001600160a01b0316826001600160a01b0316145b15611d7257600192505050611e59565b600080876001600160a01b0316631626ba7e60e01b8888604051602401611d9a929190612acc565b60408051601f198184030181529181526020820180516001600160e01b03166001600160e01b0319909416939093179092529051611dd89190612ae5565b600060405180830381855afa9150503d8060008114611e13576040519150601f19603f3d011682016040523d82523d6000602084013e611e18565b606091505b5091509150818015611e2b575080516020145b8015611e5257508051630b135d3f60e11b90611e509083016020908101908401612a16565b145b9450505050505b9392505050565b600054610100900460ff16611e875760405162461bcd60e51b81526004016105c390612a6b565b610d8f3361173a565b600054610100900460ff16611eb75760405162461bcd60e51b81526004016105c390612a6b565b81516020928301208151919092012060fb9190915560fc55565b6000611f4c7f8b73c3c69bb8fe3d512ecc4cf759cc79239f7b179b0ffacaa9a75d522b39400f611f0060fb5490565b60fc546040805160208101859052908101839052606081018290524660808201523060a082015260009060c0016040516020818303038152906040528051906020012090509392505050565b905090565b60405161190160f01b60208201526022810183905260428101829052600090606201611013565b611f8181611c55565b6040516001600160a01b038216907fbc7cd75a20ee27fd9adebab32041f755214dbc6bffa90cc0225b39da2e5c2d3b90600090a250565b60606001600160a01b0383163b6120205760405162461bcd60e51b815260206004820152602660248201527f416464726573733a2064656c65676174652063616c6c20746f206e6f6e2d636f6044820152651b9d1c9858dd60d21b60648201526084016105c3565b600080846001600160a01b03168460405161203b9190612ae5565b600060405180830381855af49150503d8060008114612076576040519150601f19603f3d011682016040523d82523d6000602084013e61207b565b606091505b50915091506120a38282604051806060016040528060278152602001612b226027913961211a565b95945050505050565b60008082516041036120e25760208301516040840151606085015160001a6120d687828585612133565b94509450505050612113565b825160400361210b5760208301516040840151612100868383612220565b935093505050612113565b506000905060025b9250929050565b60608315612129575081611e59565b611e598383612259565b6000807f7fffffffffffffffffffffffffffffff5d576e7357a4501ddfe92f46681b20a083111561216a5750600090506003612217565b8460ff16601b1415801561218257508460ff16601c14155b156121935750600090506004612217565b6040805160008082526020820180845289905260ff881692820192909252606081018690526080810185905260019060a0016020604051602081039080840390855afa1580156121e7573d6000803e3d6000fd5b5050604051601f1901519150506001600160a01b03811661221057600060019250925050612217565b9150600090505b94509492505050565b6000806001600160ff1b0383168161223d60ff86901c601b612a45565b905061224b87828885612133565b935093505050935093915050565b8151156122695781518083602001fd5b8060405162461bcd60e51b81526004016105c3919061234b565b50805461228f90612740565b6000825580601f1061229f575050565b601f0160209004906000526020600020908101906106cf91905b808211156122cd57600081556001016122b9565b5090565b6000602082840312156122e357600080fd5b81356001600160e01b031981168114611e5957600080fd5b60005b838110156123165781810151838201526020016122fe565b50506000910152565b600081518084526123378160208601602086016122fb565b601f01601f19169290920160200192915050565b602081526000611e59602083018461231f565b60006020828403121561237057600080fd5b5035919050565b6001600160a01b03811681146106cf57600080fd5b60006020828403121561239e57600080fd5b8135611e5981612377565b634e487b7160e01b600052604160045260246000fd5b600067ffffffffffffffff808411156123da576123da6123a9565b604051601f8501601f19908116603f01168101908282118183101715612402576124026123a9565b8160405280935085815286868601111561241b57600080fd5b858560208301376000602087830101525050509392505050565b600082601f83011261244657600080fd5b611e59838335602085016123bf565b6000806040838503121561246857600080fd5b823567ffffffffffffffff81111561247f57600080fd5b61248b85828601612435565b95602094909401359450505050565b600080604083850312156124ad57600080fd5b82356124b881612377565b9150602083013567ffffffffffffffff8111156124d457600080fd5b8301601f810185136124e557600080fd5b6124f4858235602084016123bf565b9150509250929050565b6000806040838503121561251157600080fd5b50508035926020909101359150565b60008083601f84011261253257600080fd5b50813567ffffffffffffffff81111561254a57600080fd5b60208301915083602082850101111561211357600080fd5b60008060008060006060868803121561257a57600080fd5b853561258581612377565b9450602086013567ffffffffffffffff808211156125a257600080fd5b6125ae89838a01612520565b909650945060408801359150808211156125c757600080fd5b506125d488828901612520565b969995985093965092949392505050565b600080604083850312156125f857600080fd5b823561260381612377565b9150602083013567ffffffffffffffff81111561261f57600080fd5b6124f485828601612435565b600080600080600060a0868803121561264357600080fd5b853567ffffffffffffffff8082111561265b57600080fd5b61266789838a01612435565b9650602088013591508082111561267d57600080fd5b61268989838a01612435565b9550604088013591508082111561269f57600080fd5b506126ac88828901612435565b93505060608601356126bd81612377565b915060808601356126cd81612377565b809150509295509295909350565b600080600080606085870312156126f157600080fd5b84356126fc81612377565b9350602085013561270c81612377565b9250604085013567ffffffffffffffff81111561272857600080fd5b61273487828801612520565b95989497509550505050565b600181811c9082168061275457607f821691505b6020821081036105ed57634e487b7160e01b600052602260045260246000fd5b6020808252818101527f746f6b656e4578697374733a20746f6b656e20646f65736e2774206578697374604082015260600190565b6020808252602c908201527f46756e6374696f6e206d7573742062652063616c6c6564207468726f7567682060408201526b19195b1959d85d1958d85b1b60a21b606082015260800190565b6020808252602c908201527f46756e6374696f6e206d7573742062652063616c6c6564207468726f7567682060408201526b6163746976652070726f787960a01b606082015260800190565b600082516128538184602087016122fb565b6d0e881d5b985d5d1a1bdc9a5e995960921b920191825250600e01919050565b60006020828403121561288557600080fd5b8151611e5981612377565b6000602082840312156128a257600080fd5b81518015158114611e5957600080fd5b6040815260006128c5604083018561231f565b90508260208301529392505050565b6001600160a01b03831681526040602082018190526000906128f89083018461231f565b949350505050565b601f82111561123a57600081815260208120601f850160051c810160208610156129275750805b601f850160051c820191505b818110156113a857828155600101612933565b815167ffffffffffffffff811115612960576129606123a9565b6129748161296e8454612740565b84612900565b602080601f8311600181146129a957600084156129915750858301515b600019600386901b1c1916600185901b1785556113a8565b600085815260208120601f198616915b828110156129d8578886015182559484019460019091019084016129b9565b50858210156129f65787850151600019600388901b60f8161c191681555b5050505050600190811b01905550565b8183823760009101908152919050565b600060208284031215612a2857600080fd5b5051919050565b634e487b7160e01b600052601160045260246000fd5b808201808211156104f3576104f3612a2f565b818103818111156104f3576104f3612a2f565b6020808252602b908201527f496e697469616c697a61626c653a20636f6e7472616374206973206e6f74206960408201526a6e697469616c697a696e6760a81b606082015260800190565b634e487b7160e01b600052602160045260246000fd5b8281526040602082015260006128f8604083018461231f565b60008251612af78184602087016122fb565b919091019291505056fe360894a13ba1a3210667c828492db98dca3e2076cc3735a920a3ca505d382bbc416464726573733a206c6f772d6c6576656c2064656c65676174652063616c6c206661696c6564a26469706673582212208cc78bbf6aae9de5a1de3fee3cba53c043c71f2893f0851016f934953996b23864736f6c63430008100033",
    "linkReferences": {}
  },
  "methodIdentifiers": {
    "balanceOf(address)": "70a08231",
    "createSpec(string,uint256)": "445a62b9",
    "getAgreementHash(address,address,string)": "e4992506",
    "getBadgeIdHash(address,string)": "a8cf8683",
    "getDataHolderAddress()": "635ad993",
    "getVoucherHash(uint256)": "3b363a09",
    "give(address,string,bytes)": "ec64948e",
    "initialize(string,string,string,address,address)": "d6d0faee",
    "isBadgeValid(uint256)": "0f4d9b01",
    "name()": "06fdde03",
    "owner()": "8da5cb5b",
    "ownerOf(uint256)": "6352211e",
    "proxiableUUID()": "52d1902d",
    "reinstateBadge(uint256,uint256)": "80956c7e",
    "renounceOwnership()": "715018a6",
    "revokeBadge(uint256,uint256)": "5329ae0c",
    "setDataHolder(address)": "c0184112",
    "supportsInterface(bytes4)": "01ffc9a7",
    "symbol()": "95d89b41",
    "take(address,string,bytes)": "a3947803",
    "tokenURI(uint256)": "c87b56dd",
    "transferOwnership(address)": "f2fde38b",
    "unequip(uint256)": "d179e3d0",
    "upgradeTo(address)": "3659cfe6",
    "upgradeToAndCall(address,bytes)": "4f1ef286"
  },
  "id": 43
}