{
  "abi": [
    {
      "inputs": [],
      "stateMutability": "nonpayable",
      "type": "constructor"
    },
    {
      "anonymous": false,
      "inputs": [
        {
          "indexed": false,
          "internalType": "address",
          "name": "previousAdmin",
          "type": "address"
        },
        {
          "indexed": false,
          "internalType": "address",
          "name": "newAdmin",
          "type": "address"
        }
      ],
      "name": "AdminChanged",
      "type": "event"
    },
    {
      "anonymous": false,
      "inputs": [
        {
          "indexed": true,
          "internalType": "address",
          "name": "owner",
          "type": "address"
        },
        {
          "indexed": true,
          "internalType": "address",
          "name": "approved",
          "type": "address"
        },
        {
          "indexed": true,
          "internalType": "uint256",
          "name": "tokenId",
          "type": "uint256"
        }
      ],
      "name": "Approval",
      "type": "event"
    },
    {
      "anonymous": false,
      "inputs": [
        {
          "indexed": true,
          "internalType": "address",
          "name": "owner",
          "type": "address"
        },
        {
          "indexed": true,
          "internalType": "address",
          "name": "operator",
          "type": "address"
        },
        {
          "indexed": false,
          "internalType": "bool",
          "name": "approved",
          "type": "bool"
        }
      ],
      "name": "ApprovalForAll",
      "type": "event"
    },
    {
      "anonymous": false,
      "inputs": [
        {
          "indexed": true,
          "internalType": "address",
          "name": "beacon",
          "type": "address"
        }
      ],
      "name": "BeaconUpgraded",
      "type": "event"
    },
    {
      "anonymous": false,
      "inputs": [
        {
          "indexed": false,
          "internalType": "uint8",
          "name": "version",
          "type": "uint8"
        }
      ],
      "name": "Initialized",
      "type": "event"
    },
    {
      "anonymous": false,
      "inputs": [
        {
          "indexed": true,
          "internalType": "address",
          "name": "previousOwner",
          "type": "address"
        },
        {
          "indexed": true,
          "internalType": "address",
          "name": "newOwner",
          "type": "address"
        }
      ],
      "name": "OwnershipTransferred",
      "type": "event"
    },
    {
      "anonymous": false,
      "inputs": [
        {
          "indexed": true,
          "internalType": "address",
          "name": "to",
          "type": "address"
        },
        {
          "indexed": false,
          "internalType": "string",
          "name": "specUri",
          "type": "string"
        },
        {
          "indexed": true,
          "internalType": "uint256",
          "name": "raftTokenId",
          "type": "uint256"
        },
        {
          "indexed": true,
          "internalType": "address",
          "name": "raftAddress",
          "type": "address"
        }
      ],
      "name": "SpecCreated",
      "type": "event"
    },
    {
      "anonymous": false,
      "inputs": [
        {
          "indexed": true,
          "internalType": "address",
          "name": "from",
          "type": "address"
        },
        {
          "indexed": true,
          "internalType": "address",
          "name": "to",
          "type": "address"
        },
        {
          "indexed": true,
          "internalType": "uint256",
          "name": "tokenId",
          "type": "uint256"
        }
      ],
      "name": "Transfer",
      "type": "event"
    },
    {
      "anonymous": false,
      "inputs": [
        {
          "indexed": true,
          "internalType": "address",
          "name": "implementation",
          "type": "address"
        }
      ],
      "name": "Upgraded",
      "type": "event"
    },
    {
      "inputs": [
        {
          "internalType": "address",
          "name": "to",
          "type": "address"
        },
        {
          "internalType": "uint256",
          "name": "tokenId",
          "type": "uint256"
        }
      ],
      "name": "approve",
      "outputs": [],
      "stateMutability": "nonpayable",
      "type": "function"
    },
    {
      "inputs": [
        {
          "internalType": "address",
          "name": "_owner",
          "type": "address"
        }
      ],
      "name": "balanceOf",
      "outputs": [
        {
          "internalType": "uint256",
          "name": "",
          "type": "uint256"
        }
      ],
      "stateMutability": "view",
      "type": "function"
    },
    {
      "inputs": [
        {
          "internalType": "string",
          "name": "_specUri",
          "type": "string"
        },
        {
          "internalType": "uint256",
          "name": "_raftTokenId",
          "type": "uint256"
        }
      ],
      "name": "createSpec",
      "outputs": [],
      "stateMutability": "nonpayable",
      "type": "function"
    },
    {
      "inputs": [
        {
          "internalType": "uint256",
          "name": "tokenId",
          "type": "uint256"
        }
      ],
      "name": "getApproved",
      "outputs": [
        {
          "internalType": "address",
          "name": "",
          "type": "address"
        }
      ],
      "stateMutability": "view",
      "type": "function"
    },
    {
      "inputs": [],
      "name": "getDataHolderAddress",
      "outputs": [
        {
          "internalType": "address",
          "name": "",
          "type": "address"
        }
      ],
      "stateMutability": "view",
      "type": "function"
    },
    {
      "inputs": [
        {
          "internalType": "address",
          "name": "_from",
          "type": "address"
        },
        {
          "internalType": "address",
          "name": "_to",
          "type": "address"
        },
        {
          "internalType": "string",
          "name": "_uri",
          "type": "string"
        }
      ],
      "name": "getHash",
      "outputs": [
        {
          "internalType": "bytes32",
          "name": "",
          "type": "bytes32"
        }
      ],
      "stateMutability": "view",
      "type": "function"
    },
    {
      "inputs": [
        {
          "internalType": "address",
          "name": "_to",
          "type": "address"
        },
        {
          "internalType": "string",
          "name": "_uri",
          "type": "string"
        },
        {
          "internalType": "bytes",
          "name": "_signature",
          "type": "bytes"
        }
      ],
      "name": "give",
      "outputs": [
        {
          "internalType": "uint256",
          "name": "",
          "type": "uint256"
        }
      ],
      "stateMutability": "nonpayable",
      "type": "function"
    },
    {
      "inputs": [
        {
          "internalType": "string",
          "name": "_name",
          "type": "string"
        },
        {
          "internalType": "string",
          "name": "_symbol",
          "type": "string"
        },
        {
          "internalType": "string",
          "name": "_version",
          "type": "string"
        },
        {
          "internalType": "address",
          "name": "_nextOwner",
          "type": "address"
        },
        {
          "internalType": "address",
          "name": "_specDataHolderAddress",
          "type": "address"
        }
      ],
      "name": "initialize",
      "outputs": [],
      "stateMutability": "nonpayable",
      "type": "function"
    },
    {
      "inputs": [
        {
          "internalType": "address",
          "name": "owner",
          "type": "address"
        },
        {
          "internalType": "address",
          "name": "operator",
          "type": "address"
        }
      ],
      "name": "isApprovedForAll",
      "outputs": [
        {
          "internalType": "bool",
          "name": "",
          "type": "bool"
        }
      ],
      "stateMutability": "view",
      "type": "function"
    },
    {
      "inputs": [],
      "name": "name",
      "outputs": [
        {
          "internalType": "string",
          "name": "",
          "type": "string"
        }
      ],
      "stateMutability": "view",
      "type": "function"
    },
    {
      "inputs": [],
      "name": "owner",
      "outputs": [
        {
          "internalType": "address",
          "name": "",
          "type": "address"
        }
      ],
      "stateMutability": "view",
      "type": "function"
    },
    {
      "inputs": [
        {
          "internalType": "uint256",
          "name": "_tokenId",
          "type": "uint256"
        }
      ],
      "name": "ownerOf",
      "outputs": [
        {
          "internalType": "address",
          "name": "",
          "type": "address"
        }
      ],
      "stateMutability": "view",
      "type": "function"
    },
    {
      "inputs": [],
      "name": "proxiableUUID",
      "outputs": [
        {
          "internalType": "bytes32",
          "name": "",
          "type": "bytes32"
        }
      ],
      "stateMutability": "view",
      "type": "function"
    },
    {
      "inputs": [],
      "name": "renounceOwnership",
      "outputs": [],
      "stateMutability": "nonpayable",
      "type": "function"
    },
    {
      "inputs": [
        {
          "internalType": "address",
          "name": "from",
          "type": "address"
        },
        {
          "internalType": "address",
          "name": "to",
          "type": "address"
        },
        {
          "internalType": "uint256",
          "name": "tokenId",
          "type": "uint256"
        }
      ],
      "name": "safeTransferFrom",
      "outputs": [],
      "stateMutability": "nonpayable",
      "type": "function"
    },
    {
      "inputs": [
        {
          "internalType": "address",
          "name": "from",
          "type": "address"
        },
        {
          "internalType": "address",
          "name": "to",
          "type": "address"
        },
        {
          "internalType": "uint256",
          "name": "tokenId",
          "type": "uint256"
        },
        {
          "internalType": "bytes",
          "name": "data",
          "type": "bytes"
        }
      ],
      "name": "safeTransferFrom",
      "outputs": [],
      "stateMutability": "nonpayable",
      "type": "function"
    },
    {
      "inputs": [
        {
          "internalType": "address",
          "name": "operator",
          "type": "address"
        },
        {
          "internalType": "bool",
          "name": "approved",
          "type": "bool"
        }
      ],
      "name": "setApprovalForAll",
      "outputs": [],
      "stateMutability": "nonpayable",
      "type": "function"
    },
    {
      "inputs": [
        {
          "internalType": "address",
          "name": "_dataHolder",
          "type": "address"
        }
      ],
      "name": "setDataHolder",
      "outputs": [],
      "stateMutability": "nonpayable",
      "type": "function"
    },
    {
      "inputs": [
        {
          "internalType": "bytes4",
          "name": "_interfaceId",
          "type": "bytes4"
        }
      ],
      "name": "supportsInterface",
      "outputs": [
        {
          "internalType": "bool",
          "name": "",
          "type": "bool"
        }
      ],
      "stateMutability": "view",
      "type": "function"
    },
    {
      "inputs": [],
      "name": "symbol",
      "outputs": [
        {
          "internalType": "string",
          "name": "",
          "type": "string"
        }
      ],
      "stateMutability": "view",
      "type": "function"
    },
    {
      "inputs": [
        {
          "internalType": "address",
          "name": "_from",
          "type": "address"
        },
        {
          "internalType": "string",
          "name": "_uri",
          "type": "string"
        },
        {
          "internalType": "bytes",
          "name": "_signature",
          "type": "bytes"
        }
      ],
      "name": "take",
      "outputs": [
        {
          "internalType": "uint256",
          "name": "",
          "type": "uint256"
        }
      ],
      "stateMutability": "nonpayable",
      "type": "function"
    },
    {
      "inputs": [
        {
          "internalType": "uint256",
          "name": "index",
          "type": "uint256"
        }
      ],
      "name": "tokenByIndex",
      "outputs": [
        {
          "internalType": "uint256",
          "name": "",
          "type": "uint256"
        }
      ],
      "stateMutability": "view",
      "type": "function"
    },
    {
      "inputs": [
        {
          "internalType": "address",
          "name": "owner",
          "type": "address"
        },
        {
          "internalType": "uint256",
          "name": "index",
          "type": "uint256"
        }
      ],
      "name": "tokenOfOwnerByIndex",
      "outputs": [
        {
          "internalType": "uint256",
          "name": "",
          "type": "uint256"
        }
      ],
      "stateMutability": "view",
      "type": "function"
    },
    {
      "inputs": [
        {
          "internalType": "uint256",
          "name": "_tokenId",
          "type": "uint256"
        }
      ],
      "name": "tokenURI",
      "outputs": [
        {
          "internalType": "string",
          "name": "",
          "type": "string"
        }
      ],
      "stateMutability": "view",
      "type": "function"
    },
    {
      "inputs": [],
      "name": "totalSupply",
      "outputs": [
        {
          "internalType": "uint256",
          "name": "",
          "type": "uint256"
        }
      ],
      "stateMutability": "view",
      "type": "function"
    },
    {
      "inputs": [
        {
          "internalType": "address",
          "name": "from",
          "type": "address"
        },
        {
          "internalType": "address",
          "name": "to",
          "type": "address"
        },
        {
          "internalType": "uint256",
          "name": "tokenId",
          "type": "uint256"
        }
      ],
      "name": "transferFrom",
      "outputs": [],
      "stateMutability": "nonpayable",
      "type": "function"
    },
    {
      "inputs": [
        {
          "internalType": "address",
          "name": "newOwner",
          "type": "address"
        }
      ],
      "name": "transferOwnership",
      "outputs": [],
      "stateMutability": "nonpayable",
      "type": "function"
    },
    {
      "inputs": [
        {
          "internalType": "uint256",
          "name": "_tokenId",
          "type": "uint256"
        }
      ],
      "name": "unequip",
      "outputs": [],
      "stateMutability": "nonpayable",
      "type": "function"
    },
    {
      "inputs": [
        {
          "internalType": "address",
          "name": "newImplementation",
          "type": "address"
        }
      ],
      "name": "upgradeTo",
      "outputs": [],
      "stateMutability": "nonpayable",
      "type": "function"
    },
    {
      "inputs": [
        {
          "internalType": "address",
          "name": "newImplementation",
          "type": "address"
        },
        {
          "internalType": "bytes",
          "name": "data",
          "type": "bytes"
        }
      ],
      "name": "upgradeToAndCall",
      "outputs": [],
      "stateMutability": "payable",
      "type": "function"
    }
  ],
  "bytecode": {
    "object": "0x60a0604052306080523480156200001557600080fd5b506200002062000026565b620000e8565b600054610100900460ff1615620000935760405162461bcd60e51b815260206004820152602760248201527f496e697469616c697a61626c653a20636f6e747261637420697320696e697469604482015266616c697a696e6760c81b606482015260840160405180910390fd5b60005460ff9081161015620000e6576000805460ff191660ff9081179091556040519081527f7f26b83ff96e1f2b6a682f133852f6798a09c465da95921460cefb38474024989060200160405180910390a15b565b60805161361262000120600039600081816108a9015281816108e901528181610c5e01528181610c9e0152610dc601526136126000f3fe6080604052600436106101cd5760003560e01c806370a08231116100f7578063c018411211610095578063d6d0faee11610064578063d6d0faee14610512578063e985e9c514610532578063ec64948e1461057c578063f2fde38b1461059c57600080fd5b8063c018411214610492578063c5cf33c2146104b2578063c87b56dd146104d2578063d179e3d0146104f257600080fd5b806395d89b41116100d157806395d89b411461041d578063a22cb46514610432578063a394780314610452578063b88d4fde1461047257600080fd5b806370a08231146103ca578063715018a6146103ea5780638da5cb5b146103ff57600080fd5b80633659cfe61161016f5780634f6ccce71161013e5780634f6ccce71461035657806352d1902d146103765780636352211e1461038b578063635ad993146103ab57600080fd5b80633659cfe6146102e357806342842e0e14610303578063445a62b9146103235780634f1ef2861461034357600080fd5b8063095ea7b3116101ab578063095ea7b31461026157806318160ddd1461028357806323b872dd146102a35780632f745c59146102c357600080fd5b806301ffc9a7146101d257806306fdde0314610207578063081812fc14610229575b600080fd5b3480156101de57600080fd5b506101f26101ed366004612c20565b6105bc565b60405190151581526020015b60405180910390f35b34801561021357600080fd5b5061021c610602565b6040516101fe9190612c8d565b34801561023557600080fd5b50610249610244366004612ca0565b610695565b6040516001600160a01b0390911681526020016101fe565b34801561026d57600080fd5b5061028161027c366004612cce565b6106bd565b005b34801561028f57600080fd5b50610163545b6040519081526020016101fe565b3480156102af57600080fd5b506102816102be366004612cfa565b6107d7565b3480156102cf57600080fd5b506102956102de366004612cce565b610808565b3480156102ef57600080fd5b506102816102fe366004612d3b565b61089f565b34801561030f57600080fd5b5061028161031e366004612cfa565b61097e565b34801561032f57600080fd5b5061028161033e366004612dfb565b610999565b610281610351366004612e40565b610c54565b34801561036257600080fd5b50610295610371366004612ca0565b610d24565b34801561038257600080fd5b50610295610db9565b34801561039757600080fd5b506102496103a6366004612ca0565b610e6c565b3480156103b757600080fd5b50610199546001600160a01b0316610249565b3480156103d657600080fd5b506102956103e5366004612d3b565b610ed2565b3480156103f657600080fd5b50610281610f5d565b34801561040b57600080fd5b5060c9546001600160a01b0316610249565b34801561042957600080fd5b5061021c610f71565b34801561043e57600080fd5b5061028161044d366004612e9e565b610f81565b34801561045e57600080fd5b5061029561046d366004612f19565b610f8c565b34801561047e57600080fd5b5061028161048d366004612f9c565b611065565b34801561049e57600080fd5b506102816104ad366004612d3b565b61109d565b3480156104be57600080fd5b506102956104cd366004613008565b6110c8565b3480156104de57600080fd5b5061021c6104ed366004612ca0565b611163565b3480156104fe57600080fd5b5061028161050d366004612ca0565b61126a565b34801561051e57600080fd5b5061028161052d36600461306d565b611360565b34801561053e57600080fd5b506101f261054d36600461311d565b6001600160a01b0391821660009081526101346020908152604080832093909416825291909152205460ff1690565b34801561058857600080fd5b50610295610597366004612f19565b6114d9565b3480156105a857600080fd5b506102816105b7366004612d3b565b611586565b60006001600160e01b03198216635b5e139f60e01b14806105ed57506001600160e01b031982166346bdd63960e11b145b806105fc57506105fc826115fc565b92915050565b606061019480546106129061314b565b80601f016020809104026020016040519081016040528092919081815260200182805461063e9061314b565b801561068b5780601f106106605761010080835404028352916020019161068b565b820191906000526020600020905b81548152906001019060200180831161066e57829003601f168201915b5050505050905090565b60006106a082611621565b50600090815261013360205260409020546001600160a01b031690565b60006106c882611681565b9050806001600160a01b0316836001600160a01b03160361073a5760405162461bcd60e51b815260206004820152602160248201527f4552433732313a20617070726f76616c20746f2063757272656e74206f776e656044820152603960f91b60648201526084015b60405180910390fd5b336001600160a01b03821614806107565750610756813361054d565b6107c85760405162461bcd60e51b815260206004820152603d60248201527f4552433732313a20617070726f76652063616c6c6572206973206e6f7420746f60448201527f6b656e206f776e6572206f7220617070726f76656420666f7220616c6c0000006064820152608401610731565b6107d283836116e2565b505050565b6107e13382611751565b6107fd5760405162461bcd60e51b815260040161073190613185565b6107d28383836117d0565b60006108138361198a565b82106108755760405162461bcd60e51b815260206004820152602b60248201527f455243373231456e756d657261626c653a206f776e657220696e646578206f7560448201526a74206f6620626f756e647360a81b6064820152608401610731565b506001600160a01b0391909116600090815261016160209081526040808320938352929052205490565b6001600160a01b037f00000000000000000000000000000000000000000000000000000000000000001630036108e75760405162461bcd60e51b8152600401610731906131d2565b7f00000000000000000000000000000000000000000000000000000000000000006001600160a01b0316610930600080516020613596833981519152546001600160a01b031690565b6001600160a01b0316146109565760405162461bcd60e51b81526004016107319061321e565b61095f81611a11565b6040805160008082526020820190925261097b91839190611a19565b50565b6107d283838360405180602001604052806000815250611065565b6101995460405163b2a0cb6b60e01b81526004810183905233916001600160a01b03169063b2a0cb6b90602401602060405180830381865afa1580156109e3573d6000803e3d6000fd5b505050506040513d601f19601f82011682018060405250810190610a07919061326a565b6001600160a01b031614610a5d5760405162461bcd60e51b815260206004820152601860248201527f637265617465537065633a20756e617574686f72697a656400000000000000006044820152606401610731565b61019954604051637e07102760e11b81526001600160a01b039091169063fc0e204e90610a8e908590600401612c8d565b602060405180830381865afa158015610aab573d6000803e3d6000fd5b505050506040513d601f19601f82011682018060405250810190610acf9190613287565b15610b285760405162461bcd60e51b815260206004820152602360248201527f637265617465537065633a207370656320616c726561647920726567697374656044820152621c995960ea1b6064820152608401610731565b6101995460405163addd190760e01b81526001600160a01b039091169063addd190790610b5b90859085906004016132a4565b600060405180830381600087803b158015610b7557600080fd5b505af1158015610b89573d6000803e3d6000fd5b5050505061019960009054906101000a90046001600160a01b03166001600160a01b03166334f876626040518163ffffffff1660e01b8152600401602060405180830381865afa158015610be1573d6000803e3d6000fd5b505050506040513d601f19601f82011682018060405250810190610c05919061326a565b6001600160a01b031681336001600160a01b03167f68c7f8503283c455a4445b54a7d5c40656c8cae5cca0583c6d4be8369847870085604051610c489190612c8d565b60405180910390a45050565b6001600160a01b037f0000000000000000000000000000000000000000000000000000000000000000163003610c9c5760405162461bcd60e51b8152600401610731906131d2565b7f00000000000000000000000000000000000000000000000000000000000000006001600160a01b0316610ce5600080516020613596833981519152546001600160a01b031690565b6001600160a01b031614610d0b5760405162461bcd60e51b81526004016107319061321e565b610d1482611a11565b610d2082826001611a19565b5050565b6000610d306101635490565b8210610d935760405162461bcd60e51b815260206004820152602c60248201527f455243373231456e756d657261626c653a20676c6f62616c20696e646578206f60448201526b7574206f6620626f756e647360a01b6064820152608401610731565b6101638281548110610da757610da76132c6565b90600052602060002001549050919050565b6000306001600160a01b037f00000000000000000000000000000000000000000000000000000000000000001614610e595760405162461bcd60e51b815260206004820152603860248201527f555550535570677261646561626c653a206d757374206e6f742062652063616c60448201527f6c6564207468726f7567682064656c656761746563616c6c00000000000000006064820152608401610731565b5060008051602061359683398151915290565b600081815261019660205260408120546001600160a01b0316806105fc5760405162461bcd60e51b815260206004820152601c60248201527f6f776e65724f663a20746f6b656e20646f65736e2774206578697374000000006044820152606401610731565b60006001600160a01b038216610f405760405162461bcd60e51b815260206004820152602d60248201527f62616c616e63654f663a2061646472657373207a65726f206973206e6f74206160448201526c2076616c6964206f776e65725f60981b6064820152608401610731565b506001600160a01b03166000908152610198602052604090205490565b610f65611b84565b610f6f6000611bde565b565b606061019580546106129061314b565b610d20338383611c30565b60006001600160a01b0386163303610fe65760405162461bcd60e51b815260206004820152601b60248201527f74616b653a2063616e6e6f742074616b652066726f6d2073656c6600000000006044820152606401610731565b6000610ff6338888888888611cff565b9050611039338288888080601f016020809104026020016040519081016040528093929190818152602001838380828437600092019190915250611e2992505050565b50600881901c6000908152610193602052604090208054600160ff84161b1790555b9695505050505050565b61106f3383611751565b61108b5760405162461bcd60e51b815260040161073190613185565b61109784848484612066565b50505050565b6110a5611b84565b61019980546001600160a01b0319166001600160a01b0392909216919091179055565b6000807fe76a195fbe43f0eaa611595069f780493db2202a1cc4b2d7d44b47069812998a868686866040516110fe9291906132dc565b604051908190038120611136949392916020019384526001600160a01b03928316602085015291166040830152606082015260800190565b60405160208183030381529060405280519060200120905061115781612099565b9150505b949350505050565b600081815261019660205260409020546060906001600160a01b03166111cb5760405162461bcd60e51b815260206004820152601d60248201527f746f6b656e5552493a20746f6b656e20646f65736e27742065786973740000006044820152606401610731565b60008281526101976020526040902080546111e59061314b565b80601f01602080910402602001604051908101604052809291908181526020018280546112119061314b565b801561125e5780601f106112335761010080835404028352916020019161125e565b820191906000526020600020905b81548152906001019060200180831161124157829003601f168201915b50505050509050919050565b600081815261019660205260409020546001600160a01b03166112cf5760405162461bcd60e51b815260206004820152601c60248201527f756e65717569703a20746f6b656e20646f65736e2774206578697374000000006044820152606401610731565b600081815261019660205260409020546001600160a01b031633146113365760405162461bcd60e51b815260206004820152601d60248201527f756e65717569703a2073656e646572206d757374206265206f776e65720000006044820152606401610731565b600881901c6000908152610193602052604090208054600160ff84161b1916905561097b816120e7565b600054610100900460ff16158080156113805750600054600160ff909116105b8061139a5750303b15801561139a575060005460ff166001145b6113fd5760405162461bcd60e51b815260206004820152602e60248201527f496e697469616c697a61626c653a20636f6e747261637420697320616c72656160448201526d191e481a5b9a5d1a585b1a5e995960921b6064820152608401610731565b6000805460ff191660011790558015611420576000805461ff0019166101001790555b61019461142d8782613332565b5061019561143b8682613332565b5061019980546001600160a01b0319166001600160a01b038416179055611460612192565b6114686121b9565b61147286856121e8565b61147a612192565b61148383611586565b61148b612192565b80156114d1576000805461ff0019169055604051600181527f7f26b83ff96e1f2b6a682f133852f6798a09c465da95921460cefb38474024989060200160405180910390a15b505050505050565b60006001600160a01b03861633036115335760405162461bcd60e51b815260206004820152601b60248201527f676976653a2063616e6e6f7420676976652066726f6d2073656c6600000000006044820152606401610731565b6000611543338888888888611cff565b9050611039878288888080601f016020809104026020016040519081016040528093929190818152602001838380828437600092019190915250611e2992505050565b61158e611b84565b6001600160a01b0381166115f35760405162461bcd60e51b815260206004820152602660248201527f4f776e61626c653a206e6577206f776e657220697320746865207a65726f206160448201526564647265737360d01b6064820152608401610731565b61097b81611bde565b60006001600160e01b0319821663780e9d6360e01b14806105fc57506105fc82612219565b600081815261013160205260409020546001600160a01b031661097b5760405162461bcd60e51b8152602060048201526018602482015277115490cdcc8c4e881a5b9d985b1a59081d1bdad95b88125160421b6044820152606401610731565b600081815261013160205260408120546001600160a01b0316806105fc5760405162461bcd60e51b8152602060048201526018602482015277115490cdcc8c4e881a5b9d985b1a59081d1bdad95b88125160421b6044820152606401610731565b60008181526101336020526040902080546001600160a01b0319166001600160a01b038416908117909155819061171882611681565b6001600160a01b03167f8c5be1e5ebec7d5bd14f71427d1e84f3dd0314c0f7b2291e5b200ac8c7c3b92560405160405180910390a45050565b60008061175d83611681565b9050806001600160a01b0316846001600160a01b031614806117a557506001600160a01b038082166000908152610134602090815260408083209388168352929052205460ff165b8061115b5750836001600160a01b03166117be84610695565b6001600160a01b031614949350505050565b826001600160a01b03166117e382611681565b6001600160a01b0316146118475760405162461bcd60e51b815260206004820152602560248201527f4552433732313a207472616e736665722066726f6d20696e636f72726563742060448201526437bbb732b960d91b6064820152608401610731565b6001600160a01b0382166118a95760405162461bcd60e51b8152602060048201526024808201527f4552433732313a207472616e7366657220746f20746865207a65726f206164646044820152637265737360e01b6064820152608401610731565b6118b4838383612269565b60008181526101336020908152604080832080546001600160a01b03191690556001600160a01b038616835261013290915281208054600192906118f9908490613408565b90915550506001600160a01b03821660009081526101326020526040812080546001929061192890849061341b565b90915550506000818152610131602052604080822080546001600160a01b0319166001600160a01b0386811691821790925591518493918716917fddf252ad1be2c89b69c2b068fc378daa952ba7f163c4a11628f55a4df523b3ef91a4505050565b60006001600160a01b0382166119f45760405162461bcd60e51b815260206004820152602960248201527f4552433732313a2061646472657373207a65726f206973206e6f7420612076616044820152683634b21037bbb732b960b91b6064820152608401610731565b506001600160a01b03166000908152610132602052604090205490565b61097b611b84565b7f4910fdfa16fed3260ed0e7147f7cc6da11a60208b5b9406d12a635614ffd91435460ff1615611a4c576107d283612323565b826001600160a01b03166352d1902d6040518163ffffffff1660e01b8152600401602060405180830381865afa925050508015611aa6575060408051601f3d908101601f19168201909252611aa39181019061342e565b60015b611b095760405162461bcd60e51b815260206004820152602e60248201527f45524331393637557067726164653a206e657720696d706c656d656e7461746960448201526d6f6e206973206e6f74205555505360901b6064820152608401610731565b6000805160206135968339815191528114611b785760405162461bcd60e51b815260206004820152602960248201527f45524331393637557067726164653a20756e737570706f727465642070726f786044820152681a58589b195555525160ba1b6064820152608401610731565b506107d28383836123bf565b60c9546001600160a01b03163314610f6f5760405162461bcd60e51b815260206004820181905260248201527f4f776e61626c653a2063616c6c6572206973206e6f7420746865206f776e65726044820152606401610731565b60c980546001600160a01b038381166001600160a01b0319831681179093556040519116919082907f8be0079c531659141344cd1fd0a4f28419497f9722a3daafe3b4186f6b6457e090600090a35050565b816001600160a01b0316836001600160a01b031603611c915760405162461bcd60e51b815260206004820152601960248201527f4552433732313a20617070726f766520746f2063616c6c6572000000000000006044820152606401610731565b6001600160a01b0383811660008181526101346020908152604080832094871680845294825291829020805460ff191686151590811790915591519182527f17307eab39ab6107e8899845ad3d59bd9653f200f220920489ca2b5937696c31910160405180910390a3505050565b600080611d0e888888886110c8565b905060008160001c9050611d59888387878080601f0160208091040260200160405190810160405280939291908181526020018383808284376000920191909152506123e492505050565b611db35760405162461bcd60e51b815260206004820152602560248201527f73616665436865636b41677265656d656e743a20696e76616c6964207369676e604482015264617475726560d81b6064820152608401610731565b600881901c60009081526101936020526040902054600160ff83161b1615611e1d5760405162461bcd60e51b815260206004820181905260248201527f73616665436865636b41677265656d656e743a20616c726561647920757365646044820152606401610731565b98975050505050505050565b61019954604051633664a8e960e01b815260009182916001600160a01b0390911690633664a8e990611e5f908690600401612c8d565b602060405180830381865afa158015611e7c573d6000803e3d6000fd5b505050506040513d601f19601f82011682018060405250810190611ea0919061342e565b905080600003611ef25760405162461bcd60e51b815260206004820152601c60248201527f6d696e743a2073706563206973206e6f742072656769737465726564000000006044820152606401610731565b600084815261019660205260409020546001600160a01b031615611f4f5760405162461bcd60e51b81526020600482015260146024820152736d696e743a20746f6b656e49442065786973747360601b6044820152606401610731565b6001600160a01b038516600090815261019860205260408120805460019290611f7990849061341b565b909155505060008481526101966020908152604080832080546001600160a01b0319166001600160a01b038a161790556101979091529020611fbb8482613332565b5060405184906001600160a01b038716906000907fddf252ad1be2c89b69c2b068fc378daa952ba7f163c4a11628f55a4df523b3ef908290a46101995460405163fb74926160e01b815260048101869052602481018390526001600160a01b039091169063fb74926190604401600060405180830381600087803b15801561204257600080fd5b505af1158015612056573d6000803e3d6000fd5b50505050839150505b9392505050565b6120718484846117d0565b61207d84848484612525565b6110975760405162461bcd60e51b815260040161073190613447565b60006105fc6120a6612623565b8360405161190160f01b6020820152602281018390526042810182905260009060620160405160208183030381529060405280519060200120905092915050565b600081815261019660209081526040808320546001600160a01b0316808452610198909252822080549192600192612120908490613408565b909155505060008281526101966020908152604080832080546001600160a01b0319169055610197909152812061215691612bbc565b60405182906000906001600160a01b038416907fddf252ad1be2c89b69c2b068fc378daa952ba7f163c4a11628f55a4df523b3ef908390a45050565b600054610100900460ff16610f6f5760405162461bcd60e51b815260040161073190613499565b600054610100900460ff166121e05760405162461bcd60e51b815260040161073190613499565b610f6f6126a3565b600054610100900460ff1661220f5760405162461bcd60e51b815260040161073190613499565b610d2082826126d3565b60006001600160e01b031982166380ac58cd60e01b148061224a57506001600160e01b03198216635b5e139f60e01b145b806105fc57506301ffc9a760e01b6001600160e01b03198316146105fc565b6001600160a01b0383166122c6576122c1816101638054600083815261016460205260408120829055600182018355919091527fb0f3e90519fd0de3100ca1a24094c0a25e5cbf467d74a2603172b5a5204555b30155565b6122e9565b816001600160a01b0316836001600160a01b0316146122e9576122e98382612714565b6001600160a01b038216612300576107d2816127b6565b826001600160a01b0316826001600160a01b0316146107d2576107d2828261286b565b6001600160a01b0381163b6123905760405162461bcd60e51b815260206004820152602d60248201527f455243313936373a206e657720696d706c656d656e746174696f6e206973206e60448201526c1bdd08184818dbdb9d1c9858dd609a1b6064820152608401610731565b60008051602061359683398151915280546001600160a01b0319166001600160a01b0392909216919091179055565b6123c8836128b1565b6000825111806123d55750805b156107d25761109783836128f1565b60008060006123f385856129e5565b9092509050600081600481111561240c5761240c6134e4565b14801561242a5750856001600160a01b0316826001600160a01b0316145b1561243a5760019250505061205f565b600080876001600160a01b0316631626ba7e60e01b88886040516024016124629291906134fa565b60408051601f198184030181529181526020820180516001600160e01b03166001600160e01b03199094169390931790925290516124a09190613513565b600060405180830381855afa9150503d80600081146124db576040519150601f19603f3d011682016040523d82523d6000602084013e6124e0565b606091505b50915091508180156124f3575080516020145b8015611e1d57508051630b135d3f60e11b90612518908301602090810190840161342e565b1498975050505050505050565b60006001600160a01b0384163b1561261b57604051630a85bd0160e11b81526001600160a01b0385169063150b7a029061256990339089908890889060040161352f565b6020604051808303816000875af19250505080156125a4575060408051601f3d908101601f191682019092526125a191810190613562565b60015b612601573d8080156125d2576040519150601f19603f3d011682016040523d82523d6000602084013e6125d7565b606091505b5080516000036125f95760405162461bcd60e51b815260040161073190613447565b805181602001fd5b6001600160e01b031916630a85bd0160e11b14905061115b565b50600161115b565b600061269e7f8b73c3c69bb8fe3d512ecc4cf759cc79239f7b179b0ffacaa9a75d522b39400f61265260fb5490565b60fc546040805160208101859052908101839052606081018290524660808201523060a082015260009060c0016040516020818303038152906040528051906020012090509392505050565b905090565b600054610100900460ff166126ca5760405162461bcd60e51b815260040161073190613499565b610f6f33611bde565b600054610100900460ff166126fa5760405162461bcd60e51b815260040161073190613499565b81516020928301208151919092012060fb9190915560fc55565b600060016127218461198a565b61272b9190613408565b60008381526101626020526040902054909150808214612781576001600160a01b038416600090815261016160209081526040808320858452825280832054848452818420819055835261016290915290208190555b506000918252610162602090815260408084208490556001600160a01b03909416835261016181528383209183525290812055565b610163546000906127c990600190613408565b6000838152610164602052604081205461016380549394509092849081106127f3576127f36132c6565b90600052602060002001549050806101638381548110612815576128156132c6565b6000918252602080832090910192909255828152610164909152604080822084905585825281205561016380548061284f5761284f61357f565b6001900381819060005260206000200160009055905550505050565b60006128768361198a565b6001600160a01b0390931660009081526101616020908152604080832086845282528083208590559382526101629052919091209190915550565b6128ba81612323565b6040516001600160a01b038216907fbc7cd75a20ee27fd9adebab32041f755214dbc6bffa90cc0225b39da2e5c2d3b90600090a250565b60606001600160a01b0383163b6129595760405162461bcd60e51b815260206004820152602660248201527f416464726573733a2064656c65676174652063616c6c20746f206e6f6e2d636f6044820152651b9d1c9858dd60d21b6064820152608401610731565b600080846001600160a01b0316846040516129749190613513565b600060405180830381855af49150503d80600081146129af576040519150601f19603f3d011682016040523d82523d6000602084013e6129b4565b606091505b50915091506129dc82826040518060600160405280602781526020016135b660279139612a53565b95945050505050565b6000808251604103612a1b5760208301516040840151606085015160001a612a0f87828585612a6c565b94509450505050612a4c565b8251604003612a445760208301516040840151612a39868383612b59565b935093505050612a4c565b506000905060025b9250929050565b60608315612a6257508161205f565b61205f8383612b92565b6000807f7fffffffffffffffffffffffffffffff5d576e7357a4501ddfe92f46681b20a0831115612aa35750600090506003612b50565b8460ff16601b14158015612abb57508460ff16601c14155b15612acc5750600090506004612b50565b6040805160008082526020820180845289905260ff881692820192909252606081018690526080810185905260019060a0016020604051602081039080840390855afa158015612b20573d6000803e3d6000fd5b5050604051601f1901519150506001600160a01b038116612b4957600060019250925050612b50565b9150600090505b94509492505050565b6000806001600160ff1b03831681612b7660ff86901c601b61341b565b9050612b8487828885612a6c565b935093505050935093915050565b815115612ba25781518083602001fd5b8060405162461bcd60e51b81526004016107319190612c8d565b508054612bc89061314b565b6000825580601f10612bd8575050565b601f01602090049060005260206000209081019061097b91905b80821115612c065760008155600101612bf2565b5090565b6001600160e01b03198116811461097b57600080fd5b600060208284031215612c3257600080fd5b813561205f81612c0a565b60005b83811015612c58578181015183820152602001612c40565b50506000910152565b60008151808452612c79816020860160208601612c3d565b601f01601f19169290920160200192915050565b60208152600061205f6020830184612c61565b600060208284031215612cb257600080fd5b5035919050565b6001600160a01b038116811461097b57600080fd5b60008060408385031215612ce157600080fd5b8235612cec81612cb9565b946020939093013593505050565b600080600060608486031215612d0f57600080fd5b8335612d1a81612cb9565b92506020840135612d2a81612cb9565b929592945050506040919091013590565b600060208284031215612d4d57600080fd5b813561205f81612cb9565b634e487b7160e01b600052604160045260246000fd5b600082601f830112612d7f57600080fd5b813567ffffffffffffffff80821115612d9a57612d9a612d58565b604051601f8301601f19908116603f01168101908282118183101715612dc257612dc2612d58565b81604052838152866020858801011115612ddb57600080fd5b836020870160208301376000602085830101528094505050505092915050565b60008060408385031215612e0e57600080fd5b823567ffffffffffffffff811115612e2557600080fd5b612e3185828601612d6e565b95602094909401359450505050565b60008060408385031215612e5357600080fd5b8235612e5e81612cb9565b9150602083013567ffffffffffffffff811115612e7a57600080fd5b612e8685828601612d6e565b9150509250929050565b801515811461097b57600080fd5b60008060408385031215612eb157600080fd5b8235612ebc81612cb9565b91506020830135612ecc81612e90565b809150509250929050565b60008083601f840112612ee957600080fd5b50813567ffffffffffffffff811115612f0157600080fd5b602083019150836020828501011115612a4c57600080fd5b600080600080600060608688031215612f3157600080fd5b8535612f3c81612cb9565b9450602086013567ffffffffffffffff80821115612f5957600080fd5b612f6589838a01612ed7565b90965094506040880135915080821115612f7e57600080fd5b50612f8b88828901612ed7565b969995985093965092949392505050565b60008060008060808587031215612fb257600080fd5b8435612fbd81612cb9565b93506020850135612fcd81612cb9565b925060408501359150606085013567ffffffffffffffff811115612ff057600080fd5b612ffc87828801612d6e565b91505092959194509250565b6000806000806060858703121561301e57600080fd5b843561302981612cb9565b9350602085013561303981612cb9565b9250604085013567ffffffffffffffff81111561305557600080fd5b61306187828801612ed7565b95989497509550505050565b600080600080600060a0868803121561308557600080fd5b853567ffffffffffffffff8082111561309d57600080fd5b6130a989838a01612d6e565b965060208801359150808211156130bf57600080fd5b6130cb89838a01612d6e565b955060408801359150808211156130e157600080fd5b506130ee88828901612d6e565b93505060608601356130ff81612cb9565b9150608086013561310f81612cb9565b809150509295509295909350565b6000806040838503121561313057600080fd5b823561313b81612cb9565b91506020830135612ecc81612cb9565b600181811c9082168061315f57607f821691505b60208210810361317f57634e487b7160e01b600052602260045260246000fd5b50919050565b6020808252602d908201527f4552433732313a2063616c6c6572206973206e6f7420746f6b656e206f776e6560408201526c1c881bdc88185c1c1c9bdd9959609a1b606082015260800190565b6020808252602c908201527f46756e6374696f6e206d7573742062652063616c6c6564207468726f7567682060408201526b19195b1959d85d1958d85b1b60a21b606082015260800190565b6020808252602c908201527f46756e6374696f6e206d7573742062652063616c6c6564207468726f7567682060408201526b6163746976652070726f787960a01b606082015260800190565b60006020828403121561327c57600080fd5b815161205f81612cb9565b60006020828403121561329957600080fd5b815161205f81612e90565b6040815260006132b76040830185612c61565b90508260208301529392505050565b634e487b7160e01b600052603260045260246000fd5b8183823760009101908152919050565b601f8211156107d257600081815260208120601f850160051c810160208610156133135750805b601f850160051c820191505b818110156114d15782815560010161331f565b815167ffffffffffffffff81111561334c5761334c612d58565b6133608161335a845461314b565b846132ec565b602080601f831160018114613395576000841561337d5750858301515b600019600386901b1c1916600185901b1785556114d1565b600085815260208120601f198616915b828110156133c4578886015182559484019460019091019084016133a5565b50858210156133e25787850151600019600388901b60f8161c191681555b5050505050600190811b01905550565b634e487b7160e01b600052601160045260246000fd5b818103818111156105fc576105fc6133f2565b808201808211156105fc576105fc6133f2565b60006020828403121561344057600080fd5b5051919050565b60208082526032908201527f4552433732313a207472616e7366657220746f206e6f6e20455243373231526560408201527131b2b4bb32b91034b6b83632b6b2b73a32b960711b606082015260800190565b6020808252602b908201527f496e697469616c697a61626c653a20636f6e7472616374206973206e6f74206960408201526a6e697469616c697a696e6760a81b606082015260800190565b634e487b7160e01b600052602160045260246000fd5b82815260406020820152600061115b6040830184612c61565b60008251613525818460208701612c3d565b9190910192915050565b6001600160a01b038581168252841660208201526040810183905260806060820181905260009061105b90830184612c61565b60006020828403121561357457600080fd5b815161205f81612c0a565b634e487b7160e01b600052603160045260246000fdfe360894a13ba1a3210667c828492db98dca3e2076cc3735a920a3ca505d382bbc416464726573733a206c6f772d6c6576656c2064656c65676174652063616c6c206661696c6564a2646970667358221220cdd077a2bc9da2660af459bc167f04e1461aa970305f4e7181b4e926e4c97a0d64736f6c63430008100033",
    "linkReferences": {}
  },
  "methodIdentifiers": {
    "approve(address,uint256)": "095ea7b3",
    "balanceOf(address)": "70a08231",
    "createSpec(string,uint256)": "445a62b9",
    "getApproved(uint256)": "081812fc",
    "getDataHolderAddress()": "635ad993",
    "getHash(address,address,string)": "c5cf33c2",
    "give(address,string,bytes)": "ec64948e",
    "initialize(string,string,string,address,address)": "d6d0faee",
    "isApprovedForAll(address,address)": "e985e9c5",
    "name()": "06fdde03",
    "owner()": "8da5cb5b",
    "ownerOf(uint256)": "6352211e",
    "proxiableUUID()": "52d1902d",
    "renounceOwnership()": "715018a6",
    "safeTransferFrom(address,address,uint256)": "42842e0e",
    "safeTransferFrom(address,address,uint256,bytes)": "b88d4fde",
    "setApprovalForAll(address,bool)": "a22cb465",
    "setDataHolder(address)": "c0184112",
    "supportsInterface(bytes4)": "01ffc9a7",
    "symbol()": "95d89b41",
    "take(address,string,bytes)": "a3947803",
    "tokenByIndex(uint256)": "4f6ccce7",
    "tokenOfOwnerByIndex(address,uint256)": "2f745c59",
    "tokenURI(uint256)": "c87b56dd",
    "totalSupply()": "18160ddd",
    "transferFrom(address,address,uint256)": "23b872dd",
    "transferOwnership(address)": "f2fde38b",
    "unequip(uint256)": "d179e3d0",
    "upgradeTo(address)": "3659cfe6",
    "upgradeToAndCall(address,bytes)": "4f1ef286"
  },
  "id": 43
}