{
  "abi": [
    {
      "inputs": [],
      "stateMutability": "nonpayable",
      "type": "constructor"
    },
    {
      "anonymous": false,
      "inputs": [
        {
          "indexed": false,
          "internalType": "address",
          "name": "previousAdmin",
          "type": "address"
        },
        {
          "indexed": false,
          "internalType": "address",
          "name": "newAdmin",
          "type": "address"
        }
      ],
      "name": "AdminChanged",
      "type": "event"
    },
    {
      "anonymous": false,
      "inputs": [
        {
          "indexed": true,
          "internalType": "uint256",
          "name": "tokenId",
          "type": "uint256"
        },
        {
          "indexed": true,
          "internalType": "address",
          "name": "owner",
          "type": "address"
        },
        {
          "indexed": true,
          "internalType": "address",
          "name": "reinstatedBy",
          "type": "address"
        }
      ],
      "name": "BadgeReinstated",
      "type": "event"
    },
    {
      "anonymous": false,
      "inputs": [
        {
          "indexed": true,
          "internalType": "uint256",
          "name": "tokenId",
          "type": "uint256"
        },
        {
          "indexed": true,
          "internalType": "address",
          "name": "owner",
          "type": "address"
        },
        {
          "indexed": true,
          "internalType": "address",
          "name": "revokedBy",
          "type": "address"
        }
      ],
      "name": "BadgeRevoked",
      "type": "event"
    },
    {
      "anonymous": false,
      "inputs": [
        {
          "indexed": true,
          "internalType": "address",
          "name": "beacon",
          "type": "address"
        }
      ],
      "name": "BeaconUpgraded",
      "type": "event"
    },
    {
      "anonymous": false,
      "inputs": [
        {
          "indexed": false,
          "internalType": "uint8",
          "name": "version",
          "type": "uint8"
        }
      ],
      "name": "Initialized",
      "type": "event"
    },
    {
      "anonymous": false,
      "inputs": [
        {
          "indexed": true,
          "internalType": "address",
          "name": "previousOwner",
          "type": "address"
        },
        {
          "indexed": true,
          "internalType": "address",
          "name": "newOwner",
          "type": "address"
        }
      ],
      "name": "OwnershipTransferred",
      "type": "event"
    },
    {
      "anonymous": false,
      "inputs": [
        {
          "indexed": true,
          "internalType": "address",
          "name": "to",
          "type": "address"
        },
        {
          "indexed": false,
          "internalType": "string",
          "name": "specUri",
          "type": "string"
        },
        {
          "indexed": true,
          "internalType": "uint256",
          "name": "raftTokenId",
          "type": "uint256"
        },
        {
          "indexed": true,
          "internalType": "address",
          "name": "raftAddress",
          "type": "address"
        }
      ],
      "name": "SpecCreated",
      "type": "event"
    },
    {
      "anonymous": false,
      "inputs": [
        {
          "indexed": true,
          "internalType": "address",
          "name": "from",
          "type": "address"
        },
        {
          "indexed": true,
          "internalType": "address",
          "name": "to",
          "type": "address"
        },
        {
          "indexed": true,
          "internalType": "uint256",
          "name": "tokenId",
          "type": "uint256"
        }
      ],
      "name": "Transfer",
      "type": "event"
    },
    {
      "anonymous": false,
      "inputs": [
        {
          "indexed": true,
          "internalType": "address",
          "name": "implementation",
          "type": "address"
        }
      ],
      "name": "Upgraded",
      "type": "event"
    },
    {
      "inputs": [
        {
          "internalType": "uint256",
          "name": "",
          "type": "uint256"
        }
      ],
      "name": "badgeExpirationDates",
      "outputs": [
        {
          "internalType": "uint256",
          "name": "",
          "type": "uint256"
        }
      ],
      "stateMutability": "view",
      "type": "function"
    },
    {
      "inputs": [
        {
          "internalType": "address",
          "name": "_owner",
          "type": "address"
        }
      ],
      "name": "balanceOf",
      "outputs": [
        {
          "internalType": "uint256",
          "name": "",
          "type": "uint256"
        }
      ],
      "stateMutability": "view",
      "type": "function"
    },
    {
      "inputs": [
        {
          "internalType": "string",
          "name": "_specUri",
          "type": "string"
        },
        {
          "internalType": "uint256",
          "name": "_raftTokenId",
          "type": "uint256"
        }
      ],
      "name": "createSpec",
      "outputs": [],
      "stateMutability": "nonpayable",
      "type": "function"
    },
    {
      "inputs": [
        {
          "internalType": "address",
          "name": "_from",
          "type": "address"
        },
        {
          "internalType": "address",
          "name": "_to",
          "type": "address"
        },
        {
          "internalType": "string",
          "name": "_uri",
          "type": "string"
        }
      ],
      "name": "getAgreementHash",
      "outputs": [
        {
          "internalType": "bytes32",
          "name": "",
          "type": "bytes32"
        }
      ],
      "stateMutability": "view",
      "type": "function"
    },
    {
      "inputs": [
        {
          "internalType": "address",
          "name": "_to",
          "type": "address"
        },
        {
          "internalType": "string",
          "name": "_uri",
          "type": "string"
        }
      ],
      "name": "getBadgeIdHash",
      "outputs": [
        {
          "internalType": "bytes32",
          "name": "",
          "type": "bytes32"
        }
      ],
      "stateMutability": "view",
      "type": "function"
    },
    {
      "inputs": [],
      "name": "getDataHolderAddress",
      "outputs": [
        {
          "internalType": "address",
          "name": "",
          "type": "address"
        }
      ],
      "stateMutability": "view",
      "type": "function"
    },
    {
      "inputs": [
        {
          "internalType": "address",
          "name": "_from",
          "type": "address"
        },
        {
          "internalType": "address",
          "name": "_to",
          "type": "address"
        },
        {
          "internalType": "string",
          "name": "_uri",
          "type": "string"
        },
        {
          "internalType": "string",
          "name": "_expirationType",
          "type": "string"
        },
        {
          "internalType": "uint256",
          "name": "_expirationValue",
          "type": "uint256"
        }
      ],
      "name": "getExpiringBadgeHash",
      "outputs": [
        {
          "internalType": "bytes32",
          "name": "",
          "type": "bytes32"
        }
      ],
      "stateMutability": "view",
      "type": "function"
    },
    {
      "inputs": [
        {
          "internalType": "uint256",
          "name": "_tokenId",
          "type": "uint256"
        }
      ],
      "name": "getVoucherHash",
      "outputs": [
        {
          "internalType": "uint256",
          "name": "",
          "type": "uint256"
        }
      ],
      "stateMutability": "view",
      "type": "function"
    },
    {
      "inputs": [
        {
          "internalType": "address",
          "name": "_to",
          "type": "address"
        },
        {
          "internalType": "string",
          "name": "_uri",
          "type": "string"
        },
        {
          "internalType": "bytes",
          "name": "_signature",
          "type": "bytes"
        }
      ],
      "name": "give",
      "outputs": [
        {
          "internalType": "uint256",
          "name": "",
          "type": "uint256"
        }
      ],
      "stateMutability": "nonpayable",
      "type": "function"
    },
    {
      "inputs": [
        {
          "internalType": "address",
          "name": "_to",
          "type": "address"
        },
        {
          "internalType": "string",
          "name": "_uri",
          "type": "string"
        },
        {
          "internalType": "bytes",
          "name": "_signature",
          "type": "bytes"
        },
        {
          "internalType": "string",
          "name": "_expirationType",
          "type": "string"
        },
        {
          "internalType": "uint256",
          "name": "_expirationValue",
          "type": "uint256"
        }
      ],
      "name": "giveExpiringBadge",
      "outputs": [
        {
          "internalType": "uint256",
          "name": "",
          "type": "uint256"
        }
      ],
      "stateMutability": "nonpayable",
      "type": "function"
    },
    {
      "inputs": [
        {
          "internalType": "string",
          "name": "_name",
          "type": "string"
        },
        {
          "internalType": "string",
          "name": "_symbol",
          "type": "string"
        },
        {
          "internalType": "string",
          "name": "_version",
          "type": "string"
        },
        {
          "internalType": "address",
          "name": "_nextOwner",
          "type": "address"
        },
        {
          "internalType": "address",
          "name": "_specDataHolderAddress",
          "type": "address"
        }
      ],
      "name": "initialize",
      "outputs": [],
      "stateMutability": "nonpayable",
      "type": "function"
    },
    {
      "inputs": [
        {
          "internalType": "uint256",
          "name": "_badgeId",
          "type": "uint256"
        },
        {
          "internalType": "uint256",
          "name": "timestamp",
          "type": "uint256"
        }
      ],
      "name": "isBadgeValid",
      "outputs": [
        {
          "internalType": "bool",
          "name": "",
          "type": "bool"
        }
      ],
      "stateMutability": "view",
      "type": "function"
    },
    {
      "inputs": [],
      "name": "name",
      "outputs": [
        {
          "internalType": "string",
          "name": "",
          "type": "string"
        }
      ],
      "stateMutability": "view",
      "type": "function"
    },
    {
      "inputs": [],
      "name": "owner",
      "outputs": [
        {
          "internalType": "address",
          "name": "",
          "type": "address"
        }
      ],
      "stateMutability": "view",
      "type": "function"
    },
    {
      "inputs": [
        {
          "internalType": "uint256",
          "name": "_tokenId",
          "type": "uint256"
        }
      ],
      "name": "ownerOf",
      "outputs": [
        {
          "internalType": "address",
          "name": "",
          "type": "address"
        }
      ],
      "stateMutability": "view",
      "type": "function"
    },
    {
      "inputs": [],
      "name": "proxiableUUID",
      "outputs": [
        {
          "internalType": "bytes32",
          "name": "",
          "type": "bytes32"
        }
      ],
      "stateMutability": "view",
      "type": "function"
    },
    {
      "inputs": [
        {
          "internalType": "uint256",
          "name": "_raftTokenId",
          "type": "uint256"
        },
        {
          "internalType": "uint256",
          "name": "_badgeId",
          "type": "uint256"
        }
      ],
      "name": "reinstateBadge",
      "outputs": [],
      "stateMutability": "nonpayable",
      "type": "function"
    },
    {
      "inputs": [],
      "name": "renounceOwnership",
      "outputs": [],
      "stateMutability": "nonpayable",
      "type": "function"
    },
    {
      "inputs": [
        {
          "internalType": "uint256",
          "name": "_raftTokenId",
          "type": "uint256"
        },
        {
          "internalType": "uint256",
          "name": "_badgeId",
          "type": "uint256"
        }
      ],
      "name": "revokeBadge",
      "outputs": [],
      "stateMutability": "nonpayable",
      "type": "function"
    },
    {
      "inputs": [
        {
          "internalType": "uint256",
          "name": "",
          "type": "uint256"
        }
      ],
      "name": "revokedBadges",
      "outputs": [
        {
          "internalType": "bool",
          "name": "",
          "type": "bool"
        }
      ],
      "stateMutability": "view",
      "type": "function"
    },
    {
      "inputs": [
        {
          "internalType": "address",
          "name": "_dataHolder",
          "type": "address"
        }
      ],
      "name": "setDataHolder",
      "outputs": [],
      "stateMutability": "nonpayable",
      "type": "function"
    },
    {
      "inputs": [
        {
          "internalType": "bytes4",
          "name": "_interfaceId",
          "type": "bytes4"
        }
      ],
      "name": "supportsInterface",
      "outputs": [
        {
          "internalType": "bool",
          "name": "",
          "type": "bool"
        }
      ],
      "stateMutability": "view",
      "type": "function"
    },
    {
      "inputs": [],
      "name": "symbol",
      "outputs": [
        {
          "internalType": "string",
          "name": "",
          "type": "string"
        }
      ],
      "stateMutability": "view",
      "type": "function"
    },
    {
      "inputs": [
        {
          "internalType": "address",
          "name": "_from",
          "type": "address"
        },
        {
          "internalType": "string",
          "name": "_uri",
          "type": "string"
        },
        {
          "internalType": "bytes",
          "name": "_signature",
          "type": "bytes"
        }
      ],
      "name": "take",
      "outputs": [
        {
          "internalType": "uint256",
          "name": "",
          "type": "uint256"
        }
      ],
      "stateMutability": "nonpayable",
      "type": "function"
    },
    {
      "inputs": [
        {
          "internalType": "address",
          "name": "_from",
          "type": "address"
        },
        {
          "internalType": "string",
          "name": "_uri",
          "type": "string"
        },
        {
          "internalType": "bytes",
          "name": "_signature",
          "type": "bytes"
        },
        {
          "internalType": "string",
          "name": "_expirationType",
          "type": "string"
        },
        {
          "internalType": "uint256",
          "name": "_expirationValue",
          "type": "uint256"
        }
      ],
      "name": "takeExpiringBadge",
      "outputs": [
        {
          "internalType": "uint256",
          "name": "",
          "type": "uint256"
        }
      ],
      "stateMutability": "nonpayable",
      "type": "function"
    },
    {
      "inputs": [
        {
          "internalType": "uint256",
          "name": "_tokenId",
          "type": "uint256"
        }
      ],
      "name": "tokenURI",
      "outputs": [
        {
          "internalType": "string",
          "name": "",
          "type": "string"
        }
      ],
      "stateMutability": "view",
      "type": "function"
    },
    {
      "inputs": [
        {
          "internalType": "address",
          "name": "newOwner",
          "type": "address"
        }
      ],
      "name": "transferOwnership",
      "outputs": [],
      "stateMutability": "nonpayable",
      "type": "function"
    },
    {
      "inputs": [
        {
          "internalType": "uint256",
          "name": "_tokenId",
          "type": "uint256"
        }
      ],
      "name": "unequip",
      "outputs": [],
      "stateMutability": "nonpayable",
      "type": "function"
    },
    {
      "inputs": [
        {
          "internalType": "address",
          "name": "newImplementation",
          "type": "address"
        }
      ],
      "name": "upgradeTo",
      "outputs": [],
      "stateMutability": "nonpayable",
      "type": "function"
    },
    {
      "inputs": [
        {
          "internalType": "address",
          "name": "newImplementation",
          "type": "address"
        },
        {
          "internalType": "bytes",
          "name": "data",
          "type": "bytes"
        }
      ],
      "name": "upgradeToAndCall",
      "outputs": [],
      "stateMutability": "payable",
      "type": "function"
    }
  ],
  "bytecode": {
    "object": "0x60a0604052306080523480156200001557600080fd5b506200002062000026565b620000e8565b600054610100900460ff1615620000935760405162461bcd60e51b815260206004820152602760248201527f496e697469616c697a61626c653a20636f6e747261637420697320696e697469604482015266616c697a696e6760c81b606482015260840160405180910390fd5b60005460ff9081161015620000e6576000805460ff191660ff9081179091556040519081527f7f26b83ff96e1f2b6a682f133852f6798a09c465da95921460cefb38474024989060200160405180910390a15b565b6080516131a262000120600039600081816106bc0152818161070501528181610a8001528181610ac00152610b5301526131a26000f3fe6080604052600436106101cd5760003560e01c806391cf236e116100f7578063c87b56dd11610095578063e499250611610064578063e49925061461054d578063e68489391461056d578063ec64948e1461058d578063f2fde38b146105ad57600080fd5b8063c87b56dd146104cd578063ccb1dfdd146104ed578063d179e3d01461050d578063d6d0faee1461052d57600080fd5b8063a3947803116100d1578063a39478031461043f578063a8cf86831461045f578063abe3078b1461047f578063c0184112146104ad57600080fd5b806391cf236e146103d957806395d89b411461040a578063a0de8f841461041f57600080fd5b80635329ae0c1161016f57806370a082311161013e57806370a0823114610366578063715018a61461038657806380956c7e1461039b5780638da5cb5b146103bb57600080fd5b80635329ae0c146102cf5780635560a5b3146102ef5780636352211e1461030f578063635ad9931461034757600080fd5b80633b363a09116101ab5780633b363a091461024b578063445a62b9146102875780634f1ef286146102a757806352d1902d146102ba57600080fd5b806301ffc9a7146101d257806306fdde03146102075780633659cfe614610229575b600080fd5b3480156101de57600080fd5b506101f26101ed3660046127a3565b6105cd565b60405190151581526020015b60405180910390f35b34801561021357600080fd5b5061021c61061f565b6040516101fe919061281d565b34801561023557600080fd5b50610249610244366004612845565b6106b2565b005b34801561025757600080fd5b50610279610266366004612862565b6000908152610136602052604090205490565b6040519081526020016101fe565b34801561029357600080fd5b506102496102a2366004612927565b61079a565b6102496102b536600461296c565b610a76565b3480156102c657600080fd5b50610279610b46565b3480156102db57600080fd5b506102496102ea3660046129d0565b610bf9565b3480156102fb57600080fd5b5061027961030a366004612a34565b610d43565b34801561031b57600080fd5b5061032f61032a366004612862565b610e00565b6040516001600160a01b0390911681526020016101fe565b34801561035357600080fd5b50610135546001600160a01b031661032f565b34801561037257600080fd5b50610279610381366004612845565b610e59565b34801561039257600080fd5b50610249610ee4565b3480156103a757600080fd5b506102496103b63660046129d0565b610ef8565b3480156103c757600080fd5b5060c9546001600160a01b031661032f565b3480156103e557600080fd5b506101f26103f4366004612862565b6101376020526000908152604090205460ff1681565b34801561041657600080fd5b5061021c61107a565b34801561042b57600080fd5b5061027961043a366004612ad2565b61108a565b34801561044b57600080fd5b5061027961045a366004612b86565b61115d565b34801561046b57600080fd5b5061027961047a366004612c09565b611219565b34801561048b57600080fd5b5061027961049a366004612862565b6101386020526000908152604090205481565b3480156104b957600080fd5b506102496104c8366004612845565b61124c565b3480156104d957600080fd5b5061021c6104e8366004612862565b611277565b3480156104f957600080fd5b50610279610508366004612ad2565b61137e565b34801561051957600080fd5b50610249610528366004612862565b611444565b34801561053957600080fd5b50610249610548366004612c4f565b611520565b34801561055957600080fd5b50610279610568366004612cff565b611691565b34801561057957600080fd5b506101f26105883660046129d0565b61172a565b34801561059957600080fd5b506102796105a8366004612b86565b61177e565b3480156105b957600080fd5b506102496105c8366004612845565b61182e565b60006001600160e01b03198216635b5e139f60e01b14806105fe57506001600160e01b031982166346bdd63960e11b145b8061061957506301ffc9a760e01b6001600160e01b03198316145b92915050565b6060610130805461062f90612d64565b80601f016020809104026020016040519081016040528092919081815260200182805461065b90612d64565b80156106a85780601f1061067d576101008083540402835291602001916106a8565b820191906000526020600020905b81548152906001019060200180831161068b57829003601f168201915b5050505050905090565b6001600160a01b037f00000000000000000000000000000000000000000000000000000000000000001630036107035760405162461bcd60e51b81526004016106fa90612d98565b60405180910390fd5b7f00000000000000000000000000000000000000000000000000000000000000006001600160a01b031661074c600080516020613126833981519152546001600160a01b031690565b6001600160a01b0316146107725760405162461bcd60e51b81526004016106fa90612de4565b61077b816118a4565b60408051600080825260208201909252610797918391906118ac565b50565b806040518060400160405280600a8152602001696372656174655370656360b01b8152506000816040516020016107d19190612e30565b60408051808303601f19018152908290526101355463b2a0cb6b60e01b83526004830186905290925033916001600160a01b039091169063b2a0cb6b90602401602060405180830381865afa15801561082e573d6000803e3d6000fd5b505050506040513d601f19601f820116820180604052508101906108529190612e62565b6001600160a01b031614819061087b5760405162461bcd60e51b81526004016106fa919061281d565b5061013554604051637e07102760e11b81526001600160a01b039091169063fc0e204e906108ad90889060040161281d565b602060405180830381865afa1580156108ca573d6000803e3d6000fd5b505050506040513d601f19601f820116820180604052508101906108ee9190612e7f565b156109475760405162461bcd60e51b815260206004820152602360248201527f637265617465537065633a207370656320616c726561647920726567697374656044820152621c995960ea1b60648201526084016106fa565b6101355460405163addd190760e01b81526001600160a01b039091169063addd19079061097a9088908890600401612ea1565b600060405180830381600087803b15801561099457600080fd5b505af11580156109a8573d6000803e3d6000fd5b5050505061013560009054906101000a90046001600160a01b03166001600160a01b03166334f876626040518163ffffffff1660e01b8152600401602060405180830381865afa158015610a00573d6000803e3d6000fd5b505050506040513d601f19601f82011682018060405250810190610a249190612e62565b6001600160a01b031684336001600160a01b03167f68c7f8503283c455a4445b54a7d5c40656c8cae5cca0583c6d4be8369847870088604051610a67919061281d565b60405180910390a45050505050565b6001600160a01b037f0000000000000000000000000000000000000000000000000000000000000000163003610abe5760405162461bcd60e51b81526004016106fa90612d98565b7f00000000000000000000000000000000000000000000000000000000000000006001600160a01b0316610b07600080516020613126833981519152546001600160a01b031690565b6001600160a01b031614610b2d5760405162461bcd60e51b81526004016106fa90612de4565b610b36826118a4565b610b42828260016118ac565b5050565b6000306001600160a01b037f00000000000000000000000000000000000000000000000000000000000000001614610be65760405162461bcd60e51b815260206004820152603860248201527f555550535570677261646561626c653a206d757374206e6f742062652063616c60448201527f6c6564207468726f7567682064656c656761746563616c6c000000000000000060648201526084016106fa565b5060008051602061312683398151915290565b816040518060400160405280600b81526020016a7265766f6b65426164676560a81b815250600081604051602001610c319190612e30565b60408051808303601f19018152908290526101355463b2a0cb6b60e01b83526004830186905290925033916001600160a01b039091169063b2a0cb6b90602401602060405180830381865afa158015610c8e573d6000803e3d6000fd5b505050506040513d601f19601f82011682018060405250810190610cb29190612e62565b6001600160a01b0316148190610cdb5760405162461bcd60e51b81526004016106fa919061281d565b50600084815261013760209081526040808320805460ff191660011790556101329091528082205490516001600160a01b03909116913391839188917f9e0dd31067b9106bc142828586d5813d314dbe03889bb067dcb27d7c7655d5859190a4505050505050565b6000807fedcf39fb0e04dd55fd92b71dcd8981b8bdb2c0f47b323ef117ee24ad996abac789898989604051610d79929190612ec3565b60405180910390208888604051610d91929190612ec3565b6040805191829003822060208301969096526001600160a01b0394851690820152929091166060830152608082015260a081019190915260c0810184905260e001604051602081830303815290604052805190602001209050610df381611a17565b9998505050505050505050565b6000818152610132602052604081205482906001600160a01b0316610e375760405162461bcd60e51b81526004016106fa90612ed3565b600083815261013260205260409020546001600160a01b031691505b50919050565b60006001600160a01b038216610ec75760405162461bcd60e51b815260206004820152602d60248201527f62616c616e63654f663a2061646472657373207a65726f206973206e6f74206160448201526c2076616c6964206f776e65725f60981b60648201526084016106fa565b506001600160a01b03166000908152610134602052604090205490565b610eec611a2a565b610ef66000611a84565b565b6000818152610132602052604090205481906001600160a01b0316610f2f5760405162461bcd60e51b81526004016106fa90612ed3565b826040518060400160405280600e81526020016d7265696e7374617465426164676560901b815250600081604051602001610f6a9190612e30565b60408051808303601f19018152908290526101355463b2a0cb6b60e01b83526004830186905290925033916001600160a01b039091169063b2a0cb6b90602401602060405180830381865afa158015610fc7573d6000803e3d6000fd5b505050506040513d601f19601f82011682018060405250810190610feb9190612e62565b6001600160a01b03161481906110145760405162461bcd60e51b81526004016106fa919061281d565b50600085815261013760209081526040808320805460ff191690556101329091528082205490516001600160a01b03909116913391839189917f8642fae7da350452a8fa08ab7217abfe7d426fa922721ab5dc0c7542c2d379469190a450505050505050565b6060610131805461062f90612d64565b60006001600160a01b03891633036110f55760405162461bcd60e51b815260206004820152602860248201527f676976654578706972696e6742616467653a2063616e6e6f74206769766520666044820152673937b69039b2b63360c11b60648201526084016106fa565b6000611108338b8b8b8b8b8b8b8b611ad6565b9050600061114e8b8b8b8080601f01602080910402602001604051908101604052809392919081815260200183838082843760009201829052509250879150611c079050565b9b9a5050505050505050505050565b60006001600160a01b03861633036111b75760405162461bcd60e51b815260206004820152601b60248201527f74616b653a2063616e6e6f742074616b652066726f6d2073656c66000000000060448201526064016106fa565b60006111c7338888888888611e9f565b9050600061120d3388888080601f01602080910402602001604051908101604052809392919081815260200183838082843760009201829052509250879150611c079050565b98975050505050505050565b6000828260405160200161122e929190612f08565b60405160208183030381529060405280519060200120905092915050565b611254611a2a565b61013580546001600160a01b0319166001600160a01b0392909216919091179055565b600081815261013260205260409020546060906001600160a01b03166112df5760405162461bcd60e51b815260206004820152601d60248201527f746f6b656e5552493a20746f6b656e20646f65736e277420657869737400000060448201526064016106fa565b60008281526101336020526040902080546112f990612d64565b80601f016020809104026020016040519081016040528092919081815260200182805461132590612d64565b80156113725780601f1061134757610100808354040283529160200191611372565b820191906000526020600020905b81548152906001019060200180831161135557829003601f168201915b50505050509050919050565b60006001600160a01b03891633036113e95760405162461bcd60e51b815260206004820152602860248201527f74616b654578706972696e6742616467653a2063616e6e6f742074616b6520666044820152673937b69039b2b63360c11b60648201526084016106fa565b60006113fc338b8b8b8b8b8b8b8b611ad6565b9050600061114e338b8b8080601f016020809104026020016040519081016040528093929190818152602001838380828437600092019190915250899250879150611c079050565b6000818152610132602052604090205481906001600160a01b031661147b5760405162461bcd60e51b81526004016106fa90612ed3565b600082815261013260205260409020546001600160a01b031633146114e25760405162461bcd60e51b815260206004820152601d60248201527f756e65717569703a2073656e646572206d757374206265206f776e657200000060448201526064016106fa565b60008281526101366020908152604080832054600881901c845261012f9092529091208054600160ff84161b1916905561151b83611fb7565b505050565b600054610100900460ff16158080156115405750600054600160ff909116105b8061155a5750303b15801561155a575060005460ff166001145b6115bd5760405162461bcd60e51b815260206004820152602e60248201527f496e697469616c697a61626c653a20636f6e747261637420697320616c72656160448201526d191e481a5b9a5d1a585b1a5e995960921b60648201526084016106fa565b6000805460ff1916600117905580156115e0576000805461ff0019166101001790555b6101306115ed8782612f7a565b506101316115fb8682612f7a565b5061013580546001600160a01b0319166001600160a01b0384161790556116206120a9565b6116286120d0565b61163286856120ff565b61163a6120a9565b6116438361182e565b8015611689576000805461ff0019169055604051600181527f7f26b83ff96e1f2b6a682f133852f6798a09c465da95921460cefb38474024989060200160405180910390a15b505050505050565b6000807fe76a195fbe43f0eaa611595069f780493db2202a1cc4b2d7d44b47069812998a868686866040516116c7929190612ec3565b6040519081900381206116ff949392916020019384526001600160a01b03928316602085015291166040830152606082015260800190565b60405160208183030381529060405280519060200120905061172081611a17565b9695505050505050565b6000828152610137602090815260408083205461013890925282205460ff90911615908290158061176957506000858152610138602052604090205484105b90508180156117755750805b95945050505050565b60006001600160a01b03861633036117d85760405162461bcd60e51b815260206004820152601b60248201527f676976653a2063616e6e6f7420676976652066726f6d2073656c66000000000060448201526064016106fa565b60006117e8338888888888611e9f565b9050600061120d8888888080601f01602080910402602001604051908101604052809392919081815260200183838082843760009201829052509250879150611c079050565b611836611a2a565b6001600160a01b03811661189b5760405162461bcd60e51b815260206004820152602660248201527f4f776e61626c653a206e6577206f776e657220697320746865207a65726f206160448201526564647265737360d01b60648201526084016106fa565b61079781611a84565b610797611a2a565b7f4910fdfa16fed3260ed0e7147f7cc6da11a60208b5b9406d12a635614ffd91435460ff16156118df5761151b83612130565b826001600160a01b03166352d1902d6040518163ffffffff1660e01b8152600401602060405180830381865afa925050508015611939575060408051601f3d908101601f191682019092526119369181019061303a565b60015b61199c5760405162461bcd60e51b815260206004820152602e60248201527f45524331393637557067726164653a206e657720696d706c656d656e7461746960448201526d6f6e206973206e6f74205555505360901b60648201526084016106fa565b6000805160206131268339815191528114611a0b5760405162461bcd60e51b815260206004820152602960248201527f45524331393637557067726164653a20756e737570706f727465642070726f786044820152681a58589b195555525160ba1b60648201526084016106fa565b5061151b8383836121cc565b6000610619611a246121f7565b83612277565b60c9546001600160a01b03163314610ef65760405162461bcd60e51b815260206004820181905260248201527f4f776e61626c653a2063616c6c6572206973206e6f7420746865206f776e657260448201526064016106fa565b60c980546001600160a01b038381166001600160a01b0319831681179093556040519116919082907f8be0079c531659141344cd1fd0a4f28419497f9722a3daafe3b4186f6b6457e090600090a35050565b600080611ae88b8b8b8b898989610d43565b905060008160001c9050611b338b838a8a8080601f01602080910402602001604051908101604052809392919081815260200183838082843760009201919091525061229e92505050565b611b915760405162461bcd60e51b815260206004820152602960248201527f73616665436865636b4578706972696e6742616467653a20696e76616c6964206044820152687369676e617475726560b81b60648201526084016106fa565b600881901c600090815261012f6020526040902054600160ff83161b161561114e5760405162461bcd60e51b8152602060048201526024808201527f73616665436865636b4578706972696e6742616467653a20616c7265616479206044820152631d5cd95960e21b60648201526084016106fa565b61013554604051633664a8e960e01b815260009182916001600160a01b0390911690633664a8e990611c3d90889060040161281d565b602060405180830381865afa158015611c5a573d6000803e3d6000fd5b505050506040513d601f19601f82011682018060405250810190611c7e919061303a565b90506000611c8c8787611219565b9050806000839003611ce05760405162461bcd60e51b815260206004820152601c60248201527f6d696e743a2073706563206973206e6f7420726567697374657265640000000060448201526064016106fa565b600081815261013260205260409020546001600160a01b031615611d3d5760405162461bcd60e51b81526020600482015260146024820152736d696e743a20746f6b656e49442065786973747360601b60448201526064016106fa565b6001600160a01b038816600090815261013460205260408120805460019290611d67908490613069565b909155505060008181526101326020908152604080832080546001600160a01b0319166001600160a01b038d161790556101339091529020611da98882612f7a565b50600885901c600090815261012f602052604090208054600160ff88161b1790556000818152610136602052604090208590558515611df5576000818152610138602052604090208690555b60405181906001600160a01b038a16906000907fddf252ad1be2c89b69c2b068fc378daa952ba7f163c4a11628f55a4df523b3ef908290a46101355460405163fb74926160e01b815260048101839052602481018590526001600160a01b039091169063fb74926190604401600060405180830381600087803b158015611e7b57600080fd5b505af1158015611e8f573d6000803e3d6000fd5b50929a9950505050505050505050565b600080611eae88888888611691565b9050611ef1878286868080601f01602080910402602001604051908101604052809392919081815260200183838082843760009201919091525061229e92505050565b611f4b5760405162461bcd60e51b815260206004820152602560248201527f73616665436865636b41677265656d656e743a20696e76616c6964207369676e604482015264617475726560d81b60648201526084016106fa565b600881901c600090815261012f60205260409020548190600160ff83161b161561120d5760405162461bcd60e51b815260206004820181905260248201527f73616665436865636b41677265656d656e743a20616c7265616479207573656460448201526064016106fa565b6000818152610132602052604090205481906001600160a01b0316611fee5760405162461bcd60e51b81526004016106fa90612ed3565b600082815261013260209081526040808320546001600160a01b031680845261013490925282208054919260019261202790849061307c565b909155505060008381526101326020908152604080832080546001600160a01b0319169055610133909152812061205d91612755565b60008381526101366020526040808220829055518491906001600160a01b038416907fddf252ad1be2c89b69c2b068fc378daa952ba7f163c4a11628f55a4df523b3ef908390a4505050565b600054610100900460ff16610ef65760405162461bcd60e51b81526004016106fa9061308f565b600054610100900460ff166120f75760405162461bcd60e51b81526004016106fa9061308f565b610ef66123e2565b600054610100900460ff166121265760405162461bcd60e51b81526004016106fa9061308f565b610b428282612412565b6001600160a01b0381163b61219d5760405162461bcd60e51b815260206004820152602d60248201527f455243313936373a206e657720696d706c656d656e746174696f6e206973206e60448201526c1bdd08184818dbdb9d1c9858dd609a1b60648201526084016106fa565b60008051602061312683398151915280546001600160a01b0319166001600160a01b0392909216919091179055565b6121d583612453565b6000825111806121e25750805b1561151b576121f18383612493565b50505050565b60006122727f8b73c3c69bb8fe3d512ecc4cf759cc79239f7b179b0ffacaa9a75d522b39400f61222660fb5490565b60fc546040805160208101859052908101839052606081018290524660808201523060a082015260009060c0016040516020818303038152906040528051906020012090509392505050565b905090565b60405161190160f01b6020820152602281018390526042810182905260009060620161122e565b60008060006122ad858561257e565b909250905060008160048111156122c6576122c66130da565b1480156122e45750856001600160a01b0316826001600160a01b0316145b156122f4576001925050506123db565b600080876001600160a01b0316631626ba7e60e01b888860405160240161231c9291906130f0565b60408051601f198184030181529181526020820180516001600160e01b03166001600160e01b031990941693909317909252905161235a9190613109565b600060405180830381855afa9150503d8060008114612395576040519150601f19603f3d011682016040523d82523d6000602084013e61239a565b606091505b50915091508180156123ad575080516020145b80156123d457508051630b135d3f60e11b906123d2908301602090810190840161303a565b145b9450505050505b9392505050565b600054610100900460ff166124095760405162461bcd60e51b81526004016106fa9061308f565b610ef633611a84565b600054610100900460ff166124395760405162461bcd60e51b81526004016106fa9061308f565b81516020928301208151919092012060fb9190915560fc55565b61245c81612130565b6040516001600160a01b038216907fbc7cd75a20ee27fd9adebab32041f755214dbc6bffa90cc0225b39da2e5c2d3b90600090a250565b60606001600160a01b0383163b6124fb5760405162461bcd60e51b815260206004820152602660248201527f416464726573733a2064656c65676174652063616c6c20746f206e6f6e2d636f6044820152651b9d1c9858dd60d21b60648201526084016106fa565b600080846001600160a01b0316846040516125169190613109565b600060405180830381855af49150503d8060008114612551576040519150601f19603f3d011682016040523d82523d6000602084013e612556565b606091505b50915091506117758282604051806060016040528060278152602001613146602791396125ec565b60008082516041036125b45760208301516040840151606085015160001a6125a887828585612605565b945094505050506125e5565b82516040036125dd57602083015160408401516125d28683836126f2565b9350935050506125e5565b506000905060025b9250929050565b606083156125fb5750816123db565b6123db838361272b565b6000807f7fffffffffffffffffffffffffffffff5d576e7357a4501ddfe92f46681b20a083111561263c57506000905060036126e9565b8460ff16601b1415801561265457508460ff16601c14155b1561266557506000905060046126e9565b6040805160008082526020820180845289905260ff881692820192909252606081018690526080810185905260019060a0016020604051602081039080840390855afa1580156126b9573d6000803e3d6000fd5b5050604051601f1901519150506001600160a01b0381166126e2576000600192509250506126e9565b9150600090505b94509492505050565b6000806001600160ff1b0383168161270f60ff86901c601b613069565b905061271d87828885612605565b935093505050935093915050565b81511561273b5781518083602001fd5b8060405162461bcd60e51b81526004016106fa919061281d565b50805461276190612d64565b6000825580601f10612771575050565b601f01602090049060005260206000209081019061079791905b8082111561279f576000815560010161278b565b5090565b6000602082840312156127b557600080fd5b81356001600160e01b0319811681146123db57600080fd5b60005b838110156127e85781810151838201526020016127d0565b50506000910152565b600081518084526128098160208601602086016127cd565b601f01601f19169290920160200192915050565b6020815260006123db60208301846127f1565b6001600160a01b038116811461079757600080fd5b60006020828403121561285757600080fd5b81356123db81612830565b60006020828403121561287457600080fd5b5035919050565b634e487b7160e01b600052604160045260246000fd5b600067ffffffffffffffff808411156128ac576128ac61287b565b604051601f8501601f19908116603f011681019082821181831017156128d4576128d461287b565b816040528093508581528686860111156128ed57600080fd5b858560208301376000602087830101525050509392505050565b600082601f83011261291857600080fd5b6123db83833560208501612891565b6000806040838503121561293a57600080fd5b823567ffffffffffffffff81111561295157600080fd5b61295d85828601612907565b95602094909401359450505050565b6000806040838503121561297f57600080fd5b823561298a81612830565b9150602083013567ffffffffffffffff8111156129a657600080fd5b8301601f810185136129b757600080fd5b6129c685823560208401612891565b9150509250929050565b600080604083850312156129e357600080fd5b50508035926020909101359150565b60008083601f840112612a0457600080fd5b50813567ffffffffffffffff811115612a1c57600080fd5b6020830191508360208285010111156125e557600080fd5b600080600080600080600060a0888a031215612a4f57600080fd5b8735612a5a81612830565b96506020880135612a6a81612830565b9550604088013567ffffffffffffffff80821115612a8757600080fd5b612a938b838c016129f2565b909750955060608a0135915080821115612aac57600080fd5b50612ab98a828b016129f2565b989b979a50959894979596608090950135949350505050565b60008060008060008060008060a0898b031215612aee57600080fd5b8835612af981612830565b9750602089013567ffffffffffffffff80821115612b1657600080fd5b612b228c838d016129f2565b909950975060408b0135915080821115612b3b57600080fd5b612b478c838d016129f2565b909750955060608b0135915080821115612b6057600080fd5b50612b6d8b828c016129f2565b999c989b50969995989497949560800135949350505050565b600080600080600060608688031215612b9e57600080fd5b8535612ba981612830565b9450602086013567ffffffffffffffff80821115612bc657600080fd5b612bd289838a016129f2565b90965094506040880135915080821115612beb57600080fd5b50612bf8888289016129f2565b969995985093965092949392505050565b60008060408385031215612c1c57600080fd5b8235612c2781612830565b9150602083013567ffffffffffffffff811115612c4357600080fd5b6129c685828601612907565b600080600080600060a08688031215612c6757600080fd5b853567ffffffffffffffff80821115612c7f57600080fd5b612c8b89838a01612907565b96506020880135915080821115612ca157600080fd5b612cad89838a01612907565b95506040880135915080821115612cc357600080fd5b50612cd088828901612907565b9350506060860135612ce181612830565b91506080860135612cf181612830565b809150509295509295909350565b60008060008060608587031215612d1557600080fd5b8435612d2081612830565b93506020850135612d3081612830565b9250604085013567ffffffffffffffff811115612d4c57600080fd5b612d58878288016129f2565b95989497509550505050565b600181811c90821680612d7857607f821691505b602082108103610e5357634e487b7160e01b600052602260045260246000fd5b6020808252602c908201527f46756e6374696f6e206d7573742062652063616c6c6564207468726f7567682060408201526b19195b1959d85d1958d85b1b60a21b606082015260800190565b6020808252602c908201527f46756e6374696f6e206d7573742062652063616c6c6564207468726f7567682060408201526b6163746976652070726f787960a01b606082015260800190565b60008251612e428184602087016127cd565b6d0e881d5b985d5d1a1bdc9a5e995960921b920191825250600e01919050565b600060208284031215612e7457600080fd5b81516123db81612830565b600060208284031215612e9157600080fd5b815180151581146123db57600080fd5b604081526000612eb460408301856127f1565b90508260208301529392505050565b8183823760009101908152919050565b6020808252818101527f746f6b656e4578697374733a20746f6b656e20646f65736e2774206578697374604082015260600190565b6001600160a01b0383168152604060208201819052600090612f2c908301846127f1565b949350505050565b601f82111561151b57600081815260208120601f850160051c81016020861015612f5b5750805b601f850160051c820191505b8181101561168957828155600101612f67565b815167ffffffffffffffff811115612f9457612f9461287b565b612fa881612fa28454612d64565b84612f34565b602080601f831160018114612fdd5760008415612fc55750858301515b600019600386901b1c1916600185901b178555611689565b600085815260208120601f198616915b8281101561300c57888601518255948401946001909101908401612fed565b508582101561302a5787850151600019600388901b60f8161c191681555b5050505050600190811b01905550565b60006020828403121561304c57600080fd5b5051919050565b634e487b7160e01b600052601160045260246000fd5b8082018082111561061957610619613053565b8181038181111561061957610619613053565b6020808252602b908201527f496e697469616c697a61626c653a20636f6e7472616374206973206e6f74206960408201526a6e697469616c697a696e6760a81b606082015260800190565b634e487b7160e01b600052602160045260246000fd5b828152604060208201526000612f2c60408301846127f1565b6000825161311b8184602087016127cd565b919091019291505056fe360894a13ba1a3210667c828492db98dca3e2076cc3735a920a3ca505d382bbc416464726573733a206c6f772d6c6576656c2064656c65676174652063616c6c206661696c6564a26469706673582212209475a3e0bcac905a045353225f8171b14678a1fbd50fcb50273500be6a8d1fa164736f6c63430008100033",
    "linkReferences": {}
  },
  "methodIdentifiers": {
    "badgeExpirationDates(uint256)": "abe3078b",
    "balanceOf(address)": "70a08231",
    "createSpec(string,uint256)": "445a62b9",
    "getAgreementHash(address,address,string)": "e4992506",
    "getBadgeIdHash(address,string)": "a8cf8683",
    "getDataHolderAddress()": "635ad993",
    "getExpiringBadgeHash(address,address,string,string,uint256)": "5560a5b3",
    "getVoucherHash(uint256)": "3b363a09",
    "give(address,string,bytes)": "ec64948e",
    "giveExpiringBadge(address,string,bytes,string,uint256)": "a0de8f84",
    "initialize(string,string,string,address,address)": "d6d0faee",
    "isBadgeValid(uint256,uint256)": "e6848939",
    "name()": "06fdde03",
    "owner()": "8da5cb5b",
    "ownerOf(uint256)": "6352211e",
    "proxiableUUID()": "52d1902d",
    "reinstateBadge(uint256,uint256)": "80956c7e",
    "renounceOwnership()": "715018a6",
    "revokeBadge(uint256,uint256)": "5329ae0c",
    "revokedBadges(uint256)": "91cf236e",
    "setDataHolder(address)": "c0184112",
    "supportsInterface(bytes4)": "01ffc9a7",
    "symbol()": "95d89b41",
    "take(address,string,bytes)": "a3947803",
    "takeExpiringBadge(address,string,bytes,string,uint256)": "ccb1dfdd",
    "tokenURI(uint256)": "c87b56dd",
    "transferOwnership(address)": "f2fde38b",
    "unequip(uint256)": "d179e3d0",
    "upgradeTo(address)": "3659cfe6",
    "upgradeToAndCall(address,bytes)": "4f1ef286"
  },
  "id": 43
}