{
  "abi": [
    {
      "inputs": [],
      "stateMutability": "nonpayable",
      "type": "constructor"
    },
    {
      "anonymous": false,
      "inputs": [
        {
          "indexed": false,
          "internalType": "address",
          "name": "previousAdmin",
          "type": "address"
        },
        {
          "indexed": false,
          "internalType": "address",
          "name": "newAdmin",
          "type": "address"
        }
      ],
      "name": "AdminChanged",
      "type": "event"
    },
    {
      "anonymous": false,
      "inputs": [
        {
          "indexed": true,
          "internalType": "address",
          "name": "beacon",
          "type": "address"
        }
      ],
      "name": "BeaconUpgraded",
      "type": "event"
    },
    {
      "anonymous": false,
      "inputs": [
        {
          "indexed": false,
          "internalType": "uint8",
          "name": "version",
          "type": "uint8"
        }
      ],
      "name": "Initialized",
      "type": "event"
    },
    {
      "anonymous": false,
      "inputs": [
        {
          "indexed": true,
          "internalType": "address",
          "name": "previousOwner",
          "type": "address"
        },
        {
          "indexed": true,
          "internalType": "address",
          "name": "newOwner",
          "type": "address"
        }
      ],
      "name": "OwnershipTransferred",
      "type": "event"
    },
    {
      "anonymous": false,
      "inputs": [
        {
          "indexed": true,
          "internalType": "address",
          "name": "to",
          "type": "address"
        },
        {
          "indexed": false,
          "internalType": "string",
          "name": "specUri",
          "type": "string"
        },
        {
          "indexed": true,
          "internalType": "uint256",
          "name": "raftTokenId",
          "type": "uint256"
        },
        {
          "indexed": true,
          "internalType": "address",
          "name": "raftAddress",
          "type": "address"
        }
      ],
      "name": "SpecCreated",
      "type": "event"
    },
    {
      "anonymous": false,
      "inputs": [
        {
          "indexed": true,
          "internalType": "address",
          "name": "from",
          "type": "address"
        },
        {
          "indexed": true,
          "internalType": "address",
          "name": "to",
          "type": "address"
        },
        {
          "indexed": true,
          "internalType": "uint256",
          "name": "tokenId",
          "type": "uint256"
        }
      ],
      "name": "Transfer",
      "type": "event"
    },
    {
      "anonymous": false,
      "inputs": [
        {
          "indexed": true,
          "internalType": "address",
          "name": "implementation",
          "type": "address"
        }
      ],
      "name": "Upgraded",
      "type": "event"
    },
    {
      "inputs": [
        {
          "internalType": "uint256",
          "name": "",
          "type": "uint256"
        }
      ],
      "name": "badgeExpirationDates",
      "outputs": [
        {
          "internalType": "uint256",
          "name": "",
          "type": "uint256"
        }
      ],
      "stateMutability": "view",
      "type": "function"
    },
    {
      "inputs": [
        {
          "internalType": "address",
          "name": "_owner",
          "type": "address"
        }
      ],
      "name": "balanceOf",
      "outputs": [
        {
          "internalType": "uint256",
          "name": "",
          "type": "uint256"
        }
      ],
      "stateMutability": "view",
      "type": "function"
    },
    {
      "inputs": [
        {
          "internalType": "string",
          "name": "_specUri",
          "type": "string"
        },
        {
          "internalType": "uint256",
          "name": "_raftTokenId",
          "type": "uint256"
        }
      ],
      "name": "createSpec",
      "outputs": [],
      "stateMutability": "nonpayable",
      "type": "function"
    },
    {
      "inputs": [
        {
          "internalType": "address",
          "name": "_from",
          "type": "address"
        },
        {
          "internalType": "address",
          "name": "_to",
          "type": "address"
        },
        {
          "internalType": "string",
          "name": "_uri",
          "type": "string"
        }
      ],
      "name": "getAgreementHash",
      "outputs": [
        {
          "internalType": "bytes32",
          "name": "",
          "type": "bytes32"
        }
      ],
      "stateMutability": "view",
      "type": "function"
    },
    {
      "inputs": [
        {
          "internalType": "address",
          "name": "_to",
          "type": "address"
        },
        {
          "internalType": "string",
          "name": "_uri",
          "type": "string"
        }
      ],
      "name": "getBadgeIdHash",
      "outputs": [
        {
          "internalType": "bytes32",
          "name": "",
          "type": "bytes32"
        }
      ],
      "stateMutability": "view",
      "type": "function"
    },
    {
      "inputs": [],
      "name": "getDataHolderAddress",
      "outputs": [
        {
          "internalType": "address",
          "name": "",
          "type": "address"
        }
      ],
      "stateMutability": "view",
      "type": "function"
    },
    {
      "inputs": [
        {
          "internalType": "address",
          "name": "_from",
          "type": "address"
        },
        {
          "internalType": "address",
          "name": "_to",
          "type": "address"
        },
        {
          "internalType": "string",
          "name": "_uri",
          "type": "string"
        },
        {
          "internalType": "string",
          "name": "_expirationType",
          "type": "string"
        },
        {
          "internalType": "uint256",
          "name": "_expirationValue",
          "type": "uint256"
        }
      ],
      "name": "getExpiringBadgeHash",
      "outputs": [
        {
          "internalType": "bytes32",
          "name": "",
          "type": "bytes32"
        }
      ],
      "stateMutability": "view",
      "type": "function"
    },
    {
      "inputs": [
        {
          "internalType": "uint256",
          "name": "_tokenId",
          "type": "uint256"
        }
      ],
      "name": "getVoucherHash",
      "outputs": [
        {
          "internalType": "uint256",
          "name": "",
          "type": "uint256"
        }
      ],
      "stateMutability": "view",
      "type": "function"
    },
    {
      "inputs": [
        {
          "internalType": "address",
          "name": "_to",
          "type": "address"
        },
        {
          "internalType": "string",
          "name": "_uri",
          "type": "string"
        },
        {
          "internalType": "bytes",
          "name": "_signature",
          "type": "bytes"
        }
      ],
      "name": "give",
      "outputs": [
        {
          "internalType": "uint256",
          "name": "",
          "type": "uint256"
        }
      ],
      "stateMutability": "nonpayable",
      "type": "function"
    },
    {
      "inputs": [
        {
          "internalType": "address",
          "name": "_to",
          "type": "address"
        },
        {
          "internalType": "string",
          "name": "_uri",
          "type": "string"
        },
        {
          "internalType": "bytes",
          "name": "_signature",
          "type": "bytes"
        },
        {
          "internalType": "string",
          "name": "_expirationType",
          "type": "string"
        },
        {
          "internalType": "uint256",
          "name": "_expirationValue",
          "type": "uint256"
        }
      ],
      "name": "giveExpiringBadge",
      "outputs": [
        {
          "internalType": "uint256",
          "name": "",
          "type": "uint256"
        }
      ],
      "stateMutability": "nonpayable",
      "type": "function"
    },
    {
      "inputs": [
        {
          "internalType": "string",
          "name": "_name",
          "type": "string"
        },
        {
          "internalType": "string",
          "name": "_symbol",
          "type": "string"
        },
        {
          "internalType": "string",
          "name": "_version",
          "type": "string"
        },
        {
          "internalType": "address",
          "name": "_nextOwner",
          "type": "address"
        },
        {
          "internalType": "address",
          "name": "_specDataHolderAddress",
          "type": "address"
        }
      ],
      "name": "initialize",
      "outputs": [],
      "stateMutability": "nonpayable",
      "type": "function"
    },
    {
      "inputs": [
        {
          "internalType": "uint256",
          "name": "_badgeId",
          "type": "uint256"
        },
        {
          "internalType": "uint256",
          "name": "timestamp",
          "type": "uint256"
        }
      ],
      "name": "isBadgeValid",
      "outputs": [
        {
          "internalType": "bool",
          "name": "",
          "type": "bool"
        }
      ],
      "stateMutability": "view",
      "type": "function"
    },
    {
      "inputs": [],
      "name": "name",
      "outputs": [
        {
          "internalType": "string",
          "name": "",
          "type": "string"
        }
      ],
      "stateMutability": "view",
      "type": "function"
    },
    {
      "inputs": [],
      "name": "owner",
      "outputs": [
        {
          "internalType": "address",
          "name": "",
          "type": "address"
        }
      ],
      "stateMutability": "view",
      "type": "function"
    },
    {
      "inputs": [
        {
          "internalType": "uint256",
          "name": "_tokenId",
          "type": "uint256"
        }
      ],
      "name": "ownerOf",
      "outputs": [
        {
          "internalType": "address",
          "name": "",
          "type": "address"
        }
      ],
      "stateMutability": "view",
      "type": "function"
    },
    {
      "inputs": [],
      "name": "proxiableUUID",
      "outputs": [
        {
          "internalType": "bytes32",
          "name": "",
          "type": "bytes32"
        }
      ],
      "stateMutability": "view",
      "type": "function"
    },
    {
      "inputs": [
        {
          "internalType": "uint256",
          "name": "_raftTokenId",
          "type": "uint256"
        },
        {
          "internalType": "uint256",
          "name": "_badgeId",
          "type": "uint256"
        }
      ],
      "name": "reinstateBadge",
      "outputs": [],
      "stateMutability": "nonpayable",
      "type": "function"
    },
    {
      "inputs": [],
      "name": "renounceOwnership",
      "outputs": [],
      "stateMutability": "nonpayable",
      "type": "function"
    },
    {
      "inputs": [
        {
          "internalType": "uint256",
          "name": "_raftTokenId",
          "type": "uint256"
        },
        {
          "internalType": "uint256",
          "name": "_badgeId",
          "type": "uint256"
        }
      ],
      "name": "revokeBadge",
      "outputs": [],
      "stateMutability": "nonpayable",
      "type": "function"
    },
    {
      "inputs": [
        {
          "internalType": "uint256",
          "name": "",
          "type": "uint256"
        }
      ],
      "name": "revokedBadges",
      "outputs": [
        {
          "internalType": "bool",
          "name": "",
          "type": "bool"
        }
      ],
      "stateMutability": "view",
      "type": "function"
    },
    {
      "inputs": [
        {
          "internalType": "address",
          "name": "_dataHolder",
          "type": "address"
        }
      ],
      "name": "setDataHolder",
      "outputs": [],
      "stateMutability": "nonpayable",
      "type": "function"
    },
    {
      "inputs": [
        {
          "internalType": "bytes4",
          "name": "_interfaceId",
          "type": "bytes4"
        }
      ],
      "name": "supportsInterface",
      "outputs": [
        {
          "internalType": "bool",
          "name": "",
          "type": "bool"
        }
      ],
      "stateMutability": "view",
      "type": "function"
    },
    {
      "inputs": [],
      "name": "symbol",
      "outputs": [
        {
          "internalType": "string",
          "name": "",
          "type": "string"
        }
      ],
      "stateMutability": "view",
      "type": "function"
    },
    {
      "inputs": [
        {
          "internalType": "address",
          "name": "_from",
          "type": "address"
        },
        {
          "internalType": "string",
          "name": "_uri",
          "type": "string"
        },
        {
          "internalType": "bytes",
          "name": "_signature",
          "type": "bytes"
        }
      ],
      "name": "take",
      "outputs": [
        {
          "internalType": "uint256",
          "name": "",
          "type": "uint256"
        }
      ],
      "stateMutability": "nonpayable",
      "type": "function"
    },
    {
      "inputs": [
        {
          "internalType": "address",
          "name": "_from",
          "type": "address"
        },
        {
          "internalType": "string",
          "name": "_uri",
          "type": "string"
        },
        {
          "internalType": "bytes",
          "name": "_signature",
          "type": "bytes"
        },
        {
          "internalType": "string",
          "name": "_expirationType",
          "type": "string"
        },
        {
          "internalType": "uint256",
          "name": "_expirationValue",
          "type": "uint256"
        }
      ],
      "name": "takeExpiringBadge",
      "outputs": [
        {
          "internalType": "uint256",
          "name": "",
          "type": "uint256"
        }
      ],
      "stateMutability": "nonpayable",
      "type": "function"
    },
    {
      "inputs": [
        {
          "internalType": "uint256",
          "name": "_tokenId",
          "type": "uint256"
        }
      ],
      "name": "tokenURI",
      "outputs": [
        {
          "internalType": "string",
          "name": "",
          "type": "string"
        }
      ],
      "stateMutability": "view",
      "type": "function"
    },
    {
      "inputs": [
        {
          "internalType": "address",
          "name": "newOwner",
          "type": "address"
        }
      ],
      "name": "transferOwnership",
      "outputs": [],
      "stateMutability": "nonpayable",
      "type": "function"
    },
    {
      "inputs": [
        {
          "internalType": "uint256",
          "name": "_tokenId",
          "type": "uint256"
        }
      ],
      "name": "unequip",
      "outputs": [],
      "stateMutability": "nonpayable",
      "type": "function"
    },
    {
      "inputs": [
        {
          "internalType": "uint256",
          "name": "_raftTokenId",
          "type": "uint256"
        },
        {
          "internalType": "uint256",
          "name": "_timestamp",
          "type": "uint256"
        },
        {
          "internalType": "uint256",
          "name": "_badgeId",
          "type": "uint256"
        }
      ],
      "name": "updateExpiration",
      "outputs": [],
      "stateMutability": "nonpayable",
      "type": "function"
    },
    {
      "inputs": [
        {
          "internalType": "address",
          "name": "newImplementation",
          "type": "address"
        }
      ],
      "name": "upgradeTo",
      "outputs": [],
      "stateMutability": "nonpayable",
      "type": "function"
    },
    {
      "inputs": [
        {
          "internalType": "address",
          "name": "newImplementation",
          "type": "address"
        },
        {
          "internalType": "bytes",
          "name": "data",
          "type": "bytes"
        }
      ],
      "name": "upgradeToAndCall",
      "outputs": [],
      "stateMutability": "payable",
      "type": "function"
    }
  ],
  "bytecode": {
    "object": "0x60a0604052306080523480156200001557600080fd5b506200002062000026565b620000e8565b600054610100900460ff1615620000935760405162461bcd60e51b815260206004820152602760248201527f496e697469616c697a61626c653a20636f6e747261637420697320696e697469604482015266616c697a696e6760c81b606482015260840160405180910390fd5b60005460ff9081161015620000e6576000805460ff191660ff9081179091556040519081527f7f26b83ff96e1f2b6a682f133852f6798a09c465da95921460cefb38474024989060200160405180910390a15b565b6080516131b062000120600039600081816106e70152818161073001528181610a5f01528181610a9f0152610b3201526131b06000f3fe6080604052600436106101d85760003560e01c806391cf236e11610102578063c87b56dd11610095578063e499250611610064578063e499250614610578578063e684893914610598578063ec64948e146105b8578063f2fde38b146105d857600080fd5b8063c87b56dd146104f8578063ccb1dfdd14610518578063d179e3d014610538578063d6d0faee1461055857600080fd5b8063a8cf8683116100d1578063a8cf86831461046a578063abe3078b1461048a578063be60c8f3146104b8578063c0184112146104d857600080fd5b806391cf236e146103e457806395d89b4114610415578063a0de8f841461042a578063a39478031461044a57600080fd5b80635329ae0c1161017a57806370a082311161014957806370a0823114610371578063715018a61461039157806380956c7e146103a65780638da5cb5b146103c657600080fd5b80635329ae0c146102da5780635560a5b3146102fa5780636352211e1461031a578063635ad9931461035257600080fd5b80633b363a09116101b65780633b363a0914610256578063445a62b9146102925780634f1ef286146102b257806352d1902d146102c557600080fd5b806301ffc9a7146101dd57806306fdde03146102125780633659cfe614610234575b600080fd5b3480156101e957600080fd5b506101fd6101f8366004612780565b6105f8565b60405190151581526020015b60405180910390f35b34801561021e57600080fd5b5061022761064a565b60405161020991906127fa565b34801561024057600080fd5b5061025461024f366004612822565b6106dd565b005b34801561026257600080fd5b5061028461027136600461283f565b6000908152610136602052604090205490565b604051908152602001610209565b34801561029e57600080fd5b506102546102ad366004612904565b6107c5565b6102546102c0366004612949565b610a55565b3480156102d157600080fd5b50610284610b25565b3480156102e657600080fd5b506102546102f53660046129ad565b610bd8565b34801561030657600080fd5b50610284610315366004612a11565b610c8e565b34801561032657600080fd5b5061033a61033536600461283f565b610d4b565b6040516001600160a01b039091168152602001610209565b34801561035e57600080fd5b50610135546001600160a01b031661033a565b34801561037d57600080fd5b5061028461038c366004612822565b610da4565b34801561039d57600080fd5b50610254610e2f565b3480156103b257600080fd5b506102546103c13660046129ad565b610e43565b3480156103d257600080fd5b5060c9546001600160a01b031661033a565b3480156103f057600080fd5b506101fd6103ff36600461283f565b6101376020526000908152604090205460ff1681565b34801561042157600080fd5b50610227610f2e565b34801561043657600080fd5b50610284610445366004612aaf565b610f3e565b34801561045657600080fd5b50610284610465366004612b63565b611042565b34801561047657600080fd5b50610284610485366004612be6565b61112f565b34801561049657600080fd5b506102846104a536600461283f565b6101386020526000908152604090205481565b3480156104c457600080fd5b506102546104d3366004612c2c565b611162565b3480156104e457600080fd5b506102546104f3366004612822565b611246565b34801561050457600080fd5b5061022761051336600461283f565b611271565b34801561052457600080fd5b50610284610533366004612aaf565b611378565b34801561054457600080fd5b5061025461055336600461283f565b61143c565b34801561056457600080fd5b50610254610573366004612c58565b611518565b34801561058457600080fd5b50610284610593366004612d08565b611689565b3480156105a457600080fd5b506101fd6105b33660046129ad565b611722565b3480156105c457600080fd5b506102846105d3366004612b63565b611776565b3480156105e457600080fd5b506102546105f3366004612822565b611824565b60006001600160e01b03198216635b5e139f60e01b148061062957506001600160e01b031982166346bdd63960e11b145b8061064457506301ffc9a760e01b6001600160e01b03198316145b92915050565b6060610130805461065a90612d6d565b80601f016020809104026020016040519081016040528092919081815260200182805461068690612d6d565b80156106d35780601f106106a8576101008083540402835291602001916106d3565b820191906000526020600020905b8154815290600101906020018083116106b657829003601f168201915b5050505050905090565b6001600160a01b037f000000000000000000000000000000000000000000000000000000000000000016300361072e5760405162461bcd60e51b815260040161072590612da1565b60405180910390fd5b7f00000000000000000000000000000000000000000000000000000000000000006001600160a01b0316610777600080516020613134833981519152546001600160a01b031690565b6001600160a01b03161461079d5760405162461bcd60e51b815260040161072590612ded565b6107a68161189a565b604080516000808252602082019092526107c2918391906118a2565b50565b6101355460405163b2a0cb6b60e01b815260048101839052829133916001600160a01b039091169063b2a0cb6b90602401602060405180830381865afa158015610813573d6000803e3d6000fd5b505050506040513d601f19601f820116820180604052508101906108379190612e39565b6001600160a01b03161461085d5760405162461bcd60e51b815260040161072590612e56565b61013554604051637e07102760e11b81526001600160a01b039091169063fc0e204e9061088e9086906004016127fa565b602060405180830381865afa1580156108ab573d6000803e3d6000fd5b505050506040513d601f19601f820116820180604052508101906108cf9190612e8d565b156109285760405162461bcd60e51b815260206004820152602360248201527f637265617465537065633a207370656320616c726561647920726567697374656044820152621c995960ea1b6064820152608401610725565b6101355460405163addd190760e01b81526001600160a01b039091169063addd19079061095b9086908690600401612eaf565b600060405180830381600087803b15801561097557600080fd5b505af1158015610989573d6000803e3d6000fd5b5050505061013560009054906101000a90046001600160a01b03166001600160a01b03166334f876626040518163ffffffff1660e01b8152600401602060405180830381865afa1580156109e1573d6000803e3d6000fd5b505050506040513d601f19601f82011682018060405250810190610a059190612e39565b6001600160a01b031682336001600160a01b03167f68c7f8503283c455a4445b54a7d5c40656c8cae5cca0583c6d4be8369847870086604051610a4891906127fa565b60405180910390a4505050565b6001600160a01b037f0000000000000000000000000000000000000000000000000000000000000000163003610a9d5760405162461bcd60e51b815260040161072590612da1565b7f00000000000000000000000000000000000000000000000000000000000000006001600160a01b0316610ae6600080516020613134833981519152546001600160a01b031690565b6001600160a01b031614610b0c5760405162461bcd60e51b815260040161072590612ded565b610b158261189a565b610b21828260016118a2565b5050565b6000306001600160a01b037f00000000000000000000000000000000000000000000000000000000000000001614610bc55760405162461bcd60e51b815260206004820152603860248201527f555550535570677261646561626c653a206d757374206e6f742062652063616c60448201527f6c6564207468726f7567682064656c656761746563616c6c00000000000000006064820152608401610725565b5060008051602061313483398151915290565b6101355460405163b2a0cb6b60e01b815260048101849052839133916001600160a01b039091169063b2a0cb6b90602401602060405180830381865afa158015610c26573d6000803e3d6000fd5b505050506040513d601f19601f82011682018060405250810190610c4a9190612e39565b6001600160a01b031614610c705760405162461bcd60e51b815260040161072590612e56565b50600090815261013760205260409020805460ff1916600117905550565b6000807fedcf39fb0e04dd55fd92b71dcd8981b8bdb2c0f47b323ef117ee24ad996abac789898989604051610cc4929190612ed1565b60405180910390208888604051610cdc929190612ed1565b6040805191829003822060208301969096526001600160a01b0394851690820152929091166060830152608082015260a081019190915260c0810184905260e001604051602081830303815290604052805190602001209050610d3e81611a0d565b9998505050505050505050565b6000818152610132602052604081205482906001600160a01b0316610d825760405162461bcd60e51b815260040161072590612ee1565b600083815261013260205260409020546001600160a01b031691505b50919050565b60006001600160a01b038216610e125760405162461bcd60e51b815260206004820152602d60248201527f62616c616e63654f663a2061646472657373207a65726f206973206e6f74206160448201526c2076616c6964206f776e65725f60981b6064820152608401610725565b506001600160a01b03166000908152610134602052604090205490565b610e37611a20565b610e416000611a7a565b565b6000818152610132602052604090205481906001600160a01b0316610e7a5760405162461bcd60e51b815260040161072590612ee1565b6101355460405163b2a0cb6b60e01b815260048101859052849133916001600160a01b039091169063b2a0cb6b90602401602060405180830381865afa158015610ec8573d6000803e3d6000fd5b505050506040513d601f19601f82011682018060405250810190610eec9190612e39565b6001600160a01b031614610f125760405162461bcd60e51b815260040161072590612e56565b5050600090815261013760205260409020805460ff1916905550565b6060610131805461065a90612d6d565b60006001600160a01b0389163303610fa95760405162461bcd60e51b815260206004820152602860248201527f676976654578706972696e6742616467653a2063616e6e6f74206769766520666044820152673937b69039b2b63360c11b6064820152608401610725565b6000610fbc338b8b8b8b8b8b8b8b611acc565b905060006110008b8b8b8080601f01602080910402602001604051908101604052809392919081815260200183838082843760009201829052509250611c0c915050565b600883901c600090815261012f602052604090208054600160ff86161b1790559050600081815261013660205260409020919091559998505050505050505050565b60006001600160a01b038616330361109c5760405162461bcd60e51b815260206004820152601b60248201527f74616b653a2063616e6e6f742074616b652066726f6d2073656c6600000000006044820152606401610725565b60006110ac338888888888611e73565b905060006110f03388888080601f01602080910402602001604051908101604052809392919081815260200183838082843760009201829052509250611c0c915050565b600883901c600090815261012f602052604090208054600160ff86161b1790559050600081815261013660205260409020919091559695505050505050565b60008282604051602001611144929190612f16565b60405160208183030381529060405280519060200120905092915050565b6000818152610132602052604090205481906001600160a01b03166111995760405162461bcd60e51b815260040161072590612ee1565b6101355460405163b2a0cb6b60e01b815260048101869052859133916001600160a01b039091169063b2a0cb6b90602401602060405180830381865afa1580156111e7573d6000803e3d6000fd5b505050506040513d601f19601f8201168201806040525081019061120b9190612e39565b6001600160a01b0316146112315760405162461bcd60e51b815260040161072590612e56565b50506000908152610138602052604090205550565b61124e611a20565b61013580546001600160a01b0319166001600160a01b0392909216919091179055565b600081815261013260205260409020546060906001600160a01b03166112d95760405162461bcd60e51b815260206004820152601d60248201527f746f6b656e5552493a20746f6b656e20646f65736e27742065786973740000006044820152606401610725565b60008281526101336020526040902080546112f390612d6d565b80601f016020809104026020016040519081016040528092919081815260200182805461131f90612d6d565b801561136c5780601f106113415761010080835404028352916020019161136c565b820191906000526020600020905b81548152906001019060200180831161134f57829003601f168201915b50505050509050919050565b60006001600160a01b03891633036113e35760405162461bcd60e51b815260206004820152602860248201527f74616b654578706972696e6742616467653a2063616e6e6f742074616b6520666044820152673937b69039b2b63360c11b6064820152608401610725565b60006113f6338b8b8b8b8b8b8b8b611acc565b90506000611000338b8b8080601f016020809104026020016040519081016040528093929190818152602001838380828437600092019190915250899250611c0c915050565b6000818152610132602052604090205481906001600160a01b03166114735760405162461bcd60e51b815260040161072590612ee1565b600082815261013260205260409020546001600160a01b031633146114da5760405162461bcd60e51b815260206004820152601d60248201527f756e65717569703a2073656e646572206d757374206265206f776e65720000006044820152606401610725565b60008281526101366020908152604080832054600881901c845261012f9092529091208054600160ff84161b1916905561151383611f97565b505050565b600054610100900460ff16158080156115385750600054600160ff909116105b806115525750303b158015611552575060005460ff166001145b6115b55760405162461bcd60e51b815260206004820152602e60248201527f496e697469616c697a61626c653a20636f6e747261637420697320616c72656160448201526d191e481a5b9a5d1a585b1a5e995960921b6064820152608401610725565b6000805460ff1916600117905580156115d8576000805461ff0019166101001790555b6101306115e58782612f88565b506101316115f38682612f88565b5061013580546001600160a01b0319166001600160a01b038416179055611618612089565b6116206120b0565b61162a86856120df565b611632612089565b61163b83611824565b8015611681576000805461ff0019169055604051600181527f7f26b83ff96e1f2b6a682f133852f6798a09c465da95921460cefb38474024989060200160405180910390a15b505050505050565b6000807fe76a195fbe43f0eaa611595069f780493db2202a1cc4b2d7d44b47069812998a868686866040516116bf929190612ed1565b6040519081900381206116f7949392916020019384526001600160a01b03928316602085015291166040830152606082015260800190565b60405160208183030381529060405280519060200120905061171881611a0d565b9695505050505050565b6000828152610137602090815260408083205461013890925282205460ff90911615908290158061176157506000858152610138602052604090205484105b905081801561176d5750805b95945050505050565b60006001600160a01b03861633036117d05760405162461bcd60e51b815260206004820152601b60248201527f676976653a2063616e6e6f7420676976652066726f6d2073656c6600000000006044820152606401610725565b60006117e0338888888888611e73565b905060006110f08888888080601f01602080910402602001604051908101604052809392919081815260200183838082843760009201829052509250611c0c915050565b61182c611a20565b6001600160a01b0381166118915760405162461bcd60e51b815260206004820152602660248201527f4f776e61626c653a206e6577206f776e657220697320746865207a65726f206160448201526564647265737360d01b6064820152608401610725565b6107c281611a7a565b6107c2611a20565b7f4910fdfa16fed3260ed0e7147f7cc6da11a60208b5b9406d12a635614ffd91435460ff16156118d55761151383612110565b826001600160a01b03166352d1902d6040518163ffffffff1660e01b8152600401602060405180830381865afa92505050801561192f575060408051601f3d908101601f1916820190925261192c91810190613048565b60015b6119925760405162461bcd60e51b815260206004820152602e60248201527f45524331393637557067726164653a206e657720696d706c656d656e7461746960448201526d6f6e206973206e6f74205555505360901b6064820152608401610725565b6000805160206131348339815191528114611a015760405162461bcd60e51b815260206004820152602960248201527f45524331393637557067726164653a20756e737570706f727465642070726f786044820152681a58589b195555525160ba1b6064820152608401610725565b506115138383836121ac565b6000610644611a1a6121d7565b83612257565b60c9546001600160a01b03163314610e415760405162461bcd60e51b815260206004820181905260248201527f4f776e61626c653a2063616c6c6572206973206e6f7420746865206f776e65726044820152606401610725565b60c980546001600160a01b038381166001600160a01b0319831681179093556040519116919082907f8be0079c531659141344cd1fd0a4f28419497f9722a3daafe3b4186f6b6457e090600090a35050565b600080611ade8b8b8b8b898989610c8e565b905060008160001c9050611b298b838a8a8080601f01602080910402602001604051908101604052809392919081815260200183838082843760009201919091525061227e92505050565b611b875760405162461bcd60e51b815260206004820152602960248201527f73616665436865636b4578706972696e6742616467653a20696e76616c6964206044820152687369676e617475726560b81b6064820152608401610725565b600881901c600090815261012f6020526040902054600160ff83161b1615611bfd5760405162461bcd60e51b8152602060048201526024808201527f73616665436865636b4578706972696e6742616467653a20616c7265616479206044820152631d5cd95960e21b6064820152608401610725565b9b9a5050505050505050505050565b61013554604051633664a8e960e01b815260009182916001600160a01b0390911690633664a8e990611c429087906004016127fa565b602060405180830381865afa158015611c5f573d6000803e3d6000fd5b505050506040513d601f19601f82011682018060405250810190611c839190613048565b90506000611c91868661112f565b9050806000839003611ce55760405162461bcd60e51b815260206004820152601c60248201527f6d696e743a2073706563206973206e6f742072656769737465726564000000006044820152606401610725565b600081815261013260205260409020546001600160a01b031615611d425760405162461bcd60e51b81526020600482015260146024820152736d696e743a20746f6b656e49442065786973747360601b6044820152606401610725565b6001600160a01b038716600090815261013460205260408120805460019290611d6c908490613077565b909155505060008181526101326020908152604080832080546001600160a01b0319166001600160a01b038c161790556101339091529020611dae8782612f88565b508415611dc8576000818152610138602052604090208590555b60405181906001600160a01b038916906000907fddf252ad1be2c89b69c2b068fc378daa952ba7f163c4a11628f55a4df523b3ef908290a46101355460405163fb74926160e01b815260048101839052602481018590526001600160a01b039091169063fb74926190604401600060405180830381600087803b158015611e4e57600080fd5b505af1158015611e62573d6000803e3d6000fd5b5092955050505050505b9392505050565b600080611e8288888888611689565b9050611ec5878286868080601f01602080910402602001604051908101604052809392919081815260200183838082843760009201919091525061227e92505050565b611f1f5760405162461bcd60e51b815260206004820152602560248201527f73616665436865636b41677265656d656e743a20696e76616c6964207369676e604482015264617475726560d81b6064820152608401610725565b600881901c600090815261012f60205260409020548190600160ff83161b1615611f8b5760405162461bcd60e51b815260206004820181905260248201527f73616665436865636b41677265656d656e743a20616c726561647920757365646044820152606401610725565b98975050505050505050565b6000818152610132602052604090205481906001600160a01b0316611fce5760405162461bcd60e51b815260040161072590612ee1565b600082815261013260209081526040808320546001600160a01b031680845261013490925282208054919260019261200790849061308a565b909155505060008381526101326020908152604080832080546001600160a01b0319169055610133909152812061203d91612732565b60008381526101366020526040808220829055518491906001600160a01b038416907fddf252ad1be2c89b69c2b068fc378daa952ba7f163c4a11628f55a4df523b3ef908390a4505050565b600054610100900460ff16610e415760405162461bcd60e51b81526004016107259061309d565b600054610100900460ff166120d75760405162461bcd60e51b81526004016107259061309d565b610e416123bf565b600054610100900460ff166121065760405162461bcd60e51b81526004016107259061309d565b610b2182826123ef565b6001600160a01b0381163b61217d5760405162461bcd60e51b815260206004820152602d60248201527f455243313936373a206e657720696d706c656d656e746174696f6e206973206e60448201526c1bdd08184818dbdb9d1c9858dd609a1b6064820152608401610725565b60008051602061313483398151915280546001600160a01b0319166001600160a01b0392909216919091179055565b6121b583612430565b6000825111806121c25750805b15611513576121d18383612470565b50505050565b60006122527f8b73c3c69bb8fe3d512ecc4cf759cc79239f7b179b0ffacaa9a75d522b39400f61220660fb5490565b60fc546040805160208101859052908101839052606081018290524660808201523060a082015260009060c0016040516020818303038152906040528051906020012090509392505050565b905090565b60405161190160f01b60208201526022810183905260428101829052600090606201611144565b600080600061228d858561255b565b909250905060008160048111156122a6576122a66130e8565b1480156122c45750856001600160a01b0316826001600160a01b0316145b156122d457600192505050611e6c565b600080876001600160a01b0316631626ba7e60e01b88886040516024016122fc9291906130fe565b60408051601f198184030181529181526020820180516001600160e01b03166001600160e01b031990941693909317909252905161233a9190613117565b600060405180830381855afa9150503d8060008114612375576040519150601f19603f3d011682016040523d82523d6000602084013e61237a565b606091505b509150915081801561238d575080516020145b8015611f8b57508051630b135d3f60e11b906123b29083016020908101908401613048565b1498975050505050505050565b600054610100900460ff166123e65760405162461bcd60e51b81526004016107259061309d565b610e4133611a7a565b600054610100900460ff166124165760405162461bcd60e51b81526004016107259061309d565b81516020928301208151919092012060fb9190915560fc55565b61243981612110565b6040516001600160a01b038216907fbc7cd75a20ee27fd9adebab32041f755214dbc6bffa90cc0225b39da2e5c2d3b90600090a250565b60606001600160a01b0383163b6124d85760405162461bcd60e51b815260206004820152602660248201527f416464726573733a2064656c65676174652063616c6c20746f206e6f6e2d636f6044820152651b9d1c9858dd60d21b6064820152608401610725565b600080846001600160a01b0316846040516124f39190613117565b600060405180830381855af49150503d806000811461252e576040519150601f19603f3d011682016040523d82523d6000602084013e612533565b606091505b509150915061176d8282604051806060016040528060278152602001613154602791396125c9565b60008082516041036125915760208301516040840151606085015160001a612585878285856125e2565b945094505050506125c2565b82516040036125ba57602083015160408401516125af8683836126cf565b9350935050506125c2565b506000905060025b9250929050565b606083156125d8575081611e6c565b611e6c8383612708565b6000807f7fffffffffffffffffffffffffffffff5d576e7357a4501ddfe92f46681b20a083111561261957506000905060036126c6565b8460ff16601b1415801561263157508460ff16601c14155b1561264257506000905060046126c6565b6040805160008082526020820180845289905260ff881692820192909252606081018690526080810185905260019060a0016020604051602081039080840390855afa158015612696573d6000803e3d6000fd5b5050604051601f1901519150506001600160a01b0381166126bf576000600192509250506126c6565b9150600090505b94509492505050565b6000806001600160ff1b038316816126ec60ff86901c601b613077565b90506126fa878288856125e2565b935093505050935093915050565b8151156127185781518083602001fd5b8060405162461bcd60e51b815260040161072591906127fa565b50805461273e90612d6d565b6000825580601f1061274e575050565b601f0160209004906000526020600020908101906107c291905b8082111561277c5760008155600101612768565b5090565b60006020828403121561279257600080fd5b81356001600160e01b031981168114611e6c57600080fd5b60005b838110156127c55781810151838201526020016127ad565b50506000910152565b600081518084526127e68160208601602086016127aa565b601f01601f19169290920160200192915050565b602081526000611e6c60208301846127ce565b6001600160a01b03811681146107c257600080fd5b60006020828403121561283457600080fd5b8135611e6c8161280d565b60006020828403121561285157600080fd5b5035919050565b634e487b7160e01b600052604160045260246000fd5b600067ffffffffffffffff8084111561288957612889612858565b604051601f8501601f19908116603f011681019082821181831017156128b1576128b1612858565b816040528093508581528686860111156128ca57600080fd5b858560208301376000602087830101525050509392505050565b600082601f8301126128f557600080fd5b611e6c8383356020850161286e565b6000806040838503121561291757600080fd5b823567ffffffffffffffff81111561292e57600080fd5b61293a858286016128e4565b95602094909401359450505050565b6000806040838503121561295c57600080fd5b82356129678161280d565b9150602083013567ffffffffffffffff81111561298357600080fd5b8301601f8101851361299457600080fd5b6129a38582356020840161286e565b9150509250929050565b600080604083850312156129c057600080fd5b50508035926020909101359150565b60008083601f8401126129e157600080fd5b50813567ffffffffffffffff8111156129f957600080fd5b6020830191508360208285010111156125c257600080fd5b600080600080600080600060a0888a031215612a2c57600080fd5b8735612a378161280d565b96506020880135612a478161280d565b9550604088013567ffffffffffffffff80821115612a6457600080fd5b612a708b838c016129cf565b909750955060608a0135915080821115612a8957600080fd5b50612a968a828b016129cf565b989b979a50959894979596608090950135949350505050565b60008060008060008060008060a0898b031215612acb57600080fd5b8835612ad68161280d565b9750602089013567ffffffffffffffff80821115612af357600080fd5b612aff8c838d016129cf565b909950975060408b0135915080821115612b1857600080fd5b612b248c838d016129cf565b909750955060608b0135915080821115612b3d57600080fd5b50612b4a8b828c016129cf565b999c989b50969995989497949560800135949350505050565b600080600080600060608688031215612b7b57600080fd5b8535612b868161280d565b9450602086013567ffffffffffffffff80821115612ba357600080fd5b612baf89838a016129cf565b90965094506040880135915080821115612bc857600080fd5b50612bd5888289016129cf565b969995985093965092949392505050565b60008060408385031215612bf957600080fd5b8235612c048161280d565b9150602083013567ffffffffffffffff811115612c2057600080fd5b6129a3858286016128e4565b600080600060608486031215612c4157600080fd5b505081359360208301359350604090920135919050565b600080600080600060a08688031215612c7057600080fd5b853567ffffffffffffffff80821115612c8857600080fd5b612c9489838a016128e4565b96506020880135915080821115612caa57600080fd5b612cb689838a016128e4565b95506040880135915080821115612ccc57600080fd5b50612cd9888289016128e4565b9350506060860135612cea8161280d565b91506080860135612cfa8161280d565b809150509295509295909350565b60008060008060608587031215612d1e57600080fd5b8435612d298161280d565b93506020850135612d398161280d565b9250604085013567ffffffffffffffff811115612d5557600080fd5b612d61878288016129cf565b95989497509550505050565b600181811c90821680612d8157607f821691505b602082108103610d9e57634e487b7160e01b600052602260045260246000fd5b6020808252602c908201527f46756e6374696f6e206d7573742062652063616c6c6564207468726f7567682060408201526b19195b1959d85d1958d85b1b60a21b606082015260800190565b6020808252602c908201527f46756e6374696f6e206d7573742062652063616c6c6564207468726f7567682060408201526b6163746976652070726f787960a01b606082015260800190565b600060208284031215612e4b57600080fd5b8151611e6c8161280d565b6020808252601f908201527f73656e6465724973526166744f776e65723a20756e617574686f72697a656400604082015260600190565b600060208284031215612e9f57600080fd5b81518015158114611e6c57600080fd5b604081526000612ec260408301856127ce565b90508260208301529392505050565b8183823760009101908152919050565b6020808252818101527f746f6b656e4578697374733a20746f6b656e20646f65736e2774206578697374604082015260600190565b6001600160a01b0383168152604060208201819052600090612f3a908301846127ce565b949350505050565b601f82111561151357600081815260208120601f850160051c81016020861015612f695750805b601f850160051c820191505b8181101561168157828155600101612f75565b815167ffffffffffffffff811115612fa257612fa2612858565b612fb681612fb08454612d6d565b84612f42565b602080601f831160018114612feb5760008415612fd35750858301515b600019600386901b1c1916600185901b178555611681565b600085815260208120601f198616915b8281101561301a57888601518255948401946001909101908401612ffb565b50858210156130385787850151600019600388901b60f8161c191681555b5050505050600190811b01905550565b60006020828403121561305a57600080fd5b5051919050565b634e487b7160e01b600052601160045260246000fd5b8082018082111561064457610644613061565b8181038181111561064457610644613061565b6020808252602b908201527f496e697469616c697a61626c653a20636f6e7472616374206973206e6f74206960408201526a6e697469616c697a696e6760a81b606082015260800190565b634e487b7160e01b600052602160045260246000fd5b828152604060208201526000612f3a60408301846127ce565b600082516131298184602087016127aa565b919091019291505056fe360894a13ba1a3210667c828492db98dca3e2076cc3735a920a3ca505d382bbc416464726573733a206c6f772d6c6576656c2064656c65676174652063616c6c206661696c6564a26469706673582212203609321f78ce81fa6308db669df0917946a5c4b1ff44dae7d99a4293a8fc8fad64736f6c63430008100033",
    "linkReferences": {}
  },
  "methodIdentifiers": {
    "badgeExpirationDates(uint256)": "abe3078b",
    "balanceOf(address)": "70a08231",
    "createSpec(string,uint256)": "445a62b9",
    "getAgreementHash(address,address,string)": "e4992506",
    "getBadgeIdHash(address,string)": "a8cf8683",
    "getDataHolderAddress()": "635ad993",
    "getExpiringBadgeHash(address,address,string,string,uint256)": "5560a5b3",
    "getVoucherHash(uint256)": "3b363a09",
    "give(address,string,bytes)": "ec64948e",
    "giveExpiringBadge(address,string,bytes,string,uint256)": "a0de8f84",
    "initialize(string,string,string,address,address)": "d6d0faee",
    "isBadgeValid(uint256,uint256)": "e6848939",
    "name()": "06fdde03",
    "owner()": "8da5cb5b",
    "ownerOf(uint256)": "6352211e",
    "proxiableUUID()": "52d1902d",
    "reinstateBadge(uint256,uint256)": "80956c7e",
    "renounceOwnership()": "715018a6",
    "revokeBadge(uint256,uint256)": "5329ae0c",
    "revokedBadges(uint256)": "91cf236e",
    "setDataHolder(address)": "c0184112",
    "supportsInterface(bytes4)": "01ffc9a7",
    "symbol()": "95d89b41",
    "take(address,string,bytes)": "a3947803",
    "takeExpiringBadge(address,string,bytes,string,uint256)": "ccb1dfdd",
    "tokenURI(uint256)": "c87b56dd",
    "transferOwnership(address)": "f2fde38b",
    "unequip(uint256)": "d179e3d0",
    "updateExpiration(uint256,uint256,uint256)": "be60c8f3",
    "upgradeTo(address)": "3659cfe6",
    "upgradeToAndCall(address,bytes)": "4f1ef286"
  },
  "id": 43
}