{
  "abi": [
    {
      "inputs": [],
      "stateMutability": "nonpayable",
      "type": "constructor"
    },
    {
      "anonymous": false,
      "inputs": [
        {
          "indexed": false,
          "internalType": "address",
          "name": "previousAdmin",
          "type": "address"
        },
        {
          "indexed": false,
          "internalType": "address",
          "name": "newAdmin",
          "type": "address"
        }
      ],
      "name": "AdminChanged",
      "type": "event"
    },
    {
      "anonymous": false,
      "inputs": [
        {
          "indexed": true,
          "internalType": "uint256",
          "name": "tokenId",
          "type": "uint256"
        },
        {
          "indexed": true,
          "internalType": "address",
          "name": "from",
          "type": "address"
        }
      ],
      "name": "BadgeReinstated",
      "type": "event"
    },
    {
      "anonymous": false,
      "inputs": [
        {
          "indexed": true,
          "internalType": "uint256",
          "name": "tokenId",
          "type": "uint256"
        },
        {
          "indexed": true,
          "internalType": "address",
          "name": "from",
          "type": "address"
        },
        {
          "indexed": true,
          "internalType": "uint8",
          "name": "reason",
          "type": "uint8"
        }
      ],
      "name": "BadgeRevoked",
      "type": "event"
    },
    {
      "anonymous": false,
      "inputs": [
        {
          "indexed": true,
          "internalType": "address",
          "name": "beacon",
          "type": "address"
        }
      ],
      "name": "BeaconUpgraded",
      "type": "event"
    },
    {
      "anonymous": false,
      "inputs": [
        {
          "indexed": false,
          "internalType": "uint8",
          "name": "version",
          "type": "uint8"
        }
      ],
      "name": "Initialized",
      "type": "event"
    },
    {
      "anonymous": false,
      "inputs": [
        {
          "indexed": true,
          "internalType": "address",
          "name": "previousOwner",
          "type": "address"
        },
        {
          "indexed": true,
          "internalType": "address",
          "name": "newOwner",
          "type": "address"
        }
      ],
      "name": "OwnershipTransferred",
      "type": "event"
    },
    {
      "anonymous": false,
      "inputs": [
        {
          "indexed": false,
          "internalType": "string[]",
          "name": "specUris",
          "type": "string[]"
        },
        {
          "indexed": false,
          "internalType": "address",
          "name": "sender",
          "type": "address"
        }
      ],
      "name": "RefreshMetadata",
      "type": "event"
    },
    {
      "anonymous": false,
      "inputs": [
        {
          "indexed": true,
          "internalType": "address",
          "name": "to",
          "type": "address"
        },
        {
          "indexed": false,
          "internalType": "string",
          "name": "specUri",
          "type": "string"
        },
        {
          "indexed": true,
          "internalType": "uint256",
          "name": "raftTokenId",
          "type": "uint256"
        },
        {
          "indexed": true,
          "internalType": "address",
          "name": "raftAddress",
          "type": "address"
        }
      ],
      "name": "SpecCreated",
      "type": "event"
    },
    {
      "anonymous": false,
      "inputs": [
        {
          "indexed": true,
          "internalType": "address",
          "name": "from",
          "type": "address"
        },
        {
          "indexed": true,
          "internalType": "address",
          "name": "to",
          "type": "address"
        },
        {
          "indexed": true,
          "internalType": "uint256",
          "name": "tokenId",
          "type": "uint256"
        }
      ],
      "name": "Transfer",
      "type": "event"
    },
    {
      "anonymous": false,
      "inputs": [
        {
          "indexed": true,
          "internalType": "address",
          "name": "implementation",
          "type": "address"
        }
      ],
      "name": "Upgraded",
      "type": "event"
    },
    {
      "inputs": [
        {
          "internalType": "address",
          "name": "_owner",
          "type": "address"
        }
      ],
      "name": "balanceOf",
      "outputs": [
        {
          "internalType": "uint256",
          "name": "",
          "type": "uint256"
        }
      ],
      "stateMutability": "view",
      "type": "function"
    },
    {
      "inputs": [
        {
          "internalType": "string",
          "name": "_specUri",
          "type": "string"
        },
        {
          "internalType": "uint256",
          "name": "_raftTokenId",
          "type": "uint256"
        }
      ],
      "name": "createSpec",
      "outputs": [],
      "stateMutability": "nonpayable",
      "type": "function"
    },
    {
      "inputs": [
        {
          "internalType": "address",
          "name": "_from",
          "type": "address"
        },
        {
          "internalType": "address",
          "name": "_to",
          "type": "address"
        },
        {
          "internalType": "string",
          "name": "_uri",
          "type": "string"
        }
      ],
      "name": "getAgreementHash",
      "outputs": [
        {
          "internalType": "bytes32",
          "name": "",
          "type": "bytes32"
        }
      ],
      "stateMutability": "view",
      "type": "function"
    },
    {
      "inputs": [
        {
          "internalType": "address",
          "name": "_to",
          "type": "address"
        },
        {
          "internalType": "string",
          "name": "_uri",
          "type": "string"
        }
      ],
      "name": "getBadgeIdHash",
      "outputs": [
        {
          "internalType": "bytes32",
          "name": "",
          "type": "bytes32"
        }
      ],
      "stateMutability": "view",
      "type": "function"
    },
    {
      "inputs": [],
      "name": "getDataHolderAddress",
      "outputs": [
        {
          "internalType": "address",
          "name": "",
          "type": "address"
        }
      ],
      "stateMutability": "view",
      "type": "function"
    },
    {
      "inputs": [
        {
          "internalType": "address",
          "name": "_issuer",
          "type": "address"
        },
        {
          "internalType": "string",
          "name": "_uri",
          "type": "string"
        },
        {
          "internalType": "bytes32",
          "name": "_root",
          "type": "bytes32"
        }
      ],
      "name": "getMerkleAgreementHash",
      "outputs": [
        {
          "internalType": "bytes32",
          "name": "",
          "type": "bytes32"
        }
      ],
      "stateMutability": "view",
      "type": "function"
    },
    {
      "inputs": [
        {
          "internalType": "address",
          "name": "_to",
          "type": "address"
        },
        {
          "internalType": "string",
          "name": "_uri",
          "type": "string"
        },
        {
          "internalType": "bytes",
          "name": "_signature",
          "type": "bytes"
        }
      ],
      "name": "give",
      "outputs": [
        {
          "internalType": "uint256",
          "name": "",
          "type": "uint256"
        }
      ],
      "stateMutability": "nonpayable",
      "type": "function"
    },
    {
      "inputs": [
        {
          "internalType": "address[]",
          "name": "_recipients",
          "type": "address[]"
        },
        {
          "internalType": "string",
          "name": "_uri",
          "type": "string"
        },
        {
          "internalType": "bytes[]",
          "name": "_signatures",
          "type": "bytes[]"
        }
      ],
      "name": "giveToMany",
      "outputs": [],
      "stateMutability": "nonpayable",
      "type": "function"
    },
    {
      "inputs": [
        {
          "internalType": "string",
          "name": "_name",
          "type": "string"
        },
        {
          "internalType": "string",
          "name": "_symbol",
          "type": "string"
        },
        {
          "internalType": "string",
          "name": "_version",
          "type": "string"
        },
        {
          "internalType": "address",
          "name": "_nextOwner",
          "type": "address"
        },
        {
          "internalType": "address",
          "name": "_specDataHolderAddress",
          "type": "address"
        }
      ],
      "name": "initialize",
      "outputs": [],
      "stateMutability": "nonpayable",
      "type": "function"
    },
    {
      "inputs": [
        {
          "internalType": "uint256",
          "name": "_badgeId",
          "type": "uint256"
        }
      ],
      "name": "isBadgeValid",
      "outputs": [
        {
          "internalType": "bool",
          "name": "",
          "type": "bool"
        }
      ],
      "stateMutability": "view",
      "type": "function"
    },
    {
      "inputs": [
        {
          "internalType": "address",
          "name": "_from",
          "type": "address"
        },
        {
          "internalType": "string",
          "name": "_uri",
          "type": "string"
        },
        {
          "internalType": "bytes",
          "name": "_signature",
          "type": "bytes"
        },
        {
          "internalType": "bytes32",
          "name": "root",
          "type": "bytes32"
        },
        {
          "internalType": "bytes32[]",
          "name": "proof",
          "type": "bytes32[]"
        }
      ],
      "name": "merkleTake",
      "outputs": [
        {
          "internalType": "uint256",
          "name": "",
          "type": "uint256"
        }
      ],
      "stateMutability": "nonpayable",
      "type": "function"
    },
    {
      "inputs": [],
      "name": "name",
      "outputs": [
        {
          "internalType": "string",
          "name": "",
          "type": "string"
        }
      ],
      "stateMutability": "view",
      "type": "function"
    },
    {
      "inputs": [],
      "name": "owner",
      "outputs": [
        {
          "internalType": "address",
          "name": "",
          "type": "address"
        }
      ],
      "stateMutability": "view",
      "type": "function"
    },
    {
      "inputs": [
        {
          "internalType": "uint256",
          "name": "_tokenId",
          "type": "uint256"
        }
      ],
      "name": "ownerOf",
      "outputs": [
        {
          "internalType": "address",
          "name": "",
          "type": "address"
        }
      ],
      "stateMutability": "view",
      "type": "function"
    },
    {
      "inputs": [],
      "name": "proxiableUUID",
      "outputs": [
        {
          "internalType": "bytes32",
          "name": "",
          "type": "bytes32"
        }
      ],
      "stateMutability": "view",
      "type": "function"
    },
    {
      "inputs": [
        {
          "internalType": "string[]",
          "name": "_specUris",
          "type": "string[]"
        }
      ],
      "name": "refreshMetadata",
      "outputs": [],
      "stateMutability": "nonpayable",
      "type": "function"
    },
    {
      "inputs": [
        {
          "internalType": "uint256",
          "name": "_raftTokenId",
          "type": "uint256"
        },
        {
          "internalType": "uint256",
          "name": "_badgeId",
          "type": "uint256"
        }
      ],
      "name": "reinstateBadge",
      "outputs": [],
      "stateMutability": "nonpayable",
      "type": "function"
    },
    {
      "inputs": [],
      "name": "renounceOwnership",
      "outputs": [],
      "stateMutability": "nonpayable",
      "type": "function"
    },
    {
      "inputs": [
        {
          "internalType": "uint256",
          "name": "_raftTokenId",
          "type": "uint256"
        },
        {
          "internalType": "uint256",
          "name": "_badgeId",
          "type": "uint256"
        },
        {
          "internalType": "uint8",
          "name": "_reason",
          "type": "uint8"
        }
      ],
      "name": "revokeBadge",
      "outputs": [],
      "stateMutability": "nonpayable",
      "type": "function"
    },
    {
      "inputs": [
        {
          "internalType": "address",
          "name": "_dataHolder",
          "type": "address"
        }
      ],
      "name": "setDataHolder",
      "outputs": [],
      "stateMutability": "nonpayable",
      "type": "function"
    },
    {
      "inputs": [
        {
          "internalType": "bytes4",
          "name": "_interfaceId",
          "type": "bytes4"
        }
      ],
      "name": "supportsInterface",
      "outputs": [
        {
          "internalType": "bool",
          "name": "",
          "type": "bool"
        }
      ],
      "stateMutability": "view",
      "type": "function"
    },
    {
      "inputs": [],
      "name": "symbol",
      "outputs": [
        {
          "internalType": "string",
          "name": "",
          "type": "string"
        }
      ],
      "stateMutability": "view",
      "type": "function"
    },
    {
      "inputs": [
        {
          "internalType": "address",
          "name": "_from",
          "type": "address"
        },
        {
          "internalType": "string",
          "name": "_uri",
          "type": "string"
        },
        {
          "internalType": "bytes",
          "name": "_signature",
          "type": "bytes"
        }
      ],
      "name": "take",
      "outputs": [
        {
          "internalType": "uint256",
          "name": "",
          "type": "uint256"
        }
      ],
      "stateMutability": "nonpayable",
      "type": "function"
    },
    {
      "inputs": [
        {
          "internalType": "uint256",
          "name": "_tokenId",
          "type": "uint256"
        }
      ],
      "name": "tokenURI",
      "outputs": [
        {
          "internalType": "string",
          "name": "",
          "type": "string"
        }
      ],
      "stateMutability": "view",
      "type": "function"
    },
    {
      "inputs": [
        {
          "internalType": "address",
          "name": "newOwner",
          "type": "address"
        }
      ],
      "name": "transferOwnership",
      "outputs": [],
      "stateMutability": "nonpayable",
      "type": "function"
    },
    {
      "inputs": [
        {
          "internalType": "uint256",
          "name": "_tokenId",
          "type": "uint256"
        }
      ],
      "name": "unequip",
      "outputs": [],
      "stateMutability": "nonpayable",
      "type": "function"
    },
    {
      "inputs": [
        {
          "internalType": "address",
          "name": "newImplementation",
          "type": "address"
        }
      ],
      "name": "upgradeTo",
      "outputs": [],
      "stateMutability": "nonpayable",
      "type": "function"
    },
    {
      "inputs": [
        {
          "internalType": "address",
          "name": "newImplementation",
          "type": "address"
        },
        {
          "internalType": "bytes",
          "name": "data",
          "type": "bytes"
        }
      ],
      "name": "upgradeToAndCall",
      "outputs": [],
      "stateMutability": "payable",
      "type": "function"
    }
  ],
  "bytecode": {
    "object": "0x60a0604052306080523480156200001557600080fd5b506200002062000026565b620000e8565b600054610100900460ff1615620000935760405162461bcd60e51b815260206004820152602760248201527f496e697469616c697a61626c653a20636f6e747261637420697320696e697469604482015266616c697a696e6760c81b606482015260840160405180910390fd5b60005460ff9081161015620000e6576000805460ff191660ff9081179091556040519081527f7f26b83ff96e1f2b6a682f133852f6798a09c465da95921460cefb38474024989060200160405180910390a15b565b6080516136fb62000120600039600081816106a0015281816106e001528181610b7e01528181610bbe0152610c5101526136fb6000f3fe6080604052600436106101b75760003560e01c80638da5cb5b116100ec578063c01841121161008a578063d6d0faee11610064578063d6d0faee146104ca578063e4992506146104ea578063ec64948e1461050a578063f2fde38b1461052a57600080fd5b8063c01841121461046a578063c87b56dd1461048a578063d179e3d0146104aa57600080fd5b8063a3947803116100c6578063a3947803146103ea578063a8cf86831461040a578063bd6645e41461042a578063bdbdbcbf1461044a57600080fd5b80638da5cb5b1461039757806395d89b41146103b5578063a32c9c7a146103ca57600080fd5b806352d1902d1161015957806370a082311161013357806370a0823114610322578063715018a6146103425780637c402f8d1461035757806380956c7e1461037757600080fd5b806352d1902d146102b65780636352211e146102cb578063635ad9931461030357600080fd5b80633659cfe6116101955780633659cfe614610233578063445a62b9146102555780634a086b53146102755780634f1ef286146102a357600080fd5b806301ffc9a7146101bc57806306fdde03146101f15780630f4d9b0114610213575b600080fd5b3480156101c857600080fd5b506101dc6101d7366004612a9d565b61054a565b60405190151581526020015b60405180910390f35b3480156101fd57600080fd5b5061020661059c565b6040516101e89190612b17565b34801561021f57600080fd5b506101dc61022e366004612b2a565b61062f565b34801561023f57600080fd5b5061025361024e366004612b58565b610696565b005b34801561026157600080fd5b50610253610270366004612bb6565b610775565b34801561028157600080fd5b50610295610290366004612c45565b610a0c565b6040519081526020016101e8565b6102536102b1366004612d10565b610b74565b3480156102c257600080fd5b50610295610c44565b3480156102d757600080fd5b506102eb6102e6366004612b2a565b610cf7565b6040516001600160a01b0390911681526020016101e8565b34801561030f57600080fd5b50610135546001600160a01b03166102eb565b34801561032e57600080fd5b5061029561033d366004612b58565b610d4c565b34801561034e57600080fd5b50610253610dd4565b34801561036357600080fd5b50610253610372366004612dd3565b610de8565b34801561038357600080fd5b50610253610392366004612e12565b610f85565b3480156103a357600080fd5b5060c9546001600160a01b03166102eb565b3480156103c157600080fd5b50610206611118565b3480156103d657600080fd5b506102536103e5366004612e34565b611128565b3480156103f657600080fd5b50610295610405366004612ecd565b611351565b34801561041657600080fd5b50610295610425366004612f4f565b6114b3565b34801561043657600080fd5b50610295610445366004612fa3565b6114ea565b34801561045657600080fd5b50610253610465366004612ffe565b61157f565b34801561047657600080fd5b50610253610485366004612b58565b611622565b34801561049657600080fd5b506102066104a5366004612b2a565b61164d565b3480156104b657600080fd5b506102536104c5366004612b2a565b611754565b3480156104d657600080fd5b506102536104e536600461303f565b6117fb565b3480156104f657600080fd5b506102956105053660046130fe565b6119da565b34801561051657600080fd5b50610295610525366004612ecd565b611a4a565b34801561053657600080fd5b50610253610545366004612b58565b611b8f565b60006001600160e01b03198216635b5e139f60e01b148061057b57506001600160e01b031982166346bdd63960e11b145b8061059657506301ffc9a760e01b6001600160e01b03198316145b92915050565b606061013080546105ac90613162565b80601f01602080910402602001604051908101604052809291908181526020018280546105d890613162565b80156106255780601f106105fa57610100808354040283529160200191610625565b820191906000526020600020905b81548152906001019060200180831161060857829003601f168201915b5050505050905090565b6000818152610132602052604081205482906001600160a01b031661066f5760405162461bcd60e51b815260040161066690613196565b60405180910390fd5b600883901c60009081526101376020526040902054600160ff85161b161591505b50919050565b6001600160a01b037f00000000000000000000000000000000000000000000000000000000000000001630036106de5760405162461bcd60e51b8152600401610666906131cb565b7f00000000000000000000000000000000000000000000000000000000000000006001600160a01b031661072760008051602061367f833981519152546001600160a01b031690565b6001600160a01b03161461074d5760405162461bcd60e51b815260040161066690613217565b61075681611c05565b6040805160008082526020820190925261077291839190611c0d565b50565b6101355460405163b2a0cb6b60e01b815260048101839052829133916001600160a01b039091169063b2a0cb6b90602401602060405180830381865afa1580156107c3573d6000803e3d6000fd5b505050506040513d601f19601f820116820180604052508101906107e79190613263565b6001600160a01b03161461080d5760405162461bcd60e51b815260040161066690613280565b61013554604051637e07102760e11b81526001600160a01b039091169063fc0e204e9061084090879087906004016132e0565b602060405180830381865afa15801561085d573d6000803e3d6000fd5b505050506040513d601f19601f8201168201806040525081019061088191906132f4565b156108da5760405162461bcd60e51b815260206004820152602360248201527f637265617465537065633a207370656320616c726561647920726567697374656044820152621c995960ea1b6064820152608401610666565b6101355460405163addd190760e01b81526001600160a01b039091169063addd19079061090f90879087908790600401613316565b600060405180830381600087803b15801561092957600080fd5b505af115801561093d573d6000803e3d6000fd5b5050505061013560009054906101000a90046001600160a01b03166001600160a01b03166334f876626040518163ffffffff1660e01b8152600401602060405180830381865afa158015610995573d6000803e3d6000fd5b505050506040513d601f19601f820116820180604052508101906109b99190613263565b6001600160a01b031682336001600160a01b03167f68c7f8503283c455a4445b54a7d5c40656c8cae5cca0583c6d4be8369847870087876040516109fe9291906132e0565b60405180910390a450505050565b6000610a1f89338a8a8a8a8a8a8a611d7d565b61013554604051633664a8e960e01b81526000916001600160a01b031690633664a8e990610a53908c908c906004016132e0565b602060405180830381865afa158015610a70573d6000803e3d6000fd5b505050506040513d601f19601f82011682018060405250810190610a94919061333a565b6101355460405163b2a0cb6b60e01b8152600481018390529192506001600160a01b038c81169291169063b2a0cb6b90602401602060405180830381865afa158015610ae4573d6000803e3d6000fd5b505050506040513d601f19601f82011682018060405250810190610b089190613263565b6001600160a01b031614610b5a5760405162461bcd60e51b81526020600482015260196024820152783a30b5b29d103ab730baba3437b934bd32b21034b9b9bab2b960391b6044820152606401610666565b610b66338a8a84611f0a565b9a9950505050505050505050565b6001600160a01b037f0000000000000000000000000000000000000000000000000000000000000000163003610bbc5760405162461bcd60e51b8152600401610666906131cb565b7f00000000000000000000000000000000000000000000000000000000000000006001600160a01b0316610c0560008051602061367f833981519152546001600160a01b031690565b6001600160a01b031614610c2b5760405162461bcd60e51b815260040161066690613217565b610c3482611c05565b610c4082826001611c0d565b5050565b6000306001600160a01b037f00000000000000000000000000000000000000000000000000000000000000001614610ce45760405162461bcd60e51b815260206004820152603860248201527f555550535570677261646561626c653a206d757374206e6f742062652063616c60448201527f6c6564207468726f7567682064656c656761746563616c6c00000000000000006064820152608401610666565b5060008051602061367f83398151915290565b6000818152610132602052604081205482906001600160a01b0316610d2e5760405162461bcd60e51b815260040161066690613196565b5050600090815261013260205260409020546001600160a01b031690565b60006001600160a01b038216610db75760405162461bcd60e51b815260206004820152602a60248201527f62616c616e63654f663a2061646472657373283029206973206e6f742061207660448201526930b634b21037bbb732b960b11b6064820152608401610666565b506001600160a01b03166000908152610134602052604090205490565b610ddc6120da565b610de66000612134565b565b6000828152610132602052604090205482906001600160a01b0316610e1f5760405162461bcd60e51b815260040161066690613196565b6101355460405163b2a0cb6b60e01b815260048101869052859133916001600160a01b039091169063b2a0cb6b90602401602060405180830381865afa158015610e6d573d6000803e3d6000fd5b505050506040513d601f19601f82011682018060405250810190610e919190613263565b6001600160a01b031614610eb75760405162461bcd60e51b815260040161066690613280565b600884901c60009081526101376020526040902054600160ff86161b1615610f2c5760405162461bcd60e51b815260206004820152602260248201527f7265766f6b6542616467653a20626164676520616c7265616479207265766f6b604482015261195960f21b6064820152608401610666565b600884901c6000908152610137602052604090208054600160ff87161b17905560405160ff841690339086907ffa784c48260e8db512de5f055a2f29eced211a7b3bd6338058b095ada7354cee90600090a45050505050565b6000818152610132602052604090205481906001600160a01b0316610fbc5760405162461bcd60e51b815260040161066690613196565b6101355460405163b2a0cb6b60e01b815260048101859052849133916001600160a01b039091169063b2a0cb6b90602401602060405180830381865afa15801561100a573d6000803e3d6000fd5b505050506040513d601f19601f8201168201806040525081019061102e9190613263565b6001600160a01b0316146110545760405162461bcd60e51b815260040161066690613280565b600883901c60009081526101376020526040902054600160ff85161b166110c75760405162461bcd60e51b815260206004820152602160248201527f7265696e737461746542616467653a206261646765206e6f74207265766f6b656044820152601960fa1b6064820152608401610666565b600883901c600090815261013760205260408082208054600160ff88161b1916905551339185917f7f8cf9ecf2a5225948f8a1601709cedc8471c52ee75a8174c9845c29c99ed9a29190a350505050565b606061013180546105ac90613162565b8481146111955760405162461bcd60e51b815260206004820152603560248201527f67697665546f4d616e793a20726563697069656e747320616e64207369676e616044820152740e8eae4cae640d8cadccee8d040dad2e6dac2e8c6d605b1b6064820152608401610666565b61013554604051633664a8e960e01b81526000916001600160a01b031690633664a8e9906111c990889088906004016132e0565b602060405180830381865afa1580156111e6573d6000803e3d6000fd5b505050506040513d601f19601f8201168201806040525081019061120a919061333a565b6101355460405163b2a0cb6b60e01b81526004810183905291925033916001600160a01b039091169063b2a0cb6b90602401602060405180830381865afa158015611259573d6000803e3d6000fd5b505050506040513d601f19601f8201168201806040525081019061127d9190613263565b6001600160a01b0316146112d35760405162461bcd60e51b815260206004820152601860248201527f67697665546f4d616e793a20756e617574686f72697a656400000000000000006044820152606401610666565b60005b86811015611347576113348888838181106112f3576112f3613353565b90506020020160208101906113089190612b58565b878787878681811061131c5761131c613353565b905060200281019061132e9190613369565b87612186565b508061133f816133c5565b9150506112d6565b5050505050505050565b60006113613387878787876121a2565b61013554604051633664a8e960e01b81526000916001600160a01b031690633664a8e99061139590899089906004016132e0565b602060405180830381865afa1580156113b2573d6000803e3d6000fd5b505050506040513d601f19601f820116820180604052508101906113d6919061333a565b6101355460405163b2a0cb6b60e01b8152600481018390529192506001600160a01b038981169291169063b2a0cb6b90602401602060405180830381865afa158015611426573d6000803e3d6000fd5b505050506040513d601f19601f8201168201806040525081019061144a9190613263565b6001600160a01b03161461149c5760405162461bcd60e51b81526020600482015260196024820152783a30b5b29d103ab730baba3437b934bd32b21034b9b9bab2b960391b6044820152606401610666565b6114a833878784611f0a565b979650505050505050565b60008383836040516020016114ca939291906133de565b6040516020818303038152906040528051906020012090505b9392505050565b60006115747f6d0d990916a9f9c9e0896e59ce7f5ddddff333d0c8772438ce004fa7719b164b868686604051611521929190613403565b60405190819003812061155993929187906020019384526001600160a01b039290921660208401526040830152606082015260800190565b60405160208183030381529060405280519060200120612250565b90505b949350505050565b6115876120da565b806115e35760405162461bcd60e51b815260206004820152602660248201527f726566726573684d657461646174613a206e6f207370656320757269732070726044820152651bdd9a59195960d21b6064820152608401610666565b7f2231d988b1a75dccab13dee3564b71a551900e822e94177a96f19561890c0fd582823360405161161693929190613413565b60405180910390a15050565b61162a6120da565b61013580546001600160a01b0319166001600160a01b0392909216919091179055565b600081815261013260205260409020546060906001600160a01b03166116b55760405162461bcd60e51b815260206004820152601d60248201527f746f6b656e5552493a20746f6b656e20646f65736e27742065786973740000006044820152606401610666565b60008281526101336020526040902080546116cf90613162565b80601f01602080910402602001604051908101604052809291908181526020018280546116fb90613162565b80156117485780601f1061171d57610100808354040283529160200191611748565b820191906000526020600020905b81548152906001019060200180831161172b57829003601f168201915b50505050509050919050565b6000818152610132602052604090205481906001600160a01b031661178b5760405162461bcd60e51b815260040161066690613196565b600082815261013260205260409020546001600160a01b031633146117f25760405162461bcd60e51b815260206004820152601d60248201527f756e65717569703a2073656e646572206d757374206265206f776e65720000006044820152606401610666565b610c408261229e565b600054610100900460ff161580801561181b5750600054600160ff909116105b806118355750303b158015611835575060005460ff166001145b6118985760405162461bcd60e51b815260206004820152602e60248201527f496e697469616c697a61626c653a20636f6e747261637420697320616c72656160448201526d191e481a5b9a5d1a585b1a5e995960921b6064820152608401610666565b6000805460ff1916600117905580156118bb576000805461ff0019166101001790555b6101306118c9898b83613502565b506101316118d8878983613502565b5061013580546001600160a01b0319166001600160a01b0384161790556118fd612349565b611905612370565b61197889898080601f01602080910402602001604051908101604052809392919081815260200183838082843760009201919091525050604080516020601f8b01819004810282018101909252898152925089915088908190840183828082843760009201919091525061239f92505050565b611980612349565b61198983611b8f565b80156119cf576000805461ff0019169055604051600181527f7f26b83ff96e1f2b6a682f133852f6798a09c465da95921460cefb38474024989060200160405180910390a15b505050505050505050565b60006115747fe76a195fbe43f0eaa611595069f780493db2202a1cc4b2d7d44b47069812998a86868686604051611a12929190613403565b604051908190038120611559949392916020019384526001600160a01b03928316602085015291166040830152606082015260800190565b61013554604051633664a8e960e01b815260009182916001600160a01b0390911690633664a8e990611a8290899089906004016132e0565b602060405180830381865afa158015611a9f573d6000803e3d6000fd5b505050506040513d601f19601f82011682018060405250810190611ac3919061333a565b6101355460405163b2a0cb6b60e01b81526004810183905291925033916001600160a01b039091169063b2a0cb6b90602401602060405180830381865afa158015611b12573d6000803e3d6000fd5b505050506040513d601f19601f82011682018060405250810190611b369190613263565b6001600160a01b031614611b815760405162461bcd60e51b815260206004820152601260248201527119da5d994e881d5b985d5d1a1bdc9a5e995960721b6044820152606401610666565b6114a8878787878786612186565b611b976120da565b6001600160a01b038116611bfc5760405162461bcd60e51b815260206004820152602660248201527f4f776e61626c653a206e6577206f776e657220697320746865207a65726f206160448201526564647265737360d01b6064820152608401610666565b61077281612134565b6107726120da565b7f4910fdfa16fed3260ed0e7147f7cc6da11a60208b5b9406d12a635614ffd91435460ff1615611c4557611c40836123d0565b505050565b826001600160a01b03166352d1902d6040518163ffffffff1660e01b8152600401602060405180830381865afa925050508015611c9f575060408051601f3d908101601f19168201909252611c9c9181019061333a565b60015b611d025760405162461bcd60e51b815260206004820152602e60248201527f45524331393637557067726164653a206e657720696d706c656d656e7461746960448201526d6f6e206973206e6f74205555505360901b6064820152608401610666565b60008051602061367f8339815191528114611d715760405162461bcd60e51b815260206004820152602960248201527f45524331393637557067726164653a20756e737570706f727465642070726f786044820152681a58589b195555525160ba1b6064820152608401610666565b50611c4083838361246c565b611dc989611d8d8b8a8a886114ea565b87878080601f01602080910402602001604051908101604052809392919081815260200183838082843760009201919091525061249792505050565b611e295760405162461bcd60e51b815260206004820152602b60248201527f73616665436865636b4d65726b6c6541677265656d656e743a20696e76616c6960448201526a64207369676e617475726560a81b6064820152608401610666565b6040516bffffffffffffffffffffffff1960608a901b166020820152600090603401604051602081830303815290604052805190602001209050611ea38383808060200260200160405190810160405280939291908181526020018383602002808284376000920191909152508892508591506125d99050565b611efe5760405162461bcd60e51b815260206004820152602660248201527f73616665436865636b4d65726b6c6541677265656d656e743a20696e76616c6960448201526532103632b0b360d11b6064820152608401610666565b50505050505050505050565b600081600003611f5c5760405162461bcd60e51b815260206004820152601c60248201527f6d696e743a2073706563206973206e6f742072656769737465726564000000006044820152606401610666565b6000611f698686866114b3565b600081815261013260205260409020549091506001600160a01b031615611fc95760405162461bcd60e51b81526020600482015260146024820152736d696e743a20746f6b656e49442065786973747360601b6044820152606401610666565b6001600160a01b038616600090815261013460205260408120805491611fee836133c5565b909155505060008181526101326020908152604080832080546001600160a01b0319166001600160a01b038b161790556101339091529020612031858783613502565b5060405181906001600160a01b038816906000907fddf252ad1be2c89b69c2b068fc378daa952ba7f163c4a11628f55a4df523b3ef908290a46101355460405163fb74926160e01b815260048101839052602481018590526001600160a01b039091169063fb74926190604401600060405180830381600087803b1580156120b857600080fd5b505af11580156120cc573d6000803e3d6000fd5b509298975050505050505050565b60c9546001600160a01b03163314610de65760405162461bcd60e51b815260206004820181905260248201527f4f776e61626c653a2063616c6c6572206973206e6f7420746865206f776e65726044820152606401610666565b60c980546001600160a01b038381166001600160a01b0319831681179093556040519116919082907f8be0079c531659141344cd1fd0a4f28419497f9722a3daafe3b4186f6b6457e090600090a35050565b60006121963388888888886121a2565b6114a887878785611f0a565b6121ee856121b2888888886119da565b84848080601f01602080910402602001604051908101604052809392919081815260200183838082843760009201919091525061249792505050565b6122485760405162461bcd60e51b815260206004820152602560248201527f73616665436865636b41677265656d656e743a20696e76616c6964207369676e604482015264617475726560d81b6064820152608401610666565b505050505050565b600061059661225d6125ef565b8360405161190160f01b6020820152602281018390526042810182905260009060620160405160208183030381529060405280519060200120905092915050565b600081815261013260209081526040808320546001600160a01b03168084526101349092528220805491926001926122d79084906135c2565b909155505060008281526101326020908152604080832080546001600160a01b0319169055610133909152812061230d91612a4f565b60405182906000906001600160a01b038416907fddf252ad1be2c89b69c2b068fc378daa952ba7f163c4a11628f55a4df523b3ef908390a45050565b600054610100900460ff16610de65760405162461bcd60e51b8152600401610666906135d5565b600054610100900460ff166123975760405162461bcd60e51b8152600401610666906135d5565b610de661262b565b600054610100900460ff166123c65760405162461bcd60e51b8152600401610666906135d5565b610c40828261265b565b6001600160a01b0381163b61243d5760405162461bcd60e51b815260206004820152602d60248201527f455243313936373a206e657720696d706c656d656e746174696f6e206973206e60448201526c1bdd08184818dbdb9d1c9858dd609a1b6064820152608401610666565b60008051602061367f83398151915280546001600160a01b0319166001600160a01b0392909216919091179055565b6124758361269c565b6000825111806124825750805b15611c405761249183836126dc565b50505050565b60008060006124a685856127d0565b909250905060008160048111156124bf576124bf613620565b1480156124dd5750856001600160a01b0316826001600160a01b0316145b156124ed576001925050506114e3565b600080876001600160a01b0316631626ba7e60e01b8888604051602401612515929190613636565b60408051601f198184030181529181526020820180516001600160e01b03166001600160e01b0319909416939093179092529051612553919061364f565b600060405180830381855afa9150503d806000811461258e576040519150601f19603f3d011682016040523d82523d6000602084013e612593565b606091505b50915091508180156125a6575080516020145b80156125cd57508051630b135d3f60e11b906125cb908301602090810190840161333a565b145b98975050505050505050565b6000826125e6858461283e565b14949350505050565b60006126267f8b73c3c69bb8fe3d512ecc4cf759cc79239f7b179b0ffacaa9a75d522b39400f61261e60fb5490565b60fc5461288b565b905090565b600054610100900460ff166126525760405162461bcd60e51b8152600401610666906135d5565b610de633612134565b600054610100900460ff166126825760405162461bcd60e51b8152600401610666906135d5565b81516020928301208151919092012060fb9190915560fc55565b6126a5816123d0565b6040516001600160a01b038216907fbc7cd75a20ee27fd9adebab32041f755214dbc6bffa90cc0225b39da2e5c2d3b90600090a250565b60606001600160a01b0383163b6127445760405162461bcd60e51b815260206004820152602660248201527f416464726573733a2064656c65676174652063616c6c20746f206e6f6e2d636f6044820152651b9d1c9858dd60d21b6064820152608401610666565b600080846001600160a01b03168460405161275f919061364f565b600060405180830381855af49150503d806000811461279a576040519150601f19603f3d011682016040523d82523d6000602084013e61279f565b606091505b50915091506127c7828260405180606001604052806027815260200161369f602791396128ba565b95945050505050565b60008082516041036128065760208301516040840151606085015160001a6127fa878285856128d3565b94509450505050612837565b825160400361282f57602083015160408401516128248683836129c0565b935093505050612837565b506000905060025b9250929050565b600081815b84518110156128835761286f8286838151811061286257612862613353565b60200260200101516129f9565b91508061287b816133c5565b915050612843565b509392505050565b6040805160208101859052908101839052606081018290524660808201523060a082015260009060c0016114ca565b606083156128c95750816114e3565b6114e38383612a25565b6000807f7fffffffffffffffffffffffffffffff5d576e7357a4501ddfe92f46681b20a083111561290a57506000905060036129b7565b8460ff16601b1415801561292257508460ff16601c14155b1561293357506000905060046129b7565b6040805160008082526020820180845289905260ff881692820192909252606081018690526080810185905260019060a0016020604051602081039080840390855afa158015612987573d6000803e3d6000fd5b5050604051601f1901519150506001600160a01b0381166129b0576000600192509250506129b7565b9150600090505b94509492505050565b6000806001600160ff1b038316816129dd60ff86901c601b61366b565b90506129eb878288856128d3565b935093505050935093915050565b6000818310612a155760008281526020849052604090206114e3565b5060009182526020526040902090565b815115612a355781518083602001fd5b8060405162461bcd60e51b81526004016106669190612b17565b508054612a5b90613162565b6000825580601f10612a6b575050565b601f01602090049060005260206000209081019061077291905b80821115612a995760008155600101612a85565b5090565b600060208284031215612aaf57600080fd5b81356001600160e01b0319811681146114e357600080fd5b60005b83811015612ae2578181015183820152602001612aca565b50506000910152565b60008151808452612b03816020860160208601612ac7565b601f01601f19169290920160200192915050565b6020815260006114e36020830184612aeb565b600060208284031215612b3c57600080fd5b5035919050565b6001600160a01b038116811461077257600080fd5b600060208284031215612b6a57600080fd5b81356114e381612b43565b60008083601f840112612b8757600080fd5b5081356001600160401b03811115612b9e57600080fd5b60208301915083602082850101111561283757600080fd5b600080600060408486031215612bcb57600080fd5b83356001600160401b03811115612be157600080fd5b612bed86828701612b75565b909790965060209590950135949350505050565b60008083601f840112612c1357600080fd5b5081356001600160401b03811115612c2a57600080fd5b6020830191508360208260051b850101111561283757600080fd5b60008060008060008060008060a0898b031215612c6157600080fd5b8835612c6c81612b43565b975060208901356001600160401b0380821115612c8857600080fd5b612c948c838d01612b75565b909950975060408b0135915080821115612cad57600080fd5b612cb98c838d01612b75565b909750955060608b0135945060808b0135915080821115612cd957600080fd5b50612ce68b828c01612c01565b999c989b5096995094979396929594505050565b634e487b7160e01b600052604160045260246000fd5b60008060408385031215612d2357600080fd5b8235612d2e81612b43565b915060208301356001600160401b0380821115612d4a57600080fd5b818501915085601f830112612d5e57600080fd5b813581811115612d7057612d70612cfa565b604051601f8201601f19908116603f01168101908382118183101715612d9857612d98612cfa565b81604052828152886020848701011115612db157600080fd5b8260208601602083013760006020848301015280955050505050509250929050565b600080600060608486031215612de857600080fd5b8335925060208401359150604084013560ff81168114612e0757600080fd5b809150509250925092565b60008060408385031215612e2557600080fd5b50508035926020909101359150565b60008060008060008060608789031215612e4d57600080fd5b86356001600160401b0380821115612e6457600080fd5b612e708a838b01612c01565b90985096506020890135915080821115612e8957600080fd5b612e958a838b01612b75565b90965094506040890135915080821115612eae57600080fd5b50612ebb89828a01612c01565b979a9699509497509295939492505050565b600080600080600060608688031215612ee557600080fd5b8535612ef081612b43565b945060208601356001600160401b0380821115612f0c57600080fd5b612f1889838a01612b75565b90965094506040880135915080821115612f3157600080fd5b50612f3e88828901612b75565b969995985093965092949392505050565b600080600060408486031215612f6457600080fd5b8335612f6f81612b43565b925060208401356001600160401b03811115612f8a57600080fd5b612f9686828701612b75565b9497909650939450505050565b60008060008060608587031215612fb957600080fd5b8435612fc481612b43565b935060208501356001600160401b03811115612fdf57600080fd5b612feb87828801612b75565b9598909750949560400135949350505050565b6000806020838503121561301157600080fd5b82356001600160401b0381111561302757600080fd5b61303385828601612c01565b90969095509350505050565b60008060008060008060008060a0898b03121561305b57600080fd5b88356001600160401b038082111561307257600080fd5b61307e8c838d01612b75565b909a50985060208b013591508082111561309757600080fd5b6130a38c838d01612b75565b909850965060408b01359150808211156130bc57600080fd5b506130c98b828c01612b75565b90955093505060608901356130dd81612b43565b915060808901356130ed81612b43565b809150509295985092959890939650565b6000806000806060858703121561311457600080fd5b843561311f81612b43565b9350602085013561312f81612b43565b925060408501356001600160401b0381111561314a57600080fd5b61315687828801612b75565b95989497509550505050565b600181811c9082168061317657607f821691505b60208210810361069057634e487b7160e01b600052602260045260246000fd5b6020808252818101527f746f6b656e4578697374733a20746f6b656e20646f65736e2774206578697374604082015260600190565b6020808252602c908201527f46756e6374696f6e206d7573742062652063616c6c6564207468726f7567682060408201526b19195b1959d85d1958d85b1b60a21b606082015260800190565b6020808252602c908201527f46756e6374696f6e206d7573742062652063616c6c6564207468726f7567682060408201526b6163746976652070726f787960a01b606082015260800190565b60006020828403121561327557600080fd5b81516114e381612b43565b6020808252601b908201527f6f6e6c79526166744f776e65723a20756e617574686f72697a65640000000000604082015260600190565b81835281816020850137506000828201602090810191909152601f909101601f19169091010190565b6020815260006115776020830184866132b7565b60006020828403121561330657600080fd5b815180151581146114e357600080fd5b60408152600061332a6040830185876132b7565b9050826020830152949350505050565b60006020828403121561334c57600080fd5b5051919050565b634e487b7160e01b600052603260045260246000fd5b6000808335601e1984360301811261338057600080fd5b8301803591506001600160401b0382111561339a57600080fd5b60200191503681900382131561283757600080fd5b634e487b7160e01b600052601160045260246000fd5b6000600182016133d7576133d76133af565b5060010190565b6001600160a01b038416815260406020820181905260009061157490830184866132b7565b8183823760009101908152919050565b6040808252810183905260006060600585901b8301810190830186835b878110156134a357858403605f190183528135368a9003601e1901811261345657600080fd5b890160208181019135906001600160401b0382111561347457600080fd5b81360383131561348357600080fd5b61348e8783856132b7565b96509485019493909301925050600101613430565b5050506001600160a01b03841660208401529050611577565b601f821115611c4057600081815260208120601f850160051c810160208610156134e35750805b601f850160051c820191505b81811015612248578281556001016134ef565b6001600160401b0383111561351957613519612cfa565b61352d836135278354613162565b836134bc565b6000601f84116001811461356157600085156135495750838201355b600019600387901b1c1916600186901b1783556135bb565b600083815260209020601f19861690835b828110156135925786850135825560209485019460019092019101613572565b50868210156135af5760001960f88860031b161c19848701351681555b505060018560011b0183555b5050505050565b81810381811115610596576105966133af565b6020808252602b908201527f496e697469616c697a61626c653a20636f6e7472616374206973206e6f74206960408201526a6e697469616c697a696e6760a81b606082015260800190565b634e487b7160e01b600052602160045260246000fd5b8281526040602082015260006115776040830184612aeb565b60008251613661818460208701612ac7565b9190910192915050565b80820180821115610596576105966133af56fe360894a13ba1a3210667c828492db98dca3e2076cc3735a920a3ca505d382bbc416464726573733a206c6f772d6c6576656c2064656c65676174652063616c6c206661696c6564a2646970667358221220167e24c5a131d128b203ec70835456f03b85d7681a98f12bb02ba89f4d7b1d8164736f6c63430008100033",
    "linkReferences": {}
  },
  "methodIdentifiers": {
    "balanceOf(address)": "70a08231",
    "createSpec(string,uint256)": "445a62b9",
    "getAgreementHash(address,address,string)": "e4992506",
    "getBadgeIdHash(address,string)": "a8cf8683",
    "getDataHolderAddress()": "635ad993",
    "getMerkleAgreementHash(address,string,bytes32)": "bd6645e4",
    "give(address,string,bytes)": "ec64948e",
    "giveToMany(address[],string,bytes[])": "a32c9c7a",
    "initialize(string,string,string,address,address)": "d6d0faee",
    "isBadgeValid(uint256)": "0f4d9b01",
    "merkleTake(address,string,bytes,bytes32,bytes32[])": "4a086b53",
    "name()": "06fdde03",
    "owner()": "8da5cb5b",
    "ownerOf(uint256)": "6352211e",
    "proxiableUUID()": "52d1902d",
    "refreshMetadata(string[])": "bdbdbcbf",
    "reinstateBadge(uint256,uint256)": "80956c7e",
    "renounceOwnership()": "715018a6",
    "revokeBadge(uint256,uint256,uint8)": "7c402f8d",
    "setDataHolder(address)": "c0184112",
    "supportsInterface(bytes4)": "01ffc9a7",
    "symbol()": "95d89b41",
    "take(address,string,bytes)": "a3947803",
    "tokenURI(uint256)": "c87b56dd",
    "transferOwnership(address)": "f2fde38b",
    "unequip(uint256)": "d179e3d0",
    "upgradeTo(address)": "3659cfe6",
    "upgradeToAndCall(address,bytes)": "4f1ef286"
  },
  "id": 46
}