{
  "abi": [
    {
      "inputs": [
        {
          "internalType": "string",
          "name": "name",
          "type": "string"
        },
        {
          "internalType": "string",
          "name": "symbol",
          "type": "string"
        },
        {
          "internalType": "string",
          "name": "version",
          "type": "string"
        }
      ],
      "stateMutability": "nonpayable",
      "type": "constructor"
    },
    {
      "anonymous": false,
      "inputs": [
        {
          "indexed": true,
          "internalType": "address",
          "name": "to",
          "type": "address"
        },
        {
          "indexed": true,
          "internalType": "uint256",
          "name": "tokenId",
          "type": "uint256"
        }
      ],
      "name": "Attest",
      "type": "event"
    },
    {
      "anonymous": false,
      "inputs": [
        {
          "indexed": true,
          "internalType": "address",
          "name": "to",
          "type": "address"
        },
        {
          "indexed": true,
          "internalType": "uint256",
          "name": "tokenId",
          "type": "uint256"
        }
      ],
      "name": "Revoke",
      "type": "event"
    },
    {
      "inputs": [
        {
          "internalType": "address",
          "name": "owner",
          "type": "address"
        }
      ],
      "name": "balanceOf",
      "outputs": [
        {
          "internalType": "uint256",
          "name": "",
          "type": "uint256"
        }
      ],
      "stateMutability": "view",
      "type": "function"
    },
    {
      "inputs": [
        {
          "internalType": "uint256",
          "name": "tokenId",
          "type": "uint256"
        }
      ],
      "name": "burn",
      "outputs": [],
      "stateMutability": "nonpayable",
      "type": "function"
    },
    {
      "inputs": [
        {
          "internalType": "address",
          "name": "from",
          "type": "address"
        },
        {
          "internalType": "string",
          "name": "uri",
          "type": "string"
        },
        {
          "internalType": "bytes",
          "name": "signature",
          "type": "bytes"
        }
      ],
      "name": "mintWithPermission",
      "outputs": [
        {
          "internalType": "uint256",
          "name": "",
          "type": "uint256"
        }
      ],
      "stateMutability": "nonpayable",
      "type": "function"
    },
    {
      "inputs": [],
      "name": "name",
      "outputs": [
        {
          "internalType": "string",
          "name": "",
          "type": "string"
        }
      ],
      "stateMutability": "view",
      "type": "function"
    },
    {
      "inputs": [
        {
          "internalType": "uint256",
          "name": "tokenId",
          "type": "uint256"
        }
      ],
      "name": "ownerOf",
      "outputs": [
        {
          "internalType": "address",
          "name": "",
          "type": "address"
        }
      ],
      "stateMutability": "view",
      "type": "function"
    },
    {
      "inputs": [
        {
          "internalType": "bytes4",
          "name": "interfaceId",
          "type": "bytes4"
        }
      ],
      "name": "supportsInterface",
      "outputs": [
        {
          "internalType": "bool",
          "name": "",
          "type": "bool"
        }
      ],
      "stateMutability": "view",
      "type": "function"
    },
    {
      "inputs": [],
      "name": "symbol",
      "outputs": [
        {
          "internalType": "string",
          "name": "",
          "type": "string"
        }
      ],
      "stateMutability": "view",
      "type": "function"
    },
    {
      "inputs": [
        {
          "internalType": "uint256",
          "name": "tokenId",
          "type": "uint256"
        }
      ],
      "name": "tokenURI",
      "outputs": [
        {
          "internalType": "string",
          "name": "",
          "type": "string"
        }
      ],
      "stateMutability": "view",
      "type": "function"
    }
  ],
  "bytecode": {
    "object": "0x6101406040523480156200001257600080fd5b5060405162001593380380620015938339810160408190526200003591620001c7565b8282828281818460006200004a8382620002e7565b506001620000598282620002e7565b5050825160208085019190912083518483012060e08290526101008190524660a0818152604080517f8b73c3c69bb8fe3d512ecc4cf759cc79239f7b179b0ffacaa9a75d522b39400f81880181905281830187905260608201869052608082019490945230818401528151808203909301835260c0019052805194019390932091935091906080523060c0526101205250620003b398505050505050505050565b634e487b7160e01b600052604160045260246000fd5b600082601f8301126200012257600080fd5b81516001600160401b03808211156200013f576200013f620000fa565b604051601f8301601f19908116603f011681019082821181831017156200016a576200016a620000fa565b816040528381526020925086838588010111156200018757600080fd5b600091505b83821015620001ab57858201830151818301840152908201906200018c565b83821115620001bd5760008385830101525b9695505050505050565b600080600060608486031215620001dd57600080fd5b83516001600160401b0380821115620001f557600080fd5b620002038783880162000110565b945060208601519150808211156200021a57600080fd5b620002288783880162000110565b935060408601519150808211156200023f57600080fd5b506200024e8682870162000110565b9150509250925092565b600181811c908216806200026d57607f821691505b6020821081036200028e57634e487b7160e01b600052602260045260246000fd5b50919050565b601f821115620002e257600081815260208120601f850160051c81016020861015620002bd5750805b601f850160051c820191505b81811015620002de57828155600101620002c9565b5050505b505050565b81516001600160401b03811115620003035762000303620000fa565b6200031b8162000314845462000258565b8462000294565b602080601f8311600181146200035357600084156200033a5750858301515b600019600386901b1c1916600185901b178555620002de565b600085815260208120601f198616915b82811015620003845788860151825594840194600190910190840162000363565b5085821015620003a35787850151600019600388901b60f8161c191681555b5050505050600190811b01905550565b60805160a05160c05160e0516101005161012051611190620004036000396000610b2d01526000610b7c01526000610b5701526000610ab001526000610ada01526000610b0401526111906000f3fe608060405234801561001057600080fd5b50600436106100885760003560e01c806370a082311161005b57806370a082311461010a5780638fac1c1c1461012b57806395d89b411461013e578063c87b56dd1461014657600080fd5b806301ffc9a71461008d57806306fdde03146100b557806342966c68146100ca5780636352211e146100df575b600080fd5b6100a061009b366004610d54565b610159565b60405190151581526020015b60405180910390f35b6100bd610184565b6040516100ac9190610dcd565b6100dd6100d8366004610de0565b610216565b005b6100f26100ed366004610de0565b610290565b6040516001600160a01b0390911681526020016100ac565b61011d610118366004610e15565b6102f5565b6040519081526020016100ac565b61011d610139366004610e72565b61037e565b6100bd610523565b6100bd610154366004610de0565b610532565b60006001600160e01b031982166323eb070760e21b148061017e575061017e82610637565b92915050565b60606000805461019390610ef3565b80601f01602080910402602001604051908101604052809291908181526020018280546101bf90610ef3565b801561020c5780601f106101e15761010080835404028352916020019161020c565b820191906000526020600020905b8154815290600101906020018083116101ef57829003601f168201915b5050505050905090565b61021f81610290565b6001600160a01b0316336001600160a01b0316146102845760405162461bcd60e51b815260206004820152601a60248201527f6275726e3a2073656e646572206d757374206265206f776e657200000000000060448201526064015b60405180910390fd5b61028d81610687565b50565b6000818152600260205260408120546001600160a01b03168061017e5760405162461bcd60e51b815260206004820152601c60248201527f6f776e65724f663a20746f6b656e20646f65736e277420657869737400000000604482015260640161027b565b60006001600160a01b0382166103625760405162461bcd60e51b815260206004820152602c60248201527f62616c616e63654f663a2061646472657373207a65726f206973206e6f74206160448201526b103b30b634b21037bbb732b960a11b606482015260840161027b565b506001600160a01b031660009081526004602052604090205490565b60008061038d8733888861072e565b905060008160001c90506103d8888387878080601f01602080910402602001604051908101604052809392919081815260200183838082843760009201919091525061079592505050565b6104325760405162461bcd60e51b815260206004820152602560248201527f6d696e74576974685065726d697373696f6e3a20696e76616c6964207369676e604482015264617475726560d81b606482015260840161027b565b600881901c600090815260066020526040902054600160ff83161b161561049b5760405162461bcd60e51b815260206004820181905260248201527f6d696e74576974685065726d697373696f6e3a20616c72656164792075736564604482015260640161027b565b60006104a660055490565b90506104e933828a8a8080601f0160208091040260200160405190810160405280939291908181526020018383808284376000920191909152506108e392505050565b506104f8600580546001019055565b600882901c60009081526006602052604090208054600160ff85161b17905598975050505050505050565b60606001805461019390610ef3565b6000818152600260205260409020546060906001600160a01b03166105995760405162461bcd60e51b815260206004820152601d60248201527f746f6b656e5552493a20746f6b656e20646f65736e2774206578697374000000604482015260640161027b565b600082815260036020526040902080546105b290610ef3565b80601f01602080910402602001604051908101604052809291908181526020018280546105de90610ef3565b801561062b5780601f106106005761010080835404028352916020019161062b565b820191906000526020600020905b81548152906001019060200180831161060e57829003601f168201915b50505050509050919050565b60006001600160e01b03198216635b5e139f60e01b148061066857506001600160e01b03198216635164cf4760e01b145b8061017e57506301ffc9a760e01b6001600160e01b031983161461017e565b600061069282610290565b6001600160a01b038116600090815260046020526040812080549293506001929091906106c0908490610f43565b9091555050600082815260026020908152604080832080546001600160a01b0319169055600390915281206106f491610cf0565b60405182906001600160a01b038316907fec9ab91322523c899ede7830ec9bfc992b5981cdcc27b91162fb23de5791117b90600090a35050565b6000807fd8eb14f4ea0b23f6cb3c182d47430e98ed3da686abfd02df5efd1e126b7840e68686868660405160200161076a959493929190610f5a565b60405160208183030381529060405280519060200120905061078b816109e7565b9695505050505050565b60008060006107a48585610a35565b909250905060008160048111156107bd576107bd610fad565b1480156107db5750856001600160a01b0316826001600160a01b0316145b156107eb576001925050506108dc565b600080876001600160a01b0316631626ba7e60e01b8888604051602401610813929190610fc3565b60408051601f198184030181529181526020820180516001600160e01b03166001600160e01b03199094169390931790925290516108519190610fe4565b600060405180830381855afa9150503d806000811461088c576040519150601f19603f3d011682016040523d82523d6000602084013e610891565b606091505b50915091508180156108a4575080516020145b80156108d557508051630b135d3f60e11b906108c99083016020908101908401611000565b6001600160e01b031916145b9450505050505b9392505050565b6000828152600260205260408120546001600160a01b03161561093f5760405162461bcd60e51b81526020600482015260146024820152736d696e743a20746f6b656e49442065786973747360601b604482015260640161027b565b6001600160a01b038416600090815260046020526040812080546001929061096890849061101d565b9091555050600083815260026020908152604080832080546001600160a01b0319166001600160a01b038916179055600390915290206109a8838261109a565b5060405183906001600160a01b038616907fe9274a84b19e9428826de6bae8c48329354f8f0e73f771b97cae2d9dccd45a2790600090a3509092915050565b600061017e6109f4610aa3565b8360405161190160f01b6020820152602281018390526042810182905260009060620160405160208183030381529060405280519060200120905092915050565b6000808251604103610a6b5760208301516040840151606085015160001a610a5f87828585610bca565b94509450505050610a9c565b8251604003610a945760208301516040840151610a89868383610cb7565b935093505050610a9c565b506000905060025b9250929050565b6000306001600160a01b037f000000000000000000000000000000000000000000000000000000000000000016148015610afc57507f000000000000000000000000000000000000000000000000000000000000000046145b15610b2657507f000000000000000000000000000000000000000000000000000000000000000090565b50604080517f00000000000000000000000000000000000000000000000000000000000000006020808301919091527f0000000000000000000000000000000000000000000000000000000000000000828401527f000000000000000000000000000000000000000000000000000000000000000060608301524660808301523060a0808401919091528351808403909101815260c0909201909252805191012090565b6000807f7fffffffffffffffffffffffffffffff5d576e7357a4501ddfe92f46681b20a0831115610c015750600090506003610cae565b8460ff16601b14158015610c1957508460ff16601c14155b15610c2a5750600090506004610cae565b6040805160008082526020820180845289905260ff881692820192909252606081018690526080810185905260019060a0016020604051602081039080840390855afa158015610c7e573d6000803e3d6000fd5b5050604051601f1901519150506001600160a01b038116610ca757600060019250925050610cae565b9150600090505b94509492505050565b6000806001600160ff1b03831681610cd460ff86901c601b61101d565b9050610ce287828885610bca565b935093505050935093915050565b508054610cfc90610ef3565b6000825580601f10610d0c575050565b601f01602090049060005260206000209081019061028d91905b80821115610d3a5760008155600101610d26565b5090565b6001600160e01b03198116811461028d57600080fd5b600060208284031215610d6657600080fd5b81356108dc81610d3e565b60005b83811015610d8c578181015183820152602001610d74565b83811115610d9b576000848401525b50505050565b60008151808452610db9816020860160208601610d71565b601f01601f19169290920160200192915050565b6020815260006108dc6020830184610da1565b600060208284031215610df257600080fd5b5035919050565b80356001600160a01b0381168114610e1057600080fd5b919050565b600060208284031215610e2757600080fd5b6108dc82610df9565b60008083601f840112610e4257600080fd5b50813567ffffffffffffffff811115610e5a57600080fd5b602083019150836020828501011115610a9c57600080fd5b600080600080600060608688031215610e8a57600080fd5b610e9386610df9565b9450602086013567ffffffffffffffff80821115610eb057600080fd5b610ebc89838a01610e30565b90965094506040880135915080821115610ed557600080fd5b50610ee288828901610e30565b969995985093965092949392505050565b600181811c90821680610f0757607f821691505b602082108103610f2757634e487b7160e01b600052602260045260246000fd5b50919050565b634e487b7160e01b600052601160045260246000fd5b600082821015610f5557610f55610f2d565b500390565b8581526001600160a01b0385811660208301528416604082015260806060820181905281018290526000828460a0840137600060a0848401015260a0601f19601f85011683010190509695505050505050565b634e487b7160e01b600052602160045260246000fd5b828152604060208201526000610fdc6040830184610da1565b949350505050565b60008251610ff6818460208701610d71565b9190910192915050565b60006020828403121561101257600080fd5b81516108dc81610d3e565b6000821982111561103057611030610f2d565b500190565b634e487b7160e01b600052604160045260246000fd5b601f82111561109557600081815260208120601f850160051c810160208610156110725750805b601f850160051c820191505b818110156110915782815560010161107e565b5050505b505050565b815167ffffffffffffffff8111156110b4576110b4611035565b6110c8816110c28454610ef3565b8461104b565b602080601f8311600181146110fd57600084156110e55750858301515b600019600386901b1c1916600185901b178555611091565b600085815260208120601f198616915b8281101561112c5788860151825594840194600190910190840161110d565b508582101561114a5787850151600019600388901b60f8161c191681555b5050505050600190811b0190555056fea2646970667358221220a1971e4f7f00733a05a151fd14b8fe66985d7c1d13b3ab5a6f220f88872d72a664736f6c634300080f0033",
    "linkReferences": {}
  },
  "methodIdentifiers": {
    "balanceOf(address)": "70a08231",
    "burn(uint256)": "42966c68",
    "mintWithPermission(address,string,bytes)": "8fac1c1c",
    "name()": "06fdde03",
    "ownerOf(uint256)": "6352211e",
    "supportsInterface(bytes4)": "01ffc9a7",
    "symbol()": "95d89b41",
    "tokenURI(uint256)": "c87b56dd"
  },
  "id": 20
}