{
  "abi": [
    {
      "inputs": [
        {
          "internalType": "string",
          "name": "name",
          "type": "string"
        },
        {
          "internalType": "string",
          "name": "symbol",
          "type": "string"
        },
        {
          "internalType": "string",
          "name": "version",
          "type": "string"
        },
        {
          "internalType": "address",
          "name": "nextOwner",
          "type": "address"
        },
        {
          "internalType": "address",
          "name": "dataHolderAddress",
          "type": "address"
        }
      ],
      "stateMutability": "nonpayable",
      "type": "constructor"
    },
    {
      "anonymous": false,
      "inputs": [
        {
          "indexed": true,
          "internalType": "address",
          "name": "to",
          "type": "address"
        },
        {
          "indexed": false,
          "internalType": "string",
          "name": "specUri",
          "type": "string"
        },
        {
          "indexed": false,
          "internalType": "uint256",
          "name": "tokenId",
          "type": "uint256"
        }
      ],
      "name": "BadgeMinted",
      "type": "event"
    },
    {
      "anonymous": false,
      "inputs": [
        {
          "indexed": true,
          "internalType": "address",
          "name": "previousOwner",
          "type": "address"
        },
        {
          "indexed": true,
          "internalType": "address",
          "name": "newOwner",
          "type": "address"
        }
      ],
      "name": "OwnershipTransferred",
      "type": "event"
    },
    {
      "anonymous": false,
      "inputs": [
        {
          "indexed": true,
          "internalType": "address",
          "name": "to",
          "type": "address"
        },
        {
          "indexed": false,
          "internalType": "string",
          "name": "specUri",
          "type": "string"
        },
        {
          "indexed": true,
          "internalType": "uint256",
          "name": "raftTokenId",
          "type": "uint256"
        },
        {
          "indexed": true,
          "internalType": "address",
          "name": "raftAddress",
          "type": "address"
        }
      ],
      "name": "SpecCreated",
      "type": "event"
    },
    {
      "anonymous": false,
      "inputs": [
        {
          "indexed": true,
          "internalType": "address",
          "name": "from",
          "type": "address"
        },
        {
          "indexed": true,
          "internalType": "address",
          "name": "to",
          "type": "address"
        },
        {
          "indexed": true,
          "internalType": "uint256",
          "name": "tokenId",
          "type": "uint256"
        }
      ],
      "name": "Transfer",
      "type": "event"
    },
    {
      "inputs": [
        {
          "internalType": "address",
          "name": "owner",
          "type": "address"
        }
      ],
      "name": "balanceOf",
      "outputs": [
        {
          "internalType": "uint256",
          "name": "",
          "type": "uint256"
        }
      ],
      "stateMutability": "view",
      "type": "function"
    },
    {
      "inputs": [
        {
          "internalType": "string",
          "name": "specUri",
          "type": "string"
        },
        {
          "internalType": "uint256",
          "name": "raftTokenId",
          "type": "uint256"
        }
      ],
      "name": "createSpecAsRaftOwner",
      "outputs": [],
      "stateMutability": "nonpayable",
      "type": "function"
    },
    {
      "inputs": [],
      "name": "getDataHolderAddress",
      "outputs": [
        {
          "internalType": "address",
          "name": "",
          "type": "address"
        }
      ],
      "stateMutability": "view",
      "type": "function"
    },
    {
      "inputs": [
        {
          "internalType": "address",
          "name": "from",
          "type": "address"
        },
        {
          "internalType": "address",
          "name": "to",
          "type": "address"
        },
        {
          "internalType": "string",
          "name": "tokenURI",
          "type": "string"
        }
      ],
      "name": "getHash",
      "outputs": [
        {
          "internalType": "bytes32",
          "name": "",
          "type": "bytes32"
        }
      ],
      "stateMutability": "view",
      "type": "function"
    },
    {
      "inputs": [
        {
          "internalType": "address",
          "name": "to",
          "type": "address"
        },
        {
          "internalType": "string",
          "name": "uri",
          "type": "string"
        },
        {
          "internalType": "bytes",
          "name": "signature",
          "type": "bytes"
        }
      ],
      "name": "give",
      "outputs": [
        {
          "internalType": "uint256",
          "name": "",
          "type": "uint256"
        }
      ],
      "stateMutability": "nonpayable",
      "type": "function"
    },
    {
      "inputs": [],
      "name": "name",
      "outputs": [
        {
          "internalType": "string",
          "name": "",
          "type": "string"
        }
      ],
      "stateMutability": "view",
      "type": "function"
    },
    {
      "inputs": [],
      "name": "owner",
      "outputs": [
        {
          "internalType": "address",
          "name": "",
          "type": "address"
        }
      ],
      "stateMutability": "view",
      "type": "function"
    },
    {
      "inputs": [
        {
          "internalType": "uint256",
          "name": "tokenId",
          "type": "uint256"
        }
      ],
      "name": "ownerOf",
      "outputs": [
        {
          "internalType": "address",
          "name": "",
          "type": "address"
        }
      ],
      "stateMutability": "view",
      "type": "function"
    },
    {
      "inputs": [],
      "name": "renounceOwnership",
      "outputs": [],
      "stateMutability": "nonpayable",
      "type": "function"
    },
    {
      "inputs": [
        {
          "internalType": "address",
          "name": "_dataHolder",
          "type": "address"
        }
      ],
      "name": "setDataHolder",
      "outputs": [],
      "stateMutability": "nonpayable",
      "type": "function"
    },
    {
      "inputs": [
        {
          "internalType": "bytes4",
          "name": "interfaceId",
          "type": "bytes4"
        }
      ],
      "name": "supportsInterface",
      "outputs": [
        {
          "internalType": "bool",
          "name": "",
          "type": "bool"
        }
      ],
      "stateMutability": "view",
      "type": "function"
    },
    {
      "inputs": [],
      "name": "symbol",
      "outputs": [
        {
          "internalType": "string",
          "name": "",
          "type": "string"
        }
      ],
      "stateMutability": "view",
      "type": "function"
    },
    {
      "inputs": [
        {
          "internalType": "address",
          "name": "from",
          "type": "address"
        },
        {
          "internalType": "string",
          "name": "uri",
          "type": "string"
        },
        {
          "internalType": "bytes",
          "name": "signature",
          "type": "bytes"
        }
      ],
      "name": "take",
      "outputs": [
        {
          "internalType": "uint256",
          "name": "",
          "type": "uint256"
        }
      ],
      "stateMutability": "nonpayable",
      "type": "function"
    },
    {
      "inputs": [
        {
          "internalType": "uint256",
          "name": "tokenId",
          "type": "uint256"
        }
      ],
      "name": "tokenURI",
      "outputs": [
        {
          "internalType": "string",
          "name": "",
          "type": "string"
        }
      ],
      "stateMutability": "view",
      "type": "function"
    },
    {
      "inputs": [
        {
          "internalType": "address",
          "name": "newOwner",
          "type": "address"
        }
      ],
      "name": "transferOwnership",
      "outputs": [],
      "stateMutability": "nonpayable",
      "type": "function"
    },
    {
      "inputs": [
        {
          "internalType": "uint256",
          "name": "tokenId",
          "type": "uint256"
        }
      ],
      "name": "unequip",
      "outputs": [],
      "stateMutability": "nonpayable",
      "type": "function"
    }
  ],
  "bytecode": {
    "object": "0x6101406040523480156200001257600080fd5b506040516200207138038062002071833981016040819052620000359162000359565b845160208087019190912084518583012060e08290526101008190524660a0818152604080517f8b73c3c69bb8fe3d512ecc4cf759cc79239f7b179b0ffacaa9a75d522b39400f818801819052818301969096526060810194909452608080850193909352308483018190528151808603909301835260c094850190915281519190950120905291909152610120528484846001620000d584826200049f565b506002620000e483826200049f565b5050505062000102620000fc6200013860201b60201c565b6200013c565b6200010d826200018e565b600880546001600160a01b0319166001600160a01b0392909216919091179055506200056b92505050565b3390565b600780546001600160a01b038381166001600160a01b0319831681179093556040519116919082907f8be0079c531659141344cd1fd0a4f28419497f9722a3daafe3b4186f6b6457e090600090a35050565b6200019862000211565b6001600160a01b038116620002035760405162461bcd60e51b815260206004820152602660248201527f4f776e61626c653a206e6577206f776e657220697320746865207a65726f206160448201526564647265737360d01b60648201526084015b60405180910390fd5b6200020e816200013c565b50565b6007546001600160a01b031633146200026d5760405162461bcd60e51b815260206004820181905260248201527f4f776e61626c653a2063616c6c6572206973206e6f7420746865206f776e65726044820152606401620001fa565b565b634e487b7160e01b600052604160045260246000fd5b600082601f8301126200029757600080fd5b81516001600160401b0380821115620002b457620002b46200026f565b604051601f8301601f19908116603f01168101908282118183101715620002df57620002df6200026f565b81604052838152602092508683858801011115620002fc57600080fd5b600091505b8382101562000320578582018301518183018401529082019062000301565b83821115620003325760008385830101525b9695505050505050565b80516001600160a01b03811681146200035457600080fd5b919050565b600080600080600060a086880312156200037257600080fd5b85516001600160401b03808211156200038a57600080fd5b6200039889838a0162000285565b96506020880151915080821115620003af57600080fd5b620003bd89838a0162000285565b95506040880151915080821115620003d457600080fd5b50620003e38882890162000285565b935050620003f4606087016200033c565b915062000404608087016200033c565b90509295509295909350565b600181811c908216806200042557607f821691505b6020821081036200044657634e487b7160e01b600052602260045260246000fd5b50919050565b601f8211156200049a57600081815260208120601f850160051c81016020861015620004755750805b601f850160051c820191505b81811015620004965782815560010162000481565b5050505b505050565b81516001600160401b03811115620004bb57620004bb6200026f565b620004d381620004cc845462000410565b846200044c565b602080601f8311600181146200050b5760008415620004f25750858301515b600019600386901b1c1916600185901b17855562000496565b600085815260208120601f198616915b828110156200053c578886015182559484019460019091019084016200051b565b50858210156200055b5787850151600019600388901b60f8161c191681555b5050505050600190811b01905550565b60805160a05160c05160e0516101005161012051611ab6620005bb600039600061132b0152600061137a01526000611355015260006112ae015260006112d8015260006113020152611ab66000f3fe608060405234801561001057600080fd5b50600436106101005760003560e01c806395d89b4111610097578063c87b56dd11610066578063c87b56dd1461020e578063d179e3d014610221578063ec64948e14610234578063f2fde38b1461024757600080fd5b806395d89b41146101cd578063a3947803146101d5578063c0184112146101e8578063c5cf33c2146101fb57600080fd5b8063635ad993116100d3578063635ad9931461018257806370a0823114610193578063715018a6146101b45780638da5cb5b146101bc57600080fd5b806301ffc9a71461010557806306fdde031461012d5780634249d86e146101425780636352211e14610157575b600080fd5b61011861011336600461153c565b61025a565b60405190151581526020015b60405180910390f35b6101356102ac565b60405161012491906115c2565b6101556101503660046115eb565b61033e565b005b61016a6101653660046116a0565b610617565b6040516001600160a01b039091168152602001610124565b6008546001600160a01b031661016a565b6101a66101a13660046116ce565b61067c565b604051908152602001610124565b610155610705565b6007546001600160a01b031661016a565b610135610719565b6101a66101e336600461172d565b610728565b6101556101f63660046116ce565b610800565b6101a66102093660046117b0565b61082a565b61013561021c3660046116a0565b610841565b61015561022f3660046116a0565b610946565b6101a661024236600461172d565b6109db565b6101556102553660046116ce565b610a88565b60006001600160e01b03198216635b5e139f60e01b148061028b57506001600160e01b031982166346bdd63960e11b145b806102a657506301ffc9a760e01b6001600160e01b03198316145b92915050565b6060600180546102bb90611815565b80601f01602080910402602001604051908101604052809291908181526020018280546102e790611815565b80156103345780601f1061030957610100808354040283529160200191610334565b820191906000526020600020905b81548152906001019060200180831161031757829003601f168201915b5050505050905090565b60085460405163b2a0cb6b60e01b8152600481018390526000916001600160a01b03169063b2a0cb6b90602401602060405180830381865afa158015610388573d6000803e3d6000fd5b505050506040513d601f19601f820116820180604052508101906103ac919061184f565b90506001600160a01b03811633146104175760405162461bcd60e51b815260206004820152602360248201527f637265617465537065634173526166744f776e65723a20756e617574686f72696044820152621e995960ea1b60648201526084015b60405180910390fd5b600854604051631722f77360e31b81526001600160a01b039091169063b917bb98906104479086906004016115c2565b602060405180830381865afa158015610464573d6000803e3d6000fd5b505050506040513d601f19601f82011682018060405250810190610488919061186c565b156104ec5760405162461bcd60e51b815260206004820152602e60248201527f637265617465537065634173526166744f776e65723a207370656320616c726560448201526d18591e481c9959da5cdd195c995960921b606482015260840161040e565b60085460405163addd190760e01b81526001600160a01b039091169063addd19079061051e908690869060040161188e565b600060405180830381600087803b15801561053857600080fd5b505af115801561054c573d6000803e3d6000fd5b50505050600860009054906101000a90046001600160a01b03166001600160a01b03166334f876626040518163ffffffff1660e01b8152600401602060405180830381865afa1580156105a3573d6000803e3d6000fd5b505050506040513d601f19601f820116820180604052508101906105c7919061184f565b6001600160a01b031682336001600160a01b03167f68c7f8503283c455a4445b54a7d5c40656c8cae5cca0583c6d4be836984787008660405161060a91906115c2565b60405180910390a4505050565b6000818152600360205260408120546001600160a01b0316806102a65760405162461bcd60e51b815260206004820152601c60248201527f6f776e65724f663a20746f6b656e20646f65736e277420657869737400000000604482015260640161040e565b60006001600160a01b0382166106e95760405162461bcd60e51b815260206004820152602c60248201527f62616c616e63654f663a2061646472657373207a65726f206973206e6f74206160448201526b103b30b634b21037bbb732b960a11b606482015260840161040e565b506001600160a01b031660009081526005602052604090205490565b61070d610afe565b6107176000610b58565b565b6060600280546102bb90611815565b60006001600160a01b03861633036107825760405162461bcd60e51b815260206004820152601b60248201527f74616b653a2063616e6e6f742074616b652066726f6d2073656c660000000000604482015260640161040e565b6000610792338888888888610baa565b90506107d5338288888080601f016020809104026020016040519081016040528093929190818152602001838380828437600092019190915250610cde92505050565b50600881901c60009081526020819052604090208054600160ff84161b1790555b9695505050505050565b610808610afe565b600880546001600160a01b0319166001600160a01b0392909216919091179055565b600061083885858585610e66565b95945050505050565b6000818152600360205260409020546060906001600160a01b03166108a85760405162461bcd60e51b815260206004820152601d60248201527f746f6b656e5552493a20746f6b656e20646f65736e2774206578697374000000604482015260640161040e565b600082815260046020526040902080546108c190611815565b80601f01602080910402602001604051908101604052809291908181526020018280546108ed90611815565b801561093a5780601f1061090f5761010080835404028352916020019161093a565b820191906000526020600020905b81548152906001019060200180831161091d57829003601f168201915b50505050509050919050565b61094f81610617565b6001600160a01b0316336001600160a01b0316146109af5760405162461bcd60e51b815260206004820152601d60248201527f756e65717569703a2073656e646572206d757374206265206f776e6572000000604482015260640161040e565b600881901c60009081526020819052604090208054600160ff84161b191690556109d881610ef5565b50565b60006001600160a01b0386163303610a355760405162461bcd60e51b815260206004820152601b60248201527f676976653a2063616e6e6f7420676976652066726f6d2073656c660000000000604482015260640161040e565b6000610a45338888888888610baa565b90506107d5878288888080601f016020809104026020016040519081016040528093929190818152602001838380828437600092019190915250610cde92505050565b610a90610afe565b6001600160a01b038116610af55760405162461bcd60e51b815260206004820152602660248201527f4f776e61626c653a206e6577206f776e657220697320746865207a65726f206160448201526564647265737360d01b606482015260840161040e565b6109d881610b58565b6007546001600160a01b031633146107175760405162461bcd60e51b815260206004820181905260248201527f4f776e61626c653a2063616c6c6572206973206e6f7420746865206f776e6572604482015260640161040e565b600780546001600160a01b038381166001600160a01b0319831681179093556040519116919082907f8be0079c531659141344cd1fd0a4f28419497f9722a3daafe3b4186f6b6457e090600090a35050565b600080610bb988888888610e66565b905060008160001c9050610c04888387878080601f016020809104026020016040519081016040528093929190818152602001838380828437600092019190915250610f9e92505050565b610c5f5760405162461bcd60e51b815260206004820152602660248201527f5f73616665436865636b41677265656d656e743a20696e76616c6964207369676044820152656e617475726560d01b606482015260840161040e565b600881901c600090815260208190526040902054600160ff83161b1615610cd25760405162461bcd60e51b815260206004820152602160248201527f5f73616665436865636b41677265656d656e743a20616c7265616479207573656044820152601960fa1b606482015260840161040e565b98975050505050505050565b600854604051633664a8e960e01b815260009182916001600160a01b0390911690633664a8e990610d139086906004016115c2565b602060405180830381865afa158015610d30573d6000803e3d6000fd5b505050506040513d601f19601f82011682018060405250810190610d5491906118b0565b905080600003610da65760405162461bcd60e51b815260206004820152601d60248201527f5f6d696e743a2073706563206973206e6f742072656769737465726564000000604482015260640161040e565b610db18585856110df565b5060085460405163fb74926160e01b815260048101869052602481018390526001600160a01b039091169063fb74926190604401600060405180830381600087803b158015610dff57600080fd5b505af1158015610e13573d6000803e3d6000fd5b50505050336001600160a01b03167f8df8e47e98cb2a6b68ac30879a3419321c1311b9de81b66649a5d61e477bf6cf8486604051610e5292919061188e565b60405180910390a2839150505b9392505050565b6000807fe76a195fbe43f0eaa611595069f780493db2202a1cc4b2d7d44b47069812998a86868686604051610e9c9291906118c9565b604051908190038120610ed4949392916020019384526001600160a01b03928316602085015291166040830152606082015260800190565b6040516020818303038152906040528051906020012090506107f6816111e5565b6000610f0082610617565b6001600160a01b03811660009081526005602052604081208054929350600192909190610f2e9084906118ef565b9091555050600082815260036020908152604080832080546001600160a01b031916905560049091528120610f62916114ee565b60405182906000906001600160a01b038416907fddf252ad1be2c89b69c2b068fc378daa952ba7f163c4a11628f55a4df523b3ef908390a45050565b6000806000610fad8585611233565b90925090506000816004811115610fc657610fc6611906565b148015610fe45750856001600160a01b0316826001600160a01b0316145b15610ff457600192505050610e5f565b600080876001600160a01b0316631626ba7e60e01b888860405160240161101c92919061191c565b60408051601f198184030181529181526020820180516001600160e01b03166001600160e01b031990941693909317909252905161105a919061193d565b600060405180830381855afa9150503d8060008114611095576040519150601f19603f3d011682016040523d82523d6000602084013e61109a565b606091505b50915091508180156110ad575080516020145b8015610cd257508051630b135d3f60e11b906110d290830160209081019084016118b0565b1498975050505050505050565b6000828152600360205260408120546001600160a01b03161561113b5760405162461bcd60e51b81526020600482015260146024820152736d696e743a20746f6b656e49442065786973747360601b604482015260640161040e565b6001600160a01b0384166000908152600560205260408120805460019290611164908490611959565b9091555050600083815260036020908152604080832080546001600160a01b0319166001600160a01b038916179055600490915290206111a483826119c0565b5060405183906001600160a01b038616906000907fddf252ad1be2c89b69c2b068fc378daa952ba7f163c4a11628f55a4df523b3ef908290a4509092915050565b60006102a66111f26112a1565b8360405161190160f01b6020820152602281018390526042810182905260009060620160405160208183030381529060405280519060200120905092915050565b60008082516041036112695760208301516040840151606085015160001a61125d878285856113c8565b9450945050505061129a565b825160400361129257602083015160408401516112878683836114b5565b93509350505061129a565b506000905060025b9250929050565b6000306001600160a01b037f0000000000000000000000000000000000000000000000000000000000000000161480156112fa57507f000000000000000000000000000000000000000000000000000000000000000046145b1561132457507f000000000000000000000000000000000000000000000000000000000000000090565b50604080517f00000000000000000000000000000000000000000000000000000000000000006020808301919091527f0000000000000000000000000000000000000000000000000000000000000000828401527f000000000000000000000000000000000000000000000000000000000000000060608301524660808301523060a0808401919091528351808403909101815260c0909201909252805191012090565b6000807f7fffffffffffffffffffffffffffffff5d576e7357a4501ddfe92f46681b20a08311156113ff57506000905060036114ac565b8460ff16601b1415801561141757508460ff16601c14155b1561142857506000905060046114ac565b6040805160008082526020820180845289905260ff881692820192909252606081018690526080810185905260019060a0016020604051602081039080840390855afa15801561147c573d6000803e3d6000fd5b5050604051601f1901519150506001600160a01b0381166114a5576000600192509250506114ac565b9150600090505b94509492505050565b6000806001600160ff1b038316816114d260ff86901c601b611959565b90506114e0878288856113c8565b935093505050935093915050565b5080546114fa90611815565b6000825580601f1061150a575050565b601f0160209004906000526020600020908101906109d891905b808211156115385760008155600101611524565b5090565b60006020828403121561154e57600080fd5b81356001600160e01b031981168114610e5f57600080fd5b60005b83811015611581578181015183820152602001611569565b83811115611590576000848401525b50505050565b600081518084526115ae816020860160208601611566565b601f01601f19169290920160200192915050565b602081526000610e5f6020830184611596565b634e487b7160e01b600052604160045260246000fd5b600080604083850312156115fe57600080fd5b823567ffffffffffffffff8082111561161657600080fd5b818501915085601f83011261162a57600080fd5b81358181111561163c5761163c6115d5565b604051601f8201601f19908116603f01168101908382118183101715611664576116646115d5565b8160405282815288602084870101111561167d57600080fd5b826020860160208301376000602093820184015298969091013596505050505050565b6000602082840312156116b257600080fd5b5035919050565b6001600160a01b03811681146109d857600080fd5b6000602082840312156116e057600080fd5b8135610e5f816116b9565b60008083601f8401126116fd57600080fd5b50813567ffffffffffffffff81111561171557600080fd5b60208301915083602082850101111561129a57600080fd5b60008060008060006060868803121561174557600080fd5b8535611750816116b9565b9450602086013567ffffffffffffffff8082111561176d57600080fd5b61177989838a016116eb565b9096509450604088013591508082111561179257600080fd5b5061179f888289016116eb565b969995985093965092949392505050565b600080600080606085870312156117c657600080fd5b84356117d1816116b9565b935060208501356117e1816116b9565b9250604085013567ffffffffffffffff8111156117fd57600080fd5b611809878288016116eb565b95989497509550505050565b600181811c9082168061182957607f821691505b60208210810361184957634e487b7160e01b600052602260045260246000fd5b50919050565b60006020828403121561186157600080fd5b8151610e5f816116b9565b60006020828403121561187e57600080fd5b81518015158114610e5f57600080fd5b6040815260006118a16040830185611596565b90508260208301529392505050565b6000602082840312156118c257600080fd5b5051919050565b8183823760009101908152919050565b634e487b7160e01b600052601160045260246000fd5b600082821015611901576119016118d9565b500390565b634e487b7160e01b600052602160045260246000fd5b8281526040602082015260006119356040830184611596565b949350505050565b6000825161194f818460208701611566565b9190910192915050565b6000821982111561196c5761196c6118d9565b500190565b601f8211156119bb57600081815260208120601f850160051c810160208610156119985750805b601f850160051c820191505b818110156119b7578281556001016119a4565b5050505b505050565b815167ffffffffffffffff8111156119da576119da6115d5565b6119ee816119e88454611815565b84611971565b602080601f831160018114611a235760008415611a0b5750858301515b600019600386901b1c1916600185901b1785556119b7565b600085815260208120601f198616915b82811015611a5257888601518255948401946001909101908401611a33565b5085821015611a705787850151600019600388901b60f8161c191681555b5050505050600190811b0190555056fea26469706673582212205ce83ce70832aefadc79af2309a09127429aba0aeab8f9f7ea7504c6764c6b2964736f6c634300080f0033",
    "linkReferences": {}
  },
  "methodIdentifiers": {
    "balanceOf(address)": "70a08231",
    "createSpecAsRaftOwner(string,uint256)": "4249d86e",
    "getDataHolderAddress()": "635ad993",
    "getHash(address,address,string)": "c5cf33c2",
    "give(address,string,bytes)": "ec64948e",
    "name()": "06fdde03",
    "owner()": "8da5cb5b",
    "ownerOf(uint256)": "6352211e",
    "renounceOwnership()": "715018a6",
    "setDataHolder(address)": "c0184112",
    "supportsInterface(bytes4)": "01ffc9a7",
    "symbol()": "95d89b41",
    "take(address,string,bytes)": "a3947803",
    "tokenURI(uint256)": "c87b56dd",
    "transferOwnership(address)": "f2fde38b",
    "unequip(uint256)": "d179e3d0"
  },
  "id": 24
}