{
  "abi": [
    {
      "inputs": [],
      "stateMutability": "nonpayable",
      "type": "constructor"
    },
    {
      "anonymous": false,
      "inputs": [
        {
          "indexed": false,
          "internalType": "address",
          "name": "previousAdmin",
          "type": "address"
        },
        {
          "indexed": false,
          "internalType": "address",
          "name": "newAdmin",
          "type": "address"
        }
      ],
      "name": "AdminChanged",
      "type": "event"
    },
    {
      "anonymous": false,
      "inputs": [
        {
          "indexed": true,
          "internalType": "uint256",
          "name": "tokenId",
          "type": "uint256"
        },
        {
          "indexed": true,
          "internalType": "address",
          "name": "reinstatedFrom",
          "type": "address"
        }
      ],
      "name": "BadgeReinstated",
      "type": "event"
    },
    {
      "anonymous": false,
      "inputs": [
        {
          "indexed": true,
          "internalType": "uint256",
          "name": "tokenId",
          "type": "uint256"
        },
        {
          "indexed": true,
          "internalType": "address",
          "name": "revokedFrom",
          "type": "address"
        }
      ],
      "name": "BadgeRevoked",
      "type": "event"
    },
    {
      "anonymous": false,
      "inputs": [
        {
          "indexed": true,
          "internalType": "address",
          "name": "beacon",
          "type": "address"
        }
      ],
      "name": "BeaconUpgraded",
      "type": "event"
    },
    {
      "anonymous": false,
      "inputs": [
        {
          "indexed": false,
          "internalType": "uint8",
          "name": "version",
          "type": "uint8"
        }
      ],
      "name": "Initialized",
      "type": "event"
    },
    {
      "anonymous": false,
      "inputs": [
        {
          "indexed": true,
          "internalType": "address",
          "name": "previousOwner",
          "type": "address"
        },
        {
          "indexed": true,
          "internalType": "address",
          "name": "newOwner",
          "type": "address"
        }
      ],
      "name": "OwnershipTransferred",
      "type": "event"
    },
    {
      "anonymous": false,
      "inputs": [
        {
          "indexed": true,
          "internalType": "address",
          "name": "to",
          "type": "address"
        },
        {
          "indexed": false,
          "internalType": "string",
          "name": "specUri",
          "type": "string"
        },
        {
          "indexed": true,
          "internalType": "uint256",
          "name": "raftTokenId",
          "type": "uint256"
        },
        {
          "indexed": true,
          "internalType": "address",
          "name": "raftAddress",
          "type": "address"
        }
      ],
      "name": "SpecCreated",
      "type": "event"
    },
    {
      "anonymous": false,
      "inputs": [
        {
          "indexed": true,
          "internalType": "address",
          "name": "from",
          "type": "address"
        },
        {
          "indexed": true,
          "internalType": "address",
          "name": "to",
          "type": "address"
        },
        {
          "indexed": true,
          "internalType": "uint256",
          "name": "tokenId",
          "type": "uint256"
        }
      ],
      "name": "Transfer",
      "type": "event"
    },
    {
      "anonymous": false,
      "inputs": [
        {
          "indexed": true,
          "internalType": "address",
          "name": "implementation",
          "type": "address"
        }
      ],
      "name": "Upgraded",
      "type": "event"
    },
    {
      "inputs": [
        {
          "internalType": "address",
          "name": "_owner",
          "type": "address"
        }
      ],
      "name": "balanceOf",
      "outputs": [
        {
          "internalType": "uint256",
          "name": "",
          "type": "uint256"
        }
      ],
      "stateMutability": "view",
      "type": "function"
    },
    {
      "inputs": [
        {
          "internalType": "string",
          "name": "_specUri",
          "type": "string"
        },
        {
          "internalType": "uint256",
          "name": "_raftTokenId",
          "type": "uint256"
        }
      ],
      "name": "createSpec",
      "outputs": [],
      "stateMutability": "nonpayable",
      "type": "function"
    },
    {
      "inputs": [
        {
          "internalType": "address",
          "name": "_from",
          "type": "address"
        },
        {
          "internalType": "address",
          "name": "_to",
          "type": "address"
        },
        {
          "internalType": "string",
          "name": "_uri",
          "type": "string"
        }
      ],
      "name": "getAgreementHash",
      "outputs": [
        {
          "internalType": "bytes32",
          "name": "",
          "type": "bytes32"
        }
      ],
      "stateMutability": "view",
      "type": "function"
    },
    {
      "inputs": [
        {
          "internalType": "address",
          "name": "_to",
          "type": "address"
        },
        {
          "internalType": "string",
          "name": "_uri",
          "type": "string"
        }
      ],
      "name": "getBadgeIdHash",
      "outputs": [
        {
          "internalType": "bytes32",
          "name": "",
          "type": "bytes32"
        }
      ],
      "stateMutability": "view",
      "type": "function"
    },
    {
      "inputs": [],
      "name": "getDataHolderAddress",
      "outputs": [
        {
          "internalType": "address",
          "name": "",
          "type": "address"
        }
      ],
      "stateMutability": "view",
      "type": "function"
    },
    {
      "inputs": [
        {
          "internalType": "uint256",
          "name": "_tokenId",
          "type": "uint256"
        }
      ],
      "name": "getVoucherHash",
      "outputs": [
        {
          "internalType": "uint256",
          "name": "",
          "type": "uint256"
        }
      ],
      "stateMutability": "view",
      "type": "function"
    },
    {
      "inputs": [
        {
          "internalType": "address",
          "name": "_to",
          "type": "address"
        },
        {
          "internalType": "string",
          "name": "_uri",
          "type": "string"
        },
        {
          "internalType": "bytes",
          "name": "_signature",
          "type": "bytes"
        }
      ],
      "name": "give",
      "outputs": [
        {
          "internalType": "uint256",
          "name": "",
          "type": "uint256"
        }
      ],
      "stateMutability": "nonpayable",
      "type": "function"
    },
    {
      "inputs": [
        {
          "internalType": "string",
          "name": "_name",
          "type": "string"
        },
        {
          "internalType": "string",
          "name": "_symbol",
          "type": "string"
        },
        {
          "internalType": "string",
          "name": "_version",
          "type": "string"
        },
        {
          "internalType": "address",
          "name": "_nextOwner",
          "type": "address"
        },
        {
          "internalType": "address",
          "name": "_specDataHolderAddress",
          "type": "address"
        }
      ],
      "name": "initialize",
      "outputs": [],
      "stateMutability": "nonpayable",
      "type": "function"
    },
    {
      "inputs": [],
      "name": "name",
      "outputs": [
        {
          "internalType": "string",
          "name": "",
          "type": "string"
        }
      ],
      "stateMutability": "view",
      "type": "function"
    },
    {
      "inputs": [],
      "name": "owner",
      "outputs": [
        {
          "internalType": "address",
          "name": "",
          "type": "address"
        }
      ],
      "stateMutability": "view",
      "type": "function"
    },
    {
      "inputs": [
        {
          "internalType": "uint256",
          "name": "_tokenId",
          "type": "uint256"
        }
      ],
      "name": "ownerOf",
      "outputs": [
        {
          "internalType": "address",
          "name": "",
          "type": "address"
        }
      ],
      "stateMutability": "view",
      "type": "function"
    },
    {
      "inputs": [],
      "name": "proxiableUUID",
      "outputs": [
        {
          "internalType": "bytes32",
          "name": "",
          "type": "bytes32"
        }
      ],
      "stateMutability": "view",
      "type": "function"
    },
    {
      "inputs": [
        {
          "internalType": "uint256",
          "name": "_raftTokenId",
          "type": "uint256"
        },
        {
          "internalType": "uint256",
          "name": "_badgeId",
          "type": "uint256"
        }
      ],
      "name": "reinstateBadge",
      "outputs": [],
      "stateMutability": "nonpayable",
      "type": "function"
    },
    {
      "inputs": [],
      "name": "renounceOwnership",
      "outputs": [],
      "stateMutability": "nonpayable",
      "type": "function"
    },
    {
      "inputs": [
        {
          "internalType": "uint256",
          "name": "_raftTokenId",
          "type": "uint256"
        },
        {
          "internalType": "uint256",
          "name": "_badgeId",
          "type": "uint256"
        }
      ],
      "name": "revokeBadge",
      "outputs": [],
      "stateMutability": "nonpayable",
      "type": "function"
    },
    {
      "inputs": [
        {
          "internalType": "uint256",
          "name": "",
          "type": "uint256"
        }
      ],
      "name": "revokedBadges",
      "outputs": [
        {
          "internalType": "bool",
          "name": "",
          "type": "bool"
        }
      ],
      "stateMutability": "view",
      "type": "function"
    },
    {
      "inputs": [
        {
          "internalType": "address",
          "name": "_dataHolder",
          "type": "address"
        }
      ],
      "name": "setDataHolder",
      "outputs": [],
      "stateMutability": "nonpayable",
      "type": "function"
    },
    {
      "inputs": [
        {
          "internalType": "bytes4",
          "name": "_interfaceId",
          "type": "bytes4"
        }
      ],
      "name": "supportsInterface",
      "outputs": [
        {
          "internalType": "bool",
          "name": "",
          "type": "bool"
        }
      ],
      "stateMutability": "view",
      "type": "function"
    },
    {
      "inputs": [],
      "name": "symbol",
      "outputs": [
        {
          "internalType": "string",
          "name": "",
          "type": "string"
        }
      ],
      "stateMutability": "view",
      "type": "function"
    },
    {
      "inputs": [
        {
          "internalType": "address",
          "name": "_from",
          "type": "address"
        },
        {
          "internalType": "string",
          "name": "_uri",
          "type": "string"
        },
        {
          "internalType": "bytes",
          "name": "_signature",
          "type": "bytes"
        }
      ],
      "name": "take",
      "outputs": [
        {
          "internalType": "uint256",
          "name": "",
          "type": "uint256"
        }
      ],
      "stateMutability": "nonpayable",
      "type": "function"
    },
    {
      "inputs": [
        {
          "internalType": "uint256",
          "name": "_tokenId",
          "type": "uint256"
        }
      ],
      "name": "tokenURI",
      "outputs": [
        {
          "internalType": "string",
          "name": "",
          "type": "string"
        }
      ],
      "stateMutability": "view",
      "type": "function"
    },
    {
      "inputs": [
        {
          "internalType": "address",
          "name": "newOwner",
          "type": "address"
        }
      ],
      "name": "transferOwnership",
      "outputs": [],
      "stateMutability": "nonpayable",
      "type": "function"
    },
    {
      "inputs": [
        {
          "internalType": "uint256",
          "name": "_tokenId",
          "type": "uint256"
        }
      ],
      "name": "unequip",
      "outputs": [],
      "stateMutability": "nonpayable",
      "type": "function"
    },
    {
      "inputs": [
        {
          "internalType": "address",
          "name": "newImplementation",
          "type": "address"
        }
      ],
      "name": "upgradeTo",
      "outputs": [],
      "stateMutability": "nonpayable",
      "type": "function"
    },
    {
      "inputs": [
        {
          "internalType": "address",
          "name": "newImplementation",
          "type": "address"
        },
        {
          "internalType": "bytes",
          "name": "data",
          "type": "bytes"
        }
      ],
      "name": "upgradeToAndCall",
      "outputs": [],
      "stateMutability": "payable",
      "type": "function"
    }
  ],
  "bytecode": {
    "object": "0x60a0604052306080523480156200001557600080fd5b506200002062000026565b620000e8565b600054610100900460ff1615620000935760405162461bcd60e51b815260206004820152602760248201527f496e697469616c697a61626c653a20636f6e747261637420697320696e697469604482015266616c697a696e6760c81b606482015260840160405180910390fd5b60005460ff9081161015620000e6576000805460ff191660ff9081179091556040519081527f7f26b83ff96e1f2b6a682f133852f6798a09c465da95921460cefb38474024989060200160405180910390a15b565b608051612aed62000120600039600081816105a7015281816105f00152818161096b015281816109ab0152610a3e0152612aed6000f3fe6080604052600436106101665760003560e01c806380956c7e116100d1578063c01841121161008a578063d6d0faee11610064578063d6d0faee14610438578063e499250614610458578063ec64948e14610478578063f2fde38b1461049857600080fd5b8063c0184112146103d8578063c87b56dd146103f8578063d179e3d01461041857600080fd5b806380956c7e146103145780638da5cb5b1461033457806391cf236e1461035257806395d89b4114610383578063a394780314610398578063a8cf8683146103b857600080fd5b806352d1902d1161012357806352d1902d146102535780635329ae0c146102685780636352211e14610288578063635ad993146102c057806370a08231146102df578063715018a6146102ff57600080fd5b806301ffc9a71461016b57806306fdde03146101a05780633659cfe6146101c25780633b363a09146101e4578063445a62b9146102205780634f1ef28614610240575b600080fd5b34801561017757600080fd5b5061018b610186366004612240565b6104b8565b60405190151581526020015b60405180910390f35b3480156101ac57600080fd5b506101b561050a565b60405161019791906122ba565b3480156101ce57600080fd5b506101e26101dd3660046122e2565b61059d565b005b3480156101f057600080fd5b506102126101ff3660046122ff565b6000908152610136602052604090205490565b604051908152602001610197565b34801561022c57600080fd5b506101e261023b3660046123c4565b610685565b6101e261024e366004612409565b610961565b34801561025f57600080fd5b50610212610a31565b34801561027457600080fd5b506101e261028336600461246d565b610ae4565b34801561029457600080fd5b506102a86102a33660046122ff565b610c12565b6040516001600160a01b039091168152602001610197565b3480156102cc57600080fd5b50610135546001600160a01b03166102a8565b3480156102eb57600080fd5b506102126102fa3660046122e2565b610c6b565b34801561030b57600080fd5b506101e2610cf6565b34801561032057600080fd5b506101e261032f36600461246d565b610d0a565b34801561034057600080fd5b5060c9546001600160a01b03166102a8565b34801561035e57600080fd5b5061018b61036d3660046122ff565b6101376020526000908152604090205460ff1681565b34801561038f57600080fd5b506101b5610e70565b3480156103a457600080fd5b506102126103b33660046124d1565b610e80565b3480156103c457600080fd5b506102126103d3366004612554565b610f6d565b3480156103e457600080fd5b506101e26103f33660046122e2565b610fa0565b34801561040457600080fd5b506101b56104133660046122ff565b610fcb565b34801561042457600080fd5b506101e26104333660046122ff565b6110d2565b34801561044457600080fd5b506101e261045336600461259a565b6111ae565b34801561046457600080fd5b5061021261047336600461264a565b61131f565b34801561048457600080fd5b506102126104933660046124d1565b6113b8565b3480156104a457600080fd5b506101e26104b33660046122e2565b611466565b60006001600160e01b03198216635b5e139f60e01b14806104e957506001600160e01b031982166346bdd63960e11b145b8061050457506301ffc9a760e01b6001600160e01b03198316145b92915050565b6060610130805461051a906126af565b80601f0160208091040260200160405190810160405280929190818152602001828054610546906126af565b80156105935780601f1061056857610100808354040283529160200191610593565b820191906000526020600020905b81548152906001019060200180831161057657829003601f168201915b5050505050905090565b6001600160a01b037f00000000000000000000000000000000000000000000000000000000000000001630036105ee5760405162461bcd60e51b81526004016105e5906126e3565b60405180910390fd5b7f00000000000000000000000000000000000000000000000000000000000000006001600160a01b0316610637600080516020612a71833981519152546001600160a01b031690565b6001600160a01b03161461065d5760405162461bcd60e51b81526004016105e59061272f565b610666816114dc565b60408051600080825260208201909252610682918391906114e4565b50565b806040518060400160405280600a8152602001696372656174655370656360b01b8152506000816040516020016106bc919061277b565b60408051808303601f19018152908290526101355463b2a0cb6b60e01b83526004830186905290925033916001600160a01b039091169063b2a0cb6b90602401602060405180830381865afa158015610719573d6000803e3d6000fd5b505050506040513d601f19601f8201168201806040525081019061073d91906127ad565b6001600160a01b03161481906107665760405162461bcd60e51b81526004016105e591906122ba565b5061013554604051637e07102760e11b81526001600160a01b039091169063fc0e204e906107989088906004016122ba565b602060405180830381865afa1580156107b5573d6000803e3d6000fd5b505050506040513d601f19601f820116820180604052508101906107d991906127ca565b156108325760405162461bcd60e51b815260206004820152602360248201527f637265617465537065633a207370656320616c726561647920726567697374656044820152621c995960ea1b60648201526084016105e5565b6101355460405163addd190760e01b81526001600160a01b039091169063addd19079061086590889088906004016127ec565b600060405180830381600087803b15801561087f57600080fd5b505af1158015610893573d6000803e3d6000fd5b5050505061013560009054906101000a90046001600160a01b03166001600160a01b03166334f876626040518163ffffffff1660e01b8152600401602060405180830381865afa1580156108eb573d6000803e3d6000fd5b505050506040513d601f19601f8201168201806040525081019061090f91906127ad565b6001600160a01b031684336001600160a01b03167f68c7f8503283c455a4445b54a7d5c40656c8cae5cca0583c6d4be836984787008860405161095291906122ba565b60405180910390a45050505050565b6001600160a01b037f00000000000000000000000000000000000000000000000000000000000000001630036109a95760405162461bcd60e51b81526004016105e5906126e3565b7f00000000000000000000000000000000000000000000000000000000000000006001600160a01b03166109f2600080516020612a71833981519152546001600160a01b031690565b6001600160a01b031614610a185760405162461bcd60e51b81526004016105e59061272f565b610a21826114dc565b610a2d828260016114e4565b5050565b6000306001600160a01b037f00000000000000000000000000000000000000000000000000000000000000001614610ad15760405162461bcd60e51b815260206004820152603860248201527f555550535570677261646561626c653a206d757374206e6f742062652063616c60448201527f6c6564207468726f7567682064656c656761746563616c6c000000000000000060648201526084016105e5565b50600080516020612a7183398151915290565b816040518060400160405280600b81526020016a7265766f6b65426164676560a81b815250600081604051602001610b1c919061277b565b60408051808303601f19018152908290526101355463b2a0cb6b60e01b83526004830186905290925033916001600160a01b039091169063b2a0cb6b90602401602060405180830381865afa158015610b79573d6000803e3d6000fd5b505050506040513d601f19601f82011682018060405250810190610b9d91906127ad565b6001600160a01b0316148190610bc65760405162461bcd60e51b81526004016105e591906122ba565b5060008481526101376020526040808220805460ff1916600117905551339186917f2605d5a2826281eb606461488eeee86e07056e06385b80d685c9d2dabe73d1dd9190a35050505050565b6000818152610132602052604081205482906001600160a01b0316610c495760405162461bcd60e51b81526004016105e59061280e565b600083815261013260205260409020546001600160a01b031691505b50919050565b60006001600160a01b038216610cd95760405162461bcd60e51b815260206004820152602d60248201527f62616c616e63654f663a2061646472657373207a65726f206973206e6f74206160448201526c2076616c6964206f776e65725f60981b60648201526084016105e5565b506001600160a01b03166000908152610134602052604090205490565b610cfe61164f565b610d0860006116a9565b565b6000818152610132602052604090205481906001600160a01b0316610d415760405162461bcd60e51b81526004016105e59061280e565b826040518060400160405280600e81526020016d7265696e7374617465426164676560901b815250600081604051602001610d7c919061277b565b60408051808303601f19018152908290526101355463b2a0cb6b60e01b83526004830186905290925033916001600160a01b039091169063b2a0cb6b90602401602060405180830381865afa158015610dd9573d6000803e3d6000fd5b505050506040513d601f19601f82011682018060405250810190610dfd91906127ad565b6001600160a01b0316148190610e265760405162461bcd60e51b81526004016105e591906122ba565b5060008581526101376020526040808220805460ff1916905551339187917f7f8cf9ecf2a5225948f8a1601709cedc8471c52ee75a8174c9845c29c99ed9a29190a3505050505050565b6060610131805461051a906126af565b60006001600160a01b0386163303610eda5760405162461bcd60e51b815260206004820152601b60248201527f74616b653a2063616e6e6f742074616b652066726f6d2073656c66000000000060448201526064016105e5565b6000610eea3388888888886116fb565b90506000610f2e3388888080601f01602080910402602001604051908101604052809392919081815260200183838082843760009201919091525061182592505050565b600883901c600090815261012f602052604090208054600160ff86161b1790559050600081815261013660205260409020919091559695505050505050565b60008282604051602001610f82929190612843565b60405160208183030381529060405280519060200120905092915050565b610fa861164f565b61013580546001600160a01b0319166001600160a01b0392909216919091179055565b600081815261013260205260409020546060906001600160a01b03166110335760405162461bcd60e51b815260206004820152601d60248201527f746f6b656e5552493a20746f6b656e20646f65736e277420657869737400000060448201526064016105e5565b600082815261013360205260409020805461104d906126af565b80601f0160208091040260200160405190810160405280929190818152602001828054611079906126af565b80156110c65780601f1061109b576101008083540402835291602001916110c6565b820191906000526020600020905b8154815290600101906020018083116110a957829003601f168201915b50505050509050919050565b6000818152610132602052604090205481906001600160a01b03166111095760405162461bcd60e51b81526004016105e59061280e565b600082815261013260205260409020546001600160a01b031633146111705760405162461bcd60e51b815260206004820152601d60248201527f756e65717569703a2073656e646572206d757374206265206f776e657200000060448201526064016105e5565b60008281526101366020908152604080832054600881901c845261012f9092529091208054600160ff84161b191690556111a983611a70565b505050565b600054610100900460ff16158080156111ce5750600054600160ff909116105b806111e85750303b1580156111e8575060005460ff166001145b61124b5760405162461bcd60e51b815260206004820152602e60248201527f496e697469616c697a61626c653a20636f6e747261637420697320616c72656160448201526d191e481a5b9a5d1a585b1a5e995960921b60648201526084016105e5565b6000805460ff19166001179055801561126e576000805461ff0019166101001790555b61013061127b87826128b5565b5061013161128986826128b5565b5061013580546001600160a01b0319166001600160a01b0384161790556112ae611b2a565b6112b6611b51565b6112c08685611b80565b6112c8611b2a565b6112d183611466565b8015611317576000805461ff0019169055604051600181527f7f26b83ff96e1f2b6a682f133852f6798a09c465da95921460cefb38474024989060200160405180910390a15b505050505050565b6000807fe76a195fbe43f0eaa611595069f780493db2202a1cc4b2d7d44b47069812998a86868686604051611355929190612975565b60405190819003812061138d949392916020019384526001600160a01b03928316602085015291166040830152606082015260800190565b6040516020818303038152906040528051906020012090506113ae81611bb1565b9695505050505050565b60006001600160a01b03861633036114125760405162461bcd60e51b815260206004820152601b60248201527f676976653a2063616e6e6f7420676976652066726f6d2073656c66000000000060448201526064016105e5565b60006114223388888888886116fb565b90506000610f2e8888888080601f01602080910402602001604051908101604052809392919081815260200183838082843760009201919091525061182592505050565b61146e61164f565b6001600160a01b0381166114d35760405162461bcd60e51b815260206004820152602660248201527f4f776e61626c653a206e6577206f776e657220697320746865207a65726f206160448201526564647265737360d01b60648201526084016105e5565b610682816116a9565b61068261164f565b7f4910fdfa16fed3260ed0e7147f7cc6da11a60208b5b9406d12a635614ffd91435460ff1615611517576111a983611bc4565b826001600160a01b03166352d1902d6040518163ffffffff1660e01b8152600401602060405180830381865afa925050508015611571575060408051601f3d908101601f1916820190925261156e91810190612985565b60015b6115d45760405162461bcd60e51b815260206004820152602e60248201527f45524331393637557067726164653a206e657720696d706c656d656e7461746960448201526d6f6e206973206e6f74205555505360901b60648201526084016105e5565b600080516020612a7183398151915281146116435760405162461bcd60e51b815260206004820152602960248201527f45524331393637557067726164653a20756e737570706f727465642070726f786044820152681a58589b195555525160ba1b60648201526084016105e5565b506111a9838383611c60565b60c9546001600160a01b03163314610d085760405162461bcd60e51b815260206004820181905260248201527f4f776e61626c653a2063616c6c6572206973206e6f7420746865206f776e657260448201526064016105e5565b60c980546001600160a01b038381166001600160a01b0319831681179093556040519116919082907f8be0079c531659141344cd1fd0a4f28419497f9722a3daafe3b4186f6b6457e090600090a35050565b60008061170a8888888861131f565b905060008160001c9050611755888387878080601f016020809104026020016040519081016040528093929190818152602001838380828437600092019190915250611c8b92505050565b6117af5760405162461bcd60e51b815260206004820152602560248201527f73616665436865636b41677265656d656e743a20696e76616c6964207369676e604482015264617475726560d81b60648201526084016105e5565b600881901c600090815261012f6020526040902054600160ff83161b16156118195760405162461bcd60e51b815260206004820181905260248201527f73616665436865636b41677265656d656e743a20616c7265616479207573656460448201526064016105e5565b98975050505050505050565b61013554604051633664a8e960e01b815260009182916001600160a01b0390911690633664a8e99061185b9086906004016122ba565b602060405180830381865afa158015611878573d6000803e3d6000fd5b505050506040513d601f19601f8201168201806040525081019061189c9190612985565b905060006118aa8585610f6d565b90508060008390036118fe5760405162461bcd60e51b815260206004820152601c60248201527f6d696e743a2073706563206973206e6f7420726567697374657265640000000060448201526064016105e5565b600081815261013260205260409020546001600160a01b03161561195b5760405162461bcd60e51b81526020600482015260146024820152736d696e743a20746f6b656e49442065786973747360601b60448201526064016105e5565b6001600160a01b0386166000908152610134602052604081208054600192906119859084906129b4565b909155505060008181526101326020908152604080832080546001600160a01b0319166001600160a01b038b1617905561013390915290206119c786826128b5565b5060405181906001600160a01b038816906000907fddf252ad1be2c89b69c2b068fc378daa952ba7f163c4a11628f55a4df523b3ef908290a46101355460405163fb74926160e01b815260048101839052602481018590526001600160a01b039091169063fb74926190604401600060405180830381600087803b158015611a4e57600080fd5b505af1158015611a62573d6000803e3d6000fd5b509298975050505050505050565b600081815261013260209081526040808320546001600160a01b0316808452610134909252822080549192600192611aa99084906129c7565b909155505060008281526101326020908152604080832080546001600160a01b03191690556101339091528120611adf916121f2565b60008281526101366020526040808220829055518391906001600160a01b038416907fddf252ad1be2c89b69c2b068fc378daa952ba7f163c4a11628f55a4df523b3ef908390a45050565b600054610100900460ff16610d085760405162461bcd60e51b81526004016105e5906129da565b600054610100900460ff16611b785760405162461bcd60e51b81526004016105e5906129da565b610d08611dcf565b600054610100900460ff16611ba75760405162461bcd60e51b81526004016105e5906129da565b610a2d8282611dff565b6000610504611bbe611e40565b83611ec0565b6001600160a01b0381163b611c315760405162461bcd60e51b815260206004820152602d60248201527f455243313936373a206e657720696d706c656d656e746174696f6e206973206e60448201526c1bdd08184818dbdb9d1c9858dd609a1b60648201526084016105e5565b600080516020612a7183398151915280546001600160a01b0319166001600160a01b0392909216919091179055565b611c6983611ee7565b600082511180611c765750805b156111a957611c858383611f27565b50505050565b6000806000611c9a858561201b565b90925090506000816004811115611cb357611cb3612a25565b148015611cd15750856001600160a01b0316826001600160a01b0316145b15611ce157600192505050611dc8565b600080876001600160a01b0316631626ba7e60e01b8888604051602401611d09929190612a3b565b60408051601f198184030181529181526020820180516001600160e01b03166001600160e01b0319909416939093179092529051611d479190612a54565b600060405180830381855afa9150503d8060008114611d82576040519150601f19603f3d011682016040523d82523d6000602084013e611d87565b606091505b5091509150818015611d9a575080516020145b8015611dc157508051630b135d3f60e11b90611dbf9083016020908101908401612985565b145b9450505050505b9392505050565b600054610100900460ff16611df65760405162461bcd60e51b81526004016105e5906129da565b610d08336116a9565b600054610100900460ff16611e265760405162461bcd60e51b81526004016105e5906129da565b81516020928301208151919092012060fb9190915560fc55565b6000611ebb7f8b73c3c69bb8fe3d512ecc4cf759cc79239f7b179b0ffacaa9a75d522b39400f611e6f60fb5490565b60fc546040805160208101859052908101839052606081018290524660808201523060a082015260009060c0016040516020818303038152906040528051906020012090509392505050565b905090565b60405161190160f01b60208201526022810183905260428101829052600090606201610f82565b611ef081611bc4565b6040516001600160a01b038216907fbc7cd75a20ee27fd9adebab32041f755214dbc6bffa90cc0225b39da2e5c2d3b90600090a250565b60606001600160a01b0383163b611f8f5760405162461bcd60e51b815260206004820152602660248201527f416464726573733a2064656c65676174652063616c6c20746f206e6f6e2d636f6044820152651b9d1c9858dd60d21b60648201526084016105e5565b600080846001600160a01b031684604051611faa9190612a54565b600060405180830381855af49150503d8060008114611fe5576040519150601f19603f3d011682016040523d82523d6000602084013e611fea565b606091505b50915091506120128282604051806060016040528060278152602001612a9160279139612089565b95945050505050565b60008082516041036120515760208301516040840151606085015160001a612045878285856120a2565b94509450505050612082565b825160400361207a576020830151604084015161206f86838361218f565b935093505050612082565b506000905060025b9250929050565b60608315612098575081611dc8565b611dc883836121c8565b6000807f7fffffffffffffffffffffffffffffff5d576e7357a4501ddfe92f46681b20a08311156120d95750600090506003612186565b8460ff16601b141580156120f157508460ff16601c14155b156121025750600090506004612186565b6040805160008082526020820180845289905260ff881692820192909252606081018690526080810185905260019060a0016020604051602081039080840390855afa158015612156573d6000803e3d6000fd5b5050604051601f1901519150506001600160a01b03811661217f57600060019250925050612186565b9150600090505b94509492505050565b6000806001600160ff1b038316816121ac60ff86901c601b6129b4565b90506121ba878288856120a2565b935093505050935093915050565b8151156121d85781518083602001fd5b8060405162461bcd60e51b81526004016105e591906122ba565b5080546121fe906126af565b6000825580601f1061220e575050565b601f01602090049060005260206000209081019061068291905b8082111561223c5760008155600101612228565b5090565b60006020828403121561225257600080fd5b81356001600160e01b031981168114611dc857600080fd5b60005b8381101561228557818101518382015260200161226d565b50506000910152565b600081518084526122a681602086016020860161226a565b601f01601f19169290920160200192915050565b602081526000611dc8602083018461228e565b6001600160a01b038116811461068257600080fd5b6000602082840312156122f457600080fd5b8135611dc8816122cd565b60006020828403121561231157600080fd5b5035919050565b634e487b7160e01b600052604160045260246000fd5b600067ffffffffffffffff8084111561234957612349612318565b604051601f8501601f19908116603f0116810190828211818310171561237157612371612318565b8160405280935085815286868601111561238a57600080fd5b858560208301376000602087830101525050509392505050565b600082601f8301126123b557600080fd5b611dc88383356020850161232e565b600080604083850312156123d757600080fd5b823567ffffffffffffffff8111156123ee57600080fd5b6123fa858286016123a4565b95602094909401359450505050565b6000806040838503121561241c57600080fd5b8235612427816122cd565b9150602083013567ffffffffffffffff81111561244357600080fd5b8301601f8101851361245457600080fd5b6124638582356020840161232e565b9150509250929050565b6000806040838503121561248057600080fd5b50508035926020909101359150565b60008083601f8401126124a157600080fd5b50813567ffffffffffffffff8111156124b957600080fd5b60208301915083602082850101111561208257600080fd5b6000806000806000606086880312156124e957600080fd5b85356124f4816122cd565b9450602086013567ffffffffffffffff8082111561251157600080fd5b61251d89838a0161248f565b9096509450604088013591508082111561253657600080fd5b506125438882890161248f565b969995985093965092949392505050565b6000806040838503121561256757600080fd5b8235612572816122cd565b9150602083013567ffffffffffffffff81111561258e57600080fd5b612463858286016123a4565b600080600080600060a086880312156125b257600080fd5b853567ffffffffffffffff808211156125ca57600080fd5b6125d689838a016123a4565b965060208801359150808211156125ec57600080fd5b6125f889838a016123a4565b9550604088013591508082111561260e57600080fd5b5061261b888289016123a4565b935050606086013561262c816122cd565b9150608086013561263c816122cd565b809150509295509295909350565b6000806000806060858703121561266057600080fd5b843561266b816122cd565b9350602085013561267b816122cd565b9250604085013567ffffffffffffffff81111561269757600080fd5b6126a38782880161248f565b95989497509550505050565b600181811c908216806126c357607f821691505b602082108103610c6557634e487b7160e01b600052602260045260246000fd5b6020808252602c908201527f46756e6374696f6e206d7573742062652063616c6c6564207468726f7567682060408201526b19195b1959d85d1958d85b1b60a21b606082015260800190565b6020808252602c908201527f46756e6374696f6e206d7573742062652063616c6c6564207468726f7567682060408201526b6163746976652070726f787960a01b606082015260800190565b6000825161278d81846020870161226a565b6d0e881d5b985d5d1a1bdc9a5e995960921b920191825250600e01919050565b6000602082840312156127bf57600080fd5b8151611dc8816122cd565b6000602082840312156127dc57600080fd5b81518015158114611dc857600080fd5b6040815260006127ff604083018561228e565b90508260208301529392505050565b6020808252818101527f746f6b656e4578697374733a20746f6b656e20646f65736e2774206578697374604082015260600190565b6001600160a01b03831681526040602082018190526000906128679083018461228e565b949350505050565b601f8211156111a957600081815260208120601f850160051c810160208610156128965750805b601f850160051c820191505b81811015611317578281556001016128a2565b815167ffffffffffffffff8111156128cf576128cf612318565b6128e3816128dd84546126af565b8461286f565b602080601f83116001811461291857600084156129005750858301515b600019600386901b1c1916600185901b178555611317565b600085815260208120601f198616915b8281101561294757888601518255948401946001909101908401612928565b50858210156129655787850151600019600388901b60f8161c191681555b5050505050600190811b01905550565b8183823760009101908152919050565b60006020828403121561299757600080fd5b5051919050565b634e487b7160e01b600052601160045260246000fd5b808201808211156105045761050461299e565b818103818111156105045761050461299e565b6020808252602b908201527f496e697469616c697a61626c653a20636f6e7472616374206973206e6f74206960408201526a6e697469616c697a696e6760a81b606082015260800190565b634e487b7160e01b600052602160045260246000fd5b828152604060208201526000612867604083018461228e565b60008251612a6681846020870161226a565b919091019291505056fe360894a13ba1a3210667c828492db98dca3e2076cc3735a920a3ca505d382bbc416464726573733a206c6f772d6c6576656c2064656c65676174652063616c6c206661696c6564a2646970667358221220394aa870126cee40f03988598d1b165517fbe2cdfc56207b7218db1daadd284d64736f6c63430008100033",
    "linkReferences": {}
  },
  "methodIdentifiers": {
    "balanceOf(address)": "70a08231",
    "createSpec(string,uint256)": "445a62b9",
    "getAgreementHash(address,address,string)": "e4992506",
    "getBadgeIdHash(address,string)": "a8cf8683",
    "getDataHolderAddress()": "635ad993",
    "getVoucherHash(uint256)": "3b363a09",
    "give(address,string,bytes)": "ec64948e",
    "initialize(string,string,string,address,address)": "d6d0faee",
    "name()": "06fdde03",
    "owner()": "8da5cb5b",
    "ownerOf(uint256)": "6352211e",
    "proxiableUUID()": "52d1902d",
    "reinstateBadge(uint256,uint256)": "80956c7e",
    "renounceOwnership()": "715018a6",
    "revokeBadge(uint256,uint256)": "5329ae0c",
    "revokedBadges(uint256)": "91cf236e",
    "setDataHolder(address)": "c0184112",
    "supportsInterface(bytes4)": "01ffc9a7",
    "symbol()": "95d89b41",
    "take(address,string,bytes)": "a3947803",
    "tokenURI(uint256)": "c87b56dd",
    "transferOwnership(address)": "f2fde38b",
    "unequip(uint256)": "d179e3d0",
    "upgradeTo(address)": "3659cfe6",
    "upgradeToAndCall(address,bytes)": "4f1ef286"
  },
  "id": 43
}