{
  "abi": [
    {
      "inputs": [
        {
          "internalType": "string",
          "name": "name",
          "type": "string"
        },
        {
          "internalType": "string",
          "name": "symbol",
          "type": "string"
        },
        {
          "internalType": "string",
          "name": "version",
          "type": "string"
        },
        {
          "internalType": "address",
          "name": "raftAddress",
          "type": "address"
        },
        {
          "internalType": "address",
          "name": "nextOwner",
          "type": "address"
        }
      ],
      "stateMutability": "nonpayable",
      "type": "constructor"
    },
    {
      "anonymous": false,
      "inputs": [
        {
          "indexed": true,
          "internalType": "address",
          "name": "to",
          "type": "address"
        },
        {
          "indexed": false,
          "internalType": "string",
          "name": "specUri",
          "type": "string"
        },
        {
          "indexed": false,
          "internalType": "uint256",
          "name": "tokenId",
          "type": "uint256"
        }
      ],
      "name": "BadgeMinted",
      "type": "event"
    },
    {
      "anonymous": false,
      "inputs": [
        {
          "indexed": true,
          "internalType": "address",
          "name": "previousOwner",
          "type": "address"
        },
        {
          "indexed": true,
          "internalType": "address",
          "name": "newOwner",
          "type": "address"
        }
      ],
      "name": "OwnershipTransferred",
      "type": "event"
    },
    {
      "anonymous": false,
      "inputs": [
        {
          "indexed": true,
          "internalType": "address",
          "name": "to",
          "type": "address"
        },
        {
          "indexed": false,
          "internalType": "string",
          "name": "specUri",
          "type": "string"
        },
        {
          "indexed": true,
          "internalType": "uint256",
          "name": "raftTokenId",
          "type": "uint256"
        },
        {
          "indexed": true,
          "internalType": "address",
          "name": "raftAddress",
          "type": "address"
        }
      ],
      "name": "SpecCreated",
      "type": "event"
    },
    {
      "anonymous": false,
      "inputs": [
        {
          "indexed": true,
          "internalType": "address",
          "name": "from",
          "type": "address"
        },
        {
          "indexed": true,
          "internalType": "address",
          "name": "to",
          "type": "address"
        },
        {
          "indexed": true,
          "internalType": "uint256",
          "name": "tokenId",
          "type": "uint256"
        }
      ],
      "name": "Transfer",
      "type": "event"
    },
    {
      "inputs": [
        {
          "internalType": "address",
          "name": "owner",
          "type": "address"
        }
      ],
      "name": "balanceOf",
      "outputs": [
        {
          "internalType": "uint256",
          "name": "",
          "type": "uint256"
        }
      ],
      "stateMutability": "view",
      "type": "function"
    },
    {
      "inputs": [
        {
          "internalType": "string",
          "name": "specUri",
          "type": "string"
        },
        {
          "internalType": "uint256",
          "name": "raftTokenId",
          "type": "uint256"
        }
      ],
      "name": "createSpecAsRaftOwner",
      "outputs": [],
      "stateMutability": "nonpayable",
      "type": "function"
    },
    {
      "inputs": [
        {
          "internalType": "address",
          "name": "from",
          "type": "address"
        },
        {
          "internalType": "address",
          "name": "to",
          "type": "address"
        },
        {
          "internalType": "string",
          "name": "tokenURI",
          "type": "string"
        }
      ],
      "name": "getHash",
      "outputs": [
        {
          "internalType": "bytes32",
          "name": "",
          "type": "bytes32"
        }
      ],
      "stateMutability": "view",
      "type": "function"
    },
    {
      "inputs": [],
      "name": "getRaftAddress",
      "outputs": [
        {
          "internalType": "address",
          "name": "",
          "type": "address"
        }
      ],
      "stateMutability": "view",
      "type": "function"
    },
    {
      "inputs": [
        {
          "internalType": "string",
          "name": "specUri",
          "type": "string"
        }
      ],
      "name": "getRaftTokenIdOf",
      "outputs": [
        {
          "internalType": "uint256",
          "name": "",
          "type": "uint256"
        }
      ],
      "stateMutability": "view",
      "type": "function"
    },
    {
      "inputs": [
        {
          "internalType": "address",
          "name": "to",
          "type": "address"
        },
        {
          "internalType": "string",
          "name": "uri",
          "type": "string"
        },
        {
          "internalType": "bytes",
          "name": "signature",
          "type": "bytes"
        }
      ],
      "name": "give",
      "outputs": [
        {
          "internalType": "uint256",
          "name": "",
          "type": "uint256"
        }
      ],
      "stateMutability": "nonpayable",
      "type": "function"
    },
    {
      "inputs": [],
      "name": "name",
      "outputs": [
        {
          "internalType": "string",
          "name": "",
          "type": "string"
        }
      ],
      "stateMutability": "view",
      "type": "function"
    },
    {
      "inputs": [],
      "name": "owner",
      "outputs": [
        {
          "internalType": "address",
          "name": "",
          "type": "address"
        }
      ],
      "stateMutability": "view",
      "type": "function"
    },
    {
      "inputs": [
        {
          "internalType": "uint256",
          "name": "tokenId",
          "type": "uint256"
        }
      ],
      "name": "ownerOf",
      "outputs": [
        {
          "internalType": "address",
          "name": "",
          "type": "address"
        }
      ],
      "stateMutability": "view",
      "type": "function"
    },
    {
      "inputs": [],
      "name": "renounceOwnership",
      "outputs": [],
      "stateMutability": "nonpayable",
      "type": "function"
    },
    {
      "inputs": [
        {
          "internalType": "address",
          "name": "newRaftAddress",
          "type": "address"
        }
      ],
      "name": "setRaftAddress",
      "outputs": [],
      "stateMutability": "nonpayable",
      "type": "function"
    },
    {
      "inputs": [
        {
          "internalType": "bytes4",
          "name": "interfaceId",
          "type": "bytes4"
        }
      ],
      "name": "supportsInterface",
      "outputs": [
        {
          "internalType": "bool",
          "name": "",
          "type": "bool"
        }
      ],
      "stateMutability": "view",
      "type": "function"
    },
    {
      "inputs": [],
      "name": "symbol",
      "outputs": [
        {
          "internalType": "string",
          "name": "",
          "type": "string"
        }
      ],
      "stateMutability": "view",
      "type": "function"
    },
    {
      "inputs": [
        {
          "internalType": "address",
          "name": "from",
          "type": "address"
        },
        {
          "internalType": "string",
          "name": "uri",
          "type": "string"
        },
        {
          "internalType": "bytes",
          "name": "signature",
          "type": "bytes"
        }
      ],
      "name": "take",
      "outputs": [
        {
          "internalType": "uint256",
          "name": "",
          "type": "uint256"
        }
      ],
      "stateMutability": "nonpayable",
      "type": "function"
    },
    {
      "inputs": [
        {
          "internalType": "uint256",
          "name": "tokenId",
          "type": "uint256"
        }
      ],
      "name": "tokenURI",
      "outputs": [
        {
          "internalType": "string",
          "name": "",
          "type": "string"
        }
      ],
      "stateMutability": "view",
      "type": "function"
    },
    {
      "inputs": [
        {
          "internalType": "address",
          "name": "newOwner",
          "type": "address"
        }
      ],
      "name": "transferOwnership",
      "outputs": [],
      "stateMutability": "nonpayable",
      "type": "function"
    },
    {
      "inputs": [
        {
          "internalType": "uint256",
          "name": "tokenId",
          "type": "uint256"
        }
      ],
      "name": "unequip",
      "outputs": [],
      "stateMutability": "nonpayable",
      "type": "function"
    }
  ],
  "bytecode": {
    "object": "0x6101406040523480156200001257600080fd5b5060405162001f1038038062001f10833981016040819052620000359162000354565b845160208087019190912084518583012060e08290526101008190524660a0818152604080517f8b73c3c69bb8fe3d512ecc4cf759cc79239f7b179b0ffacaa9a75d522b39400f818801819052818301969096526060810194909452608080850193909352308483018190528151808603909301835260c094850190915281519190950120905291909152610120528484846001620000d584826200049a565b506002620000e483826200049a565b5050505062000102620000fc6200013360201b60201c565b62000137565b600a80546001600160a01b0319166001600160a01b038416179055620001288162000189565b505050505062000566565b3390565b600780546001600160a01b038381166001600160a01b0319831681179093556040519116919082907f8be0079c531659141344cd1fd0a4f28419497f9722a3daafe3b4186f6b6457e090600090a35050565b620001936200020c565b6001600160a01b038116620001fe5760405162461bcd60e51b815260206004820152602660248201527f4f776e61626c653a206e6577206f776e657220697320746865207a65726f206160448201526564647265737360d01b60648201526084015b60405180910390fd5b620002098162000137565b50565b6007546001600160a01b03163314620002685760405162461bcd60e51b815260206004820181905260248201527f4f776e61626c653a2063616c6c6572206973206e6f7420746865206f776e65726044820152606401620001f5565b565b634e487b7160e01b600052604160045260246000fd5b600082601f8301126200029257600080fd5b81516001600160401b0380821115620002af57620002af6200026a565b604051601f8301601f19908116603f01168101908282118183101715620002da57620002da6200026a565b81604052838152602092508683858801011115620002f757600080fd5b600091505b838210156200031b5785820183015181830184015290820190620002fc565b838211156200032d5760008385830101525b9695505050505050565b80516001600160a01b03811681146200034f57600080fd5b919050565b600080600080600060a086880312156200036d57600080fd5b85516001600160401b03808211156200038557600080fd5b6200039389838a0162000280565b96506020880151915080821115620003aa57600080fd5b620003b889838a0162000280565b95506040880151915080821115620003cf57600080fd5b50620003de8882890162000280565b935050620003ef6060870162000337565b9150620003ff6080870162000337565b90509295509295909350565b600181811c908216806200042057607f821691505b6020821081036200044157634e487b7160e01b600052602260045260246000fd5b50919050565b601f8211156200049557600081815260208120601f850160051c81016020861015620004705750805b601f850160051c820191505b8181101562000491578281556001016200047c565b5050505b505050565b81516001600160401b03811115620004b657620004b66200026a565b620004ce81620004c784546200040b565b8462000447565b602080601f831160018114620005065760008415620004ed5750858301515b600019600386901b1c1916600185901b17855562000491565b600085815260208120601f198616915b82811015620005375788860151825594840194600190910190840162000516565b5085821015620005565787850151600019600388901b60f8161c191681555b5050505050600190811b01905550565b60805160a05160c05160e051610100516101205161195a620005b660003960006111af015260006111fe015260006111d9015260006111320152600061115c01526000611186015261195a6000f3fe608060405234801561001057600080fd5b506004361061010b5760003560e01c80638da5cb5b116100a2578063c87b56dd11610071578063c87b56dd14610215578063d179e3d014610228578063d5be4eb01461023b578063ec64948e1461024e578063f2fde38b1461026157600080fd5b80638da5cb5b146101d657806395d89b41146101e7578063a3947803146101ef578063c5cf33c21461020257600080fd5b806353b52a6e116100de57806353b52a6e146101875780636352211e146101a857806370a08231146101bb578063715018a6146101ce57600080fd5b806301ffc9a71461011057806306fdde031461013857806334f876621461014d5780634249d86e14610172575b600080fd5b61012361011e3660046113c0565b610274565b60405190151581526020015b60405180910390f35b6101406102c6565b60405161012f9190611446565b600a546001600160a01b03165b6040516001600160a01b03909116815260200161012f565b61018561018036600461146f565b610358565b005b61019a610195366004611566565b61051f565b60405190815260200161012f565b61015a6101b63660046115a8565b61054a565b61019a6101c93660046115d6565b6105af565b610185610638565b6007546001600160a01b031661015a565b61014061064c565b61019a6101fd3660046115f3565b61065b565b61019a610210366004611676565b610733565b6101406102233660046115a8565b61074a565b6101856102363660046115a8565b61084f565b6101856102493660046115d6565b6108e4565b61019a61025c3660046115f3565b61090e565b61018561026f3660046115d6565b6109bb565b60006001600160e01b03198216635b5e139f60e01b14806102a557506001600160e01b031982166346bdd63960e11b145b806102c057506301ffc9a760e01b6001600160e01b03198316145b92915050565b6060600180546102d5906116db565b80601f0160208091040260200160405190810160405280929190818152602001828054610301906116db565b801561034e5780601f106103235761010080835404028352916020019161034e565b820191906000526020600020905b81548152906001019060200180831161033157829003601f168201915b5050505050905090565b600a546040516331a9108f60e11b81526004810183905233916001600160a01b031690636352211e90602401602060405180830381865afa1580156103a1573d6000803e3d6000fd5b505050506040513d601f19601f820116820180604052508101906103c59190611715565b6001600160a01b03161461042c5760405162461bcd60e51b815260206004820152602360248201527f637265617465537065634173526166744f776e65723a20756e617574686f72696044820152621e995960ea1b60648201526084015b60405180910390fd5b60088260405161043c9190611732565b9081526020016040518091039020546000146104b15760405162461bcd60e51b815260206004820152602e60248201527f637265617465537065634173526166744f776e65723a207370656320616c726560448201526d18591e481c9959da5cdd195c995960921b6064820152608401610423565b806008836040516104c29190611732565b90815260405190819003602001812091909155600a546001600160a01b031690829033907f68c7f8503283c455a4445b54a7d5c40656c8cae5cca0583c6d4be8369847870090610513908790611446565b60405180910390a45050565b60006008838360405161053392919061174e565b908152602001604051809103902054905092915050565b6000818152600360205260408120546001600160a01b0316806102c05760405162461bcd60e51b815260206004820152601c60248201527f6f776e65724f663a20746f6b656e20646f65736e2774206578697374000000006044820152606401610423565b60006001600160a01b03821661061c5760405162461bcd60e51b815260206004820152602c60248201527f62616c616e63654f663a2061646472657373207a65726f206973206e6f74206160448201526b103b30b634b21037bbb732b960a11b6064820152608401610423565b506001600160a01b031660009081526005602052604090205490565b610640610a31565b61064a6000610a8b565b565b6060600280546102d5906116db565b60006001600160a01b03861633036106b55760405162461bcd60e51b815260206004820152601b60248201527f74616b653a2063616e6e6f742074616b652066726f6d2073656c6600000000006044820152606401610423565b60006106c5338888888888610add565b9050610708338288888080601f016020809104026020016040519081016040528093929190818152602001838380828437600092019190915250610c1192505050565b50600881901c60009081526020819052604090208054600160ff84161b1790555b9695505050505050565b600061074185858585610cea565b95945050505050565b6000818152600360205260409020546060906001600160a01b03166107b15760405162461bcd60e51b815260206004820152601d60248201527f746f6b656e5552493a20746f6b656e20646f65736e27742065786973740000006044820152606401610423565b600082815260046020526040902080546107ca906116db565b80601f01602080910402602001604051908101604052809291908181526020018280546107f6906116db565b80156108435780601f1061081857610100808354040283529160200191610843565b820191906000526020600020905b81548152906001019060200180831161082657829003601f168201915b50505050509050919050565b6108588161054a565b6001600160a01b0316336001600160a01b0316146108b85760405162461bcd60e51b815260206004820152601d60248201527f756e65717569703a2073656e646572206d757374206265206f776e65720000006044820152606401610423565b600881901c60009081526020819052604090208054600160ff84161b191690556108e181610d79565b50565b6108ec610a31565b600a80546001600160a01b0319166001600160a01b0392909216919091179055565b60006001600160a01b03861633036109685760405162461bcd60e51b815260206004820152601b60248201527f676976653a2063616e6e6f7420676976652066726f6d2073656c6600000000006044820152606401610423565b6000610978338888888888610add565b9050610708878288888080601f016020809104026020016040519081016040528093929190818152602001838380828437600092019190915250610c1192505050565b6109c3610a31565b6001600160a01b038116610a285760405162461bcd60e51b815260206004820152602660248201527f4f776e61626c653a206e6577206f776e657220697320746865207a65726f206160448201526564647265737360d01b6064820152608401610423565b6108e181610a8b565b6007546001600160a01b0316331461064a5760405162461bcd60e51b815260206004820181905260248201527f4f776e61626c653a2063616c6c6572206973206e6f7420746865206f776e65726044820152606401610423565b600780546001600160a01b038381166001600160a01b0319831681179093556040519116919082907f8be0079c531659141344cd1fd0a4f28419497f9722a3daafe3b4186f6b6457e090600090a35050565b600080610aec88888888610cea565b905060008160001c9050610b37888387878080601f016020809104026020016040519081016040528093929190818152602001838380828437600092019190915250610e2292505050565b610b925760405162461bcd60e51b815260206004820152602660248201527f5f73616665436865636b41677265656d656e743a20696e76616c6964207369676044820152656e617475726560d01b6064820152608401610423565b600881901c600090815260208190526040902054600160ff83161b1615610c055760405162461bcd60e51b815260206004820152602160248201527f5f73616665436865636b41677265656d656e743a20616c7265616479207573656044820152601960fa1b6064820152608401610423565b98975050505050505050565b600080600883604051610c249190611732565b908152602001604051809103902054905080600003610c855760405162461bcd60e51b815260206004820152601d60248201527f5f6d696e743a2073706563206973206e6f7420726567697374657265640000006044820152606401610423565b610c90858585610f63565b50600084815260096020526040908190208290555133907f8df8e47e98cb2a6b68ac30879a3419321c1311b9de81b66649a5d61e477bf6cf90610cd6908690889061175e565b60405180910390a2839150505b9392505050565b6000807fe76a195fbe43f0eaa611595069f780493db2202a1cc4b2d7d44b47069812998a86868686604051610d2092919061174e565b604051908190038120610d58949392916020019384526001600160a01b03928316602085015291166040830152606082015260800190565b60405160208183030381529060405280519060200120905061072981611069565b6000610d848261054a565b6001600160a01b03811660009081526005602052604081208054929350600192909190610db2908490611796565b9091555050600082815260036020908152604080832080546001600160a01b031916905560049091528120610de691611372565b60405182906000906001600160a01b038416907fddf252ad1be2c89b69c2b068fc378daa952ba7f163c4a11628f55a4df523b3ef908390a45050565b6000806000610e3185856110b7565b90925090506000816004811115610e4a57610e4a6117ad565b148015610e685750856001600160a01b0316826001600160a01b0316145b15610e7857600192505050610ce3565b600080876001600160a01b0316631626ba7e60e01b8888604051602401610ea09291906117c3565b60408051601f198184030181529181526020820180516001600160e01b03166001600160e01b0319909416939093179092529051610ede9190611732565b600060405180830381855afa9150503d8060008114610f19576040519150601f19603f3d011682016040523d82523d6000602084013e610f1e565b606091505b5091509150818015610f31575080516020145b8015610c0557508051630b135d3f60e11b90610f5690830160209081019084016117e4565b1498975050505050505050565b6000828152600360205260408120546001600160a01b031615610fbf5760405162461bcd60e51b81526020600482015260146024820152736d696e743a20746f6b656e49442065786973747360601b6044820152606401610423565b6001600160a01b0384166000908152600560205260408120805460019290610fe89084906117fd565b9091555050600083815260036020908152604080832080546001600160a01b0319166001600160a01b038916179055600490915290206110288382611864565b5060405183906001600160a01b038616906000907fddf252ad1be2c89b69c2b068fc378daa952ba7f163c4a11628f55a4df523b3ef908290a4509092915050565b60006102c0611076611125565b8360405161190160f01b6020820152602281018390526042810182905260009060620160405160208183030381529060405280519060200120905092915050565b60008082516041036110ed5760208301516040840151606085015160001a6110e18782858561124c565b9450945050505061111e565b8251604003611116576020830151604084015161110b868383611339565b93509350505061111e565b506000905060025b9250929050565b6000306001600160a01b037f00000000000000000000000000000000000000000000000000000000000000001614801561117e57507f000000000000000000000000000000000000000000000000000000000000000046145b156111a857507f000000000000000000000000000000000000000000000000000000000000000090565b50604080517f00000000000000000000000000000000000000000000000000000000000000006020808301919091527f0000000000000000000000000000000000000000000000000000000000000000828401527f000000000000000000000000000000000000000000000000000000000000000060608301524660808301523060a0808401919091528351808403909101815260c0909201909252805191012090565b6000807f7fffffffffffffffffffffffffffffff5d576e7357a4501ddfe92f46681b20a08311156112835750600090506003611330565b8460ff16601b1415801561129b57508460ff16601c14155b156112ac5750600090506004611330565b6040805160008082526020820180845289905260ff881692820192909252606081018690526080810185905260019060a0016020604051602081039080840390855afa158015611300573d6000803e3d6000fd5b5050604051601f1901519150506001600160a01b03811661132957600060019250925050611330565b9150600090505b94509492505050565b6000806001600160ff1b0383168161135660ff86901c601b6117fd565b90506113648782888561124c565b935093505050935093915050565b50805461137e906116db565b6000825580601f1061138e575050565b601f0160209004906000526020600020908101906108e191905b808211156113bc57600081556001016113a8565b5090565b6000602082840312156113d257600080fd5b81356001600160e01b031981168114610ce357600080fd5b60005b838110156114055781810151838201526020016113ed565b83811115611414576000848401525b50505050565b600081518084526114328160208601602086016113ea565b601f01601f19169290920160200192915050565b602081526000610ce3602083018461141a565b634e487b7160e01b600052604160045260246000fd5b6000806040838503121561148257600080fd5b823567ffffffffffffffff8082111561149a57600080fd5b818501915085601f8301126114ae57600080fd5b8135818111156114c0576114c0611459565b604051601f8201601f19908116603f011681019083821181831017156114e8576114e8611459565b8160405282815288602084870101111561150157600080fd5b826020860160208301376000602093820184015298969091013596505050505050565b60008083601f84011261153657600080fd5b50813567ffffffffffffffff81111561154e57600080fd5b60208301915083602082850101111561111e57600080fd5b6000806020838503121561157957600080fd5b823567ffffffffffffffff81111561159057600080fd5b61159c85828601611524565b90969095509350505050565b6000602082840312156115ba57600080fd5b5035919050565b6001600160a01b03811681146108e157600080fd5b6000602082840312156115e857600080fd5b8135610ce3816115c1565b60008060008060006060868803121561160b57600080fd5b8535611616816115c1565b9450602086013567ffffffffffffffff8082111561163357600080fd5b61163f89838a01611524565b9096509450604088013591508082111561165857600080fd5b5061166588828901611524565b969995985093965092949392505050565b6000806000806060858703121561168c57600080fd5b8435611697816115c1565b935060208501356116a7816115c1565b9250604085013567ffffffffffffffff8111156116c357600080fd5b6116cf87828801611524565b95989497509550505050565b600181811c908216806116ef57607f821691505b60208210810361170f57634e487b7160e01b600052602260045260246000fd5b50919050565b60006020828403121561172757600080fd5b8151610ce3816115c1565b600082516117448184602087016113ea565b9190910192915050565b8183823760009101908152919050565b604081526000611771604083018561141a565b90508260208301529392505050565b634e487b7160e01b600052601160045260246000fd5b6000828210156117a8576117a8611780565b500390565b634e487b7160e01b600052602160045260246000fd5b8281526040602082015260006117dc604083018461141a565b949350505050565b6000602082840312156117f657600080fd5b5051919050565b6000821982111561181057611810611780565b500190565b601f82111561185f57600081815260208120601f850160051c8101602086101561183c5750805b601f850160051c820191505b8181101561185b57828155600101611848565b5050505b505050565b815167ffffffffffffffff81111561187e5761187e611459565b6118928161188c84546116db565b84611815565b602080601f8311600181146118c757600084156118af5750858301515b600019600386901b1c1916600185901b17855561185b565b600085815260208120601f198616915b828110156118f6578886015182559484019460019091019084016118d7565b50858210156119145787850151600019600388901b60f8161c191681555b5050505050600190811b0190555056fea264697066735822122072c2b7a06b94c1ddd0af91b64490a120439b7a9267c51ff6e8a622c3e5ff839464736f6c634300080f0033",
    "linkReferences": {}
  },
  "methodIdentifiers": {
    "balanceOf(address)": "70a08231",
    "createSpecAsRaftOwner(string,uint256)": "4249d86e",
    "getHash(address,address,string)": "c5cf33c2",
    "getRaftAddress()": "34f87662",
    "getRaftTokenIdOf(string)": "53b52a6e",
    "give(address,string,bytes)": "ec64948e",
    "name()": "06fdde03",
    "owner()": "8da5cb5b",
    "ownerOf(uint256)": "6352211e",
    "renounceOwnership()": "715018a6",
    "setRaftAddress(address)": "d5be4eb0",
    "supportsInterface(bytes4)": "01ffc9a7",
    "symbol()": "95d89b41",
    "take(address,string,bytes)": "a3947803",
    "tokenURI(uint256)": "c87b56dd",
    "transferOwnership(address)": "f2fde38b",
    "unequip(uint256)": "d179e3d0"
  },
  "id": 24
}