{
  "abi": [
    {
      "inputs": [],
      "stateMutability": "nonpayable",
      "type": "constructor"
    },
    {
      "anonymous": false,
      "inputs": [
        {
          "indexed": false,
          "internalType": "address",
          "name": "previousAdmin",
          "type": "address"
        },
        {
          "indexed": false,
          "internalType": "address",
          "name": "newAdmin",
          "type": "address"
        }
      ],
      "name": "AdminChanged",
      "type": "event"
    },
    {
      "anonymous": false,
      "inputs": [
        {
          "indexed": true,
          "internalType": "uint256",
          "name": "tokenId",
          "type": "uint256"
        },
        {
          "indexed": true,
          "internalType": "address",
          "name": "from",
          "type": "address"
        }
      ],
      "name": "BadgeReinstated",
      "type": "event"
    },
    {
      "anonymous": false,
      "inputs": [
        {
          "indexed": true,
          "internalType": "uint256",
          "name": "tokenId",
          "type": "uint256"
        },
        {
          "indexed": true,
          "internalType": "address",
          "name": "from",
          "type": "address"
        },
        {
          "indexed": true,
          "internalType": "uint8",
          "name": "reason",
          "type": "uint8"
        }
      ],
      "name": "BadgeRevoked",
      "type": "event"
    },
    {
      "anonymous": false,
      "inputs": [
        {
          "indexed": true,
          "internalType": "address",
          "name": "beacon",
          "type": "address"
        }
      ],
      "name": "BeaconUpgraded",
      "type": "event"
    },
    {
      "anonymous": false,
      "inputs": [
        {
          "indexed": false,
          "internalType": "uint8",
          "name": "version",
          "type": "uint8"
        }
      ],
      "name": "Initialized",
      "type": "event"
    },
    {
      "anonymous": false,
      "inputs": [
        {
          "indexed": true,
          "internalType": "address",
          "name": "previousOwner",
          "type": "address"
        },
        {
          "indexed": true,
          "internalType": "address",
          "name": "newOwner",
          "type": "address"
        }
      ],
      "name": "OwnershipTransferred",
      "type": "event"
    },
    {
      "anonymous": false,
      "inputs": [
        {
          "indexed": false,
          "internalType": "string[]",
          "name": "specUris",
          "type": "string[]"
        },
        {
          "indexed": false,
          "internalType": "address",
          "name": "sender",
          "type": "address"
        }
      ],
      "name": "RefreshMetadata",
      "type": "event"
    },
    {
      "anonymous": false,
      "inputs": [
        {
          "indexed": true,
          "internalType": "address",
          "name": "to",
          "type": "address"
        },
        {
          "indexed": false,
          "internalType": "string",
          "name": "specUri",
          "type": "string"
        },
        {
          "indexed": true,
          "internalType": "uint256",
          "name": "raftTokenId",
          "type": "uint256"
        },
        {
          "indexed": true,
          "internalType": "address",
          "name": "raftAddress",
          "type": "address"
        }
      ],
      "name": "SpecCreated",
      "type": "event"
    },
    {
      "anonymous": false,
      "inputs": [
        {
          "indexed": true,
          "internalType": "address",
          "name": "from",
          "type": "address"
        },
        {
          "indexed": true,
          "internalType": "address",
          "name": "to",
          "type": "address"
        },
        {
          "indexed": true,
          "internalType": "uint256",
          "name": "tokenId",
          "type": "uint256"
        }
      ],
      "name": "Transfer",
      "type": "event"
    },
    {
      "anonymous": false,
      "inputs": [
        {
          "indexed": true,
          "internalType": "address",
          "name": "implementation",
          "type": "address"
        }
      ],
      "name": "Upgraded",
      "type": "event"
    },
    {
      "inputs": [
        {
          "internalType": "address",
          "name": "_owner",
          "type": "address"
        }
      ],
      "name": "balanceOf",
      "outputs": [
        {
          "internalType": "uint256",
          "name": "",
          "type": "uint256"
        }
      ],
      "stateMutability": "view",
      "type": "function"
    },
    {
      "inputs": [
        {
          "internalType": "string",
          "name": "_specUri",
          "type": "string"
        },
        {
          "internalType": "uint256",
          "name": "_raftTokenId",
          "type": "uint256"
        }
      ],
      "name": "createSpec",
      "outputs": [],
      "stateMutability": "nonpayable",
      "type": "function"
    },
    {
      "inputs": [
        {
          "internalType": "address",
          "name": "_from",
          "type": "address"
        },
        {
          "internalType": "address",
          "name": "_to",
          "type": "address"
        },
        {
          "internalType": "string",
          "name": "_uri",
          "type": "string"
        }
      ],
      "name": "getAgreementHash",
      "outputs": [
        {
          "internalType": "bytes32",
          "name": "",
          "type": "bytes32"
        }
      ],
      "stateMutability": "view",
      "type": "function"
    },
    {
      "inputs": [
        {
          "internalType": "address",
          "name": "_to",
          "type": "address"
        },
        {
          "internalType": "string",
          "name": "_uri",
          "type": "string"
        }
      ],
      "name": "getBadgeIdHash",
      "outputs": [
        {
          "internalType": "bytes32",
          "name": "",
          "type": "bytes32"
        }
      ],
      "stateMutability": "view",
      "type": "function"
    },
    {
      "inputs": [],
      "name": "getDataHolderAddress",
      "outputs": [
        {
          "internalType": "address",
          "name": "",
          "type": "address"
        }
      ],
      "stateMutability": "view",
      "type": "function"
    },
    {
      "inputs": [
        {
          "internalType": "address",
          "name": "_issuer",
          "type": "address"
        },
        {
          "internalType": "string",
          "name": "_uri",
          "type": "string"
        },
        {
          "internalType": "bytes32",
          "name": "_root",
          "type": "bytes32"
        }
      ],
      "name": "getMerkleAgreementHash",
      "outputs": [
        {
          "internalType": "bytes32",
          "name": "",
          "type": "bytes32"
        }
      ],
      "stateMutability": "view",
      "type": "function"
    },
    {
      "inputs": [
        {
          "internalType": "uint256",
          "name": "_tokenId",
          "type": "uint256"
        }
      ],
      "name": "getVoucherHash",
      "outputs": [
        {
          "internalType": "uint256",
          "name": "",
          "type": "uint256"
        }
      ],
      "stateMutability": "view",
      "type": "function"
    },
    {
      "inputs": [
        {
          "internalType": "address",
          "name": "_to",
          "type": "address"
        },
        {
          "internalType": "string",
          "name": "_uri",
          "type": "string"
        },
        {
          "internalType": "bytes",
          "name": "_signature",
          "type": "bytes"
        }
      ],
      "name": "give",
      "outputs": [
        {
          "internalType": "uint256",
          "name": "",
          "type": "uint256"
        }
      ],
      "stateMutability": "nonpayable",
      "type": "function"
    },
    {
      "inputs": [
        {
          "internalType": "string",
          "name": "_name",
          "type": "string"
        },
        {
          "internalType": "string",
          "name": "_symbol",
          "type": "string"
        },
        {
          "internalType": "string",
          "name": "_version",
          "type": "string"
        },
        {
          "internalType": "address",
          "name": "_nextOwner",
          "type": "address"
        },
        {
          "internalType": "address",
          "name": "_specDataHolderAddress",
          "type": "address"
        }
      ],
      "name": "initialize",
      "outputs": [],
      "stateMutability": "nonpayable",
      "type": "function"
    },
    {
      "inputs": [
        {
          "internalType": "uint256",
          "name": "_badgeId",
          "type": "uint256"
        }
      ],
      "name": "isBadgeValid",
      "outputs": [
        {
          "internalType": "bool",
          "name": "",
          "type": "bool"
        }
      ],
      "stateMutability": "view",
      "type": "function"
    },
    {
      "inputs": [],
      "name": "name",
      "outputs": [
        {
          "internalType": "string",
          "name": "",
          "type": "string"
        }
      ],
      "stateMutability": "view",
      "type": "function"
    },
    {
      "inputs": [],
      "name": "owner",
      "outputs": [
        {
          "internalType": "address",
          "name": "",
          "type": "address"
        }
      ],
      "stateMutability": "view",
      "type": "function"
    },
    {
      "inputs": [
        {
          "internalType": "uint256",
          "name": "_tokenId",
          "type": "uint256"
        }
      ],
      "name": "ownerOf",
      "outputs": [
        {
          "internalType": "address",
          "name": "",
          "type": "address"
        }
      ],
      "stateMutability": "view",
      "type": "function"
    },
    {
      "inputs": [],
      "name": "proxiableUUID",
      "outputs": [
        {
          "internalType": "bytes32",
          "name": "",
          "type": "bytes32"
        }
      ],
      "stateMutability": "view",
      "type": "function"
    },
    {
      "inputs": [
        {
          "internalType": "string[]",
          "name": "_specUris",
          "type": "string[]"
        }
      ],
      "name": "refreshMetadata",
      "outputs": [],
      "stateMutability": "nonpayable",
      "type": "function"
    },
    {
      "inputs": [
        {
          "internalType": "uint256",
          "name": "_raftTokenId",
          "type": "uint256"
        },
        {
          "internalType": "uint256",
          "name": "_badgeId",
          "type": "uint256"
        }
      ],
      "name": "reinstateBadge",
      "outputs": [],
      "stateMutability": "nonpayable",
      "type": "function"
    },
    {
      "inputs": [],
      "name": "renounceOwnership",
      "outputs": [],
      "stateMutability": "nonpayable",
      "type": "function"
    },
    {
      "inputs": [
        {
          "internalType": "uint256",
          "name": "_raftTokenId",
          "type": "uint256"
        },
        {
          "internalType": "uint256",
          "name": "_badgeId",
          "type": "uint256"
        },
        {
          "internalType": "uint8",
          "name": "_reason",
          "type": "uint8"
        }
      ],
      "name": "revokeBadge",
      "outputs": [],
      "stateMutability": "nonpayable",
      "type": "function"
    },
    {
      "inputs": [
        {
          "internalType": "address",
          "name": "_issuer",
          "type": "address"
        },
        {
          "internalType": "string",
          "name": "_uri",
          "type": "string"
        },
        {
          "internalType": "bytes",
          "name": "_signature",
          "type": "bytes"
        },
        {
          "internalType": "bytes32",
          "name": "_root",
          "type": "bytes32"
        },
        {
          "internalType": "bytes32[]",
          "name": "_proof",
          "type": "bytes32[]"
        },
        {
          "internalType": "bytes32",
          "name": "_leaf",
          "type": "bytes32"
        }
      ],
      "name": "safeCheckMerkleAgreement",
      "outputs": [],
      "stateMutability": "view",
      "type": "function"
    },
    {
      "inputs": [
        {
          "internalType": "address",
          "name": "_dataHolder",
          "type": "address"
        }
      ],
      "name": "setDataHolder",
      "outputs": [],
      "stateMutability": "nonpayable",
      "type": "function"
    },
    {
      "inputs": [
        {
          "internalType": "bytes4",
          "name": "_interfaceId",
          "type": "bytes4"
        }
      ],
      "name": "supportsInterface",
      "outputs": [
        {
          "internalType": "bool",
          "name": "",
          "type": "bool"
        }
      ],
      "stateMutability": "view",
      "type": "function"
    },
    {
      "inputs": [],
      "name": "symbol",
      "outputs": [
        {
          "internalType": "string",
          "name": "",
          "type": "string"
        }
      ],
      "stateMutability": "view",
      "type": "function"
    },
    {
      "inputs": [
        {
          "internalType": "address",
          "name": "_from",
          "type": "address"
        },
        {
          "internalType": "string",
          "name": "_uri",
          "type": "string"
        },
        {
          "internalType": "bytes",
          "name": "_signature",
          "type": "bytes"
        }
      ],
      "name": "take",
      "outputs": [
        {
          "internalType": "uint256",
          "name": "",
          "type": "uint256"
        }
      ],
      "stateMutability": "nonpayable",
      "type": "function"
    },
    {
      "inputs": [
        {
          "internalType": "uint256",
          "name": "_tokenId",
          "type": "uint256"
        }
      ],
      "name": "tokenURI",
      "outputs": [
        {
          "internalType": "string",
          "name": "",
          "type": "string"
        }
      ],
      "stateMutability": "view",
      "type": "function"
    },
    {
      "inputs": [
        {
          "internalType": "address",
          "name": "newOwner",
          "type": "address"
        }
      ],
      "name": "transferOwnership",
      "outputs": [],
      "stateMutability": "nonpayable",
      "type": "function"
    },
    {
      "inputs": [
        {
          "internalType": "uint256",
          "name": "_tokenId",
          "type": "uint256"
        }
      ],
      "name": "unequip",
      "outputs": [],
      "stateMutability": "nonpayable",
      "type": "function"
    },
    {
      "inputs": [
        {
          "internalType": "address",
          "name": "newImplementation",
          "type": "address"
        }
      ],
      "name": "upgradeTo",
      "outputs": [],
      "stateMutability": "nonpayable",
      "type": "function"
    },
    {
      "inputs": [
        {
          "internalType": "address",
          "name": "newImplementation",
          "type": "address"
        },
        {
          "internalType": "bytes",
          "name": "data",
          "type": "bytes"
        }
      ],
      "name": "upgradeToAndCall",
      "outputs": [],
      "stateMutability": "payable",
      "type": "function"
    }
  ],
  "bytecode": {
    "object": "0x60a0604052306080523480156200001557600080fd5b506200002062000026565b620000e8565b600054610100900460ff1615620000935760405162461bcd60e51b815260206004820152602760248201527f496e697469616c697a61626c653a20636f6e747261637420697320696e697469604482015266616c697a696e6760c81b606482015260840160405180910390fd5b60005460ff9081161015620000e6576000805460ff191660ff9081179091556040519081527f7f26b83ff96e1f2b6a682f133852f6798a09c465da95921460cefb38474024989060200160405180910390a15b565b60805161354862000120600039600081816106ae015281816106ee01528181610a6901528181610aa90152610b3c01526135486000f3fe6080604052600436106101b75760003560e01c80638da5cb5b116100ec578063c87b56dd1161008a578063e499250611610064578063e4992506146104d8578063ec64948e146104f8578063f2fde38b14610518578063f7c18d501461053857600080fd5b8063c87b56dd14610478578063d179e3d014610498578063d6d0faee146104b857600080fd5b8063a8cf8683116100c6578063a8cf8683146103f8578063bd6645e414610418578063bdbdbcbf14610438578063c01841121461045857600080fd5b80638da5cb5b146103a557806395d89b41146103c3578063a3947803146103d857600080fd5b806352d1902d1161015957806370a082311161013357806370a0823114610330578063715018a6146103505780637c402f8d1461036557806380956c7e1461038557600080fd5b806352d1902d146102c45780636352211e146102d9578063635ad9931461031157600080fd5b80633659cfe6116101955780633659cfe6146102335780633b363a0914610255578063445a62b9146102915780634f1ef286146102b157600080fd5b806301ffc9a7146101bc57806306fdde03146101f15780630f4d9b0114610213575b600080fd5b3480156101c857600080fd5b506101dc6101d7366004612978565b610558565b60405190151581526020015b60405180910390f35b3480156101fd57600080fd5b506102066105aa565b6040516101e891906129f2565b34801561021f57600080fd5b506101dc61022e366004612a05565b61063d565b34801561023f57600080fd5b5061025361024e366004612a33565b6106a4565b005b34801561026157600080fd5b50610283610270366004612a05565b6000908152610136602052604090205490565b6040519081526020016101e8565b34801561029d57600080fd5b506102536102ac366004612b0d565b610783565b6102536102bf366004612b51565b610a5f565b3480156102d057600080fd5b50610283610b2f565b3480156102e557600080fd5b506102f96102f4366004612a05565b610be2565b6040516001600160a01b0390911681526020016101e8565b34801561031d57600080fd5b50610135546001600160a01b03166102f9565b34801561033c57600080fd5b5061028361034b366004612a33565b610c37565b34801561035c57600080fd5b50610253610cc2565b34801561037157600080fd5b50610253610380366004612bb4565b610cd6565b34801561039157600080fd5b506102536103a0366004612bf3565b610ec0565b3480156103b157600080fd5b5060c9546001600160a01b03166102f9565b3480156103cf57600080fd5b506102066110a3565b3480156103e457600080fd5b506102836103f3366004612c56565b6110b3565b34801561040457600080fd5b50610283610413366004612cd8565b6112f4565b34801561042457600080fd5b50610283610433366004612d1d565b611327565b34801561044457600080fd5b50610253610453366004612d78565b6113bf565b34801561046457600080fd5b50610253610473366004612a33565b611463565b34801561048457600080fd5b50610206610493366004612a05565b61148e565b3480156104a457600080fd5b506102536104b3366004612a05565b611595565b3480156104c457600080fd5b506102536104d3366004612e3a565b611671565b3480156104e457600080fd5b506102836104f3366004612ee9565b6117e2565b34801561050457600080fd5b50610283610513366004612c56565b611850565b34801561052457600080fd5b50610253610533366004612a33565b611a3b565b34801561054457600080fd5b50610253610553366004612f4d565b611ab1565b60006001600160e01b03198216635b5e139f60e01b148061058957506001600160e01b031982166346bdd63960e11b145b806105a457506301ffc9a760e01b6001600160e01b03198316145b92915050565b606061013080546105ba90613038565b80601f01602080910402602001604051908101604052809291908181526020018280546105e690613038565b80156106335780601f1061060857610100808354040283529160200191610633565b820191906000526020600020905b81548152906001019060200180831161061657829003601f168201915b5050505050905090565b6000818152610132602052604081205482906001600160a01b031661067d5760405162461bcd60e51b81526004016106749061306c565b60405180910390fd5b600883901c60009081526101376020526040902054600160ff85161b161591505b50919050565b6001600160a01b037f00000000000000000000000000000000000000000000000000000000000000001630036106ec5760405162461bcd60e51b8152600401610674906130a1565b7f00000000000000000000000000000000000000000000000000000000000000006001600160a01b03166107356000805160206134cc833981519152546001600160a01b031690565b6001600160a01b03161461075b5760405162461bcd60e51b8152600401610674906130ed565b61076481611c09565b6040805160008082526020820190925261078091839190611c11565b50565b806040518060400160405280600a8152602001696372656174655370656360b01b8152506000816040516020016107ba9190613139565b60408051808303601f19018152908290526101355463b2a0cb6b60e01b83526004830186905290925033916001600160a01b039091169063b2a0cb6b90602401602060405180830381865afa158015610817573d6000803e3d6000fd5b505050506040513d601f19601f8201168201806040525081019061083b919061316b565b6001600160a01b03161481906108645760405162461bcd60e51b815260040161067491906129f2565b5061013554604051637e07102760e11b81526001600160a01b039091169063fc0e204e906108969088906004016129f2565b602060405180830381865afa1580156108b3573d6000803e3d6000fd5b505050506040513d601f19601f820116820180604052508101906108d79190613188565b156109305760405162461bcd60e51b815260206004820152602360248201527f637265617465537065633a207370656320616c726561647920726567697374656044820152621c995960ea1b6064820152608401610674565b6101355460405163addd190760e01b81526001600160a01b039091169063addd19079061096390889088906004016131aa565b600060405180830381600087803b15801561097d57600080fd5b505af1158015610991573d6000803e3d6000fd5b5050505061013560009054906101000a90046001600160a01b03166001600160a01b03166334f876626040518163ffffffff1660e01b8152600401602060405180830381865afa1580156109e9573d6000803e3d6000fd5b505050506040513d601f19601f82011682018060405250810190610a0d919061316b565b6001600160a01b031684336001600160a01b03167f68c7f8503283c455a4445b54a7d5c40656c8cae5cca0583c6d4be8369847870088604051610a5091906129f2565b60405180910390a45050505050565b6001600160a01b037f0000000000000000000000000000000000000000000000000000000000000000163003610aa75760405162461bcd60e51b8152600401610674906130a1565b7f00000000000000000000000000000000000000000000000000000000000000006001600160a01b0316610af06000805160206134cc833981519152546001600160a01b031690565b6001600160a01b031614610b165760405162461bcd60e51b8152600401610674906130ed565b610b1f82611c09565b610b2b82826001611c11565b5050565b6000306001600160a01b037f00000000000000000000000000000000000000000000000000000000000000001614610bcf5760405162461bcd60e51b815260206004820152603860248201527f555550535570677261646561626c653a206d757374206e6f742062652063616c60448201527f6c6564207468726f7567682064656c656761746563616c6c00000000000000006064820152608401610674565b506000805160206134cc83398151915290565b6000818152610132602052604081205482906001600160a01b0316610c195760405162461bcd60e51b81526004016106749061306c565b5050600090815261013260205260409020546001600160a01b031690565b60006001600160a01b038216610ca55760405162461bcd60e51b815260206004820152602d60248201527f62616c616e63654f663a2061646472657373207a65726f206973206e6f74206160448201526c2076616c6964206f776e65725f60981b6064820152608401610674565b506001600160a01b03166000908152610134602052604090205490565b610cca611d7c565b610cd46000611dd6565b565b6000828152610132602052604090205482906001600160a01b0316610d0d5760405162461bcd60e51b81526004016106749061306c565b836040518060400160405280600b81526020016a7265766f6b65426164676560a81b815250600081604051602001610d459190613139565b60408051808303601f19018152908290526101355463b2a0cb6b60e01b83526004830186905290925033916001600160a01b039091169063b2a0cb6b90602401602060405180830381865afa158015610da2573d6000803e3d6000fd5b505050506040513d601f19601f82011682018060405250810190610dc6919061316b565b6001600160a01b0316148190610def5760405162461bcd60e51b815260040161067491906129f2565b50600886901c60009081526101376020526040902054600160ff88161b1615610e655760405162461bcd60e51b815260206004820152602260248201527f7265766f6b6542616467653a20626164676520616c7265616479207265766f6b604482015261195960f21b6064820152608401610674565b600886901c6000908152610137602052604090208054600160ff89161b17905560405160ff861690339088907ffa784c48260e8db512de5f055a2f29eced211a7b3bd6338058b095ada7354cee90600090a450505050505050565b6000818152610132602052604090205481906001600160a01b0316610ef75760405162461bcd60e51b81526004016106749061306c565b826040518060400160405280600e81526020016d7265696e7374617465426164676560901b815250600081604051602001610f329190613139565b60408051808303601f19018152908290526101355463b2a0cb6b60e01b83526004830186905290925033916001600160a01b039091169063b2a0cb6b90602401602060405180830381865afa158015610f8f573d6000803e3d6000fd5b505050506040513d601f19601f82011682018060405250810190610fb3919061316b565b6001600160a01b0316148190610fdc5760405162461bcd60e51b815260040161067491906129f2565b50600885901c60009081526101376020526040902054600160ff87161b166110505760405162461bcd60e51b815260206004820152602160248201527f7265696e737461746542616467653a206261646765206e6f74207265766f6b656044820152601960fa1b6064820152608401610674565b600885901c600090815261013760205260408082208054600160ff8a161b1916905551339187917f7f8cf9ecf2a5225948f8a1601709cedc8471c52ee75a8174c9845c29c99ed9a29190a3505050505050565b606061013180546105ba90613038565b60006001600160a01b038616330361110d5760405162461bcd60e51b815260206004820152601b60248201527f74616b653a2063616e6e6f742074616b652066726f6d2073656c6600000000006044820152606401610674565b600061111d338888888888611e28565b61013554604051633664a8e960e01b81529192506000916001600160a01b0390911690633664a8e990611156908a908a906004016131cc565b602060405180830381865afa158015611173573d6000803e3d6000fd5b505050506040513d601f19601f8201168201806040525081019061119791906131fb565b6101355460405163b2a0cb6b60e01b8152600481018390529192506000916001600160a01b039091169063b2a0cb6b90602401602060405180830381865afa1580156111e7573d6000803e3d6000fd5b505050506040513d601f19601f8201168201806040525081019061120b919061316b565b9050886001600160a01b0316816001600160a01b03161461126e5760405162461bcd60e51b815260206004820152601960248201527f74616b653a20756e617574686f72697a656420697373756572000000000000006044820152606401610674565b60006112b2338a8a8080601f016020809104026020016040519081016040528093929190818152602001838380828437600092019190915250889250611f4c915050565b600885901c600090815261012f602052604090208054600160ff88161b1790559050600081815261013660205260409020939093555090979650505050505050565b60008282604051602001611309929190613214565b60405160208183030381529060405280519060200120905092915050565b6000807f6d0d990916a9f9c9e0896e59ce7f5ddddff333d0c8772438ce004fa7719b164b86868660405161135c929190613240565b60405190819003812061139493929187906020019384526001600160a01b039290921660208401526040830152606082015260800190565b6040516020818303038152906040528051906020012090506113b581612121565b9695505050505050565b6113c7611d7c565b60008151116114275760405162461bcd60e51b815260206004820152602660248201527f726566726573684d657461646174613a206e6f207370656320757269732070726044820152651bdd9a59195960d21b6064820152608401610674565b7f2231d988b1a75dccab13dee3564b71a551900e822e94177a96f19561890c0fd58133604051611458929190613250565b60405180910390a150565b61146b611d7c565b61013580546001600160a01b0319166001600160a01b0392909216919091179055565b600081815261013260205260409020546060906001600160a01b03166114f65760405162461bcd60e51b815260206004820152601d60248201527f746f6b656e5552493a20746f6b656e20646f65736e27742065786973740000006044820152606401610674565b600082815261013360205260409020805461151090613038565b80601f016020809104026020016040519081016040528092919081815260200182805461153c90613038565b80156115895780601f1061155e57610100808354040283529160200191611589565b820191906000526020600020905b81548152906001019060200180831161156c57829003601f168201915b50505050509050919050565b6000818152610132602052604090205481906001600160a01b03166115cc5760405162461bcd60e51b81526004016106749061306c565b600082815261013260205260409020546001600160a01b031633146116335760405162461bcd60e51b815260206004820152601d60248201527f756e65717569703a2073656e646572206d757374206265206f776e65720000006044820152606401610674565b60008281526101366020908152604080832054600881901c845261012f9092529091208054600160ff84161b1916905561166c83612134565b505050565b600054610100900460ff16158080156116915750600054600160ff909116105b806116ab5750303b1580156116ab575060005460ff166001145b61170e5760405162461bcd60e51b815260206004820152602e60248201527f496e697469616c697a61626c653a20636f6e747261637420697320616c72656160448201526d191e481a5b9a5d1a585b1a5e995960921b6064820152608401610674565b6000805460ff191660011790558015611731576000805461ff0019166101001790555b61013061173e878261330b565b5061013161174c868261330b565b5061013580546001600160a01b0319166001600160a01b0384161790556117716121ee565b611779612215565b6117838685612244565b61178b6121ee565b61179483611a3b565b80156117da576000805461ff0019169055604051600181527f7f26b83ff96e1f2b6a682f133852f6798a09c465da95921460cefb38474024989060200160405180910390a15b505050505050565b6000807fe76a195fbe43f0eaa611595069f780493db2202a1cc4b2d7d44b47069812998a86868686604051611818929190613240565b604051908190038120611394949392916020019384526001600160a01b03928316602085015291166040830152606082015260800190565b60006001600160a01b03861633036118aa5760405162461bcd60e51b815260206004820152601960248201527f676976653a2063616e6e6f74206769766520746f2073656c66000000000000006044820152606401610674565b60006118ba338888888888611e28565b61013554604051633664a8e960e01b81529192506000916001600160a01b0390911690633664a8e9906118f3908a908a906004016131cc565b602060405180830381865afa158015611910573d6000803e3d6000fd5b505050506040513d601f19601f8201168201806040525081019061193491906131fb565b6101355460405163b2a0cb6b60e01b8152600481018390529192506000916001600160a01b039091169063b2a0cb6b90602401602060405180830381865afa158015611984573d6000803e3d6000fd5b505050506040513d601f19601f820116820180604052508101906119a8919061316b565b90506001600160a01b03811633146119f75760405162461bcd60e51b815260206004820152601260248201527119da5d994e881d5b985d5d1a1bdc9a5e995960721b6044820152606401610674565b60006112b28a8a8a8080601f016020809104026020016040519081016040528093929190818152602001838380828437600092019190915250889250611f4c915050565b611a43611d7c565b6001600160a01b038116611aa85760405162461bcd60e51b815260206004820152602660248201527f4f776e61626c653a206e6577206f776e657220697320746865207a65726f206160448201526564647265737360d01b6064820152608401610674565b61078081611dd6565b6000611abf8a8a8a88611327565b9050611b028a8289898080601f01602080910402602001604051908101604052809392919081815260200183838082843760009201919091525061227592505050565b611b625760405162461bcd60e51b815260206004820152602b60248201527f73616665436865636b4d65726b6c6541677265656d656e743a20696e76616c6960448201526a64207369676e617475726560a81b6064820152608401610674565b611ba28484808060200260200160405190810160405280939291908181526020018383602002808284376000920191909152508992508691506123b69050565b611bfd5760405162461bcd60e51b815260206004820152602660248201527f73616665436865636b4d65726b6c6541677265656d656e743a20696e76616c6960448201526532103632b0b360d11b6064820152608401610674565b50505050505050505050565b610780611d7c565b7f4910fdfa16fed3260ed0e7147f7cc6da11a60208b5b9406d12a635614ffd91435460ff1615611c445761166c836123cc565b826001600160a01b03166352d1902d6040518163ffffffff1660e01b8152600401602060405180830381865afa925050508015611c9e575060408051601f3d908101601f19168201909252611c9b918101906131fb565b60015b611d015760405162461bcd60e51b815260206004820152602e60248201527f45524331393637557067726164653a206e657720696d706c656d656e7461746960448201526d6f6e206973206e6f74205555505360901b6064820152608401610674565b6000805160206134cc8339815191528114611d705760405162461bcd60e51b815260206004820152602960248201527f45524331393637557067726164653a20756e737570706f727465642070726f786044820152681a58589b195555525160ba1b6064820152608401610674565b5061166c838383612468565b60c9546001600160a01b03163314610cd45760405162461bcd60e51b815260206004820181905260248201527f4f776e61626c653a2063616c6c6572206973206e6f7420746865206f776e65726044820152606401610674565b60c980546001600160a01b038381166001600160a01b0319831681179093556040519116919082907f8be0079c531659141344cd1fd0a4f28419497f9722a3daafe3b4186f6b6457e090600090a35050565b600080611e37888888886117e2565b9050611e7a878286868080601f01602080910402602001604051908101604052809392919081815260200183838082843760009201919091525061227592505050565b611ed45760405162461bcd60e51b815260206004820152602560248201527f73616665436865636b41677265656d656e743a20696e76616c6964207369676e604482015264617475726560d81b6064820152608401610674565b600881901c600090815261012f60205260409020548190600160ff83161b1615611f405760405162461bcd60e51b815260206004820181905260248201527f73616665436865636b41677265656d656e743a20616c726561647920757365646044820152606401610674565b98975050505050505050565b600080611f5985856112f4565b9050806000849003611fad5760405162461bcd60e51b815260206004820152601c60248201527f6d696e743a2073706563206973206e6f742072656769737465726564000000006044820152606401610674565b600081815261013260205260409020546001600160a01b03161561200a5760405162461bcd60e51b81526020600482015260146024820152736d696e743a20746f6b656e49442065786973747360601b6044820152606401610674565b6001600160a01b0386166000908152610134602052604081208054600192906120349084906133e0565b909155505060008181526101326020908152604080832080546001600160a01b0319166001600160a01b038b161790556101339091529020612076868261330b565b5060405181906001600160a01b038816906000907fddf252ad1be2c89b69c2b068fc378daa952ba7f163c4a11628f55a4df523b3ef908290a46101355460405163fb74926160e01b815260048101839052602481018690526001600160a01b039091169063fb74926190604401600060405180830381600087803b1580156120fd57600080fd5b505af1158015612111573d6000803e3d6000fd5b50929450505050505b9392505050565b60006105a461212e612493565b83612513565b600081815261013260209081526040808320546001600160a01b031680845261013490925282208054919260019261216d9084906133f3565b909155505060008281526101326020908152604080832080546001600160a01b031916905561013390915281206121a39161292a565b60008281526101366020526040808220829055518391906001600160a01b038416907fddf252ad1be2c89b69c2b068fc378daa952ba7f163c4a11628f55a4df523b3ef908390a45050565b600054610100900460ff16610cd45760405162461bcd60e51b815260040161067490613406565b600054610100900460ff1661223c5760405162461bcd60e51b815260040161067490613406565b610cd461253a565b600054610100900460ff1661226b5760405162461bcd60e51b815260040161067490613406565b610b2b828261256a565b600080600061228485856125ab565b9092509050600081600481111561229d5761229d613451565b1480156122bb5750856001600160a01b0316826001600160a01b0316145b156122cb5760019250505061211a565b600080876001600160a01b0316631626ba7e60e01b88886040516024016122f3929190613467565b60408051601f198184030181529181526020820180516001600160e01b03166001600160e01b03199094169390931790925290516123319190613480565b600060405180830381855afa9150503d806000811461236c576040519150601f19603f3d011682016040523d82523d6000602084013e612371565b606091505b5091509150818015612384575080516020145b8015611f4057508051630b135d3f60e11b906123a990830160209081019084016131fb565b1498975050505050505050565b6000826123c38584612619565b14949350505050565b6001600160a01b0381163b6124395760405162461bcd60e51b815260206004820152602d60248201527f455243313936373a206e657720696d706c656d656e746174696f6e206973206e60448201526c1bdd08184818dbdb9d1c9858dd609a1b6064820152608401610674565b6000805160206134cc83398151915280546001600160a01b0319166001600160a01b0392909216919091179055565b61247183612666565b60008251118061247e5750805b1561166c5761248d83836126a6565b50505050565b600061250e7f8b73c3c69bb8fe3d512ecc4cf759cc79239f7b179b0ffacaa9a75d522b39400f6124c260fb5490565b60fc546040805160208101859052908101839052606081018290524660808201523060a082015260009060c0016040516020818303038152906040528051906020012090509392505050565b905090565b60405161190160f01b60208201526022810183905260428101829052600090606201611309565b600054610100900460ff166125615760405162461bcd60e51b815260040161067490613406565b610cd433611dd6565b600054610100900460ff166125915760405162461bcd60e51b815260040161067490613406565b81516020928301208151919092012060fb9190915560fc55565b60008082516041036125e15760208301516040840151606085015160001a6125d58782858561279a565b94509450505050612612565b825160400361260a57602083015160408401516125ff868383612887565b935093505050612612565b506000905060025b9250929050565b600081815b845181101561265e5761264a8286838151811061263d5761263d61349c565b60200260200101516128c0565b915080612656816134b2565b91505061261e565b509392505050565b61266f816123cc565b6040516001600160a01b038216907fbc7cd75a20ee27fd9adebab32041f755214dbc6bffa90cc0225b39da2e5c2d3b90600090a250565b60606001600160a01b0383163b61270e5760405162461bcd60e51b815260206004820152602660248201527f416464726573733a2064656c65676174652063616c6c20746f206e6f6e2d636f6044820152651b9d1c9858dd60d21b6064820152608401610674565b600080846001600160a01b0316846040516127299190613480565b600060405180830381855af49150503d8060008114612764576040519150601f19603f3d011682016040523d82523d6000602084013e612769565b606091505b509150915061279182826040518060600160405280602781526020016134ec602791396128ec565b95945050505050565b6000807f7fffffffffffffffffffffffffffffff5d576e7357a4501ddfe92f46681b20a08311156127d1575060009050600361287e565b8460ff16601b141580156127e957508460ff16601c14155b156127fa575060009050600461287e565b6040805160008082526020820180845289905260ff881692820192909252606081018690526080810185905260019060a0016020604051602081039080840390855afa15801561284e573d6000803e3d6000fd5b5050604051601f1901519150506001600160a01b0381166128775760006001925092505061287e565b9150600090505b94509492505050565b6000806001600160ff1b038316816128a460ff86901c601b6133e0565b90506128b28782888561279a565b935093505050935093915050565b60008183106128dc57600082815260208490526040902061211a565b5060009182526020526040902090565b606083156128fb57508161211a565b61211a83838151156129105781518083602001fd5b8060405162461bcd60e51b815260040161067491906129f2565b50805461293690613038565b6000825580601f10612946575050565b601f01602090049060005260206000209081019061078091905b808211156129745760008155600101612960565b5090565b60006020828403121561298a57600080fd5b81356001600160e01b03198116811461211a57600080fd5b60005b838110156129bd5781810151838201526020016129a5565b50506000910152565b600081518084526129de8160208601602086016129a2565b601f01601f19169290920160200192915050565b60208152600061211a60208301846129c6565b600060208284031215612a1757600080fd5b5035919050565b6001600160a01b038116811461078057600080fd5b600060208284031215612a4557600080fd5b813561211a81612a1e565b634e487b7160e01b600052604160045260246000fd5b604051601f8201601f191681016001600160401b0381118282101715612a8e57612a8e612a50565b604052919050565b60006001600160401b03831115612aaf57612aaf612a50565b612ac2601f8401601f1916602001612a66565b9050828152838383011115612ad657600080fd5b828260208301376000602084830101529392505050565b600082601f830112612afe57600080fd5b61211a83833560208501612a96565b60008060408385031215612b2057600080fd5b82356001600160401b03811115612b3657600080fd5b612b4285828601612aed565b95602094909401359450505050565b60008060408385031215612b6457600080fd5b8235612b6f81612a1e565b915060208301356001600160401b03811115612b8a57600080fd5b8301601f81018513612b9b57600080fd5b612baa85823560208401612a96565b9150509250929050565b600080600060608486031215612bc957600080fd5b8335925060208401359150604084013560ff81168114612be857600080fd5b809150509250925092565b60008060408385031215612c0657600080fd5b50508035926020909101359150565b60008083601f840112612c2757600080fd5b5081356001600160401b03811115612c3e57600080fd5b60208301915083602082850101111561261257600080fd5b600080600080600060608688031215612c6e57600080fd5b8535612c7981612a1e565b945060208601356001600160401b0380821115612c9557600080fd5b612ca189838a01612c15565b90965094506040880135915080821115612cba57600080fd5b50612cc788828901612c15565b969995985093965092949392505050565b60008060408385031215612ceb57600080fd5b8235612cf681612a1e565b915060208301356001600160401b03811115612d1157600080fd5b612baa85828601612aed565b60008060008060608587031215612d3357600080fd5b8435612d3e81612a1e565b935060208501356001600160401b03811115612d5957600080fd5b612d6587828801612c15565b9598909750949560400135949350505050565b60006020808385031215612d8b57600080fd5b82356001600160401b0380821115612da257600080fd5b818501915085601f830112612db657600080fd5b813581811115612dc857612dc8612a50565b8060051b612dd7858201612a66565b9182528381018501918581019089841115612df157600080fd5b86860192505b83831015612e2d57823585811115612e0f5760008081fd5b612e1d8b89838a0101612aed565b8352509186019190860190612df7565b9998505050505050505050565b600080600080600060a08688031215612e5257600080fd5b85356001600160401b0380821115612e6957600080fd5b612e7589838a01612aed565b96506020880135915080821115612e8b57600080fd5b612e9789838a01612aed565b95506040880135915080821115612ead57600080fd5b50612eba88828901612aed565b9350506060860135612ecb81612a1e565b91506080860135612edb81612a1e565b809150509295509295909350565b60008060008060608587031215612eff57600080fd5b8435612f0a81612a1e565b93506020850135612f1a81612a1e565b925060408501356001600160401b03811115612f3557600080fd5b612f4187828801612c15565b95989497509550505050565b600080600080600080600080600060c08a8c031215612f6b57600080fd5b8935612f7681612a1e565b985060208a01356001600160401b0380821115612f9257600080fd5b612f9e8d838e01612c15565b909a50985060408c0135915080821115612fb757600080fd5b612fc38d838e01612c15565b909850965060608c0135955060808c0135915080821115612fe357600080fd5b818c0191508c601f830112612ff757600080fd5b81358181111561300657600080fd5b8d60208260051b850101111561301b57600080fd5b9a9d999c50979a969995989497506020019560a001359392505050565b600181811c9082168061304c57607f821691505b60208210810361069e57634e487b7160e01b600052602260045260246000fd5b6020808252818101527f746f6b656e4578697374733a20746f6b656e20646f65736e2774206578697374604082015260600190565b6020808252602c908201527f46756e6374696f6e206d7573742062652063616c6c6564207468726f7567682060408201526b19195b1959d85d1958d85b1b60a21b606082015260800190565b6020808252602c908201527f46756e6374696f6e206d7573742062652063616c6c6564207468726f7567682060408201526b6163746976652070726f787960a01b606082015260800190565b6000825161314b8184602087016129a2565b6d0e881d5b985d5d1a1bdc9a5e995960921b920191825250600e01919050565b60006020828403121561317d57600080fd5b815161211a81612a1e565b60006020828403121561319a57600080fd5b8151801515811461211a57600080fd5b6040815260006131bd60408301856129c6565b90508260208301529392505050565b60208152816020820152818360408301376000818301604090810191909152601f909201601f19160101919050565b60006020828403121561320d57600080fd5b5051919050565b6001600160a01b0383168152604060208201819052600090613238908301846129c6565b949350505050565b8183823760009101908152919050565b6000604082016040835280855180835260608501915060608160051b8601019250602080880160005b838110156132a757605f198887030185526132958683516129c6565b95509382019390820190600101613279565b50506001600160a01b03969096169490950193909352949350505050565b601f82111561166c57600081815260208120601f850160051c810160208610156132ec5750805b601f850160051c820191505b818110156117da578281556001016132f8565b81516001600160401b0381111561332457613324612a50565b613338816133328454613038565b846132c5565b602080601f83116001811461336d57600084156133555750858301515b600019600386901b1c1916600185901b1785556117da565b600085815260208120601f198616915b8281101561339c5788860151825594840194600190910190840161337d565b50858210156133ba5787850151600019600388901b60f8161c191681555b5050505050600190811b01905550565b634e487b7160e01b600052601160045260246000fd5b808201808211156105a4576105a46133ca565b818103818111156105a4576105a46133ca565b6020808252602b908201527f496e697469616c697a61626c653a20636f6e7472616374206973206e6f74206960408201526a6e697469616c697a696e6760a81b606082015260800190565b634e487b7160e01b600052602160045260246000fd5b82815260406020820152600061323860408301846129c6565b600082516134928184602087016129a2565b9190910192915050565b634e487b7160e01b600052603260045260246000fd5b6000600182016134c4576134c46133ca565b506001019056fe360894a13ba1a3210667c828492db98dca3e2076cc3735a920a3ca505d382bbc416464726573733a206c6f772d6c6576656c2064656c65676174652063616c6c206661696c6564a26469706673582212203e3ac8775080f72f9d9ccfee0ff907f1a95e5a9745445694fa6c3223aaad808464736f6c63430008100033",
    "linkReferences": {}
  },
  "methodIdentifiers": {
    "balanceOf(address)": "70a08231",
    "createSpec(string,uint256)": "445a62b9",
    "getAgreementHash(address,address,string)": "e4992506",
    "getBadgeIdHash(address,string)": "a8cf8683",
    "getDataHolderAddress()": "635ad993",
    "getMerkleAgreementHash(address,string,bytes32)": "bd6645e4",
    "getVoucherHash(uint256)": "3b363a09",
    "give(address,string,bytes)": "ec64948e",
    "initialize(string,string,string,address,address)": "d6d0faee",
    "isBadgeValid(uint256)": "0f4d9b01",
    "name()": "06fdde03",
    "owner()": "8da5cb5b",
    "ownerOf(uint256)": "6352211e",
    "proxiableUUID()": "52d1902d",
    "refreshMetadata(string[])": "bdbdbcbf",
    "reinstateBadge(uint256,uint256)": "80956c7e",
    "renounceOwnership()": "715018a6",
    "revokeBadge(uint256,uint256,uint8)": "7c402f8d",
    "safeCheckMerkleAgreement(address,string,bytes,bytes32,bytes32[],bytes32)": "f7c18d50",
    "setDataHolder(address)": "c0184112",
    "supportsInterface(bytes4)": "01ffc9a7",
    "symbol()": "95d89b41",
    "take(address,string,bytes)": "a3947803",
    "tokenURI(uint256)": "c87b56dd",
    "transferOwnership(address)": "f2fde38b",
    "unequip(uint256)": "d179e3d0",
    "upgradeTo(address)": "3659cfe6",
    "upgradeToAndCall(address,bytes)": "4f1ef286"
  },
  "id": 46
}