{
  "abi": [
    {
      "anonymous": false,
      "inputs": [
        {
          "indexed": false,
          "internalType": "address",
          "name": "previousAdmin",
          "type": "address"
        },
        {
          "indexed": false,
          "internalType": "address",
          "name": "newAdmin",
          "type": "address"
        }
      ],
      "name": "AdminChanged",
      "type": "event"
    },
    {
      "anonymous": false,
      "inputs": [
        {
          "indexed": true,
          "internalType": "address",
          "name": "beacon",
          "type": "address"
        }
      ],
      "name": "BeaconUpgraded",
      "type": "event"
    },
    {
      "anonymous": false,
      "inputs": [
        {
          "indexed": false,
          "internalType": "uint8",
          "name": "version",
          "type": "uint8"
        }
      ],
      "name": "Initialized",
      "type": "event"
    },
    {
      "anonymous": false,
      "inputs": [
        {
          "indexed": true,
          "internalType": "address",
          "name": "previousOwner",
          "type": "address"
        },
        {
          "indexed": true,
          "internalType": "address",
          "name": "newOwner",
          "type": "address"
        }
      ],
      "name": "OwnershipTransferred",
      "type": "event"
    },
    {
      "anonymous": false,
      "inputs": [
        {
          "indexed": true,
          "internalType": "address",
          "name": "to",
          "type": "address"
        },
        {
          "indexed": false,
          "internalType": "string",
          "name": "specUri",
          "type": "string"
        },
        {
          "indexed": true,
          "internalType": "uint256",
          "name": "raftTokenId",
          "type": "uint256"
        },
        {
          "indexed": true,
          "internalType": "address",
          "name": "raftAddress",
          "type": "address"
        }
      ],
      "name": "SpecCreated",
      "type": "event"
    },
    {
      "anonymous": false,
      "inputs": [
        {
          "indexed": true,
          "internalType": "address",
          "name": "from",
          "type": "address"
        },
        {
          "indexed": true,
          "internalType": "address",
          "name": "to",
          "type": "address"
        },
        {
          "indexed": true,
          "internalType": "uint256",
          "name": "tokenId",
          "type": "uint256"
        }
      ],
      "name": "Transfer",
      "type": "event"
    },
    {
      "anonymous": false,
      "inputs": [
        {
          "indexed": true,
          "internalType": "address",
          "name": "implementation",
          "type": "address"
        }
      ],
      "name": "Upgraded",
      "type": "event"
    },
    {
      "inputs": [
        {
          "internalType": "address",
          "name": "owner_",
          "type": "address"
        }
      ],
      "name": "balanceOf",
      "outputs": [
        {
          "internalType": "uint256",
          "name": "",
          "type": "uint256"
        }
      ],
      "stateMutability": "view",
      "type": "function"
    },
    {
      "inputs": [
        {
          "internalType": "string",
          "name": "specUri",
          "type": "string"
        },
        {
          "internalType": "uint256",
          "name": "raftTokenId",
          "type": "uint256"
        }
      ],
      "name": "createSpecAsRaftOwner",
      "outputs": [],
      "stateMutability": "nonpayable",
      "type": "function"
    },
    {
      "inputs": [],
      "name": "getDataHolderAddress",
      "outputs": [
        {
          "internalType": "address",
          "name": "",
          "type": "address"
        }
      ],
      "stateMutability": "view",
      "type": "function"
    },
    {
      "inputs": [
        {
          "internalType": "address",
          "name": "from",
          "type": "address"
        },
        {
          "internalType": "address",
          "name": "to",
          "type": "address"
        },
        {
          "internalType": "string",
          "name": "tokenURI_",
          "type": "string"
        }
      ],
      "name": "getHash",
      "outputs": [
        {
          "internalType": "bytes32",
          "name": "",
          "type": "bytes32"
        }
      ],
      "stateMutability": "view",
      "type": "function"
    },
    {
      "inputs": [
        {
          "internalType": "address",
          "name": "to",
          "type": "address"
        },
        {
          "internalType": "string",
          "name": "uri",
          "type": "string"
        },
        {
          "internalType": "bytes",
          "name": "signature",
          "type": "bytes"
        }
      ],
      "name": "give",
      "outputs": [
        {
          "internalType": "uint256",
          "name": "",
          "type": "uint256"
        }
      ],
      "stateMutability": "nonpayable",
      "type": "function"
    },
    {
      "inputs": [
        {
          "internalType": "string",
          "name": "name_",
          "type": "string"
        },
        {
          "internalType": "string",
          "name": "symbol_",
          "type": "string"
        },
        {
          "internalType": "string",
          "name": "version_",
          "type": "string"
        },
        {
          "internalType": "address",
          "name": "nextOwner",
          "type": "address"
        },
        {
          "internalType": "address",
          "name": "specDataHolderAddress",
          "type": "address"
        }
      ],
      "name": "initialize",
      "outputs": [],
      "stateMutability": "nonpayable",
      "type": "function"
    },
    {
      "inputs": [],
      "name": "name",
      "outputs": [
        {
          "internalType": "string",
          "name": "",
          "type": "string"
        }
      ],
      "stateMutability": "view",
      "type": "function"
    },
    {
      "inputs": [],
      "name": "owner",
      "outputs": [
        {
          "internalType": "address",
          "name": "",
          "type": "address"
        }
      ],
      "stateMutability": "view",
      "type": "function"
    },
    {
      "inputs": [
        {
          "internalType": "uint256",
          "name": "tokenId_",
          "type": "uint256"
        }
      ],
      "name": "ownerOf",
      "outputs": [
        {
          "internalType": "address",
          "name": "",
          "type": "address"
        }
      ],
      "stateMutability": "view",
      "type": "function"
    },
    {
      "inputs": [],
      "name": "proxiableUUID",
      "outputs": [
        {
          "internalType": "bytes32",
          "name": "",
          "type": "bytes32"
        }
      ],
      "stateMutability": "view",
      "type": "function"
    },
    {
      "inputs": [],
      "name": "renounceOwnership",
      "outputs": [],
      "stateMutability": "nonpayable",
      "type": "function"
    },
    {
      "inputs": [
        {
          "internalType": "address",
          "name": "_dataHolder",
          "type": "address"
        }
      ],
      "name": "setDataHolder",
      "outputs": [],
      "stateMutability": "nonpayable",
      "type": "function"
    },
    {
      "inputs": [
        {
          "internalType": "bytes4",
          "name": "interfaceId",
          "type": "bytes4"
        }
      ],
      "name": "supportsInterface",
      "outputs": [
        {
          "internalType": "bool",
          "name": "",
          "type": "bool"
        }
      ],
      "stateMutability": "view",
      "type": "function"
    },
    {
      "inputs": [],
      "name": "symbol",
      "outputs": [
        {
          "internalType": "string",
          "name": "",
          "type": "string"
        }
      ],
      "stateMutability": "view",
      "type": "function"
    },
    {
      "inputs": [
        {
          "internalType": "address",
          "name": "from",
          "type": "address"
        },
        {
          "internalType": "string",
          "name": "uri",
          "type": "string"
        },
        {
          "internalType": "bytes",
          "name": "signature",
          "type": "bytes"
        }
      ],
      "name": "take",
      "outputs": [
        {
          "internalType": "uint256",
          "name": "",
          "type": "uint256"
        }
      ],
      "stateMutability": "nonpayable",
      "type": "function"
    },
    {
      "inputs": [
        {
          "internalType": "uint256",
          "name": "tokenId",
          "type": "uint256"
        }
      ],
      "name": "tokenURI",
      "outputs": [
        {
          "internalType": "string",
          "name": "",
          "type": "string"
        }
      ],
      "stateMutability": "view",
      "type": "function"
    },
    {
      "inputs": [
        {
          "internalType": "address",
          "name": "newOwner",
          "type": "address"
        }
      ],
      "name": "transferOwnership",
      "outputs": [],
      "stateMutability": "nonpayable",
      "type": "function"
    },
    {
      "inputs": [
        {
          "internalType": "uint256",
          "name": "tokenId",
          "type": "uint256"
        }
      ],
      "name": "unequip",
      "outputs": [],
      "stateMutability": "nonpayable",
      "type": "function"
    },
    {
      "inputs": [
        {
          "internalType": "address",
          "name": "newImplementation",
          "type": "address"
        }
      ],
      "name": "upgradeTo",
      "outputs": [],
      "stateMutability": "nonpayable",
      "type": "function"
    },
    {
      "inputs": [
        {
          "internalType": "address",
          "name": "newImplementation",
          "type": "address"
        },
        {
          "internalType": "bytes",
          "name": "data",
          "type": "bytes"
        }
      ],
      "name": "upgradeToAndCall",
      "outputs": [],
      "stateMutability": "payable",
      "type": "function"
    }
  ],
  "bytecode": {
    "object": "0x60a06040523060805234801561001457600080fd5b5060805161269361004c600039600081816104a2015281816104eb015281816108bf015281816108ff015261099201526126936000f3fe60806040526004361061011f5760003560e01c80638da5cb5b116100a0578063c87b56dd11610064578063c87b56dd14610312578063d179e3d014610332578063d6d0faee14610352578063ec64948e14610372578063f2fde38b1461039257600080fd5b80638da5cb5b1461027f57806395d89b411461029d578063a3947803146102b2578063c0184112146102d2578063c5cf33c2146102f257600080fd5b806352d1902d116100e757806352d1902d146101d05780636352211e146101f3578063635ad9931461022b57806370a082311461024a578063715018a61461026a57600080fd5b806301ffc9a71461012457806306fdde03146101595780633659cfe61461017b5780634249d86e1461019d5780634f1ef286146101bd575b600080fd5b34801561013057600080fd5b5061014461013f366004611f9d565b6103b2565b60405190151581526020015b60405180910390f35b34801561016557600080fd5b5061016e610404565b604051610150919061201f565b34801561018757600080fd5b5061019b610196366004612047565b610497565b005b3480156101a957600080fd5b5061019b6101b8366004612110565b610580565b61019b6101cb366004612155565b6108b4565b3480156101dc57600080fd5b506101e5610985565b604051908152602001610150565b3480156101ff57600080fd5b5061021361020e3660046121b9565b610a38565b6040516001600160a01b039091168152602001610150565b34801561023757600080fd5b50610135546001600160a01b0316610213565b34801561025657600080fd5b506101e5610265366004612047565b610a9e565b34801561027657600080fd5b5061019b610b29565b34801561028b57600080fd5b5060c9546001600160a01b0316610213565b3480156102a957600080fd5b5061016e610b3d565b3480156102be57600080fd5b506101e56102cd366004612214565b610b4d565b3480156102de57600080fd5b5061019b6102ed366004612047565b610c27565b3480156102fe57600080fd5b506101e561030d366004612297565b610c52565b34801561031e57600080fd5b5061016e61032d3660046121b9565b610c69565b34801561033e57600080fd5b5061019b61034d3660046121b9565b610d70565b34801561035e57600080fd5b5061019b61036d3660046122fc565b610e03565b34801561037e57600080fd5b506101e561038d366004612214565b610f82565b34801561039e57600080fd5b5061019b6103ad366004612047565b611030565b60006001600160e01b03198216635b5e139f60e01b14806103e357506001600160e01b031982166346bdd63960e11b145b806103fe57506301ffc9a760e01b6001600160e01b03198316145b92915050565b60606101308054610414906123ac565b80601f0160208091040260200160405190810160405280929190818152602001828054610440906123ac565b801561048d5780601f106104625761010080835404028352916020019161048d565b820191906000526020600020905b81548152906001019060200180831161047057829003601f168201915b5050505050905090565b306001600160a01b037f00000000000000000000000000000000000000000000000000000000000000001614156104e95760405162461bcd60e51b81526004016104e0906123e7565b60405180910390fd5b7f00000000000000000000000000000000000000000000000000000000000000006001600160a01b0316610532600080516020612617833981519152546001600160a01b031690565b6001600160a01b0316146105585760405162461bcd60e51b81526004016104e090612433565b610561816110a6565b6040805160008082526020820190925261057d918391906110ae565b50565b6101355460405163b2a0cb6b60e01b8152600481018390526000916001600160a01b03169063b2a0cb6b9060240160206040518083038186803b1580156105c657600080fd5b505afa1580156105da573d6000803e3d6000fd5b505050506040513d601f19601f820116820180604052508101906105fe919061247f565b905061062f6040518060400160405280600d81526020016c036b9b39739b2b73232b9101e9609d1b8152503361122d565b6001600160a01b03811633146106935760405162461bcd60e51b815260206004820152602360248201527f637265617465537065634173526166744f776e65723a20756e617574686f72696044820152621e995960ea1b60648201526084016104e0565b61013554604051631722f77360e31b81526001600160a01b039091169063b917bb98906106c490869060040161201f565b60206040518083038186803b1580156106dc57600080fd5b505afa1580156106f0573d6000803e3d6000fd5b505050506040513d601f19601f82011682018060405250810190610714919061249c565b156107785760405162461bcd60e51b815260206004820152602e60248201527f637265617465537065634173526166744f776e65723a207370656320616c726560448201526d18591e481c9959da5cdd195c995960921b60648201526084016104e0565b6101355460405163addd190760e01b81526001600160a01b039091169063addd1907906107ab90869086906004016124be565b600060405180830381600087803b1580156107c557600080fd5b505af11580156107d9573d6000803e3d6000fd5b5050505061013560009054906101000a90046001600160a01b03166001600160a01b03166334f876626040518163ffffffff1660e01b815260040160206040518083038186803b15801561082c57600080fd5b505afa158015610840573d6000803e3d6000fd5b505050506040513d601f19601f82011682018060405250810190610864919061247f565b6001600160a01b031682336001600160a01b03167f68c7f8503283c455a4445b54a7d5c40656c8cae5cca0583c6d4be83698478700866040516108a7919061201f565b60405180910390a4505050565b306001600160a01b037f00000000000000000000000000000000000000000000000000000000000000001614156108fd5760405162461bcd60e51b81526004016104e0906123e7565b7f00000000000000000000000000000000000000000000000000000000000000006001600160a01b0316610946600080516020612617833981519152546001600160a01b031690565b6001600160a01b03161461096c5760405162461bcd60e51b81526004016104e090612433565b610975826110a6565b610981828260016110ae565b5050565b6000306001600160a01b037f00000000000000000000000000000000000000000000000000000000000000001614610a255760405162461bcd60e51b815260206004820152603860248201527f555550535570677261646561626c653a206d757374206e6f742062652063616c60448201527f6c6564207468726f7567682064656c656761746563616c6c000000000000000060648201526084016104e0565b5060008051602061261783398151915290565b600081815261013260205260408120546001600160a01b0316806103fe5760405162461bcd60e51b815260206004820152601c60248201527f6f776e65724f663a20746f6b656e20646f65736e27742065786973740000000060448201526064016104e0565b60006001600160a01b038216610b0c5760405162461bcd60e51b815260206004820152602d60248201527f62616c616e63654f663a2061646472657373207a65726f206973206e6f74206160448201526c2076616c6964206f776e65725f60981b60648201526084016104e0565b506001600160a01b03166000908152610134602052604090205490565b610b31611272565b610b3b60006112cc565b565b60606101318054610414906123ac565b6000336001600160a01b0387161415610ba85760405162461bcd60e51b815260206004820152601b60248201527f74616b653a2063616e6e6f742074616b652066726f6d2073656c66000000000060448201526064016104e0565b6000610bb833888888888861131e565b9050610bfb338288888080601f01602080910402602001604051908101604052809392919081815260200183838082843760009201919091525061145392505050565b50600881901c600090815261012f602052604090208054600160ff84161b1790555b9695505050505050565b610c2f611272565b61013580546001600160a01b0319166001600160a01b0392909216919091179055565b6000610c60858585856116a0565b95945050505050565b600081815261013260205260409020546060906001600160a01b0316610cd15760405162461bcd60e51b815260206004820152601d60248201527f746f6b656e5552493a20746f6b656e20646f65736e277420657869737400000060448201526064016104e0565b6000828152610133602052604090208054610ceb906123ac565b80601f0160208091040260200160405190810160405280929190818152602001828054610d17906123ac565b8015610d645780601f10610d3957610100808354040283529160200191610d64565b820191906000526020600020905b815481529060010190602001808311610d4757829003601f168201915b50505050509050919050565b610d7981610a38565b6001600160a01b0316336001600160a01b031614610dd95760405162461bcd60e51b815260206004820152601d60248201527f756e65717569703a2073656e646572206d757374206265206f776e657200000060448201526064016104e0565b600881901c600090815261012f602052604090208054600160ff84161b1916905561057d8161172f565b600054610100900460ff1615808015610e235750600054600160ff909116105b80610e3d5750303b158015610e3d575060005460ff166001145b610ea05760405162461bcd60e51b815260206004820152602e60248201527f496e697469616c697a61626c653a20636f6e747261637420697320616c72656160448201526d191e481a5b9a5d1a585b1a5e995960921b60648201526084016104e0565b6000805460ff191660011790558015610ec3576000805461ff0019166101001790555b8551610ed790610130906020890190611ece565b508451610eec90610131906020880190611ece565b50610ef56117db565b610efd611802565b610f078685611831565b610f0f6117db565b610f1883611030565b61013580546001600160a01b0319166001600160a01b0384161790558015610f7a576000805461ff0019169055604051600181527f7f26b83ff96e1f2b6a682f133852f6798a09c465da95921460cefb38474024989060200160405180910390a15b505050505050565b6000336001600160a01b0387161415610fdd5760405162461bcd60e51b815260206004820152601b60248201527f676976653a2063616e6e6f7420676976652066726f6d2073656c66000000000060448201526064016104e0565b6000610fed33888888888861131e565b9050610bfb878288888080601f01602080910402602001604051908101604052809392919081815260200183838082843760009201919091525061145392505050565b611038611272565b6001600160a01b03811661109d5760405162461bcd60e51b815260206004820152602660248201527f4f776e61626c653a206e6577206f776e657220697320746865207a65726f206160448201526564647265737360d01b60648201526084016104e0565b61057d816112cc565b61057d611272565b7f4910fdfa16fed3260ed0e7147f7cc6da11a60208b5b9406d12a635614ffd91435460ff16156110e6576110e183611862565b505050565b826001600160a01b03166352d1902d6040518163ffffffff1660e01b815260040160206040518083038186803b15801561111f57600080fd5b505afa92505050801561114f575060408051601f3d908101601f1916820190925261114c918101906124e0565b60015b6111b25760405162461bcd60e51b815260206004820152602e60248201527f45524331393637557067726164653a206e657720696d706c656d656e7461746960448201526d6f6e206973206e6f74205555505360901b60648201526084016104e0565b60008051602061261783398151915281146112215760405162461bcd60e51b815260206004820152602960248201527f45524331393637557067726164653a20756e737570706f727465642070726f786044820152681a58589b195555525160ba1b60648201526084016104e0565b506110e18383836118fe565b61098182826040516024016112439291906124f9565b60408051601f198184030181529190526020810180516001600160e01b031663319af33360e01b179052611929565b60c9546001600160a01b03163314610b3b5760405162461bcd60e51b815260206004820181905260248201527f4f776e61626c653a2063616c6c6572206973206e6f7420746865206f776e657260448201526064016104e0565b60c980546001600160a01b038381166001600160a01b0319831681179093556040519116919082907f8be0079c531659141344cd1fd0a4f28419497f9722a3daafe3b4186f6b6457e090600090a35050565b60008061132d888888886116a0565b905060008160001c9050611378888387878080601f01602080910402602001604051908101604052809392919081815260200183838082843760009201919091525061194a92505050565b6113d35760405162461bcd60e51b815260206004820152602660248201527f5f73616665436865636b41677265656d656e743a20696e76616c6964207369676044820152656e617475726560d01b60648201526084016104e0565b600881901c600090815261012f6020526040902054600160ff83161b16156114475760405162461bcd60e51b815260206004820152602160248201527f5f73616665436865636b41677265656d656e743a20616c7265616479207573656044820152601960fa1b60648201526084016104e0565b98975050505050505050565b61013554604051633664a8e960e01b815260009182916001600160a01b0390911690633664a8e99061148990869060040161201f565b60206040518083038186803b1580156114a157600080fd5b505afa1580156114b5573d6000803e3d6000fd5b505050506040513d601f19601f820116820180604052508101906114d991906124e0565b9050806115285760405162461bcd60e51b815260206004820152601d60248201527f5f6d696e743a2073706563206973206e6f74207265676973746572656400000060448201526064016104e0565b600084815261013260205260409020546001600160a01b0316156115855760405162461bcd60e51b81526020600482015260146024820152736d696e743a20746f6b656e49442065786973747360601b60448201526064016104e0565b6001600160a01b0385166000908152610134602052604081208054600192906115af908490612539565b909155505060008481526101326020908152604080832080546001600160a01b0319166001600160a01b038a16179055610133825290912084516115f592860190611ece565b5060405184906001600160a01b038716906000907fddf252ad1be2c89b69c2b068fc378daa952ba7f163c4a11628f55a4df523b3ef908290a46101355460405163fb74926160e01b815260048101869052602481018390526001600160a01b039091169063fb74926190604401600060405180830381600087803b15801561167c57600080fd5b505af1158015611690573d6000803e3d6000fd5b50505050839150505b9392505050565b6000807fe76a195fbe43f0eaa611595069f780493db2202a1cc4b2d7d44b47069812998a868686866040516116d6929190612551565b60405190819003812061170e949392916020019384526001600160a01b03928316602085015291166040830152606082015260800190565b604051602081830303815290604052805190602001209050610c1d81611a8b565b600061173a82610a38565b6001600160a01b0381166000908152610134602052604081208054929350600192909190611769908490612561565b909155505060008281526101326020908152604080832080546001600160a01b0319169055610133909152812061179f91611f52565b60405182906000906001600160a01b038416907fddf252ad1be2c89b69c2b068fc378daa952ba7f163c4a11628f55a4df523b3ef908390a45050565b600054610100900460ff16610b3b5760405162461bcd60e51b81526004016104e090612578565b600054610100900460ff166118295760405162461bcd60e51b81526004016104e090612578565b610b3b611ad9565b600054610100900460ff166118585760405162461bcd60e51b81526004016104e090612578565b6109818282611b09565b6001600160a01b0381163b6118cf5760405162461bcd60e51b815260206004820152602d60248201527f455243313936373a206e657720696d706c656d656e746174696f6e206973206e60448201526c1bdd08184818dbdb9d1c9858dd609a1b60648201526084016104e0565b60008051602061261783398151915280546001600160a01b0319166001600160a01b0392909216919091179055565b61190783611b4a565b6000825111806119145750805b156110e1576119238383611b8a565b50505050565b80516a636f6e736f6c652e6c6f67602083016000808483855afa5050505050565b60008060006119598585611c75565b90925090506000816004811115611972576119726125c3565b1480156119905750856001600160a01b0316826001600160a01b0316145b156119a057600192505050611699565b600080876001600160a01b0316631626ba7e60e01b88886040516024016119c89291906125d9565b60408051601f198184030181529181526020820180516001600160e01b03166001600160e01b0319909416939093179092529051611a0691906125fa565b600060405180830381855afa9150503d8060008114611a41576040519150601f19603f3d011682016040523d82523d6000602084013e611a46565b606091505b5091509150818015611a59575080516020145b801561144757508051630b135d3f60e11b90611a7e90830160209081019084016124e0565b1498975050505050505050565b60006103fe611a98611ce5565b8360405161190160f01b6020820152602281018390526042810182905260009060620160405160208183030381529060405280519060200120905092915050565b600054610100900460ff16611b005760405162461bcd60e51b81526004016104e090612578565b610b3b336112cc565b600054610100900460ff16611b305760405162461bcd60e51b81526004016104e090612578565b81516020928301208151919092012060fb9190915560fc55565b611b5381611862565b6040516001600160a01b038216907fbc7cd75a20ee27fd9adebab32041f755214dbc6bffa90cc0225b39da2e5c2d3b90600090a250565b60606001600160a01b0383163b611bf25760405162461bcd60e51b815260206004820152602660248201527f416464726573733a2064656c65676174652063616c6c20746f206e6f6e2d636f6044820152651b9d1c9858dd60d21b60648201526084016104e0565b600080846001600160a01b031684604051611c0d91906125fa565b600060405180830381855af49150503d8060008114611c48576040519150601f19603f3d011682016040523d82523d6000602084013e611c4d565b606091505b5091509150610c60828260405180606001604052806027815260200161263760279139611d65565b600080825160411415611cac5760208301516040840151606085015160001a611ca087828585611d7e565b94509450505050611cde565b825160401415611cd65760208301516040840151611ccb868383611e6b565b935093505050611cde565b506000905060025b9250929050565b6000611d607f8b73c3c69bb8fe3d512ecc4cf759cc79239f7b179b0ffacaa9a75d522b39400f611d1460fb5490565b60fc546040805160208101859052908101839052606081018290524660808201523060a082015260009060c0016040516020818303038152906040528051906020012090509392505050565b905090565b60608315611d74575081611699565b6116998383611ea4565b6000807f7fffffffffffffffffffffffffffffff5d576e7357a4501ddfe92f46681b20a0831115611db55750600090506003611e62565b8460ff16601b14158015611dcd57508460ff16601c14155b15611dde5750600090506004611e62565b6040805160008082526020820180845289905260ff881692820192909252606081018690526080810185905260019060a0016020604051602081039080840390855afa158015611e32573d6000803e3d6000fd5b5050604051601f1901519150506001600160a01b038116611e5b57600060019250925050611e62565b9150600090505b94509492505050565b6000806001600160ff1b03831681611e8860ff86901c601b612539565b9050611e9687828885611d7e565b935093505050935093915050565b815115611eb45781518083602001fd5b8060405162461bcd60e51b81526004016104e0919061201f565b828054611eda906123ac565b90600052602060002090601f016020900481019282611efc5760008555611f42565b82601f10611f1557805160ff1916838001178555611f42565b82800160010185558215611f42579182015b82811115611f42578251825591602001919060010190611f27565b50611f4e929150611f88565b5090565b508054611f5e906123ac565b6000825580601f10611f6e575050565b601f01602090049060005260206000209081019061057d91905b5b80821115611f4e5760008155600101611f89565b600060208284031215611faf57600080fd5b81356001600160e01b03198116811461169957600080fd5b60005b83811015611fe2578181015183820152602001611fca565b838111156119235750506000910152565b6000815180845261200b816020860160208601611fc7565b601f01601f19169290920160200192915050565b6020815260006116996020830184611ff3565b6001600160a01b038116811461057d57600080fd5b60006020828403121561205957600080fd5b813561169981612032565b634e487b7160e01b600052604160045260246000fd5b600067ffffffffffffffff8084111561209557612095612064565b604051601f8501601f19908116603f011681019082821181831017156120bd576120bd612064565b816040528093508581528686860111156120d657600080fd5b858560208301376000602087830101525050509392505050565b600082601f83011261210157600080fd5b6116998383356020850161207a565b6000806040838503121561212357600080fd5b823567ffffffffffffffff81111561213a57600080fd5b612146858286016120f0565b95602094909401359450505050565b6000806040838503121561216857600080fd5b823561217381612032565b9150602083013567ffffffffffffffff81111561218f57600080fd5b8301601f810185136121a057600080fd5b6121af8582356020840161207a565b9150509250929050565b6000602082840312156121cb57600080fd5b5035919050565b60008083601f8401126121e457600080fd5b50813567ffffffffffffffff8111156121fc57600080fd5b602083019150836020828501011115611cde57600080fd5b60008060008060006060868803121561222c57600080fd5b853561223781612032565b9450602086013567ffffffffffffffff8082111561225457600080fd5b61226089838a016121d2565b9096509450604088013591508082111561227957600080fd5b50612286888289016121d2565b969995985093965092949392505050565b600080600080606085870312156122ad57600080fd5b84356122b881612032565b935060208501356122c881612032565b9250604085013567ffffffffffffffff8111156122e457600080fd5b6122f0878288016121d2565b95989497509550505050565b600080600080600060a0868803121561231457600080fd5b853567ffffffffffffffff8082111561232c57600080fd5b61233889838a016120f0565b9650602088013591508082111561234e57600080fd5b61235a89838a016120f0565b9550604088013591508082111561237057600080fd5b5061237d888289016120f0565b935050606086013561238e81612032565b9150608086013561239e81612032565b809150509295509295909350565b600181811c908216806123c057607f821691505b602082108114156123e157634e487b7160e01b600052602260045260246000fd5b50919050565b6020808252602c908201527f46756e6374696f6e206d7573742062652063616c6c6564207468726f7567682060408201526b19195b1959d85d1958d85b1b60a21b606082015260800190565b6020808252602c908201527f46756e6374696f6e206d7573742062652063616c6c6564207468726f7567682060408201526b6163746976652070726f787960a01b606082015260800190565b60006020828403121561249157600080fd5b815161169981612032565b6000602082840312156124ae57600080fd5b8151801515811461169957600080fd5b6040815260006124d16040830185611ff3565b90508260208301529392505050565b6000602082840312156124f257600080fd5b5051919050565b60408152600061250c6040830185611ff3565b905060018060a01b03831660208301529392505050565b634e487b7160e01b600052601160045260246000fd5b6000821982111561254c5761254c612523565b500190565b8183823760009101908152919050565b60008282101561257357612573612523565b500390565b6020808252602b908201527f496e697469616c697a61626c653a20636f6e7472616374206973206e6f74206960408201526a6e697469616c697a696e6760a81b606082015260800190565b634e487b7160e01b600052602160045260246000fd5b8281526040602082015260006125f26040830184611ff3565b949350505050565b6000825161260c818460208701611fc7565b919091019291505056fe360894a13ba1a3210667c828492db98dca3e2076cc3735a920a3ca505d382bbc416464726573733a206c6f772d6c6576656c2064656c65676174652063616c6c206661696c6564a26469706673582212205695d59835e810a166291fd7391bf73b357d001fe73eda619efdc7e75a5fae0364736f6c63430008090033",
    "linkReferences": {}
  },
  "methodIdentifiers": {
    "balanceOf(address)": "70a08231",
    "createSpecAsRaftOwner(string,uint256)": "4249d86e",
    "getDataHolderAddress()": "635ad993",
    "getHash(address,address,string)": "c5cf33c2",
    "give(address,string,bytes)": "ec64948e",
    "initialize(string,string,string,address,address)": "d6d0faee",
    "name()": "06fdde03",
    "owner()": "8da5cb5b",
    "ownerOf(uint256)": "6352211e",
    "proxiableUUID()": "52d1902d",
    "renounceOwnership()": "715018a6",
    "setDataHolder(address)": "c0184112",
    "supportsInterface(bytes4)": "01ffc9a7",
    "symbol()": "95d89b41",
    "take(address,string,bytes)": "a3947803",
    "tokenURI(uint256)": "c87b56dd",
    "transferOwnership(address)": "f2fde38b",
    "unequip(uint256)": "d179e3d0",
    "upgradeTo(address)": "3659cfe6",
    "upgradeToAndCall(address,bytes)": "4f1ef286"
  },
  "id": 35
}