{
  "abi": [
    {
      "inputs": [],
      "stateMutability": "nonpayable",
      "type": "constructor"
    },
    {
      "anonymous": false,
      "inputs": [
        {
          "indexed": false,
          "internalType": "address",
          "name": "previousAdmin",
          "type": "address"
        },
        {
          "indexed": false,
          "internalType": "address",
          "name": "newAdmin",
          "type": "address"
        }
      ],
      "name": "AdminChanged",
      "type": "event"
    },
    {
      "anonymous": false,
      "inputs": [
        {
          "indexed": true,
          "internalType": "address",
          "name": "beacon",
          "type": "address"
        }
      ],
      "name": "BeaconUpgraded",
      "type": "event"
    },
    {
      "anonymous": false,
      "inputs": [
        {
          "indexed": false,
          "internalType": "uint8",
          "name": "version",
          "type": "uint8"
        }
      ],
      "name": "Initialized",
      "type": "event"
    },
    {
      "anonymous": false,
      "inputs": [
        {
          "indexed": true,
          "internalType": "address",
          "name": "previousOwner",
          "type": "address"
        },
        {
          "indexed": true,
          "internalType": "address",
          "name": "newOwner",
          "type": "address"
        }
      ],
      "name": "OwnershipTransferred",
      "type": "event"
    },
    {
      "anonymous": false,
      "inputs": [
        {
          "indexed": true,
          "internalType": "address",
          "name": "to",
          "type": "address"
        },
        {
          "indexed": false,
          "internalType": "string",
          "name": "specUri",
          "type": "string"
        },
        {
          "indexed": true,
          "internalType": "uint256",
          "name": "raftTokenId",
          "type": "uint256"
        },
        {
          "indexed": true,
          "internalType": "address",
          "name": "raftAddress",
          "type": "address"
        }
      ],
      "name": "SpecCreated",
      "type": "event"
    },
    {
      "anonymous": false,
      "inputs": [
        {
          "indexed": true,
          "internalType": "address",
          "name": "from",
          "type": "address"
        },
        {
          "indexed": true,
          "internalType": "address",
          "name": "to",
          "type": "address"
        },
        {
          "indexed": true,
          "internalType": "uint256",
          "name": "tokenId",
          "type": "uint256"
        }
      ],
      "name": "Transfer",
      "type": "event"
    },
    {
      "anonymous": false,
      "inputs": [
        {
          "indexed": true,
          "internalType": "address",
          "name": "implementation",
          "type": "address"
        }
      ],
      "name": "Upgraded",
      "type": "event"
    },
    {
      "inputs": [
        {
          "internalType": "address",
          "name": "owner_",
          "type": "address"
        }
      ],
      "name": "balanceOf",
      "outputs": [
        {
          "internalType": "uint256",
          "name": "",
          "type": "uint256"
        }
      ],
      "stateMutability": "view",
      "type": "function"
    },
    {
      "inputs": [
        {
          "internalType": "string",
          "name": "specUri",
          "type": "string"
        },
        {
          "internalType": "uint256",
          "name": "raftTokenId",
          "type": "uint256"
        }
      ],
      "name": "createSpec",
      "outputs": [],
      "stateMutability": "nonpayable",
      "type": "function"
    },
    {
      "inputs": [],
      "name": "getDataHolderAddress",
      "outputs": [
        {
          "internalType": "address",
          "name": "",
          "type": "address"
        }
      ],
      "stateMutability": "view",
      "type": "function"
    },
    {
      "inputs": [
        {
          "internalType": "address",
          "name": "from",
          "type": "address"
        },
        {
          "internalType": "address",
          "name": "to",
          "type": "address"
        },
        {
          "internalType": "string",
          "name": "tokenURI_",
          "type": "string"
        }
      ],
      "name": "getHash",
      "outputs": [
        {
          "internalType": "bytes32",
          "name": "",
          "type": "bytes32"
        }
      ],
      "stateMutability": "view",
      "type": "function"
    },
    {
      "inputs": [
        {
          "internalType": "address",
          "name": "to",
          "type": "address"
        },
        {
          "internalType": "string",
          "name": "uri",
          "type": "string"
        },
        {
          "internalType": "bytes",
          "name": "signature",
          "type": "bytes"
        }
      ],
      "name": "give",
      "outputs": [
        {
          "internalType": "uint256",
          "name": "",
          "type": "uint256"
        }
      ],
      "stateMutability": "nonpayable",
      "type": "function"
    },
    {
      "inputs": [
        {
          "internalType": "string",
          "name": "name_",
          "type": "string"
        },
        {
          "internalType": "string",
          "name": "symbol_",
          "type": "string"
        },
        {
          "internalType": "string",
          "name": "version_",
          "type": "string"
        },
        {
          "internalType": "address",
          "name": "nextOwner",
          "type": "address"
        },
        {
          "internalType": "address",
          "name": "specDataHolderAddress",
          "type": "address"
        }
      ],
      "name": "initialize",
      "outputs": [],
      "stateMutability": "nonpayable",
      "type": "function"
    },
    {
      "inputs": [],
      "name": "name",
      "outputs": [
        {
          "internalType": "string",
          "name": "",
          "type": "string"
        }
      ],
      "stateMutability": "view",
      "type": "function"
    },
    {
      "inputs": [],
      "name": "owner",
      "outputs": [
        {
          "internalType": "address",
          "name": "",
          "type": "address"
        }
      ],
      "stateMutability": "view",
      "type": "function"
    },
    {
      "inputs": [
        {
          "internalType": "uint256",
          "name": "tokenId_",
          "type": "uint256"
        }
      ],
      "name": "ownerOf",
      "outputs": [
        {
          "internalType": "address",
          "name": "",
          "type": "address"
        }
      ],
      "stateMutability": "view",
      "type": "function"
    },
    {
      "inputs": [],
      "name": "proxiableUUID",
      "outputs": [
        {
          "internalType": "bytes32",
          "name": "",
          "type": "bytes32"
        }
      ],
      "stateMutability": "view",
      "type": "function"
    },
    {
      "inputs": [],
      "name": "renounceOwnership",
      "outputs": [],
      "stateMutability": "nonpayable",
      "type": "function"
    },
    {
      "inputs": [
        {
          "internalType": "address",
          "name": "_dataHolder",
          "type": "address"
        }
      ],
      "name": "setDataHolder",
      "outputs": [],
      "stateMutability": "nonpayable",
      "type": "function"
    },
    {
      "inputs": [
        {
          "internalType": "bytes4",
          "name": "interfaceId",
          "type": "bytes4"
        }
      ],
      "name": "supportsInterface",
      "outputs": [
        {
          "internalType": "bool",
          "name": "",
          "type": "bool"
        }
      ],
      "stateMutability": "view",
      "type": "function"
    },
    {
      "inputs": [],
      "name": "symbol",
      "outputs": [
        {
          "internalType": "string",
          "name": "",
          "type": "string"
        }
      ],
      "stateMutability": "view",
      "type": "function"
    },
    {
      "inputs": [
        {
          "internalType": "address",
          "name": "from",
          "type": "address"
        },
        {
          "internalType": "string",
          "name": "uri",
          "type": "string"
        },
        {
          "internalType": "bytes",
          "name": "signature",
          "type": "bytes"
        }
      ],
      "name": "take",
      "outputs": [
        {
          "internalType": "uint256",
          "name": "",
          "type": "uint256"
        }
      ],
      "stateMutability": "nonpayable",
      "type": "function"
    },
    {
      "inputs": [
        {
          "internalType": "uint256",
          "name": "tokenId",
          "type": "uint256"
        }
      ],
      "name": "tokenURI",
      "outputs": [
        {
          "internalType": "string",
          "name": "",
          "type": "string"
        }
      ],
      "stateMutability": "view",
      "type": "function"
    },
    {
      "inputs": [
        {
          "internalType": "address",
          "name": "newOwner",
          "type": "address"
        }
      ],
      "name": "transferOwnership",
      "outputs": [],
      "stateMutability": "nonpayable",
      "type": "function"
    },
    {
      "inputs": [
        {
          "internalType": "uint256",
          "name": "tokenId",
          "type": "uint256"
        }
      ],
      "name": "unequip",
      "outputs": [],
      "stateMutability": "nonpayable",
      "type": "function"
    },
    {
      "inputs": [
        {
          "internalType": "address",
          "name": "newImplementation",
          "type": "address"
        }
      ],
      "name": "upgradeTo",
      "outputs": [],
      "stateMutability": "nonpayable",
      "type": "function"
    },
    {
      "inputs": [
        {
          "internalType": "address",
          "name": "newImplementation",
          "type": "address"
        },
        {
          "internalType": "bytes",
          "name": "data",
          "type": "bytes"
        }
      ],
      "name": "upgradeToAndCall",
      "outputs": [],
      "stateMutability": "payable",
      "type": "function"
    }
  ],
  "bytecode": {
    "object": "0x60a0604052306080523480156200001557600080fd5b506200002062000026565b620000e8565b600054610100900460ff1615620000935760405162461bcd60e51b815260206004820152602760248201527f496e697469616c697a61626c653a20636f6e747261637420697320696e697469604482015266616c697a696e6760c81b606482015260840160405180910390fd5b60005460ff9081161015620000e6576000805460ff191660ff9081179091556040519081527f7f26b83ff96e1f2b6a682f133852f6798a09c465da95921460cefb38474024989060200160405180910390a15b565b6080516125d062000120600039600081816104a1015281816104ea0152818161084a0152818161088a015261091d01526125d06000f3fe60806040526004361061011f5760003560e01c80638da5cb5b116100a0578063c87b56dd11610064578063c87b56dd14610312578063d179e3d014610332578063d6d0faee14610352578063ec64948e14610372578063f2fde38b1461039257600080fd5b80638da5cb5b1461027f57806395d89b411461029d578063a3947803146102b2578063c0184112146102d2578063c5cf33c2146102f257600080fd5b806352d1902d116100e757806352d1902d146101d05780636352211e146101f3578063635ad9931461022b57806370a082311461024a578063715018a61461026a57600080fd5b806301ffc9a71461012457806306fdde03146101595780633659cfe61461017b578063445a62b91461019d5780634f1ef286146101bd575b600080fd5b34801561013057600080fd5b5061014461013f366004611e10565b6103b2565b60405190151581526020015b60405180910390f35b34801561016557600080fd5b5061016e610404565b6040516101509190611e8a565b34801561018757600080fd5b5061019b610196366004611eb2565b610497565b005b3480156101a957600080fd5b5061019b6101b8366004611f7b565b61057f565b61019b6101cb366004611fc0565b610840565b3480156101dc57600080fd5b506101e5610910565b604051908152602001610150565b3480156101ff57600080fd5b5061021361020e366004612024565b6109c3565b6040516001600160a01b039091168152602001610150565b34801561023757600080fd5b50610135546001600160a01b0316610213565b34801561025657600080fd5b506101e5610265366004611eb2565b610a29565b34801561027657600080fd5b5061019b610ab4565b34801561028b57600080fd5b5060c9546001600160a01b0316610213565b3480156102a957600080fd5b5061016e610ac8565b3480156102be57600080fd5b506101e56102cd36600461207f565b610ad8565b3480156102de57600080fd5b5061019b6102ed366004611eb2565b610bb1565b3480156102fe57600080fd5b506101e561030d366004612102565b610bdc565b34801561031e57600080fd5b5061016e61032d366004612024565b610bf3565b34801561033e57600080fd5b5061019b61034d366004612024565b610cfa565b34801561035e57600080fd5b5061019b61036d366004612167565b610d8d565b34801561037e57600080fd5b506101e561038d36600461207f565b610efe565b34801561039e57600080fd5b5061019b6103ad366004611eb2565b610fab565b60006001600160e01b03198216635b5e139f60e01b14806103e357506001600160e01b031982166346bdd63960e11b145b806103fe57506301ffc9a760e01b6001600160e01b03198316145b92915050565b6060610130805461041490612217565b80601f016020809104026020016040519081016040528092919081815260200182805461044090612217565b801561048d5780601f106104625761010080835404028352916020019161048d565b820191906000526020600020905b81548152906001019060200180831161047057829003601f168201915b5050505050905090565b6001600160a01b037f00000000000000000000000000000000000000000000000000000000000000001630036104e85760405162461bcd60e51b81526004016104df90612251565b60405180910390fd5b7f00000000000000000000000000000000000000000000000000000000000000006001600160a01b0316610531600080516020612554833981519152546001600160a01b031690565b6001600160a01b0316146105575760405162461bcd60e51b81526004016104df9061229d565b61056081611021565b6040805160008082526020820190925261057c91839190611029565b50565b6101355460405163b2a0cb6b60e01b8152600481018390526000916001600160a01b03169063b2a0cb6b90602401602060405180830381865afa1580156105ca573d6000803e3d6000fd5b505050506040513d601f19601f820116820180604052508101906105ee91906122e9565b90506001600160a01b03811633146106485760405162461bcd60e51b815260206004820152601860248201527f637265617465537065633a20756e617574686f72697a6564000000000000000060448201526064016104df565b61013554604051631722f77360e31b81526001600160a01b039091169063b917bb9890610679908690600401611e8a565b602060405180830381865afa158015610696573d6000803e3d6000fd5b505050506040513d601f19601f820116820180604052508101906106ba9190612306565b156107135760405162461bcd60e51b815260206004820152602360248201527f637265617465537065633a207370656320616c726561647920726567697374656044820152621c995960ea1b60648201526084016104df565b6101355460405163addd190760e01b81526001600160a01b039091169063addd1907906107469086908690600401612328565b600060405180830381600087803b15801561076057600080fd5b505af1158015610774573d6000803e3d6000fd5b5050505061013560009054906101000a90046001600160a01b03166001600160a01b03166334f876626040518163ffffffff1660e01b8152600401602060405180830381865afa1580156107cc573d6000803e3d6000fd5b505050506040513d601f19601f820116820180604052508101906107f091906122e9565b6001600160a01b031682336001600160a01b03167f68c7f8503283c455a4445b54a7d5c40656c8cae5cca0583c6d4be83698478700866040516108339190611e8a565b60405180910390a4505050565b6001600160a01b037f00000000000000000000000000000000000000000000000000000000000000001630036108885760405162461bcd60e51b81526004016104df90612251565b7f00000000000000000000000000000000000000000000000000000000000000006001600160a01b03166108d1600080516020612554833981519152546001600160a01b031690565b6001600160a01b0316146108f75760405162461bcd60e51b81526004016104df9061229d565b61090082611021565b61090c82826001611029565b5050565b6000306001600160a01b037f000000000000000000000000000000000000000000000000000000000000000016146109b05760405162461bcd60e51b815260206004820152603860248201527f555550535570677261646561626c653a206d757374206e6f742062652063616c60448201527f6c6564207468726f7567682064656c656761746563616c6c000000000000000060648201526084016104df565b5060008051602061255483398151915290565b600081815261013260205260408120546001600160a01b0316806103fe5760405162461bcd60e51b815260206004820152601c60248201527f6f776e65724f663a20746f6b656e20646f65736e27742065786973740000000060448201526064016104df565b60006001600160a01b038216610a975760405162461bcd60e51b815260206004820152602d60248201527f62616c616e63654f663a2061646472657373207a65726f206973206e6f74206160448201526c2076616c6964206f776e65725f60981b60648201526084016104df565b506001600160a01b03166000908152610134602052604090205490565b610abc611199565b610ac660006111f3565b565b6060610131805461041490612217565b60006001600160a01b0386163303610b325760405162461bcd60e51b815260206004820152601b60248201527f74616b653a2063616e6e6f742074616b652066726f6d2073656c66000000000060448201526064016104df565b6000610b42338888888888611245565b9050610b85338288888080601f01602080910402602001604051908101604052809392919081815260200183838082843760009201919091525061137a92505050565b50600881901c600090815261012f602052604090208054600160ff84161b1790555b9695505050505050565b610bb9611199565b61013580546001600160a01b0319166001600160a01b0392909216919091179055565b6000610bea858585856115b7565b95945050505050565b600081815261013260205260409020546060906001600160a01b0316610c5b5760405162461bcd60e51b815260206004820152601d60248201527f746f6b656e5552493a20746f6b656e20646f65736e277420657869737400000060448201526064016104df565b6000828152610133602052604090208054610c7590612217565b80601f0160208091040260200160405190810160405280929190818152602001828054610ca190612217565b8015610cee5780601f10610cc357610100808354040283529160200191610cee565b820191906000526020600020905b815481529060010190602001808311610cd157829003601f168201915b50505050509050919050565b610d03816109c3565b6001600160a01b0316336001600160a01b031614610d635760405162461bcd60e51b815260206004820152601d60248201527f756e65717569703a2073656e646572206d757374206265206f776e657200000060448201526064016104df565b600881901c600090815261012f602052604090208054600160ff84161b1916905561057c81611646565b600054610100900460ff1615808015610dad5750600054600160ff909116105b80610dc75750303b158015610dc7575060005460ff166001145b610e2a5760405162461bcd60e51b815260206004820152602e60248201527f496e697469616c697a61626c653a20636f6e747261637420697320616c72656160448201526d191e481a5b9a5d1a585b1a5e995960921b60648201526084016104df565b6000805460ff191660011790558015610e4d576000805461ff0019166101001790555b610130610e5a8782612390565b50610131610e688682612390565b50610e716116f2565b610e79611719565b610e838685611748565b610e8b6116f2565b610e9483610fab565b61013580546001600160a01b0319166001600160a01b0384161790558015610ef6576000805461ff0019169055604051600181527f7f26b83ff96e1f2b6a682f133852f6798a09c465da95921460cefb38474024989060200160405180910390a15b505050505050565b60006001600160a01b0386163303610f585760405162461bcd60e51b815260206004820152601b60248201527f676976653a2063616e6e6f7420676976652066726f6d2073656c66000000000060448201526064016104df565b6000610f68338888888888611245565b9050610b85878288888080601f01602080910402602001604051908101604052809392919081815260200183838082843760009201919091525061137a92505050565b610fb3611199565b6001600160a01b0381166110185760405162461bcd60e51b815260206004820152602660248201527f4f776e61626c653a206e6577206f776e657220697320746865207a65726f206160448201526564647265737360d01b60648201526084016104df565b61057c816111f3565b61057c611199565b7f4910fdfa16fed3260ed0e7147f7cc6da11a60208b5b9406d12a635614ffd91435460ff16156110615761105c83611779565b505050565b826001600160a01b03166352d1902d6040518163ffffffff1660e01b8152600401602060405180830381865afa9250505080156110bb575060408051601f3d908101601f191682019092526110b891810190612450565b60015b61111e5760405162461bcd60e51b815260206004820152602e60248201527f45524331393637557067726164653a206e657720696d706c656d656e7461746960448201526d6f6e206973206e6f74205555505360901b60648201526084016104df565b600080516020612554833981519152811461118d5760405162461bcd60e51b815260206004820152602960248201527f45524331393637557067726164653a20756e737570706f727465642070726f786044820152681a58589b195555525160ba1b60648201526084016104df565b5061105c838383611815565b60c9546001600160a01b03163314610ac65760405162461bcd60e51b815260206004820181905260248201527f4f776e61626c653a2063616c6c6572206973206e6f7420746865206f776e657260448201526064016104df565b60c980546001600160a01b038381166001600160a01b0319831681179093556040519116919082907f8be0079c531659141344cd1fd0a4f28419497f9722a3daafe3b4186f6b6457e090600090a35050565b600080611254888888886115b7565b905060008160001c905061129f888387878080601f01602080910402602001604051908101604052809392919081815260200183838082843760009201919091525061184092505050565b6112fa5760405162461bcd60e51b815260206004820152602660248201527f5f73616665436865636b41677265656d656e743a20696e76616c6964207369676044820152656e617475726560d01b60648201526084016104df565b600881901c600090815261012f6020526040902054600160ff83161b161561136e5760405162461bcd60e51b815260206004820152602160248201527f5f73616665436865636b41677265656d656e743a20616c7265616479207573656044820152601960fa1b60648201526084016104df565b98975050505050505050565b61013554604051633664a8e960e01b815260009182916001600160a01b0390911690633664a8e9906113b0908690600401611e8a565b602060405180830381865afa1580156113cd573d6000803e3d6000fd5b505050506040513d601f19601f820116820180604052508101906113f19190612450565b9050806000036114435760405162461bcd60e51b815260206004820152601d60248201527f5f6d696e743a2073706563206973206e6f74207265676973746572656400000060448201526064016104df565b600084815261013260205260409020546001600160a01b0316156114a05760405162461bcd60e51b81526020600482015260146024820152736d696e743a20746f6b656e49442065786973747360601b60448201526064016104df565b6001600160a01b0385166000908152610134602052604081208054600192906114ca90849061247f565b909155505060008481526101326020908152604080832080546001600160a01b0319166001600160a01b038a16179055610133909152902061150c8482612390565b5060405184906001600160a01b038716906000907fddf252ad1be2c89b69c2b068fc378daa952ba7f163c4a11628f55a4df523b3ef908290a46101355460405163fb74926160e01b815260048101869052602481018390526001600160a01b039091169063fb74926190604401600060405180830381600087803b15801561159357600080fd5b505af11580156115a7573d6000803e3d6000fd5b50505050839150505b9392505050565b6000807fe76a195fbe43f0eaa611595069f780493db2202a1cc4b2d7d44b47069812998a868686866040516115ed929190612492565b604051908190038120611625949392916020019384526001600160a01b03928316602085015291166040830152606082015260800190565b604051602081830303815290604052805190602001209050610ba781611981565b6000611651826109c3565b6001600160a01b03811660009081526101346020526040812080549293506001929091906116809084906124a2565b909155505060008281526101326020908152604080832080546001600160a01b031916905561013390915281206116b691611dc2565b60405182906000906001600160a01b038416907fddf252ad1be2c89b69c2b068fc378daa952ba7f163c4a11628f55a4df523b3ef908390a45050565b600054610100900460ff16610ac65760405162461bcd60e51b81526004016104df906124b5565b600054610100900460ff166117405760405162461bcd60e51b81526004016104df906124b5565b610ac66119cf565b600054610100900460ff1661176f5760405162461bcd60e51b81526004016104df906124b5565b61090c82826119ff565b6001600160a01b0381163b6117e65760405162461bcd60e51b815260206004820152602d60248201527f455243313936373a206e657720696d706c656d656e746174696f6e206973206e60448201526c1bdd08184818dbdb9d1c9858dd609a1b60648201526084016104df565b60008051602061255483398151915280546001600160a01b0319166001600160a01b0392909216919091179055565b61181e83611a40565b60008251118061182b5750805b1561105c5761183a8383611a80565b50505050565b600080600061184f8585611b6b565b9092509050600081600481111561186857611868612500565b1480156118865750856001600160a01b0316826001600160a01b0316145b15611896576001925050506115b0565b600080876001600160a01b0316631626ba7e60e01b88886040516024016118be929190612516565b60408051601f198184030181529181526020820180516001600160e01b03166001600160e01b03199094169390931790925290516118fc9190612537565b600060405180830381855afa9150503d8060008114611937576040519150601f19603f3d011682016040523d82523d6000602084013e61193c565b606091505b509150915081801561194f575080516020145b801561136e57508051630b135d3f60e11b906119749083016020908101908401612450565b1498975050505050505050565b60006103fe61198e611bd9565b8360405161190160f01b6020820152602281018390526042810182905260009060620160405160208183030381529060405280519060200120905092915050565b600054610100900460ff166119f65760405162461bcd60e51b81526004016104df906124b5565b610ac6336111f3565b600054610100900460ff16611a265760405162461bcd60e51b81526004016104df906124b5565b81516020928301208151919092012060fb9190915560fc55565b611a4981611779565b6040516001600160a01b038216907fbc7cd75a20ee27fd9adebab32041f755214dbc6bffa90cc0225b39da2e5c2d3b90600090a250565b60606001600160a01b0383163b611ae85760405162461bcd60e51b815260206004820152602660248201527f416464726573733a2064656c65676174652063616c6c20746f206e6f6e2d636f6044820152651b9d1c9858dd60d21b60648201526084016104df565b600080846001600160a01b031684604051611b039190612537565b600060405180830381855af49150503d8060008114611b3e576040519150601f19603f3d011682016040523d82523d6000602084013e611b43565b606091505b5091509150610bea828260405180606001604052806027815260200161257460279139611c59565b6000808251604103611ba15760208301516040840151606085015160001a611b9587828585611c72565b94509450505050611bd2565b8251604003611bca5760208301516040840151611bbf868383611d5f565b935093505050611bd2565b506000905060025b9250929050565b6000611c547f8b73c3c69bb8fe3d512ecc4cf759cc79239f7b179b0ffacaa9a75d522b39400f611c0860fb5490565b60fc546040805160208101859052908101839052606081018290524660808201523060a082015260009060c0016040516020818303038152906040528051906020012090509392505050565b905090565b60608315611c685750816115b0565b6115b08383611d98565b6000807f7fffffffffffffffffffffffffffffff5d576e7357a4501ddfe92f46681b20a0831115611ca95750600090506003611d56565b8460ff16601b14158015611cc157508460ff16601c14155b15611cd25750600090506004611d56565b6040805160008082526020820180845289905260ff881692820192909252606081018690526080810185905260019060a0016020604051602081039080840390855afa158015611d26573d6000803e3d6000fd5b5050604051601f1901519150506001600160a01b038116611d4f57600060019250925050611d56565b9150600090505b94509492505050565b6000806001600160ff1b03831681611d7c60ff86901c601b61247f565b9050611d8a87828885611c72565b935093505050935093915050565b815115611da85781518083602001fd5b8060405162461bcd60e51b81526004016104df9190611e8a565b508054611dce90612217565b6000825580601f10611dde575050565b601f01602090049060005260206000209081019061057c91905b80821115611e0c5760008155600101611df8565b5090565b600060208284031215611e2257600080fd5b81356001600160e01b0319811681146115b057600080fd5b60005b83811015611e55578181015183820152602001611e3d565b50506000910152565b60008151808452611e76816020860160208601611e3a565b601f01601f19169290920160200192915050565b6020815260006115b06020830184611e5e565b6001600160a01b038116811461057c57600080fd5b600060208284031215611ec457600080fd5b81356115b081611e9d565b634e487b7160e01b600052604160045260246000fd5b600067ffffffffffffffff80841115611f0057611f00611ecf565b604051601f8501601f19908116603f01168101908282118183101715611f2857611f28611ecf565b81604052809350858152868686011115611f4157600080fd5b858560208301376000602087830101525050509392505050565b600082601f830112611f6c57600080fd5b6115b083833560208501611ee5565b60008060408385031215611f8e57600080fd5b823567ffffffffffffffff811115611fa557600080fd5b611fb185828601611f5b565b95602094909401359450505050565b60008060408385031215611fd357600080fd5b8235611fde81611e9d565b9150602083013567ffffffffffffffff811115611ffa57600080fd5b8301601f8101851361200b57600080fd5b61201a85823560208401611ee5565b9150509250929050565b60006020828403121561203657600080fd5b5035919050565b60008083601f84011261204f57600080fd5b50813567ffffffffffffffff81111561206757600080fd5b602083019150836020828501011115611bd257600080fd5b60008060008060006060868803121561209757600080fd5b85356120a281611e9d565b9450602086013567ffffffffffffffff808211156120bf57600080fd5b6120cb89838a0161203d565b909650945060408801359150808211156120e457600080fd5b506120f18882890161203d565b969995985093965092949392505050565b6000806000806060858703121561211857600080fd5b843561212381611e9d565b9350602085013561213381611e9d565b9250604085013567ffffffffffffffff81111561214f57600080fd5b61215b8782880161203d565b95989497509550505050565b600080600080600060a0868803121561217f57600080fd5b853567ffffffffffffffff8082111561219757600080fd5b6121a389838a01611f5b565b965060208801359150808211156121b957600080fd5b6121c589838a01611f5b565b955060408801359150808211156121db57600080fd5b506121e888828901611f5b565b93505060608601356121f981611e9d565b9150608086013561220981611e9d565b809150509295509295909350565b600181811c9082168061222b57607f821691505b60208210810361224b57634e487b7160e01b600052602260045260246000fd5b50919050565b6020808252602c908201527f46756e6374696f6e206d7573742062652063616c6c6564207468726f7567682060408201526b19195b1959d85d1958d85b1b60a21b606082015260800190565b6020808252602c908201527f46756e6374696f6e206d7573742062652063616c6c6564207468726f7567682060408201526b6163746976652070726f787960a01b606082015260800190565b6000602082840312156122fb57600080fd5b81516115b081611e9d565b60006020828403121561231857600080fd5b815180151581146115b057600080fd5b60408152600061233b6040830185611e5e565b90508260208301529392505050565b601f82111561105c57600081815260208120601f850160051c810160208610156123715750805b601f850160051c820191505b81811015610ef65782815560010161237d565b815167ffffffffffffffff8111156123aa576123aa611ecf565b6123be816123b88454612217565b8461234a565b602080601f8311600181146123f357600084156123db5750858301515b600019600386901b1c1916600185901b178555610ef6565b600085815260208120601f198616915b8281101561242257888601518255948401946001909101908401612403565b50858210156124405787850151600019600388901b60f8161c191681555b5050505050600190811b01905550565b60006020828403121561246257600080fd5b5051919050565b634e487b7160e01b600052601160045260246000fd5b808201808211156103fe576103fe612469565b8183823760009101908152919050565b818103818111156103fe576103fe612469565b6020808252602b908201527f496e697469616c697a61626c653a20636f6e7472616374206973206e6f74206960408201526a6e697469616c697a696e6760a81b606082015260800190565b634e487b7160e01b600052602160045260246000fd5b82815260406020820152600061252f6040830184611e5e565b949350505050565b60008251612549818460208701611e3a565b919091019291505056fe360894a13ba1a3210667c828492db98dca3e2076cc3735a920a3ca505d382bbc416464726573733a206c6f772d6c6576656c2064656c65676174652063616c6c206661696c6564a264697066735822122077951c80121d6552ff872742b1e934606a616d4f6c0ca068643d29f04fc9759664736f6c63430008100033",
    "linkReferences": {}
  },
  "methodIdentifiers": {
    "balanceOf(address)": "70a08231",
    "createSpec(string,uint256)": "445a62b9",
    "getDataHolderAddress()": "635ad993",
    "getHash(address,address,string)": "c5cf33c2",
    "give(address,string,bytes)": "ec64948e",
    "initialize(string,string,string,address,address)": "d6d0faee",
    "name()": "06fdde03",
    "owner()": "8da5cb5b",
    "ownerOf(uint256)": "6352211e",
    "proxiableUUID()": "52d1902d",
    "renounceOwnership()": "715018a6",
    "setDataHolder(address)": "c0184112",
    "supportsInterface(bytes4)": "01ffc9a7",
    "symbol()": "95d89b41",
    "take(address,string,bytes)": "a3947803",
    "tokenURI(uint256)": "c87b56dd",
    "transferOwnership(address)": "f2fde38b",
    "unequip(uint256)": "d179e3d0",
    "upgradeTo(address)": "3659cfe6",
    "upgradeToAndCall(address,bytes)": "4f1ef286"
  },
  "id": 43
}