{
  "abi": [
    {
      "inputs": [],
      "stateMutability": "nonpayable",
      "type": "constructor"
    },
    {
      "anonymous": false,
      "inputs": [
        {
          "indexed": false,
          "internalType": "address",
          "name": "previousAdmin",
          "type": "address"
        },
        {
          "indexed": false,
          "internalType": "address",
          "name": "newAdmin",
          "type": "address"
        }
      ],
      "name": "AdminChanged",
      "type": "event"
    },
    {
      "anonymous": false,
      "inputs": [
        {
          "indexed": true,
          "internalType": "address",
          "name": "beacon",
          "type": "address"
        }
      ],
      "name": "BeaconUpgraded",
      "type": "event"
    },
    {
      "anonymous": false,
      "inputs": [
        {
          "indexed": false,
          "internalType": "uint8",
          "name": "version",
          "type": "uint8"
        }
      ],
      "name": "Initialized",
      "type": "event"
    },
    {
      "anonymous": false,
      "inputs": [
        {
          "indexed": true,
          "internalType": "address",
          "name": "previousOwner",
          "type": "address"
        },
        {
          "indexed": true,
          "internalType": "address",
          "name": "newOwner",
          "type": "address"
        }
      ],
      "name": "OwnershipTransferred",
      "type": "event"
    },
    {
      "anonymous": false,
      "inputs": [
        {
          "indexed": true,
          "internalType": "address",
          "name": "to",
          "type": "address"
        },
        {
          "indexed": false,
          "internalType": "string",
          "name": "specUri",
          "type": "string"
        },
        {
          "indexed": true,
          "internalType": "uint256",
          "name": "raftTokenId",
          "type": "uint256"
        },
        {
          "indexed": true,
          "internalType": "address",
          "name": "raftAddress",
          "type": "address"
        }
      ],
      "name": "SpecCreated",
      "type": "event"
    },
    {
      "anonymous": false,
      "inputs": [
        {
          "indexed": true,
          "internalType": "address",
          "name": "from",
          "type": "address"
        },
        {
          "indexed": true,
          "internalType": "address",
          "name": "to",
          "type": "address"
        },
        {
          "indexed": true,
          "internalType": "uint256",
          "name": "tokenId",
          "type": "uint256"
        }
      ],
      "name": "Transfer",
      "type": "event"
    },
    {
      "anonymous": false,
      "inputs": [
        {
          "indexed": true,
          "internalType": "address",
          "name": "implementation",
          "type": "address"
        }
      ],
      "name": "Upgraded",
      "type": "event"
    },
    {
      "inputs": [
        {
          "internalType": "address",
          "name": "_owner",
          "type": "address"
        }
      ],
      "name": "balanceOf",
      "outputs": [
        {
          "internalType": "uint256",
          "name": "",
          "type": "uint256"
        }
      ],
      "stateMutability": "view",
      "type": "function"
    },
    {
      "inputs": [
        {
          "internalType": "string",
          "name": "_specUri",
          "type": "string"
        },
        {
          "internalType": "uint256",
          "name": "_raftTokenId",
          "type": "uint256"
        }
      ],
      "name": "createSpec",
      "outputs": [],
      "stateMutability": "nonpayable",
      "type": "function"
    },
    {
      "inputs": [
        {
          "internalType": "address",
          "name": "_from",
          "type": "address"
        },
        {
          "internalType": "address",
          "name": "_to",
          "type": "address"
        },
        {
          "internalType": "string",
          "name": "_uri",
          "type": "string"
        }
      ],
      "name": "getAgreementHash",
      "outputs": [
        {
          "internalType": "bytes32",
          "name": "",
          "type": "bytes32"
        }
      ],
      "stateMutability": "view",
      "type": "function"
    },
    {
      "inputs": [
        {
          "internalType": "address",
          "name": "_to",
          "type": "address"
        },
        {
          "internalType": "string",
          "name": "_uri",
          "type": "string"
        }
      ],
      "name": "getBadgeIdHash",
      "outputs": [
        {
          "internalType": "bytes32",
          "name": "",
          "type": "bytes32"
        }
      ],
      "stateMutability": "view",
      "type": "function"
    },
    {
      "inputs": [],
      "name": "getDataHolderAddress",
      "outputs": [
        {
          "internalType": "address",
          "name": "",
          "type": "address"
        }
      ],
      "stateMutability": "view",
      "type": "function"
    },
    {
      "inputs": [
        {
          "internalType": "address",
          "name": "_to",
          "type": "address"
        },
        {
          "internalType": "string",
          "name": "_uri",
          "type": "string"
        },
        {
          "internalType": "bytes",
          "name": "_signature",
          "type": "bytes"
        }
      ],
      "name": "give",
      "outputs": [
        {
          "internalType": "uint256",
          "name": "",
          "type": "uint256"
        }
      ],
      "stateMutability": "nonpayable",
      "type": "function"
    },
    {
      "inputs": [
        {
          "internalType": "string",
          "name": "_name",
          "type": "string"
        },
        {
          "internalType": "string",
          "name": "_symbol",
          "type": "string"
        },
        {
          "internalType": "string",
          "name": "_version",
          "type": "string"
        },
        {
          "internalType": "address",
          "name": "_nextOwner",
          "type": "address"
        },
        {
          "internalType": "address",
          "name": "_specDataHolderAddress",
          "type": "address"
        }
      ],
      "name": "initialize",
      "outputs": [],
      "stateMutability": "nonpayable",
      "type": "function"
    },
    {
      "inputs": [],
      "name": "name",
      "outputs": [
        {
          "internalType": "string",
          "name": "",
          "type": "string"
        }
      ],
      "stateMutability": "view",
      "type": "function"
    },
    {
      "inputs": [],
      "name": "owner",
      "outputs": [
        {
          "internalType": "address",
          "name": "",
          "type": "address"
        }
      ],
      "stateMutability": "view",
      "type": "function"
    },
    {
      "inputs": [
        {
          "internalType": "uint256",
          "name": "_tokenId",
          "type": "uint256"
        }
      ],
      "name": "ownerOf",
      "outputs": [
        {
          "internalType": "address",
          "name": "",
          "type": "address"
        }
      ],
      "stateMutability": "view",
      "type": "function"
    },
    {
      "inputs": [],
      "name": "proxiableUUID",
      "outputs": [
        {
          "internalType": "bytes32",
          "name": "",
          "type": "bytes32"
        }
      ],
      "stateMutability": "view",
      "type": "function"
    },
    {
      "inputs": [],
      "name": "renounceOwnership",
      "outputs": [],
      "stateMutability": "nonpayable",
      "type": "function"
    },
    {
      "inputs": [
        {
          "internalType": "address",
          "name": "_dataHolder",
          "type": "address"
        }
      ],
      "name": "setDataHolder",
      "outputs": [],
      "stateMutability": "nonpayable",
      "type": "function"
    },
    {
      "inputs": [
        {
          "internalType": "bytes4",
          "name": "_interfaceId",
          "type": "bytes4"
        }
      ],
      "name": "supportsInterface",
      "outputs": [
        {
          "internalType": "bool",
          "name": "",
          "type": "bool"
        }
      ],
      "stateMutability": "view",
      "type": "function"
    },
    {
      "inputs": [],
      "name": "symbol",
      "outputs": [
        {
          "internalType": "string",
          "name": "",
          "type": "string"
        }
      ],
      "stateMutability": "view",
      "type": "function"
    },
    {
      "inputs": [
        {
          "internalType": "address",
          "name": "_from",
          "type": "address"
        },
        {
          "internalType": "string",
          "name": "_uri",
          "type": "string"
        },
        {
          "internalType": "bytes",
          "name": "_signature",
          "type": "bytes"
        }
      ],
      "name": "take",
      "outputs": [
        {
          "internalType": "uint256",
          "name": "",
          "type": "uint256"
        }
      ],
      "stateMutability": "nonpayable",
      "type": "function"
    },
    {
      "inputs": [
        {
          "internalType": "uint256",
          "name": "_tokenId",
          "type": "uint256"
        }
      ],
      "name": "tokenURI",
      "outputs": [
        {
          "internalType": "string",
          "name": "",
          "type": "string"
        }
      ],
      "stateMutability": "view",
      "type": "function"
    },
    {
      "inputs": [
        {
          "internalType": "address",
          "name": "newOwner",
          "type": "address"
        }
      ],
      "name": "transferOwnership",
      "outputs": [],
      "stateMutability": "nonpayable",
      "type": "function"
    },
    {
      "inputs": [
        {
          "internalType": "uint256",
          "name": "_tokenId",
          "type": "uint256"
        }
      ],
      "name": "unequip",
      "outputs": [],
      "stateMutability": "nonpayable",
      "type": "function"
    },
    {
      "inputs": [
        {
          "internalType": "address",
          "name": "newImplementation",
          "type": "address"
        }
      ],
      "name": "upgradeTo",
      "outputs": [],
      "stateMutability": "nonpayable",
      "type": "function"
    },
    {
      "inputs": [
        {
          "internalType": "address",
          "name": "newImplementation",
          "type": "address"
        },
        {
          "internalType": "bytes",
          "name": "data",
          "type": "bytes"
        }
      ],
      "name": "upgradeToAndCall",
      "outputs": [],
      "stateMutability": "payable",
      "type": "function"
    }
  ],
  "bytecode": {
    "object": "0x60a0604052306080523480156200001557600080fd5b506200002062000026565b620000e8565b600054610100900460ff1615620000935760405162461bcd60e51b815260206004820152602760248201527f496e697469616c697a61626c653a20636f6e747261637420697320696e697469604482015266616c697a696e6760c81b606482015260840160405180910390fd5b60005460ff9081161015620000e6576000805460ff191660ff9081179091556040519081527f7f26b83ff96e1f2b6a682f133852f6798a09c465da95921460cefb38474024989060200160405180910390a15b565b6080516126d062000120600039600081816104cc015281816105150152818161086f015281816108af015261094201526126d06000f3fe60806040526004361061012a5760003560e01c80638da5cb5b116100ab578063c87b56dd1161006f578063c87b56dd1461031d578063d179e3d01461033d578063d6d0faee1461035d578063e49925061461037d578063ec64948e1461039d578063f2fde38b146103bd57600080fd5b80638da5cb5b1461028a57806395d89b41146102a8578063a3947803146102bd578063a8cf8683146102dd578063c0184112146102fd57600080fd5b806352d1902d116100f257806352d1902d146101db5780636352211e146101fe578063635ad9931461023657806370a0823114610255578063715018a61461027557600080fd5b806301ffc9a71461012f57806306fdde03146101645780633659cfe614610186578063445a62b9146101a85780634f1ef286146101c8575b600080fd5b34801561013b57600080fd5b5061014f61014a366004611ea6565b6103dd565b60405190151581526020015b60405180910390f35b34801561017057600080fd5b5061017961042f565b60405161015b9190611f20565b34801561019257600080fd5b506101a66101a1366004611f48565b6104c2565b005b3480156101b457600080fd5b506101a66101c3366004612011565b6105aa565b6101a66101d6366004612056565b610865565b3480156101e757600080fd5b506101f0610935565b60405190815260200161015b565b34801561020a57600080fd5b5061021e6102193660046120ba565b6109e8565b6040516001600160a01b03909116815260200161015b565b34801561024257600080fd5b50610135546001600160a01b031661021e565b34801561026157600080fd5b506101f0610270366004611f48565b610a4e565b34801561028157600080fd5b506101a6610ad9565b34801561029657600080fd5b5060c9546001600160a01b031661021e565b3480156102b457600080fd5b50610179610aed565b3480156102c957600080fd5b506101f06102d8366004612115565b610afd565b3480156102e957600080fd5b506101f06102f8366004612198565b610bd4565b34801561030957600080fd5b506101a6610318366004611f48565b610c07565b34801561032957600080fd5b506101796103383660046120ba565b610c32565b34801561034957600080fd5b506101a66103583660046120ba565b610d39565b34801561036957600080fd5b506101a66103783660046121de565b610e2f565b34801561038957600080fd5b506101f061039836600461228e565b610fa0565b3480156103a957600080fd5b506101f06103b8366004612115565b61102f565b3480156103c957600080fd5b506101a66103d8366004611f48565b6110d9565b60006001600160e01b03198216635b5e139f60e01b148061040e57506001600160e01b031982166346bdd63960e11b145b8061042957506301ffc9a760e01b6001600160e01b03198316145b92915050565b6060610130805461043f906122f3565b80601f016020809104026020016040519081016040528092919081815260200182805461046b906122f3565b80156104b85780601f1061048d576101008083540402835291602001916104b8565b820191906000526020600020905b81548152906001019060200180831161049b57829003601f168201915b5050505050905090565b6001600160a01b037f00000000000000000000000000000000000000000000000000000000000000001630036105135760405162461bcd60e51b815260040161050a9061232d565b60405180910390fd5b7f00000000000000000000000000000000000000000000000000000000000000006001600160a01b031661055c600080516020612654833981519152546001600160a01b031690565b6001600160a01b0316146105825760405162461bcd60e51b815260040161050a90612379565b61058b8161114f565b604080516000808252602082019092526105a791839190611157565b50565b6101355460405163b2a0cb6b60e01b81526004810183905233916001600160a01b03169063b2a0cb6b90602401602060405180830381865afa1580156105f4573d6000803e3d6000fd5b505050506040513d601f19601f8201168201806040525081019061061891906123c5565b6001600160a01b03161461066e5760405162461bcd60e51b815260206004820152601860248201527f637265617465537065633a20756e617574686f72697a65640000000000000000604482015260640161050a565b61013554604051637e07102760e11b81526001600160a01b039091169063fc0e204e9061069f908590600401611f20565b602060405180830381865afa1580156106bc573d6000803e3d6000fd5b505050506040513d601f19601f820116820180604052508101906106e091906123e2565b156107395760405162461bcd60e51b815260206004820152602360248201527f637265617465537065633a207370656320616c726561647920726567697374656044820152621c995960ea1b606482015260840161050a565b6101355460405163addd190760e01b81526001600160a01b039091169063addd19079061076c9085908590600401612404565b600060405180830381600087803b15801561078657600080fd5b505af115801561079a573d6000803e3d6000fd5b5050505061013560009054906101000a90046001600160a01b03166001600160a01b03166334f876626040518163ffffffff1660e01b8152600401602060405180830381865afa1580156107f2573d6000803e3d6000fd5b505050506040513d601f19601f8201168201806040525081019061081691906123c5565b6001600160a01b031681336001600160a01b03167f68c7f8503283c455a4445b54a7d5c40656c8cae5cca0583c6d4be83698478700856040516108599190611f20565b60405180910390a45050565b6001600160a01b037f00000000000000000000000000000000000000000000000000000000000000001630036108ad5760405162461bcd60e51b815260040161050a9061232d565b7f00000000000000000000000000000000000000000000000000000000000000006001600160a01b03166108f6600080516020612654833981519152546001600160a01b031690565b6001600160a01b03161461091c5760405162461bcd60e51b815260040161050a90612379565b6109258261114f565b61093182826001611157565b5050565b6000306001600160a01b037f000000000000000000000000000000000000000000000000000000000000000016146109d55760405162461bcd60e51b815260206004820152603860248201527f555550535570677261646561626c653a206d757374206e6f742062652063616c60448201527f6c6564207468726f7567682064656c656761746563616c6c0000000000000000606482015260840161050a565b5060008051602061265483398151915290565b600081815261013260205260408120546001600160a01b0316806104295760405162461bcd60e51b815260206004820152601c60248201527f6f776e65724f663a20746f6b656e20646f65736e277420657869737400000000604482015260640161050a565b60006001600160a01b038216610abc5760405162461bcd60e51b815260206004820152602d60248201527f62616c616e63654f663a2061646472657373207a65726f206973206e6f74206160448201526c2076616c6964206f776e65725f60981b606482015260840161050a565b506001600160a01b03166000908152610134602052604090205490565b610ae16112c7565b610aeb6000611321565b565b6060610131805461043f906122f3565b60006001600160a01b0386163303610b575760405162461bcd60e51b815260206004820152601b60248201527f74616b653a2063616e6e6f742074616b652066726f6d2073656c660000000000604482015260640161050a565b610b65338787878787611373565b6000610ba73387878080601f01602080910402602001604051908101604052809392919081815260200183838082843760009201919091525061149a92505050565b600881901c600090815261012f602052604090208054600160ff84161b17905590505b9695505050505050565b60008282604051602001610be9929190612426565b60405160208183030381529060405280519060200120905092915050565b610c0f6112c7565b61013580546001600160a01b0319166001600160a01b0392909216919091179055565b600081815261013260205260409020546060906001600160a01b0316610c9a5760405162461bcd60e51b815260206004820152601d60248201527f746f6b656e5552493a20746f6b656e20646f65736e2774206578697374000000604482015260640161050a565b6000828152610133602052604090208054610cb4906122f3565b80601f0160208091040260200160405190810160405280929190818152602001828054610ce0906122f3565b8015610d2d5780601f10610d0257610100808354040283529160200191610d2d565b820191906000526020600020905b815481529060010190602001808311610d1057829003601f168201915b50505050509050919050565b600081815261013260205260409020546001600160a01b0316610d9e5760405162461bcd60e51b815260206004820152601c60248201527f756e65717569703a20746f6b656e20646f65736e277420657869737400000000604482015260640161050a565b600081815261013260205260409020546001600160a01b03163314610e055760405162461bcd60e51b815260206004820152601d60248201527f756e65717569703a2073656e646572206d757374206265206f776e6572000000604482015260640161050a565b600881901c600090815261012f602052604090208054600160ff84161b191690556105a7816116e5565b600054610100900460ff1615808015610e4f5750600054600160ff909116105b80610e695750303b158015610e69575060005460ff166001145b610ecc5760405162461bcd60e51b815260206004820152602e60248201527f496e697469616c697a61626c653a20636f6e747261637420697320616c72656160448201526d191e481a5b9a5d1a585b1a5e995960921b606482015260840161050a565b6000805460ff191660011790558015610eef576000805461ff0019166101001790555b610130610efc8782612498565b50610131610f0a8682612498565b5061013580546001600160a01b0319166001600160a01b038416179055610f2f611790565b610f376117b7565b610f4186856117e6565b610f49611790565b610f52836110d9565b8015610f98576000805461ff0019169055604051600181527f7f26b83ff96e1f2b6a682f133852f6798a09c465da95921460cefb38474024989060200160405180910390a15b505050505050565b6000807fe76a195fbe43f0eaa611595069f780493db2202a1cc4b2d7d44b47069812998a86868686604051610fd6929190612558565b60405190819003812061100e949392916020019384526001600160a01b03928316602085015291166040830152606082015260800190565b604051602081830303815290604052805190602001209050610bca81611817565b60006001600160a01b03861633036110895760405162461bcd60e51b815260206004820152601b60248201527f676976653a2063616e6e6f7420676976652066726f6d2073656c660000000000604482015260640161050a565b611097338787878787611373565b6000610ba78787878080601f01602080910402602001604051908101604052809392919081815260200183838082843760009201919091525061149a92505050565b6110e16112c7565b6001600160a01b0381166111465760405162461bcd60e51b815260206004820152602660248201527f4f776e61626c653a206e6577206f776e657220697320746865207a65726f206160448201526564647265737360d01b606482015260840161050a565b6105a781611321565b6105a76112c7565b7f4910fdfa16fed3260ed0e7147f7cc6da11a60208b5b9406d12a635614ffd91435460ff161561118f5761118a8361182a565b505050565b826001600160a01b03166352d1902d6040518163ffffffff1660e01b8152600401602060405180830381865afa9250505080156111e9575060408051601f3d908101601f191682019092526111e691810190612568565b60015b61124c5760405162461bcd60e51b815260206004820152602e60248201527f45524331393637557067726164653a206e657720696d706c656d656e7461746960448201526d6f6e206973206e6f74205555505360901b606482015260840161050a565b60008051602061265483398151915281146112bb5760405162461bcd60e51b815260206004820152602960248201527f45524331393637557067726164653a20756e737570706f727465642070726f786044820152681a58589b195555525160ba1b606482015260840161050a565b5061118a8383836118c6565b60c9546001600160a01b03163314610aeb5760405162461bcd60e51b815260206004820181905260248201527f4f776e61626c653a2063616c6c6572206973206e6f7420746865206f776e6572604482015260640161050a565b60c980546001600160a01b038381166001600160a01b0319831681179093556040519116919082907f8be0079c531659141344cd1fd0a4f28419497f9722a3daafe3b4186f6b6457e090600090a35050565b600061138187878787610fa0565b905060008160001c90506113cc878386868080601f0160208091040260200160405190810160405280939291908181526020018383808284376000920191909152506118f192505050565b6114265760405162461bcd60e51b815260206004820152602560248201527f73616665436865636b41677265656d656e743a20696e76616c6964207369676e604482015264617475726560d81b606482015260840161050a565b600881901c600090815261012f6020526040902054600160ff83161b16156114905760405162461bcd60e51b815260206004820181905260248201527f73616665436865636b41677265656d656e743a20616c72656164792075736564604482015260640161050a565b5050505050505050565b61013554604051633664a8e960e01b815260009182916001600160a01b0390911690633664a8e9906114d0908690600401611f20565b602060405180830381865afa1580156114ed573d6000803e3d6000fd5b505050506040513d601f19601f820116820180604052508101906115119190612568565b9050600061151f8585610bd4565b90508060008390036115735760405162461bcd60e51b815260206004820152601c60248201527f6d696e743a2073706563206973206e6f74207265676973746572656400000000604482015260640161050a565b600081815261013260205260409020546001600160a01b0316156115d05760405162461bcd60e51b81526020600482015260146024820152736d696e743a20746f6b656e49442065786973747360601b604482015260640161050a565b6001600160a01b0386166000908152610134602052604081208054600192906115fa908490612597565b909155505060008181526101326020908152604080832080546001600160a01b0319166001600160a01b038b16179055610133909152902061163c8682612498565b5060405181906001600160a01b038816906000907fddf252ad1be2c89b69c2b068fc378daa952ba7f163c4a11628f55a4df523b3ef908290a46101355460405163fb74926160e01b815260048101839052602481018590526001600160a01b039091169063fb74926190604401600060405180830381600087803b1580156116c357600080fd5b505af11580156116d7573d6000803e3d6000fd5b509298975050505050505050565b600081815261013260209081526040808320546001600160a01b031680845261013490925282208054919260019261171e9084906125aa565b909155505060008281526101326020908152604080832080546001600160a01b0319169055610133909152812061175491611e58565b60405182906000906001600160a01b038416907fddf252ad1be2c89b69c2b068fc378daa952ba7f163c4a11628f55a4df523b3ef908390a45050565b600054610100900460ff16610aeb5760405162461bcd60e51b815260040161050a906125bd565b600054610100900460ff166117de5760405162461bcd60e51b815260040161050a906125bd565b610aeb611a35565b600054610100900460ff1661180d5760405162461bcd60e51b815260040161050a906125bd565b6109318282611a65565b6000610429611824611aa6565b83611b26565b6001600160a01b0381163b6118975760405162461bcd60e51b815260206004820152602d60248201527f455243313936373a206e657720696d706c656d656e746174696f6e206973206e60448201526c1bdd08184818dbdb9d1c9858dd609a1b606482015260840161050a565b60008051602061265483398151915280546001600160a01b0319166001600160a01b0392909216919091179055565b6118cf83611b4d565b6000825111806118dc5750805b1561118a576118eb8383611b8d565b50505050565b60008060006119008585611c81565b9092509050600081600481111561191957611919612608565b1480156119375750856001600160a01b0316826001600160a01b0316145b1561194757600192505050611a2e565b600080876001600160a01b0316631626ba7e60e01b888860405160240161196f92919061261e565b60408051601f198184030181529181526020820180516001600160e01b03166001600160e01b03199094169390931790925290516119ad9190612637565b600060405180830381855afa9150503d80600081146119e8576040519150601f19603f3d011682016040523d82523d6000602084013e6119ed565b606091505b5091509150818015611a00575080516020145b8015611a2757508051630b135d3f60e11b90611a259083016020908101908401612568565b145b9450505050505b9392505050565b600054610100900460ff16611a5c5760405162461bcd60e51b815260040161050a906125bd565b610aeb33611321565b600054610100900460ff16611a8c5760405162461bcd60e51b815260040161050a906125bd565b81516020928301208151919092012060fb9190915560fc55565b6000611b217f8b73c3c69bb8fe3d512ecc4cf759cc79239f7b179b0ffacaa9a75d522b39400f611ad560fb5490565b60fc546040805160208101859052908101839052606081018290524660808201523060a082015260009060c0016040516020818303038152906040528051906020012090509392505050565b905090565b60405161190160f01b60208201526022810183905260428101829052600090606201610be9565b611b568161182a565b6040516001600160a01b038216907fbc7cd75a20ee27fd9adebab32041f755214dbc6bffa90cc0225b39da2e5c2d3b90600090a250565b60606001600160a01b0383163b611bf55760405162461bcd60e51b815260206004820152602660248201527f416464726573733a2064656c65676174652063616c6c20746f206e6f6e2d636f6044820152651b9d1c9858dd60d21b606482015260840161050a565b600080846001600160a01b031684604051611c109190612637565b600060405180830381855af49150503d8060008114611c4b576040519150601f19603f3d011682016040523d82523d6000602084013e611c50565b606091505b5091509150611c78828260405180606001604052806027815260200161267460279139611cef565b95945050505050565b6000808251604103611cb75760208301516040840151606085015160001a611cab87828585611d08565b94509450505050611ce8565b8251604003611ce05760208301516040840151611cd5868383611df5565b935093505050611ce8565b506000905060025b9250929050565b60608315611cfe575081611a2e565b611a2e8383611e2e565b6000807f7fffffffffffffffffffffffffffffff5d576e7357a4501ddfe92f46681b20a0831115611d3f5750600090506003611dec565b8460ff16601b14158015611d5757508460ff16601c14155b15611d685750600090506004611dec565b6040805160008082526020820180845289905260ff881692820192909252606081018690526080810185905260019060a0016020604051602081039080840390855afa158015611dbc573d6000803e3d6000fd5b5050604051601f1901519150506001600160a01b038116611de557600060019250925050611dec565b9150600090505b94509492505050565b6000806001600160ff1b03831681611e1260ff86901c601b612597565b9050611e2087828885611d08565b935093505050935093915050565b815115611e3e5781518083602001fd5b8060405162461bcd60e51b815260040161050a9190611f20565b508054611e64906122f3565b6000825580601f10611e74575050565b601f0160209004906000526020600020908101906105a791905b80821115611ea25760008155600101611e8e565b5090565b600060208284031215611eb857600080fd5b81356001600160e01b031981168114611a2e57600080fd5b60005b83811015611eeb578181015183820152602001611ed3565b50506000910152565b60008151808452611f0c816020860160208601611ed0565b601f01601f19169290920160200192915050565b602081526000611a2e6020830184611ef4565b6001600160a01b03811681146105a757600080fd5b600060208284031215611f5a57600080fd5b8135611a2e81611f33565b634e487b7160e01b600052604160045260246000fd5b600067ffffffffffffffff80841115611f9657611f96611f65565b604051601f8501601f19908116603f01168101908282118183101715611fbe57611fbe611f65565b81604052809350858152868686011115611fd757600080fd5b858560208301376000602087830101525050509392505050565b600082601f83011261200257600080fd5b611a2e83833560208501611f7b565b6000806040838503121561202457600080fd5b823567ffffffffffffffff81111561203b57600080fd5b61204785828601611ff1565b95602094909401359450505050565b6000806040838503121561206957600080fd5b823561207481611f33565b9150602083013567ffffffffffffffff81111561209057600080fd5b8301601f810185136120a157600080fd5b6120b085823560208401611f7b565b9150509250929050565b6000602082840312156120cc57600080fd5b5035919050565b60008083601f8401126120e557600080fd5b50813567ffffffffffffffff8111156120fd57600080fd5b602083019150836020828501011115611ce857600080fd5b60008060008060006060868803121561212d57600080fd5b853561213881611f33565b9450602086013567ffffffffffffffff8082111561215557600080fd5b61216189838a016120d3565b9096509450604088013591508082111561217a57600080fd5b50612187888289016120d3565b969995985093965092949392505050565b600080604083850312156121ab57600080fd5b82356121b681611f33565b9150602083013567ffffffffffffffff8111156121d257600080fd5b6120b085828601611ff1565b600080600080600060a086880312156121f657600080fd5b853567ffffffffffffffff8082111561220e57600080fd5b61221a89838a01611ff1565b9650602088013591508082111561223057600080fd5b61223c89838a01611ff1565b9550604088013591508082111561225257600080fd5b5061225f88828901611ff1565b935050606086013561227081611f33565b9150608086013561228081611f33565b809150509295509295909350565b600080600080606085870312156122a457600080fd5b84356122af81611f33565b935060208501356122bf81611f33565b9250604085013567ffffffffffffffff8111156122db57600080fd5b6122e7878288016120d3565b95989497509550505050565b600181811c9082168061230757607f821691505b60208210810361232757634e487b7160e01b600052602260045260246000fd5b50919050565b6020808252602c908201527f46756e6374696f6e206d7573742062652063616c6c6564207468726f7567682060408201526b19195b1959d85d1958d85b1b60a21b606082015260800190565b6020808252602c908201527f46756e6374696f6e206d7573742062652063616c6c6564207468726f7567682060408201526b6163746976652070726f787960a01b606082015260800190565b6000602082840312156123d757600080fd5b8151611a2e81611f33565b6000602082840312156123f457600080fd5b81518015158114611a2e57600080fd5b6040815260006124176040830185611ef4565b90508260208301529392505050565b6001600160a01b038316815260406020820181905260009061244a90830184611ef4565b949350505050565b601f82111561118a57600081815260208120601f850160051c810160208610156124795750805b601f850160051c820191505b81811015610f9857828155600101612485565b815167ffffffffffffffff8111156124b2576124b2611f65565b6124c6816124c084546122f3565b84612452565b602080601f8311600181146124fb57600084156124e35750858301515b600019600386901b1c1916600185901b178555610f98565b600085815260208120601f198616915b8281101561252a5788860151825594840194600190910190840161250b565b50858210156125485787850151600019600388901b60f8161c191681555b5050505050600190811b01905550565b8183823760009101908152919050565b60006020828403121561257a57600080fd5b5051919050565b634e487b7160e01b600052601160045260246000fd5b8082018082111561042957610429612581565b8181038181111561042957610429612581565b6020808252602b908201527f496e697469616c697a61626c653a20636f6e7472616374206973206e6f74206960408201526a6e697469616c697a696e6760a81b606082015260800190565b634e487b7160e01b600052602160045260246000fd5b82815260406020820152600061244a6040830184611ef4565b60008251612649818460208701611ed0565b919091019291505056fe360894a13ba1a3210667c828492db98dca3e2076cc3735a920a3ca505d382bbc416464726573733a206c6f772d6c6576656c2064656c65676174652063616c6c206661696c6564a2646970667358221220dd2089c9ff3ac58e026b582706cc90b891c4348ebd847a1d872ab6c126db49a064736f6c63430008100033",
    "linkReferences": {}
  },
  "methodIdentifiers": {
    "balanceOf(address)": "70a08231",
    "createSpec(string,uint256)": "445a62b9",
    "getAgreementHash(address,address,string)": "e4992506",
    "getBadgeIdHash(address,string)": "a8cf8683",
    "getDataHolderAddress()": "635ad993",
    "give(address,string,bytes)": "ec64948e",
    "initialize(string,string,string,address,address)": "d6d0faee",
    "name()": "06fdde03",
    "owner()": "8da5cb5b",
    "ownerOf(uint256)": "6352211e",
    "proxiableUUID()": "52d1902d",
    "renounceOwnership()": "715018a6",
    "setDataHolder(address)": "c0184112",
    "supportsInterface(bytes4)": "01ffc9a7",
    "symbol()": "95d89b41",
    "take(address,string,bytes)": "a3947803",
    "tokenURI(uint256)": "c87b56dd",
    "transferOwnership(address)": "f2fde38b",
    "unequip(uint256)": "d179e3d0",
    "upgradeTo(address)": "3659cfe6",
    "upgradeToAndCall(address,bytes)": "4f1ef286"
  },
  "id": 43
}