{
  "abi": [
    {
      "inputs": [],
      "stateMutability": "nonpayable",
      "type": "constructor"
    },
    {
      "anonymous": false,
      "inputs": [
        {
          "indexed": false,
          "internalType": "address",
          "name": "previousAdmin",
          "type": "address"
        },
        {
          "indexed": false,
          "internalType": "address",
          "name": "newAdmin",
          "type": "address"
        }
      ],
      "name": "AdminChanged",
      "type": "event"
    },
    {
      "anonymous": false,
      "inputs": [
        {
          "indexed": true,
          "internalType": "uint256",
          "name": "tokenId",
          "type": "uint256"
        },
        {
          "indexed": true,
          "internalType": "address",
          "name": "from",
          "type": "address"
        }
      ],
      "name": "BadgeReinstated",
      "type": "event"
    },
    {
      "anonymous": false,
      "inputs": [
        {
          "indexed": true,
          "internalType": "uint256",
          "name": "tokenId",
          "type": "uint256"
        },
        {
          "indexed": true,
          "internalType": "address",
          "name": "from",
          "type": "address"
        },
        {
          "indexed": true,
          "internalType": "uint8",
          "name": "reason",
          "type": "uint8"
        }
      ],
      "name": "BadgeRevoked",
      "type": "event"
    },
    {
      "anonymous": false,
      "inputs": [
        {
          "indexed": true,
          "internalType": "address",
          "name": "beacon",
          "type": "address"
        }
      ],
      "name": "BeaconUpgraded",
      "type": "event"
    },
    {
      "anonymous": false,
      "inputs": [
        {
          "indexed": false,
          "internalType": "uint8",
          "name": "version",
          "type": "uint8"
        }
      ],
      "name": "Initialized",
      "type": "event"
    },
    {
      "anonymous": false,
      "inputs": [
        {
          "indexed": true,
          "internalType": "address",
          "name": "previousOwner",
          "type": "address"
        },
        {
          "indexed": true,
          "internalType": "address",
          "name": "newOwner",
          "type": "address"
        }
      ],
      "name": "OwnershipTransferred",
      "type": "event"
    },
    {
      "anonymous": false,
      "inputs": [
        {
          "indexed": false,
          "internalType": "string[]",
          "name": "specUris",
          "type": "string[]"
        },
        {
          "indexed": false,
          "internalType": "address",
          "name": "sender",
          "type": "address"
        }
      ],
      "name": "RefreshMetadata",
      "type": "event"
    },
    {
      "anonymous": false,
      "inputs": [
        {
          "indexed": true,
          "internalType": "address",
          "name": "to",
          "type": "address"
        },
        {
          "indexed": false,
          "internalType": "string",
          "name": "specUri",
          "type": "string"
        },
        {
          "indexed": true,
          "internalType": "uint256",
          "name": "raftTokenId",
          "type": "uint256"
        },
        {
          "indexed": true,
          "internalType": "address",
          "name": "raftAddress",
          "type": "address"
        }
      ],
      "name": "SpecCreated",
      "type": "event"
    },
    {
      "anonymous": false,
      "inputs": [
        {
          "indexed": true,
          "internalType": "address",
          "name": "from",
          "type": "address"
        },
        {
          "indexed": true,
          "internalType": "address",
          "name": "to",
          "type": "address"
        },
        {
          "indexed": true,
          "internalType": "uint256",
          "name": "tokenId",
          "type": "uint256"
        }
      ],
      "name": "Transfer",
      "type": "event"
    },
    {
      "anonymous": false,
      "inputs": [
        {
          "indexed": true,
          "internalType": "address",
          "name": "implementation",
          "type": "address"
        }
      ],
      "name": "Upgraded",
      "type": "event"
    },
    {
      "inputs": [
        {
          "internalType": "address[]",
          "name": "_recipients",
          "type": "address[]"
        },
        {
          "internalType": "string",
          "name": "_uri",
          "type": "string"
        }
      ],
      "name": "airdrop",
      "outputs": [],
      "stateMutability": "nonpayable",
      "type": "function"
    },
    {
      "inputs": [
        {
          "internalType": "address",
          "name": "_owner",
          "type": "address"
        }
      ],
      "name": "balanceOf",
      "outputs": [
        {
          "internalType": "uint256",
          "name": "",
          "type": "uint256"
        }
      ],
      "stateMutability": "view",
      "type": "function"
    },
    {
      "inputs": [
        {
          "internalType": "string",
          "name": "_specUri",
          "type": "string"
        },
        {
          "internalType": "uint256",
          "name": "_raftTokenId",
          "type": "uint256"
        }
      ],
      "name": "createSpec",
      "outputs": [],
      "stateMutability": "nonpayable",
      "type": "function"
    },
    {
      "inputs": [
        {
          "internalType": "address",
          "name": "_from",
          "type": "address"
        },
        {
          "internalType": "address",
          "name": "_to",
          "type": "address"
        },
        {
          "internalType": "string",
          "name": "_uri",
          "type": "string"
        }
      ],
      "name": "getAgreementHash",
      "outputs": [
        {
          "internalType": "bytes32",
          "name": "",
          "type": "bytes32"
        }
      ],
      "stateMutability": "view",
      "type": "function"
    },
    {
      "inputs": [
        {
          "internalType": "address",
          "name": "_to",
          "type": "address"
        },
        {
          "internalType": "string",
          "name": "_uri",
          "type": "string"
        }
      ],
      "name": "getBadgeIdHash",
      "outputs": [
        {
          "internalType": "bytes32",
          "name": "",
          "type": "bytes32"
        }
      ],
      "stateMutability": "view",
      "type": "function"
    },
    {
      "inputs": [],
      "name": "getDataHolderAddress",
      "outputs": [
        {
          "internalType": "address",
          "name": "",
          "type": "address"
        }
      ],
      "stateMutability": "view",
      "type": "function"
    },
    {
      "inputs": [
        {
          "internalType": "address",
          "name": "_issuer",
          "type": "address"
        },
        {
          "internalType": "string",
          "name": "_uri",
          "type": "string"
        },
        {
          "internalType": "bytes32",
          "name": "_root",
          "type": "bytes32"
        }
      ],
      "name": "getMerkleAgreementHash",
      "outputs": [
        {
          "internalType": "bytes32",
          "name": "",
          "type": "bytes32"
        }
      ],
      "stateMutability": "view",
      "type": "function"
    },
    {
      "inputs": [
        {
          "internalType": "address",
          "name": "_requester",
          "type": "address"
        },
        {
          "internalType": "string",
          "name": "_uri",
          "type": "string"
        }
      ],
      "name": "getRequestHash",
      "outputs": [
        {
          "internalType": "bytes32",
          "name": "",
          "type": "bytes32"
        }
      ],
      "stateMutability": "view",
      "type": "function"
    },
    {
      "inputs": [
        {
          "internalType": "address",
          "name": "_to",
          "type": "address"
        },
        {
          "internalType": "string",
          "name": "_uri",
          "type": "string"
        },
        {
          "internalType": "bytes",
          "name": "_signature",
          "type": "bytes"
        }
      ],
      "name": "give",
      "outputs": [
        {
          "internalType": "uint256",
          "name": "",
          "type": "uint256"
        }
      ],
      "stateMutability": "nonpayable",
      "type": "function"
    },
    {
      "inputs": [
        {
          "internalType": "address",
          "name": "_to",
          "type": "address"
        },
        {
          "internalType": "string",
          "name": "_uri",
          "type": "string"
        },
        {
          "internalType": "bytes",
          "name": "_signature",
          "type": "bytes"
        }
      ],
      "name": "giveRequestedBadge",
      "outputs": [
        {
          "internalType": "uint256",
          "name": "",
          "type": "uint256"
        }
      ],
      "stateMutability": "nonpayable",
      "type": "function"
    },
    {
      "inputs": [
        {
          "internalType": "address[]",
          "name": "_recipients",
          "type": "address[]"
        },
        {
          "internalType": "string",
          "name": "_uri",
          "type": "string"
        },
        {
          "internalType": "bytes[]",
          "name": "_signatures",
          "type": "bytes[]"
        }
      ],
      "name": "giveRequestedBadgeToMany",
      "outputs": [],
      "stateMutability": "nonpayable",
      "type": "function"
    },
    {
      "inputs": [
        {
          "internalType": "address[]",
          "name": "_recipients",
          "type": "address[]"
        },
        {
          "internalType": "string",
          "name": "_uri",
          "type": "string"
        },
        {
          "internalType": "bytes[]",
          "name": "_signatures",
          "type": "bytes[]"
        }
      ],
      "name": "giveToMany",
      "outputs": [],
      "stateMutability": "nonpayable",
      "type": "function"
    },
    {
      "inputs": [
        {
          "internalType": "string",
          "name": "_name",
          "type": "string"
        },
        {
          "internalType": "string",
          "name": "_symbol",
          "type": "string"
        },
        {
          "internalType": "string",
          "name": "_version",
          "type": "string"
        },
        {
          "internalType": "address",
          "name": "_nextOwner",
          "type": "address"
        },
        {
          "internalType": "address",
          "name": "_specDataHolderAddress",
          "type": "address"
        }
      ],
      "name": "initialize",
      "outputs": [],
      "stateMutability": "nonpayable",
      "type": "function"
    },
    {
      "inputs": [
        {
          "internalType": "uint256",
          "name": "_badgeId",
          "type": "uint256"
        }
      ],
      "name": "isBadgeValid",
      "outputs": [
        {
          "internalType": "bool",
          "name": "",
          "type": "bool"
        }
      ],
      "stateMutability": "view",
      "type": "function"
    },
    {
      "inputs": [
        {
          "internalType": "address",
          "name": "_recipient",
          "type": "address"
        },
        {
          "internalType": "address",
          "name": "_issuer",
          "type": "address"
        },
        {
          "internalType": "string",
          "name": "_uri",
          "type": "string"
        },
        {
          "internalType": "bytes",
          "name": "_issuerSignature",
          "type": "bytes"
        },
        {
          "internalType": "bytes",
          "name": "_recipientSignature",
          "type": "bytes"
        },
        {
          "internalType": "bytes32",
          "name": "root",
          "type": "bytes32"
        },
        {
          "internalType": "bytes32[]",
          "name": "proof",
          "type": "bytes32[]"
        }
      ],
      "name": "merkleMintWithConsent",
      "outputs": [
        {
          "internalType": "uint256",
          "name": "",
          "type": "uint256"
        }
      ],
      "stateMutability": "nonpayable",
      "type": "function"
    },
    {
      "inputs": [
        {
          "internalType": "address",
          "name": "_from",
          "type": "address"
        },
        {
          "internalType": "string",
          "name": "_uri",
          "type": "string"
        },
        {
          "internalType": "bytes",
          "name": "_signature",
          "type": "bytes"
        },
        {
          "internalType": "bytes32",
          "name": "root",
          "type": "bytes32"
        },
        {
          "internalType": "bytes32[]",
          "name": "proof",
          "type": "bytes32[]"
        }
      ],
      "name": "merkleTake",
      "outputs": [
        {
          "internalType": "uint256",
          "name": "",
          "type": "uint256"
        }
      ],
      "stateMutability": "nonpayable",
      "type": "function"
    },
    {
      "inputs": [
        {
          "internalType": "address",
          "name": "_recipient",
          "type": "address"
        },
        {
          "internalType": "address",
          "name": "_issuer",
          "type": "address"
        },
        {
          "internalType": "string",
          "name": "_uri",
          "type": "string"
        },
        {
          "internalType": "bytes",
          "name": "_issuerSignature",
          "type": "bytes"
        },
        {
          "internalType": "bytes",
          "name": "_recipientSignature",
          "type": "bytes"
        }
      ],
      "name": "mintWithConsent",
      "outputs": [
        {
          "internalType": "uint256",
          "name": "",
          "type": "uint256"
        }
      ],
      "stateMutability": "nonpayable",
      "type": "function"
    },
    {
      "inputs": [],
      "name": "name",
      "outputs": [
        {
          "internalType": "string",
          "name": "",
          "type": "string"
        }
      ],
      "stateMutability": "view",
      "type": "function"
    },
    {
      "inputs": [],
      "name": "owner",
      "outputs": [
        {
          "internalType": "address",
          "name": "",
          "type": "address"
        }
      ],
      "stateMutability": "view",
      "type": "function"
    },
    {
      "inputs": [
        {
          "internalType": "uint256",
          "name": "_tokenId",
          "type": "uint256"
        }
      ],
      "name": "ownerOf",
      "outputs": [
        {
          "internalType": "address",
          "name": "",
          "type": "address"
        }
      ],
      "stateMutability": "view",
      "type": "function"
    },
    {
      "inputs": [],
      "name": "proxiableUUID",
      "outputs": [
        {
          "internalType": "bytes32",
          "name": "",
          "type": "bytes32"
        }
      ],
      "stateMutability": "view",
      "type": "function"
    },
    {
      "inputs": [
        {
          "internalType": "string[]",
          "name": "_specUris",
          "type": "string[]"
        }
      ],
      "name": "refreshMetadata",
      "outputs": [],
      "stateMutability": "nonpayable",
      "type": "function"
    },
    {
      "inputs": [
        {
          "internalType": "uint256",
          "name": "_raftTokenId",
          "type": "uint256"
        },
        {
          "internalType": "uint256",
          "name": "_badgeId",
          "type": "uint256"
        }
      ],
      "name": "reinstateBadge",
      "outputs": [],
      "stateMutability": "nonpayable",
      "type": "function"
    },
    {
      "inputs": [],
      "name": "renounceOwnership",
      "outputs": [],
      "stateMutability": "nonpayable",
      "type": "function"
    },
    {
      "inputs": [
        {
          "internalType": "uint256",
          "name": "_raftTokenId",
          "type": "uint256"
        },
        {
          "internalType": "uint256",
          "name": "_badgeId",
          "type": "uint256"
        },
        {
          "internalType": "uint8",
          "name": "_reason",
          "type": "uint8"
        }
      ],
      "name": "revokeBadge",
      "outputs": [],
      "stateMutability": "nonpayable",
      "type": "function"
    },
    {
      "inputs": [
        {
          "internalType": "address",
          "name": "_dataHolder",
          "type": "address"
        }
      ],
      "name": "setDataHolder",
      "outputs": [],
      "stateMutability": "nonpayable",
      "type": "function"
    },
    {
      "inputs": [
        {
          "internalType": "bytes4",
          "name": "_interfaceId",
          "type": "bytes4"
        }
      ],
      "name": "supportsInterface",
      "outputs": [
        {
          "internalType": "bool",
          "name": "",
          "type": "bool"
        }
      ],
      "stateMutability": "view",
      "type": "function"
    },
    {
      "inputs": [],
      "name": "symbol",
      "outputs": [
        {
          "internalType": "string",
          "name": "",
          "type": "string"
        }
      ],
      "stateMutability": "view",
      "type": "function"
    },
    {
      "inputs": [
        {
          "internalType": "address",
          "name": "_from",
          "type": "address"
        },
        {
          "internalType": "string",
          "name": "_uri",
          "type": "string"
        },
        {
          "internalType": "bytes",
          "name": "_signature",
          "type": "bytes"
        }
      ],
      "name": "take",
      "outputs": [
        {
          "internalType": "uint256",
          "name": "",
          "type": "uint256"
        }
      ],
      "stateMutability": "nonpayable",
      "type": "function"
    },
    {
      "inputs": [
        {
          "internalType": "uint256",
          "name": "_tokenId",
          "type": "uint256"
        }
      ],
      "name": "tokenURI",
      "outputs": [
        {
          "internalType": "string",
          "name": "",
          "type": "string"
        }
      ],
      "stateMutability": "view",
      "type": "function"
    },
    {
      "inputs": [
        {
          "internalType": "address",
          "name": "newOwner",
          "type": "address"
        }
      ],
      "name": "transferOwnership",
      "outputs": [],
      "stateMutability": "nonpayable",
      "type": "function"
    },
    {
      "inputs": [
        {
          "internalType": "uint256",
          "name": "_tokenId",
          "type": "uint256"
        }
      ],
      "name": "unequip",
      "outputs": [],
      "stateMutability": "nonpayable",
      "type": "function"
    },
    {
      "inputs": [
        {
          "internalType": "address",
          "name": "newImplementation",
          "type": "address"
        }
      ],
      "name": "upgradeTo",
      "outputs": [],
      "stateMutability": "nonpayable",
      "type": "function"
    },
    {
      "inputs": [
        {
          "internalType": "address",
          "name": "newImplementation",
          "type": "address"
        },
        {
          "internalType": "bytes",
          "name": "data",
          "type": "bytes"
        }
      ],
      "name": "upgradeToAndCall",
      "outputs": [],
      "stateMutability": "payable",
      "type": "function"
    }
  ],
  "bytecode": {
    "object": "0x60a0604052306080523480156200001557600080fd5b506200002062000026565b620000e8565b600054610100900460ff1615620000935760405162461bcd60e51b815260206004820152602760248201527f496e697469616c697a61626c653a20636f6e747261637420697320696e697469604482015266616c697a696e6760c81b606482015260840160405180910390fd5b60005460ff9081161015620000e6576000805460ff191660ff9081179091556040519081527f7f26b83ff96e1f2b6a682f133852f6798a09c465da95921460cefb38474024989060200160405180910390a15b565b6080516145ce62000120600039600081816108f501528181610935015281816111b6015281816111f6015261128901526145ce6000f3fe6080604052600436106101f95760003560e01c80638339a1331161010d578063bdbdbcbf116100a0578063d179e3d01161006f578063d179e3d0146105ac578063d6d0faee146105cc578063e4992506146105ec578063ec64948e1461060c578063f2fde38b1461062c57600080fd5b8063bdbdbcbf1461052c578063c01841121461054c578063c7a35fed1461056c578063c87b56dd1461058c57600080fd5b8063a3947803116100dc578063a3947803146104ac578063a8cf8683146104cc578063bc4b5447146104ec578063bd6645e41461050c57600080fd5b80638339a133146104395780638da5cb5b1461045957806395d89b4114610477578063a32c9c7a1461048c57600080fd5b80634a50b37611610190578063635ad9931161015f578063635ad993146103a557806370a08231146103c4578063715018a6146103e45780637c402f8d146103f957806380956c7e1461041957600080fd5b80634a50b376146103255780634f1ef2861461034557806352d1902d146103585780636352211e1461036d57600080fd5b80633659cfe6116101cc5780633659cfe6146102a357806339ae37c0146102c5578063445a62b9146102e55780634a086b531461030557600080fd5b806301ffc9a7146101fe57806306fdde03146102335780630f4d9b01146102555780631766c03814610275575b600080fd5b34801561020a57600080fd5b5061021e610219366004613692565b61064c565b60405190151581526020015b60405180910390f35b34801561023f57600080fd5b5061024861069e565b60405161022a919061370c565b34801561026157600080fd5b5061021e61027036600461371f565b610731565b34801561028157600080fd5b5061029561029036600461379e565b610798565b60405190815260200161022a565b3480156102af57600080fd5b506102c36102be366004613820565b6108eb565b005b3480156102d157600080fd5b506102c36102e0366004613881565b6109ca565b3480156102f157600080fd5b506102c36103003660046138ec565b610b50565b34801561031157600080fd5b50610295610320366004613937565b610e0e565b34801561033157600080fd5b506102c3610340366004613a32565b610f74565b6102c3610353366004613b25565b6111ac565b34801561036457600080fd5b5061029561127c565b34801561037957600080fd5b5061038d61038836600461371f565b61132f565b6040516001600160a01b03909116815260200161022a565b3480156103b157600080fd5b50610135546001600160a01b031661038d565b3480156103d057600080fd5b506102956103df366004613820565b611384565b3480156103f057600080fd5b506102c361140c565b34801561040557600080fd5b506102c3610414366004613bcc565b611420565b34801561042557600080fd5b506102c3610434366004613c0b565b6115e4565b34801561044557600080fd5b50610295610454366004613c2d565b61179e565b34801561046557600080fd5b5060c9546001600160a01b031661038d565b34801561048357600080fd5b5061024861182b565b34801561049857600080fd5b506102c36104a7366004613c81565b61183b565b3480156104b857600080fd5b506102956104c736600461379e565b611a5c565b3480156104d857600080fd5b506102956104e7366004613c2d565b611ba6565b3480156104f857600080fd5b50610295610507366004613d1a565b611bdc565b34801561051857600080fd5b50610295610527366004613dc4565b611e95565b34801561053857600080fd5b506102c3610547366004613e1f565b611f0f565b34801561055857600080fd5b506102c3610567366004613820565b611fb2565b34801561057857600080fd5b50610295610587366004613e60565b611fdd565b34801561059857600080fd5b506102486105a736600461371f565b612200565b3480156105b857600080fd5b506102c36105c736600461371f565b612307565b3480156105d857600080fd5b506102c36105e7366004613f55565b6123ae565b3480156105f857600080fd5b50610295610607366004614014565b61258d565b34801561061857600080fd5b5061029561062736600461379e565b6125fd565b34801561063857600080fd5b506102c3610647366004613820565b61273a565b60006001600160e01b03198216635b5e139f60e01b148061067d57506001600160e01b031982166346bdd63960e11b145b8061069857506301ffc9a760e01b6001600160e01b03198316145b92915050565b606061013080546106ae9061406c565b80601f01602080910402602001604051908101604052809291908181526020018280546106da9061406c565b80156107275780601f106106fc57610100808354040283529160200191610727565b820191906000526020600020905b81548152906001019060200180831161070a57829003601f168201915b5050505050905090565b6000818152610132602052604081205482906001600160a01b03166107715760405162461bcd60e51b8152600401610768906140a0565b60405180910390fd5b600883901c60009081526101376020526040902054600160ff85161b161591505b50919050565b61013554604051633664a8e960e01b815260009182916001600160a01b0390911690633664a8e9906107d090899089906004016140fe565b602060405180830381865afa1580156107ed573d6000803e3d6000fd5b505050506040513d601f19601f820116820180604052508101906108119190614112565b6101355460405163e3ee9c4d60e01b8152600481018390523360248201529192506001600160a01b03169063e3ee9c4d90604401602060405180830381865afa158015610862573d6000803e3d6000fd5b505050506040513d601f19601f82011682018060405250810190610886919061412b565b6108d25760405162461bcd60e51b815260206004820181905260248201527f6769766552657175657374656442616467653a20756e617574686f72697a65646044820152606401610768565b6108e08787878787866127b0565b979650505050505050565b6001600160a01b037f00000000000000000000000000000000000000000000000000000000000000001630036109335760405162461bcd60e51b81526004016107689061414d565b7f00000000000000000000000000000000000000000000000000000000000000006001600160a01b031661097c600080516020614552833981519152546001600160a01b031690565b6001600160a01b0316146109a25760405162461bcd60e51b815260040161076890614199565b6109ab81612863565b604080516000808252602082019092526109c79183919061286b565b50565b61013554604051633664a8e960e01b81526000916001600160a01b031690633664a8e9906109fe90869086906004016140fe565b602060405180830381865afa158015610a1b573d6000803e3d6000fd5b505050506040513d601f19601f82011682018060405250810190610a3f9190614112565b6101355460405163e3ee9c4d60e01b8152600481018390523360248201529192506001600160a01b03169063e3ee9c4d90604401602060405180830381865afa158015610a90573d6000803e3d6000fd5b505050506040513d601f19601f82011682018060405250810190610ab4919061412b565b610af85760405162461bcd60e51b8152602060048201526015602482015274185a5c991c9bdc0e881d5b985d5d1a1bdc9a5e9959605a1b6044820152606401610768565b60005b84811015610b4857610b35868683818110610b1857610b186141e5565b9050602002016020810190610b2d9190613820565b8585856129db565b5080610b4081614211565b915050610afb565b505050505050565b6101355460405163e3ee9c4d60e01b8152600481018390523360248201526001600160a01b039091169063e3ee9c4d90604401602060405180830381865afa158015610ba0573d6000803e3d6000fd5b505050506040513d601f19601f82011682018060405250810190610bc4919061412b565b610c105760405162461bcd60e51b815260206004820152601860248201527f637265617465537065633a20756e617574686f72697a656400000000000000006044820152606401610768565b61013554604051637e07102760e11b81526001600160a01b039091169063fc0e204e90610c4390869086906004016140fe565b602060405180830381865afa158015610c60573d6000803e3d6000fd5b505050506040513d601f19601f82011682018060405250810190610c84919061412b565b15610cdd5760405162461bcd60e51b815260206004820152602360248201527f637265617465537065633a207370656320616c726561647920726567697374656044820152621c995960ea1b6064820152608401610768565b6101355460405163addd190760e01b81526001600160a01b039091169063addd190790610d129086908690869060040161422a565b600060405180830381600087803b158015610d2c57600080fd5b505af1158015610d40573d6000803e3d6000fd5b5050505061013560009054906101000a90046001600160a01b03166001600160a01b03166334f876626040518163ffffffff1660e01b8152600401602060405180830381865afa158015610d98573d6000803e3d6000fd5b505050506040513d601f19601f82011682018060405250810190610dbc919061424e565b6001600160a01b031681336001600160a01b03167f68c7f8503283c455a4445b54a7d5c40656c8cae5cca0583c6d4be836984787008686604051610e019291906140fe565b60405180910390a4505050565b6000610e2189338a8a8a8a8a8a8a612b5a565b61013554604051633664a8e960e01b81526000916001600160a01b031690633664a8e990610e55908c908c906004016140fe565b602060405180830381865afa158015610e72573d6000803e3d6000fd5b505050506040513d601f19601f82011682018060405250810190610e969190614112565b6101355460405163e3ee9c4d60e01b8152600481018390526001600160a01b038d8116602483015292935091169063e3ee9c4d90604401602060405180830381865afa158015610eea573d6000803e3d6000fd5b505050506040513d601f19601f82011682018060405250810190610f0e919061412b565b610f5a5760405162461bcd60e51b815260206004820152601860248201527f6d65726b6c6554616b653a20756e617574686f72697a656400000000000000006044820152606401610768565b610f66338a8a846129db565b9a9950505050505050505050565b84518114610ff65760405162461bcd60e51b815260206004820152604360248201527f676976655265717565737465644261646765546f4d616e793a2072656369706960448201527f656e747320616e64207369676e617475726573206c656e677468206d69736d616064820152620e8c6d60eb1b608482015260a401610768565b61013554604051633664a8e960e01b81526000916001600160a01b031690633664a8e99061102a90889088906004016140fe565b602060405180830381865afa158015611047573d6000803e3d6000fd5b505050506040513d601f19601f8201168201806040525081019061106b9190614112565b6101355460405163e3ee9c4d60e01b8152600481018390523360248201529192506001600160a01b03169063e3ee9c4d90604401602060405180830381865afa1580156110bc573d6000803e3d6000fd5b505050506040513d601f19601f820116820180604052508101906110e0919061412b565b61113b5760405162461bcd60e51b815260206004820152602660248201527f676976655265717565737465644261646765546f4d616e793a20756e617574686044820152651bdc9a5e995960d21b6064820152608401610768565b60005b86518110156111a35761119087828151811061115c5761115c6141e5565b60200260200101518787878786818110611178576111786141e5565b905060200281019061118a919061426b565b876127b0565b508061119b81614211565b91505061113e565b50505050505050565b6001600160a01b037f00000000000000000000000000000000000000000000000000000000000000001630036111f45760405162461bcd60e51b81526004016107689061414d565b7f00000000000000000000000000000000000000000000000000000000000000006001600160a01b031661123d600080516020614552833981519152546001600160a01b031690565b6001600160a01b0316146112635760405162461bcd60e51b815260040161076890614199565b61126c82612863565b6112788282600161286b565b5050565b6000306001600160a01b037f0000000000000000000000000000000000000000000000000000000000000000161461131c5760405162461bcd60e51b815260206004820152603860248201527f555550535570677261646561626c653a206d757374206e6f742062652063616c60448201527f6c6564207468726f7567682064656c656761746563616c6c00000000000000006064820152608401610768565b5060008051602061455283398151915290565b6000818152610132602052604081205482906001600160a01b03166113665760405162461bcd60e51b8152600401610768906140a0565b5050600090815261013260205260409020546001600160a01b031690565b60006001600160a01b0382166113ef5760405162461bcd60e51b815260206004820152602a60248201527f62616c616e63654f663a2061646472657373283029206973206e6f742061207660448201526930b634b21037bbb732b960b11b6064820152608401610768565b506001600160a01b03166000908152610134602052604090205490565b611414612ce7565b61141e6000612d41565b565b6000828152610132602052604090205482906001600160a01b03166114575760405162461bcd60e51b8152600401610768906140a0565b6101355460405163e3ee9c4d60e01b8152600481018690523360248201526001600160a01b039091169063e3ee9c4d90604401602060405180830381865afa1580156114a7573d6000803e3d6000fd5b505050506040513d601f19601f820116820180604052508101906114cb919061412b565b6115175760405162461bcd60e51b815260206004820152601960248201527f7265766f6b6542616467653a20756e617574686f72697a6564000000000000006044820152606401610768565b600883901c60009081526101376020526040902054600160ff85161b161561158c5760405162461bcd60e51b815260206004820152602260248201527f7265766f6b6542616467653a20626164676520616c7265616479207265766f6b604482015261195960f21b6064820152608401610768565b600883901c6000908152610137602052604090208054600160ff86161b17905560405160ff831690339085907ffa784c48260e8db512de5f055a2f29eced211a7b3bd6338058b095ada7354cee90600090a450505050565b6000818152610132602052604090205481906001600160a01b031661161b5760405162461bcd60e51b8152600401610768906140a0565b6101355460405163e3ee9c4d60e01b8152600481018590523360248201526001600160a01b039091169063e3ee9c4d90604401602060405180830381865afa15801561166b573d6000803e3d6000fd5b505050506040513d601f19601f8201168201806040525081019061168f919061412b565b6116db5760405162461bcd60e51b815260206004820152601c60248201527f7265696e737461746542616467653a20756e617574686f72697a6564000000006044820152606401610768565b600882901c60009081526101376020526040902054600160ff84161b1661174e5760405162461bcd60e51b815260206004820152602160248201527f7265696e737461746542616467653a206261646765206e6f74207265766f6b656044820152601960fa1b6064820152608401610768565b600882901c600090815261013760205260408082208054600160ff87161b1916905551339184917f7f8cf9ecf2a5225948f8a1601709cedc8471c52ee75a8174c9845c29c99ed9a29190a3505050565b60006118217fa1cd8d39eb877323a4bcf08188675058ee9a4534d4c79021300b3722aeda505d8585856040516117d59291906142b1565b6040519081900381206118069392916020019283526001600160a01b03919091166020830152604082015260600190565b60405160208183030381529060405280519060200120612d93565b90505b9392505050565b606061013180546106ae9061406c565b8481146118a85760405162461bcd60e51b815260206004820152603560248201527f67697665546f4d616e793a20726563697069656e747320616e64207369676e616044820152740e8eae4cae640d8cadccee8d040dad2e6dac2e8c6d605b1b6064820152608401610768565b61013554604051633664a8e960e01b81526000916001600160a01b031690633664a8e9906118dc90889088906004016140fe565b602060405180830381865afa1580156118f9573d6000803e3d6000fd5b505050506040513d601f19601f8201168201806040525081019061191d9190614112565b6101355460405163e3ee9c4d60e01b8152600481018390523360248201529192506001600160a01b03169063e3ee9c4d90604401602060405180830381865afa15801561196e573d6000803e3d6000fd5b505050506040513d601f19601f82011682018060405250810190611992919061412b565b6119de5760405162461bcd60e51b815260206004820152601860248201527f67697665546f4d616e793a20756e617574686f72697a656400000000000000006044820152606401610768565b60005b86811015611a5257611a3f8888838181106119fe576119fe6141e5565b9050602002016020810190611a139190613820565b8787878786818110611a2757611a276141e5565b9050602002810190611a39919061426b565b87612de1565b5080611a4a81614211565b9150506119e1565b5050505050505050565b6000611a6c338787878787612ded565b61013554604051633664a8e960e01b81526000916001600160a01b031690633664a8e990611aa090899089906004016140fe565b602060405180830381865afa158015611abd573d6000803e3d6000fd5b505050506040513d601f19601f82011682018060405250810190611ae19190614112565b6101355460405163e3ee9c4d60e01b8152600481018390526001600160a01b038a8116602483015292935091169063e3ee9c4d90604401602060405180830381865afa158015611b35573d6000803e3d6000fd5b505050506040513d601f19601f82011682018060405250810190611b59919061412b565b611b9a5760405162461bcd60e51b81526020600482015260126024820152711d185ad94e881d5b985d5d1a1bdc9a5e995960721b6044820152606401610768565b6108e0338787846129db565b6000838383604051602001611bbd939291906142c1565b6040516020818303038152906040528051906020012090509392505050565b61013554604051633664a8e960e01b815260009182916001600160a01b0390911690633664a8e990611c14908b908b906004016140fe565b602060405180830381865afa158015611c31573d6000803e3d6000fd5b505050506040513d601f19601f82011682018060405250810190611c559190614112565b6101355460405163e3ee9c4d60e01b8152600481018390526001600160a01b038c8116602483015292935091169063e3ee9c4d90604401602060405180830381865afa158015611ca9573d6000803e3d6000fd5b505050506040513d601f19601f82011682018060405250810190611ccd919061412b565b611d195760405162461bcd60e51b815260206004820152601d60248201527f6d696e7457697468436f6e73656e743a20756e617574686f72697a65640000006044820152606401610768565b6000611d278b8b8b8b61258d565b9050611d6a8a8289898080601f016020809104026020016040519081016040528093929190818152602001838380828437600092019190915250612e9392505050565b611dc85760405162461bcd60e51b815260206004820152602960248201527f6d696e7457697468436f6e73656e743a20696e76616c696420697373756572206044820152687369676e617475726560b81b6064820152608401610768565b6000611dd58c8b8b61179e565b9050611e188c8288888080601f016020809104026020016040519081016040528093929190818152602001838380828437600092019190915250612e9392505050565b611e795760405162461bcd60e51b815260206004820152602c60248201527f6d696e7457697468436f6e73656e743a20696e76616c6964207265636970696560448201526b6e74207369676e617475726560a01b6064820152608401610768565b611e858c8b8b866129db565b9c9b505050505050505050505050565b6000611f047f6d0d990916a9f9c9e0896e59ce7f5ddddff333d0c8772438ce004fa7719b164b868686604051611ecc9291906142b1565b60405190819003812061180693929187906020019384526001600160a01b039290921660208401526040830152606082015260800190565b90505b949350505050565b611f17612ce7565b80611f735760405162461bcd60e51b815260206004820152602660248201527f726566726573684d657461646174613a206e6f207370656320757269732070726044820152651bdd9a59195960d21b6064820152608401610768565b7f2231d988b1a75dccab13dee3564b71a551900e822e94177a96f19561890c0fd5828233604051611fa6939291906142e6565b60405180910390a15050565b611fba612ce7565b61013580546001600160a01b0319166001600160a01b0392909216919091179055565b61013554604051633664a8e960e01b815260009182916001600160a01b0390911690633664a8e990612015908e908e906004016140fe565b602060405180830381865afa158015612032573d6000803e3d6000fd5b505050506040513d601f19601f820116820180604052508101906120569190614112565b6101355460405163e3ee9c4d60e01b8152600481018390526001600160a01b038f8116602483015292935091169063e3ee9c4d90604401602060405180830381865afa1580156120aa573d6000803e3d6000fd5b505050506040513d601f19601f820116820180604052508101906120ce919061412b565b61211a5760405162461bcd60e51b815260206004820152601d60248201527f6d696e7457697468436f6e73656e743a20756e617574686f72697a65640000006044820152606401610768565b61212b8c8e8d8d8d8d8b8b8b612b5a565b60006121388e8d8d61179e565b905061217b8e828a8a8080601f016020809104026020016040519081016040528093929190818152602001838380828437600092019190915250612e9392505050565b6121e25760405162461bcd60e51b815260206004820152603260248201527f6d65726b6c654d696e7457697468436f6e73656e743a20696e76616c696420726044820152716563697069656e74207369676e617475726560701b6064820152608401610768565b6121ee8e8d8d856129db565b9e9d5050505050505050505050505050565b600081815261013260205260409020546060906001600160a01b03166122685760405162461bcd60e51b815260206004820152601d60248201527f746f6b656e5552493a20746f6b656e20646f65736e27742065786973740000006044820152606401610768565b60008281526101336020526040902080546122829061406c565b80601f01602080910402602001604051908101604052809291908181526020018280546122ae9061406c565b80156122fb5780601f106122d0576101008083540402835291602001916122fb565b820191906000526020600020905b8154815290600101906020018083116122de57829003601f168201915b50505050509050919050565b6000818152610132602052604090205481906001600160a01b031661233e5760405162461bcd60e51b8152600401610768906140a0565b600082815261013260205260409020546001600160a01b031633146123a55760405162461bcd60e51b815260206004820152601d60248201527f756e65717569703a2073656e646572206d757374206265206f776e65720000006044820152606401610768565b61127882612fd5565b600054610100900460ff16158080156123ce5750600054600160ff909116105b806123e85750303b1580156123e8575060005460ff166001145b61244b5760405162461bcd60e51b815260206004820152602e60248201527f496e697469616c697a61626c653a20636f6e747261637420697320616c72656160448201526d191e481a5b9a5d1a585b1a5e995960921b6064820152608401610768565b6000805460ff19166001179055801561246e576000805461ff0019166101001790555b61013061247c898b836143d5565b5061013161248b8789836143d5565b5061013580546001600160a01b0319166001600160a01b0384161790556124b0613080565b6124b86130a7565b61252b89898080601f01602080910402602001604051908101604052809392919081815260200183838082843760009201919091525050604080516020601f8b0181900481028201810190925289815292508991508890819084018382808284376000920191909152506130d692505050565b612533613080565b61253c8361273a565b8015612582576000805461ff0019169055604051600181527f7f26b83ff96e1f2b6a682f133852f6798a09c465da95921460cefb38474024989060200160405180910390a15b505050505050505050565b6000611f047fe76a195fbe43f0eaa611595069f780493db2202a1cc4b2d7d44b47069812998a868686866040516125c59291906142b1565b604051908190038120611806949392916020019384526001600160a01b03928316602085015291166040830152606082015260800190565b61013554604051633664a8e960e01b815260009182916001600160a01b0390911690633664a8e99061263590899089906004016140fe565b602060405180830381865afa158015612652573d6000803e3d6000fd5b505050506040513d601f19601f820116820180604052508101906126769190614112565b6101355460405163e3ee9c4d60e01b8152600481018390523360248201529192506001600160a01b03169063e3ee9c4d90604401602060405180830381865afa1580156126c7573d6000803e3d6000fd5b505050506040513d601f19601f820116820180604052508101906126eb919061412b565b61272c5760405162461bcd60e51b815260206004820152601260248201527119da5d994e881d5b985d5d1a1bdc9a5e995960721b6044820152606401610768565b6108e0878787878786612de1565b612742612ce7565b6001600160a01b0381166127a75760405162461bcd60e51b815260206004820152602660248201527f4f776e61626c653a206e6577206f776e657220697320746865207a65726f206160448201526564647265737360d01b6064820152608401610768565b6109c781612d41565b60006127fd876127c189898961179e565b86868080601f016020809104026020016040519081016040528093929190818152602001838380828437600092019190915250612e9392505050565b6128575760405162461bcd60e51b815260206004820152602560248201527f6769766552657175657374656442616467653a20696e76616c6964207369676e604482015264617475726560d81b6064820152608401610768565b6108e0878787856129db565b6109c7612ce7565b7f4910fdfa16fed3260ed0e7147f7cc6da11a60208b5b9406d12a635614ffd91435460ff16156128a35761289e83613107565b505050565b826001600160a01b03166352d1902d6040518163ffffffff1660e01b8152600401602060405180830381865afa9250505080156128fd575060408051601f3d908101601f191682019092526128fa91810190614112565b60015b6129605760405162461bcd60e51b815260206004820152602e60248201527f45524331393637557067726164653a206e657720696d706c656d656e7461746960448201526d6f6e206973206e6f74205555505360901b6064820152608401610768565b60008051602061455283398151915281146129cf5760405162461bcd60e51b815260206004820152602960248201527f45524331393637557067726164653a20756e737570706f727465642070726f786044820152681a58589b195555525160ba1b6064820152608401610768565b5061289e8383836131a3565b6000806129e9868686611ba6565b600081815261013260205260409020549091506001600160a01b031615612a495760405162461bcd60e51b81526020600482015260146024820152736d696e743a20746f6b656e49442065786973747360601b6044820152606401610768565b6001600160a01b038616600090815261013460205260408120805491612a6e83614211565b909155505060008181526101326020908152604080832080546001600160a01b0319166001600160a01b038b161790556101339091529020612ab18587836143d5565b5060405181906001600160a01b038816906000907fddf252ad1be2c89b69c2b068fc378daa952ba7f163c4a11628f55a4df523b3ef908290a46101355460405163fb74926160e01b815260048101839052602481018590526001600160a01b039091169063fb74926190604401600060405180830381600087803b158015612b3857600080fd5b505af1158015612b4c573d6000803e3d6000fd5b509298975050505050505050565b612ba689612b6a8b8a8a88611e95565b87878080601f016020809104026020016040519081016040528093929190818152602001838380828437600092019190915250612e9392505050565b612c065760405162461bcd60e51b815260206004820152602b60248201527f73616665436865636b4d65726b6c6541677265656d656e743a20696e76616c6960448201526a64207369676e617475726560a81b6064820152608401610768565b6040516bffffffffffffffffffffffff1960608a901b166020820152600090603401604051602081830303815290604052805190602001209050612c808383808060200260200160405190810160405280939291908181526020018383602002808284376000920191909152508892508591506131ce9050565b612cdb5760405162461bcd60e51b815260206004820152602660248201527f73616665436865636b4d65726b6c6541677265656d656e743a20696e76616c6960448201526532103632b0b360d11b6064820152608401610768565b50505050505050505050565b60c9546001600160a01b0316331461141e5760405162461bcd60e51b815260206004820181905260248201527f4f776e61626c653a2063616c6c6572206973206e6f7420746865206f776e65726044820152606401610768565b60c980546001600160a01b038381166001600160a01b0319831681179093556040519116919082907f8be0079c531659141344cd1fd0a4f28419497f9722a3daafe3b4186f6b6457e090600090a35050565b6000610698612da06131e4565b8360405161190160f01b6020820152602281018390526042810182905260009060620160405160208183030381529060405280519060200120905092915050565b60006128573388888888885b612e3985612dfd8888888861258d565b84848080601f016020809104026020016040519081016040528093929190818152602001838380828437600092019190915250612e9392505050565b610b485760405162461bcd60e51b815260206004820152602560248201527f73616665436865636b41677265656d656e743a20696e76616c6964207369676e604482015264617475726560d81b6064820152608401610768565b6000806000612ea28585613220565b90925090506000816004811115612ebb57612ebb614495565b148015612ed95750856001600160a01b0316826001600160a01b0316145b15612ee957600192505050611824565b600080876001600160a01b0316631626ba7e60e01b8888604051602401612f119291906144ab565b60408051601f198184030181529181526020820180516001600160e01b03166001600160e01b0319909416939093179092529051612f4f91906144c4565b600060405180830381855afa9150503d8060008114612f8a576040519150601f19603f3d011682016040523d82523d6000602084013e612f8f565b606091505b5091509150818015612fa2575080516020145b8015612fc957508051630b135d3f60e11b90612fc79083016020908101908401614112565b145b98975050505050505050565b600081815261013260209081526040808320546001600160a01b031680845261013490925282208054919260019261300e9084906144e0565b909155505060008281526101326020908152604080832080546001600160a01b0319169055610133909152812061304491613644565b60405182906000906001600160a01b038416907fddf252ad1be2c89b69c2b068fc378daa952ba7f163c4a11628f55a4df523b3ef908390a45050565b600054610100900460ff1661141e5760405162461bcd60e51b8152600401610768906144f3565b600054610100900460ff166130ce5760405162461bcd60e51b8152600401610768906144f3565b61141e61328e565b600054610100900460ff166130fd5760405162461bcd60e51b8152600401610768906144f3565b61127882826132be565b6001600160a01b0381163b6131745760405162461bcd60e51b815260206004820152602d60248201527f455243313936373a206e657720696d706c656d656e746174696f6e206973206e60448201526c1bdd08184818dbdb9d1c9858dd609a1b6064820152608401610768565b60008051602061455283398151915280546001600160a01b0319166001600160a01b0392909216919091179055565b6131ac836132ff565b6000825111806131b95750805b1561289e576131c8838361333f565b50505050565b6000826131db8584613433565b14949350505050565b600061321b7f8b73c3c69bb8fe3d512ecc4cf759cc79239f7b179b0ffacaa9a75d522b39400f61321360fb5490565b60fc54613480565b905090565b60008082516041036132565760208301516040840151606085015160001a61324a878285856134af565b94509450505050613287565b825160400361327f576020830151604084015161327486838361359c565b935093505050613287565b506000905060025b9250929050565b600054610100900460ff166132b55760405162461bcd60e51b8152600401610768906144f3565b61141e33612d41565b600054610100900460ff166132e55760405162461bcd60e51b8152600401610768906144f3565b81516020928301208151919092012060fb9190915560fc55565b61330881613107565b6040516001600160a01b038216907fbc7cd75a20ee27fd9adebab32041f755214dbc6bffa90cc0225b39da2e5c2d3b90600090a250565b60606001600160a01b0383163b6133a75760405162461bcd60e51b815260206004820152602660248201527f416464726573733a2064656c65676174652063616c6c20746f206e6f6e2d636f6044820152651b9d1c9858dd60d21b6064820152608401610768565b600080846001600160a01b0316846040516133c291906144c4565b600060405180830381855af49150503d80600081146133fd576040519150601f19603f3d011682016040523d82523d6000602084013e613402565b606091505b509150915061342a8282604051806060016040528060278152602001614572602791396135d5565b95945050505050565b600081815b84518110156134785761346482868381518110613457576134576141e5565b60200260200101516135ee565b91508061347081614211565b915050613438565b509392505050565b6040805160208101859052908101839052606081018290524660808201523060a082015260009060c001611bbd565b6000807f7fffffffffffffffffffffffffffffff5d576e7357a4501ddfe92f46681b20a08311156134e65750600090506003613593565b8460ff16601b141580156134fe57508460ff16601c14155b1561350f5750600090506004613593565b6040805160008082526020820180845289905260ff881692820192909252606081018690526080810185905260019060a0016020604051602081039080840390855afa158015613563573d6000803e3d6000fd5b5050604051601f1901519150506001600160a01b03811661358c57600060019250925050613593565b9150600090505b94509492505050565b6000806001600160ff1b038316816135b960ff86901c601b61453e565b90506135c7878288856134af565b935093505050935093915050565b606083156135e4575081611824565b611824838361361a565b600081831061360a576000828152602084905260409020611824565b5060009182526020526040902090565b81511561362a5781518083602001fd5b8060405162461bcd60e51b8152600401610768919061370c565b5080546136509061406c565b6000825580601f10613660575050565b601f0160209004906000526020600020908101906109c791905b8082111561368e576000815560010161367a565b5090565b6000602082840312156136a457600080fd5b81356001600160e01b03198116811461182457600080fd5b60005b838110156136d75781810151838201526020016136bf565b50506000910152565b600081518084526136f88160208601602086016136bc565b601f01601f19169290920160200192915050565b60208152600061182460208301846136e0565b60006020828403121561373157600080fd5b5035919050565b6001600160a01b03811681146109c757600080fd5b803561375881613738565b919050565b60008083601f84011261376f57600080fd5b5081356001600160401b0381111561378657600080fd5b60208301915083602082850101111561328757600080fd5b6000806000806000606086880312156137b657600080fd5b85356137c181613738565b945060208601356001600160401b03808211156137dd57600080fd5b6137e989838a0161375d565b9096509450604088013591508082111561380257600080fd5b5061380f8882890161375d565b969995985093965092949392505050565b60006020828403121561383257600080fd5b813561182481613738565b60008083601f84011261384f57600080fd5b5081356001600160401b0381111561386657600080fd5b6020830191508360208260051b850101111561328757600080fd5b6000806000806040858703121561389757600080fd5b84356001600160401b03808211156138ae57600080fd5b6138ba8883890161383d565b909650945060208701359150808211156138d357600080fd5b506138e08782880161375d565b95989497509550505050565b60008060006040848603121561390157600080fd5b83356001600160401b0381111561391757600080fd5b6139238682870161375d565b909790965060209590950135949350505050565b60008060008060008060008060a0898b03121561395357600080fd5b883561395e81613738565b975060208901356001600160401b038082111561397a57600080fd5b6139868c838d0161375d565b909950975060408b013591508082111561399f57600080fd5b6139ab8c838d0161375d565b909750955060608b0135945060808b01359150808211156139cb57600080fd5b506139d88b828c0161383d565b999c989b5096995094979396929594505050565b634e487b7160e01b600052604160045260246000fd5b604051601f8201601f191681016001600160401b0381118282101715613a2a57613a2a6139ec565b604052919050565b600080600080600060608688031215613a4a57600080fd5b85356001600160401b0380821115613a6157600080fd5b818801915088601f830112613a7557600080fd5b8135602082821115613a8957613a896139ec565b8160051b613a98828201613a02565b928352848101820192828101908d851115613ab257600080fd5b958301955b84871015613adc5786359250613acc83613738565b8282529583019590830190613ab7565b9a50505089013592505080821115613af357600080fd5b613aff89838a0161375d565b90965094506040880135915080821115613b1857600080fd5b5061380f8882890161383d565b60008060408385031215613b3857600080fd5b8235613b4381613738565b91506020838101356001600160401b0380821115613b6057600080fd5b818601915086601f830112613b7457600080fd5b813581811115613b8657613b866139ec565b613b98601f8201601f19168501613a02565b91508082528784828501011115613bae57600080fd5b80848401858401376000848284010152508093505050509250929050565b600080600060608486031215613be157600080fd5b8335925060208401359150604084013560ff81168114613c0057600080fd5b809150509250925092565b60008060408385031215613c1e57600080fd5b50508035926020909101359150565b600080600060408486031215613c4257600080fd5b8335613c4d81613738565b925060208401356001600160401b03811115613c6857600080fd5b613c748682870161375d565b9497909650939450505050565b60008060008060008060608789031215613c9a57600080fd5b86356001600160401b0380821115613cb157600080fd5b613cbd8a838b0161383d565b90985096506020890135915080821115613cd657600080fd5b613ce28a838b0161375d565b90965094506040890135915080821115613cfb57600080fd5b50613d0889828a0161383d565b979a9699509497509295939492505050565b60008060008060008060008060a0898b031215613d3657600080fd5b8835613d4181613738565b97506020890135613d5181613738565b965060408901356001600160401b0380821115613d6d57600080fd5b613d798c838d0161375d565b909850965060608b0135915080821115613d9257600080fd5b613d9e8c838d0161375d565b909650945060808b0135915080821115613db757600080fd5b506139d88b828c0161375d565b60008060008060608587031215613dda57600080fd5b8435613de581613738565b935060208501356001600160401b03811115613e0057600080fd5b613e0c8782880161375d565b9598909750949560400135949350505050565b60008060208385031215613e3257600080fd5b82356001600160401b03811115613e4857600080fd5b613e548582860161383d565b90969095509350505050565b600080600080600080600080600080600060e08c8e031215613e8157600080fd5b613e8a8c61374d565b9a50613e9860208d0161374d565b99506001600160401b038060408e01351115613eb357600080fd5b613ec38e60408f01358f0161375d565b909a50985060608d0135811015613ed957600080fd5b613ee98e60608f01358f0161375d565b909850965060808d0135811015613eff57600080fd5b613f0f8e60808f01358f0161375d565b909650945060a08d0135935060c08d0135811015613f2c57600080fd5b50613f3d8d60c08e01358e0161383d565b81935080925050509295989b509295989b9093969950565b60008060008060008060008060a0898b031215613f7157600080fd5b88356001600160401b0380821115613f8857600080fd5b613f948c838d0161375d565b909a50985060208b0135915080821115613fad57600080fd5b613fb98c838d0161375d565b909850965060408b0135915080821115613fd257600080fd5b50613fdf8b828c0161375d565b9095509350506060890135613ff381613738565b9150608089013561400381613738565b809150509295985092959890939650565b6000806000806060858703121561402a57600080fd5b843561403581613738565b9350602085013561404581613738565b925060408501356001600160401b0381111561406057600080fd5b6138e08782880161375d565b600181811c9082168061408057607f821691505b60208210810361079257634e487b7160e01b600052602260045260246000fd5b6020808252818101527f746f6b656e4578697374733a20746f6b656e20646f65736e2774206578697374604082015260600190565b81835281816020850137506000828201602090810191909152601f909101601f19169091010190565b6020815260006118216020830184866140d5565b60006020828403121561412457600080fd5b5051919050565b60006020828403121561413d57600080fd5b8151801515811461182457600080fd5b6020808252602c908201527f46756e6374696f6e206d7573742062652063616c6c6564207468726f7567682060408201526b19195b1959d85d1958d85b1b60a21b606082015260800190565b6020808252602c908201527f46756e6374696f6e206d7573742062652063616c6c6564207468726f7567682060408201526b6163746976652070726f787960a01b606082015260800190565b634e487b7160e01b600052603260045260246000fd5b634e487b7160e01b600052601160045260246000fd5b600060018201614223576142236141fb565b5060010190565b60408152600061423e6040830185876140d5565b9050826020830152949350505050565b60006020828403121561426057600080fd5b815161182481613738565b6000808335601e1984360301811261428257600080fd5b8301803591506001600160401b0382111561429c57600080fd5b60200191503681900382131561328757600080fd5b8183823760009101908152919050565b6001600160a01b0384168152604060208201819052600090611f0490830184866140d5565b6040808252810183905260006060600585901b8301810190830186835b8781101561437657858403605f190183528135368a9003601e1901811261432957600080fd5b890160208181019135906001600160401b0382111561434757600080fd5b81360383131561435657600080fd5b6143618783856140d5565b96509485019493909301925050600101614303565b5050506001600160a01b03841660208401529050611f07565b601f82111561289e57600081815260208120601f850160051c810160208610156143b65750805b601f850160051c820191505b81811015610b48578281556001016143c2565b6001600160401b038311156143ec576143ec6139ec565b614400836143fa835461406c565b8361438f565b6000601f841160018114614434576000851561441c5750838201355b600019600387901b1c1916600186901b17835561448e565b600083815260209020601f19861690835b828110156144655786850135825560209485019460019092019101614445565b50868210156144825760001960f88860031b161c19848701351681555b505060018560011b0183555b5050505050565b634e487b7160e01b600052602160045260246000fd5b82815260406020820152600061182160408301846136e0565b600082516144d68184602087016136bc565b9190910192915050565b81810381811115610698576106986141fb565b6020808252602b908201527f496e697469616c697a61626c653a20636f6e7472616374206973206e6f74206960408201526a6e697469616c697a696e6760a81b606082015260800190565b80820180821115610698576106986141fb56fe360894a13ba1a3210667c828492db98dca3e2076cc3735a920a3ca505d382bbc416464726573733a206c6f772d6c6576656c2064656c65676174652063616c6c206661696c6564a2646970667358221220237f003fef87b4e06a5f16eace83897e50f583762ed45266b3777d22dfc0c58564736f6c63430008100033",
    "linkReferences": {}
  },
  "methodIdentifiers": {
    "airdrop(address[],string)": "39ae37c0",
    "balanceOf(address)": "70a08231",
    "createSpec(string,uint256)": "445a62b9",
    "getAgreementHash(address,address,string)": "e4992506",
    "getBadgeIdHash(address,string)": "a8cf8683",
    "getDataHolderAddress()": "635ad993",
    "getMerkleAgreementHash(address,string,bytes32)": "bd6645e4",
    "getRequestHash(address,string)": "8339a133",
    "give(address,string,bytes)": "ec64948e",
    "giveRequestedBadge(address,string,bytes)": "1766c038",
    "giveRequestedBadgeToMany(address[],string,bytes[])": "4a50b376",
    "giveToMany(address[],string,bytes[])": "a32c9c7a",
    "initialize(string,string,string,address,address)": "d6d0faee",
    "isBadgeValid(uint256)": "0f4d9b01",
    "merkleMintWithConsent(address,address,string,bytes,bytes,bytes32,bytes32[])": "c7a35fed",
    "merkleTake(address,string,bytes,bytes32,bytes32[])": "4a086b53",
    "mintWithConsent(address,address,string,bytes,bytes)": "bc4b5447",
    "name()": "06fdde03",
    "owner()": "8da5cb5b",
    "ownerOf(uint256)": "6352211e",
    "proxiableUUID()": "52d1902d",
    "refreshMetadata(string[])": "bdbdbcbf",
    "reinstateBadge(uint256,uint256)": "80956c7e",
    "renounceOwnership()": "715018a6",
    "revokeBadge(uint256,uint256,uint8)": "7c402f8d",
    "setDataHolder(address)": "c0184112",
    "supportsInterface(bytes4)": "01ffc9a7",
    "symbol()": "95d89b41",
    "take(address,string,bytes)": "a3947803",
    "tokenURI(uint256)": "c87b56dd",
    "transferOwnership(address)": "f2fde38b",
    "unequip(uint256)": "d179e3d0",
    "upgradeTo(address)": "3659cfe6",
    "upgradeToAndCall(address,bytes)": "4f1ef286"
  },
  "id": 44
}