{
  "abi": [
    {
      "inputs": [],
      "stateMutability": "nonpayable",
      "type": "constructor"
    },
    {
      "anonymous": false,
      "inputs": [
        {
          "indexed": false,
          "internalType": "address",
          "name": "previousAdmin",
          "type": "address"
        },
        {
          "indexed": false,
          "internalType": "address",
          "name": "newAdmin",
          "type": "address"
        }
      ],
      "name": "AdminChanged",
      "type": "event"
    },
    {
      "anonymous": false,
      "inputs": [
        {
          "indexed": true,
          "internalType": "uint256",
          "name": "tokenId",
          "type": "uint256"
        },
        {
          "indexed": true,
          "internalType": "address",
          "name": "from",
          "type": "address"
        }
      ],
      "name": "BadgeReinstated",
      "type": "event"
    },
    {
      "anonymous": false,
      "inputs": [
        {
          "indexed": true,
          "internalType": "uint256",
          "name": "tokenId",
          "type": "uint256"
        },
        {
          "indexed": true,
          "internalType": "address",
          "name": "from",
          "type": "address"
        },
        {
          "indexed": true,
          "internalType": "uint8",
          "name": "reason",
          "type": "uint8"
        }
      ],
      "name": "BadgeRevoked",
      "type": "event"
    },
    {
      "anonymous": false,
      "inputs": [
        {
          "indexed": true,
          "internalType": "address",
          "name": "beacon",
          "type": "address"
        }
      ],
      "name": "BeaconUpgraded",
      "type": "event"
    },
    {
      "anonymous": false,
      "inputs": [
        {
          "indexed": false,
          "internalType": "uint8",
          "name": "version",
          "type": "uint8"
        }
      ],
      "name": "Initialized",
      "type": "event"
    },
    {
      "anonymous": false,
      "inputs": [
        {
          "indexed": false,
          "internalType": "uint256",
          "name": "tokenId",
          "type": "uint256"
        }
      ],
      "name": "Locked",
      "type": "event"
    },
    {
      "anonymous": false,
      "inputs": [
        {
          "indexed": true,
          "internalType": "address",
          "name": "previousOwner",
          "type": "address"
        },
        {
          "indexed": true,
          "internalType": "address",
          "name": "newOwner",
          "type": "address"
        }
      ],
      "name": "OwnershipTransferred",
      "type": "event"
    },
    {
      "anonymous": false,
      "inputs": [
        {
          "indexed": false,
          "internalType": "string[]",
          "name": "specUris",
          "type": "string[]"
        },
        {
          "indexed": false,
          "internalType": "address",
          "name": "sender",
          "type": "address"
        }
      ],
      "name": "RefreshMetadata",
      "type": "event"
    },
    {
      "anonymous": false,
      "inputs": [
        {
          "indexed": true,
          "internalType": "address",
          "name": "to",
          "type": "address"
        },
        {
          "indexed": false,
          "internalType": "string",
          "name": "specUri",
          "type": "string"
        },
        {
          "indexed": true,
          "internalType": "uint256",
          "name": "raftTokenId",
          "type": "uint256"
        },
        {
          "indexed": true,
          "internalType": "address",
          "name": "raftAddress",
          "type": "address"
        }
      ],
      "name": "SpecCreated",
      "type": "event"
    },
    {
      "anonymous": false,
      "inputs": [
        {
          "indexed": true,
          "internalType": "address",
          "name": "from",
          "type": "address"
        },
        {
          "indexed": true,
          "internalType": "address",
          "name": "to",
          "type": "address"
        },
        {
          "indexed": true,
          "internalType": "uint256",
          "name": "tokenId",
          "type": "uint256"
        }
      ],
      "name": "Transfer",
      "type": "event"
    },
    {
      "anonymous": false,
      "inputs": [
        {
          "indexed": false,
          "internalType": "uint256",
          "name": "tokenId",
          "type": "uint256"
        }
      ],
      "name": "Unlocked",
      "type": "event"
    },
    {
      "anonymous": false,
      "inputs": [
        {
          "indexed": true,
          "internalType": "address",
          "name": "implementation",
          "type": "address"
        }
      ],
      "name": "Upgraded",
      "type": "event"
    },
    {
      "inputs": [
        {
          "internalType": "address",
          "name": "_owner",
          "type": "address"
        }
      ],
      "name": "balanceOf",
      "outputs": [
        {
          "internalType": "uint256",
          "name": "",
          "type": "uint256"
        }
      ],
      "stateMutability": "view",
      "type": "function"
    },
    {
      "inputs": [
        {
          "internalType": "string",
          "name": "_specUri",
          "type": "string"
        },
        {
          "internalType": "uint256",
          "name": "_raftTokenId",
          "type": "uint256"
        }
      ],
      "name": "createSpec",
      "outputs": [],
      "stateMutability": "nonpayable",
      "type": "function"
    },
    {
      "inputs": [
        {
          "internalType": "address",
          "name": "_from",
          "type": "address"
        },
        {
          "internalType": "address",
          "name": "_to",
          "type": "address"
        },
        {
          "internalType": "string",
          "name": "_uri",
          "type": "string"
        }
      ],
      "name": "getAgreementHash",
      "outputs": [
        {
          "internalType": "bytes32",
          "name": "",
          "type": "bytes32"
        }
      ],
      "stateMutability": "view",
      "type": "function"
    },
    {
      "inputs": [
        {
          "internalType": "address",
          "name": "_to",
          "type": "address"
        },
        {
          "internalType": "string",
          "name": "_uri",
          "type": "string"
        }
      ],
      "name": "getBadgeIdHash",
      "outputs": [
        {
          "internalType": "bytes32",
          "name": "",
          "type": "bytes32"
        }
      ],
      "stateMutability": "view",
      "type": "function"
    },
    {
      "inputs": [],
      "name": "getDataHolderAddress",
      "outputs": [
        {
          "internalType": "address",
          "name": "",
          "type": "address"
        }
      ],
      "stateMutability": "view",
      "type": "function"
    },
    {
      "inputs": [
        {
          "internalType": "uint256",
          "name": "_tokenId",
          "type": "uint256"
        }
      ],
      "name": "getVoucherHash",
      "outputs": [
        {
          "internalType": "uint256",
          "name": "",
          "type": "uint256"
        }
      ],
      "stateMutability": "view",
      "type": "function"
    },
    {
      "inputs": [
        {
          "internalType": "address",
          "name": "_to",
          "type": "address"
        },
        {
          "internalType": "string",
          "name": "_uri",
          "type": "string"
        },
        {
          "internalType": "bytes",
          "name": "_signature",
          "type": "bytes"
        }
      ],
      "name": "give",
      "outputs": [
        {
          "internalType": "uint256",
          "name": "",
          "type": "uint256"
        }
      ],
      "stateMutability": "nonpayable",
      "type": "function"
    },
    {
      "inputs": [
        {
          "internalType": "string",
          "name": "_name",
          "type": "string"
        },
        {
          "internalType": "string",
          "name": "_symbol",
          "type": "string"
        },
        {
          "internalType": "string",
          "name": "_version",
          "type": "string"
        },
        {
          "internalType": "address",
          "name": "_nextOwner",
          "type": "address"
        },
        {
          "internalType": "address",
          "name": "_specDataHolderAddress",
          "type": "address"
        }
      ],
      "name": "initialize",
      "outputs": [],
      "stateMutability": "nonpayable",
      "type": "function"
    },
    {
      "inputs": [
        {
          "internalType": "uint256",
          "name": "_badgeId",
          "type": "uint256"
        }
      ],
      "name": "isBadgeValid",
      "outputs": [
        {
          "internalType": "bool",
          "name": "",
          "type": "bool"
        }
      ],
      "stateMutability": "view",
      "type": "function"
    },
    {
      "inputs": [
        {
          "internalType": "uint256",
          "name": "",
          "type": "uint256"
        }
      ],
      "name": "locked",
      "outputs": [
        {
          "internalType": "bool",
          "name": "",
          "type": "bool"
        }
      ],
      "stateMutability": "pure",
      "type": "function"
    },
    {
      "inputs": [],
      "name": "name",
      "outputs": [
        {
          "internalType": "string",
          "name": "",
          "type": "string"
        }
      ],
      "stateMutability": "view",
      "type": "function"
    },
    {
      "inputs": [],
      "name": "owner",
      "outputs": [
        {
          "internalType": "address",
          "name": "",
          "type": "address"
        }
      ],
      "stateMutability": "view",
      "type": "function"
    },
    {
      "inputs": [
        {
          "internalType": "uint256",
          "name": "_tokenId",
          "type": "uint256"
        }
      ],
      "name": "ownerOf",
      "outputs": [
        {
          "internalType": "address",
          "name": "",
          "type": "address"
        }
      ],
      "stateMutability": "view",
      "type": "function"
    },
    {
      "inputs": [],
      "name": "proxiableUUID",
      "outputs": [
        {
          "internalType": "bytes32",
          "name": "",
          "type": "bytes32"
        }
      ],
      "stateMutability": "view",
      "type": "function"
    },
    {
      "inputs": [
        {
          "internalType": "string[]",
          "name": "_specUris",
          "type": "string[]"
        }
      ],
      "name": "refreshMetadata",
      "outputs": [],
      "stateMutability": "nonpayable",
      "type": "function"
    },
    {
      "inputs": [
        {
          "internalType": "uint256",
          "name": "_raftTokenId",
          "type": "uint256"
        },
        {
          "internalType": "uint256",
          "name": "_badgeId",
          "type": "uint256"
        }
      ],
      "name": "reinstateBadge",
      "outputs": [],
      "stateMutability": "nonpayable",
      "type": "function"
    },
    {
      "inputs": [],
      "name": "renounceOwnership",
      "outputs": [],
      "stateMutability": "nonpayable",
      "type": "function"
    },
    {
      "inputs": [
        {
          "internalType": "uint256",
          "name": "_raftTokenId",
          "type": "uint256"
        },
        {
          "internalType": "uint256",
          "name": "_badgeId",
          "type": "uint256"
        },
        {
          "internalType": "uint8",
          "name": "_reason",
          "type": "uint8"
        }
      ],
      "name": "revokeBadge",
      "outputs": [],
      "stateMutability": "nonpayable",
      "type": "function"
    },
    {
      "inputs": [
        {
          "internalType": "address",
          "name": "_dataHolder",
          "type": "address"
        }
      ],
      "name": "setDataHolder",
      "outputs": [],
      "stateMutability": "nonpayable",
      "type": "function"
    },
    {
      "inputs": [
        {
          "internalType": "bytes4",
          "name": "_interfaceId",
          "type": "bytes4"
        }
      ],
      "name": "supportsInterface",
      "outputs": [
        {
          "internalType": "bool",
          "name": "",
          "type": "bool"
        }
      ],
      "stateMutability": "view",
      "type": "function"
    },
    {
      "inputs": [],
      "name": "symbol",
      "outputs": [
        {
          "internalType": "string",
          "name": "",
          "type": "string"
        }
      ],
      "stateMutability": "view",
      "type": "function"
    },
    {
      "inputs": [
        {
          "internalType": "address",
          "name": "_from",
          "type": "address"
        },
        {
          "internalType": "string",
          "name": "_uri",
          "type": "string"
        },
        {
          "internalType": "bytes",
          "name": "_signature",
          "type": "bytes"
        }
      ],
      "name": "take",
      "outputs": [
        {
          "internalType": "uint256",
          "name": "",
          "type": "uint256"
        }
      ],
      "stateMutability": "nonpayable",
      "type": "function"
    },
    {
      "inputs": [
        {
          "internalType": "uint256",
          "name": "_tokenId",
          "type": "uint256"
        }
      ],
      "name": "tokenURI",
      "outputs": [
        {
          "internalType": "string",
          "name": "",
          "type": "string"
        }
      ],
      "stateMutability": "view",
      "type": "function"
    },
    {
      "inputs": [
        {
          "internalType": "address",
          "name": "newOwner",
          "type": "address"
        }
      ],
      "name": "transferOwnership",
      "outputs": [],
      "stateMutability": "nonpayable",
      "type": "function"
    },
    {
      "inputs": [
        {
          "internalType": "uint256",
          "name": "_tokenId",
          "type": "uint256"
        }
      ],
      "name": "unequip",
      "outputs": [],
      "stateMutability": "nonpayable",
      "type": "function"
    },
    {
      "inputs": [
        {
          "internalType": "address",
          "name": "newImplementation",
          "type": "address"
        }
      ],
      "name": "upgradeTo",
      "outputs": [],
      "stateMutability": "nonpayable",
      "type": "function"
    },
    {
      "inputs": [
        {
          "internalType": "address",
          "name": "newImplementation",
          "type": "address"
        },
        {
          "internalType": "bytes",
          "name": "data",
          "type": "bytes"
        }
      ],
      "name": "upgradeToAndCall",
      "outputs": [],
      "stateMutability": "payable",
      "type": "function"
    }
  ],
  "bytecode": {
    "object": "0x60a0604052306080523480156200001557600080fd5b506200002062000026565b620000e8565b600054610100900460ff1615620000935760405162461bcd60e51b815260206004820152602760248201527f496e697469616c697a61626c653a20636f6e747261637420697320696e697469604482015266616c697a696e6760c81b606482015260840160405180910390fd5b60005460ff9081161015620000e6576000805460ff191660ff9081179091556040519081527f7f26b83ff96e1f2b6a682f133852f6798a09c465da95921460cefb38474024989060200160405180910390a15b565b608051612f7a6200012060003960008181610674015281816106b401528181610a2f01528181610a6f0152610b020152612f7a6000f3fe60806040526004361061019c5760003560e01c806380956c7e116100ec578063c01841121161008a578063d6d0faee11610064578063d6d0faee1461049e578063e4992506146104be578063ec64948e146104de578063f2fde38b146104fe57600080fd5b8063c01841121461043e578063c87b56dd1461045e578063d179e3d01461047e57600080fd5b8063a3947803116100c6578063a3947803146103bd578063a8cf8683146103dd578063b45a3c0e146103fd578063bdbdbcbf1461041e57600080fd5b806380956c7e1461036a5780638da5cb5b1461038a57806395d89b41146103a857600080fd5b80634f1ef28611610159578063635ad99311610133578063635ad993146102f657806370a0823114610315578063715018a6146103355780637c402f8d1461034a57600080fd5b80634f1ef2861461029657806352d1902d146102a95780636352211e146102be57600080fd5b806301ffc9a7146101a157806306fdde03146101d65780630f4d9b01146101f85780633659cfe6146102185780633b363a091461023a578063445a62b914610276575b600080fd5b3480156101ad57600080fd5b506101c16101bc366004612543565b61051e565b60405190151581526020015b60405180910390f35b3480156101e257600080fd5b506101eb610570565b6040516101cd91906125bd565b34801561020457600080fd5b506101c16102133660046125d0565b610603565b34801561022457600080fd5b506102386102333660046125fe565b61066a565b005b34801561024657600080fd5b506102686102553660046125d0565b6000908152610136602052604090205490565b6040519081526020016101cd565b34801561028257600080fd5b506102386102913660046126da565b610749565b6102386102a436600461271f565b610a25565b3480156102b557600080fd5b50610268610af5565b3480156102ca57600080fd5b506102de6102d93660046125d0565b610ba8565b6040516001600160a01b0390911681526020016101cd565b34801561030257600080fd5b50610135546001600160a01b03166102de565b34801561032157600080fd5b506102686103303660046125fe565b610bfd565b34801561034157600080fd5b50610238610c88565b34801561035657600080fd5b50610238610365366004612783565b610c9c565b34801561037657600080fd5b506102386103853660046127c2565b610e86565b34801561039657600080fd5b5060c9546001600160a01b03166102de565b3480156103b457600080fd5b506101eb611069565b3480156103c957600080fd5b506102686103d8366004612826565b611079565b3480156103e957600080fd5b506102686103f83660046128a9565b611166565b34801561040957600080fd5b506101c16104183660046125d0565b50600190565b34801561042a57600080fd5b506102386104393660046128ef565b611199565b34801561044a57600080fd5b506102386104593660046125fe565b61123d565b34801561046a57600080fd5b506101eb6104793660046125d0565b611268565b34801561048a57600080fd5b506102386104993660046125d0565b61136f565b3480156104aa57600080fd5b506102386104b93660046129b2565b61144b565b3480156104ca57600080fd5b506102686104d9366004612a62565b6115bc565b3480156104ea57600080fd5b506102686104f9366004612826565b611655565b34801561050a57600080fd5b506102386105193660046125fe565b611703565b60006001600160e01b03198216635b5e139f60e01b148061054f57506001600160e01b031982166346bdd63960e11b145b8061056a57506301ffc9a760e01b6001600160e01b03198316145b92915050565b6060610130805461058090612ac7565b80601f01602080910402602001604051908101604052809291908181526020018280546105ac90612ac7565b80156105f95780601f106105ce576101008083540402835291602001916105f9565b820191906000526020600020905b8154815290600101906020018083116105dc57829003601f168201915b5050505050905090565b6000818152610132602052604081205482906001600160a01b03166106435760405162461bcd60e51b815260040161063a90612afb565b60405180910390fd5b600883901c60009081526101376020526040902054600160ff85161b161591505b50919050565b6001600160a01b037f00000000000000000000000000000000000000000000000000000000000000001630036106b25760405162461bcd60e51b815260040161063a90612b30565b7f00000000000000000000000000000000000000000000000000000000000000006001600160a01b03166106fb600080516020612efe833981519152546001600160a01b031690565b6001600160a01b0316146107215760405162461bcd60e51b815260040161063a90612b7c565b61072a81611779565b6040805160008082526020820190925261074691839190611781565b50565b806040518060400160405280600a8152602001696372656174655370656360b01b8152506000816040516020016107809190612bc8565b60408051808303601f19018152908290526101355463b2a0cb6b60e01b83526004830186905290925033916001600160a01b039091169063b2a0cb6b90602401602060405180830381865afa1580156107dd573d6000803e3d6000fd5b505050506040513d601f19601f820116820180604052508101906108019190612bfa565b6001600160a01b031614819061082a5760405162461bcd60e51b815260040161063a91906125bd565b5061013554604051637e07102760e11b81526001600160a01b039091169063fc0e204e9061085c9088906004016125bd565b602060405180830381865afa158015610879573d6000803e3d6000fd5b505050506040513d601f19601f8201168201806040525081019061089d9190612c17565b156108f65760405162461bcd60e51b815260206004820152602360248201527f637265617465537065633a207370656320616c726561647920726567697374656044820152621c995960ea1b606482015260840161063a565b6101355460405163addd190760e01b81526001600160a01b039091169063addd1907906109299088908890600401612c39565b600060405180830381600087803b15801561094357600080fd5b505af1158015610957573d6000803e3d6000fd5b5050505061013560009054906101000a90046001600160a01b03166001600160a01b03166334f876626040518163ffffffff1660e01b8152600401602060405180830381865afa1580156109af573d6000803e3d6000fd5b505050506040513d601f19601f820116820180604052508101906109d39190612bfa565b6001600160a01b031684336001600160a01b03167f68c7f8503283c455a4445b54a7d5c40656c8cae5cca0583c6d4be8369847870088604051610a1691906125bd565b60405180910390a45050505050565b6001600160a01b037f0000000000000000000000000000000000000000000000000000000000000000163003610a6d5760405162461bcd60e51b815260040161063a90612b30565b7f00000000000000000000000000000000000000000000000000000000000000006001600160a01b0316610ab6600080516020612efe833981519152546001600160a01b031690565b6001600160a01b031614610adc5760405162461bcd60e51b815260040161063a90612b7c565b610ae582611779565b610af182826001611781565b5050565b6000306001600160a01b037f00000000000000000000000000000000000000000000000000000000000000001614610b955760405162461bcd60e51b815260206004820152603860248201527f555550535570677261646561626c653a206d757374206e6f742062652063616c60448201527f6c6564207468726f7567682064656c656761746563616c6c0000000000000000606482015260840161063a565b50600080516020612efe83398151915290565b6000818152610132602052604081205482906001600160a01b0316610bdf5760405162461bcd60e51b815260040161063a90612afb565b5050600090815261013260205260409020546001600160a01b031690565b60006001600160a01b038216610c6b5760405162461bcd60e51b815260206004820152602d60248201527f62616c616e63654f663a2061646472657373207a65726f206973206e6f74206160448201526c2076616c6964206f776e65725f60981b606482015260840161063a565b506001600160a01b03166000908152610134602052604090205490565b610c906118ec565b610c9a6000611946565b565b6000828152610132602052604090205482906001600160a01b0316610cd35760405162461bcd60e51b815260040161063a90612afb565b836040518060400160405280600b81526020016a7265766f6b65426164676560a81b815250600081604051602001610d0b9190612bc8565b60408051808303601f19018152908290526101355463b2a0cb6b60e01b83526004830186905290925033916001600160a01b039091169063b2a0cb6b90602401602060405180830381865afa158015610d68573d6000803e3d6000fd5b505050506040513d601f19601f82011682018060405250810190610d8c9190612bfa565b6001600160a01b0316148190610db55760405162461bcd60e51b815260040161063a91906125bd565b50600886901c60009081526101376020526040902054600160ff88161b1615610e2b5760405162461bcd60e51b815260206004820152602260248201527f7265766f6b6542616467653a20626164676520616c7265616479207265766f6b604482015261195960f21b606482015260840161063a565b600886901c6000908152610137602052604090208054600160ff89161b17905560405160ff861690339088907ffa784c48260e8db512de5f055a2f29eced211a7b3bd6338058b095ada7354cee90600090a450505050505050565b6000818152610132602052604090205481906001600160a01b0316610ebd5760405162461bcd60e51b815260040161063a90612afb565b826040518060400160405280600e81526020016d7265696e7374617465426164676560901b815250600081604051602001610ef89190612bc8565b60408051808303601f19018152908290526101355463b2a0cb6b60e01b83526004830186905290925033916001600160a01b039091169063b2a0cb6b90602401602060405180830381865afa158015610f55573d6000803e3d6000fd5b505050506040513d601f19601f82011682018060405250810190610f799190612bfa565b6001600160a01b0316148190610fa25760405162461bcd60e51b815260040161063a91906125bd565b50600885901c60009081526101376020526040902054600160ff87161b166110165760405162461bcd60e51b815260206004820152602160248201527f7265696e737461746542616467653a206261646765206e6f74207265766f6b656044820152601960fa1b606482015260840161063a565b600885901c600090815261013760205260408082208054600160ff8a161b1916905551339187917f7f8cf9ecf2a5225948f8a1601709cedc8471c52ee75a8174c9845c29c99ed9a29190a3505050505050565b6060610131805461058090612ac7565b60006001600160a01b03861633036110d35760405162461bcd60e51b815260206004820152601b60248201527f74616b653a2063616e6e6f742074616b652066726f6d2073656c660000000000604482015260640161063a565b60006110e3338888888888611998565b905060006111273388888080601f016020809104026020016040519081016040528093929190818152602001838380828437600092019190915250611ac292505050565b600883901c600090815261012f602052604090208054600160ff86161b1790559050600081815261013660205260409020919091559695505050505050565b6000828260405160200161117b929190612c5b565b60405160208183030381529060405280519060200120905092915050565b6111a16118ec565b60008151116112015760405162461bcd60e51b815260206004820152602660248201527f726566726573684d657461646174613a206e6f207370656320757269732070726044820152651bdd9a59195960d21b606482015260840161063a565b7f2231d988b1a75dccab13dee3564b71a551900e822e94177a96f19561890c0fd58133604051611232929190612c87565b60405180910390a150565b6112456118ec565b61013580546001600160a01b0319166001600160a01b0392909216919091179055565b600081815261013260205260409020546060906001600160a01b03166112d05760405162461bcd60e51b815260206004820152601d60248201527f746f6b656e5552493a20746f6b656e20646f65736e2774206578697374000000604482015260640161063a565b60008281526101336020526040902080546112ea90612ac7565b80601f016020809104026020016040519081016040528092919081815260200182805461131690612ac7565b80156113635780601f1061133857610100808354040283529160200191611363565b820191906000526020600020905b81548152906001019060200180831161134657829003601f168201915b50505050509050919050565b6000818152610132602052604090205481906001600160a01b03166113a65760405162461bcd60e51b815260040161063a90612afb565b600082815261013260205260409020546001600160a01b0316331461140d5760405162461bcd60e51b815260206004820152601d60248201527f756e65717569703a2073656e646572206d757374206265206f776e6572000000604482015260640161063a565b60008281526101366020908152604080832054600881901c845261012f9092529091208054600160ff84161b1916905561144683611d40565b505050565b600054610100900460ff161580801561146b5750600054600160ff909116105b806114855750303b158015611485575060005460ff166001145b6114e85760405162461bcd60e51b815260206004820152602e60248201527f496e697469616c697a61626c653a20636f6e747261637420697320616c72656160448201526d191e481a5b9a5d1a585b1a5e995960921b606482015260840161063a565b6000805460ff19166001179055801561150b576000805461ff0019166101001790555b6101306115188782612d42565b506101316115268682612d42565b5061013580546001600160a01b0319166001600160a01b03841617905561154b611e2d565b611553611e54565b61155d8685611e83565b611565611e2d565b61156e83611703565b80156115b4576000805461ff0019169055604051600181527f7f26b83ff96e1f2b6a682f133852f6798a09c465da95921460cefb38474024989060200160405180910390a15b505050505050565b6000807fe76a195fbe43f0eaa611595069f780493db2202a1cc4b2d7d44b47069812998a868686866040516115f2929190612e02565b60405190819003812061162a949392916020019384526001600160a01b03928316602085015291166040830152606082015260800190565b60405160208183030381529060405280519060200120905061164b81611eb4565b9695505050505050565b60006001600160a01b03861633036116af5760405162461bcd60e51b815260206004820152601b60248201527f676976653a2063616e6e6f7420676976652066726f6d2073656c660000000000604482015260640161063a565b60006116bf338888888888611998565b905060006111278888888080601f016020809104026020016040519081016040528093929190818152602001838380828437600092019190915250611ac292505050565b61170b6118ec565b6001600160a01b0381166117705760405162461bcd60e51b815260206004820152602660248201527f4f776e61626c653a206e6577206f776e657220697320746865207a65726f206160448201526564647265737360d01b606482015260840161063a565b61074681611946565b6107466118ec565b7f4910fdfa16fed3260ed0e7147f7cc6da11a60208b5b9406d12a635614ffd91435460ff16156117b45761144683611ec7565b826001600160a01b03166352d1902d6040518163ffffffff1660e01b8152600401602060405180830381865afa92505050801561180e575060408051601f3d908101601f1916820190925261180b91810190612e12565b60015b6118715760405162461bcd60e51b815260206004820152602e60248201527f45524331393637557067726164653a206e657720696d706c656d656e7461746960448201526d6f6e206973206e6f74205555505360901b606482015260840161063a565b600080516020612efe83398151915281146118e05760405162461bcd60e51b815260206004820152602960248201527f45524331393637557067726164653a20756e737570706f727465642070726f786044820152681a58589b195555525160ba1b606482015260840161063a565b50611446838383611f63565b60c9546001600160a01b03163314610c9a5760405162461bcd60e51b815260206004820181905260248201527f4f776e61626c653a2063616c6c6572206973206e6f7420746865206f776e6572604482015260640161063a565b60c980546001600160a01b038381166001600160a01b0319831681179093556040519116919082907f8be0079c531659141344cd1fd0a4f28419497f9722a3daafe3b4186f6b6457e090600090a35050565b6000806119a7888888886115bc565b905060008160001c90506119f2888387878080601f016020809104026020016040519081016040528093929190818152602001838380828437600092019190915250611f8e92505050565b611a4c5760405162461bcd60e51b815260206004820152602560248201527f73616665436865636b41677265656d656e743a20696e76616c6964207369676e604482015264617475726560d81b606482015260840161063a565b600881901c600090815261012f6020526040902054600160ff83161b1615611ab65760405162461bcd60e51b815260206004820181905260248201527f73616665436865636b41677265656d656e743a20616c72656164792075736564604482015260640161063a565b98975050505050505050565b61013554604051633664a8e960e01b815260009182916001600160a01b0390911690633664a8e990611af89086906004016125bd565b602060405180830381865afa158015611b15573d6000803e3d6000fd5b505050506040513d601f19601f82011682018060405250810190611b399190612e12565b90506000611b478585611166565b9050806000839003611b9b5760405162461bcd60e51b815260206004820152601c60248201527f6d696e743a2073706563206973206e6f74207265676973746572656400000000604482015260640161063a565b600081815261013260205260409020546001600160a01b031615611bf85760405162461bcd60e51b81526020600482015260146024820152736d696e743a20746f6b656e49442065786973747360601b604482015260640161063a565b6001600160a01b038616600090815261013460205260408120805460019290611c22908490612e41565b909155505060008181526101326020908152604080832080546001600160a01b0319166001600160a01b038b161790556101339091529020611c648682612d42565b5060405181906001600160a01b038816906000907fddf252ad1be2c89b69c2b068fc378daa952ba7f163c4a11628f55a4df523b3ef908290a46040518181527f032bc66be43dbccb7487781d168eb7bda224628a3b2c3388bdf69b532a3a16119060200160405180910390a16101355460405163fb74926160e01b815260048101839052602481018590526001600160a01b039091169063fb74926190604401600060405180830381600087803b158015611d1e57600080fd5b505af1158015611d32573d6000803e3d6000fd5b509298975050505050505050565b600081815261013260209081526040808320546001600160a01b0316808452610134909252822080549192600192611d79908490612e54565b909155505060008281526101326020908152604080832080546001600160a01b03191690556101339091528120611daf916124f5565b60008281526101366020526040808220829055518391906001600160a01b038416907fddf252ad1be2c89b69c2b068fc378daa952ba7f163c4a11628f55a4df523b3ef908390a46040518281527ff27b6ce5b2f5e68ddb2fd95a8a909d4ecf1daaac270935fff052feacb24f18429060200160405180910390a15050565b600054610100900460ff16610c9a5760405162461bcd60e51b815260040161063a90612e67565b600054610100900460ff16611e7b5760405162461bcd60e51b815260040161063a90612e67565b610c9a6120d2565b600054610100900460ff16611eaa5760405162461bcd60e51b815260040161063a90612e67565b610af18282612102565b600061056a611ec1612143565b836121c3565b6001600160a01b0381163b611f345760405162461bcd60e51b815260206004820152602d60248201527f455243313936373a206e657720696d706c656d656e746174696f6e206973206e60448201526c1bdd08184818dbdb9d1c9858dd609a1b606482015260840161063a565b600080516020612efe83398151915280546001600160a01b0319166001600160a01b0392909216919091179055565b611f6c836121ea565b600082511180611f795750805b1561144657611f88838361222a565b50505050565b6000806000611f9d858561231e565b90925090506000816004811115611fb657611fb6612eb2565b148015611fd45750856001600160a01b0316826001600160a01b0316145b15611fe4576001925050506120cb565b600080876001600160a01b0316631626ba7e60e01b888860405160240161200c929190612ec8565b60408051601f198184030181529181526020820180516001600160e01b03166001600160e01b031990941693909317909252905161204a9190612ee1565b600060405180830381855afa9150503d8060008114612085576040519150601f19603f3d011682016040523d82523d6000602084013e61208a565b606091505b509150915081801561209d575080516020145b80156120c457508051630b135d3f60e11b906120c29083016020908101908401612e12565b145b9450505050505b9392505050565b600054610100900460ff166120f95760405162461bcd60e51b815260040161063a90612e67565b610c9a33611946565b600054610100900460ff166121295760405162461bcd60e51b815260040161063a90612e67565b81516020928301208151919092012060fb9190915560fc55565b60006121be7f8b73c3c69bb8fe3d512ecc4cf759cc79239f7b179b0ffacaa9a75d522b39400f61217260fb5490565b60fc546040805160208101859052908101839052606081018290524660808201523060a082015260009060c0016040516020818303038152906040528051906020012090509392505050565b905090565b60405161190160f01b6020820152602281018390526042810182905260009060620161117b565b6121f381611ec7565b6040516001600160a01b038216907fbc7cd75a20ee27fd9adebab32041f755214dbc6bffa90cc0225b39da2e5c2d3b90600090a250565b60606001600160a01b0383163b6122925760405162461bcd60e51b815260206004820152602660248201527f416464726573733a2064656c65676174652063616c6c20746f206e6f6e2d636f6044820152651b9d1c9858dd60d21b606482015260840161063a565b600080846001600160a01b0316846040516122ad9190612ee1565b600060405180830381855af49150503d80600081146122e8576040519150601f19603f3d011682016040523d82523d6000602084013e6122ed565b606091505b50915091506123158282604051806060016040528060278152602001612f1e6027913961238c565b95945050505050565b60008082516041036123545760208301516040840151606085015160001a612348878285856123a5565b94509450505050612385565b825160400361237d5760208301516040840151612372868383612492565b935093505050612385565b506000905060025b9250929050565b6060831561239b5750816120cb565b6120cb83836124cb565b6000807f7fffffffffffffffffffffffffffffff5d576e7357a4501ddfe92f46681b20a08311156123dc5750600090506003612489565b8460ff16601b141580156123f457508460ff16601c14155b156124055750600090506004612489565b6040805160008082526020820180845289905260ff881692820192909252606081018690526080810185905260019060a0016020604051602081039080840390855afa158015612459573d6000803e3d6000fd5b5050604051601f1901519150506001600160a01b03811661248257600060019250925050612489565b9150600090505b94509492505050565b6000806001600160ff1b038316816124af60ff86901c601b612e41565b90506124bd878288856123a5565b935093505050935093915050565b8151156124db5781518083602001fd5b8060405162461bcd60e51b815260040161063a91906125bd565b50805461250190612ac7565b6000825580601f10612511575050565b601f01602090049060005260206000209081019061074691905b8082111561253f576000815560010161252b565b5090565b60006020828403121561255557600080fd5b81356001600160e01b0319811681146120cb57600080fd5b60005b83811015612588578181015183820152602001612570565b50506000910152565b600081518084526125a981602086016020860161256d565b601f01601f19169290920160200192915050565b6020815260006120cb6020830184612591565b6000602082840312156125e257600080fd5b5035919050565b6001600160a01b038116811461074657600080fd5b60006020828403121561261057600080fd5b81356120cb816125e9565b634e487b7160e01b600052604160045260246000fd5b604051601f8201601f1916810167ffffffffffffffff8111828210171561265a5761265a61261b565b604052919050565b600067ffffffffffffffff83111561267c5761267c61261b565b61268f601f8401601f1916602001612631565b90508281528383830111156126a357600080fd5b828260208301376000602084830101529392505050565b600082601f8301126126cb57600080fd5b6120cb83833560208501612662565b600080604083850312156126ed57600080fd5b823567ffffffffffffffff81111561270457600080fd5b612710858286016126ba565b95602094909401359450505050565b6000806040838503121561273257600080fd5b823561273d816125e9565b9150602083013567ffffffffffffffff81111561275957600080fd5b8301601f8101851361276a57600080fd5b61277985823560208401612662565b9150509250929050565b60008060006060848603121561279857600080fd5b8335925060208401359150604084013560ff811681146127b757600080fd5b809150509250925092565b600080604083850312156127d557600080fd5b50508035926020909101359150565b60008083601f8401126127f657600080fd5b50813567ffffffffffffffff81111561280e57600080fd5b60208301915083602082850101111561238557600080fd5b60008060008060006060868803121561283e57600080fd5b8535612849816125e9565b9450602086013567ffffffffffffffff8082111561286657600080fd5b61287289838a016127e4565b9096509450604088013591508082111561288b57600080fd5b50612898888289016127e4565b969995985093965092949392505050565b600080604083850312156128bc57600080fd5b82356128c7816125e9565b9150602083013567ffffffffffffffff8111156128e357600080fd5b612779858286016126ba565b6000602080838503121561290257600080fd5b823567ffffffffffffffff8082111561291a57600080fd5b818501915085601f83011261292e57600080fd5b8135818111156129405761294061261b565b8060051b61294f858201612631565b918252838101850191858101908984111561296957600080fd5b86860192505b838310156129a5578235858111156129875760008081fd5b6129958b89838a01016126ba565b835250918601919086019061296f565b9998505050505050505050565b600080600080600060a086880312156129ca57600080fd5b853567ffffffffffffffff808211156129e257600080fd5b6129ee89838a016126ba565b96506020880135915080821115612a0457600080fd5b612a1089838a016126ba565b95506040880135915080821115612a2657600080fd5b50612a33888289016126ba565b9350506060860135612a44816125e9565b91506080860135612a54816125e9565b809150509295509295909350565b60008060008060608587031215612a7857600080fd5b8435612a83816125e9565b93506020850135612a93816125e9565b9250604085013567ffffffffffffffff811115612aaf57600080fd5b612abb878288016127e4565b95989497509550505050565b600181811c90821680612adb57607f821691505b60208210810361066457634e487b7160e01b600052602260045260246000fd5b6020808252818101527f746f6b656e4578697374733a20746f6b656e20646f65736e2774206578697374604082015260600190565b6020808252602c908201527f46756e6374696f6e206d7573742062652063616c6c6564207468726f7567682060408201526b19195b1959d85d1958d85b1b60a21b606082015260800190565b6020808252602c908201527f46756e6374696f6e206d7573742062652063616c6c6564207468726f7567682060408201526b6163746976652070726f787960a01b606082015260800190565b60008251612bda81846020870161256d565b6d0e881d5b985d5d1a1bdc9a5e995960921b920191825250600e01919050565b600060208284031215612c0c57600080fd5b81516120cb816125e9565b600060208284031215612c2957600080fd5b815180151581146120cb57600080fd5b604081526000612c4c6040830185612591565b90508260208301529392505050565b6001600160a01b0383168152604060208201819052600090612c7f90830184612591565b949350505050565b6000604082016040835280855180835260608501915060608160051b8601019250602080880160005b83811015612cde57605f19888703018552612ccc868351612591565b95509382019390820190600101612cb0565b50506001600160a01b03969096169490950193909352949350505050565b601f82111561144657600081815260208120601f850160051c81016020861015612d235750805b601f850160051c820191505b818110156115b457828155600101612d2f565b815167ffffffffffffffff811115612d5c57612d5c61261b565b612d7081612d6a8454612ac7565b84612cfc565b602080601f831160018114612da55760008415612d8d5750858301515b600019600386901b1c1916600185901b1785556115b4565b600085815260208120601f198616915b82811015612dd457888601518255948401946001909101908401612db5565b5085821015612df25787850151600019600388901b60f8161c191681555b5050505050600190811b01905550565b8183823760009101908152919050565b600060208284031215612e2457600080fd5b5051919050565b634e487b7160e01b600052601160045260246000fd5b8082018082111561056a5761056a612e2b565b8181038181111561056a5761056a612e2b565b6020808252602b908201527f496e697469616c697a61626c653a20636f6e7472616374206973206e6f74206960408201526a6e697469616c697a696e6760a81b606082015260800190565b634e487b7160e01b600052602160045260246000fd5b828152604060208201526000612c7f6040830184612591565b60008251612ef381846020870161256d565b919091019291505056fe360894a13ba1a3210667c828492db98dca3e2076cc3735a920a3ca505d382bbc416464726573733a206c6f772d6c6576656c2064656c65676174652063616c6c206661696c6564a264697066735822122006f576674319ba8f4a67b515890e4ff26e01768464cd3663b0f1d96291c0219164736f6c63430008100033",
    "linkReferences": {}
  },
  "methodIdentifiers": {
    "balanceOf(address)": "70a08231",
    "createSpec(string,uint256)": "445a62b9",
    "getAgreementHash(address,address,string)": "e4992506",
    "getBadgeIdHash(address,string)": "a8cf8683",
    "getDataHolderAddress()": "635ad993",
    "getVoucherHash(uint256)": "3b363a09",
    "give(address,string,bytes)": "ec64948e",
    "initialize(string,string,string,address,address)": "d6d0faee",
    "isBadgeValid(uint256)": "0f4d9b01",
    "locked(uint256)": "b45a3c0e",
    "name()": "06fdde03",
    "owner()": "8da5cb5b",
    "ownerOf(uint256)": "6352211e",
    "proxiableUUID()": "52d1902d",
    "refreshMetadata(string[])": "bdbdbcbf",
    "reinstateBadge(uint256,uint256)": "80956c7e",
    "renounceOwnership()": "715018a6",
    "revokeBadge(uint256,uint256,uint8)": "7c402f8d",
    "setDataHolder(address)": "c0184112",
    "supportsInterface(bytes4)": "01ffc9a7",
    "symbol()": "95d89b41",
    "take(address,string,bytes)": "a3947803",
    "tokenURI(uint256)": "c87b56dd",
    "transferOwnership(address)": "f2fde38b",
    "unequip(uint256)": "d179e3d0",
    "upgradeTo(address)": "3659cfe6",
    "upgradeToAndCall(address,bytes)": "4f1ef286"
  },
  "id": 43
}