{
  "abi": [
    {
      "inputs": [
        {
          "internalType": "string",
          "name": "name",
          "type": "string"
        },
        {
          "internalType": "string",
          "name": "symbol",
          "type": "string"
        },
        {
          "internalType": "string",
          "name": "version",
          "type": "string"
        }
      ],
      "stateMutability": "nonpayable",
      "type": "constructor"
    },
    {
      "anonymous": false,
      "inputs": [
        {
          "indexed": true,
          "internalType": "address",
          "name": "",
          "type": "address"
        },
        {
          "indexed": false,
          "internalType": "uint256",
          "name": "tokenId",
          "type": "uint256"
        }
      ],
      "name": "BadgeMinted",
      "type": "event"
    },
    {
      "anonymous": false,
      "inputs": [
        {
          "indexed": true,
          "internalType": "address",
          "name": "",
          "type": "address"
        },
        {
          "indexed": false,
          "internalType": "string",
          "name": "specUri",
          "type": "string"
        }
      ],
      "name": "SpecCreated",
      "type": "event"
    },
    {
      "anonymous": false,
      "inputs": [
        {
          "indexed": true,
          "internalType": "address",
          "name": "from",
          "type": "address"
        },
        {
          "indexed": true,
          "internalType": "address",
          "name": "to",
          "type": "address"
        },
        {
          "indexed": true,
          "internalType": "uint256",
          "name": "tokenId",
          "type": "uint256"
        }
      ],
      "name": "Transfer",
      "type": "event"
    },
    {
      "inputs": [
        {
          "internalType": "address",
          "name": "owner",
          "type": "address"
        }
      ],
      "name": "balanceOf",
      "outputs": [
        {
          "internalType": "uint256",
          "name": "",
          "type": "uint256"
        }
      ],
      "stateMutability": "view",
      "type": "function"
    },
    {
      "inputs": [
        {
          "internalType": "string",
          "name": "specUri",
          "type": "string"
        }
      ],
      "name": "checkIfSpecExists",
      "outputs": [
        {
          "internalType": "bool",
          "name": "",
          "type": "bool"
        }
      ],
      "stateMutability": "view",
      "type": "function"
    },
    {
      "inputs": [
        {
          "internalType": "string",
          "name": "specUri",
          "type": "string"
        },
        {
          "internalType": "uint256",
          "name": "raftTokenId",
          "type": "uint256"
        }
      ],
      "name": "createSpecAsRaftOwner",
      "outputs": [],
      "stateMutability": "nonpayable",
      "type": "function"
    },
    {
      "inputs": [
        {
          "internalType": "address",
          "name": "from",
          "type": "address"
        },
        {
          "internalType": "address",
          "name": "to",
          "type": "address"
        },
        {
          "internalType": "string",
          "name": "tokenURI",
          "type": "string"
        }
      ],
      "name": "getHash",
      "outputs": [
        {
          "internalType": "bytes32",
          "name": "",
          "type": "bytes32"
        }
      ],
      "stateMutability": "view",
      "type": "function"
    },
    {
      "inputs": [
        {
          "internalType": "bytes32",
          "name": "hash",
          "type": "bytes32"
        }
      ],
      "name": "getTokenIdFromHash",
      "outputs": [
        {
          "internalType": "uint256",
          "name": "",
          "type": "uint256"
        }
      ],
      "stateMutability": "pure",
      "type": "function"
    },
    {
      "inputs": [
        {
          "internalType": "address",
          "name": "to",
          "type": "address"
        },
        {
          "internalType": "string",
          "name": "uri",
          "type": "string"
        },
        {
          "internalType": "bytes",
          "name": "signature",
          "type": "bytes"
        }
      ],
      "name": "give",
      "outputs": [
        {
          "internalType": "uint256",
          "name": "",
          "type": "uint256"
        }
      ],
      "stateMutability": "nonpayable",
      "type": "function"
    },
    {
      "inputs": [
        {
          "internalType": "address",
          "name": "from",
          "type": "address"
        },
        {
          "internalType": "string",
          "name": "tokenUri",
          "type": "string"
        },
        {
          "internalType": "bytes",
          "name": "signature",
          "type": "bytes"
        }
      ],
      "name": "mintAuthorizedBadge",
      "outputs": [
        {
          "internalType": "uint256",
          "name": "",
          "type": "uint256"
        }
      ],
      "stateMutability": "nonpayable",
      "type": "function"
    },
    {
      "inputs": [],
      "name": "name",
      "outputs": [
        {
          "internalType": "string",
          "name": "",
          "type": "string"
        }
      ],
      "stateMutability": "view",
      "type": "function"
    },
    {
      "inputs": [
        {
          "internalType": "uint256",
          "name": "tokenId",
          "type": "uint256"
        }
      ],
      "name": "ownerOf",
      "outputs": [
        {
          "internalType": "address",
          "name": "",
          "type": "address"
        }
      ],
      "stateMutability": "view",
      "type": "function"
    },
    {
      "inputs": [
        {
          "internalType": "bytes4",
          "name": "interfaceId",
          "type": "bytes4"
        }
      ],
      "name": "supportsInterface",
      "outputs": [
        {
          "internalType": "bool",
          "name": "",
          "type": "bool"
        }
      ],
      "stateMutability": "view",
      "type": "function"
    },
    {
      "inputs": [],
      "name": "symbol",
      "outputs": [
        {
          "internalType": "string",
          "name": "",
          "type": "string"
        }
      ],
      "stateMutability": "view",
      "type": "function"
    },
    {
      "inputs": [
        {
          "internalType": "address",
          "name": "from",
          "type": "address"
        },
        {
          "internalType": "string",
          "name": "uri",
          "type": "string"
        },
        {
          "internalType": "bytes",
          "name": "signature",
          "type": "bytes"
        }
      ],
      "name": "take",
      "outputs": [
        {
          "internalType": "uint256",
          "name": "",
          "type": "uint256"
        }
      ],
      "stateMutability": "nonpayable",
      "type": "function"
    },
    {
      "inputs": [
        {
          "internalType": "uint256",
          "name": "tokenId",
          "type": "uint256"
        }
      ],
      "name": "tokenURI",
      "outputs": [
        {
          "internalType": "string",
          "name": "",
          "type": "string"
        }
      ],
      "stateMutability": "view",
      "type": "function"
    },
    {
      "inputs": [
        {
          "internalType": "uint256",
          "name": "tokenId",
          "type": "uint256"
        }
      ],
      "name": "unequip",
      "outputs": [],
      "stateMutability": "nonpayable",
      "type": "function"
    }
  ],
  "bytecode": {
    "object": "0x6101406040523480156200001257600080fd5b5060405162001b9a38038062001b9a8339810160408190526200003591620001be565b825160208085019190912082518383012060e08290526101008190524660a0818152604080517f8b73c3c69bb8fe3d512ecc4cf759cc79239f7b179b0ffacaa9a75d522b39400f818801819052818301969096526060810194909452608080850193909352308483018190528151808603909301835260c094850190915281519190950120905291909152610120528282826001620000d58482620002de565b506002620000e48382620002de565b50505050505050620003aa565b634e487b7160e01b600052604160045260246000fd5b600082601f8301126200011957600080fd5b81516001600160401b0380821115620001365762000136620000f1565b604051601f8301601f19908116603f01168101908282118183101715620001615762000161620000f1565b816040528381526020925086838588010111156200017e57600080fd5b600091505b83821015620001a2578582018301518183018401529082019062000183565b83821115620001b45760008385830101525b9695505050505050565b600080600060608486031215620001d457600080fd5b83516001600160401b0380821115620001ec57600080fd5b620001fa8783880162000107565b945060208601519150808211156200021157600080fd5b6200021f8783880162000107565b935060408601519150808211156200023657600080fd5b50620002458682870162000107565b9150509250925092565b600181811c908216806200026457607f821691505b6020821081036200028557634e487b7160e01b600052602260045260246000fd5b50919050565b601f821115620002d957600081815260208120601f850160051c81016020861015620002b45750805b601f850160051c820191505b81811015620002d557828155600101620002c0565b5050505b505050565b81516001600160401b03811115620002fa57620002fa620000f1565b62000312816200030b84546200024f565b846200028b565b602080601f8311600181146200034a5760008415620003315750858301515b600019600386901b1c1916600185901b178555620002d5565b600085815260208120601f198616915b828110156200037b578886015182559484019460019091019084016200035a565b50858210156200039a5787850151600019600388901b60f8161c191681555b5050505050600190811b01905550565b60805160a05160c05160e05161010051610120516117a0620003fa6000396000610fae01526000610ffd01526000610fd801526000610f3101526000610f5b01526000610f8501526117a06000f3fe608060405234801561001057600080fd5b50600436106100ea5760003560e01c8063a39478031161008c578063d179e3d011610066578063d179e3d0146101e1578063e8e168ec146101f4578063ea924dec14610207578063ec64948e1461021857600080fd5b8063a3947803146101a8578063c5cf33c2146101bb578063c87b56dd146101ce57600080fd5b80636352211e116100c85780636352211e1461014157806370a082311461016c578063781334c51461018d57806395d89b41146101a057600080fd5b806301ffc9a7146100ef57806306fdde03146101175780634249d86e1461012c575b600080fd5b6101026100fd3660046111d5565b61022b565b60405190151581526020015b60405180910390f35b61011f61027d565b60405161010e919061124e565b61013f61013a366004611277565b61030f565b005b61015461014f36600461132c565b6103e1565b6040516001600160a01b03909116815260200161010e565b61017f61017a366004611361565b610446565b60405190815260200161010e565b61017f61019b3660046113be565b6104cf565b61011f610637565b61017f6101b63660046113be565b610646565b61017f6101c936600461143f565b61071e565b61011f6101dc36600461132c565b610735565b61013f6101ef36600461132c565b61083a565b6101026102023660046114a0565b6108cf565b61017f61021536600461132c565b90565b61017f6102263660046113be565b6108fc565b60006001600160e01b03198216635b5e139f60e01b148061025c57506001600160e01b031982166346bdd63960e11b145b8061027757506301ffc9a760e01b6001600160e01b03198316145b92915050565b60606001805461028c906114e2565b80601f01602080910402602001604051908101604052809291908181526020018280546102b8906114e2565b80156103055780601f106102da57610100808354040283529160200191610305565b820191906000526020600020905b8154815290600101906020018083116102e857829003601f168201915b5050505050905090565b60078260405161031f919061151c565b9081526020016040518091039020546000146103825760405162461bcd60e51b815260206004820152601760248201527f7370656320616c7265616479207265676973746572656400000000000000000060448201526064015b60405180910390fd5b80600783604051610393919061151c565b9081526040519081900360200181209190915533907ffcc0ccb17efd65852f1f8dc8f08a43d55b87b08db6b050c6d18ff61e4c6daf99906103d590859061124e565b60405180910390a25050565b6000818152600360205260408120546001600160a01b0316806102775760405162461bcd60e51b815260206004820152601c60248201527f6f776e65724f663a20746f6b656e20646f65736e2774206578697374000000006044820152606401610379565b60006001600160a01b0382166104b35760405162461bcd60e51b815260206004820152602c60248201527f62616c616e63654f663a2061646472657373207a65726f206973206e6f74206160448201526b103b30b634b21037bbb732b960a11b6064820152608401610379565b506001600160a01b031660009081526005602052604090205490565b6000806000306001600160a01b031688888888886040516024016104f7959493929190611561565b60408051601f198184030181529181526020820180516001600160e01b031663a394780360e01b1790525161052c919061151c565b600060405180830381855af49150503d8060008114610567576040519150601f19603f3d011682016040523d82523d6000602084013e61056c565b606091505b5091509150816105d05760405162461bcd60e51b815260206004820152602960248201527f6d696e74417574686f72697a656442616467653a206261646765206d696e74696044820152681b99c819985a5b195960ba1b6064820152608401610379565b6000818060200190518101906105e69190611599565b9050886001600160a01b03167fc5e5b314108c1f776c2302351b8278910ddb812b122b2717b1bc973146145e9a8260405161062391815260200190565b60405180910390a298975050505050505050565b60606002805461028c906114e2565b60006001600160a01b03861633036106a05760405162461bcd60e51b815260206004820152601b60248201527f74616b653a2063616e6e6f742074616b652066726f6d2073656c6600000000006044820152606401610379565b60006106b03388888888886109a9565b90506106f3338288888080601f016020809104026020016040519081016040528093929190818152602001838380828437600092019190915250610add92505050565b50600881901c60009081526020819052604090208054600160ff84161b1790555b9695505050505050565b600061072c85858585610be5565b95945050505050565b6000818152600360205260409020546060906001600160a01b031661079c5760405162461bcd60e51b815260206004820152601d60248201527f746f6b656e5552493a20746f6b656e20646f65736e27742065786973740000006044820152606401610379565b600082815260046020526040902080546107b5906114e2565b80601f01602080910402602001604051908101604052809291908181526020018280546107e1906114e2565b801561082e5780601f106108035761010080835404028352916020019161082e565b820191906000526020600020905b81548152906001019060200180831161081157829003601f168201915b50505050509050919050565b610843816103e1565b6001600160a01b0316336001600160a01b0316146108a35760405162461bcd60e51b815260206004820152601d60248201527f756e65717569703a2073656e646572206d757374206265206f776e65720000006044820152606401610379565b600881901c60009081526020819052604090208054600160ff84161b191690556108cc81610c74565b50565b6000600783836040516108e39291906115b2565b9081526040519081900360200190205415159392505050565b60006001600160a01b03861633036109565760405162461bcd60e51b815260206004820152601b60248201527f676976653a2063616e6e6f7420676976652066726f6d2073656c6600000000006044820152606401610379565b60006109663388888888886109a9565b90506106f3878288888080601f016020809104026020016040519081016040528093929190818152602001838380828437600092019190915250610add92505050565b6000806109b888888888610be5565b905060008160001c9050610a03888387878080601f016020809104026020016040519081016040528093929190818152602001838380828437600092019190915250610d1d92505050565b610a5e5760405162461bcd60e51b815260206004820152602660248201527f5f73616665436865636b41677265656d656e743a20696e76616c6964207369676044820152656e617475726560d01b6064820152608401610379565b600881901c600090815260208190526040902054600160ff83161b1615610ad15760405162461bcd60e51b815260206004820152602160248201527f5f73616665436865636b41677265656d656e743a20616c7265616479207573656044820152601960fa1b6064820152608401610379565b98975050505050505050565b6000828152600360205260408120546001600160a01b031615610b395760405162461bcd60e51b81526020600482015260146024820152736d696e743a20746f6b656e49442065786973747360601b6044820152606401610379565b6001600160a01b0384166000908152600560205260408120805460019290610b629084906115d8565b9091555050600083815260036020908152604080832080546001600160a01b0319166001600160a01b03891617905560049091529020610ba2838261163f565b5060405183906001600160a01b038616906000907fddf252ad1be2c89b69c2b068fc378daa952ba7f163c4a11628f55a4df523b3ef908290a450815b9392505050565b6000807fe76a195fbe43f0eaa611595069f780493db2202a1cc4b2d7d44b47069812998a86868686604051610c1b9291906115b2565b604051908190038120610c53949392916020019384526001600160a01b03928316602085015291166040830152606082015260800190565b60405160208183030381529060405280519060200120905061071481610e68565b6000610c7f826103e1565b6001600160a01b03811660009081526005602052604081208054929350600192909190610cad9084906116ff565b9091555050600082815260036020908152604080832080546001600160a01b031916905560049091528120610ce191611171565b60405182906000906001600160a01b038416907fddf252ad1be2c89b69c2b068fc378daa952ba7f163c4a11628f55a4df523b3ef908390a45050565b6000806000610d2c8585610eb6565b90925090506000816004811115610d4557610d45611716565b148015610d635750856001600160a01b0316826001600160a01b0316145b15610d7357600192505050610bde565b600080876001600160a01b0316631626ba7e60e01b8888604051602401610d9b92919061172c565b60408051601f198184030181529181526020820180516001600160e01b03166001600160e01b0319909416939093179092529051610dd9919061151c565b600060405180830381855afa9150503d8060008114610e14576040519150601f19603f3d011682016040523d82523d6000602084013e610e19565b606091505b5091509150818015610e2c575080516020145b8015610ad157508051630b135d3f60e11b90610e51908301602090810190840161174d565b6001600160e01b0319161498975050505050505050565b6000610277610e75610f24565b8360405161190160f01b6020820152602281018390526042810182905260009060620160405160208183030381529060405280519060200120905092915050565b6000808251604103610eec5760208301516040840151606085015160001a610ee08782858561104b565b94509450505050610f1d565b8251604003610f155760208301516040840151610f0a868383611138565b935093505050610f1d565b506000905060025b9250929050565b6000306001600160a01b037f000000000000000000000000000000000000000000000000000000000000000016148015610f7d57507f000000000000000000000000000000000000000000000000000000000000000046145b15610fa757507f000000000000000000000000000000000000000000000000000000000000000090565b50604080517f00000000000000000000000000000000000000000000000000000000000000006020808301919091527f0000000000000000000000000000000000000000000000000000000000000000828401527f000000000000000000000000000000000000000000000000000000000000000060608301524660808301523060a0808401919091528351808403909101815260c0909201909252805191012090565b6000807f7fffffffffffffffffffffffffffffff5d576e7357a4501ddfe92f46681b20a0831115611082575060009050600361112f565b8460ff16601b1415801561109a57508460ff16601c14155b156110ab575060009050600461112f565b6040805160008082526020820180845289905260ff881692820192909252606081018690526080810185905260019060a0016020604051602081039080840390855afa1580156110ff573d6000803e3d6000fd5b5050604051601f1901519150506001600160a01b0381166111285760006001925092505061112f565b9150600090505b94509492505050565b6000806001600160ff1b0383168161115560ff86901c601b6115d8565b90506111638782888561104b565b935093505050935093915050565b50805461117d906114e2565b6000825580601f1061118d575050565b601f0160209004906000526020600020908101906108cc91905b808211156111bb57600081556001016111a7565b5090565b6001600160e01b0319811681146108cc57600080fd5b6000602082840312156111e757600080fd5b8135610bde816111bf565b60005b8381101561120d5781810151838201526020016111f5565b8381111561121c576000848401525b50505050565b6000815180845261123a8160208601602086016111f2565b601f01601f19169290920160200192915050565b602081526000610bde6020830184611222565b634e487b7160e01b600052604160045260246000fd5b6000806040838503121561128a57600080fd5b823567ffffffffffffffff808211156112a257600080fd5b818501915085601f8301126112b657600080fd5b8135818111156112c8576112c8611261565b604051601f8201601f19908116603f011681019083821181831017156112f0576112f0611261565b8160405282815288602084870101111561130957600080fd5b826020860160208301376000602093820184015298969091013596505050505050565b60006020828403121561133e57600080fd5b5035919050565b80356001600160a01b038116811461135c57600080fd5b919050565b60006020828403121561137357600080fd5b610bde82611345565b60008083601f84011261138e57600080fd5b50813567ffffffffffffffff8111156113a657600080fd5b602083019150836020828501011115610f1d57600080fd5b6000806000806000606086880312156113d657600080fd5b6113df86611345565b9450602086013567ffffffffffffffff808211156113fc57600080fd5b61140889838a0161137c565b9096509450604088013591508082111561142157600080fd5b5061142e8882890161137c565b969995985093965092949392505050565b6000806000806060858703121561145557600080fd5b61145e85611345565b935061146c60208601611345565b9250604085013567ffffffffffffffff81111561148857600080fd5b6114948782880161137c565b95989497509550505050565b600080602083850312156114b357600080fd5b823567ffffffffffffffff8111156114ca57600080fd5b6114d68582860161137c565b90969095509350505050565b600181811c908216806114f657607f821691505b60208210810361151657634e487b7160e01b600052602260045260246000fd5b50919050565b6000825161152e8184602087016111f2565b9190910192915050565b81835281816020850137506000828201602090810191909152601f909101601f19169091010190565b6001600160a01b03861681526060602082018190526000906115869083018688611538565b8281036040840152610ad1818587611538565b6000602082840312156115ab57600080fd5b5051919050565b8183823760009101908152919050565b634e487b7160e01b600052601160045260246000fd5b600082198211156115eb576115eb6115c2565b500190565b601f82111561163a57600081815260208120601f850160051c810160208610156116175750805b601f850160051c820191505b8181101561163657828155600101611623565b5050505b505050565b815167ffffffffffffffff81111561165957611659611261565b61166d8161166784546114e2565b846115f0565b602080601f8311600181146116a2576000841561168a5750858301515b600019600386901b1c1916600185901b178555611636565b600085815260208120601f198616915b828110156116d1578886015182559484019460019091019084016116b2565b50858210156116ef5787850151600019600388901b60f8161c191681555b5050505050600190811b01905550565b600082821015611711576117116115c2565b500390565b634e487b7160e01b600052602160045260246000fd5b8281526040602082015260006117456040830184611222565b949350505050565b60006020828403121561175f57600080fd5b8151610bde816111bf56fea264697066735822122056e2466d72ca008879bbdf783a235ae089512efa5924fddbdfcadc1a167aad5964736f6c634300080f0033",
    "linkReferences": {}
  },
  "methodIdentifiers": {
    "balanceOf(address)": "70a08231",
    "checkIfSpecExists(string)": "e8e168ec",
    "createSpecAsRaftOwner(string,uint256)": "4249d86e",
    "getHash(address,address,string)": "c5cf33c2",
    "getTokenIdFromHash(bytes32)": "ea924dec",
    "give(address,string,bytes)": "ec64948e",
    "mintAuthorizedBadge(address,string,bytes)": "781334c5",
    "name()": "06fdde03",
    "ownerOf(uint256)": "6352211e",
    "supportsInterface(bytes4)": "01ffc9a7",
    "symbol()": "95d89b41",
    "take(address,string,bytes)": "a3947803",
    "tokenURI(uint256)": "c87b56dd",
    "unequip(uint256)": "d179e3d0"
  },
  "id": 12
}