{
  "abi": [
    {
      "inputs": [],
      "stateMutability": "nonpayable",
      "type": "constructor"
    },
    {
      "anonymous": false,
      "inputs": [
        {
          "indexed": false,
          "internalType": "address",
          "name": "previousAdmin",
          "type": "address"
        },
        {
          "indexed": false,
          "internalType": "address",
          "name": "newAdmin",
          "type": "address"
        }
      ],
      "name": "AdminChanged",
      "type": "event"
    },
    {
      "anonymous": false,
      "inputs": [
        {
          "indexed": true,
          "internalType": "uint256",
          "name": "tokenId",
          "type": "uint256"
        },
        {
          "indexed": true,
          "internalType": "address",
          "name": "from",
          "type": "address"
        }
      ],
      "name": "BadgeReinstated",
      "type": "event"
    },
    {
      "anonymous": false,
      "inputs": [
        {
          "indexed": true,
          "internalType": "uint256",
          "name": "tokenId",
          "type": "uint256"
        },
        {
          "indexed": true,
          "internalType": "address",
          "name": "from",
          "type": "address"
        },
        {
          "indexed": true,
          "internalType": "uint8",
          "name": "reason",
          "type": "uint8"
        }
      ],
      "name": "BadgeRevoked",
      "type": "event"
    },
    {
      "anonymous": false,
      "inputs": [
        {
          "indexed": true,
          "internalType": "address",
          "name": "beacon",
          "type": "address"
        }
      ],
      "name": "BeaconUpgraded",
      "type": "event"
    },
    {
      "anonymous": false,
      "inputs": [
        {
          "indexed": false,
          "internalType": "uint8",
          "name": "version",
          "type": "uint8"
        }
      ],
      "name": "Initialized",
      "type": "event"
    },
    {
      "anonymous": false,
      "inputs": [
        {
          "indexed": true,
          "internalType": "address",
          "name": "previousOwner",
          "type": "address"
        },
        {
          "indexed": true,
          "internalType": "address",
          "name": "newOwner",
          "type": "address"
        }
      ],
      "name": "OwnershipTransferred",
      "type": "event"
    },
    {
      "anonymous": false,
      "inputs": [
        {
          "indexed": false,
          "internalType": "string[]",
          "name": "specUris",
          "type": "string[]"
        },
        {
          "indexed": false,
          "internalType": "address",
          "name": "sender",
          "type": "address"
        }
      ],
      "name": "RefreshMetadata",
      "type": "event"
    },
    {
      "anonymous": false,
      "inputs": [
        {
          "indexed": true,
          "internalType": "address",
          "name": "to",
          "type": "address"
        },
        {
          "indexed": false,
          "internalType": "string",
          "name": "specUri",
          "type": "string"
        },
        {
          "indexed": true,
          "internalType": "uint256",
          "name": "raftTokenId",
          "type": "uint256"
        },
        {
          "indexed": true,
          "internalType": "address",
          "name": "raftAddress",
          "type": "address"
        }
      ],
      "name": "SpecCreated",
      "type": "event"
    },
    {
      "anonymous": false,
      "inputs": [
        {
          "indexed": true,
          "internalType": "address",
          "name": "from",
          "type": "address"
        },
        {
          "indexed": true,
          "internalType": "address",
          "name": "to",
          "type": "address"
        },
        {
          "indexed": true,
          "internalType": "uint256",
          "name": "tokenId",
          "type": "uint256"
        }
      ],
      "name": "Transfer",
      "type": "event"
    },
    {
      "anonymous": false,
      "inputs": [
        {
          "indexed": true,
          "internalType": "address",
          "name": "implementation",
          "type": "address"
        }
      ],
      "name": "Upgraded",
      "type": "event"
    },
    {
      "inputs": [
        {
          "internalType": "address[]",
          "name": "_recipients",
          "type": "address[]"
        },
        {
          "internalType": "string",
          "name": "_uri",
          "type": "string"
        }
      ],
      "name": "airdrop",
      "outputs": [],
      "stateMutability": "nonpayable",
      "type": "function"
    },
    {
      "inputs": [
        {
          "internalType": "address",
          "name": "_owner",
          "type": "address"
        }
      ],
      "name": "balanceOf",
      "outputs": [
        {
          "internalType": "uint256",
          "name": "",
          "type": "uint256"
        }
      ],
      "stateMutability": "view",
      "type": "function"
    },
    {
      "inputs": [
        {
          "internalType": "string",
          "name": "_specUri",
          "type": "string"
        },
        {
          "internalType": "uint256",
          "name": "_raftTokenId",
          "type": "uint256"
        }
      ],
      "name": "createSpec",
      "outputs": [],
      "stateMutability": "nonpayable",
      "type": "function"
    },
    {
      "inputs": [
        {
          "internalType": "address",
          "name": "_from",
          "type": "address"
        },
        {
          "internalType": "address",
          "name": "_to",
          "type": "address"
        },
        {
          "internalType": "string",
          "name": "_uri",
          "type": "string"
        }
      ],
      "name": "getAgreementHash",
      "outputs": [
        {
          "internalType": "bytes32",
          "name": "",
          "type": "bytes32"
        }
      ],
      "stateMutability": "view",
      "type": "function"
    },
    {
      "inputs": [
        {
          "internalType": "address",
          "name": "_to",
          "type": "address"
        },
        {
          "internalType": "string",
          "name": "_uri",
          "type": "string"
        }
      ],
      "name": "getBadgeIdHash",
      "outputs": [
        {
          "internalType": "bytes32",
          "name": "",
          "type": "bytes32"
        }
      ],
      "stateMutability": "view",
      "type": "function"
    },
    {
      "inputs": [],
      "name": "getDataHolderAddress",
      "outputs": [
        {
          "internalType": "address",
          "name": "",
          "type": "address"
        }
      ],
      "stateMutability": "view",
      "type": "function"
    },
    {
      "inputs": [
        {
          "internalType": "address",
          "name": "_issuer",
          "type": "address"
        },
        {
          "internalType": "string",
          "name": "_uri",
          "type": "string"
        },
        {
          "internalType": "bytes32",
          "name": "_root",
          "type": "bytes32"
        }
      ],
      "name": "getMerkleAgreementHash",
      "outputs": [
        {
          "internalType": "bytes32",
          "name": "",
          "type": "bytes32"
        }
      ],
      "stateMutability": "view",
      "type": "function"
    },
    {
      "inputs": [
        {
          "internalType": "address",
          "name": "_requester",
          "type": "address"
        },
        {
          "internalType": "string",
          "name": "_uri",
          "type": "string"
        }
      ],
      "name": "getRequestHash",
      "outputs": [
        {
          "internalType": "bytes32",
          "name": "",
          "type": "bytes32"
        }
      ],
      "stateMutability": "view",
      "type": "function"
    },
    {
      "inputs": [
        {
          "internalType": "address",
          "name": "_to",
          "type": "address"
        },
        {
          "internalType": "string",
          "name": "_uri",
          "type": "string"
        },
        {
          "internalType": "bytes",
          "name": "_signature",
          "type": "bytes"
        }
      ],
      "name": "give",
      "outputs": [
        {
          "internalType": "uint256",
          "name": "",
          "type": "uint256"
        }
      ],
      "stateMutability": "nonpayable",
      "type": "function"
    },
    {
      "inputs": [
        {
          "internalType": "address",
          "name": "_to",
          "type": "address"
        },
        {
          "internalType": "string",
          "name": "_uri",
          "type": "string"
        },
        {
          "internalType": "bytes",
          "name": "_signature",
          "type": "bytes"
        }
      ],
      "name": "giveRequestedBadge",
      "outputs": [
        {
          "internalType": "uint256",
          "name": "",
          "type": "uint256"
        }
      ],
      "stateMutability": "nonpayable",
      "type": "function"
    },
    {
      "inputs": [
        {
          "internalType": "address[]",
          "name": "_recipients",
          "type": "address[]"
        },
        {
          "internalType": "string",
          "name": "_uri",
          "type": "string"
        },
        {
          "internalType": "bytes[]",
          "name": "_signatures",
          "type": "bytes[]"
        }
      ],
      "name": "giveRequestedBadgeToMany",
      "outputs": [],
      "stateMutability": "nonpayable",
      "type": "function"
    },
    {
      "inputs": [
        {
          "internalType": "address[]",
          "name": "_recipients",
          "type": "address[]"
        },
        {
          "internalType": "string",
          "name": "_uri",
          "type": "string"
        },
        {
          "internalType": "bytes[]",
          "name": "_signatures",
          "type": "bytes[]"
        }
      ],
      "name": "giveToMany",
      "outputs": [],
      "stateMutability": "nonpayable",
      "type": "function"
    },
    {
      "inputs": [
        {
          "internalType": "string",
          "name": "_name",
          "type": "string"
        },
        {
          "internalType": "string",
          "name": "_symbol",
          "type": "string"
        },
        {
          "internalType": "string",
          "name": "_version",
          "type": "string"
        },
        {
          "internalType": "address",
          "name": "_nextOwner",
          "type": "address"
        },
        {
          "internalType": "address",
          "name": "_specDataHolderAddress",
          "type": "address"
        }
      ],
      "name": "initialize",
      "outputs": [],
      "stateMutability": "nonpayable",
      "type": "function"
    },
    {
      "inputs": [
        {
          "internalType": "uint256",
          "name": "_badgeId",
          "type": "uint256"
        }
      ],
      "name": "isBadgeValid",
      "outputs": [
        {
          "internalType": "bool",
          "name": "",
          "type": "bool"
        }
      ],
      "stateMutability": "view",
      "type": "function"
    },
    {
      "inputs": [
        {
          "internalType": "address",
          "name": "_from",
          "type": "address"
        },
        {
          "internalType": "string",
          "name": "_uri",
          "type": "string"
        },
        {
          "internalType": "bytes",
          "name": "_signature",
          "type": "bytes"
        },
        {
          "internalType": "bytes32",
          "name": "root",
          "type": "bytes32"
        },
        {
          "internalType": "bytes32[]",
          "name": "proof",
          "type": "bytes32[]"
        }
      ],
      "name": "merkleTake",
      "outputs": [
        {
          "internalType": "uint256",
          "name": "",
          "type": "uint256"
        }
      ],
      "stateMutability": "nonpayable",
      "type": "function"
    },
    {
      "inputs": [],
      "name": "name",
      "outputs": [
        {
          "internalType": "string",
          "name": "",
          "type": "string"
        }
      ],
      "stateMutability": "view",
      "type": "function"
    },
    {
      "inputs": [],
      "name": "owner",
      "outputs": [
        {
          "internalType": "address",
          "name": "",
          "type": "address"
        }
      ],
      "stateMutability": "view",
      "type": "function"
    },
    {
      "inputs": [
        {
          "internalType": "uint256",
          "name": "_tokenId",
          "type": "uint256"
        }
      ],
      "name": "ownerOf",
      "outputs": [
        {
          "internalType": "address",
          "name": "",
          "type": "address"
        }
      ],
      "stateMutability": "view",
      "type": "function"
    },
    {
      "inputs": [],
      "name": "proxiableUUID",
      "outputs": [
        {
          "internalType": "bytes32",
          "name": "",
          "type": "bytes32"
        }
      ],
      "stateMutability": "view",
      "type": "function"
    },
    {
      "inputs": [
        {
          "internalType": "string[]",
          "name": "_specUris",
          "type": "string[]"
        }
      ],
      "name": "refreshMetadata",
      "outputs": [],
      "stateMutability": "nonpayable",
      "type": "function"
    },
    {
      "inputs": [
        {
          "internalType": "uint256",
          "name": "_raftTokenId",
          "type": "uint256"
        },
        {
          "internalType": "uint256",
          "name": "_badgeId",
          "type": "uint256"
        }
      ],
      "name": "reinstateBadge",
      "outputs": [],
      "stateMutability": "nonpayable",
      "type": "function"
    },
    {
      "inputs": [],
      "name": "renounceOwnership",
      "outputs": [],
      "stateMutability": "nonpayable",
      "type": "function"
    },
    {
      "inputs": [
        {
          "internalType": "uint256",
          "name": "_raftTokenId",
          "type": "uint256"
        },
        {
          "internalType": "uint256",
          "name": "_badgeId",
          "type": "uint256"
        },
        {
          "internalType": "uint8",
          "name": "_reason",
          "type": "uint8"
        }
      ],
      "name": "revokeBadge",
      "outputs": [],
      "stateMutability": "nonpayable",
      "type": "function"
    },
    {
      "inputs": [
        {
          "internalType": "address",
          "name": "_dataHolder",
          "type": "address"
        }
      ],
      "name": "setDataHolder",
      "outputs": [],
      "stateMutability": "nonpayable",
      "type": "function"
    },
    {
      "inputs": [
        {
          "internalType": "bytes4",
          "name": "_interfaceId",
          "type": "bytes4"
        }
      ],
      "name": "supportsInterface",
      "outputs": [
        {
          "internalType": "bool",
          "name": "",
          "type": "bool"
        }
      ],
      "stateMutability": "view",
      "type": "function"
    },
    {
      "inputs": [],
      "name": "symbol",
      "outputs": [
        {
          "internalType": "string",
          "name": "",
          "type": "string"
        }
      ],
      "stateMutability": "view",
      "type": "function"
    },
    {
      "inputs": [
        {
          "internalType": "address",
          "name": "_from",
          "type": "address"
        },
        {
          "internalType": "string",
          "name": "_uri",
          "type": "string"
        },
        {
          "internalType": "bytes",
          "name": "_signature",
          "type": "bytes"
        }
      ],
      "name": "take",
      "outputs": [
        {
          "internalType": "uint256",
          "name": "",
          "type": "uint256"
        }
      ],
      "stateMutability": "nonpayable",
      "type": "function"
    },
    {
      "inputs": [
        {
          "internalType": "uint256",
          "name": "_tokenId",
          "type": "uint256"
        }
      ],
      "name": "tokenURI",
      "outputs": [
        {
          "internalType": "string",
          "name": "",
          "type": "string"
        }
      ],
      "stateMutability": "view",
      "type": "function"
    },
    {
      "inputs": [
        {
          "internalType": "address",
          "name": "newOwner",
          "type": "address"
        }
      ],
      "name": "transferOwnership",
      "outputs": [],
      "stateMutability": "nonpayable",
      "type": "function"
    },
    {
      "inputs": [
        {
          "internalType": "uint256",
          "name": "_tokenId",
          "type": "uint256"
        }
      ],
      "name": "unequip",
      "outputs": [],
      "stateMutability": "nonpayable",
      "type": "function"
    },
    {
      "inputs": [
        {
          "internalType": "address",
          "name": "newImplementation",
          "type": "address"
        }
      ],
      "name": "upgradeTo",
      "outputs": [],
      "stateMutability": "nonpayable",
      "type": "function"
    },
    {
      "inputs": [
        {
          "internalType": "address",
          "name": "newImplementation",
          "type": "address"
        },
        {
          "internalType": "bytes",
          "name": "data",
          "type": "bytes"
        }
      ],
      "name": "upgradeToAndCall",
      "outputs": [],
      "stateMutability": "payable",
      "type": "function"
    }
  ],
  "bytecode": {
    "object": "0x60a0604052306080523480156200001557600080fd5b506200002062000026565b620000e8565b600054610100900460ff1615620000935760405162461bcd60e51b815260206004820152602760248201527f496e697469616c697a61626c653a20636f6e747261637420697320696e697469604482015266616c697a696e6760c81b606482015260840160405180910390fd5b60005460ff9081161015620000e6576000805460ff191660ff9081179091556040519081527f7f26b83ff96e1f2b6a682f133852f6798a09c465da95921460cefb38474024989060200160405180910390a15b565b608051613ed4620001206000396000818161089f015281816108df0152818161114c0152818161118c015261121f0152613ed46000f3fe6080604052600436106101e35760003560e01c806380956c7e11610102578063bdbdbcbf11610095578063d6d0faee11610064578063d6d0faee14610576578063e499250614610596578063ec64948e146105b6578063f2fde38b146105d657600080fd5b8063bdbdbcbf146104f6578063c018411214610516578063c87b56dd14610536578063d179e3d01461055657600080fd5b8063a32c9c7a116100d1578063a32c9c7a14610476578063a394780314610496578063a8cf8683146104b6578063bd6645e4146104d657600080fd5b806380956c7e146104035780638339a133146104235780638da5cb5b1461044357806395d89b411461046157600080fd5b80634a50b3761161017a578063635ad99311610149578063635ad9931461038f57806370a08231146103ae578063715018a6146103ce5780637c402f8d146103e357600080fd5b80634a50b3761461030f5780634f1ef2861461032f57806352d1902d146103425780636352211e1461035757600080fd5b80633659cfe6116101b65780633659cfe61461028d57806339ae37c0146102af578063445a62b9146102cf5780634a086b53146102ef57600080fd5b806301ffc9a7146101e857806306fdde031461021d5780630f4d9b011461023f5780631766c0381461025f575b600080fd5b3480156101f457600080fd5b50610208610203366004613147565b6105f6565b60405190151581526020015b60405180910390f35b34801561022957600080fd5b50610232610648565b60405161021491906131c1565b34801561024b57600080fd5b5061020861025a3660046131d4565b6106db565b34801561026b57600080fd5b5061027f61027a366004613243565b610742565b604051908152602001610214565b34801561029957600080fd5b506102ad6102a83660046132c5565b610895565b005b3480156102bb57600080fd5b506102ad6102ca366004613326565b610974565b3480156102db57600080fd5b506102ad6102ea366004613391565b610afa565b3480156102fb57600080fd5b5061027f61030a3660046133dc565b610db8565b34801561031b57600080fd5b506102ad61032a3660046134d7565b610f1e565b6102ad61033d3660046135ca565b611142565b34801561034e57600080fd5b5061027f611212565b34801561036357600080fd5b506103776103723660046131d4565b6112c5565b6040516001600160a01b039091168152602001610214565b34801561039b57600080fd5b50610135546001600160a01b0316610377565b3480156103ba57600080fd5b5061027f6103c93660046132c5565b61131a565b3480156103da57600080fd5b506102ad6113a2565b3480156103ef57600080fd5b506102ad6103fe366004613671565b6113b6565b34801561040f57600080fd5b506102ad61041e3660046136b0565b61157a565b34801561042f57600080fd5b5061027f61043e3660046136d2565b611734565b34801561044f57600080fd5b5060c9546001600160a01b0316610377565b34801561046d57600080fd5b506102326117c1565b34801561048257600080fd5b506102ad610491366004613726565b6117d1565b3480156104a257600080fd5b5061027f6104b1366004613243565b6119ed565b3480156104c257600080fd5b5061027f6104d13660046136d2565b611b37565b3480156104e257600080fd5b5061027f6104f13660046137bf565b611b6d565b34801561050257600080fd5b506102ad61051136600461381a565b611be7565b34801561052257600080fd5b506102ad6105313660046132c5565b611c8a565b34801561054257600080fd5b506102326105513660046131d4565b611cb5565b34801561056257600080fd5b506102ad6105713660046131d4565b611dbc565b34801561058257600080fd5b506102ad61059136600461385b565b611e63565b3480156105a257600080fd5b5061027f6105b136600461391a565b612042565b3480156105c257600080fd5b5061027f6105d1366004613243565b6120b2565b3480156105e257600080fd5b506102ad6105f13660046132c5565b6121ef565b60006001600160e01b03198216635b5e139f60e01b148061062757506001600160e01b031982166346bdd63960e11b145b8061064257506301ffc9a760e01b6001600160e01b03198316145b92915050565b6060610130805461065890613972565b80601f016020809104026020016040519081016040528092919081815260200182805461068490613972565b80156106d15780601f106106a6576101008083540402835291602001916106d1565b820191906000526020600020905b8154815290600101906020018083116106b457829003601f168201915b5050505050905090565b6000818152610132602052604081205482906001600160a01b031661071b5760405162461bcd60e51b8152600401610712906139a6565b60405180910390fd5b600883901c60009081526101376020526040902054600160ff85161b161591505b50919050565b61013554604051633664a8e960e01b815260009182916001600160a01b0390911690633664a8e99061077a9089908990600401613a04565b602060405180830381865afa158015610797573d6000803e3d6000fd5b505050506040513d601f19601f820116820180604052508101906107bb9190613a18565b6101355460405163e3ee9c4d60e01b8152600481018390523360248201529192506001600160a01b03169063e3ee9c4d90604401602060405180830381865afa15801561080c573d6000803e3d6000fd5b505050506040513d601f19601f820116820180604052508101906108309190613a31565b61087c5760405162461bcd60e51b815260206004820181905260248201527f6769766552657175657374656442616467653a20756e617574686f72697a65646044820152606401610712565b61088a878787878786612265565b979650505050505050565b6001600160a01b037f00000000000000000000000000000000000000000000000000000000000000001630036108dd5760405162461bcd60e51b815260040161071290613a53565b7f00000000000000000000000000000000000000000000000000000000000000006001600160a01b0316610926600080516020613e58833981519152546001600160a01b031690565b6001600160a01b03161461094c5760405162461bcd60e51b815260040161071290613a9f565b61095581612318565b6040805160008082526020820190925261097191839190612320565b50565b61013554604051633664a8e960e01b81526000916001600160a01b031690633664a8e9906109a89086908690600401613a04565b602060405180830381865afa1580156109c5573d6000803e3d6000fd5b505050506040513d601f19601f820116820180604052508101906109e99190613a18565b6101355460405163e3ee9c4d60e01b8152600481018390523360248201529192506001600160a01b03169063e3ee9c4d90604401602060405180830381865afa158015610a3a573d6000803e3d6000fd5b505050506040513d601f19601f82011682018060405250810190610a5e9190613a31565b610aa25760405162461bcd60e51b8152602060048201526015602482015274185a5c991c9bdc0e881d5b985d5d1a1bdc9a5e9959605a1b6044820152606401610712565b60005b84811015610af257610adf868683818110610ac257610ac2613aeb565b9050602002016020810190610ad791906132c5565b858585612490565b5080610aea81613b17565b915050610aa5565b505050505050565b6101355460405163e3ee9c4d60e01b8152600481018390523360248201526001600160a01b039091169063e3ee9c4d90604401602060405180830381865afa158015610b4a573d6000803e3d6000fd5b505050506040513d601f19601f82011682018060405250810190610b6e9190613a31565b610bba5760405162461bcd60e51b815260206004820152601860248201527f637265617465537065633a20756e617574686f72697a656400000000000000006044820152606401610712565b61013554604051637e07102760e11b81526001600160a01b039091169063fc0e204e90610bed9086908690600401613a04565b602060405180830381865afa158015610c0a573d6000803e3d6000fd5b505050506040513d601f19601f82011682018060405250810190610c2e9190613a31565b15610c875760405162461bcd60e51b815260206004820152602360248201527f637265617465537065633a207370656320616c726561647920726567697374656044820152621c995960ea1b6064820152608401610712565b6101355460405163addd190760e01b81526001600160a01b039091169063addd190790610cbc90869086908690600401613b30565b600060405180830381600087803b158015610cd657600080fd5b505af1158015610cea573d6000803e3d6000fd5b5050505061013560009054906101000a90046001600160a01b03166001600160a01b03166334f876626040518163ffffffff1660e01b8152600401602060405180830381865afa158015610d42573d6000803e3d6000fd5b505050506040513d601f19601f82011682018060405250810190610d669190613b54565b6001600160a01b031681336001600160a01b03167f68c7f8503283c455a4445b54a7d5c40656c8cae5cca0583c6d4be836984787008686604051610dab929190613a04565b60405180910390a4505050565b6000610dcb89338a8a8a8a8a8a8a61260f565b61013554604051633664a8e960e01b81526000916001600160a01b031690633664a8e990610dff908c908c90600401613a04565b602060405180830381865afa158015610e1c573d6000803e3d6000fd5b505050506040513d601f19601f82011682018060405250810190610e409190613a18565b6101355460405163e3ee9c4d60e01b8152600481018390526001600160a01b038d8116602483015292935091169063e3ee9c4d90604401602060405180830381865afa158015610e94573d6000803e3d6000fd5b505050506040513d601f19601f82011682018060405250810190610eb89190613a31565b610f045760405162461bcd60e51b815260206004820152601860248201527f6d65726b6c6554616b653a20756e617574686f72697a656400000000000000006044820152606401610712565b610f10338a8a84612490565b9a9950505050505050505050565b84518114610fa05760405162461bcd60e51b815260206004820152604360248201527f676976655265717565737465644261646765546f4d616e793a2072656369706960448201527f656e747320616e64207369676e617475726573206c656e677468206d69736d616064820152620e8c6d60eb1b608482015260a401610712565b61013554604051633664a8e960e01b81526000916001600160a01b031690633664a8e990610fd49088908890600401613a04565b602060405180830381865afa158015610ff1573d6000803e3d6000fd5b505050506040513d601f19601f820116820180604052508101906110159190613a18565b6101355460405163e3ee9c4d60e01b8152600481018390523360248201529192506001600160a01b03169063e3ee9c4d90604401602060405180830381865afa158015611066573d6000803e3d6000fd5b505050506040513d601f19601f8201168201806040525081019061108a9190613a31565b6110d15760405162461bcd60e51b815260206004820152601860248201527719da5d99551bd3585b9e4e881d5b985d5d1a1bdc9a5e995960421b6044820152606401610712565b60005b8651811015611139576111268782815181106110f2576110f2613aeb565b6020026020010151878787878681811061110e5761110e613aeb565b90506020028101906111209190613b71565b87612265565b508061113181613b17565b9150506110d4565b50505050505050565b6001600160a01b037f000000000000000000000000000000000000000000000000000000000000000016300361118a5760405162461bcd60e51b815260040161071290613a53565b7f00000000000000000000000000000000000000000000000000000000000000006001600160a01b03166111d3600080516020613e58833981519152546001600160a01b031690565b6001600160a01b0316146111f95760405162461bcd60e51b815260040161071290613a9f565b61120282612318565b61120e82826001612320565b5050565b6000306001600160a01b037f000000000000000000000000000000000000000000000000000000000000000016146112b25760405162461bcd60e51b815260206004820152603860248201527f555550535570677261646561626c653a206d757374206e6f742062652063616c60448201527f6c6564207468726f7567682064656c656761746563616c6c00000000000000006064820152608401610712565b50600080516020613e5883398151915290565b6000818152610132602052604081205482906001600160a01b03166112fc5760405162461bcd60e51b8152600401610712906139a6565b5050600090815261013260205260409020546001600160a01b031690565b60006001600160a01b0382166113855760405162461bcd60e51b815260206004820152602a60248201527f62616c616e63654f663a2061646472657373283029206973206e6f742061207660448201526930b634b21037bbb732b960b11b6064820152608401610712565b506001600160a01b03166000908152610134602052604090205490565b6113aa61279c565b6113b460006127f6565b565b6000828152610132602052604090205482906001600160a01b03166113ed5760405162461bcd60e51b8152600401610712906139a6565b6101355460405163e3ee9c4d60e01b8152600481018690523360248201526001600160a01b039091169063e3ee9c4d90604401602060405180830381865afa15801561143d573d6000803e3d6000fd5b505050506040513d601f19601f820116820180604052508101906114619190613a31565b6114ad5760405162461bcd60e51b815260206004820152601960248201527f7265766f6b6542616467653a20756e617574686f72697a6564000000000000006044820152606401610712565b600883901c60009081526101376020526040902054600160ff85161b16156115225760405162461bcd60e51b815260206004820152602260248201527f7265766f6b6542616467653a20626164676520616c7265616479207265766f6b604482015261195960f21b6064820152608401610712565b600883901c6000908152610137602052604090208054600160ff86161b17905560405160ff831690339085907ffa784c48260e8db512de5f055a2f29eced211a7b3bd6338058b095ada7354cee90600090a450505050565b6000818152610132602052604090205481906001600160a01b03166115b15760405162461bcd60e51b8152600401610712906139a6565b6101355460405163e3ee9c4d60e01b8152600481018590523360248201526001600160a01b039091169063e3ee9c4d90604401602060405180830381865afa158015611601573d6000803e3d6000fd5b505050506040513d601f19601f820116820180604052508101906116259190613a31565b6116715760405162461bcd60e51b815260206004820152601c60248201527f7265696e737461746542616467653a20756e617574686f72697a6564000000006044820152606401610712565b600882901c60009081526101376020526040902054600160ff84161b166116e45760405162461bcd60e51b815260206004820152602160248201527f7265696e737461746542616467653a206261646765206e6f74207265766f6b656044820152601960fa1b6064820152608401610712565b600882901c600090815261013760205260408082208054600160ff87161b1916905551339184917f7f8cf9ecf2a5225948f8a1601709cedc8471c52ee75a8174c9845c29c99ed9a29190a3505050565b60006117b77fa1cd8d39eb877323a4bcf08188675058ee9a4534d4c79021300b3722aeda505d85858560405161176b929190613bb7565b60405190819003812061179c9392916020019283526001600160a01b03919091166020830152604082015260600190565b60405160208183030381529060405280519060200120612848565b90505b9392505050565b6060610131805461065890613972565b84811461183e5760405162461bcd60e51b815260206004820152603560248201527f67697665546f4d616e793a20726563697069656e747320616e64207369676e616044820152740e8eae4cae640d8cadccee8d040dad2e6dac2e8c6d605b1b6064820152608401610712565b61013554604051633664a8e960e01b81526000916001600160a01b031690633664a8e9906118729088908890600401613a04565b602060405180830381865afa15801561188f573d6000803e3d6000fd5b505050506040513d601f19601f820116820180604052508101906118b39190613a18565b6101355460405163e3ee9c4d60e01b8152600481018390523360248201529192506001600160a01b03169063e3ee9c4d90604401602060405180830381865afa158015611904573d6000803e3d6000fd5b505050506040513d601f19601f820116820180604052508101906119289190613a31565b61196f5760405162461bcd60e51b815260206004820152601860248201527719da5d99551bd3585b9e4e881d5b985d5d1a1bdc9a5e995960421b6044820152606401610712565b60005b868110156119e3576119d088888381811061198f5761198f613aeb565b90506020020160208101906119a491906132c5565b87878787868181106119b8576119b8613aeb565b90506020028101906119ca9190613b71565b87612896565b50806119db81613b17565b915050611972565b5050505050505050565b60006119fd3387878787876128a2565b61013554604051633664a8e960e01b81526000916001600160a01b031690633664a8e990611a319089908990600401613a04565b602060405180830381865afa158015611a4e573d6000803e3d6000fd5b505050506040513d601f19601f82011682018060405250810190611a729190613a18565b6101355460405163e3ee9c4d60e01b8152600481018390526001600160a01b038a8116602483015292935091169063e3ee9c4d90604401602060405180830381865afa158015611ac6573d6000803e3d6000fd5b505050506040513d601f19601f82011682018060405250810190611aea9190613a31565b611b2b5760405162461bcd60e51b81526020600482015260126024820152711d185ad94e881d5b985d5d1a1bdc9a5e995960721b6044820152606401610712565b61088a33878784612490565b6000838383604051602001611b4e93929190613bc7565b6040516020818303038152906040528051906020012090509392505050565b6000611bdc7f6d0d990916a9f9c9e0896e59ce7f5ddddff333d0c8772438ce004fa7719b164b868686604051611ba4929190613bb7565b60405190819003812061179c93929187906020019384526001600160a01b039290921660208401526040830152606082015260800190565b90505b949350505050565b611bef61279c565b80611c4b5760405162461bcd60e51b815260206004820152602660248201527f726566726573684d657461646174613a206e6f207370656320757269732070726044820152651bdd9a59195960d21b6064820152608401610712565b7f2231d988b1a75dccab13dee3564b71a551900e822e94177a96f19561890c0fd5828233604051611c7e93929190613bec565b60405180910390a15050565b611c9261279c565b61013580546001600160a01b0319166001600160a01b0392909216919091179055565b600081815261013260205260409020546060906001600160a01b0316611d1d5760405162461bcd60e51b815260206004820152601d60248201527f746f6b656e5552493a20746f6b656e20646f65736e27742065786973740000006044820152606401610712565b6000828152610133602052604090208054611d3790613972565b80601f0160208091040260200160405190810160405280929190818152602001828054611d6390613972565b8015611db05780601f10611d8557610100808354040283529160200191611db0565b820191906000526020600020905b815481529060010190602001808311611d9357829003601f168201915b50505050509050919050565b6000818152610132602052604090205481906001600160a01b0316611df35760405162461bcd60e51b8152600401610712906139a6565b600082815261013260205260409020546001600160a01b03163314611e5a5760405162461bcd60e51b815260206004820152601d60248201527f756e65717569703a2073656e646572206d757374206265206f776e65720000006044820152606401610712565b61120e82612948565b600054610100900460ff1615808015611e835750600054600160ff909116105b80611e9d5750303b158015611e9d575060005460ff166001145b611f005760405162461bcd60e51b815260206004820152602e60248201527f496e697469616c697a61626c653a20636f6e747261637420697320616c72656160448201526d191e481a5b9a5d1a585b1a5e995960921b6064820152608401610712565b6000805460ff191660011790558015611f23576000805461ff0019166101001790555b610130611f31898b83613cdb565b50610131611f40878983613cdb565b5061013580546001600160a01b0319166001600160a01b038416179055611f656129f3565b611f6d612a1a565b611fe089898080601f01602080910402602001604051908101604052809392919081815260200183838082843760009201919091525050604080516020601f8b018190048102820181019092528981529250899150889081908401838280828437600092019190915250612a4992505050565b611fe86129f3565b611ff1836121ef565b8015612037576000805461ff0019169055604051600181527f7f26b83ff96e1f2b6a682f133852f6798a09c465da95921460cefb38474024989060200160405180910390a15b505050505050505050565b6000611bdc7fe76a195fbe43f0eaa611595069f780493db2202a1cc4b2d7d44b47069812998a8686868660405161207a929190613bb7565b60405190819003812061179c949392916020019384526001600160a01b03928316602085015291166040830152606082015260800190565b61013554604051633664a8e960e01b815260009182916001600160a01b0390911690633664a8e9906120ea9089908990600401613a04565b602060405180830381865afa158015612107573d6000803e3d6000fd5b505050506040513d601f19601f8201168201806040525081019061212b9190613a18565b6101355460405163e3ee9c4d60e01b8152600481018390523360248201529192506001600160a01b03169063e3ee9c4d90604401602060405180830381865afa15801561217c573d6000803e3d6000fd5b505050506040513d601f19601f820116820180604052508101906121a09190613a31565b6121e15760405162461bcd60e51b815260206004820152601260248201527119da5d994e881d5b985d5d1a1bdc9a5e995960721b6044820152606401610712565b61088a878787878786612896565b6121f761279c565b6001600160a01b03811661225c5760405162461bcd60e51b815260206004820152602660248201527f4f776e61626c653a206e6577206f776e657220697320746865207a65726f206160448201526564647265737360d01b6064820152608401610712565b610971816127f6565b60006122b287612276898989611734565b86868080601f016020809104026020016040519081016040528093929190818152602001838380828437600092019190915250612a7a92505050565b61230c5760405162461bcd60e51b815260206004820152602560248201527f6769766552657175657374656442616467653a20696e76616c6964207369676e604482015264617475726560d81b6064820152608401610712565b61088a87878785612490565b61097161279c565b7f4910fdfa16fed3260ed0e7147f7cc6da11a60208b5b9406d12a635614ffd91435460ff16156123585761235383612bbc565b505050565b826001600160a01b03166352d1902d6040518163ffffffff1660e01b8152600401602060405180830381865afa9250505080156123b2575060408051601f3d908101601f191682019092526123af91810190613a18565b60015b6124155760405162461bcd60e51b815260206004820152602e60248201527f45524331393637557067726164653a206e657720696d706c656d656e7461746960448201526d6f6e206973206e6f74205555505360901b6064820152608401610712565b600080516020613e5883398151915281146124845760405162461bcd60e51b815260206004820152602960248201527f45524331393637557067726164653a20756e737570706f727465642070726f786044820152681a58589b195555525160ba1b6064820152608401610712565b50612353838383612c58565b60008061249e868686611b37565b600081815261013260205260409020549091506001600160a01b0316156124fe5760405162461bcd60e51b81526020600482015260146024820152736d696e743a20746f6b656e49442065786973747360601b6044820152606401610712565b6001600160a01b03861660009081526101346020526040812080549161252383613b17565b909155505060008181526101326020908152604080832080546001600160a01b0319166001600160a01b038b161790556101339091529020612566858783613cdb565b5060405181906001600160a01b038816906000907fddf252ad1be2c89b69c2b068fc378daa952ba7f163c4a11628f55a4df523b3ef908290a46101355460405163fb74926160e01b815260048101839052602481018590526001600160a01b039091169063fb74926190604401600060405180830381600087803b1580156125ed57600080fd5b505af1158015612601573d6000803e3d6000fd5b509298975050505050505050565b61265b8961261f8b8a8a88611b6d565b87878080601f016020809104026020016040519081016040528093929190818152602001838380828437600092019190915250612a7a92505050565b6126bb5760405162461bcd60e51b815260206004820152602b60248201527f73616665436865636b4d65726b6c6541677265656d656e743a20696e76616c6960448201526a64207369676e617475726560a81b6064820152608401610712565b6040516bffffffffffffffffffffffff1960608a901b166020820152600090603401604051602081830303815290604052805190602001209050612735838380806020026020016040519081016040528093929190818152602001838360200280828437600092019190915250889250859150612c839050565b6127905760405162461bcd60e51b815260206004820152602660248201527f73616665436865636b4d65726b6c6541677265656d656e743a20696e76616c6960448201526532103632b0b360d11b6064820152608401610712565b50505050505050505050565b60c9546001600160a01b031633146113b45760405162461bcd60e51b815260206004820181905260248201527f4f776e61626c653a2063616c6c6572206973206e6f7420746865206f776e65726044820152606401610712565b60c980546001600160a01b038381166001600160a01b0319831681179093556040519116919082907f8be0079c531659141344cd1fd0a4f28419497f9722a3daafe3b4186f6b6457e090600090a35050565b6000610642612855612c99565b8360405161190160f01b6020820152602281018390526042810182905260009060620160405160208183030381529060405280519060200120905092915050565b600061230c3388888888885b6128ee856128b288888888612042565b84848080601f016020809104026020016040519081016040528093929190818152602001838380828437600092019190915250612a7a92505050565b610af25760405162461bcd60e51b815260206004820152602560248201527f73616665436865636b41677265656d656e743a20696e76616c6964207369676e604482015264617475726560d81b6064820152608401610712565b600081815261013260209081526040808320546001600160a01b0316808452610134909252822080549192600192612981908490613d9b565b909155505060008281526101326020908152604080832080546001600160a01b031916905561013390915281206129b7916130f9565b60405182906000906001600160a01b038416907fddf252ad1be2c89b69c2b068fc378daa952ba7f163c4a11628f55a4df523b3ef908390a45050565b600054610100900460ff166113b45760405162461bcd60e51b815260040161071290613dae565b600054610100900460ff16612a415760405162461bcd60e51b815260040161071290613dae565b6113b4612cd5565b600054610100900460ff16612a705760405162461bcd60e51b815260040161071290613dae565b61120e8282612d05565b6000806000612a898585612d46565b90925090506000816004811115612aa257612aa2613df9565b148015612ac05750856001600160a01b0316826001600160a01b0316145b15612ad0576001925050506117ba565b600080876001600160a01b0316631626ba7e60e01b8888604051602401612af8929190613e0f565b60408051601f198184030181529181526020820180516001600160e01b03166001600160e01b0319909416939093179092529051612b369190613e28565b600060405180830381855afa9150503d8060008114612b71576040519150601f19603f3d011682016040523d82523d6000602084013e612b76565b606091505b5091509150818015612b89575080516020145b8015612bb057508051630b135d3f60e11b90612bae9083016020908101908401613a18565b145b98975050505050505050565b6001600160a01b0381163b612c295760405162461bcd60e51b815260206004820152602d60248201527f455243313936373a206e657720696d706c656d656e746174696f6e206973206e60448201526c1bdd08184818dbdb9d1c9858dd609a1b6064820152608401610712565b600080516020613e5883398151915280546001600160a01b0319166001600160a01b0392909216919091179055565b612c6183612db4565b600082511180612c6e5750805b1561235357612c7d8383612df4565b50505050565b600082612c908584612ee8565b14949350505050565b6000612cd07f8b73c3c69bb8fe3d512ecc4cf759cc79239f7b179b0ffacaa9a75d522b39400f612cc860fb5490565b60fc54612f35565b905090565b600054610100900460ff16612cfc5760405162461bcd60e51b815260040161071290613dae565b6113b4336127f6565b600054610100900460ff16612d2c5760405162461bcd60e51b815260040161071290613dae565b81516020928301208151919092012060fb9190915560fc55565b6000808251604103612d7c5760208301516040840151606085015160001a612d7087828585612f64565b94509450505050612dad565b8251604003612da55760208301516040840151612d9a868383613051565b935093505050612dad565b506000905060025b9250929050565b612dbd81612bbc565b6040516001600160a01b038216907fbc7cd75a20ee27fd9adebab32041f755214dbc6bffa90cc0225b39da2e5c2d3b90600090a250565b60606001600160a01b0383163b612e5c5760405162461bcd60e51b815260206004820152602660248201527f416464726573733a2064656c65676174652063616c6c20746f206e6f6e2d636f6044820152651b9d1c9858dd60d21b6064820152608401610712565b600080846001600160a01b031684604051612e779190613e28565b600060405180830381855af49150503d8060008114612eb2576040519150601f19603f3d011682016040523d82523d6000602084013e612eb7565b606091505b5091509150612edf8282604051806060016040528060278152602001613e786027913961308a565b95945050505050565b600081815b8451811015612f2d57612f1982868381518110612f0c57612f0c613aeb565b60200260200101516130a3565b915080612f2581613b17565b915050612eed565b509392505050565b6040805160208101859052908101839052606081018290524660808201523060a082015260009060c001611b4e565b6000807f7fffffffffffffffffffffffffffffff5d576e7357a4501ddfe92f46681b20a0831115612f9b5750600090506003613048565b8460ff16601b14158015612fb357508460ff16601c14155b15612fc45750600090506004613048565b6040805160008082526020820180845289905260ff881692820192909252606081018690526080810185905260019060a0016020604051602081039080840390855afa158015613018573d6000803e3d6000fd5b5050604051601f1901519150506001600160a01b03811661304157600060019250925050613048565b9150600090505b94509492505050565b6000806001600160ff1b0383168161306e60ff86901c601b613e44565b905061307c87828885612f64565b935093505050935093915050565b606083156130995750816117ba565b6117ba83836130cf565b60008183106130bf5760008281526020849052604090206117ba565b5060009182526020526040902090565b8151156130df5781518083602001fd5b8060405162461bcd60e51b815260040161071291906131c1565b50805461310590613972565b6000825580601f10613115575050565b601f01602090049060005260206000209081019061097191905b80821115613143576000815560010161312f565b5090565b60006020828403121561315957600080fd5b81356001600160e01b0319811681146117ba57600080fd5b60005b8381101561318c578181015183820152602001613174565b50506000910152565b600081518084526131ad816020860160208601613171565b601f01601f19169290920160200192915050565b6020815260006117ba6020830184613195565b6000602082840312156131e657600080fd5b5035919050565b6001600160a01b038116811461097157600080fd5b60008083601f84011261321457600080fd5b5081356001600160401b0381111561322b57600080fd5b602083019150836020828501011115612dad57600080fd5b60008060008060006060868803121561325b57600080fd5b8535613266816131ed565b945060208601356001600160401b038082111561328257600080fd5b61328e89838a01613202565b909650945060408801359150808211156132a757600080fd5b506132b488828901613202565b969995985093965092949392505050565b6000602082840312156132d757600080fd5b81356117ba816131ed565b60008083601f8401126132f457600080fd5b5081356001600160401b0381111561330b57600080fd5b6020830191508360208260051b8501011115612dad57600080fd5b6000806000806040858703121561333c57600080fd5b84356001600160401b038082111561335357600080fd5b61335f888389016132e2565b9096509450602087013591508082111561337857600080fd5b5061338587828801613202565b95989497509550505050565b6000806000604084860312156133a657600080fd5b83356001600160401b038111156133bc57600080fd5b6133c886828701613202565b909790965060209590950135949350505050565b60008060008060008060008060a0898b0312156133f857600080fd5b8835613403816131ed565b975060208901356001600160401b038082111561341f57600080fd5b61342b8c838d01613202565b909950975060408b013591508082111561344457600080fd5b6134508c838d01613202565b909750955060608b0135945060808b013591508082111561347057600080fd5b5061347d8b828c016132e2565b999c989b5096995094979396929594505050565b634e487b7160e01b600052604160045260246000fd5b604051601f8201601f191681016001600160401b03811182821017156134cf576134cf613491565b604052919050565b6000806000806000606086880312156134ef57600080fd5b85356001600160401b038082111561350657600080fd5b818801915088601f83011261351a57600080fd5b813560208282111561352e5761352e613491565b8160051b61353d8282016134a7565b928352848101820192828101908d85111561355757600080fd5b958301955b848710156135815786359250613571836131ed565b828252958301959083019061355c565b9a5050508901359250508082111561359857600080fd5b6135a489838a01613202565b909650945060408801359150808211156135bd57600080fd5b506132b4888289016132e2565b600080604083850312156135dd57600080fd5b82356135e8816131ed565b91506020838101356001600160401b038082111561360557600080fd5b818601915086601f83011261361957600080fd5b81358181111561362b5761362b613491565b61363d601f8201601f191685016134a7565b9150808252878482850101111561365357600080fd5b80848401858401376000848284010152508093505050509250929050565b60008060006060848603121561368657600080fd5b8335925060208401359150604084013560ff811681146136a557600080fd5b809150509250925092565b600080604083850312156136c357600080fd5b50508035926020909101359150565b6000806000604084860312156136e757600080fd5b83356136f2816131ed565b925060208401356001600160401b0381111561370d57600080fd5b61371986828701613202565b9497909650939450505050565b6000806000806000806060878903121561373f57600080fd5b86356001600160401b038082111561375657600080fd5b6137628a838b016132e2565b9098509650602089013591508082111561377b57600080fd5b6137878a838b01613202565b909650945060408901359150808211156137a057600080fd5b506137ad89828a016132e2565b979a9699509497509295939492505050565b600080600080606085870312156137d557600080fd5b84356137e0816131ed565b935060208501356001600160401b038111156137fb57600080fd5b61380787828801613202565b9598909750949560400135949350505050565b6000806020838503121561382d57600080fd5b82356001600160401b0381111561384357600080fd5b61384f858286016132e2565b90969095509350505050565b60008060008060008060008060a0898b03121561387757600080fd5b88356001600160401b038082111561388e57600080fd5b61389a8c838d01613202565b909a50985060208b01359150808211156138b357600080fd5b6138bf8c838d01613202565b909850965060408b01359150808211156138d857600080fd5b506138e58b828c01613202565b90955093505060608901356138f9816131ed565b91506080890135613909816131ed565b809150509295985092959890939650565b6000806000806060858703121561393057600080fd5b843561393b816131ed565b9350602085013561394b816131ed565b925060408501356001600160401b0381111561396657600080fd5b61338587828801613202565b600181811c9082168061398657607f821691505b60208210810361073c57634e487b7160e01b600052602260045260246000fd5b6020808252818101527f746f6b656e4578697374733a20746f6b656e20646f65736e2774206578697374604082015260600190565b81835281816020850137506000828201602090810191909152601f909101601f19169091010190565b6020815260006117b76020830184866139db565b600060208284031215613a2a57600080fd5b5051919050565b600060208284031215613a4357600080fd5b815180151581146117ba57600080fd5b6020808252602c908201527f46756e6374696f6e206d7573742062652063616c6c6564207468726f7567682060408201526b19195b1959d85d1958d85b1b60a21b606082015260800190565b6020808252602c908201527f46756e6374696f6e206d7573742062652063616c6c6564207468726f7567682060408201526b6163746976652070726f787960a01b606082015260800190565b634e487b7160e01b600052603260045260246000fd5b634e487b7160e01b600052601160045260246000fd5b600060018201613b2957613b29613b01565b5060010190565b604081526000613b446040830185876139db565b9050826020830152949350505050565b600060208284031215613b6657600080fd5b81516117ba816131ed565b6000808335601e19843603018112613b8857600080fd5b8301803591506001600160401b03821115613ba257600080fd5b602001915036819003821315612dad57600080fd5b8183823760009101908152919050565b6001600160a01b0384168152604060208201819052600090611bdc90830184866139db565b6040808252810183905260006060600585901b8301810190830186835b87811015613c7c57858403605f190183528135368a9003601e19018112613c2f57600080fd5b890160208181019135906001600160401b03821115613c4d57600080fd5b813603831315613c5c57600080fd5b613c678783856139db565b96509485019493909301925050600101613c09565b5050506001600160a01b03841660208401529050611bdf565b601f82111561235357600081815260208120601f850160051c81016020861015613cbc5750805b601f850160051c820191505b81811015610af257828155600101613cc8565b6001600160401b03831115613cf257613cf2613491565b613d0683613d008354613972565b83613c95565b6000601f841160018114613d3a5760008515613d225750838201355b600019600387901b1c1916600186901b178355613d94565b600083815260209020601f19861690835b82811015613d6b5786850135825560209485019460019092019101613d4b565b5086821015613d885760001960f88860031b161c19848701351681555b505060018560011b0183555b5050505050565b8181038181111561064257610642613b01565b6020808252602b908201527f496e697469616c697a61626c653a20636f6e7472616374206973206e6f74206960408201526a6e697469616c697a696e6760a81b606082015260800190565b634e487b7160e01b600052602160045260246000fd5b8281526040602082015260006117b76040830184613195565b60008251613e3a818460208701613171565b9190910192915050565b8082018082111561064257610642613b0156fe360894a13ba1a3210667c828492db98dca3e2076cc3735a920a3ca505d382bbc416464726573733a206c6f772d6c6576656c2064656c65676174652063616c6c206661696c6564a264697066735822122061230a17bf7db2e4ee321f6667ff681ee3b1f2bedca67a3728a94e6e9635120464736f6c63430008100033",
    "linkReferences": {}
  },
  "methodIdentifiers": {
    "airdrop(address[],string)": "39ae37c0",
    "balanceOf(address)": "70a08231",
    "createSpec(string,uint256)": "445a62b9",
    "getAgreementHash(address,address,string)": "e4992506",
    "getBadgeIdHash(address,string)": "a8cf8683",
    "getDataHolderAddress()": "635ad993",
    "getMerkleAgreementHash(address,string,bytes32)": "bd6645e4",
    "getRequestHash(address,string)": "8339a133",
    "give(address,string,bytes)": "ec64948e",
    "giveRequestedBadge(address,string,bytes)": "1766c038",
    "giveRequestedBadgeToMany(address[],string,bytes[])": "4a50b376",
    "giveToMany(address[],string,bytes[])": "a32c9c7a",
    "initialize(string,string,string,address,address)": "d6d0faee",
    "isBadgeValid(uint256)": "0f4d9b01",
    "merkleTake(address,string,bytes,bytes32,bytes32[])": "4a086b53",
    "name()": "06fdde03",
    "owner()": "8da5cb5b",
    "ownerOf(uint256)": "6352211e",
    "proxiableUUID()": "52d1902d",
    "refreshMetadata(string[])": "bdbdbcbf",
    "reinstateBadge(uint256,uint256)": "80956c7e",
    "renounceOwnership()": "715018a6",
    "revokeBadge(uint256,uint256,uint8)": "7c402f8d",
    "setDataHolder(address)": "c0184112",
    "supportsInterface(bytes4)": "01ffc9a7",
    "symbol()": "95d89b41",
    "take(address,string,bytes)": "a3947803",
    "tokenURI(uint256)": "c87b56dd",
    "transferOwnership(address)": "f2fde38b",
    "unequip(uint256)": "d179e3d0",
    "upgradeTo(address)": "3659cfe6",
    "upgradeToAndCall(address,bytes)": "4f1ef286"
  },
  "id": 46
}