{
  "abi": [
    {
      "inputs": [
        {
          "internalType": "string",
          "name": "name",
          "type": "string"
        },
        {
          "internalType": "string",
          "name": "symbol",
          "type": "string"
        },
        {
          "internalType": "string",
          "name": "version",
          "type": "string"
        },
        {
          "internalType": "address",
          "name": "raftAddress",
          "type": "address"
        },
        {
          "internalType": "address",
          "name": "nextOwner",
          "type": "address"
        }
      ],
      "stateMutability": "nonpayable",
      "type": "constructor"
    },
    {
      "anonymous": false,
      "inputs": [
        {
          "indexed": true,
          "internalType": "address",
          "name": "from",
          "type": "address"
        },
        {
          "indexed": true,
          "internalType": "address",
          "name": "to",
          "type": "address"
        },
        {
          "indexed": false,
          "internalType": "string",
          "name": "specUri",
          "type": "string"
        },
        {
          "indexed": false,
          "internalType": "uint256",
          "name": "tokenId",
          "type": "uint256"
        }
      ],
      "name": "BadgeMinted",
      "type": "event"
    },
    {
      "anonymous": false,
      "inputs": [
        {
          "indexed": true,
          "internalType": "address",
          "name": "previousOwner",
          "type": "address"
        },
        {
          "indexed": true,
          "internalType": "address",
          "name": "newOwner",
          "type": "address"
        }
      ],
      "name": "OwnershipTransferred",
      "type": "event"
    },
    {
      "anonymous": false,
      "inputs": [
        {
          "indexed": true,
          "internalType": "address",
          "name": "to",
          "type": "address"
        },
        {
          "indexed": false,
          "internalType": "string",
          "name": "specUri",
          "type": "string"
        },
        {
          "indexed": true,
          "internalType": "uint256",
          "name": "raftTokenId",
          "type": "uint256"
        },
        {
          "indexed": true,
          "internalType": "address",
          "name": "raftAddress",
          "type": "address"
        }
      ],
      "name": "SpecCreated",
      "type": "event"
    },
    {
      "anonymous": false,
      "inputs": [
        {
          "indexed": true,
          "internalType": "address",
          "name": "from",
          "type": "address"
        },
        {
          "indexed": true,
          "internalType": "address",
          "name": "to",
          "type": "address"
        },
        {
          "indexed": true,
          "internalType": "uint256",
          "name": "tokenId",
          "type": "uint256"
        }
      ],
      "name": "Transfer",
      "type": "event"
    },
    {
      "inputs": [
        {
          "internalType": "address",
          "name": "owner",
          "type": "address"
        }
      ],
      "name": "balanceOf",
      "outputs": [
        {
          "internalType": "uint256",
          "name": "",
          "type": "uint256"
        }
      ],
      "stateMutability": "view",
      "type": "function"
    },
    {
      "inputs": [
        {
          "internalType": "string",
          "name": "specUri",
          "type": "string"
        },
        {
          "internalType": "uint256",
          "name": "raftTokenId",
          "type": "uint256"
        }
      ],
      "name": "createSpecAsRaftOwner",
      "outputs": [],
      "stateMutability": "nonpayable",
      "type": "function"
    },
    {
      "inputs": [
        {
          "internalType": "address",
          "name": "from",
          "type": "address"
        },
        {
          "internalType": "address",
          "name": "to",
          "type": "address"
        },
        {
          "internalType": "string",
          "name": "tokenURI",
          "type": "string"
        }
      ],
      "name": "getHash",
      "outputs": [
        {
          "internalType": "bytes32",
          "name": "",
          "type": "bytes32"
        }
      ],
      "stateMutability": "view",
      "type": "function"
    },
    {
      "inputs": [],
      "name": "getRaftAddress",
      "outputs": [
        {
          "internalType": "address",
          "name": "",
          "type": "address"
        }
      ],
      "stateMutability": "view",
      "type": "function"
    },
    {
      "inputs": [
        {
          "internalType": "string",
          "name": "specUri",
          "type": "string"
        }
      ],
      "name": "getRaftTokenIdOf",
      "outputs": [
        {
          "internalType": "uint256",
          "name": "",
          "type": "uint256"
        }
      ],
      "stateMutability": "view",
      "type": "function"
    },
    {
      "inputs": [
        {
          "internalType": "address",
          "name": "to",
          "type": "address"
        },
        {
          "internalType": "string",
          "name": "uri",
          "type": "string"
        },
        {
          "internalType": "bytes",
          "name": "signature",
          "type": "bytes"
        }
      ],
      "name": "give",
      "outputs": [
        {
          "internalType": "uint256",
          "name": "",
          "type": "uint256"
        }
      ],
      "stateMutability": "nonpayable",
      "type": "function"
    },
    {
      "inputs": [
        {
          "internalType": "address",
          "name": "from",
          "type": "address"
        },
        {
          "internalType": "string",
          "name": "specUri",
          "type": "string"
        },
        {
          "internalType": "bytes",
          "name": "signature",
          "type": "bytes"
        }
      ],
      "name": "mintAuthorizedBadge",
      "outputs": [
        {
          "internalType": "uint256",
          "name": "",
          "type": "uint256"
        }
      ],
      "stateMutability": "nonpayable",
      "type": "function"
    },
    {
      "inputs": [],
      "name": "name",
      "outputs": [
        {
          "internalType": "string",
          "name": "",
          "type": "string"
        }
      ],
      "stateMutability": "view",
      "type": "function"
    },
    {
      "inputs": [],
      "name": "owner",
      "outputs": [
        {
          "internalType": "address",
          "name": "",
          "type": "address"
        }
      ],
      "stateMutability": "view",
      "type": "function"
    },
    {
      "inputs": [
        {
          "internalType": "uint256",
          "name": "tokenId",
          "type": "uint256"
        }
      ],
      "name": "ownerOf",
      "outputs": [
        {
          "internalType": "address",
          "name": "",
          "type": "address"
        }
      ],
      "stateMutability": "view",
      "type": "function"
    },
    {
      "inputs": [],
      "name": "renounceOwnership",
      "outputs": [],
      "stateMutability": "nonpayable",
      "type": "function"
    },
    {
      "inputs": [
        {
          "internalType": "address",
          "name": "newRaftAddress",
          "type": "address"
        }
      ],
      "name": "setRaftAddress",
      "outputs": [],
      "stateMutability": "nonpayable",
      "type": "function"
    },
    {
      "inputs": [
        {
          "internalType": "bytes4",
          "name": "interfaceId",
          "type": "bytes4"
        }
      ],
      "name": "supportsInterface",
      "outputs": [
        {
          "internalType": "bool",
          "name": "",
          "type": "bool"
        }
      ],
      "stateMutability": "view",
      "type": "function"
    },
    {
      "inputs": [],
      "name": "symbol",
      "outputs": [
        {
          "internalType": "string",
          "name": "",
          "type": "string"
        }
      ],
      "stateMutability": "view",
      "type": "function"
    },
    {
      "inputs": [
        {
          "internalType": "address",
          "name": "from",
          "type": "address"
        },
        {
          "internalType": "string",
          "name": "uri",
          "type": "string"
        },
        {
          "internalType": "bytes",
          "name": "signature",
          "type": "bytes"
        }
      ],
      "name": "take",
      "outputs": [
        {
          "internalType": "uint256",
          "name": "",
          "type": "uint256"
        }
      ],
      "stateMutability": "nonpayable",
      "type": "function"
    },
    {
      "inputs": [
        {
          "internalType": "uint256",
          "name": "tokenId",
          "type": "uint256"
        }
      ],
      "name": "tokenURI",
      "outputs": [
        {
          "internalType": "string",
          "name": "",
          "type": "string"
        }
      ],
      "stateMutability": "view",
      "type": "function"
    },
    {
      "inputs": [
        {
          "internalType": "address",
          "name": "newOwner",
          "type": "address"
        }
      ],
      "name": "transferOwnership",
      "outputs": [],
      "stateMutability": "nonpayable",
      "type": "function"
    },
    {
      "inputs": [
        {
          "internalType": "uint256",
          "name": "tokenId",
          "type": "uint256"
        }
      ],
      "name": "unequip",
      "outputs": [],
      "stateMutability": "nonpayable",
      "type": "function"
    }
  ],
  "bytecode": {
    "object": "0x6101406040523480156200001257600080fd5b506040516200212438038062002124833981016040819052620000359162000348565b845160208087019190912084518583012060e08290526101008190524660a0818152604080517f8b73c3c69bb8fe3d512ecc4cf759cc79239f7b179b0ffacaa9a75d522b39400f818801819052818301969096526060810194909452608080850193909352308483018190528151808603909301835260c094850190915281519190950120905291909152610120528484846001620000d584826200048e565b506002620000e483826200048e565b5050505062000102620000fc6200013360201b60201c565b62000137565b600a80546001600160a01b0319166001600160a01b038416179055620001288162000189565b50505050506200055a565b3390565b600780546001600160a01b038381166001600160a01b0319831681179093556040519116919082907f8be0079c531659141344cd1fd0a4f28419497f9722a3daafe3b4186f6b6457e090600090a35050565b6007546001600160a01b03163314620001e95760405162461bcd60e51b815260206004820181905260248201527f4f776e61626c653a2063616c6c6572206973206e6f7420746865206f776e657260448201526064015b60405180910390fd5b6001600160a01b038116620002505760405162461bcd60e51b815260206004820152602660248201527f4f776e61626c653a206e6577206f776e657220697320746865207a65726f206160448201526564647265737360d01b6064820152608401620001e0565b6200025b8162000137565b50565b634e487b7160e01b600052604160045260246000fd5b600082601f8301126200028657600080fd5b81516001600160401b0380821115620002a357620002a36200025e565b604051601f8301601f19908116603f01168101908282118183101715620002ce57620002ce6200025e565b81604052838152602092508683858801011115620002eb57600080fd5b600091505b838210156200030f5785820183015181830184015290820190620002f0565b83821115620003215760008385830101525b9695505050505050565b80516001600160a01b03811681146200034357600080fd5b919050565b600080600080600060a086880312156200036157600080fd5b85516001600160401b03808211156200037957600080fd5b6200038789838a0162000274565b965060208801519150808211156200039e57600080fd5b620003ac89838a0162000274565b95506040880151915080821115620003c357600080fd5b50620003d28882890162000274565b935050620003e3606087016200032b565b9150620003f3608087016200032b565b90509295509295909350565b600181811c908216806200041457607f821691505b6020821081036200043557634e487b7160e01b600052602260045260246000fd5b50919050565b601f8211156200048957600081815260208120601f850160051c81016020861015620004645750805b601f850160051c820191505b81811015620004855782815560010162000470565b5050505b505050565b81516001600160401b03811115620004aa57620004aa6200025e565b620004c281620004bb8454620003ff565b846200043b565b602080601f831160018114620004fa5760008415620004e15750858301515b600019600386901b1c1916600185901b17855562000485565b600085815260208120601f198616915b828110156200052b578886015182559484019460019091019084016200050a565b50858210156200054a5787850151600019600388901b60f8161c191681555b5050505050600190811b01905550565b60805160a05160c05160e0516101005161012051611b7a620005aa6000396000611311015260006113600152600061133b01526000611294015260006112be015260006112e80152611b7a6000f3fe608060405234801561001057600080fd5b50600436106101165760003560e01c80638da5cb5b116100a2578063c87b56dd11610071578063c87b56dd14610233578063d179e3d014610246578063d5be4eb014610259578063ec64948e1461026c578063f2fde38b1461027f57600080fd5b80638da5cb5b146101f457806395d89b4114610205578063a39478031461020d578063c5cf33c21461022057600080fd5b806353b52a6e116100e957806353b52a6e146101925780636352211e146101b357806370a08231146101c6578063715018a6146101d9578063781334c5146101e157600080fd5b806301ffc9a71461011b57806306fdde031461014357806334f87662146101585780634249d86e1461017d575b600080fd5b61012e610129366004611538565b610292565b60405190151581526020015b60405180910390f35b61014b6102e4565b60405161013a91906115b1565b600a546001600160a01b03165b6040516001600160a01b03909116815260200161013a565b61019061018b3660046115da565b610376565b005b6101a56101a03660046116d1565b61053d565b60405190815260200161013a565b6101656101c1366004611713565b610568565b6101a56101d4366004611741565b6105cd565b610190610656565b6101a56101ef36600461175e565b61068c565b6007546001600160a01b0316610165565b61014b610895565b6101a561021b36600461175e565b6108a4565b6101a561022e3660046117e1565b61097c565b61014b610241366004611713565b610993565b610190610254366004611713565b610a98565b610190610267366004611741565b610b2d565b6101a561027a36600461175e565b610b79565b61019061028d366004611741565b610c26565b60006001600160e01b03198216635b5e139f60e01b14806102c357506001600160e01b031982166346bdd63960e11b145b806102de57506301ffc9a760e01b6001600160e01b03198316145b92915050565b6060600180546102f390611846565b80601f016020809104026020016040519081016040528092919081815260200182805461031f90611846565b801561036c5780601f106103415761010080835404028352916020019161036c565b820191906000526020600020905b81548152906001019060200180831161034f57829003601f168201915b5050505050905090565b600a546040516331a9108f60e11b81526004810183905233916001600160a01b031690636352211e90602401602060405180830381865afa1580156103bf573d6000803e3d6000fd5b505050506040513d601f19601f820116820180604052508101906103e39190611880565b6001600160a01b03161461044a5760405162461bcd60e51b815260206004820152602360248201527f637265617465537065634173526166744f776e65723a20756e617574686f72696044820152621e995960ea1b60648201526084015b60405180910390fd5b60088260405161045a919061189d565b9081526020016040518091039020546000146104cf5760405162461bcd60e51b815260206004820152602e60248201527f637265617465537065634173526166744f776e65723a207370656320616c726560448201526d18591e481c9959da5cdd195c995960921b6064820152608401610441565b806008836040516104e0919061189d565b90815260405190819003602001812091909155600a546001600160a01b031690829033907f68c7f8503283c455a4445b54a7d5c40656c8cae5cca0583c6d4be83698478700906105319087906115b1565b60405180910390a45050565b6000600883836040516105519291906118b9565b908152602001604051809103902054905092915050565b6000818152600360205260408120546001600160a01b0316806102de5760405162461bcd60e51b815260206004820152601c60248201527f6f776e65724f663a20746f6b656e20646f65736e2774206578697374000000006044820152606401610441565b60006001600160a01b03821661063a5760405162461bcd60e51b815260206004820152602c60248201527f62616c616e63654f663a2061646472657373207a65726f206973206e6f74206160448201526b103b30b634b21037bbb732b960a11b6064820152608401610441565b506001600160a01b031660009081526005602052604090205490565b6007546001600160a01b031633146106805760405162461bcd60e51b8152600401610441906118c9565b61068a6000610cba565b565b600080600886866040516106a19291906118b9565b9081526020016040518091039020549050806000036107165760405162461bcd60e51b815260206004820152602b60248201527f6d696e74417574686f72697a656442616467653a2073706563206973206e6f7460448201526a081c9959da5cdd195c995960aa1b6064820152608401610441565b600080306001600160a01b0316898989898960405160240161073c959493929190611927565b60408051601f198184030181529181526020820180516001600160e01b031663a394780360e01b17905251610771919061189d565b600060405180830381855af49150503d80600081146107ac576040519150601f19603f3d011682016040523d82523d6000602084013e6107b1565b606091505b5091509150816108155760405162461bcd60e51b815260206004820152602960248201527f6d696e74417574686f72697a656442616467653a206261646765206d696e74696044820152681b99c819985a5b195960ba1b6064820152608401610441565b60008180602001905181019061082b919061195f565b600081815260096020526040908190208690555190915033906001600160a01b038c16907fb4d7f6bb726f82ba773af41aacdb5aa34ed8d23e400efe579253bf92ebd42b3190610880908d908d908790611978565b60405180910390a39998505050505050505050565b6060600280546102f390611846565b60006001600160a01b03861633036108fe5760405162461bcd60e51b815260206004820152601b60248201527f74616b653a2063616e6e6f742074616b652066726f6d2073656c6600000000006044820152606401610441565b600061090e338888888888610d0c565b9050610951338288888080601f016020809104026020016040519081016040528093929190818152602001838380828437600092019190915250610e4092505050565b50600881901c60009081526020819052604090208054600160ff84161b1790555b9695505050505050565b600061098a85858585610f48565b95945050505050565b6000818152600360205260409020546060906001600160a01b03166109fa5760405162461bcd60e51b815260206004820152601d60248201527f746f6b656e5552493a20746f6b656e20646f65736e27742065786973740000006044820152606401610441565b60008281526004602052604090208054610a1390611846565b80601f0160208091040260200160405190810160405280929190818152602001828054610a3f90611846565b8015610a8c5780601f10610a6157610100808354040283529160200191610a8c565b820191906000526020600020905b815481529060010190602001808311610a6f57829003601f168201915b50505050509050919050565b610aa181610568565b6001600160a01b0316336001600160a01b031614610b015760405162461bcd60e51b815260206004820152601d60248201527f756e65717569703a2073656e646572206d757374206265206f776e65720000006044820152606401610441565b600881901c60009081526020819052604090208054600160ff84161b19169055610b2a81610fd7565b50565b6007546001600160a01b03163314610b575760405162461bcd60e51b8152600401610441906118c9565b600a80546001600160a01b0319166001600160a01b0392909216919091179055565b60006001600160a01b0386163303610bd35760405162461bcd60e51b815260206004820152601b60248201527f676976653a2063616e6e6f7420676976652066726f6d2073656c6600000000006044820152606401610441565b6000610be3338888888888610d0c565b9050610951878288888080601f016020809104026020016040519081016040528093929190818152602001838380828437600092019190915250610e4092505050565b6007546001600160a01b03163314610c505760405162461bcd60e51b8152600401610441906118c9565b6001600160a01b038116610cb55760405162461bcd60e51b815260206004820152602660248201527f4f776e61626c653a206e6577206f776e657220697320746865207a65726f206160448201526564647265737360d01b6064820152608401610441565b610b2a815b600780546001600160a01b038381166001600160a01b0319831681179093556040519116919082907f8be0079c531659141344cd1fd0a4f28419497f9722a3daafe3b4186f6b6457e090600090a35050565b600080610d1b88888888610f48565b905060008160001c9050610d66888387878080601f01602080910402602001604051908101604052809392919081815260200183838082843760009201919091525061108092505050565b610dc15760405162461bcd60e51b815260206004820152602660248201527f5f73616665436865636b41677265656d656e743a20696e76616c6964207369676044820152656e617475726560d01b6064820152608401610441565b600881901c600090815260208190526040902054600160ff83161b1615610e345760405162461bcd60e51b815260206004820152602160248201527f5f73616665436865636b41677265656d656e743a20616c7265616479207573656044820152601960fa1b6064820152608401610441565b98975050505050505050565b6000828152600360205260408120546001600160a01b031615610e9c5760405162461bcd60e51b81526020600482015260146024820152736d696e743a20746f6b656e49442065786973747360601b6044820152606401610441565b6001600160a01b0384166000908152600560205260408120805460019290610ec59084906119b2565b9091555050600083815260036020908152604080832080546001600160a01b0319166001600160a01b03891617905560049091529020610f058382611a19565b5060405183906001600160a01b038616906000907fddf252ad1be2c89b69c2b068fc378daa952ba7f163c4a11628f55a4df523b3ef908290a450815b9392505050565b6000807fe76a195fbe43f0eaa611595069f780493db2202a1cc4b2d7d44b47069812998a86868686604051610f7e9291906118b9565b604051908190038120610fb6949392916020019384526001600160a01b03928316602085015291166040830152606082015260800190565b604051602081830303815290604052805190602001209050610972816111cb565b6000610fe282610568565b6001600160a01b03811660009081526005602052604081208054929350600192909190611010908490611ad9565b9091555050600082815260036020908152604080832080546001600160a01b031916905560049091528120611044916114d4565b60405182906000906001600160a01b038416907fddf252ad1be2c89b69c2b068fc378daa952ba7f163c4a11628f55a4df523b3ef908390a45050565b600080600061108f8585611219565b909250905060008160048111156110a8576110a8611af0565b1480156110c65750856001600160a01b0316826001600160a01b0316145b156110d657600192505050610f41565b600080876001600160a01b0316631626ba7e60e01b88886040516024016110fe929190611b06565b60408051601f198184030181529181526020820180516001600160e01b03166001600160e01b031990941693909317909252905161113c919061189d565b600060405180830381855afa9150503d8060008114611177576040519150601f19603f3d011682016040523d82523d6000602084013e61117c565b606091505b509150915081801561118f575080516020145b8015610e3457508051630b135d3f60e11b906111b49083016020908101908401611b27565b6001600160e01b0319161498975050505050505050565b60006102de6111d8611287565b8360405161190160f01b6020820152602281018390526042810182905260009060620160405160208183030381529060405280519060200120905092915050565b600080825160410361124f5760208301516040840151606085015160001a611243878285856113ae565b94509450505050611280565b8251604003611278576020830151604084015161126d86838361149b565b935093505050611280565b506000905060025b9250929050565b6000306001600160a01b037f0000000000000000000000000000000000000000000000000000000000000000161480156112e057507f000000000000000000000000000000000000000000000000000000000000000046145b1561130a57507f000000000000000000000000000000000000000000000000000000000000000090565b50604080517f00000000000000000000000000000000000000000000000000000000000000006020808301919091527f0000000000000000000000000000000000000000000000000000000000000000828401527f000000000000000000000000000000000000000000000000000000000000000060608301524660808301523060a0808401919091528351808403909101815260c0909201909252805191012090565b6000807f7fffffffffffffffffffffffffffffff5d576e7357a4501ddfe92f46681b20a08311156113e55750600090506003611492565b8460ff16601b141580156113fd57508460ff16601c14155b1561140e5750600090506004611492565b6040805160008082526020820180845289905260ff881692820192909252606081018690526080810185905260019060a0016020604051602081039080840390855afa158015611462573d6000803e3d6000fd5b5050604051601f1901519150506001600160a01b03811661148b57600060019250925050611492565b9150600090505b94509492505050565b6000806001600160ff1b038316816114b860ff86901c601b6119b2565b90506114c6878288856113ae565b935093505050935093915050565b5080546114e090611846565b6000825580601f106114f0575050565b601f016020900490600052602060002090810190610b2a91905b8082111561151e576000815560010161150a565b5090565b6001600160e01b031981168114610b2a57600080fd5b60006020828403121561154a57600080fd5b8135610f4181611522565b60005b83811015611570578181015183820152602001611558565b8381111561157f576000848401525b50505050565b6000815180845261159d816020860160208601611555565b601f01601f19169290920160200192915050565b602081526000610f416020830184611585565b634e487b7160e01b600052604160045260246000fd5b600080604083850312156115ed57600080fd5b823567ffffffffffffffff8082111561160557600080fd5b818501915085601f83011261161957600080fd5b81358181111561162b5761162b6115c4565b604051601f8201601f19908116603f01168101908382118183101715611653576116536115c4565b8160405282815288602084870101111561166c57600080fd5b826020860160208301376000602093820184015298969091013596505050505050565b60008083601f8401126116a157600080fd5b50813567ffffffffffffffff8111156116b957600080fd5b60208301915083602082850101111561128057600080fd5b600080602083850312156116e457600080fd5b823567ffffffffffffffff8111156116fb57600080fd5b6117078582860161168f565b90969095509350505050565b60006020828403121561172557600080fd5b5035919050565b6001600160a01b0381168114610b2a57600080fd5b60006020828403121561175357600080fd5b8135610f418161172c565b60008060008060006060868803121561177657600080fd5b85356117818161172c565b9450602086013567ffffffffffffffff8082111561179e57600080fd5b6117aa89838a0161168f565b909650945060408801359150808211156117c357600080fd5b506117d08882890161168f565b969995985093965092949392505050565b600080600080606085870312156117f757600080fd5b84356118028161172c565b935060208501356118128161172c565b9250604085013567ffffffffffffffff81111561182e57600080fd5b61183a8782880161168f565b95989497509550505050565b600181811c9082168061185a57607f821691505b60208210810361187a57634e487b7160e01b600052602260045260246000fd5b50919050565b60006020828403121561189257600080fd5b8151610f418161172c565b600082516118af818460208701611555565b9190910192915050565b8183823760009101908152919050565b6020808252818101527f4f776e61626c653a2063616c6c6572206973206e6f7420746865206f776e6572604082015260600190565b81835281816020850137506000828201602090810191909152601f909101601f19169091010190565b6001600160a01b038616815260606020820181905260009061194c90830186886118fe565b8281036040840152610e348185876118fe565b60006020828403121561197157600080fd5b5051919050565b60408152600061198c6040830185876118fe565b9050826020830152949350505050565b634e487b7160e01b600052601160045260246000fd5b600082198211156119c5576119c561199c565b500190565b601f821115611a1457600081815260208120601f850160051c810160208610156119f15750805b601f850160051c820191505b81811015611a10578281556001016119fd565b5050505b505050565b815167ffffffffffffffff811115611a3357611a336115c4565b611a4781611a418454611846565b846119ca565b602080601f831160018114611a7c5760008415611a645750858301515b600019600386901b1c1916600185901b178555611a10565b600085815260208120601f198616915b82811015611aab57888601518255948401946001909101908401611a8c565b5085821015611ac95787850151600019600388901b60f8161c191681555b5050505050600190811b01905550565b600082821015611aeb57611aeb61199c565b500390565b634e487b7160e01b600052602160045260246000fd5b828152604060208201526000611b1f6040830184611585565b949350505050565b600060208284031215611b3957600080fd5b8151610f418161152256fea2646970667358221220a296d604bfa2bc7f9627f4d6afe329d2e44717869d8f7be4e79b2056bd356d1264736f6c634300080f0033",
    "linkReferences": {}
  },
  "methodIdentifiers": {
    "balanceOf(address)": "70a08231",
    "createSpecAsRaftOwner(string,uint256)": "4249d86e",
    "getHash(address,address,string)": "c5cf33c2",
    "getRaftAddress()": "34f87662",
    "getRaftTokenIdOf(string)": "53b52a6e",
    "give(address,string,bytes)": "ec64948e",
    "mintAuthorizedBadge(address,string,bytes)": "781334c5",
    "name()": "06fdde03",
    "owner()": "8da5cb5b",
    "ownerOf(uint256)": "6352211e",
    "renounceOwnership()": "715018a6",
    "setRaftAddress(address)": "d5be4eb0",
    "supportsInterface(bytes4)": "01ffc9a7",
    "symbol()": "95d89b41",
    "take(address,string,bytes)": "a3947803",
    "tokenURI(uint256)": "c87b56dd",
    "transferOwnership(address)": "f2fde38b",
    "unequip(uint256)": "d179e3d0"
  },
  "id": 23
}