{
  "abi": [
    {
      "inputs": [],
      "stateMutability": "nonpayable",
      "type": "constructor"
    },
    {
      "anonymous": false,
      "inputs": [
        {
          "indexed": false,
          "internalType": "address",
          "name": "previousAdmin",
          "type": "address"
        },
        {
          "indexed": false,
          "internalType": "address",
          "name": "newAdmin",
          "type": "address"
        }
      ],
      "name": "AdminChanged",
      "type": "event"
    },
    {
      "anonymous": false,
      "inputs": [
        {
          "indexed": true,
          "internalType": "uint256",
          "name": "tokenId",
          "type": "uint256"
        },
        {
          "indexed": true,
          "internalType": "address",
          "name": "from",
          "type": "address"
        }
      ],
      "name": "BadgeReinstated",
      "type": "event"
    },
    {
      "anonymous": false,
      "inputs": [
        {
          "indexed": true,
          "internalType": "uint256",
          "name": "tokenId",
          "type": "uint256"
        },
        {
          "indexed": true,
          "internalType": "address",
          "name": "from",
          "type": "address"
        },
        {
          "indexed": true,
          "internalType": "uint8",
          "name": "reason",
          "type": "uint8"
        }
      ],
      "name": "BadgeRevoked",
      "type": "event"
    },
    {
      "anonymous": false,
      "inputs": [
        {
          "indexed": true,
          "internalType": "address",
          "name": "beacon",
          "type": "address"
        }
      ],
      "name": "BeaconUpgraded",
      "type": "event"
    },
    {
      "anonymous": false,
      "inputs": [
        {
          "indexed": false,
          "internalType": "uint8",
          "name": "version",
          "type": "uint8"
        }
      ],
      "name": "Initialized",
      "type": "event"
    },
    {
      "anonymous": false,
      "inputs": [
        {
          "indexed": true,
          "internalType": "address",
          "name": "previousOwner",
          "type": "address"
        },
        {
          "indexed": true,
          "internalType": "address",
          "name": "newOwner",
          "type": "address"
        }
      ],
      "name": "OwnershipTransferred",
      "type": "event"
    },
    {
      "anonymous": false,
      "inputs": [
        {
          "indexed": false,
          "internalType": "string[]",
          "name": "specUris",
          "type": "string[]"
        },
        {
          "indexed": false,
          "internalType": "address",
          "name": "sender",
          "type": "address"
        }
      ],
      "name": "RefreshMetadata",
      "type": "event"
    },
    {
      "anonymous": false,
      "inputs": [
        {
          "indexed": true,
          "internalType": "address",
          "name": "to",
          "type": "address"
        },
        {
          "indexed": false,
          "internalType": "string",
          "name": "specUri",
          "type": "string"
        },
        {
          "indexed": true,
          "internalType": "uint256",
          "name": "raftTokenId",
          "type": "uint256"
        },
        {
          "indexed": true,
          "internalType": "address",
          "name": "raftAddress",
          "type": "address"
        }
      ],
      "name": "SpecCreated",
      "type": "event"
    },
    {
      "anonymous": false,
      "inputs": [
        {
          "indexed": true,
          "internalType": "address",
          "name": "from",
          "type": "address"
        },
        {
          "indexed": true,
          "internalType": "address",
          "name": "to",
          "type": "address"
        },
        {
          "indexed": true,
          "internalType": "uint256",
          "name": "tokenId",
          "type": "uint256"
        }
      ],
      "name": "Transfer",
      "type": "event"
    },
    {
      "anonymous": false,
      "inputs": [
        {
          "indexed": true,
          "internalType": "address",
          "name": "implementation",
          "type": "address"
        }
      ],
      "name": "Upgraded",
      "type": "event"
    },
    {
      "inputs": [
        {
          "internalType": "address",
          "name": "_owner",
          "type": "address"
        }
      ],
      "name": "balanceOf",
      "outputs": [
        {
          "internalType": "uint256",
          "name": "",
          "type": "uint256"
        }
      ],
      "stateMutability": "view",
      "type": "function"
    },
    {
      "inputs": [
        {
          "internalType": "string",
          "name": "_specUri",
          "type": "string"
        },
        {
          "internalType": "uint256",
          "name": "_raftTokenId",
          "type": "uint256"
        }
      ],
      "name": "createSpec",
      "outputs": [],
      "stateMutability": "nonpayable",
      "type": "function"
    },
    {
      "inputs": [
        {
          "internalType": "address",
          "name": "_from",
          "type": "address"
        },
        {
          "internalType": "address",
          "name": "_to",
          "type": "address"
        },
        {
          "internalType": "string",
          "name": "_uri",
          "type": "string"
        }
      ],
      "name": "getAgreementHash",
      "outputs": [
        {
          "internalType": "bytes32",
          "name": "",
          "type": "bytes32"
        }
      ],
      "stateMutability": "view",
      "type": "function"
    },
    {
      "inputs": [
        {
          "internalType": "address",
          "name": "_to",
          "type": "address"
        },
        {
          "internalType": "string",
          "name": "_uri",
          "type": "string"
        }
      ],
      "name": "getBadgeIdHash",
      "outputs": [
        {
          "internalType": "bytes32",
          "name": "",
          "type": "bytes32"
        }
      ],
      "stateMutability": "view",
      "type": "function"
    },
    {
      "inputs": [],
      "name": "getDataHolderAddress",
      "outputs": [
        {
          "internalType": "address",
          "name": "",
          "type": "address"
        }
      ],
      "stateMutability": "view",
      "type": "function"
    },
    {
      "inputs": [
        {
          "internalType": "address",
          "name": "_issuer",
          "type": "address"
        },
        {
          "internalType": "string",
          "name": "_uri",
          "type": "string"
        },
        {
          "internalType": "bytes32",
          "name": "_root",
          "type": "bytes32"
        }
      ],
      "name": "getMerkleAgreementHash",
      "outputs": [
        {
          "internalType": "bytes32",
          "name": "",
          "type": "bytes32"
        }
      ],
      "stateMutability": "view",
      "type": "function"
    },
    {
      "inputs": [
        {
          "internalType": "uint256",
          "name": "_tokenId",
          "type": "uint256"
        }
      ],
      "name": "getVoucherHash",
      "outputs": [
        {
          "internalType": "uint256",
          "name": "",
          "type": "uint256"
        }
      ],
      "stateMutability": "view",
      "type": "function"
    },
    {
      "inputs": [
        {
          "internalType": "address",
          "name": "_to",
          "type": "address"
        },
        {
          "internalType": "string",
          "name": "_uri",
          "type": "string"
        },
        {
          "internalType": "bytes",
          "name": "_signature",
          "type": "bytes"
        }
      ],
      "name": "give",
      "outputs": [
        {
          "internalType": "uint256",
          "name": "",
          "type": "uint256"
        }
      ],
      "stateMutability": "nonpayable",
      "type": "function"
    },
    {
      "inputs": [
        {
          "internalType": "string",
          "name": "_name",
          "type": "string"
        },
        {
          "internalType": "string",
          "name": "_symbol",
          "type": "string"
        },
        {
          "internalType": "string",
          "name": "_version",
          "type": "string"
        },
        {
          "internalType": "address",
          "name": "_nextOwner",
          "type": "address"
        },
        {
          "internalType": "address",
          "name": "_specDataHolderAddress",
          "type": "address"
        }
      ],
      "name": "initialize",
      "outputs": [],
      "stateMutability": "nonpayable",
      "type": "function"
    },
    {
      "inputs": [
        {
          "internalType": "uint256",
          "name": "_badgeId",
          "type": "uint256"
        }
      ],
      "name": "isBadgeValid",
      "outputs": [
        {
          "internalType": "bool",
          "name": "",
          "type": "bool"
        }
      ],
      "stateMutability": "view",
      "type": "function"
    },
    {
      "inputs": [
        {
          "internalType": "address",
          "name": "_from",
          "type": "address"
        },
        {
          "internalType": "string",
          "name": "_uri",
          "type": "string"
        },
        {
          "internalType": "bytes",
          "name": "_signature",
          "type": "bytes"
        },
        {
          "internalType": "bytes32",
          "name": "root",
          "type": "bytes32"
        },
        {
          "internalType": "bytes32[]",
          "name": "proof",
          "type": "bytes32[]"
        }
      ],
      "name": "merkleTake",
      "outputs": [
        {
          "internalType": "uint256",
          "name": "",
          "type": "uint256"
        }
      ],
      "stateMutability": "nonpayable",
      "type": "function"
    },
    {
      "inputs": [],
      "name": "name",
      "outputs": [
        {
          "internalType": "string",
          "name": "",
          "type": "string"
        }
      ],
      "stateMutability": "view",
      "type": "function"
    },
    {
      "inputs": [],
      "name": "owner",
      "outputs": [
        {
          "internalType": "address",
          "name": "",
          "type": "address"
        }
      ],
      "stateMutability": "view",
      "type": "function"
    },
    {
      "inputs": [
        {
          "internalType": "uint256",
          "name": "_tokenId",
          "type": "uint256"
        }
      ],
      "name": "ownerOf",
      "outputs": [
        {
          "internalType": "address",
          "name": "",
          "type": "address"
        }
      ],
      "stateMutability": "view",
      "type": "function"
    },
    {
      "inputs": [],
      "name": "proxiableUUID",
      "outputs": [
        {
          "internalType": "bytes32",
          "name": "",
          "type": "bytes32"
        }
      ],
      "stateMutability": "view",
      "type": "function"
    },
    {
      "inputs": [
        {
          "internalType": "string[]",
          "name": "_specUris",
          "type": "string[]"
        }
      ],
      "name": "refreshMetadata",
      "outputs": [],
      "stateMutability": "nonpayable",
      "type": "function"
    },
    {
      "inputs": [
        {
          "internalType": "uint256",
          "name": "_raftTokenId",
          "type": "uint256"
        },
        {
          "internalType": "uint256",
          "name": "_badgeId",
          "type": "uint256"
        }
      ],
      "name": "reinstateBadge",
      "outputs": [],
      "stateMutability": "nonpayable",
      "type": "function"
    },
    {
      "inputs": [],
      "name": "renounceOwnership",
      "outputs": [],
      "stateMutability": "nonpayable",
      "type": "function"
    },
    {
      "inputs": [
        {
          "internalType": "uint256",
          "name": "_raftTokenId",
          "type": "uint256"
        },
        {
          "internalType": "uint256",
          "name": "_badgeId",
          "type": "uint256"
        },
        {
          "internalType": "uint8",
          "name": "_reason",
          "type": "uint8"
        }
      ],
      "name": "revokeBadge",
      "outputs": [],
      "stateMutability": "nonpayable",
      "type": "function"
    },
    {
      "inputs": [
        {
          "internalType": "address",
          "name": "_from",
          "type": "address"
        },
        {
          "internalType": "address",
          "name": "_to",
          "type": "address"
        },
        {
          "internalType": "string",
          "name": "_uri",
          "type": "string"
        },
        {
          "internalType": "bytes",
          "name": "_signature",
          "type": "bytes"
        },
        {
          "internalType": "bytes32",
          "name": "_root",
          "type": "bytes32"
        },
        {
          "internalType": "bytes32[]",
          "name": "_proof",
          "type": "bytes32[]"
        }
      ],
      "name": "safeCheckMerkleAgreement",
      "outputs": [],
      "stateMutability": "view",
      "type": "function"
    },
    {
      "inputs": [
        {
          "internalType": "address",
          "name": "_dataHolder",
          "type": "address"
        }
      ],
      "name": "setDataHolder",
      "outputs": [],
      "stateMutability": "nonpayable",
      "type": "function"
    },
    {
      "inputs": [
        {
          "internalType": "bytes4",
          "name": "_interfaceId",
          "type": "bytes4"
        }
      ],
      "name": "supportsInterface",
      "outputs": [
        {
          "internalType": "bool",
          "name": "",
          "type": "bool"
        }
      ],
      "stateMutability": "view",
      "type": "function"
    },
    {
      "inputs": [],
      "name": "symbol",
      "outputs": [
        {
          "internalType": "string",
          "name": "",
          "type": "string"
        }
      ],
      "stateMutability": "view",
      "type": "function"
    },
    {
      "inputs": [
        {
          "internalType": "address",
          "name": "_from",
          "type": "address"
        },
        {
          "internalType": "string",
          "name": "_uri",
          "type": "string"
        },
        {
          "internalType": "bytes",
          "name": "_signature",
          "type": "bytes"
        }
      ],
      "name": "take",
      "outputs": [
        {
          "internalType": "uint256",
          "name": "",
          "type": "uint256"
        }
      ],
      "stateMutability": "nonpayable",
      "type": "function"
    },
    {
      "inputs": [
        {
          "internalType": "uint256",
          "name": "_tokenId",
          "type": "uint256"
        }
      ],
      "name": "tokenURI",
      "outputs": [
        {
          "internalType": "string",
          "name": "",
          "type": "string"
        }
      ],
      "stateMutability": "view",
      "type": "function"
    },
    {
      "inputs": [
        {
          "internalType": "address",
          "name": "newOwner",
          "type": "address"
        }
      ],
      "name": "transferOwnership",
      "outputs": [],
      "stateMutability": "nonpayable",
      "type": "function"
    },
    {
      "inputs": [
        {
          "internalType": "uint256",
          "name": "_tokenId",
          "type": "uint256"
        }
      ],
      "name": "unequip",
      "outputs": [],
      "stateMutability": "nonpayable",
      "type": "function"
    },
    {
      "inputs": [
        {
          "internalType": "address",
          "name": "newImplementation",
          "type": "address"
        }
      ],
      "name": "upgradeTo",
      "outputs": [],
      "stateMutability": "nonpayable",
      "type": "function"
    },
    {
      "inputs": [
        {
          "internalType": "address",
          "name": "newImplementation",
          "type": "address"
        },
        {
          "internalType": "bytes",
          "name": "data",
          "type": "bytes"
        }
      ],
      "name": "upgradeToAndCall",
      "outputs": [],
      "stateMutability": "payable",
      "type": "function"
    }
  ],
  "bytecode": {
    "object": "0x60a0604052306080523480156200001557600080fd5b506200002062000026565b620000e8565b600054610100900460ff1615620000935760405162461bcd60e51b815260206004820152602760248201527f496e697469616c697a61626c653a20636f6e747261637420697320696e697469604482015266616c697a696e6760c81b606482015260840160405180910390fd5b60005460ff9081161015620000e6576000805460ff191660ff9081179091556040519081527f7f26b83ff96e1f2b6a682f133852f6798a09c465da95921460cefb38474024989060200160405180910390a15b565b608051613791620001206000396000818161086c015281816108ac01528181610e2b01528181610e6b0152610efe01526137916000f3fe6080604052600436106101c25760003560e01c80637c402f8d116100f7578063bdbdbcbf11610095578063d6d0faee11610064578063d6d0faee14610503578063e499250614610523578063ec64948e14610543578063f2fde38b1461056357600080fd5b8063bdbdbcbf14610483578063c0184112146104a3578063c87b56dd146104c3578063d179e3d0146104e357600080fd5b806395d89b41116100d157806395d89b411461040e578063a394780314610423578063a8cf868314610443578063bd6645e41461046357600080fd5b80637c402f8d146103b057806380956c7e146103d05780638da5cb5b146103f057600080fd5b80634a086b53116101645780636352211e1161013e5780636352211e14610324578063635ad9931461035c57806370a082311461037b578063715018a61461039b57600080fd5b80634a086b53146102dc5780634f1ef286146102fc57806352d1902d1461030f57600080fd5b806322e7d2ee116101a057806322e7d2ee1461023e5780633659cfe6146102605780633b363a0914610280578063445a62b9146102bc57600080fd5b806301ffc9a7146101c757806306fdde03146101fc5780630f4d9b011461021e575b600080fd5b3480156101d357600080fd5b506101e76101e2366004612af6565b610583565b60405190151581526020015b60405180910390f35b34801561020857600080fd5b506102116105d5565b6040516101f39190612b70565b34801561022a57600080fd5b506101e7610239366004612b83565b610668565b34801561024a57600080fd5b5061025e610259366004612c36565b6106cf565b005b34801561026c57600080fd5b5061025e61027b366004612d00565b610862565b34801561028c57600080fd5b506102ae61029b366004612b83565b6000908152610136602052604090205490565b6040519081526020016101f3565b3480156102c857600080fd5b5061025e6102d7366004612dda565b610941565b3480156102e857600080fd5b506102ae6102f7366004612e1e565b610c1d565b61025e61030a366004612ed3565b610e21565b34801561031b57600080fd5b506102ae610ef1565b34801561033057600080fd5b5061034461033f366004612b83565b610fa4565b6040516001600160a01b0390911681526020016101f3565b34801561036857600080fd5b50610135546001600160a01b0316610344565b34801561038757600080fd5b506102ae610396366004612d00565b610ff9565b3480156103a757600080fd5b5061025e611084565b3480156103bc57600080fd5b5061025e6103cb366004612f36565b611098565b3480156103dc57600080fd5b5061025e6103eb366004612f75565b611282565b3480156103fc57600080fd5b5060c9546001600160a01b0316610344565b34801561041a57600080fd5b50610211611465565b34801561042f57600080fd5b506102ae61043e366004612f97565b611475565b34801561044f57600080fd5b506102ae61045e366004613019565b611676565b34801561046f57600080fd5b506102ae61047e36600461305e565b6116a9565b34801561048f57600080fd5b5061025e61049e3660046130b9565b611741565b3480156104af57600080fd5b5061025e6104be366004612d00565b6117e5565b3480156104cf57600080fd5b506102116104de366004612b83565b611810565b3480156104ef57600080fd5b5061025e6104fe366004612b83565b611917565b34801561050f57600080fd5b5061025e61051e36600461316e565b6119be565b34801561052f57600080fd5b506102ae61053e36600461321d565b611b2f565b34801561054f57600080fd5b506102ae61055e366004612f97565b611b9d565b34801561056f57600080fd5b5061025e61057e366004612d00565b611d81565b60006001600160e01b03198216635b5e139f60e01b14806105b457506001600160e01b031982166346bdd63960e11b145b806105cf57506301ffc9a760e01b6001600160e01b03198316145b92915050565b606061013080546105e590613281565b80601f016020809104026020016040519081016040528092919081815260200182805461061190613281565b801561065e5780601f106106335761010080835404028352916020019161065e565b820191906000526020600020905b81548152906001019060200180831161064157829003601f168201915b5050505050905090565b6000818152610132602052604081205482906001600160a01b03166106a85760405162461bcd60e51b815260040161069f906132b5565b60405180910390fd5b600883901c60009081526101376020526040902054600160ff85161b161591505b50919050565b60006106dd8a8989876116a9565b90506107208a8288888080601f016020809104026020016040519081016040528093929190818152602001838380828437600092019190915250611df792505050565b6107805760405162461bcd60e51b815260206004820152602b60248201527f73616665436865636b4d65726b6c6541677265656d656e743a20696e76616c6960448201526a64207369676e617475726560a81b606482015260840161069f565b6040516bffffffffffffffffffffffff1960608b901b1660208201526000906034016040516020818303038152906040528051906020012090506107fa848480806020026020016040519081016040528093929190818152602001838360200280828437600092019190915250899250859150611f3b9050565b6108555760405162461bcd60e51b815260206004820152602660248201527f73616665436865636b4d65726b6c6541677265656d656e743a20696e76616c6960448201526532103632b0b360d11b606482015260840161069f565b5050505050505050505050565b6001600160a01b037f00000000000000000000000000000000000000000000000000000000000000001630036108aa5760405162461bcd60e51b815260040161069f906132ea565b7f00000000000000000000000000000000000000000000000000000000000000006001600160a01b03166108f3600080516020613715833981519152546001600160a01b031690565b6001600160a01b0316146109195760405162461bcd60e51b815260040161069f90613336565b61092281611f51565b6040805160008082526020820190925261093e91839190611f59565b50565b806040518060400160405280600a8152602001696372656174655370656360b01b8152506000816040516020016109789190613382565b60408051808303601f19018152908290526101355463b2a0cb6b60e01b83526004830186905290925033916001600160a01b039091169063b2a0cb6b90602401602060405180830381865afa1580156109d5573d6000803e3d6000fd5b505050506040513d601f19601f820116820180604052508101906109f991906133b4565b6001600160a01b0316148190610a225760405162461bcd60e51b815260040161069f9190612b70565b5061013554604051637e07102760e11b81526001600160a01b039091169063fc0e204e90610a54908890600401612b70565b602060405180830381865afa158015610a71573d6000803e3d6000fd5b505050506040513d601f19601f82011682018060405250810190610a9591906133d1565b15610aee5760405162461bcd60e51b815260206004820152602360248201527f637265617465537065633a207370656320616c726561647920726567697374656044820152621c995960ea1b606482015260840161069f565b6101355460405163addd190760e01b81526001600160a01b039091169063addd190790610b2190889088906004016133f3565b600060405180830381600087803b158015610b3b57600080fd5b505af1158015610b4f573d6000803e3d6000fd5b5050505061013560009054906101000a90046001600160a01b03166001600160a01b03166334f876626040518163ffffffff1660e01b8152600401602060405180830381865afa158015610ba7573d6000803e3d6000fd5b505050506040513d601f19601f82011682018060405250810190610bcb91906133b4565b6001600160a01b031684336001600160a01b03167f68c7f8503283c455a4445b54a7d5c40656c8cae5cca0583c6d4be8369847870088604051610c0e9190612b70565b60405180910390a45050505050565b60006001600160a01b0389163303610c775760405162461bcd60e51b815260206004820152601b60248201527f74616b653a2063616e6e6f742074616b652066726f6d2073656c660000000000604482015260640161069f565b610c8889338a8a8a8a8a8a8a6106cf565b61013554604051633664a8e960e01b81526000916001600160a01b031690633664a8e990610cbc908c908c90600401613415565b602060405180830381865afa158015610cd9573d6000803e3d6000fd5b505050506040513d601f19601f82011682018060405250810190610cfd9190613444565b6101355460405163b2a0cb6b60e01b8152600481018390529192506000916001600160a01b039091169063b2a0cb6b90602401602060405180830381865afa158015610d4d573d6000803e3d6000fd5b505050506040513d601f19601f82011682018060405250810190610d7191906133b4565b90508a6001600160a01b0316816001600160a01b031614610dd05760405162461bcd60e51b81526020600482015260196024820152783a30b5b29d103ab730baba3437b934bd32b21034b9b9bab2b960391b604482015260640161069f565b610e12338b8b8080601f0160208091040260200160405190810160405280939291908181526020018383808284376000920191909152508792506120c9915050565b9b9a5050505050505050505050565b6001600160a01b037f0000000000000000000000000000000000000000000000000000000000000000163003610e695760405162461bcd60e51b815260040161069f906132ea565b7f00000000000000000000000000000000000000000000000000000000000000006001600160a01b0316610eb2600080516020613715833981519152546001600160a01b031690565b6001600160a01b031614610ed85760405162461bcd60e51b815260040161069f90613336565b610ee182611f51565b610eed82826001611f59565b5050565b6000306001600160a01b037f00000000000000000000000000000000000000000000000000000000000000001614610f915760405162461bcd60e51b815260206004820152603860248201527f555550535570677261646561626c653a206d757374206e6f742062652063616c60448201527f6c6564207468726f7567682064656c656761746563616c6c0000000000000000606482015260840161069f565b5060008051602061371583398151915290565b6000818152610132602052604081205482906001600160a01b0316610fdb5760405162461bcd60e51b815260040161069f906132b5565b5050600090815261013260205260409020546001600160a01b031690565b60006001600160a01b0382166110675760405162461bcd60e51b815260206004820152602d60248201527f62616c616e63654f663a2061646472657373207a65726f206973206e6f74206160448201526c2076616c6964206f776e65725f60981b606482015260840161069f565b506001600160a01b03166000908152610134602052604090205490565b61108c6122a5565b61109660006122ff565b565b6000828152610132602052604090205482906001600160a01b03166110cf5760405162461bcd60e51b815260040161069f906132b5565b836040518060400160405280600b81526020016a7265766f6b65426164676560a81b8152506000816040516020016111079190613382565b60408051808303601f19018152908290526101355463b2a0cb6b60e01b83526004830186905290925033916001600160a01b039091169063b2a0cb6b90602401602060405180830381865afa158015611164573d6000803e3d6000fd5b505050506040513d601f19601f8201168201806040525081019061118891906133b4565b6001600160a01b03161481906111b15760405162461bcd60e51b815260040161069f9190612b70565b50600886901c60009081526101376020526040902054600160ff88161b16156112275760405162461bcd60e51b815260206004820152602260248201527f7265766f6b6542616467653a20626164676520616c7265616479207265766f6b604482015261195960f21b606482015260840161069f565b600886901c6000908152610137602052604090208054600160ff89161b17905560405160ff861690339088907ffa784c48260e8db512de5f055a2f29eced211a7b3bd6338058b095ada7354cee90600090a450505050505050565b6000818152610132602052604090205481906001600160a01b03166112b95760405162461bcd60e51b815260040161069f906132b5565b826040518060400160405280600e81526020016d7265696e7374617465426164676560901b8152506000816040516020016112f49190613382565b60408051808303601f19018152908290526101355463b2a0cb6b60e01b83526004830186905290925033916001600160a01b039091169063b2a0cb6b90602401602060405180830381865afa158015611351573d6000803e3d6000fd5b505050506040513d601f19601f8201168201806040525081019061137591906133b4565b6001600160a01b031614819061139e5760405162461bcd60e51b815260040161069f9190612b70565b50600885901c60009081526101376020526040902054600160ff87161b166114125760405162461bcd60e51b815260206004820152602160248201527f7265696e737461746542616467653a206261646765206e6f74207265766f6b656044820152601960fa1b606482015260840161069f565b600885901c600090815261013760205260408082208054600160ff8a161b1916905551339187917f7f8cf9ecf2a5225948f8a1601709cedc8471c52ee75a8174c9845c29c99ed9a29190a3505050505050565b606061013180546105e590613281565b60006001600160a01b03861633036114cf5760405162461bcd60e51b815260206004820152601b60248201527f74616b653a2063616e6e6f742074616b652066726f6d2073656c660000000000604482015260640161069f565b6114dd338787878787612351565b61013554604051633664a8e960e01b81526000916001600160a01b031690633664a8e9906115119089908990600401613415565b602060405180830381865afa15801561152e573d6000803e3d6000fd5b505050506040513d601f19601f820116820180604052508101906115529190613444565b6101355460405163b2a0cb6b60e01b8152600481018390529192506000916001600160a01b039091169063b2a0cb6b90602401602060405180830381865afa1580156115a2573d6000803e3d6000fd5b505050506040513d601f19601f820116820180604052508101906115c691906133b4565b9050876001600160a01b0316816001600160a01b0316146116255760405162461bcd60e51b81526020600482015260196024820152783a30b5b29d103ab730baba3437b934bd32b21034b9b9bab2b960391b604482015260640161069f565b60006116693389898080601f0160208091040260200160405190810160405280939291908181526020018383808284376000920191909152508892506120c9915050565b9998505050505050505050565b6000828260405160200161168b92919061345d565b60405160208183030381529060405280519060200120905092915050565b6000807f6d0d990916a9f9c9e0896e59ce7f5ddddff333d0c8772438ce004fa7719b164b8686866040516116de929190613489565b60405190819003812061171693929187906020019384526001600160a01b039290921660208401526040830152606082015260800190565b60405160208183030381529060405280519060200120905061173781612405565b9695505050505050565b6117496122a5565b60008151116117a95760405162461bcd60e51b815260206004820152602660248201527f726566726573684d657461646174613a206e6f207370656320757269732070726044820152651bdd9a59195960d21b606482015260840161069f565b7f2231d988b1a75dccab13dee3564b71a551900e822e94177a96f19561890c0fd581336040516117da929190613499565b60405180910390a150565b6117ed6122a5565b61013580546001600160a01b0319166001600160a01b0392909216919091179055565b600081815261013260205260409020546060906001600160a01b03166118785760405162461bcd60e51b815260206004820152601d60248201527f746f6b656e5552493a20746f6b656e20646f65736e2774206578697374000000604482015260640161069f565b600082815261013360205260409020805461189290613281565b80601f01602080910402602001604051908101604052809291908181526020018280546118be90613281565b801561190b5780601f106118e05761010080835404028352916020019161190b565b820191906000526020600020905b8154815290600101906020018083116118ee57829003601f168201915b50505050509050919050565b6000818152610132602052604090205481906001600160a01b031661194e5760405162461bcd60e51b815260040161069f906132b5565b600082815261013260205260409020546001600160a01b031633146119b55760405162461bcd60e51b815260206004820152601d60248201527f756e65717569703a2073656e646572206d757374206265206f776e6572000000604482015260640161069f565b610eed82612418565b600054610100900460ff16158080156119de5750600054600160ff909116105b806119f85750303b1580156119f8575060005460ff166001145b611a5b5760405162461bcd60e51b815260206004820152602e60248201527f496e697469616c697a61626c653a20636f6e747261637420697320616c72656160448201526d191e481a5b9a5d1a585b1a5e995960921b606482015260840161069f565b6000805460ff191660011790558015611a7e576000805461ff0019166101001790555b610130611a8b8782613554565b50610131611a998682613554565b5061013580546001600160a01b0319166001600160a01b038416179055611abe6124c3565b611ac66124ea565b611ad08685612519565b611ad86124c3565b611ae183611d81565b8015611b27576000805461ff0019169055604051600181527f7f26b83ff96e1f2b6a682f133852f6798a09c465da95921460cefb38474024989060200160405180910390a15b505050505050565b6000807fe76a195fbe43f0eaa611595069f780493db2202a1cc4b2d7d44b47069812998a86868686604051611b65929190613489565b604051908190038120611716949392916020019384526001600160a01b03928316602085015291166040830152606082015260800190565b60006001600160a01b0386163303611bf75760405162461bcd60e51b815260206004820152601960248201527f676976653a2063616e6e6f74206769766520746f2073656c6600000000000000604482015260640161069f565b611c05338787878787612351565b61013554604051633664a8e960e01b81526000916001600160a01b031690633664a8e990611c399089908990600401613415565b602060405180830381865afa158015611c56573d6000803e3d6000fd5b505050506040513d601f19601f82011682018060405250810190611c7a9190613444565b6101355460405163b2a0cb6b60e01b8152600481018390529192506000916001600160a01b039091169063b2a0cb6b90602401602060405180830381865afa158015611cca573d6000803e3d6000fd5b505050506040513d601f19601f82011682018060405250810190611cee91906133b4565b90506001600160a01b0381163314611d3d5760405162461bcd60e51b815260206004820152601260248201527119da5d994e881d5b985d5d1a1bdc9a5e995960721b604482015260640161069f565b60006116698989898080601f0160208091040260200160405190810160405280939291908181526020018383808284376000920191909152508892506120c9915050565b611d896122a5565b6001600160a01b038116611dee5760405162461bcd60e51b815260206004820152602660248201527f4f776e61626c653a206e6577206f776e657220697320746865207a65726f206160448201526564647265737360d01b606482015260840161069f565b61093e816122ff565b6000806000611e06858561254a565b90925090506000816004811115611e1f57611e1f613613565b148015611e3d5750856001600160a01b0316826001600160a01b0316145b15611e4d57600192505050611f34565b600080876001600160a01b0316631626ba7e60e01b8888604051602401611e75929190613629565b60408051601f198184030181529181526020820180516001600160e01b03166001600160e01b0319909416939093179092529051611eb39190613642565b600060405180830381855afa9150503d8060008114611eee576040519150601f19603f3d011682016040523d82523d6000602084013e611ef3565b606091505b5091509150818015611f06575080516020145b8015611f2d57508051630b135d3f60e11b90611f2b9083016020908101908401613444565b145b9450505050505b9392505050565b600082611f4885846125b8565b14949350505050565b61093e6122a5565b7f4910fdfa16fed3260ed0e7147f7cc6da11a60208b5b9406d12a635614ffd91435460ff1615611f9157611f8c83612605565b505050565b826001600160a01b03166352d1902d6040518163ffffffff1660e01b8152600401602060405180830381865afa925050508015611feb575060408051601f3d908101601f19168201909252611fe891810190613444565b60015b61204e5760405162461bcd60e51b815260206004820152602e60248201527f45524331393637557067726164653a206e657720696d706c656d656e7461746960448201526d6f6e206973206e6f74205555505360901b606482015260840161069f565b60008051602061371583398151915281146120bd5760405162461bcd60e51b815260206004820152602960248201527f45524331393637557067726164653a20756e737570706f727465642070726f786044820152681a58589b195555525160ba1b606482015260840161069f565b50611f8c8383836126a1565b60008160000361211b5760405162461bcd60e51b815260206004820152601c60248201527f6d696e743a2073706563206973206e6f74207265676973746572656400000000604482015260640161069f565b60006121278585611676565b90508061214c81600090815261013260205260409020546001600160a01b0316151590565b156121905760405162461bcd60e51b81526020600482015260146024820152736d696e743a20746f6b656e49442065786973747360601b604482015260640161069f565b6001600160a01b0386166000908152610134602052604081208054600192906121ba908490613674565b909155505060008181526101326020908152604080832080546001600160a01b0319166001600160a01b038b1617905561013390915290206121fc8682613554565b5060405181906001600160a01b038816906000907fddf252ad1be2c89b69c2b068fc378daa952ba7f163c4a11628f55a4df523b3ef908290a46101355460405163fb74926160e01b815260048101839052602481018690526001600160a01b039091169063fb74926190604401600060405180830381600087803b15801561228357600080fd5b505af1158015612297573d6000803e3d6000fd5b509298975050505050505050565b60c9546001600160a01b031633146110965760405162461bcd60e51b815260206004820181905260248201527f4f776e61626c653a2063616c6c6572206973206e6f7420746865206f776e6572604482015260640161069f565b60c980546001600160a01b038381166001600160a01b0319831681179093556040519116919082907f8be0079c531659141344cd1fd0a4f28419497f9722a3daafe3b4186f6b6457e090600090a35050565b600061235f87878787611b2f565b90506123a2868285858080601f016020809104026020016040519081016040528093929190818152602001838380828437600092019190915250611df792505050565b6123fc5760405162461bcd60e51b815260206004820152602560248201527f73616665436865636b41677265656d656e743a20696e76616c6964207369676e604482015264617475726560d81b606482015260840161069f565b50505050505050565b60006105cf6124126126cc565b8361274c565b600081815261013260209081526040808320546001600160a01b0316808452610134909252822080549192600192612451908490613687565b909155505060008281526101326020908152604080832080546001600160a01b0319169055610133909152812061248791612aa8565b60405182906000906001600160a01b038416907fddf252ad1be2c89b69c2b068fc378daa952ba7f163c4a11628f55a4df523b3ef908390a45050565b600054610100900460ff166110965760405162461bcd60e51b815260040161069f9061369a565b600054610100900460ff166125115760405162461bcd60e51b815260040161069f9061369a565b611096612773565b600054610100900460ff166125405760405162461bcd60e51b815260040161069f9061369a565b610eed82826127a3565b60008082516041036125805760208301516040840151606085015160001a612574878285856127e4565b945094505050506125b1565b82516040036125a9576020830151604084015161259e8683836128d1565b9350935050506125b1565b506000905060025b9250929050565b600081815b84518110156125fd576125e9828683815181106125dc576125dc6136e5565b602002602001015161290a565b9150806125f5816136fb565b9150506125bd565b509392505050565b6001600160a01b0381163b6126725760405162461bcd60e51b815260206004820152602d60248201527f455243313936373a206e657720696d706c656d656e746174696f6e206973206e60448201526c1bdd08184818dbdb9d1c9858dd609a1b606482015260840161069f565b60008051602061371583398151915280546001600160a01b0319166001600160a01b0392909216919091179055565b6126aa83612936565b6000825111806126b75750805b15611f8c576126c68383612976565b50505050565b60006127477f8b73c3c69bb8fe3d512ecc4cf759cc79239f7b179b0ffacaa9a75d522b39400f6126fb60fb5490565b60fc546040805160208101859052908101839052606081018290524660808201523060a082015260009060c0016040516020818303038152906040528051906020012090509392505050565b905090565b60405161190160f01b6020820152602281018390526042810182905260009060620161168b565b600054610100900460ff1661279a5760405162461bcd60e51b815260040161069f9061369a565b611096336122ff565b600054610100900460ff166127ca5760405162461bcd60e51b815260040161069f9061369a565b81516020928301208151919092012060fb9190915560fc55565b6000807f7fffffffffffffffffffffffffffffff5d576e7357a4501ddfe92f46681b20a083111561281b57506000905060036128c8565b8460ff16601b1415801561283357508460ff16601c14155b1561284457506000905060046128c8565b6040805160008082526020820180845289905260ff881692820192909252606081018690526080810185905260019060a0016020604051602081039080840390855afa158015612898573d6000803e3d6000fd5b5050604051601f1901519150506001600160a01b0381166128c1576000600192509250506128c8565b9150600090505b94509492505050565b6000806001600160ff1b038316816128ee60ff86901c601b613674565b90506128fc878288856127e4565b935093505050935093915050565b6000818310612926576000828152602084905260409020611f34565b5060009182526020526040902090565b61293f81612605565b6040516001600160a01b038216907fbc7cd75a20ee27fd9adebab32041f755214dbc6bffa90cc0225b39da2e5c2d3b90600090a250565b60606001600160a01b0383163b6129de5760405162461bcd60e51b815260206004820152602660248201527f416464726573733a2064656c65676174652063616c6c20746f206e6f6e2d636f6044820152651b9d1c9858dd60d21b606482015260840161069f565b600080846001600160a01b0316846040516129f99190613642565b600060405180830381855af49150503d8060008114612a34576040519150601f19603f3d011682016040523d82523d6000602084013e612a39565b606091505b5091509150612a61828260405180606001604052806027815260200161373560279139612a6a565b95945050505050565b60608315612a79575081611f34565b611f348383815115612a8e5781518083602001fd5b8060405162461bcd60e51b815260040161069f9190612b70565b508054612ab490613281565b6000825580601f10612ac4575050565b601f01602090049060005260206000209081019061093e91905b80821115612af25760008155600101612ade565b5090565b600060208284031215612b0857600080fd5b81356001600160e01b031981168114611f3457600080fd5b60005b83811015612b3b578181015183820152602001612b23565b50506000910152565b60008151808452612b5c816020860160208601612b20565b601f01601f19169290920160200192915050565b602081526000611f346020830184612b44565b600060208284031215612b9557600080fd5b5035919050565b6001600160a01b038116811461093e57600080fd5b60008083601f840112612bc357600080fd5b5081356001600160401b03811115612bda57600080fd5b6020830191508360208285010111156125b157600080fd5b60008083601f840112612c0457600080fd5b5081356001600160401b03811115612c1b57600080fd5b6020830191508360208260051b85010111156125b157600080fd5b600080600080600080600080600060c08a8c031215612c5457600080fd5b8935612c5f81612b9c565b985060208a0135612c6f81612b9c565b975060408a01356001600160401b0380821115612c8b57600080fd5b612c978d838e01612bb1565b909950975060608c0135915080821115612cb057600080fd5b612cbc8d838e01612bb1565b909750955060808c0135945060a08c0135915080821115612cdc57600080fd5b50612ce98c828d01612bf2565b915080935050809150509295985092959850929598565b600060208284031215612d1257600080fd5b8135611f3481612b9c565b634e487b7160e01b600052604160045260246000fd5b604051601f8201601f191681016001600160401b0381118282101715612d5b57612d5b612d1d565b604052919050565b60006001600160401b03831115612d7c57612d7c612d1d565b612d8f601f8401601f1916602001612d33565b9050828152838383011115612da357600080fd5b828260208301376000602084830101529392505050565b600082601f830112612dcb57600080fd5b611f3483833560208501612d63565b60008060408385031215612ded57600080fd5b82356001600160401b03811115612e0357600080fd5b612e0f85828601612dba565b95602094909401359450505050565b60008060008060008060008060a0898b031215612e3a57600080fd5b8835612e4581612b9c565b975060208901356001600160401b0380821115612e6157600080fd5b612e6d8c838d01612bb1565b909950975060408b0135915080821115612e8657600080fd5b612e928c838d01612bb1565b909750955060608b0135945060808b0135915080821115612eb257600080fd5b50612ebf8b828c01612bf2565b999c989b5096995094979396929594505050565b60008060408385031215612ee657600080fd5b8235612ef181612b9c565b915060208301356001600160401b03811115612f0c57600080fd5b8301601f81018513612f1d57600080fd5b612f2c85823560208401612d63565b9150509250929050565b600080600060608486031215612f4b57600080fd5b8335925060208401359150604084013560ff81168114612f6a57600080fd5b809150509250925092565b60008060408385031215612f8857600080fd5b50508035926020909101359150565b600080600080600060608688031215612faf57600080fd5b8535612fba81612b9c565b945060208601356001600160401b0380821115612fd657600080fd5b612fe289838a01612bb1565b90965094506040880135915080821115612ffb57600080fd5b5061300888828901612bb1565b969995985093965092949392505050565b6000806040838503121561302c57600080fd5b823561303781612b9c565b915060208301356001600160401b0381111561305257600080fd5b612f2c85828601612dba565b6000806000806060858703121561307457600080fd5b843561307f81612b9c565b935060208501356001600160401b0381111561309a57600080fd5b6130a687828801612bb1565b9598909750949560400135949350505050565b600060208083850312156130cc57600080fd5b82356001600160401b03808211156130e357600080fd5b818501915085601f8301126130f757600080fd5b81358181111561310957613109612d1d565b8060051b613118858201612d33565b918252838101850191858101908984111561313257600080fd5b86860192505b83831015611669578235858111156131505760008081fd5b61315e8b89838a0101612dba565b8352509186019190860190613138565b600080600080600060a0868803121561318657600080fd5b85356001600160401b038082111561319d57600080fd5b6131a989838a01612dba565b965060208801359150808211156131bf57600080fd5b6131cb89838a01612dba565b955060408801359150808211156131e157600080fd5b506131ee88828901612dba565b93505060608601356131ff81612b9c565b9150608086013561320f81612b9c565b809150509295509295909350565b6000806000806060858703121561323357600080fd5b843561323e81612b9c565b9350602085013561324e81612b9c565b925060408501356001600160401b0381111561326957600080fd5b61327587828801612bb1565b95989497509550505050565b600181811c9082168061329557607f821691505b6020821081036106c957634e487b7160e01b600052602260045260246000fd5b6020808252818101527f746f6b656e4578697374733a20746f6b656e20646f65736e2774206578697374604082015260600190565b6020808252602c908201527f46756e6374696f6e206d7573742062652063616c6c6564207468726f7567682060408201526b19195b1959d85d1958d85b1b60a21b606082015260800190565b6020808252602c908201527f46756e6374696f6e206d7573742062652063616c6c6564207468726f7567682060408201526b6163746976652070726f787960a01b606082015260800190565b60008251613394818460208701612b20565b6d0e881d5b985d5d1a1bdc9a5e995960921b920191825250600e01919050565b6000602082840312156133c657600080fd5b8151611f3481612b9c565b6000602082840312156133e357600080fd5b81518015158114611f3457600080fd5b6040815260006134066040830185612b44565b90508260208301529392505050565b60208152816020820152818360408301376000818301604090810191909152601f909201601f19160101919050565b60006020828403121561345657600080fd5b5051919050565b6001600160a01b038316815260406020820181905260009061348190830184612b44565b949350505050565b8183823760009101908152919050565b6000604082016040835280855180835260608501915060608160051b8601019250602080880160005b838110156134f057605f198887030185526134de868351612b44565b955093820193908201906001016134c2565b50506001600160a01b03969096169490950193909352949350505050565b601f821115611f8c57600081815260208120601f850160051c810160208610156135355750805b601f850160051c820191505b81811015611b2757828155600101613541565b81516001600160401b0381111561356d5761356d612d1d565b6135818161357b8454613281565b8461350e565b602080601f8311600181146135b6576000841561359e5750858301515b600019600386901b1c1916600185901b178555611b27565b600085815260208120601f198616915b828110156135e5578886015182559484019460019091019084016135c6565b50858210156136035787850151600019600388901b60f8161c191681555b5050505050600190811b01905550565b634e487b7160e01b600052602160045260246000fd5b8281526040602082015260006134816040830184612b44565b60008251613654818460208701612b20565b9190910192915050565b634e487b7160e01b600052601160045260246000fd5b808201808211156105cf576105cf61365e565b818103818111156105cf576105cf61365e565b6020808252602b908201527f496e697469616c697a61626c653a20636f6e7472616374206973206e6f74206960408201526a6e697469616c697a696e6760a81b606082015260800190565b634e487b7160e01b600052603260045260246000fd5b60006001820161370d5761370d61365e565b506001019056fe360894a13ba1a3210667c828492db98dca3e2076cc3735a920a3ca505d382bbc416464726573733a206c6f772d6c6576656c2064656c65676174652063616c6c206661696c6564a2646970667358221220d9edbe5f6554463eb9c050a2e3418b191a8912e8ee9d6ba7ccfbb086fa6d508264736f6c63430008100033",
    "linkReferences": {}
  },
  "methodIdentifiers": {
    "balanceOf(address)": "70a08231",
    "createSpec(string,uint256)": "445a62b9",
    "getAgreementHash(address,address,string)": "e4992506",
    "getBadgeIdHash(address,string)": "a8cf8683",
    "getDataHolderAddress()": "635ad993",
    "getMerkleAgreementHash(address,string,bytes32)": "bd6645e4",
    "getVoucherHash(uint256)": "3b363a09",
    "give(address,string,bytes)": "ec64948e",
    "initialize(string,string,string,address,address)": "d6d0faee",
    "isBadgeValid(uint256)": "0f4d9b01",
    "merkleTake(address,string,bytes,bytes32,bytes32[])": "4a086b53",
    "name()": "06fdde03",
    "owner()": "8da5cb5b",
    "ownerOf(uint256)": "6352211e",
    "proxiableUUID()": "52d1902d",
    "refreshMetadata(string[])": "bdbdbcbf",
    "reinstateBadge(uint256,uint256)": "80956c7e",
    "renounceOwnership()": "715018a6",
    "revokeBadge(uint256,uint256,uint8)": "7c402f8d",
    "safeCheckMerkleAgreement(address,address,string,bytes,bytes32,bytes32[])": "22e7d2ee",
    "setDataHolder(address)": "c0184112",
    "supportsInterface(bytes4)": "01ffc9a7",
    "symbol()": "95d89b41",
    "take(address,string,bytes)": "a3947803",
    "tokenURI(uint256)": "c87b56dd",
    "transferOwnership(address)": "f2fde38b",
    "unequip(uint256)": "d179e3d0",
    "upgradeTo(address)": "3659cfe6",
    "upgradeToAndCall(address,bytes)": "4f1ef286"
  },
  "id": 46
}