{
  "abi": [
    {
      "inputs": [],
      "stateMutability": "nonpayable",
      "type": "constructor"
    },
    {
      "anonymous": false,
      "inputs": [
        {
          "indexed": false,
          "internalType": "address",
          "name": "previousAdmin",
          "type": "address"
        },
        {
          "indexed": false,
          "internalType": "address",
          "name": "newAdmin",
          "type": "address"
        }
      ],
      "name": "AdminChanged",
      "type": "event"
    },
    {
      "anonymous": false,
      "inputs": [
        {
          "indexed": true,
          "internalType": "address",
          "name": "beacon",
          "type": "address"
        }
      ],
      "name": "BeaconUpgraded",
      "type": "event"
    },
    {
      "anonymous": false,
      "inputs": [
        {
          "indexed": false,
          "internalType": "uint8",
          "name": "version",
          "type": "uint8"
        }
      ],
      "name": "Initialized",
      "type": "event"
    },
    {
      "anonymous": false,
      "inputs": [
        {
          "indexed": true,
          "internalType": "address",
          "name": "previousOwner",
          "type": "address"
        },
        {
          "indexed": true,
          "internalType": "address",
          "name": "newOwner",
          "type": "address"
        }
      ],
      "name": "OwnershipTransferred",
      "type": "event"
    },
    {
      "anonymous": false,
      "inputs": [
        {
          "indexed": true,
          "internalType": "address",
          "name": "to",
          "type": "address"
        },
        {
          "indexed": false,
          "internalType": "string",
          "name": "specUri",
          "type": "string"
        },
        {
          "indexed": true,
          "internalType": "uint256",
          "name": "raftTokenId",
          "type": "uint256"
        },
        {
          "indexed": true,
          "internalType": "address",
          "name": "raftAddress",
          "type": "address"
        }
      ],
      "name": "SpecCreated",
      "type": "event"
    },
    {
      "anonymous": false,
      "inputs": [
        {
          "indexed": true,
          "internalType": "address",
          "name": "from",
          "type": "address"
        },
        {
          "indexed": true,
          "internalType": "address",
          "name": "to",
          "type": "address"
        },
        {
          "indexed": true,
          "internalType": "uint256",
          "name": "tokenId",
          "type": "uint256"
        }
      ],
      "name": "Transfer",
      "type": "event"
    },
    {
      "anonymous": false,
      "inputs": [
        {
          "indexed": true,
          "internalType": "address",
          "name": "implementation",
          "type": "address"
        }
      ],
      "name": "Upgraded",
      "type": "event"
    },
    {
      "inputs": [
        {
          "internalType": "uint256",
          "name": "",
          "type": "uint256"
        }
      ],
      "name": "badgeExpirationDates",
      "outputs": [
        {
          "internalType": "uint256",
          "name": "",
          "type": "uint256"
        }
      ],
      "stateMutability": "view",
      "type": "function"
    },
    {
      "inputs": [
        {
          "internalType": "address",
          "name": "_owner",
          "type": "address"
        }
      ],
      "name": "balanceOf",
      "outputs": [
        {
          "internalType": "uint256",
          "name": "",
          "type": "uint256"
        }
      ],
      "stateMutability": "view",
      "type": "function"
    },
    {
      "inputs": [
        {
          "internalType": "string",
          "name": "_specUri",
          "type": "string"
        },
        {
          "internalType": "uint256",
          "name": "_raftTokenId",
          "type": "uint256"
        }
      ],
      "name": "createSpec",
      "outputs": [],
      "stateMutability": "nonpayable",
      "type": "function"
    },
    {
      "inputs": [
        {
          "internalType": "address",
          "name": "_from",
          "type": "address"
        },
        {
          "internalType": "address",
          "name": "_to",
          "type": "address"
        },
        {
          "internalType": "string",
          "name": "_uri",
          "type": "string"
        }
      ],
      "name": "getAgreementHash",
      "outputs": [
        {
          "internalType": "bytes32",
          "name": "",
          "type": "bytes32"
        }
      ],
      "stateMutability": "view",
      "type": "function"
    },
    {
      "inputs": [
        {
          "internalType": "address",
          "name": "_to",
          "type": "address"
        },
        {
          "internalType": "string",
          "name": "_uri",
          "type": "string"
        }
      ],
      "name": "getBadgeIdHash",
      "outputs": [
        {
          "internalType": "bytes32",
          "name": "",
          "type": "bytes32"
        }
      ],
      "stateMutability": "view",
      "type": "function"
    },
    {
      "inputs": [],
      "name": "getDataHolderAddress",
      "outputs": [
        {
          "internalType": "address",
          "name": "",
          "type": "address"
        }
      ],
      "stateMutability": "view",
      "type": "function"
    },
    {
      "inputs": [
        {
          "internalType": "address",
          "name": "_from",
          "type": "address"
        },
        {
          "internalType": "address",
          "name": "_to",
          "type": "address"
        },
        {
          "internalType": "string",
          "name": "_uri",
          "type": "string"
        },
        {
          "internalType": "string",
          "name": "_expirationType",
          "type": "string"
        },
        {
          "internalType": "uint256",
          "name": "_expirationValue",
          "type": "uint256"
        }
      ],
      "name": "getExpiringBadgeHash",
      "outputs": [
        {
          "internalType": "bytes32",
          "name": "",
          "type": "bytes32"
        }
      ],
      "stateMutability": "view",
      "type": "function"
    },
    {
      "inputs": [
        {
          "internalType": "uint256",
          "name": "_tokenId",
          "type": "uint256"
        }
      ],
      "name": "getVoucherHash",
      "outputs": [
        {
          "internalType": "uint256",
          "name": "",
          "type": "uint256"
        }
      ],
      "stateMutability": "view",
      "type": "function"
    },
    {
      "inputs": [
        {
          "internalType": "address",
          "name": "_to",
          "type": "address"
        },
        {
          "internalType": "string",
          "name": "_uri",
          "type": "string"
        },
        {
          "internalType": "bytes",
          "name": "_signature",
          "type": "bytes"
        }
      ],
      "name": "give",
      "outputs": [
        {
          "internalType": "uint256",
          "name": "",
          "type": "uint256"
        }
      ],
      "stateMutability": "nonpayable",
      "type": "function"
    },
    {
      "inputs": [
        {
          "internalType": "address",
          "name": "_to",
          "type": "address"
        },
        {
          "internalType": "string",
          "name": "_uri",
          "type": "string"
        },
        {
          "internalType": "bytes",
          "name": "_signature",
          "type": "bytes"
        },
        {
          "internalType": "string",
          "name": "_expirationType",
          "type": "string"
        },
        {
          "internalType": "uint256",
          "name": "_expirationValue",
          "type": "uint256"
        }
      ],
      "name": "giveExpiringBadge",
      "outputs": [
        {
          "internalType": "uint256",
          "name": "",
          "type": "uint256"
        }
      ],
      "stateMutability": "nonpayable",
      "type": "function"
    },
    {
      "inputs": [
        {
          "internalType": "string",
          "name": "_name",
          "type": "string"
        },
        {
          "internalType": "string",
          "name": "_symbol",
          "type": "string"
        },
        {
          "internalType": "string",
          "name": "_version",
          "type": "string"
        },
        {
          "internalType": "address",
          "name": "_nextOwner",
          "type": "address"
        },
        {
          "internalType": "address",
          "name": "_specDataHolderAddress",
          "type": "address"
        }
      ],
      "name": "initialize",
      "outputs": [],
      "stateMutability": "nonpayable",
      "type": "function"
    },
    {
      "inputs": [
        {
          "internalType": "uint256",
          "name": "_badgeId",
          "type": "uint256"
        },
        {
          "internalType": "uint256",
          "name": "timestamp",
          "type": "uint256"
        }
      ],
      "name": "isBadgeValid",
      "outputs": [
        {
          "internalType": "bool",
          "name": "",
          "type": "bool"
        }
      ],
      "stateMutability": "view",
      "type": "function"
    },
    {
      "inputs": [],
      "name": "name",
      "outputs": [
        {
          "internalType": "string",
          "name": "",
          "type": "string"
        }
      ],
      "stateMutability": "view",
      "type": "function"
    },
    {
      "inputs": [],
      "name": "owner",
      "outputs": [
        {
          "internalType": "address",
          "name": "",
          "type": "address"
        }
      ],
      "stateMutability": "view",
      "type": "function"
    },
    {
      "inputs": [
        {
          "internalType": "uint256",
          "name": "_tokenId",
          "type": "uint256"
        }
      ],
      "name": "ownerOf",
      "outputs": [
        {
          "internalType": "address",
          "name": "",
          "type": "address"
        }
      ],
      "stateMutability": "view",
      "type": "function"
    },
    {
      "inputs": [],
      "name": "proxiableUUID",
      "outputs": [
        {
          "internalType": "bytes32",
          "name": "",
          "type": "bytes32"
        }
      ],
      "stateMutability": "view",
      "type": "function"
    },
    {
      "inputs": [
        {
          "internalType": "uint256",
          "name": "_raftTokenId",
          "type": "uint256"
        },
        {
          "internalType": "uint256",
          "name": "_badgeId",
          "type": "uint256"
        }
      ],
      "name": "reinstateBadge",
      "outputs": [],
      "stateMutability": "nonpayable",
      "type": "function"
    },
    {
      "inputs": [],
      "name": "renounceOwnership",
      "outputs": [],
      "stateMutability": "nonpayable",
      "type": "function"
    },
    {
      "inputs": [
        {
          "internalType": "uint256",
          "name": "_raftTokenId",
          "type": "uint256"
        },
        {
          "internalType": "uint256",
          "name": "_badgeId",
          "type": "uint256"
        }
      ],
      "name": "revokeBadge",
      "outputs": [],
      "stateMutability": "nonpayable",
      "type": "function"
    },
    {
      "inputs": [
        {
          "internalType": "uint256",
          "name": "",
          "type": "uint256"
        }
      ],
      "name": "revokedBadges",
      "outputs": [
        {
          "internalType": "bool",
          "name": "",
          "type": "bool"
        }
      ],
      "stateMutability": "view",
      "type": "function"
    },
    {
      "inputs": [
        {
          "internalType": "address",
          "name": "_dataHolder",
          "type": "address"
        }
      ],
      "name": "setDataHolder",
      "outputs": [],
      "stateMutability": "nonpayable",
      "type": "function"
    },
    {
      "inputs": [
        {
          "internalType": "bytes4",
          "name": "_interfaceId",
          "type": "bytes4"
        }
      ],
      "name": "supportsInterface",
      "outputs": [
        {
          "internalType": "bool",
          "name": "",
          "type": "bool"
        }
      ],
      "stateMutability": "view",
      "type": "function"
    },
    {
      "inputs": [],
      "name": "symbol",
      "outputs": [
        {
          "internalType": "string",
          "name": "",
          "type": "string"
        }
      ],
      "stateMutability": "view",
      "type": "function"
    },
    {
      "inputs": [
        {
          "internalType": "address",
          "name": "_from",
          "type": "address"
        },
        {
          "internalType": "string",
          "name": "_uri",
          "type": "string"
        },
        {
          "internalType": "bytes",
          "name": "_signature",
          "type": "bytes"
        }
      ],
      "name": "take",
      "outputs": [
        {
          "internalType": "uint256",
          "name": "",
          "type": "uint256"
        }
      ],
      "stateMutability": "nonpayable",
      "type": "function"
    },
    {
      "inputs": [
        {
          "internalType": "address",
          "name": "_from",
          "type": "address"
        },
        {
          "internalType": "string",
          "name": "_uri",
          "type": "string"
        },
        {
          "internalType": "bytes",
          "name": "_signature",
          "type": "bytes"
        },
        {
          "internalType": "string",
          "name": "_expirationType",
          "type": "string"
        },
        {
          "internalType": "uint256",
          "name": "_expirationValue",
          "type": "uint256"
        }
      ],
      "name": "takeExpiringBadge",
      "outputs": [
        {
          "internalType": "uint256",
          "name": "",
          "type": "uint256"
        }
      ],
      "stateMutability": "nonpayable",
      "type": "function"
    },
    {
      "inputs": [
        {
          "internalType": "uint256",
          "name": "_tokenId",
          "type": "uint256"
        }
      ],
      "name": "tokenURI",
      "outputs": [
        {
          "internalType": "string",
          "name": "",
          "type": "string"
        }
      ],
      "stateMutability": "view",
      "type": "function"
    },
    {
      "inputs": [
        {
          "internalType": "address",
          "name": "newOwner",
          "type": "address"
        }
      ],
      "name": "transferOwnership",
      "outputs": [],
      "stateMutability": "nonpayable",
      "type": "function"
    },
    {
      "inputs": [
        {
          "internalType": "uint256",
          "name": "_tokenId",
          "type": "uint256"
        }
      ],
      "name": "unequip",
      "outputs": [],
      "stateMutability": "nonpayable",
      "type": "function"
    },
    {
      "inputs": [
        {
          "internalType": "address",
          "name": "newImplementation",
          "type": "address"
        }
      ],
      "name": "upgradeTo",
      "outputs": [],
      "stateMutability": "nonpayable",
      "type": "function"
    },
    {
      "inputs": [
        {
          "internalType": "address",
          "name": "newImplementation",
          "type": "address"
        },
        {
          "internalType": "bytes",
          "name": "data",
          "type": "bytes"
        }
      ],
      "name": "upgradeToAndCall",
      "outputs": [],
      "stateMutability": "payable",
      "type": "function"
    }
  ],
  "bytecode": {
    "object": "0x60a0604052306080523480156200001557600080fd5b506200002062000026565b620000e8565b600054610100900460ff1615620000935760405162461bcd60e51b815260206004820152602760248201527f496e697469616c697a61626c653a20636f6e747261637420697320696e697469604482015266616c697a696e6760c81b606482015260840160405180910390fd5b60005460ff9081161015620000e6576000805460ff191660ff9081179091556040519081527f7f26b83ff96e1f2b6a682f133852f6798a09c465da95921460cefb38474024989060200160405180910390a15b565b60805161305b62000120600039600081816106bc0152818161070501528181610a5f01528181610a9f0152610b32015261305b6000f3fe6080604052600436106101cd5760003560e01c806391cf236e116100f7578063c87b56dd11610095578063e499250611610064578063e49925061461054d578063e68489391461056d578063ec64948e1461058d578063f2fde38b146105ad57600080fd5b8063c87b56dd146104cd578063ccb1dfdd146104ed578063d179e3d01461050d578063d6d0faee1461052d57600080fd5b8063a3947803116100d1578063a39478031461043f578063a8cf86831461045f578063abe3078b1461047f578063c0184112146104ad57600080fd5b806391cf236e146103d957806395d89b411461040a578063a0de8f841461041f57600080fd5b80635329ae0c1161016f57806370a082311161013e57806370a0823114610366578063715018a61461038657806380956c7e1461039b5780638da5cb5b146103bb57600080fd5b80635329ae0c146102cf5780635560a5b3146102ef5780636352211e1461030f578063635ad9931461034757600080fd5b80633b363a09116101ab5780633b363a091461024b578063445a62b9146102875780634f1ef286146102a757806352d1902d146102ba57600080fd5b806301ffc9a7146101d257806306fdde03146102075780633659cfe614610229575b600080fd5b3480156101de57600080fd5b506101f26101ed3660046126bd565b6105cd565b60405190151581526020015b60405180910390f35b34801561021357600080fd5b5061021c61061f565b6040516101fe9190612737565b34801561023557600080fd5b5061024961024436600461275f565b6106b2565b005b34801561025757600080fd5b5061027961026636600461277c565b6000908152610136602052604090205490565b6040519081526020016101fe565b34801561029357600080fd5b506102496102a2366004612841565b61079a565b6102496102b5366004612886565b610a55565b3480156102c657600080fd5b50610279610b25565b3480156102db57600080fd5b506102496102ea3660046128ea565b610bd8565b3480156102fb57600080fd5b5061027961030a36600461294e565b610cb9565b34801561031b57600080fd5b5061032f61032a36600461277c565b610d76565b6040516001600160a01b0390911681526020016101fe565b34801561035357600080fd5b50610135546001600160a01b031661032f565b34801561037257600080fd5b5061027961038136600461275f565b610ddc565b34801561039257600080fd5b50610249610e67565b3480156103a757600080fd5b506102496103b63660046128ea565b610e7b565b3480156103c757600080fd5b5060c9546001600160a01b031661032f565b3480156103e557600080fd5b506101f26103f436600461277c565b6101376020526000908152604090205460ff1681565b34801561041657600080fd5b5061021c610f59565b34801561042b57600080fd5b5061027961043a3660046129ec565b610f69565b34801561044b57600080fd5b5061027961045a366004612aa0565b61106d565b34801561046b57600080fd5b5061027961047a366004612b23565b61115a565b34801561048b57600080fd5b5061027961049a36600461277c565b6101386020526000908152604090205481565b3480156104b957600080fd5b506102496104c836600461275f565b61118d565b3480156104d957600080fd5b5061021c6104e836600461277c565b6111b8565b3480156104f957600080fd5b506102796105083660046129ec565b6112bf565b34801561051957600080fd5b5061024961052836600461277c565b611383565b34801561053957600080fd5b50610249610548366004612b69565b611488565b34801561055957600080fd5b50610279610568366004612c19565b6115f9565b34801561057957600080fd5b506101f26105883660046128ea565b611692565b34801561059957600080fd5b506102796105a8366004612aa0565b6116e6565b3480156105b957600080fd5b506102496105c836600461275f565b611794565b60006001600160e01b03198216635b5e139f60e01b14806105fe57506001600160e01b031982166346bdd63960e11b145b8061061957506301ffc9a760e01b6001600160e01b03198316145b92915050565b6060610130805461062f90612c7e565b80601f016020809104026020016040519081016040528092919081815260200182805461065b90612c7e565b80156106a85780601f1061067d576101008083540402835291602001916106a8565b820191906000526020600020905b81548152906001019060200180831161068b57829003601f168201915b5050505050905090565b6001600160a01b037f00000000000000000000000000000000000000000000000000000000000000001630036107035760405162461bcd60e51b81526004016106fa90612cb8565b60405180910390fd5b7f00000000000000000000000000000000000000000000000000000000000000006001600160a01b031661074c600080516020612fdf833981519152546001600160a01b031690565b6001600160a01b0316146107725760405162461bcd60e51b81526004016106fa90612d04565b61077b8161180a565b6040805160008082526020820190925261079791839190611812565b50565b6101355460405163b2a0cb6b60e01b81526004810183905233916001600160a01b03169063b2a0cb6b90602401602060405180830381865afa1580156107e4573d6000803e3d6000fd5b505050506040513d601f19601f820116820180604052508101906108089190612d50565b6001600160a01b03161461085e5760405162461bcd60e51b815260206004820152601860248201527f637265617465537065633a20756e617574686f72697a6564000000000000000060448201526064016106fa565b61013554604051637e07102760e11b81526001600160a01b039091169063fc0e204e9061088f908590600401612737565b602060405180830381865afa1580156108ac573d6000803e3d6000fd5b505050506040513d601f19601f820116820180604052508101906108d09190612d6d565b156109295760405162461bcd60e51b815260206004820152602360248201527f637265617465537065633a207370656320616c726561647920726567697374656044820152621c995960ea1b60648201526084016106fa565b6101355460405163addd190760e01b81526001600160a01b039091169063addd19079061095c9085908590600401612d8f565b600060405180830381600087803b15801561097657600080fd5b505af115801561098a573d6000803e3d6000fd5b5050505061013560009054906101000a90046001600160a01b03166001600160a01b03166334f876626040518163ffffffff1660e01b8152600401602060405180830381865afa1580156109e2573d6000803e3d6000fd5b505050506040513d601f19601f82011682018060405250810190610a069190612d50565b6001600160a01b031681336001600160a01b03167f68c7f8503283c455a4445b54a7d5c40656c8cae5cca0583c6d4be8369847870085604051610a499190612737565b60405180910390a45050565b6001600160a01b037f0000000000000000000000000000000000000000000000000000000000000000163003610a9d5760405162461bcd60e51b81526004016106fa90612cb8565b7f00000000000000000000000000000000000000000000000000000000000000006001600160a01b0316610ae6600080516020612fdf833981519152546001600160a01b031690565b6001600160a01b031614610b0c5760405162461bcd60e51b81526004016106fa90612d04565b610b158261180a565b610b2182826001611812565b5050565b6000306001600160a01b037f00000000000000000000000000000000000000000000000000000000000000001614610bc55760405162461bcd60e51b815260206004820152603860248201527f555550535570677261646561626c653a206d757374206e6f742062652063616c60448201527f6c6564207468726f7567682064656c656761746563616c6c000000000000000060648201526084016106fa565b50600080516020612fdf83398151915290565b6101355460405163b2a0cb6b60e01b81526004810184905233916001600160a01b03169063b2a0cb6b90602401602060405180830381865afa158015610c22573d6000803e3d6000fd5b505050506040513d601f19601f82011682018060405250810190610c469190612d50565b6001600160a01b031614610c9c5760405162461bcd60e51b815260206004820152601960248201527f7265766f6b6542616467653a20756e617574686f72697a65640000000000000060448201526064016106fa565b600090815261013760205260409020805460ff1916600117905550565b6000807fedcf39fb0e04dd55fd92b71dcd8981b8bdb2c0f47b323ef117ee24ad996abac789898989604051610cef929190612db1565b60405180910390208888604051610d07929190612db1565b6040805191829003822060208301969096526001600160a01b0394851690820152929091166060830152608082015260a081019190915260c0810184905260e001604051602081830303815290604052805190602001209050610d6981611982565b9998505050505050505050565b600081815261013260205260408120546001600160a01b0316806106195760405162461bcd60e51b815260206004820152601c60248201527f6f776e65724f663a20746f6b656e20646f65736e27742065786973740000000060448201526064016106fa565b60006001600160a01b038216610e4a5760405162461bcd60e51b815260206004820152602d60248201527f62616c616e63654f663a2061646472657373207a65726f206973206e6f74206160448201526c2076616c6964206f776e65725f60981b60648201526084016106fa565b506001600160a01b03166000908152610134602052604090205490565b610e6f611995565b610e7960006119ef565b565b6101355460405163b2a0cb6b60e01b81526004810184905233916001600160a01b03169063b2a0cb6b90602401602060405180830381865afa158015610ec5573d6000803e3d6000fd5b505050506040513d601f19601f82011682018060405250810190610ee99190612d50565b6001600160a01b031614610f3f5760405162461bcd60e51b815260206004820152601c60248201527f7265696e737461746542616467653a20756e617574686f72697a65640000000060448201526064016106fa565b600090815261013760205260409020805460ff1916905550565b6060610131805461062f90612c7e565b60006001600160a01b0389163303610fd45760405162461bcd60e51b815260206004820152602860248201527f676976654578706972696e6742616467653a2063616e6e6f74206769766520666044820152673937b69039b2b63360c11b60648201526084016106fa565b6000610fe7338b8b8b8b8b8b8b8b611a41565b9050600061102b8b8b8b8080601f01602080910402602001604051908101604052809392919081815260200183838082843760009201829052509250611b81915050565b600883901c600090815261012f602052604090208054600160ff86161b1790559050600081815261013660205260409020919091559998505050505050505050565b60006001600160a01b03861633036110c75760405162461bcd60e51b815260206004820152601b60248201527f74616b653a2063616e6e6f742074616b652066726f6d2073656c66000000000060448201526064016106fa565b60006110d7338888888888611de8565b9050600061111b3388888080601f01602080910402602001604051908101604052809392919081815260200183838082843760009201829052509250611b81915050565b600883901c600090815261012f602052604090208054600160ff86161b1790559050600081815261013660205260409020919091559695505050505050565b6000828260405160200161116f929190612dc1565b60405160208183030381529060405280519060200120905092915050565b611195611995565b61013580546001600160a01b0319166001600160a01b0392909216919091179055565b600081815261013260205260409020546060906001600160a01b03166112205760405162461bcd60e51b815260206004820152601d60248201527f746f6b656e5552493a20746f6b656e20646f65736e277420657869737400000060448201526064016106fa565b600082815261013360205260409020805461123a90612c7e565b80601f016020809104026020016040519081016040528092919081815260200182805461126690612c7e565b80156112b35780601f10611288576101008083540402835291602001916112b3565b820191906000526020600020905b81548152906001019060200180831161129657829003601f168201915b50505050509050919050565b60006001600160a01b038916330361132a5760405162461bcd60e51b815260206004820152602860248201527f74616b654578706972696e6742616467653a2063616e6e6f742074616b6520666044820152673937b69039b2b63360c11b60648201526084016106fa565b600061133d338b8b8b8b8b8b8b8b611a41565b9050600061102b338b8b8080601f016020809104026020016040519081016040528093929190818152602001838380828437600092019190915250899250611b81915050565b600081815261013260205260409020546001600160a01b03166113e85760405162461bcd60e51b815260206004820152601c60248201527f756e65717569703a20746f6b656e20646f65736e27742065786973740000000060448201526064016106fa565b600081815261013260205260409020546001600160a01b0316331461144f5760405162461bcd60e51b815260206004820152601d60248201527f756e65717569703a2073656e646572206d757374206265206f776e657200000060448201526064016106fa565b60008181526101366020908152604080832054600881901c845261012f9092529091208054600160ff84161b19169055610b2182611f0c565b600054610100900460ff16158080156114a85750600054600160ff909116105b806114c25750303b1580156114c2575060005460ff166001145b6115255760405162461bcd60e51b815260206004820152602e60248201527f496e697469616c697a61626c653a20636f6e747261637420697320616c72656160448201526d191e481a5b9a5d1a585b1a5e995960921b60648201526084016106fa565b6000805460ff191660011790558015611548576000805461ff0019166101001790555b6101306115558782612e33565b506101316115638682612e33565b5061013580546001600160a01b0319166001600160a01b038416179055611588611fc6565b611590611fed565b61159a868561201c565b6115a2611fc6565b6115ab83611794565b80156115f1576000805461ff0019169055604051600181527f7f26b83ff96e1f2b6a682f133852f6798a09c465da95921460cefb38474024989060200160405180910390a15b505050505050565b6000807fe76a195fbe43f0eaa611595069f780493db2202a1cc4b2d7d44b47069812998a8686868660405161162f929190612db1565b604051908190038120611667949392916020019384526001600160a01b03928316602085015291166040830152606082015260800190565b60405160208183030381529060405280519060200120905061168881611982565b9695505050505050565b6000828152610137602090815260408083205461013890925282205460ff9091161590829015806116d157506000858152610138602052604090205484105b90508180156116dd5750805b95945050505050565b60006001600160a01b03861633036117405760405162461bcd60e51b815260206004820152601b60248201527f676976653a2063616e6e6f7420676976652066726f6d2073656c66000000000060448201526064016106fa565b6000611750338888888888611de8565b9050600061111b8888888080601f01602080910402602001604051908101604052809392919081815260200183838082843760009201829052509250611b81915050565b61179c611995565b6001600160a01b0381166118015760405162461bcd60e51b815260206004820152602660248201527f4f776e61626c653a206e6577206f776e657220697320746865207a65726f206160448201526564647265737360d01b60648201526084016106fa565b610797816119ef565b610797611995565b7f4910fdfa16fed3260ed0e7147f7cc6da11a60208b5b9406d12a635614ffd91435460ff161561184a576118458361204d565b505050565b826001600160a01b03166352d1902d6040518163ffffffff1660e01b8152600401602060405180830381865afa9250505080156118a4575060408051601f3d908101601f191682019092526118a191810190612ef3565b60015b6119075760405162461bcd60e51b815260206004820152602e60248201527f45524331393637557067726164653a206e657720696d706c656d656e7461746960448201526d6f6e206973206e6f74205555505360901b60648201526084016106fa565b600080516020612fdf83398151915281146119765760405162461bcd60e51b815260206004820152602960248201527f45524331393637557067726164653a20756e737570706f727465642070726f786044820152681a58589b195555525160ba1b60648201526084016106fa565b506118458383836120e9565b600061061961198f612114565b83612194565b60c9546001600160a01b03163314610e795760405162461bcd60e51b815260206004820181905260248201527f4f776e61626c653a2063616c6c6572206973206e6f7420746865206f776e657260448201526064016106fa565b60c980546001600160a01b038381166001600160a01b0319831681179093556040519116919082907f8be0079c531659141344cd1fd0a4f28419497f9722a3daafe3b4186f6b6457e090600090a35050565b600080611a538b8b8b8b898989610cb9565b905060008160001c9050611a9e8b838a8a8080601f0160208091040260200160405190810160405280939291908181526020018383808284376000920191909152506121bb92505050565b611afc5760405162461bcd60e51b815260206004820152602960248201527f73616665436865636b4578706972696e6742616467653a20696e76616c6964206044820152687369676e617475726560b81b60648201526084016106fa565b600881901c600090815261012f6020526040902054600160ff83161b1615611b725760405162461bcd60e51b8152602060048201526024808201527f73616665436865636b4578706972696e6742616467653a20616c7265616479206044820152631d5cd95960e21b60648201526084016106fa565b9b9a5050505050505050505050565b61013554604051633664a8e960e01b815260009182916001600160a01b0390911690633664a8e990611bb7908790600401612737565b602060405180830381865afa158015611bd4573d6000803e3d6000fd5b505050506040513d601f19601f82011682018060405250810190611bf89190612ef3565b90506000611c06868661115a565b9050806000839003611c5a5760405162461bcd60e51b815260206004820152601c60248201527f6d696e743a2073706563206973206e6f7420726567697374657265640000000060448201526064016106fa565b600081815261013260205260409020546001600160a01b031615611cb75760405162461bcd60e51b81526020600482015260146024820152736d696e743a20746f6b656e49442065786973747360601b60448201526064016106fa565b6001600160a01b038716600090815261013460205260408120805460019290611ce1908490612f22565b909155505060008181526101326020908152604080832080546001600160a01b0319166001600160a01b038c161790556101339091529020611d238782612e33565b508415611d3d576000818152610138602052604090208590555b60405181906001600160a01b038916906000907fddf252ad1be2c89b69c2b068fc378daa952ba7f163c4a11628f55a4df523b3ef908290a46101355460405163fb74926160e01b815260048101839052602481018590526001600160a01b039091169063fb74926190604401600060405180830381600087803b158015611dc357600080fd5b505af1158015611dd7573d6000803e3d6000fd5b5092955050505050505b9392505050565b600080611df7888888886115f9565b9050611e3a878286868080601f0160208091040260200160405190810160405280939291908181526020018383808284376000920191909152506121bb92505050565b611e945760405162461bcd60e51b815260206004820152602560248201527f73616665436865636b41677265656d656e743a20696e76616c6964207369676e604482015264617475726560d81b60648201526084016106fa565b600881901c600090815261012f60205260409020548190600160ff83161b1615611f005760405162461bcd60e51b815260206004820181905260248201527f73616665436865636b41677265656d656e743a20616c7265616479207573656460448201526064016106fa565b98975050505050505050565b600081815261013260209081526040808320546001600160a01b0316808452610134909252822080549192600192611f45908490612f35565b909155505060008281526101326020908152604080832080546001600160a01b03191690556101339091528120611f7b9161266f565b60008281526101366020526040808220829055518391906001600160a01b038416907fddf252ad1be2c89b69c2b068fc378daa952ba7f163c4a11628f55a4df523b3ef908390a45050565b600054610100900460ff16610e795760405162461bcd60e51b81526004016106fa90612f48565b600054610100900460ff166120145760405162461bcd60e51b81526004016106fa90612f48565b610e796122fc565b600054610100900460ff166120435760405162461bcd60e51b81526004016106fa90612f48565b610b21828261232c565b6001600160a01b0381163b6120ba5760405162461bcd60e51b815260206004820152602d60248201527f455243313936373a206e657720696d706c656d656e746174696f6e206973206e60448201526c1bdd08184818dbdb9d1c9858dd609a1b60648201526084016106fa565b600080516020612fdf83398151915280546001600160a01b0319166001600160a01b0392909216919091179055565b6120f28361236d565b6000825111806120ff5750805b156118455761210e83836123ad565b50505050565b600061218f7f8b73c3c69bb8fe3d512ecc4cf759cc79239f7b179b0ffacaa9a75d522b39400f61214360fb5490565b60fc546040805160208101859052908101839052606081018290524660808201523060a082015260009060c0016040516020818303038152906040528051906020012090509392505050565b905090565b60405161190160f01b6020820152602281018390526042810182905260009060620161116f565b60008060006121ca8585612498565b909250905060008160048111156121e3576121e3612f93565b1480156122015750856001600160a01b0316826001600160a01b0316145b1561221157600192505050611de1565b600080876001600160a01b0316631626ba7e60e01b8888604051602401612239929190612fa9565b60408051601f198184030181529181526020820180516001600160e01b03166001600160e01b03199094169390931790925290516122779190612fc2565b600060405180830381855afa9150503d80600081146122b2576040519150601f19603f3d011682016040523d82523d6000602084013e6122b7565b606091505b50915091508180156122ca575080516020145b8015611f0057508051630b135d3f60e11b906122ef9083016020908101908401612ef3565b1498975050505050505050565b600054610100900460ff166123235760405162461bcd60e51b81526004016106fa90612f48565b610e79336119ef565b600054610100900460ff166123535760405162461bcd60e51b81526004016106fa90612f48565b81516020928301208151919092012060fb9190915560fc55565b6123768161204d565b6040516001600160a01b038216907fbc7cd75a20ee27fd9adebab32041f755214dbc6bffa90cc0225b39da2e5c2d3b90600090a250565b60606001600160a01b0383163b6124155760405162461bcd60e51b815260206004820152602660248201527f416464726573733a2064656c65676174652063616c6c20746f206e6f6e2d636f6044820152651b9d1c9858dd60d21b60648201526084016106fa565b600080846001600160a01b0316846040516124309190612fc2565b600060405180830381855af49150503d806000811461246b576040519150601f19603f3d011682016040523d82523d6000602084013e612470565b606091505b50915091506116dd8282604051806060016040528060278152602001612fff60279139612506565b60008082516041036124ce5760208301516040840151606085015160001a6124c28782858561251f565b945094505050506124ff565b82516040036124f757602083015160408401516124ec86838361260c565b9350935050506124ff565b506000905060025b9250929050565b60608315612515575081611de1565b611de18383612645565b6000807f7fffffffffffffffffffffffffffffff5d576e7357a4501ddfe92f46681b20a08311156125565750600090506003612603565b8460ff16601b1415801561256e57508460ff16601c14155b1561257f5750600090506004612603565b6040805160008082526020820180845289905260ff881692820192909252606081018690526080810185905260019060a0016020604051602081039080840390855afa1580156125d3573d6000803e3d6000fd5b5050604051601f1901519150506001600160a01b0381166125fc57600060019250925050612603565b9150600090505b94509492505050565b6000806001600160ff1b0383168161262960ff86901c601b612f22565b90506126378782888561251f565b935093505050935093915050565b8151156126555781518083602001fd5b8060405162461bcd60e51b81526004016106fa9190612737565b50805461267b90612c7e565b6000825580601f1061268b575050565b601f01602090049060005260206000209081019061079791905b808211156126b957600081556001016126a5565b5090565b6000602082840312156126cf57600080fd5b81356001600160e01b031981168114611de157600080fd5b60005b838110156127025781810151838201526020016126ea565b50506000910152565b600081518084526127238160208601602086016126e7565b601f01601f19169290920160200192915050565b602081526000611de1602083018461270b565b6001600160a01b038116811461079757600080fd5b60006020828403121561277157600080fd5b8135611de18161274a565b60006020828403121561278e57600080fd5b5035919050565b634e487b7160e01b600052604160045260246000fd5b600067ffffffffffffffff808411156127c6576127c6612795565b604051601f8501601f19908116603f011681019082821181831017156127ee576127ee612795565b8160405280935085815286868601111561280757600080fd5b858560208301376000602087830101525050509392505050565b600082601f83011261283257600080fd5b611de1838335602085016127ab565b6000806040838503121561285457600080fd5b823567ffffffffffffffff81111561286b57600080fd5b61287785828601612821565b95602094909401359450505050565b6000806040838503121561289957600080fd5b82356128a48161274a565b9150602083013567ffffffffffffffff8111156128c057600080fd5b8301601f810185136128d157600080fd5b6128e0858235602084016127ab565b9150509250929050565b600080604083850312156128fd57600080fd5b50508035926020909101359150565b60008083601f84011261291e57600080fd5b50813567ffffffffffffffff81111561293657600080fd5b6020830191508360208285010111156124ff57600080fd5b600080600080600080600060a0888a03121561296957600080fd5b87356129748161274a565b965060208801356129848161274a565b9550604088013567ffffffffffffffff808211156129a157600080fd5b6129ad8b838c0161290c565b909750955060608a01359150808211156129c657600080fd5b506129d38a828b0161290c565b989b979a50959894979596608090950135949350505050565b60008060008060008060008060a0898b031215612a0857600080fd5b8835612a138161274a565b9750602089013567ffffffffffffffff80821115612a3057600080fd5b612a3c8c838d0161290c565b909950975060408b0135915080821115612a5557600080fd5b612a618c838d0161290c565b909750955060608b0135915080821115612a7a57600080fd5b50612a878b828c0161290c565b999c989b50969995989497949560800135949350505050565b600080600080600060608688031215612ab857600080fd5b8535612ac38161274a565b9450602086013567ffffffffffffffff80821115612ae057600080fd5b612aec89838a0161290c565b90965094506040880135915080821115612b0557600080fd5b50612b128882890161290c565b969995985093965092949392505050565b60008060408385031215612b3657600080fd5b8235612b418161274a565b9150602083013567ffffffffffffffff811115612b5d57600080fd5b6128e085828601612821565b600080600080600060a08688031215612b8157600080fd5b853567ffffffffffffffff80821115612b9957600080fd5b612ba589838a01612821565b96506020880135915080821115612bbb57600080fd5b612bc789838a01612821565b95506040880135915080821115612bdd57600080fd5b50612bea88828901612821565b9350506060860135612bfb8161274a565b91506080860135612c0b8161274a565b809150509295509295909350565b60008060008060608587031215612c2f57600080fd5b8435612c3a8161274a565b93506020850135612c4a8161274a565b9250604085013567ffffffffffffffff811115612c6657600080fd5b612c728782880161290c565b95989497509550505050565b600181811c90821680612c9257607f821691505b602082108103612cb257634e487b7160e01b600052602260045260246000fd5b50919050565b6020808252602c908201527f46756e6374696f6e206d7573742062652063616c6c6564207468726f7567682060408201526b19195b1959d85d1958d85b1b60a21b606082015260800190565b6020808252602c908201527f46756e6374696f6e206d7573742062652063616c6c6564207468726f7567682060408201526b6163746976652070726f787960a01b606082015260800190565b600060208284031215612d6257600080fd5b8151611de18161274a565b600060208284031215612d7f57600080fd5b81518015158114611de157600080fd5b604081526000612da2604083018561270b565b90508260208301529392505050565b8183823760009101908152919050565b6001600160a01b0383168152604060208201819052600090612de59083018461270b565b949350505050565b601f82111561184557600081815260208120601f850160051c81016020861015612e145750805b601f850160051c820191505b818110156115f157828155600101612e20565b815167ffffffffffffffff811115612e4d57612e4d612795565b612e6181612e5b8454612c7e565b84612ded565b602080601f831160018114612e965760008415612e7e5750858301515b600019600386901b1c1916600185901b1785556115f1565b600085815260208120601f198616915b82811015612ec557888601518255948401946001909101908401612ea6565b5085821015612ee35787850151600019600388901b60f8161c191681555b5050505050600190811b01905550565b600060208284031215612f0557600080fd5b5051919050565b634e487b7160e01b600052601160045260246000fd5b8082018082111561061957610619612f0c565b8181038181111561061957610619612f0c565b6020808252602b908201527f496e697469616c697a61626c653a20636f6e7472616374206973206e6f74206960408201526a6e697469616c697a696e6760a81b606082015260800190565b634e487b7160e01b600052602160045260246000fd5b828152604060208201526000612de5604083018461270b565b60008251612fd48184602087016126e7565b919091019291505056fe360894a13ba1a3210667c828492db98dca3e2076cc3735a920a3ca505d382bbc416464726573733a206c6f772d6c6576656c2064656c65676174652063616c6c206661696c6564a2646970667358221220e934eb958c34f817e7cdc3f93e26f4a062ca10134e13b9fd228383d99b80eb2e64736f6c63430008100033",
    "linkReferences": {}
  },
  "methodIdentifiers": {
    "badgeExpirationDates(uint256)": "abe3078b",
    "balanceOf(address)": "70a08231",
    "createSpec(string,uint256)": "445a62b9",
    "getAgreementHash(address,address,string)": "e4992506",
    "getBadgeIdHash(address,string)": "a8cf8683",
    "getDataHolderAddress()": "635ad993",
    "getExpiringBadgeHash(address,address,string,string,uint256)": "5560a5b3",
    "getVoucherHash(uint256)": "3b363a09",
    "give(address,string,bytes)": "ec64948e",
    "giveExpiringBadge(address,string,bytes,string,uint256)": "a0de8f84",
    "initialize(string,string,string,address,address)": "d6d0faee",
    "isBadgeValid(uint256,uint256)": "e6848939",
    "name()": "06fdde03",
    "owner()": "8da5cb5b",
    "ownerOf(uint256)": "6352211e",
    "proxiableUUID()": "52d1902d",
    "reinstateBadge(uint256,uint256)": "80956c7e",
    "renounceOwnership()": "715018a6",
    "revokeBadge(uint256,uint256)": "5329ae0c",
    "revokedBadges(uint256)": "91cf236e",
    "setDataHolder(address)": "c0184112",
    "supportsInterface(bytes4)": "01ffc9a7",
    "symbol()": "95d89b41",
    "take(address,string,bytes)": "a3947803",
    "takeExpiringBadge(address,string,bytes,string,uint256)": "ccb1dfdd",
    "tokenURI(uint256)": "c87b56dd",
    "transferOwnership(address)": "f2fde38b",
    "unequip(uint256)": "d179e3d0",
    "upgradeTo(address)": "3659cfe6",
    "upgradeToAndCall(address,bytes)": "4f1ef286"
  },
  "id": 43
}