{
  "abi": [
    {
      "inputs": [],
      "stateMutability": "nonpayable",
      "type": "constructor"
    },
    {
      "anonymous": false,
      "inputs": [
        {
          "indexed": false,
          "internalType": "address",
          "name": "previousAdmin",
          "type": "address"
        },
        {
          "indexed": false,
          "internalType": "address",
          "name": "newAdmin",
          "type": "address"
        }
      ],
      "name": "AdminChanged",
      "type": "event"
    },
    {
      "anonymous": false,
      "inputs": [
        {
          "indexed": true,
          "internalType": "uint256",
          "name": "tokenId",
          "type": "uint256"
        },
        {
          "indexed": true,
          "internalType": "address",
          "name": "from",
          "type": "address"
        }
      ],
      "name": "BadgeReinstated",
      "type": "event"
    },
    {
      "anonymous": false,
      "inputs": [
        {
          "indexed": true,
          "internalType": "uint256",
          "name": "tokenId",
          "type": "uint256"
        },
        {
          "indexed": true,
          "internalType": "address",
          "name": "from",
          "type": "address"
        },
        {
          "indexed": true,
          "internalType": "uint8",
          "name": "reason",
          "type": "uint8"
        }
      ],
      "name": "BadgeRevoked",
      "type": "event"
    },
    {
      "anonymous": false,
      "inputs": [
        {
          "indexed": true,
          "internalType": "address",
          "name": "beacon",
          "type": "address"
        }
      ],
      "name": "BeaconUpgraded",
      "type": "event"
    },
    {
      "anonymous": false,
      "inputs": [
        {
          "indexed": false,
          "internalType": "uint8",
          "name": "version",
          "type": "uint8"
        }
      ],
      "name": "Initialized",
      "type": "event"
    },
    {
      "anonymous": false,
      "inputs": [
        {
          "indexed": true,
          "internalType": "address",
          "name": "previousOwner",
          "type": "address"
        },
        {
          "indexed": true,
          "internalType": "address",
          "name": "newOwner",
          "type": "address"
        }
      ],
      "name": "OwnershipTransferred",
      "type": "event"
    },
    {
      "anonymous": false,
      "inputs": [
        {
          "indexed": false,
          "internalType": "string[]",
          "name": "specUris",
          "type": "string[]"
        },
        {
          "indexed": false,
          "internalType": "address",
          "name": "sender",
          "type": "address"
        }
      ],
      "name": "RefreshMetadata",
      "type": "event"
    },
    {
      "anonymous": false,
      "inputs": [
        {
          "indexed": true,
          "internalType": "address",
          "name": "to",
          "type": "address"
        },
        {
          "indexed": false,
          "internalType": "string",
          "name": "specUri",
          "type": "string"
        },
        {
          "indexed": true,
          "internalType": "uint256",
          "name": "raftTokenId",
          "type": "uint256"
        },
        {
          "indexed": true,
          "internalType": "address",
          "name": "raftAddress",
          "type": "address"
        }
      ],
      "name": "SpecCreated",
      "type": "event"
    },
    {
      "anonymous": false,
      "inputs": [
        {
          "indexed": true,
          "internalType": "address",
          "name": "from",
          "type": "address"
        },
        {
          "indexed": true,
          "internalType": "address",
          "name": "to",
          "type": "address"
        },
        {
          "indexed": true,
          "internalType": "uint256",
          "name": "tokenId",
          "type": "uint256"
        }
      ],
      "name": "Transfer",
      "type": "event"
    },
    {
      "anonymous": false,
      "inputs": [
        {
          "indexed": true,
          "internalType": "address",
          "name": "implementation",
          "type": "address"
        }
      ],
      "name": "Upgraded",
      "type": "event"
    },
    {
      "inputs": [
        {
          "internalType": "address[]",
          "name": "_recipients",
          "type": "address[]"
        },
        {
          "internalType": "string",
          "name": "_uri",
          "type": "string"
        }
      ],
      "name": "airdrop",
      "outputs": [],
      "stateMutability": "nonpayable",
      "type": "function"
    },
    {
      "inputs": [
        {
          "internalType": "address",
          "name": "_owner",
          "type": "address"
        }
      ],
      "name": "balanceOf",
      "outputs": [
        {
          "internalType": "uint256",
          "name": "",
          "type": "uint256"
        }
      ],
      "stateMutability": "view",
      "type": "function"
    },
    {
      "inputs": [
        {
          "internalType": "string",
          "name": "_specUri",
          "type": "string"
        },
        {
          "internalType": "uint256",
          "name": "_raftTokenId",
          "type": "uint256"
        }
      ],
      "name": "createSpec",
      "outputs": [],
      "stateMutability": "nonpayable",
      "type": "function"
    },
    {
      "inputs": [
        {
          "internalType": "address",
          "name": "_from",
          "type": "address"
        },
        {
          "internalType": "address",
          "name": "_to",
          "type": "address"
        },
        {
          "internalType": "string",
          "name": "_uri",
          "type": "string"
        }
      ],
      "name": "getAgreementHash",
      "outputs": [
        {
          "internalType": "bytes32",
          "name": "",
          "type": "bytes32"
        }
      ],
      "stateMutability": "view",
      "type": "function"
    },
    {
      "inputs": [
        {
          "internalType": "address",
          "name": "_to",
          "type": "address"
        },
        {
          "internalType": "string",
          "name": "_uri",
          "type": "string"
        }
      ],
      "name": "getBadgeIdHash",
      "outputs": [
        {
          "internalType": "bytes32",
          "name": "",
          "type": "bytes32"
        }
      ],
      "stateMutability": "view",
      "type": "function"
    },
    {
      "inputs": [],
      "name": "getDataHolderAddress",
      "outputs": [
        {
          "internalType": "address",
          "name": "",
          "type": "address"
        }
      ],
      "stateMutability": "view",
      "type": "function"
    },
    {
      "inputs": [
        {
          "internalType": "address",
          "name": "_issuer",
          "type": "address"
        },
        {
          "internalType": "string",
          "name": "_uri",
          "type": "string"
        },
        {
          "internalType": "bytes32",
          "name": "_root",
          "type": "bytes32"
        }
      ],
      "name": "getMerkleAgreementHash",
      "outputs": [
        {
          "internalType": "bytes32",
          "name": "",
          "type": "bytes32"
        }
      ],
      "stateMutability": "view",
      "type": "function"
    },
    {
      "inputs": [
        {
          "internalType": "address",
          "name": "_requester",
          "type": "address"
        },
        {
          "internalType": "string",
          "name": "_uri",
          "type": "string"
        }
      ],
      "name": "getRequestHash",
      "outputs": [
        {
          "internalType": "bytes32",
          "name": "",
          "type": "bytes32"
        }
      ],
      "stateMutability": "view",
      "type": "function"
    },
    {
      "inputs": [
        {
          "internalType": "address",
          "name": "_to",
          "type": "address"
        },
        {
          "internalType": "string",
          "name": "_uri",
          "type": "string"
        },
        {
          "internalType": "bytes",
          "name": "_signature",
          "type": "bytes"
        }
      ],
      "name": "give",
      "outputs": [
        {
          "internalType": "uint256",
          "name": "",
          "type": "uint256"
        }
      ],
      "stateMutability": "nonpayable",
      "type": "function"
    },
    {
      "inputs": [
        {
          "internalType": "address",
          "name": "_to",
          "type": "address"
        },
        {
          "internalType": "string",
          "name": "_uri",
          "type": "string"
        },
        {
          "internalType": "bytes",
          "name": "_signature",
          "type": "bytes"
        }
      ],
      "name": "giveRequestedBadge",
      "outputs": [
        {
          "internalType": "uint256",
          "name": "",
          "type": "uint256"
        }
      ],
      "stateMutability": "nonpayable",
      "type": "function"
    },
    {
      "inputs": [
        {
          "internalType": "address[]",
          "name": "_recipients",
          "type": "address[]"
        },
        {
          "internalType": "string",
          "name": "_uri",
          "type": "string"
        },
        {
          "internalType": "bytes[]",
          "name": "_signatures",
          "type": "bytes[]"
        }
      ],
      "name": "giveRequestedBadgeToMany",
      "outputs": [],
      "stateMutability": "nonpayable",
      "type": "function"
    },
    {
      "inputs": [
        {
          "internalType": "address[]",
          "name": "_recipients",
          "type": "address[]"
        },
        {
          "internalType": "string",
          "name": "_uri",
          "type": "string"
        },
        {
          "internalType": "bytes[]",
          "name": "_signatures",
          "type": "bytes[]"
        }
      ],
      "name": "giveToMany",
      "outputs": [],
      "stateMutability": "nonpayable",
      "type": "function"
    },
    {
      "inputs": [
        {
          "internalType": "string",
          "name": "_name",
          "type": "string"
        },
        {
          "internalType": "string",
          "name": "_symbol",
          "type": "string"
        },
        {
          "internalType": "string",
          "name": "_version",
          "type": "string"
        },
        {
          "internalType": "address",
          "name": "_nextOwner",
          "type": "address"
        },
        {
          "internalType": "address",
          "name": "_specDataHolderAddress",
          "type": "address"
        }
      ],
      "name": "initialize",
      "outputs": [],
      "stateMutability": "nonpayable",
      "type": "function"
    },
    {
      "inputs": [
        {
          "internalType": "uint256",
          "name": "_badgeId",
          "type": "uint256"
        }
      ],
      "name": "isBadgeValid",
      "outputs": [
        {
          "internalType": "bool",
          "name": "",
          "type": "bool"
        }
      ],
      "stateMutability": "view",
      "type": "function"
    },
    {
      "inputs": [
        {
          "internalType": "address",
          "name": "_from",
          "type": "address"
        },
        {
          "internalType": "string",
          "name": "_uri",
          "type": "string"
        },
        {
          "internalType": "bytes",
          "name": "_signature",
          "type": "bytes"
        },
        {
          "internalType": "bytes32",
          "name": "root",
          "type": "bytes32"
        },
        {
          "internalType": "bytes32[]",
          "name": "proof",
          "type": "bytes32[]"
        }
      ],
      "name": "merkleTake",
      "outputs": [
        {
          "internalType": "uint256",
          "name": "",
          "type": "uint256"
        }
      ],
      "stateMutability": "nonpayable",
      "type": "function"
    },
    {
      "inputs": [
        {
          "internalType": "address",
          "name": "_recipient",
          "type": "address"
        },
        {
          "internalType": "address",
          "name": "_issuer",
          "type": "address"
        },
        {
          "internalType": "string",
          "name": "_uri",
          "type": "string"
        },
        {
          "internalType": "bytes",
          "name": "_issuerSignature",
          "type": "bytes"
        },
        {
          "internalType": "bytes",
          "name": "_recipientSignature",
          "type": "bytes"
        }
      ],
      "name": "mintWithConsent",
      "outputs": [],
      "stateMutability": "nonpayable",
      "type": "function"
    },
    {
      "inputs": [],
      "name": "name",
      "outputs": [
        {
          "internalType": "string",
          "name": "",
          "type": "string"
        }
      ],
      "stateMutability": "view",
      "type": "function"
    },
    {
      "inputs": [],
      "name": "owner",
      "outputs": [
        {
          "internalType": "address",
          "name": "",
          "type": "address"
        }
      ],
      "stateMutability": "view",
      "type": "function"
    },
    {
      "inputs": [
        {
          "internalType": "uint256",
          "name": "_tokenId",
          "type": "uint256"
        }
      ],
      "name": "ownerOf",
      "outputs": [
        {
          "internalType": "address",
          "name": "",
          "type": "address"
        }
      ],
      "stateMutability": "view",
      "type": "function"
    },
    {
      "inputs": [],
      "name": "proxiableUUID",
      "outputs": [
        {
          "internalType": "bytes32",
          "name": "",
          "type": "bytes32"
        }
      ],
      "stateMutability": "view",
      "type": "function"
    },
    {
      "inputs": [
        {
          "internalType": "string[]",
          "name": "_specUris",
          "type": "string[]"
        }
      ],
      "name": "refreshMetadata",
      "outputs": [],
      "stateMutability": "nonpayable",
      "type": "function"
    },
    {
      "inputs": [
        {
          "internalType": "uint256",
          "name": "_raftTokenId",
          "type": "uint256"
        },
        {
          "internalType": "uint256",
          "name": "_badgeId",
          "type": "uint256"
        }
      ],
      "name": "reinstateBadge",
      "outputs": [],
      "stateMutability": "nonpayable",
      "type": "function"
    },
    {
      "inputs": [],
      "name": "renounceOwnership",
      "outputs": [],
      "stateMutability": "nonpayable",
      "type": "function"
    },
    {
      "inputs": [
        {
          "internalType": "uint256",
          "name": "_raftTokenId",
          "type": "uint256"
        },
        {
          "internalType": "uint256",
          "name": "_badgeId",
          "type": "uint256"
        },
        {
          "internalType": "uint8",
          "name": "_reason",
          "type": "uint8"
        }
      ],
      "name": "revokeBadge",
      "outputs": [],
      "stateMutability": "nonpayable",
      "type": "function"
    },
    {
      "inputs": [
        {
          "internalType": "address",
          "name": "_dataHolder",
          "type": "address"
        }
      ],
      "name": "setDataHolder",
      "outputs": [],
      "stateMutability": "nonpayable",
      "type": "function"
    },
    {
      "inputs": [
        {
          "internalType": "bytes4",
          "name": "_interfaceId",
          "type": "bytes4"
        }
      ],
      "name": "supportsInterface",
      "outputs": [
        {
          "internalType": "bool",
          "name": "",
          "type": "bool"
        }
      ],
      "stateMutability": "view",
      "type": "function"
    },
    {
      "inputs": [],
      "name": "symbol",
      "outputs": [
        {
          "internalType": "string",
          "name": "",
          "type": "string"
        }
      ],
      "stateMutability": "view",
      "type": "function"
    },
    {
      "inputs": [
        {
          "internalType": "address",
          "name": "_from",
          "type": "address"
        },
        {
          "internalType": "string",
          "name": "_uri",
          "type": "string"
        },
        {
          "internalType": "bytes",
          "name": "_signature",
          "type": "bytes"
        }
      ],
      "name": "take",
      "outputs": [
        {
          "internalType": "uint256",
          "name": "",
          "type": "uint256"
        }
      ],
      "stateMutability": "nonpayable",
      "type": "function"
    },
    {
      "inputs": [
        {
          "internalType": "uint256",
          "name": "_tokenId",
          "type": "uint256"
        }
      ],
      "name": "tokenURI",
      "outputs": [
        {
          "internalType": "string",
          "name": "",
          "type": "string"
        }
      ],
      "stateMutability": "view",
      "type": "function"
    },
    {
      "inputs": [
        {
          "internalType": "address",
          "name": "newOwner",
          "type": "address"
        }
      ],
      "name": "transferOwnership",
      "outputs": [],
      "stateMutability": "nonpayable",
      "type": "function"
    },
    {
      "inputs": [
        {
          "internalType": "uint256",
          "name": "_tokenId",
          "type": "uint256"
        }
      ],
      "name": "unequip",
      "outputs": [],
      "stateMutability": "nonpayable",
      "type": "function"
    },
    {
      "inputs": [
        {
          "internalType": "address",
          "name": "newImplementation",
          "type": "address"
        }
      ],
      "name": "upgradeTo",
      "outputs": [],
      "stateMutability": "nonpayable",
      "type": "function"
    },
    {
      "inputs": [
        {
          "internalType": "address",
          "name": "newImplementation",
          "type": "address"
        },
        {
          "internalType": "bytes",
          "name": "data",
          "type": "bytes"
        }
      ],
      "name": "upgradeToAndCall",
      "outputs": [],
      "stateMutability": "payable",
      "type": "function"
    }
  ],
  "bytecode": {
    "object": "0x60a0604052306080523480156200001557600080fd5b506200002062000026565b620000e8565b600054610100900460ff1615620000935760405162461bcd60e51b815260206004820152602760248201527f496e697469616c697a61626c653a20636f6e747261637420697320696e697469604482015266616c697a696e6760c81b606482015260840160405180910390fd5b60005460ff9081161015620000e6576000805460ff191660ff9081179091556040519081527f7f26b83ff96e1f2b6a682f133852f6798a09c465da95921460cefb38474024989060200160405180910390a15b565b6080516141b362000120600039600081816108ca0152818161090a0152818161118b015281816111cb015261125e01526141b36000f3fe6080604052600436106101ee5760003560e01c806380956c7e1161010d578063bd6645e4116100a0578063d179e3d01161006f578063d179e3d014610581578063d6d0faee146105a1578063e4992506146105c1578063ec64948e146105e1578063f2fde38b1461060157600080fd5b8063bd6645e414610501578063bdbdbcbf14610521578063c018411214610541578063c87b56dd1461056157600080fd5b8063a32c9c7a116100dc578063a32c9c7a14610481578063a3947803146104a1578063a8cf8683146104c1578063bc4b5447146104e157600080fd5b806380956c7e1461040e5780638339a1331461042e5780638da5cb5b1461044e57806395d89b411461046c57600080fd5b80634a50b37611610185578063635ad99311610154578063635ad9931461039a57806370a08231146103b9578063715018a6146103d95780637c402f8d146103ee57600080fd5b80634a50b3761461031a5780634f1ef2861461033a57806352d1902d1461034d5780636352211e1461036257600080fd5b80633659cfe6116101c15780633659cfe61461029857806339ae37c0146102ba578063445a62b9146102da5780634a086b53146102fa57600080fd5b806301ffc9a7146101f357806306fdde03146102285780630f4d9b011461024a5780631766c0381461026a575b600080fd5b3480156101ff57600080fd5b5061021361020e36600461337c565b610621565b60405190151581526020015b60405180910390f35b34801561023457600080fd5b5061023d610673565b60405161021f91906133f6565b34801561025657600080fd5b50610213610265366004613409565b610706565b34801561027657600080fd5b5061028a610285366004613478565b61076d565b60405190815260200161021f565b3480156102a457600080fd5b506102b86102b33660046134fa565b6108c0565b005b3480156102c657600080fd5b506102b86102d536600461355b565b61099f565b3480156102e657600080fd5b506102b86102f53660046135c6565b610b25565b34801561030657600080fd5b5061028a610315366004613611565b610de3565b34801561032657600080fd5b506102b861033536600461370c565b610f49565b6102b86103483660046137ff565b611181565b34801561035957600080fd5b5061028a611251565b34801561036e57600080fd5b5061038261037d366004613409565b611304565b6040516001600160a01b03909116815260200161021f565b3480156103a657600080fd5b50610135546001600160a01b0316610382565b3480156103c557600080fd5b5061028a6103d43660046134fa565b611359565b3480156103e557600080fd5b506102b86113e1565b3480156103fa57600080fd5b506102b86104093660046138a6565b6113f5565b34801561041a57600080fd5b506102b86104293660046138e5565b6115b9565b34801561043a57600080fd5b5061028a610449366004613907565b611773565b34801561045a57600080fd5b5060c9546001600160a01b0316610382565b34801561047857600080fd5b5061023d611800565b34801561048d57600080fd5b506102b861049c36600461395b565b611810565b3480156104ad57600080fd5b5061028a6104bc366004613478565b611a31565b3480156104cd57600080fd5b5061028a6104dc366004613907565b611b7b565b3480156104ed57600080fd5b506102b86104fc3660046139f4565b611bb1565b34801561050d57600080fd5b5061028a61051c366004613a9e565b611da2565b34801561052d57600080fd5b506102b861053c366004613af9565b611e1c565b34801561054d57600080fd5b506102b861055c3660046134fa565b611ebf565b34801561056d57600080fd5b5061023d61057c366004613409565b611eea565b34801561058d57600080fd5b506102b861059c366004613409565b611ff1565b3480156105ad57600080fd5b506102b86105bc366004613b3a565b612098565b3480156105cd57600080fd5b5061028a6105dc366004613bf9565b612277565b3480156105ed57600080fd5b5061028a6105fc366004613478565b6122e7565b34801561060d57600080fd5b506102b861061c3660046134fa565b612424565b60006001600160e01b03198216635b5e139f60e01b148061065257506001600160e01b031982166346bdd63960e11b145b8061066d57506301ffc9a760e01b6001600160e01b03198316145b92915050565b6060610130805461068390613c51565b80601f01602080910402602001604051908101604052809291908181526020018280546106af90613c51565b80156106fc5780601f106106d1576101008083540402835291602001916106fc565b820191906000526020600020905b8154815290600101906020018083116106df57829003601f168201915b5050505050905090565b6000818152610132602052604081205482906001600160a01b03166107465760405162461bcd60e51b815260040161073d90613c85565b60405180910390fd5b600883901c60009081526101376020526040902054600160ff85161b161591505b50919050565b61013554604051633664a8e960e01b815260009182916001600160a01b0390911690633664a8e9906107a59089908990600401613ce3565b602060405180830381865afa1580156107c2573d6000803e3d6000fd5b505050506040513d601f19601f820116820180604052508101906107e69190613cf7565b6101355460405163e3ee9c4d60e01b8152600481018390523360248201529192506001600160a01b03169063e3ee9c4d90604401602060405180830381865afa158015610837573d6000803e3d6000fd5b505050506040513d601f19601f8201168201806040525081019061085b9190613d10565b6108a75760405162461bcd60e51b815260206004820181905260248201527f6769766552657175657374656442616467653a20756e617574686f72697a6564604482015260640161073d565b6108b587878787878661249a565b979650505050505050565b6001600160a01b037f00000000000000000000000000000000000000000000000000000000000000001630036109085760405162461bcd60e51b815260040161073d90613d32565b7f00000000000000000000000000000000000000000000000000000000000000006001600160a01b0316610951600080516020614137833981519152546001600160a01b031690565b6001600160a01b0316146109775760405162461bcd60e51b815260040161073d90613d7e565b6109808161254d565b6040805160008082526020820190925261099c91839190612555565b50565b61013554604051633664a8e960e01b81526000916001600160a01b031690633664a8e9906109d39086908690600401613ce3565b602060405180830381865afa1580156109f0573d6000803e3d6000fd5b505050506040513d601f19601f82011682018060405250810190610a149190613cf7565b6101355460405163e3ee9c4d60e01b8152600481018390523360248201529192506001600160a01b03169063e3ee9c4d90604401602060405180830381865afa158015610a65573d6000803e3d6000fd5b505050506040513d601f19601f82011682018060405250810190610a899190613d10565b610acd5760405162461bcd60e51b8152602060048201526015602482015274185a5c991c9bdc0e881d5b985d5d1a1bdc9a5e9959605a1b604482015260640161073d565b60005b84811015610b1d57610b0a868683818110610aed57610aed613dca565b9050602002016020810190610b0291906134fa565b8585856126c5565b5080610b1581613df6565b915050610ad0565b505050505050565b6101355460405163e3ee9c4d60e01b8152600481018390523360248201526001600160a01b039091169063e3ee9c4d90604401602060405180830381865afa158015610b75573d6000803e3d6000fd5b505050506040513d601f19601f82011682018060405250810190610b999190613d10565b610be55760405162461bcd60e51b815260206004820152601860248201527f637265617465537065633a20756e617574686f72697a65640000000000000000604482015260640161073d565b61013554604051637e07102760e11b81526001600160a01b039091169063fc0e204e90610c189086908690600401613ce3565b602060405180830381865afa158015610c35573d6000803e3d6000fd5b505050506040513d601f19601f82011682018060405250810190610c599190613d10565b15610cb25760405162461bcd60e51b815260206004820152602360248201527f637265617465537065633a207370656320616c726561647920726567697374656044820152621c995960ea1b606482015260840161073d565b6101355460405163addd190760e01b81526001600160a01b039091169063addd190790610ce790869086908690600401613e0f565b600060405180830381600087803b158015610d0157600080fd5b505af1158015610d15573d6000803e3d6000fd5b5050505061013560009054906101000a90046001600160a01b03166001600160a01b03166334f876626040518163ffffffff1660e01b8152600401602060405180830381865afa158015610d6d573d6000803e3d6000fd5b505050506040513d601f19601f82011682018060405250810190610d919190613e33565b6001600160a01b031681336001600160a01b03167f68c7f8503283c455a4445b54a7d5c40656c8cae5cca0583c6d4be836984787008686604051610dd6929190613ce3565b60405180910390a4505050565b6000610df689338a8a8a8a8a8a8a612844565b61013554604051633664a8e960e01b81526000916001600160a01b031690633664a8e990610e2a908c908c90600401613ce3565b602060405180830381865afa158015610e47573d6000803e3d6000fd5b505050506040513d601f19601f82011682018060405250810190610e6b9190613cf7565b6101355460405163e3ee9c4d60e01b8152600481018390526001600160a01b038d8116602483015292935091169063e3ee9c4d90604401602060405180830381865afa158015610ebf573d6000803e3d6000fd5b505050506040513d601f19601f82011682018060405250810190610ee39190613d10565b610f2f5760405162461bcd60e51b815260206004820152601860248201527f6d65726b6c6554616b653a20756e617574686f72697a65640000000000000000604482015260640161073d565b610f3b338a8a846126c5565b9a9950505050505050505050565b84518114610fcb5760405162461bcd60e51b815260206004820152604360248201527f676976655265717565737465644261646765546f4d616e793a2072656369706960448201527f656e747320616e64207369676e617475726573206c656e677468206d69736d616064820152620e8c6d60eb1b608482015260a40161073d565b61013554604051633664a8e960e01b81526000916001600160a01b031690633664a8e990610fff9088908890600401613ce3565b602060405180830381865afa15801561101c573d6000803e3d6000fd5b505050506040513d601f19601f820116820180604052508101906110409190613cf7565b6101355460405163e3ee9c4d60e01b8152600481018390523360248201529192506001600160a01b03169063e3ee9c4d90604401602060405180830381865afa158015611091573d6000803e3d6000fd5b505050506040513d601f19601f820116820180604052508101906110b59190613d10565b6111105760405162461bcd60e51b815260206004820152602660248201527f676976655265717565737465644261646765546f4d616e793a20756e617574686044820152651bdc9a5e995960d21b606482015260840161073d565b60005b86518110156111785761116587828151811061113157611131613dca565b6020026020010151878787878681811061114d5761114d613dca565b905060200281019061115f9190613e50565b8761249a565b508061117081613df6565b915050611113565b50505050505050565b6001600160a01b037f00000000000000000000000000000000000000000000000000000000000000001630036111c95760405162461bcd60e51b815260040161073d90613d32565b7f00000000000000000000000000000000000000000000000000000000000000006001600160a01b0316611212600080516020614137833981519152546001600160a01b031690565b6001600160a01b0316146112385760405162461bcd60e51b815260040161073d90613d7e565b6112418261254d565b61124d82826001612555565b5050565b6000306001600160a01b037f000000000000000000000000000000000000000000000000000000000000000016146112f15760405162461bcd60e51b815260206004820152603860248201527f555550535570677261646561626c653a206d757374206e6f742062652063616c60448201527f6c6564207468726f7567682064656c656761746563616c6c0000000000000000606482015260840161073d565b5060008051602061413783398151915290565b6000818152610132602052604081205482906001600160a01b031661133b5760405162461bcd60e51b815260040161073d90613c85565b5050600090815261013260205260409020546001600160a01b031690565b60006001600160a01b0382166113c45760405162461bcd60e51b815260206004820152602a60248201527f62616c616e63654f663a2061646472657373283029206973206e6f742061207660448201526930b634b21037bbb732b960b11b606482015260840161073d565b506001600160a01b03166000908152610134602052604090205490565b6113e96129d1565b6113f36000612a2b565b565b6000828152610132602052604090205482906001600160a01b031661142c5760405162461bcd60e51b815260040161073d90613c85565b6101355460405163e3ee9c4d60e01b8152600481018690523360248201526001600160a01b039091169063e3ee9c4d90604401602060405180830381865afa15801561147c573d6000803e3d6000fd5b505050506040513d601f19601f820116820180604052508101906114a09190613d10565b6114ec5760405162461bcd60e51b815260206004820152601960248201527f7265766f6b6542616467653a20756e617574686f72697a656400000000000000604482015260640161073d565b600883901c60009081526101376020526040902054600160ff85161b16156115615760405162461bcd60e51b815260206004820152602260248201527f7265766f6b6542616467653a20626164676520616c7265616479207265766f6b604482015261195960f21b606482015260840161073d565b600883901c6000908152610137602052604090208054600160ff86161b17905560405160ff831690339085907ffa784c48260e8db512de5f055a2f29eced211a7b3bd6338058b095ada7354cee90600090a450505050565b6000818152610132602052604090205481906001600160a01b03166115f05760405162461bcd60e51b815260040161073d90613c85565b6101355460405163e3ee9c4d60e01b8152600481018590523360248201526001600160a01b039091169063e3ee9c4d90604401602060405180830381865afa158015611640573d6000803e3d6000fd5b505050506040513d601f19601f820116820180604052508101906116649190613d10565b6116b05760405162461bcd60e51b815260206004820152601c60248201527f7265696e737461746542616467653a20756e617574686f72697a656400000000604482015260640161073d565b600882901c60009081526101376020526040902054600160ff84161b166117235760405162461bcd60e51b815260206004820152602160248201527f7265696e737461746542616467653a206261646765206e6f74207265766f6b656044820152601960fa1b606482015260840161073d565b600882901c600090815261013760205260408082208054600160ff87161b1916905551339184917f7f8cf9ecf2a5225948f8a1601709cedc8471c52ee75a8174c9845c29c99ed9a29190a3505050565b60006117f67fa1cd8d39eb877323a4bcf08188675058ee9a4534d4c79021300b3722aeda505d8585856040516117aa929190613e96565b6040519081900381206117db9392916020019283526001600160a01b03919091166020830152604082015260600190565b60405160208183030381529060405280519060200120612a7d565b90505b9392505050565b6060610131805461068390613c51565b84811461187d5760405162461bcd60e51b815260206004820152603560248201527f67697665546f4d616e793a20726563697069656e747320616e64207369676e616044820152740e8eae4cae640d8cadccee8d040dad2e6dac2e8c6d605b1b606482015260840161073d565b61013554604051633664a8e960e01b81526000916001600160a01b031690633664a8e9906118b19088908890600401613ce3565b602060405180830381865afa1580156118ce573d6000803e3d6000fd5b505050506040513d601f19601f820116820180604052508101906118f29190613cf7565b6101355460405163e3ee9c4d60e01b8152600481018390523360248201529192506001600160a01b03169063e3ee9c4d90604401602060405180830381865afa158015611943573d6000803e3d6000fd5b505050506040513d601f19601f820116820180604052508101906119679190613d10565b6119b35760405162461bcd60e51b815260206004820152601860248201527f67697665546f4d616e793a20756e617574686f72697a65640000000000000000604482015260640161073d565b60005b86811015611a2757611a148888838181106119d3576119d3613dca565b90506020020160208101906119e891906134fa565b87878787868181106119fc576119fc613dca565b9050602002810190611a0e9190613e50565b87612acb565b5080611a1f81613df6565b9150506119b6565b5050505050505050565b6000611a41338787878787612ad7565b61013554604051633664a8e960e01b81526000916001600160a01b031690633664a8e990611a759089908990600401613ce3565b602060405180830381865afa158015611a92573d6000803e3d6000fd5b505050506040513d601f19601f82011682018060405250810190611ab69190613cf7565b6101355460405163e3ee9c4d60e01b8152600481018390526001600160a01b038a8116602483015292935091169063e3ee9c4d90604401602060405180830381865afa158015611b0a573d6000803e3d6000fd5b505050506040513d601f19601f82011682018060405250810190611b2e9190613d10565b611b6f5760405162461bcd60e51b81526020600482015260126024820152711d185ad94e881d5b985d5d1a1bdc9a5e995960721b604482015260640161073d565b6108b5338787846126c5565b6000838383604051602001611b9293929190613ea6565b6040516020818303038152906040528051906020012090509392505050565b61013554604051633664a8e960e01b81526000916001600160a01b031690633664a8e990611be5908a908a90600401613ce3565b602060405180830381865afa158015611c02573d6000803e3d6000fd5b505050506040513d601f19601f82011682018060405250810190611c269190613cf7565b90506000611c368a8a8a8a612277565b9050611c79898288888080601f016020809104026020016040519081016040528093929190818152602001838380828437600092019190915250612b7d92505050565b611cd75760405162461bcd60e51b815260206004820152602960248201527f6d696e7457697468436f6e73656e743a20696e76616c696420697373756572206044820152687369676e617475726560b81b606482015260840161073d565b6000611ce48b8a8a611773565b9050611d278b8287878080601f016020809104026020016040519081016040528093929190818152602001838380828437600092019190915250612b7d92505050565b611d885760405162461bcd60e51b815260206004820152602c60248201527f6d696e7457697468436f6e73656e743a20696e76616c6964207265636970696560448201526b6e74207369676e617475726560a01b606482015260840161073d565b611d948b8a8a866126c5565b505050505050505050505050565b6000611e117f6d0d990916a9f9c9e0896e59ce7f5ddddff333d0c8772438ce004fa7719b164b868686604051611dd9929190613e96565b6040519081900381206117db93929187906020019384526001600160a01b039290921660208401526040830152606082015260800190565b90505b949350505050565b611e246129d1565b80611e805760405162461bcd60e51b815260206004820152602660248201527f726566726573684d657461646174613a206e6f207370656320757269732070726044820152651bdd9a59195960d21b606482015260840161073d565b7f2231d988b1a75dccab13dee3564b71a551900e822e94177a96f19561890c0fd5828233604051611eb393929190613ecb565b60405180910390a15050565b611ec76129d1565b61013580546001600160a01b0319166001600160a01b0392909216919091179055565b600081815261013260205260409020546060906001600160a01b0316611f525760405162461bcd60e51b815260206004820152601d60248201527f746f6b656e5552493a20746f6b656e20646f65736e2774206578697374000000604482015260640161073d565b6000828152610133602052604090208054611f6c90613c51565b80601f0160208091040260200160405190810160405280929190818152602001828054611f9890613c51565b8015611fe55780601f10611fba57610100808354040283529160200191611fe5565b820191906000526020600020905b815481529060010190602001808311611fc857829003601f168201915b50505050509050919050565b6000818152610132602052604090205481906001600160a01b03166120285760405162461bcd60e51b815260040161073d90613c85565b600082815261013260205260409020546001600160a01b0316331461208f5760405162461bcd60e51b815260206004820152601d60248201527f756e65717569703a2073656e646572206d757374206265206f776e6572000000604482015260640161073d565b61124d82612cbf565b600054610100900460ff16158080156120b85750600054600160ff909116105b806120d25750303b1580156120d2575060005460ff166001145b6121355760405162461bcd60e51b815260206004820152602e60248201527f496e697469616c697a61626c653a20636f6e747261637420697320616c72656160448201526d191e481a5b9a5d1a585b1a5e995960921b606482015260840161073d565b6000805460ff191660011790558015612158576000805461ff0019166101001790555b610130612166898b83613fba565b50610131612175878983613fba565b5061013580546001600160a01b0319166001600160a01b03841617905561219a612d6a565b6121a2612d91565b61221589898080601f01602080910402602001604051908101604052809392919081815260200183838082843760009201919091525050604080516020601f8b018190048102820181019092528981529250899150889081908401838280828437600092019190915250612dc092505050565b61221d612d6a565b61222683612424565b801561226c576000805461ff0019169055604051600181527f7f26b83ff96e1f2b6a682f133852f6798a09c465da95921460cefb38474024989060200160405180910390a15b505050505050505050565b6000611e117fe76a195fbe43f0eaa611595069f780493db2202a1cc4b2d7d44b47069812998a868686866040516122af929190613e96565b6040519081900381206117db949392916020019384526001600160a01b03928316602085015291166040830152606082015260800190565b61013554604051633664a8e960e01b815260009182916001600160a01b0390911690633664a8e99061231f9089908990600401613ce3565b602060405180830381865afa15801561233c573d6000803e3d6000fd5b505050506040513d601f19601f820116820180604052508101906123609190613cf7565b6101355460405163e3ee9c4d60e01b8152600481018390523360248201529192506001600160a01b03169063e3ee9c4d90604401602060405180830381865afa1580156123b1573d6000803e3d6000fd5b505050506040513d601f19601f820116820180604052508101906123d59190613d10565b6124165760405162461bcd60e51b815260206004820152601260248201527119da5d994e881d5b985d5d1a1bdc9a5e995960721b604482015260640161073d565b6108b5878787878786612acb565b61242c6129d1565b6001600160a01b0381166124915760405162461bcd60e51b815260206004820152602660248201527f4f776e61626c653a206e6577206f776e657220697320746865207a65726f206160448201526564647265737360d01b606482015260840161073d565b61099c81612a2b565b60006124e7876124ab898989611773565b86868080601f016020809104026020016040519081016040528093929190818152602001838380828437600092019190915250612b7d92505050565b6125415760405162461bcd60e51b815260206004820152602560248201527f6769766552657175657374656442616467653a20696e76616c6964207369676e604482015264617475726560d81b606482015260840161073d565b6108b5878787856126c5565b61099c6129d1565b7f4910fdfa16fed3260ed0e7147f7cc6da11a60208b5b9406d12a635614ffd91435460ff161561258d5761258883612df1565b505050565b826001600160a01b03166352d1902d6040518163ffffffff1660e01b8152600401602060405180830381865afa9250505080156125e7575060408051601f3d908101601f191682019092526125e491810190613cf7565b60015b61264a5760405162461bcd60e51b815260206004820152602e60248201527f45524331393637557067726164653a206e657720696d706c656d656e7461746960448201526d6f6e206973206e6f74205555505360901b606482015260840161073d565b60008051602061413783398151915281146126b95760405162461bcd60e51b815260206004820152602960248201527f45524331393637557067726164653a20756e737570706f727465642070726f786044820152681a58589b195555525160ba1b606482015260840161073d565b50612588838383612e8d565b6000806126d3868686611b7b565b600081815261013260205260409020549091506001600160a01b0316156127335760405162461bcd60e51b81526020600482015260146024820152736d696e743a20746f6b656e49442065786973747360601b604482015260640161073d565b6001600160a01b03861660009081526101346020526040812080549161275883613df6565b909155505060008181526101326020908152604080832080546001600160a01b0319166001600160a01b038b16179055610133909152902061279b858783613fba565b5060405181906001600160a01b038816906000907fddf252ad1be2c89b69c2b068fc378daa952ba7f163c4a11628f55a4df523b3ef908290a46101355460405163fb74926160e01b815260048101839052602481018590526001600160a01b039091169063fb74926190604401600060405180830381600087803b15801561282257600080fd5b505af1158015612836573d6000803e3d6000fd5b509298975050505050505050565b612890896128548b8a8a88611da2565b87878080601f016020809104026020016040519081016040528093929190818152602001838380828437600092019190915250612b7d92505050565b6128f05760405162461bcd60e51b815260206004820152602b60248201527f73616665436865636b4d65726b6c6541677265656d656e743a20696e76616c6960448201526a64207369676e617475726560a81b606482015260840161073d565b6040516bffffffffffffffffffffffff1960608a901b16602082015260009060340160405160208183030381529060405280519060200120905061296a838380806020026020016040519081016040528093929190818152602001838360200280828437600092019190915250889250859150612eb89050565b6129c55760405162461bcd60e51b815260206004820152602660248201527f73616665436865636b4d65726b6c6541677265656d656e743a20696e76616c6960448201526532103632b0b360d11b606482015260840161073d565b50505050505050505050565b60c9546001600160a01b031633146113f35760405162461bcd60e51b815260206004820181905260248201527f4f776e61626c653a2063616c6c6572206973206e6f7420746865206f776e6572604482015260640161073d565b60c980546001600160a01b038381166001600160a01b0319831681179093556040519116919082907f8be0079c531659141344cd1fd0a4f28419497f9722a3daafe3b4186f6b6457e090600090a35050565b600061066d612a8a612ece565b8360405161190160f01b6020820152602281018390526042810182905260009060620160405160208183030381529060405280519060200120905092915050565b60006125413388888888885b612b2385612ae788888888612277565b84848080601f016020809104026020016040519081016040528093929190818152602001838380828437600092019190915250612b7d92505050565b610b1d5760405162461bcd60e51b815260206004820152602560248201527f73616665436865636b41677265656d656e743a20696e76616c6964207369676e604482015264617475726560d81b606482015260840161073d565b6000806000612b8c8585612f0a565b90925090506000816004811115612ba557612ba561407a565b148015612bc35750856001600160a01b0316826001600160a01b0316145b15612bd3576001925050506117f9565b600080876001600160a01b0316631626ba7e60e01b8888604051602401612bfb929190614090565b60408051601f198184030181529181526020820180516001600160e01b03166001600160e01b0319909416939093179092529051612c3991906140a9565b600060405180830381855afa9150503d8060008114612c74576040519150601f19603f3d011682016040523d82523d6000602084013e612c79565b606091505b5091509150818015612c8c575080516020145b8015612cb357508051630b135d3f60e11b90612cb19083016020908101908401613cf7565b145b98975050505050505050565b600081815261013260209081526040808320546001600160a01b0316808452610134909252822080549192600192612cf89084906140c5565b909155505060008281526101326020908152604080832080546001600160a01b03191690556101339091528120612d2e9161332e565b60405182906000906001600160a01b038416907fddf252ad1be2c89b69c2b068fc378daa952ba7f163c4a11628f55a4df523b3ef908390a45050565b600054610100900460ff166113f35760405162461bcd60e51b815260040161073d906140d8565b600054610100900460ff16612db85760405162461bcd60e51b815260040161073d906140d8565b6113f3612f78565b600054610100900460ff16612de75760405162461bcd60e51b815260040161073d906140d8565b61124d8282612fa8565b6001600160a01b0381163b612e5e5760405162461bcd60e51b815260206004820152602d60248201527f455243313936373a206e657720696d706c656d656e746174696f6e206973206e60448201526c1bdd08184818dbdb9d1c9858dd609a1b606482015260840161073d565b60008051602061413783398151915280546001600160a01b0319166001600160a01b0392909216919091179055565b612e9683612fe9565b600082511180612ea35750805b1561258857612eb28383613029565b50505050565b600082612ec5858461311d565b14949350505050565b6000612f057f8b73c3c69bb8fe3d512ecc4cf759cc79239f7b179b0ffacaa9a75d522b39400f612efd60fb5490565b60fc5461316a565b905090565b6000808251604103612f405760208301516040840151606085015160001a612f3487828585613199565b94509450505050612f71565b8251604003612f695760208301516040840151612f5e868383613286565b935093505050612f71565b506000905060025b9250929050565b600054610100900460ff16612f9f5760405162461bcd60e51b815260040161073d906140d8565b6113f333612a2b565b600054610100900460ff16612fcf5760405162461bcd60e51b815260040161073d906140d8565b81516020928301208151919092012060fb9190915560fc55565b612ff281612df1565b6040516001600160a01b038216907fbc7cd75a20ee27fd9adebab32041f755214dbc6bffa90cc0225b39da2e5c2d3b90600090a250565b60606001600160a01b0383163b6130915760405162461bcd60e51b815260206004820152602660248201527f416464726573733a2064656c65676174652063616c6c20746f206e6f6e2d636f6044820152651b9d1c9858dd60d21b606482015260840161073d565b600080846001600160a01b0316846040516130ac91906140a9565b600060405180830381855af49150503d80600081146130e7576040519150601f19603f3d011682016040523d82523d6000602084013e6130ec565b606091505b50915091506131148282604051806060016040528060278152602001614157602791396132bf565b95945050505050565b600081815b84518110156131625761314e8286838151811061314157613141613dca565b60200260200101516132d8565b91508061315a81613df6565b915050613122565b509392505050565b6040805160208101859052908101839052606081018290524660808201523060a082015260009060c001611b92565b6000807f7fffffffffffffffffffffffffffffff5d576e7357a4501ddfe92f46681b20a08311156131d0575060009050600361327d565b8460ff16601b141580156131e857508460ff16601c14155b156131f9575060009050600461327d565b6040805160008082526020820180845289905260ff881692820192909252606081018690526080810185905260019060a0016020604051602081039080840390855afa15801561324d573d6000803e3d6000fd5b5050604051601f1901519150506001600160a01b0381166132765760006001925092505061327d565b9150600090505b94509492505050565b6000806001600160ff1b038316816132a360ff86901c601b614123565b90506132b187828885613199565b935093505050935093915050565b606083156132ce5750816117f9565b6117f98383613304565b60008183106132f45760008281526020849052604090206117f9565b5060009182526020526040902090565b8151156133145781518083602001fd5b8060405162461bcd60e51b815260040161073d91906133f6565b50805461333a90613c51565b6000825580601f1061334a575050565b601f01602090049060005260206000209081019061099c91905b808211156133785760008155600101613364565b5090565b60006020828403121561338e57600080fd5b81356001600160e01b0319811681146117f957600080fd5b60005b838110156133c15781810151838201526020016133a9565b50506000910152565b600081518084526133e28160208601602086016133a6565b601f01601f19169290920160200192915050565b6020815260006117f960208301846133ca565b60006020828403121561341b57600080fd5b5035919050565b6001600160a01b038116811461099c57600080fd5b60008083601f84011261344957600080fd5b5081356001600160401b0381111561346057600080fd5b602083019150836020828501011115612f7157600080fd5b60008060008060006060868803121561349057600080fd5b853561349b81613422565b945060208601356001600160401b03808211156134b757600080fd5b6134c389838a01613437565b909650945060408801359150808211156134dc57600080fd5b506134e988828901613437565b969995985093965092949392505050565b60006020828403121561350c57600080fd5b81356117f981613422565b60008083601f84011261352957600080fd5b5081356001600160401b0381111561354057600080fd5b6020830191508360208260051b8501011115612f7157600080fd5b6000806000806040858703121561357157600080fd5b84356001600160401b038082111561358857600080fd5b61359488838901613517565b909650945060208701359150808211156135ad57600080fd5b506135ba87828801613437565b95989497509550505050565b6000806000604084860312156135db57600080fd5b83356001600160401b038111156135f157600080fd5b6135fd86828701613437565b909790965060209590950135949350505050565b60008060008060008060008060a0898b03121561362d57600080fd5b883561363881613422565b975060208901356001600160401b038082111561365457600080fd5b6136608c838d01613437565b909950975060408b013591508082111561367957600080fd5b6136858c838d01613437565b909750955060608b0135945060808b01359150808211156136a557600080fd5b506136b28b828c01613517565b999c989b5096995094979396929594505050565b634e487b7160e01b600052604160045260246000fd5b604051601f8201601f191681016001600160401b0381118282101715613704576137046136c6565b604052919050565b60008060008060006060868803121561372457600080fd5b85356001600160401b038082111561373b57600080fd5b818801915088601f83011261374f57600080fd5b8135602082821115613763576137636136c6565b8160051b6137728282016136dc565b928352848101820192828101908d85111561378c57600080fd5b958301955b848710156137b657863592506137a683613422565b8282529583019590830190613791565b9a505050890135925050808211156137cd57600080fd5b6137d989838a01613437565b909650945060408801359150808211156137f257600080fd5b506134e988828901613517565b6000806040838503121561381257600080fd5b823561381d81613422565b91506020838101356001600160401b038082111561383a57600080fd5b818601915086601f83011261384e57600080fd5b813581811115613860576138606136c6565b613872601f8201601f191685016136dc565b9150808252878482850101111561388857600080fd5b80848401858401376000848284010152508093505050509250929050565b6000806000606084860312156138bb57600080fd5b8335925060208401359150604084013560ff811681146138da57600080fd5b809150509250925092565b600080604083850312156138f857600080fd5b50508035926020909101359150565b60008060006040848603121561391c57600080fd5b833561392781613422565b925060208401356001600160401b0381111561394257600080fd5b61394e86828701613437565b9497909650939450505050565b6000806000806000806060878903121561397457600080fd5b86356001600160401b038082111561398b57600080fd5b6139978a838b01613517565b909850965060208901359150808211156139b057600080fd5b6139bc8a838b01613437565b909650945060408901359150808211156139d557600080fd5b506139e289828a01613517565b979a9699509497509295939492505050565b60008060008060008060008060a0898b031215613a1057600080fd5b8835613a1b81613422565b97506020890135613a2b81613422565b965060408901356001600160401b0380821115613a4757600080fd5b613a538c838d01613437565b909850965060608b0135915080821115613a6c57600080fd5b613a788c838d01613437565b909650945060808b0135915080821115613a9157600080fd5b506136b28b828c01613437565b60008060008060608587031215613ab457600080fd5b8435613abf81613422565b935060208501356001600160401b03811115613ada57600080fd5b613ae687828801613437565b9598909750949560400135949350505050565b60008060208385031215613b0c57600080fd5b82356001600160401b03811115613b2257600080fd5b613b2e85828601613517565b90969095509350505050565b60008060008060008060008060a0898b031215613b5657600080fd5b88356001600160401b0380821115613b6d57600080fd5b613b798c838d01613437565b909a50985060208b0135915080821115613b9257600080fd5b613b9e8c838d01613437565b909850965060408b0135915080821115613bb757600080fd5b50613bc48b828c01613437565b9095509350506060890135613bd881613422565b91506080890135613be881613422565b809150509295985092959890939650565b60008060008060608587031215613c0f57600080fd5b8435613c1a81613422565b93506020850135613c2a81613422565b925060408501356001600160401b03811115613c4557600080fd5b6135ba87828801613437565b600181811c90821680613c6557607f821691505b60208210810361076757634e487b7160e01b600052602260045260246000fd5b6020808252818101527f746f6b656e4578697374733a20746f6b656e20646f65736e2774206578697374604082015260600190565b81835281816020850137506000828201602090810191909152601f909101601f19169091010190565b6020815260006117f6602083018486613cba565b600060208284031215613d0957600080fd5b5051919050565b600060208284031215613d2257600080fd5b815180151581146117f957600080fd5b6020808252602c908201527f46756e6374696f6e206d7573742062652063616c6c6564207468726f7567682060408201526b19195b1959d85d1958d85b1b60a21b606082015260800190565b6020808252602c908201527f46756e6374696f6e206d7573742062652063616c6c6564207468726f7567682060408201526b6163746976652070726f787960a01b606082015260800190565b634e487b7160e01b600052603260045260246000fd5b634e487b7160e01b600052601160045260246000fd5b600060018201613e0857613e08613de0565b5060010190565b604081526000613e23604083018587613cba565b9050826020830152949350505050565b600060208284031215613e4557600080fd5b81516117f981613422565b6000808335601e19843603018112613e6757600080fd5b8301803591506001600160401b03821115613e8157600080fd5b602001915036819003821315612f7157600080fd5b8183823760009101908152919050565b6001600160a01b0384168152604060208201819052600090611e119083018486613cba565b6040808252810183905260006060600585901b8301810190830186835b87811015613f5b57858403605f190183528135368a9003601e19018112613f0e57600080fd5b890160208181019135906001600160401b03821115613f2c57600080fd5b813603831315613f3b57600080fd5b613f46878385613cba565b96509485019493909301925050600101613ee8565b5050506001600160a01b03841660208401529050611e14565b601f82111561258857600081815260208120601f850160051c81016020861015613f9b5750805b601f850160051c820191505b81811015610b1d57828155600101613fa7565b6001600160401b03831115613fd157613fd16136c6565b613fe583613fdf8354613c51565b83613f74565b6000601f84116001811461401957600085156140015750838201355b600019600387901b1c1916600186901b178355614073565b600083815260209020601f19861690835b8281101561404a578685013582556020948501946001909201910161402a565b50868210156140675760001960f88860031b161c19848701351681555b505060018560011b0183555b5050505050565b634e487b7160e01b600052602160045260246000fd5b8281526040602082015260006117f660408301846133ca565b600082516140bb8184602087016133a6565b9190910192915050565b8181038181111561066d5761066d613de0565b6020808252602b908201527f496e697469616c697a61626c653a20636f6e7472616374206973206e6f74206960408201526a6e697469616c697a696e6760a81b606082015260800190565b8082018082111561066d5761066d613de056fe360894a13ba1a3210667c828492db98dca3e2076cc3735a920a3ca505d382bbc416464726573733a206c6f772d6c6576656c2064656c65676174652063616c6c206661696c6564a264697066735822122067a6d6c17f490914033e1e67099fe3ad6d9a1351d836c67b3154f1d1df3263e164736f6c63430008100033",
    "linkReferences": {}
  },
  "methodIdentifiers": {
    "airdrop(address[],string)": "39ae37c0",
    "balanceOf(address)": "70a08231",
    "createSpec(string,uint256)": "445a62b9",
    "getAgreementHash(address,address,string)": "e4992506",
    "getBadgeIdHash(address,string)": "a8cf8683",
    "getDataHolderAddress()": "635ad993",
    "getMerkleAgreementHash(address,string,bytes32)": "bd6645e4",
    "getRequestHash(address,string)": "8339a133",
    "give(address,string,bytes)": "ec64948e",
    "giveRequestedBadge(address,string,bytes)": "1766c038",
    "giveRequestedBadgeToMany(address[],string,bytes[])": "4a50b376",
    "giveToMany(address[],string,bytes[])": "a32c9c7a",
    "initialize(string,string,string,address,address)": "d6d0faee",
    "isBadgeValid(uint256)": "0f4d9b01",
    "merkleTake(address,string,bytes,bytes32,bytes32[])": "4a086b53",
    "mintWithConsent(address,address,string,bytes,bytes)": "bc4b5447",
    "name()": "06fdde03",
    "owner()": "8da5cb5b",
    "ownerOf(uint256)": "6352211e",
    "proxiableUUID()": "52d1902d",
    "refreshMetadata(string[])": "bdbdbcbf",
    "reinstateBadge(uint256,uint256)": "80956c7e",
    "renounceOwnership()": "715018a6",
    "revokeBadge(uint256,uint256,uint8)": "7c402f8d",
    "setDataHolder(address)": "c0184112",
    "supportsInterface(bytes4)": "01ffc9a7",
    "symbol()": "95d89b41",
    "take(address,string,bytes)": "a3947803",
    "tokenURI(uint256)": "c87b56dd",
    "transferOwnership(address)": "f2fde38b",
    "unequip(uint256)": "d179e3d0",
    "upgradeTo(address)": "3659cfe6",
    "upgradeToAndCall(address,bytes)": "4f1ef286"
  },
  "id": 44
}