{
  "abi": [
    {
      "inputs": [],
      "stateMutability": "nonpayable",
      "type": "constructor"
    },
    {
      "anonymous": false,
      "inputs": [
        {
          "indexed": false,
          "internalType": "address",
          "name": "previousAdmin",
          "type": "address"
        },
        {
          "indexed": false,
          "internalType": "address",
          "name": "newAdmin",
          "type": "address"
        }
      ],
      "name": "AdminChanged",
      "type": "event"
    },
    {
      "anonymous": false,
      "inputs": [
        {
          "indexed": true,
          "internalType": "uint256",
          "name": "tokenId",
          "type": "uint256"
        },
        {
          "indexed": true,
          "internalType": "address",
          "name": "from",
          "type": "address"
        }
      ],
      "name": "BadgeReinstated",
      "type": "event"
    },
    {
      "anonymous": false,
      "inputs": [
        {
          "indexed": true,
          "internalType": "uint256",
          "name": "tokenId",
          "type": "uint256"
        },
        {
          "indexed": true,
          "internalType": "address",
          "name": "from",
          "type": "address"
        },
        {
          "indexed": true,
          "internalType": "uint8",
          "name": "reason",
          "type": "uint8"
        }
      ],
      "name": "BadgeRevoked",
      "type": "event"
    },
    {
      "anonymous": false,
      "inputs": [
        {
          "indexed": true,
          "internalType": "address",
          "name": "beacon",
          "type": "address"
        }
      ],
      "name": "BeaconUpgraded",
      "type": "event"
    },
    {
      "anonymous": false,
      "inputs": [
        {
          "indexed": false,
          "internalType": "uint8",
          "name": "version",
          "type": "uint8"
        }
      ],
      "name": "Initialized",
      "type": "event"
    },
    {
      "anonymous": false,
      "inputs": [
        {
          "indexed": true,
          "internalType": "address",
          "name": "previousOwner",
          "type": "address"
        },
        {
          "indexed": true,
          "internalType": "address",
          "name": "newOwner",
          "type": "address"
        }
      ],
      "name": "OwnershipTransferred",
      "type": "event"
    },
    {
      "anonymous": false,
      "inputs": [
        {
          "indexed": false,
          "internalType": "string[]",
          "name": "specUris",
          "type": "string[]"
        },
        {
          "indexed": false,
          "internalType": "address",
          "name": "sender",
          "type": "address"
        }
      ],
      "name": "RefreshMetadata",
      "type": "event"
    },
    {
      "anonymous": false,
      "inputs": [
        {
          "indexed": true,
          "internalType": "address",
          "name": "to",
          "type": "address"
        },
        {
          "indexed": false,
          "internalType": "string",
          "name": "specUri",
          "type": "string"
        },
        {
          "indexed": true,
          "internalType": "uint256",
          "name": "raftTokenId",
          "type": "uint256"
        },
        {
          "indexed": true,
          "internalType": "address",
          "name": "raftAddress",
          "type": "address"
        }
      ],
      "name": "SpecCreated",
      "type": "event"
    },
    {
      "anonymous": false,
      "inputs": [
        {
          "indexed": true,
          "internalType": "address",
          "name": "from",
          "type": "address"
        },
        {
          "indexed": true,
          "internalType": "address",
          "name": "to",
          "type": "address"
        },
        {
          "indexed": true,
          "internalType": "uint256",
          "name": "tokenId",
          "type": "uint256"
        }
      ],
      "name": "Transfer",
      "type": "event"
    },
    {
      "anonymous": false,
      "inputs": [
        {
          "indexed": true,
          "internalType": "address",
          "name": "implementation",
          "type": "address"
        }
      ],
      "name": "Upgraded",
      "type": "event"
    },
    {
      "inputs": [
        {
          "internalType": "address",
          "name": "_owner",
          "type": "address"
        }
      ],
      "name": "balanceOf",
      "outputs": [
        {
          "internalType": "uint256",
          "name": "",
          "type": "uint256"
        }
      ],
      "stateMutability": "view",
      "type": "function"
    },
    {
      "inputs": [
        {
          "internalType": "string",
          "name": "_specUri",
          "type": "string"
        },
        {
          "internalType": "uint256",
          "name": "_raftTokenId",
          "type": "uint256"
        }
      ],
      "name": "createSpec",
      "outputs": [],
      "stateMutability": "nonpayable",
      "type": "function"
    },
    {
      "inputs": [
        {
          "internalType": "address",
          "name": "_from",
          "type": "address"
        },
        {
          "internalType": "address",
          "name": "_to",
          "type": "address"
        },
        {
          "internalType": "string",
          "name": "_uri",
          "type": "string"
        }
      ],
      "name": "getAgreementHash",
      "outputs": [
        {
          "internalType": "bytes32",
          "name": "",
          "type": "bytes32"
        }
      ],
      "stateMutability": "view",
      "type": "function"
    },
    {
      "inputs": [
        {
          "internalType": "address",
          "name": "_to",
          "type": "address"
        },
        {
          "internalType": "string",
          "name": "_uri",
          "type": "string"
        }
      ],
      "name": "getBadgeIdHash",
      "outputs": [
        {
          "internalType": "bytes32",
          "name": "",
          "type": "bytes32"
        }
      ],
      "stateMutability": "view",
      "type": "function"
    },
    {
      "inputs": [],
      "name": "getDataHolderAddress",
      "outputs": [
        {
          "internalType": "address",
          "name": "",
          "type": "address"
        }
      ],
      "stateMutability": "view",
      "type": "function"
    },
    {
      "inputs": [
        {
          "internalType": "address",
          "name": "_issuer",
          "type": "address"
        },
        {
          "internalType": "string",
          "name": "_uri",
          "type": "string"
        },
        {
          "internalType": "bytes32",
          "name": "_root",
          "type": "bytes32"
        }
      ],
      "name": "getMerkleAgreementHash",
      "outputs": [
        {
          "internalType": "bytes32",
          "name": "",
          "type": "bytes32"
        }
      ],
      "stateMutability": "view",
      "type": "function"
    },
    {
      "inputs": [
        {
          "internalType": "address",
          "name": "_to",
          "type": "address"
        },
        {
          "internalType": "string",
          "name": "_uri",
          "type": "string"
        },
        {
          "internalType": "bytes",
          "name": "_signature",
          "type": "bytes"
        }
      ],
      "name": "give",
      "outputs": [
        {
          "internalType": "uint256",
          "name": "",
          "type": "uint256"
        }
      ],
      "stateMutability": "nonpayable",
      "type": "function"
    },
    {
      "inputs": [
        {
          "internalType": "string",
          "name": "_name",
          "type": "string"
        },
        {
          "internalType": "string",
          "name": "_symbol",
          "type": "string"
        },
        {
          "internalType": "string",
          "name": "_version",
          "type": "string"
        },
        {
          "internalType": "address",
          "name": "_nextOwner",
          "type": "address"
        },
        {
          "internalType": "address",
          "name": "_specDataHolderAddress",
          "type": "address"
        }
      ],
      "name": "initialize",
      "outputs": [],
      "stateMutability": "nonpayable",
      "type": "function"
    },
    {
      "inputs": [
        {
          "internalType": "uint256",
          "name": "_badgeId",
          "type": "uint256"
        }
      ],
      "name": "isBadgeValid",
      "outputs": [
        {
          "internalType": "bool",
          "name": "",
          "type": "bool"
        }
      ],
      "stateMutability": "view",
      "type": "function"
    },
    {
      "inputs": [
        {
          "internalType": "address",
          "name": "_from",
          "type": "address"
        },
        {
          "internalType": "string",
          "name": "_uri",
          "type": "string"
        },
        {
          "internalType": "bytes",
          "name": "_signature",
          "type": "bytes"
        },
        {
          "internalType": "bytes32",
          "name": "root",
          "type": "bytes32"
        },
        {
          "internalType": "bytes32[]",
          "name": "proof",
          "type": "bytes32[]"
        }
      ],
      "name": "merkleTake",
      "outputs": [
        {
          "internalType": "uint256",
          "name": "",
          "type": "uint256"
        }
      ],
      "stateMutability": "nonpayable",
      "type": "function"
    },
    {
      "inputs": [],
      "name": "name",
      "outputs": [
        {
          "internalType": "string",
          "name": "",
          "type": "string"
        }
      ],
      "stateMutability": "view",
      "type": "function"
    },
    {
      "inputs": [],
      "name": "owner",
      "outputs": [
        {
          "internalType": "address",
          "name": "",
          "type": "address"
        }
      ],
      "stateMutability": "view",
      "type": "function"
    },
    {
      "inputs": [
        {
          "internalType": "uint256",
          "name": "_tokenId",
          "type": "uint256"
        }
      ],
      "name": "ownerOf",
      "outputs": [
        {
          "internalType": "address",
          "name": "",
          "type": "address"
        }
      ],
      "stateMutability": "view",
      "type": "function"
    },
    {
      "inputs": [],
      "name": "proxiableUUID",
      "outputs": [
        {
          "internalType": "bytes32",
          "name": "",
          "type": "bytes32"
        }
      ],
      "stateMutability": "view",
      "type": "function"
    },
    {
      "inputs": [
        {
          "internalType": "string[]",
          "name": "_specUris",
          "type": "string[]"
        }
      ],
      "name": "refreshMetadata",
      "outputs": [],
      "stateMutability": "nonpayable",
      "type": "function"
    },
    {
      "inputs": [
        {
          "internalType": "uint256",
          "name": "_raftTokenId",
          "type": "uint256"
        },
        {
          "internalType": "uint256",
          "name": "_badgeId",
          "type": "uint256"
        }
      ],
      "name": "reinstateBadge",
      "outputs": [],
      "stateMutability": "nonpayable",
      "type": "function"
    },
    {
      "inputs": [],
      "name": "renounceOwnership",
      "outputs": [],
      "stateMutability": "nonpayable",
      "type": "function"
    },
    {
      "inputs": [
        {
          "internalType": "uint256",
          "name": "_raftTokenId",
          "type": "uint256"
        },
        {
          "internalType": "uint256",
          "name": "_badgeId",
          "type": "uint256"
        },
        {
          "internalType": "uint8",
          "name": "_reason",
          "type": "uint8"
        }
      ],
      "name": "revokeBadge",
      "outputs": [],
      "stateMutability": "nonpayable",
      "type": "function"
    },
    {
      "inputs": [
        {
          "internalType": "address",
          "name": "_from",
          "type": "address"
        },
        {
          "internalType": "address",
          "name": "_to",
          "type": "address"
        },
        {
          "internalType": "string",
          "name": "_uri",
          "type": "string"
        },
        {
          "internalType": "bytes",
          "name": "_signature",
          "type": "bytes"
        },
        {
          "internalType": "bytes32",
          "name": "_root",
          "type": "bytes32"
        },
        {
          "internalType": "bytes32[]",
          "name": "_proof",
          "type": "bytes32[]"
        }
      ],
      "name": "safeCheckMerkleAgreement",
      "outputs": [],
      "stateMutability": "view",
      "type": "function"
    },
    {
      "inputs": [
        {
          "internalType": "address",
          "name": "_dataHolder",
          "type": "address"
        }
      ],
      "name": "setDataHolder",
      "outputs": [],
      "stateMutability": "nonpayable",
      "type": "function"
    },
    {
      "inputs": [
        {
          "internalType": "bytes4",
          "name": "_interfaceId",
          "type": "bytes4"
        }
      ],
      "name": "supportsInterface",
      "outputs": [
        {
          "internalType": "bool",
          "name": "",
          "type": "bool"
        }
      ],
      "stateMutability": "view",
      "type": "function"
    },
    {
      "inputs": [],
      "name": "symbol",
      "outputs": [
        {
          "internalType": "string",
          "name": "",
          "type": "string"
        }
      ],
      "stateMutability": "view",
      "type": "function"
    },
    {
      "inputs": [
        {
          "internalType": "address",
          "name": "_from",
          "type": "address"
        },
        {
          "internalType": "string",
          "name": "_uri",
          "type": "string"
        },
        {
          "internalType": "bytes",
          "name": "_signature",
          "type": "bytes"
        }
      ],
      "name": "take",
      "outputs": [
        {
          "internalType": "uint256",
          "name": "",
          "type": "uint256"
        }
      ],
      "stateMutability": "nonpayable",
      "type": "function"
    },
    {
      "inputs": [
        {
          "internalType": "uint256",
          "name": "_tokenId",
          "type": "uint256"
        }
      ],
      "name": "tokenURI",
      "outputs": [
        {
          "internalType": "string",
          "name": "",
          "type": "string"
        }
      ],
      "stateMutability": "view",
      "type": "function"
    },
    {
      "inputs": [
        {
          "internalType": "address",
          "name": "newOwner",
          "type": "address"
        }
      ],
      "name": "transferOwnership",
      "outputs": [],
      "stateMutability": "nonpayable",
      "type": "function"
    },
    {
      "inputs": [
        {
          "internalType": "uint256",
          "name": "_tokenId",
          "type": "uint256"
        }
      ],
      "name": "unequip",
      "outputs": [],
      "stateMutability": "nonpayable",
      "type": "function"
    },
    {
      "inputs": [
        {
          "internalType": "address",
          "name": "newImplementation",
          "type": "address"
        }
      ],
      "name": "upgradeTo",
      "outputs": [],
      "stateMutability": "nonpayable",
      "type": "function"
    },
    {
      "inputs": [
        {
          "internalType": "address",
          "name": "newImplementation",
          "type": "address"
        },
        {
          "internalType": "bytes",
          "name": "data",
          "type": "bytes"
        }
      ],
      "name": "upgradeToAndCall",
      "outputs": [],
      "stateMutability": "payable",
      "type": "function"
    }
  ],
  "bytecode": {
    "object": "0x60a0604052306080523480156200001557600080fd5b506200002062000026565b620000e8565b600054610100900460ff1615620000935760405162461bcd60e51b815260206004820152602760248201527f496e697469616c697a61626c653a20636f6e747261637420697320696e697469604482015266616c697a696e6760c81b606482015260840160405180910390fd5b60005460ff9081161015620000e6576000805460ff191660ff9081179091556040519081527f7f26b83ff96e1f2b6a682f133852f6798a09c465da95921460cefb38474024989060200160405180910390a15b565b60805161366c620001206000396000818161082d0152818161086d01528181610d5c01528181610d9c0152610e2f015261366c6000f3fe6080604052600436106101b75760003560e01c806380956c7e116100ec578063c01841121161008a578063d6d0faee11610064578063d6d0faee146104ca578063e4992506146104ea578063ec64948e1461050a578063f2fde38b1461052a57600080fd5b8063c01841121461046a578063c87b56dd1461048a578063d179e3d0146104aa57600080fd5b8063a3947803116100c6578063a3947803146103ea578063a8cf86831461040a578063bd6645e41461042a578063bdbdbcbf1461044a57600080fd5b806380956c7e146103975780638da5cb5b146103b757806395d89b41146103d557600080fd5b80634f1ef28611610159578063635ad99311610133578063635ad9931461032357806370a0823114610342578063715018a6146103625780637c402f8d1461037757600080fd5b80634f1ef286146102c357806352d1902d146102d65780636352211e146102eb57600080fd5b806322e7d2ee1161019557806322e7d2ee146102335780633659cfe614610255578063445a62b9146102755780634a086b531461029557600080fd5b806301ffc9a7146101bc57806306fdde03146101f15780630f4d9b0114610213575b600080fd5b3480156101c857600080fd5b506101dc6101d73660046128e1565b61054a565b60405190151581526020015b60405180910390f35b3480156101fd57600080fd5b5061020661059c565b6040516101e8919061295b565b34801561021f57600080fd5b506101dc61022e36600461296e565b61062f565b34801561023f57600080fd5b5061025361024e366004612a21565b610696565b005b34801561026157600080fd5b50610253610270366004612aeb565b610823565b34801561028157600080fd5b50610253610290366004612bc5565b610902565b3480156102a157600080fd5b506102b56102b0366004612c09565b610b92565b6040519081526020016101e8565b6102536102d1366004612cbe565b610d52565b3480156102e257600080fd5b506102b5610e22565b3480156102f757600080fd5b5061030b61030636600461296e565b610ed5565b6040516001600160a01b0390911681526020016101e8565b34801561032f57600080fd5b50610135546001600160a01b031661030b565b34801561034e57600080fd5b506102b561035d366004612aeb565b610f2a565b34801561036e57600080fd5b50610253610fb5565b34801561038357600080fd5b50610253610392366004612d21565b610fc9565b3480156103a357600080fd5b506102536103b2366004612d60565b611166565b3480156103c357600080fd5b5060c9546001600160a01b031661030b565b3480156103e157600080fd5b506102066112f9565b3480156103f657600080fd5b506102b5610405366004612d82565b611309565b34801561041657600080fd5b506102b5610425366004612e04565b6114c3565b34801561043657600080fd5b506102b5610445366004612e58565b6114fa565b34801561045657600080fd5b50610253610465366004612eb3565b61158d565b34801561047657600080fd5b50610253610485366004612aeb565b611631565b34801561049657600080fd5b506102066104a536600461296e565b61165c565b3480156104b657600080fd5b506102536104c536600461296e565b611763565b3480156104d657600080fd5b506102536104e5366004612f75565b61180a565b3480156104f657600080fd5b506102b5610505366004613024565b61197b565b34801561051657600080fd5b506102b5610525366004612d82565b6119eb565b34801561053657600080fd5b50610253610545366004612aeb565b611b92565b60006001600160e01b03198216635b5e139f60e01b148061057b57506001600160e01b031982166346bdd63960e11b145b8061059657506301ffc9a760e01b6001600160e01b03198316145b92915050565b606061013080546105ac90613088565b80601f01602080910402602001604051908101604052809291908181526020018280546105d890613088565b80156106255780601f106105fa57610100808354040283529160200191610625565b820191906000526020600020905b81548152906001019060200180831161060857829003601f168201915b5050505050905090565b6000818152610132602052604081205482906001600160a01b031661066f5760405162461bcd60e51b8152600401610666906130bc565b60405180910390fd5b600883901c60009081526101376020526040902054600160ff85161b161591505b50919050565b6106e2896106a68b8a8a886114fa565b87878080601f016020809104026020016040519081016040528093929190818152602001838380828437600092019190915250611c0892505050565b6107425760405162461bcd60e51b815260206004820152602b60248201527f73616665436865636b4d65726b6c6541677265656d656e743a20696e76616c6960448201526a64207369676e617475726560a81b6064820152608401610666565b6040516bffffffffffffffffffffffff1960608a901b1660208201526000906034016040516020818303038152906040528051906020012090506107bc838380806020026020016040519081016040528093929190818152602001838360200280828437600092019190915250889250859150611d4a9050565b6108175760405162461bcd60e51b815260206004820152602660248201527f73616665436865636b4d65726b6c6541677265656d656e743a20696e76616c6960448201526532103632b0b360d11b6064820152608401610666565b50505050505050505050565b6001600160a01b037f000000000000000000000000000000000000000000000000000000000000000016300361086b5760405162461bcd60e51b8152600401610666906130f1565b7f00000000000000000000000000000000000000000000000000000000000000006001600160a01b03166108b46000805160206135f0833981519152546001600160a01b031690565b6001600160a01b0316146108da5760405162461bcd60e51b81526004016106669061313d565b6108e381611d60565b604080516000808252602082019092526108ff91839190611d68565b50565b6101355460405163b2a0cb6b60e01b815260048101839052829133916001600160a01b039091169063b2a0cb6b90602401602060405180830381865afa158015610950573d6000803e3d6000fd5b505050506040513d601f19601f820116820180604052508101906109749190613189565b6001600160a01b03161461099a5760405162461bcd60e51b8152600401610666906131a6565b61013554604051637e07102760e11b81526001600160a01b039091169063fc0e204e906109cb90869060040161295b565b602060405180830381865afa1580156109e8573d6000803e3d6000fd5b505050506040513d601f19601f82011682018060405250810190610a0c91906131dd565b15610a655760405162461bcd60e51b815260206004820152602360248201527f637265617465537065633a207370656320616c726561647920726567697374656044820152621c995960ea1b6064820152608401610666565b6101355460405163addd190760e01b81526001600160a01b039091169063addd190790610a9890869086906004016131ff565b600060405180830381600087803b158015610ab257600080fd5b505af1158015610ac6573d6000803e3d6000fd5b5050505061013560009054906101000a90046001600160a01b03166001600160a01b03166334f876626040518163ffffffff1660e01b8152600401602060405180830381865afa158015610b1e573d6000803e3d6000fd5b505050506040513d601f19601f82011682018060405250810190610b429190613189565b6001600160a01b031682336001600160a01b03167f68c7f8503283c455a4445b54a7d5c40656c8cae5cca0583c6d4be8369847870086604051610b85919061295b565b60405180910390a4505050565b60006001600160a01b0389163303610bec5760405162461bcd60e51b815260206004820152601b60248201527f74616b653a2063616e6e6f742074616b652066726f6d2073656c6600000000006044820152606401610666565b610bfd89338a8a8a8a8a8a8a610696565b61013554604051633664a8e960e01b81526000916001600160a01b031690633664a8e990610c31908c908c9060040161324a565b602060405180830381865afa158015610c4e573d6000803e3d6000fd5b505050506040513d601f19601f82011682018060405250810190610c729190613266565b6101355460405163b2a0cb6b60e01b8152600481018390529192506001600160a01b038c81169291169063b2a0cb6b90602401602060405180830381865afa158015610cc2573d6000803e3d6000fd5b505050506040513d601f19601f82011682018060405250810190610ce69190613189565b6001600160a01b031614610d385760405162461bcd60e51b81526020600482015260196024820152783a30b5b29d103ab730baba3437b934bd32b21034b9b9bab2b960391b6044820152606401610666565b610d44338a8a84611ed8565b9a9950505050505050505050565b6001600160a01b037f0000000000000000000000000000000000000000000000000000000000000000163003610d9a5760405162461bcd60e51b8152600401610666906130f1565b7f00000000000000000000000000000000000000000000000000000000000000006001600160a01b0316610de36000805160206135f0833981519152546001600160a01b031690565b6001600160a01b031614610e095760405162461bcd60e51b81526004016106669061313d565b610e1282611d60565b610e1e82826001611d68565b5050565b6000306001600160a01b037f00000000000000000000000000000000000000000000000000000000000000001614610ec25760405162461bcd60e51b815260206004820152603860248201527f555550535570677261646561626c653a206d757374206e6f742062652063616c60448201527f6c6564207468726f7567682064656c656761746563616c6c00000000000000006064820152608401610666565b506000805160206135f083398151915290565b6000818152610132602052604081205482906001600160a01b0316610f0c5760405162461bcd60e51b8152600401610666906130bc565b5050600090815261013260205260409020546001600160a01b031690565b60006001600160a01b038216610f985760405162461bcd60e51b815260206004820152602d60248201527f62616c616e63654f663a2061646472657373207a65726f206973206e6f74206160448201526c2076616c6964206f776e65725f60981b6064820152608401610666565b506001600160a01b03166000908152610134602052604090205490565b610fbd6120a8565b610fc76000612102565b565b6000828152610132602052604090205482906001600160a01b03166110005760405162461bcd60e51b8152600401610666906130bc565b6101355460405163b2a0cb6b60e01b815260048101869052859133916001600160a01b039091169063b2a0cb6b90602401602060405180830381865afa15801561104e573d6000803e3d6000fd5b505050506040513d601f19601f820116820180604052508101906110729190613189565b6001600160a01b0316146110985760405162461bcd60e51b8152600401610666906131a6565b600884901c60009081526101376020526040902054600160ff86161b161561110d5760405162461bcd60e51b815260206004820152602260248201527f7265766f6b6542616467653a20626164676520616c7265616479207265766f6b604482015261195960f21b6064820152608401610666565b600884901c6000908152610137602052604090208054600160ff87161b17905560405160ff841690339086907ffa784c48260e8db512de5f055a2f29eced211a7b3bd6338058b095ada7354cee90600090a45050505050565b6000818152610132602052604090205481906001600160a01b031661119d5760405162461bcd60e51b8152600401610666906130bc565b6101355460405163b2a0cb6b60e01b815260048101859052849133916001600160a01b039091169063b2a0cb6b90602401602060405180830381865afa1580156111eb573d6000803e3d6000fd5b505050506040513d601f19601f8201168201806040525081019061120f9190613189565b6001600160a01b0316146112355760405162461bcd60e51b8152600401610666906131a6565b600883901c60009081526101376020526040902054600160ff85161b166112a85760405162461bcd60e51b815260206004820152602160248201527f7265696e737461746542616467653a206261646765206e6f74207265766f6b656044820152601960fa1b6064820152608401610666565b600883901c600090815261013760205260408082208054600160ff88161b1916905551339185917f7f8cf9ecf2a5225948f8a1601709cedc8471c52ee75a8174c9845c29c99ed9a29190a350505050565b606061013180546105ac90613088565b60006001600160a01b03861633036113635760405162461bcd60e51b815260206004820152601b60248201527f74616b653a2063616e6e6f742074616b652066726f6d2073656c6600000000006044820152606401610666565b611371338787878787612154565b61013554604051633664a8e960e01b81526000916001600160a01b031690633664a8e9906113a5908990899060040161324a565b602060405180830381865afa1580156113c2573d6000803e3d6000fd5b505050506040513d601f19601f820116820180604052508101906113e69190613266565b6101355460405163b2a0cb6b60e01b8152600481018390529192506001600160a01b038981169291169063b2a0cb6b90602401602060405180830381865afa158015611436573d6000803e3d6000fd5b505050506040513d601f19601f8201168201806040525081019061145a9190613189565b6001600160a01b0316146114ac5760405162461bcd60e51b81526020600482015260196024820152783a30b5b29d103ab730baba3437b934bd32b21034b9b9bab2b960391b6044820152606401610666565b6114b833878784611ed8565b979650505050505050565b60008383836040516020016114da9392919061327f565b6040516020818303038152906040528051906020012090505b9392505050565b60006115847f6d0d990916a9f9c9e0896e59ce7f5ddddff333d0c8772438ce004fa7719b164b8686866040516115319291906132a4565b60405190819003812061156993929187906020019384526001600160a01b039290921660208401526040830152606082015260800190565b604051602081830303815290604052805190602001206121fa565b95945050505050565b6115956120a8565b60008151116115f55760405162461bcd60e51b815260206004820152602660248201527f726566726573684d657461646174613a206e6f207370656320757269732070726044820152651bdd9a59195960d21b6064820152608401610666565b7f2231d988b1a75dccab13dee3564b71a551900e822e94177a96f19561890c0fd581336040516116269291906132b4565b60405180910390a150565b6116396120a8565b61013580546001600160a01b0319166001600160a01b0392909216919091179055565b600081815261013260205260409020546060906001600160a01b03166116c45760405162461bcd60e51b815260206004820152601d60248201527f746f6b656e5552493a20746f6b656e20646f65736e27742065786973740000006044820152606401610666565b60008281526101336020526040902080546116de90613088565b80601f016020809104026020016040519081016040528092919081815260200182805461170a90613088565b80156117575780601f1061172c57610100808354040283529160200191611757565b820191906000526020600020905b81548152906001019060200180831161173a57829003601f168201915b50505050509050919050565b6000818152610132602052604090205481906001600160a01b031661179a5760405162461bcd60e51b8152600401610666906130bc565b600082815261013260205260409020546001600160a01b031633146118015760405162461bcd60e51b815260206004820152601d60248201527f756e65717569703a2073656e646572206d757374206265206f776e65720000006044820152606401610666565b610e1e82612248565b600054610100900460ff161580801561182a5750600054600160ff909116105b806118445750303b158015611844575060005460ff166001145b6118a75760405162461bcd60e51b815260206004820152602e60248201527f496e697469616c697a61626c653a20636f6e747261637420697320616c72656160448201526d191e481a5b9a5d1a585b1a5e995960921b6064820152608401610666565b6000805460ff1916600117905580156118ca576000805461ff0019166101001790555b6101306118d7878261336f565b506101316118e5868261336f565b5061013580546001600160a01b0319166001600160a01b03841617905561190a6122f3565b61191261231a565b61191c8685612349565b6119246122f3565b61192d83611b92565b8015611973576000805461ff0019169055604051600181527f7f26b83ff96e1f2b6a682f133852f6798a09c465da95921460cefb38474024989060200160405180910390a15b505050505050565b60006115847fe76a195fbe43f0eaa611595069f780493db2202a1cc4b2d7d44b47069812998a868686866040516119b39291906132a4565b604051908190038120611569949392916020019384526001600160a01b03928316602085015291166040830152606082015260800190565b60006001600160a01b0386163303611a455760405162461bcd60e51b815260206004820152601960248201527f676976653a2063616e6e6f74206769766520746f2073656c66000000000000006044820152606401610666565b611a53338787878787612154565b61013554604051633664a8e960e01b81526000916001600160a01b031690633664a8e990611a87908990899060040161324a565b602060405180830381865afa158015611aa4573d6000803e3d6000fd5b505050506040513d601f19601f82011682018060405250810190611ac89190613266565b6101355460405163b2a0cb6b60e01b81526004810183905291925033916001600160a01b039091169063b2a0cb6b90602401602060405180830381865afa158015611b17573d6000803e3d6000fd5b505050506040513d601f19601f82011682018060405250810190611b3b9190613189565b6001600160a01b031614611b865760405162461bcd60e51b815260206004820152601260248201527119da5d994e881d5b985d5d1a1bdc9a5e995960721b6044820152606401610666565b6114b887878784611ed8565b611b9a6120a8565b6001600160a01b038116611bff5760405162461bcd60e51b815260206004820152602660248201527f4f776e61626c653a206e6577206f776e657220697320746865207a65726f206160448201526564647265737360d01b6064820152608401610666565b6108ff81612102565b6000806000611c17858561237a565b90925090506000816004811115611c3057611c3061342e565b148015611c4e5750856001600160a01b0316826001600160a01b0316145b15611c5e576001925050506114f3565b600080876001600160a01b0316631626ba7e60e01b8888604051602401611c86929190613444565b60408051601f198184030181529181526020820180516001600160e01b03166001600160e01b0319909416939093179092529051611cc4919061345d565b600060405180830381855afa9150503d8060008114611cff576040519150601f19603f3d011682016040523d82523d6000602084013e611d04565b606091505b5091509150818015611d17575080516020145b8015611d3e57508051630b135d3f60e11b90611d3c9083016020908101908401613266565b145b98975050505050505050565b600082611d5785846123e8565b14949350505050565b6108ff6120a8565b7f4910fdfa16fed3260ed0e7147f7cc6da11a60208b5b9406d12a635614ffd91435460ff1615611da057611d9b83612435565b505050565b826001600160a01b03166352d1902d6040518163ffffffff1660e01b8152600401602060405180830381865afa925050508015611dfa575060408051601f3d908101601f19168201909252611df791810190613266565b60015b611e5d5760405162461bcd60e51b815260206004820152602e60248201527f45524331393637557067726164653a206e657720696d706c656d656e7461746960448201526d6f6e206973206e6f74205555505360901b6064820152608401610666565b6000805160206135f08339815191528114611ecc5760405162461bcd60e51b815260206004820152602960248201527f45524331393637557067726164653a20756e737570706f727465642070726f786044820152681a58589b195555525160ba1b6064820152608401610666565b50611d9b8383836124d1565b600081600003611f2a5760405162461bcd60e51b815260206004820152601c60248201527f6d696e743a2073706563206973206e6f742072656769737465726564000000006044820152606401610666565b6000611f378686866114c3565b600081815261013260205260409020549091506001600160a01b031615611f975760405162461bcd60e51b81526020600482015260146024820152736d696e743a20746f6b656e49442065786973747360601b6044820152606401610666565b6001600160a01b038616600090815261013460205260408120805491611fbc8361348f565b909155505060008181526101326020908152604080832080546001600160a01b0319166001600160a01b038b161790556101339091529020611fff8587836134a8565b5060405181906001600160a01b038816906000907fddf252ad1be2c89b69c2b068fc378daa952ba7f163c4a11628f55a4df523b3ef908290a46101355460405163fb74926160e01b815260048101839052602481018590526001600160a01b039091169063fb74926190604401600060405180830381600087803b15801561208657600080fd5b505af115801561209a573d6000803e3d6000fd5b509298975050505050505050565b60c9546001600160a01b03163314610fc75760405162461bcd60e51b815260206004820181905260248201527f4f776e61626c653a2063616c6c6572206973206e6f7420746865206f776e65726044820152606401610666565b60c980546001600160a01b038381166001600160a01b0319831681179093556040519116919082907f8be0079c531659141344cd1fd0a4f28419497f9722a3daafe3b4186f6b6457e090600090a35050565b6121a0856121648888888861197b565b84848080601f016020809104026020016040519081016040528093929190818152602001838380828437600092019190915250611c0892505050565b6119735760405162461bcd60e51b815260206004820152602560248201527f73616665436865636b41677265656d656e743a20696e76616c6964207369676e604482015264617475726560d81b6064820152608401610666565b60006105966122076124fc565b8360405161190160f01b6020820152602281018390526042810182905260009060620160405160208183030381529060405280519060200120905092915050565b600081815261013260209081526040808320546001600160a01b0316808452610134909252822080549192600192612281908490613568565b909155505060008281526101326020908152604080832080546001600160a01b031916905561013390915281206122b791612893565b60405182906000906001600160a01b038416907fddf252ad1be2c89b69c2b068fc378daa952ba7f163c4a11628f55a4df523b3ef908390a45050565b600054610100900460ff16610fc75760405162461bcd60e51b81526004016106669061357b565b600054610100900460ff166123415760405162461bcd60e51b81526004016106669061357b565b610fc7612538565b600054610100900460ff166123705760405162461bcd60e51b81526004016106669061357b565b610e1e8282612568565b60008082516041036123b05760208301516040840151606085015160001a6123a4878285856125a9565b945094505050506123e1565b82516040036123d957602083015160408401516123ce868383612696565b9350935050506123e1565b506000905060025b9250929050565b600081815b845181101561242d576124198286838151811061240c5761240c6135c6565b60200260200101516126cf565b9150806124258161348f565b9150506123ed565b509392505050565b6001600160a01b0381163b6124a25760405162461bcd60e51b815260206004820152602d60248201527f455243313936373a206e657720696d706c656d656e746174696f6e206973206e60448201526c1bdd08184818dbdb9d1c9858dd609a1b6064820152608401610666565b6000805160206135f083398151915280546001600160a01b0319166001600160a01b0392909216919091179055565b6124da836126fb565b6000825111806124e75750805b15611d9b576124f6838361273b565b50505050565b60006125337f8b73c3c69bb8fe3d512ecc4cf759cc79239f7b179b0ffacaa9a75d522b39400f61252b60fb5490565b60fc54612826565b905090565b600054610100900460ff1661255f5760405162461bcd60e51b81526004016106669061357b565b610fc733612102565b600054610100900460ff1661258f5760405162461bcd60e51b81526004016106669061357b565b81516020928301208151919092012060fb9190915560fc55565b6000807f7fffffffffffffffffffffffffffffff5d576e7357a4501ddfe92f46681b20a08311156125e0575060009050600361268d565b8460ff16601b141580156125f857508460ff16601c14155b15612609575060009050600461268d565b6040805160008082526020820180845289905260ff881692820192909252606081018690526080810185905260019060a0016020604051602081039080840390855afa15801561265d573d6000803e3d6000fd5b5050604051601f1901519150506001600160a01b0381166126865760006001925092505061268d565b9150600090505b94509492505050565b6000806001600160ff1b038316816126b360ff86901c601b6135dc565b90506126c1878288856125a9565b935093505050935093915050565b60008183106126eb5760008281526020849052604090206114f3565b5060009182526020526040902090565b61270481612435565b6040516001600160a01b038216907fbc7cd75a20ee27fd9adebab32041f755214dbc6bffa90cc0225b39da2e5c2d3b90600090a250565b60606001600160a01b0383163b6127a35760405162461bcd60e51b815260206004820152602660248201527f416464726573733a2064656c65676174652063616c6c20746f206e6f6e2d636f6044820152651b9d1c9858dd60d21b6064820152608401610666565b600080846001600160a01b0316846040516127be919061345d565b600060405180830381855af49150503d80600081146127f9576040519150601f19603f3d011682016040523d82523d6000602084013e6127fe565b606091505b5091509150611584828260405180606001604052806027815260200161361060279139612855565b6040805160208101859052908101839052606081018290524660808201523060a082015260009060c0016114da565b606083156128645750816114f3565b6114f383838151156128795781518083602001fd5b8060405162461bcd60e51b8152600401610666919061295b565b50805461289f90613088565b6000825580601f106128af575050565b601f0160209004906000526020600020908101906108ff91905b808211156128dd57600081556001016128c9565b5090565b6000602082840312156128f357600080fd5b81356001600160e01b0319811681146114f357600080fd5b60005b8381101561292657818101518382015260200161290e565b50506000910152565b6000815180845261294781602086016020860161290b565b601f01601f19169290920160200192915050565b6020815260006114f3602083018461292f565b60006020828403121561298057600080fd5b5035919050565b6001600160a01b03811681146108ff57600080fd5b60008083601f8401126129ae57600080fd5b5081356001600160401b038111156129c557600080fd5b6020830191508360208285010111156123e157600080fd5b60008083601f8401126129ef57600080fd5b5081356001600160401b03811115612a0657600080fd5b6020830191508360208260051b85010111156123e157600080fd5b600080600080600080600080600060c08a8c031215612a3f57600080fd5b8935612a4a81612987565b985060208a0135612a5a81612987565b975060408a01356001600160401b0380821115612a7657600080fd5b612a828d838e0161299c565b909950975060608c0135915080821115612a9b57600080fd5b612aa78d838e0161299c565b909750955060808c0135945060a08c0135915080821115612ac757600080fd5b50612ad48c828d016129dd565b915080935050809150509295985092959850929598565b600060208284031215612afd57600080fd5b81356114f381612987565b634e487b7160e01b600052604160045260246000fd5b604051601f8201601f191681016001600160401b0381118282101715612b4657612b46612b08565b604052919050565b60006001600160401b03831115612b6757612b67612b08565b612b7a601f8401601f1916602001612b1e565b9050828152838383011115612b8e57600080fd5b828260208301376000602084830101529392505050565b600082601f830112612bb657600080fd5b6114f383833560208501612b4e565b60008060408385031215612bd857600080fd5b82356001600160401b03811115612bee57600080fd5b612bfa85828601612ba5565b95602094909401359450505050565b60008060008060008060008060a0898b031215612c2557600080fd5b8835612c3081612987565b975060208901356001600160401b0380821115612c4c57600080fd5b612c588c838d0161299c565b909950975060408b0135915080821115612c7157600080fd5b612c7d8c838d0161299c565b909750955060608b0135945060808b0135915080821115612c9d57600080fd5b50612caa8b828c016129dd565b999c989b5096995094979396929594505050565b60008060408385031215612cd157600080fd5b8235612cdc81612987565b915060208301356001600160401b03811115612cf757600080fd5b8301601f81018513612d0857600080fd5b612d1785823560208401612b4e565b9150509250929050565b600080600060608486031215612d3657600080fd5b8335925060208401359150604084013560ff81168114612d5557600080fd5b809150509250925092565b60008060408385031215612d7357600080fd5b50508035926020909101359150565b600080600080600060608688031215612d9a57600080fd5b8535612da581612987565b945060208601356001600160401b0380821115612dc157600080fd5b612dcd89838a0161299c565b90965094506040880135915080821115612de657600080fd5b50612df38882890161299c565b969995985093965092949392505050565b600080600060408486031215612e1957600080fd5b8335612e2481612987565b925060208401356001600160401b03811115612e3f57600080fd5b612e4b8682870161299c565b9497909650939450505050565b60008060008060608587031215612e6e57600080fd5b8435612e7981612987565b935060208501356001600160401b03811115612e9457600080fd5b612ea08782880161299c565b9598909750949560400135949350505050565b60006020808385031215612ec657600080fd5b82356001600160401b0380821115612edd57600080fd5b818501915085601f830112612ef157600080fd5b813581811115612f0357612f03612b08565b8060051b612f12858201612b1e565b9182528381018501918581019089841115612f2c57600080fd5b86860192505b83831015612f6857823585811115612f4a5760008081fd5b612f588b89838a0101612ba5565b8352509186019190860190612f32565b9998505050505050505050565b600080600080600060a08688031215612f8d57600080fd5b85356001600160401b0380821115612fa457600080fd5b612fb089838a01612ba5565b96506020880135915080821115612fc657600080fd5b612fd289838a01612ba5565b95506040880135915080821115612fe857600080fd5b50612ff588828901612ba5565b935050606086013561300681612987565b9150608086013561301681612987565b809150509295509295909350565b6000806000806060858703121561303a57600080fd5b843561304581612987565b9350602085013561305581612987565b925060408501356001600160401b0381111561307057600080fd5b61307c8782880161299c565b95989497509550505050565b600181811c9082168061309c57607f821691505b60208210810361069057634e487b7160e01b600052602260045260246000fd5b6020808252818101527f746f6b656e4578697374733a20746f6b656e20646f65736e2774206578697374604082015260600190565b6020808252602c908201527f46756e6374696f6e206d7573742062652063616c6c6564207468726f7567682060408201526b19195b1959d85d1958d85b1b60a21b606082015260800190565b6020808252602c908201527f46756e6374696f6e206d7573742062652063616c6c6564207468726f7567682060408201526b6163746976652070726f787960a01b606082015260800190565b60006020828403121561319b57600080fd5b81516114f381612987565b6020808252601f908201527f73656e6465724973526166744f776e65723a20756e617574686f72697a656400604082015260600190565b6000602082840312156131ef57600080fd5b815180151581146114f357600080fd5b604081526000613212604083018561292f565b90508260208301529392505050565b81835281816020850137506000828201602090810191909152601f909101601f19169091010190565b60208152600061325e602083018486613221565b949350505050565b60006020828403121561327857600080fd5b5051919050565b6001600160a01b03841681526040602082018190526000906115849083018486613221565b8183823760009101908152919050565b6000604082016040835280855180835260608501915060608160051b8601019250602080880160005b8381101561330b57605f198887030185526132f986835161292f565b955093820193908201906001016132dd565b50506001600160a01b03969096169490950193909352949350505050565b601f821115611d9b57600081815260208120601f850160051c810160208610156133505750805b601f850160051c820191505b818110156119735782815560010161335c565b81516001600160401b0381111561338857613388612b08565b61339c816133968454613088565b84613329565b602080601f8311600181146133d157600084156133b95750858301515b600019600386901b1c1916600185901b178555611973565b600085815260208120601f198616915b82811015613400578886015182559484019460019091019084016133e1565b508582101561341e5787850151600019600388901b60f8161c191681555b5050505050600190811b01905550565b634e487b7160e01b600052602160045260246000fd5b82815260406020820152600061325e604083018461292f565b6000825161346f81846020870161290b565b9190910192915050565b634e487b7160e01b600052601160045260246000fd5b6000600182016134a1576134a1613479565b5060010190565b6001600160401b038311156134bf576134bf612b08565b6134d3836134cd8354613088565b83613329565b6000601f84116001811461350757600085156134ef5750838201355b600019600387901b1c1916600186901b178355613561565b600083815260209020601f19861690835b828110156135385786850135825560209485019460019092019101613518565b50868210156135555760001960f88860031b161c19848701351681555b505060018560011b0183555b5050505050565b8181038181111561059657610596613479565b6020808252602b908201527f496e697469616c697a61626c653a20636f6e7472616374206973206e6f74206960408201526a6e697469616c697a696e6760a81b606082015260800190565b634e487b7160e01b600052603260045260246000fd5b808201808211156105965761059661347956fe360894a13ba1a3210667c828492db98dca3e2076cc3735a920a3ca505d382bbc416464726573733a206c6f772d6c6576656c2064656c65676174652063616c6c206661696c6564a26469706673582212200f3d345d6ee1089d0e2ab4498930a454fdf70f2449c89716a2ba7f7f4616f45d64736f6c63430008100033",
    "linkReferences": {}
  },
  "methodIdentifiers": {
    "balanceOf(address)": "70a08231",
    "createSpec(string,uint256)": "445a62b9",
    "getAgreementHash(address,address,string)": "e4992506",
    "getBadgeIdHash(address,string)": "a8cf8683",
    "getDataHolderAddress()": "635ad993",
    "getMerkleAgreementHash(address,string,bytes32)": "bd6645e4",
    "give(address,string,bytes)": "ec64948e",
    "initialize(string,string,string,address,address)": "d6d0faee",
    "isBadgeValid(uint256)": "0f4d9b01",
    "merkleTake(address,string,bytes,bytes32,bytes32[])": "4a086b53",
    "name()": "06fdde03",
    "owner()": "8da5cb5b",
    "ownerOf(uint256)": "6352211e",
    "proxiableUUID()": "52d1902d",
    "refreshMetadata(string[])": "bdbdbcbf",
    "reinstateBadge(uint256,uint256)": "80956c7e",
    "renounceOwnership()": "715018a6",
    "revokeBadge(uint256,uint256,uint8)": "7c402f8d",
    "safeCheckMerkleAgreement(address,address,string,bytes,bytes32,bytes32[])": "22e7d2ee",
    "setDataHolder(address)": "c0184112",
    "supportsInterface(bytes4)": "01ffc9a7",
    "symbol()": "95d89b41",
    "take(address,string,bytes)": "a3947803",
    "tokenURI(uint256)": "c87b56dd",
    "transferOwnership(address)": "f2fde38b",
    "unequip(uint256)": "d179e3d0",
    "upgradeTo(address)": "3659cfe6",
    "upgradeToAndCall(address,bytes)": "4f1ef286"
  },
  "id": 46
}