{
  "abi": [
    {
      "inputs": [],
      "stateMutability": "nonpayable",
      "type": "constructor"
    },
    {
      "anonymous": false,
      "inputs": [
        {
          "indexed": false,
          "internalType": "address",
          "name": "previousAdmin",
          "type": "address"
        },
        {
          "indexed": false,
          "internalType": "address",
          "name": "newAdmin",
          "type": "address"
        }
      ],
      "name": "AdminChanged",
      "type": "event"
    },
    {
      "anonymous": false,
      "inputs": [
        {
          "indexed": true,
          "internalType": "uint256",
          "name": "tokenId",
          "type": "uint256"
        },
        {
          "indexed": true,
          "internalType": "address",
          "name": "from",
          "type": "address"
        }
      ],
      "name": "BadgeReinstated",
      "type": "event"
    },
    {
      "anonymous": false,
      "inputs": [
        {
          "indexed": true,
          "internalType": "uint256",
          "name": "tokenId",
          "type": "uint256"
        },
        {
          "indexed": true,
          "internalType": "address",
          "name": "from",
          "type": "address"
        },
        {
          "indexed": true,
          "internalType": "uint8",
          "name": "reason",
          "type": "uint8"
        }
      ],
      "name": "BadgeRevoked",
      "type": "event"
    },
    {
      "anonymous": false,
      "inputs": [
        {
          "indexed": true,
          "internalType": "address",
          "name": "beacon",
          "type": "address"
        }
      ],
      "name": "BeaconUpgraded",
      "type": "event"
    },
    {
      "anonymous": false,
      "inputs": [
        {
          "indexed": false,
          "internalType": "uint8",
          "name": "version",
          "type": "uint8"
        }
      ],
      "name": "Initialized",
      "type": "event"
    },
    {
      "anonymous": false,
      "inputs": [
        {
          "indexed": true,
          "internalType": "address",
          "name": "previousOwner",
          "type": "address"
        },
        {
          "indexed": true,
          "internalType": "address",
          "name": "newOwner",
          "type": "address"
        }
      ],
      "name": "OwnershipTransferred",
      "type": "event"
    },
    {
      "anonymous": false,
      "inputs": [
        {
          "indexed": false,
          "internalType": "string[]",
          "name": "specUris",
          "type": "string[]"
        },
        {
          "indexed": false,
          "internalType": "address",
          "name": "sender",
          "type": "address"
        }
      ],
      "name": "RefreshMetadata",
      "type": "event"
    },
    {
      "anonymous": false,
      "inputs": [
        {
          "indexed": true,
          "internalType": "address",
          "name": "to",
          "type": "address"
        },
        {
          "indexed": false,
          "internalType": "string",
          "name": "specUri",
          "type": "string"
        },
        {
          "indexed": true,
          "internalType": "uint256",
          "name": "raftTokenId",
          "type": "uint256"
        },
        {
          "indexed": true,
          "internalType": "address",
          "name": "raftAddress",
          "type": "address"
        }
      ],
      "name": "SpecCreated",
      "type": "event"
    },
    {
      "anonymous": false,
      "inputs": [
        {
          "indexed": true,
          "internalType": "address",
          "name": "from",
          "type": "address"
        },
        {
          "indexed": true,
          "internalType": "address",
          "name": "to",
          "type": "address"
        },
        {
          "indexed": true,
          "internalType": "uint256",
          "name": "tokenId",
          "type": "uint256"
        }
      ],
      "name": "Transfer",
      "type": "event"
    },
    {
      "anonymous": false,
      "inputs": [
        {
          "indexed": true,
          "internalType": "address",
          "name": "implementation",
          "type": "address"
        }
      ],
      "name": "Upgraded",
      "type": "event"
    },
    {
      "inputs": [
        {
          "internalType": "address",
          "name": "_owner",
          "type": "address"
        }
      ],
      "name": "balanceOf",
      "outputs": [
        {
          "internalType": "uint256",
          "name": "",
          "type": "uint256"
        }
      ],
      "stateMutability": "view",
      "type": "function"
    },
    {
      "inputs": [
        {
          "internalType": "string",
          "name": "_specUri",
          "type": "string"
        },
        {
          "internalType": "uint256",
          "name": "_raftTokenId",
          "type": "uint256"
        }
      ],
      "name": "createSpec",
      "outputs": [],
      "stateMutability": "nonpayable",
      "type": "function"
    },
    {
      "inputs": [
        {
          "internalType": "address",
          "name": "_from",
          "type": "address"
        },
        {
          "internalType": "address",
          "name": "_to",
          "type": "address"
        },
        {
          "internalType": "string",
          "name": "_uri",
          "type": "string"
        }
      ],
      "name": "getAgreementHash",
      "outputs": [
        {
          "internalType": "bytes32",
          "name": "",
          "type": "bytes32"
        }
      ],
      "stateMutability": "view",
      "type": "function"
    },
    {
      "inputs": [
        {
          "internalType": "address",
          "name": "_to",
          "type": "address"
        },
        {
          "internalType": "string",
          "name": "_uri",
          "type": "string"
        }
      ],
      "name": "getBadgeIdHash",
      "outputs": [
        {
          "internalType": "bytes32",
          "name": "",
          "type": "bytes32"
        }
      ],
      "stateMutability": "view",
      "type": "function"
    },
    {
      "inputs": [],
      "name": "getDataHolderAddress",
      "outputs": [
        {
          "internalType": "address",
          "name": "",
          "type": "address"
        }
      ],
      "stateMutability": "view",
      "type": "function"
    },
    {
      "inputs": [],
      "name": "getGeorge",
      "outputs": [
        {
          "internalType": "string",
          "name": "",
          "type": "string"
        }
      ],
      "stateMutability": "pure",
      "type": "function"
    },
    {
      "inputs": [
        {
          "internalType": "address",
          "name": "_issuer",
          "type": "address"
        },
        {
          "internalType": "string",
          "name": "_uri",
          "type": "string"
        },
        {
          "internalType": "bytes32",
          "name": "_root",
          "type": "bytes32"
        }
      ],
      "name": "getMerkleAgreementHash",
      "outputs": [
        {
          "internalType": "bytes32",
          "name": "",
          "type": "bytes32"
        }
      ],
      "stateMutability": "view",
      "type": "function"
    },
    {
      "inputs": [
        {
          "internalType": "address",
          "name": "_to",
          "type": "address"
        },
        {
          "internalType": "string",
          "name": "_uri",
          "type": "string"
        },
        {
          "internalType": "bytes",
          "name": "_signature",
          "type": "bytes"
        }
      ],
      "name": "give",
      "outputs": [
        {
          "internalType": "uint256",
          "name": "",
          "type": "uint256"
        }
      ],
      "stateMutability": "nonpayable",
      "type": "function"
    },
    {
      "inputs": [
        {
          "internalType": "address[]",
          "name": "_recipients",
          "type": "address[]"
        },
        {
          "internalType": "string",
          "name": "_uri",
          "type": "string"
        },
        {
          "internalType": "bytes[]",
          "name": "_signatures",
          "type": "bytes[]"
        }
      ],
      "name": "giveToMany",
      "outputs": [],
      "stateMutability": "nonpayable",
      "type": "function"
    },
    {
      "inputs": [
        {
          "internalType": "string",
          "name": "_name",
          "type": "string"
        },
        {
          "internalType": "string",
          "name": "_symbol",
          "type": "string"
        },
        {
          "internalType": "string",
          "name": "_version",
          "type": "string"
        },
        {
          "internalType": "address",
          "name": "_nextOwner",
          "type": "address"
        },
        {
          "internalType": "address",
          "name": "_specDataHolderAddress",
          "type": "address"
        }
      ],
      "name": "initialize",
      "outputs": [],
      "stateMutability": "nonpayable",
      "type": "function"
    },
    {
      "inputs": [
        {
          "internalType": "uint256",
          "name": "_badgeId",
          "type": "uint256"
        }
      ],
      "name": "isBadgeValid",
      "outputs": [
        {
          "internalType": "bool",
          "name": "",
          "type": "bool"
        }
      ],
      "stateMutability": "view",
      "type": "function"
    },
    {
      "inputs": [
        {
          "internalType": "address",
          "name": "_from",
          "type": "address"
        },
        {
          "internalType": "string",
          "name": "_uri",
          "type": "string"
        },
        {
          "internalType": "bytes",
          "name": "_signature",
          "type": "bytes"
        },
        {
          "internalType": "bytes32",
          "name": "root",
          "type": "bytes32"
        },
        {
          "internalType": "bytes32[]",
          "name": "proof",
          "type": "bytes32[]"
        }
      ],
      "name": "merkleTake",
      "outputs": [
        {
          "internalType": "uint256",
          "name": "",
          "type": "uint256"
        }
      ],
      "stateMutability": "nonpayable",
      "type": "function"
    },
    {
      "inputs": [],
      "name": "name",
      "outputs": [
        {
          "internalType": "string",
          "name": "",
          "type": "string"
        }
      ],
      "stateMutability": "view",
      "type": "function"
    },
    {
      "inputs": [],
      "name": "owner",
      "outputs": [
        {
          "internalType": "address",
          "name": "",
          "type": "address"
        }
      ],
      "stateMutability": "view",
      "type": "function"
    },
    {
      "inputs": [
        {
          "internalType": "uint256",
          "name": "_tokenId",
          "type": "uint256"
        }
      ],
      "name": "ownerOf",
      "outputs": [
        {
          "internalType": "address",
          "name": "",
          "type": "address"
        }
      ],
      "stateMutability": "view",
      "type": "function"
    },
    {
      "inputs": [],
      "name": "proxiableUUID",
      "outputs": [
        {
          "internalType": "bytes32",
          "name": "",
          "type": "bytes32"
        }
      ],
      "stateMutability": "view",
      "type": "function"
    },
    {
      "inputs": [
        {
          "internalType": "string[]",
          "name": "_specUris",
          "type": "string[]"
        }
      ],
      "name": "refreshMetadata",
      "outputs": [],
      "stateMutability": "nonpayable",
      "type": "function"
    },
    {
      "inputs": [
        {
          "internalType": "uint256",
          "name": "_raftTokenId",
          "type": "uint256"
        },
        {
          "internalType": "uint256",
          "name": "_badgeId",
          "type": "uint256"
        }
      ],
      "name": "reinstateBadge",
      "outputs": [],
      "stateMutability": "nonpayable",
      "type": "function"
    },
    {
      "inputs": [],
      "name": "renounceOwnership",
      "outputs": [],
      "stateMutability": "nonpayable",
      "type": "function"
    },
    {
      "inputs": [
        {
          "internalType": "uint256",
          "name": "_raftTokenId",
          "type": "uint256"
        },
        {
          "internalType": "uint256",
          "name": "_badgeId",
          "type": "uint256"
        },
        {
          "internalType": "uint8",
          "name": "_reason",
          "type": "uint8"
        }
      ],
      "name": "revokeBadge",
      "outputs": [],
      "stateMutability": "nonpayable",
      "type": "function"
    },
    {
      "inputs": [
        {
          "internalType": "address",
          "name": "_dataHolder",
          "type": "address"
        }
      ],
      "name": "setDataHolder",
      "outputs": [],
      "stateMutability": "nonpayable",
      "type": "function"
    },
    {
      "inputs": [
        {
          "internalType": "bytes4",
          "name": "_interfaceId",
          "type": "bytes4"
        }
      ],
      "name": "supportsInterface",
      "outputs": [
        {
          "internalType": "bool",
          "name": "",
          "type": "bool"
        }
      ],
      "stateMutability": "view",
      "type": "function"
    },
    {
      "inputs": [],
      "name": "symbol",
      "outputs": [
        {
          "internalType": "string",
          "name": "",
          "type": "string"
        }
      ],
      "stateMutability": "view",
      "type": "function"
    },
    {
      "inputs": [
        {
          "internalType": "address",
          "name": "_from",
          "type": "address"
        },
        {
          "internalType": "string",
          "name": "_uri",
          "type": "string"
        },
        {
          "internalType": "bytes",
          "name": "_signature",
          "type": "bytes"
        }
      ],
      "name": "take",
      "outputs": [
        {
          "internalType": "uint256",
          "name": "",
          "type": "uint256"
        }
      ],
      "stateMutability": "nonpayable",
      "type": "function"
    },
    {
      "inputs": [
        {
          "internalType": "uint256",
          "name": "_tokenId",
          "type": "uint256"
        }
      ],
      "name": "tokenURI",
      "outputs": [
        {
          "internalType": "string",
          "name": "",
          "type": "string"
        }
      ],
      "stateMutability": "view",
      "type": "function"
    },
    {
      "inputs": [
        {
          "internalType": "address",
          "name": "newOwner",
          "type": "address"
        }
      ],
      "name": "transferOwnership",
      "outputs": [],
      "stateMutability": "nonpayable",
      "type": "function"
    },
    {
      "inputs": [
        {
          "internalType": "uint256",
          "name": "_tokenId",
          "type": "uint256"
        }
      ],
      "name": "unequip",
      "outputs": [],
      "stateMutability": "nonpayable",
      "type": "function"
    },
    {
      "inputs": [
        {
          "internalType": "address",
          "name": "newImplementation",
          "type": "address"
        }
      ],
      "name": "upgradeTo",
      "outputs": [],
      "stateMutability": "nonpayable",
      "type": "function"
    },
    {
      "inputs": [
        {
          "internalType": "address",
          "name": "newImplementation",
          "type": "address"
        },
        {
          "internalType": "bytes",
          "name": "data",
          "type": "bytes"
        }
      ],
      "name": "upgradeToAndCall",
      "outputs": [],
      "stateMutability": "payable",
      "type": "function"
    }
  ],
  "bytecode": {
    "object": "0x60a0604052306080523480156200001557600080fd5b506200002062000026565b620000e8565b600054610100900460ff1615620000935760405162461bcd60e51b815260206004820152602760248201527f496e697469616c697a61626c653a20636f6e747261637420697320696e697469604482015266616c697a696e6760c81b606482015260840160405180910390fd5b60005460ff9081161015620000e6576000805460ff191660ff9081179091556040519081527f7f26b83ff96e1f2b6a682f133852f6798a09c465da95921460cefb38474024989060200160405180910390a15b565b60805161373562000120600039600081816106da0152818161071a01528181610bb801528181610bf80152610c8b01526137356000f3fe6080604052600436106101c25760003560e01c80638da5cb5b116100f7578063c018411211610095578063d6d0faee11610064578063d6d0faee14610504578063e499250614610524578063ec64948e14610544578063f2fde38b1461056457600080fd5b8063c018411214610475578063c58a4ff414610495578063c87b56dd146104c4578063d179e3d0146104e457600080fd5b8063a3947803116100d1578063a3947803146103f5578063a8cf868314610415578063bd6645e414610435578063bdbdbcbf1461045557600080fd5b80638da5cb5b146103a257806395d89b41146103c0578063a32c9c7a146103d557600080fd5b806352d1902d1161016457806370a082311161013e57806370a082311461032d578063715018a61461034d5780637c402f8d1461036257806380956c7e1461038257600080fd5b806352d1902d146102c15780636352211e146102d6578063635ad9931461030e57600080fd5b80633659cfe6116101a05780633659cfe61461023e578063445a62b9146102605780634a086b53146102805780634f1ef286146102ae57600080fd5b806301ffc9a7146101c757806306fdde03146101fc5780630f4d9b011461021e575b600080fd5b3480156101d357600080fd5b506101e76101e2366004612ad7565b610584565b60405190151581526020015b60405180910390f35b34801561020857600080fd5b506102116105d6565b6040516101f39190612b51565b34801561022a57600080fd5b506101e7610239366004612b64565b610669565b34801561024a57600080fd5b5061025e610259366004612b92565b6106d0565b005b34801561026c57600080fd5b5061025e61027b366004612bf0565b6107af565b34801561028c57600080fd5b506102a061029b366004612c7f565b610a46565b6040519081526020016101f3565b61025e6102bc366004612d4a565b610bae565b3480156102cd57600080fd5b506102a0610c7e565b3480156102e257600080fd5b506102f66102f1366004612b64565b610d31565b6040516001600160a01b0390911681526020016101f3565b34801561031a57600080fd5b50610135546001600160a01b03166102f6565b34801561033957600080fd5b506102a0610348366004612b92565b610d86565b34801561035957600080fd5b5061025e610e0e565b34801561036e57600080fd5b5061025e61037d366004612e0d565b610e22565b34801561038e57600080fd5b5061025e61039d366004612e4c565b610fbf565b3480156103ae57600080fd5b5060c9546001600160a01b03166102f6565b3480156103cc57600080fd5b50610211611152565b3480156103e157600080fd5b5061025e6103f0366004612e6e565b611162565b34801561040157600080fd5b506102a0610410366004612f07565b61138b565b34801561042157600080fd5b506102a0610430366004612f89565b6114ed565b34801561044157600080fd5b506102a0610450366004612fdd565b611524565b34801561046157600080fd5b5061025e610470366004613038565b6115b9565b34801561048157600080fd5b5061025e610490366004612b92565b61165c565b3480156104a157600080fd5b5060408051808201909152600681526567656f72676560d01b6020820152610211565b3480156104d057600080fd5b506102116104df366004612b64565b611687565b3480156104f057600080fd5b5061025e6104ff366004612b64565b61178e565b34801561051057600080fd5b5061025e61051f366004613079565b611835565b34801561053057600080fd5b506102a061053f366004613138565b611a14565b34801561055057600080fd5b506102a061055f366004612f07565b611a84565b34801561057057600080fd5b5061025e61057f366004612b92565b611bc9565b60006001600160e01b03198216635b5e139f60e01b14806105b557506001600160e01b031982166346bdd63960e11b145b806105d057506301ffc9a760e01b6001600160e01b03198316145b92915050565b606061013080546105e69061319c565b80601f01602080910402602001604051908101604052809291908181526020018280546106129061319c565b801561065f5780601f106106345761010080835404028352916020019161065f565b820191906000526020600020905b81548152906001019060200180831161064257829003601f168201915b5050505050905090565b6000818152610132602052604081205482906001600160a01b03166106a95760405162461bcd60e51b81526004016106a0906131d0565b60405180910390fd5b600883901c60009081526101376020526040902054600160ff85161b161591505b50919050565b6001600160a01b037f00000000000000000000000000000000000000000000000000000000000000001630036107185760405162461bcd60e51b81526004016106a090613205565b7f00000000000000000000000000000000000000000000000000000000000000006001600160a01b03166107616000805160206136b9833981519152546001600160a01b031690565b6001600160a01b0316146107875760405162461bcd60e51b81526004016106a090613251565b61079081611c3f565b604080516000808252602082019092526107ac91839190611c47565b50565b6101355460405163b2a0cb6b60e01b815260048101839052829133916001600160a01b039091169063b2a0cb6b90602401602060405180830381865afa1580156107fd573d6000803e3d6000fd5b505050506040513d601f19601f82011682018060405250810190610821919061329d565b6001600160a01b0316146108475760405162461bcd60e51b81526004016106a0906132ba565b61013554604051637e07102760e11b81526001600160a01b039091169063fc0e204e9061087a908790879060040161331a565b602060405180830381865afa158015610897573d6000803e3d6000fd5b505050506040513d601f19601f820116820180604052508101906108bb919061332e565b156109145760405162461bcd60e51b815260206004820152602360248201527f637265617465537065633a207370656320616c726561647920726567697374656044820152621c995960ea1b60648201526084016106a0565b6101355460405163addd190760e01b81526001600160a01b039091169063addd19079061094990879087908790600401613350565b600060405180830381600087803b15801561096357600080fd5b505af1158015610977573d6000803e3d6000fd5b5050505061013560009054906101000a90046001600160a01b03166001600160a01b03166334f876626040518163ffffffff1660e01b8152600401602060405180830381865afa1580156109cf573d6000803e3d6000fd5b505050506040513d601f19601f820116820180604052508101906109f3919061329d565b6001600160a01b031682336001600160a01b03167f68c7f8503283c455a4445b54a7d5c40656c8cae5cca0583c6d4be836984787008787604051610a3892919061331a565b60405180910390a450505050565b6000610a5989338a8a8a8a8a8a8a611db7565b61013554604051633664a8e960e01b81526000916001600160a01b031690633664a8e990610a8d908c908c9060040161331a565b602060405180830381865afa158015610aaa573d6000803e3d6000fd5b505050506040513d601f19601f82011682018060405250810190610ace9190613374565b6101355460405163b2a0cb6b60e01b8152600481018390529192506001600160a01b038c81169291169063b2a0cb6b90602401602060405180830381865afa158015610b1e573d6000803e3d6000fd5b505050506040513d601f19601f82011682018060405250810190610b42919061329d565b6001600160a01b031614610b945760405162461bcd60e51b81526020600482015260196024820152783a30b5b29d103ab730baba3437b934bd32b21034b9b9bab2b960391b60448201526064016106a0565b610ba0338a8a84611f44565b9a9950505050505050505050565b6001600160a01b037f0000000000000000000000000000000000000000000000000000000000000000163003610bf65760405162461bcd60e51b81526004016106a090613205565b7f00000000000000000000000000000000000000000000000000000000000000006001600160a01b0316610c3f6000805160206136b9833981519152546001600160a01b031690565b6001600160a01b031614610c655760405162461bcd60e51b81526004016106a090613251565b610c6e82611c3f565b610c7a82826001611c47565b5050565b6000306001600160a01b037f00000000000000000000000000000000000000000000000000000000000000001614610d1e5760405162461bcd60e51b815260206004820152603860248201527f555550535570677261646561626c653a206d757374206e6f742062652063616c60448201527f6c6564207468726f7567682064656c656761746563616c6c000000000000000060648201526084016106a0565b506000805160206136b983398151915290565b6000818152610132602052604081205482906001600160a01b0316610d685760405162461bcd60e51b81526004016106a0906131d0565b5050600090815261013260205260409020546001600160a01b031690565b60006001600160a01b038216610df15760405162461bcd60e51b815260206004820152602a60248201527f62616c616e63654f663a2061646472657373283029206973206e6f742061207660448201526930b634b21037bbb732b960b11b60648201526084016106a0565b506001600160a01b03166000908152610134602052604090205490565b610e16612114565b610e20600061216e565b565b6000828152610132602052604090205482906001600160a01b0316610e595760405162461bcd60e51b81526004016106a0906131d0565b6101355460405163b2a0cb6b60e01b815260048101869052859133916001600160a01b039091169063b2a0cb6b90602401602060405180830381865afa158015610ea7573d6000803e3d6000fd5b505050506040513d601f19601f82011682018060405250810190610ecb919061329d565b6001600160a01b031614610ef15760405162461bcd60e51b81526004016106a0906132ba565b600884901c60009081526101376020526040902054600160ff86161b1615610f665760405162461bcd60e51b815260206004820152602260248201527f7265766f6b6542616467653a20626164676520616c7265616479207265766f6b604482015261195960f21b60648201526084016106a0565b600884901c6000908152610137602052604090208054600160ff87161b17905560405160ff841690339086907ffa784c48260e8db512de5f055a2f29eced211a7b3bd6338058b095ada7354cee90600090a45050505050565b6000818152610132602052604090205481906001600160a01b0316610ff65760405162461bcd60e51b81526004016106a0906131d0565b6101355460405163b2a0cb6b60e01b815260048101859052849133916001600160a01b039091169063b2a0cb6b90602401602060405180830381865afa158015611044573d6000803e3d6000fd5b505050506040513d601f19601f82011682018060405250810190611068919061329d565b6001600160a01b03161461108e5760405162461bcd60e51b81526004016106a0906132ba565b600883901c60009081526101376020526040902054600160ff85161b166111015760405162461bcd60e51b815260206004820152602160248201527f7265696e737461746542616467653a206261646765206e6f74207265766f6b656044820152601960fa1b60648201526084016106a0565b600883901c600090815261013760205260408082208054600160ff88161b1916905551339185917f7f8cf9ecf2a5225948f8a1601709cedc8471c52ee75a8174c9845c29c99ed9a29190a350505050565b606061013180546105e69061319c565b8481146111cf5760405162461bcd60e51b815260206004820152603560248201527f67697665546f4d616e793a20726563697069656e747320616e64207369676e616044820152740e8eae4cae640d8cadccee8d040dad2e6dac2e8c6d605b1b60648201526084016106a0565b61013554604051633664a8e960e01b81526000916001600160a01b031690633664a8e990611203908890889060040161331a565b602060405180830381865afa158015611220573d6000803e3d6000fd5b505050506040513d601f19601f820116820180604052508101906112449190613374565b6101355460405163b2a0cb6b60e01b81526004810183905291925033916001600160a01b039091169063b2a0cb6b90602401602060405180830381865afa158015611293573d6000803e3d6000fd5b505050506040513d601f19601f820116820180604052508101906112b7919061329d565b6001600160a01b03161461130d5760405162461bcd60e51b815260206004820152601860248201527f67697665546f4d616e793a20756e617574686f72697a6564000000000000000060448201526064016106a0565b60005b868110156113815761136e88888381811061132d5761132d61338d565b90506020020160208101906113429190612b92565b87878787868181106113565761135661338d565b905060200281019061136891906133a3565b876121c0565b5080611379816133ff565b915050611310565b5050505050505050565b600061139b3387878787876121dc565b61013554604051633664a8e960e01b81526000916001600160a01b031690633664a8e9906113cf908990899060040161331a565b602060405180830381865afa1580156113ec573d6000803e3d6000fd5b505050506040513d601f19601f820116820180604052508101906114109190613374565b6101355460405163b2a0cb6b60e01b8152600481018390529192506001600160a01b038981169291169063b2a0cb6b90602401602060405180830381865afa158015611460573d6000803e3d6000fd5b505050506040513d601f19601f82011682018060405250810190611484919061329d565b6001600160a01b0316146114d65760405162461bcd60e51b81526020600482015260196024820152783a30b5b29d103ab730baba3437b934bd32b21034b9b9bab2b960391b60448201526064016106a0565b6114e233878784611f44565b979650505050505050565b600083838360405160200161150493929190613418565b6040516020818303038152906040528051906020012090505b9392505050565b60006115ae7f6d0d990916a9f9c9e0896e59ce7f5ddddff333d0c8772438ce004fa7719b164b86868660405161155b92919061343d565b60405190819003812061159393929187906020019384526001600160a01b039290921660208401526040830152606082015260800190565b6040516020818303038152906040528051906020012061228a565b90505b949350505050565b6115c1612114565b8061161d5760405162461bcd60e51b815260206004820152602660248201527f726566726573684d657461646174613a206e6f207370656320757269732070726044820152651bdd9a59195960d21b60648201526084016106a0565b7f2231d988b1a75dccab13dee3564b71a551900e822e94177a96f19561890c0fd58282336040516116509392919061344d565b60405180910390a15050565b611664612114565b61013580546001600160a01b0319166001600160a01b0392909216919091179055565b600081815261013260205260409020546060906001600160a01b03166116ef5760405162461bcd60e51b815260206004820152601d60248201527f746f6b656e5552493a20746f6b656e20646f65736e277420657869737400000060448201526064016106a0565b60008281526101336020526040902080546117099061319c565b80601f01602080910402602001604051908101604052809291908181526020018280546117359061319c565b80156117825780601f1061175757610100808354040283529160200191611782565b820191906000526020600020905b81548152906001019060200180831161176557829003601f168201915b50505050509050919050565b6000818152610132602052604090205481906001600160a01b03166117c55760405162461bcd60e51b81526004016106a0906131d0565b600082815261013260205260409020546001600160a01b0316331461182c5760405162461bcd60e51b815260206004820152601d60248201527f756e65717569703a2073656e646572206d757374206265206f776e657200000060448201526064016106a0565b610c7a826122d8565b600054610100900460ff16158080156118555750600054600160ff909116105b8061186f5750303b15801561186f575060005460ff166001145b6118d25760405162461bcd60e51b815260206004820152602e60248201527f496e697469616c697a61626c653a20636f6e747261637420697320616c72656160448201526d191e481a5b9a5d1a585b1a5e995960921b60648201526084016106a0565b6000805460ff1916600117905580156118f5576000805461ff0019166101001790555b610130611903898b8361353c565b5061013161191287898361353c565b5061013580546001600160a01b0319166001600160a01b038416179055611937612383565b61193f6123aa565b6119b289898080601f01602080910402602001604051908101604052809392919081815260200183838082843760009201919091525050604080516020601f8b0181900481028201810190925289815292508991508890819084018382808284376000920191909152506123d992505050565b6119ba612383565b6119c383611bc9565b8015611a09576000805461ff0019169055604051600181527f7f26b83ff96e1f2b6a682f133852f6798a09c465da95921460cefb38474024989060200160405180910390a15b505050505050505050565b60006115ae7fe76a195fbe43f0eaa611595069f780493db2202a1cc4b2d7d44b47069812998a86868686604051611a4c92919061343d565b604051908190038120611593949392916020019384526001600160a01b03928316602085015291166040830152606082015260800190565b61013554604051633664a8e960e01b815260009182916001600160a01b0390911690633664a8e990611abc908990899060040161331a565b602060405180830381865afa158015611ad9573d6000803e3d6000fd5b505050506040513d601f19601f82011682018060405250810190611afd9190613374565b6101355460405163b2a0cb6b60e01b81526004810183905291925033916001600160a01b039091169063b2a0cb6b90602401602060405180830381865afa158015611b4c573d6000803e3d6000fd5b505050506040513d601f19601f82011682018060405250810190611b70919061329d565b6001600160a01b031614611bbb5760405162461bcd60e51b815260206004820152601260248201527119da5d994e881d5b985d5d1a1bdc9a5e995960721b60448201526064016106a0565b6114e28787878787866121c0565b611bd1612114565b6001600160a01b038116611c365760405162461bcd60e51b815260206004820152602660248201527f4f776e61626c653a206e6577206f776e657220697320746865207a65726f206160448201526564647265737360d01b60648201526084016106a0565b6107ac8161216e565b6107ac612114565b7f4910fdfa16fed3260ed0e7147f7cc6da11a60208b5b9406d12a635614ffd91435460ff1615611c7f57611c7a8361240a565b505050565b826001600160a01b03166352d1902d6040518163ffffffff1660e01b8152600401602060405180830381865afa925050508015611cd9575060408051601f3d908101601f19168201909252611cd691810190613374565b60015b611d3c5760405162461bcd60e51b815260206004820152602e60248201527f45524331393637557067726164653a206e657720696d706c656d656e7461746960448201526d6f6e206973206e6f74205555505360901b60648201526084016106a0565b6000805160206136b98339815191528114611dab5760405162461bcd60e51b815260206004820152602960248201527f45524331393637557067726164653a20756e737570706f727465642070726f786044820152681a58589b195555525160ba1b60648201526084016106a0565b50611c7a8383836124a6565b611e0389611dc78b8a8a88611524565b87878080601f0160208091040260200160405190810160405280939291908181526020018383808284376000920191909152506124d192505050565b611e635760405162461bcd60e51b815260206004820152602b60248201527f73616665436865636b4d65726b6c6541677265656d656e743a20696e76616c6960448201526a64207369676e617475726560a81b60648201526084016106a0565b6040516bffffffffffffffffffffffff1960608a901b166020820152600090603401604051602081830303815290604052805190602001209050611edd8383808060200260200160405190810160405280939291908181526020018383602002808284376000920191909152508892508591506126139050565b611f385760405162461bcd60e51b815260206004820152602660248201527f73616665436865636b4d65726b6c6541677265656d656e743a20696e76616c6960448201526532103632b0b360d11b60648201526084016106a0565b50505050505050505050565b600081600003611f965760405162461bcd60e51b815260206004820152601c60248201527f6d696e743a2073706563206973206e6f7420726567697374657265640000000060448201526064016106a0565b6000611fa38686866114ed565b600081815261013260205260409020549091506001600160a01b0316156120035760405162461bcd60e51b81526020600482015260146024820152736d696e743a20746f6b656e49442065786973747360601b60448201526064016106a0565b6001600160a01b038616600090815261013460205260408120805491612028836133ff565b909155505060008181526101326020908152604080832080546001600160a01b0319166001600160a01b038b16179055610133909152902061206b85878361353c565b5060405181906001600160a01b038816906000907fddf252ad1be2c89b69c2b068fc378daa952ba7f163c4a11628f55a4df523b3ef908290a46101355460405163fb74926160e01b815260048101839052602481018590526001600160a01b039091169063fb74926190604401600060405180830381600087803b1580156120f257600080fd5b505af1158015612106573d6000803e3d6000fd5b509298975050505050505050565b60c9546001600160a01b03163314610e205760405162461bcd60e51b815260206004820181905260248201527f4f776e61626c653a2063616c6c6572206973206e6f7420746865206f776e657260448201526064016106a0565b60c980546001600160a01b038381166001600160a01b0319831681179093556040519116919082907f8be0079c531659141344cd1fd0a4f28419497f9722a3daafe3b4186f6b6457e090600090a35050565b60006121d03388888888886121dc565b6114e287878785611f44565b612228856121ec88888888611a14565b84848080601f0160208091040260200160405190810160405280939291908181526020018383808284376000920191909152506124d192505050565b6122825760405162461bcd60e51b815260206004820152602560248201527f73616665436865636b41677265656d656e743a20696e76616c6964207369676e604482015264617475726560d81b60648201526084016106a0565b505050505050565b60006105d0612297612629565b8360405161190160f01b6020820152602281018390526042810182905260009060620160405160208183030381529060405280519060200120905092915050565b600081815261013260209081526040808320546001600160a01b03168084526101349092528220805491926001926123119084906135fc565b909155505060008281526101326020908152604080832080546001600160a01b0319169055610133909152812061234791612a89565b60405182906000906001600160a01b038416907fddf252ad1be2c89b69c2b068fc378daa952ba7f163c4a11628f55a4df523b3ef908390a45050565b600054610100900460ff16610e205760405162461bcd60e51b81526004016106a09061360f565b600054610100900460ff166123d15760405162461bcd60e51b81526004016106a09061360f565b610e20612665565b600054610100900460ff166124005760405162461bcd60e51b81526004016106a09061360f565b610c7a8282612695565b6001600160a01b0381163b6124775760405162461bcd60e51b815260206004820152602d60248201527f455243313936373a206e657720696d706c656d656e746174696f6e206973206e60448201526c1bdd08184818dbdb9d1c9858dd609a1b60648201526084016106a0565b6000805160206136b983398151915280546001600160a01b0319166001600160a01b0392909216919091179055565b6124af836126d6565b6000825111806124bc5750805b15611c7a576124cb8383612716565b50505050565b60008060006124e0858561280a565b909250905060008160048111156124f9576124f961365a565b1480156125175750856001600160a01b0316826001600160a01b0316145b156125275760019250505061151d565b600080876001600160a01b0316631626ba7e60e01b888860405160240161254f929190613670565b60408051601f198184030181529181526020820180516001600160e01b03166001600160e01b031990941693909317909252905161258d9190613689565b600060405180830381855afa9150503d80600081146125c8576040519150601f19603f3d011682016040523d82523d6000602084013e6125cd565b606091505b50915091508180156125e0575080516020145b801561260757508051630b135d3f60e11b906126059083016020908101908401613374565b145b98975050505050505050565b6000826126208584612878565b14949350505050565b60006126607f8b73c3c69bb8fe3d512ecc4cf759cc79239f7b179b0ffacaa9a75d522b39400f61265860fb5490565b60fc546128c5565b905090565b600054610100900460ff1661268c5760405162461bcd60e51b81526004016106a09061360f565b610e203361216e565b600054610100900460ff166126bc5760405162461bcd60e51b81526004016106a09061360f565b81516020928301208151919092012060fb9190915560fc55565b6126df8161240a565b6040516001600160a01b038216907fbc7cd75a20ee27fd9adebab32041f755214dbc6bffa90cc0225b39da2e5c2d3b90600090a250565b60606001600160a01b0383163b61277e5760405162461bcd60e51b815260206004820152602660248201527f416464726573733a2064656c65676174652063616c6c20746f206e6f6e2d636f6044820152651b9d1c9858dd60d21b60648201526084016106a0565b600080846001600160a01b0316846040516127999190613689565b600060405180830381855af49150503d80600081146127d4576040519150601f19603f3d011682016040523d82523d6000602084013e6127d9565b606091505b509150915061280182826040518060600160405280602781526020016136d9602791396128f4565b95945050505050565b60008082516041036128405760208301516040840151606085015160001a6128348782858561290d565b94509450505050612871565b8251604003612869576020830151604084015161285e8683836129fa565b935093505050612871565b506000905060025b9250929050565b600081815b84518110156128bd576128a98286838151811061289c5761289c61338d565b6020026020010151612a33565b9150806128b5816133ff565b91505061287d565b509392505050565b6040805160208101859052908101839052606081018290524660808201523060a082015260009060c001611504565b6060831561290357508161151d565b61151d8383612a5f565b6000807f7fffffffffffffffffffffffffffffff5d576e7357a4501ddfe92f46681b20a083111561294457506000905060036129f1565b8460ff16601b1415801561295c57508460ff16601c14155b1561296d57506000905060046129f1565b6040805160008082526020820180845289905260ff881692820192909252606081018690526080810185905260019060a0016020604051602081039080840390855afa1580156129c1573d6000803e3d6000fd5b5050604051601f1901519150506001600160a01b0381166129ea576000600192509250506129f1565b9150600090505b94509492505050565b6000806001600160ff1b03831681612a1760ff86901c601b6136a5565b9050612a258782888561290d565b935093505050935093915050565b6000818310612a4f57600082815260208490526040902061151d565b5060009182526020526040902090565b815115612a6f5781518083602001fd5b8060405162461bcd60e51b81526004016106a09190612b51565b508054612a959061319c565b6000825580601f10612aa5575050565b601f0160209004906000526020600020908101906107ac91905b80821115612ad35760008155600101612abf565b5090565b600060208284031215612ae957600080fd5b81356001600160e01b03198116811461151d57600080fd5b60005b83811015612b1c578181015183820152602001612b04565b50506000910152565b60008151808452612b3d816020860160208601612b01565b601f01601f19169290920160200192915050565b60208152600061151d6020830184612b25565b600060208284031215612b7657600080fd5b5035919050565b6001600160a01b03811681146107ac57600080fd5b600060208284031215612ba457600080fd5b813561151d81612b7d565b60008083601f840112612bc157600080fd5b5081356001600160401b03811115612bd857600080fd5b60208301915083602082850101111561287157600080fd5b600080600060408486031215612c0557600080fd5b83356001600160401b03811115612c1b57600080fd5b612c2786828701612baf565b909790965060209590950135949350505050565b60008083601f840112612c4d57600080fd5b5081356001600160401b03811115612c6457600080fd5b6020830191508360208260051b850101111561287157600080fd5b60008060008060008060008060a0898b031215612c9b57600080fd5b8835612ca681612b7d565b975060208901356001600160401b0380821115612cc257600080fd5b612cce8c838d01612baf565b909950975060408b0135915080821115612ce757600080fd5b612cf38c838d01612baf565b909750955060608b0135945060808b0135915080821115612d1357600080fd5b50612d208b828c01612c3b565b999c989b5096995094979396929594505050565b634e487b7160e01b600052604160045260246000fd5b60008060408385031215612d5d57600080fd5b8235612d6881612b7d565b915060208301356001600160401b0380821115612d8457600080fd5b818501915085601f830112612d9857600080fd5b813581811115612daa57612daa612d34565b604051601f8201601f19908116603f01168101908382118183101715612dd257612dd2612d34565b81604052828152886020848701011115612deb57600080fd5b8260208601602083013760006020848301015280955050505050509250929050565b600080600060608486031215612e2257600080fd5b8335925060208401359150604084013560ff81168114612e4157600080fd5b809150509250925092565b60008060408385031215612e5f57600080fd5b50508035926020909101359150565b60008060008060008060608789031215612e8757600080fd5b86356001600160401b0380821115612e9e57600080fd5b612eaa8a838b01612c3b565b90985096506020890135915080821115612ec357600080fd5b612ecf8a838b01612baf565b90965094506040890135915080821115612ee857600080fd5b50612ef589828a01612c3b565b979a9699509497509295939492505050565b600080600080600060608688031215612f1f57600080fd5b8535612f2a81612b7d565b945060208601356001600160401b0380821115612f4657600080fd5b612f5289838a01612baf565b90965094506040880135915080821115612f6b57600080fd5b50612f7888828901612baf565b969995985093965092949392505050565b600080600060408486031215612f9e57600080fd5b8335612fa981612b7d565b925060208401356001600160401b03811115612fc457600080fd5b612fd086828701612baf565b9497909650939450505050565b60008060008060608587031215612ff357600080fd5b8435612ffe81612b7d565b935060208501356001600160401b0381111561301957600080fd5b61302587828801612baf565b9598909750949560400135949350505050565b6000806020838503121561304b57600080fd5b82356001600160401b0381111561306157600080fd5b61306d85828601612c3b565b90969095509350505050565b60008060008060008060008060a0898b03121561309557600080fd5b88356001600160401b03808211156130ac57600080fd5b6130b88c838d01612baf565b909a50985060208b01359150808211156130d157600080fd5b6130dd8c838d01612baf565b909850965060408b01359150808211156130f657600080fd5b506131038b828c01612baf565b909550935050606089013561311781612b7d565b9150608089013561312781612b7d565b809150509295985092959890939650565b6000806000806060858703121561314e57600080fd5b843561315981612b7d565b9350602085013561316981612b7d565b925060408501356001600160401b0381111561318457600080fd5b61319087828801612baf565b95989497509550505050565b600181811c908216806131b057607f821691505b6020821081036106ca57634e487b7160e01b600052602260045260246000fd5b6020808252818101527f746f6b656e4578697374733a20746f6b656e20646f65736e2774206578697374604082015260600190565b6020808252602c908201527f46756e6374696f6e206d7573742062652063616c6c6564207468726f7567682060408201526b19195b1959d85d1958d85b1b60a21b606082015260800190565b6020808252602c908201527f46756e6374696f6e206d7573742062652063616c6c6564207468726f7567682060408201526b6163746976652070726f787960a01b606082015260800190565b6000602082840312156132af57600080fd5b815161151d81612b7d565b6020808252601b908201527f6f6e6c79526166744f776e65723a20756e617574686f72697a65640000000000604082015260600190565b81835281816020850137506000828201602090810191909152601f909101601f19169091010190565b6020815260006115b16020830184866132f1565b60006020828403121561334057600080fd5b8151801515811461151d57600080fd5b6040815260006133646040830185876132f1565b9050826020830152949350505050565b60006020828403121561338657600080fd5b5051919050565b634e487b7160e01b600052603260045260246000fd5b6000808335601e198436030181126133ba57600080fd5b8301803591506001600160401b038211156133d457600080fd5b60200191503681900382131561287157600080fd5b634e487b7160e01b600052601160045260246000fd5b600060018201613411576134116133e9565b5060010190565b6001600160a01b03841681526040602082018190526000906115ae90830184866132f1565b8183823760009101908152919050565b6040808252810183905260006060600585901b8301810190830186835b878110156134dd57858403605f190183528135368a9003601e1901811261349057600080fd5b890160208181019135906001600160401b038211156134ae57600080fd5b8136038313156134bd57600080fd5b6134c88783856132f1565b9650948501949390930192505060010161346a565b5050506001600160a01b038416602084015290506115b1565b601f821115611c7a57600081815260208120601f850160051c8101602086101561351d5750805b601f850160051c820191505b8181101561228257828155600101613529565b6001600160401b0383111561355357613553612d34565b61356783613561835461319c565b836134f6565b6000601f84116001811461359b57600085156135835750838201355b600019600387901b1c1916600186901b1783556135f5565b600083815260209020601f19861690835b828110156135cc57868501358255602094850194600190920191016135ac565b50868210156135e95760001960f88860031b161c19848701351681555b505060018560011b0183555b5050505050565b818103818111156105d0576105d06133e9565b6020808252602b908201527f496e697469616c697a61626c653a20636f6e7472616374206973206e6f74206960408201526a6e697469616c697a696e6760a81b606082015260800190565b634e487b7160e01b600052602160045260246000fd5b8281526040602082015260006115b16040830184612b25565b6000825161369b818460208701612b01565b9190910192915050565b808201808211156105d0576105d06133e956fe360894a13ba1a3210667c828492db98dca3e2076cc3735a920a3ca505d382bbc416464726573733a206c6f772d6c6576656c2064656c65676174652063616c6c206661696c6564a26469706673582212202db3afbab506fb12d39c6556251c90e0150c1d9dc3d97745f1e8647aabb55e3e64736f6c63430008100033",
    "linkReferences": {}
  },
  "methodIdentifiers": {
    "balanceOf(address)": "70a08231",
    "createSpec(string,uint256)": "445a62b9",
    "getAgreementHash(address,address,string)": "e4992506",
    "getBadgeIdHash(address,string)": "a8cf8683",
    "getDataHolderAddress()": "635ad993",
    "getGeorge()": "c58a4ff4",
    "getMerkleAgreementHash(address,string,bytes32)": "bd6645e4",
    "give(address,string,bytes)": "ec64948e",
    "giveToMany(address[],string,bytes[])": "a32c9c7a",
    "initialize(string,string,string,address,address)": "d6d0faee",
    "isBadgeValid(uint256)": "0f4d9b01",
    "merkleTake(address,string,bytes,bytes32,bytes32[])": "4a086b53",
    "name()": "06fdde03",
    "owner()": "8da5cb5b",
    "ownerOf(uint256)": "6352211e",
    "proxiableUUID()": "52d1902d",
    "refreshMetadata(string[])": "bdbdbcbf",
    "reinstateBadge(uint256,uint256)": "80956c7e",
    "renounceOwnership()": "715018a6",
    "revokeBadge(uint256,uint256,uint8)": "7c402f8d",
    "setDataHolder(address)": "c0184112",
    "supportsInterface(bytes4)": "01ffc9a7",
    "symbol()": "95d89b41",
    "take(address,string,bytes)": "a3947803",
    "tokenURI(uint256)": "c87b56dd",
    "transferOwnership(address)": "f2fde38b",
    "unequip(uint256)": "d179e3d0",
    "upgradeTo(address)": "3659cfe6",
    "upgradeToAndCall(address,bytes)": "4f1ef286"
  },
  "id": 46
}