{
  "abi": [
    {
      "inputs": [],
      "stateMutability": "nonpayable",
      "type": "constructor"
    },
    {
      "anonymous": false,
      "inputs": [
        {
          "indexed": false,
          "internalType": "address",
          "name": "previousAdmin",
          "type": "address"
        },
        {
          "indexed": false,
          "internalType": "address",
          "name": "newAdmin",
          "type": "address"
        }
      ],
      "name": "AdminChanged",
      "type": "event"
    },
    {
      "anonymous": false,
      "inputs": [
        {
          "indexed": true,
          "internalType": "uint256",
          "name": "tokenId",
          "type": "uint256"
        },
        {
          "indexed": true,
          "internalType": "address",
          "name": "from",
          "type": "address"
        }
      ],
      "name": "BadgeReinstated",
      "type": "event"
    },
    {
      "anonymous": false,
      "inputs": [
        {
          "indexed": true,
          "internalType": "uint256",
          "name": "tokenId",
          "type": "uint256"
        },
        {
          "indexed": true,
          "internalType": "address",
          "name": "from",
          "type": "address"
        },
        {
          "indexed": true,
          "internalType": "uint8",
          "name": "reason",
          "type": "uint8"
        }
      ],
      "name": "BadgeRevoked",
      "type": "event"
    },
    {
      "anonymous": false,
      "inputs": [
        {
          "indexed": true,
          "internalType": "address",
          "name": "beacon",
          "type": "address"
        }
      ],
      "name": "BeaconUpgraded",
      "type": "event"
    },
    {
      "anonymous": false,
      "inputs": [
        {
          "indexed": false,
          "internalType": "uint8",
          "name": "version",
          "type": "uint8"
        }
      ],
      "name": "Initialized",
      "type": "event"
    },
    {
      "anonymous": false,
      "inputs": [
        {
          "indexed": true,
          "internalType": "address",
          "name": "previousOwner",
          "type": "address"
        },
        {
          "indexed": true,
          "internalType": "address",
          "name": "newOwner",
          "type": "address"
        }
      ],
      "name": "OwnershipTransferred",
      "type": "event"
    },
    {
      "anonymous": false,
      "inputs": [
        {
          "indexed": false,
          "internalType": "string[]",
          "name": "specUris",
          "type": "string[]"
        },
        {
          "indexed": false,
          "internalType": "address",
          "name": "sender",
          "type": "address"
        }
      ],
      "name": "RefreshMetadata",
      "type": "event"
    },
    {
      "anonymous": false,
      "inputs": [
        {
          "indexed": true,
          "internalType": "address",
          "name": "to",
          "type": "address"
        },
        {
          "indexed": false,
          "internalType": "string",
          "name": "specUri",
          "type": "string"
        },
        {
          "indexed": true,
          "internalType": "uint256",
          "name": "raftTokenId",
          "type": "uint256"
        },
        {
          "indexed": true,
          "internalType": "address",
          "name": "raftAddress",
          "type": "address"
        }
      ],
      "name": "SpecCreated",
      "type": "event"
    },
    {
      "anonymous": false,
      "inputs": [
        {
          "indexed": true,
          "internalType": "address",
          "name": "from",
          "type": "address"
        },
        {
          "indexed": true,
          "internalType": "address",
          "name": "to",
          "type": "address"
        },
        {
          "indexed": true,
          "internalType": "uint256",
          "name": "tokenId",
          "type": "uint256"
        }
      ],
      "name": "Transfer",
      "type": "event"
    },
    {
      "anonymous": false,
      "inputs": [
        {
          "indexed": true,
          "internalType": "address",
          "name": "implementation",
          "type": "address"
        }
      ],
      "name": "Upgraded",
      "type": "event"
    },
    {
      "inputs": [
        {
          "internalType": "address[]",
          "name": "_recipients",
          "type": "address[]"
        },
        {
          "internalType": "string",
          "name": "_uri",
          "type": "string"
        }
      ],
      "name": "airdrop",
      "outputs": [],
      "stateMutability": "nonpayable",
      "type": "function"
    },
    {
      "inputs": [
        {
          "internalType": "address",
          "name": "_owner",
          "type": "address"
        }
      ],
      "name": "balanceOf",
      "outputs": [
        {
          "internalType": "uint256",
          "name": "",
          "type": "uint256"
        }
      ],
      "stateMutability": "view",
      "type": "function"
    },
    {
      "inputs": [
        {
          "internalType": "string",
          "name": "_specUri",
          "type": "string"
        },
        {
          "internalType": "uint256",
          "name": "_raftTokenId",
          "type": "uint256"
        }
      ],
      "name": "createSpec",
      "outputs": [],
      "stateMutability": "nonpayable",
      "type": "function"
    },
    {
      "inputs": [
        {
          "internalType": "address",
          "name": "_from",
          "type": "address"
        },
        {
          "internalType": "address",
          "name": "_to",
          "type": "address"
        },
        {
          "internalType": "string",
          "name": "_uri",
          "type": "string"
        }
      ],
      "name": "getAgreementHash",
      "outputs": [
        {
          "internalType": "bytes32",
          "name": "",
          "type": "bytes32"
        }
      ],
      "stateMutability": "view",
      "type": "function"
    },
    {
      "inputs": [
        {
          "internalType": "address",
          "name": "_to",
          "type": "address"
        },
        {
          "internalType": "string",
          "name": "_uri",
          "type": "string"
        }
      ],
      "name": "getBadgeIdHash",
      "outputs": [
        {
          "internalType": "bytes32",
          "name": "",
          "type": "bytes32"
        }
      ],
      "stateMutability": "view",
      "type": "function"
    },
    {
      "inputs": [],
      "name": "getDataHolderAddress",
      "outputs": [
        {
          "internalType": "address",
          "name": "",
          "type": "address"
        }
      ],
      "stateMutability": "view",
      "type": "function"
    },
    {
      "inputs": [
        {
          "internalType": "address",
          "name": "_issuer",
          "type": "address"
        },
        {
          "internalType": "string",
          "name": "_uri",
          "type": "string"
        },
        {
          "internalType": "bytes32",
          "name": "_root",
          "type": "bytes32"
        }
      ],
      "name": "getMerkleAgreementHash",
      "outputs": [
        {
          "internalType": "bytes32",
          "name": "",
          "type": "bytes32"
        }
      ],
      "stateMutability": "view",
      "type": "function"
    },
    {
      "inputs": [
        {
          "internalType": "address",
          "name": "_requester",
          "type": "address"
        },
        {
          "internalType": "string",
          "name": "_uri",
          "type": "string"
        }
      ],
      "name": "getRequestHash",
      "outputs": [
        {
          "internalType": "bytes32",
          "name": "",
          "type": "bytes32"
        }
      ],
      "stateMutability": "view",
      "type": "function"
    },
    {
      "inputs": [
        {
          "internalType": "address",
          "name": "_to",
          "type": "address"
        },
        {
          "internalType": "string",
          "name": "_uri",
          "type": "string"
        },
        {
          "internalType": "bytes",
          "name": "_signature",
          "type": "bytes"
        }
      ],
      "name": "give",
      "outputs": [
        {
          "internalType": "uint256",
          "name": "",
          "type": "uint256"
        }
      ],
      "stateMutability": "nonpayable",
      "type": "function"
    },
    {
      "inputs": [
        {
          "internalType": "address",
          "name": "_to",
          "type": "address"
        },
        {
          "internalType": "string",
          "name": "_uri",
          "type": "string"
        },
        {
          "internalType": "bytes",
          "name": "_signature",
          "type": "bytes"
        }
      ],
      "name": "giveRequestedBadge",
      "outputs": [
        {
          "internalType": "uint256",
          "name": "",
          "type": "uint256"
        }
      ],
      "stateMutability": "nonpayable",
      "type": "function"
    },
    {
      "inputs": [
        {
          "internalType": "address[]",
          "name": "_recipients",
          "type": "address[]"
        },
        {
          "internalType": "string",
          "name": "_uri",
          "type": "string"
        },
        {
          "internalType": "bytes[]",
          "name": "_signatures",
          "type": "bytes[]"
        }
      ],
      "name": "giveToMany",
      "outputs": [],
      "stateMutability": "nonpayable",
      "type": "function"
    },
    {
      "inputs": [
        {
          "internalType": "string",
          "name": "_name",
          "type": "string"
        },
        {
          "internalType": "string",
          "name": "_symbol",
          "type": "string"
        },
        {
          "internalType": "string",
          "name": "_version",
          "type": "string"
        },
        {
          "internalType": "address",
          "name": "_nextOwner",
          "type": "address"
        },
        {
          "internalType": "address",
          "name": "_specDataHolderAddress",
          "type": "address"
        }
      ],
      "name": "initialize",
      "outputs": [],
      "stateMutability": "nonpayable",
      "type": "function"
    },
    {
      "inputs": [
        {
          "internalType": "uint256",
          "name": "_badgeId",
          "type": "uint256"
        }
      ],
      "name": "isBadgeValid",
      "outputs": [
        {
          "internalType": "bool",
          "name": "",
          "type": "bool"
        }
      ],
      "stateMutability": "view",
      "type": "function"
    },
    {
      "inputs": [
        {
          "internalType": "address",
          "name": "_from",
          "type": "address"
        },
        {
          "internalType": "string",
          "name": "_uri",
          "type": "string"
        },
        {
          "internalType": "bytes",
          "name": "_signature",
          "type": "bytes"
        },
        {
          "internalType": "bytes32",
          "name": "root",
          "type": "bytes32"
        },
        {
          "internalType": "bytes32[]",
          "name": "proof",
          "type": "bytes32[]"
        }
      ],
      "name": "merkleTake",
      "outputs": [
        {
          "internalType": "uint256",
          "name": "",
          "type": "uint256"
        }
      ],
      "stateMutability": "nonpayable",
      "type": "function"
    },
    {
      "inputs": [],
      "name": "name",
      "outputs": [
        {
          "internalType": "string",
          "name": "",
          "type": "string"
        }
      ],
      "stateMutability": "view",
      "type": "function"
    },
    {
      "inputs": [],
      "name": "owner",
      "outputs": [
        {
          "internalType": "address",
          "name": "",
          "type": "address"
        }
      ],
      "stateMutability": "view",
      "type": "function"
    },
    {
      "inputs": [
        {
          "internalType": "uint256",
          "name": "_tokenId",
          "type": "uint256"
        }
      ],
      "name": "ownerOf",
      "outputs": [
        {
          "internalType": "address",
          "name": "",
          "type": "address"
        }
      ],
      "stateMutability": "view",
      "type": "function"
    },
    {
      "inputs": [],
      "name": "proxiableUUID",
      "outputs": [
        {
          "internalType": "bytes32",
          "name": "",
          "type": "bytes32"
        }
      ],
      "stateMutability": "view",
      "type": "function"
    },
    {
      "inputs": [
        {
          "internalType": "string[]",
          "name": "_specUris",
          "type": "string[]"
        }
      ],
      "name": "refreshMetadata",
      "outputs": [],
      "stateMutability": "nonpayable",
      "type": "function"
    },
    {
      "inputs": [
        {
          "internalType": "uint256",
          "name": "_raftTokenId",
          "type": "uint256"
        },
        {
          "internalType": "uint256",
          "name": "_badgeId",
          "type": "uint256"
        }
      ],
      "name": "reinstateBadge",
      "outputs": [],
      "stateMutability": "nonpayable",
      "type": "function"
    },
    {
      "inputs": [],
      "name": "renounceOwnership",
      "outputs": [],
      "stateMutability": "nonpayable",
      "type": "function"
    },
    {
      "inputs": [
        {
          "internalType": "uint256",
          "name": "_raftTokenId",
          "type": "uint256"
        },
        {
          "internalType": "uint256",
          "name": "_badgeId",
          "type": "uint256"
        },
        {
          "internalType": "uint8",
          "name": "_reason",
          "type": "uint8"
        }
      ],
      "name": "revokeBadge",
      "outputs": [],
      "stateMutability": "nonpayable",
      "type": "function"
    },
    {
      "inputs": [
        {
          "internalType": "address",
          "name": "_dataHolder",
          "type": "address"
        }
      ],
      "name": "setDataHolder",
      "outputs": [],
      "stateMutability": "nonpayable",
      "type": "function"
    },
    {
      "inputs": [
        {
          "internalType": "bytes4",
          "name": "_interfaceId",
          "type": "bytes4"
        }
      ],
      "name": "supportsInterface",
      "outputs": [
        {
          "internalType": "bool",
          "name": "",
          "type": "bool"
        }
      ],
      "stateMutability": "view",
      "type": "function"
    },
    {
      "inputs": [],
      "name": "symbol",
      "outputs": [
        {
          "internalType": "string",
          "name": "",
          "type": "string"
        }
      ],
      "stateMutability": "view",
      "type": "function"
    },
    {
      "inputs": [
        {
          "internalType": "address",
          "name": "_from",
          "type": "address"
        },
        {
          "internalType": "string",
          "name": "_uri",
          "type": "string"
        },
        {
          "internalType": "bytes",
          "name": "_signature",
          "type": "bytes"
        }
      ],
      "name": "take",
      "outputs": [
        {
          "internalType": "uint256",
          "name": "",
          "type": "uint256"
        }
      ],
      "stateMutability": "nonpayable",
      "type": "function"
    },
    {
      "inputs": [
        {
          "internalType": "uint256",
          "name": "_tokenId",
          "type": "uint256"
        }
      ],
      "name": "tokenURI",
      "outputs": [
        {
          "internalType": "string",
          "name": "",
          "type": "string"
        }
      ],
      "stateMutability": "view",
      "type": "function"
    },
    {
      "inputs": [
        {
          "internalType": "address",
          "name": "newOwner",
          "type": "address"
        }
      ],
      "name": "transferOwnership",
      "outputs": [],
      "stateMutability": "nonpayable",
      "type": "function"
    },
    {
      "inputs": [
        {
          "internalType": "uint256",
          "name": "_tokenId",
          "type": "uint256"
        }
      ],
      "name": "unequip",
      "outputs": [],
      "stateMutability": "nonpayable",
      "type": "function"
    },
    {
      "inputs": [
        {
          "internalType": "address",
          "name": "newImplementation",
          "type": "address"
        }
      ],
      "name": "upgradeTo",
      "outputs": [],
      "stateMutability": "nonpayable",
      "type": "function"
    },
    {
      "inputs": [
        {
          "internalType": "address",
          "name": "newImplementation",
          "type": "address"
        },
        {
          "internalType": "bytes",
          "name": "data",
          "type": "bytes"
        }
      ],
      "name": "upgradeToAndCall",
      "outputs": [],
      "stateMutability": "payable",
      "type": "function"
    }
  ],
  "bytecode": {
    "object": "0x60a0604052306080523480156200001557600080fd5b506200002062000026565b620000e8565b600054610100900460ff1615620000935760405162461bcd60e51b815260206004820152602760248201527f496e697469616c697a61626c653a20636f6e747261637420697320696e697469604482015266616c697a696e6760c81b606482015260840160405180910390fd5b60005460ff9081161015620000e6576000805460ff191660ff9081179091556040519081527f7f26b83ff96e1f2b6a682f133852f6798a09c465da95921460cefb38474024989060200160405180910390a15b565b608051613b8462000120600039600081816109180152818161095801528181610fa101528181610fe101526110740152613b846000f3fe6080604052600436106101d85760003560e01c806380956c7e11610102578063bdbdbcbf11610095578063d6d0faee11610064578063d6d0faee1461054b578063e49925061461056b578063ec64948e1461058b578063f2fde38b146105ab57600080fd5b8063bdbdbcbf146104cb578063c0184112146104eb578063c87b56dd1461050b578063d179e3d01461052b57600080fd5b8063a32c9c7a116100d1578063a32c9c7a1461044b578063a39478031461046b578063a8cf86831461048b578063bd6645e4146104ab57600080fd5b806380956c7e146103d85780638339a133146103f85780638da5cb5b1461041857806395d89b411461043657600080fd5b80634a086b531161017a578063635ad99311610149578063635ad9931461036457806370a0823114610383578063715018a6146103a35780637c402f8d146103b857600080fd5b80634a086b53146102e45780634f1ef2861461030457806352d1902d146103175780636352211e1461032c57600080fd5b80631766c038116101b65780631766c038146102545780633659cfe61461028257806339ae37c0146102a4578063445a62b9146102c457600080fd5b806301ffc9a7146101dd57806306fdde03146102125780630f4d9b0114610234575b600080fd5b3480156101e957600080fd5b506101fd6101f8366004612efe565b6105cb565b60405190151581526020015b60405180910390f35b34801561021e57600080fd5b5061022761061d565b6040516102099190612f78565b34801561024057600080fd5b506101fd61024f366004612f8b565b6106b0565b34801561026057600080fd5b5061027461026f366004612ffa565b610717565b604051908152602001610209565b34801561028e57600080fd5b506102a261029d36600461307c565b61090e565b005b3480156102b057600080fd5b506102a26102bf3660046130dd565b6109ed565b3480156102d057600080fd5b506102a26102df366004613148565b610b73565b3480156102f057600080fd5b506102746102ff366004613193565b610e31565b6102a261031236600461325e565b610f97565b34801561032357600080fd5b50610274611067565b34801561033857600080fd5b5061034c610347366004612f8b565b61111a565b6040516001600160a01b039091168152602001610209565b34801561037057600080fd5b50610135546001600160a01b031661034c565b34801561038f57600080fd5b5061027461039e36600461307c565b61116f565b3480156103af57600080fd5b506102a26111f7565b3480156103c457600080fd5b506102a26103d3366004613321565b61120b565b3480156103e457600080fd5b506102a26103f3366004613360565b6113cf565b34801561040457600080fd5b50610274610413366004613382565b611589565b34801561042457600080fd5b5060c9546001600160a01b031661034c565b34801561044257600080fd5b50610227611616565b34801561045757600080fd5b506102a26104663660046133d6565b611626565b34801561047757600080fd5b50610274610486366004612ffa565b611847565b34801561049757600080fd5b506102746104a6366004613382565b611991565b3480156104b757600080fd5b506102746104c636600461346f565b6119c7565b3480156104d757600080fd5b506102a26104e63660046134ca565b611a41565b3480156104f757600080fd5b506102a261050636600461307c565b611ae4565b34801561051757600080fd5b50610227610526366004612f8b565b611b0f565b34801561053757600080fd5b506102a2610546366004612f8b565b611c16565b34801561055757600080fd5b506102a261056636600461350b565b611cbd565b34801561057757600080fd5b506102746105863660046135ca565b611e9c565b34801561059757600080fd5b506102746105a6366004612ffa565b611f0c565b3480156105b757600080fd5b506102a26105c636600461307c565b612049565b60006001600160e01b03198216635b5e139f60e01b14806105fc57506001600160e01b031982166346bdd63960e11b145b8061061757506301ffc9a760e01b6001600160e01b03198316145b92915050565b6060610130805461062d90613622565b80601f016020809104026020016040519081016040528092919081815260200182805461065990613622565b80156106a65780601f1061067b576101008083540402835291602001916106a6565b820191906000526020600020905b81548152906001019060200180831161068957829003601f168201915b5050505050905090565b6000818152610132602052604081205482906001600160a01b03166106f05760405162461bcd60e51b81526004016106e790613656565b60405180910390fd5b600883901c60009081526101376020526040902054600160ff85161b161591505b50919050565b61013554604051633664a8e960e01b815260009182916001600160a01b0390911690633664a8e99061074f90899089906004016136b4565b602060405180830381865afa15801561076c573d6000803e3d6000fd5b505050506040513d601f19601f8201168201806040525081019061079091906136c8565b90506107dd876107a1898989611589565b86868080601f0160208091040260200160405190810160405280939291908181526020018383808284376000920191909152506120bf92505050565b6108375760405162461bcd60e51b815260206004820152602560248201527f6769766552657175657374656442616467653a20696e76616c6964207369676e604482015264617475726560d81b60648201526084016106e7565b6101355460405163e3ee9c4d60e01b8152600481018390523360248201526001600160a01b039091169063e3ee9c4d90604401602060405180830381865afa158015610887573d6000803e3d6000fd5b505050506040513d601f19601f820116820180604052508101906108ab91906136e1565b6108f75760405162461bcd60e51b815260206004820181905260248201527f6769766552657175657374656442616467653a20756e617574686f72697a656460448201526064016106e7565b61090387878784612201565b979650505050505050565b6001600160a01b037f00000000000000000000000000000000000000000000000000000000000000001630036109565760405162461bcd60e51b81526004016106e790613703565b7f00000000000000000000000000000000000000000000000000000000000000006001600160a01b031661099f600080516020613b08833981519152546001600160a01b031690565b6001600160a01b0316146109c55760405162461bcd60e51b81526004016106e79061374f565b6109ce81612380565b604080516000808252602082019092526109ea91839190612388565b50565b61013554604051633664a8e960e01b81526000916001600160a01b031690633664a8e990610a2190869086906004016136b4565b602060405180830381865afa158015610a3e573d6000803e3d6000fd5b505050506040513d601f19601f82011682018060405250810190610a6291906136c8565b6101355460405163e3ee9c4d60e01b8152600481018390523360248201529192506001600160a01b03169063e3ee9c4d90604401602060405180830381865afa158015610ab3573d6000803e3d6000fd5b505050506040513d601f19601f82011682018060405250810190610ad791906136e1565b610b1b5760405162461bcd60e51b8152602060048201526015602482015274185a5c991c9bdc0e881d5b985d5d1a1bdc9a5e9959605a1b60448201526064016106e7565b60005b84811015610b6b57610b58868683818110610b3b57610b3b61379b565b9050602002016020810190610b50919061307c565b858585612201565b5080610b63816137c7565b915050610b1e565b505050505050565b6101355460405163e3ee9c4d60e01b8152600481018390523360248201526001600160a01b039091169063e3ee9c4d90604401602060405180830381865afa158015610bc3573d6000803e3d6000fd5b505050506040513d601f19601f82011682018060405250810190610be791906136e1565b610c335760405162461bcd60e51b815260206004820152601860248201527f637265617465537065633a20756e617574686f72697a6564000000000000000060448201526064016106e7565b61013554604051637e07102760e11b81526001600160a01b039091169063fc0e204e90610c6690869086906004016136b4565b602060405180830381865afa158015610c83573d6000803e3d6000fd5b505050506040513d601f19601f82011682018060405250810190610ca791906136e1565b15610d005760405162461bcd60e51b815260206004820152602360248201527f637265617465537065633a207370656320616c726561647920726567697374656044820152621c995960ea1b60648201526084016106e7565b6101355460405163addd190760e01b81526001600160a01b039091169063addd190790610d35908690869086906004016137e0565b600060405180830381600087803b158015610d4f57600080fd5b505af1158015610d63573d6000803e3d6000fd5b5050505061013560009054906101000a90046001600160a01b03166001600160a01b03166334f876626040518163ffffffff1660e01b8152600401602060405180830381865afa158015610dbb573d6000803e3d6000fd5b505050506040513d601f19601f82011682018060405250810190610ddf9190613804565b6001600160a01b031681336001600160a01b03167f68c7f8503283c455a4445b54a7d5c40656c8cae5cca0583c6d4be836984787008686604051610e249291906136b4565b60405180910390a4505050565b6000610e4489338a8a8a8a8a8a8a6124f8565b61013554604051633664a8e960e01b81526000916001600160a01b031690633664a8e990610e78908c908c906004016136b4565b602060405180830381865afa158015610e95573d6000803e3d6000fd5b505050506040513d601f19601f82011682018060405250810190610eb991906136c8565b6101355460405163e3ee9c4d60e01b8152600481018390526001600160a01b038d8116602483015292935091169063e3ee9c4d90604401602060405180830381865afa158015610f0d573d6000803e3d6000fd5b505050506040513d601f19601f82011682018060405250810190610f3191906136e1565b610f7d5760405162461bcd60e51b815260206004820152601860248201527f6d65726b6c6554616b653a20756e617574686f72697a6564000000000000000060448201526064016106e7565b610f89338a8a84612201565b9a9950505050505050505050565b6001600160a01b037f0000000000000000000000000000000000000000000000000000000000000000163003610fdf5760405162461bcd60e51b81526004016106e790613703565b7f00000000000000000000000000000000000000000000000000000000000000006001600160a01b0316611028600080516020613b08833981519152546001600160a01b031690565b6001600160a01b03161461104e5760405162461bcd60e51b81526004016106e79061374f565b61105782612380565b61106382826001612388565b5050565b6000306001600160a01b037f000000000000000000000000000000000000000000000000000000000000000016146111075760405162461bcd60e51b815260206004820152603860248201527f555550535570677261646561626c653a206d757374206e6f742062652063616c60448201527f6c6564207468726f7567682064656c656761746563616c6c000000000000000060648201526084016106e7565b50600080516020613b0883398151915290565b6000818152610132602052604081205482906001600160a01b03166111515760405162461bcd60e51b81526004016106e790613656565b5050600090815261013260205260409020546001600160a01b031690565b60006001600160a01b0382166111da5760405162461bcd60e51b815260206004820152602a60248201527f62616c616e63654f663a2061646472657373283029206973206e6f742061207660448201526930b634b21037bbb732b960b11b60648201526084016106e7565b506001600160a01b03166000908152610134602052604090205490565b6111ff612685565b61120960006126df565b565b6000828152610132602052604090205482906001600160a01b03166112425760405162461bcd60e51b81526004016106e790613656565b6101355460405163e3ee9c4d60e01b8152600481018690523360248201526001600160a01b039091169063e3ee9c4d90604401602060405180830381865afa158015611292573d6000803e3d6000fd5b505050506040513d601f19601f820116820180604052508101906112b691906136e1565b6113025760405162461bcd60e51b815260206004820152601960248201527f7265766f6b6542616467653a20756e617574686f72697a65640000000000000060448201526064016106e7565b600883901c60009081526101376020526040902054600160ff85161b16156113775760405162461bcd60e51b815260206004820152602260248201527f7265766f6b6542616467653a20626164676520616c7265616479207265766f6b604482015261195960f21b60648201526084016106e7565b600883901c6000908152610137602052604090208054600160ff86161b17905560405160ff831690339085907ffa784c48260e8db512de5f055a2f29eced211a7b3bd6338058b095ada7354cee90600090a450505050565b6000818152610132602052604090205481906001600160a01b03166114065760405162461bcd60e51b81526004016106e790613656565b6101355460405163e3ee9c4d60e01b8152600481018590523360248201526001600160a01b039091169063e3ee9c4d90604401602060405180830381865afa158015611456573d6000803e3d6000fd5b505050506040513d601f19601f8201168201806040525081019061147a91906136e1565b6114c65760405162461bcd60e51b815260206004820152601c60248201527f7265696e737461746542616467653a20756e617574686f72697a65640000000060448201526064016106e7565b600882901c60009081526101376020526040902054600160ff84161b166115395760405162461bcd60e51b815260206004820152602160248201527f7265696e737461746542616467653a206261646765206e6f74207265766f6b656044820152601960fa1b60648201526084016106e7565b600882901c600090815261013760205260408082208054600160ff87161b1916905551339184917f7f8cf9ecf2a5225948f8a1601709cedc8471c52ee75a8174c9845c29c99ed9a29190a3505050565b600061160c7fa1cd8d39eb877323a4bcf08188675058ee9a4534d4c79021300b3722aeda505d8585856040516115c0929190613821565b6040519081900381206115f19392916020019283526001600160a01b03919091166020830152604082015260600190565b60405160208183030381529060405280519060200120612731565b90505b9392505050565b6060610131805461062d90613622565b8481146116935760405162461bcd60e51b815260206004820152603560248201527f67697665546f4d616e793a20726563697069656e747320616e64207369676e616044820152740e8eae4cae640d8cadccee8d040dad2e6dac2e8c6d605b1b60648201526084016106e7565b61013554604051633664a8e960e01b81526000916001600160a01b031690633664a8e9906116c790889088906004016136b4565b602060405180830381865afa1580156116e4573d6000803e3d6000fd5b505050506040513d601f19601f8201168201806040525081019061170891906136c8565b6101355460405163e3ee9c4d60e01b8152600481018390523360248201529192506001600160a01b03169063e3ee9c4d90604401602060405180830381865afa158015611759573d6000803e3d6000fd5b505050506040513d601f19601f8201168201806040525081019061177d91906136e1565b6117c95760405162461bcd60e51b815260206004820152601860248201527f67697665546f4d616e793a20756e617574686f72697a6564000000000000000060448201526064016106e7565b60005b8681101561183d5761182a8888838181106117e9576117e961379b565b90506020020160208101906117fe919061307c565b87878787868181106118125761181261379b565b90506020028101906118249190613831565b8761277f565b5080611835816137c7565b9150506117cc565b5050505050505050565b600061185733878787878761279b565b61013554604051633664a8e960e01b81526000916001600160a01b031690633664a8e99061188b90899089906004016136b4565b602060405180830381865afa1580156118a8573d6000803e3d6000fd5b505050506040513d601f19601f820116820180604052508101906118cc91906136c8565b6101355460405163e3ee9c4d60e01b8152600481018390526001600160a01b038a8116602483015292935091169063e3ee9c4d90604401602060405180830381865afa158015611920573d6000803e3d6000fd5b505050506040513d601f19601f8201168201806040525081019061194491906136e1565b6119855760405162461bcd60e51b81526020600482015260126024820152711d185ad94e881d5b985d5d1a1bdc9a5e995960721b60448201526064016106e7565b61090333878784612201565b60008383836040516020016119a893929190613877565b6040516020818303038152906040528051906020012090509392505050565b6000611a367f6d0d990916a9f9c9e0896e59ce7f5ddddff333d0c8772438ce004fa7719b164b8686866040516119fe929190613821565b6040519081900381206115f193929187906020019384526001600160a01b039290921660208401526040830152606082015260800190565b90505b949350505050565b611a49612685565b80611aa55760405162461bcd60e51b815260206004820152602660248201527f726566726573684d657461646174613a206e6f207370656320757269732070726044820152651bdd9a59195960d21b60648201526084016106e7565b7f2231d988b1a75dccab13dee3564b71a551900e822e94177a96f19561890c0fd5828233604051611ad89392919061389c565b60405180910390a15050565b611aec612685565b61013580546001600160a01b0319166001600160a01b0392909216919091179055565b600081815261013260205260409020546060906001600160a01b0316611b775760405162461bcd60e51b815260206004820152601d60248201527f746f6b656e5552493a20746f6b656e20646f65736e277420657869737400000060448201526064016106e7565b6000828152610133602052604090208054611b9190613622565b80601f0160208091040260200160405190810160405280929190818152602001828054611bbd90613622565b8015611c0a5780601f10611bdf57610100808354040283529160200191611c0a565b820191906000526020600020905b815481529060010190602001808311611bed57829003601f168201915b50505050509050919050565b6000818152610132602052604090205481906001600160a01b0316611c4d5760405162461bcd60e51b81526004016106e790613656565b600082815261013260205260409020546001600160a01b03163314611cb45760405162461bcd60e51b815260206004820152601d60248201527f756e65717569703a2073656e646572206d757374206265206f776e657200000060448201526064016106e7565b61106382612841565b600054610100900460ff1615808015611cdd5750600054600160ff909116105b80611cf75750303b158015611cf7575060005460ff166001145b611d5a5760405162461bcd60e51b815260206004820152602e60248201527f496e697469616c697a61626c653a20636f6e747261637420697320616c72656160448201526d191e481a5b9a5d1a585b1a5e995960921b60648201526084016106e7565b6000805460ff191660011790558015611d7d576000805461ff0019166101001790555b610130611d8b898b8361398b565b50610131611d9a87898361398b565b5061013580546001600160a01b0319166001600160a01b038416179055611dbf6128ec565b611dc7612913565b611e3a89898080601f01602080910402602001604051908101604052809392919081815260200183838082843760009201919091525050604080516020601f8b01819004810282018101909252898152925089915088908190840183828082843760009201919091525061294292505050565b611e426128ec565b611e4b83612049565b8015611e91576000805461ff0019169055604051600181527f7f26b83ff96e1f2b6a682f133852f6798a09c465da95921460cefb38474024989060200160405180910390a15b505050505050505050565b6000611a367fe76a195fbe43f0eaa611595069f780493db2202a1cc4b2d7d44b47069812998a86868686604051611ed4929190613821565b6040519081900381206115f1949392916020019384526001600160a01b03928316602085015291166040830152606082015260800190565b61013554604051633664a8e960e01b815260009182916001600160a01b0390911690633664a8e990611f4490899089906004016136b4565b602060405180830381865afa158015611f61573d6000803e3d6000fd5b505050506040513d601f19601f82011682018060405250810190611f8591906136c8565b6101355460405163e3ee9c4d60e01b8152600481018390523360248201529192506001600160a01b03169063e3ee9c4d90604401602060405180830381865afa158015611fd6573d6000803e3d6000fd5b505050506040513d601f19601f82011682018060405250810190611ffa91906136e1565b61203b5760405162461bcd60e51b815260206004820152601260248201527119da5d994e881d5b985d5d1a1bdc9a5e995960721b60448201526064016106e7565b61090387878787878661277f565b612051612685565b6001600160a01b0381166120b65760405162461bcd60e51b815260206004820152602660248201527f4f776e61626c653a206e6577206f776e657220697320746865207a65726f206160448201526564647265737360d01b60648201526084016106e7565b6109ea816126df565b60008060006120ce8585612973565b909250905060008160048111156120e7576120e7613a4b565b1480156121055750856001600160a01b0316826001600160a01b0316145b156121155760019250505061160f565b600080876001600160a01b0316631626ba7e60e01b888860405160240161213d929190613a61565b60408051601f198184030181529181526020820180516001600160e01b03166001600160e01b031990941693909317909252905161217b9190613a7a565b600060405180830381855afa9150503d80600081146121b6576040519150601f19603f3d011682016040523d82523d6000602084013e6121bb565b606091505b50915091508180156121ce575080516020145b80156121f557508051630b135d3f60e11b906121f390830160209081019084016136c8565b145b98975050505050505050565b60008061220f868686611991565b600081815261013260205260409020549091506001600160a01b03161561226f5760405162461bcd60e51b81526020600482015260146024820152736d696e743a20746f6b656e49442065786973747360601b60448201526064016106e7565b6001600160a01b038616600090815261013460205260408120805491612294836137c7565b909155505060008181526101326020908152604080832080546001600160a01b0319166001600160a01b038b1617905561013390915290206122d785878361398b565b5060405181906001600160a01b038816906000907fddf252ad1be2c89b69c2b068fc378daa952ba7f163c4a11628f55a4df523b3ef908290a46101355460405163fb74926160e01b815260048101839052602481018590526001600160a01b039091169063fb74926190604401600060405180830381600087803b15801561235e57600080fd5b505af1158015612372573d6000803e3d6000fd5b509298975050505050505050565b6109ea612685565b7f4910fdfa16fed3260ed0e7147f7cc6da11a60208b5b9406d12a635614ffd91435460ff16156123c0576123bb836129e1565b505050565b826001600160a01b03166352d1902d6040518163ffffffff1660e01b8152600401602060405180830381865afa92505050801561241a575060408051601f3d908101601f19168201909252612417918101906136c8565b60015b61247d5760405162461bcd60e51b815260206004820152602e60248201527f45524331393637557067726164653a206e657720696d706c656d656e7461746960448201526d6f6e206973206e6f74205555505360901b60648201526084016106e7565b600080516020613b0883398151915281146124ec5760405162461bcd60e51b815260206004820152602960248201527f45524331393637557067726164653a20756e737570706f727465642070726f786044820152681a58589b195555525160ba1b60648201526084016106e7565b506123bb838383612a7d565b612544896125088b8a8a886119c7565b87878080601f0160208091040260200160405190810160405280939291908181526020018383808284376000920191909152506120bf92505050565b6125a45760405162461bcd60e51b815260206004820152602b60248201527f73616665436865636b4d65726b6c6541677265656d656e743a20696e76616c6960448201526a64207369676e617475726560a81b60648201526084016106e7565b6040516bffffffffffffffffffffffff1960608a901b16602082015260009060340160405160208183030381529060405280519060200120905061261e838380806020026020016040519081016040528093929190818152602001838360200280828437600092019190915250889250859150612aa89050565b6126795760405162461bcd60e51b815260206004820152602660248201527f73616665436865636b4d65726b6c6541677265656d656e743a20696e76616c6960448201526532103632b0b360d11b60648201526084016106e7565b50505050505050505050565b60c9546001600160a01b031633146112095760405162461bcd60e51b815260206004820181905260248201527f4f776e61626c653a2063616c6c6572206973206e6f7420746865206f776e657260448201526064016106e7565b60c980546001600160a01b038381166001600160a01b0319831681179093556040519116919082907f8be0079c531659141344cd1fd0a4f28419497f9722a3daafe3b4186f6b6457e090600090a35050565b600061061761273e612abe565b8360405161190160f01b6020820152602281018390526042810182905260009060620160405160208183030381529060405280519060200120905092915050565b600061278f33888888888861279b565b61090387878785612201565b6127e7856127ab88888888611e9c565b84848080601f0160208091040260200160405190810160405280939291908181526020018383808284376000920191909152506120bf92505050565b610b6b5760405162461bcd60e51b815260206004820152602560248201527f73616665436865636b41677265656d656e743a20696e76616c6964207369676e604482015264617475726560d81b60648201526084016106e7565b600081815261013260209081526040808320546001600160a01b031680845261013490925282208054919260019261287a908490613a96565b909155505060008281526101326020908152604080832080546001600160a01b031916905561013390915281206128b091612eb0565b60405182906000906001600160a01b038416907fddf252ad1be2c89b69c2b068fc378daa952ba7f163c4a11628f55a4df523b3ef908390a45050565b600054610100900460ff166112095760405162461bcd60e51b81526004016106e790613aa9565b600054610100900460ff1661293a5760405162461bcd60e51b81526004016106e790613aa9565b611209612afa565b600054610100900460ff166129695760405162461bcd60e51b81526004016106e790613aa9565b6110638282612b2a565b60008082516041036129a95760208301516040840151606085015160001a61299d87828585612b6b565b945094505050506129da565b82516040036129d257602083015160408401516129c7868383612c58565b9350935050506129da565b506000905060025b9250929050565b6001600160a01b0381163b612a4e5760405162461bcd60e51b815260206004820152602d60248201527f455243313936373a206e657720696d706c656d656e746174696f6e206973206e60448201526c1bdd08184818dbdb9d1c9858dd609a1b60648201526084016106e7565b600080516020613b0883398151915280546001600160a01b0319166001600160a01b0392909216919091179055565b612a8683612c91565b600082511180612a935750805b156123bb57612aa28383612cd1565b50505050565b600082612ab58584612dc5565b14949350505050565b6000612af57f8b73c3c69bb8fe3d512ecc4cf759cc79239f7b179b0ffacaa9a75d522b39400f612aed60fb5490565b60fc54612e12565b905090565b600054610100900460ff16612b215760405162461bcd60e51b81526004016106e790613aa9565b611209336126df565b600054610100900460ff16612b515760405162461bcd60e51b81526004016106e790613aa9565b81516020928301208151919092012060fb9190915560fc55565b6000807f7fffffffffffffffffffffffffffffff5d576e7357a4501ddfe92f46681b20a0831115612ba25750600090506003612c4f565b8460ff16601b14158015612bba57508460ff16601c14155b15612bcb5750600090506004612c4f565b6040805160008082526020820180845289905260ff881692820192909252606081018690526080810185905260019060a0016020604051602081039080840390855afa158015612c1f573d6000803e3d6000fd5b5050604051601f1901519150506001600160a01b038116612c4857600060019250925050612c4f565b9150600090505b94509492505050565b6000806001600160ff1b03831681612c7560ff86901c601b613af4565b9050612c8387828885612b6b565b935093505050935093915050565b612c9a816129e1565b6040516001600160a01b038216907fbc7cd75a20ee27fd9adebab32041f755214dbc6bffa90cc0225b39da2e5c2d3b90600090a250565b60606001600160a01b0383163b612d395760405162461bcd60e51b815260206004820152602660248201527f416464726573733a2064656c65676174652063616c6c20746f206e6f6e2d636f6044820152651b9d1c9858dd60d21b60648201526084016106e7565b600080846001600160a01b031684604051612d549190613a7a565b600060405180830381855af49150503d8060008114612d8f576040519150601f19603f3d011682016040523d82523d6000602084013e612d94565b606091505b5091509150612dbc8282604051806060016040528060278152602001613b2860279139612e41565b95945050505050565b600081815b8451811015612e0a57612df682868381518110612de957612de961379b565b6020026020010151612e5a565b915080612e02816137c7565b915050612dca565b509392505050565b6040805160208101859052908101839052606081018290524660808201523060a082015260009060c0016119a8565b60608315612e5057508161160f565b61160f8383612e86565b6000818310612e7657600082815260208490526040902061160f565b5060009182526020526040902090565b815115612e965781518083602001fd5b8060405162461bcd60e51b81526004016106e79190612f78565b508054612ebc90613622565b6000825580601f10612ecc575050565b601f0160209004906000526020600020908101906109ea91905b80821115612efa5760008155600101612ee6565b5090565b600060208284031215612f1057600080fd5b81356001600160e01b03198116811461160f57600080fd5b60005b83811015612f43578181015183820152602001612f2b565b50506000910152565b60008151808452612f64816020860160208601612f28565b601f01601f19169290920160200192915050565b60208152600061160f6020830184612f4c565b600060208284031215612f9d57600080fd5b5035919050565b6001600160a01b03811681146109ea57600080fd5b60008083601f840112612fcb57600080fd5b5081356001600160401b03811115612fe257600080fd5b6020830191508360208285010111156129da57600080fd5b60008060008060006060868803121561301257600080fd5b853561301d81612fa4565b945060208601356001600160401b038082111561303957600080fd5b61304589838a01612fb9565b9096509450604088013591508082111561305e57600080fd5b5061306b88828901612fb9565b969995985093965092949392505050565b60006020828403121561308e57600080fd5b813561160f81612fa4565b60008083601f8401126130ab57600080fd5b5081356001600160401b038111156130c257600080fd5b6020830191508360208260051b85010111156129da57600080fd5b600080600080604085870312156130f357600080fd5b84356001600160401b038082111561310a57600080fd5b61311688838901613099565b9096509450602087013591508082111561312f57600080fd5b5061313c87828801612fb9565b95989497509550505050565b60008060006040848603121561315d57600080fd5b83356001600160401b0381111561317357600080fd5b61317f86828701612fb9565b909790965060209590950135949350505050565b60008060008060008060008060a0898b0312156131af57600080fd5b88356131ba81612fa4565b975060208901356001600160401b03808211156131d657600080fd5b6131e28c838d01612fb9565b909950975060408b01359150808211156131fb57600080fd5b6132078c838d01612fb9565b909750955060608b0135945060808b013591508082111561322757600080fd5b506132348b828c01613099565b999c989b5096995094979396929594505050565b634e487b7160e01b600052604160045260246000fd5b6000806040838503121561327157600080fd5b823561327c81612fa4565b915060208301356001600160401b038082111561329857600080fd5b818501915085601f8301126132ac57600080fd5b8135818111156132be576132be613248565b604051601f8201601f19908116603f011681019083821181831017156132e6576132e6613248565b816040528281528860208487010111156132ff57600080fd5b8260208601602083013760006020848301015280955050505050509250929050565b60008060006060848603121561333657600080fd5b8335925060208401359150604084013560ff8116811461335557600080fd5b809150509250925092565b6000806040838503121561337357600080fd5b50508035926020909101359150565b60008060006040848603121561339757600080fd5b83356133a281612fa4565b925060208401356001600160401b038111156133bd57600080fd5b6133c986828701612fb9565b9497909650939450505050565b600080600080600080606087890312156133ef57600080fd5b86356001600160401b038082111561340657600080fd5b6134128a838b01613099565b9098509650602089013591508082111561342b57600080fd5b6134378a838b01612fb9565b9096509450604089013591508082111561345057600080fd5b5061345d89828a01613099565b979a9699509497509295939492505050565b6000806000806060858703121561348557600080fd5b843561349081612fa4565b935060208501356001600160401b038111156134ab57600080fd5b6134b787828801612fb9565b9598909750949560400135949350505050565b600080602083850312156134dd57600080fd5b82356001600160401b038111156134f357600080fd5b6134ff85828601613099565b90969095509350505050565b60008060008060008060008060a0898b03121561352757600080fd5b88356001600160401b038082111561353e57600080fd5b61354a8c838d01612fb9565b909a50985060208b013591508082111561356357600080fd5b61356f8c838d01612fb9565b909850965060408b013591508082111561358857600080fd5b506135958b828c01612fb9565b90955093505060608901356135a981612fa4565b915060808901356135b981612fa4565b809150509295985092959890939650565b600080600080606085870312156135e057600080fd5b84356135eb81612fa4565b935060208501356135fb81612fa4565b925060408501356001600160401b0381111561361657600080fd5b61313c87828801612fb9565b600181811c9082168061363657607f821691505b60208210810361071157634e487b7160e01b600052602260045260246000fd5b6020808252818101527f746f6b656e4578697374733a20746f6b656e20646f65736e2774206578697374604082015260600190565b81835281816020850137506000828201602090810191909152601f909101601f19169091010190565b60208152600061160c60208301848661368b565b6000602082840312156136da57600080fd5b5051919050565b6000602082840312156136f357600080fd5b8151801515811461160f57600080fd5b6020808252602c908201527f46756e6374696f6e206d7573742062652063616c6c6564207468726f7567682060408201526b19195b1959d85d1958d85b1b60a21b606082015260800190565b6020808252602c908201527f46756e6374696f6e206d7573742062652063616c6c6564207468726f7567682060408201526b6163746976652070726f787960a01b606082015260800190565b634e487b7160e01b600052603260045260246000fd5b634e487b7160e01b600052601160045260246000fd5b6000600182016137d9576137d96137b1565b5060010190565b6040815260006137f460408301858761368b565b9050826020830152949350505050565b60006020828403121561381657600080fd5b815161160f81612fa4565b8183823760009101908152919050565b6000808335601e1984360301811261384857600080fd5b8301803591506001600160401b0382111561386257600080fd5b6020019150368190038213156129da57600080fd5b6001600160a01b0384168152604060208201819052600090611a36908301848661368b565b6040808252810183905260006060600585901b8301810190830186835b8781101561392c57858403605f190183528135368a9003601e190181126138df57600080fd5b890160208181019135906001600160401b038211156138fd57600080fd5b81360383131561390c57600080fd5b61391787838561368b565b965094850194939093019250506001016138b9565b5050506001600160a01b03841660208401529050611a39565b601f8211156123bb57600081815260208120601f850160051c8101602086101561396c5750805b601f850160051c820191505b81811015610b6b57828155600101613978565b6001600160401b038311156139a2576139a2613248565b6139b6836139b08354613622565b83613945565b6000601f8411600181146139ea57600085156139d25750838201355b600019600387901b1c1916600186901b178355613a44565b600083815260209020601f19861690835b82811015613a1b57868501358255602094850194600190920191016139fb565b5086821015613a385760001960f88860031b161c19848701351681555b505060018560011b0183555b5050505050565b634e487b7160e01b600052602160045260246000fd5b82815260406020820152600061160c6040830184612f4c565b60008251613a8c818460208701612f28565b9190910192915050565b81810381811115610617576106176137b1565b6020808252602b908201527f496e697469616c697a61626c653a20636f6e7472616374206973206e6f74206960408201526a6e697469616c697a696e6760a81b606082015260800190565b80820180821115610617576106176137b156fe360894a13ba1a3210667c828492db98dca3e2076cc3735a920a3ca505d382bbc416464726573733a206c6f772d6c6576656c2064656c65676174652063616c6c206661696c6564a2646970667358221220b65e681f37ce1defb3f156f6e9d4169efbf809a2b066e7adaf41ac62bedda98264736f6c63430008100033",
    "linkReferences": {}
  },
  "methodIdentifiers": {
    "airdrop(address[],string)": "39ae37c0",
    "balanceOf(address)": "70a08231",
    "createSpec(string,uint256)": "445a62b9",
    "getAgreementHash(address,address,string)": "e4992506",
    "getBadgeIdHash(address,string)": "a8cf8683",
    "getDataHolderAddress()": "635ad993",
    "getMerkleAgreementHash(address,string,bytes32)": "bd6645e4",
    "getRequestHash(address,string)": "8339a133",
    "give(address,string,bytes)": "ec64948e",
    "giveRequestedBadge(address,string,bytes)": "1766c038",
    "giveToMany(address[],string,bytes[])": "a32c9c7a",
    "initialize(string,string,string,address,address)": "d6d0faee",
    "isBadgeValid(uint256)": "0f4d9b01",
    "merkleTake(address,string,bytes,bytes32,bytes32[])": "4a086b53",
    "name()": "06fdde03",
    "owner()": "8da5cb5b",
    "ownerOf(uint256)": "6352211e",
    "proxiableUUID()": "52d1902d",
    "refreshMetadata(string[])": "bdbdbcbf",
    "reinstateBadge(uint256,uint256)": "80956c7e",
    "renounceOwnership()": "715018a6",
    "revokeBadge(uint256,uint256,uint8)": "7c402f8d",
    "setDataHolder(address)": "c0184112",
    "supportsInterface(bytes4)": "01ffc9a7",
    "symbol()": "95d89b41",
    "take(address,string,bytes)": "a3947803",
    "tokenURI(uint256)": "c87b56dd",
    "transferOwnership(address)": "f2fde38b",
    "unequip(uint256)": "d179e3d0",
    "upgradeTo(address)": "3659cfe6",
    "upgradeToAndCall(address,bytes)": "4f1ef286"
  },
  "id": 46
}