{
  "abi": [
    {
      "inputs": [
        {
          "internalType": "string",
          "name": "name",
          "type": "string"
        },
        {
          "internalType": "string",
          "name": "symbol",
          "type": "string"
        },
        {
          "internalType": "string",
          "name": "version",
          "type": "string"
        }
      ],
      "stateMutability": "nonpayable",
      "type": "constructor"
    },
    {
      "anonymous": false,
      "inputs": [
        {
          "indexed": true,
          "internalType": "address",
          "name": "from",
          "type": "address"
        },
        {
          "indexed": true,
          "internalType": "address",
          "name": "to",
          "type": "address"
        },
        {
          "indexed": true,
          "internalType": "uint256",
          "name": "tokenId",
          "type": "uint256"
        }
      ],
      "name": "Transfer",
      "type": "event"
    },
    {
      "inputs": [
        {
          "internalType": "address",
          "name": "owner",
          "type": "address"
        }
      ],
      "name": "balanceOf",
      "outputs": [
        {
          "internalType": "uint256",
          "name": "",
          "type": "uint256"
        }
      ],
      "stateMutability": "view",
      "type": "function"
    },
    {
      "inputs": [
        {
          "internalType": "address",
          "name": "from",
          "type": "address"
        },
        {
          "internalType": "address",
          "name": "to",
          "type": "address"
        },
        {
          "internalType": "string",
          "name": "tokenURI",
          "type": "string"
        }
      ],
      "name": "getHash",
      "outputs": [
        {
          "internalType": "bytes32",
          "name": "",
          "type": "bytes32"
        }
      ],
      "stateMutability": "view",
      "type": "function"
    },
    {
      "inputs": [
        {
          "internalType": "address",
          "name": "to",
          "type": "address"
        },
        {
          "internalType": "string",
          "name": "uri",
          "type": "string"
        },
        {
          "internalType": "bytes",
          "name": "signature",
          "type": "bytes"
        }
      ],
      "name": "give",
      "outputs": [
        {
          "internalType": "uint256",
          "name": "",
          "type": "uint256"
        }
      ],
      "stateMutability": "nonpayable",
      "type": "function"
    },
    {
      "inputs": [
        {
          "internalType": "address",
          "name": "to",
          "type": "address"
        },
        {
          "internalType": "uint256",
          "name": "tokenId",
          "type": "uint256"
        },
        {
          "internalType": "string",
          "name": "uri",
          "type": "string"
        }
      ],
      "name": "mint",
      "outputs": [
        {
          "internalType": "uint256",
          "name": "",
          "type": "uint256"
        }
      ],
      "stateMutability": "nonpayable",
      "type": "function"
    },
    {
      "inputs": [],
      "name": "name",
      "outputs": [
        {
          "internalType": "string",
          "name": "",
          "type": "string"
        }
      ],
      "stateMutability": "view",
      "type": "function"
    },
    {
      "inputs": [
        {
          "internalType": "uint256",
          "name": "tokenId",
          "type": "uint256"
        }
      ],
      "name": "ownerOf",
      "outputs": [
        {
          "internalType": "address",
          "name": "",
          "type": "address"
        }
      ],
      "stateMutability": "view",
      "type": "function"
    },
    {
      "inputs": [
        {
          "internalType": "bytes4",
          "name": "interfaceId",
          "type": "bytes4"
        }
      ],
      "name": "supportsInterface",
      "outputs": [
        {
          "internalType": "bool",
          "name": "",
          "type": "bool"
        }
      ],
      "stateMutability": "view",
      "type": "function"
    },
    {
      "inputs": [],
      "name": "symbol",
      "outputs": [
        {
          "internalType": "string",
          "name": "",
          "type": "string"
        }
      ],
      "stateMutability": "view",
      "type": "function"
    },
    {
      "inputs": [
        {
          "internalType": "address",
          "name": "from",
          "type": "address"
        },
        {
          "internalType": "string",
          "name": "uri",
          "type": "string"
        },
        {
          "internalType": "bytes",
          "name": "signature",
          "type": "bytes"
        }
      ],
      "name": "take",
      "outputs": [
        {
          "internalType": "uint256",
          "name": "",
          "type": "uint256"
        }
      ],
      "stateMutability": "nonpayable",
      "type": "function"
    },
    {
      "inputs": [
        {
          "internalType": "uint256",
          "name": "tokenId",
          "type": "uint256"
        }
      ],
      "name": "tokenURI",
      "outputs": [
        {
          "internalType": "string",
          "name": "",
          "type": "string"
        }
      ],
      "stateMutability": "view",
      "type": "function"
    },
    {
      "inputs": [
        {
          "internalType": "uint256",
          "name": "tokenId",
          "type": "uint256"
        }
      ],
      "name": "unequip",
      "outputs": [],
      "stateMutability": "nonpayable",
      "type": "function"
    }
  ],
  "bytecode": {
    "object": "0x6101406040523480156200001257600080fd5b5060405162001827380380620018278339810160408190526200003591620001be565b825160208085019190912082518383012060e08290526101008190524660a0818152604080517f8b73c3c69bb8fe3d512ecc4cf759cc79239f7b179b0ffacaa9a75d522b39400f818801819052818301969096526060810194909452608080850193909352308483018190528151808603909301835260c094850190915281519190950120905291909152610120528282826001620000d58482620002de565b506002620000e48382620002de565b50505050505050620003aa565b634e487b7160e01b600052604160045260246000fd5b600082601f8301126200011957600080fd5b81516001600160401b0380821115620001365762000136620000f1565b604051601f8301601f19908116603f01168101908282118183101715620001615762000161620000f1565b816040528381526020925086838588010111156200017e57600080fd5b600091505b83821015620001a2578582018301518183018401529082019062000183565b83821115620001b45760008385830101525b9695505050505050565b600080600060608486031215620001d457600080fd5b83516001600160401b0380821115620001ec57600080fd5b620001fa8783880162000107565b945060208601519150808211156200021157600080fd5b6200021f8783880162000107565b935060408601519150808211156200023657600080fd5b50620002458682870162000107565b9150509250925092565b600181811c908216806200026457607f821691505b6020821081036200028557634e487b7160e01b600052602260045260246000fd5b50919050565b601f821115620002d957600081815260208120601f850160051c81016020861015620002b45750805b601f850160051c820191505b81811015620002d557828155600101620002c0565b5050505b505050565b81516001600160401b03811115620002fa57620002fa620000f1565b62000312816200030b84546200024f565b846200028b565b602080601f8311600181146200034a5760008415620003315750858301515b600019600386901b1c1916600185901b178555620002d5565b600085815260208120601f198616915b828110156200037b578886015182559484019460019091019084016200035a565b50858210156200039a5787850151600019600388901b60f8161c191681555b5050505050600190811b01905550565b60805160a05160c05160e051610100516101205161142d620003fa6000396000610ce901526000610d3801526000610d1301526000610c6c01526000610c9601526000610cc0015261142d6000f3fe608060405234801561001057600080fd5b50600436106100a95760003560e01c8063a394780311610071578063a39478031461013f578063c5cf33c214610152578063c87b56dd14610165578063d179e3d014610178578063d3fc98641461018d578063ec64948e146101a057600080fd5b806301ffc9a7146100ae57806306fdde03146100d65780636352211e146100eb57806370a082311461011657806395d89b4114610137575b600080fd5b6100c16100bc366004610f10565b6101b3565b60405190151581526020015b60405180910390f35b6100de610205565b6040516100cd9190610f89565b6100fe6100f9366004610f9c565b610297565b6040516001600160a01b0390911681526020016100cd565b610129610124366004610fd1565b610301565b6040519081526020016100cd565b6100de61038a565b61012961014d36600461102e565b610399565b6101296101603660046110af565b610471565b6100de610173366004610f9c565b610488565b61018b610186366004610f9c565b61058d565b005b61012961019b366004611126565b610622565b6101296101ae36600461102e565b610639565b60006001600160e01b03198216635b5e139f60e01b14806101e457506001600160e01b031982166346bdd63960e11b145b806101ff57506301ffc9a760e01b6001600160e01b03198316145b92915050565b606060018054610214906111f1565b80601f0160208091040260200160405190810160405280929190818152602001828054610240906111f1565b801561028d5780601f106102625761010080835404028352916020019161028d565b820191906000526020600020905b81548152906001019060200180831161027057829003601f168201915b5050505050905090565b6000818152600360205260408120546001600160a01b0316806101ff5760405162461bcd60e51b815260206004820152601c60248201527f6f776e65724f663a20746f6b656e20646f65736e27742065786973740000000060448201526064015b60405180910390fd5b60006001600160a01b03821661036e5760405162461bcd60e51b815260206004820152602c60248201527f62616c616e63654f663a2061646472657373207a65726f206973206e6f74206160448201526b103b30b634b21037bbb732b960a11b60648201526084016102f8565b506001600160a01b031660009081526005602052604090205490565b606060028054610214906111f1565b60006001600160a01b03861633036103f35760405162461bcd60e51b815260206004820152601b60248201527f74616b653a2063616e6e6f742074616b652066726f6d2073656c66000000000060448201526064016102f8565b60006104033388888888886106e6565b9050610446338288888080601f01602080910402602001604051908101604052809392919081815260200183838082843760009201919091525061081a92505050565b50600881901c60009081526020819052604090208054600160ff84161b1790555b9695505050505050565b600061047f85858585610920565b95945050505050565b6000818152600360205260409020546060906001600160a01b03166104ef5760405162461bcd60e51b815260206004820152601d60248201527f746f6b656e5552493a20746f6b656e20646f65736e277420657869737400000060448201526064016102f8565b60008281526004602052604090208054610508906111f1565b80601f0160208091040260200160405190810160405280929190818152602001828054610534906111f1565b80156105815780601f1061055657610100808354040283529160200191610581565b820191906000526020600020905b81548152906001019060200180831161056457829003601f168201915b50505050509050919050565b61059681610297565b6001600160a01b0316336001600160a01b0316146105f65760405162461bcd60e51b815260206004820152601d60248201527f756e65717569703a2073656e646572206d757374206265206f776e657200000060448201526064016102f8565b600881901c60009081526020819052604090208054600160ff84161b1916905561061f816109af565b50565b600061062f84848461081a565b90505b9392505050565b60006001600160a01b03861633036106935760405162461bcd60e51b815260206004820152601b60248201527f676976653a2063616e6e6f7420676976652066726f6d2073656c66000000000060448201526064016102f8565b60006106a33388888888886106e6565b9050610446878288888080601f01602080910402602001604051908101604052809392919081815260200183838082843760009201919091525061081a92505050565b6000806106f588888888610920565b905060008160001c9050610740888387878080601f016020809104026020016040519081016040528093929190818152602001838380828437600092019190915250610a5892505050565b61079b5760405162461bcd60e51b815260206004820152602660248201527f5f73616665436865636b41677265656d656e743a20696e76616c6964207369676044820152656e617475726560d01b60648201526084016102f8565b600881901c600090815260208190526040902054600160ff83161b161561080e5760405162461bcd60e51b815260206004820152602160248201527f5f73616665436865636b41677265656d656e743a20616c7265616479207573656044820152601960fa1b60648201526084016102f8565b98975050505050505050565b6000828152600360205260408120546001600160a01b0316156108765760405162461bcd60e51b81526020600482015260146024820152736d696e743a20746f6b656e49442065786973747360601b60448201526064016102f8565b6001600160a01b038416600090815260056020526040812080546001929061089f908490611241565b9091555050600083815260036020908152604080832080546001600160a01b0319166001600160a01b038916179055600490915290206108df83826112a8565b5060405183906001600160a01b038616906000907fddf252ad1be2c89b69c2b068fc378daa952ba7f163c4a11628f55a4df523b3ef908290a4509092915050565b6000807fe76a195fbe43f0eaa611595069f780493db2202a1cc4b2d7d44b47069812998a86868686604051610956929190611368565b60405190819003812061098e949392916020019384526001600160a01b03928316602085015291166040830152606082015260800190565b60405160208183030381529060405280519060200120905061046781610ba3565b60006109ba82610297565b6001600160a01b038116600090815260056020526040812080549293506001929091906109e8908490611378565b9091555050600082815260036020908152604080832080546001600160a01b031916905560049091528120610a1c91610eac565b60405182906000906001600160a01b038416907fddf252ad1be2c89b69c2b068fc378daa952ba7f163c4a11628f55a4df523b3ef908390a45050565b6000806000610a678585610bf1565b90925090506000816004811115610a8057610a8061138f565b148015610a9e5750856001600160a01b0316826001600160a01b0316145b15610aae57600192505050610632565b600080876001600160a01b0316631626ba7e60e01b8888604051602401610ad69291906113a5565b60408051601f198184030181529181526020820180516001600160e01b03166001600160e01b0319909416939093179092529051610b1491906113be565b600060405180830381855afa9150503d8060008114610b4f576040519150601f19603f3d011682016040523d82523d6000602084013e610b54565b606091505b5091509150818015610b67575080516020145b801561080e57508051630b135d3f60e11b90610b8c90830160209081019084016113da565b6001600160e01b0319161498975050505050505050565b60006101ff610bb0610c5f565b8360405161190160f01b6020820152602281018390526042810182905260009060620160405160208183030381529060405280519060200120905092915050565b6000808251604103610c275760208301516040840151606085015160001a610c1b87828585610d86565b94509450505050610c58565b8251604003610c505760208301516040840151610c45868383610e73565b935093505050610c58565b506000905060025b9250929050565b6000306001600160a01b037f000000000000000000000000000000000000000000000000000000000000000016148015610cb857507f000000000000000000000000000000000000000000000000000000000000000046145b15610ce257507f000000000000000000000000000000000000000000000000000000000000000090565b50604080517f00000000000000000000000000000000000000000000000000000000000000006020808301919091527f0000000000000000000000000000000000000000000000000000000000000000828401527f000000000000000000000000000000000000000000000000000000000000000060608301524660808301523060a0808401919091528351808403909101815260c0909201909252805191012090565b6000807f7fffffffffffffffffffffffffffffff5d576e7357a4501ddfe92f46681b20a0831115610dbd5750600090506003610e6a565b8460ff16601b14158015610dd557508460ff16601c14155b15610de65750600090506004610e6a565b6040805160008082526020820180845289905260ff881692820192909252606081018690526080810185905260019060a0016020604051602081039080840390855afa158015610e3a573d6000803e3d6000fd5b5050604051601f1901519150506001600160a01b038116610e6357600060019250925050610e6a565b9150600090505b94509492505050565b6000806001600160ff1b03831681610e9060ff86901c601b611241565b9050610e9e87828885610d86565b935093505050935093915050565b508054610eb8906111f1565b6000825580601f10610ec8575050565b601f01602090049060005260206000209081019061061f91905b80821115610ef65760008155600101610ee2565b5090565b6001600160e01b03198116811461061f57600080fd5b600060208284031215610f2257600080fd5b813561063281610efa565b60005b83811015610f48578181015183820152602001610f30565b83811115610f57576000848401525b50505050565b60008151808452610f75816020860160208601610f2d565b601f01601f19169290920160200192915050565b6020815260006106326020830184610f5d565b600060208284031215610fae57600080fd5b5035919050565b80356001600160a01b0381168114610fcc57600080fd5b919050565b600060208284031215610fe357600080fd5b61063282610fb5565b60008083601f840112610ffe57600080fd5b50813567ffffffffffffffff81111561101657600080fd5b602083019150836020828501011115610c5857600080fd5b60008060008060006060868803121561104657600080fd5b61104f86610fb5565b9450602086013567ffffffffffffffff8082111561106c57600080fd5b61107889838a01610fec565b9096509450604088013591508082111561109157600080fd5b5061109e88828901610fec565b969995985093965092949392505050565b600080600080606085870312156110c557600080fd5b6110ce85610fb5565b93506110dc60208601610fb5565b9250604085013567ffffffffffffffff8111156110f857600080fd5b61110487828801610fec565b95989497509550505050565b634e487b7160e01b600052604160045260246000fd5b60008060006060848603121561113b57600080fd5b61114484610fb5565b925060208401359150604084013567ffffffffffffffff8082111561116857600080fd5b818601915086601f83011261117c57600080fd5b81358181111561118e5761118e611110565b604051601f8201601f19908116603f011681019083821181831017156111b6576111b6611110565b816040528281528960208487010111156111cf57600080fd5b8260208601602083013760006020848301015280955050505050509250925092565b600181811c9082168061120557607f821691505b60208210810361122557634e487b7160e01b600052602260045260246000fd5b50919050565b634e487b7160e01b600052601160045260246000fd5b600082198211156112545761125461122b565b500190565b601f8211156112a357600081815260208120601f850160051c810160208610156112805750805b601f850160051c820191505b8181101561129f5782815560010161128c565b5050505b505050565b815167ffffffffffffffff8111156112c2576112c2611110565b6112d6816112d084546111f1565b84611259565b602080601f83116001811461130b57600084156112f35750858301515b600019600386901b1c1916600185901b17855561129f565b600085815260208120601f198616915b8281101561133a5788860151825594840194600190910190840161131b565b50858210156113585787850151600019600388901b60f8161c191681555b5050505050600190811b01905550565b8183823760009101908152919050565b60008282101561138a5761138a61122b565b500390565b634e487b7160e01b600052602160045260246000fd5b82815260406020820152600061062f6040830184610f5d565b600082516113d0818460208701610f2d565b9190910192915050565b6000602082840312156113ec57600080fd5b815161063281610efa56fea2646970667358221220dcea5b3a207e837515213d63d1501d5db402c85fd3ae9116359b38b3229cc93f64736f6c634300080f0033",
    "linkReferences": {}
  },
  "methodIdentifiers": {
    "balanceOf(address)": "70a08231",
    "getHash(address,address,string)": "c5cf33c2",
    "give(address,string,bytes)": "ec64948e",
    "mint(address,uint256,string)": "d3fc9864",
    "name()": "06fdde03",
    "ownerOf(uint256)": "6352211e",
    "supportsInterface(bytes4)": "01ffc9a7",
    "symbol()": "95d89b41",
    "take(address,string,bytes)": "a3947803",
    "tokenURI(uint256)": "c87b56dd",
    "unequip(uint256)": "d179e3d0"
  },
  "id": 23
}