{
  "abi": [
    {
      "anonymous": false,
      "inputs": [
        {
          "indexed": false,
          "internalType": "address",
          "name": "who",
          "type": "address"
        },
        {
          "indexed": false,
          "internalType": "bytes4",
          "name": "fsig",
          "type": "bytes4"
        },
        {
          "indexed": false,
          "internalType": "bytes32",
          "name": "keysHash",
          "type": "bytes32"
        },
        {
          "indexed": false,
          "internalType": "uint256",
          "name": "slot",
          "type": "uint256"
        }
      ],
      "name": "SlotFound",
      "type": "event"
    },
    {
      "anonymous": false,
      "inputs": [
        {
          "indexed": false,
          "internalType": "address",
          "name": "who",
          "type": "address"
        },
        {
          "indexed": false,
          "internalType": "uint256",
          "name": "slot",
          "type": "uint256"
        }
      ],
      "name": "WARNING_UninitedSlot",
      "type": "event"
    },
    {
      "inputs": [
        {
          "internalType": "bytes",
          "name": "b",
          "type": "bytes"
        },
        {
          "internalType": "uint256",
          "name": "offset",
          "type": "uint256"
        }
      ],
      "name": "bytesToBytes32",
      "outputs": [
        {
          "internalType": "bytes32",
          "name": "",
          "type": "bytes32"
        }
      ],
      "stateMutability": "pure",
      "type": "function"
    }
  ],
  "bytecode": {
    "object": "0x61025661003a600b82828239805160001a60731461002d57634e487b7160e01b600052600060045260246000fd5b30600052607381538281f3fe73000000000000000000000000000000000000000030146080604052600436106100355760003560e01c8063535849391461003a575b600080fd5b61004d6100483660046100f4565b61005f565b60405190815260200160405180910390f35b60008060006020855111610074578451610077565b60205b905060005b818110156100d25761008f8160086101bf565b8661009a83886101de565b815181106100aa576100aa6101f1565b01602001516001600160f81b031916901c9290921791806100ca81610207565b91505061007c565b50909150505b92915050565b634e487b7160e01b600052604160045260246000fd5b6000806040838503121561010757600080fd5b823567ffffffffffffffff8082111561011f57600080fd5b818501915085601f83011261013357600080fd5b813581811115610145576101456100de565b604051601f8201601f19908116603f0116810190838211818310171561016d5761016d6100de565b8160405282815288602084870101111561018657600080fd5b826020860160208301376000602093820184015298969091013596505050505050565b634e487b7160e01b600052601160045260246000fd5b60008160001904831182151516156101d9576101d96101a9565b500290565b808201808211156100d8576100d86101a9565b634e487b7160e01b600052603260045260246000fd5b600060018201610219576102196101a9565b506001019056fea26469706673582212208d2ee54371aa2634eaa93427d6136b0c886281cced459d7fddeb09b8bdeadea364736f6c63430008100033",
    "linkReferences": {}
  },
  "methodIdentifiers": {
    "bytesToBytes32(bytes,uint256)": "53584939"
  },
  "id": 3
}