{
  "_format": "hh-sol-artifact-1",
  "contractName": "Badges",
  "sourceName": "src/Badges.sol",
  "abi": [
    {
      "inputs": [],
      "stateMutability": "nonpayable",
      "type": "constructor"
    },
    {
      "anonymous": false,
      "inputs": [
        {
          "indexed": false,
          "internalType": "address",
          "name": "previousAdmin",
          "type": "address"
        },
        {
          "indexed": false,
          "internalType": "address",
          "name": "newAdmin",
          "type": "address"
        }
      ],
      "name": "AdminChanged",
      "type": "event"
    },
    {
      "anonymous": false,
      "inputs": [
        {
          "indexed": true,
          "internalType": "uint256",
          "name": "tokenId",
          "type": "uint256"
        },
        {
          "indexed": true,
          "internalType": "address",
          "name": "from",
          "type": "address"
        }
      ],
      "name": "BadgeReinstated",
      "type": "event"
    },
    {
      "anonymous": false,
      "inputs": [
        {
          "indexed": true,
          "internalType": "uint256",
          "name": "tokenId",
          "type": "uint256"
        },
        {
          "indexed": true,
          "internalType": "address",
          "name": "from",
          "type": "address"
        },
        {
          "indexed": true,
          "internalType": "uint8",
          "name": "reason",
          "type": "uint8"
        }
      ],
      "name": "BadgeRevoked",
      "type": "event"
    },
    {
      "anonymous": false,
      "inputs": [
        {
          "indexed": true,
          "internalType": "address",
          "name": "beacon",
          "type": "address"
        }
      ],
      "name": "BeaconUpgraded",
      "type": "event"
    },
    {
      "anonymous": false,
      "inputs": [
        {
          "indexed": false,
          "internalType": "uint8",
          "name": "version",
          "type": "uint8"
        }
      ],
      "name": "Initialized",
      "type": "event"
    },
    {
      "anonymous": false,
      "inputs": [
        {
          "indexed": true,
          "internalType": "address",
          "name": "previousOwner",
          "type": "address"
        },
        {
          "indexed": true,
          "internalType": "address",
          "name": "newOwner",
          "type": "address"
        }
      ],
      "name": "OwnershipTransferred",
      "type": "event"
    },
    {
      "anonymous": false,
      "inputs": [
        {
          "indexed": false,
          "internalType": "string[]",
          "name": "specUris",
          "type": "string[]"
        },
        {
          "indexed": false,
          "internalType": "address",
          "name": "sender",
          "type": "address"
        }
      ],
      "name": "RefreshMetadata",
      "type": "event"
    },
    {
      "anonymous": false,
      "inputs": [
        {
          "indexed": true,
          "internalType": "address",
          "name": "to",
          "type": "address"
        },
        {
          "indexed": false,
          "internalType": "string",
          "name": "specUri",
          "type": "string"
        },
        {
          "indexed": true,
          "internalType": "uint256",
          "name": "raftTokenId",
          "type": "uint256"
        },
        {
          "indexed": true,
          "internalType": "address",
          "name": "raftAddress",
          "type": "address"
        }
      ],
      "name": "SpecCreated",
      "type": "event"
    },
    {
      "anonymous": false,
      "inputs": [
        {
          "indexed": true,
          "internalType": "address",
          "name": "from",
          "type": "address"
        },
        {
          "indexed": true,
          "internalType": "address",
          "name": "to",
          "type": "address"
        },
        {
          "indexed": true,
          "internalType": "uint256",
          "name": "tokenId",
          "type": "uint256"
        }
      ],
      "name": "Transfer",
      "type": "event"
    },
    {
      "anonymous": false,
      "inputs": [
        {
          "indexed": true,
          "internalType": "address",
          "name": "implementation",
          "type": "address"
        }
      ],
      "name": "Upgraded",
      "type": "event"
    },
    {
      "inputs": [
        {
          "internalType": "address",
          "name": "_owner",
          "type": "address"
        }
      ],
      "name": "balanceOf",
      "outputs": [
        {
          "internalType": "uint256",
          "name": "",
          "type": "uint256"
        }
      ],
      "stateMutability": "view",
      "type": "function"
    },
    {
      "inputs": [
        {
          "internalType": "string",
          "name": "_specUri",
          "type": "string"
        },
        {
          "internalType": "uint256",
          "name": "_raftTokenId",
          "type": "uint256"
        }
      ],
      "name": "createSpec",
      "outputs": [],
      "stateMutability": "nonpayable",
      "type": "function"
    },
    {
      "inputs": [
        {
          "internalType": "address",
          "name": "_from",
          "type": "address"
        },
        {
          "internalType": "address",
          "name": "_to",
          "type": "address"
        },
        {
          "internalType": "string",
          "name": "_uri",
          "type": "string"
        }
      ],
      "name": "getAgreementHash",
      "outputs": [
        {
          "internalType": "bytes32",
          "name": "",
          "type": "bytes32"
        }
      ],
      "stateMutability": "view",
      "type": "function"
    },
    {
      "inputs": [
        {
          "internalType": "address",
          "name": "_to",
          "type": "address"
        },
        {
          "internalType": "string",
          "name": "_uri",
          "type": "string"
        }
      ],
      "name": "getBadgeIdHash",
      "outputs": [
        {
          "internalType": "bytes32",
          "name": "",
          "type": "bytes32"
        }
      ],
      "stateMutability": "view",
      "type": "function"
    },
    {
      "inputs": [],
      "name": "getDataHolderAddress",
      "outputs": [
        {
          "internalType": "address",
          "name": "",
          "type": "address"
        }
      ],
      "stateMutability": "view",
      "type": "function"
    },
    {
      "inputs": [],
      "name": "getGeorge",
      "outputs": [
        {
          "internalType": "string",
          "name": "",
          "type": "string"
        }
      ],
      "stateMutability": "pure",
      "type": "function"
    },
    {
      "inputs": [
        {
          "internalType": "address",
          "name": "_issuer",
          "type": "address"
        },
        {
          "internalType": "string",
          "name": "_uri",
          "type": "string"
        },
        {
          "internalType": "bytes32",
          "name": "_root",
          "type": "bytes32"
        }
      ],
      "name": "getMerkleAgreementHash",
      "outputs": [
        {
          "internalType": "bytes32",
          "name": "",
          "type": "bytes32"
        }
      ],
      "stateMutability": "view",
      "type": "function"
    },
    {
      "inputs": [
        {
          "internalType": "address",
          "name": "_to",
          "type": "address"
        },
        {
          "internalType": "string",
          "name": "_uri",
          "type": "string"
        },
        {
          "internalType": "bytes",
          "name": "_signature",
          "type": "bytes"
        }
      ],
      "name": "give",
      "outputs": [
        {
          "internalType": "uint256",
          "name": "",
          "type": "uint256"
        }
      ],
      "stateMutability": "nonpayable",
      "type": "function"
    },
    {
      "inputs": [
        {
          "internalType": "address[]",
          "name": "_recipients",
          "type": "address[]"
        },
        {
          "internalType": "string",
          "name": "_uri",
          "type": "string"
        },
        {
          "internalType": "bytes[]",
          "name": "_signatures",
          "type": "bytes[]"
        }
      ],
      "name": "giveToMany",
      "outputs": [],
      "stateMutability": "nonpayable",
      "type": "function"
    },
    {
      "inputs": [
        {
          "internalType": "string",
          "name": "_name",
          "type": "string"
        },
        {
          "internalType": "string",
          "name": "_symbol",
          "type": "string"
        },
        {
          "internalType": "string",
          "name": "_version",
          "type": "string"
        },
        {
          "internalType": "address",
          "name": "_nextOwner",
          "type": "address"
        },
        {
          "internalType": "address",
          "name": "_specDataHolderAddress",
          "type": "address"
        }
      ],
      "name": "initialize",
      "outputs": [],
      "stateMutability": "nonpayable",
      "type": "function"
    },
    {
      "inputs": [
        {
          "internalType": "uint256",
          "name": "_badgeId",
          "type": "uint256"
        }
      ],
      "name": "isBadgeValid",
      "outputs": [
        {
          "internalType": "bool",
          "name": "",
          "type": "bool"
        }
      ],
      "stateMutability": "view",
      "type": "function"
    },
    {
      "inputs": [
        {
          "internalType": "address",
          "name": "_from",
          "type": "address"
        },
        {
          "internalType": "string",
          "name": "_uri",
          "type": "string"
        },
        {
          "internalType": "bytes",
          "name": "_signature",
          "type": "bytes"
        },
        {
          "internalType": "bytes32",
          "name": "root",
          "type": "bytes32"
        },
        {
          "internalType": "bytes32[]",
          "name": "proof",
          "type": "bytes32[]"
        }
      ],
      "name": "merkleTake",
      "outputs": [
        {
          "internalType": "uint256",
          "name": "",
          "type": "uint256"
        }
      ],
      "stateMutability": "nonpayable",
      "type": "function"
    },
    {
      "inputs": [],
      "name": "name",
      "outputs": [
        {
          "internalType": "string",
          "name": "",
          "type": "string"
        }
      ],
      "stateMutability": "view",
      "type": "function"
    },
    {
      "inputs": [],
      "name": "owner",
      "outputs": [
        {
          "internalType": "address",
          "name": "",
          "type": "address"
        }
      ],
      "stateMutability": "view",
      "type": "function"
    },
    {
      "inputs": [
        {
          "internalType": "uint256",
          "name": "_tokenId",
          "type": "uint256"
        }
      ],
      "name": "ownerOf",
      "outputs": [
        {
          "internalType": "address",
          "name": "",
          "type": "address"
        }
      ],
      "stateMutability": "view",
      "type": "function"
    },
    {
      "inputs": [],
      "name": "proxiableUUID",
      "outputs": [
        {
          "internalType": "bytes32",
          "name": "",
          "type": "bytes32"
        }
      ],
      "stateMutability": "view",
      "type": "function"
    },
    {
      "inputs": [
        {
          "internalType": "string[]",
          "name": "_specUris",
          "type": "string[]"
        }
      ],
      "name": "refreshMetadata",
      "outputs": [],
      "stateMutability": "nonpayable",
      "type": "function"
    },
    {
      "inputs": [
        {
          "internalType": "uint256",
          "name": "_raftTokenId",
          "type": "uint256"
        },
        {
          "internalType": "uint256",
          "name": "_badgeId",
          "type": "uint256"
        }
      ],
      "name": "reinstateBadge",
      "outputs": [],
      "stateMutability": "nonpayable",
      "type": "function"
    },
    {
      "inputs": [],
      "name": "renounceOwnership",
      "outputs": [],
      "stateMutability": "nonpayable",
      "type": "function"
    },
    {
      "inputs": [
        {
          "internalType": "uint256",
          "name": "_raftTokenId",
          "type": "uint256"
        },
        {
          "internalType": "uint256",
          "name": "_badgeId",
          "type": "uint256"
        },
        {
          "internalType": "uint8",
          "name": "_reason",
          "type": "uint8"
        }
      ],
      "name": "revokeBadge",
      "outputs": [],
      "stateMutability": "nonpayable",
      "type": "function"
    },
    {
      "inputs": [
        {
          "internalType": "address",
          "name": "_dataHolder",
          "type": "address"
        }
      ],
      "name": "setDataHolder",
      "outputs": [],
      "stateMutability": "nonpayable",
      "type": "function"
    },
    {
      "inputs": [
        {
          "internalType": "bytes4",
          "name": "_interfaceId",
          "type": "bytes4"
        }
      ],
      "name": "supportsInterface",
      "outputs": [
        {
          "internalType": "bool",
          "name": "",
          "type": "bool"
        }
      ],
      "stateMutability": "view",
      "type": "function"
    },
    {
      "inputs": [],
      "name": "symbol",
      "outputs": [
        {
          "internalType": "string",
          "name": "",
          "type": "string"
        }
      ],
      "stateMutability": "view",
      "type": "function"
    },
    {
      "inputs": [
        {
          "internalType": "address",
          "name": "_from",
          "type": "address"
        },
        {
          "internalType": "string",
          "name": "_uri",
          "type": "string"
        },
        {
          "internalType": "bytes",
          "name": "_signature",
          "type": "bytes"
        }
      ],
      "name": "take",
      "outputs": [
        {
          "internalType": "uint256",
          "name": "",
          "type": "uint256"
        }
      ],
      "stateMutability": "nonpayable",
      "type": "function"
    },
    {
      "inputs": [
        {
          "internalType": "uint256",
          "name": "_tokenId",
          "type": "uint256"
        }
      ],
      "name": "tokenURI",
      "outputs": [
        {
          "internalType": "string",
          "name": "",
          "type": "string"
        }
      ],
      "stateMutability": "view",
      "type": "function"
    },
    {
      "inputs": [
        {
          "internalType": "address",
          "name": "newOwner",
          "type": "address"
        }
      ],
      "name": "transferOwnership",
      "outputs": [],
      "stateMutability": "nonpayable",
      "type": "function"
    },
    {
      "inputs": [
        {
          "internalType": "uint256",
          "name": "_tokenId",
          "type": "uint256"
        }
      ],
      "name": "unequip",
      "outputs": [],
      "stateMutability": "nonpayable",
      "type": "function"
    },
    {
      "inputs": [
        {
          "internalType": "address",
          "name": "newImplementation",
          "type": "address"
        }
      ],
      "name": "upgradeTo",
      "outputs": [],
      "stateMutability": "nonpayable",
      "type": "function"
    },
    {
      "inputs": [
        {
          "internalType": "address",
          "name": "newImplementation",
          "type": "address"
        },
        {
          "internalType": "bytes",
          "name": "data",
          "type": "bytes"
        }
      ],
      "name": "upgradeToAndCall",
      "outputs": [],
      "stateMutability": "payable",
      "type": "function"
    }
  ],
  "bytecode": "0x60a0604052306080523480156200001557600080fd5b506200002062000026565b620000e8565b600054610100900460ff1615620000935760405162461bcd60e51b815260206004820152602760248201527f496e697469616c697a61626c653a20636f6e747261637420697320696e697469604482015266616c697a696e6760c81b606482015260840160405180910390fd5b60005460ff9081161015620000e6576000805460ff191660ff9081179091556040519081527f7f26b83ff96e1f2b6a682f133852f6798a09c465da95921460cefb38474024989060200160405180910390a15b565b60805161373262000120600039600081816106d70152818161071701528181610bb501528181610bf50152610c8801526137326000f3fe6080604052600436106101c25760003560e01c80638da5cb5b116100f7578063c018411211610095578063d6d0faee11610064578063d6d0faee14610501578063e499250614610521578063ec64948e14610541578063f2fde38b1461056157600080fd5b8063c018411214610475578063c58a4ff414610495578063c87b56dd146104c1578063d179e3d0146104e157600080fd5b8063a3947803116100d1578063a3947803146103f5578063a8cf868314610415578063bd6645e414610435578063bdbdbcbf1461045557600080fd5b80638da5cb5b146103a257806395d89b41146103c0578063a32c9c7a146103d557600080fd5b806352d1902d1161016457806370a082311161013e57806370a082311461032d578063715018a61461034d5780637c402f8d1461036257806380956c7e1461038257600080fd5b806352d1902d146102c15780636352211e146102d6578063635ad9931461030e57600080fd5b80633659cfe6116101a05780633659cfe61461023e578063445a62b9146102605780634a086b53146102805780634f1ef286146102ae57600080fd5b806301ffc9a7146101c757806306fdde03146101fc5780630f4d9b011461021e575b600080fd5b3480156101d357600080fd5b506101e76101e2366004612ad4565b610581565b60405190151581526020015b60405180910390f35b34801561020857600080fd5b506102116105d3565b6040516101f39190612b4e565b34801561022a57600080fd5b506101e7610239366004612b61565b610666565b34801561024a57600080fd5b5061025e610259366004612b8f565b6106cd565b005b34801561026c57600080fd5b5061025e61027b366004612bed565b6107ac565b34801561028c57600080fd5b506102a061029b366004612c7c565b610a43565b6040519081526020016101f3565b61025e6102bc366004612d47565b610bab565b3480156102cd57600080fd5b506102a0610c7b565b3480156102e257600080fd5b506102f66102f1366004612b61565b610d2e565b6040516001600160a01b0390911681526020016101f3565b34801561031a57600080fd5b50610135546001600160a01b03166102f6565b34801561033957600080fd5b506102a0610348366004612b8f565b610d83565b34801561035957600080fd5b5061025e610e0b565b34801561036e57600080fd5b5061025e61037d366004612e0a565b610e1f565b34801561038e57600080fd5b5061025e61039d366004612e49565b610fbc565b3480156103ae57600080fd5b5060c9546001600160a01b03166102f6565b3480156103cc57600080fd5b5061021161114f565b3480156103e157600080fd5b5061025e6103f0366004612e6b565b61115f565b34801561040157600080fd5b506102a0610410366004612f04565b611388565b34801561042157600080fd5b506102a0610430366004612f86565b6114ea565b34801561044157600080fd5b506102a0610450366004612fda565b611521565b34801561046157600080fd5b5061025e610470366004613035565b6115b6565b34801561048157600080fd5b5061025e610490366004612b8f565b611659565b3480156104a157600080fd5b5060408051808201909152600381526231643360e81b6020820152610211565b3480156104cd57600080fd5b506102116104dc366004612b61565b611684565b3480156104ed57600080fd5b5061025e6104fc366004612b61565b61178b565b34801561050d57600080fd5b5061025e61051c366004613076565b611832565b34801561052d57600080fd5b506102a061053c366004613135565b611a11565b34801561054d57600080fd5b506102a061055c366004612f04565b611a81565b34801561056d57600080fd5b5061025e61057c366004612b8f565b611bc6565b60006001600160e01b03198216635b5e139f60e01b14806105b257506001600160e01b031982166346bdd63960e11b145b806105cd57506301ffc9a760e01b6001600160e01b03198316145b92915050565b606061013080546105e390613199565b80601f016020809104026020016040519081016040528092919081815260200182805461060f90613199565b801561065c5780601f106106315761010080835404028352916020019161065c565b820191906000526020600020905b81548152906001019060200180831161063f57829003601f168201915b5050505050905090565b6000818152610132602052604081205482906001600160a01b03166106a65760405162461bcd60e51b815260040161069d906131cd565b60405180910390fd5b600883901c60009081526101376020526040902054600160ff85161b161591505b50919050565b6001600160a01b037f00000000000000000000000000000000000000000000000000000000000000001630036107155760405162461bcd60e51b815260040161069d90613202565b7f00000000000000000000000000000000000000000000000000000000000000006001600160a01b031661075e6000805160206136b6833981519152546001600160a01b031690565b6001600160a01b0316146107845760405162461bcd60e51b815260040161069d9061324e565b61078d81611c3c565b604080516000808252602082019092526107a991839190611c44565b50565b6101355460405163b2a0cb6b60e01b815260048101839052829133916001600160a01b039091169063b2a0cb6b90602401602060405180830381865afa1580156107fa573d6000803e3d6000fd5b505050506040513d601f19601f8201168201806040525081019061081e919061329a565b6001600160a01b0316146108445760405162461bcd60e51b815260040161069d906132b7565b61013554604051637e07102760e11b81526001600160a01b039091169063fc0e204e906108779087908790600401613317565b602060405180830381865afa158015610894573d6000803e3d6000fd5b505050506040513d601f19601f820116820180604052508101906108b8919061332b565b156109115760405162461bcd60e51b815260206004820152602360248201527f637265617465537065633a207370656320616c726561647920726567697374656044820152621c995960ea1b606482015260840161069d565b6101355460405163addd190760e01b81526001600160a01b039091169063addd1907906109469087908790879060040161334d565b600060405180830381600087803b15801561096057600080fd5b505af1158015610974573d6000803e3d6000fd5b5050505061013560009054906101000a90046001600160a01b03166001600160a01b03166334f876626040518163ffffffff1660e01b8152600401602060405180830381865afa1580156109cc573d6000803e3d6000fd5b505050506040513d601f19601f820116820180604052508101906109f0919061329a565b6001600160a01b031682336001600160a01b03167f68c7f8503283c455a4445b54a7d5c40656c8cae5cca0583c6d4be836984787008787604051610a35929190613317565b60405180910390a450505050565b6000610a5689338a8a8a8a8a8a8a611db4565b61013554604051633664a8e960e01b81526000916001600160a01b031690633664a8e990610a8a908c908c90600401613317565b602060405180830381865afa158015610aa7573d6000803e3d6000fd5b505050506040513d601f19601f82011682018060405250810190610acb9190613371565b6101355460405163b2a0cb6b60e01b8152600481018390529192506001600160a01b038c81169291169063b2a0cb6b90602401602060405180830381865afa158015610b1b573d6000803e3d6000fd5b505050506040513d601f19601f82011682018060405250810190610b3f919061329a565b6001600160a01b031614610b915760405162461bcd60e51b81526020600482015260196024820152783a30b5b29d103ab730baba3437b934bd32b21034b9b9bab2b960391b604482015260640161069d565b610b9d338a8a84611f41565b9a9950505050505050505050565b6001600160a01b037f0000000000000000000000000000000000000000000000000000000000000000163003610bf35760405162461bcd60e51b815260040161069d90613202565b7f00000000000000000000000000000000000000000000000000000000000000006001600160a01b0316610c3c6000805160206136b6833981519152546001600160a01b031690565b6001600160a01b031614610c625760405162461bcd60e51b815260040161069d9061324e565b610c6b82611c3c565b610c7782826001611c44565b5050565b6000306001600160a01b037f00000000000000000000000000000000000000000000000000000000000000001614610d1b5760405162461bcd60e51b815260206004820152603860248201527f555550535570677261646561626c653a206d757374206e6f742062652063616c60448201527f6c6564207468726f7567682064656c656761746563616c6c0000000000000000606482015260840161069d565b506000805160206136b683398151915290565b6000818152610132602052604081205482906001600160a01b0316610d655760405162461bcd60e51b815260040161069d906131cd565b5050600090815261013260205260409020546001600160a01b031690565b60006001600160a01b038216610dee5760405162461bcd60e51b815260206004820152602a60248201527f62616c616e63654f663a2061646472657373283029206973206e6f742061207660448201526930b634b21037bbb732b960b11b606482015260840161069d565b506001600160a01b03166000908152610134602052604090205490565b610e13612111565b610e1d600061216b565b565b6000828152610132602052604090205482906001600160a01b0316610e565760405162461bcd60e51b815260040161069d906131cd565b6101355460405163b2a0cb6b60e01b815260048101869052859133916001600160a01b039091169063b2a0cb6b90602401602060405180830381865afa158015610ea4573d6000803e3d6000fd5b505050506040513d601f19601f82011682018060405250810190610ec8919061329a565b6001600160a01b031614610eee5760405162461bcd60e51b815260040161069d906132b7565b600884901c60009081526101376020526040902054600160ff86161b1615610f635760405162461bcd60e51b815260206004820152602260248201527f7265766f6b6542616467653a20626164676520616c7265616479207265766f6b604482015261195960f21b606482015260840161069d565b600884901c6000908152610137602052604090208054600160ff87161b17905560405160ff841690339086907ffa784c48260e8db512de5f055a2f29eced211a7b3bd6338058b095ada7354cee90600090a45050505050565b6000818152610132602052604090205481906001600160a01b0316610ff35760405162461bcd60e51b815260040161069d906131cd565b6101355460405163b2a0cb6b60e01b815260048101859052849133916001600160a01b039091169063b2a0cb6b90602401602060405180830381865afa158015611041573d6000803e3d6000fd5b505050506040513d601f19601f82011682018060405250810190611065919061329a565b6001600160a01b03161461108b5760405162461bcd60e51b815260040161069d906132b7565b600883901c60009081526101376020526040902054600160ff85161b166110fe5760405162461bcd60e51b815260206004820152602160248201527f7265696e737461746542616467653a206261646765206e6f74207265766f6b656044820152601960fa1b606482015260840161069d565b600883901c600090815261013760205260408082208054600160ff88161b1916905551339185917f7f8cf9ecf2a5225948f8a1601709cedc8471c52ee75a8174c9845c29c99ed9a29190a350505050565b606061013180546105e390613199565b8481146111cc5760405162461bcd60e51b815260206004820152603560248201527f67697665546f4d616e793a20726563697069656e747320616e64207369676e616044820152740e8eae4cae640d8cadccee8d040dad2e6dac2e8c6d605b1b606482015260840161069d565b61013554604051633664a8e960e01b81526000916001600160a01b031690633664a8e9906112009088908890600401613317565b602060405180830381865afa15801561121d573d6000803e3d6000fd5b505050506040513d601f19601f820116820180604052508101906112419190613371565b6101355460405163b2a0cb6b60e01b81526004810183905291925033916001600160a01b039091169063b2a0cb6b90602401602060405180830381865afa158015611290573d6000803e3d6000fd5b505050506040513d601f19601f820116820180604052508101906112b4919061329a565b6001600160a01b03161461130a5760405162461bcd60e51b815260206004820152601860248201527f67697665546f4d616e793a20756e617574686f72697a65640000000000000000604482015260640161069d565b60005b8681101561137e5761136b88888381811061132a5761132a61338a565b905060200201602081019061133f9190612b8f565b87878787868181106113535761135361338a565b905060200281019061136591906133a0565b876121bd565b5080611376816133fc565b91505061130d565b5050505050505050565b60006113983387878787876121d9565b61013554604051633664a8e960e01b81526000916001600160a01b031690633664a8e9906113cc9089908990600401613317565b602060405180830381865afa1580156113e9573d6000803e3d6000fd5b505050506040513d601f19601f8201168201806040525081019061140d9190613371565b6101355460405163b2a0cb6b60e01b8152600481018390529192506001600160a01b038981169291169063b2a0cb6b90602401602060405180830381865afa15801561145d573d6000803e3d6000fd5b505050506040513d601f19601f82011682018060405250810190611481919061329a565b6001600160a01b0316146114d35760405162461bcd60e51b81526020600482015260196024820152783a30b5b29d103ab730baba3437b934bd32b21034b9b9bab2b960391b604482015260640161069d565b6114df33878784611f41565b979650505050505050565b600083838360405160200161150193929190613415565b6040516020818303038152906040528051906020012090505b9392505050565b60006115ab7f6d0d990916a9f9c9e0896e59ce7f5ddddff333d0c8772438ce004fa7719b164b86868660405161155892919061343a565b60405190819003812061159093929187906020019384526001600160a01b039290921660208401526040830152606082015260800190565b60405160208183030381529060405280519060200120612287565b90505b949350505050565b6115be612111565b8061161a5760405162461bcd60e51b815260206004820152602660248201527f726566726573684d657461646174613a206e6f207370656320757269732070726044820152651bdd9a59195960d21b606482015260840161069d565b7f2231d988b1a75dccab13dee3564b71a551900e822e94177a96f19561890c0fd582823360405161164d9392919061344a565b60405180910390a15050565b611661612111565b61013580546001600160a01b0319166001600160a01b0392909216919091179055565b600081815261013260205260409020546060906001600160a01b03166116ec5760405162461bcd60e51b815260206004820152601d60248201527f746f6b656e5552493a20746f6b656e20646f65736e2774206578697374000000604482015260640161069d565b600082815261013360205260409020805461170690613199565b80601f016020809104026020016040519081016040528092919081815260200182805461173290613199565b801561177f5780601f106117545761010080835404028352916020019161177f565b820191906000526020600020905b81548152906001019060200180831161176257829003601f168201915b50505050509050919050565b6000818152610132602052604090205481906001600160a01b03166117c25760405162461bcd60e51b815260040161069d906131cd565b600082815261013260205260409020546001600160a01b031633146118295760405162461bcd60e51b815260206004820152601d60248201527f756e65717569703a2073656e646572206d757374206265206f776e6572000000604482015260640161069d565b610c77826122d5565b600054610100900460ff16158080156118525750600054600160ff909116105b8061186c5750303b15801561186c575060005460ff166001145b6118cf5760405162461bcd60e51b815260206004820152602e60248201527f496e697469616c697a61626c653a20636f6e747261637420697320616c72656160448201526d191e481a5b9a5d1a585b1a5e995960921b606482015260840161069d565b6000805460ff1916600117905580156118f2576000805461ff0019166101001790555b610130611900898b83613539565b5061013161190f878983613539565b5061013580546001600160a01b0319166001600160a01b038416179055611934612380565b61193c6123a7565b6119af89898080601f01602080910402602001604051908101604052809392919081815260200183838082843760009201919091525050604080516020601f8b0181900481028201810190925289815292508991508890819084018382808284376000920191909152506123d692505050565b6119b7612380565b6119c083611bc6565b8015611a06576000805461ff0019169055604051600181527f7f26b83ff96e1f2b6a682f133852f6798a09c465da95921460cefb38474024989060200160405180910390a15b505050505050505050565b60006115ab7fe76a195fbe43f0eaa611595069f780493db2202a1cc4b2d7d44b47069812998a86868686604051611a4992919061343a565b604051908190038120611590949392916020019384526001600160a01b03928316602085015291166040830152606082015260800190565b61013554604051633664a8e960e01b815260009182916001600160a01b0390911690633664a8e990611ab99089908990600401613317565b602060405180830381865afa158015611ad6573d6000803e3d6000fd5b505050506040513d601f19601f82011682018060405250810190611afa9190613371565b6101355460405163b2a0cb6b60e01b81526004810183905291925033916001600160a01b039091169063b2a0cb6b90602401602060405180830381865afa158015611b49573d6000803e3d6000fd5b505050506040513d601f19601f82011682018060405250810190611b6d919061329a565b6001600160a01b031614611bb85760405162461bcd60e51b815260206004820152601260248201527119da5d994e881d5b985d5d1a1bdc9a5e995960721b604482015260640161069d565b6114df8787878787866121bd565b611bce612111565b6001600160a01b038116611c335760405162461bcd60e51b815260206004820152602660248201527f4f776e61626c653a206e6577206f776e657220697320746865207a65726f206160448201526564647265737360d01b606482015260840161069d565b6107a98161216b565b6107a9612111565b7f4910fdfa16fed3260ed0e7147f7cc6da11a60208b5b9406d12a635614ffd91435460ff1615611c7c57611c7783612407565b505050565b826001600160a01b03166352d1902d6040518163ffffffff1660e01b8152600401602060405180830381865afa925050508015611cd6575060408051601f3d908101601f19168201909252611cd391810190613371565b60015b611d395760405162461bcd60e51b815260206004820152602e60248201527f45524331393637557067726164653a206e657720696d706c656d656e7461746960448201526d6f6e206973206e6f74205555505360901b606482015260840161069d565b6000805160206136b68339815191528114611da85760405162461bcd60e51b815260206004820152602960248201527f45524331393637557067726164653a20756e737570706f727465642070726f786044820152681a58589b195555525160ba1b606482015260840161069d565b50611c778383836124a3565b611e0089611dc48b8a8a88611521565b87878080601f0160208091040260200160405190810160405280939291908181526020018383808284376000920191909152506124ce92505050565b611e605760405162461bcd60e51b815260206004820152602b60248201527f73616665436865636b4d65726b6c6541677265656d656e743a20696e76616c6960448201526a64207369676e617475726560a81b606482015260840161069d565b6040516bffffffffffffffffffffffff1960608a901b166020820152600090603401604051602081830303815290604052805190602001209050611eda8383808060200260200160405190810160405280939291908181526020018383602002808284376000920191909152508892508591506126109050565b611f355760405162461bcd60e51b815260206004820152602660248201527f73616665436865636b4d65726b6c6541677265656d656e743a20696e76616c6960448201526532103632b0b360d11b606482015260840161069d565b50505050505050505050565b600081600003611f935760405162461bcd60e51b815260206004820152601c60248201527f6d696e743a2073706563206973206e6f74207265676973746572656400000000604482015260640161069d565b6000611fa08686866114ea565b600081815261013260205260409020549091506001600160a01b0316156120005760405162461bcd60e51b81526020600482015260146024820152736d696e743a20746f6b656e49442065786973747360601b604482015260640161069d565b6001600160a01b038616600090815261013460205260408120805491612025836133fc565b909155505060008181526101326020908152604080832080546001600160a01b0319166001600160a01b038b161790556101339091529020612068858783613539565b5060405181906001600160a01b038816906000907fddf252ad1be2c89b69c2b068fc378daa952ba7f163c4a11628f55a4df523b3ef908290a46101355460405163fb74926160e01b815260048101839052602481018590526001600160a01b039091169063fb74926190604401600060405180830381600087803b1580156120ef57600080fd5b505af1158015612103573d6000803e3d6000fd5b509298975050505050505050565b60c9546001600160a01b03163314610e1d5760405162461bcd60e51b815260206004820181905260248201527f4f776e61626c653a2063616c6c6572206973206e6f7420746865206f776e6572604482015260640161069d565b60c980546001600160a01b038381166001600160a01b0319831681179093556040519116919082907f8be0079c531659141344cd1fd0a4f28419497f9722a3daafe3b4186f6b6457e090600090a35050565b60006121cd3388888888886121d9565b6114df87878785611f41565b612225856121e988888888611a11565b84848080601f0160208091040260200160405190810160405280939291908181526020018383808284376000920191909152506124ce92505050565b61227f5760405162461bcd60e51b815260206004820152602560248201527f73616665436865636b41677265656d656e743a20696e76616c6964207369676e604482015264617475726560d81b606482015260840161069d565b505050505050565b60006105cd612294612626565b8360405161190160f01b6020820152602281018390526042810182905260009060620160405160208183030381529060405280519060200120905092915050565b600081815261013260209081526040808320546001600160a01b031680845261013490925282208054919260019261230e9084906135f9565b909155505060008281526101326020908152604080832080546001600160a01b0319169055610133909152812061234491612a86565b60405182906000906001600160a01b038416907fddf252ad1be2c89b69c2b068fc378daa952ba7f163c4a11628f55a4df523b3ef908390a45050565b600054610100900460ff16610e1d5760405162461bcd60e51b815260040161069d9061360c565b600054610100900460ff166123ce5760405162461bcd60e51b815260040161069d9061360c565b610e1d612662565b600054610100900460ff166123fd5760405162461bcd60e51b815260040161069d9061360c565b610c778282612692565b6001600160a01b0381163b6124745760405162461bcd60e51b815260206004820152602d60248201527f455243313936373a206e657720696d706c656d656e746174696f6e206973206e60448201526c1bdd08184818dbdb9d1c9858dd609a1b606482015260840161069d565b6000805160206136b683398151915280546001600160a01b0319166001600160a01b0392909216919091179055565b6124ac836126d3565b6000825111806124b95750805b15611c77576124c88383612713565b50505050565b60008060006124dd8585612807565b909250905060008160048111156124f6576124f6613657565b1480156125145750856001600160a01b0316826001600160a01b0316145b156125245760019250505061151a565b600080876001600160a01b0316631626ba7e60e01b888860405160240161254c92919061366d565b60408051601f198184030181529181526020820180516001600160e01b03166001600160e01b031990941693909317909252905161258a9190613686565b600060405180830381855afa9150503d80600081146125c5576040519150601f19603f3d011682016040523d82523d6000602084013e6125ca565b606091505b50915091508180156125dd575080516020145b801561260457508051630b135d3f60e11b906126029083016020908101908401613371565b145b98975050505050505050565b60008261261d8584612875565b14949350505050565b600061265d7f8b73c3c69bb8fe3d512ecc4cf759cc79239f7b179b0ffacaa9a75d522b39400f61265560fb5490565b60fc546128c2565b905090565b600054610100900460ff166126895760405162461bcd60e51b815260040161069d9061360c565b610e1d3361216b565b600054610100900460ff166126b95760405162461bcd60e51b815260040161069d9061360c565b81516020928301208151919092012060fb9190915560fc55565b6126dc81612407565b6040516001600160a01b038216907fbc7cd75a20ee27fd9adebab32041f755214dbc6bffa90cc0225b39da2e5c2d3b90600090a250565b60606001600160a01b0383163b61277b5760405162461bcd60e51b815260206004820152602660248201527f416464726573733a2064656c65676174652063616c6c20746f206e6f6e2d636f6044820152651b9d1c9858dd60d21b606482015260840161069d565b600080846001600160a01b0316846040516127969190613686565b600060405180830381855af49150503d80600081146127d1576040519150601f19603f3d011682016040523d82523d6000602084013e6127d6565b606091505b50915091506127fe82826040518060600160405280602781526020016136d6602791396128f1565b95945050505050565b600080825160410361283d5760208301516040840151606085015160001a6128318782858561290a565b9450945050505061286e565b8251604003612866576020830151604084015161285b8683836129f7565b93509350505061286e565b506000905060025b9250929050565b600081815b84518110156128ba576128a6828683815181106128995761289961338a565b6020026020010151612a30565b9150806128b2816133fc565b91505061287a565b509392505050565b6040805160208101859052908101839052606081018290524660808201523060a082015260009060c001611501565b6060831561290057508161151a565b61151a8383612a5c565b6000807f7fffffffffffffffffffffffffffffff5d576e7357a4501ddfe92f46681b20a083111561294157506000905060036129ee565b8460ff16601b1415801561295957508460ff16601c14155b1561296a57506000905060046129ee565b6040805160008082526020820180845289905260ff881692820192909252606081018690526080810185905260019060a0016020604051602081039080840390855afa1580156129be573d6000803e3d6000fd5b5050604051601f1901519150506001600160a01b0381166129e7576000600192509250506129ee565b9150600090505b94509492505050565b6000806001600160ff1b03831681612a1460ff86901c601b6136a2565b9050612a228782888561290a565b935093505050935093915050565b6000818310612a4c57600082815260208490526040902061151a565b5060009182526020526040902090565b815115612a6c5781518083602001fd5b8060405162461bcd60e51b815260040161069d9190612b4e565b508054612a9290613199565b6000825580601f10612aa2575050565b601f0160209004906000526020600020908101906107a991905b80821115612ad05760008155600101612abc565b5090565b600060208284031215612ae657600080fd5b81356001600160e01b03198116811461151a57600080fd5b60005b83811015612b19578181015183820152602001612b01565b50506000910152565b60008151808452612b3a816020860160208601612afe565b601f01601f19169290920160200192915050565b60208152600061151a6020830184612b22565b600060208284031215612b7357600080fd5b5035919050565b6001600160a01b03811681146107a957600080fd5b600060208284031215612ba157600080fd5b813561151a81612b7a565b60008083601f840112612bbe57600080fd5b5081356001600160401b03811115612bd557600080fd5b60208301915083602082850101111561286e57600080fd5b600080600060408486031215612c0257600080fd5b83356001600160401b03811115612c1857600080fd5b612c2486828701612bac565b909790965060209590950135949350505050565b60008083601f840112612c4a57600080fd5b5081356001600160401b03811115612c6157600080fd5b6020830191508360208260051b850101111561286e57600080fd5b60008060008060008060008060a0898b031215612c9857600080fd5b8835612ca381612b7a565b975060208901356001600160401b0380821115612cbf57600080fd5b612ccb8c838d01612bac565b909950975060408b0135915080821115612ce457600080fd5b612cf08c838d01612bac565b909750955060608b0135945060808b0135915080821115612d1057600080fd5b50612d1d8b828c01612c38565b999c989b5096995094979396929594505050565b634e487b7160e01b600052604160045260246000fd5b60008060408385031215612d5a57600080fd5b8235612d6581612b7a565b915060208301356001600160401b0380821115612d8157600080fd5b818501915085601f830112612d9557600080fd5b813581811115612da757612da7612d31565b604051601f8201601f19908116603f01168101908382118183101715612dcf57612dcf612d31565b81604052828152886020848701011115612de857600080fd5b8260208601602083013760006020848301015280955050505050509250929050565b600080600060608486031215612e1f57600080fd5b8335925060208401359150604084013560ff81168114612e3e57600080fd5b809150509250925092565b60008060408385031215612e5c57600080fd5b50508035926020909101359150565b60008060008060008060608789031215612e8457600080fd5b86356001600160401b0380821115612e9b57600080fd5b612ea78a838b01612c38565b90985096506020890135915080821115612ec057600080fd5b612ecc8a838b01612bac565b90965094506040890135915080821115612ee557600080fd5b50612ef289828a01612c38565b979a9699509497509295939492505050565b600080600080600060608688031215612f1c57600080fd5b8535612f2781612b7a565b945060208601356001600160401b0380821115612f4357600080fd5b612f4f89838a01612bac565b90965094506040880135915080821115612f6857600080fd5b50612f7588828901612bac565b969995985093965092949392505050565b600080600060408486031215612f9b57600080fd5b8335612fa681612b7a565b925060208401356001600160401b03811115612fc157600080fd5b612fcd86828701612bac565b9497909650939450505050565b60008060008060608587031215612ff057600080fd5b8435612ffb81612b7a565b935060208501356001600160401b0381111561301657600080fd5b61302287828801612bac565b9598909750949560400135949350505050565b6000806020838503121561304857600080fd5b82356001600160401b0381111561305e57600080fd5b61306a85828601612c38565b90969095509350505050565b60008060008060008060008060a0898b03121561309257600080fd5b88356001600160401b03808211156130a957600080fd5b6130b58c838d01612bac565b909a50985060208b01359150808211156130ce57600080fd5b6130da8c838d01612bac565b909850965060408b01359150808211156130f357600080fd5b506131008b828c01612bac565b909550935050606089013561311481612b7a565b9150608089013561312481612b7a565b809150509295985092959890939650565b6000806000806060858703121561314b57600080fd5b843561315681612b7a565b9350602085013561316681612b7a565b925060408501356001600160401b0381111561318157600080fd5b61318d87828801612bac565b95989497509550505050565b600181811c908216806131ad57607f821691505b6020821081036106c757634e487b7160e01b600052602260045260246000fd5b6020808252818101527f746f6b656e4578697374733a20746f6b656e20646f65736e2774206578697374604082015260600190565b6020808252602c908201527f46756e6374696f6e206d7573742062652063616c6c6564207468726f7567682060408201526b19195b1959d85d1958d85b1b60a21b606082015260800190565b6020808252602c908201527f46756e6374696f6e206d7573742062652063616c6c6564207468726f7567682060408201526b6163746976652070726f787960a01b606082015260800190565b6000602082840312156132ac57600080fd5b815161151a81612b7a565b6020808252601b908201527f6f6e6c79526166744f776e65723a20756e617574686f72697a65640000000000604082015260600190565b81835281816020850137506000828201602090810191909152601f909101601f19169091010190565b6020815260006115ae6020830184866132ee565b60006020828403121561333d57600080fd5b8151801515811461151a57600080fd5b6040815260006133616040830185876132ee565b9050826020830152949350505050565b60006020828403121561338357600080fd5b5051919050565b634e487b7160e01b600052603260045260246000fd5b6000808335601e198436030181126133b757600080fd5b8301803591506001600160401b038211156133d157600080fd5b60200191503681900382131561286e57600080fd5b634e487b7160e01b600052601160045260246000fd5b60006001820161340e5761340e6133e6565b5060010190565b6001600160a01b03841681526040602082018190526000906115ab90830184866132ee565b8183823760009101908152919050565b6040808252810183905260006060600585901b8301810190830186835b878110156134da57858403605f190183528135368a9003601e1901811261348d57600080fd5b890160208181019135906001600160401b038211156134ab57600080fd5b8136038313156134ba57600080fd5b6134c58783856132ee565b96509485019493909301925050600101613467565b5050506001600160a01b038416602084015290506115ae565b601f821115611c7757600081815260208120601f850160051c8101602086101561351a5750805b601f850160051c820191505b8181101561227f57828155600101613526565b6001600160401b0383111561355057613550612d31565b6135648361355e8354613199565b836134f3565b6000601f84116001811461359857600085156135805750838201355b600019600387901b1c1916600186901b1783556135f2565b600083815260209020601f19861690835b828110156135c957868501358255602094850194600190920191016135a9565b50868210156135e65760001960f88860031b161c19848701351681555b505060018560011b0183555b5050505050565b818103818111156105cd576105cd6133e6565b6020808252602b908201527f496e697469616c697a61626c653a20636f6e7472616374206973206e6f74206960408201526a6e697469616c697a696e6760a81b606082015260800190565b634e487b7160e01b600052602160045260246000fd5b8281526040602082015260006115ae6040830184612b22565b60008251613698818460208701612afe565b9190910192915050565b808201808211156105cd576105cd6133e656fe360894a13ba1a3210667c828492db98dca3e2076cc3735a920a3ca505d382bbc416464726573733a206c6f772d6c6576656c2064656c65676174652063616c6c206661696c6564a2646970667358221220240901e8ec2125616537062400e9b07d61e375787d1eb4e1ebf948134e7248c664736f6c63430008100033",
  "linkReferences": {},
  "deployedLinkReferences": {}
}