{
  "_format": "hh-sol-artifact-1",
  "contractName": "Badges",
  "sourceName": "src/Badges.sol",
  "abi": [
    {
      "inputs": [],
      "stateMutability": "nonpayable",
      "type": "constructor"
    },
    {
      "anonymous": false,
      "inputs": [
        {
          "indexed": false,
          "internalType": "address",
          "name": "previousAdmin",
          "type": "address"
        },
        {
          "indexed": false,
          "internalType": "address",
          "name": "newAdmin",
          "type": "address"
        }
      ],
      "name": "AdminChanged",
      "type": "event"
    },
    {
      "anonymous": false,
      "inputs": [
        {
          "indexed": true,
          "internalType": "uint256",
          "name": "tokenId",
          "type": "uint256"
        },
        {
          "indexed": true,
          "internalType": "address",
          "name": "from",
          "type": "address"
        }
      ],
      "name": "BadgeReinstated",
      "type": "event"
    },
    {
      "anonymous": false,
      "inputs": [
        {
          "indexed": true,
          "internalType": "uint256",
          "name": "tokenId",
          "type": "uint256"
        },
        {
          "indexed": true,
          "internalType": "address",
          "name": "from",
          "type": "address"
        },
        {
          "indexed": true,
          "internalType": "uint8",
          "name": "reason",
          "type": "uint8"
        }
      ],
      "name": "BadgeRevoked",
      "type": "event"
    },
    {
      "anonymous": false,
      "inputs": [
        {
          "indexed": true,
          "internalType": "address",
          "name": "beacon",
          "type": "address"
        }
      ],
      "name": "BeaconUpgraded",
      "type": "event"
    },
    {
      "anonymous": false,
      "inputs": [
        {
          "indexed": false,
          "internalType": "uint8",
          "name": "version",
          "type": "uint8"
        }
      ],
      "name": "Initialized",
      "type": "event"
    },
    {
      "anonymous": false,
      "inputs": [
        {
          "indexed": true,
          "internalType": "address",
          "name": "previousOwner",
          "type": "address"
        },
        {
          "indexed": true,
          "internalType": "address",
          "name": "newOwner",
          "type": "address"
        }
      ],
      "name": "OwnershipTransferred",
      "type": "event"
    },
    {
      "anonymous": false,
      "inputs": [
        {
          "indexed": false,
          "internalType": "string[]",
          "name": "specUris",
          "type": "string[]"
        },
        {
          "indexed": false,
          "internalType": "address",
          "name": "sender",
          "type": "address"
        }
      ],
      "name": "RefreshMetadata",
      "type": "event"
    },
    {
      "anonymous": false,
      "inputs": [
        {
          "indexed": true,
          "internalType": "address",
          "name": "to",
          "type": "address"
        },
        {
          "indexed": false,
          "internalType": "string",
          "name": "specUri",
          "type": "string"
        },
        {
          "indexed": true,
          "internalType": "uint256",
          "name": "raftTokenId",
          "type": "uint256"
        },
        {
          "indexed": true,
          "internalType": "address",
          "name": "raftAddress",
          "type": "address"
        }
      ],
      "name": "SpecCreated",
      "type": "event"
    },
    {
      "anonymous": false,
      "inputs": [
        {
          "indexed": true,
          "internalType": "address",
          "name": "from",
          "type": "address"
        },
        {
          "indexed": true,
          "internalType": "address",
          "name": "to",
          "type": "address"
        },
        {
          "indexed": true,
          "internalType": "uint256",
          "name": "tokenId",
          "type": "uint256"
        }
      ],
      "name": "Transfer",
      "type": "event"
    },
    {
      "anonymous": false,
      "inputs": [
        {
          "indexed": true,
          "internalType": "address",
          "name": "implementation",
          "type": "address"
        }
      ],
      "name": "Upgraded",
      "type": "event"
    },
    {
      "inputs": [
        {
          "internalType": "address",
          "name": "_owner",
          "type": "address"
        }
      ],
      "name": "balanceOf",
      "outputs": [
        {
          "internalType": "uint256",
          "name": "",
          "type": "uint256"
        }
      ],
      "stateMutability": "view",
      "type": "function"
    },
    {
      "inputs": [
        {
          "internalType": "string",
          "name": "_specUri",
          "type": "string"
        },
        {
          "internalType": "uint256",
          "name": "_raftTokenId",
          "type": "uint256"
        }
      ],
      "name": "createSpec",
      "outputs": [],
      "stateMutability": "nonpayable",
      "type": "function"
    },
    {
      "inputs": [
        {
          "internalType": "address",
          "name": "_from",
          "type": "address"
        },
        {
          "internalType": "address",
          "name": "_to",
          "type": "address"
        },
        {
          "internalType": "string",
          "name": "_uri",
          "type": "string"
        }
      ],
      "name": "getAgreementHash",
      "outputs": [
        {
          "internalType": "bytes32",
          "name": "",
          "type": "bytes32"
        }
      ],
      "stateMutability": "view",
      "type": "function"
    },
    {
      "inputs": [
        {
          "internalType": "address",
          "name": "_to",
          "type": "address"
        },
        {
          "internalType": "string",
          "name": "_uri",
          "type": "string"
        }
      ],
      "name": "getBadgeIdHash",
      "outputs": [
        {
          "internalType": "bytes32",
          "name": "",
          "type": "bytes32"
        }
      ],
      "stateMutability": "view",
      "type": "function"
    },
    {
      "inputs": [],
      "name": "getDataHolderAddress",
      "outputs": [
        {
          "internalType": "address",
          "name": "",
          "type": "address"
        }
      ],
      "stateMutability": "view",
      "type": "function"
    },
    {
      "inputs": [
        {
          "internalType": "address",
          "name": "_issuer",
          "type": "address"
        },
        {
          "internalType": "string",
          "name": "_uri",
          "type": "string"
        },
        {
          "internalType": "bytes32",
          "name": "_root",
          "type": "bytes32"
        }
      ],
      "name": "getMerkleAgreementHash",
      "outputs": [
        {
          "internalType": "bytes32",
          "name": "",
          "type": "bytes32"
        }
      ],
      "stateMutability": "view",
      "type": "function"
    },
    {
      "inputs": [
        {
          "internalType": "address",
          "name": "_requester",
          "type": "address"
        },
        {
          "internalType": "string",
          "name": "_uri",
          "type": "string"
        }
      ],
      "name": "getRequestHash",
      "outputs": [
        {
          "internalType": "bytes32",
          "name": "",
          "type": "bytes32"
        }
      ],
      "stateMutability": "view",
      "type": "function"
    },
    {
      "inputs": [
        {
          "internalType": "address",
          "name": "_to",
          "type": "address"
        },
        {
          "internalType": "string",
          "name": "_uri",
          "type": "string"
        },
        {
          "internalType": "bytes",
          "name": "_signature",
          "type": "bytes"
        }
      ],
      "name": "give",
      "outputs": [
        {
          "internalType": "uint256",
          "name": "",
          "type": "uint256"
        }
      ],
      "stateMutability": "nonpayable",
      "type": "function"
    },
    {
      "inputs": [
        {
          "internalType": "address",
          "name": "_to",
          "type": "address"
        },
        {
          "internalType": "string",
          "name": "_uri",
          "type": "string"
        },
        {
          "internalType": "bytes",
          "name": "_signature",
          "type": "bytes"
        }
      ],
      "name": "giveRequestedBadge",
      "outputs": [
        {
          "internalType": "uint256",
          "name": "",
          "type": "uint256"
        }
      ],
      "stateMutability": "nonpayable",
      "type": "function"
    },
    {
      "inputs": [
        {
          "internalType": "address[]",
          "name": "_recipients",
          "type": "address[]"
        },
        {
          "internalType": "string",
          "name": "_uri",
          "type": "string"
        },
        {
          "internalType": "bytes[]",
          "name": "_signatures",
          "type": "bytes[]"
        }
      ],
      "name": "giveToMany",
      "outputs": [],
      "stateMutability": "nonpayable",
      "type": "function"
    },
    {
      "inputs": [
        {
          "internalType": "string",
          "name": "_name",
          "type": "string"
        },
        {
          "internalType": "string",
          "name": "_symbol",
          "type": "string"
        },
        {
          "internalType": "string",
          "name": "_version",
          "type": "string"
        },
        {
          "internalType": "address",
          "name": "_nextOwner",
          "type": "address"
        },
        {
          "internalType": "address",
          "name": "_specDataHolderAddress",
          "type": "address"
        }
      ],
      "name": "initialize",
      "outputs": [],
      "stateMutability": "nonpayable",
      "type": "function"
    },
    {
      "inputs": [
        {
          "internalType": "uint256",
          "name": "_badgeId",
          "type": "uint256"
        }
      ],
      "name": "isBadgeValid",
      "outputs": [
        {
          "internalType": "bool",
          "name": "",
          "type": "bool"
        }
      ],
      "stateMutability": "view",
      "type": "function"
    },
    {
      "inputs": [
        {
          "internalType": "address",
          "name": "_from",
          "type": "address"
        },
        {
          "internalType": "string",
          "name": "_uri",
          "type": "string"
        },
        {
          "internalType": "bytes",
          "name": "_signature",
          "type": "bytes"
        },
        {
          "internalType": "bytes32",
          "name": "root",
          "type": "bytes32"
        },
        {
          "internalType": "bytes32[]",
          "name": "proof",
          "type": "bytes32[]"
        }
      ],
      "name": "merkleTake",
      "outputs": [
        {
          "internalType": "uint256",
          "name": "",
          "type": "uint256"
        }
      ],
      "stateMutability": "nonpayable",
      "type": "function"
    },
    {
      "inputs": [],
      "name": "name",
      "outputs": [
        {
          "internalType": "string",
          "name": "",
          "type": "string"
        }
      ],
      "stateMutability": "view",
      "type": "function"
    },
    {
      "inputs": [],
      "name": "owner",
      "outputs": [
        {
          "internalType": "address",
          "name": "",
          "type": "address"
        }
      ],
      "stateMutability": "view",
      "type": "function"
    },
    {
      "inputs": [
        {
          "internalType": "uint256",
          "name": "_tokenId",
          "type": "uint256"
        }
      ],
      "name": "ownerOf",
      "outputs": [
        {
          "internalType": "address",
          "name": "",
          "type": "address"
        }
      ],
      "stateMutability": "view",
      "type": "function"
    },
    {
      "inputs": [],
      "name": "proxiableUUID",
      "outputs": [
        {
          "internalType": "bytes32",
          "name": "",
          "type": "bytes32"
        }
      ],
      "stateMutability": "view",
      "type": "function"
    },
    {
      "inputs": [
        {
          "internalType": "string[]",
          "name": "_specUris",
          "type": "string[]"
        }
      ],
      "name": "refreshMetadata",
      "outputs": [],
      "stateMutability": "nonpayable",
      "type": "function"
    },
    {
      "inputs": [
        {
          "internalType": "uint256",
          "name": "_raftTokenId",
          "type": "uint256"
        },
        {
          "internalType": "uint256",
          "name": "_badgeId",
          "type": "uint256"
        }
      ],
      "name": "reinstateBadge",
      "outputs": [],
      "stateMutability": "nonpayable",
      "type": "function"
    },
    {
      "inputs": [],
      "name": "renounceOwnership",
      "outputs": [],
      "stateMutability": "nonpayable",
      "type": "function"
    },
    {
      "inputs": [
        {
          "internalType": "uint256",
          "name": "_raftTokenId",
          "type": "uint256"
        },
        {
          "internalType": "uint256",
          "name": "_badgeId",
          "type": "uint256"
        },
        {
          "internalType": "uint8",
          "name": "_reason",
          "type": "uint8"
        }
      ],
      "name": "revokeBadge",
      "outputs": [],
      "stateMutability": "nonpayable",
      "type": "function"
    },
    {
      "inputs": [
        {
          "internalType": "address",
          "name": "_dataHolder",
          "type": "address"
        }
      ],
      "name": "setDataHolder",
      "outputs": [],
      "stateMutability": "nonpayable",
      "type": "function"
    },
    {
      "inputs": [
        {
          "internalType": "bytes4",
          "name": "_interfaceId",
          "type": "bytes4"
        }
      ],
      "name": "supportsInterface",
      "outputs": [
        {
          "internalType": "bool",
          "name": "",
          "type": "bool"
        }
      ],
      "stateMutability": "view",
      "type": "function"
    },
    {
      "inputs": [],
      "name": "symbol",
      "outputs": [
        {
          "internalType": "string",
          "name": "",
          "type": "string"
        }
      ],
      "stateMutability": "view",
      "type": "function"
    },
    {
      "inputs": [
        {
          "internalType": "address",
          "name": "_from",
          "type": "address"
        },
        {
          "internalType": "string",
          "name": "_uri",
          "type": "string"
        },
        {
          "internalType": "bytes",
          "name": "_signature",
          "type": "bytes"
        }
      ],
      "name": "take",
      "outputs": [
        {
          "internalType": "uint256",
          "name": "",
          "type": "uint256"
        }
      ],
      "stateMutability": "nonpayable",
      "type": "function"
    },
    {
      "inputs": [
        {
          "internalType": "uint256",
          "name": "_tokenId",
          "type": "uint256"
        }
      ],
      "name": "tokenURI",
      "outputs": [
        {
          "internalType": "string",
          "name": "",
          "type": "string"
        }
      ],
      "stateMutability": "view",
      "type": "function"
    },
    {
      "inputs": [
        {
          "internalType": "address",
          "name": "newOwner",
          "type": "address"
        }
      ],
      "name": "transferOwnership",
      "outputs": [],
      "stateMutability": "nonpayable",
      "type": "function"
    },
    {
      "inputs": [
        {
          "internalType": "uint256",
          "name": "_tokenId",
          "type": "uint256"
        }
      ],
      "name": "unequip",
      "outputs": [],
      "stateMutability": "nonpayable",
      "type": "function"
    },
    {
      "inputs": [
        {
          "internalType": "address",
          "name": "newImplementation",
          "type": "address"
        }
      ],
      "name": "upgradeTo",
      "outputs": [],
      "stateMutability": "nonpayable",
      "type": "function"
    },
    {
      "inputs": [
        {
          "internalType": "address",
          "name": "newImplementation",
          "type": "address"
        },
        {
          "internalType": "bytes",
          "name": "data",
          "type": "bytes"
        }
      ],
      "name": "upgradeToAndCall",
      "outputs": [],
      "stateMutability": "payable",
      "type": "function"
    }
  ],
  "bytecode": "0x60a0604052306080523480156200001557600080fd5b506200002062000026565b620000e8565b600054610100900460ff1615620000935760405162461bcd60e51b815260206004820152602760248201527f496e697469616c697a61626c653a20636f6e747261637420697320696e697469604482015266616c697a696e6760c81b606482015260840160405180910390fd5b60005460ff9081161015620000e6576000805460ff191660ff9081179091556040519081527f7f26b83ff96e1f2b6a682f133852f6798a09c465da95921460cefb38474024989060200160405180910390a15b565b60805161397c62000120600039600081816108ed0152818161092d01528181610df001528181610e300152610ec3015261397c6000f3fe6080604052600436106101cd5760003560e01c80638339a133116100f7578063bdbdbcbf11610095578063d6d0faee11610064578063d6d0faee14610520578063e499250614610540578063ec64948e14610560578063f2fde38b1461058057600080fd5b8063bdbdbcbf146104a0578063c0184112146104c0578063c87b56dd146104e0578063d179e3d01461050057600080fd5b8063a32c9c7a116100d1578063a32c9c7a14610420578063a394780314610440578063a8cf868314610460578063bd6645e41461048057600080fd5b80638339a133146103cd5780638da5cb5b146103ed57806395d89b411461040b57600080fd5b80634f1ef2861161016f57806370a082311161013e57806370a0823114610358578063715018a6146103785780637c402f8d1461038d57806380956c7e146103ad57600080fd5b80634f1ef286146102d957806352d1902d146102ec5780636352211e14610301578063635ad9931461033957600080fd5b80631766c038116101ab5780631766c038146102495780633659cfe614610277578063445a62b9146102995780634a086b53146102b957600080fd5b806301ffc9a7146101d257806306fdde03146102075780630f4d9b0114610229575b600080fd5b3480156101de57600080fd5b506101f26101ed366004612d55565b6105a0565b60405190151581526020015b60405180910390f35b34801561021357600080fd5b5061021c6105f2565b6040516101fe9190612dcf565b34801561023557600080fd5b506101f2610244366004612de2565b610685565b34801561025557600080fd5b50610269610264366004612e51565b6106ec565b6040519081526020016101fe565b34801561028357600080fd5b50610297610292366004612ed3565b6108e3565b005b3480156102a557600080fd5b506102976102b4366004612ef0565b6109c2565b3480156102c557600080fd5b506102696102d4366004612f7f565b610c80565b6102976102e736600461304a565b610de6565b3480156102f857600080fd5b50610269610eb6565b34801561030d57600080fd5b5061032161031c366004612de2565b610f69565b6040516001600160a01b0390911681526020016101fe565b34801561034557600080fd5b50610135546001600160a01b0316610321565b34801561036457600080fd5b50610269610373366004612ed3565b610fbe565b34801561038457600080fd5b50610297611046565b34801561039957600080fd5b506102976103a836600461310d565b61105a565b3480156103b957600080fd5b506102976103c836600461314c565b61121e565b3480156103d957600080fd5b506102696103e836600461316e565b6113d8565b3480156103f957600080fd5b5060c9546001600160a01b0316610321565b34801561041757600080fd5b5061021c611465565b34801561042c57600080fd5b5061029761043b3660046131c2565b611475565b34801561044c57600080fd5b5061026961045b366004612e51565b611696565b34801561046c57600080fd5b5061026961047b36600461316e565b6117e0565b34801561048c57600080fd5b5061026961049b36600461325b565b611816565b3480156104ac57600080fd5b506102976104bb3660046132b6565b611890565b3480156104cc57600080fd5b506102976104db366004612ed3565b611933565b3480156104ec57600080fd5b5061021c6104fb366004612de2565b61195e565b34801561050c57600080fd5b5061029761051b366004612de2565b611a65565b34801561052c57600080fd5b5061029761053b3660046132f7565b611b0c565b34801561054c57600080fd5b5061026961055b3660046133b6565b611ceb565b34801561056c57600080fd5b5061026961057b366004612e51565b611d5b565b34801561058c57600080fd5b5061029761059b366004612ed3565b611e98565b60006001600160e01b03198216635b5e139f60e01b14806105d157506001600160e01b031982166346bdd63960e11b145b806105ec57506301ffc9a760e01b6001600160e01b03198316145b92915050565b606061013080546106029061341a565b80601f016020809104026020016040519081016040528092919081815260200182805461062e9061341a565b801561067b5780601f106106505761010080835404028352916020019161067b565b820191906000526020600020905b81548152906001019060200180831161065e57829003601f168201915b5050505050905090565b6000818152610132602052604081205482906001600160a01b03166106c55760405162461bcd60e51b81526004016106bc9061344e565b60405180910390fd5b600883901c60009081526101376020526040902054600160ff85161b161591505b50919050565b61013554604051633664a8e960e01b815260009182916001600160a01b0390911690633664a8e99061072490899089906004016134ac565b602060405180830381865afa158015610741573d6000803e3d6000fd5b505050506040513d601f19601f8201168201806040525081019061076591906134c0565b90506107b2876107768989896113d8565b86868080601f016020809104026020016040519081016040528093929190818152602001838380828437600092019190915250611f0e92505050565b61080c5760405162461bcd60e51b815260206004820152602560248201527f6769766552657175657374656442616467653a20696e76616c6964207369676e604482015264617475726560d81b60648201526084016106bc565b6101355460405163e3ee9c4d60e01b8152600481018390523360248201526001600160a01b039091169063e3ee9c4d90604401602060405180830381865afa15801561085c573d6000803e3d6000fd5b505050506040513d601f19601f8201168201806040525081019061088091906134d9565b6108cc5760405162461bcd60e51b815260206004820181905260248201527f6769766552657175657374656442616467653a20756e617574686f72697a656460448201526064016106bc565b6108d887878784612050565b979650505050505050565b6001600160a01b037f000000000000000000000000000000000000000000000000000000000000000016300361092b5760405162461bcd60e51b81526004016106bc906134fb565b7f00000000000000000000000000000000000000000000000000000000000000006001600160a01b0316610974600080516020613900833981519152546001600160a01b031690565b6001600160a01b03161461099a5760405162461bcd60e51b81526004016106bc90613547565b6109a3816121cf565b604080516000808252602082019092526109bf918391906121d7565b50565b6101355460405163e3ee9c4d60e01b8152600481018390523360248201526001600160a01b039091169063e3ee9c4d90604401602060405180830381865afa158015610a12573d6000803e3d6000fd5b505050506040513d601f19601f82011682018060405250810190610a3691906134d9565b610a825760405162461bcd60e51b815260206004820152601860248201527f637265617465537065633a20756e617574686f72697a6564000000000000000060448201526064016106bc565b61013554604051637e07102760e11b81526001600160a01b039091169063fc0e204e90610ab590869086906004016134ac565b602060405180830381865afa158015610ad2573d6000803e3d6000fd5b505050506040513d601f19601f82011682018060405250810190610af691906134d9565b15610b4f5760405162461bcd60e51b815260206004820152602360248201527f637265617465537065633a207370656320616c726561647920726567697374656044820152621c995960ea1b60648201526084016106bc565b6101355460405163addd190760e01b81526001600160a01b039091169063addd190790610b8490869086908690600401613593565b600060405180830381600087803b158015610b9e57600080fd5b505af1158015610bb2573d6000803e3d6000fd5b5050505061013560009054906101000a90046001600160a01b03166001600160a01b03166334f876626040518163ffffffff1660e01b8152600401602060405180830381865afa158015610c0a573d6000803e3d6000fd5b505050506040513d601f19601f82011682018060405250810190610c2e91906135b7565b6001600160a01b031681336001600160a01b03167f68c7f8503283c455a4445b54a7d5c40656c8cae5cca0583c6d4be836984787008686604051610c739291906134ac565b60405180910390a4505050565b6000610c9389338a8a8a8a8a8a8a612347565b61013554604051633664a8e960e01b81526000916001600160a01b031690633664a8e990610cc7908c908c906004016134ac565b602060405180830381865afa158015610ce4573d6000803e3d6000fd5b505050506040513d601f19601f82011682018060405250810190610d0891906134c0565b6101355460405163e3ee9c4d60e01b8152600481018390526001600160a01b038d8116602483015292935091169063e3ee9c4d90604401602060405180830381865afa158015610d5c573d6000803e3d6000fd5b505050506040513d601f19601f82011682018060405250810190610d8091906134d9565b610dcc5760405162461bcd60e51b815260206004820152601860248201527f6d65726b6c6554616b653a20756e617574686f72697a6564000000000000000060448201526064016106bc565b610dd8338a8a84612050565b9a9950505050505050505050565b6001600160a01b037f0000000000000000000000000000000000000000000000000000000000000000163003610e2e5760405162461bcd60e51b81526004016106bc906134fb565b7f00000000000000000000000000000000000000000000000000000000000000006001600160a01b0316610e77600080516020613900833981519152546001600160a01b031690565b6001600160a01b031614610e9d5760405162461bcd60e51b81526004016106bc90613547565b610ea6826121cf565b610eb2828260016121d7565b5050565b6000306001600160a01b037f00000000000000000000000000000000000000000000000000000000000000001614610f565760405162461bcd60e51b815260206004820152603860248201527f555550535570677261646561626c653a206d757374206e6f742062652063616c60448201527f6c6564207468726f7567682064656c656761746563616c6c000000000000000060648201526084016106bc565b5060008051602061390083398151915290565b6000818152610132602052604081205482906001600160a01b0316610fa05760405162461bcd60e51b81526004016106bc9061344e565b5050600090815261013260205260409020546001600160a01b031690565b60006001600160a01b0382166110295760405162461bcd60e51b815260206004820152602a60248201527f62616c616e63654f663a2061646472657373283029206973206e6f742061207660448201526930b634b21037bbb732b960b11b60648201526084016106bc565b506001600160a01b03166000908152610134602052604090205490565b61104e6124d4565b611058600061252e565b565b6000828152610132602052604090205482906001600160a01b03166110915760405162461bcd60e51b81526004016106bc9061344e565b6101355460405163e3ee9c4d60e01b8152600481018690523360248201526001600160a01b039091169063e3ee9c4d90604401602060405180830381865afa1580156110e1573d6000803e3d6000fd5b505050506040513d601f19601f8201168201806040525081019061110591906134d9565b6111515760405162461bcd60e51b815260206004820152601960248201527f7265766f6b6542616467653a20756e617574686f72697a65640000000000000060448201526064016106bc565b600883901c60009081526101376020526040902054600160ff85161b16156111c65760405162461bcd60e51b815260206004820152602260248201527f7265766f6b6542616467653a20626164676520616c7265616479207265766f6b604482015261195960f21b60648201526084016106bc565b600883901c6000908152610137602052604090208054600160ff86161b17905560405160ff831690339085907ffa784c48260e8db512de5f055a2f29eced211a7b3bd6338058b095ada7354cee90600090a450505050565b6000818152610132602052604090205481906001600160a01b03166112555760405162461bcd60e51b81526004016106bc9061344e565b6101355460405163e3ee9c4d60e01b8152600481018590523360248201526001600160a01b039091169063e3ee9c4d90604401602060405180830381865afa1580156112a5573d6000803e3d6000fd5b505050506040513d601f19601f820116820180604052508101906112c991906134d9565b6113155760405162461bcd60e51b815260206004820152601c60248201527f7265696e737461746542616467653a20756e617574686f72697a65640000000060448201526064016106bc565b600882901c60009081526101376020526040902054600160ff84161b166113885760405162461bcd60e51b815260206004820152602160248201527f7265696e737461746542616467653a206261646765206e6f74207265766f6b656044820152601960fa1b60648201526084016106bc565b600882901c600090815261013760205260408082208054600160ff87161b1916905551339184917f7f8cf9ecf2a5225948f8a1601709cedc8471c52ee75a8174c9845c29c99ed9a29190a3505050565b600061145b7fa1cd8d39eb877323a4bcf08188675058ee9a4534d4c79021300b3722aeda505d85858560405161140f9291906135d4565b6040519081900381206114409392916020019283526001600160a01b03919091166020830152604082015260600190565b60405160208183030381529060405280519060200120612580565b90505b9392505050565b606061013180546106029061341a565b8481146114e25760405162461bcd60e51b815260206004820152603560248201527f67697665546f4d616e793a20726563697069656e747320616e64207369676e616044820152740e8eae4cae640d8cadccee8d040dad2e6dac2e8c6d605b1b60648201526084016106bc565b61013554604051633664a8e960e01b81526000916001600160a01b031690633664a8e99061151690889088906004016134ac565b602060405180830381865afa158015611533573d6000803e3d6000fd5b505050506040513d601f19601f8201168201806040525081019061155791906134c0565b6101355460405163e3ee9c4d60e01b8152600481018390523360248201529192506001600160a01b03169063e3ee9c4d90604401602060405180830381865afa1580156115a8573d6000803e3d6000fd5b505050506040513d601f19601f820116820180604052508101906115cc91906134d9565b6116185760405162461bcd60e51b815260206004820152601860248201527f67697665546f4d616e793a20756e617574686f72697a6564000000000000000060448201526064016106bc565b60005b8681101561168c57611679888883818110611638576116386135e4565b905060200201602081019061164d9190612ed3565b8787878786818110611661576116616135e4565b905060200281019061167391906135fa565b876125ce565b508061168481613656565b91505061161b565b5050505050505050565b60006116a63387878787876125ea565b61013554604051633664a8e960e01b81526000916001600160a01b031690633664a8e9906116da90899089906004016134ac565b602060405180830381865afa1580156116f7573d6000803e3d6000fd5b505050506040513d601f19601f8201168201806040525081019061171b91906134c0565b6101355460405163e3ee9c4d60e01b8152600481018390526001600160a01b038a8116602483015292935091169063e3ee9c4d90604401602060405180830381865afa15801561176f573d6000803e3d6000fd5b505050506040513d601f19601f8201168201806040525081019061179391906134d9565b6117d45760405162461bcd60e51b81526020600482015260126024820152711d185ad94e881d5b985d5d1a1bdc9a5e995960721b60448201526064016106bc565b6108d833878784612050565b60008383836040516020016117f79392919061366f565b6040516020818303038152906040528051906020012090509392505050565b60006118857f6d0d990916a9f9c9e0896e59ce7f5ddddff333d0c8772438ce004fa7719b164b86868660405161184d9291906135d4565b60405190819003812061144093929187906020019384526001600160a01b039290921660208401526040830152606082015260800190565b90505b949350505050565b6118986124d4565b806118f45760405162461bcd60e51b815260206004820152602660248201527f726566726573684d657461646174613a206e6f207370656320757269732070726044820152651bdd9a59195960d21b60648201526084016106bc565b7f2231d988b1a75dccab13dee3564b71a551900e822e94177a96f19561890c0fd582823360405161192793929190613694565b60405180910390a15050565b61193b6124d4565b61013580546001600160a01b0319166001600160a01b0392909216919091179055565b600081815261013260205260409020546060906001600160a01b03166119c65760405162461bcd60e51b815260206004820152601d60248201527f746f6b656e5552493a20746f6b656e20646f65736e277420657869737400000060448201526064016106bc565b60008281526101336020526040902080546119e09061341a565b80601f0160208091040260200160405190810160405280929190818152602001828054611a0c9061341a565b8015611a595780601f10611a2e57610100808354040283529160200191611a59565b820191906000526020600020905b815481529060010190602001808311611a3c57829003601f168201915b50505050509050919050565b6000818152610132602052604090205481906001600160a01b0316611a9c5760405162461bcd60e51b81526004016106bc9061344e565b600082815261013260205260409020546001600160a01b03163314611b035760405162461bcd60e51b815260206004820152601d60248201527f756e65717569703a2073656e646572206d757374206265206f776e657200000060448201526064016106bc565b610eb282612698565b600054610100900460ff1615808015611b2c5750600054600160ff909116105b80611b465750303b158015611b46575060005460ff166001145b611ba95760405162461bcd60e51b815260206004820152602e60248201527f496e697469616c697a61626c653a20636f6e747261637420697320616c72656160448201526d191e481a5b9a5d1a585b1a5e995960921b60648201526084016106bc565b6000805460ff191660011790558015611bcc576000805461ff0019166101001790555b610130611bda898b83613783565b50610131611be9878983613783565b5061013580546001600160a01b0319166001600160a01b038416179055611c0e612743565b611c1661276a565b611c8989898080601f01602080910402602001604051908101604052809392919081815260200183838082843760009201919091525050604080516020601f8b01819004810282018101909252898152925089915088908190840183828082843760009201919091525061279992505050565b611c91612743565b611c9a83611e98565b8015611ce0576000805461ff0019169055604051600181527f7f26b83ff96e1f2b6a682f133852f6798a09c465da95921460cefb38474024989060200160405180910390a15b505050505050505050565b60006118857fe76a195fbe43f0eaa611595069f780493db2202a1cc4b2d7d44b47069812998a86868686604051611d239291906135d4565b604051908190038120611440949392916020019384526001600160a01b03928316602085015291166040830152606082015260800190565b61013554604051633664a8e960e01b815260009182916001600160a01b0390911690633664a8e990611d9390899089906004016134ac565b602060405180830381865afa158015611db0573d6000803e3d6000fd5b505050506040513d601f19601f82011682018060405250810190611dd491906134c0565b6101355460405163e3ee9c4d60e01b8152600481018390523360248201529192506001600160a01b03169063e3ee9c4d90604401602060405180830381865afa158015611e25573d6000803e3d6000fd5b505050506040513d601f19601f82011682018060405250810190611e4991906134d9565b611e8a5760405162461bcd60e51b815260206004820152601260248201527119da5d994e881d5b985d5d1a1bdc9a5e995960721b60448201526064016106bc565b6108d88787878787866125ce565b611ea06124d4565b6001600160a01b038116611f055760405162461bcd60e51b815260206004820152602660248201527f4f776e61626c653a206e6577206f776e657220697320746865207a65726f206160448201526564647265737360d01b60648201526084016106bc565b6109bf8161252e565b6000806000611f1d85856127ca565b90925090506000816004811115611f3657611f36613843565b148015611f545750856001600160a01b0316826001600160a01b0316145b15611f645760019250505061145e565b600080876001600160a01b0316631626ba7e60e01b8888604051602401611f8c929190613859565b60408051601f198184030181529181526020820180516001600160e01b03166001600160e01b0319909416939093179092529051611fca9190613872565b600060405180830381855afa9150503d8060008114612005576040519150601f19603f3d011682016040523d82523d6000602084013e61200a565b606091505b509150915081801561201d575080516020145b801561204457508051630b135d3f60e11b9061204290830160209081019084016134c0565b145b98975050505050505050565b60008061205e8686866117e0565b600081815261013260205260409020549091506001600160a01b0316156120be5760405162461bcd60e51b81526020600482015260146024820152736d696e743a20746f6b656e49442065786973747360601b60448201526064016106bc565b6001600160a01b0386166000908152610134602052604081208054916120e383613656565b909155505060008181526101326020908152604080832080546001600160a01b0319166001600160a01b038b161790556101339091529020612126858783613783565b5060405181906001600160a01b038816906000907fddf252ad1be2c89b69c2b068fc378daa952ba7f163c4a11628f55a4df523b3ef908290a46101355460405163fb74926160e01b815260048101839052602481018590526001600160a01b039091169063fb74926190604401600060405180830381600087803b1580156121ad57600080fd5b505af11580156121c1573d6000803e3d6000fd5b509298975050505050505050565b6109bf6124d4565b7f4910fdfa16fed3260ed0e7147f7cc6da11a60208b5b9406d12a635614ffd91435460ff161561220f5761220a83612838565b505050565b826001600160a01b03166352d1902d6040518163ffffffff1660e01b8152600401602060405180830381865afa925050508015612269575060408051601f3d908101601f19168201909252612266918101906134c0565b60015b6122cc5760405162461bcd60e51b815260206004820152602e60248201527f45524331393637557067726164653a206e657720696d706c656d656e7461746960448201526d6f6e206973206e6f74205555505360901b60648201526084016106bc565b600080516020613900833981519152811461233b5760405162461bcd60e51b815260206004820152602960248201527f45524331393637557067726164653a20756e737570706f727465642070726f786044820152681a58589b195555525160ba1b60648201526084016106bc565b5061220a8383836128d4565b612393896123578b8a8a88611816565b87878080601f016020809104026020016040519081016040528093929190818152602001838380828437600092019190915250611f0e92505050565b6123f35760405162461bcd60e51b815260206004820152602b60248201527f73616665436865636b4d65726b6c6541677265656d656e743a20696e76616c6960448201526a64207369676e617475726560a81b60648201526084016106bc565b6040516bffffffffffffffffffffffff1960608a901b16602082015260009060340160405160208183030381529060405280519060200120905061246d8383808060200260200160405190810160405280939291908181526020018383602002808284376000920191909152508892508591506128ff9050565b6124c85760405162461bcd60e51b815260206004820152602660248201527f73616665436865636b4d65726b6c6541677265656d656e743a20696e76616c6960448201526532103632b0b360d11b60648201526084016106bc565b50505050505050505050565b60c9546001600160a01b031633146110585760405162461bcd60e51b815260206004820181905260248201527f4f776e61626c653a2063616c6c6572206973206e6f7420746865206f776e657260448201526064016106bc565b60c980546001600160a01b038381166001600160a01b0319831681179093556040519116919082907f8be0079c531659141344cd1fd0a4f28419497f9722a3daafe3b4186f6b6457e090600090a35050565b60006105ec61258d612915565b8360405161190160f01b6020820152602281018390526042810182905260009060620160405160208183030381529060405280519060200120905092915050565b60006125de3388888888886125ea565b6108d887878785612050565b612636856125fa88888888611ceb565b84848080601f016020809104026020016040519081016040528093929190818152602001838380828437600092019190915250611f0e92505050565b6126905760405162461bcd60e51b815260206004820152602560248201527f73616665436865636b41677265656d656e743a20696e76616c6964207369676e604482015264617475726560d81b60648201526084016106bc565b505050505050565b600081815261013260209081526040808320546001600160a01b03168084526101349092528220805491926001926126d190849061388e565b909155505060008281526101326020908152604080832080546001600160a01b0319169055610133909152812061270791612d07565b60405182906000906001600160a01b038416907fddf252ad1be2c89b69c2b068fc378daa952ba7f163c4a11628f55a4df523b3ef908390a45050565b600054610100900460ff166110585760405162461bcd60e51b81526004016106bc906138a1565b600054610100900460ff166127915760405162461bcd60e51b81526004016106bc906138a1565b611058612951565b600054610100900460ff166127c05760405162461bcd60e51b81526004016106bc906138a1565b610eb28282612981565b60008082516041036128005760208301516040840151606085015160001a6127f4878285856129c2565b94509450505050612831565b8251604003612829576020830151604084015161281e868383612aaf565b935093505050612831565b506000905060025b9250929050565b6001600160a01b0381163b6128a55760405162461bcd60e51b815260206004820152602d60248201527f455243313936373a206e657720696d706c656d656e746174696f6e206973206e60448201526c1bdd08184818dbdb9d1c9858dd609a1b60648201526084016106bc565b60008051602061390083398151915280546001600160a01b0319166001600160a01b0392909216919091179055565b6128dd83612ae8565b6000825111806128ea5750805b1561220a576128f98383612b28565b50505050565b60008261290c8584612c1c565b14949350505050565b600061294c7f8b73c3c69bb8fe3d512ecc4cf759cc79239f7b179b0ffacaa9a75d522b39400f61294460fb5490565b60fc54612c69565b905090565b600054610100900460ff166129785760405162461bcd60e51b81526004016106bc906138a1565b6110583361252e565b600054610100900460ff166129a85760405162461bcd60e51b81526004016106bc906138a1565b81516020928301208151919092012060fb9190915560fc55565b6000807f7fffffffffffffffffffffffffffffff5d576e7357a4501ddfe92f46681b20a08311156129f95750600090506003612aa6565b8460ff16601b14158015612a1157508460ff16601c14155b15612a225750600090506004612aa6565b6040805160008082526020820180845289905260ff881692820192909252606081018690526080810185905260019060a0016020604051602081039080840390855afa158015612a76573d6000803e3d6000fd5b5050604051601f1901519150506001600160a01b038116612a9f57600060019250925050612aa6565b9150600090505b94509492505050565b6000806001600160ff1b03831681612acc60ff86901c601b6138ec565b9050612ada878288856129c2565b935093505050935093915050565b612af181612838565b6040516001600160a01b038216907fbc7cd75a20ee27fd9adebab32041f755214dbc6bffa90cc0225b39da2e5c2d3b90600090a250565b60606001600160a01b0383163b612b905760405162461bcd60e51b815260206004820152602660248201527f416464726573733a2064656c65676174652063616c6c20746f206e6f6e2d636f6044820152651b9d1c9858dd60d21b60648201526084016106bc565b600080846001600160a01b031684604051612bab9190613872565b600060405180830381855af49150503d8060008114612be6576040519150601f19603f3d011682016040523d82523d6000602084013e612beb565b606091505b5091509150612c13828260405180606001604052806027815260200161392060279139612c98565b95945050505050565b600081815b8451811015612c6157612c4d82868381518110612c4057612c406135e4565b6020026020010151612cb1565b915080612c5981613656565b915050612c21565b509392505050565b6040805160208101859052908101839052606081018290524660808201523060a082015260009060c0016117f7565b60608315612ca757508161145e565b61145e8383612cdd565b6000818310612ccd57600082815260208490526040902061145e565b5060009182526020526040902090565b815115612ced5781518083602001fd5b8060405162461bcd60e51b81526004016106bc9190612dcf565b508054612d139061341a565b6000825580601f10612d23575050565b601f0160209004906000526020600020908101906109bf91905b80821115612d515760008155600101612d3d565b5090565b600060208284031215612d6757600080fd5b81356001600160e01b03198116811461145e57600080fd5b60005b83811015612d9a578181015183820152602001612d82565b50506000910152565b60008151808452612dbb816020860160208601612d7f565b601f01601f19169290920160200192915050565b60208152600061145e6020830184612da3565b600060208284031215612df457600080fd5b5035919050565b6001600160a01b03811681146109bf57600080fd5b60008083601f840112612e2257600080fd5b5081356001600160401b03811115612e3957600080fd5b60208301915083602082850101111561283157600080fd5b600080600080600060608688031215612e6957600080fd5b8535612e7481612dfb565b945060208601356001600160401b0380821115612e9057600080fd5b612e9c89838a01612e10565b90965094506040880135915080821115612eb557600080fd5b50612ec288828901612e10565b969995985093965092949392505050565b600060208284031215612ee557600080fd5b813561145e81612dfb565b600080600060408486031215612f0557600080fd5b83356001600160401b03811115612f1b57600080fd5b612f2786828701612e10565b909790965060209590950135949350505050565b60008083601f840112612f4d57600080fd5b5081356001600160401b03811115612f6457600080fd5b6020830191508360208260051b850101111561283157600080fd5b60008060008060008060008060a0898b031215612f9b57600080fd5b8835612fa681612dfb565b975060208901356001600160401b0380821115612fc257600080fd5b612fce8c838d01612e10565b909950975060408b0135915080821115612fe757600080fd5b612ff38c838d01612e10565b909750955060608b0135945060808b013591508082111561301357600080fd5b506130208b828c01612f3b565b999c989b5096995094979396929594505050565b634e487b7160e01b600052604160045260246000fd5b6000806040838503121561305d57600080fd5b823561306881612dfb565b915060208301356001600160401b038082111561308457600080fd5b818501915085601f83011261309857600080fd5b8135818111156130aa576130aa613034565b604051601f8201601f19908116603f011681019083821181831017156130d2576130d2613034565b816040528281528860208487010111156130eb57600080fd5b8260208601602083013760006020848301015280955050505050509250929050565b60008060006060848603121561312257600080fd5b8335925060208401359150604084013560ff8116811461314157600080fd5b809150509250925092565b6000806040838503121561315f57600080fd5b50508035926020909101359150565b60008060006040848603121561318357600080fd5b833561318e81612dfb565b925060208401356001600160401b038111156131a957600080fd5b6131b586828701612e10565b9497909650939450505050565b600080600080600080606087890312156131db57600080fd5b86356001600160401b03808211156131f257600080fd5b6131fe8a838b01612f3b565b9098509650602089013591508082111561321757600080fd5b6132238a838b01612e10565b9096509450604089013591508082111561323c57600080fd5b5061324989828a01612f3b565b979a9699509497509295939492505050565b6000806000806060858703121561327157600080fd5b843561327c81612dfb565b935060208501356001600160401b0381111561329757600080fd5b6132a387828801612e10565b9598909750949560400135949350505050565b600080602083850312156132c957600080fd5b82356001600160401b038111156132df57600080fd5b6132eb85828601612f3b565b90969095509350505050565b60008060008060008060008060a0898b03121561331357600080fd5b88356001600160401b038082111561332a57600080fd5b6133368c838d01612e10565b909a50985060208b013591508082111561334f57600080fd5b61335b8c838d01612e10565b909850965060408b013591508082111561337457600080fd5b506133818b828c01612e10565b909550935050606089013561339581612dfb565b915060808901356133a581612dfb565b809150509295985092959890939650565b600080600080606085870312156133cc57600080fd5b84356133d781612dfb565b935060208501356133e781612dfb565b925060408501356001600160401b0381111561340257600080fd5b61340e87828801612e10565b95989497509550505050565b600181811c9082168061342e57607f821691505b6020821081036106e657634e487b7160e01b600052602260045260246000fd5b6020808252818101527f746f6b656e4578697374733a20746f6b656e20646f65736e2774206578697374604082015260600190565b81835281816020850137506000828201602090810191909152601f909101601f19169091010190565b60208152600061145b602083018486613483565b6000602082840312156134d257600080fd5b5051919050565b6000602082840312156134eb57600080fd5b8151801515811461145e57600080fd5b6020808252602c908201527f46756e6374696f6e206d7573742062652063616c6c6564207468726f7567682060408201526b19195b1959d85d1958d85b1b60a21b606082015260800190565b6020808252602c908201527f46756e6374696f6e206d7573742062652063616c6c6564207468726f7567682060408201526b6163746976652070726f787960a01b606082015260800190565b6040815260006135a7604083018587613483565b9050826020830152949350505050565b6000602082840312156135c957600080fd5b815161145e81612dfb565b8183823760009101908152919050565b634e487b7160e01b600052603260045260246000fd5b6000808335601e1984360301811261361157600080fd5b8301803591506001600160401b0382111561362b57600080fd5b60200191503681900382131561283157600080fd5b634e487b7160e01b600052601160045260246000fd5b60006001820161366857613668613640565b5060010190565b6001600160a01b03841681526040602082018190526000906118859083018486613483565b6040808252810183905260006060600585901b8301810190830186835b8781101561372457858403605f190183528135368a9003601e190181126136d757600080fd5b890160208181019135906001600160401b038211156136f557600080fd5b81360383131561370457600080fd5b61370f878385613483565b965094850194939093019250506001016136b1565b5050506001600160a01b03841660208401529050611888565b601f82111561220a57600081815260208120601f850160051c810160208610156137645750805b601f850160051c820191505b8181101561269057828155600101613770565b6001600160401b0383111561379a5761379a613034565b6137ae836137a8835461341a565b8361373d565b6000601f8411600181146137e257600085156137ca5750838201355b600019600387901b1c1916600186901b17835561383c565b600083815260209020601f19861690835b8281101561381357868501358255602094850194600190920191016137f3565b50868210156138305760001960f88860031b161c19848701351681555b505060018560011b0183555b5050505050565b634e487b7160e01b600052602160045260246000fd5b82815260406020820152600061145b6040830184612da3565b60008251613884818460208701612d7f565b9190910192915050565b818103818111156105ec576105ec613640565b6020808252602b908201527f496e697469616c697a61626c653a20636f6e7472616374206973206e6f74206960408201526a6e697469616c697a696e6760a81b606082015260800190565b808201808211156105ec576105ec61364056fe360894a13ba1a3210667c828492db98dca3e2076cc3735a920a3ca505d382bbc416464726573733a206c6f772d6c6576656c2064656c65676174652063616c6c206661696c6564a26469706673582212206e969485855a134a71f80272a08333c1c4bcb288efef2b00b14874bc473cb39464736f6c63430008100033",
  "linkReferences": {},
  "deployedLinkReferences": {}
}