{
  "_format": "hh-sol-artifact-1",
  "contractName": "Badges",
  "sourceName": "src/Badges.sol",
  "abi": [
    {
      "inputs": [],
      "stateMutability": "nonpayable",
      "type": "constructor"
    },
    {
      "anonymous": false,
      "inputs": [
        {
          "indexed": false,
          "internalType": "address",
          "name": "previousAdmin",
          "type": "address"
        },
        {
          "indexed": false,
          "internalType": "address",
          "name": "newAdmin",
          "type": "address"
        }
      ],
      "name": "AdminChanged",
      "type": "event"
    },
    {
      "anonymous": false,
      "inputs": [
        {
          "indexed": true,
          "internalType": "uint256",
          "name": "tokenId",
          "type": "uint256"
        },
        {
          "indexed": true,
          "internalType": "address",
          "name": "from",
          "type": "address"
        }
      ],
      "name": "BadgeReinstated",
      "type": "event"
    },
    {
      "anonymous": false,
      "inputs": [
        {
          "indexed": true,
          "internalType": "uint256",
          "name": "tokenId",
          "type": "uint256"
        },
        {
          "indexed": true,
          "internalType": "address",
          "name": "from",
          "type": "address"
        },
        {
          "indexed": true,
          "internalType": "uint8",
          "name": "reason",
          "type": "uint8"
        }
      ],
      "name": "BadgeRevoked",
      "type": "event"
    },
    {
      "anonymous": false,
      "inputs": [
        {
          "indexed": true,
          "internalType": "address",
          "name": "beacon",
          "type": "address"
        }
      ],
      "name": "BeaconUpgraded",
      "type": "event"
    },
    {
      "anonymous": false,
      "inputs": [
        {
          "indexed": false,
          "internalType": "uint8",
          "name": "version",
          "type": "uint8"
        }
      ],
      "name": "Initialized",
      "type": "event"
    },
    {
      "anonymous": false,
      "inputs": [
        {
          "indexed": true,
          "internalType": "address",
          "name": "previousOwner",
          "type": "address"
        },
        {
          "indexed": true,
          "internalType": "address",
          "name": "newOwner",
          "type": "address"
        }
      ],
      "name": "OwnershipTransferred",
      "type": "event"
    },
    {
      "anonymous": false,
      "inputs": [
        {
          "indexed": false,
          "internalType": "string[]",
          "name": "specUris",
          "type": "string[]"
        },
        {
          "indexed": false,
          "internalType": "address",
          "name": "sender",
          "type": "address"
        }
      ],
      "name": "RefreshMetadata",
      "type": "event"
    },
    {
      "anonymous": false,
      "inputs": [
        {
          "indexed": true,
          "internalType": "address",
          "name": "to",
          "type": "address"
        },
        {
          "indexed": false,
          "internalType": "string",
          "name": "specUri",
          "type": "string"
        },
        {
          "indexed": true,
          "internalType": "uint256",
          "name": "raftTokenId",
          "type": "uint256"
        },
        {
          "indexed": true,
          "internalType": "address",
          "name": "raftAddress",
          "type": "address"
        }
      ],
      "name": "SpecCreated",
      "type": "event"
    },
    {
      "anonymous": false,
      "inputs": [
        {
          "indexed": true,
          "internalType": "address",
          "name": "from",
          "type": "address"
        },
        {
          "indexed": true,
          "internalType": "address",
          "name": "to",
          "type": "address"
        },
        {
          "indexed": true,
          "internalType": "uint256",
          "name": "tokenId",
          "type": "uint256"
        }
      ],
      "name": "Transfer",
      "type": "event"
    },
    {
      "anonymous": false,
      "inputs": [
        {
          "indexed": true,
          "internalType": "address",
          "name": "implementation",
          "type": "address"
        }
      ],
      "name": "Upgraded",
      "type": "event"
    },
    {
      "inputs": [
        {
          "internalType": "address",
          "name": "_owner",
          "type": "address"
        }
      ],
      "name": "balanceOf",
      "outputs": [
        {
          "internalType": "uint256",
          "name": "",
          "type": "uint256"
        }
      ],
      "stateMutability": "view",
      "type": "function"
    },
    {
      "inputs": [
        {
          "internalType": "string",
          "name": "_specUri",
          "type": "string"
        },
        {
          "internalType": "uint256",
          "name": "_raftTokenId",
          "type": "uint256"
        }
      ],
      "name": "createSpec",
      "outputs": [],
      "stateMutability": "nonpayable",
      "type": "function"
    },
    {
      "inputs": [
        {
          "internalType": "address",
          "name": "_from",
          "type": "address"
        },
        {
          "internalType": "address",
          "name": "_to",
          "type": "address"
        },
        {
          "internalType": "string",
          "name": "_uri",
          "type": "string"
        }
      ],
      "name": "getAgreementHash",
      "outputs": [
        {
          "internalType": "bytes32",
          "name": "",
          "type": "bytes32"
        }
      ],
      "stateMutability": "view",
      "type": "function"
    },
    {
      "inputs": [
        {
          "internalType": "address",
          "name": "_to",
          "type": "address"
        },
        {
          "internalType": "string",
          "name": "_uri",
          "type": "string"
        }
      ],
      "name": "getBadgeIdHash",
      "outputs": [
        {
          "internalType": "bytes32",
          "name": "",
          "type": "bytes32"
        }
      ],
      "stateMutability": "view",
      "type": "function"
    },
    {
      "inputs": [],
      "name": "getDataHolderAddress",
      "outputs": [
        {
          "internalType": "address",
          "name": "",
          "type": "address"
        }
      ],
      "stateMutability": "view",
      "type": "function"
    },
    {
      "inputs": [
        {
          "internalType": "address",
          "name": "_issuer",
          "type": "address"
        },
        {
          "internalType": "string",
          "name": "_uri",
          "type": "string"
        },
        {
          "internalType": "bytes32",
          "name": "_root",
          "type": "bytes32"
        }
      ],
      "name": "getMerkleAgreementHash",
      "outputs": [
        {
          "internalType": "bytes32",
          "name": "",
          "type": "bytes32"
        }
      ],
      "stateMutability": "view",
      "type": "function"
    },
    {
      "inputs": [
        {
          "internalType": "address",
          "name": "_to",
          "type": "address"
        },
        {
          "internalType": "string",
          "name": "_uri",
          "type": "string"
        },
        {
          "internalType": "bytes",
          "name": "_signature",
          "type": "bytes"
        }
      ],
      "name": "give",
      "outputs": [
        {
          "internalType": "uint256",
          "name": "",
          "type": "uint256"
        }
      ],
      "stateMutability": "nonpayable",
      "type": "function"
    },
    {
      "inputs": [
        {
          "internalType": "address[]",
          "name": "_recipients",
          "type": "address[]"
        },
        {
          "internalType": "string",
          "name": "_uri",
          "type": "string"
        },
        {
          "internalType": "bytes[]",
          "name": "_signatures",
          "type": "bytes[]"
        }
      ],
      "name": "giveToMany",
      "outputs": [],
      "stateMutability": "nonpayable",
      "type": "function"
    },
    {
      "inputs": [
        {
          "internalType": "string",
          "name": "_name",
          "type": "string"
        },
        {
          "internalType": "string",
          "name": "_symbol",
          "type": "string"
        },
        {
          "internalType": "string",
          "name": "_version",
          "type": "string"
        },
        {
          "internalType": "address",
          "name": "_nextOwner",
          "type": "address"
        },
        {
          "internalType": "address",
          "name": "_specDataHolderAddress",
          "type": "address"
        }
      ],
      "name": "initialize",
      "outputs": [],
      "stateMutability": "nonpayable",
      "type": "function"
    },
    {
      "inputs": [
        {
          "internalType": "uint256",
          "name": "_badgeId",
          "type": "uint256"
        }
      ],
      "name": "isBadgeValid",
      "outputs": [
        {
          "internalType": "bool",
          "name": "",
          "type": "bool"
        }
      ],
      "stateMutability": "view",
      "type": "function"
    },
    {
      "inputs": [
        {
          "internalType": "address",
          "name": "_from",
          "type": "address"
        },
        {
          "internalType": "string",
          "name": "_uri",
          "type": "string"
        },
        {
          "internalType": "bytes",
          "name": "_signature",
          "type": "bytes"
        },
        {
          "internalType": "bytes32",
          "name": "root",
          "type": "bytes32"
        },
        {
          "internalType": "bytes32[]",
          "name": "proof",
          "type": "bytes32[]"
        }
      ],
      "name": "merkleTake",
      "outputs": [
        {
          "internalType": "uint256",
          "name": "",
          "type": "uint256"
        }
      ],
      "stateMutability": "nonpayable",
      "type": "function"
    },
    {
      "inputs": [],
      "name": "name",
      "outputs": [
        {
          "internalType": "string",
          "name": "",
          "type": "string"
        }
      ],
      "stateMutability": "view",
      "type": "function"
    },
    {
      "inputs": [],
      "name": "owner",
      "outputs": [
        {
          "internalType": "address",
          "name": "",
          "type": "address"
        }
      ],
      "stateMutability": "view",
      "type": "function"
    },
    {
      "inputs": [
        {
          "internalType": "uint256",
          "name": "_tokenId",
          "type": "uint256"
        }
      ],
      "name": "ownerOf",
      "outputs": [
        {
          "internalType": "address",
          "name": "",
          "type": "address"
        }
      ],
      "stateMutability": "view",
      "type": "function"
    },
    {
      "inputs": [],
      "name": "proxiableUUID",
      "outputs": [
        {
          "internalType": "bytes32",
          "name": "",
          "type": "bytes32"
        }
      ],
      "stateMutability": "view",
      "type": "function"
    },
    {
      "inputs": [
        {
          "internalType": "string[]",
          "name": "_specUris",
          "type": "string[]"
        }
      ],
      "name": "refreshMetadata",
      "outputs": [],
      "stateMutability": "nonpayable",
      "type": "function"
    },
    {
      "inputs": [
        {
          "internalType": "uint256",
          "name": "_raftTokenId",
          "type": "uint256"
        },
        {
          "internalType": "uint256",
          "name": "_badgeId",
          "type": "uint256"
        }
      ],
      "name": "reinstateBadge",
      "outputs": [],
      "stateMutability": "nonpayable",
      "type": "function"
    },
    {
      "inputs": [],
      "name": "renounceOwnership",
      "outputs": [],
      "stateMutability": "nonpayable",
      "type": "function"
    },
    {
      "inputs": [
        {
          "internalType": "uint256",
          "name": "_raftTokenId",
          "type": "uint256"
        },
        {
          "internalType": "uint256",
          "name": "_badgeId",
          "type": "uint256"
        },
        {
          "internalType": "uint8",
          "name": "_reason",
          "type": "uint8"
        }
      ],
      "name": "revokeBadge",
      "outputs": [],
      "stateMutability": "nonpayable",
      "type": "function"
    },
    {
      "inputs": [
        {
          "internalType": "address",
          "name": "_dataHolder",
          "type": "address"
        }
      ],
      "name": "setDataHolder",
      "outputs": [],
      "stateMutability": "nonpayable",
      "type": "function"
    },
    {
      "inputs": [
        {
          "internalType": "bytes4",
          "name": "_interfaceId",
          "type": "bytes4"
        }
      ],
      "name": "supportsInterface",
      "outputs": [
        {
          "internalType": "bool",
          "name": "",
          "type": "bool"
        }
      ],
      "stateMutability": "view",
      "type": "function"
    },
    {
      "inputs": [],
      "name": "symbol",
      "outputs": [
        {
          "internalType": "string",
          "name": "",
          "type": "string"
        }
      ],
      "stateMutability": "view",
      "type": "function"
    },
    {
      "inputs": [
        {
          "internalType": "address",
          "name": "_from",
          "type": "address"
        },
        {
          "internalType": "string",
          "name": "_uri",
          "type": "string"
        },
        {
          "internalType": "bytes",
          "name": "_signature",
          "type": "bytes"
        }
      ],
      "name": "take",
      "outputs": [
        {
          "internalType": "uint256",
          "name": "",
          "type": "uint256"
        }
      ],
      "stateMutability": "nonpayable",
      "type": "function"
    },
    {
      "inputs": [
        {
          "internalType": "uint256",
          "name": "_tokenId",
          "type": "uint256"
        }
      ],
      "name": "tokenURI",
      "outputs": [
        {
          "internalType": "string",
          "name": "",
          "type": "string"
        }
      ],
      "stateMutability": "view",
      "type": "function"
    },
    {
      "inputs": [
        {
          "internalType": "address",
          "name": "newOwner",
          "type": "address"
        }
      ],
      "name": "transferOwnership",
      "outputs": [],
      "stateMutability": "nonpayable",
      "type": "function"
    },
    {
      "inputs": [
        {
          "internalType": "uint256",
          "name": "_tokenId",
          "type": "uint256"
        }
      ],
      "name": "unequip",
      "outputs": [],
      "stateMutability": "nonpayable",
      "type": "function"
    },
    {
      "inputs": [
        {
          "internalType": "address",
          "name": "newImplementation",
          "type": "address"
        }
      ],
      "name": "upgradeTo",
      "outputs": [],
      "stateMutability": "nonpayable",
      "type": "function"
    },
    {
      "inputs": [
        {
          "internalType": "address",
          "name": "newImplementation",
          "type": "address"
        },
        {
          "internalType": "bytes",
          "name": "data",
          "type": "bytes"
        }
      ],
      "name": "upgradeToAndCall",
      "outputs": [],
      "stateMutability": "payable",
      "type": "function"
    }
  ],
  "bytecode": "0x60a0604052306080523480156200001557600080fd5b506200002062000026565b620000e8565b600054610100900460ff1615620000935760405162461bcd60e51b815260206004820152602760248201527f496e697469616c697a61626c653a20636f6e747261637420697320696e697469604482015266616c697a696e6760c81b606482015260840160405180910390fd5b60005460ff9081161015620000e6576000805460ff191660ff9081179091556040519081527f7f26b83ff96e1f2b6a682f133852f6798a09c465da95921460cefb38474024989060200160405180910390a15b565b60805161374b62000120600039600081816106a0015281816106e001528181610ba501528181610be50152610c78015261374b6000f3fe6080604052600436106101b75760003560e01c80638da5cb5b116100ec578063c01841121161008a578063d6d0faee11610064578063d6d0faee146104ca578063e4992506146104ea578063ec64948e1461050a578063f2fde38b1461052a57600080fd5b8063c01841121461046a578063c87b56dd1461048a578063d179e3d0146104aa57600080fd5b8063a3947803116100c6578063a3947803146103ea578063a8cf86831461040a578063bd6645e41461042a578063bdbdbcbf1461044a57600080fd5b80638da5cb5b1461039757806395d89b41146103b5578063a32c9c7a146103ca57600080fd5b806352d1902d1161015957806370a082311161013357806370a0823114610322578063715018a6146103425780637c402f8d1461035757806380956c7e1461037757600080fd5b806352d1902d146102b65780636352211e146102cb578063635ad9931461030357600080fd5b80633659cfe6116101955780633659cfe614610233578063445a62b9146102555780634a086b53146102755780634f1ef286146102a357600080fd5b806301ffc9a7146101bc57806306fdde03146101f15780630f4d9b0114610213575b600080fd5b3480156101c857600080fd5b506101dc6101d7366004612b24565b61054a565b60405190151581526020015b60405180910390f35b3480156101fd57600080fd5b5061020661059c565b6040516101e89190612b9e565b34801561021f57600080fd5b506101dc61022e366004612bb1565b61062f565b34801561023f57600080fd5b5061025361024e366004612bdf565b610696565b005b34801561026157600080fd5b50610253610270366004612c3d565b610775565b34801561028157600080fd5b50610295610290366004612ccc565b610a33565b6040519081526020016101e8565b6102536102b1366004612d97565b610b9b565b3480156102c257600080fd5b50610295610c6b565b3480156102d757600080fd5b506102eb6102e6366004612bb1565b610d1e565b6040516001600160a01b0390911681526020016101e8565b34801561030f57600080fd5b50610135546001600160a01b03166102eb565b34801561032e57600080fd5b5061029561033d366004612bdf565b610d73565b34801561034e57600080fd5b50610253610dfb565b34801561036357600080fd5b50610253610372366004612e5a565b610e0f565b34801561038357600080fd5b50610253610392366004612e99565b610fdc565b3480156103a357600080fd5b5060c9546001600160a01b03166102eb565b3480156103c157600080fd5b5061020661119f565b3480156103d657600080fd5b506102536103e5366004612ebb565b6111af565b3480156103f657600080fd5b50610295610405366004612f54565b6113d8565b34801561041657600080fd5b50610295610425366004612fd6565b61153a565b34801561043657600080fd5b5061029561044536600461302a565b611571565b34801561045657600080fd5b50610253610465366004613085565b611606565b34801561047657600080fd5b50610253610485366004612bdf565b6116a9565b34801561049657600080fd5b506102066104a5366004612bb1565b6116d4565b3480156104b657600080fd5b506102536104c5366004612bb1565b6117db565b3480156104d657600080fd5b506102536104e53660046130c6565b611882565b3480156104f657600080fd5b50610295610505366004613185565b611a61565b34801561051657600080fd5b50610295610525366004612f54565b611ad1565b34801561053657600080fd5b50610253610545366004612bdf565b611c16565b60006001600160e01b03198216635b5e139f60e01b148061057b57506001600160e01b031982166346bdd63960e11b145b8061059657506301ffc9a760e01b6001600160e01b03198316145b92915050565b606061013080546105ac906131e9565b80601f01602080910402602001604051908101604052809291908181526020018280546105d8906131e9565b80156106255780601f106105fa57610100808354040283529160200191610625565b820191906000526020600020905b81548152906001019060200180831161060857829003601f168201915b5050505050905090565b6000818152610132602052604081205482906001600160a01b031661066f5760405162461bcd60e51b81526004016106669061321d565b60405180910390fd5b600883901c60009081526101376020526040902054600160ff85161b161591505b50919050565b6001600160a01b037f00000000000000000000000000000000000000000000000000000000000000001630036106de5760405162461bcd60e51b815260040161066690613252565b7f00000000000000000000000000000000000000000000000000000000000000006001600160a01b03166107276000805160206136cf833981519152546001600160a01b031690565b6001600160a01b03161461074d5760405162461bcd60e51b81526004016106669061329e565b61075681611c8c565b6040805160008082526020820190925261077291839190611c94565b50565b6101355460405163e3ee9c4d60e01b8152600481018390523360248201526001600160a01b039091169063e3ee9c4d90604401602060405180830381865afa1580156107c5573d6000803e3d6000fd5b505050506040513d601f19601f820116820180604052508101906107e991906132ea565b6108355760405162461bcd60e51b815260206004820152601860248201527f637265617465537065633a20756e617574686f72697a656400000000000000006044820152606401610666565b61013554604051637e07102760e11b81526001600160a01b039091169063fc0e204e906108689086908690600401613335565b602060405180830381865afa158015610885573d6000803e3d6000fd5b505050506040513d601f19601f820116820180604052508101906108a991906132ea565b156109025760405162461bcd60e51b815260206004820152602360248201527f637265617465537065633a207370656320616c726561647920726567697374656044820152621c995960ea1b6064820152608401610666565b6101355460405163addd190760e01b81526001600160a01b039091169063addd19079061093790869086908690600401613349565b600060405180830381600087803b15801561095157600080fd5b505af1158015610965573d6000803e3d6000fd5b5050505061013560009054906101000a90046001600160a01b03166001600160a01b03166334f876626040518163ffffffff1660e01b8152600401602060405180830381865afa1580156109bd573d6000803e3d6000fd5b505050506040513d601f19601f820116820180604052508101906109e1919061336d565b6001600160a01b031681336001600160a01b03167f68c7f8503283c455a4445b54a7d5c40656c8cae5cca0583c6d4be836984787008686604051610a26929190613335565b60405180910390a4505050565b6000610a4689338a8a8a8a8a8a8a611e04565b61013554604051633664a8e960e01b81526000916001600160a01b031690633664a8e990610a7a908c908c90600401613335565b602060405180830381865afa158015610a97573d6000803e3d6000fd5b505050506040513d601f19601f82011682018060405250810190610abb919061338a565b6101355460405163b2a0cb6b60e01b8152600481018390529192506001600160a01b038c81169291169063b2a0cb6b90602401602060405180830381865afa158015610b0b573d6000803e3d6000fd5b505050506040513d601f19601f82011682018060405250810190610b2f919061336d565b6001600160a01b031614610b815760405162461bcd60e51b81526020600482015260196024820152783a30b5b29d103ab730baba3437b934bd32b21034b9b9bab2b960391b6044820152606401610666565b610b8d338a8a84611f91565b9a9950505050505050505050565b6001600160a01b037f0000000000000000000000000000000000000000000000000000000000000000163003610be35760405162461bcd60e51b815260040161066690613252565b7f00000000000000000000000000000000000000000000000000000000000000006001600160a01b0316610c2c6000805160206136cf833981519152546001600160a01b031690565b6001600160a01b031614610c525760405162461bcd60e51b81526004016106669061329e565b610c5b82611c8c565b610c6782826001611c94565b5050565b6000306001600160a01b037f00000000000000000000000000000000000000000000000000000000000000001614610d0b5760405162461bcd60e51b815260206004820152603860248201527f555550535570677261646561626c653a206d757374206e6f742062652063616c60448201527f6c6564207468726f7567682064656c656761746563616c6c00000000000000006064820152608401610666565b506000805160206136cf83398151915290565b6000818152610132602052604081205482906001600160a01b0316610d555760405162461bcd60e51b81526004016106669061321d565b5050600090815261013260205260409020546001600160a01b031690565b60006001600160a01b038216610dde5760405162461bcd60e51b815260206004820152602a60248201527f62616c616e63654f663a2061646472657373283029206973206e6f742061207660448201526930b634b21037bbb732b960b11b6064820152608401610666565b506001600160a01b03166000908152610134602052604090205490565b610e03612161565b610e0d60006121bb565b565b6000828152610132602052604090205482906001600160a01b0316610e465760405162461bcd60e51b81526004016106669061321d565b6101355460405163b2a0cb6b60e01b815260048101869052859133916001600160a01b039091169063b2a0cb6b90602401602060405180830381865afa158015610e94573d6000803e3d6000fd5b505050506040513d601f19601f82011682018060405250810190610eb8919061336d565b6001600160a01b031614610f0e5760405162461bcd60e51b815260206004820152601b60248201527f6f6e6c79526166744f776e65723a20756e617574686f72697a656400000000006044820152606401610666565b600884901c60009081526101376020526040902054600160ff86161b1615610f835760405162461bcd60e51b815260206004820152602260248201527f7265766f6b6542616467653a20626164676520616c7265616479207265766f6b604482015261195960f21b6064820152608401610666565b600884901c6000908152610137602052604090208054600160ff87161b17905560405160ff841690339086907ffa784c48260e8db512de5f055a2f29eced211a7b3bd6338058b095ada7354cee90600090a45050505050565b6000818152610132602052604090205481906001600160a01b03166110135760405162461bcd60e51b81526004016106669061321d565b6101355460405163b2a0cb6b60e01b815260048101859052849133916001600160a01b039091169063b2a0cb6b90602401602060405180830381865afa158015611061573d6000803e3d6000fd5b505050506040513d601f19601f82011682018060405250810190611085919061336d565b6001600160a01b0316146110db5760405162461bcd60e51b815260206004820152601b60248201527f6f6e6c79526166744f776e65723a20756e617574686f72697a656400000000006044820152606401610666565b600883901c60009081526101376020526040902054600160ff85161b1661114e5760405162461bcd60e51b815260206004820152602160248201527f7265696e737461746542616467653a206261646765206e6f74207265766f6b656044820152601960fa1b6064820152608401610666565b600883901c600090815261013760205260408082208054600160ff88161b1916905551339185917f7f8cf9ecf2a5225948f8a1601709cedc8471c52ee75a8174c9845c29c99ed9a29190a350505050565b606061013180546105ac906131e9565b84811461121c5760405162461bcd60e51b815260206004820152603560248201527f67697665546f4d616e793a20726563697069656e747320616e64207369676e616044820152740e8eae4cae640d8cadccee8d040dad2e6dac2e8c6d605b1b6064820152608401610666565b61013554604051633664a8e960e01b81526000916001600160a01b031690633664a8e9906112509088908890600401613335565b602060405180830381865afa15801561126d573d6000803e3d6000fd5b505050506040513d601f19601f82011682018060405250810190611291919061338a565b6101355460405163b2a0cb6b60e01b81526004810183905291925033916001600160a01b039091169063b2a0cb6b90602401602060405180830381865afa1580156112e0573d6000803e3d6000fd5b505050506040513d601f19601f82011682018060405250810190611304919061336d565b6001600160a01b03161461135a5760405162461bcd60e51b815260206004820152601860248201527f67697665546f4d616e793a20756e617574686f72697a656400000000000000006044820152606401610666565b60005b868110156113ce576113bb88888381811061137a5761137a6133a3565b905060200201602081019061138f9190612bdf565b87878787868181106113a3576113a36133a3565b90506020028101906113b591906133b9565b8761220d565b50806113c681613415565b91505061135d565b5050505050505050565b60006113e8338787878787612229565b61013554604051633664a8e960e01b81526000916001600160a01b031690633664a8e99061141c9089908990600401613335565b602060405180830381865afa158015611439573d6000803e3d6000fd5b505050506040513d601f19601f8201168201806040525081019061145d919061338a565b6101355460405163b2a0cb6b60e01b8152600481018390529192506001600160a01b038981169291169063b2a0cb6b90602401602060405180830381865afa1580156114ad573d6000803e3d6000fd5b505050506040513d601f19601f820116820180604052508101906114d1919061336d565b6001600160a01b0316146115235760405162461bcd60e51b81526020600482015260196024820152783a30b5b29d103ab730baba3437b934bd32b21034b9b9bab2b960391b6044820152606401610666565b61152f33878784611f91565b979650505050505050565b60008383836040516020016115519392919061342e565b6040516020818303038152906040528051906020012090505b9392505050565b60006115fb7f6d0d990916a9f9c9e0896e59ce7f5ddddff333d0c8772438ce004fa7719b164b8686866040516115a8929190613453565b6040519081900381206115e093929187906020019384526001600160a01b039290921660208401526040830152606082015260800190565b604051602081830303815290604052805190602001206122d7565b90505b949350505050565b61160e612161565b8061166a5760405162461bcd60e51b815260206004820152602660248201527f726566726573684d657461646174613a206e6f207370656320757269732070726044820152651bdd9a59195960d21b6064820152608401610666565b7f2231d988b1a75dccab13dee3564b71a551900e822e94177a96f19561890c0fd582823360405161169d93929190613463565b60405180910390a15050565b6116b1612161565b61013580546001600160a01b0319166001600160a01b0392909216919091179055565b600081815261013260205260409020546060906001600160a01b031661173c5760405162461bcd60e51b815260206004820152601d60248201527f746f6b656e5552493a20746f6b656e20646f65736e27742065786973740000006044820152606401610666565b6000828152610133602052604090208054611756906131e9565b80601f0160208091040260200160405190810160405280929190818152602001828054611782906131e9565b80156117cf5780601f106117a4576101008083540402835291602001916117cf565b820191906000526020600020905b8154815290600101906020018083116117b257829003601f168201915b50505050509050919050565b6000818152610132602052604090205481906001600160a01b03166118125760405162461bcd60e51b81526004016106669061321d565b600082815261013260205260409020546001600160a01b031633146118795760405162461bcd60e51b815260206004820152601d60248201527f756e65717569703a2073656e646572206d757374206265206f776e65720000006044820152606401610666565b610c6782612325565b600054610100900460ff16158080156118a25750600054600160ff909116105b806118bc5750303b1580156118bc575060005460ff166001145b61191f5760405162461bcd60e51b815260206004820152602e60248201527f496e697469616c697a61626c653a20636f6e747261637420697320616c72656160448201526d191e481a5b9a5d1a585b1a5e995960921b6064820152608401610666565b6000805460ff191660011790558015611942576000805461ff0019166101001790555b610130611950898b83613552565b5061013161195f878983613552565b5061013580546001600160a01b0319166001600160a01b0384161790556119846123d0565b61198c6123f7565b6119ff89898080601f01602080910402602001604051908101604052809392919081815260200183838082843760009201919091525050604080516020601f8b01819004810282018101909252898152925089915088908190840183828082843760009201919091525061242692505050565b611a076123d0565b611a1083611c16565b8015611a56576000805461ff0019169055604051600181527f7f26b83ff96e1f2b6a682f133852f6798a09c465da95921460cefb38474024989060200160405180910390a15b505050505050505050565b60006115fb7fe76a195fbe43f0eaa611595069f780493db2202a1cc4b2d7d44b47069812998a86868686604051611a99929190613453565b6040519081900381206115e0949392916020019384526001600160a01b03928316602085015291166040830152606082015260800190565b61013554604051633664a8e960e01b815260009182916001600160a01b0390911690633664a8e990611b099089908990600401613335565b602060405180830381865afa158015611b26573d6000803e3d6000fd5b505050506040513d601f19601f82011682018060405250810190611b4a919061338a565b6101355460405163b2a0cb6b60e01b81526004810183905291925033916001600160a01b039091169063b2a0cb6b90602401602060405180830381865afa158015611b99573d6000803e3d6000fd5b505050506040513d601f19601f82011682018060405250810190611bbd919061336d565b6001600160a01b031614611c085760405162461bcd60e51b815260206004820152601260248201527119da5d994e881d5b985d5d1a1bdc9a5e995960721b6044820152606401610666565b61152f87878787878661220d565b611c1e612161565b6001600160a01b038116611c835760405162461bcd60e51b815260206004820152602660248201527f4f776e61626c653a206e6577206f776e657220697320746865207a65726f206160448201526564647265737360d01b6064820152608401610666565b610772816121bb565b610772612161565b7f4910fdfa16fed3260ed0e7147f7cc6da11a60208b5b9406d12a635614ffd91435460ff1615611ccc57611cc783612457565b505050565b826001600160a01b03166352d1902d6040518163ffffffff1660e01b8152600401602060405180830381865afa925050508015611d26575060408051601f3d908101601f19168201909252611d239181019061338a565b60015b611d895760405162461bcd60e51b815260206004820152602e60248201527f45524331393637557067726164653a206e657720696d706c656d656e7461746960448201526d6f6e206973206e6f74205555505360901b6064820152608401610666565b6000805160206136cf8339815191528114611df85760405162461bcd60e51b815260206004820152602960248201527f45524331393637557067726164653a20756e737570706f727465642070726f786044820152681a58589b195555525160ba1b6064820152608401610666565b50611cc78383836124f3565b611e5089611e148b8a8a88611571565b87878080601f01602080910402602001604051908101604052809392919081815260200183838082843760009201919091525061251e92505050565b611eb05760405162461bcd60e51b815260206004820152602b60248201527f73616665436865636b4d65726b6c6541677265656d656e743a20696e76616c6960448201526a64207369676e617475726560a81b6064820152608401610666565b6040516bffffffffffffffffffffffff1960608a901b166020820152600090603401604051602081830303815290604052805190602001209050611f2a8383808060200260200160405190810160405280939291908181526020018383602002808284376000920191909152508892508591506126609050565b611f855760405162461bcd60e51b815260206004820152602660248201527f73616665436865636b4d65726b6c6541677265656d656e743a20696e76616c6960448201526532103632b0b360d11b6064820152608401610666565b50505050505050505050565b600081600003611fe35760405162461bcd60e51b815260206004820152601c60248201527f6d696e743a2073706563206973206e6f742072656769737465726564000000006044820152606401610666565b6000611ff086868661153a565b600081815261013260205260409020549091506001600160a01b0316156120505760405162461bcd60e51b81526020600482015260146024820152736d696e743a20746f6b656e49442065786973747360601b6044820152606401610666565b6001600160a01b03861660009081526101346020526040812080549161207583613415565b909155505060008181526101326020908152604080832080546001600160a01b0319166001600160a01b038b1617905561013390915290206120b8858783613552565b5060405181906001600160a01b038816906000907fddf252ad1be2c89b69c2b068fc378daa952ba7f163c4a11628f55a4df523b3ef908290a46101355460405163fb74926160e01b815260048101839052602481018590526001600160a01b039091169063fb74926190604401600060405180830381600087803b15801561213f57600080fd5b505af1158015612153573d6000803e3d6000fd5b509298975050505050505050565b60c9546001600160a01b03163314610e0d5760405162461bcd60e51b815260206004820181905260248201527f4f776e61626c653a2063616c6c6572206973206e6f7420746865206f776e65726044820152606401610666565b60c980546001600160a01b038381166001600160a01b0319831681179093556040519116919082907f8be0079c531659141344cd1fd0a4f28419497f9722a3daafe3b4186f6b6457e090600090a35050565b600061221d338888888888612229565b61152f87878785611f91565b6122758561223988888888611a61565b84848080601f01602080910402602001604051908101604052809392919081815260200183838082843760009201919091525061251e92505050565b6122cf5760405162461bcd60e51b815260206004820152602560248201527f73616665436865636b41677265656d656e743a20696e76616c6964207369676e604482015264617475726560d81b6064820152608401610666565b505050505050565b60006105966122e4612676565b8360405161190160f01b6020820152602281018390526042810182905260009060620160405160208183030381529060405280519060200120905092915050565b600081815261013260209081526040808320546001600160a01b031680845261013490925282208054919260019261235e908490613612565b909155505060008281526101326020908152604080832080546001600160a01b0319169055610133909152812061239491612ad6565b60405182906000906001600160a01b038416907fddf252ad1be2c89b69c2b068fc378daa952ba7f163c4a11628f55a4df523b3ef908390a45050565b600054610100900460ff16610e0d5760405162461bcd60e51b815260040161066690613625565b600054610100900460ff1661241e5760405162461bcd60e51b815260040161066690613625565b610e0d6126b2565b600054610100900460ff1661244d5760405162461bcd60e51b815260040161066690613625565b610c6782826126e2565b6001600160a01b0381163b6124c45760405162461bcd60e51b815260206004820152602d60248201527f455243313936373a206e657720696d706c656d656e746174696f6e206973206e60448201526c1bdd08184818dbdb9d1c9858dd609a1b6064820152608401610666565b6000805160206136cf83398151915280546001600160a01b0319166001600160a01b0392909216919091179055565b6124fc83612723565b6000825111806125095750805b15611cc7576125188383612763565b50505050565b600080600061252d8585612857565b9092509050600081600481111561254657612546613670565b1480156125645750856001600160a01b0316826001600160a01b0316145b156125745760019250505061156a565b600080876001600160a01b0316631626ba7e60e01b888860405160240161259c929190613686565b60408051601f198184030181529181526020820180516001600160e01b03166001600160e01b03199094169390931790925290516125da919061369f565b600060405180830381855afa9150503d8060008114612615576040519150601f19603f3d011682016040523d82523d6000602084013e61261a565b606091505b509150915081801561262d575080516020145b801561265457508051630b135d3f60e11b90612652908301602090810190840161338a565b145b98975050505050505050565b60008261266d85846128c5565b14949350505050565b60006126ad7f8b73c3c69bb8fe3d512ecc4cf759cc79239f7b179b0ffacaa9a75d522b39400f6126a560fb5490565b60fc54612912565b905090565b600054610100900460ff166126d95760405162461bcd60e51b815260040161066690613625565b610e0d336121bb565b600054610100900460ff166127095760405162461bcd60e51b815260040161066690613625565b81516020928301208151919092012060fb9190915560fc55565b61272c81612457565b6040516001600160a01b038216907fbc7cd75a20ee27fd9adebab32041f755214dbc6bffa90cc0225b39da2e5c2d3b90600090a250565b60606001600160a01b0383163b6127cb5760405162461bcd60e51b815260206004820152602660248201527f416464726573733a2064656c65676174652063616c6c20746f206e6f6e2d636f6044820152651b9d1c9858dd60d21b6064820152608401610666565b600080846001600160a01b0316846040516127e6919061369f565b600060405180830381855af49150503d8060008114612821576040519150601f19603f3d011682016040523d82523d6000602084013e612826565b606091505b509150915061284e82826040518060600160405280602781526020016136ef60279139612941565b95945050505050565b600080825160410361288d5760208301516040840151606085015160001a6128818782858561295a565b945094505050506128be565b82516040036128b657602083015160408401516128ab868383612a47565b9350935050506128be565b506000905060025b9250929050565b600081815b845181101561290a576128f6828683815181106128e9576128e96133a3565b6020026020010151612a80565b91508061290281613415565b9150506128ca565b509392505050565b6040805160208101859052908101839052606081018290524660808201523060a082015260009060c001611551565b6060831561295057508161156a565b61156a8383612aac565b6000807f7fffffffffffffffffffffffffffffff5d576e7357a4501ddfe92f46681b20a08311156129915750600090506003612a3e565b8460ff16601b141580156129a957508460ff16601c14155b156129ba5750600090506004612a3e565b6040805160008082526020820180845289905260ff881692820192909252606081018690526080810185905260019060a0016020604051602081039080840390855afa158015612a0e573d6000803e3d6000fd5b5050604051601f1901519150506001600160a01b038116612a3757600060019250925050612a3e565b9150600090505b94509492505050565b6000806001600160ff1b03831681612a6460ff86901c601b6136bb565b9050612a728782888561295a565b935093505050935093915050565b6000818310612a9c57600082815260208490526040902061156a565b5060009182526020526040902090565b815115612abc5781518083602001fd5b8060405162461bcd60e51b81526004016106669190612b9e565b508054612ae2906131e9565b6000825580601f10612af2575050565b601f01602090049060005260206000209081019061077291905b80821115612b205760008155600101612b0c565b5090565b600060208284031215612b3657600080fd5b81356001600160e01b03198116811461156a57600080fd5b60005b83811015612b69578181015183820152602001612b51565b50506000910152565b60008151808452612b8a816020860160208601612b4e565b601f01601f19169290920160200192915050565b60208152600061156a6020830184612b72565b600060208284031215612bc357600080fd5b5035919050565b6001600160a01b038116811461077257600080fd5b600060208284031215612bf157600080fd5b813561156a81612bca565b60008083601f840112612c0e57600080fd5b5081356001600160401b03811115612c2557600080fd5b6020830191508360208285010111156128be57600080fd5b600080600060408486031215612c5257600080fd5b83356001600160401b03811115612c6857600080fd5b612c7486828701612bfc565b909790965060209590950135949350505050565b60008083601f840112612c9a57600080fd5b5081356001600160401b03811115612cb157600080fd5b6020830191508360208260051b85010111156128be57600080fd5b60008060008060008060008060a0898b031215612ce857600080fd5b8835612cf381612bca565b975060208901356001600160401b0380821115612d0f57600080fd5b612d1b8c838d01612bfc565b909950975060408b0135915080821115612d3457600080fd5b612d408c838d01612bfc565b909750955060608b0135945060808b0135915080821115612d6057600080fd5b50612d6d8b828c01612c88565b999c989b5096995094979396929594505050565b634e487b7160e01b600052604160045260246000fd5b60008060408385031215612daa57600080fd5b8235612db581612bca565b915060208301356001600160401b0380821115612dd157600080fd5b818501915085601f830112612de557600080fd5b813581811115612df757612df7612d81565b604051601f8201601f19908116603f01168101908382118183101715612e1f57612e1f612d81565b81604052828152886020848701011115612e3857600080fd5b8260208601602083013760006020848301015280955050505050509250929050565b600080600060608486031215612e6f57600080fd5b8335925060208401359150604084013560ff81168114612e8e57600080fd5b809150509250925092565b60008060408385031215612eac57600080fd5b50508035926020909101359150565b60008060008060008060608789031215612ed457600080fd5b86356001600160401b0380821115612eeb57600080fd5b612ef78a838b01612c88565b90985096506020890135915080821115612f1057600080fd5b612f1c8a838b01612bfc565b90965094506040890135915080821115612f3557600080fd5b50612f4289828a01612c88565b979a9699509497509295939492505050565b600080600080600060608688031215612f6c57600080fd5b8535612f7781612bca565b945060208601356001600160401b0380821115612f9357600080fd5b612f9f89838a01612bfc565b90965094506040880135915080821115612fb857600080fd5b50612fc588828901612bfc565b969995985093965092949392505050565b600080600060408486031215612feb57600080fd5b8335612ff681612bca565b925060208401356001600160401b0381111561301157600080fd5b61301d86828701612bfc565b9497909650939450505050565b6000806000806060858703121561304057600080fd5b843561304b81612bca565b935060208501356001600160401b0381111561306657600080fd5b61307287828801612bfc565b9598909750949560400135949350505050565b6000806020838503121561309857600080fd5b82356001600160401b038111156130ae57600080fd5b6130ba85828601612c88565b90969095509350505050565b60008060008060008060008060a0898b0312156130e257600080fd5b88356001600160401b03808211156130f957600080fd5b6131058c838d01612bfc565b909a50985060208b013591508082111561311e57600080fd5b61312a8c838d01612bfc565b909850965060408b013591508082111561314357600080fd5b506131508b828c01612bfc565b909550935050606089013561316481612bca565b9150608089013561317481612bca565b809150509295985092959890939650565b6000806000806060858703121561319b57600080fd5b84356131a681612bca565b935060208501356131b681612bca565b925060408501356001600160401b038111156131d157600080fd5b6131dd87828801612bfc565b95989497509550505050565b600181811c908216806131fd57607f821691505b60208210810361069057634e487b7160e01b600052602260045260246000fd5b6020808252818101527f746f6b656e4578697374733a20746f6b656e20646f65736e2774206578697374604082015260600190565b6020808252602c908201527f46756e6374696f6e206d7573742062652063616c6c6564207468726f7567682060408201526b19195b1959d85d1958d85b1b60a21b606082015260800190565b6020808252602c908201527f46756e6374696f6e206d7573742062652063616c6c6564207468726f7567682060408201526b6163746976652070726f787960a01b606082015260800190565b6000602082840312156132fc57600080fd5b8151801515811461156a57600080fd5b81835281816020850137506000828201602090810191909152601f909101601f19169091010190565b6020815260006115fe60208301848661330c565b60408152600061335d60408301858761330c565b9050826020830152949350505050565b60006020828403121561337f57600080fd5b815161156a81612bca565b60006020828403121561339c57600080fd5b5051919050565b634e487b7160e01b600052603260045260246000fd5b6000808335601e198436030181126133d057600080fd5b8301803591506001600160401b038211156133ea57600080fd5b6020019150368190038213156128be57600080fd5b634e487b7160e01b600052601160045260246000fd5b600060018201613427576134276133ff565b5060010190565b6001600160a01b03841681526040602082018190526000906115fb908301848661330c565b8183823760009101908152919050565b6040808252810183905260006060600585901b8301810190830186835b878110156134f357858403605f190183528135368a9003601e190181126134a657600080fd5b890160208181019135906001600160401b038211156134c457600080fd5b8136038313156134d357600080fd5b6134de87838561330c565b96509485019493909301925050600101613480565b5050506001600160a01b038416602084015290506115fe565b601f821115611cc757600081815260208120601f850160051c810160208610156135335750805b601f850160051c820191505b818110156122cf5782815560010161353f565b6001600160401b0383111561356957613569612d81565b61357d8361357783546131e9565b8361350c565b6000601f8411600181146135b157600085156135995750838201355b600019600387901b1c1916600186901b17835561360b565b600083815260209020601f19861690835b828110156135e257868501358255602094850194600190920191016135c2565b50868210156135ff5760001960f88860031b161c19848701351681555b505060018560011b0183555b5050505050565b81810381811115610596576105966133ff565b6020808252602b908201527f496e697469616c697a61626c653a20636f6e7472616374206973206e6f74206960408201526a6e697469616c697a696e6760a81b606082015260800190565b634e487b7160e01b600052602160045260246000fd5b8281526040602082015260006115fe6040830184612b72565b600082516136b1818460208701612b4e565b9190910192915050565b80820180821115610596576105966133ff56fe360894a13ba1a3210667c828492db98dca3e2076cc3735a920a3ca505d382bbc416464726573733a206c6f772d6c6576656c2064656c65676174652063616c6c206661696c6564a26469706673582212204428cef1c133227d5e63ab90fb159f82dea9e6a305f7759c1a38e6d020e4b16c64736f6c63430008100033",
  "linkReferences": {},
  "deployedLinkReferences": {}
}