{
  "abi": [
    {
      "inputs": [],
      "stateMutability": "nonpayable",
      "type": "constructor"
    },
    {
      "anonymous": false,
      "inputs": [
        {
          "indexed": false,
          "internalType": "address",
          "name": "previousAdmin",
          "type": "address"
        },
        {
          "indexed": false,
          "internalType": "address",
          "name": "newAdmin",
          "type": "address"
        }
      ],
      "name": "AdminChanged",
      "type": "event"
    },
    {
      "anonymous": false,
      "inputs": [
        {
          "indexed": true,
          "internalType": "address",
          "name": "beacon",
          "type": "address"
        }
      ],
      "name": "BeaconUpgraded",
      "type": "event"
    },
    {
      "anonymous": false,
      "inputs": [
        {
          "indexed": false,
          "internalType": "uint8",
          "name": "version",
          "type": "uint8"
        }
      ],
      "name": "Initialized",
      "type": "event"
    },
    {
      "anonymous": false,
      "inputs": [
        {
          "indexed": true,
          "internalType": "address",
          "name": "previousOwner",
          "type": "address"
        },
        {
          "indexed": true,
          "internalType": "address",
          "name": "newOwner",
          "type": "address"
        }
      ],
      "name": "OwnershipTransferred",
      "type": "event"
    },
    {
      "anonymous": false,
      "inputs": [
        {
          "indexed": true,
          "internalType": "address",
          "name": "implementation",
          "type": "address"
        }
      ],
      "name": "Upgraded",
      "type": "event"
    },
    {
      "inputs": [],
      "name": "getBadgesAddress",
      "outputs": [
        {
          "internalType": "address",
          "name": "",
          "type": "address"
        }
      ],
      "stateMutability": "view",
      "type": "function"
    },
    {
      "inputs": [],
      "name": "getRaftAddress",
      "outputs": [
        {
          "internalType": "address",
          "name": "",
          "type": "address"
        }
      ],
      "stateMutability": "view",
      "type": "function"
    },
    {
      "inputs": [
        {
          "internalType": "uint256",
          "name": "_raftTokenId",
          "type": "uint256"
        }
      ],
      "name": "getRaftOwner",
      "outputs": [
        {
          "internalType": "address",
          "name": "",
          "type": "address"
        }
      ],
      "stateMutability": "view",
      "type": "function"
    },
    {
      "inputs": [
        {
          "internalType": "string",
          "name": "_specUri",
          "type": "string"
        }
      ],
      "name": "getRaftTokenId",
      "outputs": [
        {
          "internalType": "uint256",
          "name": "",
          "type": "uint256"
        }
      ],
      "stateMutability": "view",
      "type": "function"
    },
    {
      "inputs": [
        {
          "internalType": "address",
          "name": "_raftAddress",
          "type": "address"
        },
        {
          "internalType": "address",
          "name": "_nextOwner",
          "type": "address"
        }
      ],
      "name": "initialize",
      "outputs": [],
      "stateMutability": "nonpayable",
      "type": "function"
    },
    {
      "inputs": [
        {
          "internalType": "string",
          "name": "_specUri",
          "type": "string"
        }
      ],
      "name": "isSpecRegistered",
      "outputs": [
        {
          "internalType": "bool",
          "name": "",
          "type": "bool"
        }
      ],
      "stateMutability": "view",
      "type": "function"
    },
    {
      "inputs": [],
      "name": "owner",
      "outputs": [
        {
          "internalType": "address",
          "name": "",
          "type": "address"
        }
      ],
      "stateMutability": "view",
      "type": "function"
    },
    {
      "inputs": [],
      "name": "proxiableUUID",
      "outputs": [
        {
          "internalType": "bytes32",
          "name": "",
          "type": "bytes32"
        }
      ],
      "stateMutability": "view",
      "type": "function"
    },
    {
      "inputs": [],
      "name": "renounceOwnership",
      "outputs": [],
      "stateMutability": "nonpayable",
      "type": "function"
    },
    {
      "inputs": [
        {
          "internalType": "uint256",
          "name": "_badgeTokenId",
          "type": "uint256"
        },
        {
          "internalType": "uint256",
          "name": "_raftTokenId",
          "type": "uint256"
        }
      ],
      "name": "setBadgeToRaft",
      "outputs": [],
      "stateMutability": "nonpayable",
      "type": "function"
    },
    {
      "inputs": [
        {
          "internalType": "address",
          "name": "_badgesAddress",
          "type": "address"
        }
      ],
      "name": "setBadgesAddress",
      "outputs": [],
      "stateMutability": "nonpayable",
      "type": "function"
    },
    {
      "inputs": [
        {
          "internalType": "address",
          "name": "_raftAddress",
          "type": "address"
        }
      ],
      "name": "setRaftAddress",
      "outputs": [],
      "stateMutability": "nonpayable",
      "type": "function"
    },
    {
      "inputs": [
        {
          "internalType": "string",
          "name": "_specUri",
          "type": "string"
        },
        {
          "internalType": "uint256",
          "name": "_raftTokenId",
          "type": "uint256"
        }
      ],
      "name": "setSpecToRaft",
      "outputs": [],
      "stateMutability": "nonpayable",
      "type": "function"
    },
    {
      "inputs": [
        {
          "internalType": "address",
          "name": "newOwner",
          "type": "address"
        }
      ],
      "name": "transferOwnership",
      "outputs": [],
      "stateMutability": "nonpayable",
      "type": "function"
    },
    {
      "inputs": [
        {
          "internalType": "address",
          "name": "newImplementation",
          "type": "address"
        }
      ],
      "name": "upgradeTo",
      "outputs": [],
      "stateMutability": "nonpayable",
      "type": "function"
    },
    {
      "inputs": [
        {
          "internalType": "address",
          "name": "newImplementation",
          "type": "address"
        },
        {
          "internalType": "bytes",
          "name": "data",
          "type": "bytes"
        }
      ],
      "name": "upgradeToAndCall",
      "outputs": [],
      "stateMutability": "payable",
      "type": "function"
    }
  ],
  "bytecode": {
    "object": "0x60a06040523060805234801561001457600080fd5b5061001d610022565b6100e2565b600054610100900460ff161561008e5760405162461bcd60e51b815260206004820152602760248201527f496e697469616c697a61626c653a20636f6e747261637420697320696e697469604482015266616c697a696e6760c81b606482015260840160405180910390fd5b60005460ff90811610156100e0576000805460ff191660ff9081179091556040519081527f7f26b83ff96e1f2b6a682f133852f6798a09c465da95921460cefb38474024989060200160405180910390a15b565b6080516111f8610119600039600081816103120152818161035b01528181610561015281816105a1015261063401526111f86000f3fe6080604052600436106100f35760003560e01c80638da5cb5b1161008a578063d5be4eb011610059578063d5be4eb014610278578063f2fde38b14610298578063fb749261146102b8578063fc0e204e146102d857600080fd5b80638da5cb5b146101fa578063addd190714610218578063b2a0cb6b14610238578063bce6c0251461025857600080fd5b8063485cc955116100c6578063485cc9551461019d5780634f1ef286146101bd57806352d1902d146101d0578063715018a6146101e557600080fd5b806334f87662146100f85780633659cfe61461012f5780633664a8e914610151578063407103981461017f575b600080fd5b34801561010457600080fd5b5060cc546001600160a01b03165b6040516001600160a01b0390911681526020015b60405180910390f35b34801561013b57600080fd5b5061014f61014a366004610dcc565b610308565b005b34801561015d57600080fd5b5061017161016c366004610e95565b6103f0565b604051908152602001610126565b34801561018b57600080fd5b5060cb546001600160a01b0316610112565b3480156101a957600080fd5b5061014f6101b8366004610ed2565b610418565b61014f6101cb366004610f0b565b610557565b3480156101dc57600080fd5b50610171610627565b3480156101f157600080fd5b5061014f6106da565b34801561020657600080fd5b506097546001600160a01b0316610112565b34801561022457600080fd5b5061014f610233366004610f6f565b6106ee565b34801561024457600080fd5b50610112610253366004610fb4565b610713565b34801561026457600080fd5b5061014f610273366004610dcc565b61078a565b34801561028457600080fd5b5061014f610293366004610dcc565b6107b4565b3480156102a457600080fd5b5061014f6102b3366004610dcc565b6107de565b3480156102c457600080fd5b5061014f6102d3366004610fcd565b610854565b3480156102e457600080fd5b506102f86102f3366004610e95565b6108af565b6040519015158152602001610126565b6001600160a01b037f00000000000000000000000000000000000000000000000000000000000000001630036103595760405162461bcd60e51b815260040161035090610fef565b60405180910390fd5b7f00000000000000000000000000000000000000000000000000000000000000006001600160a01b03166103a260008051602061117c833981519152546001600160a01b031690565b6001600160a01b0316146103c85760405162461bcd60e51b81526004016103509061103b565b6103d1816108d9565b604080516000808252602082019092526103ed918391906108e1565b50565b600060c98260405161040291906110ab565b9081526020016040518091039020549050919050565b600054610100900460ff16158080156104385750600054600160ff909116105b806104525750303b158015610452575060005460ff166001145b6104b55760405162461bcd60e51b815260206004820152602e60248201527f496e697469616c697a61626c653a20636f6e747261637420697320616c72656160448201526d191e481a5b9a5d1a585b1a5e995960921b6064820152608401610350565b6000805460ff1916600117905580156104d8576000805461ff0019166101001790555b6104e0610a4c565b60cc80546001600160a01b0319166001600160a01b038516179055610504826107de565b61050c610a7b565b8015610552576000805461ff0019169055604051600181527f7f26b83ff96e1f2b6a682f133852f6798a09c465da95921460cefb38474024989060200160405180910390a15b505050565b6001600160a01b037f000000000000000000000000000000000000000000000000000000000000000016300361059f5760405162461bcd60e51b815260040161035090610fef565b7f00000000000000000000000000000000000000000000000000000000000000006001600160a01b03166105e860008051602061117c833981519152546001600160a01b031690565b6001600160a01b03161461060e5760405162461bcd60e51b81526004016103509061103b565b610617826108d9565b610623828260016108e1565b5050565b6000306001600160a01b037f000000000000000000000000000000000000000000000000000000000000000016146106c75760405162461bcd60e51b815260206004820152603860248201527f555550535570677261646561626c653a206d757374206e6f742062652063616c60448201527f6c6564207468726f7567682064656c656761746563616c6c00000000000000006064820152608401610350565b5060008051602061117c83398151915290565b6106e2610aa2565b6106ec6000610afc565b565b8060c9836040516106ff91906110ab565b908152604051908190036020019020555050565b60cc546040516331a9108f60e11b8152600481018390526000916001600160a01b0316908190636352211e90602401602060405180830381865afa15801561075f573d6000803e3d6000fd5b505050506040513d601f19601f8201168201806040525081019061078391906110c7565b9392505050565b610792610aa2565b60cb80546001600160a01b0319166001600160a01b0392909216919091179055565b6107bc610aa2565b60cc80546001600160a01b0319166001600160a01b0392909216919091179055565b6107e6610aa2565b6001600160a01b03811661084b5760405162461bcd60e51b815260206004820152602660248201527f4f776e61626c653a206e6577206f776e657220697320746865207a65726f206160448201526564647265737360d01b6064820152608401610350565b6103ed81610afc565b60cb546001600160a01b0316331461089d5760405162461bcd60e51b815260206004820152600c60248201526b1d5b985d5d1a1bdc9a5e995960a21b6044820152606401610350565b600091825260ca602052604090912055565b600060c9826040516108c191906110ab565b90815260405190819003602001902054151592915050565b6103ed610aa2565b7f4910fdfa16fed3260ed0e7147f7cc6da11a60208b5b9406d12a635614ffd91435460ff16156109145761055283610b4e565b826001600160a01b03166352d1902d6040518163ffffffff1660e01b8152600401602060405180830381865afa92505050801561096e575060408051601f3d908101601f1916820190925261096b918101906110e4565b60015b6109d15760405162461bcd60e51b815260206004820152602e60248201527f45524331393637557067726164653a206e657720696d706c656d656e7461746960448201526d6f6e206973206e6f74205555505360901b6064820152608401610350565b60008051602061117c8339815191528114610a405760405162461bcd60e51b815260206004820152602960248201527f45524331393637557067726164653a20756e737570706f727465642070726f786044820152681a58589b195555525160ba1b6064820152608401610350565b50610552838383610bea565b600054610100900460ff16610a735760405162461bcd60e51b8152600401610350906110fd565b6106ec610c15565b600054610100900460ff166106ec5760405162461bcd60e51b8152600401610350906110fd565b6097546001600160a01b031633146106ec5760405162461bcd60e51b815260206004820181905260248201527f4f776e61626c653a2063616c6c6572206973206e6f7420746865206f776e65726044820152606401610350565b609780546001600160a01b038381166001600160a01b0319831681179093556040519116919082907f8be0079c531659141344cd1fd0a4f28419497f9722a3daafe3b4186f6b6457e090600090a35050565b6001600160a01b0381163b610bbb5760405162461bcd60e51b815260206004820152602d60248201527f455243313936373a206e657720696d706c656d656e746174696f6e206973206e60448201526c1bdd08184818dbdb9d1c9858dd609a1b6064820152608401610350565b60008051602061117c83398151915280546001600160a01b0319166001600160a01b0392909216919091179055565b610bf383610c45565b600082511180610c005750805b1561055257610c0f8383610c85565b50505050565b600054610100900460ff16610c3c5760405162461bcd60e51b8152600401610350906110fd565b6106ec33610afc565b610c4e81610b4e565b6040516001600160a01b038216907fbc7cd75a20ee27fd9adebab32041f755214dbc6bffa90cc0225b39da2e5c2d3b90600090a250565b60606001600160a01b0383163b610ced5760405162461bcd60e51b815260206004820152602660248201527f416464726573733a2064656c65676174652063616c6c20746f206e6f6e2d636f6044820152651b9d1c9858dd60d21b6064820152608401610350565b600080846001600160a01b031684604051610d0891906110ab565b600060405180830381855af49150503d8060008114610d43576040519150601f19603f3d011682016040523d82523d6000602084013e610d48565b606091505b5091509150610d70828260405180606001604052806027815260200161119c60279139610d79565b95945050505050565b60608315610d88575081610783565b6107838383815115610d9d5781518083602001fd5b8060405162461bcd60e51b81526004016103509190611148565b6001600160a01b03811681146103ed57600080fd5b600060208284031215610dde57600080fd5b813561078381610db7565b634e487b7160e01b600052604160045260246000fd5b600067ffffffffffffffff80841115610e1a57610e1a610de9565b604051601f8501601f19908116603f01168101908282118183101715610e4257610e42610de9565b81604052809350858152868686011115610e5b57600080fd5b858560208301376000602087830101525050509392505050565b600082601f830112610e8657600080fd5b61078383833560208501610dff565b600060208284031215610ea757600080fd5b813567ffffffffffffffff811115610ebe57600080fd5b610eca84828501610e75565b949350505050565b60008060408385031215610ee557600080fd5b8235610ef081610db7565b91506020830135610f0081610db7565b809150509250929050565b60008060408385031215610f1e57600080fd5b8235610f2981610db7565b9150602083013567ffffffffffffffff811115610f4557600080fd5b8301601f81018513610f5657600080fd5b610f6585823560208401610dff565b9150509250929050565b60008060408385031215610f8257600080fd5b823567ffffffffffffffff811115610f9957600080fd5b610fa585828601610e75565b95602094909401359450505050565b600060208284031215610fc657600080fd5b5035919050565b60008060408385031215610fe057600080fd5b50508035926020909101359150565b6020808252602c908201527f46756e6374696f6e206d7573742062652063616c6c6564207468726f7567682060408201526b19195b1959d85d1958d85b1b60a21b606082015260800190565b6020808252602c908201527f46756e6374696f6e206d7573742062652063616c6c6564207468726f7567682060408201526b6163746976652070726f787960a01b606082015260800190565b60005b838110156110a257818101518382015260200161108a565b50506000910152565b600082516110bd818460208701611087565b9190910192915050565b6000602082840312156110d957600080fd5b815161078381610db7565b6000602082840312156110f657600080fd5b5051919050565b6020808252602b908201527f496e697469616c697a61626c653a20636f6e7472616374206973206e6f74206960408201526a6e697469616c697a696e6760a81b606082015260800190565b6020815260008251806020840152611167816040850160208701611087565b601f01601f1916919091016040019291505056fe360894a13ba1a3210667c828492db98dca3e2076cc3735a920a3ca505d382bbc416464726573733a206c6f772d6c6576656c2064656c65676174652063616c6c206661696c6564a2646970667358221220a503e4bc52676518d4b5034b23e491a82a14c84766cccea3b9022df4c18784df64736f6c63430008100033",
    "linkReferences": {}
  },
  "methodIdentifiers": {
    "getBadgesAddress()": "40710398",
    "getRaftAddress()": "34f87662",
    "getRaftOwner(uint256)": "b2a0cb6b",
    "getRaftTokenId(string)": "3664a8e9",
    "initialize(address,address)": "485cc955",
    "isSpecRegistered(string)": "fc0e204e",
    "owner()": "8da5cb5b",
    "proxiableUUID()": "52d1902d",
    "renounceOwnership()": "715018a6",
    "setBadgeToRaft(uint256,uint256)": "fb749261",
    "setBadgesAddress(address)": "bce6c025",
    "setRaftAddress(address)": "d5be4eb0",
    "setSpecToRaft(string,uint256)": "addd1907",
    "transferOwnership(address)": "f2fde38b",
    "upgradeTo(address)": "3659cfe6",
    "upgradeToAndCall(address,bytes)": "4f1ef286"
  },
  "id": 48
}