{
  "abi": [
    {
      "inputs": [],
      "stateMutability": "nonpayable",
      "type": "constructor"
    },
    {
      "anonymous": false,
      "inputs": [
        {
          "indexed": false,
          "internalType": "address",
          "name": "previousAdmin",
          "type": "address"
        },
        {
          "indexed": false,
          "internalType": "address",
          "name": "newAdmin",
          "type": "address"
        }
      ],
      "name": "AdminChanged",
      "type": "event"
    },
    {
      "anonymous": false,
      "inputs": [
        {
          "indexed": true,
          "internalType": "address",
          "name": "beacon",
          "type": "address"
        }
      ],
      "name": "BeaconUpgraded",
      "type": "event"
    },
    {
      "anonymous": false,
      "inputs": [
        {
          "indexed": false,
          "internalType": "uint8",
          "name": "version",
          "type": "uint8"
        }
      ],
      "name": "Initialized",
      "type": "event"
    },
    {
      "anonymous": false,
      "inputs": [
        {
          "indexed": true,
          "internalType": "address",
          "name": "previousOwner",
          "type": "address"
        },
        {
          "indexed": true,
          "internalType": "address",
          "name": "newOwner",
          "type": "address"
        }
      ],
      "name": "OwnershipTransferred",
      "type": "event"
    },
    {
      "anonymous": false,
      "inputs": [
        {
          "indexed": true,
          "internalType": "address",
          "name": "implementation",
          "type": "address"
        }
      ],
      "name": "Upgraded",
      "type": "event"
    },
    {
      "inputs": [],
      "name": "getBadgesAddress",
      "outputs": [
        {
          "internalType": "address",
          "name": "",
          "type": "address"
        }
      ],
      "stateMutability": "view",
      "type": "function"
    },
    {
      "inputs": [],
      "name": "getRaftAddress",
      "outputs": [
        {
          "internalType": "address",
          "name": "",
          "type": "address"
        }
      ],
      "stateMutability": "view",
      "type": "function"
    },
    {
      "inputs": [
        {
          "internalType": "string",
          "name": "_specUri",
          "type": "string"
        }
      ],
      "name": "getRaftTokenId",
      "outputs": [
        {
          "internalType": "uint256",
          "name": "",
          "type": "uint256"
        }
      ],
      "stateMutability": "view",
      "type": "function"
    },
    {
      "inputs": [
        {
          "internalType": "address",
          "name": "_raftAddress",
          "type": "address"
        },
        {
          "internalType": "address",
          "name": "_nextOwner",
          "type": "address"
        }
      ],
      "name": "initialize",
      "outputs": [],
      "stateMutability": "nonpayable",
      "type": "function"
    },
    {
      "inputs": [
        {
          "internalType": "uint256",
          "name": "_raftTokenId",
          "type": "uint256"
        },
        {
          "internalType": "address",
          "name": "_admin",
          "type": "address"
        }
      ],
      "name": "isAuthorizedAdmin",
      "outputs": [
        {
          "internalType": "bool",
          "name": "",
          "type": "bool"
        }
      ],
      "stateMutability": "view",
      "type": "function"
    },
    {
      "inputs": [
        {
          "internalType": "string",
          "name": "_specUri",
          "type": "string"
        }
      ],
      "name": "isSpecRegistered",
      "outputs": [
        {
          "internalType": "bool",
          "name": "",
          "type": "bool"
        }
      ],
      "stateMutability": "view",
      "type": "function"
    },
    {
      "inputs": [],
      "name": "owner",
      "outputs": [
        {
          "internalType": "address",
          "name": "",
          "type": "address"
        }
      ],
      "stateMutability": "view",
      "type": "function"
    },
    {
      "inputs": [],
      "name": "proxiableUUID",
      "outputs": [
        {
          "internalType": "bytes32",
          "name": "",
          "type": "bytes32"
        }
      ],
      "stateMutability": "view",
      "type": "function"
    },
    {
      "inputs": [],
      "name": "renounceOwnership",
      "outputs": [],
      "stateMutability": "nonpayable",
      "type": "function"
    },
    {
      "inputs": [
        {
          "internalType": "uint256",
          "name": "_badgeTokenId",
          "type": "uint256"
        },
        {
          "internalType": "uint256",
          "name": "_raftTokenId",
          "type": "uint256"
        }
      ],
      "name": "setBadgeToRaft",
      "outputs": [],
      "stateMutability": "nonpayable",
      "type": "function"
    },
    {
      "inputs": [
        {
          "internalType": "address",
          "name": "_badgesAddress",
          "type": "address"
        }
      ],
      "name": "setBadgesAddress",
      "outputs": [],
      "stateMutability": "nonpayable",
      "type": "function"
    },
    {
      "inputs": [
        {
          "internalType": "uint256[]",
          "name": "_badgeTokenId",
          "type": "uint256[]"
        },
        {
          "internalType": "uint256[]",
          "name": "_raftTokenId",
          "type": "uint256[]"
        }
      ],
      "name": "setBadgesToRafts",
      "outputs": [],
      "stateMutability": "nonpayable",
      "type": "function"
    },
    {
      "inputs": [
        {
          "internalType": "address",
          "name": "_raftAddress",
          "type": "address"
        }
      ],
      "name": "setRaftAddress",
      "outputs": [],
      "stateMutability": "nonpayable",
      "type": "function"
    },
    {
      "inputs": [
        {
          "internalType": "string",
          "name": "_specUri",
          "type": "string"
        },
        {
          "internalType": "uint256",
          "name": "_raftTokenId",
          "type": "uint256"
        }
      ],
      "name": "setSpecToRaft",
      "outputs": [],
      "stateMutability": "nonpayable",
      "type": "function"
    },
    {
      "inputs": [
        {
          "internalType": "string[]",
          "name": "_specUri",
          "type": "string[]"
        },
        {
          "internalType": "uint256[]",
          "name": "_raftTokenId",
          "type": "uint256[]"
        }
      ],
      "name": "setSpecsToRafts",
      "outputs": [],
      "stateMutability": "nonpayable",
      "type": "function"
    },
    {
      "inputs": [
        {
          "internalType": "address",
          "name": "newOwner",
          "type": "address"
        }
      ],
      "name": "transferOwnership",
      "outputs": [],
      "stateMutability": "nonpayable",
      "type": "function"
    },
    {
      "inputs": [
        {
          "internalType": "address",
          "name": "newImplementation",
          "type": "address"
        }
      ],
      "name": "upgradeTo",
      "outputs": [],
      "stateMutability": "nonpayable",
      "type": "function"
    },
    {
      "inputs": [
        {
          "internalType": "address",
          "name": "newImplementation",
          "type": "address"
        },
        {
          "internalType": "bytes",
          "name": "data",
          "type": "bytes"
        }
      ],
      "name": "upgradeToAndCall",
      "outputs": [],
      "stateMutability": "payable",
      "type": "function"
    }
  ],
  "bytecode": {
    "object": "0x60a06040523060805234801561001457600080fd5b5061001d610022565b6100e2565b600054610100900460ff161561008e5760405162461bcd60e51b815260206004820152602760248201527f496e697469616c697a61626c653a20636f6e747261637420697320696e697469604482015266616c697a696e6760c81b606482015260840160405180910390fd5b60005460ff90811610156100e0576000805460ff191660ff9081179091556040519081527f7f26b83ff96e1f2b6a682f133852f6798a09c465da95921460cefb38474024989060200160405180910390a15b565b60805161171961011960003960008181610368015281816103b1015281816105ba015281816105fa015261068d01526117196000f3fe6080604052600436106101095760003560e01c8063904b284b11610095578063d5be4eb011610064578063d5be4eb0146102ae578063e3ee9c4d146102ce578063f2fde38b146102fe578063fb7492611461031e578063fc0e204e1461033e57600080fd5b8063904b284b1461022e578063addd19071461024e578063bce6c0251461026e578063d3367ac71461028e57600080fd5b8063485cc955116100dc578063485cc955146101b35780634f1ef286146101d357806352d1902d146101e6578063715018a6146101fb5780638da5cb5b1461021057600080fd5b806334f876621461010e5780633659cfe6146101455780633664a8e9146101675780634071039814610195575b600080fd5b34801561011a57600080fd5b5060cc546001600160a01b03165b6040516001600160a01b0390911681526020015b60405180910390f35b34801561015157600080fd5b50610165610160366004611124565b61035e565b005b34801561017357600080fd5b5061018761018236600461118a565b610446565b60405190815260200161013c565b3480156101a157600080fd5b5060cb546001600160a01b0316610128565b3480156101bf57600080fd5b506101656101ce3660046111cc565b610471565b6101656101e136600461121b565b6105b0565b3480156101f257600080fd5b50610187610680565b34801561020757600080fd5b50610165610733565b34801561021c57600080fd5b506097546001600160a01b0316610128565b34801561023a57600080fd5b50610165610249366004611324565b610747565b34801561025a57600080fd5b50610165610269366004611390565b61086e565b34801561027a57600080fd5b50610165610289366004611124565b6108d5565b34801561029a57600080fd5b506101656102a9366004611324565b6108ff565b3480156102ba57600080fd5b506101656102c9366004611124565b610a0c565b3480156102da57600080fd5b506102ee6102e93660046113dc565b610a36565b604051901515815260200161013c565b34801561030a57600080fd5b50610165610319366004611124565b610b3f565b34801561032a57600080fd5b50610165610339366004611401565b610bb5565b34801561034a57600080fd5b506102ee61035936600461118a565b610c06565b6001600160a01b037f00000000000000000000000000000000000000000000000000000000000000001630036103af5760405162461bcd60e51b81526004016103a690611423565b60405180910390fd5b7f00000000000000000000000000000000000000000000000000000000000000006001600160a01b03166103f860008051602061169d833981519152546001600160a01b031690565b6001600160a01b03161461041e5760405162461bcd60e51b81526004016103a69061146f565b61042781610c33565b6040805160008082526020820190925261044391839190610c3b565b50565b600060c9838360405161045a9291906114bb565b908152602001604051809103902054905092915050565b600054610100900460ff16158080156104915750600054600160ff909116105b806104ab5750303b1580156104ab575060005460ff166001145b61050e5760405162461bcd60e51b815260206004820152602e60248201527f496e697469616c697a61626c653a20636f6e747261637420697320616c72656160448201526d191e481a5b9a5d1a585b1a5e995960921b60648201526084016103a6565b6000805460ff191660011790558015610531576000805461ff0019166101001790555b610539610da6565b60cc80546001600160a01b0319166001600160a01b03851617905561055d82610b3f565b610565610dd5565b80156105ab576000805461ff0019169055604051600181527f7f26b83ff96e1f2b6a682f133852f6798a09c465da95921460cefb38474024989060200160405180910390a15b505050565b6001600160a01b037f00000000000000000000000000000000000000000000000000000000000000001630036105f85760405162461bcd60e51b81526004016103a690611423565b7f00000000000000000000000000000000000000000000000000000000000000006001600160a01b031661064160008051602061169d833981519152546001600160a01b031690565b6001600160a01b0316146106675760405162461bcd60e51b81526004016103a69061146f565b61067082610c33565b61067c82826001610c3b565b5050565b6000306001600160a01b037f000000000000000000000000000000000000000000000000000000000000000016146107205760405162461bcd60e51b815260206004820152603860248201527f555550535570677261646561626c653a206d757374206e6f742062652063616c60448201527f6c6564207468726f7567682064656c656761746563616c6c000000000000000060648201526084016103a6565b5060008051602061169d83398151915290565b61073b610dfc565b6107456000610e56565b565b60cb546001600160a01b031633148061076a57506097546001600160a01b031633145b6107865760405162461bcd60e51b81526004016103a6906114cb565b8281146107ed5760405162461bcd60e51b815260206004820152602f60248201527f7365745370656373546f52616674733a20617272617973206d7573742062652060448201526e0e8d0ca40e6c2daca40d8cadccee8d608b1b60648201526084016103a6565b60005b838110156108675782828281811061080a5761080a611502565b9050602002013560c986868481811061082557610825611502565b90506020028101906108379190611518565b6040516108459291906114bb565b908152604051908190036020019020558061085f8161155f565b9150506107f0565b5050505050565b60cb546001600160a01b031633148061089157506097546001600160a01b031633145b6108ad5760405162461bcd60e51b81526004016103a6906114cb565b8060c984846040516108c09291906114bb565b90815260405190819003602001902055505050565b6108dd610dfc565b60cb80546001600160a01b0319166001600160a01b0392909216919091179055565b60cb546001600160a01b031633148061092257506097546001600160a01b031633145b61093e5760405162461bcd60e51b81526004016103a6906114cb565b8281146109a65760405162461bcd60e51b815260206004820152603060248201527f736574426164676573546f52616674733a20617272617973206d75737420626560448201526f040e8d0ca40e6c2daca40d8cadccee8d60831b60648201526084016103a6565b60005b83811015610867578282828181106109c3576109c3611502565b9050602002013560ca60008787858181106109e0576109e0611502565b905060200201358152602001908152602001600020819055508080610a049061155f565b9150506109a9565b610a14610dfc565b60cc80546001600160a01b0319166001600160a01b0392909216919091179055565b60cc546040516331a9108f60e11b8152600481018490526000916001600160a01b03169082908290636352211e90602401602060405180830381865afa158015610a84573d6000803e3d6000fd5b505050506040513d601f19601f82011682018060405250810190610aa89190611586565b9050836001600160a01b0316816001600160a01b03161480610b3657506040516370307dbb60e11b8152600481018690526001600160a01b03858116602483015283169063e060fb7690604401602060405180830381865afa158015610b12573d6000803e3d6000fd5b505050506040513d601f19601f82011682018060405250810190610b3691906115a3565b95945050505050565b610b47610dfc565b6001600160a01b038116610bac5760405162461bcd60e51b815260206004820152602660248201527f4f776e61626c653a206e6577206f776e657220697320746865207a65726f206160448201526564647265737360d01b60648201526084016103a6565b61044381610e56565b60cb546001600160a01b0316331480610bd857506097546001600160a01b031633145b610bf45760405162461bcd60e51b81526004016103a6906114cb565b600091825260ca602052604090912055565b600060c98383604051610c1a9291906114bb565b9081526040519081900360200190205415159392505050565b610443610dfc565b7f4910fdfa16fed3260ed0e7147f7cc6da11a60208b5b9406d12a635614ffd91435460ff1615610c6e576105ab83610ea8565b826001600160a01b03166352d1902d6040518163ffffffff1660e01b8152600401602060405180830381865afa925050508015610cc8575060408051601f3d908101601f19168201909252610cc5918101906115c5565b60015b610d2b5760405162461bcd60e51b815260206004820152602e60248201527f45524331393637557067726164653a206e657720696d706c656d656e7461746960448201526d6f6e206973206e6f74205555505360901b60648201526084016103a6565b60008051602061169d8339815191528114610d9a5760405162461bcd60e51b815260206004820152602960248201527f45524331393637557067726164653a20756e737570706f727465642070726f786044820152681a58589b195555525160ba1b60648201526084016103a6565b506105ab838383610f44565b600054610100900460ff16610dcd5760405162461bcd60e51b81526004016103a6906115de565b610745610f6f565b600054610100900460ff166107455760405162461bcd60e51b81526004016103a6906115de565b6097546001600160a01b031633146107455760405162461bcd60e51b815260206004820181905260248201527f4f776e61626c653a2063616c6c6572206973206e6f7420746865206f776e657260448201526064016103a6565b609780546001600160a01b038381166001600160a01b0319831681179093556040519116919082907f8be0079c531659141344cd1fd0a4f28419497f9722a3daafe3b4186f6b6457e090600090a35050565b6001600160a01b0381163b610f155760405162461bcd60e51b815260206004820152602d60248201527f455243313936373a206e657720696d706c656d656e746174696f6e206973206e60448201526c1bdd08184818dbdb9d1c9858dd609a1b60648201526084016103a6565b60008051602061169d83398151915280546001600160a01b0319166001600160a01b0392909216919091179055565b610f4d83610f9f565b600082511180610f5a5750805b156105ab57610f698383610fdf565b50505050565b600054610100900460ff16610f965760405162461bcd60e51b81526004016103a6906115de565b61074533610e56565b610fa881610ea8565b6040516001600160a01b038216907fbc7cd75a20ee27fd9adebab32041f755214dbc6bffa90cc0225b39da2e5c2d3b90600090a250565b60606001600160a01b0383163b6110475760405162461bcd60e51b815260206004820152602660248201527f416464726573733a2064656c65676174652063616c6c20746f206e6f6e2d636f6044820152651b9d1c9858dd60d21b60648201526084016103a6565b600080846001600160a01b031684604051611062919061164d565b600060405180830381855af49150503d806000811461109d576040519150601f19603f3d011682016040523d82523d6000602084013e6110a2565b606091505b5091509150610b3682826040518060600160405280602781526020016116bd60279139606083156110d45750816110de565b6110de83836110e5565b9392505050565b8151156110f55781518083602001fd5b8060405162461bcd60e51b81526004016103a69190611669565b6001600160a01b038116811461044357600080fd5b60006020828403121561113657600080fd5b81356110de8161110f565b60008083601f84011261115357600080fd5b50813567ffffffffffffffff81111561116b57600080fd5b60208301915083602082850101111561118357600080fd5b9250929050565b6000806020838503121561119d57600080fd5b823567ffffffffffffffff8111156111b457600080fd5b6111c085828601611141565b90969095509350505050565b600080604083850312156111df57600080fd5b82356111ea8161110f565b915060208301356111fa8161110f565b809150509250929050565b634e487b7160e01b600052604160045260246000fd5b6000806040838503121561122e57600080fd5b82356112398161110f565b9150602083013567ffffffffffffffff8082111561125657600080fd5b818501915085601f83011261126a57600080fd5b81358181111561127c5761127c611205565b604051601f8201601f19908116603f011681019083821181831017156112a4576112a4611205565b816040528281528860208487010111156112bd57600080fd5b8260208601602083013760006020848301015280955050505050509250929050565b60008083601f8401126112f157600080fd5b50813567ffffffffffffffff81111561130957600080fd5b6020830191508360208260051b850101111561118357600080fd5b6000806000806040858703121561133a57600080fd5b843567ffffffffffffffff8082111561135257600080fd5b61135e888389016112df565b9096509450602087013591508082111561137757600080fd5b50611384878288016112df565b95989497509550505050565b6000806000604084860312156113a557600080fd5b833567ffffffffffffffff8111156113bc57600080fd5b6113c886828701611141565b909790965060209590950135949350505050565b600080604083850312156113ef57600080fd5b8235915060208301356111fa8161110f565b6000806040838503121561141457600080fd5b50508035926020909101359150565b6020808252602c908201527f46756e6374696f6e206d7573742062652063616c6c6564207468726f7567682060408201526b19195b1959d85d1958d85b1b60a21b606082015260800190565b6020808252602c908201527f46756e6374696f6e206d7573742062652063616c6c6564207468726f7567682060408201526b6163746976652070726f787960a01b606082015260800190565b8183823760009101908152919050565b6020808252601c908201527f6f6e6c79417574686f72697a65643a20756e617574686f72697a656400000000604082015260600190565b634e487b7160e01b600052603260045260246000fd5b6000808335601e1984360301811261152f57600080fd5b83018035915067ffffffffffffffff82111561154a57600080fd5b60200191503681900382131561118357600080fd5b60006001820161157f57634e487b7160e01b600052601160045260246000fd5b5060010190565b60006020828403121561159857600080fd5b81516110de8161110f565b6000602082840312156115b557600080fd5b815180151581146110de57600080fd5b6000602082840312156115d757600080fd5b5051919050565b6020808252602b908201527f496e697469616c697a61626c653a20636f6e7472616374206973206e6f74206960408201526a6e697469616c697a696e6760a81b606082015260800190565b60005b8381101561164457818101518382015260200161162c565b50506000910152565b6000825161165f818460208701611629565b9190910192915050565b6020815260008251806020840152611688816040850160208701611629565b601f01601f1916919091016040019291505056fe360894a13ba1a3210667c828492db98dca3e2076cc3735a920a3ca505d382bbc416464726573733a206c6f772d6c6576656c2064656c65676174652063616c6c206661696c6564a26469706673582212207083736188be5140ea0e0fce1e8f159096fd5a4b5738db85808459329fc586c864736f6c63430008100033",
    "linkReferences": {}
  },
  "methodIdentifiers": {
    "getBadgesAddress()": "40710398",
    "getRaftAddress()": "34f87662",
    "getRaftTokenId(string)": "3664a8e9",
    "initialize(address,address)": "485cc955",
    "isAuthorizedAdmin(uint256,address)": "e3ee9c4d",
    "isSpecRegistered(string)": "fc0e204e",
    "owner()": "8da5cb5b",
    "proxiableUUID()": "52d1902d",
    "renounceOwnership()": "715018a6",
    "setBadgeToRaft(uint256,uint256)": "fb749261",
    "setBadgesAddress(address)": "bce6c025",
    "setBadgesToRafts(uint256[],uint256[])": "d3367ac7",
    "setRaftAddress(address)": "d5be4eb0",
    "setSpecToRaft(string,uint256)": "addd1907",
    "setSpecsToRafts(string[],uint256[])": "904b284b",
    "transferOwnership(address)": "f2fde38b",
    "upgradeTo(address)": "3659cfe6",
    "upgradeToAndCall(address,bytes)": "4f1ef286"
  },
  "id": 50
}