{
  "abi": [
    {
      "inputs": [],
      "stateMutability": "nonpayable",
      "type": "constructor"
    },
    {
      "anonymous": false,
      "inputs": [
        {
          "indexed": false,
          "internalType": "address",
          "name": "previousAdmin",
          "type": "address"
        },
        {
          "indexed": false,
          "internalType": "address",
          "name": "newAdmin",
          "type": "address"
        }
      ],
      "name": "AdminChanged",
      "type": "event"
    },
    {
      "anonymous": false,
      "inputs": [
        {
          "indexed": true,
          "internalType": "address",
          "name": "beacon",
          "type": "address"
        }
      ],
      "name": "BeaconUpgraded",
      "type": "event"
    },
    {
      "anonymous": false,
      "inputs": [
        {
          "indexed": false,
          "internalType": "uint8",
          "name": "version",
          "type": "uint8"
        }
      ],
      "name": "Initialized",
      "type": "event"
    },
    {
      "anonymous": false,
      "inputs": [
        {
          "indexed": true,
          "internalType": "address",
          "name": "previousOwner",
          "type": "address"
        },
        {
          "indexed": true,
          "internalType": "address",
          "name": "newOwner",
          "type": "address"
        }
      ],
      "name": "OwnershipTransferred",
      "type": "event"
    },
    {
      "anonymous": false,
      "inputs": [
        {
          "indexed": true,
          "internalType": "address",
          "name": "implementation",
          "type": "address"
        }
      ],
      "name": "Upgraded",
      "type": "event"
    },
    {
      "inputs": [],
      "name": "getBadgesAddress",
      "outputs": [
        {
          "internalType": "address",
          "name": "",
          "type": "address"
        }
      ],
      "stateMutability": "view",
      "type": "function"
    },
    {
      "inputs": [],
      "name": "getRaftAddress",
      "outputs": [
        {
          "internalType": "address",
          "name": "",
          "type": "address"
        }
      ],
      "stateMutability": "view",
      "type": "function"
    },
    {
      "inputs": [
        {
          "internalType": "uint256",
          "name": "_badgeTokenId",
          "type": "uint256"
        }
      ],
      "name": "getRaftByBadgeId",
      "outputs": [
        {
          "internalType": "uint256",
          "name": "",
          "type": "uint256"
        }
      ],
      "stateMutability": "view",
      "type": "function"
    },
    {
      "inputs": [
        {
          "internalType": "string",
          "name": "_specUri",
          "type": "string"
        }
      ],
      "name": "getRaftTokenId",
      "outputs": [
        {
          "internalType": "uint256",
          "name": "",
          "type": "uint256"
        }
      ],
      "stateMutability": "view",
      "type": "function"
    },
    {
      "inputs": [
        {
          "internalType": "address",
          "name": "_raftAddress",
          "type": "address"
        },
        {
          "internalType": "address",
          "name": "_nextOwner",
          "type": "address"
        }
      ],
      "name": "initialize",
      "outputs": [],
      "stateMutability": "nonpayable",
      "type": "function"
    },
    {
      "inputs": [
        {
          "internalType": "uint256",
          "name": "_raftTokenId",
          "type": "uint256"
        },
        {
          "internalType": "address",
          "name": "_admin",
          "type": "address"
        }
      ],
      "name": "isAuthorizedAdmin",
      "outputs": [
        {
          "internalType": "bool",
          "name": "",
          "type": "bool"
        }
      ],
      "stateMutability": "view",
      "type": "function"
    },
    {
      "inputs": [
        {
          "internalType": "string",
          "name": "_specUri",
          "type": "string"
        }
      ],
      "name": "isSpecRegistered",
      "outputs": [
        {
          "internalType": "bool",
          "name": "",
          "type": "bool"
        }
      ],
      "stateMutability": "view",
      "type": "function"
    },
    {
      "inputs": [],
      "name": "owner",
      "outputs": [
        {
          "internalType": "address",
          "name": "",
          "type": "address"
        }
      ],
      "stateMutability": "view",
      "type": "function"
    },
    {
      "inputs": [],
      "name": "proxiableUUID",
      "outputs": [
        {
          "internalType": "bytes32",
          "name": "",
          "type": "bytes32"
        }
      ],
      "stateMutability": "view",
      "type": "function"
    },
    {
      "inputs": [],
      "name": "renounceOwnership",
      "outputs": [],
      "stateMutability": "nonpayable",
      "type": "function"
    },
    {
      "inputs": [
        {
          "internalType": "uint256",
          "name": "_badgeTokenId",
          "type": "uint256"
        },
        {
          "internalType": "uint256",
          "name": "_raftTokenId",
          "type": "uint256"
        }
      ],
      "name": "setBadgeToRaft",
      "outputs": [],
      "stateMutability": "nonpayable",
      "type": "function"
    },
    {
      "inputs": [
        {
          "internalType": "address",
          "name": "_badgesAddress",
          "type": "address"
        }
      ],
      "name": "setBadgesAddress",
      "outputs": [],
      "stateMutability": "nonpayable",
      "type": "function"
    },
    {
      "inputs": [
        {
          "internalType": "uint256[]",
          "name": "_badgeTokenId",
          "type": "uint256[]"
        },
        {
          "internalType": "uint256[]",
          "name": "_raftTokenId",
          "type": "uint256[]"
        }
      ],
      "name": "setBadgesToRafts",
      "outputs": [],
      "stateMutability": "nonpayable",
      "type": "function"
    },
    {
      "inputs": [
        {
          "internalType": "address",
          "name": "_raftAddress",
          "type": "address"
        }
      ],
      "name": "setRaftAddress",
      "outputs": [],
      "stateMutability": "nonpayable",
      "type": "function"
    },
    {
      "inputs": [
        {
          "internalType": "string",
          "name": "_specUri",
          "type": "string"
        },
        {
          "internalType": "uint256",
          "name": "_raftTokenId",
          "type": "uint256"
        }
      ],
      "name": "setSpecToRaft",
      "outputs": [],
      "stateMutability": "nonpayable",
      "type": "function"
    },
    {
      "inputs": [
        {
          "internalType": "string[]",
          "name": "_specUri",
          "type": "string[]"
        },
        {
          "internalType": "uint256[]",
          "name": "_raftTokenId",
          "type": "uint256[]"
        }
      ],
      "name": "setSpecsToRafts",
      "outputs": [],
      "stateMutability": "nonpayable",
      "type": "function"
    },
    {
      "inputs": [
        {
          "internalType": "address",
          "name": "newOwner",
          "type": "address"
        }
      ],
      "name": "transferOwnership",
      "outputs": [],
      "stateMutability": "nonpayable",
      "type": "function"
    },
    {
      "inputs": [
        {
          "internalType": "address",
          "name": "newImplementation",
          "type": "address"
        }
      ],
      "name": "upgradeTo",
      "outputs": [],
      "stateMutability": "nonpayable",
      "type": "function"
    },
    {
      "inputs": [
        {
          "internalType": "address",
          "name": "newImplementation",
          "type": "address"
        },
        {
          "internalType": "bytes",
          "name": "data",
          "type": "bytes"
        }
      ],
      "name": "upgradeToAndCall",
      "outputs": [],
      "stateMutability": "payable",
      "type": "function"
    }
  ],
  "bytecode": {
    "object": "0x60a06040523060805234801561001457600080fd5b5061001d610022565b6100e2565b600054610100900460ff161561008e5760405162461bcd60e51b815260206004820152602760248201527f496e697469616c697a61626c653a20636f6e747261637420697320696e697469604482015266616c697a696e6760c81b606482015260840160405180910390fd5b60005460ff90811610156100e0576000805460ff191660ff9081179091556040519081527f7f26b83ff96e1f2b6a682f133852f6798a09c465da95921460cefb38474024989060200160405180910390a15b565b60805161176a610119600039600081816103a0015281816103e9015281816105f20152818161063201526106c5015261176a6000f3fe6080604052600436106101145760003560e01c8063904b284b116100a0578063e3ee9c4d11610064578063e3ee9c4d146102d9578063e6e3bf4214610309578063f2fde38b14610336578063fb74926114610356578063fc0e204e1461037657600080fd5b8063904b284b14610239578063addd190714610259578063bce6c02514610279578063d3367ac714610299578063d5be4eb0146102b957600080fd5b8063485cc955116100e7578063485cc955146101be5780634f1ef286146101de57806352d1902d146101f1578063715018a6146102065780638da5cb5b1461021b57600080fd5b806334f87662146101195780633659cfe6146101505780633664a8e91461017257806340710398146101a0575b600080fd5b34801561012557600080fd5b5060cc546001600160a01b03165b6040516001600160a01b0390911681526020015b60405180910390f35b34801561015c57600080fd5b5061017061016b36600461115c565b610396565b005b34801561017e57600080fd5b5061019261018d3660046111c2565b61047e565b604051908152602001610147565b3480156101ac57600080fd5b5060cb546001600160a01b0316610133565b3480156101ca57600080fd5b506101706101d9366004611204565b6104a9565b6101706101ec366004611253565b6105e8565b3480156101fd57600080fd5b506101926106b8565b34801561021257600080fd5b5061017061076b565b34801561022757600080fd5b506097546001600160a01b0316610133565b34801561024557600080fd5b5061017061025436600461135c565b61077f565b34801561026557600080fd5b506101706102743660046113c8565b6108a6565b34801561028557600080fd5b5061017061029436600461115c565b61090d565b3480156102a557600080fd5b506101706102b436600461135c565b610937565b3480156102c557600080fd5b506101706102d436600461115c565b610a44565b3480156102e557600080fd5b506102f96102f4366004611414565b610a6e565b6040519015158152602001610147565b34801561031557600080fd5b50610192610324366004611439565b600090815260ca602052604090205490565b34801561034257600080fd5b5061017061035136600461115c565b610b77565b34801561036257600080fd5b50610170610371366004611452565b610bed565b34801561038257600080fd5b506102f96103913660046111c2565b610c3e565b6001600160a01b037f00000000000000000000000000000000000000000000000000000000000000001630036103e75760405162461bcd60e51b81526004016103de90611474565b60405180910390fd5b7f00000000000000000000000000000000000000000000000000000000000000006001600160a01b03166104306000805160206116ee833981519152546001600160a01b031690565b6001600160a01b0316146104565760405162461bcd60e51b81526004016103de906114c0565b61045f81610c6b565b6040805160008082526020820190925261047b91839190610c73565b50565b600060c9838360405161049292919061150c565b908152602001604051809103902054905092915050565b600054610100900460ff16158080156104c95750600054600160ff909116105b806104e35750303b1580156104e3575060005460ff166001145b6105465760405162461bcd60e51b815260206004820152602e60248201527f496e697469616c697a61626c653a20636f6e747261637420697320616c72656160448201526d191e481a5b9a5d1a585b1a5e995960921b60648201526084016103de565b6000805460ff191660011790558015610569576000805461ff0019166101001790555b610571610dde565b60cc80546001600160a01b0319166001600160a01b03851617905561059582610b77565b61059d610e0d565b80156105e3576000805461ff0019169055604051600181527f7f26b83ff96e1f2b6a682f133852f6798a09c465da95921460cefb38474024989060200160405180910390a15b505050565b6001600160a01b037f00000000000000000000000000000000000000000000000000000000000000001630036106305760405162461bcd60e51b81526004016103de90611474565b7f00000000000000000000000000000000000000000000000000000000000000006001600160a01b03166106796000805160206116ee833981519152546001600160a01b031690565b6001600160a01b03161461069f5760405162461bcd60e51b81526004016103de906114c0565b6106a882610c6b565b6106b482826001610c73565b5050565b6000306001600160a01b037f000000000000000000000000000000000000000000000000000000000000000016146107585760405162461bcd60e51b815260206004820152603860248201527f555550535570677261646561626c653a206d757374206e6f742062652063616c60448201527f6c6564207468726f7567682064656c656761746563616c6c000000000000000060648201526084016103de565b506000805160206116ee83398151915290565b610773610e34565b61077d6000610e8e565b565b60cb546001600160a01b03163314806107a257506097546001600160a01b031633145b6107be5760405162461bcd60e51b81526004016103de9061151c565b8281146108255760405162461bcd60e51b815260206004820152602f60248201527f7365745370656373546f52616674733a20617272617973206d7573742062652060448201526e0e8d0ca40e6c2daca40d8cadccee8d608b1b60648201526084016103de565b60005b8381101561089f5782828281811061084257610842611553565b9050602002013560c986868481811061085d5761085d611553565b905060200281019061086f9190611569565b60405161087d92919061150c565b9081526040519081900360200190205580610897816115b0565b915050610828565b5050505050565b60cb546001600160a01b03163314806108c957506097546001600160a01b031633145b6108e55760405162461bcd60e51b81526004016103de9061151c565b8060c984846040516108f892919061150c565b90815260405190819003602001902055505050565b610915610e34565b60cb80546001600160a01b0319166001600160a01b0392909216919091179055565b60cb546001600160a01b031633148061095a57506097546001600160a01b031633145b6109765760405162461bcd60e51b81526004016103de9061151c565b8281146109de5760405162461bcd60e51b815260206004820152603060248201527f736574426164676573546f52616674733a20617272617973206d75737420626560448201526f040e8d0ca40e6c2daca40d8cadccee8d60831b60648201526084016103de565b60005b8381101561089f578282828181106109fb576109fb611553565b9050602002013560ca6000878785818110610a1857610a18611553565b905060200201358152602001908152602001600020819055508080610a3c906115b0565b9150506109e1565b610a4c610e34565b60cc80546001600160a01b0319166001600160a01b0392909216919091179055565b60cc546040516331a9108f60e11b8152600481018490526000916001600160a01b03169082908290636352211e90602401602060405180830381865afa158015610abc573d6000803e3d6000fd5b505050506040513d601f19601f82011682018060405250810190610ae091906115d7565b9050836001600160a01b0316816001600160a01b03161480610b6e57506040516370307dbb60e11b8152600481018690526001600160a01b03858116602483015283169063e060fb7690604401602060405180830381865afa158015610b4a573d6000803e3d6000fd5b505050506040513d601f19601f82011682018060405250810190610b6e91906115f4565b95945050505050565b610b7f610e34565b6001600160a01b038116610be45760405162461bcd60e51b815260206004820152602660248201527f4f776e61626c653a206e6577206f776e657220697320746865207a65726f206160448201526564647265737360d01b60648201526084016103de565b61047b81610e8e565b60cb546001600160a01b0316331480610c1057506097546001600160a01b031633145b610c2c5760405162461bcd60e51b81526004016103de9061151c565b600091825260ca602052604090912055565b600060c98383604051610c5292919061150c565b9081526040519081900360200190205415159392505050565b61047b610e34565b7f4910fdfa16fed3260ed0e7147f7cc6da11a60208b5b9406d12a635614ffd91435460ff1615610ca6576105e383610ee0565b826001600160a01b03166352d1902d6040518163ffffffff1660e01b8152600401602060405180830381865afa925050508015610d00575060408051601f3d908101601f19168201909252610cfd91810190611616565b60015b610d635760405162461bcd60e51b815260206004820152602e60248201527f45524331393637557067726164653a206e657720696d706c656d656e7461746960448201526d6f6e206973206e6f74205555505360901b60648201526084016103de565b6000805160206116ee8339815191528114610dd25760405162461bcd60e51b815260206004820152602960248201527f45524331393637557067726164653a20756e737570706f727465642070726f786044820152681a58589b195555525160ba1b60648201526084016103de565b506105e3838383610f7c565b600054610100900460ff16610e055760405162461bcd60e51b81526004016103de9061162f565b61077d610fa7565b600054610100900460ff1661077d5760405162461bcd60e51b81526004016103de9061162f565b6097546001600160a01b0316331461077d5760405162461bcd60e51b815260206004820181905260248201527f4f776e61626c653a2063616c6c6572206973206e6f7420746865206f776e657260448201526064016103de565b609780546001600160a01b038381166001600160a01b0319831681179093556040519116919082907f8be0079c531659141344cd1fd0a4f28419497f9722a3daafe3b4186f6b6457e090600090a35050565b6001600160a01b0381163b610f4d5760405162461bcd60e51b815260206004820152602d60248201527f455243313936373a206e657720696d706c656d656e746174696f6e206973206e60448201526c1bdd08184818dbdb9d1c9858dd609a1b60648201526084016103de565b6000805160206116ee83398151915280546001600160a01b0319166001600160a01b0392909216919091179055565b610f8583610fd7565b600082511180610f925750805b156105e357610fa18383611017565b50505050565b600054610100900460ff16610fce5760405162461bcd60e51b81526004016103de9061162f565b61077d33610e8e565b610fe081610ee0565b6040516001600160a01b038216907fbc7cd75a20ee27fd9adebab32041f755214dbc6bffa90cc0225b39da2e5c2d3b90600090a250565b60606001600160a01b0383163b61107f5760405162461bcd60e51b815260206004820152602660248201527f416464726573733a2064656c65676174652063616c6c20746f206e6f6e2d636f6044820152651b9d1c9858dd60d21b60648201526084016103de565b600080846001600160a01b03168460405161109a919061169e565b600060405180830381855af49150503d80600081146110d5576040519150601f19603f3d011682016040523d82523d6000602084013e6110da565b606091505b5091509150610b6e828260405180606001604052806027815260200161170e602791396060831561110c575081611116565b611116838361111d565b9392505050565b81511561112d5781518083602001fd5b8060405162461bcd60e51b81526004016103de91906116ba565b6001600160a01b038116811461047b57600080fd5b60006020828403121561116e57600080fd5b813561111681611147565b60008083601f84011261118b57600080fd5b50813567ffffffffffffffff8111156111a357600080fd5b6020830191508360208285010111156111bb57600080fd5b9250929050565b600080602083850312156111d557600080fd5b823567ffffffffffffffff8111156111ec57600080fd5b6111f885828601611179565b90969095509350505050565b6000806040838503121561121757600080fd5b823561122281611147565b9150602083013561123281611147565b809150509250929050565b634e487b7160e01b600052604160045260246000fd5b6000806040838503121561126657600080fd5b823561127181611147565b9150602083013567ffffffffffffffff8082111561128e57600080fd5b818501915085601f8301126112a257600080fd5b8135818111156112b4576112b461123d565b604051601f8201601f19908116603f011681019083821181831017156112dc576112dc61123d565b816040528281528860208487010111156112f557600080fd5b8260208601602083013760006020848301015280955050505050509250929050565b60008083601f84011261132957600080fd5b50813567ffffffffffffffff81111561134157600080fd5b6020830191508360208260051b85010111156111bb57600080fd5b6000806000806040858703121561137257600080fd5b843567ffffffffffffffff8082111561138a57600080fd5b61139688838901611317565b909650945060208701359150808211156113af57600080fd5b506113bc87828801611317565b95989497509550505050565b6000806000604084860312156113dd57600080fd5b833567ffffffffffffffff8111156113f457600080fd5b61140086828701611179565b909790965060209590950135949350505050565b6000806040838503121561142757600080fd5b82359150602083013561123281611147565b60006020828403121561144b57600080fd5b5035919050565b6000806040838503121561146557600080fd5b50508035926020909101359150565b6020808252602c908201527f46756e6374696f6e206d7573742062652063616c6c6564207468726f7567682060408201526b19195b1959d85d1958d85b1b60a21b606082015260800190565b6020808252602c908201527f46756e6374696f6e206d7573742062652063616c6c6564207468726f7567682060408201526b6163746976652070726f787960a01b606082015260800190565b8183823760009101908152919050565b6020808252601c908201527f6f6e6c79417574686f72697a65643a20756e617574686f72697a656400000000604082015260600190565b634e487b7160e01b600052603260045260246000fd5b6000808335601e1984360301811261158057600080fd5b83018035915067ffffffffffffffff82111561159b57600080fd5b6020019150368190038213156111bb57600080fd5b6000600182016115d057634e487b7160e01b600052601160045260246000fd5b5060010190565b6000602082840312156115e957600080fd5b815161111681611147565b60006020828403121561160657600080fd5b8151801515811461111657600080fd5b60006020828403121561162857600080fd5b5051919050565b6020808252602b908201527f496e697469616c697a61626c653a20636f6e7472616374206973206e6f74206960408201526a6e697469616c697a696e6760a81b606082015260800190565b60005b8381101561169557818101518382015260200161167d565b50506000910152565b600082516116b081846020870161167a565b9190910192915050565b60208152600082518060208401526116d981604085016020870161167a565b601f01601f1916919091016040019291505056fe360894a13ba1a3210667c828492db98dca3e2076cc3735a920a3ca505d382bbc416464726573733a206c6f772d6c6576656c2064656c65676174652063616c6c206661696c6564a2646970667358221220446f65c5ab40ee66799397802766570ef83f29f3c53e70cad247085a989a3bdf64736f6c63430008100033",
    "linkReferences": {}
  },
  "methodIdentifiers": {
    "getBadgesAddress()": "40710398",
    "getRaftAddress()": "34f87662",
    "getRaftByBadgeId(uint256)": "e6e3bf42",
    "getRaftTokenId(string)": "3664a8e9",
    "initialize(address,address)": "485cc955",
    "isAuthorizedAdmin(uint256,address)": "e3ee9c4d",
    "isSpecRegistered(string)": "fc0e204e",
    "owner()": "8da5cb5b",
    "proxiableUUID()": "52d1902d",
    "renounceOwnership()": "715018a6",
    "setBadgeToRaft(uint256,uint256)": "fb749261",
    "setBadgesAddress(address)": "bce6c025",
    "setBadgesToRafts(uint256[],uint256[])": "d3367ac7",
    "setRaftAddress(address)": "d5be4eb0",
    "setSpecToRaft(string,uint256)": "addd1907",
    "setSpecsToRafts(string[],uint256[])": "904b284b",
    "transferOwnership(address)": "f2fde38b",
    "upgradeTo(address)": "3659cfe6",
    "upgradeToAndCall(address,bytes)": "4f1ef286"
  },
  "id": 50
}