{
  "abi": [
    {
      "inputs": [],
      "stateMutability": "nonpayable",
      "type": "constructor"
    },
    {
      "anonymous": false,
      "inputs": [
        {
          "indexed": false,
          "internalType": "address",
          "name": "previousAdmin",
          "type": "address"
        },
        {
          "indexed": false,
          "internalType": "address",
          "name": "newAdmin",
          "type": "address"
        }
      ],
      "name": "AdminChanged",
      "type": "event"
    },
    {
      "anonymous": false,
      "inputs": [
        {
          "indexed": true,
          "internalType": "address",
          "name": "beacon",
          "type": "address"
        }
      ],
      "name": "BeaconUpgraded",
      "type": "event"
    },
    {
      "anonymous": false,
      "inputs": [
        {
          "indexed": false,
          "internalType": "uint8",
          "name": "version",
          "type": "uint8"
        }
      ],
      "name": "Initialized",
      "type": "event"
    },
    {
      "anonymous": false,
      "inputs": [
        {
          "indexed": true,
          "internalType": "address",
          "name": "previousOwner",
          "type": "address"
        },
        {
          "indexed": true,
          "internalType": "address",
          "name": "newOwner",
          "type": "address"
        }
      ],
      "name": "OwnershipTransferred",
      "type": "event"
    },
    {
      "anonymous": false,
      "inputs": [
        {
          "indexed": true,
          "internalType": "address",
          "name": "implementation",
          "type": "address"
        }
      ],
      "name": "Upgraded",
      "type": "event"
    },
    {
      "inputs": [],
      "name": "getBadgesAddress",
      "outputs": [
        {
          "internalType": "address",
          "name": "",
          "type": "address"
        }
      ],
      "stateMutability": "view",
      "type": "function"
    },
    {
      "inputs": [],
      "name": "getRaftAddress",
      "outputs": [
        {
          "internalType": "address",
          "name": "",
          "type": "address"
        }
      ],
      "stateMutability": "view",
      "type": "function"
    },
    {
      "inputs": [
        {
          "internalType": "uint256",
          "name": "_badgeTokenId",
          "type": "uint256"
        }
      ],
      "name": "getRaftByBadgeId",
      "outputs": [
        {
          "internalType": "uint256",
          "name": "",
          "type": "uint256"
        }
      ],
      "stateMutability": "view",
      "type": "function"
    },
    {
      "inputs": [
        {
          "internalType": "string",
          "name": "_specUri",
          "type": "string"
        }
      ],
      "name": "getRaftBySpecUri",
      "outputs": [
        {
          "internalType": "uint256",
          "name": "",
          "type": "uint256"
        }
      ],
      "stateMutability": "view",
      "type": "function"
    },
    {
      "inputs": [
        {
          "internalType": "string",
          "name": "_specUri",
          "type": "string"
        }
      ],
      "name": "getRaftTokenId",
      "outputs": [
        {
          "internalType": "uint256",
          "name": "",
          "type": "uint256"
        }
      ],
      "stateMutability": "view",
      "type": "function"
    },
    {
      "inputs": [
        {
          "internalType": "address",
          "name": "_raftAddress",
          "type": "address"
        },
        {
          "internalType": "address",
          "name": "_nextOwner",
          "type": "address"
        }
      ],
      "name": "initialize",
      "outputs": [],
      "stateMutability": "nonpayable",
      "type": "function"
    },
    {
      "inputs": [
        {
          "internalType": "uint256",
          "name": "_raftTokenId",
          "type": "uint256"
        },
        {
          "internalType": "address",
          "name": "_admin",
          "type": "address"
        }
      ],
      "name": "isAuthorizedAdmin",
      "outputs": [
        {
          "internalType": "bool",
          "name": "",
          "type": "bool"
        }
      ],
      "stateMutability": "view",
      "type": "function"
    },
    {
      "inputs": [
        {
          "internalType": "string",
          "name": "_specUri",
          "type": "string"
        }
      ],
      "name": "isSpecRegistered",
      "outputs": [
        {
          "internalType": "bool",
          "name": "",
          "type": "bool"
        }
      ],
      "stateMutability": "view",
      "type": "function"
    },
    {
      "inputs": [],
      "name": "owner",
      "outputs": [
        {
          "internalType": "address",
          "name": "",
          "type": "address"
        }
      ],
      "stateMutability": "view",
      "type": "function"
    },
    {
      "inputs": [],
      "name": "proxiableUUID",
      "outputs": [
        {
          "internalType": "bytes32",
          "name": "",
          "type": "bytes32"
        }
      ],
      "stateMutability": "view",
      "type": "function"
    },
    {
      "inputs": [],
      "name": "renounceOwnership",
      "outputs": [],
      "stateMutability": "nonpayable",
      "type": "function"
    },
    {
      "inputs": [
        {
          "internalType": "uint256",
          "name": "_badgeTokenId",
          "type": "uint256"
        },
        {
          "internalType": "uint256",
          "name": "_raftTokenId",
          "type": "uint256"
        }
      ],
      "name": "setBadgeToRaft",
      "outputs": [],
      "stateMutability": "nonpayable",
      "type": "function"
    },
    {
      "inputs": [
        {
          "internalType": "address",
          "name": "_badgesAddress",
          "type": "address"
        }
      ],
      "name": "setBadgesAddress",
      "outputs": [],
      "stateMutability": "nonpayable",
      "type": "function"
    },
    {
      "inputs": [
        {
          "internalType": "uint256[]",
          "name": "_badgeTokenId",
          "type": "uint256[]"
        },
        {
          "internalType": "uint256[]",
          "name": "_raftTokenId",
          "type": "uint256[]"
        }
      ],
      "name": "setBadgesToRafts",
      "outputs": [],
      "stateMutability": "nonpayable",
      "type": "function"
    },
    {
      "inputs": [
        {
          "internalType": "address",
          "name": "_raftAddress",
          "type": "address"
        }
      ],
      "name": "setRaftAddress",
      "outputs": [],
      "stateMutability": "nonpayable",
      "type": "function"
    },
    {
      "inputs": [
        {
          "internalType": "string",
          "name": "_specUri",
          "type": "string"
        },
        {
          "internalType": "uint256",
          "name": "_raftTokenId",
          "type": "uint256"
        }
      ],
      "name": "setSpecToRaft",
      "outputs": [],
      "stateMutability": "nonpayable",
      "type": "function"
    },
    {
      "inputs": [
        {
          "internalType": "string[]",
          "name": "_specUri",
          "type": "string[]"
        },
        {
          "internalType": "uint256[]",
          "name": "_raftTokenId",
          "type": "uint256[]"
        }
      ],
      "name": "setSpecsToRafts",
      "outputs": [],
      "stateMutability": "nonpayable",
      "type": "function"
    },
    {
      "inputs": [
        {
          "internalType": "address",
          "name": "newOwner",
          "type": "address"
        }
      ],
      "name": "transferOwnership",
      "outputs": [],
      "stateMutability": "nonpayable",
      "type": "function"
    },
    {
      "inputs": [
        {
          "internalType": "address",
          "name": "newImplementation",
          "type": "address"
        }
      ],
      "name": "upgradeTo",
      "outputs": [],
      "stateMutability": "nonpayable",
      "type": "function"
    },
    {
      "inputs": [
        {
          "internalType": "address",
          "name": "newImplementation",
          "type": "address"
        },
        {
          "internalType": "bytes",
          "name": "data",
          "type": "bytes"
        }
      ],
      "name": "upgradeToAndCall",
      "outputs": [],
      "stateMutability": "payable",
      "type": "function"
    }
  ],
  "bytecode": {
    "object": "0x60a06040523060805234801561001457600080fd5b5061001d610022565b6100e2565b600054610100900460ff161561008e5760405162461bcd60e51b815260206004820152602760248201527f496e697469616c697a61626c653a20636f6e747261637420697320696e697469604482015266616c697a696e6760c81b606482015260840160405180910390fd5b60005460ff90811610156100e0576000805460ff191660ff9081179091556040519081527f7f26b83ff96e1f2b6a682f133852f6798a09c465da95921460cefb38474024989060200160405180910390a15b565b608051611775610119600039600081816103ab015281816103f4015281816105fd0152818161063d01526106d001526117756000f3fe60806040526004361061011f5760003560e01c8063addd1907116100a0578063e6e3bf4211610064578063e6e3bf4214610314578063efbc85ea1461017d578063f2fde38b14610341578063fb74926114610361578063fc0e204e1461038157600080fd5b8063addd190714610264578063bce6c02514610284578063d3367ac7146102a4578063d5be4eb0146102c4578063e3ee9c4d146102e457600080fd5b80634f1ef286116100e75780634f1ef286146101e957806352d1902d146101fc578063715018a6146102115780638da5cb5b14610226578063904b284b1461024457600080fd5b806334f87662146101245780633659cfe61461015b5780633664a8e91461017d57806340710398146101ab578063485cc955146101c9575b600080fd5b34801561013057600080fd5b5060cc546001600160a01b03165b6040516001600160a01b0390911681526020015b60405180910390f35b34801561016757600080fd5b5061017b610176366004611167565b6103a1565b005b34801561018957600080fd5b5061019d6101983660046111cd565b610489565b604051908152602001610152565b3480156101b757600080fd5b5060cb546001600160a01b031661013e565b3480156101d557600080fd5b5061017b6101e436600461120f565b6104b4565b61017b6101f736600461125e565b6105f3565b34801561020857600080fd5b5061019d6106c3565b34801561021d57600080fd5b5061017b610776565b34801561023257600080fd5b506097546001600160a01b031661013e565b34801561025057600080fd5b5061017b61025f366004611367565b61078a565b34801561027057600080fd5b5061017b61027f3660046113d3565b6108b1565b34801561029057600080fd5b5061017b61029f366004611167565b610918565b3480156102b057600080fd5b5061017b6102bf366004611367565b610942565b3480156102d057600080fd5b5061017b6102df366004611167565b610a4f565b3480156102f057600080fd5b506103046102ff36600461141f565b610a79565b6040519015158152602001610152565b34801561032057600080fd5b5061019d61032f366004611444565b600090815260ca602052604090205490565b34801561034d57600080fd5b5061017b61035c366004611167565b610b82565b34801561036d57600080fd5b5061017b61037c36600461145d565b610bf8565b34801561038d57600080fd5b5061030461039c3660046111cd565b610c49565b6001600160a01b037f00000000000000000000000000000000000000000000000000000000000000001630036103f25760405162461bcd60e51b81526004016103e99061147f565b60405180910390fd5b7f00000000000000000000000000000000000000000000000000000000000000006001600160a01b031661043b6000805160206116f9833981519152546001600160a01b031690565b6001600160a01b0316146104615760405162461bcd60e51b81526004016103e9906114cb565b61046a81610c76565b6040805160008082526020820190925261048691839190610c7e565b50565b600060c9838360405161049d929190611517565b908152602001604051809103902054905092915050565b600054610100900460ff16158080156104d45750600054600160ff909116105b806104ee5750303b1580156104ee575060005460ff166001145b6105515760405162461bcd60e51b815260206004820152602e60248201527f496e697469616c697a61626c653a20636f6e747261637420697320616c72656160448201526d191e481a5b9a5d1a585b1a5e995960921b60648201526084016103e9565b6000805460ff191660011790558015610574576000805461ff0019166101001790555b61057c610de9565b60cc80546001600160a01b0319166001600160a01b0385161790556105a082610b82565b6105a8610e18565b80156105ee576000805461ff0019169055604051600181527f7f26b83ff96e1f2b6a682f133852f6798a09c465da95921460cefb38474024989060200160405180910390a15b505050565b6001600160a01b037f000000000000000000000000000000000000000000000000000000000000000016300361063b5760405162461bcd60e51b81526004016103e99061147f565b7f00000000000000000000000000000000000000000000000000000000000000006001600160a01b03166106846000805160206116f9833981519152546001600160a01b031690565b6001600160a01b0316146106aa5760405162461bcd60e51b81526004016103e9906114cb565b6106b382610c76565b6106bf82826001610c7e565b5050565b6000306001600160a01b037f000000000000000000000000000000000000000000000000000000000000000016146107635760405162461bcd60e51b815260206004820152603860248201527f555550535570677261646561626c653a206d757374206e6f742062652063616c60448201527f6c6564207468726f7567682064656c656761746563616c6c000000000000000060648201526084016103e9565b506000805160206116f983398151915290565b61077e610e3f565b6107886000610e99565b565b60cb546001600160a01b03163314806107ad57506097546001600160a01b031633145b6107c95760405162461bcd60e51b81526004016103e990611527565b8281146108305760405162461bcd60e51b815260206004820152602f60248201527f7365745370656373546f52616674733a20617272617973206d7573742062652060448201526e0e8d0ca40e6c2daca40d8cadccee8d608b1b60648201526084016103e9565b60005b838110156108aa5782828281811061084d5761084d61155e565b9050602002013560c98686848181106108685761086861155e565b905060200281019061087a9190611574565b604051610888929190611517565b90815260405190819003602001902055806108a2816115bb565b915050610833565b5050505050565b60cb546001600160a01b03163314806108d457506097546001600160a01b031633145b6108f05760405162461bcd60e51b81526004016103e990611527565b8060c98484604051610903929190611517565b90815260405190819003602001902055505050565b610920610e3f565b60cb80546001600160a01b0319166001600160a01b0392909216919091179055565b60cb546001600160a01b031633148061096557506097546001600160a01b031633145b6109815760405162461bcd60e51b81526004016103e990611527565b8281146109e95760405162461bcd60e51b815260206004820152603060248201527f736574426164676573546f52616674733a20617272617973206d75737420626560448201526f040e8d0ca40e6c2daca40d8cadccee8d60831b60648201526084016103e9565b60005b838110156108aa57828282818110610a0657610a0661155e565b9050602002013560ca6000878785818110610a2357610a2361155e565b905060200201358152602001908152602001600020819055508080610a47906115bb565b9150506109ec565b610a57610e3f565b60cc80546001600160a01b0319166001600160a01b0392909216919091179055565b60cc546040516331a9108f60e11b8152600481018490526000916001600160a01b03169082908290636352211e90602401602060405180830381865afa158015610ac7573d6000803e3d6000fd5b505050506040513d601f19601f82011682018060405250810190610aeb91906115e2565b9050836001600160a01b0316816001600160a01b03161480610b7957506040516370307dbb60e11b8152600481018690526001600160a01b03858116602483015283169063e060fb7690604401602060405180830381865afa158015610b55573d6000803e3d6000fd5b505050506040513d601f19601f82011682018060405250810190610b7991906115ff565b95945050505050565b610b8a610e3f565b6001600160a01b038116610bef5760405162461bcd60e51b815260206004820152602660248201527f4f776e61626c653a206e6577206f776e657220697320746865207a65726f206160448201526564647265737360d01b60648201526084016103e9565b61048681610e99565b60cb546001600160a01b0316331480610c1b57506097546001600160a01b031633145b610c375760405162461bcd60e51b81526004016103e990611527565b600091825260ca602052604090912055565b600060c98383604051610c5d929190611517565b9081526040519081900360200190205415159392505050565b610486610e3f565b7f4910fdfa16fed3260ed0e7147f7cc6da11a60208b5b9406d12a635614ffd91435460ff1615610cb1576105ee83610eeb565b826001600160a01b03166352d1902d6040518163ffffffff1660e01b8152600401602060405180830381865afa925050508015610d0b575060408051601f3d908101601f19168201909252610d0891810190611621565b60015b610d6e5760405162461bcd60e51b815260206004820152602e60248201527f45524331393637557067726164653a206e657720696d706c656d656e7461746960448201526d6f6e206973206e6f74205555505360901b60648201526084016103e9565b6000805160206116f98339815191528114610ddd5760405162461bcd60e51b815260206004820152602960248201527f45524331393637557067726164653a20756e737570706f727465642070726f786044820152681a58589b195555525160ba1b60648201526084016103e9565b506105ee838383610f87565b600054610100900460ff16610e105760405162461bcd60e51b81526004016103e99061163a565b610788610fb2565b600054610100900460ff166107885760405162461bcd60e51b81526004016103e99061163a565b6097546001600160a01b031633146107885760405162461bcd60e51b815260206004820181905260248201527f4f776e61626c653a2063616c6c6572206973206e6f7420746865206f776e657260448201526064016103e9565b609780546001600160a01b038381166001600160a01b0319831681179093556040519116919082907f8be0079c531659141344cd1fd0a4f28419497f9722a3daafe3b4186f6b6457e090600090a35050565b6001600160a01b0381163b610f585760405162461bcd60e51b815260206004820152602d60248201527f455243313936373a206e657720696d706c656d656e746174696f6e206973206e60448201526c1bdd08184818dbdb9d1c9858dd609a1b60648201526084016103e9565b6000805160206116f983398151915280546001600160a01b0319166001600160a01b0392909216919091179055565b610f9083610fe2565b600082511180610f9d5750805b156105ee57610fac8383611022565b50505050565b600054610100900460ff16610fd95760405162461bcd60e51b81526004016103e99061163a565b61078833610e99565b610feb81610eeb565b6040516001600160a01b038216907fbc7cd75a20ee27fd9adebab32041f755214dbc6bffa90cc0225b39da2e5c2d3b90600090a250565b60606001600160a01b0383163b61108a5760405162461bcd60e51b815260206004820152602660248201527f416464726573733a2064656c65676174652063616c6c20746f206e6f6e2d636f6044820152651b9d1c9858dd60d21b60648201526084016103e9565b600080846001600160a01b0316846040516110a591906116a9565b600060405180830381855af49150503d80600081146110e0576040519150601f19603f3d011682016040523d82523d6000602084013e6110e5565b606091505b5091509150610b7982826040518060600160405280602781526020016117196027913960608315611117575081611121565b6111218383611128565b9392505050565b8151156111385781518083602001fd5b8060405162461bcd60e51b81526004016103e991906116c5565b6001600160a01b038116811461048657600080fd5b60006020828403121561117957600080fd5b813561112181611152565b60008083601f84011261119657600080fd5b50813567ffffffffffffffff8111156111ae57600080fd5b6020830191508360208285010111156111c657600080fd5b9250929050565b600080602083850312156111e057600080fd5b823567ffffffffffffffff8111156111f757600080fd5b61120385828601611184565b90969095509350505050565b6000806040838503121561122257600080fd5b823561122d81611152565b9150602083013561123d81611152565b809150509250929050565b634e487b7160e01b600052604160045260246000fd5b6000806040838503121561127157600080fd5b823561127c81611152565b9150602083013567ffffffffffffffff8082111561129957600080fd5b818501915085601f8301126112ad57600080fd5b8135818111156112bf576112bf611248565b604051601f8201601f19908116603f011681019083821181831017156112e7576112e7611248565b8160405282815288602084870101111561130057600080fd5b8260208601602083013760006020848301015280955050505050509250929050565b60008083601f84011261133457600080fd5b50813567ffffffffffffffff81111561134c57600080fd5b6020830191508360208260051b85010111156111c657600080fd5b6000806000806040858703121561137d57600080fd5b843567ffffffffffffffff8082111561139557600080fd5b6113a188838901611322565b909650945060208701359150808211156113ba57600080fd5b506113c787828801611322565b95989497509550505050565b6000806000604084860312156113e857600080fd5b833567ffffffffffffffff8111156113ff57600080fd5b61140b86828701611184565b909790965060209590950135949350505050565b6000806040838503121561143257600080fd5b82359150602083013561123d81611152565b60006020828403121561145657600080fd5b5035919050565b6000806040838503121561147057600080fd5b50508035926020909101359150565b6020808252602c908201527f46756e6374696f6e206d7573742062652063616c6c6564207468726f7567682060408201526b19195b1959d85d1958d85b1b60a21b606082015260800190565b6020808252602c908201527f46756e6374696f6e206d7573742062652063616c6c6564207468726f7567682060408201526b6163746976652070726f787960a01b606082015260800190565b8183823760009101908152919050565b6020808252601c908201527f6f6e6c79417574686f72697a65643a20756e617574686f72697a656400000000604082015260600190565b634e487b7160e01b600052603260045260246000fd5b6000808335601e1984360301811261158b57600080fd5b83018035915067ffffffffffffffff8211156115a657600080fd5b6020019150368190038213156111c657600080fd5b6000600182016115db57634e487b7160e01b600052601160045260246000fd5b5060010190565b6000602082840312156115f457600080fd5b815161112181611152565b60006020828403121561161157600080fd5b8151801515811461112157600080fd5b60006020828403121561163357600080fd5b5051919050565b6020808252602b908201527f496e697469616c697a61626c653a20636f6e7472616374206973206e6f74206960408201526a6e697469616c697a696e6760a81b606082015260800190565b60005b838110156116a0578181015183820152602001611688565b50506000910152565b600082516116bb818460208701611685565b9190910192915050565b60208152600082518060208401526116e4816040850160208701611685565b601f01601f1916919091016040019291505056fe360894a13ba1a3210667c828492db98dca3e2076cc3735a920a3ca505d382bbc416464726573733a206c6f772d6c6576656c2064656c65676174652063616c6c206661696c6564a264697066735822122097caddbe785d5dc0bccc77054073b04373572054c7a492c2c7e57bc8a529491664736f6c63430008100033",
    "linkReferences": {}
  },
  "methodIdentifiers": {
    "getBadgesAddress()": "40710398",
    "getRaftAddress()": "34f87662",
    "getRaftByBadgeId(uint256)": "e6e3bf42",
    "getRaftBySpecUri(string)": "efbc85ea",
    "getRaftTokenId(string)": "3664a8e9",
    "initialize(address,address)": "485cc955",
    "isAuthorizedAdmin(uint256,address)": "e3ee9c4d",
    "isSpecRegistered(string)": "fc0e204e",
    "owner()": "8da5cb5b",
    "proxiableUUID()": "52d1902d",
    "renounceOwnership()": "715018a6",
    "setBadgeToRaft(uint256,uint256)": "fb749261",
    "setBadgesAddress(address)": "bce6c025",
    "setBadgesToRafts(uint256[],uint256[])": "d3367ac7",
    "setRaftAddress(address)": "d5be4eb0",
    "setSpecToRaft(string,uint256)": "addd1907",
    "setSpecsToRafts(string[],uint256[])": "904b284b",
    "transferOwnership(address)": "f2fde38b",
    "upgradeTo(address)": "3659cfe6",
    "upgradeToAndCall(address,bytes)": "4f1ef286"
  },
  "id": 50
}