{
  "abi": [
    {
      "inputs": [],
      "stateMutability": "nonpayable",
      "type": "constructor"
    },
    {
      "anonymous": false,
      "inputs": [
        {
          "indexed": false,
          "internalType": "address",
          "name": "previousAdmin",
          "type": "address"
        },
        {
          "indexed": false,
          "internalType": "address",
          "name": "newAdmin",
          "type": "address"
        }
      ],
      "name": "AdminChanged",
      "type": "event"
    },
    {
      "anonymous": false,
      "inputs": [
        {
          "indexed": true,
          "internalType": "address",
          "name": "beacon",
          "type": "address"
        }
      ],
      "name": "BeaconUpgraded",
      "type": "event"
    },
    {
      "anonymous": false,
      "inputs": [
        {
          "indexed": false,
          "internalType": "uint8",
          "name": "version",
          "type": "uint8"
        }
      ],
      "name": "Initialized",
      "type": "event"
    },
    {
      "anonymous": false,
      "inputs": [
        {
          "indexed": true,
          "internalType": "address",
          "name": "previousOwner",
          "type": "address"
        },
        {
          "indexed": true,
          "internalType": "address",
          "name": "newOwner",
          "type": "address"
        }
      ],
      "name": "OwnershipTransferred",
      "type": "event"
    },
    {
      "anonymous": false,
      "inputs": [
        {
          "indexed": true,
          "internalType": "address",
          "name": "implementation",
          "type": "address"
        }
      ],
      "name": "Upgraded",
      "type": "event"
    },
    {
      "inputs": [],
      "name": "getBadgesAddress",
      "outputs": [
        {
          "internalType": "address",
          "name": "",
          "type": "address"
        }
      ],
      "stateMutability": "view",
      "type": "function"
    },
    {
      "inputs": [],
      "name": "getRaftAddress",
      "outputs": [
        {
          "internalType": "address",
          "name": "",
          "type": "address"
        }
      ],
      "stateMutability": "view",
      "type": "function"
    },
    {
      "inputs": [
        {
          "internalType": "string",
          "name": "_specUri",
          "type": "string"
        }
      ],
      "name": "getRaftTokenId",
      "outputs": [
        {
          "internalType": "uint256",
          "name": "",
          "type": "uint256"
        }
      ],
      "stateMutability": "view",
      "type": "function"
    },
    {
      "inputs": [
        {
          "internalType": "address",
          "name": "_raftAddress",
          "type": "address"
        },
        {
          "internalType": "address",
          "name": "_nextOwner",
          "type": "address"
        }
      ],
      "name": "initialize",
      "outputs": [],
      "stateMutability": "nonpayable",
      "type": "function"
    },
    {
      "inputs": [
        {
          "internalType": "uint256",
          "name": "_raftTokenId",
          "type": "uint256"
        },
        {
          "internalType": "address",
          "name": "_admin",
          "type": "address"
        }
      ],
      "name": "isAuthorizedAdmin",
      "outputs": [
        {
          "internalType": "bool",
          "name": "",
          "type": "bool"
        }
      ],
      "stateMutability": "view",
      "type": "function"
    },
    {
      "inputs": [
        {
          "internalType": "string",
          "name": "_specUri",
          "type": "string"
        }
      ],
      "name": "isSpecRegistered",
      "outputs": [
        {
          "internalType": "bool",
          "name": "",
          "type": "bool"
        }
      ],
      "stateMutability": "view",
      "type": "function"
    },
    {
      "inputs": [],
      "name": "owner",
      "outputs": [
        {
          "internalType": "address",
          "name": "",
          "type": "address"
        }
      ],
      "stateMutability": "view",
      "type": "function"
    },
    {
      "inputs": [],
      "name": "proxiableUUID",
      "outputs": [
        {
          "internalType": "bytes32",
          "name": "",
          "type": "bytes32"
        }
      ],
      "stateMutability": "view",
      "type": "function"
    },
    {
      "inputs": [],
      "name": "renounceOwnership",
      "outputs": [],
      "stateMutability": "nonpayable",
      "type": "function"
    },
    {
      "inputs": [
        {
          "internalType": "uint256",
          "name": "_badgeTokenId",
          "type": "uint256"
        },
        {
          "internalType": "uint256",
          "name": "_raftTokenId",
          "type": "uint256"
        }
      ],
      "name": "setBadgeToRaft",
      "outputs": [],
      "stateMutability": "nonpayable",
      "type": "function"
    },
    {
      "inputs": [
        {
          "internalType": "address",
          "name": "_badgesAddress",
          "type": "address"
        }
      ],
      "name": "setBadgesAddress",
      "outputs": [],
      "stateMutability": "nonpayable",
      "type": "function"
    },
    {
      "inputs": [
        {
          "internalType": "address",
          "name": "_raftAddress",
          "type": "address"
        }
      ],
      "name": "setRaftAddress",
      "outputs": [],
      "stateMutability": "nonpayable",
      "type": "function"
    },
    {
      "inputs": [
        {
          "internalType": "string",
          "name": "_specUri",
          "type": "string"
        },
        {
          "internalType": "uint256",
          "name": "_raftTokenId",
          "type": "uint256"
        }
      ],
      "name": "setSpecToRaft",
      "outputs": [],
      "stateMutability": "nonpayable",
      "type": "function"
    },
    {
      "inputs": [
        {
          "internalType": "address",
          "name": "newOwner",
          "type": "address"
        }
      ],
      "name": "transferOwnership",
      "outputs": [],
      "stateMutability": "nonpayable",
      "type": "function"
    },
    {
      "inputs": [
        {
          "internalType": "address",
          "name": "newImplementation",
          "type": "address"
        }
      ],
      "name": "upgradeTo",
      "outputs": [],
      "stateMutability": "nonpayable",
      "type": "function"
    },
    {
      "inputs": [
        {
          "internalType": "address",
          "name": "newImplementation",
          "type": "address"
        },
        {
          "internalType": "bytes",
          "name": "data",
          "type": "bytes"
        }
      ],
      "name": "upgradeToAndCall",
      "outputs": [],
      "stateMutability": "payable",
      "type": "function"
    }
  ],
  "bytecode": {
    "object": "0x60a06040523060805234801561001457600080fd5b5061001d610022565b6100e2565b600054610100900460ff161561008e5760405162461bcd60e51b815260206004820152602760248201527f496e697469616c697a61626c653a20636f6e747261637420697320696e697469604482015266616c697a696e6760c81b606482015260840160405180910390fd5b60005460ff90811610156100e0576000805460ff191660ff9081179091556040519081527f7f26b83ff96e1f2b6a682f133852f6798a09c465da95921460cefb38474024989060200160405180910390a15b565b608051611359610119600039600081816103120152818161035b01528181610564015281816105a4015261063701526113596000f3fe6080604052600436106100f35760003560e01c80638da5cb5b1161008a578063e3ee9c4d11610059578063e3ee9c4d14610278578063f2fde38b146102a8578063fb749261146102c8578063fc0e204e146102e857600080fd5b80638da5cb5b146101fa578063addd190714610218578063bce6c02514610238578063d5be4eb01461025857600080fd5b8063485cc955116100c6578063485cc9551461019d5780634f1ef286146101bd57806352d1902d146101d0578063715018a6146101e557600080fd5b806334f87662146100f85780633659cfe61461012f5780633664a8e914610151578063407103981461017f575b600080fd5b34801561010457600080fd5b5060cc546001600160a01b03165b6040516001600160a01b0390911681526020015b60405180910390f35b34801561013b57600080fd5b5061014f61014a366004610ed0565b610308565b005b34801561015d57600080fd5b5061017161016c366004610f36565b6103f0565b604051908152602001610126565b34801561018b57600080fd5b5060cb546001600160a01b0316610112565b3480156101a957600080fd5b5061014f6101b8366004610f78565b61041b565b61014f6101cb366004610fc7565b61055a565b3480156101dc57600080fd5b5061017161062a565b3480156101f157600080fd5b5061014f6106dd565b34801561020657600080fd5b506097546001600160a01b0316610112565b34801561022457600080fd5b5061014f61023336600461108b565b6106f1565b34801561024457600080fd5b5061014f610253366004610ed0565b610773565b34801561026457600080fd5b5061014f610273366004610ed0565b61079d565b34801561028457600080fd5b506102986102933660046110d7565b6107c7565b6040519015158152602001610126565b3480156102b457600080fd5b5061014f6102c3366004610ed0565b6108d0565b3480156102d457600080fd5b5061014f6102e33660046110fc565b610946565b3480156102f457600080fd5b50610298610303366004610f36565b6109b2565b6001600160a01b037f00000000000000000000000000000000000000000000000000000000000000001630036103595760405162461bcd60e51b81526004016103509061111e565b60405180910390fd5b7f00000000000000000000000000000000000000000000000000000000000000006001600160a01b03166103a26000805160206112dd833981519152546001600160a01b031690565b6001600160a01b0316146103c85760405162461bcd60e51b81526004016103509061116a565b6103d1816109df565b604080516000808252602082019092526103ed918391906109e7565b50565b600060c983836040516104049291906111b6565b908152602001604051809103902054905092915050565b600054610100900460ff161580801561043b5750600054600160ff909116105b806104555750303b158015610455575060005460ff166001145b6104b85760405162461bcd60e51b815260206004820152602e60248201527f496e697469616c697a61626c653a20636f6e747261637420697320616c72656160448201526d191e481a5b9a5d1a585b1a5e995960921b6064820152608401610350565b6000805460ff1916600117905580156104db576000805461ff0019166101001790555b6104e3610b52565b60cc80546001600160a01b0319166001600160a01b038516179055610507826108d0565b61050f610b81565b8015610555576000805461ff0019169055604051600181527f7f26b83ff96e1f2b6a682f133852f6798a09c465da95921460cefb38474024989060200160405180910390a15b505050565b6001600160a01b037f00000000000000000000000000000000000000000000000000000000000000001630036105a25760405162461bcd60e51b81526004016103509061111e565b7f00000000000000000000000000000000000000000000000000000000000000006001600160a01b03166105eb6000805160206112dd833981519152546001600160a01b031690565b6001600160a01b0316146106115760405162461bcd60e51b81526004016103509061116a565b61061a826109df565b610626828260016109e7565b5050565b6000306001600160a01b037f000000000000000000000000000000000000000000000000000000000000000016146106ca5760405162461bcd60e51b815260206004820152603860248201527f555550535570677261646561626c653a206d757374206e6f742062652063616c60448201527f6c6564207468726f7567682064656c656761746563616c6c00000000000000006064820152608401610350565b506000805160206112dd83398151915290565b6106e5610ba8565b6106ef6000610c02565b565b60cb546001600160a01b0316331461074b5760405162461bcd60e51b815260206004820181905260248201527f6f6e6c79426164676573436f6e74726163743a20756e617574686f72697a65646044820152606401610350565b8060c9848460405161075e9291906111b6565b90815260405190819003602001902055505050565b61077b610ba8565b60cb80546001600160a01b0319166001600160a01b0392909216919091179055565b6107a5610ba8565b60cc80546001600160a01b0319166001600160a01b0392909216919091179055565b60cc546040516331a9108f60e11b8152600481018490526000916001600160a01b03169082908290636352211e90602401602060405180830381865afa158015610815573d6000803e3d6000fd5b505050506040513d601f19601f8201168201806040525081019061083991906111c6565b9050836001600160a01b0316816001600160a01b031614806108c757506040516370307dbb60e11b8152600481018690526001600160a01b03858116602483015283169063e060fb7690604401602060405180830381865afa1580156108a3573d6000803e3d6000fd5b505050506040513d601f19601f820116820180604052508101906108c791906111e3565b95945050505050565b6108d8610ba8565b6001600160a01b03811661093d5760405162461bcd60e51b815260206004820152602660248201527f4f776e61626c653a206e6577206f776e657220697320746865207a65726f206160448201526564647265737360d01b6064820152608401610350565b6103ed81610c02565b60cb546001600160a01b031633146109a05760405162461bcd60e51b815260206004820181905260248201527f6f6e6c79426164676573436f6e74726163743a20756e617574686f72697a65646044820152606401610350565b600091825260ca602052604090912055565b600060c983836040516109c69291906111b6565b9081526040519081900360200190205415159392505050565b6103ed610ba8565b7f4910fdfa16fed3260ed0e7147f7cc6da11a60208b5b9406d12a635614ffd91435460ff1615610a1a5761055583610c54565b826001600160a01b03166352d1902d6040518163ffffffff1660e01b8152600401602060405180830381865afa925050508015610a74575060408051601f3d908101601f19168201909252610a7191810190611205565b60015b610ad75760405162461bcd60e51b815260206004820152602e60248201527f45524331393637557067726164653a206e657720696d706c656d656e7461746960448201526d6f6e206973206e6f74205555505360901b6064820152608401610350565b6000805160206112dd8339815191528114610b465760405162461bcd60e51b815260206004820152602960248201527f45524331393637557067726164653a20756e737570706f727465642070726f786044820152681a58589b195555525160ba1b6064820152608401610350565b50610555838383610cf0565b600054610100900460ff16610b795760405162461bcd60e51b81526004016103509061121e565b6106ef610d1b565b600054610100900460ff166106ef5760405162461bcd60e51b81526004016103509061121e565b6097546001600160a01b031633146106ef5760405162461bcd60e51b815260206004820181905260248201527f4f776e61626c653a2063616c6c6572206973206e6f7420746865206f776e65726044820152606401610350565b609780546001600160a01b038381166001600160a01b0319831681179093556040519116919082907f8be0079c531659141344cd1fd0a4f28419497f9722a3daafe3b4186f6b6457e090600090a35050565b6001600160a01b0381163b610cc15760405162461bcd60e51b815260206004820152602d60248201527f455243313936373a206e657720696d706c656d656e746174696f6e206973206e60448201526c1bdd08184818dbdb9d1c9858dd609a1b6064820152608401610350565b6000805160206112dd83398151915280546001600160a01b0319166001600160a01b0392909216919091179055565b610cf983610d4b565b600082511180610d065750805b1561055557610d158383610d8b565b50505050565b600054610100900460ff16610d425760405162461bcd60e51b81526004016103509061121e565b6106ef33610c02565b610d5481610c54565b6040516001600160a01b038216907fbc7cd75a20ee27fd9adebab32041f755214dbc6bffa90cc0225b39da2e5c2d3b90600090a250565b60606001600160a01b0383163b610df35760405162461bcd60e51b815260206004820152602660248201527f416464726573733a2064656c65676174652063616c6c20746f206e6f6e2d636f6044820152651b9d1c9858dd60d21b6064820152608401610350565b600080846001600160a01b031684604051610e0e919061128d565b600060405180830381855af49150503d8060008114610e49576040519150601f19603f3d011682016040523d82523d6000602084013e610e4e565b606091505b50915091506108c782826040518060600160405280602781526020016112fd6027913960608315610e80575081610e8a565b610e8a8383610e91565b9392505050565b815115610ea15781518083602001fd5b8060405162461bcd60e51b815260040161035091906112a9565b6001600160a01b03811681146103ed57600080fd5b600060208284031215610ee257600080fd5b8135610e8a81610ebb565b60008083601f840112610eff57600080fd5b50813567ffffffffffffffff811115610f1757600080fd5b602083019150836020828501011115610f2f57600080fd5b9250929050565b60008060208385031215610f4957600080fd5b823567ffffffffffffffff811115610f6057600080fd5b610f6c85828601610eed565b90969095509350505050565b60008060408385031215610f8b57600080fd5b8235610f9681610ebb565b91506020830135610fa681610ebb565b809150509250929050565b634e487b7160e01b600052604160045260246000fd5b60008060408385031215610fda57600080fd5b8235610fe581610ebb565b9150602083013567ffffffffffffffff8082111561100257600080fd5b818501915085601f83011261101657600080fd5b81358181111561102857611028610fb1565b604051601f8201601f19908116603f0116810190838211818310171561105057611050610fb1565b8160405282815288602084870101111561106957600080fd5b8260208601602083013760006020848301015280955050505050509250929050565b6000806000604084860312156110a057600080fd5b833567ffffffffffffffff8111156110b757600080fd5b6110c386828701610eed565b909790965060209590950135949350505050565b600080604083850312156110ea57600080fd5b823591506020830135610fa681610ebb565b6000806040838503121561110f57600080fd5b50508035926020909101359150565b6020808252602c908201527f46756e6374696f6e206d7573742062652063616c6c6564207468726f7567682060408201526b19195b1959d85d1958d85b1b60a21b606082015260800190565b6020808252602c908201527f46756e6374696f6e206d7573742062652063616c6c6564207468726f7567682060408201526b6163746976652070726f787960a01b606082015260800190565b8183823760009101908152919050565b6000602082840312156111d857600080fd5b8151610e8a81610ebb565b6000602082840312156111f557600080fd5b81518015158114610e8a57600080fd5b60006020828403121561121757600080fd5b5051919050565b6020808252602b908201527f496e697469616c697a61626c653a20636f6e7472616374206973206e6f74206960408201526a6e697469616c697a696e6760a81b606082015260800190565b60005b8381101561128457818101518382015260200161126c565b50506000910152565b6000825161129f818460208701611269565b9190910192915050565b60208152600082518060208401526112c8816040850160208701611269565b601f01601f1916919091016040019291505056fe360894a13ba1a3210667c828492db98dca3e2076cc3735a920a3ca505d382bbc416464726573733a206c6f772d6c6576656c2064656c65676174652063616c6c206661696c6564a26469706673582212208688a8e63998d06eeccd174bbd82bd46df09280329c0bb23cfe923e1d93643d164736f6c63430008100033",
    "linkReferences": {}
  },
  "methodIdentifiers": {
    "getBadgesAddress()": "40710398",
    "getRaftAddress()": "34f87662",
    "getRaftTokenId(string)": "3664a8e9",
    "initialize(address,address)": "485cc955",
    "isAuthorizedAdmin(uint256,address)": "e3ee9c4d",
    "isSpecRegistered(string)": "fc0e204e",
    "owner()": "8da5cb5b",
    "proxiableUUID()": "52d1902d",
    "renounceOwnership()": "715018a6",
    "setBadgeToRaft(uint256,uint256)": "fb749261",
    "setBadgesAddress(address)": "bce6c025",
    "setRaftAddress(address)": "d5be4eb0",
    "setSpecToRaft(string,uint256)": "addd1907",
    "transferOwnership(address)": "f2fde38b",
    "upgradeTo(address)": "3659cfe6",
    "upgradeToAndCall(address,bytes)": "4f1ef286"
  },
  "id": 50
}