{
  "abi": [
    {
      "inputs": [],
      "stateMutability": "nonpayable",
      "type": "constructor"
    },
    {
      "anonymous": false,
      "inputs": [
        {
          "indexed": false,
          "internalType": "address",
          "name": "previousAdmin",
          "type": "address"
        },
        {
          "indexed": false,
          "internalType": "address",
          "name": "newAdmin",
          "type": "address"
        }
      ],
      "name": "AdminChanged",
      "type": "event"
    },
    {
      "anonymous": false,
      "inputs": [
        {
          "indexed": true,
          "internalType": "address",
          "name": "beacon",
          "type": "address"
        }
      ],
      "name": "BeaconUpgraded",
      "type": "event"
    },
    {
      "anonymous": false,
      "inputs": [
        {
          "indexed": false,
          "internalType": "uint8",
          "name": "version",
          "type": "uint8"
        }
      ],
      "name": "Initialized",
      "type": "event"
    },
    {
      "anonymous": false,
      "inputs": [
        {
          "indexed": true,
          "internalType": "address",
          "name": "previousOwner",
          "type": "address"
        },
        {
          "indexed": true,
          "internalType": "address",
          "name": "newOwner",
          "type": "address"
        }
      ],
      "name": "OwnershipTransferred",
      "type": "event"
    },
    {
      "anonymous": false,
      "inputs": [
        {
          "indexed": true,
          "internalType": "address",
          "name": "implementation",
          "type": "address"
        }
      ],
      "name": "Upgraded",
      "type": "event"
    },
    {
      "inputs": [],
      "name": "getBadgesAddress",
      "outputs": [
        {
          "internalType": "address",
          "name": "",
          "type": "address"
        }
      ],
      "stateMutability": "view",
      "type": "function"
    },
    {
      "inputs": [],
      "name": "getRaftAddress",
      "outputs": [
        {
          "internalType": "address",
          "name": "",
          "type": "address"
        }
      ],
      "stateMutability": "view",
      "type": "function"
    },
    {
      "inputs": [
        {
          "internalType": "uint256",
          "name": "_raftTokenId",
          "type": "uint256"
        }
      ],
      "name": "getRaftOwner",
      "outputs": [
        {
          "internalType": "address",
          "name": "",
          "type": "address"
        }
      ],
      "stateMutability": "view",
      "type": "function"
    },
    {
      "inputs": [
        {
          "internalType": "string",
          "name": "_specUri",
          "type": "string"
        }
      ],
      "name": "getRaftTokenId",
      "outputs": [
        {
          "internalType": "uint256",
          "name": "",
          "type": "uint256"
        }
      ],
      "stateMutability": "view",
      "type": "function"
    },
    {
      "inputs": [
        {
          "internalType": "address",
          "name": "_raftAddress",
          "type": "address"
        },
        {
          "internalType": "address",
          "name": "_nextOwner",
          "type": "address"
        }
      ],
      "name": "initialize",
      "outputs": [],
      "stateMutability": "nonpayable",
      "type": "function"
    },
    {
      "inputs": [
        {
          "internalType": "uint256",
          "name": "_raftTokenId",
          "type": "uint256"
        },
        {
          "internalType": "address",
          "name": "_admin",
          "type": "address"
        }
      ],
      "name": "isAuthorizedAdmin",
      "outputs": [
        {
          "internalType": "bool",
          "name": "",
          "type": "bool"
        }
      ],
      "stateMutability": "view",
      "type": "function"
    },
    {
      "inputs": [
        {
          "internalType": "string",
          "name": "_specUri",
          "type": "string"
        }
      ],
      "name": "isSpecRegistered",
      "outputs": [
        {
          "internalType": "bool",
          "name": "",
          "type": "bool"
        }
      ],
      "stateMutability": "view",
      "type": "function"
    },
    {
      "inputs": [],
      "name": "owner",
      "outputs": [
        {
          "internalType": "address",
          "name": "",
          "type": "address"
        }
      ],
      "stateMutability": "view",
      "type": "function"
    },
    {
      "inputs": [],
      "name": "proxiableUUID",
      "outputs": [
        {
          "internalType": "bytes32",
          "name": "",
          "type": "bytes32"
        }
      ],
      "stateMutability": "view",
      "type": "function"
    },
    {
      "inputs": [],
      "name": "renounceOwnership",
      "outputs": [],
      "stateMutability": "nonpayable",
      "type": "function"
    },
    {
      "inputs": [
        {
          "internalType": "uint256",
          "name": "_badgeTokenId",
          "type": "uint256"
        },
        {
          "internalType": "uint256",
          "name": "_raftTokenId",
          "type": "uint256"
        }
      ],
      "name": "setBadgeToRaft",
      "outputs": [],
      "stateMutability": "nonpayable",
      "type": "function"
    },
    {
      "inputs": [
        {
          "internalType": "address",
          "name": "_badgesAddress",
          "type": "address"
        }
      ],
      "name": "setBadgesAddress",
      "outputs": [],
      "stateMutability": "nonpayable",
      "type": "function"
    },
    {
      "inputs": [
        {
          "internalType": "address",
          "name": "_raftAddress",
          "type": "address"
        }
      ],
      "name": "setRaftAddress",
      "outputs": [],
      "stateMutability": "nonpayable",
      "type": "function"
    },
    {
      "inputs": [
        {
          "internalType": "string",
          "name": "_specUri",
          "type": "string"
        },
        {
          "internalType": "uint256",
          "name": "_raftTokenId",
          "type": "uint256"
        }
      ],
      "name": "setSpecToRaft",
      "outputs": [],
      "stateMutability": "nonpayable",
      "type": "function"
    },
    {
      "inputs": [
        {
          "internalType": "address",
          "name": "newOwner",
          "type": "address"
        }
      ],
      "name": "transferOwnership",
      "outputs": [],
      "stateMutability": "nonpayable",
      "type": "function"
    },
    {
      "inputs": [
        {
          "internalType": "address",
          "name": "newImplementation",
          "type": "address"
        }
      ],
      "name": "upgradeTo",
      "outputs": [],
      "stateMutability": "nonpayable",
      "type": "function"
    },
    {
      "inputs": [
        {
          "internalType": "address",
          "name": "newImplementation",
          "type": "address"
        },
        {
          "internalType": "bytes",
          "name": "data",
          "type": "bytes"
        }
      ],
      "name": "upgradeToAndCall",
      "outputs": [],
      "stateMutability": "payable",
      "type": "function"
    }
  ],
  "bytecode": {
    "object": "0x60a06040523060805234801561001457600080fd5b5061001d610022565b6100e2565b600054610100900460ff161561008e5760405162461bcd60e51b815260206004820152602760248201527f496e697469616c697a61626c653a20636f6e747261637420697320696e697469604482015266616c697a696e6760c81b606482015260840160405180910390fd5b60005460ff90811610156100e0576000805460ff191660ff9081179091556040519081527f7f26b83ff96e1f2b6a682f133852f6798a09c465da95921460cefb38474024989060200160405180910390a15b565b6080516114086101196000396000818161033d015281816103860152818161058f015281816105cf015261066201526114086000f3fe6080604052600436106100fe5760003560e01c80638da5cb5b11610095578063d5be4eb011610064578063d5be4eb014610283578063e3ee9c4d146102a3578063f2fde38b146102d3578063fb749261146102f3578063fc0e204e1461031357600080fd5b80638da5cb5b14610205578063addd190714610223578063b2a0cb6b14610243578063bce6c0251461026357600080fd5b8063485cc955116100d1578063485cc955146101a85780634f1ef286146101c857806352d1902d146101db578063715018a6146101f057600080fd5b806334f87662146101035780633659cfe61461013a5780633664a8e91461015c578063407103981461018a575b600080fd5b34801561010f57600080fd5b5060cc546001600160a01b03165b6040516001600160a01b0390911681526020015b60405180910390f35b34801561014657600080fd5b5061015a610155366004610f66565b610333565b005b34801561016857600080fd5b5061017c610177366004610fcc565b61041b565b604051908152602001610131565b34801561019657600080fd5b5060cb546001600160a01b031661011d565b3480156101b457600080fd5b5061015a6101c336600461100e565b610446565b61015a6101d636600461105d565b610585565b3480156101e757600080fd5b5061017c610655565b3480156101fc57600080fd5b5061015a610708565b34801561021157600080fd5b506097546001600160a01b031661011d565b34801561022f57600080fd5b5061015a61023e366004611121565b61071c565b34801561024f57600080fd5b5061011d61025e36600461116d565b61079e565b34801561026f57600080fd5b5061015a61027e366004610f66565b610815565b34801561028f57600080fd5b5061015a61029e366004610f66565b61083f565b3480156102af57600080fd5b506102c36102be366004611186565b610869565b6040519015158152602001610131565b3480156102df57600080fd5b5061015a6102ee366004610f66565b610972565b3480156102ff57600080fd5b5061015a61030e3660046111ab565b6109e8565b34801561031f57600080fd5b506102c361032e366004610fcc565b610a54565b6001600160a01b037f00000000000000000000000000000000000000000000000000000000000000001630036103845760405162461bcd60e51b815260040161037b906111cd565b60405180910390fd5b7f00000000000000000000000000000000000000000000000000000000000000006001600160a01b03166103cd60008051602061138c833981519152546001600160a01b031690565b6001600160a01b0316146103f35760405162461bcd60e51b815260040161037b90611219565b6103fc81610a81565b6040805160008082526020820190925261041891839190610a89565b50565b600060c9838360405161042f929190611265565b908152602001604051809103902054905092915050565b600054610100900460ff16158080156104665750600054600160ff909116105b806104805750303b158015610480575060005460ff166001145b6104e35760405162461bcd60e51b815260206004820152602e60248201527f496e697469616c697a61626c653a20636f6e747261637420697320616c72656160448201526d191e481a5b9a5d1a585b1a5e995960921b606482015260840161037b565b6000805460ff191660011790558015610506576000805461ff0019166101001790555b61050e610bf4565b60cc80546001600160a01b0319166001600160a01b03851617905561053282610972565b61053a610c23565b8015610580576000805461ff0019169055604051600181527f7f26b83ff96e1f2b6a682f133852f6798a09c465da95921460cefb38474024989060200160405180910390a15b505050565b6001600160a01b037f00000000000000000000000000000000000000000000000000000000000000001630036105cd5760405162461bcd60e51b815260040161037b906111cd565b7f00000000000000000000000000000000000000000000000000000000000000006001600160a01b031661061660008051602061138c833981519152546001600160a01b031690565b6001600160a01b03161461063c5760405162461bcd60e51b815260040161037b90611219565b61064582610a81565b61065182826001610a89565b5050565b6000306001600160a01b037f000000000000000000000000000000000000000000000000000000000000000016146106f55760405162461bcd60e51b815260206004820152603860248201527f555550535570677261646561626c653a206d757374206e6f742062652063616c60448201527f6c6564207468726f7567682064656c656761746563616c6c0000000000000000606482015260840161037b565b5060008051602061138c83398151915290565b610710610c4a565b61071a6000610ca4565b565b60cb546001600160a01b031633146107765760405162461bcd60e51b815260206004820181905260248201527f6f6e6c79426164676573436f6e74726163743a20756e617574686f72697a6564604482015260640161037b565b8060c98484604051610789929190611265565b90815260405190819003602001902055505050565b60cc546040516331a9108f60e11b8152600481018390526000916001600160a01b0316908190636352211e90602401602060405180830381865afa1580156107ea573d6000803e3d6000fd5b505050506040513d601f19601f8201168201806040525081019061080e9190611275565b9392505050565b61081d610c4a565b60cb80546001600160a01b0319166001600160a01b0392909216919091179055565b610847610c4a565b60cc80546001600160a01b0319166001600160a01b0392909216919091179055565b60cc546040516331a9108f60e11b8152600481018490526000916001600160a01b03169082908290636352211e90602401602060405180830381865afa1580156108b7573d6000803e3d6000fd5b505050506040513d601f19601f820116820180604052508101906108db9190611275565b9050836001600160a01b0316816001600160a01b0316148061096957506040516370307dbb60e11b8152600481018690526001600160a01b03858116602483015283169063e060fb7690604401602060405180830381865afa158015610945573d6000803e3d6000fd5b505050506040513d601f19601f820116820180604052508101906109699190611292565b95945050505050565b61097a610c4a565b6001600160a01b0381166109df5760405162461bcd60e51b815260206004820152602660248201527f4f776e61626c653a206e6577206f776e657220697320746865207a65726f206160448201526564647265737360d01b606482015260840161037b565b61041881610ca4565b60cb546001600160a01b03163314610a425760405162461bcd60e51b815260206004820181905260248201527f6f6e6c79426164676573436f6e74726163743a20756e617574686f72697a6564604482015260640161037b565b600091825260ca602052604090912055565b600060c98383604051610a68929190611265565b9081526040519081900360200190205415159392505050565b610418610c4a565b7f4910fdfa16fed3260ed0e7147f7cc6da11a60208b5b9406d12a635614ffd91435460ff1615610abc5761058083610cf6565b826001600160a01b03166352d1902d6040518163ffffffff1660e01b8152600401602060405180830381865afa925050508015610b16575060408051601f3d908101601f19168201909252610b13918101906112b4565b60015b610b795760405162461bcd60e51b815260206004820152602e60248201527f45524331393637557067726164653a206e657720696d706c656d656e7461746960448201526d6f6e206973206e6f74205555505360901b606482015260840161037b565b60008051602061138c8339815191528114610be85760405162461bcd60e51b815260206004820152602960248201527f45524331393637557067726164653a20756e737570706f727465642070726f786044820152681a58589b195555525160ba1b606482015260840161037b565b50610580838383610d92565b600054610100900460ff16610c1b5760405162461bcd60e51b815260040161037b906112cd565b61071a610dbd565b600054610100900460ff1661071a5760405162461bcd60e51b815260040161037b906112cd565b6097546001600160a01b0316331461071a5760405162461bcd60e51b815260206004820181905260248201527f4f776e61626c653a2063616c6c6572206973206e6f7420746865206f776e6572604482015260640161037b565b609780546001600160a01b038381166001600160a01b0319831681179093556040519116919082907f8be0079c531659141344cd1fd0a4f28419497f9722a3daafe3b4186f6b6457e090600090a35050565b6001600160a01b0381163b610d635760405162461bcd60e51b815260206004820152602d60248201527f455243313936373a206e657720696d706c656d656e746174696f6e206973206e60448201526c1bdd08184818dbdb9d1c9858dd609a1b606482015260840161037b565b60008051602061138c83398151915280546001600160a01b0319166001600160a01b0392909216919091179055565b610d9b83610ded565b600082511180610da85750805b1561058057610db78383610e2d565b50505050565b600054610100900460ff16610de45760405162461bcd60e51b815260040161037b906112cd565b61071a33610ca4565b610df681610cf6565b6040516001600160a01b038216907fbc7cd75a20ee27fd9adebab32041f755214dbc6bffa90cc0225b39da2e5c2d3b90600090a250565b60606001600160a01b0383163b610e955760405162461bcd60e51b815260206004820152602660248201527f416464726573733a2064656c65676174652063616c6c20746f206e6f6e2d636f6044820152651b9d1c9858dd60d21b606482015260840161037b565b600080846001600160a01b031684604051610eb0919061133c565b600060405180830381855af49150503d8060008114610eeb576040519150601f19603f3d011682016040523d82523d6000602084013e610ef0565b606091505b509150915061096982826040518060600160405280602781526020016113ac6027913960608315610f2257508161080e565b61080e8383815115610f375781518083602001fd5b8060405162461bcd60e51b815260040161037b9190611358565b6001600160a01b038116811461041857600080fd5b600060208284031215610f7857600080fd5b813561080e81610f51565b60008083601f840112610f9557600080fd5b50813567ffffffffffffffff811115610fad57600080fd5b602083019150836020828501011115610fc557600080fd5b9250929050565b60008060208385031215610fdf57600080fd5b823567ffffffffffffffff811115610ff657600080fd5b61100285828601610f83565b90969095509350505050565b6000806040838503121561102157600080fd5b823561102c81610f51565b9150602083013561103c81610f51565b809150509250929050565b634e487b7160e01b600052604160045260246000fd5b6000806040838503121561107057600080fd5b823561107b81610f51565b9150602083013567ffffffffffffffff8082111561109857600080fd5b818501915085601f8301126110ac57600080fd5b8135818111156110be576110be611047565b604051601f8201601f19908116603f011681019083821181831017156110e6576110e6611047565b816040528281528860208487010111156110ff57600080fd5b8260208601602083013760006020848301015280955050505050509250929050565b60008060006040848603121561113657600080fd5b833567ffffffffffffffff81111561114d57600080fd5b61115986828701610f83565b909790965060209590950135949350505050565b60006020828403121561117f57600080fd5b5035919050565b6000806040838503121561119957600080fd5b82359150602083013561103c81610f51565b600080604083850312156111be57600080fd5b50508035926020909101359150565b6020808252602c908201527f46756e6374696f6e206d7573742062652063616c6c6564207468726f7567682060408201526b19195b1959d85d1958d85b1b60a21b606082015260800190565b6020808252602c908201527f46756e6374696f6e206d7573742062652063616c6c6564207468726f7567682060408201526b6163746976652070726f787960a01b606082015260800190565b8183823760009101908152919050565b60006020828403121561128757600080fd5b815161080e81610f51565b6000602082840312156112a457600080fd5b8151801515811461080e57600080fd5b6000602082840312156112c657600080fd5b5051919050565b6020808252602b908201527f496e697469616c697a61626c653a20636f6e7472616374206973206e6f74206960408201526a6e697469616c697a696e6760a81b606082015260800190565b60005b8381101561133357818101518382015260200161131b565b50506000910152565b6000825161134e818460208701611318565b9190910192915050565b6020815260008251806020840152611377816040850160208701611318565b601f01601f1916919091016040019291505056fe360894a13ba1a3210667c828492db98dca3e2076cc3735a920a3ca505d382bbc416464726573733a206c6f772d6c6576656c2064656c65676174652063616c6c206661696c6564a2646970667358221220dc2cb82ff46e003012123f0cd6e1137fa5411ffee49ebd297a448b9213723b3064736f6c63430008100033",
    "linkReferences": {}
  },
  "methodIdentifiers": {
    "getBadgesAddress()": "40710398",
    "getRaftAddress()": "34f87662",
    "getRaftOwner(uint256)": "b2a0cb6b",
    "getRaftTokenId(string)": "3664a8e9",
    "initialize(address,address)": "485cc955",
    "isAuthorizedAdmin(uint256,address)": "e3ee9c4d",
    "isSpecRegistered(string)": "fc0e204e",
    "owner()": "8da5cb5b",
    "proxiableUUID()": "52d1902d",
    "renounceOwnership()": "715018a6",
    "setBadgeToRaft(uint256,uint256)": "fb749261",
    "setBadgesAddress(address)": "bce6c025",
    "setRaftAddress(address)": "d5be4eb0",
    "setSpecToRaft(string,uint256)": "addd1907",
    "transferOwnership(address)": "f2fde38b",
    "upgradeTo(address)": "3659cfe6",
    "upgradeToAndCall(address,bytes)": "4f1ef286"
  },
  "id": 50
}