{
  "abi": [
    {
      "inputs": [
        {
          "internalType": "address",
          "name": "badgesAddress",
          "type": "address"
        }
      ],
      "stateMutability": "nonpayable",
      "type": "constructor"
    },
    {
      "inputs": [
        {
          "internalType": "address",
          "name": "fromAddress",
          "type": "address"
        },
        {
          "internalType": "string",
          "name": "tokenURI",
          "type": "string"
        },
        {
          "internalType": "uint8",
          "name": "v",
          "type": "uint8"
        },
        {
          "internalType": "bytes32",
          "name": "r",
          "type": "bytes32"
        },
        {
          "internalType": "bytes32",
          "name": "s",
          "type": "bytes32"
        }
      ],
      "name": "claimBadge",
      "outputs": [
        {
          "internalType": "uint256",
          "name": "",
          "type": "uint256"
        }
      ],
      "stateMutability": "nonpayable",
      "type": "function"
    }
  ],
  "bytecode": {
    "object": "0x608060405234801561001057600080fd5b5060405161035038038061035083398101604081905261002f91610054565b600080546001600160a01b0319166001600160a01b0392909216919091179055610084565b60006020828403121561006657600080fd5b81516001600160a01b038116811461007d57600080fd5b9392505050565b6102bd806100936000396000f3fe608060405234801561001057600080fd5b506004361061002b5760003560e01c8063a938b7ba14610030575b600080fd5b61004361003e36600461012a565b610055565b60405190815260200160405180910390f35b604080516020810184905280820183905260f885901b6001600160f81b0319166060820152815160418183030181526061820192839052600080546323eb070760e21b90945292909183916001600160a01b031690638fac1c1c906100c4908c908c908c9088906065016101de565b6020604051808303816000875af11580156100e3573d6000803e3d6000fd5b505050506040513d601f19601f82011682018060405250810190610107919061026e565b9998505050505050505050565b803560ff8116811461012557600080fd5b919050565b60008060008060008060a0878903121561014357600080fd5b86356001600160a01b038116811461015a57600080fd5b9550602087013567ffffffffffffffff8082111561017757600080fd5b818901915089601f83011261018b57600080fd5b81358181111561019a57600080fd5b8a60208285010111156101ac57600080fd5b6020830197508096505050506101c460408801610114565b925060608701359150608087013590509295509295509295565b60018060a01b03851681526000602060608184015284606084015284866080850137600060808685010152601f1980601f87011684016080858203016040860152855180608083015260005b818110156102465787810185015183820160a00152840161022a565b8181111561025857600060a083850101525b50601f019091160160a001979650505050505050565b60006020828403121561028057600080fd5b505191905056fea264697066735822122086d34b8518d7c0681ddd3ff964335281dc2a14574e54f5d7a3bd06aedd60ee3264736f6c634300080a0033",
    "linkReferences": {}
  },
  "methodIdentifiers": {
    "claimBadge(address,string,uint8,bytes32,bytes32)": "a938b7ba"
  },
  "id": 20
}