{
  "abi": [
    {
      "inputs": [
        {
          "internalType": "address",
          "name": "rompTokenAddress",
          "type": "address"
        },
        {
          "internalType": "address",
          "name": "badgesAddress",
          "type": "address"
        }
      ],
      "stateMutability": "nonpayable",
      "type": "constructor"
    },
    {
      "anonymous": false,
      "inputs": [
        {
          "indexed": true,
          "internalType": "address",
          "name": "owner",
          "type": "address"
        },
        {
          "indexed": true,
          "internalType": "uint256",
          "name": "tokenId",
          "type": "uint256"
        },
        {
          "indexed": false,
          "internalType": "string",
          "name": "tokenURI",
          "type": "string"
        }
      ],
      "name": "BadgeMinted",
      "type": "event"
    },
    {
      "anonymous": false,
      "inputs": [
        {
          "indexed": true,
          "internalType": "uint256",
          "name": "rompTokenId",
          "type": "uint256"
        },
        {
          "indexed": false,
          "internalType": "address",
          "name": "owner",
          "type": "address"
        },
        {
          "indexed": false,
          "internalType": "string",
          "name": "tokenURI",
          "type": "string"
        }
      ],
      "name": "BadgeSpecCreated",
      "type": "event"
    },
    {
      "inputs": [
        {
          "internalType": "address",
          "name": "fromAddress",
          "type": "address"
        },
        {
          "internalType": "string",
          "name": "tokenURI",
          "type": "string"
        },
        {
          "internalType": "uint8",
          "name": "v",
          "type": "uint8"
        },
        {
          "internalType": "bytes32",
          "name": "r",
          "type": "bytes32"
        },
        {
          "internalType": "bytes32",
          "name": "s",
          "type": "bytes32"
        }
      ],
      "name": "claimBadge",
      "outputs": [
        {
          "internalType": "uint256",
          "name": "",
          "type": "uint256"
        }
      ],
      "stateMutability": "nonpayable",
      "type": "function"
    },
    {
      "inputs": [
        {
          "internalType": "uint256",
          "name": "tokenId",
          "type": "uint256"
        },
        {
          "internalType": "string",
          "name": "tokenURI",
          "type": "string"
        }
      ],
      "name": "createBadgeSpec",
      "outputs": [],
      "stateMutability": "nonpayable",
      "type": "function"
    },
    {
      "inputs": [
        {
          "internalType": "string",
          "name": "tokenUri",
          "type": "string"
        }
      ],
      "name": "ownerOfSpec",
      "outputs": [
        {
          "internalType": "uint256",
          "name": "",
          "type": "uint256"
        }
      ],
      "stateMutability": "view",
      "type": "function"
    }
  ],
  "bytecode": {
    "object": "0x608060405234801561001057600080fd5b5060405161070438038061070483398101604081905261002f9161007c565b600180546001600160a01b039384166001600160a01b031991821617909155600280549290931691161790556100af565b80516001600160a01b038116811461007757600080fd5b919050565b6000806040838503121561008f57600080fd5b61009883610060565b91506100a660208401610060565b90509250929050565b610646806100be6000396000f3fe608060405234801561001057600080fd5b50600436106100415760003560e01c8063a3e4343014610046578063a938b7ba1461005b578063db9cd4ba14610080575b600080fd5b6100596100543660046103b4565b610093565b005b61006e610069366004610418565b6101cb565b60405190815260200160405180910390f35b61006e61008e366004610498565b610341565b6001546040516331a9108f60e11b8152600481018590526001600160a01b0390911690636352211e90602401602060405180830381865afa1580156100dc573d6000803e3d6000fd5b505050506040513d601f19601f8201168201806040525081019061010091906104da565b6001600160a01b0316336001600160a01b0316146101655760405162461bcd60e51b815260206004820152601d60248201527f6372656174654261646765537065633a20756e617574686f72697a656400000060448201526064015b60405180910390fd5b82600083836040516101789291906104fe565b908152602001604051809103902081905550827fb466833af41c38abc8887260cadc772d40d71dac514d012aafbe0b963d698c4c3384846040516101be93929190610537565b60405180910390a2505050565b60008086866040516101de9291906104fe565b9081526020016040518091039020546000141561023d5760405162461bcd60e51b815260206004820152601860248201527f636c61696d42616467653a20756e617574686f72697a65640000000000000000604482015260640161015c565b604080516020810185905280820184905260f886901b6001600160f81b03191660608201528151604181830301815260618201928390526002546323eb070760e21b909352916000916001600160a01b0390911690638fac1c1c906102ac908c908c908c908890606501610565565b6020604051808303816000875af11580156102cb573d6000803e3d6000fd5b505050506040513d601f19601f820116820180604052508101906102ef91906105db565b905080336001600160a01b03167f6854c057dc92416510857b3daad5434a4202a4d192cf0f85d496d91974efaea38a8a60405161032d9291906105f4565b60405180910390a398975050505050505050565b60008083836040516103549291906104fe565b908152602001604051809103902054905092915050565b60008083601f84011261037d57600080fd5b50813567ffffffffffffffff81111561039557600080fd5b6020830191508360208285010111156103ad57600080fd5b9250929050565b6000806000604084860312156103c957600080fd5b83359250602084013567ffffffffffffffff8111156103e757600080fd5b6103f38682870161036b565b9497909650939450505050565b6001600160a01b038116811461041557600080fd5b50565b60008060008060008060a0878903121561043157600080fd5b863561043c81610400565b9550602087013567ffffffffffffffff81111561045857600080fd5b61046489828a0161036b565b909650945050604087013560ff8116811461047e57600080fd5b959894975092956060810135946080909101359350915050565b600080602083850312156104ab57600080fd5b823567ffffffffffffffff8111156104c257600080fd5b6104ce8582860161036b565b90969095509350505050565b6000602082840312156104ec57600080fd5b81516104f781610400565b9392505050565b8183823760009101908152919050565b81835281816020850137506000828201602090810191909152601f909101601f19169091010190565b6001600160a01b038416815260406020820181905260009061055c908301848661050e565b95945050505050565b6001600160a01b03851681526060602080830182905260009161058b908401868861050e565b8381036040850152845180825260005b818110156105b657868101840151838201850152830161059b565b818111156105c75760008483850101525b50601f01601f191601019695505050505050565b6000602082840312156105ed57600080fd5b5051919050565b60208152600061060860208301848661050e565b94935050505056fea2646970667358221220419dc8d0e2f03f23d87cc77e362d7e95131069d56ec8f1ae168f6b807240448964736f6c634300080a0033",
    "linkReferences": {}
  },
  "methodIdentifiers": {
    "claimBadge(address,string,uint8,bytes32,bytes32)": "a938b7ba",
    "createBadgeSpec(uint256,string)": "a3e43430",
    "ownerOfSpec(string)": "db9cd4ba"
  },
  "id": 27
}