{
  "abi": [
    {
      "inputs": [
        {
          "internalType": "address",
          "name": "issuer",
          "type": "address"
        },
        {
          "internalType": "string",
          "name": "name",
          "type": "string"
        }
      ],
      "stateMutability": "nonpayable",
      "type": "constructor"
    },
    {
      "inputs": [],
      "name": "ErrorInvalidClaimantSignature",
      "type": "error"
    },
    {
      "inputs": [],
      "name": "ErrorInvalidIssuerSignature",
      "type": "error"
    },
    {
      "inputs": [],
      "name": "ErrorUsedClaim",
      "type": "error"
    },
    {
      "inputs": [],
      "name": "ISSUER",
      "outputs": [
        {
          "internalType": "address",
          "name": "",
          "type": "address"
        }
      ],
      "stateMutability": "view",
      "type": "function"
    },
    {
      "inputs": [
        {
          "internalType": "address",
          "name": "chainedAddress",
          "type": "address"
        }
      ],
      "name": "_genDataHash",
      "outputs": [
        {
          "internalType": "bytes32",
          "name": "",
          "type": "bytes32"
        }
      ],
      "stateMutability": "view",
      "type": "function"
    },
    {
      "inputs": [
        {
          "internalType": "address",
          "name": "collection",
          "type": "address"
        },
        {
          "internalType": "address",
          "name": "issuedAddress",
          "type": "address"
        },
        {
          "internalType": "uint8[2]",
          "name": "v",
          "type": "uint8[2]"
        },
        {
          "internalType": "bytes32[2]",
          "name": "r",
          "type": "bytes32[2]"
        },
        {
          "internalType": "bytes32[2]",
          "name": "s",
          "type": "bytes32[2]"
        }
      ],
      "name": "takeBadge",
      "outputs": [
        {
          "internalType": "uint256",
          "name": "",
          "type": "uint256"
        }
      ],
      "stateMutability": "nonpayable",
      "type": "function"
    },
    {
      "inputs": [
        {
          "internalType": "address",
          "name": "",
          "type": "address"
        }
      ],
      "name": "usedClaims",
      "outputs": [
        {
          "internalType": "bool",
          "name": "",
          "type": "bool"
        }
      ],
      "stateMutability": "view",
      "type": "function"
    }
  ],
  "bytecode": {
    "object": "0x6101806040527f9085804fb491e5bbdf50ca3096299cdc8ff7dfd17941c1156a0c793b11e81be36101405234801561003657600080fd5b50604051610c7c380380610c7c8339810160408190526100559161013b565b60408051808201825260018152603160f81b60209182015282519281019290922060e08190527fc89efdaa54c0f20c7adf612882df0950f5a951637e0307cdcb4c672f298b8bc66101008190524660a081815284517f8b73c3c69bb8fe3d512ecc4cf759cc79239f7b179b0ffacaa9a75d522b39400f818801819052818701959095526060810193909352608080840192909252308382018190528551808503909201825260c093840190955280519501949094209093529152610120526001600160a01b03166101605261022d565b634e487b7160e01b600052604160045260246000fd5b6000806040838503121561014e57600080fd5b82516001600160a01b038116811461016557600080fd5b602084810151919350906001600160401b038082111561018457600080fd5b818601915086601f83011261019857600080fd5b8151818111156101aa576101aa610125565b604051601f8201601f19908116603f011681019083821181831017156101d2576101d2610125565b8160405282815289868487010111156101ea57600080fd5b600093505b8284101561020c57848401860151818501870152928501926101ef565b8284111561021d5760008684830101525b8096505050505050509250929050565b60805160a05160c05160e051610100516101205161014051610160516109e4610298600039600081816056015261039b015260006101e90152600061049c015260006104eb015260006104c60152600061041f015260006104490152600061047301526109e46000f3fe608060405234801561001057600080fd5b506004361061004c5760003560e01c80634339b421146100515780638fe0573014610095578063f5958982146100b6578063f9da8303146100e9575b600080fd5b6100787f000000000000000000000000000000000000000000000000000000000000000081565b6040516001600160a01b0390911681526020015b60405180910390f35b6100a86100a3366004610828565b6100fc565b60405190815260200161008c565b6100d96100c4366004610828565b60006020819052908152604090205460ff1681565b604051901515815260200161008c565b6100a86100f73660046108ca565b61010d565b6000610107826101e4565b92915050565b600061011c8533868686610254565b61016d5760405162461bcd60e51b815260206004820181905260248201527f426164676556656e646f723a204661696c65642074616b696e6720426164676560448201526064015b60405180910390fd5b6040516335313c2160e11b815233600482015286906001600160a01b03821690636a627842906024016020604051808303816000875af11580156101b5573d6000803e3d6000fd5b505050506040513d601f19601f820116820180604052508101906101d9919061097f565b979650505050505050565b6000807f00000000000000000000000000000000000000000000000000000000000000008360405160200161022c9291909182526001600160a01b0316602082015260400190565b60405160208183030381529060405280519060200120905061024d8161032d565b9392505050565b6001600160a01b03851660009081526020819052604081205460ff161561028e57604051633e538f9560e21b815260040160405180910390fd5b8351835183516102a1928992909161037b565b6102be5760405163e9ec4a8b60e01b815260040160405180910390fd5b6102e086868660016020020151866001602002015186600160200201516103da565b6102fd57604051631b7c783960e01b815260040160405180910390fd5b506001600160a01b0385166000908152602081905260409020805460ff1916600190811790915595945050505050565b600061010761033a610412565b8360405161190160f01b6020820152602281018390526042810182905260009060620160405160208183030381529060405280519060200120905092915050565b600080610387866101e4565b9050600061039782878787610539565b90507f00000000000000000000000000000000000000000000000000000000000000006001600160a01b0316816001600160a01b03161492505050949350505050565b6000806103e6866101e4565b905060006103f682878787610539565b6001600160a01b03908116908916149250505095945050505050565b6000306001600160a01b037f00000000000000000000000000000000000000000000000000000000000000001614801561046b57507f000000000000000000000000000000000000000000000000000000000000000046145b1561049557507f000000000000000000000000000000000000000000000000000000000000000090565b50604080517f00000000000000000000000000000000000000000000000000000000000000006020808301919091527f0000000000000000000000000000000000000000000000000000000000000000828401527f000000000000000000000000000000000000000000000000000000000000000060608301524660808301523060a0808401919091528351808403909101815260c0909201909252805191012090565b600080600061054a87878787610561565b915091506105578161064e565b5095945050505050565b6000807f7fffffffffffffffffffffffffffffff5d576e7357a4501ddfe92f46681b20a08311156105985750600090506003610645565b8460ff16601b141580156105b057508460ff16601c14155b156105c15750600090506004610645565b6040805160008082526020820180845289905260ff881692820192909252606081018690526080810185905260019060a0016020604051602081039080840390855afa158015610615573d6000803e3d6000fd5b5050604051601f1901519150506001600160a01b03811661063e57600060019250925050610645565b9150600090505b94509492505050565b600081600481111561066257610662610998565b141561066b5750565b600181600481111561067f5761067f610998565b14156106cd5760405162461bcd60e51b815260206004820152601860248201527f45434453413a20696e76616c6964207369676e617475726500000000000000006044820152606401610164565b60028160048111156106e1576106e1610998565b141561072f5760405162461bcd60e51b815260206004820152601f60248201527f45434453413a20696e76616c6964207369676e6174757265206c656e677468006044820152606401610164565b600381600481111561074357610743610998565b141561079c5760405162461bcd60e51b815260206004820152602260248201527f45434453413a20696e76616c6964207369676e6174757265202773272076616c604482015261756560f01b6064820152608401610164565b60048160048111156107b0576107b0610998565b14156108095760405162461bcd60e51b815260206004820152602260248201527f45434453413a20696e76616c6964207369676e6174757265202776272076616c604482015261756560f01b6064820152608401610164565b50565b80356001600160a01b038116811461082357600080fd5b919050565b60006020828403121561083a57600080fd5b61024d8261080c565b6040805190810167ffffffffffffffff8111828210171561087457634e487b7160e01b600052604160045260246000fd5b60405290565b600082601f83011261088b57600080fd5b610893610843565b8060408401858111156108a557600080fd5b845b818110156108bf5780358452602093840193016108a7565b509095945050505050565b600080600080600061010086880312156108e357600080fd5b6108ec8661080c565b945060206108fb81880161080c565b945087605f88011261090c57600080fd5b610914610843565b80608089018a81111561092657600080fd5b60408a015b8181101561095257803560ff811681146109455760008081fd5b845292840192840161092b565b508196506109608b8261087a565b9550505050506109738760c0880161087a565b90509295509295909350565b60006020828403121561099157600080fd5b5051919050565b634e487b7160e01b600052602160045260246000fdfea2646970667358221220c4e0c08a1ce0bc47d8bd437d9601c9781a45688bf3f52aa06479bd21c57a747b64736f6c634300080a0033",
    "linkReferences": {}
  },
  "methodIdentifiers": {
    "ISSUER()": "4339b421",
    "_genDataHash(address)": "8fe05730",
    "takeBadge(address,address,uint8[2],bytes32[2],bytes32[2])": "f9da8303",
    "usedClaims(address)": "f5958982"
  },
  "id": 17
}